{
  "_format": "hh-sol-artifact-1",
  "contractName": "Messenger",
  "sourceName": "contracts/message/Messenger.sol",
  "abi": [
    {
      "inputs": [
        {
          "internalType": "address",
          "name": "regContract_",
          "type": "address"
        },
        {
          "internalType": "address",
          "name": "poolContract_",
          "type": "address"
        },
        {
          "internalType": "address",
          "name": "utilContract_",
          "type": "address"
        },
        {
          "internalType": "address",
          "name": "queueContract_",
          "type": "address"
        }
      ],
      "stateMutability": "nonpayable",
      "type": "constructor"
    },
    {
      "anonymous": false,
      "inputs": [
        {
          "indexed": true,
          "internalType": "address",
          "name": "sender",
          "type": "address"
        },
        {
          "indexed": true,
          "internalType": "address",
          "name": "recipient",
          "type": "address"
        },
        {
          "indexed": false,
          "internalType": "string",
          "name": "content",
          "type": "string"
        }
      ],
      "name": "MessageSent",
      "type": "event"
    },
    {
      "anonymous": false,
      "inputs": [
        {
          "indexed": true,
          "internalType": "address",
          "name": "userAddress",
          "type": "address"
        },
        {
          "indexed": false,
          "internalType": "string",
          "name": "publicKey",
          "type": "string"
        }
      ],
      "name": "PublicKeySet",
      "type": "event"
    },
    {
      "anonymous": false,
      "inputs": [
        {
          "indexed": true,
          "internalType": "bytes32",
          "name": "role",
          "type": "bytes32"
        },
        {
          "indexed": true,
          "internalType": "bytes32",
          "name": "previousAdminRole",
          "type": "bytes32"
        },
        {
          "indexed": true,
          "internalType": "bytes32",
          "name": "newAdminRole",
          "type": "bytes32"
        }
      ],
      "name": "RoleAdminChanged",
      "type": "event"
    },
    {
      "anonymous": false,
      "inputs": [
        {
          "indexed": true,
          "internalType": "bytes32",
          "name": "role",
          "type": "bytes32"
        },
        {
          "indexed": true,
          "internalType": "address",
          "name": "account",
          "type": "address"
        },
        {
          "indexed": true,
          "internalType": "address",
          "name": "sender",
          "type": "address"
        }
      ],
      "name": "RoleGranted",
      "type": "event"
    },
    {
      "anonymous": false,
      "inputs": [
        {
          "indexed": true,
          "internalType": "bytes32",
          "name": "role",
          "type": "bytes32"
        },
        {
          "indexed": true,
          "internalType": "address",
          "name": "account",
          "type": "address"
        },
        {
          "indexed": true,
          "internalType": "address",
          "name": "sender",
          "type": "address"
        }
      ],
      "name": "RoleRevoked",
      "type": "event"
    },
    {
      "inputs": [],
      "name": "DEFAULT_ADMIN_ROLE",
      "outputs": [
        {
          "internalType": "bytes32",
          "name": "",
          "type": "bytes32"
        }
      ],
      "stateMutability": "view",
      "type": "function"
    },
    {
      "inputs": [],
      "name": "MKT_ADMIN_ROLE",
      "outputs": [
        {
          "internalType": "bytes32",
          "name": "",
          "type": "bytes32"
        }
      ],
      "stateMutability": "view",
      "type": "function"
    },
    {
      "inputs": [
        {
          "internalType": "address",
          "name": "",
          "type": "address"
        }
      ],
      "name": "_publicKeys",
      "outputs": [
        {
          "internalType": "string",
          "name": "",
          "type": "string"
        }
      ],
      "stateMutability": "view",
      "type": "function"
    },
    {
      "inputs": [],
      "name": "allMsgUserInfo",
      "outputs": [
        {
          "components": [
            {
              "internalType": "address",
              "name": "userAddress",
              "type": "address"
            },
            {
              "internalType": "string",
              "name": "metadataUri",
              "type": "string"
            },
            {
              "internalType": "string",
              "name": "rsaPubKey",
              "type": "string"
            }
          ],
          "internalType": "struct Messenger.MsgUserInfo[]",
          "name": "",
          "type": "tuple[]"
        }
      ],
      "stateMutability": "view",
      "type": "function"
    },
    {
      "inputs": [],
      "name": "allowance",
      "outputs": [
        {
          "internalType": "uint256",
          "name": "",
          "type": "uint256"
        }
      ],
      "stateMutability": "view",
      "type": "function"
    },
    {
      "inputs": [],
      "name": "contractAddress",
      "outputs": [
        {
          "internalType": "address",
          "name": "",
          "type": "address"
        }
      ],
      "stateMutability": "view",
      "type": "function"
    },
    {
      "inputs": [],
      "name": "getMyMessages",
      "outputs": [
        {
          "components": [
            {
              "internalType": "uint256",
              "name": "messageId",
              "type": "uint256"
            },
            {
              "internalType": "bool",
              "name": "isPoolMsg",
              "type": "bool"
            },
            {
              "internalType": "address",
              "name": "sender",
              "type": "address"
            },
            {
              "internalType": "address",
              "name": "recipient",
              "type": "address"
            },
            {
              "internalType": "enum Offering.ActionType",
              "name": "msgType",
              "type": "uint8"
            },
            {
              "internalType": "uint256",
              "name": "replyTo",
              "type": "uint256"
            },
            {
              "internalType": "uint256",
              "name": "slotId",
              "type": "uint256"
            },
            {
              "internalType": "uint256",
              "name": "seqId",
              "type": "uint256"
            },
            {
              "internalType": "string",
              "name": "content",
              "type": "string"
            },
            {
              "internalType": "uint256",
              "name": "timestamp",
              "type": "uint256"
            },
            {
              "internalType": "bool",
              "name": "isRead",
              "type": "bool"
            },
            {
              "internalType": "bool",
              "name": "isAccepted",
              "type": "bool"
            },
            {
              "internalType": "bool",
              "name": "isExpired",
              "type": "bool"
            }
          ],
          "internalType": "struct Messenger.Message[]",
          "name": "",
          "type": "tuple[]"
        }
      ],
      "stateMutability": "view",
      "type": "function"
    },
    {
      "inputs": [
        {
          "internalType": "address",
          "name": "party",
          "type": "address"
        }
      ],
      "name": "getMyMessagesWithParty",
      "outputs": [
        {
          "components": [
            {
              "internalType": "uint256",
              "name": "messageId",
              "type": "uint256"
            },
            {
              "internalType": "bool",
              "name": "isPoolMsg",
              "type": "bool"
            },
            {
              "internalType": "address",
              "name": "sender",
              "type": "address"
            },
            {
              "internalType": "address",
              "name": "recipient",
              "type": "address"
            },
            {
              "internalType": "enum Offering.ActionType",
              "name": "msgType",
              "type": "uint8"
            },
            {
              "internalType": "uint256",
              "name": "replyTo",
              "type": "uint256"
            },
            {
              "internalType": "uint256",
              "name": "slotId",
              "type": "uint256"
            },
            {
              "internalType": "uint256",
              "name": "seqId",
              "type": "uint256"
            },
            {
              "internalType": "string",
              "name": "content",
              "type": "string"
            },
            {
              "internalType": "uint256",
              "name": "timestamp",
              "type": "uint256"
            },
            {
              "internalType": "bool",
              "name": "isRead",
              "type": "bool"
            },
            {
              "internalType": "bool",
              "name": "isAccepted",
              "type": "bool"
            },
            {
              "internalType": "bool",
              "name": "isExpired",
              "type": "bool"
            }
          ],
          "internalType": "struct Messenger.Message[]",
          "name": "",
          "type": "tuple[]"
        }
      ],
      "stateMutability": "view",
      "type": "function"
    },
    {
      "inputs": [
        {
          "internalType": "bytes32",
          "name": "role",
          "type": "bytes32"
        }
      ],
      "name": "getRoleAdmin",
      "outputs": [
        {
          "internalType": "bytes32",
          "name": "",
          "type": "bytes32"
        }
      ],
      "stateMutability": "view",
      "type": "function"
    },
    {
      "inputs": [
        {
          "internalType": "bytes32",
          "name": "role",
          "type": "bytes32"
        },
        {
          "internalType": "address",
          "name": "account",
          "type": "address"
        }
      ],
      "name": "grantRole",
      "outputs": [],
      "stateMutability": "nonpayable",
      "type": "function"
    },
    {
      "inputs": [
        {
          "internalType": "bytes32",
          "name": "role",
          "type": "bytes32"
        },
        {
          "internalType": "address",
          "name": "account",
          "type": "address"
        }
      ],
      "name": "hasRole",
      "outputs": [
        {
          "internalType": "bool",
          "name": "",
          "type": "bool"
        }
      ],
      "stateMutability": "view",
      "type": "function"
    },
    {
      "inputs": [
        {
          "internalType": "uint256",
          "name": "slotId_",
          "type": "uint256"
        },
        {
          "internalType": "uint256",
          "name": "amount_",
          "type": "uint256"
        }
      ],
      "name": "lockUsdc",
      "outputs": [],
      "stateMutability": "nonpayable",
      "type": "function"
    },
    {
      "inputs": [
        {
          "internalType": "uint256",
          "name": "_messageIndex",
          "type": "uint256"
        }
      ],
      "name": "markAsRead",
      "outputs": [],
      "stateMutability": "nonpayable",
      "type": "function"
    },
    {
      "inputs": [
        {
          "internalType": "address[]",
          "name": "users_",
          "type": "address[]"
        }
      ],
      "name": "msgUserInfo",
      "outputs": [
        {
          "components": [
            {
              "internalType": "address",
              "name": "userAddress",
              "type": "address"
            },
            {
              "internalType": "string",
              "name": "metadataUri",
              "type": "string"
            },
            {
              "internalType": "string",
              "name": "rsaPubKey",
              "type": "string"
            }
          ],
          "internalType": "struct Messenger.MsgUserInfo[]",
          "name": "",
          "type": "tuple[]"
        }
      ],
      "stateMutability": "view",
      "type": "function"
    },
    {
      "inputs": [
        {
          "internalType": "uint256",
          "name": "slotId_",
          "type": "uint256"
        }
      ],
      "name": "poolAes",
      "outputs": [
        {
          "components": [
            {
              "internalType": "string",
              "name": "aesKey",
              "type": "string"
            },
            {
              "internalType": "string",
              "name": "aesIv",
              "type": "string"
            }
          ],
          "internalType": "struct Messenger.PoolAesKey",
          "name": "",
          "type": "tuple"
        }
      ],
      "stateMutability": "view",
      "type": "function"
    },
    {
      "inputs": [
        {
          "internalType": "uint256[]",
          "name": "slotId_",
          "type": "uint256[]"
        }
      ],
      "name": "poolAesKeys",
      "outputs": [
        {
          "components": [
            {
              "internalType": "string",
              "name": "aesKey",
              "type": "string"
            },
            {
              "internalType": "string",
              "name": "aesIv",
              "type": "string"
            }
          ],
          "internalType": "struct Messenger.PoolAesKey[]",
          "name": "",
          "type": "tuple[]"
        }
      ],
      "stateMutability": "view",
      "type": "function"
    },
    {
      "inputs": [
        {
          "internalType": "address",
          "name": "offeringContract_",
          "type": "address"
        },
        {
          "internalType": "address",
          "name": "sender_",
          "type": "address"
        },
        {
          "internalType": "address",
          "name": "recipient_",
          "type": "address"
        },
        {
          "internalType": "string",
          "name": "offeringAssetId_",
          "type": "string"
        },
        {
          "internalType": "uint256",
          "name": "replyTo_",
          "type": "uint256"
        },
        {
          "internalType": "uint256",
          "name": "slotId_",
          "type": "uint256"
        },
        {
          "internalType": "string",
          "name": "content_",
          "type": "string"
        },
        {
          "internalType": "string",
          "name": "msgType_",
          "type": "string"
        }
      ],
      "name": "postComment",
      "outputs": [],
      "stateMutability": "nonpayable",
      "type": "function"
    },
    {
      "inputs": [
        {
          "internalType": "address",
          "name": "offeringContract_",
          "type": "address"
        },
        {
          "internalType": "string",
          "name": "assetId_",
          "type": "string"
        }
      ],
      "name": "readComments",
      "outputs": [
        {
          "components": [
            {
              "internalType": "uint256",
              "name": "messageId",
              "type": "uint256"
            },
            {
              "internalType": "bool",
              "name": "isPoolMsg",
              "type": "bool"
            },
            {
              "internalType": "address",
              "name": "sender",
              "type": "address"
            },
            {
              "internalType": "address",
              "name": "recipient",
              "type": "address"
            },
            {
              "internalType": "enum Offering.ActionType",
              "name": "msgType",
              "type": "uint8"
            },
            {
              "internalType": "uint256",
              "name": "replyTo",
              "type": "uint256"
            },
            {
              "internalType": "uint256",
              "name": "slotId",
              "type": "uint256"
            },
            {
              "internalType": "uint256",
              "name": "seqId",
              "type": "uint256"
            },
            {
              "internalType": "string",
              "name": "content",
              "type": "string"
            },
            {
              "internalType": "uint256",
              "name": "timestamp",
              "type": "uint256"
            },
            {
              "internalType": "bool",
              "name": "isRead",
              "type": "bool"
            },
            {
              "internalType": "bool",
              "name": "isAccepted",
              "type": "bool"
            },
            {
              "internalType": "bool",
              "name": "isExpired",
              "type": "bool"
            }
          ],
          "internalType": "struct Messenger.Message[]",
          "name": "",
          "type": "tuple[]"
        }
      ],
      "stateMutability": "view",
      "type": "function"
    },
    {
      "inputs": [
        {
          "internalType": "bytes32",
          "name": "role",
          "type": "bytes32"
        },
        {
          "internalType": "address",
          "name": "account",
          "type": "address"
        }
      ],
      "name": "renounceRole",
      "outputs": [],
      "stateMutability": "nonpayable",
      "type": "function"
    },
    {
      "inputs": [
        {
          "internalType": "bytes32",
          "name": "role",
          "type": "bytes32"
        },
        {
          "internalType": "address",
          "name": "account",
          "type": "address"
        }
      ],
      "name": "revokeRole",
      "outputs": [],
      "stateMutability": "nonpayable",
      "type": "function"
    },
    {
      "inputs": [],
      "name": "rsaKeys",
      "outputs": [
        {
          "components": [
            {
              "internalType": "string",
              "name": "pub",
              "type": "string"
            },
            {
              "internalType": "string",
              "name": "priv",
              "type": "string"
            }
          ],
          "internalType": "struct Messenger.RsaKeys",
          "name": "",
          "type": "tuple"
        }
      ],
      "stateMutability": "view",
      "type": "function"
    },
    {
      "inputs": [
        {
          "internalType": "address",
          "name": "recipient_",
          "type": "address"
        },
        {
          "internalType": "string",
          "name": "content_",
          "type": "string"
        },
        {
          "internalType": "string",
          "name": "msgType_",
          "type": "string"
        },
        {
          "internalType": "uint256",
          "name": "seqId_",
          "type": "uint256"
        },
        {
          "internalType": "uint256",
          "name": "expiryTime_",
          "type": "uint256"
        },
        {
          "internalType": "uint256",
          "name": "valueUnlockTime_",
          "type": "uint256"
        }
      ],
      "name": "sendMessage",
      "outputs": [
        {
          "internalType": "uint256",
          "name": "",
          "type": "uint256"
        }
      ],
      "stateMutability": "nonpayable",
      "type": "function"
    },
    {
      "inputs": [
        {
          "internalType": "address",
          "name": "sender_",
          "type": "address"
        },
        {
          "internalType": "uint256",
          "name": "slotId_",
          "type": "uint256"
        },
        {
          "internalType": "string",
          "name": "content_",
          "type": "string"
        },
        {
          "internalType": "string",
          "name": "msgType_",
          "type": "string"
        },
        {
          "internalType": "uint256",
          "name": "seqId_",
          "type": "uint256"
        }
      ],
      "name": "sendPoolMessage",
      "outputs": [],
      "stateMutability": "nonpayable",
      "type": "function"
    },
    {
      "inputs": [
        {
          "internalType": "address",
          "name": "recipient_",
          "type": "address"
        },
        {
          "internalType": "string",
          "name": "content_",
          "type": "string"
        },
        {
          "internalType": "string",
          "name": "msgType_",
          "type": "string"
        },
        {
          "internalType": "uint256",
          "name": "seqId_",
          "type": "uint256"
        },
        {
          "internalType": "uint256",
          "name": "value_",
          "type": "uint256"
        },
        {
          "internalType": "string",
          "name": "currency_",
          "type": "string"
        },
        {
          "internalType": "uint256",
          "name": "msgExpiryTime_",
          "type": "uint256"
        },
        {
          "internalType": "uint256",
          "name": "valueUnlockTime_",
          "type": "uint256"
        }
      ],
      "name": "sendValuedMessage",
      "outputs": [],
      "stateMutability": "nonpayable",
      "type": "function"
    },
    {
      "inputs": [
        {
          "internalType": "uint256",
          "name": "floor_",
          "type": "uint256"
        },
        {
          "internalType": "string",
          "name": "currency_",
          "type": "string"
        }
      ],
      "name": "setDMFloorValue",
      "outputs": [],
      "stateMutability": "nonpayable",
      "type": "function"
    },
    {
      "inputs": [
        {
          "internalType": "string",
          "name": "_publicKey",
          "type": "string"
        },
        {
          "internalType": "string",
          "name": "_privateKey",
          "type": "string"
        }
      ],
      "name": "setKeys",
      "outputs": [],
      "stateMutability": "nonpayable",
      "type": "function"
    },
    {
      "inputs": [
        {
          "internalType": "address",
          "name": "_user",
          "type": "address"
        },
        {
          "internalType": "string",
          "name": "_publicKey",
          "type": "string"
        },
        {
          "internalType": "string",
          "name": "_privateKey",
          "type": "string"
        }
      ],
      "name": "setKeysForUser",
      "outputs": [],
      "stateMutability": "nonpayable",
      "type": "function"
    },
    {
      "inputs": [
        {
          "internalType": "uint256",
          "name": "slotId_",
          "type": "uint256"
        },
        {
          "internalType": "string",
          "name": "aesKey_",
          "type": "string"
        },
        {
          "internalType": "string",
          "name": "aesIv_",
          "type": "string"
        }
      ],
      "name": "setPoolAes",
      "outputs": [],
      "stateMutability": "nonpayable",
      "type": "function"
    },
    {
      "inputs": [
        {
          "internalType": "address",
          "name": "ownerAddress",
          "type": "address"
        },
        {
          "internalType": "uint256",
          "name": "slotId_",
          "type": "uint256"
        },
        {
          "internalType": "string",
          "name": "aesKey_",
          "type": "string"
        },
        {
          "internalType": "string",
          "name": "aesIv_",
          "type": "string"
        }
      ],
      "name": "setPoolAesForOwner",
      "outputs": [],
      "stateMutability": "nonpayable",
      "type": "function"
    },
    {
      "inputs": [
        {
          "internalType": "string",
          "name": "_privateKey",
          "type": "string"
        }
      ],
      "name": "setPrivateKey",
      "outputs": [],
      "stateMutability": "nonpayable",
      "type": "function"
    },
    {
      "inputs": [
        {
          "internalType": "string",
          "name": "_publicKey",
          "type": "string"
        }
      ],
      "name": "setPublicKey",
      "outputs": [],
      "stateMutability": "nonpayable",
      "type": "function"
    },
    {
      "inputs": [
        {
          "internalType": "bytes4",
          "name": "interfaceId",
          "type": "bytes4"
        }
      ],
      "name": "supportsInterface",
      "outputs": [
        {
          "internalType": "bool",
          "name": "",
          "type": "bool"
        }
      ],
      "stateMutability": "view",
      "type": "function"
    },
    {
      "inputs": [
        {
          "internalType": "uint256",
          "name": "msgId",
          "type": "uint256"
        }
      ],
      "name": "unlockRejectedFunds",
      "outputs": [],
      "stateMutability": "nonpayable",
      "type": "function"
    },
    {
      "inputs": [],
      "name": "userMsgCount",
      "outputs": [
        {
          "internalType": "uint256",
          "name": "",
          "type": "uint256"
        }
      ],
      "stateMutability": "view",
      "type": "function"
    }
  ],
  "bytecode": "0x608060409080825234620001cf57608081620041358038038091620000258285620001d4565b833981010312620001cf576200003b816200020e565b6020916200004b8382016200020e565b926004620000696060620000618886016200020e565b94016200020e565b92827fb6e67d9fc30da7082da03dcb74e53bec9a276f3020bb3303807ebc4efaec9e2c91600092808452838352898420338552835260ff8a852054161562000184575b5060018060a01b0380809816918160018060a01b03199a848c6001541617600155168a600254161760025516886003541617600355885193848092630b8042e560e21b82525afa92831562000178579085939291819362000132575b50505016836004541617600455169060065416176006556001600f5551613f119081620002248239f35b919350915082813d811162000170575b6200014e8183620001d4565b810103126200016d57506200016483916200020e565b38808062000108565b80fd5b503d62000142565b508651903d90823e3d90fd5b8084528383528984203385528352898420600160ff19825416179055339033907f2f8788117e7eff1d82e926ec794901d17c78024a50270940304540a733656f0d8680a438620000ac565b600080fd5b601f909101601f19168101906001600160401b03821190821017620001f857604052565b634e487b7160e01b600052604160045260246000fd5b51906001600160a01b0382168203620001cf5756fe608080604052600436101561001357600080fd5b600090813560e01c90816301ffc9a7146126c857508063094cb46a146125da5780630e0e77221461237b578063248a9ca31461234f5780632a6b05ac146122475780632c76beff146121f85780632f2ff15d1461214a57806336568abe146120b7578063368855be146120485780633ac135c414611fda57806344d786a814611e16578063597bbe5b14611d715780635e7339ce14611c9d5780636db47bd414611acd5780636e6019e6146117e55780636f6fc077146117b15780637c100c361461172f5780637f86f9501461166157806390877ca6146115f657806391d14854146115ae5780639eb6c7cc14611585578063a217fddf14611569578063b75cfa711461122c578063b7a65b7014610f07578063bba610b014610eb2578063d547741f14610e75578063de242ff414610ddd578063e0d4f01714610d9d578063e132c48414610d33578063ee9339ce14610a3a578063f4283ac414610718578063f4f15b5d146103bb578063f6b4dfb4146103a05763fb7382db1461019757600080fd5b3461039d57604036600319011261039d576101b0612845565b6024916001600160401b03918335838111610399576101d39036906004016129ff565b92826040518093630aeaeb4960e41b825281806101fb6020998a60048401528b830190612740565b03916001600160a01b03165afa91821561038e5783926102a2575b50506102228151613deb565b825b825160ff821690811015610290578060406102426102689387613298565b5101518652600c875261025760408720613d2b565b6102618286613298565b5283613298565b5060ff80911690811461027d57600101610224565b634e487b7160e01b845260116004528584fd5b6040518061029e8582612a69565b0390f35b9091503d8084833e6102b4818361280d565b81019084818303126103865780519083821161038a570181601f82011215610386578051916102e28361282e565b936102f0604051958661280d565b8385528685019187606080960285010193818511610382578801925b848410610320575050505050503880610216565b8584830312610382576040518681018181108582111761036d5760405284516009811015610369578152848a01518a82015260408086015190820152815292850192880161030c565b8980fd5b8b634e487b7160e01b60005260416004526000fd5b8780fd5b8380fd5b8480fd5b6040513d85823e3d90fd5b8280fd5b80fd5b503461039d578060031936011261039d576020604051308152f35b503461039d57608036600319011261039d576103d5612845565b602435906001600160401b0360443581811161038a576103f99036906004016129ff565b606435828111610714576104119036906004016129ff565b9360018060a01b0393600194602488828854166040519283809263b2025e4f60e01b82528860048301525afa80156107095782918a916106e7575b50511691161480156106b3575b61046290613181565b6040519161046f83612792565b825260209081830195865286526009815260408620915191825184811161069f5790859161049d8254612871565b94601f95868111610651575b5084908683116001146105ef578a9190836105e4575b5050600019600383901b1c191690831b1781555b0194519081519384116105d0576104ea8654612871565b83811161058c575b508092841160011461052b57509282939183928794610520575b50501b916000199060031b1c191617905580f35b01519250388061050c565b919083601f1981168789528489209489905b888383106105725750505010610559575b505050811b01905580f35b015160001960f88460031b161c1916905538808061054e565b85870151885590960195948501948793509081019061053d565b8688528188208480870160051c8201928488106105c7575b0160051c019086905b8281106105bb5750506104f2565b600081550186906105ad565b925081926105a4565b634e487b7160e01b87526041600452602487fd5b0151905038806104bf565b838b52858b209190601f1984168c5b8882821061063b5750509084879594939210610622575b505050811b0181556104d3565b015160001960f88460031b161c19169055388080610615565b8385015186558c989095019493840193016105fe565b9091928094508a52848a208680850160051c820192878610610696575b908a9695949392910160051c01905b81811061068a57506104a9565b6000815589950161067d565b9250819261066e565b634e487b7160e01b88526041600452602488fd5b50600080516020613ebc833981519152865285602052604086203360005260205261046260ff604060002054169050610459565b61070391503d808c833e6106fb818361280d565b8101906134cc565b3861044c565b6040513d8b823e3d90fd5b8580fd5b503461039d5761010036600319011261039d57610733612845565b60246001600160401b03813581811161038a576107549036906004016129ff565b6044358281116107145761076c9036906004016129ff565b906084359460a435938411610a365761078c6107c39436906004016129ff565b600154604051630c279abf60e31b8152602060048201819052966001600160a01b039392841692889183918291908c830190612740565b0381855afa8015610a2b578a906109f5575b6107df9150613480565b338952600886528760408a2054116109b157871561097657600087916040519283809263b2025e4f60e01b8252600160048301525afa80156108e3576101409160009161095d575b5001511561092857600480546040516323b872dd60e01b815233928101929092523060248301526044820189905286908290606490829060009087165af180156108e3576108f4575b506002541694853b156108ef576001606460009283604051998a9485936327968e0960e01b85523360048601528401528b60448401525af19283156108e3576007956108c9946108d4575b5060c435926064359261363b565b845252604082205580f35b6108dd906127de565b386108bb565b6040513d6000823e3d90fd5b600080fd5b8581813d8311610921575b610909818361280d565b810103126108ef5761091a90613473565b5038610870565b503d6108ff565b60405162461bcd60e51b815260048101869052600e818801526d141bdbdb081b9bdd081d985b1a5960921b6044820152606490fd5b610970913d8091833e6106fb818361280d565b38610827565b60405162461bcd60e51b815260048101879052601481890152730616d6f756e742073686f756c64206265203e20360641b6044820152606490fd5b60405162461bcd60e51b8152600481018790526017818901527f56616c75652062656c6f7720666c6f6f722070726963650000000000000000006044820152606490fd5b508681813d8311610a24575b610a0b818361280d565b8101031261036957610a1f6107df91613473565b6107d5565b503d610a01565b6040513d8c823e3d90fd5b8680fd5b503461039d57606036600319011261039d576001600160401b0360043560243582811161038657610a6f9036906004016129ff565b9160443581811161038a57610a889036906004016129ff565b9260018060a01b0392600193602487828754166040519283809263b2025e4f60e01b82528760048301525afa908115610d28578891610d0e575b50511633148015610cda575b610ad790613181565b60405191610ae483612792565b825260209081830195865286526009815260408620915191825184811161069f57908591610b128254612871565b94601f95868111610c8c575b508490868311600114610c2a578a919083610c1f575b5050600019600383901b1c191690831b1781555b0194519081519384116105d057610b5f8654612871565b838111610bdb575b5080928411600114610b94575092829391839287946105205750501b916000199060031b1c191617905580f35b919083601f1981168789528489209489905b88838310610bc1575050501061055957505050811b01905580f35b858701518855909601959485019487935090810190610ba6565b8688528188208480870160051c820192848810610c16575b0160051c019086905b828110610c0a575050610b67565b60008155018690610bfc565b92508192610bf3565b015190503880610b34565b838b52858b209190601f1984168c5b88828210610c765750509084879594939210610c5d575b505050811b018155610b48565b015160001960f88460031b161c19169055388080610c50565b8385015186558c98909501949384019301610c39565b9091928094508a52848a208680850160051c820192878610610cd1575b908a9695949392910160051c01905b818110610cc55750610b1e565b60008155899501610cb8565b92508192610ca9565b50600080516020613ebc8339815191528652856020526040862033600052602052610ad760ff604060002054169050610ace565b610d2291503d808a833e6106fb818361280d565b38610ac2565b6040513d8a823e3d90fd5b503461039d578060031936011261039d5761029e90610d506131c5565b50338152600b602052610d84604080832092600a60205220610d7d60405193610d7885612792565b6128ab565b83526128ab565b6020820152604051918291602083526020830190612765565b503461039d57602036600319011261039d576004356001600160401b038111610dd957610dd1610dd69136906004016129ff565b612f09565b80f35b5080fd5b503461039d578060031936011261039d576044602060018060a01b036004541660405192838092636eb1769f60e11b82523360048301523060248301525afa908115610e6a578291610e35575b602082604051908152f35b90506020813d8211610e62575b81610e4f6020938361280d565b81010312610dd957602091505138610e2a565b3d9150610e42565b6040513d84823e3d90fd5b503461039d57604036600319011261039d57610dd6600435610e9561285b565b9080845283602052610ead6001604086200154612b6e565b612e6e565b503461039d57604036600319011261039d576001600160401b0360043581811161039957610ee49036906004016129ff565b60243591821161039957610f02610dd1610dd69336906004016129ff565b61301d565b503461039d5761010036600319011261039d57610f22612845565b90610f2b61285b565b6044356001600160a01b0381168103610399576064356001600160401b03811161038657610f5d9036906004016129ff565b60c4356001600160401b03811161038a57610f7c9036906004016129ff565b9460e4356001600160401b03811161071457610f9f610fa49136906004016129ff565b61399e565b92600f5494610fb286613273565b600f55858752600c6020526040872060843560038201556001808201805460a43560048501556001600160a81b031916600885901b610100600160a81b03161790911790556110059086906002016135e9565b858752600c602052604087206002810180546001600160a01b0319166001600160a01b03851617905588516006909101906001600160401b0381116112185761104e8254612871565b601f81116111d7575b506020601f821160011461116d5781908a9b8b9a9b92611162575b50508160011b916000199060031b1c19161790555b868652600c60205242600760408820015586604087205560018060a01b03168552600d6020526110ba866040872061360d565b6001600160a01b03168452600d602052604084206110d990869061360d565b6001600160a01b031690813b156103865783611118916111289660405197889687958694631936701f60e31b8652606060048701526064860190612740565b9260248501526044840190612a46565b03925af18015610e6a5761113a575080f35b6001600160401b03811161114e5760405280f35b634e487b7160e01b82526041600452602482fd5b015190503880611072565b828a5260208a209a8a5b601f19841681106111bf57509a82918b9c600194601f9d9c9d198116106111a6575b505050811b019055611087565b015160001960f88460031b161c19169055388080611199565b828201518d556001909c019b60209283019201611177565b828a5260208a20601f830160051c810160208410611211575b601f830160051c82018110611206575050611057565b8b81556001016111f0565b50806111f0565b634e487b7160e01b89526041600452602489fd5b503461039d57606036600319011261039d57611246612845565b906001600160401b03602435818111610399576112679036906004016129ff565b6044358281116103865761127f9036906004016129ff565b936001600160a01b031691821561151857600080516020613ebc83398151915284526020908482526040852033865282526112c060ff604087205416613181565b838552600a82526040852086518281116105d057806112df8354612871565b98601f998a81116114cc575b5085908a831160011461146957899261145e575b50508160011b916000199060031b1c19161790555b838552600b82526040852090835190811161144a576113338254612871565b87811161140a575b508296811160011461139a57808697600080516020613e9c83398151915296979161138f575b508160011b916000199060031b1c19161790555b611389604051928284938452830190612740565b0390a280f35b905084015138611361565b81865282862096601f198216875b8181106113f35750978291600193600080516020613e9c83398151915298999a106113da575b5050811b019055611375565b86015160001960f88460031b161c1916905538806113ce565b868301518a556001909901989185019185016113a8565b8287528387208880840160051c820192868510611441575b0160051c01905b818110611436575061133b565b878155600101611429565b92508192611422565b634e487b7160e01b86526041600452602486fd5b0151905038806112ff565b848a52868a209250601f1984168a5b888282106114b657505090846001959493921061149d575b505050811b019055611314565b015160001960f88460031b161c19169055388080611490565b6001859682939686015181550195019301611478565b9091508389528589208a80850160051c82019288861061150f575b9085949392910160051c01905b81811061150157506112eb565b8a81558493506001016114f4565b925081926114e7565b60405162461bcd60e51b815260206004820152602360248201527f5573657220616464726573732063616e6e6f74206265207a65726f206164647260448201526265737360e81b6064820152608490fd5b503461039d578060031936011261039d57602090604051908152f35b503461039d578060031936011261039d576020604051600080516020613ebc8339815191528152f35b503461039d57604036600319011261039d5760ff60406020926115cf61285b565b60043582528185528282206001600160a01b03909116825284522054604051911615158152f35b503461039d578060031936011261039d57338152602090600d82526040812090604051809283918582549182815201918452858420935b8682821061164b57846116428186038261280d565b51604051908152f35b855484526001958601958795509301920161162d565b503461039d57604036600319011261039d576024356001600160401b038111610dd9576116929036906004016129ff565b6116c760018060a01b0360015416916040518093630c279abf60e31b8252818060209586958660048401526024830190612740565b03915afa91821561038e5783926116f4575b506116e5600892613480565b33835252600435604082205580f35b91508082813d8311611728575b61170b818361280d565b81010312610399576116e5611721600893613473565b92506116d9565b503d611701565b503461039d57602036600319011261039d57600435338252600d6020526040822054811015611774578152600c60205260408120600801805460ff1916600117905580f35b60405162461bcd60e51b8152602060048201526015602482015274092dcecc2d8d2c840dacae6e6c2ceca40d2dcc8caf605b1b6044820152606490fd5b503461039d57602036600319011261039d576004356001600160401b038111610dd957610f02610dd69136906004016129ff565b503461039d5760a036600319011261039d576117ff612845565b6044356001600160401b0381116103995761181e9036906004016129ff565b916064356001600160401b038111610dd957610f9f6118419136906004016129ff565b600154604051630d0ab97760e31b815260248035600483015292939290918391839182906001600160a01b03165afa908115610e6a578291611aab575b50815b8151811015611aa757600f80549061189882613273565b9055808452600c602052604084206001808201805460243560048501556001600160a81b03191660088a901b610100600160a81b03161790911790556002906118e490879083016135e9565b818552600c602052604085206084356005909101556001600160a01b0361190b8486613298565b511690828652600c6020526040862001906bffffffffffffffffffffffff60a01b8254161790556006604085200187516001600160401b03811161144a576119538254612871565b601f8111611a66575b506020601f82116001146119f75791816119e79594926119e29489916119ec575b508160011b916000199060031b1c19161790555b808652600c60205242600760408820015560018060a01b0388168652600d806020526119c0826040892061360d565b6001600160a01b036119d28588613298565b511687526020526040862061360d565b613273565b611881565b90508b01513861197d565b8287526020872090875b8b601f1985168210611a4e575050826119e294926001926119e7989795601f19811610611a35575b5050811b019055611991565b8d015160001960f88460031b161c191690553880611a29565b60018394602093948493015181550193019101611a01565b82875260208720601f830160051c810160208410611aa0575b601f830160051c82018110611a9557505061195c565b888155600101611a7f565b5080611a7f565b8280f35b611ac791503d8084833e611abf818361280d565b8101906131f2565b3861187e565b503461039d57604036600319011261039d576004356024358015611c615760015460405163b2025e4f60e01b8152600481018490526001600160a01b03929185908290602490829087165afa8015611c5657610140918691611c3c575b50015115611c0657600480546040516323b872dd60e01b81523392810192909252306024830152604482018390528593919060209082906064908290889087165af18015611bfb57611bc3575b506002541692833b15610399576064908360405195869485936327968e0960e01b8552336004860152602485015260448401525af18015610e6a57611bba575080f35b610dd6906127de565b6020813d8211611bf3575b81611bdb6020938361280d565b8101031261038657611bec90613473565b5038611b77565b3d9150611bce565b6040513d86823e3d90fd5b60405162461bcd60e51b815260206004820152600e60248201526d141bdbdb081b9bdd081d985b1a5960921b6044820152606490fd5b611c5091503d8088833e6106fb818361280d565b38611b2a565b6040513d87823e3d90fd5b60405162461bcd60e51b81526020600482015260146024820152730616d6f756e742073686f756c64206265203e20360641b6044820152606490fd5b503461039d578060031936011261039d57338152602090600d82526040812090604051808385829554938481520190845285842092845b87828210611d5b57505050611ceb9250038361280d565b611cf58251613deb565b92815b8351811015611d4d5780611d0f611d489286613298565b50611d1a8186613298565b518452600c8352611d2d60408520613d2b565b611d378288613298565b52611d428187613298565b50613273565b611cf8565b6040518061029e8782612a69565b8554845260019586019588955093019201611cd4565b503461039d57602080600319360112610dd9576004356001600160401b0381116103995736602382011215610399578060040135611dae8161282e565b93611dbc604051958661280d565b81855260248486019260051b84010192368411610dd957602401915b838310611df75761029e611deb87613313565b60405191829182612951565b82356001600160a01b0381168103610399578152918401918401611dd8565b503461039d576020908160031936011261039d5790611e33612845565b338352600d8252604083209260405180948591858254918281520191845285842090845b818110611fc35750505090611e6d91038561280d565b906001600160a01b039081169082805b8651811015611efb57611e908188613298565b518252600c8087528484600160408620015460081c1614908115611ed8575b50611ec3575b611ebe90613273565b611e7d565b93611ed0611ebe91613273565b949050611eb5565b9050611ee48289613298565b518352865283836002604085200154161438611eaf565b5094909392611f0990613deb565b908592865b8251811015611fb55780611f25611f4d9285613298565b518952600c8088528389600160408d20015460081c16148015611f93575b611f525750613273565b611f0e565b611f5c8286613298565b518a528752611f8c60408a2096611f7b611f7582613273565b98613d2b565b611f858289613298565b5286613298565b5038611d42565b50611f9e8286613298565b518a528088528389600260408d2001541614611f43565b6040518061029e8682612a69565b825484528894509287019260019283019201611e57565b503461039d5760c036600319011261039d57611ff4612845565b6001600160401b03602435818111610386576120149036906004016129ff565b9260443591821161039d576020612040858561203336600488016129ff565b608435926064359261363b565b604051908152f35b503461039d578060031936011261039d57600154604051630be3eb6160e41b8152908290829060049082906001600160a01b03165afa908115610e6a5790611deb918361029e949261209c575b5050613313565b6120b092503d8091833e611abf818361280d565b3880612095565b503461039d57604036600319011261039d576120d161285b565b336001600160a01b038216036120ed57610dd690600435612e6e565b60405162461bcd60e51b815260206004820152602f60248201527f416363657373436f6e74726f6c3a2063616e206f6e6c792072656e6f756e636560448201526e103937b632b9903337b91039b2b63360891b6064820152608490fd5b503461039d57604036600319011261039d5760043561216761285b565b8183528260205261217e6001604085200154612b6e565b818352602083815260408085206001600160a01b039093168086529290915283205460ff16156121ac578280f35b818352826020526040832081845260205260408320600160ff1982541617905533917f2f8788117e7eff1d82e926ec794901d17c78024a50270940304540a733656f0d8480a438808280f35b503461039d57602036600319011261039d5761029e90612233906040906001600160a01b03612225612845565b168152600b602052206128ab565b604051918291602083526020830190612740565b503461039d57602080600319360112610dd957600435808352600c82526040612271818520613d2b565b0180516001600160a01b039291908316156123165751908452600783526040808520546004805492516323b872dd60e01b815230918101919091529284166001600160a01b03166024840152604483015290929182918491168186816064810103925af1801561038e576122e3578280f35b81813d831161230f575b6122f7818361280d565b81010312610dd95761230890613473565b5038808280f35b503d6122ed565b60405162461bcd60e51b815260048101859052601160248201527013595cdcd859d9481b9bdd08199bdd5b99607a1b6044820152606490fd5b503461039d57602036600319011261039d57600160406020926004358152808452200154604051908152f35b503461039d57602080600319360112610dd957600435916001600160401b03831161039d573660238401121561039d578260040135926123ba8461282e565b936123c8604051958661280d565b80855260248486019160051b8301019136831161038657929492602401905b8282106125cb575050508051926123fd8461282e565b9361240b604051958661280d565b80855261241a601f199161282e565b01815b8181106125af575050600180549092906001600160a01b031682845b61249e575b50505060405192808401908085528551809252604085018160408460051b880101970193905b8382106124715786880387f35b9091929394838061248d839a603f198b82030186528951612765565b999701959493919091019101612464565b82969496518110156125a7576124e0866124b88386613298565b51604051630283308760e11b8152600481019190915233602482015291829081906044820190565b0381865afa908115611c56579088949392918691612561575b509061250761255792613181565b6125118185613298565b518652600988526040862061253e866040519261252d84612792565b612536816128ab565b8452016128ab565b8982015261254c8289613298565b52611d428188613298565b9091929496612439565b809293949550888092503d83116125a0575b61257d818361280d565b8101031261038a578793929161250761259861255793613473565b9192506124f9565b503d612573565b95939561243e565b84906125bc9694966131c5565b8282870101520194929461241d565b813581529084019084016123e7565b503461039d57602080600319360112610dd957600435916125f96131c5565b50600154604051630283308760e11b81526004810185905233602482015293908390859060449082906001600160a01b03165afa938415610e6a57829461268b575b5061264860409394613181565b815260098352209061267360016040519361266285612792565b61266b816128ab565b8552016128ab565b8183015261029e604051928284938452830190612765565b93508284813d83116126c1575b6126a2818361280d565b81010312610dd9576126486126b960409495613473565b94935061263b565b503d612698565b905034610dd9576020366003190112610dd95760043563ffffffff60e01b81168091036103995760209250637965db0b60e01b811490811561270c575b5015158152f35b6301ffc9a760e01b14905038612705565b60005b8381106127305750506000910152565b8181015183820152602001612720565b906020916127598151809281855285808601910161271d565b601f01601f1916010190565b61278f91602061277e8351604084526040840190612740565b920151906020818403910152612740565b90565b604081019081106001600160401b038211176127ad57604052565b634e487b7160e01b600052604160045260246000fd5b606081019081106001600160401b038211176127ad57604052565b6001600160401b0381116127ad57604052565b6101a081019081106001600160401b038211176127ad57604052565b90601f801991011681019081106001600160401b038211176127ad57604052565b6001600160401b0381116127ad5760051b60200190565b600435906001600160a01b03821682036108ef57565b602435906001600160a01b03821682036108ef57565b90600182811c921680156128a1575b602083101461288b57565b634e487b7160e01b600052602260045260246000fd5b91607f1691612880565b90604051918260008254926128bf84612871565b90818452600194858116908160001461292e57506001146128eb575b50506128e99250038361280d565b565b9093915060005260209081600020936000915b8183106129165750506128e9935082010138806128db565b855488840185015294850194879450918301916128fe565b9150506128e994506020925060ff191682840152151560051b82010138806128db565b602080820190808352835180925260409283810182858560051b8401019601946000925b858410612986575050505050505090565b9091929394959685806129d3600193603f198682030188528b5190858060a01b038251168152876129c38584015160608088860152840190612740565b9201519088818403910152612740565b990194019401929594939190612975565b6001600160401b0381116127ad57601f01601f191660200190565b81601f820112156108ef57803590612a16826129e4565b92612a24604051948561280d565b828452602083830101116108ef57816000926020809301838601378301015290565b906009821015612a535752565b634e487b7160e01b600052602160045260246000fd5b602080820190808352835180925260409283810182858560051b8401019601946000925b858410612a9e575050505050505090565b909192939495968580600192603f198582030187528a51908151815282820151151583820152848060a01b0380888401511688830152606090818401511690820152612af260808084015190830190612a46565b60a0808301519082015260c0808301519082015260e08083015190820152612b2b61010080840151906101a08091850152830190612740565b9161012080820151908301526101408082015115159083015261016080820151151590830152610180809101511515910152990194019401929594939190612a8d565b600090808252602090828252604092838120338252835260ff848220541615612b975750505050565b33845192612ba4846127c3565b602a84528484019086368337845115612e5a5760308253845192600193841015612e46576078602187015360295b848111612ddc5750612d9a57865192608084018481106001600160401b0382111761144a57885260428452868401946060368737845115612d8657603086538451821015612d865790607860218601536041915b818311612d1857505050612cd657612cd2938693612cb693612ca7604894612c7e9a519a8b957f416363657373436f6e74726f6c3a206163636f756e74200000000000000000008c880152518092603788019061271d565b8401917001034b99036b4b9b9b4b733903937b6329607d1b60378401525180938684019061271d565b0103602881018752018561280d565b5192839262461bcd60e51b845260048401526024830190612740565b0390fd5b60648587519062461bcd60e51b825280600483015260248201527f537472696e67733a20686578206c656e67746820696e73756666696369656e746044820152fd5b909192600f81166010811015612d72576f181899199a1a9b1b9c1cb0b131b232b360811b901a612d488588612ee2565b5360041c928015612d5e57600019019190612c26565b634e487b7160e01b82526011600452602482fd5b634e487b7160e01b83526032600452602483fd5b634e487b7160e01b81526032600452602490fd5b60648688519062461bcd60e51b825280600483015260248201527f537472696e67733a20686578206c656e67746820696e73756666696369656e746044820152fd5b90600f81166010811015612e32576f181899199a1a9b1b9c1cb0b131b232b360811b901a612e0a8389612ee2565b5360041c908015612e1e5760001901612bd2565b634e487b7160e01b86526011600452602486fd5b634e487b7160e01b87526032600452602487fd5b634e487b7160e01b85526032600452602485fd5b634e487b7160e01b84526032600452602484fd5b9060009180835282602052604083209160018060a01b03169182845260205260ff604084205416612e9e57505050565b80835282602052604083208284526020526040832060ff1981541690557ff6391f5c32d9c69d2a47ea670b442974b53935d1edc7fd64eb21e047a839171b339380a4565b908151811015612ef3570160200190565b634e487b7160e01b600052603260045260246000fd5b906000338152602092600a845260408220918151916001600160401b03831161114e57612f368454612871565b601f8111612fda575b508591601f8411600114612f7957839495965092612f6e575b50508160011b916000199060031b1c1916179055565b015190503880612f58565b9190601f1984169685845280842093905b888210612fc257505083600195969710612fa9575b505050811b019055565b015160001960f88460031b161c19169055388080612f9f565b80600185968294968601518155019501930190612f8a565b848352868320601f850160051c810191888610613013575b601f0160051c01905b8181106130085750612f3f565b838155600101612ffb565b9091508190612ff2565b600090338252602091600b835260408120908251906001600160401b03821161316d5761304a8354612871565b601f811161312a575b508490601f83116001146130b65791806130a69492600080516020613e9c8339815191529694916130ab575b508160011b916000199060031b1c19161790555b6040519182918583523395830190612740565b0390a2565b90508301513861307f565b90601f198316848352868320925b87828210613114575050926130a6949260019282600080516020613e9c8339815191529896106130fb575b5050811b019055613093565b85015160001960f88460031b161c1916905538806130ef565b600184958293958a0151815501940192016130c4565b838252858220601f840160051c810191878510613163575b601f0160051c01905b8181106131585750613053565b82815560010161314b565b9091508190613142565b634e487b7160e01b81526041600452602490fd5b1561318857565b60405162461bcd60e51b815260206004820152601560248201527414d95b99195c881b9bdd08185d5d1a1bdc9a5e9959605a1b6044820152606490fd5b604051906131d282612792565b60606020838281520152565b51906001600160a01b03821682036108ef57565b60209081818403126108ef578051906001600160401b0382116108ef57019180601f840112156108ef5782516132278161282e565b93613235604051958661280d565b818552838086019260051b8201019283116108ef578301905b82821061325c575050505090565b838091613268846131de565b81520191019061324e565b60001981146132825760010190565b634e487b7160e01b600052601160045260246000fd5b8051821015612ef35760209160051b010190565b81601f820112156108ef5780516132c2816129e4565b926132d0604051948561280d565b818452602082840101116108ef5761278f916020808501910161271d565b906020828203126108ef5781516001600160401b0381116108ef5761278f92016132ac565b805161331e8161282e565b9160409161332e8351948561280d565b80845261333d601f199161282e565b0160005b818110613449575050600180549091906001600160a01b03908116906000845b61336f575b50505050505090565b835181101561344457816133838286613298565b518751630cacd00160e11b815291166004820152600081602481875afa90811561343957906134129291600091613418575b506133f9846133c48489613298565b511691856133d2858a613298565b5116600052602090600b82528a600020918b51946133ef866127c3565b85528401526128ab565b88820152613407828a613298565b52611d428189613298565b84613361565b613433913d8091833e61342b818361280d565b8101906132ee565b386133b5565b87513d6000823e3d90fd5b613366565b6020908451613457816127c3565b6000815260608390808284015287830152828801015201613341565b519081151582036108ef57565b1561348757565b60405162461bcd60e51b815260206004820152601860248201527f43757272656e6379206973206e6f7420617070726f76656400000000000000006044820152606490fd5b6020818303126108ef5780516001600160401b03918282116108ef5701906101609283838203126108ef57604051938401848110838211176127ad57604052613514836131de565b84526020830151602085015260408301518281116108ef57816135389185016132ac565b604085015260608301518281116108ef57816135559185016132ac565b606085015260808301518281116108ef57816135729185016132ac565b608085015260a08301519182116108ef5761358e9183016132ac565b60a083015261359f60c082016131de565b60c083015260e081015160e0830152610100808201519060038210156108ef578301526101206135d0818301613473565b908301526135e2610140809201613473565b9082015290565b906009811015612a5357815460ff60a01b191660a09190911b60ff60a01b16179055565b805490680100000000000000008210156127ad5760018201808255821015612ef35760005260206000200155565b916136459061399e565b92600f549461365386613273565b600f556000868152600c6020908152604080832060018082018054610100600160a81b0319163360081b610100600160a81b03161790556002820180546001600160a01b0319166001600160a01b039a8b169081179091558851909a949993979596959394939260060191906001600160401b03811161069f576136d78354612871565b601f8111613958575b508a601f82116001146138ed57819282918a936138e2575b501b916000199060031b1c19161790555b898552600c885260058686200155613726816002878720016135e9565b888452600c8752426007868620015560088585200160ff19815416905560088585200161ff00198154169055888585205560098110156138ce5790888260078994149081156138c3575b501561387257908492918352600c825260088684200162ff000019815416905560065416604486518094819363260b593560e21b83528d60048401528760248401525af1801561386857889392918791613837575b50507fe2cf7446a11cbcd14cd99ea3a1bb77fb7653a64f4064d660140b5100d001e13c9492846138319593613820935b83825260058a5282822055338152600d89526138138383832061360d565b898152600d89522061360d565b519182918583523395830190612740565b0390a390565b9080929394503d8311613861575b61384f818361280d565b81010312610dd95790869185386137c5565b503d613845565b84513d85823e3d90fd5b9050613820915084846138319694837fe2cf7446a11cbcd14cd99ea3a1bb77fb7653a64f4064d660140b5100d001e13c999752600c8a526008838320016201000062ff0000198254161790556137f5565b600891501438613770565b634e487b7160e01b84526021600452602484fd5b8c01519250386136f8565b8890828d8d601f198316918886528781872096925b84841061393857505050501061391f575b5050811b019055613709565b8b015160001960f88460031b161c191690553880613913565b82949550958097919293960151815501940192019084918f8f8890613902565b8389528b8920601f830160051c8101918d8410613994575b601f0160051c019083905b8281106139895750506136e0565b8a815501839061397b565b9091508190613970565b600090604080516139ae81612792565b600681526573696d6d736760d01b6020918201526003548251630c94fdef60e41b808252600480830185905295602495936001600160a01b0316928881806139f88a820186612740565b0381875afa908115613d21578991613d07575b508051908601207fb098857dfa6422e954f32740cd7f643da78f7641bfaa323aae8036c3eb8a83e403613a42575050505050505090565b6207469760ec1b8585969798999551613a5a81612792565b60038152015284518281528689820152848180613a798b820186612740565b0381875afa908115613cc9578591613ced575b508051908701207f9c35b68a5d39a44a5834c87c06e0905b483f5921b1cdeb093ce2cca2a2349a4c03613ac3575050505050505090565b661c995c5d595cdd60ca1b868651613ada81612792565b60078152015284518281528689820152848180613af98b820186612740565b0381875afa908115613cc9578591613cd3575b508051908701207f72859a6ae50aa97f593f23df1c78bb1fd78cfc493fcef64159d648622319683303613b46575050505050505050600790565b6437b33332b960d91b868651613b5b81612792565b60058152015284518281528689820152848180613b7a8b820186612740565b0381875afa908115613cc9578591613caf575b508051908701207f28bf0e7ef8ed6b6ff710a823b50581926b96df560eed44922320b90d4fca37b403613bc7575050505050505050600890565b613c01928492651c99599d5b9960d21b888851613be381612792565b600681520152865180958194829383528a8d8401528b830190612740565b03915afa918215613ca4578092613c89575b50508051908301207f4fd967966e6b0ea40f78dff297fed3b472763137dac6cf564d7263e918f425ef03613c4a5750505050600690565b5162461bcd60e51b8152928301526019908201527f556e7265636f676e697a6564206d6573736167652074797065000000000000006044820152606490fd5b613c9d92503d8091833e61342b818361280d565b3880613c13565b8351903d90823e3d90fd5b613cc391503d8087833e61342b818361280d565b38613b8d565b86513d87823e3d90fd5b613ce791503d8087833e61342b818361280d565b38613b0c565b613d0191503d8087833e61342b818361280d565b38613a8c565b613d1b91503d808b833e61342b818361280d565b38613a0b565b85513d8b823e3d90fd5b90604051613d38816127f1565b80928054825260ff60018201548181161515602085015260018060a01b03809160081c1660408501526002830154908116606085015260a01c16906009821015612a5357600860ff91610180936080860152600381015460a0860152600481015460c0860152600581015460e0860152613db4600682016128ab565b610100860152600781015461012086015201548181161515610140850152818160081c16151561016085015260101c161515910152565b90613df58261282e565b604090613e048251918261280d565b8381528093613e15601f199161282e565b019160005b838110613e275750505050565b6020908251613e35816127f1565b6000815282600081830152600085830152606060008184015260006080840152600060a0840152600060c0840152600060e08401526101008301526000610120830152600061014083015260006101608301526000610180830152828601015201613e1a56fe04e4e591d22d14223bc0c2a948352d1a93ba82695e446ca5f8b238cfa7d69304b6e67d9fc30da7082da03dcb74e53bec9a276f3020bb3303807ebc4efaec9e2ca26469706673582212202ab30dc97b60ce5b9b62f9f27a3574424de2b540ba954a2256e3aa2660c9e80764736f6c63430008110033",
  "linkReferences": {},
  "deployedLinkReferences": {}
}