{"contracts/ServiceMetadataDescriptor.sol":{"ServiceMetadataDescriptor":{"abi":[{"inputs":[{"internalType":"string","name":"baseURI_","type":"string"},{"internalType":"string","name":"contractDescription_","type":"string"},{"internalType":"address","name":"slotRegistry_","type":"address"}],"stateMutability":"nonpayable","type":"constructor"},{"inputs":[{"internalType":"uint256","name":"tokenId_","type":"uint256"},{"internalType":"string","name":"description_","type":"string"}],"name":"_setTokenDescription","outputs":[],"stateMutability":"nonpayable","type":"function"},{"inputs":[],"name":"constructContractURI","outputs":[{"internalType":"string","name":"","type":"string"}],"stateMutability":"view","type":"function"},{"inputs":[{"internalType":"uint256","name":"slot_","type":"uint256"}],"name":"constructSlotURI","outputs":[{"internalType":"string","name":"","type":"string"}],"stateMutability":"view","type":"function"},{"inputs":[{"internalType":"uint256","name":"tokenId_","type":"uint256"}],"name":"constructTokenURI","outputs":[{"internalType":"string","name":"","type":"string"}],"stateMutability":"view","type":"function"}],"evm":{"bytecode":{"linkReferences":{},"object":"60806040523480156200001157600080fd5b50604051620018e9380380620018e9833981016040819052620000349162000140565b60016200004284826200025c565b5060026200005183826200025c565b50600080546001600160a01b0319166001600160a01b039290921691909117905550620003289050565b634e487b7160e01b600052604160045260246000fd5b600082601f830112620000a357600080fd5b81516001600160401b0380821115620000c057620000c06200007b565b604051601f8301601f19908116603f01168101908282118183101715620000eb57620000eb6200007b565b816040528381526020925086838588010111156200010857600080fd5b600091505b838210156200012c57858201830151818301840152908201906200010d565b600093810190920192909252949350505050565b6000806000606084860312156200015657600080fd5b83516001600160401b03808211156200016e57600080fd5b6200017c8783880162000091565b945060208601519150808211156200019357600080fd5b50620001a28682870162000091565b604086015190935090506001600160a01b0381168114620001c257600080fd5b809150509250925092565b600181811c90821680620001e257607f821691505b6020821081036200020357634e487b7160e01b600052602260045260246000fd5b50919050565b601f8211156200025757600081815260208120601f850160051c81016020861015620002325750805b601f850160051c820191505b8181101562000253578281556001016200023e565b5050505b505050565b81516001600160401b038111156200027857620002786200007b565b6200029081620002898454620001cd565b8462000209565b602080601f831160018114620002c85760008415620002af5750858301515b600019600386901b1c1916600185901b17855562000253565b600085815260208120601f198616915b82811015620002f957888601518255948401946001909101908401620002d8565b5085821015620003185787850151600019600388901b60f8161c191681555b5050505050600190811b01905550565b6115b180620003386000396000f3fe608060405234801561001057600080fd5b506004361061004c5760003560e01c80636c037f8a146100515780636d98340d1461007a578063725fa09c1461008f578063894b4c2e14610097575b600080fd5b61006461005f366004610bce565b6100aa565b6040516100719190610c0b565b60405180910390f35b61008d610088366004610cad565b610120565b005b61006461013d565b6100646100a5366004610bce565b610262565b60606100fa6100b88361036c565b6100c1846103e5565b6100ca85610417565b6100d386610499565b6040516020016100e69493929190610d53565b60405160208183030381529060405261051b565b60405160200161010a9190610e21565b6040516020818303038152906040529050919050565b60008281526003602052604090206101388282610eee565b505050565b6060600033905061023d816001600160a01b03166306fdde036040518163ffffffff1660e01b8152600401600060405180830381865afa158015610185573d6000803e3d6000fd5b505050506040513d6000823e601f3d908101601f191682016040526101ad9190810190610fae565b6101b561066e565b6101bd610700565b61022a856001600160a01b0316633e7e86696040518163ffffffff1660e01b8152600401602060405180830381865afa1580156101fe573d6000803e3d6000fd5b505050506040513d601f19601f820116820180604052508101906102229190611025565b60ff16610732565b6040516020016100e69493929190611048565b60405160200161024d9190610e21565b60405160208183030381529060405291505090565b606033610345610271846107c5565b61027a85610847565b610283866108e9565b604051631398fee160e31b8152600481018890526102f6906001600160a01b03871690639cc7f708906024015b602060405180830381865afa1580156102cd573d6000803e3d6000fd5b505050506040513d601f19601f820116820180604052508101906102f1919061111b565b610732565b60405163131f9f3f60e11b815260048101899052610327906001600160a01b0388169063263f3e7e906024016102b0565b61033089610911565b6040516020016100e696959493929190611134565b6040516020016103559190610e21565b604051602081830303815290604052915050919050565b60005460405163ec327a2160e01b8152600481018390526060916001600160a01b03169063ec327a21906024015b600060405180830381865afa1580156103b7573d6000803e3d6000fd5b505050506040513d6000823e601f3d908101601f191682016040526103df9190810190610fae565b92915050565b60005460405163bc74ebb960e01b8152600481018390526060916001600160a01b03169063bc74ebb99060240161039a565b6000546040516309c3dd8760e01b8152600481018390526060916001600160a01b0316906309c3dd8790602401600060405180830381865afa158015610461573d6000803e3d6000fd5b505050506040513d6000823e601f3d908101601f191682016040526104899190810190610fae565b60405160200161010a919061125a565b6000546040516309c3dd8760e01b8152600481018390526060916001600160a01b0316906309c3dd8790602401600060405180830381865afa1580156104e3573d6000803e3d6000fd5b505050506040513d6000823e601f3d908101601f1916820160405261050b9190810190610fae565b60405160200161010a9190611284565b6060815160000361053a57505060408051602081019091526000815290565b600060405180606001604052806040815260200161153c604091399050600060038451600261056991906112ce565b61057391906112e1565b61057e906004611303565b67ffffffffffffffff81111561059657610596610c3e565b6040519080825280601f01601f1916602001820160405280156105c0576020820181803683370190505b509050600182016020820185865187015b8082101561062c576003820191508151603f8160121c168501518453600184019350603f81600c1c168501518453600184019350603f8160061c168501518453600184019350603f81168501518453506001830192506105d1565b5050600386510660018114610648576002811461065b57610663565b603d6001830353603d6002830353610663565b603d60018303535b509195945050505050565b60606002805461067d90610e66565b80601f01602080910402602001604051908101604052809291908181526020018280546106a990610e66565b80156106f65780601f106106cb576101008083540402835291602001916106f6565b820191906000526020600020905b8154815290600101906020018083116106d957829003601f168201915b5050505050905090565b6060600161070d30610939565b60405160200161071e92919061138d565b604051602081830303815290604052905090565b6060600061073f8361094f565b600101905060008167ffffffffffffffff81111561075f5761075f610c3e565b6040519080825280601f01601f191660200182016040528015610789576020820181803683370190505b5090508181016020015b600019016f181899199a1a9b1b9c1cb0b131b232b360811b600a86061a8153600a850494508461079357509392505050565b6060336001600160a01b03166306fdde036040518163ffffffff1660e01b8152600401600060405180830381865afa158015610805573d6000803e3d6000fd5b505050506040513d6000823e601f3d908101601f1916820160405261082d9190810190610fae565b61083683610732565b60405160200161010a9291906113da565b600081815260036020526040902080546060919061086490610e66565b80601f016020809104026020016040519081016040528092919081815260200182805461089090610e66565b80156108dd5780601f106108b2576101008083540402835291602001916108dd565b820191906000526020600020905b8154815290600101906020018083116108c057829003601f168201915b50505050509050919050565b606060016108f630610939565b6108ff84610732565b60405160200161010a93929190611417565b6060600161091e30610939565b61092784610732565b60405160200161010a9392919061148e565b60606103df6001600160a01b0383166014610a27565b60008072184f03e93ff9f4daa797ed6e38ed64bf6a1f0160401b831061098e5772184f03e93ff9f4daa797ed6e38ed64bf6a1f0160401b830492506040015b6d04ee2d6d415b85acef810000000083106109ba576d04ee2d6d415b85acef8100000000830492506020015b662386f26fc1000083106109d857662386f26fc10000830492506010015b6305f5e10083106109f0576305f5e100830492506008015b6127108310610a0457612710830492506004015b60648310610a16576064830492506002015b600a83106103df5760010192915050565b60606000610a36836002611303565b610a419060026112ce565b67ffffffffffffffff811115610a5957610a59610c3e565b6040519080825280601f01601f191660200182016040528015610a83576020820181803683370190505b509050600360fc1b81600081518110610a9e57610a9e61150e565b60200101906001600160f81b031916908160001a905350600f60fb1b81600181518110610acd57610acd61150e565b60200101906001600160f81b031916908160001a9053506000610af1846002611303565b610afc9060016112ce565b90505b6001811115610b74576f181899199a1a9b1b9c1cb0b131b232b360811b85600f1660108110610b3057610b3061150e565b1a60f81b828281518110610b4657610b4661150e565b60200101906001600160f81b031916908160001a90535060049490941c93610b6d81611524565b9050610aff565b508315610bc75760405162461bcd60e51b815260206004820181905260248201527f537472696e67733a20686578206c656e67746820696e73756666696369656e74604482015260640160405180910390fd5b9392505050565b600060208284031215610be057600080fd5b5035919050565b60005b83811015610c02578181015183820152602001610bea565b50506000910152565b6020815260008251806020840152610c2a816040850160208701610be7565b601f01601f19169190910160400192915050565b634e487b7160e01b600052604160045260246000fd5b604051601f8201601f1916810167ffffffffffffffff81118282101715610c7d57610c7d610c3e565b604052919050565b600067ffffffffffffffff821115610c9f57610c9f610c3e565b50601f01601f191660200190565b60008060408385031215610cc057600080fd5b82359150602083013567ffffffffffffffff811115610cde57600080fd5b8301601f81018513610cef57600080fd5b8035610d02610cfd82610c85565b610c54565b818152866020838501011115610d1757600080fd5b816020840160208301376000602083830101528093505050509250929050565b60008151610d49818560208601610be7565b9290920192915050565b683d913730b6b2911d1160b91b81528451600090610d78816009850160208a01610be7565b701116113232b9b1b934b83a34b7b7111d1160791b6009918401918201528551610da981601a840160208a01610be7565b6a11161134b6b0b3b2911d1160a91b601a92909101918201528451610dd5816025840160208901610be7565b6e111611383937b832b93a34b2b9911d60891b602592909101918201528351610e05816034840160208801610be7565b607d60f81b603492909101918201526035019695505050505050565b7f646174613a6170706c69636174696f6e2f6a736f6e3b6261736536342c000000815260008251610e5981601d850160208701610be7565b91909101601d0192915050565b600181811c90821680610e7a57607f821691505b602082108103610e9a57634e487b7160e01b600052602260045260246000fd5b50919050565b601f82111561013857600081815260208120601f850160051c81016020861015610ec75750805b601f850160051c820191505b81811015610ee657828155600101610ed3565b505050505050565b815167ffffffffffffffff811115610f0857610f08610c3e565b610f1c81610f168454610e66565b84610ea0565b602080601f831160018114610f515760008415610f395750858301515b600019600386901b1c1916600185901b178555610ee6565b600085815260208120601f198616915b82811015610f8057888601518255948401946001909101908401610f61565b5085821015610f9e5787850151600019600388901b60f8161c191681555b5050505050600190811b01905550565b600060208284031215610fc057600080fd5b815167ffffffffffffffff811115610fd757600080fd5b8201601f81018413610fe857600080fd5b8051610ff6610cfd82610c85565b81815285602083850101111561100b57600080fd5b61101c826020830160208601610be7565b95945050505050565b60006020828403121561103757600080fd5b815160ff81168114610bc757600080fd5b683d913730b6b2911d1160b91b8152845160009061106d816009850160208a01610be7565b701116113232b9b1b934b83a34b7b7111d1160791b600991840191820152855161109e81601a840160208a01610be7565b6a11161134b6b0b3b2911d1160a91b601a929091019182015284516110ca816025840160208901610be7565b721116113b30b63ab2a232b1b4b6b0b639911d1160691b6025929091019182015283516110fe816038840160208801610be7565b61227d60f01b60389290910191820152603a019695505050505050565b60006020828403121561112d57600080fd5b5051919050565b683d913730b6b2911d1160b91b81528651600090611159816009850160208c01610be7565b701116113232b9b1b934b83a34b7b7111d1160791b600991840191820152875161118a81601a840160208c01610be7565b6a11161134b6b0b3b2911d1160a91b601a929091019182015286516111b6816025840160208b01610be7565b6c1116113130b630b731b2911d1160991b6025929091019182015285516111e4816032840160208a01610be7565b6911161139b637ba111d1160b11b60329290910191820152845161120f81603c840160208901610be7565b61124c61123f611239603c848601016e111611383937b832b93a34b2b9911d60891b8152600f0190565b87610d37565b607d60f81b815260010190565b9a9950505050505050505050565b6000825161126c818460208701610be7565b652f696d61676560d01b920191825250600601919050565b60008251611296818460208701610be7565b6f17b83937b832b93a34b2b9973539b7b760811b920191825250601001919050565b634e487b7160e01b600052601160045260246000fd5b808201808211156103df576103df6112b8565b6000826112fe57634e487b7160e01b600052601260045260246000fd5b500490565b80820281158282048414176103df576103df6112b8565b6000815461132781610e66565b6001828116801561133f576001811461135457611383565b60ff1984168752821515830287019450611383565b8560005260208060002060005b8581101561137a5781548a820152908401908201611361565b50505082870194505b5050505092915050565b6000611399828561131a565b68636f6e74726163742f60b81b815283516113bb816009840160208801610be7565b652f696d61676560d01b60099290910191820152600f01949350505050565b600083516113ec818460208801610be7565b61202360f01b908301908152835161140b816002840160208801610be7565b01600201949350505050565b6000611423828661131a565b692f636f6e74726163742f60b01b8152845161144681600a840160208901610be7565b662f746f6b656e2f60c81b600a9290910191820152835161146e816011840160208801610be7565b652f696d61676560d01b6011929091019182015260170195945050505050565b600061149a828661131a565b68636f6e74726163742f60b81b815284516114bc816009840160208901610be7565b662f746f6b656e2f60c81b6009929091019182015283516114e4816010840160208801610be7565b6f17b83937b832b93a34b2b9973539b7b760811b6010929091019182015260200195945050505050565b634e487b7160e01b600052603260045260246000fd5b600081611533576115336112b8565b50600019019056fe4142434445464748494a4b4c4d4e4f505152535455565758595a6162636465666768696a6b6c6d6e6f707172737475767778797a303132333435363738392b2fa2646970667358221220e05cad554177b58d45abd3faaf74e029438ed7be1afc071088da6913a7fc2c1964736f6c63430008110033","opcodes":"PUSH1 0x80 PUSH1 0x40 MSTORE CALLVALUE DUP1 ISZERO PUSH3 0x11 JUMPI PUSH1 0x0 DUP1 REVERT JUMPDEST POP PUSH1 0x40 MLOAD PUSH3 0x18E9 CODESIZE SUB DUP1 PUSH3 0x18E9 DUP4 CODECOPY DUP2 ADD PUSH1 0x40 DUP2 SWAP1 MSTORE PUSH3 0x34 SWAP2 PUSH3 0x140 JUMP JUMPDEST PUSH1 0x1 PUSH3 0x42 DUP5 DUP3 PUSH3 0x25C JUMP JUMPDEST POP PUSH1 0x2 PUSH3 0x51 DUP4 DUP3 PUSH3 0x25C JUMP JUMPDEST POP PUSH1 0x0 DUP1 SLOAD PUSH1 0x1 PUSH1 0x1 PUSH1 0xA0 SHL SUB NOT AND PUSH1 0x1 PUSH1 0x1 PUSH1 0xA0 SHL SUB SWAP3 SWAP1 SWAP3 AND SWAP2 SWAP1 SWAP2 OR SWAP1 SSTORE POP PUSH3 0x328 SWAP1 POP JUMP JUMPDEST PUSH4 0x4E487B71 PUSH1 0xE0 SHL PUSH1 0x0 MSTORE PUSH1 0x41 PUSH1 0x4 MSTORE PUSH1 0x24 PUSH1 0x0 REVERT JUMPDEST PUSH1 0x0 DUP3 PUSH1 0x1F DUP4 ADD SLT PUSH3 0xA3 JUMPI PUSH1 0x0 DUP1 REVERT JUMPDEST DUP2 MLOAD PUSH1 0x1 PUSH1 0x1 PUSH1 0x40 SHL SUB DUP1 DUP3 GT ISZERO PUSH3 0xC0 JUMPI PUSH3 0xC0 PUSH3 0x7B JUMP JUMPDEST PUSH1 0x40 MLOAD PUSH1 0x1F DUP4 ADD PUSH1 0x1F NOT SWAP1 DUP2 AND PUSH1 0x3F ADD AND DUP2 ADD SWAP1 DUP3 DUP3 GT DUP2 DUP4 LT OR ISZERO PUSH3 0xEB JUMPI PUSH3 0xEB PUSH3 0x7B JUMP JUMPDEST DUP2 PUSH1 0x40 MSTORE DUP4 DUP2 MSTORE PUSH1 0x20 SWAP3 POP DUP7 DUP4 DUP6 DUP9 ADD ADD GT ISZERO PUSH3 0x108 JUMPI PUSH1 0x0 DUP1 REVERT JUMPDEST PUSH1 0x0 SWAP2 POP JUMPDEST DUP4 DUP3 LT ISZERO PUSH3 0x12C JUMPI DUP6 DUP3 ADD DUP4 ADD MLOAD DUP2 DUP4 ADD DUP5 ADD MSTORE SWAP1 DUP3 ADD SWAP1 PUSH3 0x10D JUMP JUMPDEST PUSH1 0x0 SWAP4 DUP2 ADD SWAP1 SWAP3 ADD SWAP3 SWAP1 SWAP3 MSTORE SWAP5 SWAP4 POP POP POP POP JUMP JUMPDEST PUSH1 0x0 DUP1 PUSH1 0x0 PUSH1 0x60 DUP5 DUP7 SUB SLT ISZERO PUSH3 0x156 JUMPI PUSH1 0x0 DUP1 REVERT JUMPDEST DUP4 MLOAD PUSH1 0x1 PUSH1 0x1 PUSH1 0x40 SHL SUB DUP1 DUP3 GT ISZERO PUSH3 0x16E JUMPI PUSH1 0x0 DUP1 REVERT JUMPDEST PUSH3 0x17C DUP8 DUP4 DUP9 ADD PUSH3 0x91 JUMP JUMPDEST SWAP5 POP PUSH1 0x20 DUP7 ADD MLOAD SWAP2 POP DUP1 DUP3 GT ISZERO PUSH3 0x193 JUMPI PUSH1 0x0 DUP1 REVERT JUMPDEST POP PUSH3 0x1A2 DUP7 DUP3 DUP8 ADD PUSH3 0x91 JUMP JUMPDEST PUSH1 0x40 DUP7 ADD MLOAD SWAP1 SWAP4 POP SWAP1 POP PUSH1 0x1 PUSH1 0x1 PUSH1 0xA0 SHL SUB DUP2 AND DUP2 EQ PUSH3 0x1C2 JUMPI PUSH1 0x0 DUP1 REVERT JUMPDEST DUP1 SWAP2 POP POP SWAP3 POP SWAP3 POP SWAP3 JUMP JUMPDEST PUSH1 0x1 DUP2 DUP2 SHR SWAP1 DUP3 AND DUP1 PUSH3 0x1E2 JUMPI PUSH1 0x7F DUP3 AND SWAP2 POP JUMPDEST PUSH1 0x20 DUP3 LT DUP2 SUB PUSH3 0x203 JUMPI PUSH4 0x4E487B71 PUSH1 0xE0 SHL PUSH1 0x0 MSTORE PUSH1 0x22 PUSH1 0x4 MSTORE PUSH1 0x24 PUSH1 0x0 REVERT JUMPDEST POP SWAP2 SWAP1 POP JUMP JUMPDEST PUSH1 0x1F DUP3 GT ISZERO PUSH3 0x257 JUMPI PUSH1 0x0 DUP2 DUP2 MSTORE PUSH1 0x20 DUP2 KECCAK256 PUSH1 0x1F DUP6 ADD PUSH1 0x5 SHR DUP2 ADD PUSH1 0x20 DUP7 LT ISZERO PUSH3 0x232 JUMPI POP DUP1 JUMPDEST PUSH1 0x1F DUP6 ADD PUSH1 0x5 SHR DUP3 ADD SWAP2 POP JUMPDEST DUP2 DUP2 LT ISZERO PUSH3 0x253 JUMPI DUP3 DUP2 SSTORE PUSH1 0x1 ADD PUSH3 0x23E JUMP JUMPDEST POP POP POP JUMPDEST POP POP POP JUMP JUMPDEST DUP2 MLOAD PUSH1 0x1 PUSH1 0x1 PUSH1 0x40 SHL SUB DUP2 GT ISZERO PUSH3 0x278 JUMPI PUSH3 0x278 PUSH3 0x7B JUMP JUMPDEST PUSH3 0x290 DUP2 PUSH3 0x289 DUP5 SLOAD PUSH3 0x1CD JUMP JUMPDEST DUP5 PUSH3 0x209 JUMP JUMPDEST PUSH1 0x20 DUP1 PUSH1 0x1F DUP4 GT PUSH1 0x1 DUP2 EQ PUSH3 0x2C8 JUMPI PUSH1 0x0 DUP5 ISZERO PUSH3 0x2AF JUMPI POP DUP6 DUP4 ADD MLOAD JUMPDEST PUSH1 0x0 NOT PUSH1 0x3 DUP7 SWAP1 SHL SHR NOT AND PUSH1 0x1 DUP6 SWAP1 SHL OR DUP6 SSTORE PUSH3 0x253 JUMP JUMPDEST PUSH1 0x0 DUP6 DUP2 MSTORE PUSH1 0x20 DUP2 KECCAK256 PUSH1 0x1F NOT DUP7 AND SWAP2 JUMPDEST DUP3 DUP2 LT ISZERO PUSH3 0x2F9 JUMPI DUP9 DUP7 ADD MLOAD DUP3 SSTORE SWAP5 DUP5 ADD SWAP5 PUSH1 0x1 SWAP1 SWAP2 ADD SWAP1 DUP5 ADD PUSH3 0x2D8 JUMP JUMPDEST POP DUP6 DUP3 LT ISZERO PUSH3 0x318 JUMPI DUP8 DUP6 ADD MLOAD PUSH1 0x0 NOT PUSH1 0x3 DUP9 SWAP1 SHL PUSH1 0xF8 AND SHR NOT AND DUP2 SSTORE JUMPDEST POP POP POP POP POP PUSH1 0x1 SWAP1 DUP2 SHL ADD SWAP1 SSTORE POP JUMP JUMPDEST PUSH2 0x15B1 DUP1 PUSH3 0x338 PUSH1 0x0 CODECOPY PUSH1 0x0 RETURN INVALID PUSH1 0x80 PUSH1 0x40 MSTORE CALLVALUE DUP1 ISZERO PUSH2 0x10 JUMPI PUSH1 0x0 DUP1 REVERT JUMPDEST POP PUSH1 0x4 CALLDATASIZE LT PUSH2 0x4C JUMPI PUSH1 0x0 CALLDATALOAD PUSH1 0xE0 SHR DUP1 PUSH4 0x6C037F8A EQ PUSH2 0x51 JUMPI DUP1 PUSH4 0x6D98340D EQ PUSH2 0x7A JUMPI DUP1 PUSH4 0x725FA09C EQ PUSH2 0x8F JUMPI DUP1 PUSH4 0x894B4C2E EQ PUSH2 0x97 JUMPI JUMPDEST PUSH1 0x0 DUP1 REVERT JUMPDEST PUSH2 0x64 PUSH2 0x5F CALLDATASIZE PUSH1 0x4 PUSH2 0xBCE JUMP JUMPDEST PUSH2 0xAA JUMP JUMPDEST PUSH1 0x40 MLOAD PUSH2 0x71 SWAP2 SWAP1 PUSH2 0xC0B JUMP JUMPDEST PUSH1 0x40 MLOAD DUP1 SWAP2 SUB SWAP1 RETURN JUMPDEST PUSH2 0x8D PUSH2 0x88 CALLDATASIZE PUSH1 0x4 PUSH2 0xCAD JUMP JUMPDEST PUSH2 0x120 JUMP JUMPDEST STOP JUMPDEST PUSH2 0x64 PUSH2 0x13D JUMP JUMPDEST PUSH2 0x64 PUSH2 0xA5 CALLDATASIZE PUSH1 0x4 PUSH2 0xBCE JUMP JUMPDEST PUSH2 0x262 JUMP JUMPDEST PUSH1 0x60 PUSH2 0xFA PUSH2 0xB8 DUP4 PUSH2 0x36C JUMP JUMPDEST PUSH2 0xC1 DUP5 PUSH2 0x3E5 JUMP JUMPDEST PUSH2 0xCA DUP6 PUSH2 0x417 JUMP JUMPDEST PUSH2 0xD3 DUP7 PUSH2 0x499 JUMP JUMPDEST PUSH1 0x40 MLOAD PUSH1 0x20 ADD PUSH2 0xE6 SWAP5 SWAP4 SWAP3 SWAP2 SWAP1 PUSH2 0xD53 JUMP JUMPDEST PUSH1 0x40 MLOAD PUSH1 0x20 DUP2 DUP4 SUB SUB DUP2 MSTORE SWAP1 PUSH1 0x40 MSTORE PUSH2 0x51B JUMP JUMPDEST PUSH1 0x40 MLOAD PUSH1 0x20 ADD PUSH2 0x10A SWAP2 SWAP1 PUSH2 0xE21 JUMP JUMPDEST PUSH1 0x40 MLOAD PUSH1 0x20 DUP2 DUP4 SUB SUB DUP2 MSTORE SWAP1 PUSH1 0x40 MSTORE SWAP1 POP SWAP2 SWAP1 POP JUMP JUMPDEST PUSH1 0x0 DUP3 DUP2 MSTORE PUSH1 0x3 PUSH1 0x20 MSTORE PUSH1 0x40 SWAP1 KECCAK256 PUSH2 0x138 DUP3 DUP3 PUSH2 0xEEE JUMP JUMPDEST POP POP POP JUMP JUMPDEST PUSH1 0x60 PUSH1 0x0 CALLER SWAP1 POP PUSH2 0x23D DUP2 PUSH1 0x1 PUSH1 0x1 PUSH1 0xA0 SHL SUB AND PUSH4 0x6FDDE03 PUSH1 0x40 MLOAD DUP2 PUSH4 0xFFFFFFFF AND PUSH1 0xE0 SHL DUP2 MSTORE PUSH1 0x4 ADD PUSH1 0x0 PUSH1 0x40 MLOAD DUP1 DUP4 SUB DUP2 DUP7 GAS STATICCALL ISZERO DUP1 ISZERO PUSH2 0x185 JUMPI RETURNDATASIZE PUSH1 0x0 DUP1 RETURNDATACOPY RETURNDATASIZE PUSH1 0x0 REVERT JUMPDEST POP POP POP POP PUSH1 0x40 MLOAD RETURNDATASIZE PUSH1 0x0 DUP3 RETURNDATACOPY PUSH1 0x1F RETURNDATASIZE SWAP1 DUP2 ADD PUSH1 0x1F NOT AND DUP3 ADD PUSH1 0x40 MSTORE PUSH2 0x1AD SWAP2 SWAP1 DUP2 ADD SWAP1 PUSH2 0xFAE JUMP JUMPDEST PUSH2 0x1B5 PUSH2 0x66E JUMP JUMPDEST PUSH2 0x1BD PUSH2 0x700 JUMP JUMPDEST PUSH2 0x22A DUP6 PUSH1 0x1 PUSH1 0x1 PUSH1 0xA0 SHL SUB AND PUSH4 0x3E7E8669 PUSH1 0x40 MLOAD DUP2 PUSH4 0xFFFFFFFF AND PUSH1 0xE0 SHL DUP2 MSTORE PUSH1 0x4 ADD PUSH1 0x20 PUSH1 0x40 MLOAD DUP1 DUP4 SUB DUP2 DUP7 GAS STATICCALL ISZERO DUP1 ISZERO PUSH2 0x1FE JUMPI RETURNDATASIZE PUSH1 0x0 DUP1 RETURNDATACOPY RETURNDATASIZE PUSH1 0x0 REVERT JUMPDEST POP POP POP POP PUSH1 0x40 MLOAD RETURNDATASIZE PUSH1 0x1F NOT PUSH1 0x1F DUP3 ADD AND DUP3 ADD DUP1 PUSH1 0x40 MSTORE POP DUP2 ADD SWAP1 PUSH2 0x222 SWAP2 SWAP1 PUSH2 0x1025 JUMP JUMPDEST PUSH1 0xFF AND PUSH2 0x732 JUMP JUMPDEST PUSH1 0x40 MLOAD PUSH1 0x20 ADD PUSH2 0xE6 SWAP5 SWAP4 SWAP3 SWAP2 SWAP1 PUSH2 0x1048 JUMP JUMPDEST PUSH1 0x40 MLOAD PUSH1 0x20 ADD PUSH2 0x24D SWAP2 SWAP1 PUSH2 0xE21 JUMP JUMPDEST PUSH1 0x40 MLOAD PUSH1 0x20 DUP2 DUP4 SUB SUB DUP2 MSTORE SWAP1 PUSH1 0x40 MSTORE SWAP2 POP POP SWAP1 JUMP JUMPDEST PUSH1 0x60 CALLER PUSH2 0x345 PUSH2 0x271 DUP5 PUSH2 0x7C5 JUMP JUMPDEST PUSH2 0x27A DUP6 PUSH2 0x847 JUMP JUMPDEST PUSH2 0x283 DUP7 PUSH2 0x8E9 JUMP JUMPDEST PUSH1 0x40 MLOAD PUSH4 0x1398FEE1 PUSH1 0xE3 SHL DUP2 MSTORE PUSH1 0x4 DUP2 ADD DUP9 SWAP1 MSTORE PUSH2 0x2F6 SWAP1 PUSH1 0x1 PUSH1 0x1 PUSH1 0xA0 SHL SUB DUP8 AND SWAP1 PUSH4 0x9CC7F708 SWAP1 PUSH1 0x24 ADD JUMPDEST PUSH1 0x20 PUSH1 0x40 MLOAD DUP1 DUP4 SUB DUP2 DUP7 GAS STATICCALL ISZERO DUP1 ISZERO PUSH2 0x2CD JUMPI RETURNDATASIZE PUSH1 0x0 DUP1 RETURNDATACOPY RETURNDATASIZE PUSH1 0x0 REVERT JUMPDEST POP POP POP POP PUSH1 0x40 MLOAD RETURNDATASIZE PUSH1 0x1F NOT PUSH1 0x1F DUP3 ADD AND DUP3 ADD DUP1 PUSH1 0x40 MSTORE POP DUP2 ADD SWAP1 PUSH2 0x2F1 SWAP2 SWAP1 PUSH2 0x111B JUMP JUMPDEST PUSH2 0x732 JUMP JUMPDEST PUSH1 0x40 MLOAD PUSH4 0x131F9F3F PUSH1 0xE1 SHL DUP2 MSTORE PUSH1 0x4 DUP2 ADD DUP10 SWAP1 MSTORE PUSH2 0x327 SWAP1 PUSH1 0x1 PUSH1 0x1 PUSH1 0xA0 SHL SUB DUP9 AND SWAP1 PUSH4 0x263F3E7E SWAP1 PUSH1 0x24 ADD PUSH2 0x2B0 JUMP JUMPDEST PUSH2 0x330 DUP10 PUSH2 0x911 JUMP JUMPDEST PUSH1 0x40 MLOAD PUSH1 0x20 ADD PUSH2 0xE6 SWAP7 SWAP6 SWAP5 SWAP4 SWAP3 SWAP2 SWAP1 PUSH2 0x1134 JUMP JUMPDEST PUSH1 0x40 MLOAD PUSH1 0x20 ADD PUSH2 0x355 SWAP2 SWAP1 PUSH2 0xE21 JUMP JUMPDEST PUSH1 0x40 MLOAD PUSH1 0x20 DUP2 DUP4 SUB SUB DUP2 MSTORE SWAP1 PUSH1 0x40 MSTORE SWAP2 POP POP SWAP2 SWAP1 POP JUMP JUMPDEST PUSH1 0x0 SLOAD PUSH1 0x40 MLOAD PUSH4 0xEC327A21 PUSH1 0xE0 SHL DUP2 MSTORE PUSH1 0x4 DUP2 ADD DUP4 SWAP1 MSTORE PUSH1 0x60 SWAP2 PUSH1 0x1 PUSH1 0x1 PUSH1 0xA0 SHL SUB AND SWAP1 PUSH4 0xEC327A21 SWAP1 PUSH1 0x24 ADD JUMPDEST PUSH1 0x0 PUSH1 0x40 MLOAD DUP1 DUP4 SUB DUP2 DUP7 GAS STATICCALL ISZERO DUP1 ISZERO PUSH2 0x3B7 JUMPI RETURNDATASIZE PUSH1 0x0 DUP1 RETURNDATACOPY RETURNDATASIZE PUSH1 0x0 REVERT JUMPDEST POP POP POP POP PUSH1 0x40 MLOAD RETURNDATASIZE PUSH1 0x0 DUP3 RETURNDATACOPY PUSH1 0x1F RETURNDATASIZE SWAP1 DUP2 ADD PUSH1 0x1F NOT AND DUP3 ADD PUSH1 0x40 MSTORE PUSH2 0x3DF SWAP2 SWAP1 DUP2 ADD SWAP1 PUSH2 0xFAE JUMP JUMPDEST SWAP3 SWAP2 POP POP JUMP JUMPDEST PUSH1 0x0 SLOAD PUSH1 0x40 MLOAD PUSH4 0xBC74EBB9 PUSH1 0xE0 SHL DUP2 MSTORE PUSH1 0x4 DUP2 ADD DUP4 SWAP1 MSTORE PUSH1 0x60 SWAP2 PUSH1 0x1 PUSH1 0x1 PUSH1 0xA0 SHL SUB AND SWAP1 PUSH4 0xBC74EBB9 SWAP1 PUSH1 0x24 ADD PUSH2 0x39A JUMP JUMPDEST PUSH1 0x0 SLOAD PUSH1 0x40 MLOAD PUSH4 0x9C3DD87 PUSH1 0xE0 SHL DUP2 MSTORE PUSH1 0x4 DUP2 ADD DUP4 SWAP1 MSTORE PUSH1 0x60 SWAP2 PUSH1 0x1 PUSH1 0x1 PUSH1 0xA0 SHL SUB AND SWAP1 PUSH4 0x9C3DD87 SWAP1 PUSH1 0x24 ADD PUSH1 0x0 PUSH1 0x40 MLOAD DUP1 DUP4 SUB DUP2 DUP7 GAS STATICCALL ISZERO DUP1 ISZERO PUSH2 0x461 JUMPI RETURNDATASIZE PUSH1 0x0 DUP1 RETURNDATACOPY RETURNDATASIZE PUSH1 0x0 REVERT JUMPDEST POP POP POP POP PUSH1 0x40 MLOAD RETURNDATASIZE PUSH1 0x0 DUP3 RETURNDATACOPY PUSH1 0x1F RETURNDATASIZE SWAP1 DUP2 ADD PUSH1 0x1F NOT AND DUP3 ADD PUSH1 0x40 MSTORE PUSH2 0x489 SWAP2 SWAP1 DUP2 ADD SWAP1 PUSH2 0xFAE JUMP JUMPDEST PUSH1 0x40 MLOAD PUSH1 0x20 ADD PUSH2 0x10A SWAP2 SWAP1 PUSH2 0x125A JUMP JUMPDEST PUSH1 0x0 SLOAD PUSH1 0x40 MLOAD PUSH4 0x9C3DD87 PUSH1 0xE0 SHL DUP2 MSTORE PUSH1 0x4 DUP2 ADD DUP4 SWAP1 MSTORE PUSH1 0x60 SWAP2 PUSH1 0x1 PUSH1 0x1 PUSH1 0xA0 SHL SUB AND SWAP1 PUSH4 0x9C3DD87 SWAP1 PUSH1 0x24 ADD PUSH1 0x0 PUSH1 0x40 MLOAD DUP1 DUP4 SUB DUP2 DUP7 GAS STATICCALL ISZERO DUP1 ISZERO PUSH2 0x4E3 JUMPI RETURNDATASIZE PUSH1 0x0 DUP1 RETURNDATACOPY RETURNDATASIZE PUSH1 0x0 REVERT JUMPDEST POP POP POP POP PUSH1 0x40 MLOAD RETURNDATASIZE PUSH1 0x0 DUP3 RETURNDATACOPY PUSH1 0x1F RETURNDATASIZE SWAP1 DUP2 ADD PUSH1 0x1F NOT AND DUP3 ADD PUSH1 0x40 MSTORE PUSH2 0x50B SWAP2 SWAP1 DUP2 ADD SWAP1 PUSH2 0xFAE JUMP JUMPDEST PUSH1 0x40 MLOAD PUSH1 0x20 ADD PUSH2 0x10A SWAP2 SWAP1 PUSH2 0x1284 JUMP JUMPDEST PUSH1 0x60 DUP2 MLOAD PUSH1 0x0 SUB PUSH2 0x53A JUMPI POP POP PUSH1 0x40 DUP1 MLOAD PUSH1 0x20 DUP2 ADD SWAP1 SWAP2 MSTORE PUSH1 0x0 DUP2 MSTORE SWAP1 JUMP JUMPDEST PUSH1 0x0 PUSH1 0x40 MLOAD DUP1 PUSH1 0x60 ADD PUSH1 0x40 MSTORE DUP1 PUSH1 0x40 DUP2 MSTORE PUSH1 0x20 ADD PUSH2 0x153C PUSH1 0x40 SWAP2 CODECOPY SWAP1 POP PUSH1 0x0 PUSH1 0x3 DUP5 MLOAD PUSH1 0x2 PUSH2 0x569 SWAP2 SWAP1 PUSH2 0x12CE JUMP JUMPDEST PUSH2 0x573 SWAP2 SWAP1 PUSH2 0x12E1 JUMP JUMPDEST PUSH2 0x57E SWAP1 PUSH1 0x4 PUSH2 0x1303 JUMP JUMPDEST PUSH8 0xFFFFFFFFFFFFFFFF DUP2 GT ISZERO PUSH2 0x596 JUMPI PUSH2 0x596 PUSH2 0xC3E JUMP JUMPDEST PUSH1 0x40 MLOAD SWAP1 DUP1 DUP3 MSTORE DUP1 PUSH1 0x1F ADD PUSH1 0x1F NOT AND PUSH1 0x20 ADD DUP3 ADD PUSH1 0x40 MSTORE DUP1 ISZERO PUSH2 0x5C0 JUMPI PUSH1 0x20 DUP3 ADD DUP2 DUP1 CALLDATASIZE DUP4 CALLDATACOPY ADD SWAP1 POP JUMPDEST POP SWAP1 POP PUSH1 0x1 DUP3 ADD PUSH1 0x20 DUP3 ADD DUP6 DUP7 MLOAD DUP8 ADD JUMPDEST DUP1 DUP3 LT ISZERO PUSH2 0x62C JUMPI PUSH1 0x3 DUP3 ADD SWAP2 POP DUP2 MLOAD PUSH1 0x3F DUP2 PUSH1 0x12 SHR AND DUP6 ADD MLOAD DUP5 MSTORE8 PUSH1 0x1 DUP5 ADD SWAP4 POP PUSH1 0x3F DUP2 PUSH1 0xC SHR AND DUP6 ADD MLOAD DUP5 MSTORE8 PUSH1 0x1 DUP5 ADD SWAP4 POP PUSH1 0x3F DUP2 PUSH1 0x6 SHR AND DUP6 ADD MLOAD DUP5 MSTORE8 PUSH1 0x1 DUP5 ADD SWAP4 POP PUSH1 0x3F DUP2 AND DUP6 ADD MLOAD DUP5 MSTORE8 POP PUSH1 0x1 DUP4 ADD SWAP3 POP PUSH2 0x5D1 JUMP JUMPDEST POP POP PUSH1 0x3 DUP7 MLOAD MOD PUSH1 0x1 DUP2 EQ PUSH2 0x648 JUMPI PUSH1 0x2 DUP2 EQ PUSH2 0x65B JUMPI PUSH2 0x663 JUMP JUMPDEST PUSH1 0x3D PUSH1 0x1 DUP4 SUB MSTORE8 PUSH1 0x3D PUSH1 0x2 DUP4 SUB MSTORE8 PUSH2 0x663 JUMP JUMPDEST PUSH1 0x3D PUSH1 0x1 DUP4 SUB MSTORE8 JUMPDEST POP SWAP2 SWAP6 SWAP5 POP POP POP POP POP JUMP JUMPDEST PUSH1 0x60 PUSH1 0x2 DUP1 SLOAD PUSH2 0x67D SWAP1 PUSH2 0xE66 JUMP JUMPDEST DUP1 PUSH1 0x1F ADD PUSH1 0x20 DUP1 SWAP2 DIV MUL PUSH1 0x20 ADD PUSH1 0x40 MLOAD SWAP1 DUP2 ADD PUSH1 0x40 MSTORE DUP1 SWAP3 SWAP2 SWAP1 DUP2 DUP2 MSTORE PUSH1 0x20 ADD DUP3 DUP1 SLOAD PUSH2 0x6A9 SWAP1 PUSH2 0xE66 JUMP JUMPDEST DUP1 ISZERO PUSH2 0x6F6 JUMPI DUP1 PUSH1 0x1F LT PUSH2 0x6CB JUMPI PUSH2 0x100 DUP1 DUP4 SLOAD DIV MUL DUP4 MSTORE SWAP2 PUSH1 0x20 ADD SWAP2 PUSH2 0x6F6 JUMP JUMPDEST DUP3 ADD SWAP2 SWAP1 PUSH1 0x0 MSTORE PUSH1 0x20 PUSH1 0x0 KECCAK256 SWAP1 JUMPDEST DUP2 SLOAD DUP2 MSTORE SWAP1 PUSH1 0x1 ADD SWAP1 PUSH1 0x20 ADD DUP1 DUP4 GT PUSH2 0x6D9 JUMPI DUP3 SWAP1 SUB PUSH1 0x1F AND DUP3 ADD SWAP2 JUMPDEST POP POP POP POP POP SWAP1 POP SWAP1 JUMP JUMPDEST PUSH1 0x60 PUSH1 0x1 PUSH2 0x70D ADDRESS PUSH2 0x939 JUMP JUMPDEST PUSH1 0x40 MLOAD PUSH1 0x20 ADD PUSH2 0x71E SWAP3 SWAP2 SWAP1 PUSH2 0x138D JUMP JUMPDEST PUSH1 0x40 MLOAD PUSH1 0x20 DUP2 DUP4 SUB SUB DUP2 MSTORE SWAP1 PUSH1 0x40 MSTORE SWAP1 POP SWAP1 JUMP JUMPDEST PUSH1 0x60 PUSH1 0x0 PUSH2 0x73F DUP4 PUSH2 0x94F JUMP JUMPDEST PUSH1 0x1 ADD SWAP1 POP PUSH1 0x0 DUP2 PUSH8 0xFFFFFFFFFFFFFFFF DUP2 GT ISZERO PUSH2 0x75F JUMPI PUSH2 0x75F PUSH2 0xC3E JUMP JUMPDEST PUSH1 0x40 MLOAD SWAP1 DUP1 DUP3 MSTORE DUP1 PUSH1 0x1F ADD PUSH1 0x1F NOT AND PUSH1 0x20 ADD DUP3 ADD PUSH1 0x40 MSTORE DUP1 ISZERO PUSH2 0x789 JUMPI PUSH1 0x20 DUP3 ADD DUP2 DUP1 CALLDATASIZE DUP4 CALLDATACOPY ADD SWAP1 POP JUMPDEST POP SWAP1 POP DUP2 DUP2 ADD PUSH1 0x20 ADD JUMPDEST PUSH1 0x0 NOT ADD PUSH16 0x181899199A1A9B1B9C1CB0B131B232B3 PUSH1 0x81 SHL PUSH1 0xA DUP7 MOD BYTE DUP2 MSTORE8 PUSH1 0xA DUP6 DIV SWAP5 POP DUP5 PUSH2 0x793 JUMPI POP SWAP4 SWAP3 POP POP POP JUMP JUMPDEST PUSH1 0x60 CALLER PUSH1 0x1 PUSH1 0x1 PUSH1 0xA0 SHL SUB AND PUSH4 0x6FDDE03 PUSH1 0x40 MLOAD DUP2 PUSH4 0xFFFFFFFF AND PUSH1 0xE0 SHL DUP2 MSTORE PUSH1 0x4 ADD PUSH1 0x0 PUSH1 0x40 MLOAD DUP1 DUP4 SUB DUP2 DUP7 GAS STATICCALL ISZERO DUP1 ISZERO PUSH2 0x805 JUMPI RETURNDATASIZE PUSH1 0x0 DUP1 RETURNDATACOPY RETURNDATASIZE PUSH1 0x0 REVERT JUMPDEST POP POP POP POP PUSH1 0x40 MLOAD RETURNDATASIZE PUSH1 0x0 DUP3 RETURNDATACOPY PUSH1 0x1F RETURNDATASIZE SWAP1 DUP2 ADD PUSH1 0x1F NOT AND DUP3 ADD PUSH1 0x40 MSTORE PUSH2 0x82D SWAP2 SWAP1 DUP2 ADD SWAP1 PUSH2 0xFAE JUMP JUMPDEST PUSH2 0x836 DUP4 PUSH2 0x732 JUMP JUMPDEST PUSH1 0x40 MLOAD PUSH1 0x20 ADD PUSH2 0x10A SWAP3 SWAP2 SWAP1 PUSH2 0x13DA JUMP JUMPDEST PUSH1 0x0 DUP2 DUP2 MSTORE PUSH1 0x3 PUSH1 0x20 MSTORE PUSH1 0x40 SWAP1 KECCAK256 DUP1 SLOAD PUSH1 0x60 SWAP2 SWAP1 PUSH2 0x864 SWAP1 PUSH2 0xE66 JUMP JUMPDEST DUP1 PUSH1 0x1F ADD PUSH1 0x20 DUP1 SWAP2 DIV MUL PUSH1 0x20 ADD PUSH1 0x40 MLOAD SWAP1 DUP2 ADD PUSH1 0x40 MSTORE DUP1 SWAP3 SWAP2 SWAP1 DUP2 DUP2 MSTORE PUSH1 0x20 ADD DUP3 DUP1 SLOAD PUSH2 0x890 SWAP1 PUSH2 0xE66 JUMP JUMPDEST DUP1 ISZERO PUSH2 0x8DD JUMPI DUP1 PUSH1 0x1F LT PUSH2 0x8B2 JUMPI PUSH2 0x100 DUP1 DUP4 SLOAD DIV MUL DUP4 MSTORE SWAP2 PUSH1 0x20 ADD SWAP2 PUSH2 0x8DD JUMP JUMPDEST DUP3 ADD SWAP2 SWAP1 PUSH1 0x0 MSTORE PUSH1 0x20 PUSH1 0x0 KECCAK256 SWAP1 JUMPDEST DUP2 SLOAD DUP2 MSTORE SWAP1 PUSH1 0x1 ADD SWAP1 PUSH1 0x20 ADD DUP1 DUP4 GT PUSH2 0x8C0 JUMPI DUP3 SWAP1 SUB PUSH1 0x1F AND DUP3 ADD SWAP2 JUMPDEST POP POP POP POP POP SWAP1 POP SWAP2 SWAP1 POP JUMP JUMPDEST PUSH1 0x60 PUSH1 0x1 PUSH2 0x8F6 ADDRESS PUSH2 0x939 JUMP JUMPDEST PUSH2 0x8FF DUP5 PUSH2 0x732 JUMP JUMPDEST PUSH1 0x40 MLOAD PUSH1 0x20 ADD PUSH2 0x10A SWAP4 SWAP3 SWAP2 SWAP1 PUSH2 0x1417 JUMP JUMPDEST PUSH1 0x60 PUSH1 0x1 PUSH2 0x91E ADDRESS PUSH2 0x939 JUMP JUMPDEST PUSH2 0x927 DUP5 PUSH2 0x732 JUMP JUMPDEST PUSH1 0x40 MLOAD PUSH1 0x20 ADD PUSH2 0x10A SWAP4 SWAP3 SWAP2 SWAP1 PUSH2 0x148E JUMP JUMPDEST PUSH1 0x60 PUSH2 0x3DF PUSH1 0x1 PUSH1 0x1 PUSH1 0xA0 SHL SUB DUP4 AND PUSH1 0x14 PUSH2 0xA27 JUMP JUMPDEST PUSH1 0x0 DUP1 PUSH19 0x184F03E93FF9F4DAA797ED6E38ED64BF6A1F01 PUSH1 0x40 SHL DUP4 LT PUSH2 0x98E JUMPI PUSH19 0x184F03E93FF9F4DAA797ED6E38ED64BF6A1F01 PUSH1 0x40 SHL DUP4 DIV SWAP3 POP PUSH1 0x40 ADD JUMPDEST PUSH14 0x4EE2D6D415B85ACEF8100000000 DUP4 LT PUSH2 0x9BA JUMPI PUSH14 0x4EE2D6D415B85ACEF8100000000 DUP4 DIV SWAP3 POP PUSH1 0x20 ADD JUMPDEST PUSH7 0x2386F26FC10000 DUP4 LT PUSH2 0x9D8 JUMPI PUSH7 0x2386F26FC10000 DUP4 DIV SWAP3 POP PUSH1 0x10 ADD JUMPDEST PUSH4 0x5F5E100 DUP4 LT PUSH2 0x9F0 JUMPI PUSH4 0x5F5E100 DUP4 DIV SWAP3 POP PUSH1 0x8 ADD JUMPDEST PUSH2 0x2710 DUP4 LT PUSH2 0xA04 JUMPI PUSH2 0x2710 DUP4 DIV SWAP3 POP PUSH1 0x4 ADD JUMPDEST PUSH1 0x64 DUP4 LT PUSH2 0xA16 JUMPI PUSH1 0x64 DUP4 DIV SWAP3 POP PUSH1 0x2 ADD JUMPDEST PUSH1 0xA DUP4 LT PUSH2 0x3DF JUMPI PUSH1 0x1 ADD SWAP3 SWAP2 POP POP JUMP JUMPDEST PUSH1 0x60 PUSH1 0x0 PUSH2 0xA36 DUP4 PUSH1 0x2 PUSH2 0x1303 JUMP JUMPDEST PUSH2 0xA41 SWAP1 PUSH1 0x2 PUSH2 0x12CE JUMP JUMPDEST PUSH8 0xFFFFFFFFFFFFFFFF DUP2 GT ISZERO PUSH2 0xA59 JUMPI PUSH2 0xA59 PUSH2 0xC3E JUMP JUMPDEST PUSH1 0x40 MLOAD SWAP1 DUP1 DUP3 MSTORE DUP1 PUSH1 0x1F ADD PUSH1 0x1F NOT AND PUSH1 0x20 ADD DUP3 ADD PUSH1 0x40 MSTORE DUP1 ISZERO PUSH2 0xA83 JUMPI PUSH1 0x20 DUP3 ADD DUP2 DUP1 CALLDATASIZE DUP4 CALLDATACOPY ADD SWAP1 POP JUMPDEST POP SWAP1 POP PUSH1 0x3 PUSH1 0xFC SHL DUP2 PUSH1 0x0 DUP2 MLOAD DUP2 LT PUSH2 0xA9E JUMPI PUSH2 0xA9E PUSH2 0x150E JUMP JUMPDEST PUSH1 0x20 ADD ADD SWAP1 PUSH1 0x1 PUSH1 0x1 PUSH1 0xF8 SHL SUB NOT AND SWAP1 DUP2 PUSH1 0x0 BYTE SWAP1 MSTORE8 POP PUSH1 0xF PUSH1 0xFB SHL DUP2 PUSH1 0x1 DUP2 MLOAD DUP2 LT PUSH2 0xACD JUMPI PUSH2 0xACD PUSH2 0x150E JUMP JUMPDEST PUSH1 0x20 ADD ADD SWAP1 PUSH1 0x1 PUSH1 0x1 PUSH1 0xF8 SHL SUB NOT AND SWAP1 DUP2 PUSH1 0x0 BYTE SWAP1 MSTORE8 POP PUSH1 0x0 PUSH2 0xAF1 DUP5 PUSH1 0x2 PUSH2 0x1303 JUMP JUMPDEST PUSH2 0xAFC SWAP1 PUSH1 0x1 PUSH2 0x12CE JUMP JUMPDEST SWAP1 POP JUMPDEST PUSH1 0x1 DUP2 GT ISZERO PUSH2 0xB74 JUMPI PUSH16 0x181899199A1A9B1B9C1CB0B131B232B3 PUSH1 0x81 SHL DUP6 PUSH1 0xF AND PUSH1 0x10 DUP2 LT PUSH2 0xB30 JUMPI PUSH2 0xB30 PUSH2 0x150E JUMP JUMPDEST BYTE PUSH1 0xF8 SHL DUP3 DUP3 DUP2 MLOAD DUP2 LT PUSH2 0xB46 JUMPI PUSH2 0xB46 PUSH2 0x150E JUMP JUMPDEST PUSH1 0x20 ADD ADD SWAP1 PUSH1 0x1 PUSH1 0x1 PUSH1 0xF8 SHL SUB NOT AND SWAP1 DUP2 PUSH1 0x0 BYTE SWAP1 MSTORE8 POP PUSH1 0x4 SWAP5 SWAP1 SWAP5 SHR SWAP4 PUSH2 0xB6D DUP2 PUSH2 0x1524 JUMP JUMPDEST SWAP1 POP PUSH2 0xAFF JUMP JUMPDEST POP DUP4 ISZERO PUSH2 0xBC7 JUMPI PUSH1 0x40 MLOAD PUSH3 0x461BCD PUSH1 0xE5 SHL DUP2 MSTORE PUSH1 0x20 PUSH1 0x4 DUP3 ADD DUP2 SWAP1 MSTORE PUSH1 0x24 DUP3 ADD MSTORE PUSH32 0x537472696E67733A20686578206C656E67746820696E73756666696369656E74 PUSH1 0x44 DUP3 ADD MSTORE PUSH1 0x64 ADD PUSH1 0x40 MLOAD DUP1 SWAP2 SUB SWAP1 REVERT JUMPDEST SWAP4 SWAP3 POP POP POP JUMP JUMPDEST PUSH1 0x0 PUSH1 0x20 DUP3 DUP5 SUB SLT ISZERO PUSH2 0xBE0 JUMPI PUSH1 0x0 DUP1 REVERT JUMPDEST POP CALLDATALOAD SWAP2 SWAP1 POP JUMP JUMPDEST PUSH1 0x0 JUMPDEST DUP4 DUP2 LT ISZERO PUSH2 0xC02 JUMPI DUP2 DUP2 ADD MLOAD DUP4 DUP3 ADD MSTORE PUSH1 0x20 ADD PUSH2 0xBEA JUMP JUMPDEST POP POP PUSH1 0x0 SWAP2 ADD MSTORE JUMP JUMPDEST PUSH1 0x20 DUP2 MSTORE PUSH1 0x0 DUP3 MLOAD DUP1 PUSH1 0x20 DUP5 ADD MSTORE PUSH2 0xC2A DUP2 PUSH1 0x40 DUP6 ADD PUSH1 0x20 DUP8 ADD PUSH2 0xBE7 JUMP JUMPDEST PUSH1 0x1F ADD PUSH1 0x1F NOT AND SWAP2 SWAP1 SWAP2 ADD PUSH1 0x40 ADD SWAP3 SWAP2 POP POP JUMP JUMPDEST PUSH4 0x4E487B71 PUSH1 0xE0 SHL PUSH1 0x0 MSTORE PUSH1 0x41 PUSH1 0x4 MSTORE PUSH1 0x24 PUSH1 0x0 REVERT JUMPDEST PUSH1 0x40 MLOAD PUSH1 0x1F DUP3 ADD PUSH1 0x1F NOT AND DUP2 ADD PUSH8 0xFFFFFFFFFFFFFFFF DUP2 GT DUP3 DUP3 LT OR ISZERO PUSH2 0xC7D JUMPI PUSH2 0xC7D PUSH2 0xC3E JUMP JUMPDEST PUSH1 0x40 MSTORE SWAP2 SWAP1 POP JUMP JUMPDEST PUSH1 0x0 PUSH8 0xFFFFFFFFFFFFFFFF DUP3 GT ISZERO PUSH2 0xC9F JUMPI PUSH2 0xC9F PUSH2 0xC3E JUMP JUMPDEST POP PUSH1 0x1F ADD PUSH1 0x1F NOT AND PUSH1 0x20 ADD SWAP1 JUMP JUMPDEST PUSH1 0x0 DUP1 PUSH1 0x40 DUP4 DUP6 SUB SLT ISZERO PUSH2 0xCC0 JUMPI PUSH1 0x0 DUP1 REVERT JUMPDEST DUP3 CALLDATALOAD SWAP2 POP PUSH1 0x20 DUP4 ADD CALLDATALOAD PUSH8 0xFFFFFFFFFFFFFFFF DUP2 GT ISZERO PUSH2 0xCDE JUMPI PUSH1 0x0 DUP1 REVERT JUMPDEST DUP4 ADD PUSH1 0x1F DUP2 ADD DUP6 SGT PUSH2 0xCEF JUMPI PUSH1 0x0 DUP1 REVERT JUMPDEST DUP1 CALLDATALOAD PUSH2 0xD02 PUSH2 0xCFD DUP3 PUSH2 0xC85 JUMP JUMPDEST PUSH2 0xC54 JUMP JUMPDEST DUP2 DUP2 MSTORE DUP7 PUSH1 0x20 DUP4 DUP6 ADD ADD GT ISZERO PUSH2 0xD17 JUMPI PUSH1 0x0 DUP1 REVERT JUMPDEST DUP2 PUSH1 0x20 DUP5 ADD PUSH1 0x20 DUP4 ADD CALLDATACOPY PUSH1 0x0 PUSH1 0x20 DUP4 DUP4 ADD ADD MSTORE DUP1 SWAP4 POP POP POP POP SWAP3 POP SWAP3 SWAP1 POP JUMP JUMPDEST PUSH1 0x0 DUP2 MLOAD PUSH2 0xD49 DUP2 DUP6 PUSH1 0x20 DUP7 ADD PUSH2 0xBE7 JUMP JUMPDEST SWAP3 SWAP1 SWAP3 ADD SWAP3 SWAP2 POP POP JUMP JUMPDEST PUSH9 0x3D913730B6B2911D11 PUSH1 0xB9 SHL DUP2 MSTORE DUP5 MLOAD PUSH1 0x0 SWAP1 PUSH2 0xD78 DUP2 PUSH1 0x9 DUP6 ADD PUSH1 0x20 DUP11 ADD PUSH2 0xBE7 JUMP JUMPDEST PUSH17 0x1116113232B9B1B934B83A34B7B7111D11 PUSH1 0x79 SHL PUSH1 0x9 SWAP2 DUP5 ADD SWAP2 DUP3 ADD MSTORE DUP6 MLOAD PUSH2 0xDA9 DUP2 PUSH1 0x1A DUP5 ADD PUSH1 0x20 DUP11 ADD PUSH2 0xBE7 JUMP JUMPDEST PUSH11 0x11161134B6B0B3B2911D11 PUSH1 0xA9 SHL PUSH1 0x1A SWAP3 SWAP1 SWAP2 ADD SWAP2 DUP3 ADD MSTORE DUP5 MLOAD PUSH2 0xDD5 DUP2 PUSH1 0x25 DUP5 ADD PUSH1 0x20 DUP10 ADD PUSH2 0xBE7 JUMP JUMPDEST PUSH15 0x111611383937B832B93A34B2B9911D PUSH1 0x89 SHL PUSH1 0x25 SWAP3 SWAP1 SWAP2 ADD SWAP2 DUP3 ADD MSTORE DUP4 MLOAD PUSH2 0xE05 DUP2 PUSH1 0x34 DUP5 ADD PUSH1 0x20 DUP9 ADD PUSH2 0xBE7 JUMP JUMPDEST PUSH1 0x7D PUSH1 0xF8 SHL PUSH1 0x34 SWAP3 SWAP1 SWAP2 ADD SWAP2 DUP3 ADD MSTORE PUSH1 0x35 ADD SWAP7 SWAP6 POP POP POP POP POP POP JUMP JUMPDEST PUSH32 0x646174613A6170706C69636174696F6E2F6A736F6E3B6261736536342C000000 DUP2 MSTORE PUSH1 0x0 DUP3 MLOAD PUSH2 0xE59 DUP2 PUSH1 0x1D DUP6 ADD PUSH1 0x20 DUP8 ADD PUSH2 0xBE7 JUMP JUMPDEST SWAP2 SWAP1 SWAP2 ADD PUSH1 0x1D ADD SWAP3 SWAP2 POP POP JUMP JUMPDEST PUSH1 0x1 DUP2 DUP2 SHR SWAP1 DUP3 AND DUP1 PUSH2 0xE7A JUMPI PUSH1 0x7F DUP3 AND SWAP2 POP JUMPDEST PUSH1 0x20 DUP3 LT DUP2 SUB PUSH2 0xE9A JUMPI PUSH4 0x4E487B71 PUSH1 0xE0 SHL PUSH1 0x0 MSTORE PUSH1 0x22 PUSH1 0x4 MSTORE PUSH1 0x24 PUSH1 0x0 REVERT JUMPDEST POP SWAP2 SWAP1 POP JUMP JUMPDEST PUSH1 0x1F DUP3 GT ISZERO PUSH2 0x138 JUMPI PUSH1 0x0 DUP2 DUP2 MSTORE PUSH1 0x20 DUP2 KECCAK256 PUSH1 0x1F DUP6 ADD PUSH1 0x5 SHR DUP2 ADD PUSH1 0x20 DUP7 LT ISZERO PUSH2 0xEC7 JUMPI POP DUP1 JUMPDEST PUSH1 0x1F DUP6 ADD PUSH1 0x5 SHR DUP3 ADD SWAP2 POP JUMPDEST DUP2 DUP2 LT ISZERO PUSH2 0xEE6 JUMPI DUP3 DUP2 SSTORE PUSH1 0x1 ADD PUSH2 0xED3 JUMP JUMPDEST POP POP POP POP POP POP JUMP JUMPDEST DUP2 MLOAD PUSH8 0xFFFFFFFFFFFFFFFF DUP2 GT ISZERO PUSH2 0xF08 JUMPI PUSH2 0xF08 PUSH2 0xC3E JUMP JUMPDEST PUSH2 0xF1C DUP2 PUSH2 0xF16 DUP5 SLOAD PUSH2 0xE66 JUMP JUMPDEST DUP5 PUSH2 0xEA0 JUMP JUMPDEST PUSH1 0x20 DUP1 PUSH1 0x1F DUP4 GT PUSH1 0x1 DUP2 EQ PUSH2 0xF51 JUMPI PUSH1 0x0 DUP5 ISZERO PUSH2 0xF39 JUMPI POP DUP6 DUP4 ADD MLOAD JUMPDEST PUSH1 0x0 NOT PUSH1 0x3 DUP7 SWAP1 SHL SHR NOT AND PUSH1 0x1 DUP6 SWAP1 SHL OR DUP6 SSTORE PUSH2 0xEE6 JUMP JUMPDEST PUSH1 0x0 DUP6 DUP2 MSTORE PUSH1 0x20 DUP2 KECCAK256 PUSH1 0x1F NOT DUP7 AND SWAP2 JUMPDEST DUP3 DUP2 LT ISZERO PUSH2 0xF80 JUMPI DUP9 DUP7 ADD MLOAD DUP3 SSTORE SWAP5 DUP5 ADD SWAP5 PUSH1 0x1 SWAP1 SWAP2 ADD SWAP1 DUP5 ADD PUSH2 0xF61 JUMP JUMPDEST POP DUP6 DUP3 LT ISZERO PUSH2 0xF9E JUMPI DUP8 DUP6 ADD MLOAD PUSH1 0x0 NOT PUSH1 0x3 DUP9 SWAP1 SHL PUSH1 0xF8 AND SHR NOT AND DUP2 SSTORE JUMPDEST POP POP POP POP POP PUSH1 0x1 SWAP1 DUP2 SHL ADD SWAP1 SSTORE POP JUMP JUMPDEST PUSH1 0x0 PUSH1 0x20 DUP3 DUP5 SUB SLT ISZERO PUSH2 0xFC0 JUMPI PUSH1 0x0 DUP1 REVERT JUMPDEST DUP2 MLOAD PUSH8 0xFFFFFFFFFFFFFFFF DUP2 GT ISZERO PUSH2 0xFD7 JUMPI PUSH1 0x0 DUP1 REVERT JUMPDEST DUP3 ADD PUSH1 0x1F DUP2 ADD DUP5 SGT PUSH2 0xFE8 JUMPI PUSH1 0x0 DUP1 REVERT JUMPDEST DUP1 MLOAD PUSH2 0xFF6 PUSH2 0xCFD DUP3 PUSH2 0xC85 JUMP JUMPDEST DUP2 DUP2 MSTORE DUP6 PUSH1 0x20 DUP4 DUP6 ADD ADD GT ISZERO PUSH2 0x100B JUMPI PUSH1 0x0 DUP1 REVERT JUMPDEST PUSH2 0x101C DUP3 PUSH1 0x20 DUP4 ADD PUSH1 0x20 DUP7 ADD PUSH2 0xBE7 JUMP JUMPDEST SWAP6 SWAP5 POP POP POP POP POP JUMP JUMPDEST PUSH1 0x0 PUSH1 0x20 DUP3 DUP5 SUB SLT ISZERO PUSH2 0x1037 JUMPI PUSH1 0x0 DUP1 REVERT JUMPDEST DUP2 MLOAD PUSH1 0xFF DUP2 AND DUP2 EQ PUSH2 0xBC7 JUMPI PUSH1 0x0 DUP1 REVERT JUMPDEST PUSH9 0x3D913730B6B2911D11 PUSH1 0xB9 SHL DUP2 MSTORE DUP5 MLOAD PUSH1 0x0 SWAP1 PUSH2 0x106D DUP2 PUSH1 0x9 DUP6 ADD PUSH1 0x20 DUP11 ADD PUSH2 0xBE7 JUMP JUMPDEST PUSH17 0x1116113232B9B1B934B83A34B7B7111D11 PUSH1 0x79 SHL PUSH1 0x9 SWAP2 DUP5 ADD SWAP2 DUP3 ADD MSTORE DUP6 MLOAD PUSH2 0x109E DUP2 PUSH1 0x1A DUP5 ADD PUSH1 0x20 DUP11 ADD PUSH2 0xBE7 JUMP JUMPDEST PUSH11 0x11161134B6B0B3B2911D11 PUSH1 0xA9 SHL PUSH1 0x1A SWAP3 SWAP1 SWAP2 ADD SWAP2 DUP3 ADD MSTORE DUP5 MLOAD PUSH2 0x10CA DUP2 PUSH1 0x25 DUP5 ADD PUSH1 0x20 DUP10 ADD PUSH2 0xBE7 JUMP JUMPDEST PUSH19 0x1116113B30B63AB2A232B1B4B6B0B639911D11 PUSH1 0x69 SHL PUSH1 0x25 SWAP3 SWAP1 SWAP2 ADD SWAP2 DUP3 ADD MSTORE DUP4 MLOAD PUSH2 0x10FE DUP2 PUSH1 0x38 DUP5 ADD PUSH1 0x20 DUP9 ADD PUSH2 0xBE7 JUMP JUMPDEST PUSH2 0x227D PUSH1 0xF0 SHL PUSH1 0x38 SWAP3 SWAP1 SWAP2 ADD SWAP2 DUP3 ADD MSTORE PUSH1 0x3A ADD SWAP7 SWAP6 POP POP POP POP POP POP JUMP JUMPDEST PUSH1 0x0 PUSH1 0x20 DUP3 DUP5 SUB SLT ISZERO PUSH2 0x112D JUMPI PUSH1 0x0 DUP1 REVERT JUMPDEST POP MLOAD SWAP2 SWAP1 POP JUMP JUMPDEST PUSH9 0x3D913730B6B2911D11 PUSH1 0xB9 SHL DUP2 MSTORE DUP7 MLOAD PUSH1 0x0 SWAP1 PUSH2 0x1159 DUP2 PUSH1 0x9 DUP6 ADD PUSH1 0x20 DUP13 ADD PUSH2 0xBE7 JUMP JUMPDEST PUSH17 0x1116113232B9B1B934B83A34B7B7111D11 PUSH1 0x79 SHL PUSH1 0x9 SWAP2 DUP5 ADD SWAP2 DUP3 ADD MSTORE DUP8 MLOAD PUSH2 0x118A DUP2 PUSH1 0x1A DUP5 ADD PUSH1 0x20 DUP13 ADD PUSH2 0xBE7 JUMP JUMPDEST PUSH11 0x11161134B6B0B3B2911D11 PUSH1 0xA9 SHL PUSH1 0x1A SWAP3 SWAP1 SWAP2 ADD SWAP2 DUP3 ADD MSTORE DUP7 MLOAD PUSH2 0x11B6 DUP2 PUSH1 0x25 DUP5 ADD PUSH1 0x20 DUP12 ADD PUSH2 0xBE7 JUMP JUMPDEST PUSH13 0x1116113130B630B731B2911D11 PUSH1 0x99 SHL PUSH1 0x25 SWAP3 SWAP1 SWAP2 ADD SWAP2 DUP3 ADD MSTORE DUP6 MLOAD PUSH2 0x11E4 DUP2 PUSH1 0x32 DUP5 ADD PUSH1 0x20 DUP11 ADD PUSH2 0xBE7 JUMP JUMPDEST PUSH10 0x11161139B637BA111D11 PUSH1 0xB1 SHL PUSH1 0x32 SWAP3 SWAP1 SWAP2 ADD SWAP2 DUP3 ADD MSTORE DUP5 MLOAD PUSH2 0x120F DUP2 PUSH1 0x3C DUP5 ADD PUSH1 0x20 DUP10 ADD PUSH2 0xBE7 JUMP JUMPDEST PUSH2 0x124C PUSH2 0x123F PUSH2 0x1239 PUSH1 0x3C DUP5 DUP7 ADD ADD PUSH15 0x111611383937B832B93A34B2B9911D PUSH1 0x89 SHL DUP2 MSTORE PUSH1 0xF ADD SWAP1 JUMP JUMPDEST DUP8 PUSH2 0xD37 JUMP JUMPDEST PUSH1 0x7D PUSH1 0xF8 SHL DUP2 MSTORE PUSH1 0x1 ADD SWAP1 JUMP JUMPDEST SWAP11 SWAP10 POP POP POP POP POP POP POP POP POP POP JUMP JUMPDEST PUSH1 0x0 DUP3 MLOAD PUSH2 0x126C DUP2 DUP5 PUSH1 0x20 DUP8 ADD PUSH2 0xBE7 JUMP JUMPDEST PUSH6 0x2F696D616765 PUSH1 0xD0 SHL SWAP3 ADD SWAP2 DUP3 MSTORE POP PUSH1 0x6 ADD SWAP2 SWAP1 POP JUMP JUMPDEST PUSH1 0x0 DUP3 MLOAD PUSH2 0x1296 DUP2 DUP5 PUSH1 0x20 DUP8 ADD PUSH2 0xBE7 JUMP JUMPDEST PUSH16 0x17B83937B832B93A34B2B9973539B7B7 PUSH1 0x81 SHL SWAP3 ADD SWAP2 DUP3 MSTORE POP PUSH1 0x10 ADD SWAP2 SWAP1 POP JUMP JUMPDEST PUSH4 0x4E487B71 PUSH1 0xE0 SHL PUSH1 0x0 MSTORE PUSH1 0x11 PUSH1 0x4 MSTORE PUSH1 0x24 PUSH1 0x0 REVERT JUMPDEST DUP1 DUP3 ADD DUP1 DUP3 GT ISZERO PUSH2 0x3DF JUMPI PUSH2 0x3DF PUSH2 0x12B8 JUMP JUMPDEST PUSH1 0x0 DUP3 PUSH2 0x12FE JUMPI PUSH4 0x4E487B71 PUSH1 0xE0 SHL PUSH1 0x0 MSTORE PUSH1 0x12 PUSH1 0x4 MSTORE PUSH1 0x24 PUSH1 0x0 REVERT JUMPDEST POP DIV SWAP1 JUMP JUMPDEST DUP1 DUP3 MUL DUP2 ISZERO DUP3 DUP3 DIV DUP5 EQ OR PUSH2 0x3DF JUMPI PUSH2 0x3DF PUSH2 0x12B8 JUMP JUMPDEST PUSH1 0x0 DUP2 SLOAD PUSH2 0x1327 DUP2 PUSH2 0xE66 JUMP JUMPDEST PUSH1 0x1 DUP3 DUP2 AND DUP1 ISZERO PUSH2 0x133F JUMPI PUSH1 0x1 DUP2 EQ PUSH2 0x1354 JUMPI PUSH2 0x1383 JUMP JUMPDEST PUSH1 0xFF NOT DUP5 AND DUP8 MSTORE DUP3 ISZERO ISZERO DUP4 MUL DUP8 ADD SWAP5 POP PUSH2 0x1383 JUMP JUMPDEST DUP6 PUSH1 0x0 MSTORE PUSH1 0x20 DUP1 PUSH1 0x0 KECCAK256 PUSH1 0x0 JUMPDEST DUP6 DUP2 LT ISZERO PUSH2 0x137A JUMPI DUP2 SLOAD DUP11 DUP3 ADD MSTORE SWAP1 DUP5 ADD SWAP1 DUP3 ADD PUSH2 0x1361 JUMP JUMPDEST POP POP POP DUP3 DUP8 ADD SWAP5 POP JUMPDEST POP POP POP POP SWAP3 SWAP2 POP POP JUMP JUMPDEST PUSH1 0x0 PUSH2 0x1399 DUP3 DUP6 PUSH2 0x131A JUMP JUMPDEST PUSH9 0x636F6E74726163742F PUSH1 0xB8 SHL DUP2 MSTORE DUP4 MLOAD PUSH2 0x13BB DUP2 PUSH1 0x9 DUP5 ADD PUSH1 0x20 DUP9 ADD PUSH2 0xBE7 JUMP JUMPDEST PUSH6 0x2F696D616765 PUSH1 0xD0 SHL PUSH1 0x9 SWAP3 SWAP1 SWAP2 ADD SWAP2 DUP3 ADD MSTORE PUSH1 0xF ADD SWAP5 SWAP4 POP POP POP POP JUMP JUMPDEST PUSH1 0x0 DUP4 MLOAD PUSH2 0x13EC DUP2 DUP5 PUSH1 0x20 DUP9 ADD PUSH2 0xBE7 JUMP JUMPDEST PUSH2 0x2023 PUSH1 0xF0 SHL SWAP1 DUP4 ADD SWAP1 DUP2 MSTORE DUP4 MLOAD PUSH2 0x140B DUP2 PUSH1 0x2 DUP5 ADD PUSH1 0x20 DUP9 ADD PUSH2 0xBE7 JUMP JUMPDEST ADD PUSH1 0x2 ADD SWAP5 SWAP4 POP POP POP POP JUMP JUMPDEST PUSH1 0x0 PUSH2 0x1423 DUP3 DUP7 PUSH2 0x131A JUMP JUMPDEST PUSH10 0x2F636F6E74726163742F PUSH1 0xB0 SHL DUP2 MSTORE DUP5 MLOAD PUSH2 0x1446 DUP2 PUSH1 0xA DUP5 ADD PUSH1 0x20 DUP10 ADD PUSH2 0xBE7 JUMP JUMPDEST PUSH7 0x2F746F6B656E2F PUSH1 0xC8 SHL PUSH1 0xA SWAP3 SWAP1 SWAP2 ADD SWAP2 DUP3 ADD MSTORE DUP4 MLOAD PUSH2 0x146E DUP2 PUSH1 0x11 DUP5 ADD PUSH1 0x20 DUP9 ADD PUSH2 0xBE7 JUMP JUMPDEST PUSH6 0x2F696D616765 PUSH1 0xD0 SHL PUSH1 0x11 SWAP3 SWAP1 SWAP2 ADD SWAP2 DUP3 ADD MSTORE PUSH1 0x17 ADD SWAP6 SWAP5 POP POP POP POP POP JUMP JUMPDEST PUSH1 0x0 PUSH2 0x149A DUP3 DUP7 PUSH2 0x131A JUMP JUMPDEST PUSH9 0x636F6E74726163742F PUSH1 0xB8 SHL DUP2 MSTORE DUP5 MLOAD PUSH2 0x14BC DUP2 PUSH1 0x9 DUP5 ADD PUSH1 0x20 DUP10 ADD PUSH2 0xBE7 JUMP JUMPDEST PUSH7 0x2F746F6B656E2F PUSH1 0xC8 SHL PUSH1 0x9 SWAP3 SWAP1 SWAP2 ADD SWAP2 DUP3 ADD MSTORE DUP4 MLOAD PUSH2 0x14E4 DUP2 PUSH1 0x10 DUP5 ADD PUSH1 0x20 DUP9 ADD PUSH2 0xBE7 JUMP JUMPDEST PUSH16 0x17B83937B832B93A34B2B9973539B7B7 PUSH1 0x81 SHL PUSH1 0x10 SWAP3 SWAP1 SWAP2 ADD SWAP2 DUP3 ADD MSTORE PUSH1 0x20 ADD SWAP6 SWAP5 POP POP POP POP POP JUMP JUMPDEST PUSH4 0x4E487B71 PUSH1 0xE0 SHL PUSH1 0x0 MSTORE PUSH1 0x32 PUSH1 0x4 MSTORE PUSH1 0x24 PUSH1 0x0 REVERT JUMPDEST PUSH1 0x0 DUP2 PUSH2 0x1533 JUMPI PUSH2 0x1533 PUSH2 0x12B8 JUMP JUMPDEST POP PUSH1 0x0 NOT ADD SWAP1 JUMP INVALID COINBASE TIMESTAMP NUMBER DIFFICULTY GASLIMIT CHAINID SELFBALANCE BASEFEE 0x49 0x4A 0x4B 0x4C 0x4D 0x4E 0x4F POP MLOAD MSTORE MSTORE8 SLOAD SSTORE JUMP JUMPI PC MSIZE GAS PUSH2 0x6263 PUSH5 0x6566676869 PUSH11 0x6B6C6D6E6F707172737475 PUSH23 0x7778797A303132333435363738392B2FA2646970667358 0x22 SLT KECCAK256 0xE0 0x5C 0xAD SSTORE COINBASE PUSH24 0xB58D45ABD3FAAF74E029438ED7BE1AFC071088DA6913A7FC 0x2C NOT PUSH5 0x736F6C6343 STOP ADDMOD GT STOP CALLER "},"methodIdentifiers":{"_setTokenDescription(uint256,string)":"6d98340d","constructContractURI()":"725fa09c","constructSlotURI(uint256)":"6c037f8a","constructTokenURI(uint256)":"894b4c2e"}}}}}