{"@solvprotocol/erc-3525/periphery/ERC3525MetadataDescriptor.sol":{"ERC3525MetadataDescriptor":{"abi":[{"inputs":[],"name":"constructContractURI","outputs":[{"internalType":"string","name":"","type":"string"}],"stateMutability":"view","type":"function"},{"inputs":[{"internalType":"uint256","name":"slot_","type":"uint256"}],"name":"constructSlotURI","outputs":[{"internalType":"string","name":"","type":"string"}],"stateMutability":"view","type":"function"},{"inputs":[{"internalType":"uint256","name":"tokenId_","type":"uint256"}],"name":"constructTokenURI","outputs":[{"internalType":"string","name":"","type":"string"}],"stateMutability":"view","type":"function"}],"evm":{"bytecode":{"linkReferences":{},"object":"608060405234801561001057600080fd5b50610c69806100206000396000f3fe608060405234801561001057600080fd5b50600436106100415760003560e01c80636c037f8a14610046578063725fa09c1461006f578063894b4c2e14610077575b600080fd5b6100596100543660046106b6565b61008a565b60405161006691906106f3565b60405180910390f35b61005961011c565b6100596100853660046106b6565b61024f565b60606100f66100a460408051602081019091526000815290565b60408051602080820183526000808352835180830185529081528351808501855260028152615b5d60f01b8184015293516100e29594919201610742565b604051602081830303815290604052610375565b6040516020016101069190610810565b6040516020818303038152906040529050919050565b6060600033905061022a816001600160a01b03166306fdde036040518163ffffffff1660e01b8152600401600060405180830381865afa158015610164573d6000803e3d6000fd5b505050506040513d6000823e601f3d908101601f1916820160405261018c919081019061086b565b604080516020810190915260008152604080516020810190915260008152610217856001600160a01b0316633e7e86696040518163ffffffff1660e01b8152600401602060405180830381865afa1580156101eb573d6000803e3d6000fd5b505050506040513d601f19601f8201168201806040525081019061020f9190610918565b60ff166104c8565b6040516020016100e29493929190610942565b60405160200161023a9190610810565b60405160208183030381529060405291505090565b60603361034e61025e8461055b565b604080516020810190915260008152604080516020810190915260008152604051631398fee160e31b8152600481018890526102ef906001600160a01b03871690639cc7f708906024015b602060405180830381865afa1580156102c6573d6000803e3d6000fd5b505050506040513d601f19601f820116820180604052508101906102ea9190610a15565b6104c8565b60405163131f9f3f60e11b815260048101899052610320906001600160a01b0388169063263f3e7e906024016102a9565b6040805180820190915260028152617b7d60f01b60208201526040516020016100e296959493929190610a2e565b60405160200161035e9190610810565b604051602081830303815290604052915050919050565b6060815160000361039457505060408051602081019091526000815290565b6000604051806060016040528060408152602001610bf460409139905060006003845160026103c39190610b6a565b6103cd9190610b7d565b6103d8906004610b9f565b67ffffffffffffffff8111156103f0576103f0610855565b6040519080825280601f01601f19166020018201604052801561041a576020820181803683370190505b509050600182016020820185865187015b80821015610486576003820191508151603f8160121c168501518453600184019350603f81600c1c168501518453600184019350603f8160061c168501518453600184019350603f811685015184535060018301925061042b565b50506003865106600181146104a257600281146104b5576104bd565b603d6001830353603d60028303536104bd565b603d60018303535b509195945050505050565b606060006104d5836105dd565b600101905060008167ffffffffffffffff8111156104f5576104f5610855565b6040519080825280601f01601f19166020018201604052801561051f576020820181803683370190505b5090508181016020015b600019016f181899199a1a9b1b9c1cb0b131b232b360811b600a86061a8153600a850494508461052957509392505050565b6060336001600160a01b03166306fdde036040518163ffffffff1660e01b8152600401600060405180830381865afa15801561059b573d6000803e3d6000fd5b505050506040513d6000823e601f3d908101601f191682016040526105c3919081019061086b565b6105cc836104c8565b604051602001610106929190610bb6565b60008072184f03e93ff9f4daa797ed6e38ed64bf6a1f0160401b831061061c5772184f03e93ff9f4daa797ed6e38ed64bf6a1f0160401b830492506040015b6d04ee2d6d415b85acef81000000008310610648576d04ee2d6d415b85acef8100000000830492506020015b662386f26fc10000831061066657662386f26fc10000830492506010015b6305f5e100831061067e576305f5e100830492506008015b612710831061069257612710830492506004015b606483106106a4576064830492506002015b600a83106106b0576001015b92915050565b6000602082840312156106c857600080fd5b5035919050565b60005b838110156106ea5781810151838201526020016106d2565b50506000910152565b60208152600082518060208401526107128160408501602087016106cf565b601f01601f19169190910160400192915050565b600081516107388185602086016106cf565b9290920192915050565b683d913730b6b2911d1160b91b81528451600090610767816009850160208a016106cf565b701116113232b9b1b934b83a34b7b7111d1160791b600991840191820152855161079881601a840160208a016106cf565b6a11161134b6b0b3b2911d1160a91b601a929091019182015284516107c48160258401602089016106cf565b6e111611383937b832b93a34b2b9911d60891b6025929091019182015283516107f48160348401602088016106cf565b607d60f81b603492909101918201526035019695505050505050565b7f646174613a6170706c69636174696f6e2f6a736f6e3b6261736536342c00000081526000825161084881601d8501602087016106cf565b91909101601d0192915050565b634e487b7160e01b600052604160045260246000fd5b60006020828403121561087d57600080fd5b815167ffffffffffffffff8082111561089557600080fd5b818401915084601f8301126108a957600080fd5b8151818111156108bb576108bb610855565b604051601f8201601f19908116603f011681019083821181831017156108e3576108e3610855565b816040528281528760208487010111156108fc57600080fd5b61090d8360208301602088016106cf565b979650505050505050565b60006020828403121561092a57600080fd5b815160ff8116811461093b57600080fd5b9392505050565b683d913730b6b2911d1160b91b81528451600090610967816009850160208a016106cf565b701116113232b9b1b934b83a34b7b7111d1160791b600991840191820152855161099881601a840160208a016106cf565b6a11161134b6b0b3b2911d1160a91b601a929091019182015284516109c48160258401602089016106cf565b721116113b30b63ab2a232b1b4b6b0b639911d1160691b6025929091019182015283516109f88160388401602088016106cf565b61227d60f01b60389290910191820152603a019695505050505050565b600060208284031215610a2757600080fd5b5051919050565b683d913730b6b2911d1160b91b81528651600090610a53816009850160208c016106cf565b701116113232b9b1b934b83a34b7b7111d1160791b6009918401918201528751610a8481601a840160208c016106cf565b6a11161134b6b0b3b2911d1160a91b601a92909101918201528651610ab0816025840160208b016106cf565b6c1116113130b630b731b2911d1160991b602592909101918201528551610ade816032840160208a016106cf565b6911161139b637ba111d1160b11b603292909101918201528451610b0981603c8401602089016106cf565b610b46610b39610b33603c848601016e111611383937b832b93a34b2b9911d60891b8152600f0190565b87610726565b607d60f81b815260010190565b9a9950505050505050505050565b634e487b7160e01b600052601160045260246000fd5b808201808211156106b0576106b0610b54565b600082610b9a57634e487b7160e01b600052601260045260246000fd5b500490565b80820281158282048414176106b0576106b0610b54565b60008351610bc88184602088016106cf565b61202360f01b9083019081528351610be78160028401602088016106cf565b0160020194935050505056fe4142434445464748494a4b4c4d4e4f505152535455565758595a6162636465666768696a6b6c6d6e6f707172737475767778797a303132333435363738392b2fa26469706673582212204da770d7d62e9187fd57f343aab46bd1311f5c24e0111e09bcc77f7fa211341464736f6c63430008110033","opcodes":"PUSH1 0x80 PUSH1 0x40 MSTORE CALLVALUE DUP1 ISZERO PUSH2 0x10 JUMPI PUSH1 0x0 DUP1 REVERT JUMPDEST POP PUSH2 0xC69 DUP1 PUSH2 0x20 PUSH1 0x0 CODECOPY PUSH1 0x0 RETURN INVALID PUSH1 0x80 PUSH1 0x40 MSTORE CALLVALUE DUP1 ISZERO PUSH2 0x10 JUMPI PUSH1 0x0 DUP1 REVERT JUMPDEST POP PUSH1 0x4 CALLDATASIZE LT PUSH2 0x41 JUMPI PUSH1 0x0 CALLDATALOAD PUSH1 0xE0 SHR DUP1 PUSH4 0x6C037F8A EQ PUSH2 0x46 JUMPI DUP1 PUSH4 0x725FA09C EQ PUSH2 0x6F JUMPI DUP1 PUSH4 0x894B4C2E EQ PUSH2 0x77 JUMPI JUMPDEST PUSH1 0x0 DUP1 REVERT JUMPDEST PUSH2 0x59 PUSH2 0x54 CALLDATASIZE PUSH1 0x4 PUSH2 0x6B6 JUMP JUMPDEST PUSH2 0x8A JUMP JUMPDEST PUSH1 0x40 MLOAD PUSH2 0x66 SWAP2 SWAP1 PUSH2 0x6F3 JUMP JUMPDEST PUSH1 0x40 MLOAD DUP1 SWAP2 SUB SWAP1 RETURN JUMPDEST PUSH2 0x59 PUSH2 0x11C JUMP JUMPDEST PUSH2 0x59 PUSH2 0x85 CALLDATASIZE PUSH1 0x4 PUSH2 0x6B6 JUMP JUMPDEST PUSH2 0x24F JUMP JUMPDEST PUSH1 0x60 PUSH2 0xF6 PUSH2 0xA4 PUSH1 0x40 DUP1 MLOAD PUSH1 0x20 DUP2 ADD SWAP1 SWAP2 MSTORE PUSH1 0x0 DUP2 MSTORE SWAP1 JUMP JUMPDEST PUSH1 0x40 DUP1 MLOAD PUSH1 0x20 DUP1 DUP3 ADD DUP4 MSTORE PUSH1 0x0 DUP1 DUP4 MSTORE DUP4 MLOAD DUP1 DUP4 ADD DUP6 MSTORE SWAP1 DUP2 MSTORE DUP4 MLOAD DUP1 DUP6 ADD DUP6 MSTORE PUSH1 0x2 DUP2 MSTORE PUSH2 0x5B5D PUSH1 0xF0 SHL DUP2 DUP5 ADD MSTORE SWAP4 MLOAD PUSH2 0xE2 SWAP6 SWAP5 SWAP2 SWAP3 ADD PUSH2 0x742 JUMP JUMPDEST PUSH1 0x40 MLOAD PUSH1 0x20 DUP2 DUP4 SUB SUB DUP2 MSTORE SWAP1 PUSH1 0x40 MSTORE PUSH2 0x375 JUMP JUMPDEST PUSH1 0x40 MLOAD PUSH1 0x20 ADD PUSH2 0x106 SWAP2 SWAP1 PUSH2 0x810 JUMP JUMPDEST PUSH1 0x40 MLOAD PUSH1 0x20 DUP2 DUP4 SUB SUB DUP2 MSTORE SWAP1 PUSH1 0x40 MSTORE SWAP1 POP SWAP2 SWAP1 POP JUMP JUMPDEST PUSH1 0x60 PUSH1 0x0 CALLER SWAP1 POP PUSH2 0x22A DUP2 PUSH1 0x1 PUSH1 0x1 PUSH1 0xA0 SHL SUB AND PUSH4 0x6FDDE03 PUSH1 0x40 MLOAD DUP2 PUSH4 0xFFFFFFFF AND PUSH1 0xE0 SHL DUP2 MSTORE PUSH1 0x4 ADD PUSH1 0x0 PUSH1 0x40 MLOAD DUP1 DUP4 SUB DUP2 DUP7 GAS STATICCALL ISZERO DUP1 ISZERO PUSH2 0x164 JUMPI RETURNDATASIZE PUSH1 0x0 DUP1 RETURNDATACOPY RETURNDATASIZE PUSH1 0x0 REVERT JUMPDEST POP POP POP POP PUSH1 0x40 MLOAD RETURNDATASIZE PUSH1 0x0 DUP3 RETURNDATACOPY PUSH1 0x1F RETURNDATASIZE SWAP1 DUP2 ADD PUSH1 0x1F NOT AND DUP3 ADD PUSH1 0x40 MSTORE PUSH2 0x18C SWAP2 SWAP1 DUP2 ADD SWAP1 PUSH2 0x86B JUMP JUMPDEST PUSH1 0x40 DUP1 MLOAD PUSH1 0x20 DUP2 ADD SWAP1 SWAP2 MSTORE PUSH1 0x0 DUP2 MSTORE PUSH1 0x40 DUP1 MLOAD PUSH1 0x20 DUP2 ADD SWAP1 SWAP2 MSTORE PUSH1 0x0 DUP2 MSTORE PUSH2 0x217 DUP6 PUSH1 0x1 PUSH1 0x1 PUSH1 0xA0 SHL SUB AND PUSH4 0x3E7E8669 PUSH1 0x40 MLOAD DUP2 PUSH4 0xFFFFFFFF AND PUSH1 0xE0 SHL DUP2 MSTORE PUSH1 0x4 ADD PUSH1 0x20 PUSH1 0x40 MLOAD DUP1 DUP4 SUB DUP2 DUP7 GAS STATICCALL ISZERO DUP1 ISZERO PUSH2 0x1EB JUMPI RETURNDATASIZE PUSH1 0x0 DUP1 RETURNDATACOPY RETURNDATASIZE PUSH1 0x0 REVERT JUMPDEST POP POP POP POP PUSH1 0x40 MLOAD RETURNDATASIZE PUSH1 0x1F NOT PUSH1 0x1F DUP3 ADD AND DUP3 ADD DUP1 PUSH1 0x40 MSTORE POP DUP2 ADD SWAP1 PUSH2 0x20F SWAP2 SWAP1 PUSH2 0x918 JUMP JUMPDEST PUSH1 0xFF AND PUSH2 0x4C8 JUMP JUMPDEST PUSH1 0x40 MLOAD PUSH1 0x20 ADD PUSH2 0xE2 SWAP5 SWAP4 SWAP3 SWAP2 SWAP1 PUSH2 0x942 JUMP JUMPDEST PUSH1 0x40 MLOAD PUSH1 0x20 ADD PUSH2 0x23A SWAP2 SWAP1 PUSH2 0x810 JUMP JUMPDEST PUSH1 0x40 MLOAD PUSH1 0x20 DUP2 DUP4 SUB SUB DUP2 MSTORE SWAP1 PUSH1 0x40 MSTORE SWAP2 POP POP SWAP1 JUMP JUMPDEST PUSH1 0x60 CALLER PUSH2 0x34E PUSH2 0x25E DUP5 PUSH2 0x55B JUMP JUMPDEST PUSH1 0x40 DUP1 MLOAD PUSH1 0x20 DUP2 ADD SWAP1 SWAP2 MSTORE PUSH1 0x0 DUP2 MSTORE PUSH1 0x40 DUP1 MLOAD PUSH1 0x20 DUP2 ADD SWAP1 SWAP2 MSTORE PUSH1 0x0 DUP2 MSTORE PUSH1 0x40 MLOAD PUSH4 0x1398FEE1 PUSH1 0xE3 SHL DUP2 MSTORE PUSH1 0x4 DUP2 ADD DUP9 SWAP1 MSTORE PUSH2 0x2EF SWAP1 PUSH1 0x1 PUSH1 0x1 PUSH1 0xA0 SHL SUB DUP8 AND SWAP1 PUSH4 0x9CC7F708 SWAP1 PUSH1 0x24 ADD JUMPDEST PUSH1 0x20 PUSH1 0x40 MLOAD DUP1 DUP4 SUB DUP2 DUP7 GAS STATICCALL ISZERO DUP1 ISZERO PUSH2 0x2C6 JUMPI RETURNDATASIZE PUSH1 0x0 DUP1 RETURNDATACOPY RETURNDATASIZE PUSH1 0x0 REVERT JUMPDEST POP POP POP POP PUSH1 0x40 MLOAD RETURNDATASIZE PUSH1 0x1F NOT PUSH1 0x1F DUP3 ADD AND DUP3 ADD DUP1 PUSH1 0x40 MSTORE POP DUP2 ADD SWAP1 PUSH2 0x2EA SWAP2 SWAP1 PUSH2 0xA15 JUMP JUMPDEST PUSH2 0x4C8 JUMP JUMPDEST PUSH1 0x40 MLOAD PUSH4 0x131F9F3F PUSH1 0xE1 SHL DUP2 MSTORE PUSH1 0x4 DUP2 ADD DUP10 SWAP1 MSTORE PUSH2 0x320 SWAP1 PUSH1 0x1 PUSH1 0x1 PUSH1 0xA0 SHL SUB DUP9 AND SWAP1 PUSH4 0x263F3E7E SWAP1 PUSH1 0x24 ADD PUSH2 0x2A9 JUMP JUMPDEST PUSH1 0x40 DUP1 MLOAD DUP1 DUP3 ADD SWAP1 SWAP2 MSTORE PUSH1 0x2 DUP2 MSTORE PUSH2 0x7B7D PUSH1 0xF0 SHL PUSH1 0x20 DUP3 ADD MSTORE PUSH1 0x40 MLOAD PUSH1 0x20 ADD PUSH2 0xE2 SWAP7 SWAP6 SWAP5 SWAP4 SWAP3 SWAP2 SWAP1 PUSH2 0xA2E JUMP JUMPDEST PUSH1 0x40 MLOAD PUSH1 0x20 ADD PUSH2 0x35E SWAP2 SWAP1 PUSH2 0x810 JUMP JUMPDEST PUSH1 0x40 MLOAD PUSH1 0x20 DUP2 DUP4 SUB SUB DUP2 MSTORE SWAP1 PUSH1 0x40 MSTORE SWAP2 POP POP SWAP2 SWAP1 POP JUMP JUMPDEST PUSH1 0x60 DUP2 MLOAD PUSH1 0x0 SUB PUSH2 0x394 JUMPI POP POP PUSH1 0x40 DUP1 MLOAD PUSH1 0x20 DUP2 ADD SWAP1 SWAP2 MSTORE PUSH1 0x0 DUP2 MSTORE SWAP1 JUMP JUMPDEST PUSH1 0x0 PUSH1 0x40 MLOAD DUP1 PUSH1 0x60 ADD PUSH1 0x40 MSTORE DUP1 PUSH1 0x40 DUP2 MSTORE PUSH1 0x20 ADD PUSH2 0xBF4 PUSH1 0x40 SWAP2 CODECOPY SWAP1 POP PUSH1 0x0 PUSH1 0x3 DUP5 MLOAD PUSH1 0x2 PUSH2 0x3C3 SWAP2 SWAP1 PUSH2 0xB6A JUMP JUMPDEST PUSH2 0x3CD SWAP2 SWAP1 PUSH2 0xB7D JUMP JUMPDEST PUSH2 0x3D8 SWAP1 PUSH1 0x4 PUSH2 0xB9F JUMP JUMPDEST PUSH8 0xFFFFFFFFFFFFFFFF DUP2 GT ISZERO PUSH2 0x3F0 JUMPI PUSH2 0x3F0 PUSH2 0x855 JUMP JUMPDEST PUSH1 0x40 MLOAD SWAP1 DUP1 DUP3 MSTORE DUP1 PUSH1 0x1F ADD PUSH1 0x1F NOT AND PUSH1 0x20 ADD DUP3 ADD PUSH1 0x40 MSTORE DUP1 ISZERO PUSH2 0x41A JUMPI PUSH1 0x20 DUP3 ADD DUP2 DUP1 CALLDATASIZE DUP4 CALLDATACOPY ADD SWAP1 POP JUMPDEST POP SWAP1 POP PUSH1 0x1 DUP3 ADD PUSH1 0x20 DUP3 ADD DUP6 DUP7 MLOAD DUP8 ADD JUMPDEST DUP1 DUP3 LT ISZERO PUSH2 0x486 JUMPI PUSH1 0x3 DUP3 ADD SWAP2 POP DUP2 MLOAD PUSH1 0x3F DUP2 PUSH1 0x12 SHR AND DUP6 ADD MLOAD DUP5 MSTORE8 PUSH1 0x1 DUP5 ADD SWAP4 POP PUSH1 0x3F DUP2 PUSH1 0xC SHR AND DUP6 ADD MLOAD DUP5 MSTORE8 PUSH1 0x1 DUP5 ADD SWAP4 POP PUSH1 0x3F DUP2 PUSH1 0x6 SHR AND DUP6 ADD MLOAD DUP5 MSTORE8 PUSH1 0x1 DUP5 ADD SWAP4 POP PUSH1 0x3F DUP2 AND DUP6 ADD MLOAD DUP5 MSTORE8 POP PUSH1 0x1 DUP4 ADD SWAP3 POP PUSH2 0x42B JUMP JUMPDEST POP POP PUSH1 0x3 DUP7 MLOAD MOD PUSH1 0x1 DUP2 EQ PUSH2 0x4A2 JUMPI PUSH1 0x2 DUP2 EQ PUSH2 0x4B5 JUMPI PUSH2 0x4BD JUMP JUMPDEST PUSH1 0x3D PUSH1 0x1 DUP4 SUB MSTORE8 PUSH1 0x3D PUSH1 0x2 DUP4 SUB MSTORE8 PUSH2 0x4BD JUMP JUMPDEST PUSH1 0x3D PUSH1 0x1 DUP4 SUB MSTORE8 JUMPDEST POP SWAP2 SWAP6 SWAP5 POP POP POP POP POP JUMP JUMPDEST PUSH1 0x60 PUSH1 0x0 PUSH2 0x4D5 DUP4 PUSH2 0x5DD JUMP JUMPDEST PUSH1 0x1 ADD SWAP1 POP PUSH1 0x0 DUP2 PUSH8 0xFFFFFFFFFFFFFFFF DUP2 GT ISZERO PUSH2 0x4F5 JUMPI PUSH2 0x4F5 PUSH2 0x855 JUMP JUMPDEST PUSH1 0x40 MLOAD SWAP1 DUP1 DUP3 MSTORE DUP1 PUSH1 0x1F ADD PUSH1 0x1F NOT AND PUSH1 0x20 ADD DUP3 ADD PUSH1 0x40 MSTORE DUP1 ISZERO PUSH2 0x51F JUMPI PUSH1 0x20 DUP3 ADD DUP2 DUP1 CALLDATASIZE DUP4 CALLDATACOPY ADD SWAP1 POP JUMPDEST POP SWAP1 POP DUP2 DUP2 ADD PUSH1 0x20 ADD JUMPDEST PUSH1 0x0 NOT ADD PUSH16 0x181899199A1A9B1B9C1CB0B131B232B3 PUSH1 0x81 SHL PUSH1 0xA DUP7 MOD BYTE DUP2 MSTORE8 PUSH1 0xA DUP6 DIV SWAP5 POP DUP5 PUSH2 0x529 JUMPI POP SWAP4 SWAP3 POP POP POP JUMP JUMPDEST PUSH1 0x60 CALLER PUSH1 0x1 PUSH1 0x1 PUSH1 0xA0 SHL SUB AND PUSH4 0x6FDDE03 PUSH1 0x40 MLOAD DUP2 PUSH4 0xFFFFFFFF AND PUSH1 0xE0 SHL DUP2 MSTORE PUSH1 0x4 ADD PUSH1 0x0 PUSH1 0x40 MLOAD DUP1 DUP4 SUB DUP2 DUP7 GAS STATICCALL ISZERO DUP1 ISZERO PUSH2 0x59B JUMPI RETURNDATASIZE PUSH1 0x0 DUP1 RETURNDATACOPY RETURNDATASIZE PUSH1 0x0 REVERT JUMPDEST POP POP POP POP PUSH1 0x40 MLOAD RETURNDATASIZE PUSH1 0x0 DUP3 RETURNDATACOPY PUSH1 0x1F RETURNDATASIZE SWAP1 DUP2 ADD PUSH1 0x1F NOT AND DUP3 ADD PUSH1 0x40 MSTORE PUSH2 0x5C3 SWAP2 SWAP1 DUP2 ADD SWAP1 PUSH2 0x86B JUMP JUMPDEST PUSH2 0x5CC DUP4 PUSH2 0x4C8 JUMP JUMPDEST PUSH1 0x40 MLOAD PUSH1 0x20 ADD PUSH2 0x106 SWAP3 SWAP2 SWAP1 PUSH2 0xBB6 JUMP JUMPDEST PUSH1 0x0 DUP1 PUSH19 0x184F03E93FF9F4DAA797ED6E38ED64BF6A1F01 PUSH1 0x40 SHL DUP4 LT PUSH2 0x61C JUMPI PUSH19 0x184F03E93FF9F4DAA797ED6E38ED64BF6A1F01 PUSH1 0x40 SHL DUP4 DIV SWAP3 POP PUSH1 0x40 ADD JUMPDEST PUSH14 0x4EE2D6D415B85ACEF8100000000 DUP4 LT PUSH2 0x648 JUMPI PUSH14 0x4EE2D6D415B85ACEF8100000000 DUP4 DIV SWAP3 POP PUSH1 0x20 ADD JUMPDEST PUSH7 0x2386F26FC10000 DUP4 LT PUSH2 0x666 JUMPI PUSH7 0x2386F26FC10000 DUP4 DIV SWAP3 POP PUSH1 0x10 ADD JUMPDEST PUSH4 0x5F5E100 DUP4 LT PUSH2 0x67E JUMPI PUSH4 0x5F5E100 DUP4 DIV SWAP3 POP PUSH1 0x8 ADD JUMPDEST PUSH2 0x2710 DUP4 LT PUSH2 0x692 JUMPI PUSH2 0x2710 DUP4 DIV SWAP3 POP PUSH1 0x4 ADD JUMPDEST PUSH1 0x64 DUP4 LT PUSH2 0x6A4 JUMPI PUSH1 0x64 DUP4 DIV SWAP3 POP PUSH1 0x2 ADD JUMPDEST PUSH1 0xA DUP4 LT PUSH2 0x6B0 JUMPI PUSH1 0x1 ADD JUMPDEST SWAP3 SWAP2 POP POP JUMP JUMPDEST PUSH1 0x0 PUSH1 0x20 DUP3 DUP5 SUB SLT ISZERO PUSH2 0x6C8 JUMPI PUSH1 0x0 DUP1 REVERT JUMPDEST POP CALLDATALOAD SWAP2 SWAP1 POP JUMP JUMPDEST PUSH1 0x0 JUMPDEST DUP4 DUP2 LT ISZERO PUSH2 0x6EA JUMPI DUP2 DUP2 ADD MLOAD DUP4 DUP3 ADD MSTORE PUSH1 0x20 ADD PUSH2 0x6D2 JUMP JUMPDEST POP POP PUSH1 0x0 SWAP2 ADD MSTORE JUMP JUMPDEST PUSH1 0x20 DUP2 MSTORE PUSH1 0x0 DUP3 MLOAD DUP1 PUSH1 0x20 DUP5 ADD MSTORE PUSH2 0x712 DUP2 PUSH1 0x40 DUP6 ADD PUSH1 0x20 DUP8 ADD PUSH2 0x6CF JUMP JUMPDEST PUSH1 0x1F ADD PUSH1 0x1F NOT AND SWAP2 SWAP1 SWAP2 ADD PUSH1 0x40 ADD SWAP3 SWAP2 POP POP JUMP JUMPDEST PUSH1 0x0 DUP2 MLOAD PUSH2 0x738 DUP2 DUP6 PUSH1 0x20 DUP7 ADD PUSH2 0x6CF JUMP JUMPDEST SWAP3 SWAP1 SWAP3 ADD SWAP3 SWAP2 POP POP JUMP JUMPDEST PUSH9 0x3D913730B6B2911D11 PUSH1 0xB9 SHL DUP2 MSTORE DUP5 MLOAD PUSH1 0x0 SWAP1 PUSH2 0x767 DUP2 PUSH1 0x9 DUP6 ADD PUSH1 0x20 DUP11 ADD PUSH2 0x6CF JUMP JUMPDEST PUSH17 0x1116113232B9B1B934B83A34B7B7111D11 PUSH1 0x79 SHL PUSH1 0x9 SWAP2 DUP5 ADD SWAP2 DUP3 ADD MSTORE DUP6 MLOAD PUSH2 0x798 DUP2 PUSH1 0x1A DUP5 ADD PUSH1 0x20 DUP11 ADD PUSH2 0x6CF JUMP JUMPDEST PUSH11 0x11161134B6B0B3B2911D11 PUSH1 0xA9 SHL PUSH1 0x1A SWAP3 SWAP1 SWAP2 ADD SWAP2 DUP3 ADD MSTORE DUP5 MLOAD PUSH2 0x7C4 DUP2 PUSH1 0x25 DUP5 ADD PUSH1 0x20 DUP10 ADD PUSH2 0x6CF JUMP JUMPDEST PUSH15 0x111611383937B832B93A34B2B9911D PUSH1 0x89 SHL PUSH1 0x25 SWAP3 SWAP1 SWAP2 ADD SWAP2 DUP3 ADD MSTORE DUP4 MLOAD PUSH2 0x7F4 DUP2 PUSH1 0x34 DUP5 ADD PUSH1 0x20 DUP9 ADD PUSH2 0x6CF JUMP JUMPDEST PUSH1 0x7D PUSH1 0xF8 SHL PUSH1 0x34 SWAP3 SWAP1 SWAP2 ADD SWAP2 DUP3 ADD MSTORE PUSH1 0x35 ADD SWAP7 SWAP6 POP POP POP POP POP POP JUMP JUMPDEST PUSH32 0x646174613A6170706C69636174696F6E2F6A736F6E3B6261736536342C000000 DUP2 MSTORE PUSH1 0x0 DUP3 MLOAD PUSH2 0x848 DUP2 PUSH1 0x1D DUP6 ADD PUSH1 0x20 DUP8 ADD PUSH2 0x6CF JUMP JUMPDEST SWAP2 SWAP1 SWAP2 ADD PUSH1 0x1D ADD SWAP3 SWAP2 POP POP JUMP JUMPDEST PUSH4 0x4E487B71 PUSH1 0xE0 SHL PUSH1 0x0 MSTORE PUSH1 0x41 PUSH1 0x4 MSTORE PUSH1 0x24 PUSH1 0x0 REVERT JUMPDEST PUSH1 0x0 PUSH1 0x20 DUP3 DUP5 SUB SLT ISZERO PUSH2 0x87D JUMPI PUSH1 0x0 DUP1 REVERT JUMPDEST DUP2 MLOAD PUSH8 0xFFFFFFFFFFFFFFFF DUP1 DUP3 GT ISZERO PUSH2 0x895 JUMPI PUSH1 0x0 DUP1 REVERT JUMPDEST DUP2 DUP5 ADD SWAP2 POP DUP5 PUSH1 0x1F DUP4 ADD SLT PUSH2 0x8A9 JUMPI PUSH1 0x0 DUP1 REVERT JUMPDEST DUP2 MLOAD DUP2 DUP2 GT ISZERO PUSH2 0x8BB JUMPI PUSH2 0x8BB PUSH2 0x855 JUMP JUMPDEST PUSH1 0x40 MLOAD PUSH1 0x1F DUP3 ADD PUSH1 0x1F NOT SWAP1 DUP2 AND PUSH1 0x3F ADD AND DUP2 ADD SWAP1 DUP4 DUP3 GT DUP2 DUP4 LT OR ISZERO PUSH2 0x8E3 JUMPI PUSH2 0x8E3 PUSH2 0x855 JUMP JUMPDEST DUP2 PUSH1 0x40 MSTORE DUP3 DUP2 MSTORE DUP8 PUSH1 0x20 DUP5 DUP8 ADD ADD GT ISZERO PUSH2 0x8FC JUMPI PUSH1 0x0 DUP1 REVERT JUMPDEST PUSH2 0x90D DUP4 PUSH1 0x20 DUP4 ADD PUSH1 0x20 DUP9 ADD PUSH2 0x6CF JUMP JUMPDEST SWAP8 SWAP7 POP POP POP POP POP POP POP JUMP JUMPDEST PUSH1 0x0 PUSH1 0x20 DUP3 DUP5 SUB SLT ISZERO PUSH2 0x92A JUMPI PUSH1 0x0 DUP1 REVERT JUMPDEST DUP2 MLOAD PUSH1 0xFF DUP2 AND DUP2 EQ PUSH2 0x93B JUMPI PUSH1 0x0 DUP1 REVERT JUMPDEST SWAP4 SWAP3 POP POP POP JUMP JUMPDEST PUSH9 0x3D913730B6B2911D11 PUSH1 0xB9 SHL DUP2 MSTORE DUP5 MLOAD PUSH1 0x0 SWAP1 PUSH2 0x967 DUP2 PUSH1 0x9 DUP6 ADD PUSH1 0x20 DUP11 ADD PUSH2 0x6CF JUMP JUMPDEST PUSH17 0x1116113232B9B1B934B83A34B7B7111D11 PUSH1 0x79 SHL PUSH1 0x9 SWAP2 DUP5 ADD SWAP2 DUP3 ADD MSTORE DUP6 MLOAD PUSH2 0x998 DUP2 PUSH1 0x1A DUP5 ADD PUSH1 0x20 DUP11 ADD PUSH2 0x6CF JUMP JUMPDEST PUSH11 0x11161134B6B0B3B2911D11 PUSH1 0xA9 SHL PUSH1 0x1A SWAP3 SWAP1 SWAP2 ADD SWAP2 DUP3 ADD MSTORE DUP5 MLOAD PUSH2 0x9C4 DUP2 PUSH1 0x25 DUP5 ADD PUSH1 0x20 DUP10 ADD PUSH2 0x6CF JUMP JUMPDEST PUSH19 0x1116113B30B63AB2A232B1B4B6B0B639911D11 PUSH1 0x69 SHL PUSH1 0x25 SWAP3 SWAP1 SWAP2 ADD SWAP2 DUP3 ADD MSTORE DUP4 MLOAD PUSH2 0x9F8 DUP2 PUSH1 0x38 DUP5 ADD PUSH1 0x20 DUP9 ADD PUSH2 0x6CF JUMP JUMPDEST PUSH2 0x227D PUSH1 0xF0 SHL PUSH1 0x38 SWAP3 SWAP1 SWAP2 ADD SWAP2 DUP3 ADD MSTORE PUSH1 0x3A ADD SWAP7 SWAP6 POP POP POP POP POP POP JUMP JUMPDEST PUSH1 0x0 PUSH1 0x20 DUP3 DUP5 SUB SLT ISZERO PUSH2 0xA27 JUMPI PUSH1 0x0 DUP1 REVERT JUMPDEST POP MLOAD SWAP2 SWAP1 POP JUMP JUMPDEST PUSH9 0x3D913730B6B2911D11 PUSH1 0xB9 SHL DUP2 MSTORE DUP7 MLOAD PUSH1 0x0 SWAP1 PUSH2 0xA53 DUP2 PUSH1 0x9 DUP6 ADD PUSH1 0x20 DUP13 ADD PUSH2 0x6CF JUMP JUMPDEST PUSH17 0x1116113232B9B1B934B83A34B7B7111D11 PUSH1 0x79 SHL PUSH1 0x9 SWAP2 DUP5 ADD SWAP2 DUP3 ADD MSTORE DUP8 MLOAD PUSH2 0xA84 DUP2 PUSH1 0x1A DUP5 ADD PUSH1 0x20 DUP13 ADD PUSH2 0x6CF JUMP JUMPDEST PUSH11 0x11161134B6B0B3B2911D11 PUSH1 0xA9 SHL PUSH1 0x1A SWAP3 SWAP1 SWAP2 ADD SWAP2 DUP3 ADD MSTORE DUP7 MLOAD PUSH2 0xAB0 DUP2 PUSH1 0x25 DUP5 ADD PUSH1 0x20 DUP12 ADD PUSH2 0x6CF JUMP JUMPDEST PUSH13 0x1116113130B630B731B2911D11 PUSH1 0x99 SHL PUSH1 0x25 SWAP3 SWAP1 SWAP2 ADD SWAP2 DUP3 ADD MSTORE DUP6 MLOAD PUSH2 0xADE DUP2 PUSH1 0x32 DUP5 ADD PUSH1 0x20 DUP11 ADD PUSH2 0x6CF JUMP JUMPDEST PUSH10 0x11161139B637BA111D11 PUSH1 0xB1 SHL PUSH1 0x32 SWAP3 SWAP1 SWAP2 ADD SWAP2 DUP3 ADD MSTORE DUP5 MLOAD PUSH2 0xB09 DUP2 PUSH1 0x3C DUP5 ADD PUSH1 0x20 DUP10 ADD PUSH2 0x6CF JUMP JUMPDEST PUSH2 0xB46 PUSH2 0xB39 PUSH2 0xB33 PUSH1 0x3C DUP5 DUP7 ADD ADD PUSH15 0x111611383937B832B93A34B2B9911D PUSH1 0x89 SHL DUP2 MSTORE PUSH1 0xF ADD SWAP1 JUMP JUMPDEST DUP8 PUSH2 0x726 JUMP JUMPDEST PUSH1 0x7D PUSH1 0xF8 SHL DUP2 MSTORE PUSH1 0x1 ADD SWAP1 JUMP JUMPDEST SWAP11 SWAP10 POP POP POP POP POP POP POP POP POP POP JUMP JUMPDEST PUSH4 0x4E487B71 PUSH1 0xE0 SHL PUSH1 0x0 MSTORE PUSH1 0x11 PUSH1 0x4 MSTORE PUSH1 0x24 PUSH1 0x0 REVERT JUMPDEST DUP1 DUP3 ADD DUP1 DUP3 GT ISZERO PUSH2 0x6B0 JUMPI PUSH2 0x6B0 PUSH2 0xB54 JUMP JUMPDEST PUSH1 0x0 DUP3 PUSH2 0xB9A JUMPI PUSH4 0x4E487B71 PUSH1 0xE0 SHL PUSH1 0x0 MSTORE PUSH1 0x12 PUSH1 0x4 MSTORE PUSH1 0x24 PUSH1 0x0 REVERT JUMPDEST POP DIV SWAP1 JUMP JUMPDEST DUP1 DUP3 MUL DUP2 ISZERO DUP3 DUP3 DIV DUP5 EQ OR PUSH2 0x6B0 JUMPI PUSH2 0x6B0 PUSH2 0xB54 JUMP JUMPDEST PUSH1 0x0 DUP4 MLOAD PUSH2 0xBC8 DUP2 DUP5 PUSH1 0x20 DUP9 ADD PUSH2 0x6CF JUMP JUMPDEST PUSH2 0x2023 PUSH1 0xF0 SHL SWAP1 DUP4 ADD SWAP1 DUP2 MSTORE DUP4 MLOAD PUSH2 0xBE7 DUP2 PUSH1 0x2 DUP5 ADD PUSH1 0x20 DUP9 ADD PUSH2 0x6CF JUMP JUMPDEST ADD PUSH1 0x2 ADD SWAP5 SWAP4 POP POP POP POP JUMP INVALID COINBASE TIMESTAMP NUMBER DIFFICULTY GASLIMIT CHAINID SELFBALANCE BASEFEE 0x49 0x4A 0x4B 0x4C 0x4D 0x4E 0x4F POP MLOAD MSTORE MSTORE8 SLOAD SSTORE JUMP JUMPI PC MSIZE GAS PUSH2 0x6263 PUSH5 0x6566676869 PUSH11 0x6B6C6D6E6F707172737475 PUSH23 0x7778797A303132333435363738392B2FA2646970667358 0x22 SLT KECCAK256 0x4D 0xA7 PUSH17 0xD7D62E9187FD57F343AAB46BD1311F5C24 0xE0 GT 0x1E MULMOD 0xBC 0xC7 PUSH32 0x7FA211341464736F6C6343000811003300000000000000000000000000000000 "},"methodIdentifiers":{"constructContractURI()":"725fa09c","constructSlotURI(uint256)":"6c037f8a","constructTokenURI(uint256)":"894b4c2e"}}}}}