{"contracts/Service.sol":{"Service":{"abi":[{"inputs":[{"internalType":"address","name":"serviceAddress_","type":"address"},{"internalType":"address","name":"slotRegistry_","type":"address"},{"internalType":"string","name":"name_","type":"string"},{"internalType":"string","name":"symbol_","type":"string"},{"internalType":"string","name":"baseuri_","type":"string"},{"internalType":"string","name":"contractDescription_","type":"string"},{"internalType":"string","name":"contractImage_","type":"string"},{"internalType":"address","name":"valueTokenContractAddress_","type":"address"},{"internalType":"uint8","name":"decimals_","type":"uint8"}],"stateMutability":"nonpayable","type":"constructor"},{"anonymous":false,"inputs":[{"indexed":true,"internalType":"address","name":"_owner","type":"address"},{"indexed":true,"internalType":"address","name":"_approved","type":"address"},{"indexed":true,"internalType":"uint256","name":"_tokenId","type":"uint256"}],"name":"Approval","type":"event"},{"anonymous":false,"inputs":[{"indexed":true,"internalType":"address","name":"_owner","type":"address"},{"indexed":true,"internalType":"address","name":"_operator","type":"address"},{"indexed":false,"internalType":"bool","name":"_approved","type":"bool"}],"name":"ApprovalForAll","type":"event"},{"anonymous":false,"inputs":[{"indexed":true,"internalType":"uint256","name":"_tokenId","type":"uint256"},{"indexed":true,"internalType":"address","name":"_operator","type":"address"},{"indexed":false,"internalType":"uint256","name":"_value","type":"uint256"}],"name":"ApprovalValue","type":"event"},{"anonymous":false,"inputs":[{"indexed":false,"internalType":"address","name":"contractAddress","type":"address"}],"name":"MetadataDescriptor","type":"event"},{"anonymous":false,"inputs":[{"indexed":false,"internalType":"uint256","name":"tokenId","type":"uint256"},{"indexed":false,"internalType":"uint256","name":"slot","type":"uint256"},{"indexed":false,"internalType":"uint256","name":"value","type":"uint256"}],"name":"MintServiceToken","type":"event"},{"anonymous":false,"inputs":[{"indexed":true,"internalType":"address","name":"previousOwner","type":"address"},{"indexed":true,"internalType":"address","name":"newOwner","type":"address"}],"name":"OwnershipTransferred","type":"event"},{"anonymous":false,"inputs":[{"indexed":true,"internalType":"address","name":"metadataDescriptor","type":"address"}],"name":"SetMetadataDescriptor","type":"event"},{"anonymous":false,"inputs":[{"indexed":true,"internalType":"uint256","name":"_tokenId","type":"uint256"},{"indexed":true,"internalType":"uint256","name":"_oldSlot","type":"uint256"},{"indexed":true,"internalType":"uint256","name":"_newSlot","type":"uint256"}],"name":"SlotChanged","type":"event"},{"anonymous":false,"inputs":[{"indexed":true,"internalType":"address","name":"_from","type":"address"},{"indexed":true,"internalType":"address","name":"_to","type":"address"},{"indexed":true,"internalType":"uint256","name":"_tokenId","type":"uint256"}],"name":"Transfer","type":"event"},{"anonymous":false,"inputs":[{"indexed":true,"internalType":"uint256","name":"_fromTokenId","type":"uint256"},{"indexed":true,"internalType":"uint256","name":"_toTokenId","type":"uint256"},{"indexed":false,"internalType":"uint256","name":"_value","type":"uint256"}],"name":"TransferValue","type":"event"},{"inputs":[{"internalType":"string","name":"uri_","type":"string"}],"name":"_setBaseURI","outputs":[{"internalType":"string","name":"","type":"string"}],"stateMutability":"nonpayable","type":"function"},{"inputs":[{"internalType":"uint256","name":"tokenId_","type":"uint256"},{"internalType":"address","name":"operator_","type":"address"}],"name":"allowance","outputs":[{"internalType":"uint256","name":"","type":"uint256"}],"stateMutability":"view","type":"function"},{"inputs":[{"internalType":"address","name":"to_","type":"address"},{"internalType":"uint256","name":"tokenId_","type":"uint256"}],"name":"approve","outputs":[],"stateMutability":"payable","type":"function"},{"inputs":[{"internalType":"uint256","name":"tokenId_","type":"uint256"},{"internalType":"address","name":"to_","type":"address"},{"internalType":"uint256","name":"value_","type":"uint256"}],"name":"approve","outputs":[],"stateMutability":"payable","type":"function"},{"inputs":[{"internalType":"address","name":"owner_","type":"address"}],"name":"balanceOf","outputs":[{"internalType":"uint256","name":"balance","type":"uint256"}],"stateMutability":"view","type":"function"},{"inputs":[{"internalType":"uint256","name":"tokenId_","type":"uint256"}],"name":"balanceOf","outputs":[{"internalType":"uint256","name":"","type":"uint256"}],"stateMutability":"view","type":"function"},{"inputs":[],"name":"contractURI","outputs":[{"internalType":"string","name":"","type":"string"}],"stateMutability":"view","type":"function"},{"inputs":[{"internalType":"uint256","name":"tokenId_","type":"uint256"}],"name":"getApproved","outputs":[{"internalType":"address","name":"","type":"address"}],"stateMutability":"view","type":"function"},{"inputs":[{"internalType":"address","name":"owner_","type":"address"},{"internalType":"address","name":"operator_","type":"address"}],"name":"isApprovedForAll","outputs":[{"internalType":"bool","name":"","type":"bool"}],"stateMutability":"view","type":"function"},{"inputs":[],"name":"metadataDescriptor","outputs":[{"internalType":"contract IERC3525MetadataDescriptor","name":"","type":"address"}],"stateMutability":"view","type":"function"},{"inputs":[{"internalType":"address","name":"owner_","type":"address"},{"internalType":"uint256","name":"slot_","type":"uint256"},{"internalType":"uint256","name":"value_","type":"uint256"},{"internalType":"string","name":"uuid_","type":"string"},{"internalType":"string","name":"token_description_","type":"string"},{"internalType":"string","name":"token_image_","type":"string"}],"name":"mint","outputs":[{"internalType":"uint256","name":"","type":"uint256"}],"stateMutability":"nonpayable","type":"function"},{"inputs":[],"name":"name","outputs":[{"internalType":"string","name":"","type":"string"}],"stateMutability":"view","type":"function"},{"inputs":[],"name":"owner","outputs":[{"internalType":"address","name":"","type":"address"}],"stateMutability":"view","type":"function"},{"inputs":[{"internalType":"uint256","name":"tokenId_","type":"uint256"}],"name":"ownerOf","outputs":[{"internalType":"address","name":"owner_","type":"address"}],"stateMutability":"view","type":"function"},{"inputs":[],"name":"renounceOwnership","outputs":[],"stateMutability":"nonpayable","type":"function"},{"inputs":[{"internalType":"address","name":"from_","type":"address"},{"internalType":"address","name":"to_","type":"address"},{"internalType":"uint256","name":"tokenId_","type":"uint256"}],"name":"safeTransferFrom","outputs":[],"stateMutability":"payable","type":"function"},{"inputs":[{"internalType":"address","name":"from_","type":"address"},{"internalType":"address","name":"to_","type":"address"},{"internalType":"uint256","name":"tokenId_","type":"uint256"},{"internalType":"bytes","name":"data_","type":"bytes"}],"name":"safeTransferFrom","outputs":[],"stateMutability":"payable","type":"function"},{"inputs":[{"internalType":"address","name":"operator_","type":"address"},{"internalType":"bool","name":"approved_","type":"bool"}],"name":"setApprovalForAll","outputs":[],"stateMutability":"nonpayable","type":"function"},{"inputs":[{"internalType":"uint256","name":"tokenId_","type":"uint256"}],"name":"slotOf","outputs":[{"internalType":"uint256","name":"","type":"uint256"}],"stateMutability":"view","type":"function"},{"inputs":[{"internalType":"uint256","name":"slot_","type":"uint256"}],"name":"slotURI","outputs":[{"internalType":"string","name":"","type":"string"}],"stateMutability":"view","type":"function"},{"inputs":[{"internalType":"bytes4","name":"interfaceId","type":"bytes4"}],"name":"supportsInterface","outputs":[{"internalType":"bool","name":"","type":"bool"}],"stateMutability":"view","type":"function"},{"inputs":[],"name":"symbol","outputs":[{"internalType":"string","name":"","type":"string"}],"stateMutability":"view","type":"function"},{"inputs":[{"internalType":"uint256","name":"index_","type":"uint256"}],"name":"tokenByIndex","outputs":[{"internalType":"uint256","name":"","type":"uint256"}],"stateMutability":"view","type":"function"},{"inputs":[{"internalType":"address","name":"owner_","type":"address"},{"internalType":"uint256","name":"index_","type":"uint256"}],"name":"tokenOfOwnerByIndex","outputs":[{"internalType":"uint256","name":"","type":"uint256"}],"stateMutability":"view","type":"function"},{"inputs":[{"internalType":"address","name":"from_","type":"address"},{"internalType":"address","name":"to_","type":"address"},{"internalType":"uint256","name":"tokenId_","type":"uint256"}],"name":"tokenTransfer","outputs":[],"stateMutability":"payable","type":"function"},{"inputs":[{"internalType":"uint256","name":"tokenId_","type":"uint256"}],"name":"tokenURI","outputs":[{"internalType":"string","name":"","type":"string"}],"stateMutability":"view","type":"function"},{"inputs":[],"name":"totalSupply","outputs":[{"internalType":"uint256","name":"","type":"uint256"}],"stateMutability":"view","type":"function"},{"inputs":[{"internalType":"uint256","name":"fromTokenId_","type":"uint256"},{"internalType":"address","name":"to_","type":"address"},{"internalType":"uint256","name":"value_","type":"uint256"}],"name":"transferFrom","outputs":[{"internalType":"uint256","name":"","type":"uint256"}],"stateMutability":"payable","type":"function"},{"inputs":[{"internalType":"address","name":"from_","type":"address"},{"internalType":"address","name":"to_","type":"address"},{"internalType":"uint256","name":"tokenId_","type":"uint256"}],"name":"transferFrom","outputs":[],"stateMutability":"payable","type":"function"},{"inputs":[{"internalType":"uint256","name":"fromTokenId_","type":"uint256"},{"internalType":"uint256","name":"toTokenId_","type":"uint256"},{"internalType":"uint256","name":"value_","type":"uint256"}],"name":"transferFrom","outputs":[],"stateMutability":"payable","type":"function"},{"inputs":[{"internalType":"address","name":"newOwner","type":"address"}],"name":"transferOwnership","outputs":[],"stateMutability":"nonpayable","type":"function"},{"inputs":[],"name":"valueDecimals","outputs":[{"internalType":"uint8","name":"","type":"uint8"}],"stateMutability":"view","type":"function"}],"evm":{"bytecode":{"linkReferences":{},"object":"60806040523480156200001157600080fd5b506040516200562038038062005620833981016040819052620000349162000334565b8686826000620000458482620004f0565b506001620000548382620004f0565b506002805460ff191660ff92909216919091179055506200007e9050620000783390565b620001d8565b6040805180820190915260048152635553444360e01b6020820152600a80546001600160a01b0319166001600160a01b038c16179055600b620000c28782620004f0565b50600b85858b604051620000d6906200022a565b620000e59493929190620005ea565b604051809103906000f08015801562000102573d6000803e3d6000fd5b50600880546001600160a01b0319166001600160a01b03929092169190911790556040805180820190915260048152635553444360e01b6020918201528151908201207f29535e4168d63ec2988ccae9ecde9b63335195a6eaab88dae98ff067906bd156016200018857600c80546001600160a01b0319166001600160a01b0385161790555b6008546040516001600160a01b0390911681527f9ac4f8025631594629895b778dc5ee88d01673a254a2291f6b6b174ad25230ca9060200160405180910390a150505050505050505050620006c2565b600980546001600160a01b038381166001600160a01b0319831681179093556040519116919082907f8be0079c531659141344cd1fd0a4f28419497f9722a3daafe3b4186f6b6457e090600090a35050565b611a468062003bda83390190565b80516001600160a01b03811681146200025057600080fd5b919050565b634e487b7160e01b600052604160045260246000fd5b60005b83811015620002885781810151838201526020016200026e565b50506000910152565b600082601f830112620002a357600080fd5b81516001600160401b0380821115620002c057620002c062000255565b604051601f8301601f19908116603f01168101908282118183101715620002eb57620002eb62000255565b816040528381528660208588010111156200030557600080fd5b620003188460208301602089016200026b565b9695505050505050565b805160ff811681146200025057600080fd5b60008060008060008060008060006101208a8c0312156200035457600080fd5b6200035f8a62000238565b98506200036f60208b0162000238565b60408b01519098506001600160401b03808211156200038d57600080fd5b6200039b8d838e0162000291565b985060608c0151915080821115620003b257600080fd5b620003c08d838e0162000291565b975060808c0151915080821115620003d757600080fd5b620003e58d838e0162000291565b965060a08c0151915080821115620003fc57600080fd5b6200040a8d838e0162000291565b955060c08c01519150808211156200042157600080fd5b50620004308c828d0162000291565b9350506200044160e08b0162000238565b9150620004526101008b0162000322565b90509295985092959850929598565b600181811c908216806200047657607f821691505b6020821081036200049757634e487b7160e01b600052602260045260246000fd5b50919050565b601f821115620004eb57600081815260208120601f850160051c81016020861015620004c65750805b601f850160051c820191505b81811015620004e757828155600101620004d2565b5050505b505050565b81516001600160401b038111156200050c576200050c62000255565b62000524816200051d845462000461565b846200049d565b602080601f8311600181146200055c5760008415620005435750858301515b600019600386901b1c1916600185901b178555620004e7565b600085815260208120601f198616915b828110156200058d578886015182559484019460019091019084016200056c565b5085821015620005ac5787850151600019600388901b60f8161c191681555b5050505050600190811b01905550565b60008151808452620005d68160208601602086016200026b565b601f01601f19169290920160200192915050565b608081526000808654620005fe8162000461565b80608086015260a06001808416600081146200062357600181146200063e5762000671565b60ff1985168884015283151560051b88018301955062000671565b8b60005260208060002060005b86811015620006685781548b82018701529084019082016200064b565b8a018501975050505b505050505082810360208401526200068a8187620005bc565b90508281036040840152620006a08186620005bc565b915050620006b960608301846001600160a01b03169052565b95945050505050565b61350880620006d26000396000f3fe6080604052600436106101e35760003560e01c80634f6ccce7116101025780639cc7f70811610095578063e345e0bc11610064578063e345e0bc1461051e578063e8a3d4851461053e578063e985e9c514610553578063f2fde38b146105a057600080fd5b80639cc7f708146104ab578063a22cb465146104cb578063b88d4fde146104eb578063c87b56dd146104fe57600080fd5b8063840f7113116100d1578063840f7113146104455780638cb0a511146104655780638da5cb5b1461047857806395d89b411461049657600080fd5b80634f6ccce7146103d05780636352211e146103f057806370a0823114610410578063715018a61461043057600080fd5b806323b872dd1161017a57806331b5b9071161014957806331b5b9071461035b5780633e7e86691461037b57806342842e0e1461039d578063476de4a8146103b057600080fd5b806323b872dd146102f5578063263f3e7e146103085780632f745c5914610328578063310ed7f01461034857600080fd5b806309c3dd87116101b657806309c3dd871461028c5780630f485c02146102ac57806315eaef6b146102cd57806318160ddd146102e057600080fd5b806301ffc9a7146101e857806306fdde031461021d578063081812fc1461023f578063095ea7b314610277575b600080fd5b3480156101f457600080fd5b50610208610203366004612c17565b6105c0565b60405190151581526020015b60405180910390f35b34801561022957600080fd5b50610232610663565b6040516102149190612c84565b34801561024b57600080fd5b5061025f61025a366004612c97565b6106f5565b6040516001600160a01b039091168152602001610214565b61028a610285366004612cc7565b610747565b005b34801561029857600080fd5b506102326102a7366004612c97565b61082b565b6102bf6102ba366004612cf1565b610910565b604051908152602001610214565b61028a6102db366004612d26565b61094e565b3480156102ec57600080fd5b506005546102bf565b61028a610303366004612d26565b610980565b34801561031457600080fd5b506102bf610323366004612c97565b61098b565b34801561033457600080fd5b506102bf610343366004612cc7565b6109d3565b61028a610356366004612d52565b610a74565b34801561036757600080fd5b50610232610376366004612e4b565b610a7f565b34801561038757600080fd5b5060025460405160ff9091168152602001610214565b61028a6103ab366004612d26565b610a93565b3480156103bc57600080fd5b506102bf6103cb366004612e80565b610aae565b3480156103dc57600080fd5b506102bf6103eb366004612c97565b610d05565b3480156103fc57600080fd5b5061025f61040b366004612c97565b610d96565b34801561041c57600080fd5b506102bf61042b366004612f2b565b610e32565b34801561043c57600080fd5b5061028a610eba565b34801561045157600080fd5b5060085461025f906001600160a01b031681565b61028a610473366004612cf1565b610ece565b34801561048457600080fd5b506009546001600160a01b031661025f565b3480156104a257600080fd5b50610232610f8d565b3480156104b757600080fd5b506102bf6104c6366004612c97565b610f9c565b3480156104d757600080fd5b5061028a6104e6366004612f54565b610fe4565b61028a6104f9366004612f8b565b61102a565b34801561050a57600080fd5b50610232610519366004612c97565b61105c565b34801561052a57600080fd5b506102bf610539366004613007565b6110ee565b34801561054a57600080fd5b50610232611122565b34801561055f57600080fd5b5061020861056e366004613033565b6001600160a01b0391821660009081526007602090815260408083209390941682526002909201909152205460ff1690565b3480156105ac57600080fd5b5061028a6105bb366004612f2b565b61120f565b60006001600160e01b031982166301ffc9a760e01b14806105f157506001600160e01b03198216630354d60560e61b145b8061060c57506001600160e01b031982166380ac58cd60e01b145b8061062757506001600160e01b031982166370b0048160e11b145b8061064257506001600160e01b0319821663780e9d6360e01b145b8061065d57506001600160e01b03198216635b5e139f60e01b145b92915050565b6060600080546106729061305d565b80601f016020809104026020016040519081016040528092919081815260200182805461069e9061305d565b80156106eb5780601f106106c0576101008083540402835291602001916106eb565b820191906000526020600020905b8154815290600101906020018083116106ce57829003601f168201915b5050505050905090565b600061070082611288565b60008281526006602052604090205460058054909190811061072457610724613091565b60009182526020909120600460069092020101546001600160a01b031692915050565b600061075282610d96565b9050806001600160a01b0316836001600160a01b03160361078e5760405162461bcd60e51b8152600401610785906130a7565b60405180910390fd5b336001600160a01b03821614806107aa57506107aa813361056e565b61081c5760405162461bcd60e51b815260206004820152603960248201527f455243333532353a20617070726f76652063616c6c6572206973206e6f74206f60448201527f776e6572206e6f7220617070726f76656420666f7220616c6c000000000000006064820152608401610785565b61082683836112d9565b505050565b60606000610837611370565b6008549091506001600160a01b03166108975760008151116108685760405180602001604052806000815250610909565b806108728461137f565b6040516020016108839291906130e9565b604051602081830303815290604052610909565b600854604051633601bfc560e11b8152600481018590526001600160a01b0390911690636c037f8a906024015b600060405180830381865afa1580156108e1573d6000803e3d6000fd5b505050506040513d6000823e601f3d908101601f191682016040526109099190810190613129565b9392505050565b600061091d848484611412565b506000848152600e6020526040812054600d8054909190811061094257610942613091565b50600052509392505050565b610959335b8261144a565b6109755760405162461bcd60e51b8152600401610785906131a0565b610826838383610a93565b6108268383836114cd565b600061099682611288565b6000828152600660205260409020546005805490919081106109ba576109ba613091565b9060005260206000209060060201600101549050919050565b60006109de83610e32565b8210610a375760405162461bcd60e51b815260206004820152602260248201527f455243333532353a206f776e657220696e646578206f7574206f6620626f756e604482015261647360f01b6064820152608401610785565b6001600160a01b0383166000908152600760205260409020805483908110610a6157610a61613091565b9060005260206000200154905092915050565b6108268383836114fd565b6060600b610a8d8382613238565b50919050565b6108268383836040518060200160405280600081525061102a565b6000610ab8611513565b6000610ac261156d565b600c546040516394bf804d60e01b8152600481018990523060248201529192506001600160a01b0316906394bf804d90604401600060405180830381600087803b158015610b0f57600080fd5b505af1158015610b23573d6000803e3d6000fd5b50505050610b3388828989611584565b6040805160c08101825282815260208082018a90528183018990526001600160a01b038b166060830152600060808301819052835181815291820190935260a08201529050610b81816116ae565b610b8b8983611800565b600854604051632108947560e21b81526001600160a01b039091169063842251d490610bbd9085908a906004016132f8565b600060405180830381600087803b158015610bd757600080fd5b505af1158015610beb573d6000803e3d6000fd5b505060085460405163246a908b60e01b81526001600160a01b03909116925063246a908b9150610c2190859089906004016132f8565b600060405180830381600087803b158015610c3b57600080fd5b505af1158015610c4f573d6000803e3d6000fd5b5050600854604051630190503b60e61b81526001600160a01b0390911692506364140ec09150610c8590859088906004016132f8565b600060405180830381600087803b158015610c9f57600080fd5b505af1158015610cb3573d6000803e3d6000fd5b505060408051858152602081018c90529081018a90527f84eeb48eca46cea54afc9753345f6038981672ea565f32885420829dfd88aea69250606001905060405180910390a150979650505050505050565b6000610d1060055490565b8210610d6a5760405162461bcd60e51b815260206004820152602360248201527f455243333532353a20676c6f62616c20696e646578206f7574206f6620626f756044820152626e647360e81b6064820152608401610785565b60058281548110610d7d57610d7d613091565b9060005260206000209060060201600001549050919050565b6000610da182611288565b600082815260066020526040902054600580549091908110610dc557610dc5613091565b60009182526020909120600360069092020101546001600160a01b0316905080610e2d5760405162461bcd60e51b8152602060048201526019602482015278115490cccd4c8d4e881a5b9d985b1a59081d1bdad95b881251603a1b6044820152606401610785565b919050565b60006001600160a01b038216610e9e5760405162461bcd60e51b815260206004820152602b60248201527f455243333532353a2062616c616e636520717565727920666f7220746865207a60448201526a65726f206164647265737360a81b6064820152608401610785565b506001600160a01b031660009081526007602052604090205490565b610ec2611513565b610ecc6000611889565b565b6000610ed984610d96565b9050806001600160a01b0316836001600160a01b031603610f0c5760405162461bcd60e51b8152600401610785906130a7565b610f16338561144a565b610f7c5760405162461bcd60e51b815260206004820152603160248201527f455243333532353a20617070726f76652063616c6c6572206973206e6f74206f6044820152701ddb995c881b9bdc88185c1c1c9bdd9959607a1b6064820152608401610785565b610f878484846118db565b50505050565b6060600180546106729061305d565b6000610fa782611288565b600082815260066020526040902054600580549091908110610fcb57610fcb613091565b9060005260206000209060060201600201549050919050565b610fee8282611a13565b336000908152600f602090815260408083206001600160a01b039590951683526002909401905291909120805460ff1916911515919091179055565b611034338361144a565b6110505760405162461bcd60e51b8152600401610785906131a0565b610f8784848484611a22565b606061106782611288565b6000611071611370565b6008549091506001600160a01b03166110bd5760008151116110a25760405180602001604052806000815250610909565b806110ac8461137f565b604051602001610883929190613311565b6008546040516344a5a61760e11b8152600481018590526001600160a01b039091169063894b4c2e906024016108c4565b60006110f983611288565b5060009182526004602090815260408084206001600160a01b0393909316845291905290205490565b6060600061112e611370565b6008549091506001600160a01b031661118e57600081511161115f5760405180602001604052806000815250611209565b8061116930611a95565b60405160200161117a929190613340565b604051602081830303815290604052611209565b600860009054906101000a90046001600160a01b03166001600160a01b031663725fa09c6040518163ffffffff1660e01b8152600401600060405180830381865afa1580156111e1573d6000803e3d6000fd5b505050506040513d6000823e601f3d908101601f191682016040526112099190810190613129565b91505090565b611217611513565b6001600160a01b03811661127c5760405162461bcd60e51b815260206004820152602660248201527f4f776e61626c653a206e6577206f776e657220697320746865207a65726f206160448201526564647265737360d01b6064820152608401610785565b61128581611889565b50565b61129181611aab565b6112855760405162461bcd60e51b8152602060048201526019602482015278115490cccd4c8d4e881a5b9d985b1a59081d1bdad95b881251603a1b6044820152606401610785565b6000818152600660205260409020546005805484929081106112fd576112fd613091565b6000918252602090912060069091020160040180546001600160a01b0319166001600160a01b039283161790558190831661133782610d96565b6001600160a01b03167f8c5be1e5ebec7d5bd14f71427d1e84f3dd0314c0f7b2291e5b200ac8c7c3b92560405160405180910390a45050565b6060600b80546106729061305d565b6060600061138c83611af7565b600101905060008167ffffffffffffffff8111156113ac576113ac612d7e565b6040519080825280601f01601f1916602001820160405280156113d6576020820181803683370190505b5090508181016020015b600019016f181899199a1a9b1b9c1cb0b131b232b360811b600a86061a8153600a85049450846113e057509392505050565b600061141f338584611bcf565b61142884611c5f565b905061143f83826114388761098b565b6000611584565b610909848284611c69565b60008061145683610d96565b9050806001600160a01b0316846001600160a01b031614806114a157506001600160a01b038082166000908152600760209081526040808320938816835260029093019052205460ff165b806114c55750836001600160a01b03166114ba846106f5565b6001600160a01b0316145b949350505050565b6114d633610953565b6114f25760405162461bcd60e51b8152600401610785906131a0565b610826838383611f61565b611508338483611bcf565b610826838383611c69565b6009546001600160a01b03163314610ecc5760405162461bcd60e51b815260206004820181905260248201527f4f776e61626c653a2063616c6c6572206973206e6f7420746865206f776e65726044820152606401610785565b600061157d600380546001019055565b5060035490565b6001600160a01b0384166115e45760405162461bcd60e51b815260206004820152602160248201527f455243333532353a206d696e7420746f20746865207a65726f206164647265736044820152607360f81b6064820152608401610785565b8260000361163e5760405162461bcd60e51b815260206004820152602160248201527f455243333532353a2063616e6e6f74206d696e74207a65726f20746f6b656e496044820152601960fa1b6064820152608401610785565b61164783611aab565b156116945760405162461bcd60e51b815260206004820152601d60248201527f455243333532353a20746f6b656e20616c7265616479206d696e7465640000006044820152606401610785565b61169f8484846120ca565b6116a98382612190565b610f87565b600d805482516000908152600e6020908152604080832084905560018401855593909152835160069092027fd7b6990105719101dabeb77144f2a3385c8033acd3af97e9423a695e81ad1eb58101928355818501517fd7b6990105719101dabeb77144f2a3385c8033acd3af97e9423a695e81ad1eb6820155928401517fd7b6990105719101dabeb77144f2a3385c8033acd3af97e9423a695e81ad1eb784015560608401517fd7b6990105719101dabeb77144f2a3385c8033acd3af97e9423a695e81ad1eb8840180546001600160a01b039283166001600160a01b03199182161790915560808601517fd7b6990105719101dabeb77144f2a3385c8033acd3af97e9423a695e81ad1eb98601805491909316911617905560a084015180518594610f87937fd7b6990105719101dabeb77144f2a3385c8033acd3af97e9423a695e81ad1eba909101920190612b6d565b6000818152600e6020526040902054600d8054849290811061182457611824613091565b6000918252602080832060069290920290910160030180546001600160a01b0319166001600160a01b03948516179055939091168152600f80845260408083208054858552600182810188529285208190559286529082018155825292902090910155565b600980546001600160a01b038381166001600160a01b0319831681179093556040519116919082907f8be0079c531659141344cd1fd0a4f28419497f9722a3daafe3b4186f6b6457e090600090a35050565b6001600160a01b0382166119445760405162461bcd60e51b815260206004820152602a60248201527f455243333532353a20617070726f76652076616c756520746f20746865207a65604482015269726f206164647265737360b01b6064820152608401610785565b61194e8284612215565b6119b45760008381526006602052604090205460058054909190811061197657611976613091565b60009182526020808320600692909202909101600501805460018101825590835291200180546001600160a01b0319166001600160a01b0384161790555b60008381526004602090815260408083206001600160a01b038616808552908352928190208490555183815285917f621b050de0ad08b51d19b48b3e6df75348c4de6bdd93e81b252ca62e28265b1b91015b60405180910390a3505050565b611a1e3383836122e8565b5050565b611a2d848484611f61565b611a39848484846123b2565b610f875760405162461bcd60e51b815260206004820152602760248201527f455243333532353a207472616e7366657220746f206e6f6e204552433732315260448201526632b1b2b4bb32b960c91b6064820152608401610785565b606061065d6001600160a01b03831660146124fe565b6005546000901580159061065d5750600082815260066020526040902054600580548492908110611ade57611ade613091565b9060005260206000209060060201600001541492915050565b60008072184f03e93ff9f4daa797ed6e38ed64bf6a1f0160401b8310611b365772184f03e93ff9f4daa797ed6e38ed64bf6a1f0160401b830492506040015b6d04ee2d6d415b85acef81000000008310611b62576d04ee2d6d415b85acef8100000000830492506020015b662386f26fc100008310611b8057662386f26fc10000830492506010015b6305f5e1008310611b98576305f5e100830492506008015b6127108310611bac57612710830492506004015b60648310611bbe576064830492506002015b600a831061065d5760010192915050565b6000611bdb83856110ee565b9050611be7848461144a565b158015611bf657506000198114155b15610f875781811015611c4b5760405162461bcd60e51b815260206004820152601f60248201527f455243333532353a20696e73756666696369656e7420616c6c6f77616e6365006044820152606401610785565b610f878385611c5a858561339a565b6118db565b600061065d61156d565b611c7283611aab565b611cce5760405162461bcd60e51b815260206004820152602760248201527f455243333532353a207472616e736665722066726f6d20696e76616c696420746044820152661bdad95b88125160ca1b6064820152608401610785565b611cd782611aab565b611d315760405162461bcd60e51b815260206004820152602560248201527f455243333532353a207472616e7366657220746f20696e76616c696420746f6b604482015264195b88125160da1b6064820152608401610785565b600083815260066020526040812054600580549091908110611d5557611d55613091565b9060005260206000209060060201905060006005600660008681526020019081526020016000205481548110611d8d57611d8d613091565b906000526020600020906006020190508282600201541015611e045760405162461bcd60e51b815260206004820152602a60248201527f455243333532353a20696e73756666696369656e742062616c616e636520666f60448201526939103a3930b739b332b960b11b6064820152608401610785565b8060010154826001015414611e725760405162461bcd60e51b815260206004820152602e60248201527f455243333532353a207472616e7366657220746f20746f6b656e20776974682060448201526d191a5999995c995b9d081cdb1bdd60921b6064820152608401610785565b82826002016000828254611e86919061339a565b9250508190555082816002016000828254611ea191906133ad565b9091555050604051838152849086907f0b2aac84f3ec956911fd78eae5311062972ff949f38412e8da39069d9f068cc69060200160405180910390a3611ef88585856040518060200160405280600081525061269a565b611f5a5760405162461bcd60e51b815260206004820152602d60248201527f455243333532353a207472616e736665722072656a656374656420627920455260448201526c21999a991aa932b1b2b4bb32b960991b6064820152608401610785565b5050505050565b826001600160a01b0316611f7482610d96565b6001600160a01b031614611fd65760405162461bcd60e51b8152602060048201526024808201527f455243333532353a207472616e736665722066726f6d20696e76616c6964206f6044820152633bb732b960e11b6064820152608401610785565b6001600160a01b03821661203a5760405162461bcd60e51b815260206004820152602560248201527f455243333532353a207472616e7366657220746f20746865207a65726f206164604482015264647265737360d81b6064820152608401610785565b60006120458261098b565b9050600061205283610f9c565b905061205f6000846112d9565b612068836127cd565b6120728584612878565b61207c8484612999565b82846001600160a01b0316866001600160a01b03167fddf252ad1be2c89b69c2b068fc378daa952ba7f163c4a11628f55a4df523b3ef60405160405180910390a4611f5a565b505050505050565b6040805160c081018252838152602080820184905260008284018190526001600160a01b038716606084015260808301819052835181815291820190935260a0820152905061211881612a22565b6121228484612999565b60405183906001600160a01b038616906000907fddf252ad1be2c89b69c2b068fc378daa952ba7f163c4a11628f55a4df523b3ef908290a4816000847fe4f48c240d3b994948aa54f3e2f5fca59263dfe1d52b6e4cf39a5d249b5ccb6560405160405180910390a450505050565b6000828152600660205260409020546005805483929081106121b4576121b4613091565b906000526020600020906006020160020160008282546121d491906133ad565b909155505060405181815282906000907f0b2aac84f3ec956911fd78eae5311062972ff949f38412e8da39069d9f068cc69060200160405180910390a35050565b60008181526006602052604081205460058054839290811061223957612239613091565b6000918252602082206005600690920201015491505b818110156122dd57600084815260066020526040902054600580546001600160a01b0388169290811061228457612284613091565b906000526020600020906006020160050182815481106122a6576122a6613091565b6000918252602090912001546001600160a01b0316036122cb5760019250505061065d565b806122d5816133c0565b91505061224f565b506000949350505050565b816001600160a01b0316836001600160a01b0316036123495760405162461bcd60e51b815260206004820152601a60248201527f455243333532353a20617070726f766520746f2063616c6c65720000000000006044820152606401610785565b6001600160a01b0383811660008181526007602090815260408083209487168084526002909501825291829020805460ff191686151590811790915591519182527f17307eab39ab6107e8899845ad3d59bd9653f200f220920489ca2b5937696c319101611a06565b60006001600160a01b0384163b156124f357604051630a85bd0160e11b81526001600160a01b0385169063150b7a02906123f69033908990889088906004016133d9565b6020604051808303816000875af1925050508015612431575060408051601f3d908101601f1916820190925261242e91810190613416565b60015b6124d9573d80801561245f576040519150601f19603f3d011682016040523d82523d6000602084013e612464565b606091505b5080516000036124d15760405162461bcd60e51b815260206004820152603260248201527f4552433732313a207472616e7366657220746f206e6f6e20455243373231526560448201527131b2b4bb32b91034b6b83632b6b2b73a32b960711b6064820152608401610785565b805181602001fd5b6001600160e01b031916630a85bd0160e11b1490506114c5565b506001949350505050565b6060600061250d836002613433565b6125189060026133ad565b67ffffffffffffffff81111561253057612530612d7e565b6040519080825280601f01601f19166020018201604052801561255a576020820181803683370190505b509050600360fc1b8160008151811061257557612575613091565b60200101906001600160f81b031916908160001a905350600f60fb1b816001815181106125a4576125a4613091565b60200101906001600160f81b031916908160001a90535060006125c8846002613433565b6125d39060016133ad565b90505b600181111561264b576f181899199a1a9b1b9c1cb0b131b232b360811b85600f166010811061260757612607613091565b1a60f81b82828151811061261d5761261d613091565b60200101906001600160f81b031916908160001a90535060049490941c936126448161344a565b90506125d6565b5083156109095760405162461bcd60e51b815260206004820181905260248201527f537472696e67733a20686578206c656e67746820696e73756666696369656e746044820152606401610785565b6000806126a685610d96565b90506001600160a01b0381163b1515801561272a57506040516301ffc9a760e01b8152629ce20b60e01b60048201526001600160a01b038216906301ffc9a790602401602060405180830381865afa158015612706573d6000803e3d6000fd5b505050506040513d601f19601f8201168201806040525081019061272a9190613461565b156127c357604051629ce20b60e01b81526000906001600160a01b03831690629ce20b906127649033908b908b908b908b9060040161347e565b6020604051808303816000875af1158015612783573d6000803e3d6000fd5b505050506040513d601f19601f820116820180604052508101906127a79190613416565b6001600160e01b031916629ce20b60e01b1492506114c5915050565b60019150506114c5565b6000818152600660205260408120546005805490919081106127f1576127f1613091565b600091825260208220600560069092020190810154909250905b8181101561286957600083600501828154811061282a5761282a613091565b60009182526020808320909101548783526004825260408084206001600160a01b03909216845291528120555080612861816133c0565b91505061280b565b50610826600583016000612bd2565b60008181526006602052604081205460058054909190811061289c5761289c613091565b6000918252602080832060069290920290910160030180546001600160a01b0319166001600160a01b03948516179055918416815260079091526040812080549091906128eb9060019061339a565b9050600082600001828154811061290457612904613091565b9060005260206000200154905060008360010160008681526020019081526020016000205490508184600001828154811061294157612941613091565b6000918252602080832090910192909255838152600186019091526040808220839055868252812055835484908061297b5761297b6134bc565b60019003818190600052602060002001600090559055505050505050565b6000818152600660205260409020546005805484929081106129bd576129bd613091565b6000918252602080832060069290920290910160030180546001600160a01b0319166001600160a01b03948516179055939091168152600780845260408083208054858552600182810188529285208190559286529082018155825292902090910155565b600580548251600090815260066020818152604080842085905560018501865594909252845192027f036b6384b5eca791c62761152d0c79bb0604c104a5fb6f4eb0703f3154bb3db08101928355818501517f036b6384b5eca791c62761152d0c79bb0604c104a5fb6f4eb0703f3154bb3db1820155928401517f036b6384b5eca791c62761152d0c79bb0604c104a5fb6f4eb0703f3154bb3db284015560608401517f036b6384b5eca791c62761152d0c79bb0604c104a5fb6f4eb0703f3154bb3db3840180546001600160a01b039283166001600160a01b03199182161790915560808601517f036b6384b5eca791c62761152d0c79bb0604c104a5fb6f4eb0703f3154bb3db48601805491909316911617905560a084015180518594610f87937f036b6384b5eca791c62761152d0c79bb0604c104a5fb6f4eb0703f3154bb3db59091019201905b828054828255906000526020600020908101928215612bc2579160200282015b82811115612bc257825182546001600160a01b0319166001600160a01b03909116178255602090920191600190910190612b8d565b50612bce929150612bec565b5090565b508054600082559060005260206000209081019061128591905b5b80821115612bce5760008155600101612bed565b6001600160e01b03198116811461128557600080fd5b600060208284031215612c2957600080fd5b813561090981612c01565b60005b83811015612c4f578181015183820152602001612c37565b50506000910152565b60008151808452612c70816020860160208601612c34565b601f01601f19169290920160200192915050565b6020815260006109096020830184612c58565b600060208284031215612ca957600080fd5b5035919050565b80356001600160a01b0381168114610e2d57600080fd5b60008060408385031215612cda57600080fd5b612ce383612cb0565b946020939093013593505050565b600080600060608486031215612d0657600080fd5b83359250612d1660208501612cb0565b9150604084013590509250925092565b600080600060608486031215612d3b57600080fd5b612d4484612cb0565b9250612d1660208501612cb0565b600080600060608486031215612d6757600080fd5b505081359360208301359350604090920135919050565b634e487b7160e01b600052604160045260246000fd5b604051601f8201601f1916810167ffffffffffffffff81118282101715612dbd57612dbd612d7e565b604052919050565b600067ffffffffffffffff821115612ddf57612ddf612d7e565b50601f01601f191660200190565b6000612e00612dfb84612dc5565b612d94565b9050828152838383011115612e1457600080fd5b828260208301376000602084830101529392505050565b600082601f830112612e3c57600080fd5b61090983833560208501612ded565b600060208284031215612e5d57600080fd5b813567ffffffffffffffff811115612e7457600080fd5b6114c584828501612e2b565b60008060008060008060c08789031215612e9957600080fd5b612ea287612cb0565b95506020870135945060408701359350606087013567ffffffffffffffff80821115612ecd57600080fd5b612ed98a838b01612e2b565b94506080890135915080821115612eef57600080fd5b612efb8a838b01612e2b565b935060a0890135915080821115612f1157600080fd5b50612f1e89828a01612e2b565b9150509295509295509295565b600060208284031215612f3d57600080fd5b61090982612cb0565b801515811461128557600080fd5b60008060408385031215612f6757600080fd5b612f7083612cb0565b91506020830135612f8081612f46565b809150509250929050565b60008060008060808587031215612fa157600080fd5b612faa85612cb0565b9350612fb860208601612cb0565b925060408501359150606085013567ffffffffffffffff811115612fdb57600080fd5b8501601f81018713612fec57600080fd5b612ffb87823560208401612ded565b91505092959194509250565b6000806040838503121561301a57600080fd5b8235915061302a60208401612cb0565b90509250929050565b6000806040838503121561304657600080fd5b61304f83612cb0565b915061302a60208401612cb0565b600181811c9082168061307157607f821691505b602082108103610a8d57634e487b7160e01b600052602260045260246000fd5b634e487b7160e01b600052603260045260246000fd5b60208082526022908201527f455243333532353a20617070726f76616c20746f2063757272656e74206f776e60408201526132b960f11b606082015260800190565b600083516130fb818460208801612c34565b64736c6f742f60d81b908301908152835161311d816005840160208801612c34565b01600501949350505050565b60006020828403121561313b57600080fd5b815167ffffffffffffffff81111561315257600080fd5b8201601f8101841361316357600080fd5b8051613171612dfb82612dc5565b81815285602083850101111561318657600080fd5b613197826020830160208601612c34565b95945050505050565b60208082526032908201527f455243333532353a207472616e736665722063616c6c6572206973206e6f74206040820152711bdddb995c881b9bdc88185c1c1c9bdd995960721b606082015260800190565b601f82111561082657600081815260208120601f850160051c810160208610156132195750805b601f850160051c820191505b818110156120c257828155600101613225565b815167ffffffffffffffff81111561325257613252612d7e565b61326681613260845461305d565b846131f2565b602080601f83116001811461329b57600084156132835750858301515b600019600386901b1c1916600185901b1785556120c2565b600085815260208120601f198616915b828110156132ca578886015182559484019460019091019084016132ab565b50858210156132e85787850151600019600388901b60f8161c191681555b5050505050600190811b01905550565b8281526040602082015260006114c56040830184612c58565b60008351613323818460208801612c34565b835190830190613337818360208801612c34565b01949350505050565b60008351613352818460208801612c34565b68636f6e74726163742f60b81b9083019081528351613378816009840160208801612c34565b01600901949350505050565b634e487b7160e01b600052601160045260246000fd5b8181038181111561065d5761065d613384565b8082018082111561065d5761065d613384565b6000600182016133d2576133d2613384565b5060010190565b6001600160a01b038581168252841660208201526040810183905260806060820181905260009061340c90830184612c58565b9695505050505050565b60006020828403121561342857600080fd5b815161090981612c01565b808202811582820484141761065d5761065d613384565b60008161345957613459613384565b506000190190565b60006020828403121561347357600080fd5b815161090981612f46565b60018060a01b038616815284602082015283604082015282606082015260a0608082015260006134b160a0830184612c58565b979650505050505050565b634e487b7160e01b600052603160045260246000fdfea264697066735822122042d1db802935163f7454c0a3c9d9b58be41e040749862f086f3958ef987043fb64736f6c6343000811003360806040523480156200001157600080fd5b5060405162001a4638038062001a46833981016040819052620000349162000150565b600162000042858262000292565b50600262000051848262000292565b50600362000060838262000292565b50600080546001600160a01b0319166001600160a01b0392909216919091179055506200035e915050565b634e487b7160e01b600052604160045260246000fd5b600082601f830112620000b357600080fd5b81516001600160401b0380821115620000d057620000d06200008b565b604051601f8301601f19908116603f01168101908282118183101715620000fb57620000fb6200008b565b816040528381526020925086838588010111156200011857600080fd5b600091505b838210156200013c57858201830151818301840152908201906200011d565b600093810190920192909252949350505050565b600080600080608085870312156200016757600080fd5b84516001600160401b03808211156200017f57600080fd5b6200018d88838901620000a1565b95506020870151915080821115620001a457600080fd5b620001b288838901620000a1565b94506040870151915080821115620001c957600080fd5b50620001d887828801620000a1565b606087015190935090506001600160a01b0381168114620001f857600080fd5b939692955090935050565b600181811c908216806200021857607f821691505b6020821081036200023957634e487b7160e01b600052602260045260246000fd5b50919050565b601f8211156200028d57600081815260208120601f850160051c81016020861015620002685750805b601f850160051c820191505b81811015620002895782815560010162000274565b5050505b505050565b81516001600160401b03811115620002ae57620002ae6200008b565b620002c681620002bf845462000203565b846200023f565b602080601f831160018114620002fe5760008415620002e55750858301515b600019600386901b1c1916600185901b17855562000289565b600085815260208120601f198616915b828110156200032f578886015182559484019460019091019084016200030e565b50858210156200034e5787850151600019600388901b60f8161c191681555b5050505050600190811b01905550565b6116d8806200036e6000396000f3fe608060405234801561001057600080fd5b506004361061007d5760003560e01c80636c037f8a1161005b5780636c037f8a146100bd578063725fa09c146100e6578063842251d4146100ee578063894b4c2e1461010157600080fd5b8063246a908b1461008257806355f804b31461009757806364140ec0146100aa575b600080fd5b610095610090366004610d53565b610114565b005b6100956100a5366004610d9a565b610131565b6100956100b8366004610d53565b610141565b6100d06100cb366004610dd7565b610159565b6040516100dd9190610e14565b60405180910390f35b6100d06101cf565b6100956100fc366004610d53565b6102f4565b6100d061010f366004610dd7565b61030c565b600082815260046020526040902061012c8282610ecf565b505050565b600161013d8282610ecf565b5050565b600082815260056020526040902061012c8282610ecf565b60606101a961016783610416565b6101708461048f565b610179856104c1565b61018286610543565b6040516020016101959493929190610fab565b6040516020818303038152906040526105c5565b6040516020016101b99190611079565b6040516020818303038152906040529050919050565b606060003390506102cf816001600160a01b03166306fdde036040518163ffffffff1660e01b8152600401600060405180830381865afa158015610217573d6000803e3d6000fd5b505050506040513d6000823e601f3d908101601f1916820160405261023f91908101906110be565b610247610718565b61024f6107aa565b6102bc856001600160a01b0316633e7e86696040518163ffffffff1660e01b8152600401602060405180830381865afa158015610290573d6000803e3d6000fd5b505050506040513d601f19601f820116820180604052508101906102b49190611135565b60ff166107df565b6040516020016101959493929190611158565b6040516020016102df9190611079565b60405160208183030381529060405291505090565b600082815260066020526040902061012c8282610ecf565b6060336103ef61031b84610872565b610324856108f4565b61032d86610996565b604051631398fee160e31b8152600481018890526103a0906001600160a01b03871690639cc7f708906024015b602060405180830381865afa158015610377573d6000803e3d6000fd5b505050506040513d601f19601f8201168201806040525081019061039b919061122b565b6107df565b60405163131f9f3f60e11b8152600481018990526103d1906001600160a01b0388169063263f3e7e9060240161035a565b6103da896109cb565b60405160200161019596959493929190611244565b6040516020016103ff9190611079565b604051602081830303815290604052915050919050565b60005460405163ec327a2160e01b8152600481018390526060916001600160a01b03169063ec327a21906024015b600060405180830381865afa158015610461573d6000803e3d6000fd5b505050506040513d6000823e601f3d908101601f1916820160405261048991908101906110be565b92915050565b60005460405163bc74ebb960e01b8152600481018390526060916001600160a01b03169063bc74ebb990602401610444565b6000546040516309c3dd8760e01b8152600481018390526060916001600160a01b0316906309c3dd8790602401600060405180830381865afa15801561050b573d6000803e3d6000fd5b505050506040513d6000823e601f3d908101601f1916820160405261053391908101906110be565b6040516020016101b9919061136a565b6000546040516309c3dd8760e01b8152600481018390526060916001600160a01b0316906309c3dd8790602401600060405180830381865afa15801561058d573d6000803e3d6000fd5b505050506040513d6000823e601f3d908101601f191682016040526105b591908101906110be565b6040516020016101b99190611394565b606081516000036105e457505060408051602081019091526000815290565b6000604051806060016040528060408152602001611663604091399050600060038451600261061391906113de565b61061d91906113f1565b610628906004611413565b67ffffffffffffffff81111561064057610640610c8e565b6040519080825280601f01601f19166020018201604052801561066a576020820181803683370190505b509050600182016020820185865187015b808210156106d6576003820191508151603f8160121c168501518453600184019350603f81600c1c168501518453600184019350603f8160061c168501518453600184019350603f811685015184535060018301925061067b565b50506003865106600181146106f257600281146107055761070d565b603d6001830353603d600283035361070d565b603d60018303535b509195945050505050565b60606002805461072790610e47565b80601f016020809104026020016040519081016040528092919081815260200182805461075390610e47565b80156107a05780601f10610775576101008083540402835291602001916107a0565b820191906000526020600020905b81548152906001019060200180831161078357829003601f168201915b5050505050905090565b606060016107b7336109f9565b60036040516020016107cb9392919061149d565b604051602081830303815290604052905090565b606060006107ec83610a0f565b600101905060008167ffffffffffffffff81111561080c5761080c610c8e565b6040519080825280601f01601f191660200182016040528015610836576020820181803683370190505b5090508181016020015b600019016f181899199a1a9b1b9c1cb0b131b232b360811b600a86061a8153600a850494508461084057509392505050565b6060336001600160a01b03166306fdde036040518163ffffffff1660e01b8152600401600060405180830381865afa1580156108b2573d6000803e3d6000fd5b505050506040513d6000823e601f3d908101601f191682016040526108da91908101906110be565b6108e3836107df565b6040516020016101b99291906114f1565b600081815260046020526040902080546060919061091190610e47565b80601f016020809104026020016040519081016040528092919081815260200182805461093d90610e47565b801561098a5780601f1061095f5761010080835404028352916020019161098a565b820191906000526020600020905b81548152906001019060200180831161096d57829003601f168201915b50505050509050919050565b606060016109a3306109f9565b6000848152600660209081526040808320600583529281902090516101b9959493920161152e565b606060016109d8336109f9565b60008481526006602090815260409182902091516101b994939291016115a0565b60606104896001600160a01b0383166014610ae7565b60008072184f03e93ff9f4daa797ed6e38ed64bf6a1f0160401b8310610a4e5772184f03e93ff9f4daa797ed6e38ed64bf6a1f0160401b830492506040015b6d04ee2d6d415b85acef81000000008310610a7a576d04ee2d6d415b85acef8100000000830492506020015b662386f26fc100008310610a9857662386f26fc10000830492506010015b6305f5e1008310610ab0576305f5e100830492506008015b6127108310610ac457612710830492506004015b60648310610ad6576064830492506002015b600a83106104895760010192915050565b60606000610af6836002611413565b610b019060026113de565b67ffffffffffffffff811115610b1957610b19610c8e565b6040519080825280601f01601f191660200182016040528015610b43576020820181803683370190505b509050600360fc1b81600081518110610b5e57610b5e611635565b60200101906001600160f81b031916908160001a905350600f60fb1b81600181518110610b8d57610b8d611635565b60200101906001600160f81b031916908160001a9053506000610bb1846002611413565b610bbc9060016113de565b90505b6001811115610c34576f181899199a1a9b1b9c1cb0b131b232b360811b85600f1660108110610bf057610bf0611635565b1a60f81b828281518110610c0657610c06611635565b60200101906001600160f81b031916908160001a90535060049490941c93610c2d8161164b565b9050610bbf565b508315610c875760405162461bcd60e51b815260206004820181905260248201527f537472696e67733a20686578206c656e67746820696e73756666696369656e74604482015260640160405180910390fd5b9392505050565b634e487b7160e01b600052604160045260246000fd5b604051601f8201601f1916810167ffffffffffffffff81118282101715610ccd57610ccd610c8e565b604052919050565b600067ffffffffffffffff821115610cef57610cef610c8e565b50601f01601f191660200190565b600082601f830112610d0e57600080fd5b8135610d21610d1c82610cd5565b610ca4565b818152846020838601011115610d3657600080fd5b816020850160208301376000918101602001919091529392505050565b60008060408385031215610d6657600080fd5b82359150602083013567ffffffffffffffff811115610d8457600080fd5b610d9085828601610cfd565b9150509250929050565b600060208284031215610dac57600080fd5b813567ffffffffffffffff811115610dc357600080fd5b610dcf84828501610cfd565b949350505050565b600060208284031215610de957600080fd5b5035919050565b60005b83811015610e0b578181015183820152602001610df3565b50506000910152565b6020815260008251806020840152610e33816040850160208701610df0565b601f01601f19169190910160400192915050565b600181811c90821680610e5b57607f821691505b602082108103610e7b57634e487b7160e01b600052602260045260246000fd5b50919050565b601f82111561012c57600081815260208120601f850160051c81016020861015610ea85750805b601f850160051c820191505b81811015610ec757828155600101610eb4565b505050505050565b815167ffffffffffffffff811115610ee957610ee9610c8e565b610efd81610ef78454610e47565b84610e81565b602080601f831160018114610f325760008415610f1a5750858301515b600019600386901b1c1916600185901b178555610ec7565b600085815260208120601f198616915b82811015610f6157888601518255948401946001909101908401610f42565b5085821015610f7f5787850151600019600388901b60f8161c191681555b5050505050600190811b01905550565b60008151610fa1818560208601610df0565b9290920192915050565b683d913730b6b2911d1160b91b81528451600090610fd0816009850160208a01610df0565b701116113232b9b1b934b83a34b7b7111d1160791b600991840191820152855161100181601a840160208a01610df0565b6a11161134b6b0b3b2911d1160a91b601a9290910191820152845161102d816025840160208901610df0565b6e111611383937b832b93a34b2b9911d60891b60259290910191820152835161105d816034840160208801610df0565b607d60f81b603492909101918201526035019695505050505050565b7f646174613a6170706c69636174696f6e2f6a736f6e3b6261736536342c0000008152600082516110b181601d850160208701610df0565b91909101601d0192915050565b6000602082840312156110d057600080fd5b815167ffffffffffffffff8111156110e757600080fd5b8201601f810184136110f857600080fd5b8051611106610d1c82610cd5565b81815285602083850101111561111b57600080fd5b61112c826020830160208601610df0565b95945050505050565b60006020828403121561114757600080fd5b815160ff81168114610c8757600080fd5b683d913730b6b2911d1160b91b8152845160009061117d816009850160208a01610df0565b701116113232b9b1b934b83a34b7b7111d1160791b60099184019182015285516111ae81601a840160208a01610df0565b6a11161134b6b0b3b2911d1160a91b601a929091019182015284516111da816025840160208901610df0565b721116113b30b63ab2a232b1b4b6b0b639911d1160691b60259290910191820152835161120e816038840160208801610df0565b61227d60f01b60389290910191820152603a019695505050505050565b60006020828403121561123d57600080fd5b5051919050565b683d913730b6b2911d1160b91b81528651600090611269816009850160208c01610df0565b701116113232b9b1b934b83a34b7b7111d1160791b600991840191820152875161129a81601a840160208c01610df0565b6a11161134b6b0b3b2911d1160a91b601a929091019182015286516112c6816025840160208b01610df0565b6c1116113130b630b731b2911d1160991b6025929091019182015285516112f4816032840160208a01610df0565b6911161139b637ba111d1160b11b60329290910191820152845161131f81603c840160208901610df0565b61135c61134f611349603c848601016e111611383937b832b93a34b2b9911d60891b8152600f0190565b87610f8f565b607d60f81b815260010190565b9a9950505050505050505050565b6000825161137c818460208701610df0565b652f696d61676560d01b920191825250600601919050565b600082516113a6818460208701610df0565b6f17b83937b832b93a34b2b9973539b7b760811b920191825250601001919050565b634e487b7160e01b600052601160045260246000fd5b80820180821115610489576104896113c8565b60008261140e57634e487b7160e01b600052601260045260246000fd5b500490565b8082028115828204841417610489576104896113c8565b6000815461143781610e47565b6001828116801561144f576001811461146457611493565b60ff1984168752821515830287019450611493565b8560005260208060002060005b8581101561148a5781548a820152908401908201611471565b50505082870194505b5050505092915050565b60006114a9828661142a565b68636f6e74726163742f60b81b815284516114cb816009840160208901610df0565b602f60f81b600992909101918201526114e7600a82018561142a565b9695505050505050565b60008351611503818460208801610df0565b61202360f01b9083019081528351611522816002840160208801610df0565b01600201949350505050565b600061153a828761142a565b692f636f6e74726163742f60b01b8152855161155d81600a840160208a01610df0565b662f746f6b656e2f60c81b600a929091019182015261157f601182018661142a565b9050602f60f81b8152611595600182018561142a565b979650505050505050565b6e7b70726f706572746965735f75726960881b815260006115c4600f83018661142a565b68636f6e74726163742f60b81b815284516115e6816009840160208901610df0565b662f746f6b656e2f60c81b60099290910191820152611608601082018561142a565b6f17b83937b832b93a34b2b9973539b7b760811b8152607d60f81b60108201526011019695505050505050565b634e487b7160e01b600052603260045260246000fd5b60008161165a5761165a6113c8565b50600019019056fe4142434445464748494a4b4c4d4e4f505152535455565758595a6162636465666768696a6b6c6d6e6f707172737475767778797a303132333435363738392b2fa2646970667358221220f622a95ca579ad3e624f36a75282d2e2e7eb7abc812f4a74518e120350c886ff64736f6c63430008110033","opcodes":"PUSH1 0x80 PUSH1 0x40 MSTORE CALLVALUE DUP1 ISZERO PUSH3 0x11 JUMPI PUSH1 0x0 DUP1 REVERT JUMPDEST POP PUSH1 0x40 MLOAD PUSH3 0x5620 CODESIZE SUB DUP1 PUSH3 0x5620 DUP4 CODECOPY DUP2 ADD PUSH1 0x40 DUP2 SWAP1 MSTORE PUSH3 0x34 SWAP2 PUSH3 0x334 JUMP JUMPDEST DUP7 DUP7 DUP3 PUSH1 0x0 PUSH3 0x45 DUP5 DUP3 PUSH3 0x4F0 JUMP JUMPDEST POP PUSH1 0x1 PUSH3 0x54 DUP4 DUP3 PUSH3 0x4F0 JUMP JUMPDEST POP PUSH1 0x2 DUP1 SLOAD PUSH1 0xFF NOT AND PUSH1 0xFF SWAP3 SWAP1 SWAP3 AND SWAP2 SWAP1 SWAP2 OR SWAP1 SSTORE POP PUSH3 0x7E SWAP1 POP PUSH3 0x78 CALLER SWAP1 JUMP JUMPDEST PUSH3 0x1D8 JUMP JUMPDEST PUSH1 0x40 DUP1 MLOAD DUP1 DUP3 ADD SWAP1 SWAP2 MSTORE PUSH1 0x4 DUP2 MSTORE PUSH4 0x55534443 PUSH1 0xE0 SHL PUSH1 0x20 DUP3 ADD MSTORE PUSH1 0xA DUP1 SLOAD PUSH1 0x1 PUSH1 0x1 PUSH1 0xA0 SHL SUB NOT AND PUSH1 0x1 PUSH1 0x1 PUSH1 0xA0 SHL SUB DUP13 AND OR SWAP1 SSTORE PUSH1 0xB PUSH3 0xC2 DUP8 DUP3 PUSH3 0x4F0 JUMP JUMPDEST POP PUSH1 0xB DUP6 DUP6 DUP12 PUSH1 0x40 MLOAD PUSH3 0xD6 SWAP1 PUSH3 0x22A JUMP JUMPDEST PUSH3 0xE5 SWAP5 SWAP4 SWAP3 SWAP2 SWAP1 PUSH3 0x5EA JUMP JUMPDEST PUSH1 0x40 MLOAD DUP1 SWAP2 SUB SWAP1 PUSH1 0x0 CREATE DUP1 ISZERO DUP1 ISZERO PUSH3 0x102 JUMPI RETURNDATASIZE PUSH1 0x0 DUP1 RETURNDATACOPY RETURNDATASIZE PUSH1 0x0 REVERT JUMPDEST POP PUSH1 0x8 DUP1 SLOAD PUSH1 0x1 PUSH1 0x1 PUSH1 0xA0 SHL SUB NOT AND PUSH1 0x1 PUSH1 0x1 PUSH1 0xA0 SHL SUB SWAP3 SWAP1 SWAP3 AND SWAP2 SWAP1 SWAP2 OR SWAP1 SSTORE PUSH1 0x40 DUP1 MLOAD DUP1 DUP3 ADD SWAP1 SWAP2 MSTORE PUSH1 0x4 DUP2 MSTORE PUSH4 0x55534443 PUSH1 0xE0 SHL PUSH1 0x20 SWAP2 DUP3 ADD MSTORE DUP2 MLOAD SWAP1 DUP3 ADD KECCAK256 PUSH32 0x29535E4168D63EC2988CCAE9ECDE9B63335195A6EAAB88DAE98FF067906BD156 ADD PUSH3 0x188 JUMPI PUSH1 0xC DUP1 SLOAD PUSH1 0x1 PUSH1 0x1 PUSH1 0xA0 SHL SUB NOT AND PUSH1 0x1 PUSH1 0x1 PUSH1 0xA0 SHL SUB DUP6 AND OR SWAP1 SSTORE JUMPDEST PUSH1 0x8 SLOAD PUSH1 0x40 MLOAD PUSH1 0x1 PUSH1 0x1 PUSH1 0xA0 SHL SUB SWAP1 SWAP2 AND DUP2 MSTORE PUSH32 0x9AC4F8025631594629895B778DC5EE88D01673A254A2291F6B6B174AD25230CA SWAP1 PUSH1 0x20 ADD PUSH1 0x40 MLOAD DUP1 SWAP2 SUB SWAP1 LOG1 POP POP POP POP POP POP POP POP POP POP PUSH3 0x6C2 JUMP JUMPDEST PUSH1 0x9 DUP1 SLOAD PUSH1 0x1 PUSH1 0x1 PUSH1 0xA0 SHL SUB DUP4 DUP2 AND PUSH1 0x1 PUSH1 0x1 PUSH1 0xA0 SHL SUB NOT DUP4 AND DUP2 OR SWAP1 SWAP4 SSTORE PUSH1 0x40 MLOAD SWAP2 AND SWAP2 SWAP1 DUP3 SWAP1 PUSH32 0x8BE0079C531659141344CD1FD0A4F28419497F9722A3DAAFE3B4186F6B6457E0 SWAP1 PUSH1 0x0 SWAP1 LOG3 POP POP JUMP JUMPDEST PUSH2 0x1A46 DUP1 PUSH3 0x3BDA DUP4 CODECOPY ADD SWAP1 JUMP JUMPDEST DUP1 MLOAD PUSH1 0x1 PUSH1 0x1 PUSH1 0xA0 SHL SUB DUP2 AND DUP2 EQ PUSH3 0x250 JUMPI PUSH1 0x0 DUP1 REVERT JUMPDEST SWAP2 SWAP1 POP JUMP JUMPDEST PUSH4 0x4E487B71 PUSH1 0xE0 SHL PUSH1 0x0 MSTORE PUSH1 0x41 PUSH1 0x4 MSTORE PUSH1 0x24 PUSH1 0x0 REVERT JUMPDEST PUSH1 0x0 JUMPDEST DUP4 DUP2 LT ISZERO PUSH3 0x288 JUMPI DUP2 DUP2 ADD MLOAD DUP4 DUP3 ADD MSTORE PUSH1 0x20 ADD PUSH3 0x26E JUMP JUMPDEST POP POP PUSH1 0x0 SWAP2 ADD MSTORE JUMP JUMPDEST PUSH1 0x0 DUP3 PUSH1 0x1F DUP4 ADD SLT PUSH3 0x2A3 JUMPI PUSH1 0x0 DUP1 REVERT JUMPDEST DUP2 MLOAD PUSH1 0x1 PUSH1 0x1 PUSH1 0x40 SHL SUB DUP1 DUP3 GT ISZERO PUSH3 0x2C0 JUMPI PUSH3 0x2C0 PUSH3 0x255 JUMP JUMPDEST PUSH1 0x40 MLOAD PUSH1 0x1F DUP4 ADD PUSH1 0x1F NOT SWAP1 DUP2 AND PUSH1 0x3F ADD AND DUP2 ADD SWAP1 DUP3 DUP3 GT DUP2 DUP4 LT OR ISZERO PUSH3 0x2EB JUMPI PUSH3 0x2EB PUSH3 0x255 JUMP JUMPDEST DUP2 PUSH1 0x40 MSTORE DUP4 DUP2 MSTORE DUP7 PUSH1 0x20 DUP6 DUP9 ADD ADD GT ISZERO PUSH3 0x305 JUMPI PUSH1 0x0 DUP1 REVERT JUMPDEST PUSH3 0x318 DUP5 PUSH1 0x20 DUP4 ADD PUSH1 0x20 DUP10 ADD PUSH3 0x26B JUMP JUMPDEST SWAP7 SWAP6 POP POP POP POP POP POP JUMP JUMPDEST DUP1 MLOAD PUSH1 0xFF DUP2 AND DUP2 EQ PUSH3 0x250 JUMPI PUSH1 0x0 DUP1 REVERT JUMPDEST PUSH1 0x0 DUP1 PUSH1 0x0 DUP1 PUSH1 0x0 DUP1 PUSH1 0x0 DUP1 PUSH1 0x0 PUSH2 0x120 DUP11 DUP13 SUB SLT ISZERO PUSH3 0x354 JUMPI PUSH1 0x0 DUP1 REVERT JUMPDEST PUSH3 0x35F DUP11 PUSH3 0x238 JUMP JUMPDEST SWAP9 POP PUSH3 0x36F PUSH1 0x20 DUP12 ADD PUSH3 0x238 JUMP JUMPDEST PUSH1 0x40 DUP12 ADD MLOAD SWAP1 SWAP9 POP PUSH1 0x1 PUSH1 0x1 PUSH1 0x40 SHL SUB DUP1 DUP3 GT ISZERO PUSH3 0x38D JUMPI PUSH1 0x0 DUP1 REVERT JUMPDEST PUSH3 0x39B DUP14 DUP4 DUP15 ADD PUSH3 0x291 JUMP JUMPDEST SWAP9 POP PUSH1 0x60 DUP13 ADD MLOAD SWAP2 POP DUP1 DUP3 GT ISZERO PUSH3 0x3B2 JUMPI PUSH1 0x0 DUP1 REVERT JUMPDEST PUSH3 0x3C0 DUP14 DUP4 DUP15 ADD PUSH3 0x291 JUMP JUMPDEST SWAP8 POP PUSH1 0x80 DUP13 ADD MLOAD SWAP2 POP DUP1 DUP3 GT ISZERO PUSH3 0x3D7 JUMPI PUSH1 0x0 DUP1 REVERT JUMPDEST PUSH3 0x3E5 DUP14 DUP4 DUP15 ADD PUSH3 0x291 JUMP JUMPDEST SWAP7 POP PUSH1 0xA0 DUP13 ADD MLOAD SWAP2 POP DUP1 DUP3 GT ISZERO PUSH3 0x3FC JUMPI PUSH1 0x0 DUP1 REVERT JUMPDEST PUSH3 0x40A DUP14 DUP4 DUP15 ADD PUSH3 0x291 JUMP JUMPDEST SWAP6 POP PUSH1 0xC0 DUP13 ADD MLOAD SWAP2 POP DUP1 DUP3 GT ISZERO PUSH3 0x421 JUMPI PUSH1 0x0 DUP1 REVERT JUMPDEST POP PUSH3 0x430 DUP13 DUP3 DUP14 ADD PUSH3 0x291 JUMP JUMPDEST SWAP4 POP POP PUSH3 0x441 PUSH1 0xE0 DUP12 ADD PUSH3 0x238 JUMP JUMPDEST SWAP2 POP PUSH3 0x452 PUSH2 0x100 DUP12 ADD PUSH3 0x322 JUMP JUMPDEST SWAP1 POP SWAP3 SWAP6 SWAP9 POP SWAP3 SWAP6 SWAP9 POP SWAP3 SWAP6 SWAP9 JUMP JUMPDEST PUSH1 0x1 DUP2 DUP2 SHR SWAP1 DUP3 AND DUP1 PUSH3 0x476 JUMPI PUSH1 0x7F DUP3 AND SWAP2 POP JUMPDEST PUSH1 0x20 DUP3 LT DUP2 SUB PUSH3 0x497 JUMPI PUSH4 0x4E487B71 PUSH1 0xE0 SHL PUSH1 0x0 MSTORE PUSH1 0x22 PUSH1 0x4 MSTORE PUSH1 0x24 PUSH1 0x0 REVERT JUMPDEST POP SWAP2 SWAP1 POP JUMP JUMPDEST PUSH1 0x1F DUP3 GT ISZERO PUSH3 0x4EB JUMPI PUSH1 0x0 DUP2 DUP2 MSTORE PUSH1 0x20 DUP2 KECCAK256 PUSH1 0x1F DUP6 ADD PUSH1 0x5 SHR DUP2 ADD PUSH1 0x20 DUP7 LT ISZERO PUSH3 0x4C6 JUMPI POP DUP1 JUMPDEST PUSH1 0x1F DUP6 ADD PUSH1 0x5 SHR DUP3 ADD SWAP2 POP JUMPDEST DUP2 DUP2 LT ISZERO PUSH3 0x4E7 JUMPI DUP3 DUP2 SSTORE PUSH1 0x1 ADD PUSH3 0x4D2 JUMP JUMPDEST POP POP POP JUMPDEST POP POP POP JUMP JUMPDEST DUP2 MLOAD PUSH1 0x1 PUSH1 0x1 PUSH1 0x40 SHL SUB DUP2 GT ISZERO PUSH3 0x50C JUMPI PUSH3 0x50C PUSH3 0x255 JUMP JUMPDEST PUSH3 0x524 DUP2 PUSH3 0x51D DUP5 SLOAD PUSH3 0x461 JUMP JUMPDEST DUP5 PUSH3 0x49D JUMP JUMPDEST PUSH1 0x20 DUP1 PUSH1 0x1F DUP4 GT PUSH1 0x1 DUP2 EQ PUSH3 0x55C JUMPI PUSH1 0x0 DUP5 ISZERO PUSH3 0x543 JUMPI POP DUP6 DUP4 ADD MLOAD JUMPDEST PUSH1 0x0 NOT PUSH1 0x3 DUP7 SWAP1 SHL SHR NOT AND PUSH1 0x1 DUP6 SWAP1 SHL OR DUP6 SSTORE PUSH3 0x4E7 JUMP JUMPDEST PUSH1 0x0 DUP6 DUP2 MSTORE PUSH1 0x20 DUP2 KECCAK256 PUSH1 0x1F NOT DUP7 AND SWAP2 JUMPDEST DUP3 DUP2 LT ISZERO PUSH3 0x58D JUMPI DUP9 DUP7 ADD MLOAD DUP3 SSTORE SWAP5 DUP5 ADD SWAP5 PUSH1 0x1 SWAP1 SWAP2 ADD SWAP1 DUP5 ADD PUSH3 0x56C JUMP JUMPDEST POP DUP6 DUP3 LT ISZERO PUSH3 0x5AC JUMPI DUP8 DUP6 ADD MLOAD PUSH1 0x0 NOT PUSH1 0x3 DUP9 SWAP1 SHL PUSH1 0xF8 AND SHR NOT AND DUP2 SSTORE JUMPDEST POP POP POP POP POP PUSH1 0x1 SWAP1 DUP2 SHL ADD SWAP1 SSTORE POP JUMP JUMPDEST PUSH1 0x0 DUP2 MLOAD DUP1 DUP5 MSTORE PUSH3 0x5D6 DUP2 PUSH1 0x20 DUP7 ADD PUSH1 0x20 DUP7 ADD PUSH3 0x26B JUMP JUMPDEST PUSH1 0x1F ADD PUSH1 0x1F NOT AND SWAP3 SWAP1 SWAP3 ADD PUSH1 0x20 ADD SWAP3 SWAP2 POP POP JUMP JUMPDEST PUSH1 0x80 DUP2 MSTORE PUSH1 0x0 DUP1 DUP7 SLOAD PUSH3 0x5FE DUP2 PUSH3 0x461 JUMP JUMPDEST DUP1 PUSH1 0x80 DUP7 ADD MSTORE PUSH1 0xA0 PUSH1 0x1 DUP1 DUP5 AND PUSH1 0x0 DUP2 EQ PUSH3 0x623 JUMPI PUSH1 0x1 DUP2 EQ PUSH3 0x63E JUMPI PUSH3 0x671 JUMP JUMPDEST PUSH1 0xFF NOT DUP6 AND DUP9 DUP5 ADD MSTORE DUP4 ISZERO ISZERO PUSH1 0x5 SHL DUP9 ADD DUP4 ADD SWAP6 POP PUSH3 0x671 JUMP JUMPDEST DUP12 PUSH1 0x0 MSTORE PUSH1 0x20 DUP1 PUSH1 0x0 KECCAK256 PUSH1 0x0 JUMPDEST DUP7 DUP2 LT ISZERO PUSH3 0x668 JUMPI DUP2 SLOAD DUP12 DUP3 ADD DUP8 ADD MSTORE SWAP1 DUP5 ADD SWAP1 DUP3 ADD PUSH3 0x64B JUMP JUMPDEST DUP11 ADD DUP6 ADD SWAP8 POP POP POP JUMPDEST POP POP POP POP POP DUP3 DUP2 SUB PUSH1 0x20 DUP5 ADD MSTORE PUSH3 0x68A DUP2 DUP8 PUSH3 0x5BC JUMP JUMPDEST SWAP1 POP DUP3 DUP2 SUB PUSH1 0x40 DUP5 ADD MSTORE PUSH3 0x6A0 DUP2 DUP7 PUSH3 0x5BC JUMP JUMPDEST SWAP2 POP POP PUSH3 0x6B9 PUSH1 0x60 DUP4 ADD DUP5 PUSH1 0x1 PUSH1 0x1 PUSH1 0xA0 SHL SUB AND SWAP1 MSTORE JUMP JUMPDEST SWAP6 SWAP5 POP POP POP POP POP JUMP JUMPDEST PUSH2 0x3508 DUP1 PUSH3 0x6D2 PUSH1 0x0 CODECOPY PUSH1 0x0 RETURN INVALID PUSH1 0x80 PUSH1 0x40 MSTORE PUSH1 0x4 CALLDATASIZE LT PUSH2 0x1E3 JUMPI PUSH1 0x0 CALLDATALOAD PUSH1 0xE0 SHR DUP1 PUSH4 0x4F6CCCE7 GT PUSH2 0x102 JUMPI DUP1 PUSH4 0x9CC7F708 GT PUSH2 0x95 JUMPI DUP1 PUSH4 0xE345E0BC GT PUSH2 0x64 JUMPI DUP1 PUSH4 0xE345E0BC EQ PUSH2 0x51E JUMPI DUP1 PUSH4 0xE8A3D485 EQ PUSH2 0x53E JUMPI DUP1 PUSH4 0xE985E9C5 EQ PUSH2 0x553 JUMPI DUP1 PUSH4 0xF2FDE38B EQ PUSH2 0x5A0 JUMPI PUSH1 0x0 DUP1 REVERT JUMPDEST DUP1 PUSH4 0x9CC7F708 EQ PUSH2 0x4AB JUMPI DUP1 PUSH4 0xA22CB465 EQ PUSH2 0x4CB JUMPI DUP1 PUSH4 0xB88D4FDE EQ PUSH2 0x4EB JUMPI DUP1 PUSH4 0xC87B56DD EQ PUSH2 0x4FE JUMPI PUSH1 0x0 DUP1 REVERT JUMPDEST DUP1 PUSH4 0x840F7113 GT PUSH2 0xD1 JUMPI DUP1 PUSH4 0x840F7113 EQ PUSH2 0x445 JUMPI DUP1 PUSH4 0x8CB0A511 EQ PUSH2 0x465 JUMPI DUP1 PUSH4 0x8DA5CB5B EQ PUSH2 0x478 JUMPI DUP1 PUSH4 0x95D89B41 EQ PUSH2 0x496 JUMPI PUSH1 0x0 DUP1 REVERT JUMPDEST DUP1 PUSH4 0x4F6CCCE7 EQ PUSH2 0x3D0 JUMPI DUP1 PUSH4 0x6352211E EQ PUSH2 0x3F0 JUMPI DUP1 PUSH4 0x70A08231 EQ PUSH2 0x410 JUMPI DUP1 PUSH4 0x715018A6 EQ PUSH2 0x430 JUMPI PUSH1 0x0 DUP1 REVERT JUMPDEST DUP1 PUSH4 0x23B872DD GT PUSH2 0x17A JUMPI DUP1 PUSH4 0x31B5B907 GT PUSH2 0x149 JUMPI DUP1 PUSH4 0x31B5B907 EQ PUSH2 0x35B JUMPI DUP1 PUSH4 0x3E7E8669 EQ PUSH2 0x37B JUMPI DUP1 PUSH4 0x42842E0E EQ PUSH2 0x39D JUMPI DUP1 PUSH4 0x476DE4A8 EQ PUSH2 0x3B0 JUMPI PUSH1 0x0 DUP1 REVERT JUMPDEST DUP1 PUSH4 0x23B872DD EQ PUSH2 0x2F5 JUMPI DUP1 PUSH4 0x263F3E7E EQ PUSH2 0x308 JUMPI DUP1 PUSH4 0x2F745C59 EQ PUSH2 0x328 JUMPI DUP1 PUSH4 0x310ED7F0 EQ PUSH2 0x348 JUMPI PUSH1 0x0 DUP1 REVERT JUMPDEST DUP1 PUSH4 0x9C3DD87 GT PUSH2 0x1B6 JUMPI DUP1 PUSH4 0x9C3DD87 EQ PUSH2 0x28C JUMPI DUP1 PUSH4 0xF485C02 EQ PUSH2 0x2AC JUMPI DUP1 PUSH4 0x15EAEF6B EQ PUSH2 0x2CD JUMPI DUP1 PUSH4 0x18160DDD EQ PUSH2 0x2E0 JUMPI PUSH1 0x0 DUP1 REVERT JUMPDEST DUP1 PUSH4 0x1FFC9A7 EQ PUSH2 0x1E8 JUMPI DUP1 PUSH4 0x6FDDE03 EQ PUSH2 0x21D JUMPI DUP1 PUSH4 0x81812FC EQ PUSH2 0x23F JUMPI DUP1 PUSH4 0x95EA7B3 EQ PUSH2 0x277 JUMPI JUMPDEST PUSH1 0x0 DUP1 REVERT JUMPDEST CALLVALUE DUP1 ISZERO PUSH2 0x1F4 JUMPI PUSH1 0x0 DUP1 REVERT JUMPDEST POP PUSH2 0x208 PUSH2 0x203 CALLDATASIZE PUSH1 0x4 PUSH2 0x2C17 JUMP JUMPDEST PUSH2 0x5C0 JUMP JUMPDEST PUSH1 0x40 MLOAD SWAP1 ISZERO ISZERO DUP2 MSTORE PUSH1 0x20 ADD JUMPDEST PUSH1 0x40 MLOAD DUP1 SWAP2 SUB SWAP1 RETURN JUMPDEST CALLVALUE DUP1 ISZERO PUSH2 0x229 JUMPI PUSH1 0x0 DUP1 REVERT JUMPDEST POP PUSH2 0x232 PUSH2 0x663 JUMP JUMPDEST PUSH1 0x40 MLOAD PUSH2 0x214 SWAP2 SWAP1 PUSH2 0x2C84 JUMP JUMPDEST CALLVALUE DUP1 ISZERO PUSH2 0x24B JUMPI PUSH1 0x0 DUP1 REVERT JUMPDEST POP PUSH2 0x25F PUSH2 0x25A CALLDATASIZE PUSH1 0x4 PUSH2 0x2C97 JUMP JUMPDEST PUSH2 0x6F5 JUMP JUMPDEST PUSH1 0x40 MLOAD PUSH1 0x1 PUSH1 0x1 PUSH1 0xA0 SHL SUB SWAP1 SWAP2 AND DUP2 MSTORE PUSH1 0x20 ADD PUSH2 0x214 JUMP JUMPDEST PUSH2 0x28A PUSH2 0x285 CALLDATASIZE PUSH1 0x4 PUSH2 0x2CC7 JUMP JUMPDEST PUSH2 0x747 JUMP JUMPDEST STOP JUMPDEST CALLVALUE DUP1 ISZERO PUSH2 0x298 JUMPI PUSH1 0x0 DUP1 REVERT JUMPDEST POP PUSH2 0x232 PUSH2 0x2A7 CALLDATASIZE PUSH1 0x4 PUSH2 0x2C97 JUMP JUMPDEST PUSH2 0x82B JUMP JUMPDEST PUSH2 0x2BF PUSH2 0x2BA CALLDATASIZE PUSH1 0x4 PUSH2 0x2CF1 JUMP JUMPDEST PUSH2 0x910 JUMP JUMPDEST PUSH1 0x40 MLOAD SWAP1 DUP2 MSTORE PUSH1 0x20 ADD PUSH2 0x214 JUMP JUMPDEST PUSH2 0x28A PUSH2 0x2DB CALLDATASIZE PUSH1 0x4 PUSH2 0x2D26 JUMP JUMPDEST PUSH2 0x94E JUMP JUMPDEST CALLVALUE DUP1 ISZERO PUSH2 0x2EC JUMPI PUSH1 0x0 DUP1 REVERT JUMPDEST POP PUSH1 0x5 SLOAD PUSH2 0x2BF JUMP JUMPDEST PUSH2 0x28A PUSH2 0x303 CALLDATASIZE PUSH1 0x4 PUSH2 0x2D26 JUMP JUMPDEST PUSH2 0x980 JUMP JUMPDEST CALLVALUE DUP1 ISZERO PUSH2 0x314 JUMPI PUSH1 0x0 DUP1 REVERT JUMPDEST POP PUSH2 0x2BF PUSH2 0x323 CALLDATASIZE PUSH1 0x4 PUSH2 0x2C97 JUMP JUMPDEST PUSH2 0x98B JUMP JUMPDEST CALLVALUE DUP1 ISZERO PUSH2 0x334 JUMPI PUSH1 0x0 DUP1 REVERT JUMPDEST POP PUSH2 0x2BF PUSH2 0x343 CALLDATASIZE PUSH1 0x4 PUSH2 0x2CC7 JUMP JUMPDEST PUSH2 0x9D3 JUMP JUMPDEST PUSH2 0x28A PUSH2 0x356 CALLDATASIZE PUSH1 0x4 PUSH2 0x2D52 JUMP JUMPDEST PUSH2 0xA74 JUMP JUMPDEST CALLVALUE DUP1 ISZERO PUSH2 0x367 JUMPI PUSH1 0x0 DUP1 REVERT JUMPDEST POP PUSH2 0x232 PUSH2 0x376 CALLDATASIZE PUSH1 0x4 PUSH2 0x2E4B JUMP JUMPDEST PUSH2 0xA7F JUMP JUMPDEST CALLVALUE DUP1 ISZERO PUSH2 0x387 JUMPI PUSH1 0x0 DUP1 REVERT JUMPDEST POP PUSH1 0x2 SLOAD PUSH1 0x40 MLOAD PUSH1 0xFF SWAP1 SWAP2 AND DUP2 MSTORE PUSH1 0x20 ADD PUSH2 0x214 JUMP JUMPDEST PUSH2 0x28A PUSH2 0x3AB CALLDATASIZE PUSH1 0x4 PUSH2 0x2D26 JUMP JUMPDEST PUSH2 0xA93 JUMP JUMPDEST CALLVALUE DUP1 ISZERO PUSH2 0x3BC JUMPI PUSH1 0x0 DUP1 REVERT JUMPDEST POP PUSH2 0x2BF PUSH2 0x3CB CALLDATASIZE PUSH1 0x4 PUSH2 0x2E80 JUMP JUMPDEST PUSH2 0xAAE JUMP JUMPDEST CALLVALUE DUP1 ISZERO PUSH2 0x3DC JUMPI PUSH1 0x0 DUP1 REVERT JUMPDEST POP PUSH2 0x2BF PUSH2 0x3EB CALLDATASIZE PUSH1 0x4 PUSH2 0x2C97 JUMP JUMPDEST PUSH2 0xD05 JUMP JUMPDEST CALLVALUE DUP1 ISZERO PUSH2 0x3FC JUMPI PUSH1 0x0 DUP1 REVERT JUMPDEST POP PUSH2 0x25F PUSH2 0x40B CALLDATASIZE PUSH1 0x4 PUSH2 0x2C97 JUMP JUMPDEST PUSH2 0xD96 JUMP JUMPDEST CALLVALUE DUP1 ISZERO PUSH2 0x41C JUMPI PUSH1 0x0 DUP1 REVERT JUMPDEST POP PUSH2 0x2BF PUSH2 0x42B CALLDATASIZE PUSH1 0x4 PUSH2 0x2F2B JUMP JUMPDEST PUSH2 0xE32 JUMP JUMPDEST CALLVALUE DUP1 ISZERO PUSH2 0x43C JUMPI PUSH1 0x0 DUP1 REVERT JUMPDEST POP PUSH2 0x28A PUSH2 0xEBA JUMP JUMPDEST CALLVALUE DUP1 ISZERO PUSH2 0x451 JUMPI PUSH1 0x0 DUP1 REVERT JUMPDEST POP PUSH1 0x8 SLOAD PUSH2 0x25F SWAP1 PUSH1 0x1 PUSH1 0x1 PUSH1 0xA0 SHL SUB AND DUP2 JUMP JUMPDEST PUSH2 0x28A PUSH2 0x473 CALLDATASIZE PUSH1 0x4 PUSH2 0x2CF1 JUMP JUMPDEST PUSH2 0xECE JUMP JUMPDEST CALLVALUE DUP1 ISZERO PUSH2 0x484 JUMPI PUSH1 0x0 DUP1 REVERT JUMPDEST POP PUSH1 0x9 SLOAD PUSH1 0x1 PUSH1 0x1 PUSH1 0xA0 SHL SUB AND PUSH2 0x25F JUMP JUMPDEST CALLVALUE DUP1 ISZERO PUSH2 0x4A2 JUMPI PUSH1 0x0 DUP1 REVERT JUMPDEST POP PUSH2 0x232 PUSH2 0xF8D JUMP JUMPDEST CALLVALUE DUP1 ISZERO PUSH2 0x4B7 JUMPI PUSH1 0x0 DUP1 REVERT JUMPDEST POP PUSH2 0x2BF PUSH2 0x4C6 CALLDATASIZE PUSH1 0x4 PUSH2 0x2C97 JUMP JUMPDEST PUSH2 0xF9C JUMP JUMPDEST CALLVALUE DUP1 ISZERO PUSH2 0x4D7 JUMPI PUSH1 0x0 DUP1 REVERT JUMPDEST POP PUSH2 0x28A PUSH2 0x4E6 CALLDATASIZE PUSH1 0x4 PUSH2 0x2F54 JUMP JUMPDEST PUSH2 0xFE4 JUMP JUMPDEST PUSH2 0x28A PUSH2 0x4F9 CALLDATASIZE PUSH1 0x4 PUSH2 0x2F8B JUMP JUMPDEST PUSH2 0x102A JUMP JUMPDEST CALLVALUE DUP1 ISZERO PUSH2 0x50A JUMPI PUSH1 0x0 DUP1 REVERT JUMPDEST POP PUSH2 0x232 PUSH2 0x519 CALLDATASIZE PUSH1 0x4 PUSH2 0x2C97 JUMP JUMPDEST PUSH2 0x105C JUMP JUMPDEST CALLVALUE DUP1 ISZERO PUSH2 0x52A JUMPI PUSH1 0x0 DUP1 REVERT JUMPDEST POP PUSH2 0x2BF PUSH2 0x539 CALLDATASIZE PUSH1 0x4 PUSH2 0x3007 JUMP JUMPDEST PUSH2 0x10EE JUMP JUMPDEST CALLVALUE DUP1 ISZERO PUSH2 0x54A JUMPI PUSH1 0x0 DUP1 REVERT JUMPDEST POP PUSH2 0x232 PUSH2 0x1122 JUMP JUMPDEST CALLVALUE DUP1 ISZERO PUSH2 0x55F JUMPI PUSH1 0x0 DUP1 REVERT JUMPDEST POP PUSH2 0x208 PUSH2 0x56E CALLDATASIZE PUSH1 0x4 PUSH2 0x3033 JUMP JUMPDEST PUSH1 0x1 PUSH1 0x1 PUSH1 0xA0 SHL SUB SWAP2 DUP3 AND PUSH1 0x0 SWAP1 DUP2 MSTORE PUSH1 0x7 PUSH1 0x20 SWAP1 DUP2 MSTORE PUSH1 0x40 DUP1 DUP4 KECCAK256 SWAP4 SWAP1 SWAP5 AND DUP3 MSTORE PUSH1 0x2 SWAP1 SWAP3 ADD SWAP1 SWAP2 MSTORE KECCAK256 SLOAD PUSH1 0xFF AND SWAP1 JUMP JUMPDEST CALLVALUE DUP1 ISZERO PUSH2 0x5AC JUMPI PUSH1 0x0 DUP1 REVERT JUMPDEST POP PUSH2 0x28A PUSH2 0x5BB CALLDATASIZE PUSH1 0x4 PUSH2 0x2F2B JUMP JUMPDEST PUSH2 0x120F JUMP JUMPDEST PUSH1 0x0 PUSH1 0x1 PUSH1 0x1 PUSH1 0xE0 SHL SUB NOT DUP3 AND PUSH4 0x1FFC9A7 PUSH1 0xE0 SHL EQ DUP1 PUSH2 0x5F1 JUMPI POP PUSH1 0x1 PUSH1 0x1 PUSH1 0xE0 SHL SUB NOT DUP3 AND PUSH4 0x354D605 PUSH1 0xE6 SHL EQ JUMPDEST DUP1 PUSH2 0x60C JUMPI POP PUSH1 0x1 PUSH1 0x1 PUSH1 0xE0 SHL SUB NOT DUP3 AND PUSH4 0x80AC58CD PUSH1 0xE0 SHL EQ JUMPDEST DUP1 PUSH2 0x627 JUMPI POP PUSH1 0x1 PUSH1 0x1 PUSH1 0xE0 SHL SUB NOT DUP3 AND PUSH4 0x70B00481 PUSH1 0xE1 SHL EQ JUMPDEST DUP1 PUSH2 0x642 JUMPI POP PUSH1 0x1 PUSH1 0x1 PUSH1 0xE0 SHL SUB NOT DUP3 AND PUSH4 0x780E9D63 PUSH1 0xE0 SHL EQ JUMPDEST DUP1 PUSH2 0x65D JUMPI POP PUSH1 0x1 PUSH1 0x1 PUSH1 0xE0 SHL SUB NOT DUP3 AND PUSH4 0x5B5E139F PUSH1 0xE0 SHL EQ JUMPDEST SWAP3 SWAP2 POP POP JUMP JUMPDEST PUSH1 0x60 PUSH1 0x0 DUP1 SLOAD PUSH2 0x672 SWAP1 PUSH2 0x305D JUMP JUMPDEST DUP1 PUSH1 0x1F ADD PUSH1 0x20 DUP1 SWAP2 DIV MUL PUSH1 0x20 ADD PUSH1 0x40 MLOAD SWAP1 DUP2 ADD PUSH1 0x40 MSTORE DUP1 SWAP3 SWAP2 SWAP1 DUP2 DUP2 MSTORE PUSH1 0x20 ADD DUP3 DUP1 SLOAD PUSH2 0x69E SWAP1 PUSH2 0x305D JUMP JUMPDEST DUP1 ISZERO PUSH2 0x6EB JUMPI DUP1 PUSH1 0x1F LT PUSH2 0x6C0 JUMPI PUSH2 0x100 DUP1 DUP4 SLOAD DIV MUL DUP4 MSTORE SWAP2 PUSH1 0x20 ADD SWAP2 PUSH2 0x6EB JUMP JUMPDEST DUP3 ADD SWAP2 SWAP1 PUSH1 0x0 MSTORE PUSH1 0x20 PUSH1 0x0 KECCAK256 SWAP1 JUMPDEST DUP2 SLOAD DUP2 MSTORE SWAP1 PUSH1 0x1 ADD SWAP1 PUSH1 0x20 ADD DUP1 DUP4 GT PUSH2 0x6CE JUMPI DUP3 SWAP1 SUB PUSH1 0x1F AND DUP3 ADD SWAP2 JUMPDEST POP POP POP POP POP SWAP1 POP SWAP1 JUMP JUMPDEST PUSH1 0x0 PUSH2 0x700 DUP3 PUSH2 0x1288 JUMP JUMPDEST PUSH1 0x0 DUP3 DUP2 MSTORE PUSH1 0x6 PUSH1 0x20 MSTORE PUSH1 0x40 SWAP1 KECCAK256 SLOAD PUSH1 0x5 DUP1 SLOAD SWAP1 SWAP2 SWAP1 DUP2 LT PUSH2 0x724 JUMPI PUSH2 0x724 PUSH2 0x3091 JUMP JUMPDEST PUSH1 0x0 SWAP2 DUP3 MSTORE PUSH1 0x20 SWAP1 SWAP2 KECCAK256 PUSH1 0x4 PUSH1 0x6 SWAP1 SWAP3 MUL ADD ADD SLOAD PUSH1 0x1 PUSH1 0x1 PUSH1 0xA0 SHL SUB AND SWAP3 SWAP2 POP POP JUMP JUMPDEST PUSH1 0x0 PUSH2 0x752 DUP3 PUSH2 0xD96 JUMP JUMPDEST SWAP1 POP DUP1 PUSH1 0x1 PUSH1 0x1 PUSH1 0xA0 SHL SUB AND DUP4 PUSH1 0x1 PUSH1 0x1 PUSH1 0xA0 SHL SUB AND SUB PUSH2 0x78E JUMPI PUSH1 0x40 MLOAD PUSH3 0x461BCD PUSH1 0xE5 SHL DUP2 MSTORE PUSH1 0x4 ADD PUSH2 0x785 SWAP1 PUSH2 0x30A7 JUMP JUMPDEST PUSH1 0x40 MLOAD DUP1 SWAP2 SUB SWAP1 REVERT JUMPDEST CALLER PUSH1 0x1 PUSH1 0x1 PUSH1 0xA0 SHL SUB DUP3 AND EQ DUP1 PUSH2 0x7AA JUMPI POP PUSH2 0x7AA DUP2 CALLER PUSH2 0x56E JUMP JUMPDEST PUSH2 0x81C JUMPI PUSH1 0x40 MLOAD PUSH3 0x461BCD PUSH1 0xE5 SHL DUP2 MSTORE PUSH1 0x20 PUSH1 0x4 DUP3 ADD MSTORE PUSH1 0x39 PUSH1 0x24 DUP3 ADD MSTORE PUSH32 0x455243333532353A20617070726F76652063616C6C6572206973206E6F74206F PUSH1 0x44 DUP3 ADD MSTORE PUSH32 0x776E6572206E6F7220617070726F76656420666F7220616C6C00000000000000 PUSH1 0x64 DUP3 ADD MSTORE PUSH1 0x84 ADD PUSH2 0x785 JUMP JUMPDEST PUSH2 0x826 DUP4 DUP4 PUSH2 0x12D9 JUMP JUMPDEST POP POP POP JUMP JUMPDEST PUSH1 0x60 PUSH1 0x0 PUSH2 0x837 PUSH2 0x1370 JUMP JUMPDEST PUSH1 0x8 SLOAD SWAP1 SWAP2 POP PUSH1 0x1 PUSH1 0x1 PUSH1 0xA0 SHL SUB AND PUSH2 0x897 JUMPI PUSH1 0x0 DUP2 MLOAD GT PUSH2 0x868 JUMPI PUSH1 0x40 MLOAD DUP1 PUSH1 0x20 ADD PUSH1 0x40 MSTORE DUP1 PUSH1 0x0 DUP2 MSTORE POP PUSH2 0x909 JUMP JUMPDEST DUP1 PUSH2 0x872 DUP5 PUSH2 0x137F JUMP JUMPDEST PUSH1 0x40 MLOAD PUSH1 0x20 ADD PUSH2 0x883 SWAP3 SWAP2 SWAP1 PUSH2 0x30E9 JUMP JUMPDEST PUSH1 0x40 MLOAD PUSH1 0x20 DUP2 DUP4 SUB SUB DUP2 MSTORE SWAP1 PUSH1 0x40 MSTORE PUSH2 0x909 JUMP JUMPDEST PUSH1 0x8 SLOAD PUSH1 0x40 MLOAD PUSH4 0x3601BFC5 PUSH1 0xE1 SHL DUP2 MSTORE PUSH1 0x4 DUP2 ADD DUP6 SWAP1 MSTORE PUSH1 0x1 PUSH1 0x1 PUSH1 0xA0 SHL SUB SWAP1 SWAP2 AND SWAP1 PUSH4 0x6C037F8A SWAP1 PUSH1 0x24 ADD JUMPDEST PUSH1 0x0 PUSH1 0x40 MLOAD DUP1 DUP4 SUB DUP2 DUP7 GAS STATICCALL ISZERO DUP1 ISZERO PUSH2 0x8E1 JUMPI RETURNDATASIZE PUSH1 0x0 DUP1 RETURNDATACOPY RETURNDATASIZE PUSH1 0x0 REVERT JUMPDEST POP POP POP POP PUSH1 0x40 MLOAD RETURNDATASIZE PUSH1 0x0 DUP3 RETURNDATACOPY PUSH1 0x1F RETURNDATASIZE SWAP1 DUP2 ADD PUSH1 0x1F NOT AND DUP3 ADD PUSH1 0x40 MSTORE PUSH2 0x909 SWAP2 SWAP1 DUP2 ADD SWAP1 PUSH2 0x3129 JUMP JUMPDEST SWAP4 SWAP3 POP POP POP JUMP JUMPDEST PUSH1 0x0 PUSH2 0x91D DUP5 DUP5 DUP5 PUSH2 0x1412 JUMP JUMPDEST POP PUSH1 0x0 DUP5 DUP2 MSTORE PUSH1 0xE PUSH1 0x20 MSTORE PUSH1 0x40 DUP2 KECCAK256 SLOAD PUSH1 0xD DUP1 SLOAD SWAP1 SWAP2 SWAP1 DUP2 LT PUSH2 0x942 JUMPI PUSH2 0x942 PUSH2 0x3091 JUMP JUMPDEST POP PUSH1 0x0 MSTORE POP SWAP4 SWAP3 POP POP POP JUMP JUMPDEST PUSH2 0x959 CALLER JUMPDEST DUP3 PUSH2 0x144A JUMP JUMPDEST PUSH2 0x975 JUMPI PUSH1 0x40 MLOAD PUSH3 0x461BCD PUSH1 0xE5 SHL DUP2 MSTORE PUSH1 0x4 ADD PUSH2 0x785 SWAP1 PUSH2 0x31A0 JUMP JUMPDEST PUSH2 0x826 DUP4 DUP4 DUP4 PUSH2 0xA93 JUMP JUMPDEST PUSH2 0x826 DUP4 DUP4 DUP4 PUSH2 0x14CD JUMP JUMPDEST PUSH1 0x0 PUSH2 0x996 DUP3 PUSH2 0x1288 JUMP JUMPDEST PUSH1 0x0 DUP3 DUP2 MSTORE PUSH1 0x6 PUSH1 0x20 MSTORE PUSH1 0x40 SWAP1 KECCAK256 SLOAD PUSH1 0x5 DUP1 SLOAD SWAP1 SWAP2 SWAP1 DUP2 LT PUSH2 0x9BA JUMPI PUSH2 0x9BA PUSH2 0x3091 JUMP JUMPDEST SWAP1 PUSH1 0x0 MSTORE PUSH1 0x20 PUSH1 0x0 KECCAK256 SWAP1 PUSH1 0x6 MUL ADD PUSH1 0x1 ADD SLOAD SWAP1 POP SWAP2 SWAP1 POP JUMP JUMPDEST PUSH1 0x0 PUSH2 0x9DE DUP4 PUSH2 0xE32 JUMP JUMPDEST DUP3 LT PUSH2 0xA37 JUMPI PUSH1 0x40 MLOAD PUSH3 0x461BCD PUSH1 0xE5 SHL DUP2 MSTORE PUSH1 0x20 PUSH1 0x4 DUP3 ADD MSTORE PUSH1 0x22 PUSH1 0x24 DUP3 ADD MSTORE PUSH32 0x455243333532353A206F776E657220696E646578206F7574206F6620626F756E PUSH1 0x44 DUP3 ADD MSTORE PUSH2 0x6473 PUSH1 0xF0 SHL PUSH1 0x64 DUP3 ADD MSTORE PUSH1 0x84 ADD PUSH2 0x785 JUMP JUMPDEST PUSH1 0x1 PUSH1 0x1 PUSH1 0xA0 SHL SUB DUP4 AND PUSH1 0x0 SWAP1 DUP2 MSTORE PUSH1 0x7 PUSH1 0x20 MSTORE PUSH1 0x40 SWAP1 KECCAK256 DUP1 SLOAD DUP4 SWAP1 DUP2 LT PUSH2 0xA61 JUMPI PUSH2 0xA61 PUSH2 0x3091 JUMP JUMPDEST SWAP1 PUSH1 0x0 MSTORE PUSH1 0x20 PUSH1 0x0 KECCAK256 ADD SLOAD SWAP1 POP SWAP3 SWAP2 POP POP JUMP JUMPDEST PUSH2 0x826 DUP4 DUP4 DUP4 PUSH2 0x14FD JUMP JUMPDEST PUSH1 0x60 PUSH1 0xB PUSH2 0xA8D DUP4 DUP3 PUSH2 0x3238 JUMP JUMPDEST POP SWAP2 SWAP1 POP JUMP JUMPDEST PUSH2 0x826 DUP4 DUP4 DUP4 PUSH1 0x40 MLOAD DUP1 PUSH1 0x20 ADD PUSH1 0x40 MSTORE DUP1 PUSH1 0x0 DUP2 MSTORE POP PUSH2 0x102A JUMP JUMPDEST PUSH1 0x0 PUSH2 0xAB8 PUSH2 0x1513 JUMP JUMPDEST PUSH1 0x0 PUSH2 0xAC2 PUSH2 0x156D JUMP JUMPDEST PUSH1 0xC SLOAD PUSH1 0x40 MLOAD PUSH4 0x94BF804D PUSH1 0xE0 SHL DUP2 MSTORE PUSH1 0x4 DUP2 ADD DUP10 SWAP1 MSTORE ADDRESS PUSH1 0x24 DUP3 ADD MSTORE SWAP2 SWAP3 POP PUSH1 0x1 PUSH1 0x1 PUSH1 0xA0 SHL SUB AND SWAP1 PUSH4 0x94BF804D SWAP1 PUSH1 0x44 ADD PUSH1 0x0 PUSH1 0x40 MLOAD DUP1 DUP4 SUB DUP2 PUSH1 0x0 DUP8 DUP1 EXTCODESIZE ISZERO DUP1 ISZERO PUSH2 0xB0F JUMPI PUSH1 0x0 DUP1 REVERT JUMPDEST POP GAS CALL ISZERO DUP1 ISZERO PUSH2 0xB23 JUMPI RETURNDATASIZE PUSH1 0x0 DUP1 RETURNDATACOPY RETURNDATASIZE PUSH1 0x0 REVERT JUMPDEST POP POP POP POP PUSH2 0xB33 DUP9 DUP3 DUP10 DUP10 PUSH2 0x1584 JUMP JUMPDEST PUSH1 0x40 DUP1 MLOAD PUSH1 0xC0 DUP2 ADD DUP3 MSTORE DUP3 DUP2 MSTORE PUSH1 0x20 DUP1 DUP3 ADD DUP11 SWAP1 MSTORE DUP2 DUP4 ADD DUP10 SWAP1 MSTORE PUSH1 0x1 PUSH1 0x1 PUSH1 0xA0 SHL SUB DUP12 AND PUSH1 0x60 DUP4 ADD MSTORE PUSH1 0x0 PUSH1 0x80 DUP4 ADD DUP2 SWAP1 MSTORE DUP4 MLOAD DUP2 DUP2 MSTORE SWAP2 DUP3 ADD SWAP1 SWAP4 MSTORE PUSH1 0xA0 DUP3 ADD MSTORE SWAP1 POP PUSH2 0xB81 DUP2 PUSH2 0x16AE JUMP JUMPDEST PUSH2 0xB8B DUP10 DUP4 PUSH2 0x1800 JUMP JUMPDEST PUSH1 0x8 SLOAD PUSH1 0x40 MLOAD PUSH4 0x21089475 PUSH1 0xE2 SHL DUP2 MSTORE PUSH1 0x1 PUSH1 0x1 PUSH1 0xA0 SHL SUB SWAP1 SWAP2 AND SWAP1 PUSH4 0x842251D4 SWAP1 PUSH2 0xBBD SWAP1 DUP6 SWAP1 DUP11 SWAP1 PUSH1 0x4 ADD PUSH2 0x32F8 JUMP JUMPDEST PUSH1 0x0 PUSH1 0x40 MLOAD DUP1 DUP4 SUB DUP2 PUSH1 0x0 DUP8 DUP1 EXTCODESIZE ISZERO DUP1 ISZERO PUSH2 0xBD7 JUMPI PUSH1 0x0 DUP1 REVERT JUMPDEST POP GAS CALL ISZERO DUP1 ISZERO PUSH2 0xBEB JUMPI RETURNDATASIZE PUSH1 0x0 DUP1 RETURNDATACOPY RETURNDATASIZE PUSH1 0x0 REVERT JUMPDEST POP POP PUSH1 0x8 SLOAD PUSH1 0x40 MLOAD PUSH4 0x246A908B PUSH1 0xE0 SHL DUP2 MSTORE PUSH1 0x1 PUSH1 0x1 PUSH1 0xA0 SHL SUB SWAP1 SWAP2 AND SWAP3 POP PUSH4 0x246A908B SWAP2 POP PUSH2 0xC21 SWAP1 DUP6 SWAP1 DUP10 SWAP1 PUSH1 0x4 ADD PUSH2 0x32F8 JUMP JUMPDEST PUSH1 0x0 PUSH1 0x40 MLOAD DUP1 DUP4 SUB DUP2 PUSH1 0x0 DUP8 DUP1 EXTCODESIZE ISZERO DUP1 ISZERO PUSH2 0xC3B JUMPI PUSH1 0x0 DUP1 REVERT JUMPDEST POP GAS CALL ISZERO DUP1 ISZERO PUSH2 0xC4F JUMPI RETURNDATASIZE PUSH1 0x0 DUP1 RETURNDATACOPY RETURNDATASIZE PUSH1 0x0 REVERT JUMPDEST POP POP PUSH1 0x8 SLOAD PUSH1 0x40 MLOAD PUSH4 0x190503B PUSH1 0xE6 SHL DUP2 MSTORE PUSH1 0x1 PUSH1 0x1 PUSH1 0xA0 SHL SUB SWAP1 SWAP2 AND SWAP3 POP PUSH4 0x64140EC0 SWAP2 POP PUSH2 0xC85 SWAP1 DUP6 SWAP1 DUP9 SWAP1 PUSH1 0x4 ADD PUSH2 0x32F8 JUMP JUMPDEST PUSH1 0x0 PUSH1 0x40 MLOAD DUP1 DUP4 SUB DUP2 PUSH1 0x0 DUP8 DUP1 EXTCODESIZE ISZERO DUP1 ISZERO PUSH2 0xC9F JUMPI PUSH1 0x0 DUP1 REVERT JUMPDEST POP GAS CALL ISZERO DUP1 ISZERO PUSH2 0xCB3 JUMPI RETURNDATASIZE PUSH1 0x0 DUP1 RETURNDATACOPY RETURNDATASIZE PUSH1 0x0 REVERT JUMPDEST POP POP PUSH1 0x40 DUP1 MLOAD DUP6 DUP2 MSTORE PUSH1 0x20 DUP2 ADD DUP13 SWAP1 MSTORE SWAP1 DUP2 ADD DUP11 SWAP1 MSTORE PUSH32 0x84EEB48ECA46CEA54AFC9753345F6038981672EA565F32885420829DFD88AEA6 SWAP3 POP PUSH1 0x60 ADD SWAP1 POP PUSH1 0x40 MLOAD DUP1 SWAP2 SUB SWAP1 LOG1 POP SWAP8 SWAP7 POP POP POP POP POP POP POP JUMP JUMPDEST PUSH1 0x0 PUSH2 0xD10 PUSH1 0x5 SLOAD SWAP1 JUMP JUMPDEST DUP3 LT PUSH2 0xD6A JUMPI PUSH1 0x40 MLOAD PUSH3 0x461BCD PUSH1 0xE5 SHL DUP2 MSTORE PUSH1 0x20 PUSH1 0x4 DUP3 ADD MSTORE PUSH1 0x23 PUSH1 0x24 DUP3 ADD MSTORE PUSH32 0x455243333532353A20676C6F62616C20696E646578206F7574206F6620626F75 PUSH1 0x44 DUP3 ADD MSTORE PUSH3 0x6E6473 PUSH1 0xE8 SHL PUSH1 0x64 DUP3 ADD MSTORE PUSH1 0x84 ADD PUSH2 0x785 JUMP JUMPDEST PUSH1 0x5 DUP3 DUP2 SLOAD DUP2 LT PUSH2 0xD7D JUMPI PUSH2 0xD7D PUSH2 0x3091 JUMP JUMPDEST SWAP1 PUSH1 0x0 MSTORE PUSH1 0x20 PUSH1 0x0 KECCAK256 SWAP1 PUSH1 0x6 MUL ADD PUSH1 0x0 ADD SLOAD SWAP1 POP SWAP2 SWAP1 POP JUMP JUMPDEST PUSH1 0x0 PUSH2 0xDA1 DUP3 PUSH2 0x1288 JUMP JUMPDEST PUSH1 0x0 DUP3 DUP2 MSTORE PUSH1 0x6 PUSH1 0x20 MSTORE PUSH1 0x40 SWAP1 KECCAK256 SLOAD PUSH1 0x5 DUP1 SLOAD SWAP1 SWAP2 SWAP1 DUP2 LT PUSH2 0xDC5 JUMPI PUSH2 0xDC5 PUSH2 0x3091 JUMP JUMPDEST PUSH1 0x0 SWAP2 DUP3 MSTORE PUSH1 0x20 SWAP1 SWAP2 KECCAK256 PUSH1 0x3 PUSH1 0x6 SWAP1 SWAP3 MUL ADD ADD SLOAD PUSH1 0x1 PUSH1 0x1 PUSH1 0xA0 SHL SUB AND SWAP1 POP DUP1 PUSH2 0xE2D JUMPI PUSH1 0x40 MLOAD PUSH3 0x461BCD PUSH1 0xE5 SHL DUP2 MSTORE PUSH1 0x20 PUSH1 0x4 DUP3 ADD MSTORE PUSH1 0x19 PUSH1 0x24 DUP3 ADD MSTORE PUSH25 0x115490CCCD4C8D4E881A5B9D985B1A59081D1BDAD95B881251 PUSH1 0x3A SHL PUSH1 0x44 DUP3 ADD MSTORE PUSH1 0x64 ADD PUSH2 0x785 JUMP JUMPDEST SWAP2 SWAP1 POP JUMP JUMPDEST PUSH1 0x0 PUSH1 0x1 PUSH1 0x1 PUSH1 0xA0 SHL SUB DUP3 AND PUSH2 0xE9E JUMPI PUSH1 0x40 MLOAD PUSH3 0x461BCD PUSH1 0xE5 SHL DUP2 MSTORE PUSH1 0x20 PUSH1 0x4 DUP3 ADD MSTORE PUSH1 0x2B PUSH1 0x24 DUP3 ADD MSTORE PUSH32 0x455243333532353A2062616C616E636520717565727920666F7220746865207A PUSH1 0x44 DUP3 ADD MSTORE PUSH11 0x65726F2061646472657373 PUSH1 0xA8 SHL PUSH1 0x64 DUP3 ADD MSTORE PUSH1 0x84 ADD PUSH2 0x785 JUMP JUMPDEST POP PUSH1 0x1 PUSH1 0x1 PUSH1 0xA0 SHL SUB AND PUSH1 0x0 SWAP1 DUP2 MSTORE PUSH1 0x7 PUSH1 0x20 MSTORE PUSH1 0x40 SWAP1 KECCAK256 SLOAD SWAP1 JUMP JUMPDEST PUSH2 0xEC2 PUSH2 0x1513 JUMP JUMPDEST PUSH2 0xECC PUSH1 0x0 PUSH2 0x1889 JUMP JUMPDEST JUMP JUMPDEST PUSH1 0x0 PUSH2 0xED9 DUP5 PUSH2 0xD96 JUMP JUMPDEST SWAP1 POP DUP1 PUSH1 0x1 PUSH1 0x1 PUSH1 0xA0 SHL SUB AND DUP4 PUSH1 0x1 PUSH1 0x1 PUSH1 0xA0 SHL SUB AND SUB PUSH2 0xF0C JUMPI PUSH1 0x40 MLOAD PUSH3 0x461BCD PUSH1 0xE5 SHL DUP2 MSTORE PUSH1 0x4 ADD PUSH2 0x785 SWAP1 PUSH2 0x30A7 JUMP JUMPDEST PUSH2 0xF16 CALLER DUP6 PUSH2 0x144A JUMP JUMPDEST PUSH2 0xF7C JUMPI PUSH1 0x40 MLOAD PUSH3 0x461BCD PUSH1 0xE5 SHL DUP2 MSTORE PUSH1 0x20 PUSH1 0x4 DUP3 ADD MSTORE PUSH1 0x31 PUSH1 0x24 DUP3 ADD MSTORE PUSH32 0x455243333532353A20617070726F76652063616C6C6572206973206E6F74206F PUSH1 0x44 DUP3 ADD MSTORE PUSH17 0x1DDB995C881B9BDC88185C1C1C9BDD9959 PUSH1 0x7A SHL PUSH1 0x64 DUP3 ADD MSTORE PUSH1 0x84 ADD PUSH2 0x785 JUMP JUMPDEST PUSH2 0xF87 DUP5 DUP5 DUP5 PUSH2 0x18DB JUMP JUMPDEST POP POP POP POP JUMP JUMPDEST PUSH1 0x60 PUSH1 0x1 DUP1 SLOAD PUSH2 0x672 SWAP1 PUSH2 0x305D JUMP JUMPDEST PUSH1 0x0 PUSH2 0xFA7 DUP3 PUSH2 0x1288 JUMP JUMPDEST PUSH1 0x0 DUP3 DUP2 MSTORE PUSH1 0x6 PUSH1 0x20 MSTORE PUSH1 0x40 SWAP1 KECCAK256 SLOAD PUSH1 0x5 DUP1 SLOAD SWAP1 SWAP2 SWAP1 DUP2 LT PUSH2 0xFCB JUMPI PUSH2 0xFCB PUSH2 0x3091 JUMP JUMPDEST SWAP1 PUSH1 0x0 MSTORE PUSH1 0x20 PUSH1 0x0 KECCAK256 SWAP1 PUSH1 0x6 MUL ADD PUSH1 0x2 ADD SLOAD SWAP1 POP SWAP2 SWAP1 POP JUMP JUMPDEST PUSH2 0xFEE DUP3 DUP3 PUSH2 0x1A13 JUMP JUMPDEST CALLER PUSH1 0x0 SWAP1 DUP2 MSTORE PUSH1 0xF PUSH1 0x20 SWAP1 DUP2 MSTORE PUSH1 0x40 DUP1 DUP4 KECCAK256 PUSH1 0x1 PUSH1 0x1 PUSH1 0xA0 SHL SUB SWAP6 SWAP1 SWAP6 AND DUP4 MSTORE PUSH1 0x2 SWAP1 SWAP5 ADD SWAP1 MSTORE SWAP2 SWAP1 SWAP2 KECCAK256 DUP1 SLOAD PUSH1 0xFF NOT AND SWAP2 ISZERO ISZERO SWAP2 SWAP1 SWAP2 OR SWAP1 SSTORE JUMP JUMPDEST PUSH2 0x1034 CALLER DUP4 PUSH2 0x144A JUMP JUMPDEST PUSH2 0x1050 JUMPI PUSH1 0x40 MLOAD PUSH3 0x461BCD PUSH1 0xE5 SHL DUP2 MSTORE PUSH1 0x4 ADD PUSH2 0x785 SWAP1 PUSH2 0x31A0 JUMP JUMPDEST PUSH2 0xF87 DUP5 DUP5 DUP5 DUP5 PUSH2 0x1A22 JUMP JUMPDEST PUSH1 0x60 PUSH2 0x1067 DUP3 PUSH2 0x1288 JUMP JUMPDEST PUSH1 0x0 PUSH2 0x1071 PUSH2 0x1370 JUMP JUMPDEST PUSH1 0x8 SLOAD SWAP1 SWAP2 POP PUSH1 0x1 PUSH1 0x1 PUSH1 0xA0 SHL SUB AND PUSH2 0x10BD JUMPI PUSH1 0x0 DUP2 MLOAD GT PUSH2 0x10A2 JUMPI PUSH1 0x40 MLOAD DUP1 PUSH1 0x20 ADD PUSH1 0x40 MSTORE DUP1 PUSH1 0x0 DUP2 MSTORE POP PUSH2 0x909 JUMP JUMPDEST DUP1 PUSH2 0x10AC DUP5 PUSH2 0x137F JUMP JUMPDEST PUSH1 0x40 MLOAD PUSH1 0x20 ADD PUSH2 0x883 SWAP3 SWAP2 SWAP1 PUSH2 0x3311 JUMP JUMPDEST PUSH1 0x8 SLOAD PUSH1 0x40 MLOAD PUSH4 0x44A5A617 PUSH1 0xE1 SHL DUP2 MSTORE PUSH1 0x4 DUP2 ADD DUP6 SWAP1 MSTORE PUSH1 0x1 PUSH1 0x1 PUSH1 0xA0 SHL SUB SWAP1 SWAP2 AND SWAP1 PUSH4 0x894B4C2E SWAP1 PUSH1 0x24 ADD PUSH2 0x8C4 JUMP JUMPDEST PUSH1 0x0 PUSH2 0x10F9 DUP4 PUSH2 0x1288 JUMP JUMPDEST POP PUSH1 0x0 SWAP2 DUP3 MSTORE PUSH1 0x4 PUSH1 0x20 SWAP1 DUP2 MSTORE PUSH1 0x40 DUP1 DUP5 KECCAK256 PUSH1 0x1 PUSH1 0x1 PUSH1 0xA0 SHL SUB SWAP4 SWAP1 SWAP4 AND DUP5 MSTORE SWAP2 SWAP1 MSTORE SWAP1 KECCAK256 SLOAD SWAP1 JUMP JUMPDEST PUSH1 0x60 PUSH1 0x0 PUSH2 0x112E PUSH2 0x1370 JUMP JUMPDEST PUSH1 0x8 SLOAD SWAP1 SWAP2 POP PUSH1 0x1 PUSH1 0x1 PUSH1 0xA0 SHL SUB AND PUSH2 0x118E JUMPI PUSH1 0x0 DUP2 MLOAD GT PUSH2 0x115F JUMPI PUSH1 0x40 MLOAD DUP1 PUSH1 0x20 ADD PUSH1 0x40 MSTORE DUP1 PUSH1 0x0 DUP2 MSTORE POP PUSH2 0x1209 JUMP JUMPDEST DUP1 PUSH2 0x1169 ADDRESS PUSH2 0x1A95 JUMP JUMPDEST PUSH1 0x40 MLOAD PUSH1 0x20 ADD PUSH2 0x117A SWAP3 SWAP2 SWAP1 PUSH2 0x3340 JUMP JUMPDEST PUSH1 0x40 MLOAD PUSH1 0x20 DUP2 DUP4 SUB SUB DUP2 MSTORE SWAP1 PUSH1 0x40 MSTORE PUSH2 0x1209 JUMP JUMPDEST PUSH1 0x8 PUSH1 0x0 SWAP1 SLOAD SWAP1 PUSH2 0x100 EXP SWAP1 DIV PUSH1 0x1 PUSH1 0x1 PUSH1 0xA0 SHL SUB AND PUSH1 0x1 PUSH1 0x1 PUSH1 0xA0 SHL SUB AND PUSH4 0x725FA09C PUSH1 0x40 MLOAD DUP2 PUSH4 0xFFFFFFFF AND PUSH1 0xE0 SHL DUP2 MSTORE PUSH1 0x4 ADD PUSH1 0x0 PUSH1 0x40 MLOAD DUP1 DUP4 SUB DUP2 DUP7 GAS STATICCALL ISZERO DUP1 ISZERO PUSH2 0x11E1 JUMPI RETURNDATASIZE PUSH1 0x0 DUP1 RETURNDATACOPY RETURNDATASIZE PUSH1 0x0 REVERT JUMPDEST POP POP POP POP PUSH1 0x40 MLOAD RETURNDATASIZE PUSH1 0x0 DUP3 RETURNDATACOPY PUSH1 0x1F RETURNDATASIZE SWAP1 DUP2 ADD PUSH1 0x1F NOT AND DUP3 ADD PUSH1 0x40 MSTORE PUSH2 0x1209 SWAP2 SWAP1 DUP2 ADD SWAP1 PUSH2 0x3129 JUMP JUMPDEST SWAP2 POP POP SWAP1 JUMP JUMPDEST PUSH2 0x1217 PUSH2 0x1513 JUMP JUMPDEST PUSH1 0x1 PUSH1 0x1 PUSH1 0xA0 SHL SUB DUP2 AND PUSH2 0x127C JUMPI PUSH1 0x40 MLOAD PUSH3 0x461BCD PUSH1 0xE5 SHL DUP2 MSTORE PUSH1 0x20 PUSH1 0x4 DUP3 ADD MSTORE PUSH1 0x26 PUSH1 0x24 DUP3 ADD MSTORE PUSH32 0x4F776E61626C653A206E6577206F776E657220697320746865207A65726F2061 PUSH1 0x44 DUP3 ADD MSTORE PUSH6 0x646472657373 PUSH1 0xD0 SHL PUSH1 0x64 DUP3 ADD MSTORE PUSH1 0x84 ADD PUSH2 0x785 JUMP JUMPDEST PUSH2 0x1285 DUP2 PUSH2 0x1889 JUMP JUMPDEST POP JUMP JUMPDEST PUSH2 0x1291 DUP2 PUSH2 0x1AAB JUMP JUMPDEST PUSH2 0x1285 JUMPI PUSH1 0x40 MLOAD PUSH3 0x461BCD PUSH1 0xE5 SHL DUP2 MSTORE PUSH1 0x20 PUSH1 0x4 DUP3 ADD MSTORE PUSH1 0x19 PUSH1 0x24 DUP3 ADD MSTORE PUSH25 0x115490CCCD4C8D4E881A5B9D985B1A59081D1BDAD95B881251 PUSH1 0x3A SHL PUSH1 0x44 DUP3 ADD MSTORE PUSH1 0x64 ADD PUSH2 0x785 JUMP JUMPDEST PUSH1 0x0 DUP2 DUP2 MSTORE PUSH1 0x6 PUSH1 0x20 MSTORE PUSH1 0x40 SWAP1 KECCAK256 SLOAD PUSH1 0x5 DUP1 SLOAD DUP5 SWAP3 SWAP1 DUP2 LT PUSH2 0x12FD JUMPI PUSH2 0x12FD PUSH2 0x3091 JUMP JUMPDEST PUSH1 0x0 SWAP2 DUP3 MSTORE PUSH1 0x20 SWAP1 SWAP2 KECCAK256 PUSH1 0x6 SWAP1 SWAP2 MUL ADD PUSH1 0x4 ADD DUP1 SLOAD PUSH1 0x1 PUSH1 0x1 PUSH1 0xA0 SHL SUB NOT AND PUSH1 0x1 PUSH1 0x1 PUSH1 0xA0 SHL SUB SWAP3 DUP4 AND OR SWAP1 SSTORE DUP2 SWAP1 DUP4 AND PUSH2 0x1337 DUP3 PUSH2 0xD96 JUMP JUMPDEST PUSH1 0x1 PUSH1 0x1 PUSH1 0xA0 SHL SUB AND PUSH32 0x8C5BE1E5EBEC7D5BD14F71427D1E84F3DD0314C0F7B2291E5B200AC8C7C3B925 PUSH1 0x40 MLOAD PUSH1 0x40 MLOAD DUP1 SWAP2 SUB SWAP1 LOG4 POP POP JUMP JUMPDEST PUSH1 0x60 PUSH1 0xB DUP1 SLOAD PUSH2 0x672 SWAP1 PUSH2 0x305D JUMP JUMPDEST PUSH1 0x60 PUSH1 0x0 PUSH2 0x138C DUP4 PUSH2 0x1AF7 JUMP JUMPDEST PUSH1 0x1 ADD SWAP1 POP PUSH1 0x0 DUP2 PUSH8 0xFFFFFFFFFFFFFFFF DUP2 GT ISZERO PUSH2 0x13AC JUMPI PUSH2 0x13AC PUSH2 0x2D7E JUMP JUMPDEST PUSH1 0x40 MLOAD SWAP1 DUP1 DUP3 MSTORE DUP1 PUSH1 0x1F ADD PUSH1 0x1F NOT AND PUSH1 0x20 ADD DUP3 ADD PUSH1 0x40 MSTORE DUP1 ISZERO PUSH2 0x13D6 JUMPI PUSH1 0x20 DUP3 ADD DUP2 DUP1 CALLDATASIZE DUP4 CALLDATACOPY ADD SWAP1 POP JUMPDEST POP SWAP1 POP DUP2 DUP2 ADD PUSH1 0x20 ADD JUMPDEST PUSH1 0x0 NOT ADD PUSH16 0x181899199A1A9B1B9C1CB0B131B232B3 PUSH1 0x81 SHL PUSH1 0xA DUP7 MOD BYTE DUP2 MSTORE8 PUSH1 0xA DUP6 DIV SWAP5 POP DUP5 PUSH2 0x13E0 JUMPI POP SWAP4 SWAP3 POP POP POP JUMP JUMPDEST PUSH1 0x0 PUSH2 0x141F CALLER DUP6 DUP5 PUSH2 0x1BCF JUMP JUMPDEST PUSH2 0x1428 DUP5 PUSH2 0x1C5F JUMP JUMPDEST SWAP1 POP PUSH2 0x143F DUP4 DUP3 PUSH2 0x1438 DUP8 PUSH2 0x98B JUMP JUMPDEST PUSH1 0x0 PUSH2 0x1584 JUMP JUMPDEST PUSH2 0x909 DUP5 DUP3 DUP5 PUSH2 0x1C69 JUMP JUMPDEST PUSH1 0x0 DUP1 PUSH2 0x1456 DUP4 PUSH2 0xD96 JUMP JUMPDEST SWAP1 POP DUP1 PUSH1 0x1 PUSH1 0x1 PUSH1 0xA0 SHL SUB AND DUP5 PUSH1 0x1 PUSH1 0x1 PUSH1 0xA0 SHL SUB AND EQ DUP1 PUSH2 0x14A1 JUMPI POP PUSH1 0x1 PUSH1 0x1 PUSH1 0xA0 SHL SUB DUP1 DUP3 AND PUSH1 0x0 SWAP1 DUP2 MSTORE PUSH1 0x7 PUSH1 0x20 SWAP1 DUP2 MSTORE PUSH1 0x40 DUP1 DUP4 KECCAK256 SWAP4 DUP9 AND DUP4 MSTORE PUSH1 0x2 SWAP1 SWAP4 ADD SWAP1 MSTORE KECCAK256 SLOAD PUSH1 0xFF AND JUMPDEST DUP1 PUSH2 0x14C5 JUMPI POP DUP4 PUSH1 0x1 PUSH1 0x1 PUSH1 0xA0 SHL SUB AND PUSH2 0x14BA DUP5 PUSH2 0x6F5 JUMP JUMPDEST PUSH1 0x1 PUSH1 0x1 PUSH1 0xA0 SHL SUB AND EQ JUMPDEST SWAP5 SWAP4 POP POP POP POP JUMP JUMPDEST PUSH2 0x14D6 CALLER PUSH2 0x953 JUMP JUMPDEST PUSH2 0x14F2 JUMPI PUSH1 0x40 MLOAD PUSH3 0x461BCD PUSH1 0xE5 SHL DUP2 MSTORE PUSH1 0x4 ADD PUSH2 0x785 SWAP1 PUSH2 0x31A0 JUMP JUMPDEST PUSH2 0x826 DUP4 DUP4 DUP4 PUSH2 0x1F61 JUMP JUMPDEST PUSH2 0x1508 CALLER DUP5 DUP4 PUSH2 0x1BCF JUMP JUMPDEST PUSH2 0x826 DUP4 DUP4 DUP4 PUSH2 0x1C69 JUMP JUMPDEST PUSH1 0x9 SLOAD PUSH1 0x1 PUSH1 0x1 PUSH1 0xA0 SHL SUB AND CALLER EQ PUSH2 0xECC JUMPI PUSH1 0x40 MLOAD PUSH3 0x461BCD PUSH1 0xE5 SHL DUP2 MSTORE PUSH1 0x20 PUSH1 0x4 DUP3 ADD DUP2 SWAP1 MSTORE PUSH1 0x24 DUP3 ADD MSTORE PUSH32 0x4F776E61626C653A2063616C6C6572206973206E6F7420746865206F776E6572 PUSH1 0x44 DUP3 ADD MSTORE PUSH1 0x64 ADD PUSH2 0x785 JUMP JUMPDEST PUSH1 0x0 PUSH2 0x157D PUSH1 0x3 DUP1 SLOAD PUSH1 0x1 ADD SWAP1 SSTORE JUMP JUMPDEST POP PUSH1 0x3 SLOAD SWAP1 JUMP JUMPDEST PUSH1 0x1 PUSH1 0x1 PUSH1 0xA0 SHL SUB DUP5 AND PUSH2 0x15E4 JUMPI PUSH1 0x40 MLOAD PUSH3 0x461BCD PUSH1 0xE5 SHL DUP2 MSTORE PUSH1 0x20 PUSH1 0x4 DUP3 ADD MSTORE PUSH1 0x21 PUSH1 0x24 DUP3 ADD MSTORE PUSH32 0x455243333532353A206D696E7420746F20746865207A65726F20616464726573 PUSH1 0x44 DUP3 ADD MSTORE PUSH1 0x73 PUSH1 0xF8 SHL PUSH1 0x64 DUP3 ADD MSTORE PUSH1 0x84 ADD PUSH2 0x785 JUMP JUMPDEST DUP3 PUSH1 0x0 SUB PUSH2 0x163E JUMPI PUSH1 0x40 MLOAD PUSH3 0x461BCD PUSH1 0xE5 SHL DUP2 MSTORE PUSH1 0x20 PUSH1 0x4 DUP3 ADD MSTORE PUSH1 0x21 PUSH1 0x24 DUP3 ADD MSTORE PUSH32 0x455243333532353A2063616E6E6F74206D696E74207A65726F20746F6B656E49 PUSH1 0x44 DUP3 ADD MSTORE PUSH1 0x19 PUSH1 0xFA SHL PUSH1 0x64 DUP3 ADD MSTORE PUSH1 0x84 ADD PUSH2 0x785 JUMP JUMPDEST PUSH2 0x1647 DUP4 PUSH2 0x1AAB JUMP JUMPDEST ISZERO PUSH2 0x1694 JUMPI PUSH1 0x40 MLOAD PUSH3 0x461BCD PUSH1 0xE5 SHL DUP2 MSTORE PUSH1 0x20 PUSH1 0x4 DUP3 ADD MSTORE PUSH1 0x1D PUSH1 0x24 DUP3 ADD MSTORE PUSH32 0x455243333532353A20746F6B656E20616C7265616479206D696E746564000000 PUSH1 0x44 DUP3 ADD MSTORE PUSH1 0x64 ADD PUSH2 0x785 JUMP JUMPDEST PUSH2 0x169F DUP5 DUP5 DUP5 PUSH2 0x20CA JUMP JUMPDEST PUSH2 0x16A9 DUP4 DUP3 PUSH2 0x2190 JUMP JUMPDEST PUSH2 0xF87 JUMP JUMPDEST PUSH1 0xD DUP1 SLOAD DUP3 MLOAD PUSH1 0x0 SWAP1 DUP2 MSTORE PUSH1 0xE PUSH1 0x20 SWAP1 DUP2 MSTORE PUSH1 0x40 DUP1 DUP4 KECCAK256 DUP5 SWAP1 SSTORE PUSH1 0x1 DUP5 ADD DUP6 SSTORE SWAP4 SWAP1 SWAP2 MSTORE DUP4 MLOAD PUSH1 0x6 SWAP1 SWAP3 MUL PUSH32 0xD7B6990105719101DABEB77144F2A3385C8033ACD3AF97E9423A695E81AD1EB5 DUP2 ADD SWAP3 DUP4 SSTORE DUP2 DUP6 ADD MLOAD PUSH32 0xD7B6990105719101DABEB77144F2A3385C8033ACD3AF97E9423A695E81AD1EB6 DUP3 ADD SSTORE SWAP3 DUP5 ADD MLOAD PUSH32 0xD7B6990105719101DABEB77144F2A3385C8033ACD3AF97E9423A695E81AD1EB7 DUP5 ADD SSTORE PUSH1 0x60 DUP5 ADD MLOAD PUSH32 0xD7B6990105719101DABEB77144F2A3385C8033ACD3AF97E9423A695E81AD1EB8 DUP5 ADD DUP1 SLOAD PUSH1 0x1 PUSH1 0x1 PUSH1 0xA0 SHL SUB SWAP3 DUP4 AND PUSH1 0x1 PUSH1 0x1 PUSH1 0xA0 SHL SUB NOT SWAP2 DUP3 AND OR SWAP1 SWAP2 SSTORE PUSH1 0x80 DUP7 ADD MLOAD PUSH32 0xD7B6990105719101DABEB77144F2A3385C8033ACD3AF97E9423A695E81AD1EB9 DUP7 ADD DUP1 SLOAD SWAP2 SWAP1 SWAP4 AND SWAP2 AND OR SWAP1 SSTORE PUSH1 0xA0 DUP5 ADD MLOAD DUP1 MLOAD DUP6 SWAP5 PUSH2 0xF87 SWAP4 PUSH32 0xD7B6990105719101DABEB77144F2A3385C8033ACD3AF97E9423A695E81AD1EBA SWAP1 SWAP2 ADD SWAP3 ADD SWAP1 PUSH2 0x2B6D JUMP JUMPDEST PUSH1 0x0 DUP2 DUP2 MSTORE PUSH1 0xE PUSH1 0x20 MSTORE PUSH1 0x40 SWAP1 KECCAK256 SLOAD PUSH1 0xD DUP1 SLOAD DUP5 SWAP3 SWAP1 DUP2 LT PUSH2 0x1824 JUMPI PUSH2 0x1824 PUSH2 0x3091 JUMP JUMPDEST PUSH1 0x0 SWAP2 DUP3 MSTORE PUSH1 0x20 DUP1 DUP4 KECCAK256 PUSH1 0x6 SWAP3 SWAP1 SWAP3 MUL SWAP1 SWAP2 ADD PUSH1 0x3 ADD DUP1 SLOAD PUSH1 0x1 PUSH1 0x1 PUSH1 0xA0 SHL SUB NOT AND PUSH1 0x1 PUSH1 0x1 PUSH1 0xA0 SHL SUB SWAP5 DUP6 AND OR SWAP1 SSTORE SWAP4 SWAP1 SWAP2 AND DUP2 MSTORE PUSH1 0xF DUP1 DUP5 MSTORE PUSH1 0x40 DUP1 DUP4 KECCAK256 DUP1 SLOAD DUP6 DUP6 MSTORE PUSH1 0x1 DUP3 DUP2 ADD DUP9 MSTORE SWAP3 DUP6 KECCAK256 DUP2 SWAP1 SSTORE SWAP3 DUP7 MSTORE SWAP1 DUP3 ADD DUP2 SSTORE DUP3 MSTORE SWAP3 SWAP1 KECCAK256 SWAP1 SWAP2 ADD SSTORE JUMP JUMPDEST PUSH1 0x9 DUP1 SLOAD PUSH1 0x1 PUSH1 0x1 PUSH1 0xA0 SHL SUB DUP4 DUP2 AND PUSH1 0x1 PUSH1 0x1 PUSH1 0xA0 SHL SUB NOT DUP4 AND DUP2 OR SWAP1 SWAP4 SSTORE PUSH1 0x40 MLOAD SWAP2 AND SWAP2 SWAP1 DUP3 SWAP1 PUSH32 0x8BE0079C531659141344CD1FD0A4F28419497F9722A3DAAFE3B4186F6B6457E0 SWAP1 PUSH1 0x0 SWAP1 LOG3 POP POP JUMP JUMPDEST PUSH1 0x1 PUSH1 0x1 PUSH1 0xA0 SHL SUB DUP3 AND PUSH2 0x1944 JUMPI PUSH1 0x40 MLOAD PUSH3 0x461BCD PUSH1 0xE5 SHL DUP2 MSTORE PUSH1 0x20 PUSH1 0x4 DUP3 ADD MSTORE PUSH1 0x2A PUSH1 0x24 DUP3 ADD MSTORE PUSH32 0x455243333532353A20617070726F76652076616C756520746F20746865207A65 PUSH1 0x44 DUP3 ADD MSTORE PUSH10 0x726F2061646472657373 PUSH1 0xB0 SHL PUSH1 0x64 DUP3 ADD MSTORE PUSH1 0x84 ADD PUSH2 0x785 JUMP JUMPDEST PUSH2 0x194E DUP3 DUP5 PUSH2 0x2215 JUMP JUMPDEST PUSH2 0x19B4 JUMPI PUSH1 0x0 DUP4 DUP2 MSTORE PUSH1 0x6 PUSH1 0x20 MSTORE PUSH1 0x40 SWAP1 KECCAK256 SLOAD PUSH1 0x5 DUP1 SLOAD SWAP1 SWAP2 SWAP1 DUP2 LT PUSH2 0x1976 JUMPI PUSH2 0x1976 PUSH2 0x3091 JUMP JUMPDEST PUSH1 0x0 SWAP2 DUP3 MSTORE PUSH1 0x20 DUP1 DUP4 KECCAK256 PUSH1 0x6 SWAP3 SWAP1 SWAP3 MUL SWAP1 SWAP2 ADD PUSH1 0x5 ADD DUP1 SLOAD PUSH1 0x1 DUP2 ADD DUP3 SSTORE SWAP1 DUP4 MSTORE SWAP2 KECCAK256 ADD DUP1 SLOAD PUSH1 0x1 PUSH1 0x1 PUSH1 0xA0 SHL SUB NOT AND PUSH1 0x1 PUSH1 0x1 PUSH1 0xA0 SHL SUB DUP5 AND OR SWAP1 SSTORE JUMPDEST PUSH1 0x0 DUP4 DUP2 MSTORE PUSH1 0x4 PUSH1 0x20 SWAP1 DUP2 MSTORE PUSH1 0x40 DUP1 DUP4 KECCAK256 PUSH1 0x1 PUSH1 0x1 PUSH1 0xA0 SHL SUB DUP7 AND DUP1 DUP6 MSTORE SWAP1 DUP4 MSTORE SWAP3 DUP2 SWAP1 KECCAK256 DUP5 SWAP1 SSTORE MLOAD DUP4 DUP2 MSTORE DUP6 SWAP2 PUSH32 0x621B050DE0AD08B51D19B48B3E6DF75348C4DE6BDD93E81B252CA62E28265B1B SWAP2 ADD JUMPDEST PUSH1 0x40 MLOAD DUP1 SWAP2 SUB SWAP1 LOG3 POP POP POP JUMP JUMPDEST PUSH2 0x1A1E CALLER DUP4 DUP4 PUSH2 0x22E8 JUMP JUMPDEST POP POP JUMP JUMPDEST PUSH2 0x1A2D DUP5 DUP5 DUP5 PUSH2 0x1F61 JUMP JUMPDEST PUSH2 0x1A39 DUP5 DUP5 DUP5 DUP5 PUSH2 0x23B2 JUMP JUMPDEST PUSH2 0xF87 JUMPI PUSH1 0x40 MLOAD PUSH3 0x461BCD PUSH1 0xE5 SHL DUP2 MSTORE PUSH1 0x20 PUSH1 0x4 DUP3 ADD MSTORE PUSH1 0x27 PUSH1 0x24 DUP3 ADD MSTORE PUSH32 0x455243333532353A207472616E7366657220746F206E6F6E2045524337323152 PUSH1 0x44 DUP3 ADD MSTORE PUSH7 0x32B1B2B4BB32B9 PUSH1 0xC9 SHL PUSH1 0x64 DUP3 ADD MSTORE PUSH1 0x84 ADD PUSH2 0x785 JUMP JUMPDEST PUSH1 0x60 PUSH2 0x65D PUSH1 0x1 PUSH1 0x1 PUSH1 0xA0 SHL SUB DUP4 AND PUSH1 0x14 PUSH2 0x24FE JUMP JUMPDEST PUSH1 0x5 SLOAD PUSH1 0x0 SWAP1 ISZERO DUP1 ISZERO SWAP1 PUSH2 0x65D JUMPI POP PUSH1 0x0 DUP3 DUP2 MSTORE PUSH1 0x6 PUSH1 0x20 MSTORE PUSH1 0x40 SWAP1 KECCAK256 SLOAD PUSH1 0x5 DUP1 SLOAD DUP5 SWAP3 SWAP1 DUP2 LT PUSH2 0x1ADE JUMPI PUSH2 0x1ADE PUSH2 0x3091 JUMP JUMPDEST SWAP1 PUSH1 0x0 MSTORE PUSH1 0x20 PUSH1 0x0 KECCAK256 SWAP1 PUSH1 0x6 MUL ADD PUSH1 0x0 ADD SLOAD EQ SWAP3 SWAP2 POP POP JUMP JUMPDEST PUSH1 0x0 DUP1 PUSH19 0x184F03E93FF9F4DAA797ED6E38ED64BF6A1F01 PUSH1 0x40 SHL DUP4 LT PUSH2 0x1B36 JUMPI PUSH19 0x184F03E93FF9F4DAA797ED6E38ED64BF6A1F01 PUSH1 0x40 SHL DUP4 DIV SWAP3 POP PUSH1 0x40 ADD JUMPDEST PUSH14 0x4EE2D6D415B85ACEF8100000000 DUP4 LT PUSH2 0x1B62 JUMPI PUSH14 0x4EE2D6D415B85ACEF8100000000 DUP4 DIV SWAP3 POP PUSH1 0x20 ADD JUMPDEST PUSH7 0x2386F26FC10000 DUP4 LT PUSH2 0x1B80 JUMPI PUSH7 0x2386F26FC10000 DUP4 DIV SWAP3 POP PUSH1 0x10 ADD JUMPDEST PUSH4 0x5F5E100 DUP4 LT PUSH2 0x1B98 JUMPI PUSH4 0x5F5E100 DUP4 DIV SWAP3 POP PUSH1 0x8 ADD JUMPDEST PUSH2 0x2710 DUP4 LT PUSH2 0x1BAC JUMPI PUSH2 0x2710 DUP4 DIV SWAP3 POP PUSH1 0x4 ADD JUMPDEST PUSH1 0x64 DUP4 LT PUSH2 0x1BBE JUMPI PUSH1 0x64 DUP4 DIV SWAP3 POP PUSH1 0x2 ADD JUMPDEST PUSH1 0xA DUP4 LT PUSH2 0x65D JUMPI PUSH1 0x1 ADD SWAP3 SWAP2 POP POP JUMP JUMPDEST PUSH1 0x0 PUSH2 0x1BDB DUP4 DUP6 PUSH2 0x10EE JUMP JUMPDEST SWAP1 POP PUSH2 0x1BE7 DUP5 DUP5 PUSH2 0x144A JUMP JUMPDEST ISZERO DUP1 ISZERO PUSH2 0x1BF6 JUMPI POP PUSH1 0x0 NOT DUP2 EQ ISZERO JUMPDEST ISZERO PUSH2 0xF87 JUMPI DUP2 DUP2 LT ISZERO PUSH2 0x1C4B JUMPI PUSH1 0x40 MLOAD PUSH3 0x461BCD PUSH1 0xE5 SHL DUP2 MSTORE PUSH1 0x20 PUSH1 0x4 DUP3 ADD MSTORE PUSH1 0x1F PUSH1 0x24 DUP3 ADD MSTORE PUSH32 0x455243333532353A20696E73756666696369656E7420616C6C6F77616E636500 PUSH1 0x44 DUP3 ADD MSTORE PUSH1 0x64 ADD PUSH2 0x785 JUMP JUMPDEST PUSH2 0xF87 DUP4 DUP6 PUSH2 0x1C5A DUP6 DUP6 PUSH2 0x339A JUMP JUMPDEST PUSH2 0x18DB JUMP JUMPDEST PUSH1 0x0 PUSH2 0x65D PUSH2 0x156D JUMP JUMPDEST PUSH2 0x1C72 DUP4 PUSH2 0x1AAB JUMP JUMPDEST PUSH2 0x1CCE JUMPI PUSH1 0x40 MLOAD PUSH3 0x461BCD PUSH1 0xE5 SHL DUP2 MSTORE PUSH1 0x20 PUSH1 0x4 DUP3 ADD MSTORE PUSH1 0x27 PUSH1 0x24 DUP3 ADD MSTORE PUSH32 0x455243333532353A207472616E736665722066726F6D20696E76616C69642074 PUSH1 0x44 DUP3 ADD MSTORE PUSH7 0x1BDAD95B881251 PUSH1 0xCA SHL PUSH1 0x64 DUP3 ADD MSTORE PUSH1 0x84 ADD PUSH2 0x785 JUMP JUMPDEST PUSH2 0x1CD7 DUP3 PUSH2 0x1AAB JUMP JUMPDEST PUSH2 0x1D31 JUMPI PUSH1 0x40 MLOAD PUSH3 0x461BCD PUSH1 0xE5 SHL DUP2 MSTORE PUSH1 0x20 PUSH1 0x4 DUP3 ADD MSTORE PUSH1 0x25 PUSH1 0x24 DUP3 ADD MSTORE PUSH32 0x455243333532353A207472616E7366657220746F20696E76616C696420746F6B PUSH1 0x44 DUP3 ADD MSTORE PUSH5 0x195B881251 PUSH1 0xDA SHL PUSH1 0x64 DUP3 ADD MSTORE PUSH1 0x84 ADD PUSH2 0x785 JUMP JUMPDEST PUSH1 0x0 DUP4 DUP2 MSTORE PUSH1 0x6 PUSH1 0x20 MSTORE PUSH1 0x40 DUP2 KECCAK256 SLOAD PUSH1 0x5 DUP1 SLOAD SWAP1 SWAP2 SWAP1 DUP2 LT PUSH2 0x1D55 JUMPI PUSH2 0x1D55 PUSH2 0x3091 JUMP JUMPDEST SWAP1 PUSH1 0x0 MSTORE PUSH1 0x20 PUSH1 0x0 KECCAK256 SWAP1 PUSH1 0x6 MUL ADD SWAP1 POP PUSH1 0x0 PUSH1 0x5 PUSH1 0x6 PUSH1 0x0 DUP7 DUP2 MSTORE PUSH1 0x20 ADD SWAP1 DUP2 MSTORE PUSH1 0x20 ADD PUSH1 0x0 KECCAK256 SLOAD DUP2 SLOAD DUP2 LT PUSH2 0x1D8D JUMPI PUSH2 0x1D8D PUSH2 0x3091 JUMP JUMPDEST SWAP1 PUSH1 0x0 MSTORE PUSH1 0x20 PUSH1 0x0 KECCAK256 SWAP1 PUSH1 0x6 MUL ADD SWAP1 POP DUP3 DUP3 PUSH1 0x2 ADD SLOAD LT ISZERO PUSH2 0x1E04 JUMPI PUSH1 0x40 MLOAD PUSH3 0x461BCD PUSH1 0xE5 SHL DUP2 MSTORE PUSH1 0x20 PUSH1 0x4 DUP3 ADD MSTORE PUSH1 0x2A PUSH1 0x24 DUP3 ADD MSTORE PUSH32 0x455243333532353A20696E73756666696369656E742062616C616E636520666F PUSH1 0x44 DUP3 ADD MSTORE PUSH10 0x39103A3930B739B332B9 PUSH1 0xB1 SHL PUSH1 0x64 DUP3 ADD MSTORE PUSH1 0x84 ADD PUSH2 0x785 JUMP JUMPDEST DUP1 PUSH1 0x1 ADD SLOAD DUP3 PUSH1 0x1 ADD SLOAD EQ PUSH2 0x1E72 JUMPI PUSH1 0x40 MLOAD PUSH3 0x461BCD PUSH1 0xE5 SHL DUP2 MSTORE PUSH1 0x20 PUSH1 0x4 DUP3 ADD MSTORE PUSH1 0x2E PUSH1 0x24 DUP3 ADD MSTORE PUSH32 0x455243333532353A207472616E7366657220746F20746F6B656E207769746820 PUSH1 0x44 DUP3 ADD MSTORE PUSH14 0x191A5999995C995B9D081CDB1BDD PUSH1 0x92 SHL PUSH1 0x64 DUP3 ADD MSTORE PUSH1 0x84 ADD PUSH2 0x785 JUMP JUMPDEST DUP3 DUP3 PUSH1 0x2 ADD PUSH1 0x0 DUP3 DUP3 SLOAD PUSH2 0x1E86 SWAP2 SWAP1 PUSH2 0x339A JUMP JUMPDEST SWAP3 POP POP DUP2 SWAP1 SSTORE POP DUP3 DUP2 PUSH1 0x2 ADD PUSH1 0x0 DUP3 DUP3 SLOAD PUSH2 0x1EA1 SWAP2 SWAP1 PUSH2 0x33AD JUMP JUMPDEST SWAP1 SWAP2 SSTORE POP POP PUSH1 0x40 MLOAD DUP4 DUP2 MSTORE DUP5 SWAP1 DUP7 SWAP1 PUSH32 0xB2AAC84F3EC956911FD78EAE5311062972FF949F38412E8DA39069D9F068CC6 SWAP1 PUSH1 0x20 ADD PUSH1 0x40 MLOAD DUP1 SWAP2 SUB SWAP1 LOG3 PUSH2 0x1EF8 DUP6 DUP6 DUP6 PUSH1 0x40 MLOAD DUP1 PUSH1 0x20 ADD PUSH1 0x40 MSTORE DUP1 PUSH1 0x0 DUP2 MSTORE POP PUSH2 0x269A JUMP JUMPDEST PUSH2 0x1F5A JUMPI PUSH1 0x40 MLOAD PUSH3 0x461BCD PUSH1 0xE5 SHL DUP2 MSTORE PUSH1 0x20 PUSH1 0x4 DUP3 ADD MSTORE PUSH1 0x2D PUSH1 0x24 DUP3 ADD MSTORE PUSH32 0x455243333532353A207472616E736665722072656A6563746564206279204552 PUSH1 0x44 DUP3 ADD MSTORE PUSH13 0x21999A991AA932B1B2B4BB32B9 PUSH1 0x99 SHL PUSH1 0x64 DUP3 ADD MSTORE PUSH1 0x84 ADD PUSH2 0x785 JUMP JUMPDEST POP POP POP POP POP JUMP JUMPDEST DUP3 PUSH1 0x1 PUSH1 0x1 PUSH1 0xA0 SHL SUB AND PUSH2 0x1F74 DUP3 PUSH2 0xD96 JUMP JUMPDEST PUSH1 0x1 PUSH1 0x1 PUSH1 0xA0 SHL SUB AND EQ PUSH2 0x1FD6 JUMPI PUSH1 0x40 MLOAD PUSH3 0x461BCD PUSH1 0xE5 SHL DUP2 MSTORE PUSH1 0x20 PUSH1 0x4 DUP3 ADD MSTORE PUSH1 0x24 DUP1 DUP3 ADD MSTORE PUSH32 0x455243333532353A207472616E736665722066726F6D20696E76616C6964206F PUSH1 0x44 DUP3 ADD MSTORE PUSH4 0x3BB732B9 PUSH1 0xE1 SHL PUSH1 0x64 DUP3 ADD MSTORE PUSH1 0x84 ADD PUSH2 0x785 JUMP JUMPDEST PUSH1 0x1 PUSH1 0x1 PUSH1 0xA0 SHL SUB DUP3 AND PUSH2 0x203A JUMPI PUSH1 0x40 MLOAD PUSH3 0x461BCD PUSH1 0xE5 SHL DUP2 MSTORE PUSH1 0x20 PUSH1 0x4 DUP3 ADD MSTORE PUSH1 0x25 PUSH1 0x24 DUP3 ADD MSTORE PUSH32 0x455243333532353A207472616E7366657220746F20746865207A65726F206164 PUSH1 0x44 DUP3 ADD MSTORE PUSH5 0x6472657373 PUSH1 0xD8 SHL PUSH1 0x64 DUP3 ADD MSTORE PUSH1 0x84 ADD PUSH2 0x785 JUMP JUMPDEST PUSH1 0x0 PUSH2 0x2045 DUP3 PUSH2 0x98B JUMP JUMPDEST SWAP1 POP PUSH1 0x0 PUSH2 0x2052 DUP4 PUSH2 0xF9C JUMP JUMPDEST SWAP1 POP PUSH2 0x205F PUSH1 0x0 DUP5 PUSH2 0x12D9 JUMP JUMPDEST PUSH2 0x2068 DUP4 PUSH2 0x27CD JUMP JUMPDEST PUSH2 0x2072 DUP6 DUP5 PUSH2 0x2878 JUMP JUMPDEST PUSH2 0x207C DUP5 DUP5 PUSH2 0x2999 JUMP JUMPDEST DUP3 DUP5 PUSH1 0x1 PUSH1 0x1 PUSH1 0xA0 SHL SUB AND DUP7 PUSH1 0x1 PUSH1 0x1 PUSH1 0xA0 SHL SUB AND PUSH32 0xDDF252AD1BE2C89B69C2B068FC378DAA952BA7F163C4A11628F55A4DF523B3EF PUSH1 0x40 MLOAD PUSH1 0x40 MLOAD DUP1 SWAP2 SUB SWAP1 LOG4 PUSH2 0x1F5A JUMP JUMPDEST POP POP POP POP POP POP JUMP JUMPDEST PUSH1 0x40 DUP1 MLOAD PUSH1 0xC0 DUP2 ADD DUP3 MSTORE DUP4 DUP2 MSTORE PUSH1 0x20 DUP1 DUP3 ADD DUP5 SWAP1 MSTORE PUSH1 0x0 DUP3 DUP5 ADD DUP2 SWAP1 MSTORE PUSH1 0x1 PUSH1 0x1 PUSH1 0xA0 SHL SUB DUP8 AND PUSH1 0x60 DUP5 ADD MSTORE PUSH1 0x80 DUP4 ADD DUP2 SWAP1 MSTORE DUP4 MLOAD DUP2 DUP2 MSTORE SWAP2 DUP3 ADD SWAP1 SWAP4 MSTORE PUSH1 0xA0 DUP3 ADD MSTORE SWAP1 POP PUSH2 0x2118 DUP2 PUSH2 0x2A22 JUMP JUMPDEST PUSH2 0x2122 DUP5 DUP5 PUSH2 0x2999 JUMP JUMPDEST PUSH1 0x40 MLOAD DUP4 SWAP1 PUSH1 0x1 PUSH1 0x1 PUSH1 0xA0 SHL SUB DUP7 AND SWAP1 PUSH1 0x0 SWAP1 PUSH32 0xDDF252AD1BE2C89B69C2B068FC378DAA952BA7F163C4A11628F55A4DF523B3EF SWAP1 DUP3 SWAP1 LOG4 DUP2 PUSH1 0x0 DUP5 PUSH32 0xE4F48C240D3B994948AA54F3E2F5FCA59263DFE1D52B6E4CF39A5D249B5CCB65 PUSH1 0x40 MLOAD PUSH1 0x40 MLOAD DUP1 SWAP2 SUB SWAP1 LOG4 POP POP POP POP JUMP JUMPDEST PUSH1 0x0 DUP3 DUP2 MSTORE PUSH1 0x6 PUSH1 0x20 MSTORE PUSH1 0x40 SWAP1 KECCAK256 SLOAD PUSH1 0x5 DUP1 SLOAD DUP4 SWAP3 SWAP1 DUP2 LT PUSH2 0x21B4 JUMPI PUSH2 0x21B4 PUSH2 0x3091 JUMP JUMPDEST SWAP1 PUSH1 0x0 MSTORE PUSH1 0x20 PUSH1 0x0 KECCAK256 SWAP1 PUSH1 0x6 MUL ADD PUSH1 0x2 ADD PUSH1 0x0 DUP3 DUP3 SLOAD PUSH2 0x21D4 SWAP2 SWAP1 PUSH2 0x33AD JUMP JUMPDEST SWAP1 SWAP2 SSTORE POP POP PUSH1 0x40 MLOAD DUP2 DUP2 MSTORE DUP3 SWAP1 PUSH1 0x0 SWAP1 PUSH32 0xB2AAC84F3EC956911FD78EAE5311062972FF949F38412E8DA39069D9F068CC6 SWAP1 PUSH1 0x20 ADD PUSH1 0x40 MLOAD DUP1 SWAP2 SUB SWAP1 LOG3 POP POP JUMP JUMPDEST PUSH1 0x0 DUP2 DUP2 MSTORE PUSH1 0x6 PUSH1 0x20 MSTORE PUSH1 0x40 DUP2 KECCAK256 SLOAD PUSH1 0x5 DUP1 SLOAD DUP4 SWAP3 SWAP1 DUP2 LT PUSH2 0x2239 JUMPI PUSH2 0x2239 PUSH2 0x3091 JUMP JUMPDEST PUSH1 0x0 SWAP2 DUP3 MSTORE PUSH1 0x20 DUP3 KECCAK256 PUSH1 0x5 PUSH1 0x6 SWAP1 SWAP3 MUL ADD ADD SLOAD SWAP2 POP JUMPDEST DUP2 DUP2 LT ISZERO PUSH2 0x22DD JUMPI PUSH1 0x0 DUP5 DUP2 MSTORE PUSH1 0x6 PUSH1 0x20 MSTORE PUSH1 0x40 SWAP1 KECCAK256 SLOAD PUSH1 0x5 DUP1 SLOAD PUSH1 0x1 PUSH1 0x1 PUSH1 0xA0 SHL SUB DUP9 AND SWAP3 SWAP1 DUP2 LT PUSH2 0x2284 JUMPI PUSH2 0x2284 PUSH2 0x3091 JUMP JUMPDEST SWAP1 PUSH1 0x0 MSTORE PUSH1 0x20 PUSH1 0x0 KECCAK256 SWAP1 PUSH1 0x6 MUL ADD PUSH1 0x5 ADD DUP3 DUP2 SLOAD DUP2 LT PUSH2 0x22A6 JUMPI PUSH2 0x22A6 PUSH2 0x3091 JUMP JUMPDEST PUSH1 0x0 SWAP2 DUP3 MSTORE PUSH1 0x20 SWAP1 SWAP2 KECCAK256 ADD SLOAD PUSH1 0x1 PUSH1 0x1 PUSH1 0xA0 SHL SUB AND SUB PUSH2 0x22CB JUMPI PUSH1 0x1 SWAP3 POP POP POP PUSH2 0x65D JUMP JUMPDEST DUP1 PUSH2 0x22D5 DUP2 PUSH2 0x33C0 JUMP JUMPDEST SWAP2 POP POP PUSH2 0x224F JUMP JUMPDEST POP PUSH1 0x0 SWAP5 SWAP4 POP POP POP POP JUMP JUMPDEST DUP2 PUSH1 0x1 PUSH1 0x1 PUSH1 0xA0 SHL SUB AND DUP4 PUSH1 0x1 PUSH1 0x1 PUSH1 0xA0 SHL SUB AND SUB PUSH2 0x2349 JUMPI PUSH1 0x40 MLOAD PUSH3 0x461BCD PUSH1 0xE5 SHL DUP2 MSTORE PUSH1 0x20 PUSH1 0x4 DUP3 ADD MSTORE PUSH1 0x1A PUSH1 0x24 DUP3 ADD MSTORE PUSH32 0x455243333532353A20617070726F766520746F2063616C6C6572000000000000 PUSH1 0x44 DUP3 ADD MSTORE PUSH1 0x64 ADD PUSH2 0x785 JUMP JUMPDEST PUSH1 0x1 PUSH1 0x1 PUSH1 0xA0 SHL SUB DUP4 DUP2 AND PUSH1 0x0 DUP2 DUP2 MSTORE PUSH1 0x7 PUSH1 0x20 SWAP1 DUP2 MSTORE PUSH1 0x40 DUP1 DUP4 KECCAK256 SWAP5 DUP8 AND DUP1 DUP5 MSTORE PUSH1 0x2 SWAP1 SWAP6 ADD DUP3 MSTORE SWAP2 DUP3 SWAP1 KECCAK256 DUP1 SLOAD PUSH1 0xFF NOT AND DUP7 ISZERO ISZERO SWAP1 DUP2 OR SWAP1 SWAP2 SSTORE SWAP2 MLOAD SWAP2 DUP3 MSTORE PUSH32 0x17307EAB39AB6107E8899845AD3D59BD9653F200F220920489CA2B5937696C31 SWAP2 ADD PUSH2 0x1A06 JUMP JUMPDEST PUSH1 0x0 PUSH1 0x1 PUSH1 0x1 PUSH1 0xA0 SHL SUB DUP5 AND EXTCODESIZE ISZERO PUSH2 0x24F3 JUMPI PUSH1 0x40 MLOAD PUSH4 0xA85BD01 PUSH1 0xE1 SHL DUP2 MSTORE PUSH1 0x1 PUSH1 0x1 PUSH1 0xA0 SHL SUB DUP6 AND SWAP1 PUSH4 0x150B7A02 SWAP1 PUSH2 0x23F6 SWAP1 CALLER SWAP1 DUP10 SWAP1 DUP9 SWAP1 DUP9 SWAP1 PUSH1 0x4 ADD PUSH2 0x33D9 JUMP JUMPDEST PUSH1 0x20 PUSH1 0x40 MLOAD DUP1 DUP4 SUB DUP2 PUSH1 0x0 DUP8 GAS CALL SWAP3 POP POP POP DUP1 ISZERO PUSH2 0x2431 JUMPI POP PUSH1 0x40 DUP1 MLOAD PUSH1 0x1F RETURNDATASIZE SWAP1 DUP2 ADD PUSH1 0x1F NOT AND DUP3 ADD SWAP1 SWAP3 MSTORE PUSH2 0x242E SWAP2 DUP2 ADD SWAP1 PUSH2 0x3416 JUMP JUMPDEST PUSH1 0x1 JUMPDEST PUSH2 0x24D9 JUMPI RETURNDATASIZE DUP1 DUP1 ISZERO PUSH2 0x245F JUMPI PUSH1 0x40 MLOAD SWAP2 POP PUSH1 0x1F NOT PUSH1 0x3F RETURNDATASIZE ADD AND DUP3 ADD PUSH1 0x40 MSTORE RETURNDATASIZE DUP3 MSTORE RETURNDATASIZE PUSH1 0x0 PUSH1 0x20 DUP5 ADD RETURNDATACOPY PUSH2 0x2464 JUMP JUMPDEST PUSH1 0x60 SWAP2 POP JUMPDEST POP DUP1 MLOAD PUSH1 0x0 SUB PUSH2 0x24D1 JUMPI PUSH1 0x40 MLOAD PUSH3 0x461BCD PUSH1 0xE5 SHL DUP2 MSTORE PUSH1 0x20 PUSH1 0x4 DUP3 ADD MSTORE PUSH1 0x32 PUSH1 0x24 DUP3 ADD MSTORE PUSH32 0x4552433732313A207472616E7366657220746F206E6F6E204552433732315265 PUSH1 0x44 DUP3 ADD MSTORE PUSH18 0x31B2B4BB32B91034B6B83632B6B2B73A32B9 PUSH1 0x71 SHL PUSH1 0x64 DUP3 ADD MSTORE PUSH1 0x84 ADD PUSH2 0x785 JUMP JUMPDEST DUP1 MLOAD DUP2 PUSH1 0x20 ADD REVERT JUMPDEST PUSH1 0x1 PUSH1 0x1 PUSH1 0xE0 SHL SUB NOT AND PUSH4 0xA85BD01 PUSH1 0xE1 SHL EQ SWAP1 POP PUSH2 0x14C5 JUMP JUMPDEST POP PUSH1 0x1 SWAP5 SWAP4 POP POP POP POP JUMP JUMPDEST PUSH1 0x60 PUSH1 0x0 PUSH2 0x250D DUP4 PUSH1 0x2 PUSH2 0x3433 JUMP JUMPDEST PUSH2 0x2518 SWAP1 PUSH1 0x2 PUSH2 0x33AD JUMP JUMPDEST PUSH8 0xFFFFFFFFFFFFFFFF DUP2 GT ISZERO PUSH2 0x2530 JUMPI PUSH2 0x2530 PUSH2 0x2D7E JUMP JUMPDEST PUSH1 0x40 MLOAD SWAP1 DUP1 DUP3 MSTORE DUP1 PUSH1 0x1F ADD PUSH1 0x1F NOT AND PUSH1 0x20 ADD DUP3 ADD PUSH1 0x40 MSTORE DUP1 ISZERO PUSH2 0x255A JUMPI PUSH1 0x20 DUP3 ADD DUP2 DUP1 CALLDATASIZE DUP4 CALLDATACOPY ADD SWAP1 POP JUMPDEST POP SWAP1 POP PUSH1 0x3 PUSH1 0xFC SHL DUP2 PUSH1 0x0 DUP2 MLOAD DUP2 LT PUSH2 0x2575 JUMPI PUSH2 0x2575 PUSH2 0x3091 JUMP JUMPDEST PUSH1 0x20 ADD ADD SWAP1 PUSH1 0x1 PUSH1 0x1 PUSH1 0xF8 SHL SUB NOT AND SWAP1 DUP2 PUSH1 0x0 BYTE SWAP1 MSTORE8 POP PUSH1 0xF PUSH1 0xFB SHL DUP2 PUSH1 0x1 DUP2 MLOAD DUP2 LT PUSH2 0x25A4 JUMPI PUSH2 0x25A4 PUSH2 0x3091 JUMP JUMPDEST PUSH1 0x20 ADD ADD SWAP1 PUSH1 0x1 PUSH1 0x1 PUSH1 0xF8 SHL SUB NOT AND SWAP1 DUP2 PUSH1 0x0 BYTE SWAP1 MSTORE8 POP PUSH1 0x0 PUSH2 0x25C8 DUP5 PUSH1 0x2 PUSH2 0x3433 JUMP JUMPDEST PUSH2 0x25D3 SWAP1 PUSH1 0x1 PUSH2 0x33AD JUMP JUMPDEST SWAP1 POP JUMPDEST PUSH1 0x1 DUP2 GT ISZERO PUSH2 0x264B JUMPI PUSH16 0x181899199A1A9B1B9C1CB0B131B232B3 PUSH1 0x81 SHL DUP6 PUSH1 0xF AND PUSH1 0x10 DUP2 LT PUSH2 0x2607 JUMPI PUSH2 0x2607 PUSH2 0x3091 JUMP JUMPDEST BYTE PUSH1 0xF8 SHL DUP3 DUP3 DUP2 MLOAD DUP2 LT PUSH2 0x261D JUMPI PUSH2 0x261D PUSH2 0x3091 JUMP JUMPDEST PUSH1 0x20 ADD ADD SWAP1 PUSH1 0x1 PUSH1 0x1 PUSH1 0xF8 SHL SUB NOT AND SWAP1 DUP2 PUSH1 0x0 BYTE SWAP1 MSTORE8 POP PUSH1 0x4 SWAP5 SWAP1 SWAP5 SHR SWAP4 PUSH2 0x2644 DUP2 PUSH2 0x344A JUMP JUMPDEST SWAP1 POP PUSH2 0x25D6 JUMP JUMPDEST POP DUP4 ISZERO PUSH2 0x909 JUMPI PUSH1 0x40 MLOAD PUSH3 0x461BCD PUSH1 0xE5 SHL DUP2 MSTORE PUSH1 0x20 PUSH1 0x4 DUP3 ADD DUP2 SWAP1 MSTORE PUSH1 0x24 DUP3 ADD MSTORE PUSH32 0x537472696E67733A20686578206C656E67746820696E73756666696369656E74 PUSH1 0x44 DUP3 ADD MSTORE PUSH1 0x64 ADD PUSH2 0x785 JUMP JUMPDEST PUSH1 0x0 DUP1 PUSH2 0x26A6 DUP6 PUSH2 0xD96 JUMP JUMPDEST SWAP1 POP PUSH1 0x1 PUSH1 0x1 PUSH1 0xA0 SHL SUB DUP2 AND EXTCODESIZE ISZERO ISZERO DUP1 ISZERO PUSH2 0x272A JUMPI POP PUSH1 0x40 MLOAD PUSH4 0x1FFC9A7 PUSH1 0xE0 SHL DUP2 MSTORE PUSH3 0x9CE20B PUSH1 0xE0 SHL PUSH1 0x4 DUP3 ADD MSTORE PUSH1 0x1 PUSH1 0x1 PUSH1 0xA0 SHL SUB DUP3 AND SWAP1 PUSH4 0x1FFC9A7 SWAP1 PUSH1 0x24 ADD PUSH1 0x20 PUSH1 0x40 MLOAD DUP1 DUP4 SUB DUP2 DUP7 GAS STATICCALL ISZERO DUP1 ISZERO PUSH2 0x2706 JUMPI RETURNDATASIZE PUSH1 0x0 DUP1 RETURNDATACOPY RETURNDATASIZE PUSH1 0x0 REVERT JUMPDEST POP POP POP POP PUSH1 0x40 MLOAD RETURNDATASIZE PUSH1 0x1F NOT PUSH1 0x1F DUP3 ADD AND DUP3 ADD DUP1 PUSH1 0x40 MSTORE POP DUP2 ADD SWAP1 PUSH2 0x272A SWAP2 SWAP1 PUSH2 0x3461 JUMP JUMPDEST ISZERO PUSH2 0x27C3 JUMPI PUSH1 0x40 MLOAD PUSH3 0x9CE20B PUSH1 0xE0 SHL DUP2 MSTORE PUSH1 0x0 SWAP1 PUSH1 0x1 PUSH1 0x1 PUSH1 0xA0 SHL SUB DUP4 AND SWAP1 PUSH3 0x9CE20B SWAP1 PUSH2 0x2764 SWAP1 CALLER SWAP1 DUP12 SWAP1 DUP12 SWAP1 DUP12 SWAP1 DUP12 SWAP1 PUSH1 0x4 ADD PUSH2 0x347E JUMP JUMPDEST PUSH1 0x20 PUSH1 0x40 MLOAD DUP1 DUP4 SUB DUP2 PUSH1 0x0 DUP8 GAS CALL ISZERO DUP1 ISZERO PUSH2 0x2783 JUMPI RETURNDATASIZE PUSH1 0x0 DUP1 RETURNDATACOPY RETURNDATASIZE PUSH1 0x0 REVERT JUMPDEST POP POP POP POP PUSH1 0x40 MLOAD RETURNDATASIZE PUSH1 0x1F NOT PUSH1 0x1F DUP3 ADD AND DUP3 ADD DUP1 PUSH1 0x40 MSTORE POP DUP2 ADD SWAP1 PUSH2 0x27A7 SWAP2 SWAP1 PUSH2 0x3416 JUMP JUMPDEST PUSH1 0x1 PUSH1 0x1 PUSH1 0xE0 SHL SUB NOT AND PUSH3 0x9CE20B PUSH1 0xE0 SHL EQ SWAP3 POP PUSH2 0x14C5 SWAP2 POP POP JUMP JUMPDEST PUSH1 0x1 SWAP2 POP POP PUSH2 0x14C5 JUMP JUMPDEST PUSH1 0x0 DUP2 DUP2 MSTORE PUSH1 0x6 PUSH1 0x20 MSTORE PUSH1 0x40 DUP2 KECCAK256 SLOAD PUSH1 0x5 DUP1 SLOAD SWAP1 SWAP2 SWAP1 DUP2 LT PUSH2 0x27F1 JUMPI PUSH2 0x27F1 PUSH2 0x3091 JUMP JUMPDEST PUSH1 0x0 SWAP2 DUP3 MSTORE PUSH1 0x20 DUP3 KECCAK256 PUSH1 0x5 PUSH1 0x6 SWAP1 SWAP3 MUL ADD SWAP1 DUP2 ADD SLOAD SWAP1 SWAP3 POP SWAP1 JUMPDEST DUP2 DUP2 LT ISZERO PUSH2 0x2869 JUMPI PUSH1 0x0 DUP4 PUSH1 0x5 ADD DUP3 DUP2 SLOAD DUP2 LT PUSH2 0x282A JUMPI PUSH2 0x282A PUSH2 0x3091 JUMP JUMPDEST PUSH1 0x0 SWAP2 DUP3 MSTORE PUSH1 0x20 DUP1 DUP4 KECCAK256 SWAP1 SWAP2 ADD SLOAD DUP8 DUP4 MSTORE PUSH1 0x4 DUP3 MSTORE PUSH1 0x40 DUP1 DUP5 KECCAK256 PUSH1 0x1 PUSH1 0x1 PUSH1 0xA0 SHL SUB SWAP1 SWAP3 AND DUP5 MSTORE SWAP2 MSTORE DUP2 KECCAK256 SSTORE POP DUP1 PUSH2 0x2861 DUP2 PUSH2 0x33C0 JUMP JUMPDEST SWAP2 POP POP PUSH2 0x280B JUMP JUMPDEST POP PUSH2 0x826 PUSH1 0x5 DUP4 ADD PUSH1 0x0 PUSH2 0x2BD2 JUMP JUMPDEST PUSH1 0x0 DUP2 DUP2 MSTORE PUSH1 0x6 PUSH1 0x20 MSTORE PUSH1 0x40 DUP2 KECCAK256 SLOAD PUSH1 0x5 DUP1 SLOAD SWAP1 SWAP2 SWAP1 DUP2 LT PUSH2 0x289C JUMPI PUSH2 0x289C PUSH2 0x3091 JUMP JUMPDEST PUSH1 0x0 SWAP2 DUP3 MSTORE PUSH1 0x20 DUP1 DUP4 KECCAK256 PUSH1 0x6 SWAP3 SWAP1 SWAP3 MUL SWAP1 SWAP2 ADD PUSH1 0x3 ADD DUP1 SLOAD PUSH1 0x1 PUSH1 0x1 PUSH1 0xA0 SHL SUB NOT AND PUSH1 0x1 PUSH1 0x1 PUSH1 0xA0 SHL SUB SWAP5 DUP6 AND OR SWAP1 SSTORE SWAP2 DUP5 AND DUP2 MSTORE PUSH1 0x7 SWAP1 SWAP2 MSTORE PUSH1 0x40 DUP2 KECCAK256 DUP1 SLOAD SWAP1 SWAP2 SWAP1 PUSH2 0x28EB SWAP1 PUSH1 0x1 SWAP1 PUSH2 0x339A JUMP JUMPDEST SWAP1 POP PUSH1 0x0 DUP3 PUSH1 0x0 ADD DUP3 DUP2 SLOAD DUP2 LT PUSH2 0x2904 JUMPI PUSH2 0x2904 PUSH2 0x3091 JUMP JUMPDEST SWAP1 PUSH1 0x0 MSTORE PUSH1 0x20 PUSH1 0x0 KECCAK256 ADD SLOAD SWAP1 POP PUSH1 0x0 DUP4 PUSH1 0x1 ADD PUSH1 0x0 DUP7 DUP2 MSTORE PUSH1 0x20 ADD SWAP1 DUP2 MSTORE PUSH1 0x20 ADD PUSH1 0x0 KECCAK256 SLOAD SWAP1 POP DUP2 DUP5 PUSH1 0x0 ADD DUP3 DUP2 SLOAD DUP2 LT PUSH2 0x2941 JUMPI PUSH2 0x2941 PUSH2 0x3091 JUMP JUMPDEST PUSH1 0x0 SWAP2 DUP3 MSTORE PUSH1 0x20 DUP1 DUP4 KECCAK256 SWAP1 SWAP2 ADD SWAP3 SWAP1 SWAP3 SSTORE DUP4 DUP2 MSTORE PUSH1 0x1 DUP7 ADD SWAP1 SWAP2 MSTORE PUSH1 0x40 DUP1 DUP3 KECCAK256 DUP4 SWAP1 SSTORE DUP7 DUP3 MSTORE DUP2 KECCAK256 SSTORE DUP4 SLOAD DUP5 SWAP1 DUP1 PUSH2 0x297B JUMPI PUSH2 0x297B PUSH2 0x34BC JUMP JUMPDEST PUSH1 0x1 SWAP1 SUB DUP2 DUP2 SWAP1 PUSH1 0x0 MSTORE PUSH1 0x20 PUSH1 0x0 KECCAK256 ADD PUSH1 0x0 SWAP1 SSTORE SWAP1 SSTORE POP POP POP POP POP POP JUMP JUMPDEST PUSH1 0x0 DUP2 DUP2 MSTORE PUSH1 0x6 PUSH1 0x20 MSTORE PUSH1 0x40 SWAP1 KECCAK256 SLOAD PUSH1 0x5 DUP1 SLOAD DUP5 SWAP3 SWAP1 DUP2 LT PUSH2 0x29BD JUMPI PUSH2 0x29BD PUSH2 0x3091 JUMP JUMPDEST PUSH1 0x0 SWAP2 DUP3 MSTORE PUSH1 0x20 DUP1 DUP4 KECCAK256 PUSH1 0x6 SWAP3 SWAP1 SWAP3 MUL SWAP1 SWAP2 ADD PUSH1 0x3 ADD DUP1 SLOAD PUSH1 0x1 PUSH1 0x1 PUSH1 0xA0 SHL SUB NOT AND PUSH1 0x1 PUSH1 0x1 PUSH1 0xA0 SHL SUB SWAP5 DUP6 AND OR SWAP1 SSTORE SWAP4 SWAP1 SWAP2 AND DUP2 MSTORE PUSH1 0x7 DUP1 DUP5 MSTORE PUSH1 0x40 DUP1 DUP4 KECCAK256 DUP1 SLOAD DUP6 DUP6 MSTORE PUSH1 0x1 DUP3 DUP2 ADD DUP9 MSTORE SWAP3 DUP6 KECCAK256 DUP2 SWAP1 SSTORE SWAP3 DUP7 MSTORE SWAP1 DUP3 ADD DUP2 SSTORE DUP3 MSTORE SWAP3 SWAP1 KECCAK256 SWAP1 SWAP2 ADD SSTORE JUMP JUMPDEST PUSH1 0x5 DUP1 SLOAD DUP3 MLOAD PUSH1 0x0 SWAP1 DUP2 MSTORE PUSH1 0x6 PUSH1 0x20 DUP2 DUP2 MSTORE PUSH1 0x40 DUP1 DUP5 KECCAK256 DUP6 SWAP1 SSTORE PUSH1 0x1 DUP6 ADD DUP7 SSTORE SWAP5 SWAP1 SWAP3 MSTORE DUP5 MLOAD SWAP3 MUL PUSH32 0x36B6384B5ECA791C62761152D0C79BB0604C104A5FB6F4EB0703F3154BB3DB0 DUP2 ADD SWAP3 DUP4 SSTORE DUP2 DUP6 ADD MLOAD PUSH32 0x36B6384B5ECA791C62761152D0C79BB0604C104A5FB6F4EB0703F3154BB3DB1 DUP3 ADD SSTORE SWAP3 DUP5 ADD MLOAD PUSH32 0x36B6384B5ECA791C62761152D0C79BB0604C104A5FB6F4EB0703F3154BB3DB2 DUP5 ADD SSTORE PUSH1 0x60 DUP5 ADD MLOAD PUSH32 0x36B6384B5ECA791C62761152D0C79BB0604C104A5FB6F4EB0703F3154BB3DB3 DUP5 ADD DUP1 SLOAD PUSH1 0x1 PUSH1 0x1 PUSH1 0xA0 SHL SUB SWAP3 DUP4 AND PUSH1 0x1 PUSH1 0x1 PUSH1 0xA0 SHL SUB NOT SWAP2 DUP3 AND OR SWAP1 SWAP2 SSTORE PUSH1 0x80 DUP7 ADD MLOAD PUSH32 0x36B6384B5ECA791C62761152D0C79BB0604C104A5FB6F4EB0703F3154BB3DB4 DUP7 ADD DUP1 SLOAD SWAP2 SWAP1 SWAP4 AND SWAP2 AND OR SWAP1 SSTORE PUSH1 0xA0 DUP5 ADD MLOAD DUP1 MLOAD DUP6 SWAP5 PUSH2 0xF87 SWAP4 PUSH32 0x36B6384B5ECA791C62761152D0C79BB0604C104A5FB6F4EB0703F3154BB3DB5 SWAP1 SWAP2 ADD SWAP3 ADD SWAP1 JUMPDEST DUP3 DUP1 SLOAD DUP3 DUP3 SSTORE SWAP1 PUSH1 0x0 MSTORE PUSH1 0x20 PUSH1 0x0 KECCAK256 SWAP1 DUP2 ADD SWAP3 DUP3 ISZERO PUSH2 0x2BC2 JUMPI SWAP2 PUSH1 0x20 MUL DUP3 ADD JUMPDEST DUP3 DUP2 GT ISZERO PUSH2 0x2BC2 JUMPI DUP3 MLOAD DUP3 SLOAD PUSH1 0x1 PUSH1 0x1 PUSH1 0xA0 SHL SUB NOT AND PUSH1 0x1 PUSH1 0x1 PUSH1 0xA0 SHL SUB SWAP1 SWAP2 AND OR DUP3 SSTORE PUSH1 0x20 SWAP1 SWAP3 ADD SWAP2 PUSH1 0x1 SWAP1 SWAP2 ADD SWAP1 PUSH2 0x2B8D JUMP JUMPDEST POP PUSH2 0x2BCE SWAP3 SWAP2 POP PUSH2 0x2BEC JUMP JUMPDEST POP SWAP1 JUMP JUMPDEST POP DUP1 SLOAD PUSH1 0x0 DUP3 SSTORE SWAP1 PUSH1 0x0 MSTORE PUSH1 0x20 PUSH1 0x0 KECCAK256 SWAP1 DUP2 ADD SWAP1 PUSH2 0x1285 SWAP2 SWAP1 JUMPDEST JUMPDEST DUP1 DUP3 GT ISZERO PUSH2 0x2BCE JUMPI PUSH1 0x0 DUP2 SSTORE PUSH1 0x1 ADD PUSH2 0x2BED JUMP JUMPDEST PUSH1 0x1 PUSH1 0x1 PUSH1 0xE0 SHL SUB NOT DUP2 AND DUP2 EQ PUSH2 0x1285 JUMPI PUSH1 0x0 DUP1 REVERT JUMPDEST PUSH1 0x0 PUSH1 0x20 DUP3 DUP5 SUB SLT ISZERO PUSH2 0x2C29 JUMPI PUSH1 0x0 DUP1 REVERT JUMPDEST DUP2 CALLDATALOAD PUSH2 0x909 DUP2 PUSH2 0x2C01 JUMP JUMPDEST PUSH1 0x0 JUMPDEST DUP4 DUP2 LT ISZERO PUSH2 0x2C4F JUMPI DUP2 DUP2 ADD MLOAD DUP4 DUP3 ADD MSTORE PUSH1 0x20 ADD PUSH2 0x2C37 JUMP JUMPDEST POP POP PUSH1 0x0 SWAP2 ADD MSTORE JUMP JUMPDEST PUSH1 0x0 DUP2 MLOAD DUP1 DUP5 MSTORE PUSH2 0x2C70 DUP2 PUSH1 0x20 DUP7 ADD PUSH1 0x20 DUP7 ADD PUSH2 0x2C34 JUMP JUMPDEST PUSH1 0x1F ADD PUSH1 0x1F NOT AND SWAP3 SWAP1 SWAP3 ADD PUSH1 0x20 ADD SWAP3 SWAP2 POP POP JUMP JUMPDEST PUSH1 0x20 DUP2 MSTORE PUSH1 0x0 PUSH2 0x909 PUSH1 0x20 DUP4 ADD DUP5 PUSH2 0x2C58 JUMP JUMPDEST PUSH1 0x0 PUSH1 0x20 DUP3 DUP5 SUB SLT ISZERO PUSH2 0x2CA9 JUMPI PUSH1 0x0 DUP1 REVERT JUMPDEST POP CALLDATALOAD SWAP2 SWAP1 POP JUMP JUMPDEST DUP1 CALLDATALOAD PUSH1 0x1 PUSH1 0x1 PUSH1 0xA0 SHL SUB DUP2 AND DUP2 EQ PUSH2 0xE2D JUMPI PUSH1 0x0 DUP1 REVERT JUMPDEST PUSH1 0x0 DUP1 PUSH1 0x40 DUP4 DUP6 SUB SLT ISZERO PUSH2 0x2CDA JUMPI PUSH1 0x0 DUP1 REVERT JUMPDEST PUSH2 0x2CE3 DUP4 PUSH2 0x2CB0 JUMP JUMPDEST SWAP5 PUSH1 0x20 SWAP4 SWAP1 SWAP4 ADD CALLDATALOAD SWAP4 POP POP POP JUMP JUMPDEST PUSH1 0x0 DUP1 PUSH1 0x0 PUSH1 0x60 DUP5 DUP7 SUB SLT ISZERO PUSH2 0x2D06 JUMPI PUSH1 0x0 DUP1 REVERT JUMPDEST DUP4 CALLDATALOAD SWAP3 POP PUSH2 0x2D16 PUSH1 0x20 DUP6 ADD PUSH2 0x2CB0 JUMP JUMPDEST SWAP2 POP PUSH1 0x40 DUP5 ADD CALLDATALOAD SWAP1 POP SWAP3 POP SWAP3 POP SWAP3 JUMP JUMPDEST PUSH1 0x0 DUP1 PUSH1 0x0 PUSH1 0x60 DUP5 DUP7 SUB SLT ISZERO PUSH2 0x2D3B JUMPI PUSH1 0x0 DUP1 REVERT JUMPDEST PUSH2 0x2D44 DUP5 PUSH2 0x2CB0 JUMP JUMPDEST SWAP3 POP PUSH2 0x2D16 PUSH1 0x20 DUP6 ADD PUSH2 0x2CB0 JUMP JUMPDEST PUSH1 0x0 DUP1 PUSH1 0x0 PUSH1 0x60 DUP5 DUP7 SUB SLT ISZERO PUSH2 0x2D67 JUMPI PUSH1 0x0 DUP1 REVERT JUMPDEST POP POP DUP2 CALLDATALOAD SWAP4 PUSH1 0x20 DUP4 ADD CALLDATALOAD SWAP4 POP PUSH1 0x40 SWAP1 SWAP3 ADD CALLDATALOAD SWAP2 SWAP1 POP JUMP JUMPDEST PUSH4 0x4E487B71 PUSH1 0xE0 SHL PUSH1 0x0 MSTORE PUSH1 0x41 PUSH1 0x4 MSTORE PUSH1 0x24 PUSH1 0x0 REVERT JUMPDEST PUSH1 0x40 MLOAD PUSH1 0x1F DUP3 ADD PUSH1 0x1F NOT AND DUP2 ADD PUSH8 0xFFFFFFFFFFFFFFFF DUP2 GT DUP3 DUP3 LT OR ISZERO PUSH2 0x2DBD JUMPI PUSH2 0x2DBD PUSH2 0x2D7E JUMP JUMPDEST PUSH1 0x40 MSTORE SWAP2 SWAP1 POP JUMP JUMPDEST PUSH1 0x0 PUSH8 0xFFFFFFFFFFFFFFFF DUP3 GT ISZERO PUSH2 0x2DDF JUMPI PUSH2 0x2DDF PUSH2 0x2D7E JUMP JUMPDEST POP PUSH1 0x1F ADD PUSH1 0x1F NOT AND PUSH1 0x20 ADD SWAP1 JUMP JUMPDEST PUSH1 0x0 PUSH2 0x2E00 PUSH2 0x2DFB DUP5 PUSH2 0x2DC5 JUMP JUMPDEST PUSH2 0x2D94 JUMP JUMPDEST SWAP1 POP DUP3 DUP2 MSTORE DUP4 DUP4 DUP4 ADD GT ISZERO PUSH2 0x2E14 JUMPI PUSH1 0x0 DUP1 REVERT JUMPDEST DUP3 DUP3 PUSH1 0x20 DUP4 ADD CALLDATACOPY PUSH1 0x0 PUSH1 0x20 DUP5 DUP4 ADD ADD MSTORE SWAP4 SWAP3 POP POP POP JUMP JUMPDEST PUSH1 0x0 DUP3 PUSH1 0x1F DUP4 ADD SLT PUSH2 0x2E3C JUMPI PUSH1 0x0 DUP1 REVERT JUMPDEST PUSH2 0x909 DUP4 DUP4 CALLDATALOAD PUSH1 0x20 DUP6 ADD PUSH2 0x2DED JUMP JUMPDEST PUSH1 0x0 PUSH1 0x20 DUP3 DUP5 SUB SLT ISZERO PUSH2 0x2E5D JUMPI PUSH1 0x0 DUP1 REVERT JUMPDEST DUP2 CALLDATALOAD PUSH8 0xFFFFFFFFFFFFFFFF DUP2 GT ISZERO PUSH2 0x2E74 JUMPI PUSH1 0x0 DUP1 REVERT JUMPDEST PUSH2 0x14C5 DUP5 DUP3 DUP6 ADD PUSH2 0x2E2B JUMP JUMPDEST PUSH1 0x0 DUP1 PUSH1 0x0 DUP1 PUSH1 0x0 DUP1 PUSH1 0xC0 DUP8 DUP10 SUB SLT ISZERO PUSH2 0x2E99 JUMPI PUSH1 0x0 DUP1 REVERT JUMPDEST PUSH2 0x2EA2 DUP8 PUSH2 0x2CB0 JUMP JUMPDEST SWAP6 POP PUSH1 0x20 DUP8 ADD CALLDATALOAD SWAP5 POP PUSH1 0x40 DUP8 ADD CALLDATALOAD SWAP4 POP PUSH1 0x60 DUP8 ADD CALLDATALOAD PUSH8 0xFFFFFFFFFFFFFFFF DUP1 DUP3 GT ISZERO PUSH2 0x2ECD JUMPI PUSH1 0x0 DUP1 REVERT JUMPDEST PUSH2 0x2ED9 DUP11 DUP4 DUP12 ADD PUSH2 0x2E2B JUMP JUMPDEST SWAP5 POP PUSH1 0x80 DUP10 ADD CALLDATALOAD SWAP2 POP DUP1 DUP3 GT ISZERO PUSH2 0x2EEF JUMPI PUSH1 0x0 DUP1 REVERT JUMPDEST PUSH2 0x2EFB DUP11 DUP4 DUP12 ADD PUSH2 0x2E2B JUMP JUMPDEST SWAP4 POP PUSH1 0xA0 DUP10 ADD CALLDATALOAD SWAP2 POP DUP1 DUP3 GT ISZERO PUSH2 0x2F11 JUMPI PUSH1 0x0 DUP1 REVERT JUMPDEST POP PUSH2 0x2F1E DUP10 DUP3 DUP11 ADD PUSH2 0x2E2B JUMP JUMPDEST SWAP2 POP POP SWAP3 SWAP6 POP SWAP3 SWAP6 POP SWAP3 SWAP6 JUMP JUMPDEST PUSH1 0x0 PUSH1 0x20 DUP3 DUP5 SUB SLT ISZERO PUSH2 0x2F3D JUMPI PUSH1 0x0 DUP1 REVERT JUMPDEST PUSH2 0x909 DUP3 PUSH2 0x2CB0 JUMP JUMPDEST DUP1 ISZERO ISZERO DUP2 EQ PUSH2 0x1285 JUMPI PUSH1 0x0 DUP1 REVERT JUMPDEST PUSH1 0x0 DUP1 PUSH1 0x40 DUP4 DUP6 SUB SLT ISZERO PUSH2 0x2F67 JUMPI PUSH1 0x0 DUP1 REVERT JUMPDEST PUSH2 0x2F70 DUP4 PUSH2 0x2CB0 JUMP JUMPDEST SWAP2 POP PUSH1 0x20 DUP4 ADD CALLDATALOAD PUSH2 0x2F80 DUP2 PUSH2 0x2F46 JUMP JUMPDEST DUP1 SWAP2 POP POP SWAP3 POP SWAP3 SWAP1 POP JUMP JUMPDEST PUSH1 0x0 DUP1 PUSH1 0x0 DUP1 PUSH1 0x80 DUP6 DUP8 SUB SLT ISZERO PUSH2 0x2FA1 JUMPI PUSH1 0x0 DUP1 REVERT JUMPDEST PUSH2 0x2FAA DUP6 PUSH2 0x2CB0 JUMP JUMPDEST SWAP4 POP PUSH2 0x2FB8 PUSH1 0x20 DUP7 ADD PUSH2 0x2CB0 JUMP JUMPDEST SWAP3 POP PUSH1 0x40 DUP6 ADD CALLDATALOAD SWAP2 POP PUSH1 0x60 DUP6 ADD CALLDATALOAD PUSH8 0xFFFFFFFFFFFFFFFF DUP2 GT ISZERO PUSH2 0x2FDB JUMPI PUSH1 0x0 DUP1 REVERT JUMPDEST DUP6 ADD PUSH1 0x1F DUP2 ADD DUP8 SGT PUSH2 0x2FEC JUMPI PUSH1 0x0 DUP1 REVERT JUMPDEST PUSH2 0x2FFB DUP8 DUP3 CALLDATALOAD PUSH1 0x20 DUP5 ADD PUSH2 0x2DED JUMP JUMPDEST SWAP2 POP POP SWAP3 SWAP6 SWAP2 SWAP5 POP SWAP3 POP JUMP JUMPDEST PUSH1 0x0 DUP1 PUSH1 0x40 DUP4 DUP6 SUB SLT ISZERO PUSH2 0x301A JUMPI PUSH1 0x0 DUP1 REVERT JUMPDEST DUP3 CALLDATALOAD SWAP2 POP PUSH2 0x302A PUSH1 0x20 DUP5 ADD PUSH2 0x2CB0 JUMP JUMPDEST SWAP1 POP SWAP3 POP SWAP3 SWAP1 POP JUMP JUMPDEST PUSH1 0x0 DUP1 PUSH1 0x40 DUP4 DUP6 SUB SLT ISZERO PUSH2 0x3046 JUMPI PUSH1 0x0 DUP1 REVERT JUMPDEST PUSH2 0x304F DUP4 PUSH2 0x2CB0 JUMP JUMPDEST SWAP2 POP PUSH2 0x302A PUSH1 0x20 DUP5 ADD PUSH2 0x2CB0 JUMP JUMPDEST PUSH1 0x1 DUP2 DUP2 SHR SWAP1 DUP3 AND DUP1 PUSH2 0x3071 JUMPI PUSH1 0x7F DUP3 AND SWAP2 POP JUMPDEST PUSH1 0x20 DUP3 LT DUP2 SUB PUSH2 0xA8D JUMPI PUSH4 0x4E487B71 PUSH1 0xE0 SHL PUSH1 0x0 MSTORE PUSH1 0x22 PUSH1 0x4 MSTORE PUSH1 0x24 PUSH1 0x0 REVERT JUMPDEST PUSH4 0x4E487B71 PUSH1 0xE0 SHL PUSH1 0x0 MSTORE PUSH1 0x32 PUSH1 0x4 MSTORE PUSH1 0x24 PUSH1 0x0 REVERT JUMPDEST PUSH1 0x20 DUP1 DUP3 MSTORE PUSH1 0x22 SWAP1 DUP3 ADD MSTORE PUSH32 0x455243333532353A20617070726F76616C20746F2063757272656E74206F776E PUSH1 0x40 DUP3 ADD MSTORE PUSH2 0x32B9 PUSH1 0xF1 SHL PUSH1 0x60 DUP3 ADD MSTORE PUSH1 0x80 ADD SWAP1 JUMP JUMPDEST PUSH1 0x0 DUP4 MLOAD PUSH2 0x30FB DUP2 DUP5 PUSH1 0x20 DUP9 ADD PUSH2 0x2C34 JUMP JUMPDEST PUSH5 0x736C6F742F PUSH1 0xD8 SHL SWAP1 DUP4 ADD SWAP1 DUP2 MSTORE DUP4 MLOAD PUSH2 0x311D DUP2 PUSH1 0x5 DUP5 ADD PUSH1 0x20 DUP9 ADD PUSH2 0x2C34 JUMP JUMPDEST ADD PUSH1 0x5 ADD SWAP5 SWAP4 POP POP POP POP JUMP JUMPDEST PUSH1 0x0 PUSH1 0x20 DUP3 DUP5 SUB SLT ISZERO PUSH2 0x313B JUMPI PUSH1 0x0 DUP1 REVERT JUMPDEST DUP2 MLOAD PUSH8 0xFFFFFFFFFFFFFFFF DUP2 GT ISZERO PUSH2 0x3152 JUMPI PUSH1 0x0 DUP1 REVERT JUMPDEST DUP3 ADD PUSH1 0x1F DUP2 ADD DUP5 SGT PUSH2 0x3163 JUMPI PUSH1 0x0 DUP1 REVERT JUMPDEST DUP1 MLOAD PUSH2 0x3171 PUSH2 0x2DFB DUP3 PUSH2 0x2DC5 JUMP JUMPDEST DUP2 DUP2 MSTORE DUP6 PUSH1 0x20 DUP4 DUP6 ADD ADD GT ISZERO PUSH2 0x3186 JUMPI PUSH1 0x0 DUP1 REVERT JUMPDEST PUSH2 0x3197 DUP3 PUSH1 0x20 DUP4 ADD PUSH1 0x20 DUP7 ADD PUSH2 0x2C34 JUMP JUMPDEST SWAP6 SWAP5 POP POP POP POP POP JUMP JUMPDEST PUSH1 0x20 DUP1 DUP3 MSTORE PUSH1 0x32 SWAP1 DUP3 ADD MSTORE PUSH32 0x455243333532353A207472616E736665722063616C6C6572206973206E6F7420 PUSH1 0x40 DUP3 ADD MSTORE PUSH18 0x1BDDDB995C881B9BDC88185C1C1C9BDD9959 PUSH1 0x72 SHL PUSH1 0x60 DUP3 ADD MSTORE PUSH1 0x80 ADD SWAP1 JUMP JUMPDEST PUSH1 0x1F DUP3 GT ISZERO PUSH2 0x826 JUMPI PUSH1 0x0 DUP2 DUP2 MSTORE PUSH1 0x20 DUP2 KECCAK256 PUSH1 0x1F DUP6 ADD PUSH1 0x5 SHR DUP2 ADD PUSH1 0x20 DUP7 LT ISZERO PUSH2 0x3219 JUMPI POP DUP1 JUMPDEST PUSH1 0x1F DUP6 ADD PUSH1 0x5 SHR DUP3 ADD SWAP2 POP JUMPDEST DUP2 DUP2 LT ISZERO PUSH2 0x20C2 JUMPI DUP3 DUP2 SSTORE PUSH1 0x1 ADD PUSH2 0x3225 JUMP JUMPDEST DUP2 MLOAD PUSH8 0xFFFFFFFFFFFFFFFF DUP2 GT ISZERO PUSH2 0x3252 JUMPI PUSH2 0x3252 PUSH2 0x2D7E JUMP JUMPDEST PUSH2 0x3266 DUP2 PUSH2 0x3260 DUP5 SLOAD PUSH2 0x305D JUMP JUMPDEST DUP5 PUSH2 0x31F2 JUMP JUMPDEST PUSH1 0x20 DUP1 PUSH1 0x1F DUP4 GT PUSH1 0x1 DUP2 EQ PUSH2 0x329B JUMPI PUSH1 0x0 DUP5 ISZERO PUSH2 0x3283 JUMPI POP DUP6 DUP4 ADD MLOAD JUMPDEST PUSH1 0x0 NOT PUSH1 0x3 DUP7 SWAP1 SHL SHR NOT AND PUSH1 0x1 DUP6 SWAP1 SHL OR DUP6 SSTORE PUSH2 0x20C2 JUMP JUMPDEST PUSH1 0x0 DUP6 DUP2 MSTORE PUSH1 0x20 DUP2 KECCAK256 PUSH1 0x1F NOT DUP7 AND SWAP2 JUMPDEST DUP3 DUP2 LT ISZERO PUSH2 0x32CA JUMPI DUP9 DUP7 ADD MLOAD DUP3 SSTORE SWAP5 DUP5 ADD SWAP5 PUSH1 0x1 SWAP1 SWAP2 ADD SWAP1 DUP5 ADD PUSH2 0x32AB JUMP JUMPDEST POP DUP6 DUP3 LT ISZERO PUSH2 0x32E8 JUMPI DUP8 DUP6 ADD MLOAD PUSH1 0x0 NOT PUSH1 0x3 DUP9 SWAP1 SHL PUSH1 0xF8 AND SHR NOT AND DUP2 SSTORE JUMPDEST POP POP POP POP POP PUSH1 0x1 SWAP1 DUP2 SHL ADD SWAP1 SSTORE POP JUMP JUMPDEST DUP3 DUP2 MSTORE PUSH1 0x40 PUSH1 0x20 DUP3 ADD MSTORE PUSH1 0x0 PUSH2 0x14C5 PUSH1 0x40 DUP4 ADD DUP5 PUSH2 0x2C58 JUMP JUMPDEST PUSH1 0x0 DUP4 MLOAD PUSH2 0x3323 DUP2 DUP5 PUSH1 0x20 DUP9 ADD PUSH2 0x2C34 JUMP JUMPDEST DUP4 MLOAD SWAP1 DUP4 ADD SWAP1 PUSH2 0x3337 DUP2 DUP4 PUSH1 0x20 DUP9 ADD PUSH2 0x2C34 JUMP JUMPDEST ADD SWAP5 SWAP4 POP POP POP POP JUMP JUMPDEST PUSH1 0x0 DUP4 MLOAD PUSH2 0x3352 DUP2 DUP5 PUSH1 0x20 DUP9 ADD PUSH2 0x2C34 JUMP JUMPDEST PUSH9 0x636F6E74726163742F PUSH1 0xB8 SHL SWAP1 DUP4 ADD SWAP1 DUP2 MSTORE DUP4 MLOAD PUSH2 0x3378 DUP2 PUSH1 0x9 DUP5 ADD PUSH1 0x20 DUP9 ADD PUSH2 0x2C34 JUMP JUMPDEST ADD PUSH1 0x9 ADD SWAP5 SWAP4 POP POP POP POP JUMP JUMPDEST PUSH4 0x4E487B71 PUSH1 0xE0 SHL PUSH1 0x0 MSTORE PUSH1 0x11 PUSH1 0x4 MSTORE PUSH1 0x24 PUSH1 0x0 REVERT JUMPDEST DUP2 DUP2 SUB DUP2 DUP2 GT ISZERO PUSH2 0x65D JUMPI PUSH2 0x65D PUSH2 0x3384 JUMP JUMPDEST DUP1 DUP3 ADD DUP1 DUP3 GT ISZERO PUSH2 0x65D JUMPI PUSH2 0x65D PUSH2 0x3384 JUMP JUMPDEST PUSH1 0x0 PUSH1 0x1 DUP3 ADD PUSH2 0x33D2 JUMPI PUSH2 0x33D2 PUSH2 0x3384 JUMP JUMPDEST POP PUSH1 0x1 ADD SWAP1 JUMP JUMPDEST PUSH1 0x1 PUSH1 0x1 PUSH1 0xA0 SHL SUB DUP6 DUP2 AND DUP3 MSTORE DUP5 AND PUSH1 0x20 DUP3 ADD MSTORE PUSH1 0x40 DUP2 ADD DUP4 SWAP1 MSTORE PUSH1 0x80 PUSH1 0x60 DUP3 ADD DUP2 SWAP1 MSTORE PUSH1 0x0 SWAP1 PUSH2 0x340C SWAP1 DUP4 ADD DUP5 PUSH2 0x2C58 JUMP JUMPDEST SWAP7 SWAP6 POP POP POP POP POP POP JUMP JUMPDEST PUSH1 0x0 PUSH1 0x20 DUP3 DUP5 SUB SLT ISZERO PUSH2 0x3428 JUMPI PUSH1 0x0 DUP1 REVERT JUMPDEST DUP2 MLOAD PUSH2 0x909 DUP2 PUSH2 0x2C01 JUMP JUMPDEST DUP1 DUP3 MUL DUP2 ISZERO DUP3 DUP3 DIV DUP5 EQ OR PUSH2 0x65D JUMPI PUSH2 0x65D PUSH2 0x3384 JUMP JUMPDEST PUSH1 0x0 DUP2 PUSH2 0x3459 JUMPI PUSH2 0x3459 PUSH2 0x3384 JUMP JUMPDEST POP PUSH1 0x0 NOT ADD SWAP1 JUMP JUMPDEST PUSH1 0x0 PUSH1 0x20 DUP3 DUP5 SUB SLT ISZERO PUSH2 0x3473 JUMPI PUSH1 0x0 DUP1 REVERT JUMPDEST DUP2 MLOAD PUSH2 0x909 DUP2 PUSH2 0x2F46 JUMP JUMPDEST PUSH1 0x1 DUP1 PUSH1 0xA0 SHL SUB DUP7 AND DUP2 MSTORE DUP5 PUSH1 0x20 DUP3 ADD MSTORE DUP4 PUSH1 0x40 DUP3 ADD MSTORE DUP3 PUSH1 0x60 DUP3 ADD MSTORE PUSH1 0xA0 PUSH1 0x80 DUP3 ADD MSTORE PUSH1 0x0 PUSH2 0x34B1 PUSH1 0xA0 DUP4 ADD DUP5 PUSH2 0x2C58 JUMP JUMPDEST SWAP8 SWAP7 POP POP POP POP POP POP POP JUMP JUMPDEST PUSH4 0x4E487B71 PUSH1 0xE0 SHL PUSH1 0x0 MSTORE PUSH1 0x31 PUSH1 0x4 MSTORE PUSH1 0x24 PUSH1 0x0 REVERT INVALID LOG2 PUSH5 0x6970667358 0x22 SLT KECCAK256 TIMESTAMP 0xD1 0xDB DUP1 0x29 CALLDATALOAD AND EXTCODEHASH PUSH21 0x54C0A3C9D9B58BE41E040749862F086F3958EF9870 NUMBER 0xFB PUSH5 0x736F6C6343 STOP ADDMOD GT STOP CALLER PUSH1 0x80 PUSH1 0x40 MSTORE CALLVALUE DUP1 ISZERO PUSH3 0x11 JUMPI PUSH1 0x0 DUP1 REVERT JUMPDEST POP PUSH1 0x40 MLOAD PUSH3 0x1A46 CODESIZE SUB DUP1 PUSH3 0x1A46 DUP4 CODECOPY DUP2 ADD PUSH1 0x40 DUP2 SWAP1 MSTORE PUSH3 0x34 SWAP2 PUSH3 0x150 JUMP JUMPDEST PUSH1 0x1 PUSH3 0x42 DUP6 DUP3 PUSH3 0x292 JUMP JUMPDEST POP PUSH1 0x2 PUSH3 0x51 DUP5 DUP3 PUSH3 0x292 JUMP JUMPDEST POP PUSH1 0x3 PUSH3 0x60 DUP4 DUP3 PUSH3 0x292 JUMP JUMPDEST POP PUSH1 0x0 DUP1 SLOAD PUSH1 0x1 PUSH1 0x1 PUSH1 0xA0 SHL SUB NOT AND PUSH1 0x1 PUSH1 0x1 PUSH1 0xA0 SHL SUB SWAP3 SWAP1 SWAP3 AND SWAP2 SWAP1 SWAP2 OR SWAP1 SSTORE POP PUSH3 0x35E SWAP2 POP POP JUMP JUMPDEST PUSH4 0x4E487B71 PUSH1 0xE0 SHL PUSH1 0x0 MSTORE PUSH1 0x41 PUSH1 0x4 MSTORE PUSH1 0x24 PUSH1 0x0 REVERT JUMPDEST PUSH1 0x0 DUP3 PUSH1 0x1F DUP4 ADD SLT PUSH3 0xB3 JUMPI PUSH1 0x0 DUP1 REVERT JUMPDEST DUP2 MLOAD PUSH1 0x1 PUSH1 0x1 PUSH1 0x40 SHL SUB DUP1 DUP3 GT ISZERO PUSH3 0xD0 JUMPI PUSH3 0xD0 PUSH3 0x8B JUMP JUMPDEST PUSH1 0x40 MLOAD PUSH1 0x1F DUP4 ADD PUSH1 0x1F NOT SWAP1 DUP2 AND PUSH1 0x3F ADD AND DUP2 ADD SWAP1 DUP3 DUP3 GT DUP2 DUP4 LT OR ISZERO PUSH3 0xFB JUMPI PUSH3 0xFB PUSH3 0x8B JUMP JUMPDEST DUP2 PUSH1 0x40 MSTORE DUP4 DUP2 MSTORE PUSH1 0x20 SWAP3 POP DUP7 DUP4 DUP6 DUP9 ADD ADD GT ISZERO PUSH3 0x118 JUMPI PUSH1 0x0 DUP1 REVERT JUMPDEST PUSH1 0x0 SWAP2 POP JUMPDEST DUP4 DUP3 LT ISZERO PUSH3 0x13C JUMPI DUP6 DUP3 ADD DUP4 ADD MLOAD DUP2 DUP4 ADD DUP5 ADD MSTORE SWAP1 DUP3 ADD SWAP1 PUSH3 0x11D JUMP JUMPDEST PUSH1 0x0 SWAP4 DUP2 ADD SWAP1 SWAP3 ADD SWAP3 SWAP1 SWAP3 MSTORE SWAP5 SWAP4 POP POP POP POP JUMP JUMPDEST PUSH1 0x0 DUP1 PUSH1 0x0 DUP1 PUSH1 0x80 DUP6 DUP8 SUB SLT ISZERO PUSH3 0x167 JUMPI PUSH1 0x0 DUP1 REVERT JUMPDEST DUP5 MLOAD PUSH1 0x1 PUSH1 0x1 PUSH1 0x40 SHL SUB DUP1 DUP3 GT ISZERO PUSH3 0x17F JUMPI PUSH1 0x0 DUP1 REVERT JUMPDEST PUSH3 0x18D DUP9 DUP4 DUP10 ADD PUSH3 0xA1 JUMP JUMPDEST SWAP6 POP PUSH1 0x20 DUP8 ADD MLOAD SWAP2 POP DUP1 DUP3 GT ISZERO PUSH3 0x1A4 JUMPI PUSH1 0x0 DUP1 REVERT JUMPDEST PUSH3 0x1B2 DUP9 DUP4 DUP10 ADD PUSH3 0xA1 JUMP JUMPDEST SWAP5 POP PUSH1 0x40 DUP8 ADD MLOAD SWAP2 POP DUP1 DUP3 GT ISZERO PUSH3 0x1C9 JUMPI PUSH1 0x0 DUP1 REVERT JUMPDEST POP PUSH3 0x1D8 DUP8 DUP3 DUP9 ADD PUSH3 0xA1 JUMP JUMPDEST PUSH1 0x60 DUP8 ADD MLOAD SWAP1 SWAP4 POP SWAP1 POP PUSH1 0x1 PUSH1 0x1 PUSH1 0xA0 SHL SUB DUP2 AND DUP2 EQ PUSH3 0x1F8 JUMPI PUSH1 0x0 DUP1 REVERT JUMPDEST SWAP4 SWAP7 SWAP3 SWAP6 POP SWAP1 SWAP4 POP POP JUMP JUMPDEST PUSH1 0x1 DUP2 DUP2 SHR SWAP1 DUP3 AND DUP1 PUSH3 0x218 JUMPI PUSH1 0x7F DUP3 AND SWAP2 POP JUMPDEST PUSH1 0x20 DUP3 LT DUP2 SUB PUSH3 0x239 JUMPI PUSH4 0x4E487B71 PUSH1 0xE0 SHL PUSH1 0x0 MSTORE PUSH1 0x22 PUSH1 0x4 MSTORE PUSH1 0x24 PUSH1 0x0 REVERT JUMPDEST POP SWAP2 SWAP1 POP JUMP JUMPDEST PUSH1 0x1F DUP3 GT ISZERO PUSH3 0x28D JUMPI PUSH1 0x0 DUP2 DUP2 MSTORE PUSH1 0x20 DUP2 KECCAK256 PUSH1 0x1F DUP6 ADD PUSH1 0x5 SHR DUP2 ADD PUSH1 0x20 DUP7 LT ISZERO PUSH3 0x268 JUMPI POP DUP1 JUMPDEST PUSH1 0x1F DUP6 ADD PUSH1 0x5 SHR DUP3 ADD SWAP2 POP JUMPDEST DUP2 DUP2 LT ISZERO PUSH3 0x289 JUMPI DUP3 DUP2 SSTORE PUSH1 0x1 ADD PUSH3 0x274 JUMP JUMPDEST POP POP POP JUMPDEST POP POP POP JUMP JUMPDEST DUP2 MLOAD PUSH1 0x1 PUSH1 0x1 PUSH1 0x40 SHL SUB DUP2 GT ISZERO PUSH3 0x2AE JUMPI PUSH3 0x2AE PUSH3 0x8B JUMP JUMPDEST PUSH3 0x2C6 DUP2 PUSH3 0x2BF DUP5 SLOAD PUSH3 0x203 JUMP JUMPDEST DUP5 PUSH3 0x23F JUMP JUMPDEST PUSH1 0x20 DUP1 PUSH1 0x1F DUP4 GT PUSH1 0x1 DUP2 EQ PUSH3 0x2FE JUMPI PUSH1 0x0 DUP5 ISZERO PUSH3 0x2E5 JUMPI POP DUP6 DUP4 ADD MLOAD JUMPDEST PUSH1 0x0 NOT PUSH1 0x3 DUP7 SWAP1 SHL SHR NOT AND PUSH1 0x1 DUP6 SWAP1 SHL OR DUP6 SSTORE PUSH3 0x289 JUMP JUMPDEST PUSH1 0x0 DUP6 DUP2 MSTORE PUSH1 0x20 DUP2 KECCAK256 PUSH1 0x1F NOT DUP7 AND SWAP2 JUMPDEST DUP3 DUP2 LT ISZERO PUSH3 0x32F JUMPI DUP9 DUP7 ADD MLOAD DUP3 SSTORE SWAP5 DUP5 ADD SWAP5 PUSH1 0x1 SWAP1 SWAP2 ADD SWAP1 DUP5 ADD PUSH3 0x30E JUMP JUMPDEST POP DUP6 DUP3 LT ISZERO PUSH3 0x34E JUMPI DUP8 DUP6 ADD MLOAD PUSH1 0x0 NOT PUSH1 0x3 DUP9 SWAP1 SHL PUSH1 0xF8 AND SHR NOT AND DUP2 SSTORE JUMPDEST POP POP POP POP POP PUSH1 0x1 SWAP1 DUP2 SHL ADD SWAP1 SSTORE POP JUMP JUMPDEST PUSH2 0x16D8 DUP1 PUSH3 0x36E PUSH1 0x0 CODECOPY PUSH1 0x0 RETURN INVALID PUSH1 0x80 PUSH1 0x40 MSTORE CALLVALUE DUP1 ISZERO PUSH2 0x10 JUMPI PUSH1 0x0 DUP1 REVERT JUMPDEST POP PUSH1 0x4 CALLDATASIZE LT PUSH2 0x7D JUMPI PUSH1 0x0 CALLDATALOAD PUSH1 0xE0 SHR DUP1 PUSH4 0x6C037F8A GT PUSH2 0x5B JUMPI DUP1 PUSH4 0x6C037F8A EQ PUSH2 0xBD JUMPI DUP1 PUSH4 0x725FA09C EQ PUSH2 0xE6 JUMPI DUP1 PUSH4 0x842251D4 EQ PUSH2 0xEE JUMPI DUP1 PUSH4 0x894B4C2E EQ PUSH2 0x101 JUMPI PUSH1 0x0 DUP1 REVERT JUMPDEST DUP1 PUSH4 0x246A908B EQ PUSH2 0x82 JUMPI DUP1 PUSH4 0x55F804B3 EQ PUSH2 0x97 JUMPI DUP1 PUSH4 0x64140EC0 EQ PUSH2 0xAA JUMPI JUMPDEST PUSH1 0x0 DUP1 REVERT JUMPDEST PUSH2 0x95 PUSH2 0x90 CALLDATASIZE PUSH1 0x4 PUSH2 0xD53 JUMP JUMPDEST PUSH2 0x114 JUMP JUMPDEST STOP JUMPDEST PUSH2 0x95 PUSH2 0xA5 CALLDATASIZE PUSH1 0x4 PUSH2 0xD9A JUMP JUMPDEST PUSH2 0x131 JUMP JUMPDEST PUSH2 0x95 PUSH2 0xB8 CALLDATASIZE PUSH1 0x4 PUSH2 0xD53 JUMP JUMPDEST PUSH2 0x141 JUMP JUMPDEST PUSH2 0xD0 PUSH2 0xCB CALLDATASIZE PUSH1 0x4 PUSH2 0xDD7 JUMP JUMPDEST PUSH2 0x159 JUMP JUMPDEST PUSH1 0x40 MLOAD PUSH2 0xDD SWAP2 SWAP1 PUSH2 0xE14 JUMP JUMPDEST PUSH1 0x40 MLOAD DUP1 SWAP2 SUB SWAP1 RETURN JUMPDEST PUSH2 0xD0 PUSH2 0x1CF JUMP JUMPDEST PUSH2 0x95 PUSH2 0xFC CALLDATASIZE PUSH1 0x4 PUSH2 0xD53 JUMP JUMPDEST PUSH2 0x2F4 JUMP JUMPDEST PUSH2 0xD0 PUSH2 0x10F CALLDATASIZE PUSH1 0x4 PUSH2 0xDD7 JUMP JUMPDEST PUSH2 0x30C JUMP JUMPDEST PUSH1 0x0 DUP3 DUP2 MSTORE PUSH1 0x4 PUSH1 0x20 MSTORE PUSH1 0x40 SWAP1 KECCAK256 PUSH2 0x12C DUP3 DUP3 PUSH2 0xECF JUMP JUMPDEST POP POP POP JUMP JUMPDEST PUSH1 0x1 PUSH2 0x13D DUP3 DUP3 PUSH2 0xECF JUMP JUMPDEST POP POP JUMP JUMPDEST PUSH1 0x0 DUP3 DUP2 MSTORE PUSH1 0x5 PUSH1 0x20 MSTORE PUSH1 0x40 SWAP1 KECCAK256 PUSH2 0x12C DUP3 DUP3 PUSH2 0xECF JUMP JUMPDEST PUSH1 0x60 PUSH2 0x1A9 PUSH2 0x167 DUP4 PUSH2 0x416 JUMP JUMPDEST PUSH2 0x170 DUP5 PUSH2 0x48F JUMP JUMPDEST PUSH2 0x179 DUP6 PUSH2 0x4C1 JUMP JUMPDEST PUSH2 0x182 DUP7 PUSH2 0x543 JUMP JUMPDEST PUSH1 0x40 MLOAD PUSH1 0x20 ADD PUSH2 0x195 SWAP5 SWAP4 SWAP3 SWAP2 SWAP1 PUSH2 0xFAB JUMP JUMPDEST PUSH1 0x40 MLOAD PUSH1 0x20 DUP2 DUP4 SUB SUB DUP2 MSTORE SWAP1 PUSH1 0x40 MSTORE PUSH2 0x5C5 JUMP JUMPDEST PUSH1 0x40 MLOAD PUSH1 0x20 ADD PUSH2 0x1B9 SWAP2 SWAP1 PUSH2 0x1079 JUMP JUMPDEST PUSH1 0x40 MLOAD PUSH1 0x20 DUP2 DUP4 SUB SUB DUP2 MSTORE SWAP1 PUSH1 0x40 MSTORE SWAP1 POP SWAP2 SWAP1 POP JUMP JUMPDEST PUSH1 0x60 PUSH1 0x0 CALLER SWAP1 POP PUSH2 0x2CF DUP2 PUSH1 0x1 PUSH1 0x1 PUSH1 0xA0 SHL SUB AND PUSH4 0x6FDDE03 PUSH1 0x40 MLOAD DUP2 PUSH4 0xFFFFFFFF AND PUSH1 0xE0 SHL DUP2 MSTORE PUSH1 0x4 ADD PUSH1 0x0 PUSH1 0x40 MLOAD DUP1 DUP4 SUB DUP2 DUP7 GAS STATICCALL ISZERO DUP1 ISZERO PUSH2 0x217 JUMPI RETURNDATASIZE PUSH1 0x0 DUP1 RETURNDATACOPY RETURNDATASIZE PUSH1 0x0 REVERT JUMPDEST POP POP POP POP PUSH1 0x40 MLOAD RETURNDATASIZE PUSH1 0x0 DUP3 RETURNDATACOPY PUSH1 0x1F RETURNDATASIZE SWAP1 DUP2 ADD PUSH1 0x1F NOT AND DUP3 ADD PUSH1 0x40 MSTORE PUSH2 0x23F SWAP2 SWAP1 DUP2 ADD SWAP1 PUSH2 0x10BE JUMP JUMPDEST PUSH2 0x247 PUSH2 0x718 JUMP JUMPDEST PUSH2 0x24F PUSH2 0x7AA JUMP JUMPDEST PUSH2 0x2BC DUP6 PUSH1 0x1 PUSH1 0x1 PUSH1 0xA0 SHL SUB AND PUSH4 0x3E7E8669 PUSH1 0x40 MLOAD DUP2 PUSH4 0xFFFFFFFF AND PUSH1 0xE0 SHL DUP2 MSTORE PUSH1 0x4 ADD PUSH1 0x20 PUSH1 0x40 MLOAD DUP1 DUP4 SUB DUP2 DUP7 GAS STATICCALL ISZERO DUP1 ISZERO PUSH2 0x290 JUMPI RETURNDATASIZE PUSH1 0x0 DUP1 RETURNDATACOPY RETURNDATASIZE PUSH1 0x0 REVERT JUMPDEST POP POP POP POP PUSH1 0x40 MLOAD RETURNDATASIZE PUSH1 0x1F NOT PUSH1 0x1F DUP3 ADD AND DUP3 ADD DUP1 PUSH1 0x40 MSTORE POP DUP2 ADD SWAP1 PUSH2 0x2B4 SWAP2 SWAP1 PUSH2 0x1135 JUMP JUMPDEST PUSH1 0xFF AND PUSH2 0x7DF JUMP JUMPDEST PUSH1 0x40 MLOAD PUSH1 0x20 ADD PUSH2 0x195 SWAP5 SWAP4 SWAP3 SWAP2 SWAP1 PUSH2 0x1158 JUMP JUMPDEST PUSH1 0x40 MLOAD PUSH1 0x20 ADD PUSH2 0x2DF SWAP2 SWAP1 PUSH2 0x1079 JUMP JUMPDEST PUSH1 0x40 MLOAD PUSH1 0x20 DUP2 DUP4 SUB SUB DUP2 MSTORE SWAP1 PUSH1 0x40 MSTORE SWAP2 POP POP SWAP1 JUMP JUMPDEST PUSH1 0x0 DUP3 DUP2 MSTORE PUSH1 0x6 PUSH1 0x20 MSTORE PUSH1 0x40 SWAP1 KECCAK256 PUSH2 0x12C DUP3 DUP3 PUSH2 0xECF JUMP JUMPDEST PUSH1 0x60 CALLER PUSH2 0x3EF PUSH2 0x31B DUP5 PUSH2 0x872 JUMP JUMPDEST PUSH2 0x324 DUP6 PUSH2 0x8F4 JUMP JUMPDEST PUSH2 0x32D DUP7 PUSH2 0x996 JUMP JUMPDEST PUSH1 0x40 MLOAD PUSH4 0x1398FEE1 PUSH1 0xE3 SHL DUP2 MSTORE PUSH1 0x4 DUP2 ADD DUP9 SWAP1 MSTORE PUSH2 0x3A0 SWAP1 PUSH1 0x1 PUSH1 0x1 PUSH1 0xA0 SHL SUB DUP8 AND SWAP1 PUSH4 0x9CC7F708 SWAP1 PUSH1 0x24 ADD JUMPDEST PUSH1 0x20 PUSH1 0x40 MLOAD DUP1 DUP4 SUB DUP2 DUP7 GAS STATICCALL ISZERO DUP1 ISZERO PUSH2 0x377 JUMPI RETURNDATASIZE PUSH1 0x0 DUP1 RETURNDATACOPY RETURNDATASIZE PUSH1 0x0 REVERT JUMPDEST POP POP POP POP PUSH1 0x40 MLOAD RETURNDATASIZE PUSH1 0x1F NOT PUSH1 0x1F DUP3 ADD AND DUP3 ADD DUP1 PUSH1 0x40 MSTORE POP DUP2 ADD SWAP1 PUSH2 0x39B SWAP2 SWAP1 PUSH2 0x122B JUMP JUMPDEST PUSH2 0x7DF JUMP JUMPDEST PUSH1 0x40 MLOAD PUSH4 0x131F9F3F PUSH1 0xE1 SHL DUP2 MSTORE PUSH1 0x4 DUP2 ADD DUP10 SWAP1 MSTORE PUSH2 0x3D1 SWAP1 PUSH1 0x1 PUSH1 0x1 PUSH1 0xA0 SHL SUB DUP9 AND SWAP1 PUSH4 0x263F3E7E SWAP1 PUSH1 0x24 ADD PUSH2 0x35A JUMP JUMPDEST PUSH2 0x3DA DUP10 PUSH2 0x9CB JUMP JUMPDEST PUSH1 0x40 MLOAD PUSH1 0x20 ADD PUSH2 0x195 SWAP7 SWAP6 SWAP5 SWAP4 SWAP3 SWAP2 SWAP1 PUSH2 0x1244 JUMP JUMPDEST PUSH1 0x40 MLOAD PUSH1 0x20 ADD PUSH2 0x3FF SWAP2 SWAP1 PUSH2 0x1079 JUMP JUMPDEST PUSH1 0x40 MLOAD PUSH1 0x20 DUP2 DUP4 SUB SUB DUP2 MSTORE SWAP1 PUSH1 0x40 MSTORE SWAP2 POP POP SWAP2 SWAP1 POP JUMP JUMPDEST PUSH1 0x0 SLOAD PUSH1 0x40 MLOAD PUSH4 0xEC327A21 PUSH1 0xE0 SHL DUP2 MSTORE PUSH1 0x4 DUP2 ADD DUP4 SWAP1 MSTORE PUSH1 0x60 SWAP2 PUSH1 0x1 PUSH1 0x1 PUSH1 0xA0 SHL SUB AND SWAP1 PUSH4 0xEC327A21 SWAP1 PUSH1 0x24 ADD JUMPDEST PUSH1 0x0 PUSH1 0x40 MLOAD DUP1 DUP4 SUB DUP2 DUP7 GAS STATICCALL ISZERO DUP1 ISZERO PUSH2 0x461 JUMPI RETURNDATASIZE PUSH1 0x0 DUP1 RETURNDATACOPY RETURNDATASIZE PUSH1 0x0 REVERT JUMPDEST POP POP POP POP PUSH1 0x40 MLOAD RETURNDATASIZE PUSH1 0x0 DUP3 RETURNDATACOPY PUSH1 0x1F RETURNDATASIZE SWAP1 DUP2 ADD PUSH1 0x1F NOT AND DUP3 ADD PUSH1 0x40 MSTORE PUSH2 0x489 SWAP2 SWAP1 DUP2 ADD SWAP1 PUSH2 0x10BE JUMP JUMPDEST SWAP3 SWAP2 POP POP JUMP JUMPDEST PUSH1 0x0 SLOAD PUSH1 0x40 MLOAD PUSH4 0xBC74EBB9 PUSH1 0xE0 SHL DUP2 MSTORE PUSH1 0x4 DUP2 ADD DUP4 SWAP1 MSTORE PUSH1 0x60 SWAP2 PUSH1 0x1 PUSH1 0x1 PUSH1 0xA0 SHL SUB AND SWAP1 PUSH4 0xBC74EBB9 SWAP1 PUSH1 0x24 ADD PUSH2 0x444 JUMP JUMPDEST PUSH1 0x0 SLOAD PUSH1 0x40 MLOAD PUSH4 0x9C3DD87 PUSH1 0xE0 SHL DUP2 MSTORE PUSH1 0x4 DUP2 ADD DUP4 SWAP1 MSTORE PUSH1 0x60 SWAP2 PUSH1 0x1 PUSH1 0x1 PUSH1 0xA0 SHL SUB AND SWAP1 PUSH4 0x9C3DD87 SWAP1 PUSH1 0x24 ADD PUSH1 0x0 PUSH1 0x40 MLOAD DUP1 DUP4 SUB DUP2 DUP7 GAS STATICCALL ISZERO DUP1 ISZERO PUSH2 0x50B JUMPI RETURNDATASIZE PUSH1 0x0 DUP1 RETURNDATACOPY RETURNDATASIZE PUSH1 0x0 REVERT JUMPDEST POP POP POP POP PUSH1 0x40 MLOAD RETURNDATASIZE PUSH1 0x0 DUP3 RETURNDATACOPY PUSH1 0x1F RETURNDATASIZE SWAP1 DUP2 ADD PUSH1 0x1F NOT AND DUP3 ADD PUSH1 0x40 MSTORE PUSH2 0x533 SWAP2 SWAP1 DUP2 ADD SWAP1 PUSH2 0x10BE JUMP JUMPDEST PUSH1 0x40 MLOAD PUSH1 0x20 ADD PUSH2 0x1B9 SWAP2 SWAP1 PUSH2 0x136A JUMP JUMPDEST PUSH1 0x0 SLOAD PUSH1 0x40 MLOAD PUSH4 0x9C3DD87 PUSH1 0xE0 SHL DUP2 MSTORE PUSH1 0x4 DUP2 ADD DUP4 SWAP1 MSTORE PUSH1 0x60 SWAP2 PUSH1 0x1 PUSH1 0x1 PUSH1 0xA0 SHL SUB AND SWAP1 PUSH4 0x9C3DD87 SWAP1 PUSH1 0x24 ADD PUSH1 0x0 PUSH1 0x40 MLOAD DUP1 DUP4 SUB DUP2 DUP7 GAS STATICCALL ISZERO DUP1 ISZERO PUSH2 0x58D JUMPI RETURNDATASIZE PUSH1 0x0 DUP1 RETURNDATACOPY RETURNDATASIZE PUSH1 0x0 REVERT JUMPDEST POP POP POP POP PUSH1 0x40 MLOAD RETURNDATASIZE PUSH1 0x0 DUP3 RETURNDATACOPY PUSH1 0x1F RETURNDATASIZE SWAP1 DUP2 ADD PUSH1 0x1F NOT AND DUP3 ADD PUSH1 0x40 MSTORE PUSH2 0x5B5 SWAP2 SWAP1 DUP2 ADD SWAP1 PUSH2 0x10BE JUMP JUMPDEST PUSH1 0x40 MLOAD PUSH1 0x20 ADD PUSH2 0x1B9 SWAP2 SWAP1 PUSH2 0x1394 JUMP JUMPDEST PUSH1 0x60 DUP2 MLOAD PUSH1 0x0 SUB PUSH2 0x5E4 JUMPI POP POP PUSH1 0x40 DUP1 MLOAD PUSH1 0x20 DUP2 ADD SWAP1 SWAP2 MSTORE PUSH1 0x0 DUP2 MSTORE SWAP1 JUMP JUMPDEST PUSH1 0x0 PUSH1 0x40 MLOAD DUP1 PUSH1 0x60 ADD PUSH1 0x40 MSTORE DUP1 PUSH1 0x40 DUP2 MSTORE PUSH1 0x20 ADD PUSH2 0x1663 PUSH1 0x40 SWAP2 CODECOPY SWAP1 POP PUSH1 0x0 PUSH1 0x3 DUP5 MLOAD PUSH1 0x2 PUSH2 0x613 SWAP2 SWAP1 PUSH2 0x13DE JUMP JUMPDEST PUSH2 0x61D SWAP2 SWAP1 PUSH2 0x13F1 JUMP JUMPDEST PUSH2 0x628 SWAP1 PUSH1 0x4 PUSH2 0x1413 JUMP JUMPDEST PUSH8 0xFFFFFFFFFFFFFFFF DUP2 GT ISZERO PUSH2 0x640 JUMPI PUSH2 0x640 PUSH2 0xC8E JUMP JUMPDEST PUSH1 0x40 MLOAD SWAP1 DUP1 DUP3 MSTORE DUP1 PUSH1 0x1F ADD PUSH1 0x1F NOT AND PUSH1 0x20 ADD DUP3 ADD PUSH1 0x40 MSTORE DUP1 ISZERO PUSH2 0x66A JUMPI PUSH1 0x20 DUP3 ADD DUP2 DUP1 CALLDATASIZE DUP4 CALLDATACOPY ADD SWAP1 POP JUMPDEST POP SWAP1 POP PUSH1 0x1 DUP3 ADD PUSH1 0x20 DUP3 ADD DUP6 DUP7 MLOAD DUP8 ADD JUMPDEST DUP1 DUP3 LT ISZERO PUSH2 0x6D6 JUMPI PUSH1 0x3 DUP3 ADD SWAP2 POP DUP2 MLOAD PUSH1 0x3F DUP2 PUSH1 0x12 SHR AND DUP6 ADD MLOAD DUP5 MSTORE8 PUSH1 0x1 DUP5 ADD SWAP4 POP PUSH1 0x3F DUP2 PUSH1 0xC SHR AND DUP6 ADD MLOAD DUP5 MSTORE8 PUSH1 0x1 DUP5 ADD SWAP4 POP PUSH1 0x3F DUP2 PUSH1 0x6 SHR AND DUP6 ADD MLOAD DUP5 MSTORE8 PUSH1 0x1 DUP5 ADD SWAP4 POP PUSH1 0x3F DUP2 AND DUP6 ADD MLOAD DUP5 MSTORE8 POP PUSH1 0x1 DUP4 ADD SWAP3 POP PUSH2 0x67B JUMP JUMPDEST POP POP PUSH1 0x3 DUP7 MLOAD MOD PUSH1 0x1 DUP2 EQ PUSH2 0x6F2 JUMPI PUSH1 0x2 DUP2 EQ PUSH2 0x705 JUMPI PUSH2 0x70D JUMP JUMPDEST PUSH1 0x3D PUSH1 0x1 DUP4 SUB MSTORE8 PUSH1 0x3D PUSH1 0x2 DUP4 SUB MSTORE8 PUSH2 0x70D JUMP JUMPDEST PUSH1 0x3D PUSH1 0x1 DUP4 SUB MSTORE8 JUMPDEST POP SWAP2 SWAP6 SWAP5 POP POP POP POP POP JUMP JUMPDEST PUSH1 0x60 PUSH1 0x2 DUP1 SLOAD PUSH2 0x727 SWAP1 PUSH2 0xE47 JUMP JUMPDEST DUP1 PUSH1 0x1F ADD PUSH1 0x20 DUP1 SWAP2 DIV MUL PUSH1 0x20 ADD PUSH1 0x40 MLOAD SWAP1 DUP2 ADD PUSH1 0x40 MSTORE DUP1 SWAP3 SWAP2 SWAP1 DUP2 DUP2 MSTORE PUSH1 0x20 ADD DUP3 DUP1 SLOAD PUSH2 0x753 SWAP1 PUSH2 0xE47 JUMP JUMPDEST DUP1 ISZERO PUSH2 0x7A0 JUMPI DUP1 PUSH1 0x1F LT PUSH2 0x775 JUMPI PUSH2 0x100 DUP1 DUP4 SLOAD DIV MUL DUP4 MSTORE SWAP2 PUSH1 0x20 ADD SWAP2 PUSH2 0x7A0 JUMP JUMPDEST DUP3 ADD SWAP2 SWAP1 PUSH1 0x0 MSTORE PUSH1 0x20 PUSH1 0x0 KECCAK256 SWAP1 JUMPDEST DUP2 SLOAD DUP2 MSTORE SWAP1 PUSH1 0x1 ADD SWAP1 PUSH1 0x20 ADD DUP1 DUP4 GT PUSH2 0x783 JUMPI DUP3 SWAP1 SUB PUSH1 0x1F AND DUP3 ADD SWAP2 JUMPDEST POP POP POP POP POP SWAP1 POP SWAP1 JUMP JUMPDEST PUSH1 0x60 PUSH1 0x1 PUSH2 0x7B7 CALLER PUSH2 0x9F9 JUMP JUMPDEST PUSH1 0x3 PUSH1 0x40 MLOAD PUSH1 0x20 ADD PUSH2 0x7CB SWAP4 SWAP3 SWAP2 SWAP1 PUSH2 0x149D JUMP JUMPDEST PUSH1 0x40 MLOAD PUSH1 0x20 DUP2 DUP4 SUB SUB DUP2 MSTORE SWAP1 PUSH1 0x40 MSTORE SWAP1 POP SWAP1 JUMP JUMPDEST PUSH1 0x60 PUSH1 0x0 PUSH2 0x7EC DUP4 PUSH2 0xA0F JUMP JUMPDEST PUSH1 0x1 ADD SWAP1 POP PUSH1 0x0 DUP2 PUSH8 0xFFFFFFFFFFFFFFFF DUP2 GT ISZERO PUSH2 0x80C JUMPI PUSH2 0x80C PUSH2 0xC8E JUMP JUMPDEST PUSH1 0x40 MLOAD SWAP1 DUP1 DUP3 MSTORE DUP1 PUSH1 0x1F ADD PUSH1 0x1F NOT AND PUSH1 0x20 ADD DUP3 ADD PUSH1 0x40 MSTORE DUP1 ISZERO PUSH2 0x836 JUMPI PUSH1 0x20 DUP3 ADD DUP2 DUP1 CALLDATASIZE DUP4 CALLDATACOPY ADD SWAP1 POP JUMPDEST POP SWAP1 POP DUP2 DUP2 ADD PUSH1 0x20 ADD JUMPDEST PUSH1 0x0 NOT ADD PUSH16 0x181899199A1A9B1B9C1CB0B131B232B3 PUSH1 0x81 SHL PUSH1 0xA DUP7 MOD BYTE DUP2 MSTORE8 PUSH1 0xA DUP6 DIV SWAP5 POP DUP5 PUSH2 0x840 JUMPI POP SWAP4 SWAP3 POP POP POP JUMP JUMPDEST PUSH1 0x60 CALLER PUSH1 0x1 PUSH1 0x1 PUSH1 0xA0 SHL SUB AND PUSH4 0x6FDDE03 PUSH1 0x40 MLOAD DUP2 PUSH4 0xFFFFFFFF AND PUSH1 0xE0 SHL DUP2 MSTORE PUSH1 0x4 ADD PUSH1 0x0 PUSH1 0x40 MLOAD DUP1 DUP4 SUB DUP2 DUP7 GAS STATICCALL ISZERO DUP1 ISZERO PUSH2 0x8B2 JUMPI RETURNDATASIZE PUSH1 0x0 DUP1 RETURNDATACOPY RETURNDATASIZE PUSH1 0x0 REVERT JUMPDEST POP POP POP POP PUSH1 0x40 MLOAD RETURNDATASIZE PUSH1 0x0 DUP3 RETURNDATACOPY PUSH1 0x1F RETURNDATASIZE SWAP1 DUP2 ADD PUSH1 0x1F NOT AND DUP3 ADD PUSH1 0x40 MSTORE PUSH2 0x8DA SWAP2 SWAP1 DUP2 ADD SWAP1 PUSH2 0x10BE JUMP JUMPDEST PUSH2 0x8E3 DUP4 PUSH2 0x7DF JUMP JUMPDEST PUSH1 0x40 MLOAD PUSH1 0x20 ADD PUSH2 0x1B9 SWAP3 SWAP2 SWAP1 PUSH2 0x14F1 JUMP JUMPDEST PUSH1 0x0 DUP2 DUP2 MSTORE PUSH1 0x4 PUSH1 0x20 MSTORE PUSH1 0x40 SWAP1 KECCAK256 DUP1 SLOAD PUSH1 0x60 SWAP2 SWAP1 PUSH2 0x911 SWAP1 PUSH2 0xE47 JUMP JUMPDEST DUP1 PUSH1 0x1F ADD PUSH1 0x20 DUP1 SWAP2 DIV MUL PUSH1 0x20 ADD PUSH1 0x40 MLOAD SWAP1 DUP2 ADD PUSH1 0x40 MSTORE DUP1 SWAP3 SWAP2 SWAP1 DUP2 DUP2 MSTORE PUSH1 0x20 ADD DUP3 DUP1 SLOAD PUSH2 0x93D SWAP1 PUSH2 0xE47 JUMP JUMPDEST DUP1 ISZERO PUSH2 0x98A JUMPI DUP1 PUSH1 0x1F LT PUSH2 0x95F JUMPI PUSH2 0x100 DUP1 DUP4 SLOAD DIV MUL DUP4 MSTORE SWAP2 PUSH1 0x20 ADD SWAP2 PUSH2 0x98A JUMP JUMPDEST DUP3 ADD SWAP2 SWAP1 PUSH1 0x0 MSTORE PUSH1 0x20 PUSH1 0x0 KECCAK256 SWAP1 JUMPDEST DUP2 SLOAD DUP2 MSTORE SWAP1 PUSH1 0x1 ADD SWAP1 PUSH1 0x20 ADD DUP1 DUP4 GT PUSH2 0x96D JUMPI DUP3 SWAP1 SUB PUSH1 0x1F AND DUP3 ADD SWAP2 JUMPDEST POP POP POP POP POP SWAP1 POP SWAP2 SWAP1 POP JUMP JUMPDEST PUSH1 0x60 PUSH1 0x1 PUSH2 0x9A3 ADDRESS PUSH2 0x9F9 JUMP JUMPDEST PUSH1 0x0 DUP5 DUP2 MSTORE PUSH1 0x6 PUSH1 0x20 SWAP1 DUP2 MSTORE PUSH1 0x40 DUP1 DUP4 KECCAK256 PUSH1 0x5 DUP4 MSTORE SWAP3 DUP2 SWAP1 KECCAK256 SWAP1 MLOAD PUSH2 0x1B9 SWAP6 SWAP5 SWAP4 SWAP3 ADD PUSH2 0x152E JUMP JUMPDEST PUSH1 0x60 PUSH1 0x1 PUSH2 0x9D8 CALLER PUSH2 0x9F9 JUMP JUMPDEST PUSH1 0x0 DUP5 DUP2 MSTORE PUSH1 0x6 PUSH1 0x20 SWAP1 DUP2 MSTORE PUSH1 0x40 SWAP2 DUP3 SWAP1 KECCAK256 SWAP2 MLOAD PUSH2 0x1B9 SWAP5 SWAP4 SWAP3 SWAP2 ADD PUSH2 0x15A0 JUMP JUMPDEST PUSH1 0x60 PUSH2 0x489 PUSH1 0x1 PUSH1 0x1 PUSH1 0xA0 SHL SUB DUP4 AND PUSH1 0x14 PUSH2 0xAE7 JUMP JUMPDEST PUSH1 0x0 DUP1 PUSH19 0x184F03E93FF9F4DAA797ED6E38ED64BF6A1F01 PUSH1 0x40 SHL DUP4 LT PUSH2 0xA4E JUMPI PUSH19 0x184F03E93FF9F4DAA797ED6E38ED64BF6A1F01 PUSH1 0x40 SHL DUP4 DIV SWAP3 POP PUSH1 0x40 ADD JUMPDEST PUSH14 0x4EE2D6D415B85ACEF8100000000 DUP4 LT PUSH2 0xA7A JUMPI PUSH14 0x4EE2D6D415B85ACEF8100000000 DUP4 DIV SWAP3 POP PUSH1 0x20 ADD JUMPDEST PUSH7 0x2386F26FC10000 DUP4 LT PUSH2 0xA98 JUMPI PUSH7 0x2386F26FC10000 DUP4 DIV SWAP3 POP PUSH1 0x10 ADD JUMPDEST PUSH4 0x5F5E100 DUP4 LT PUSH2 0xAB0 JUMPI PUSH4 0x5F5E100 DUP4 DIV SWAP3 POP PUSH1 0x8 ADD JUMPDEST PUSH2 0x2710 DUP4 LT PUSH2 0xAC4 JUMPI PUSH2 0x2710 DUP4 DIV SWAP3 POP PUSH1 0x4 ADD JUMPDEST PUSH1 0x64 DUP4 LT PUSH2 0xAD6 JUMPI PUSH1 0x64 DUP4 DIV SWAP3 POP PUSH1 0x2 ADD JUMPDEST PUSH1 0xA DUP4 LT PUSH2 0x489 JUMPI PUSH1 0x1 ADD SWAP3 SWAP2 POP POP JUMP JUMPDEST PUSH1 0x60 PUSH1 0x0 PUSH2 0xAF6 DUP4 PUSH1 0x2 PUSH2 0x1413 JUMP JUMPDEST PUSH2 0xB01 SWAP1 PUSH1 0x2 PUSH2 0x13DE JUMP JUMPDEST PUSH8 0xFFFFFFFFFFFFFFFF DUP2 GT ISZERO PUSH2 0xB19 JUMPI PUSH2 0xB19 PUSH2 0xC8E JUMP JUMPDEST PUSH1 0x40 MLOAD SWAP1 DUP1 DUP3 MSTORE DUP1 PUSH1 0x1F ADD PUSH1 0x1F NOT AND PUSH1 0x20 ADD DUP3 ADD PUSH1 0x40 MSTORE DUP1 ISZERO PUSH2 0xB43 JUMPI PUSH1 0x20 DUP3 ADD DUP2 DUP1 CALLDATASIZE DUP4 CALLDATACOPY ADD SWAP1 POP JUMPDEST POP SWAP1 POP PUSH1 0x3 PUSH1 0xFC SHL DUP2 PUSH1 0x0 DUP2 MLOAD DUP2 LT PUSH2 0xB5E JUMPI PUSH2 0xB5E PUSH2 0x1635 JUMP JUMPDEST PUSH1 0x20 ADD ADD SWAP1 PUSH1 0x1 PUSH1 0x1 PUSH1 0xF8 SHL SUB NOT AND SWAP1 DUP2 PUSH1 0x0 BYTE SWAP1 MSTORE8 POP PUSH1 0xF PUSH1 0xFB SHL DUP2 PUSH1 0x1 DUP2 MLOAD DUP2 LT PUSH2 0xB8D JUMPI PUSH2 0xB8D PUSH2 0x1635 JUMP JUMPDEST PUSH1 0x20 ADD ADD SWAP1 PUSH1 0x1 PUSH1 0x1 PUSH1 0xF8 SHL SUB NOT AND SWAP1 DUP2 PUSH1 0x0 BYTE SWAP1 MSTORE8 POP PUSH1 0x0 PUSH2 0xBB1 DUP5 PUSH1 0x2 PUSH2 0x1413 JUMP JUMPDEST PUSH2 0xBBC SWAP1 PUSH1 0x1 PUSH2 0x13DE JUMP JUMPDEST SWAP1 POP JUMPDEST PUSH1 0x1 DUP2 GT ISZERO PUSH2 0xC34 JUMPI PUSH16 0x181899199A1A9B1B9C1CB0B131B232B3 PUSH1 0x81 SHL DUP6 PUSH1 0xF AND PUSH1 0x10 DUP2 LT PUSH2 0xBF0 JUMPI PUSH2 0xBF0 PUSH2 0x1635 JUMP JUMPDEST BYTE PUSH1 0xF8 SHL DUP3 DUP3 DUP2 MLOAD DUP2 LT PUSH2 0xC06 JUMPI PUSH2 0xC06 PUSH2 0x1635 JUMP JUMPDEST PUSH1 0x20 ADD ADD SWAP1 PUSH1 0x1 PUSH1 0x1 PUSH1 0xF8 SHL SUB NOT AND SWAP1 DUP2 PUSH1 0x0 BYTE SWAP1 MSTORE8 POP PUSH1 0x4 SWAP5 SWAP1 SWAP5 SHR SWAP4 PUSH2 0xC2D DUP2 PUSH2 0x164B JUMP JUMPDEST SWAP1 POP PUSH2 0xBBF JUMP JUMPDEST POP DUP4 ISZERO PUSH2 0xC87 JUMPI PUSH1 0x40 MLOAD PUSH3 0x461BCD PUSH1 0xE5 SHL DUP2 MSTORE PUSH1 0x20 PUSH1 0x4 DUP3 ADD DUP2 SWAP1 MSTORE PUSH1 0x24 DUP3 ADD MSTORE PUSH32 0x537472696E67733A20686578206C656E67746820696E73756666696369656E74 PUSH1 0x44 DUP3 ADD MSTORE PUSH1 0x64 ADD PUSH1 0x40 MLOAD DUP1 SWAP2 SUB SWAP1 REVERT JUMPDEST SWAP4 SWAP3 POP POP POP JUMP JUMPDEST PUSH4 0x4E487B71 PUSH1 0xE0 SHL PUSH1 0x0 MSTORE PUSH1 0x41 PUSH1 0x4 MSTORE PUSH1 0x24 PUSH1 0x0 REVERT JUMPDEST PUSH1 0x40 MLOAD PUSH1 0x1F DUP3 ADD PUSH1 0x1F NOT AND DUP2 ADD PUSH8 0xFFFFFFFFFFFFFFFF DUP2 GT DUP3 DUP3 LT OR ISZERO PUSH2 0xCCD JUMPI PUSH2 0xCCD PUSH2 0xC8E JUMP JUMPDEST PUSH1 0x40 MSTORE SWAP2 SWAP1 POP JUMP JUMPDEST PUSH1 0x0 PUSH8 0xFFFFFFFFFFFFFFFF DUP3 GT ISZERO PUSH2 0xCEF JUMPI PUSH2 0xCEF PUSH2 0xC8E JUMP JUMPDEST POP PUSH1 0x1F ADD PUSH1 0x1F NOT AND PUSH1 0x20 ADD SWAP1 JUMP JUMPDEST PUSH1 0x0 DUP3 PUSH1 0x1F DUP4 ADD SLT PUSH2 0xD0E JUMPI PUSH1 0x0 DUP1 REVERT JUMPDEST DUP2 CALLDATALOAD PUSH2 0xD21 PUSH2 0xD1C DUP3 PUSH2 0xCD5 JUMP JUMPDEST PUSH2 0xCA4 JUMP JUMPDEST DUP2 DUP2 MSTORE DUP5 PUSH1 0x20 DUP4 DUP7 ADD ADD GT ISZERO PUSH2 0xD36 JUMPI PUSH1 0x0 DUP1 REVERT JUMPDEST DUP2 PUSH1 0x20 DUP6 ADD PUSH1 0x20 DUP4 ADD CALLDATACOPY PUSH1 0x0 SWAP2 DUP2 ADD PUSH1 0x20 ADD SWAP2 SWAP1 SWAP2 MSTORE SWAP4 SWAP3 POP POP POP JUMP JUMPDEST PUSH1 0x0 DUP1 PUSH1 0x40 DUP4 DUP6 SUB SLT ISZERO PUSH2 0xD66 JUMPI PUSH1 0x0 DUP1 REVERT JUMPDEST DUP3 CALLDATALOAD SWAP2 POP PUSH1 0x20 DUP4 ADD CALLDATALOAD PUSH8 0xFFFFFFFFFFFFFFFF DUP2 GT ISZERO PUSH2 0xD84 JUMPI PUSH1 0x0 DUP1 REVERT JUMPDEST PUSH2 0xD90 DUP6 DUP3 DUP7 ADD PUSH2 0xCFD JUMP JUMPDEST SWAP2 POP POP SWAP3 POP SWAP3 SWAP1 POP JUMP JUMPDEST PUSH1 0x0 PUSH1 0x20 DUP3 DUP5 SUB SLT ISZERO PUSH2 0xDAC JUMPI PUSH1 0x0 DUP1 REVERT JUMPDEST DUP2 CALLDATALOAD PUSH8 0xFFFFFFFFFFFFFFFF DUP2 GT ISZERO PUSH2 0xDC3 JUMPI PUSH1 0x0 DUP1 REVERT JUMPDEST PUSH2 0xDCF DUP5 DUP3 DUP6 ADD PUSH2 0xCFD JUMP JUMPDEST SWAP5 SWAP4 POP POP POP POP JUMP JUMPDEST PUSH1 0x0 PUSH1 0x20 DUP3 DUP5 SUB SLT ISZERO PUSH2 0xDE9 JUMPI PUSH1 0x0 DUP1 REVERT JUMPDEST POP CALLDATALOAD SWAP2 SWAP1 POP JUMP JUMPDEST PUSH1 0x0 JUMPDEST DUP4 DUP2 LT ISZERO PUSH2 0xE0B JUMPI DUP2 DUP2 ADD MLOAD DUP4 DUP3 ADD MSTORE PUSH1 0x20 ADD PUSH2 0xDF3 JUMP JUMPDEST POP POP PUSH1 0x0 SWAP2 ADD MSTORE JUMP JUMPDEST PUSH1 0x20 DUP2 MSTORE PUSH1 0x0 DUP3 MLOAD DUP1 PUSH1 0x20 DUP5 ADD MSTORE PUSH2 0xE33 DUP2 PUSH1 0x40 DUP6 ADD PUSH1 0x20 DUP8 ADD PUSH2 0xDF0 JUMP JUMPDEST PUSH1 0x1F ADD PUSH1 0x1F NOT AND SWAP2 SWAP1 SWAP2 ADD PUSH1 0x40 ADD SWAP3 SWAP2 POP POP JUMP JUMPDEST PUSH1 0x1 DUP2 DUP2 SHR SWAP1 DUP3 AND DUP1 PUSH2 0xE5B JUMPI PUSH1 0x7F DUP3 AND SWAP2 POP JUMPDEST PUSH1 0x20 DUP3 LT DUP2 SUB PUSH2 0xE7B JUMPI PUSH4 0x4E487B71 PUSH1 0xE0 SHL PUSH1 0x0 MSTORE PUSH1 0x22 PUSH1 0x4 MSTORE PUSH1 0x24 PUSH1 0x0 REVERT JUMPDEST POP SWAP2 SWAP1 POP JUMP JUMPDEST PUSH1 0x1F DUP3 GT ISZERO PUSH2 0x12C JUMPI PUSH1 0x0 DUP2 DUP2 MSTORE PUSH1 0x20 DUP2 KECCAK256 PUSH1 0x1F DUP6 ADD PUSH1 0x5 SHR DUP2 ADD PUSH1 0x20 DUP7 LT ISZERO PUSH2 0xEA8 JUMPI POP DUP1 JUMPDEST PUSH1 0x1F DUP6 ADD PUSH1 0x5 SHR DUP3 ADD SWAP2 POP JUMPDEST DUP2 DUP2 LT ISZERO PUSH2 0xEC7 JUMPI DUP3 DUP2 SSTORE PUSH1 0x1 ADD PUSH2 0xEB4 JUMP JUMPDEST POP POP POP POP POP POP JUMP JUMPDEST DUP2 MLOAD PUSH8 0xFFFFFFFFFFFFFFFF DUP2 GT ISZERO PUSH2 0xEE9 JUMPI PUSH2 0xEE9 PUSH2 0xC8E JUMP JUMPDEST PUSH2 0xEFD DUP2 PUSH2 0xEF7 DUP5 SLOAD PUSH2 0xE47 JUMP JUMPDEST DUP5 PUSH2 0xE81 JUMP JUMPDEST PUSH1 0x20 DUP1 PUSH1 0x1F DUP4 GT PUSH1 0x1 DUP2 EQ PUSH2 0xF32 JUMPI PUSH1 0x0 DUP5 ISZERO PUSH2 0xF1A JUMPI POP DUP6 DUP4 ADD MLOAD JUMPDEST PUSH1 0x0 NOT PUSH1 0x3 DUP7 SWAP1 SHL SHR NOT AND PUSH1 0x1 DUP6 SWAP1 SHL OR DUP6 SSTORE PUSH2 0xEC7 JUMP JUMPDEST PUSH1 0x0 DUP6 DUP2 MSTORE PUSH1 0x20 DUP2 KECCAK256 PUSH1 0x1F NOT DUP7 AND SWAP2 JUMPDEST DUP3 DUP2 LT ISZERO PUSH2 0xF61 JUMPI DUP9 DUP7 ADD MLOAD DUP3 SSTORE SWAP5 DUP5 ADD SWAP5 PUSH1 0x1 SWAP1 SWAP2 ADD SWAP1 DUP5 ADD PUSH2 0xF42 JUMP JUMPDEST POP DUP6 DUP3 LT ISZERO PUSH2 0xF7F JUMPI DUP8 DUP6 ADD MLOAD PUSH1 0x0 NOT PUSH1 0x3 DUP9 SWAP1 SHL PUSH1 0xF8 AND SHR NOT AND DUP2 SSTORE JUMPDEST POP POP POP POP POP PUSH1 0x1 SWAP1 DUP2 SHL ADD SWAP1 SSTORE POP JUMP JUMPDEST PUSH1 0x0 DUP2 MLOAD PUSH2 0xFA1 DUP2 DUP6 PUSH1 0x20 DUP7 ADD PUSH2 0xDF0 JUMP JUMPDEST SWAP3 SWAP1 SWAP3 ADD SWAP3 SWAP2 POP POP JUMP JUMPDEST PUSH9 0x3D913730B6B2911D11 PUSH1 0xB9 SHL DUP2 MSTORE DUP5 MLOAD PUSH1 0x0 SWAP1 PUSH2 0xFD0 DUP2 PUSH1 0x9 DUP6 ADD PUSH1 0x20 DUP11 ADD PUSH2 0xDF0 JUMP JUMPDEST PUSH17 0x1116113232B9B1B934B83A34B7B7111D11 PUSH1 0x79 SHL PUSH1 0x9 SWAP2 DUP5 ADD SWAP2 DUP3 ADD MSTORE DUP6 MLOAD PUSH2 0x1001 DUP2 PUSH1 0x1A DUP5 ADD PUSH1 0x20 DUP11 ADD PUSH2 0xDF0 JUMP JUMPDEST PUSH11 0x11161134B6B0B3B2911D11 PUSH1 0xA9 SHL PUSH1 0x1A SWAP3 SWAP1 SWAP2 ADD SWAP2 DUP3 ADD MSTORE DUP5 MLOAD PUSH2 0x102D DUP2 PUSH1 0x25 DUP5 ADD PUSH1 0x20 DUP10 ADD PUSH2 0xDF0 JUMP JUMPDEST PUSH15 0x111611383937B832B93A34B2B9911D PUSH1 0x89 SHL PUSH1 0x25 SWAP3 SWAP1 SWAP2 ADD SWAP2 DUP3 ADD MSTORE DUP4 MLOAD PUSH2 0x105D DUP2 PUSH1 0x34 DUP5 ADD PUSH1 0x20 DUP9 ADD PUSH2 0xDF0 JUMP JUMPDEST PUSH1 0x7D PUSH1 0xF8 SHL PUSH1 0x34 SWAP3 SWAP1 SWAP2 ADD SWAP2 DUP3 ADD MSTORE PUSH1 0x35 ADD SWAP7 SWAP6 POP POP POP POP POP POP JUMP JUMPDEST PUSH32 0x646174613A6170706C69636174696F6E2F6A736F6E3B6261736536342C000000 DUP2 MSTORE PUSH1 0x0 DUP3 MLOAD PUSH2 0x10B1 DUP2 PUSH1 0x1D DUP6 ADD PUSH1 0x20 DUP8 ADD PUSH2 0xDF0 JUMP JUMPDEST SWAP2 SWAP1 SWAP2 ADD PUSH1 0x1D ADD SWAP3 SWAP2 POP POP JUMP JUMPDEST PUSH1 0x0 PUSH1 0x20 DUP3 DUP5 SUB SLT ISZERO PUSH2 0x10D0 JUMPI PUSH1 0x0 DUP1 REVERT JUMPDEST DUP2 MLOAD PUSH8 0xFFFFFFFFFFFFFFFF DUP2 GT ISZERO PUSH2 0x10E7 JUMPI PUSH1 0x0 DUP1 REVERT JUMPDEST DUP3 ADD PUSH1 0x1F DUP2 ADD DUP5 SGT PUSH2 0x10F8 JUMPI PUSH1 0x0 DUP1 REVERT JUMPDEST DUP1 MLOAD PUSH2 0x1106 PUSH2 0xD1C DUP3 PUSH2 0xCD5 JUMP JUMPDEST DUP2 DUP2 MSTORE DUP6 PUSH1 0x20 DUP4 DUP6 ADD ADD GT ISZERO PUSH2 0x111B JUMPI PUSH1 0x0 DUP1 REVERT JUMPDEST PUSH2 0x112C DUP3 PUSH1 0x20 DUP4 ADD PUSH1 0x20 DUP7 ADD PUSH2 0xDF0 JUMP JUMPDEST SWAP6 SWAP5 POP POP POP POP POP JUMP JUMPDEST PUSH1 0x0 PUSH1 0x20 DUP3 DUP5 SUB SLT ISZERO PUSH2 0x1147 JUMPI PUSH1 0x0 DUP1 REVERT JUMPDEST DUP2 MLOAD PUSH1 0xFF DUP2 AND DUP2 EQ PUSH2 0xC87 JUMPI PUSH1 0x0 DUP1 REVERT JUMPDEST PUSH9 0x3D913730B6B2911D11 PUSH1 0xB9 SHL DUP2 MSTORE DUP5 MLOAD PUSH1 0x0 SWAP1 PUSH2 0x117D DUP2 PUSH1 0x9 DUP6 ADD PUSH1 0x20 DUP11 ADD PUSH2 0xDF0 JUMP JUMPDEST PUSH17 0x1116113232B9B1B934B83A34B7B7111D11 PUSH1 0x79 SHL PUSH1 0x9 SWAP2 DUP5 ADD SWAP2 DUP3 ADD MSTORE DUP6 MLOAD PUSH2 0x11AE DUP2 PUSH1 0x1A DUP5 ADD PUSH1 0x20 DUP11 ADD PUSH2 0xDF0 JUMP JUMPDEST PUSH11 0x11161134B6B0B3B2911D11 PUSH1 0xA9 SHL PUSH1 0x1A SWAP3 SWAP1 SWAP2 ADD SWAP2 DUP3 ADD MSTORE DUP5 MLOAD PUSH2 0x11DA DUP2 PUSH1 0x25 DUP5 ADD PUSH1 0x20 DUP10 ADD PUSH2 0xDF0 JUMP JUMPDEST PUSH19 0x1116113B30B63AB2A232B1B4B6B0B639911D11 PUSH1 0x69 SHL PUSH1 0x25 SWAP3 SWAP1 SWAP2 ADD SWAP2 DUP3 ADD MSTORE DUP4 MLOAD PUSH2 0x120E DUP2 PUSH1 0x38 DUP5 ADD PUSH1 0x20 DUP9 ADD PUSH2 0xDF0 JUMP JUMPDEST PUSH2 0x227D PUSH1 0xF0 SHL PUSH1 0x38 SWAP3 SWAP1 SWAP2 ADD SWAP2 DUP3 ADD MSTORE PUSH1 0x3A ADD SWAP7 SWAP6 POP POP POP POP POP POP JUMP JUMPDEST PUSH1 0x0 PUSH1 0x20 DUP3 DUP5 SUB SLT ISZERO PUSH2 0x123D JUMPI PUSH1 0x0 DUP1 REVERT JUMPDEST POP MLOAD SWAP2 SWAP1 POP JUMP JUMPDEST PUSH9 0x3D913730B6B2911D11 PUSH1 0xB9 SHL DUP2 MSTORE DUP7 MLOAD PUSH1 0x0 SWAP1 PUSH2 0x1269 DUP2 PUSH1 0x9 DUP6 ADD PUSH1 0x20 DUP13 ADD PUSH2 0xDF0 JUMP JUMPDEST PUSH17 0x1116113232B9B1B934B83A34B7B7111D11 PUSH1 0x79 SHL PUSH1 0x9 SWAP2 DUP5 ADD SWAP2 DUP3 ADD MSTORE DUP8 MLOAD PUSH2 0x129A DUP2 PUSH1 0x1A DUP5 ADD PUSH1 0x20 DUP13 ADD PUSH2 0xDF0 JUMP JUMPDEST PUSH11 0x11161134B6B0B3B2911D11 PUSH1 0xA9 SHL PUSH1 0x1A SWAP3 SWAP1 SWAP2 ADD SWAP2 DUP3 ADD MSTORE DUP7 MLOAD PUSH2 0x12C6 DUP2 PUSH1 0x25 DUP5 ADD PUSH1 0x20 DUP12 ADD PUSH2 0xDF0 JUMP JUMPDEST PUSH13 0x1116113130B630B731B2911D11 PUSH1 0x99 SHL PUSH1 0x25 SWAP3 SWAP1 SWAP2 ADD SWAP2 DUP3 ADD MSTORE DUP6 MLOAD PUSH2 0x12F4 DUP2 PUSH1 0x32 DUP5 ADD PUSH1 0x20 DUP11 ADD PUSH2 0xDF0 JUMP JUMPDEST PUSH10 0x11161139B637BA111D11 PUSH1 0xB1 SHL PUSH1 0x32 SWAP3 SWAP1 SWAP2 ADD SWAP2 DUP3 ADD MSTORE DUP5 MLOAD PUSH2 0x131F DUP2 PUSH1 0x3C DUP5 ADD PUSH1 0x20 DUP10 ADD PUSH2 0xDF0 JUMP JUMPDEST PUSH2 0x135C PUSH2 0x134F PUSH2 0x1349 PUSH1 0x3C DUP5 DUP7 ADD ADD PUSH15 0x111611383937B832B93A34B2B9911D PUSH1 0x89 SHL DUP2 MSTORE PUSH1 0xF ADD SWAP1 JUMP JUMPDEST DUP8 PUSH2 0xF8F JUMP JUMPDEST PUSH1 0x7D PUSH1 0xF8 SHL DUP2 MSTORE PUSH1 0x1 ADD SWAP1 JUMP JUMPDEST SWAP11 SWAP10 POP POP POP POP POP POP POP POP POP POP JUMP JUMPDEST PUSH1 0x0 DUP3 MLOAD PUSH2 0x137C DUP2 DUP5 PUSH1 0x20 DUP8 ADD PUSH2 0xDF0 JUMP JUMPDEST PUSH6 0x2F696D616765 PUSH1 0xD0 SHL SWAP3 ADD SWAP2 DUP3 MSTORE POP PUSH1 0x6 ADD SWAP2 SWAP1 POP JUMP JUMPDEST PUSH1 0x0 DUP3 MLOAD PUSH2 0x13A6 DUP2 DUP5 PUSH1 0x20 DUP8 ADD PUSH2 0xDF0 JUMP JUMPDEST PUSH16 0x17B83937B832B93A34B2B9973539B7B7 PUSH1 0x81 SHL SWAP3 ADD SWAP2 DUP3 MSTORE POP PUSH1 0x10 ADD SWAP2 SWAP1 POP JUMP JUMPDEST PUSH4 0x4E487B71 PUSH1 0xE0 SHL PUSH1 0x0 MSTORE PUSH1 0x11 PUSH1 0x4 MSTORE PUSH1 0x24 PUSH1 0x0 REVERT JUMPDEST DUP1 DUP3 ADD DUP1 DUP3 GT ISZERO PUSH2 0x489 JUMPI PUSH2 0x489 PUSH2 0x13C8 JUMP JUMPDEST PUSH1 0x0 DUP3 PUSH2 0x140E JUMPI PUSH4 0x4E487B71 PUSH1 0xE0 SHL PUSH1 0x0 MSTORE PUSH1 0x12 PUSH1 0x4 MSTORE PUSH1 0x24 PUSH1 0x0 REVERT JUMPDEST POP DIV SWAP1 JUMP JUMPDEST DUP1 DUP3 MUL DUP2 ISZERO DUP3 DUP3 DIV DUP5 EQ OR PUSH2 0x489 JUMPI PUSH2 0x489 PUSH2 0x13C8 JUMP JUMPDEST PUSH1 0x0 DUP2 SLOAD PUSH2 0x1437 DUP2 PUSH2 0xE47 JUMP JUMPDEST PUSH1 0x1 DUP3 DUP2 AND DUP1 ISZERO PUSH2 0x144F JUMPI PUSH1 0x1 DUP2 EQ PUSH2 0x1464 JUMPI PUSH2 0x1493 JUMP JUMPDEST PUSH1 0xFF NOT DUP5 AND DUP8 MSTORE DUP3 ISZERO ISZERO DUP4 MUL DUP8 ADD SWAP5 POP PUSH2 0x1493 JUMP JUMPDEST DUP6 PUSH1 0x0 MSTORE PUSH1 0x20 DUP1 PUSH1 0x0 KECCAK256 PUSH1 0x0 JUMPDEST DUP6 DUP2 LT ISZERO PUSH2 0x148A JUMPI DUP2 SLOAD DUP11 DUP3 ADD MSTORE SWAP1 DUP5 ADD SWAP1 DUP3 ADD PUSH2 0x1471 JUMP JUMPDEST POP POP POP DUP3 DUP8 ADD SWAP5 POP JUMPDEST POP POP POP POP SWAP3 SWAP2 POP POP JUMP JUMPDEST PUSH1 0x0 PUSH2 0x14A9 DUP3 DUP7 PUSH2 0x142A JUMP JUMPDEST PUSH9 0x636F6E74726163742F PUSH1 0xB8 SHL DUP2 MSTORE DUP5 MLOAD PUSH2 0x14CB DUP2 PUSH1 0x9 DUP5 ADD PUSH1 0x20 DUP10 ADD PUSH2 0xDF0 JUMP JUMPDEST PUSH1 0x2F PUSH1 0xF8 SHL PUSH1 0x9 SWAP3 SWAP1 SWAP2 ADD SWAP2 DUP3 ADD MSTORE PUSH2 0x14E7 PUSH1 0xA DUP3 ADD DUP6 PUSH2 0x142A JUMP JUMPDEST SWAP7 SWAP6 POP POP POP POP POP POP JUMP JUMPDEST PUSH1 0x0 DUP4 MLOAD PUSH2 0x1503 DUP2 DUP5 PUSH1 0x20 DUP9 ADD PUSH2 0xDF0 JUMP JUMPDEST PUSH2 0x2023 PUSH1 0xF0 SHL SWAP1 DUP4 ADD SWAP1 DUP2 MSTORE DUP4 MLOAD PUSH2 0x1522 DUP2 PUSH1 0x2 DUP5 ADD PUSH1 0x20 DUP9 ADD PUSH2 0xDF0 JUMP JUMPDEST ADD PUSH1 0x2 ADD SWAP5 SWAP4 POP POP POP POP JUMP JUMPDEST PUSH1 0x0 PUSH2 0x153A DUP3 DUP8 PUSH2 0x142A JUMP JUMPDEST PUSH10 0x2F636F6E74726163742F PUSH1 0xB0 SHL DUP2 MSTORE DUP6 MLOAD PUSH2 0x155D DUP2 PUSH1 0xA DUP5 ADD PUSH1 0x20 DUP11 ADD PUSH2 0xDF0 JUMP JUMPDEST PUSH7 0x2F746F6B656E2F PUSH1 0xC8 SHL PUSH1 0xA SWAP3 SWAP1 SWAP2 ADD SWAP2 DUP3 ADD MSTORE PUSH2 0x157F PUSH1 0x11 DUP3 ADD DUP7 PUSH2 0x142A JUMP JUMPDEST SWAP1 POP PUSH1 0x2F PUSH1 0xF8 SHL DUP2 MSTORE PUSH2 0x1595 PUSH1 0x1 DUP3 ADD DUP6 PUSH2 0x142A JUMP JUMPDEST SWAP8 SWAP7 POP POP POP POP POP POP POP JUMP JUMPDEST PUSH15 0x7B70726F706572746965735F757269 PUSH1 0x88 SHL DUP2 MSTORE PUSH1 0x0 PUSH2 0x15C4 PUSH1 0xF DUP4 ADD DUP7 PUSH2 0x142A JUMP JUMPDEST PUSH9 0x636F6E74726163742F PUSH1 0xB8 SHL DUP2 MSTORE DUP5 MLOAD PUSH2 0x15E6 DUP2 PUSH1 0x9 DUP5 ADD PUSH1 0x20 DUP10 ADD PUSH2 0xDF0 JUMP JUMPDEST PUSH7 0x2F746F6B656E2F PUSH1 0xC8 SHL PUSH1 0x9 SWAP3 SWAP1 SWAP2 ADD SWAP2 DUP3 ADD MSTORE PUSH2 0x1608 PUSH1 0x10 DUP3 ADD DUP6 PUSH2 0x142A JUMP JUMPDEST PUSH16 0x17B83937B832B93A34B2B9973539B7B7 PUSH1 0x81 SHL DUP2 MSTORE PUSH1 0x7D PUSH1 0xF8 SHL PUSH1 0x10 DUP3 ADD MSTORE PUSH1 0x11 ADD SWAP7 SWAP6 POP POP POP POP POP POP JUMP JUMPDEST PUSH4 0x4E487B71 PUSH1 0xE0 SHL PUSH1 0x0 MSTORE PUSH1 0x32 PUSH1 0x4 MSTORE PUSH1 0x24 PUSH1 0x0 REVERT JUMPDEST PUSH1 0x0 DUP2 PUSH2 0x165A JUMPI PUSH2 0x165A PUSH2 0x13C8 JUMP JUMPDEST POP PUSH1 0x0 NOT ADD SWAP1 JUMP INVALID COINBASE TIMESTAMP NUMBER DIFFICULTY GASLIMIT CHAINID SELFBALANCE BASEFEE 0x49 0x4A 0x4B 0x4C 0x4D 0x4E 0x4F POP MLOAD MSTORE MSTORE8 SLOAD SSTORE JUMP JUMPI PC MSIZE GAS PUSH2 0x6263 PUSH5 0x6566676869 PUSH11 0x6B6C6D6E6F707172737475 PUSH23 0x7778797A303132333435363738392B2FA2646970667358 0x22 SLT KECCAK256 0xF6 0x22 0xA9 0x5C 0xA5 PUSH26 0xAD3E624F36A75282D2E2E7EB7ABC812F4A74518E120350C886FF PUSH5 0x736F6C6343 STOP ADDMOD GT STOP CALLER "},"methodIdentifiers":{"_setBaseURI(string)":"31b5b907","allowance(uint256,address)":"e345e0bc","approve(address,uint256)":"095ea7b3","approve(uint256,address,uint256)":"8cb0a511","balanceOf(address)":"70a08231","balanceOf(uint256)":"9cc7f708","contractURI()":"e8a3d485","getApproved(uint256)":"081812fc","isApprovedForAll(address,address)":"e985e9c5","metadataDescriptor()":"840f7113","mint(address,uint256,uint256,string,string,string)":"476de4a8","name()":"06fdde03","owner()":"8da5cb5b","ownerOf(uint256)":"6352211e","renounceOwnership()":"715018a6","safeTransferFrom(address,address,uint256)":"42842e0e","safeTransferFrom(address,address,uint256,bytes)":"b88d4fde","setApprovalForAll(address,bool)":"a22cb465","slotOf(uint256)":"263f3e7e","slotURI(uint256)":"09c3dd87","supportsInterface(bytes4)":"01ffc9a7","symbol()":"95d89b41","tokenByIndex(uint256)":"4f6ccce7","tokenOfOwnerByIndex(address,uint256)":"2f745c59","tokenTransfer(address,address,uint256)":"15eaef6b","tokenURI(uint256)":"c87b56dd","totalSupply()":"18160ddd","transferFrom(address,address,uint256)":"23b872dd","transferFrom(uint256,address,uint256)":"0f485c02","transferFrom(uint256,uint256,uint256)":"310ed7f0","transferOwnership(address)":"f2fde38b","valueDecimals()":"3e7e8669"}}}}}