{
  "_format": "hh-sol-artifact-1",
  "contractName": "OrderCredit",
  "sourceName": "contracts/OrderCredit.sol",
  "abi": [
    {
      "inputs": [
        {
          "internalType": "address",
          "name": "serviceAddress_",
          "type": "address"
        },
        {
          "internalType": "address",
          "name": "slotRegistry_",
          "type": "address"
        },
        {
          "internalType": "string",
          "name": "name_",
          "type": "string"
        },
        {
          "internalType": "string",
          "name": "symbol_",
          "type": "string"
        },
        {
          "internalType": "string",
          "name": "baseuri_",
          "type": "string"
        },
        {
          "internalType": "string",
          "name": "contractDescription_",
          "type": "string"
        },
        {
          "internalType": "string",
          "name": "contractImage_",
          "type": "string"
        },
        {
          "internalType": "uint8",
          "name": "decimals_",
          "type": "uint8"
        }
      ],
      "stateMutability": "nonpayable",
      "type": "constructor"
    },
    {
      "anonymous": false,
      "inputs": [
        {
          "indexed": true,
          "internalType": "address",
          "name": "_owner",
          "type": "address"
        },
        {
          "indexed": true,
          "internalType": "address",
          "name": "_approved",
          "type": "address"
        },
        {
          "indexed": true,
          "internalType": "uint256",
          "name": "_tokenId",
          "type": "uint256"
        }
      ],
      "name": "Approval",
      "type": "event"
    },
    {
      "anonymous": false,
      "inputs": [
        {
          "indexed": true,
          "internalType": "address",
          "name": "_owner",
          "type": "address"
        },
        {
          "indexed": true,
          "internalType": "address",
          "name": "_operator",
          "type": "address"
        },
        {
          "indexed": false,
          "internalType": "bool",
          "name": "_approved",
          "type": "bool"
        }
      ],
      "name": "ApprovalForAll",
      "type": "event"
    },
    {
      "anonymous": false,
      "inputs": [
        {
          "indexed": true,
          "internalType": "uint256",
          "name": "_tokenId",
          "type": "uint256"
        },
        {
          "indexed": true,
          "internalType": "address",
          "name": "_operator",
          "type": "address"
        },
        {
          "indexed": false,
          "internalType": "uint256",
          "name": "_value",
          "type": "uint256"
        }
      ],
      "name": "ApprovalValue",
      "type": "event"
    },
    {
      "anonymous": false,
      "inputs": [
        {
          "indexed": false,
          "internalType": "address",
          "name": "contractAddress",
          "type": "address"
        }
      ],
      "name": "MetadataDescriptor",
      "type": "event"
    },
    {
      "anonymous": false,
      "inputs": [
        {
          "indexed": false,
          "internalType": "uint256",
          "name": "tokenId",
          "type": "uint256"
        },
        {
          "indexed": false,
          "internalType": "uint256",
          "name": "slot",
          "type": "uint256"
        },
        {
          "indexed": false,
          "internalType": "uint256",
          "name": "value",
          "type": "uint256"
        }
      ],
      "name": "MintServiceToken",
      "type": "event"
    },
    {
      "anonymous": false,
      "inputs": [
        {
          "indexed": false,
          "internalType": "uint256",
          "name": "newTokenId",
          "type": "uint256"
        },
        {
          "indexed": false,
          "internalType": "uint256",
          "name": "slot",
          "type": "uint256"
        },
        {
          "indexed": false,
          "internalType": "uint256",
          "name": "value",
          "type": "uint256"
        }
      ],
      "name": "MintServiceTokenToAddress",
      "type": "event"
    },
    {
      "anonymous": false,
      "inputs": [
        {
          "indexed": true,
          "internalType": "address",
          "name": "previousOwner",
          "type": "address"
        },
        {
          "indexed": true,
          "internalType": "address",
          "name": "newOwner",
          "type": "address"
        }
      ],
      "name": "OwnershipTransferred",
      "type": "event"
    },
    {
      "anonymous": false,
      "inputs": [
        {
          "indexed": true,
          "internalType": "address",
          "name": "metadataDescriptor",
          "type": "address"
        }
      ],
      "name": "SetMetadataDescriptor",
      "type": "event"
    },
    {
      "anonymous": false,
      "inputs": [
        {
          "indexed": true,
          "internalType": "uint256",
          "name": "_tokenId",
          "type": "uint256"
        },
        {
          "indexed": true,
          "internalType": "uint256",
          "name": "_oldSlot",
          "type": "uint256"
        },
        {
          "indexed": true,
          "internalType": "uint256",
          "name": "_newSlot",
          "type": "uint256"
        }
      ],
      "name": "SlotChanged",
      "type": "event"
    },
    {
      "anonymous": false,
      "inputs": [
        {
          "indexed": true,
          "internalType": "address",
          "name": "_from",
          "type": "address"
        },
        {
          "indexed": true,
          "internalType": "address",
          "name": "_to",
          "type": "address"
        },
        {
          "indexed": true,
          "internalType": "uint256",
          "name": "_tokenId",
          "type": "uint256"
        }
      ],
      "name": "Transfer",
      "type": "event"
    },
    {
      "anonymous": false,
      "inputs": [
        {
          "indexed": true,
          "internalType": "uint256",
          "name": "_fromTokenId",
          "type": "uint256"
        },
        {
          "indexed": true,
          "internalType": "uint256",
          "name": "_toTokenId",
          "type": "uint256"
        },
        {
          "indexed": false,
          "internalType": "uint256",
          "name": "_value",
          "type": "uint256"
        }
      ],
      "name": "TransferValue",
      "type": "event"
    },
    {
      "anonymous": false,
      "inputs": [
        {
          "indexed": false,
          "internalType": "uint256",
          "name": "fromTokenId",
          "type": "uint256"
        },
        {
          "indexed": false,
          "internalType": "uint256",
          "name": "toTokenId",
          "type": "uint256"
        },
        {
          "indexed": false,
          "internalType": "uint256",
          "name": "value",
          "type": "uint256"
        }
      ],
      "name": "ValueTransfer",
      "type": "event"
    },
    {
      "inputs": [
        {
          "internalType": "string",
          "name": "uri_",
          "type": "string"
        }
      ],
      "name": "_setBaseURI",
      "outputs": [],
      "stateMutability": "nonpayable",
      "type": "function"
    },
    {
      "inputs": [
        {
          "internalType": "uint256",
          "name": "tokenId_",
          "type": "uint256"
        },
        {
          "internalType": "address",
          "name": "operator_",
          "type": "address"
        }
      ],
      "name": "allowance",
      "outputs": [
        {
          "internalType": "uint256",
          "name": "",
          "type": "uint256"
        }
      ],
      "stateMutability": "view",
      "type": "function"
    },
    {
      "inputs": [
        {
          "internalType": "address",
          "name": "to_",
          "type": "address"
        },
        {
          "internalType": "uint256",
          "name": "tokenId_",
          "type": "uint256"
        }
      ],
      "name": "approve",
      "outputs": [],
      "stateMutability": "payable",
      "type": "function"
    },
    {
      "inputs": [
        {
          "internalType": "uint256",
          "name": "tokenId_",
          "type": "uint256"
        },
        {
          "internalType": "address",
          "name": "to_",
          "type": "address"
        },
        {
          "internalType": "uint256",
          "name": "value_",
          "type": "uint256"
        }
      ],
      "name": "approve",
      "outputs": [],
      "stateMutability": "payable",
      "type": "function"
    },
    {
      "inputs": [
        {
          "internalType": "address",
          "name": "owner_",
          "type": "address"
        }
      ],
      "name": "balanceOf",
      "outputs": [
        {
          "internalType": "uint256",
          "name": "balance",
          "type": "uint256"
        }
      ],
      "stateMutability": "view",
      "type": "function"
    },
    {
      "inputs": [
        {
          "internalType": "uint256",
          "name": "tokenId_",
          "type": "uint256"
        }
      ],
      "name": "balanceOf",
      "outputs": [
        {
          "internalType": "uint256",
          "name": "",
          "type": "uint256"
        }
      ],
      "stateMutability": "view",
      "type": "function"
    },
    {
      "inputs": [],
      "name": "contractURI",
      "outputs": [
        {
          "internalType": "string",
          "name": "",
          "type": "string"
        }
      ],
      "stateMutability": "view",
      "type": "function"
    },
    {
      "inputs": [
        {
          "internalType": "uint256",
          "name": "index",
          "type": "uint256"
        }
      ],
      "name": "dequeue",
      "outputs": [],
      "stateMutability": "nonpayable",
      "type": "function"
    },
    {
      "inputs": [
        {
          "internalType": "address",
          "name": "owner_",
          "type": "address"
        },
        {
          "internalType": "uint256",
          "name": "slot_",
          "type": "uint256"
        },
        {
          "internalType": "string",
          "name": "uuid_",
          "type": "string"
        },
        {
          "internalType": "string",
          "name": "token_description_",
          "type": "string"
        },
        {
          "internalType": "string",
          "name": "token_image_",
          "type": "string"
        }
      ],
      "name": "enqueue",
      "outputs": [
        {
          "internalType": "uint256",
          "name": "",
          "type": "uint256"
        }
      ],
      "stateMutability": "nonpayable",
      "type": "function"
    },
    {
      "inputs": [
        {
          "internalType": "uint256",
          "name": "tokenId_",
          "type": "uint256"
        }
      ],
      "name": "getApproved",
      "outputs": [
        {
          "internalType": "address",
          "name": "",
          "type": "address"
        }
      ],
      "stateMutability": "view",
      "type": "function"
    },
    {
      "inputs": [
        {
          "internalType": "uint256",
          "name": "tokenId",
          "type": "uint256"
        }
      ],
      "name": "getTokenDescription",
      "outputs": [
        {
          "internalType": "string",
          "name": "",
          "type": "string"
        }
      ],
      "stateMutability": "view",
      "type": "function"
    },
    {
      "inputs": [
        {
          "internalType": "uint256",
          "name": "tokenId",
          "type": "uint256"
        }
      ],
      "name": "getTokenImage",
      "outputs": [
        {
          "internalType": "string",
          "name": "",
          "type": "string"
        }
      ],
      "stateMutability": "view",
      "type": "function"
    },
    {
      "inputs": [
        {
          "internalType": "uint256",
          "name": "tokenId",
          "type": "uint256"
        }
      ],
      "name": "getTokenUUID",
      "outputs": [
        {
          "internalType": "string",
          "name": "",
          "type": "string"
        }
      ],
      "stateMutability": "view",
      "type": "function"
    },
    {
      "inputs": [
        {
          "internalType": "address",
          "name": "owner_",
          "type": "address"
        },
        {
          "internalType": "address",
          "name": "operator_",
          "type": "address"
        }
      ],
      "name": "isApprovedForAll",
      "outputs": [
        {
          "internalType": "bool",
          "name": "",
          "type": "bool"
        }
      ],
      "stateMutability": "view",
      "type": "function"
    },
    {
      "inputs": [],
      "name": "metadataDescriptor",
      "outputs": [
        {
          "internalType": "contract IERC3525MetadataDescriptor",
          "name": "",
          "type": "address"
        }
      ],
      "stateMutability": "view",
      "type": "function"
    },
    {
      "inputs": [
        {
          "internalType": "address",
          "name": "owner_",
          "type": "address"
        },
        {
          "internalType": "uint256",
          "name": "slot_",
          "type": "uint256"
        },
        {
          "internalType": "uint256",
          "name": "value_",
          "type": "uint256"
        },
        {
          "internalType": "string",
          "name": "uuid_",
          "type": "string"
        },
        {
          "internalType": "string",
          "name": "token_description_",
          "type": "string"
        },
        {
          "internalType": "string",
          "name": "token_image_",
          "type": "string"
        }
      ],
      "name": "mint",
      "outputs": [
        {
          "internalType": "uint256",
          "name": "",
          "type": "uint256"
        }
      ],
      "stateMutability": "nonpayable",
      "type": "function"
    },
    {
      "inputs": [],
      "name": "name",
      "outputs": [
        {
          "internalType": "string",
          "name": "",
          "type": "string"
        }
      ],
      "stateMutability": "view",
      "type": "function"
    },
    {
      "inputs": [],
      "name": "owner",
      "outputs": [
        {
          "internalType": "address",
          "name": "",
          "type": "address"
        }
      ],
      "stateMutability": "view",
      "type": "function"
    },
    {
      "inputs": [
        {
          "internalType": "uint256",
          "name": "tokenId_",
          "type": "uint256"
        }
      ],
      "name": "ownerOf",
      "outputs": [
        {
          "internalType": "address",
          "name": "owner_",
          "type": "address"
        }
      ],
      "stateMutability": "view",
      "type": "function"
    },
    {
      "inputs": [],
      "name": "renounceOwnership",
      "outputs": [],
      "stateMutability": "nonpayable",
      "type": "function"
    },
    {
      "inputs": [
        {
          "internalType": "address",
          "name": "from_",
          "type": "address"
        },
        {
          "internalType": "address",
          "name": "to_",
          "type": "address"
        },
        {
          "internalType": "uint256",
          "name": "tokenId_",
          "type": "uint256"
        }
      ],
      "name": "safeTransferFrom",
      "outputs": [],
      "stateMutability": "payable",
      "type": "function"
    },
    {
      "inputs": [
        {
          "internalType": "address",
          "name": "from_",
          "type": "address"
        },
        {
          "internalType": "address",
          "name": "to_",
          "type": "address"
        },
        {
          "internalType": "uint256",
          "name": "tokenId_",
          "type": "uint256"
        },
        {
          "internalType": "bytes",
          "name": "data_",
          "type": "bytes"
        }
      ],
      "name": "safeTransferFrom",
      "outputs": [],
      "stateMutability": "payable",
      "type": "function"
    },
    {
      "inputs": [
        {
          "internalType": "address",
          "name": "operator_",
          "type": "address"
        },
        {
          "internalType": "bool",
          "name": "approved_",
          "type": "bool"
        }
      ],
      "name": "setApprovalForAll",
      "outputs": [],
      "stateMutability": "nonpayable",
      "type": "function"
    },
    {
      "inputs": [
        {
          "internalType": "uint256",
          "name": "tokenId_",
          "type": "uint256"
        }
      ],
      "name": "slotOf",
      "outputs": [
        {
          "internalType": "uint256",
          "name": "",
          "type": "uint256"
        }
      ],
      "stateMutability": "view",
      "type": "function"
    },
    {
      "inputs": [
        {
          "internalType": "uint256",
          "name": "slot_",
          "type": "uint256"
        }
      ],
      "name": "slotURI",
      "outputs": [
        {
          "internalType": "string",
          "name": "",
          "type": "string"
        }
      ],
      "stateMutability": "view",
      "type": "function"
    },
    {
      "inputs": [
        {
          "internalType": "bytes4",
          "name": "interfaceId",
          "type": "bytes4"
        }
      ],
      "name": "supportsInterface",
      "outputs": [
        {
          "internalType": "bool",
          "name": "",
          "type": "bool"
        }
      ],
      "stateMutability": "view",
      "type": "function"
    },
    {
      "inputs": [],
      "name": "symbol",
      "outputs": [
        {
          "internalType": "string",
          "name": "",
          "type": "string"
        }
      ],
      "stateMutability": "view",
      "type": "function"
    },
    {
      "inputs": [
        {
          "internalType": "uint256",
          "name": "index_",
          "type": "uint256"
        }
      ],
      "name": "tokenByIndex",
      "outputs": [
        {
          "internalType": "uint256",
          "name": "",
          "type": "uint256"
        }
      ],
      "stateMutability": "view",
      "type": "function"
    },
    {
      "inputs": [
        {
          "internalType": "address",
          "name": "owner_",
          "type": "address"
        },
        {
          "internalType": "uint256",
          "name": "index_",
          "type": "uint256"
        }
      ],
      "name": "tokenOfOwnerByIndex",
      "outputs": [
        {
          "internalType": "uint256",
          "name": "",
          "type": "uint256"
        }
      ],
      "stateMutability": "view",
      "type": "function"
    },
    {
      "inputs": [
        {
          "internalType": "uint256",
          "name": "tokenId_",
          "type": "uint256"
        }
      ],
      "name": "tokenURI",
      "outputs": [
        {
          "internalType": "string",
          "name": "",
          "type": "string"
        }
      ],
      "stateMutability": "view",
      "type": "function"
    },
    {
      "inputs": [],
      "name": "totalSupply",
      "outputs": [
        {
          "internalType": "uint256",
          "name": "",
          "type": "uint256"
        }
      ],
      "stateMutability": "view",
      "type": "function"
    },
    {
      "inputs": [
        {
          "internalType": "uint256",
          "name": "fromTokenId_",
          "type": "uint256"
        },
        {
          "internalType": "address",
          "name": "to_",
          "type": "address"
        },
        {
          "internalType": "uint256",
          "name": "value_",
          "type": "uint256"
        }
      ],
      "name": "transferFrom",
      "outputs": [
        {
          "internalType": "uint256",
          "name": "",
          "type": "uint256"
        }
      ],
      "stateMutability": "payable",
      "type": "function"
    },
    {
      "inputs": [
        {
          "internalType": "address",
          "name": "from_",
          "type": "address"
        },
        {
          "internalType": "address",
          "name": "to_",
          "type": "address"
        },
        {
          "internalType": "uint256",
          "name": "tokenId_",
          "type": "uint256"
        }
      ],
      "name": "transferFrom",
      "outputs": [],
      "stateMutability": "payable",
      "type": "function"
    },
    {
      "inputs": [
        {
          "internalType": "uint256",
          "name": "fromTokenId_",
          "type": "uint256"
        },
        {
          "internalType": "uint256",
          "name": "toTokenId_",
          "type": "uint256"
        },
        {
          "internalType": "uint256",
          "name": "value_",
          "type": "uint256"
        }
      ],
      "name": "transferFrom",
      "outputs": [],
      "stateMutability": "payable",
      "type": "function"
    },
    {
      "inputs": [
        {
          "internalType": "address",
          "name": "newOwner",
          "type": "address"
        }
      ],
      "name": "transferOwnership",
      "outputs": [],
      "stateMutability": "nonpayable",
      "type": "function"
    },
    {
      "inputs": [],
      "name": "valueDecimals",
      "outputs": [
        {
          "internalType": "uint8",
          "name": "",
          "type": "uint8"
        }
      ],
      "stateMutability": "view",
      "type": "function"
    }
  ],
  "bytecode": "0x60806040523480156200001157600080fd5b5060405162005d7c38038062005d7c8339810160408190526200003491620002b4565b878787878787878785858260006200004d84826200045d565b5060016200005c83826200045d565b506002805460ff191660ff9290921691909117905550620000869050620000803390565b62000158565b600a80546001600160a01b0319166001600160a01b038a16179055600b620000af85826200045d565b50600b838389604051620000c390620001aa565b620000d2949392919062000557565b604051809103906000f080158015620000ef573d6000803e3d6000fd5b50600880546001600160a01b0319166001600160a01b039290921691821790556040519081527f9ac4f8025631594629895b778dc5ee88d01673a254a2291f6b6b174ad25230ca9060200160405180910390a1505050505050505050505050505050506200062f565b600980546001600160a01b038381166001600160a01b0319831681179093556040519116919082907f8be0079c531659141344cd1fd0a4f28419497f9722a3daafe3b4186f6b6457e090600090a35050565b611ada80620042a283390190565b80516001600160a01b0381168114620001d057600080fd5b919050565b634e487b7160e01b600052604160045260246000fd5b60005b8381101562000208578181015183820152602001620001ee565b50506000910152565b600082601f8301126200022357600080fd5b81516001600160401b0380821115620002405762000240620001d5565b604051601f8301601f19908116603f011681019082821181831017156200026b576200026b620001d5565b816040528381528660208588010111156200028557600080fd5b62000298846020830160208901620001eb565b9695505050505050565b805160ff81168114620001d057600080fd5b600080600080600080600080610100898b031215620002d257600080fd5b620002dd89620001b8565b9750620002ed60208a01620001b8565b60408a01519097506001600160401b03808211156200030b57600080fd5b620003198c838d0162000211565b975060608b01519150808211156200033057600080fd5b6200033e8c838d0162000211565b965060808b01519150808211156200035557600080fd5b620003638c838d0162000211565b955060a08b01519150808211156200037a57600080fd5b620003888c838d0162000211565b945060c08b01519150808211156200039f57600080fd5b50620003ae8b828c0162000211565b925050620003bf60e08a01620002a2565b90509295985092959890939650565b600181811c90821680620003e357607f821691505b6020821081036200040457634e487b7160e01b600052602260045260246000fd5b50919050565b601f8211156200045857600081815260208120601f850160051c81016020861015620004335750805b601f850160051c820191505b8181101562000454578281556001016200043f565b5050505b505050565b81516001600160401b03811115620004795762000479620001d5565b62000491816200048a8454620003ce565b846200040a565b602080601f831160018114620004c95760008415620004b05750858301515b600019600386901b1c1916600185901b17855562000454565b600085815260208120601f198616915b82811015620004fa57888601518255948401946001909101908401620004d9565b5085821015620005195787850151600019600388901b60f8161c191681555b5050505050600190811b01905550565b6000815180845262000543816020860160208601620001eb565b601f01601f19169290920160200192915050565b6080815260008086546200056b81620003ce565b80608086015260a0600180841660008114620005905760018114620005ab57620005de565b60ff1985168884015283151560051b880183019550620005de565b8b60005260208060002060005b86811015620005d55781548b8201870152908401908201620005b8565b8a018501975050505b50505050508281036020840152620005f7818762000529565b905082810360408401526200060d818662000529565b9150506200062660608301846001600160a01b03169052565b95945050505050565b613c63806200063f6000396000f3fe60806040526004361061020f5760003560e01c80636352211e11610118578063a22cb465116100a0578063e345e0bc1161006f578063e345e0bc146105b7578063e8a3d485146105d7578063e985e9c5146105ec578063f2fde38b14610639578063f4b724bc1461065957600080fd5b8063a22cb46514610544578063b3154c0814610564578063b88d4fde14610584578063c87b56dd1461059757600080fd5b8063840f7113116100e7578063840f7113146104be5780638cb0a511146104de5780638da5cb5b146104f157806395d89b411461050f5780639cc7f7081461052457600080fd5b80636352211e1461044957806370a0823114610469578063715018a61461048957806371f0442e1461049e57600080fd5b8063263f3e7e1161019b5780633e7e86691161016a5780633e7e8669146103b457806342842e0e146103d6578063476de4a8146103e95780634f6ccce71461040957806353a3a3001461042957600080fd5b8063263f3e7e146103415780632f745c5914610361578063310ed7f01461038157806331b5b9071461039457600080fd5b806309c3dd87116101e257806309c3dd87146102b85780630f485c02146102d85780631375d843146102f957806318160ddd1461031957806323b872dd1461032e57600080fd5b806301ffc9a71461021457806306fdde0314610249578063081812fc1461026b578063095ea7b3146102a3575b600080fd5b34801561022057600080fd5b5061023461022f366004613264565b610679565b60405190151581526020015b60405180910390f35b34801561025557600080fd5b5061025e61071c565b60405161024091906132d1565b34801561027757600080fd5b5061028b6102863660046132e4565b6107ae565b6040516001600160a01b039091168152602001610240565b6102b66102b1366004613314565b610800565b005b3480156102c457600080fd5b5061025e6102d33660046132e4565b6108e4565b6102eb6102e636600461333e565b6109c9565b604051908152602001610240565b34801561030557600080fd5b5061025e6103143660046132e4565b610a32565b34801561032557600080fd5b506005546102eb565b6102b661033c366004613373565b610aa5565b34801561034d57600080fd5b506102eb61035c3660046132e4565b610ab0565b34801561036d57600080fd5b506102eb61037c366004613314565b610af8565b6102b661038f36600461339f565b610b99565b3480156103a057600080fd5b506102b66103af366004613498565b610bf3565b3480156103c057600080fd5b5060025460405160ff9091168152602001610240565b6102b66103e4366004613373565b610c65565b3480156103f557600080fd5b506102eb6104043660046134cd565b610c80565b34801561041557600080fd5b506102eb6104243660046132e4565b610d50565b34801561043557600080fd5b506102b66104443660046132e4565b610de1565b34801561045557600080fd5b5061028b6104643660046132e4565b610f0a565b34801561047557600080fd5b506102eb610484366004613578565b610fa6565b34801561049557600080fd5b506102b661102e565b3480156104aa57600080fd5b5061025e6104b93660046132e4565b611042565b3480156104ca57600080fd5b5060085461028b906001600160a01b031681565b6102b66104ec36600461333e565b611074565b3480156104fd57600080fd5b506009546001600160a01b031661028b565b34801561051b57600080fd5b5061025e61107f565b34801561053057600080fd5b506102eb61053f3660046132e4565b61108e565b34801561055057600080fd5b506102b661055f3660046135a1565b6110d6565b34801561057057600080fd5b5061025e61057f3660046132e4565b6110e5565b6102b66105923660046135d8565b611117565b3480156105a357600080fd5b5061025e6105b23660046132e4565b611149565b3480156105c357600080fd5b506102eb6105d2366004613654565b6111db565b3480156105e357600080fd5b5061025e61120f565b3480156105f857600080fd5b50610234610607366004613680565b6001600160a01b0391821660009081526007602090815260408083209390941682526002909201909152205460ff1690565b34801561064557600080fd5b506102b6610654366004613578565b6112fc565b34801561066557600080fd5b506102eb6106743660046136aa565b611375565b60006001600160e01b031982166301ffc9a760e01b14806106aa57506001600160e01b03198216630354d60560e61b145b806106c557506001600160e01b031982166380ac58cd60e01b145b806106e057506001600160e01b031982166370b0048160e11b145b806106fb57506001600160e01b0319821663780e9d6360e01b145b8061071657506001600160e01b03198216635b5e139f60e01b145b92915050565b60606000805461072b9061374d565b80601f01602080910402602001604051908101604052809291908181526020018280546107579061374d565b80156107a45780601f10610779576101008083540402835291602001916107a4565b820191906000526020600020905b81548152906001019060200180831161078757829003601f168201915b5050505050905090565b60006107b98261139c565b6000828152600660205260409020546005805490919081106107dd576107dd613787565b60009182526020909120600460069092020101546001600160a01b031692915050565b600061080b82610f0a565b9050806001600160a01b0316836001600160a01b0316036108475760405162461bcd60e51b815260040161083e9061379d565b60405180910390fd5b336001600160a01b038216148061086357506108638133610607565b6108d55760405162461bcd60e51b815260206004820152603960248201527f455243333532353a20617070726f76652063616c6c6572206973206e6f74206f60448201527f776e6572206e6f7220617070726f76656420666f7220616c6c00000000000000606482015260840161083e565b6108df83836113ed565b505050565b606060006108f0611484565b6008549091506001600160a01b031661095057600081511161092157604051806020016040528060008152506109c2565b8061092b84611493565b60405160200161093c9291906137df565b6040516020818303038152906040526109c2565b600854604051633601bfc560e11b8152600481018590526001600160a01b0390911690636c037f8a906024015b600060405180830381865afa15801561099a573d6000803e3d6000fd5b505050506040513d6000823e601f3d908101601f191682016040526109c2919081019061381f565b9392505050565b60006109d48461108e565b82146109f25760405162461bcd60e51b815260040161083e90613896565b60006109ff858585611526565b905080600c8481548110610a1557610a15613787565b600091825260209091200155610a2a85611588565b949350505050565b600854604051631375d84360e01b8152600481018390526060916001600160a01b031690631375d843906024015b600060405180830381865afa158015610a7d573d6000803e3d6000fd5b505050506040513d6000823e601f3d908101601f19168201604052610716919081019061381f565b6108df838383611697565b6000610abb8261139c565b600082815260066020526040902054600580549091908110610adf57610adf613787565b9060005260206000209060060201600101549050919050565b6000610b0383610fa6565b8210610b5c5760405162461bcd60e51b815260206004820152602260248201527f455243333532353a206f776e657220696e646578206f7574206f6620626f756e604482015261647360f01b606482015260840161083e565b6001600160a01b0383166000908152600760205260409020805483908110610b8657610b86613787565b9060005260206000200154905092915050565b610ba28361108e565b8114610bc05760405162461bcd60e51b815260040161083e90613896565b6000610bcb8361108e565b9050610bd783826116a2565b610be28484846117a1565b610bed8385836117a1565b50505050565b600b610bff828261392c565b506008546040516355f804b360e01b81526001600160a01b03909116906355f804b390610c309084906004016132d1565b600060405180830381600087803b158015610c4a57600080fd5b505af1158015610c5e573d6000803e3d6000fd5b5050505050565b6108df83838360405180602001604052806000815250611117565b6000610c8b60055490565b8514610cff5760405162461bcd60e51b815260206004820152603c60248201527f4f726465724372656469743a204e657720746f6b656e732063616e206f6e6c7960448201527f206d696e7420746f2074686520656e64206f6620746865206c69737400000000606482015260840161083e565b6000610d0f8888888888886117f2565b600c80546001810182556000919091527fdf6966c971051c3d54ec59162606531493a51404a002842f56009d7e5cf4a8c70181905598975050505050505050565b6000610d5b60055490565b8210610db55760405162461bcd60e51b815260206004820152602360248201527f455243333532353a20676c6f62616c20696e646578206f7574206f6620626f756044820152626e647360e81b606482015260840161083e565b60058281548110610dc857610dc8613787565b9060005260206000209060060201600001549050919050565b6000610dec60055490565b905060008111610e3e5760405162461bcd60e51b815260206004820152601a60248201527f4f726465724372656469743a204c69737420697320656d707479000000000000604482015260640161083e565b610e64600c8381548110610e5457610e54613787565b9060005260206000200154611588565b815b818110156108df5781610e7a826001613a02565b1015610efa57610eb2600c610e90836001613a02565b81548110610ea057610ea0613787565b9060005260206000200154600161198d565b600c610ebf826001613a02565b81548110610ecf57610ecf613787565b9060005260206000200154600c8281548110610eed57610eed613787565b6000918252602090912001555b610f0381613a15565b9050610e66565b6000610f158261139c565b600082815260066020526040902054600580549091908110610f3957610f39613787565b60009182526020909120600360069092020101546001600160a01b0316905080610fa15760405162461bcd60e51b8152602060048201526019602482015278115490cccd4c8d4e881a5b9d985b1a59081d1bdad95b881251603a1b604482015260640161083e565b919050565b60006001600160a01b0382166110125760405162461bcd60e51b815260206004820152602b60248201527f455243333532353a2062616c616e636520717565727920666f7220746865207a60448201526a65726f206164647265737360a81b606482015260840161083e565b506001600160a01b031660009081526007602052604090205490565b6110366119b6565b6110406000611a10565b565b6008546040516338f8221760e11b8152600481018390526060916001600160a01b0316906371f0442e90602401610a60565b6108df838383611a62565b60606001805461072b9061374d565b60006110998261139c565b6000828152600660205260409020546005805490919081106110bd576110bd613787565b9060005260206000209060060201600201549050919050565b6110e1338383611b1b565b5050565b600854604051631662a98160e31b8152600481018390526060916001600160a01b03169063b3154c0890602401610a60565b6111213383611bee565b61113d5760405162461bcd60e51b815260040161083e90613a2e565b610bed84848484611c70565b60606111548261139c565b600061115e611484565b6008549091506001600160a01b03166111aa57600081511161118f57604051806020016040528060008152506109c2565b8061119984611493565b60405160200161093c929190613a80565b6008546040516344a5a61760e11b8152600481018590526001600160a01b039091169063894b4c2e9060240161097d565b60006111e68361139c565b5060009182526004602090815260408084206001600160a01b0393909316845291905290205490565b6060600061121b611484565b6008549091506001600160a01b031661127b57600081511161124c57604051806020016040528060008152506112f6565b8061125630611ce3565b604051602001611267929190613aaf565b6040516020818303038152906040526112f6565b600860009054906101000a90046001600160a01b03166001600160a01b031663725fa09c6040518163ffffffff1660e01b8152600401600060405180830381865afa1580156112ce573d6000803e3d6000fd5b505050506040513d6000823e601f3d908101601f191682016040526112f6919081019061381f565b91505090565b6113046119b6565b6001600160a01b0381166113695760405162461bcd60e51b815260206004820152602660248201527f4f776e61626c653a206e6577206f776e657220697320746865207a65726f206160448201526564647265737360d01b606482015260840161083e565b61137281611a10565b50565b60008061138160055490565b9050611391878783888888610c80565b979650505050505050565b6113a581611cf9565b6113725760405162461bcd60e51b8152602060048201526019602482015278115490cccd4c8d4e881a5b9d985b1a59081d1bdad95b881251603a1b604482015260640161083e565b60008181526006602052604090205460058054849290811061141157611411613787565b6000918252602090912060069091020160040180546001600160a01b0319166001600160a01b039283161790558190831661144b82610f0a565b6001600160a01b03167f8c5be1e5ebec7d5bd14f71427d1e84f3dd0314c0f7b2291e5b200ac8c7c3b92560405160405180910390a45050565b6060600b805461072b9061374d565b606060006114a083611d45565b600101905060008167ffffffffffffffff8111156114c0576114c06133cb565b6040519080825280601f01601f1916602001820160405280156114ea576020820181803683370190505b5090508181016020015b600019016f181899199a1a9b1b9c1cb0b131b232b360811b600a86061a8153600a85049450846114f457509392505050565b600080611534858585611e1d565b90507f6d811e6a20ae5461a4ef22a6998c1d958defe727f1cc522b6eb792bc8e6f72668161156187610ab0565b604080519283526020830191909152810185905260600160405180910390a1949350505050565b6115918161139c565b6000818152600660205260408120546005805490919081106115b5576115b5613787565b60009182526020909120600691909102016003810154600182015460028301549293506001600160a01b03909116916115ed85611e55565b6115f78386611f00565b61160085612021565b600085600080516020613c0e8339815191528360405161162291815260200190565b60405180910390a3600082867fe4f48c240d3b994948aa54f3e2f5fca59263dfe1d52b6e4cf39a5d249b5ccb6560405160405180910390a460405185906000906001600160a01b038616907fddf252ad1be2c89b69c2b068fc378daa952ba7f163c4a11628f55a4df523b3ef908390a4610c5e565b6108df83838361222f565b6116ab8261139c565b6000828152600660205260408120546005805490919081106116cf576116cf613787565b600091825260209091206006909102016003810154600182015460028301549293506001600160a01b0390911691848110156117595760405162461bcd60e51b815260206004820152602360248201527f455243333532353a206275726e2076616c756520657863656564732062616c616044820152626e636560e81b606482015260840161083e565b8484600201600082825461176d9190613af3565b90915550506040518581526000908790600080516020613c0e8339815191529060200160405180910390a35b505050505050565b6117ac838383612260565b60408051848152602081018490529081018290527fdf7a601a0a201ccd4b4bfcfd610913188d931867997223d226f85f2f2673988a9060600160405180910390a1505050565b60006117fc6119b6565b6000611806612276565b90506118148882898961228d565b600854604051632108947560e21b81526001600160a01b039091169063842251d4906118469084908990600401613b06565b600060405180830381600087803b15801561186057600080fd5b505af1158015611874573d6000803e3d6000fd5b505060085460405163246a908b60e01b81526001600160a01b03909116925063246a908b91506118aa9084908890600401613b06565b600060405180830381600087803b1580156118c457600080fd5b505af11580156118d8573d6000803e3d6000fd5b5050600854604051630190503b60e61b81526001600160a01b0390911692506364140ec0915061190e9084908790600401613b06565b600060405180830381600087803b15801561192857600080fd5b505af115801561193c573d6000803e3d6000fd5b505060408051848152602081018b90529081018990527f84eeb48eca46cea54afc9753345f6038981672ea565f32885420829dfd88aea69250606001905060405180910390a1979650505050505050565b600061199883610f0a565b905060006119a584610ab0565b90506119b184846123ae565b610bed565b6009546001600160a01b031633146110405760405162461bcd60e51b815260206004820181905260248201527f4f776e61626c653a2063616c6c6572206973206e6f7420746865206f776e6572604482015260640161083e565b600980546001600160a01b038381166001600160a01b0319831681179093556040519116919082907f8be0079c531659141344cd1fd0a4f28419497f9722a3daafe3b4186f6b6457e090600090a35050565b6000611a6d84610f0a565b9050806001600160a01b0316836001600160a01b031603611aa05760405162461bcd60e51b815260040161083e9061379d565b611aaa3385611bee565b611b105760405162461bcd60e51b815260206004820152603160248201527f455243333532353a20617070726f76652063616c6c6572206973206e6f74206f6044820152701ddb995c881b9bdc88185c1c1c9bdd9959607a1b606482015260840161083e565b610bed848484612421565b816001600160a01b0316836001600160a01b031603611b7c5760405162461bcd60e51b815260206004820152601a60248201527f455243333532353a20617070726f766520746f2063616c6c6572000000000000604482015260640161083e565b6001600160a01b0383811660008181526007602090815260408083209487168084526002909501825291829020805460ff191686151590811790915591519182527f17307eab39ab6107e8899845ad3d59bd9653f200f220920489ca2b5937696c3191015b60405180910390a3505050565b600080611bfa83610f0a565b9050806001600160a01b0316846001600160a01b03161480611c4557506001600160a01b038082166000908152600760209081526040808320938816835260029093019052205460ff165b80610a2a5750836001600160a01b0316611c5e846107ae565b6001600160a01b031614949350505050565b611c7b848484612550565b611c87848484846126b1565b610bed5760405162461bcd60e51b815260206004820152602760248201527f455243333532353a207472616e7366657220746f206e6f6e204552433732315260448201526632b1b2b4bb32b960c91b606482015260840161083e565b60606107166001600160a01b03831660146127fd565b600554600090158015906107165750600082815260066020526040902054600580548492908110611d2c57611d2c613787565b9060005260206000209060060201600001541492915050565b60008072184f03e93ff9f4daa797ed6e38ed64bf6a1f0160401b8310611d845772184f03e93ff9f4daa797ed6e38ed64bf6a1f0160401b830492506040015b6d04ee2d6d415b85acef81000000008310611db0576d04ee2d6d415b85acef8100000000830492506020015b662386f26fc100008310611dce57662386f26fc10000830492506010015b6305f5e1008310611de6576305f5e100830492506008015b6127108310611dfa57612710830492506004015b60648310611e0c576064830492506002015b600a83106107165760010192915050565b6000611e2a338584612999565b611e3384612a29565b9050611e4a8382611e4387610ab0565b600061228d565b6109c2848284612a33565b600081815260066020526040812054600580549091908110611e7957611e79613787565b600091825260208220600560069092020190810154909250905b81811015611ef1576000836005018281548110611eb257611eb2613787565b60009182526020808320909101548783526004825260408084206001600160a01b03909216845291528120555080611ee981613a15565b915050611e93565b506108df6005830160006131b6565b600081815260066020526040812054600580549091908110611f2457611f24613787565b6000918252602080832060069290920290910160030180546001600160a01b0319166001600160a01b0394851617905591841681526007909152604081208054909190611f7390600190613af3565b90506000826000018281548110611f8c57611f8c613787565b90600052602060002001549050600083600101600086815260200190815260200160002054905081846000018281548110611fc957611fc9613787565b6000918252602080832090910192909255838152600186019091526040808220839055868252812055835484908061200357612003613b1f565b60019003818190600052602060002001600090559055505050505050565b60055460009061203390600190613af3565b6000838152600660205260408120546005805493945090928490811061205b5761205b613787565b60009182526020918290206040805160c08101825260069093029091018054835260018101548385015260028101548383015260038101546001600160a01b03908116606085015260048201541660808401526005810180548351818702810187019094528084529394919360a08601939283018282801561210657602002820191906000526020600020905b81546001600160a01b031681526001909101906020018083116120e8575b5050505050815250509050806005838154811061212557612125613787565b600091825260209182902083516006909202019081558282015160018201556040830151600282015560608301516003820180546001600160a01b039283166001600160a01b031991821617909155608085015160048401805491909316911617905560a0830151805191926121a3926005850192909101906131d4565b505081516000908152600660205260408082208590558682528120555060058054806121d1576121d1613b1f565b60008281526020812060066000199093019283020181815560018101829055600281018290556003810180546001600160a01b031990811690915560048201805490911690559061222560058301826131b6565b5050905550505050565b6122393382611bee565b6122555760405162461bcd60e51b815260040161083e90613a2e565b6108df838383612550565b61226b338483612999565b6108df838383612a33565b6000612286600380546001019055565b5060035490565b6001600160a01b0384166122ed5760405162461bcd60e51b815260206004820152602160248201527f455243333532353a206d696e7420746f20746865207a65726f206164647265736044820152607360f81b606482015260840161083e565b826000036123475760405162461bcd60e51b815260206004820152602160248201527f455243333532353a2063616e6e6f74206d696e74207a65726f20746f6b656e496044820152601960fa1b606482015260840161083e565b61235083611cf9565b1561239d5760405162461bcd60e51b815260206004820152601d60248201527f455243333532353a20746f6b656e20616c7265616479206d696e746564000000604482015260640161083e565b6123a8848484612d12565b6119b183825b6000828152600660205260409020546005805483929081106123d2576123d2613787565b906000526020600020906006020160020160008282546123f29190613a02565b90915550506040518181528290600090600080516020613c0e8339815191529060200160405180910390a35050565b6001600160a01b03821661248a5760405162461bcd60e51b815260206004820152602a60248201527f455243333532353a20617070726f76652076616c756520746f20746865207a65604482015269726f206164647265737360b01b606482015260840161083e565b6124948284612dd8565b6124fa576000838152600660205260409020546005805490919081106124bc576124bc613787565b60009182526020808320600692909202909101600501805460018101825590835291200180546001600160a01b0319166001600160a01b0384161790555b60008381526004602090815260408083206001600160a01b038616808552908352928190208490555183815285917f621b050de0ad08b51d19b48b3e6df75348c4de6bdd93e81b252ca62e28265b1b9101611be1565b826001600160a01b031661256382610f0a565b6001600160a01b0316146125c55760405162461bcd60e51b8152602060048201526024808201527f455243333532353a207472616e736665722066726f6d20696e76616c6964206f6044820152633bb732b960e11b606482015260840161083e565b6001600160a01b0382166126295760405162461bcd60e51b815260206004820152602560248201527f455243333532353a207472616e7366657220746f20746865207a65726f206164604482015264647265737360d81b606482015260840161083e565b600061263482610ab0565b905060006126418361108e565b905061264e6000846113ed565b61265783611e55565b6126618584611f00565b61266b8484612eab565b82846001600160a01b0316866001600160a01b03167fddf252ad1be2c89b69c2b068fc378daa952ba7f163c4a11628f55a4df523b3ef60405160405180910390a4610c5e565b60006001600160a01b0384163b156127f257604051630a85bd0160e11b81526001600160a01b0385169063150b7a02906126f5903390899088908890600401613b35565b6020604051808303816000875af1925050508015612730575060408051601f3d908101601f1916820190925261272d91810190613b72565b60015b6127d8573d80801561275e576040519150601f19603f3d011682016040523d82523d6000602084013e612763565b606091505b5080516000036127d05760405162461bcd60e51b815260206004820152603260248201527f4552433732313a207472616e7366657220746f206e6f6e20455243373231526560448201527131b2b4bb32b91034b6b83632b6b2b73a32b960711b606482015260840161083e565b805181602001fd5b6001600160e01b031916630a85bd0160e11b149050610a2a565b506001949350505050565b6060600061280c836002613b8f565b612817906002613a02565b67ffffffffffffffff81111561282f5761282f6133cb565b6040519080825280601f01601f191660200182016040528015612859576020820181803683370190505b509050600360fc1b8160008151811061287457612874613787565b60200101906001600160f81b031916908160001a905350600f60fb1b816001815181106128a3576128a3613787565b60200101906001600160f81b031916908160001a90535060006128c7846002613b8f565b6128d2906001613a02565b90505b600181111561294a576f181899199a1a9b1b9c1cb0b131b232b360811b85600f166010811061290657612906613787565b1a60f81b82828151811061291c5761291c613787565b60200101906001600160f81b031916908160001a90535060049490941c9361294381613ba6565b90506128d5565b5083156109c25760405162461bcd60e51b815260206004820181905260248201527f537472696e67733a20686578206c656e67746820696e73756666696369656e74604482015260640161083e565b60006129a583856111db565b90506129b18484611bee565b1580156129c057506000198114155b15610bed5781811015612a155760405162461bcd60e51b815260206004820152601f60248201527f455243333532353a20696e73756666696369656e7420616c6c6f77616e636500604482015260640161083e565b610bed8385612a248585613af3565b612421565b6000610716612276565b612a3c83611cf9565b612a985760405162461bcd60e51b815260206004820152602760248201527f455243333532353a207472616e736665722066726f6d20696e76616c696420746044820152661bdad95b88125160ca1b606482015260840161083e565b612aa182611cf9565b612afb5760405162461bcd60e51b815260206004820152602560248201527f455243333532353a207472616e7366657220746f20696e76616c696420746f6b604482015264195b88125160da1b606482015260840161083e565b600083815260066020526040812054600580549091908110612b1f57612b1f613787565b9060005260206000209060060201905060006005600660008681526020019081526020016000205481548110612b5757612b57613787565b906000526020600020906006020190508282600201541015612bce5760405162461bcd60e51b815260206004820152602a60248201527f455243333532353a20696e73756666696369656e742062616c616e636520666f60448201526939103a3930b739b332b960b11b606482015260840161083e565b8060010154826001015414612c3c5760405162461bcd60e51b815260206004820152602e60248201527f455243333532353a207472616e7366657220746f20746f6b656e20776974682060448201526d191a5999995c995b9d081cdb1bdd60921b606482015260840161083e565b82826002016000828254612c509190613af3565b9250508190555082816002016000828254612c6b9190613a02565b909155505060405183815284908690600080516020613c0e8339815191529060200160405180910390a3612cb085858560405180602001604052806000815250612f34565b610c5e5760405162461bcd60e51b815260206004820152602d60248201527f455243333532353a207472616e736665722072656a656374656420627920455260448201526c21999a991aa932b1b2b4bb32b960991b606482015260840161083e565b6040805160c081018252838152602080820184905260008284018190526001600160a01b038716606084015260808301819052835181815291820190935260a08201529050612d6081613067565b612d6a8484612eab565b60405183906001600160a01b038616906000907fddf252ad1be2c89b69c2b068fc378daa952ba7f163c4a11628f55a4df523b3ef908290a4816000847fe4f48c240d3b994948aa54f3e2f5fca59263dfe1d52b6e4cf39a5d249b5ccb6560405160405180910390a450505050565b600081815260066020526040812054600580548392908110612dfc57612dfc613787565b6000918252602082206005600690920201015491505b81811015612ea057600084815260066020526040902054600580546001600160a01b03881692908110612e4757612e47613787565b90600052602060002090600602016005018281548110612e6957612e69613787565b6000918252602090912001546001600160a01b031603612e8e57600192505050610716565b80612e9881613a15565b915050612e12565b506000949350505050565b600081815260066020526040902054600580548492908110612ecf57612ecf613787565b6000918252602080832060069290920290910160030180546001600160a01b0319166001600160a01b03948516179055939091168152600780845260408083208054858552600182810188529285208190559286529082018155825292902090910155565b600080612f4085610f0a565b90506001600160a01b0381163b15158015612fc457506040516301ffc9a760e01b8152629ce20b60e01b60048201526001600160a01b038216906301ffc9a790602401602060405180830381865afa158015612fa0573d6000803e3d6000fd5b505050506040513d601f19601f82011682018060405250810190612fc49190613bbd565b1561305d57604051629ce20b60e01b81526000906001600160a01b03831690629ce20b90612ffe9033908b908b908b908b90600401613bda565b6020604051808303816000875af115801561301d573d6000803e3d6000fd5b505050506040513d601f19601f820116820180604052508101906130419190613b72565b6001600160e01b031916629ce20b60e01b149250610a2a915050565b6001915050610a2a565b600580548251600090815260066020818152604080842085905560018501865594909252845192027f036b6384b5eca791c62761152d0c79bb0604c104a5fb6f4eb0703f3154bb3db08101928355818501517f036b6384b5eca791c62761152d0c79bb0604c104a5fb6f4eb0703f3154bb3db1820155928401517f036b6384b5eca791c62761152d0c79bb0604c104a5fb6f4eb0703f3154bb3db284015560608401517f036b6384b5eca791c62761152d0c79bb0604c104a5fb6f4eb0703f3154bb3db3840180546001600160a01b039283166001600160a01b03199182161790915560808601517f036b6384b5eca791c62761152d0c79bb0604c104a5fb6f4eb0703f3154bb3db48601805491909316911617905560a084015180518594610bed937f036b6384b5eca791c62761152d0c79bb0604c104a5fb6f4eb0703f3154bb3db59091019201906131d4565b50805460008255906000526020600020908101906113729190613239565b828054828255906000526020600020908101928215613229579160200282015b8281111561322957825182546001600160a01b0319166001600160a01b039091161782556020909201916001909101906131f4565b50613235929150613239565b5090565b5b80821115613235576000815560010161323a565b6001600160e01b03198116811461137257600080fd5b60006020828403121561327657600080fd5b81356109c28161324e565b60005b8381101561329c578181015183820152602001613284565b50506000910152565b600081518084526132bd816020860160208601613281565b601f01601f19169290920160200192915050565b6020815260006109c260208301846132a5565b6000602082840312156132f657600080fd5b5035919050565b80356001600160a01b0381168114610fa157600080fd5b6000806040838503121561332757600080fd5b613330836132fd565b946020939093013593505050565b60008060006060848603121561335357600080fd5b83359250613363602085016132fd565b9150604084013590509250925092565b60008060006060848603121561338857600080fd5b613391846132fd565b9250613363602085016132fd565b6000806000606084860312156133b457600080fd5b505081359360208301359350604090920135919050565b634e487b7160e01b600052604160045260246000fd5b604051601f8201601f1916810167ffffffffffffffff8111828210171561340a5761340a6133cb565b604052919050565b600067ffffffffffffffff82111561342c5761342c6133cb565b50601f01601f191660200190565b600061344d61344884613412565b6133e1565b905082815283838301111561346157600080fd5b828260208301376000602084830101529392505050565b600082601f83011261348957600080fd5b6109c28383356020850161343a565b6000602082840312156134aa57600080fd5b813567ffffffffffffffff8111156134c157600080fd5b610a2a84828501613478565b60008060008060008060c087890312156134e657600080fd5b6134ef876132fd565b95506020870135945060408701359350606087013567ffffffffffffffff8082111561351a57600080fd5b6135268a838b01613478565b9450608089013591508082111561353c57600080fd5b6135488a838b01613478565b935060a089013591508082111561355e57600080fd5b5061356b89828a01613478565b9150509295509295509295565b60006020828403121561358a57600080fd5b6109c2826132fd565b801515811461137257600080fd5b600080604083850312156135b457600080fd5b6135bd836132fd565b915060208301356135cd81613593565b809150509250929050565b600080600080608085870312156135ee57600080fd5b6135f7856132fd565b9350613605602086016132fd565b925060408501359150606085013567ffffffffffffffff81111561362857600080fd5b8501601f8101871361363957600080fd5b6136488782356020840161343a565b91505092959194509250565b6000806040838503121561366757600080fd5b82359150613677602084016132fd565b90509250929050565b6000806040838503121561369357600080fd5b61369c836132fd565b9150613677602084016132fd565b600080600080600060a086880312156136c257600080fd5b6136cb866132fd565b945060208601359350604086013567ffffffffffffffff808211156136ef57600080fd5b6136fb89838a01613478565b9450606088013591508082111561371157600080fd5b61371d89838a01613478565b9350608088013591508082111561373357600080fd5b5061374088828901613478565b9150509295509295909350565b600181811c9082168061376157607f821691505b60208210810361378157634e487b7160e01b600052602260045260246000fd5b50919050565b634e487b7160e01b600052603260045260246000fd5b60208082526022908201527f455243333532353a20617070726f76616c20746f2063757272656e74206f776e60408201526132b960f11b606082015260800190565b600083516137f1818460208801613281565b64736c6f742f60d81b9083019081528351613813816005840160208801613281565b01600501949350505050565b60006020828403121561383157600080fd5b815167ffffffffffffffff81111561384857600080fd5b8201601f8101841361385957600080fd5b805161386761344882613412565b81815285602083850101111561387c57600080fd5b61388d826020830160208601613281565b95945050505050565b60208082526030908201527f4f726465724372656469743a206f6e6c7920656e746972652076616c7565206360408201526f185b881899481d1c985b9cd9995c995960821b606082015260800190565b601f8211156108df57600081815260208120601f850160051c8101602086101561390d5750805b601f850160051c820191505b8181101561179957828155600101613919565b815167ffffffffffffffff811115613946576139466133cb565b61395a81613954845461374d565b846138e6565b602080601f83116001811461398f57600084156139775750858301515b600019600386901b1c1916600185901b178555611799565b600085815260208120601f198616915b828110156139be5788860151825594840194600190910190840161399f565b50858210156139dc5787850151600019600388901b60f8161c191681555b5050505050600190811b01905550565b634e487b7160e01b600052601160045260246000fd5b80820180821115610716576107166139ec565b600060018201613a2757613a276139ec565b5060010190565b60208082526032908201527f455243333532353a207472616e736665722063616c6c6572206973206e6f74206040820152711bdddb995c881b9bdc88185c1c1c9bdd995960721b606082015260800190565b60008351613a92818460208801613281565b835190830190613aa6818360208801613281565b01949350505050565b60008351613ac1818460208801613281565b68636f6e74726163742f60b81b9083019081528351613ae7816009840160208801613281565b01600901949350505050565b81810381811115610716576107166139ec565b828152604060208201526000610a2a60408301846132a5565b634e487b7160e01b600052603160045260246000fd5b6001600160a01b0385811682528416602082015260408101839052608060608201819052600090613b68908301846132a5565b9695505050505050565b600060208284031215613b8457600080fd5b81516109c28161324e565b8082028115828204841417610716576107166139ec565b600081613bb557613bb56139ec565b506000190190565b600060208284031215613bcf57600080fd5b81516109c281613593565b60018060a01b038616815284602082015283604082015282606082015260a06080820152600061139160a08301846132a556fe0b2aac84f3ec956911fd78eae5311062972ff949f38412e8da39069d9f068cc6a26469706673582212206e5b28c21913e74d5360f5260dcf904fe369fba415acf7b795ecfebabdf5dd5064736f6c6343000811003360806040523480156200001157600080fd5b5060405162001ada38038062001ada833981016040819052620000349162000150565b600162000042858262000292565b50600262000051848262000292565b50600362000060838262000292565b50600080546001600160a01b0319166001600160a01b0392909216919091179055506200035e915050565b634e487b7160e01b600052604160045260246000fd5b600082601f830112620000b357600080fd5b81516001600160401b0380821115620000d057620000d06200008b565b604051601f8301601f19908116603f01168101908282118183101715620000fb57620000fb6200008b565b816040528381526020925086838588010111156200011857600080fd5b600091505b838210156200013c57858201830151818301840152908201906200011d565b600093810190920192909252949350505050565b600080600080608085870312156200016757600080fd5b84516001600160401b03808211156200017f57600080fd5b6200018d88838901620000a1565b95506020870151915080821115620001a457600080fd5b620001b288838901620000a1565b94506040870151915080821115620001c957600080fd5b50620001d887828801620000a1565b606087015190935090506001600160a01b0381168114620001f857600080fd5b939692955090935050565b600181811c908216806200021857607f821691505b6020821081036200023957634e487b7160e01b600052602260045260246000fd5b50919050565b601f8211156200028d57600081815260208120601f850160051c81016020861015620002685750805b601f850160051c820191505b81811015620002895782815560010162000274565b5050505b505050565b81516001600160401b03811115620002ae57620002ae6200008b565b620002c681620002bf845462000203565b846200023f565b602080601f831160018114620002fe5760008415620002e55750858301515b600019600386901b1c1916600185901b17855562000289565b600085815260208120601f198616915b828110156200032f578886015182559484019460019091019084016200030e565b50858210156200034e5787850151600019600388901b60f8161c191681555b5050505050600190811b01905550565b61176c806200036e6000396000f3fe608060405234801561001057600080fd5b506004361061009e5760003560e01c806371f0442e1161006657806371f0442e1461011a578063725fa09c1461012d578063842251d414610135578063894b4c2e14610148578063b3154c081461015b57600080fd5b80631375d843146100a3578063246a908b146100cc57806355f804b3146100e157806364140ec0146100f45780636c037f8a14610107575b600080fd5b6100b66100b1366004610d22565b61016e565b6040516100c39190610d5f565b60405180910390f35b6100df6100da366004610e57565b610210565b005b6100df6100ef366004610e9e565b61022d565b6100df610102366004610e57565b61023d565b6100b6610115366004610d22565b610255565b6100b6610128366004610d22565b6102cb565b6100b66102e8565b6100df610143366004610e57565b61040d565b6100b6610156366004610d22565b610425565b6100b6610169366004610d22565b61052f565b600081815260066020526040902080546060919061018b90610edb565b80601f01602080910402602001604051908101604052809291908181526020018280546101b790610edb565b80156102045780601f106101d957610100808354040283529160200191610204565b820191906000526020600020905b8154815290600101906020018083116101e757829003601f168201915b50505050509050919050565b60008281526004602052604090206102288282610f63565b505050565b60016102398282610f63565b5050565b60008281526005602052604090206102288282610f63565b60606102a56102638361054c565b61026c846105c5565b610275856105f7565b61027e86610679565b604051602001610291949392919061103f565b6040516020818303038152906040526106fb565b6040516020016102b5919061110d565b6040516020818303038152906040529050919050565b600081815260056020526040902080546060919061018b90610edb565b606060003390506103e8816001600160a01b03166306fdde036040518163ffffffff1660e01b8152600401600060405180830381865afa158015610330573d6000803e3d6000fd5b505050506040513d6000823e601f3d908101601f191682016040526103589190810190611152565b61036061084e565b6103686108e0565b6103d5856001600160a01b0316633e7e86696040518163ffffffff1660e01b8152600401602060405180830381865afa1580156103a9573d6000803e3d6000fd5b505050506040513d601f19601f820116820180604052508101906103cd91906111c9565b60ff16610915565b60405160200161029194939291906111ec565b6040516020016103f8919061110d565b60405160208183030381529060405291505090565b60008281526006602052604090206102288282610f63565b606033610508610434846109a8565b61043d8561052f565b61044686610a2a565b604051631398fee160e31b8152600481018890526104b9906001600160a01b03871690639cc7f708906024015b602060405180830381865afa158015610490573d6000803e3d6000fd5b505050506040513d601f19601f820116820180604052508101906104b491906112bf565b610915565b60405163131f9f3f60e11b8152600481018990526104ea906001600160a01b0388169063263f3e7e90602401610473565b6104f389610a5f565b604051602001610291969594939291906112d8565b604051602001610518919061110d565b604051602081830303815290604052915050919050565b600081815260046020526040902080546060919061018b90610edb565b60005460405163ec327a2160e01b8152600481018390526060916001600160a01b03169063ec327a21906024015b600060405180830381865afa158015610597573d6000803e3d6000fd5b505050506040513d6000823e601f3d908101601f191682016040526105bf9190810190611152565b92915050565b60005460405163bc74ebb960e01b8152600481018390526060916001600160a01b03169063bc74ebb99060240161057a565b6000546040516309c3dd8760e01b8152600481018390526060916001600160a01b0316906309c3dd8790602401600060405180830381865afa158015610641573d6000803e3d6000fd5b505050506040513d6000823e601f3d908101601f191682016040526106699190810190611152565b6040516020016102b591906113fe565b6000546040516309c3dd8760e01b8152600481018390526060916001600160a01b0316906309c3dd8790602401600060405180830381865afa1580156106c3573d6000803e3d6000fd5b505050506040513d6000823e601f3d908101601f191682016040526106eb9190810190611152565b6040516020016102b59190611428565b6060815160000361071a57505060408051602081019091526000815290565b60006040518060600160405280604081526020016116f760409139905060006003845160026107499190611472565b6107539190611485565b61075e9060046114a7565b67ffffffffffffffff81111561077657610776610d92565b6040519080825280601f01601f1916602001820160405280156107a0576020820181803683370190505b509050600182016020820185865187015b8082101561080c576003820191508151603f8160121c168501518453600184019350603f81600c1c168501518453600184019350603f8160061c168501518453600184019350603f81168501518453506001830192506107b1565b5050600386510660018114610828576002811461083b57610843565b603d6001830353603d6002830353610843565b603d60018303535b509195945050505050565b60606002805461085d90610edb565b80601f016020809104026020016040519081016040528092919081815260200182805461088990610edb565b80156108d65780601f106108ab576101008083540402835291602001916108d6565b820191906000526020600020905b8154815290600101906020018083116108b957829003601f168201915b5050505050905090565b606060016108ed33610a8d565b600360405160200161090193929190611531565b604051602081830303815290604052905090565b6060600061092283610aa3565b600101905060008167ffffffffffffffff81111561094257610942610d92565b6040519080825280601f01601f19166020018201604052801561096c576020820181803683370190505b5090508181016020015b600019016f181899199a1a9b1b9c1cb0b131b232b360811b600a86061a8153600a850494508461097657509392505050565b6060336001600160a01b03166306fdde036040518163ffffffff1660e01b8152600401600060405180830381865afa1580156109e8573d6000803e3d6000fd5b505050506040513d6000823e601f3d908101601f19168201604052610a109190810190611152565b610a1983610915565b6040516020016102b5929190611585565b60606001610a3730610a8d565b6000848152600660209081526040808320600583529281902090516102b595949392016115c2565b60606001610a6c33610a8d565b60008481526006602090815260409182902091516102b59493929101611634565b60606105bf6001600160a01b0383166014610b7b565b60008072184f03e93ff9f4daa797ed6e38ed64bf6a1f0160401b8310610ae25772184f03e93ff9f4daa797ed6e38ed64bf6a1f0160401b830492506040015b6d04ee2d6d415b85acef81000000008310610b0e576d04ee2d6d415b85acef8100000000830492506020015b662386f26fc100008310610b2c57662386f26fc10000830492506010015b6305f5e1008310610b44576305f5e100830492506008015b6127108310610b5857612710830492506004015b60648310610b6a576064830492506002015b600a83106105bf5760010192915050565b60606000610b8a8360026114a7565b610b95906002611472565b67ffffffffffffffff811115610bad57610bad610d92565b6040519080825280601f01601f191660200182016040528015610bd7576020820181803683370190505b509050600360fc1b81600081518110610bf257610bf26116c9565b60200101906001600160f81b031916908160001a905350600f60fb1b81600181518110610c2157610c216116c9565b60200101906001600160f81b031916908160001a9053506000610c458460026114a7565b610c50906001611472565b90505b6001811115610cc8576f181899199a1a9b1b9c1cb0b131b232b360811b85600f1660108110610c8457610c846116c9565b1a60f81b828281518110610c9a57610c9a6116c9565b60200101906001600160f81b031916908160001a90535060049490941c93610cc1816116df565b9050610c53565b508315610d1b5760405162461bcd60e51b815260206004820181905260248201527f537472696e67733a20686578206c656e67746820696e73756666696369656e74604482015260640160405180910390fd5b9392505050565b600060208284031215610d3457600080fd5b5035919050565b60005b83811015610d56578181015183820152602001610d3e565b50506000910152565b6020815260008251806020840152610d7e816040850160208701610d3b565b601f01601f19169190910160400192915050565b634e487b7160e01b600052604160045260246000fd5b604051601f8201601f1916810167ffffffffffffffff81118282101715610dd157610dd1610d92565b604052919050565b600067ffffffffffffffff821115610df357610df3610d92565b50601f01601f191660200190565b600082601f830112610e1257600080fd5b8135610e25610e2082610dd9565b610da8565b818152846020838601011115610e3a57600080fd5b816020850160208301376000918101602001919091529392505050565b60008060408385031215610e6a57600080fd5b82359150602083013567ffffffffffffffff811115610e8857600080fd5b610e9485828601610e01565b9150509250929050565b600060208284031215610eb057600080fd5b813567ffffffffffffffff811115610ec757600080fd5b610ed384828501610e01565b949350505050565b600181811c90821680610eef57607f821691505b602082108103610f0f57634e487b7160e01b600052602260045260246000fd5b50919050565b601f82111561022857600081815260208120601f850160051c81016020861015610f3c5750805b601f850160051c820191505b81811015610f5b57828155600101610f48565b505050505050565b815167ffffffffffffffff811115610f7d57610f7d610d92565b610f9181610f8b8454610edb565b84610f15565b602080601f831160018114610fc65760008415610fae5750858301515b600019600386901b1c1916600185901b178555610f5b565b600085815260208120601f198616915b82811015610ff557888601518255948401946001909101908401610fd6565b50858210156110135787850151600019600388901b60f8161c191681555b5050505050600190811b01905550565b60008151611035818560208601610d3b565b9290920192915050565b683d913730b6b2911d1160b91b81528451600090611064816009850160208a01610d3b565b701116113232b9b1b934b83a34b7b7111d1160791b600991840191820152855161109581601a840160208a01610d3b565b6a11161134b6b0b3b2911d1160a91b601a929091019182015284516110c1816025840160208901610d3b565b6e111611383937b832b93a34b2b9911d60891b6025929091019182015283516110f1816034840160208801610d3b565b607d60f81b603492909101918201526035019695505050505050565b7f646174613a6170706c69636174696f6e2f6a736f6e3b6261736536342c00000081526000825161114581601d850160208701610d3b565b91909101601d0192915050565b60006020828403121561116457600080fd5b815167ffffffffffffffff81111561117b57600080fd5b8201601f8101841361118c57600080fd5b805161119a610e2082610dd9565b8181528560208385010111156111af57600080fd5b6111c0826020830160208601610d3b565b95945050505050565b6000602082840312156111db57600080fd5b815160ff81168114610d1b57600080fd5b683d913730b6b2911d1160b91b81528451600090611211816009850160208a01610d3b565b701116113232b9b1b934b83a34b7b7111d1160791b600991840191820152855161124281601a840160208a01610d3b565b6a11161134b6b0b3b2911d1160a91b601a9290910191820152845161126e816025840160208901610d3b565b721116113b30b63ab2a232b1b4b6b0b639911d1160691b6025929091019182015283516112a2816038840160208801610d3b565b61227d60f01b60389290910191820152603a019695505050505050565b6000602082840312156112d157600080fd5b5051919050565b683d913730b6b2911d1160b91b815286516000906112fd816009850160208c01610d3b565b701116113232b9b1b934b83a34b7b7111d1160791b600991840191820152875161132e81601a840160208c01610d3b565b6a11161134b6b0b3b2911d1160a91b601a9290910191820152865161135a816025840160208b01610d3b565b6c1116113130b630b731b2911d1160991b602592909101918201528551611388816032840160208a01610d3b565b6911161139b637ba111d1160b11b6032929091019182015284516113b381603c840160208901610d3b565b6113f06113e36113dd603c848601016e111611383937b832b93a34b2b9911d60891b8152600f0190565b87611023565b607d60f81b815260010190565b9a9950505050505050505050565b60008251611410818460208701610d3b565b652f696d61676560d01b920191825250600601919050565b6000825161143a818460208701610d3b565b6f17b83937b832b93a34b2b9973539b7b760811b920191825250601001919050565b634e487b7160e01b600052601160045260246000fd5b808201808211156105bf576105bf61145c565b6000826114a257634e487b7160e01b600052601260045260246000fd5b500490565b80820281158282048414176105bf576105bf61145c565b600081546114cb81610edb565b600182811680156114e357600181146114f857611527565b60ff1984168752821515830287019450611527565b8560005260208060002060005b8581101561151e5781548a820152908401908201611505565b50505082870194505b5050505092915050565b600061153d82866114be565b68636f6e74726163742f60b81b8152845161155f816009840160208901610d3b565b602f60f81b6009929091019182015261157b600a8201856114be565b9695505050505050565b60008351611597818460208801610d3b565b61202360f01b90830190815283516115b6816002840160208801610d3b565b01600201949350505050565b60006115ce82876114be565b692f636f6e74726163742f60b01b815285516115f181600a840160208a01610d3b565b662f746f6b656e2f60c81b600a929091019182015261161360118201866114be565b9050602f60f81b815261162960018201856114be565b979650505050505050565b6e7b70726f706572746965735f75726960881b81526000611658600f8301866114be565b68636f6e74726163742f60b81b8152845161167a816009840160208901610d3b565b662f746f6b656e2f60c81b6009929091019182015261169c60108201856114be565b6f17b83937b832b93a34b2b9973539b7b760811b8152607d60f81b60108201526011019695505050505050565b634e487b7160e01b600052603260045260246000fd5b6000816116ee576116ee61145c565b50600019019056fe4142434445464748494a4b4c4d4e4f505152535455565758595a6162636465666768696a6b6c6d6e6f707172737475767778797a303132333435363738392b2fa2646970667358221220ff9209fa763cebe143e190fa2f1ad1e413f9b97c45e4f09a1f7a97ba3d94292564736f6c63430008110033",
  "linkReferences": {},
  "deployedLinkReferences": {}
}