{
  "_format": "hh-sol-artifact-1",
  "contractName": "OrderCredit",
  "sourceName": "contracts/OrderCredit.sol",
  "abi": [
    {
      "inputs": [
        {
          "internalType": "address",
          "name": "revenueAddress_",
          "type": "address"
        },
        {
          "internalType": "address",
          "name": "adminAddress_",
          "type": "address"
        },
        {
          "internalType": "address",
          "name": "slotRegistry_",
          "type": "address"
        },
        {
          "internalType": "address",
          "name": "poolContract_",
          "type": "address"
        },
        {
          "internalType": "address",
          "name": "underlyingContract_",
          "type": "address"
        },
        {
          "internalType": "address",
          "name": "mktAdmin_",
          "type": "address"
        },
        {
          "internalType": "uint256",
          "name": "defaultSlot_",
          "type": "uint256"
        },
        {
          "internalType": "string",
          "name": "name_",
          "type": "string"
        },
        {
          "internalType": "string",
          "name": "symbol_",
          "type": "string"
        },
        {
          "internalType": "string",
          "name": "baseUri_",
          "type": "string"
        },
        {
          "internalType": "string",
          "name": "contractDescription_",
          "type": "string"
        },
        {
          "internalType": "string",
          "name": "contractImage_",
          "type": "string"
        },
        {
          "internalType": "uint8",
          "name": "decimals_",
          "type": "uint8"
        }
      ],
      "stateMutability": "nonpayable",
      "type": "constructor"
    },
    {
      "anonymous": false,
      "inputs": [
        {
          "indexed": true,
          "internalType": "address",
          "name": "_owner",
          "type": "address"
        },
        {
          "indexed": true,
          "internalType": "address",
          "name": "_approved",
          "type": "address"
        },
        {
          "indexed": true,
          "internalType": "uint256",
          "name": "_tokenId",
          "type": "uint256"
        }
      ],
      "name": "Approval",
      "type": "event"
    },
    {
      "anonymous": false,
      "inputs": [
        {
          "indexed": true,
          "internalType": "address",
          "name": "_owner",
          "type": "address"
        },
        {
          "indexed": true,
          "internalType": "address",
          "name": "_operator",
          "type": "address"
        },
        {
          "indexed": false,
          "internalType": "bool",
          "name": "_approved",
          "type": "bool"
        }
      ],
      "name": "ApprovalForAll",
      "type": "event"
    },
    {
      "anonymous": false,
      "inputs": [
        {
          "indexed": true,
          "internalType": "uint256",
          "name": "_tokenId",
          "type": "uint256"
        },
        {
          "indexed": true,
          "internalType": "address",
          "name": "_operator",
          "type": "address"
        },
        {
          "indexed": false,
          "internalType": "uint256",
          "name": "_value",
          "type": "uint256"
        }
      ],
      "name": "ApprovalValue",
      "type": "event"
    },
    {
      "anonymous": false,
      "inputs": [
        {
          "indexed": false,
          "internalType": "uint256",
          "name": "offeringId",
          "type": "uint256"
        },
        {
          "indexed": false,
          "internalType": "uint256",
          "name": "value",
          "type": "uint256"
        }
      ],
      "name": "ListOffer",
      "type": "event"
    },
    {
      "anonymous": false,
      "inputs": [
        {
          "indexed": false,
          "internalType": "address",
          "name": "contractAddress",
          "type": "address"
        }
      ],
      "name": "MetadataDescriptor",
      "type": "event"
    },
    {
      "anonymous": false,
      "inputs": [
        {
          "indexed": false,
          "internalType": "uint256",
          "name": "tokenId",
          "type": "uint256"
        },
        {
          "indexed": false,
          "internalType": "uint256",
          "name": "slot",
          "type": "uint256"
        },
        {
          "indexed": false,
          "internalType": "uint256",
          "name": "value",
          "type": "uint256"
        }
      ],
      "name": "MintAssetToken",
      "type": "event"
    },
    {
      "anonymous": false,
      "inputs": [
        {
          "indexed": false,
          "internalType": "uint256",
          "name": "tokenId",
          "type": "uint256"
        },
        {
          "indexed": false,
          "internalType": "uint256",
          "name": "slot",
          "type": "uint256"
        },
        {
          "indexed": false,
          "internalType": "uint256",
          "name": "value",
          "type": "uint256"
        }
      ],
      "name": "MintServiceToken",
      "type": "event"
    },
    {
      "anonymous": false,
      "inputs": [
        {
          "indexed": false,
          "internalType": "uint256",
          "name": "newTokenId",
          "type": "uint256"
        },
        {
          "indexed": false,
          "internalType": "uint256",
          "name": "slot",
          "type": "uint256"
        },
        {
          "indexed": false,
          "internalType": "uint256",
          "name": "value",
          "type": "uint256"
        }
      ],
      "name": "MintServiceTokenToAddress",
      "type": "event"
    },
    {
      "anonymous": false,
      "inputs": [
        {
          "indexed": true,
          "internalType": "bytes32",
          "name": "role",
          "type": "bytes32"
        },
        {
          "indexed": true,
          "internalType": "bytes32",
          "name": "previousAdminRole",
          "type": "bytes32"
        },
        {
          "indexed": true,
          "internalType": "bytes32",
          "name": "newAdminRole",
          "type": "bytes32"
        }
      ],
      "name": "RoleAdminChanged",
      "type": "event"
    },
    {
      "anonymous": false,
      "inputs": [
        {
          "indexed": true,
          "internalType": "bytes32",
          "name": "role",
          "type": "bytes32"
        },
        {
          "indexed": true,
          "internalType": "address",
          "name": "account",
          "type": "address"
        },
        {
          "indexed": true,
          "internalType": "address",
          "name": "sender",
          "type": "address"
        }
      ],
      "name": "RoleGranted",
      "type": "event"
    },
    {
      "anonymous": false,
      "inputs": [
        {
          "indexed": true,
          "internalType": "bytes32",
          "name": "role",
          "type": "bytes32"
        },
        {
          "indexed": true,
          "internalType": "address",
          "name": "account",
          "type": "address"
        },
        {
          "indexed": true,
          "internalType": "address",
          "name": "sender",
          "type": "address"
        }
      ],
      "name": "RoleRevoked",
      "type": "event"
    },
    {
      "anonymous": false,
      "inputs": [
        {
          "indexed": true,
          "internalType": "address",
          "name": "metadataDescriptor",
          "type": "address"
        }
      ],
      "name": "SetMetadataDescriptor",
      "type": "event"
    },
    {
      "anonymous": false,
      "inputs": [
        {
          "indexed": true,
          "internalType": "uint256",
          "name": "_tokenId",
          "type": "uint256"
        },
        {
          "indexed": true,
          "internalType": "uint256",
          "name": "_oldSlot",
          "type": "uint256"
        },
        {
          "indexed": true,
          "internalType": "uint256",
          "name": "_newSlot",
          "type": "uint256"
        }
      ],
      "name": "SlotChanged",
      "type": "event"
    },
    {
      "anonymous": false,
      "inputs": [
        {
          "indexed": true,
          "internalType": "address",
          "name": "_from",
          "type": "address"
        },
        {
          "indexed": true,
          "internalType": "address",
          "name": "_to",
          "type": "address"
        },
        {
          "indexed": true,
          "internalType": "uint256",
          "name": "_tokenId",
          "type": "uint256"
        }
      ],
      "name": "Transfer",
      "type": "event"
    },
    {
      "anonymous": false,
      "inputs": [
        {
          "indexed": true,
          "internalType": "uint256",
          "name": "_fromTokenId",
          "type": "uint256"
        },
        {
          "indexed": true,
          "internalType": "uint256",
          "name": "_toTokenId",
          "type": "uint256"
        },
        {
          "indexed": false,
          "internalType": "uint256",
          "name": "_value",
          "type": "uint256"
        }
      ],
      "name": "TransferValue",
      "type": "event"
    },
    {
      "anonymous": false,
      "inputs": [
        {
          "indexed": false,
          "internalType": "uint256",
          "name": "fromTokenId",
          "type": "uint256"
        },
        {
          "indexed": false,
          "internalType": "uint256",
          "name": "toTokenId",
          "type": "uint256"
        },
        {
          "indexed": false,
          "internalType": "uint256",
          "name": "value",
          "type": "uint256"
        }
      ],
      "name": "ValueTransfer",
      "type": "event"
    },
    {
      "inputs": [],
      "name": "DEFAULT_ADMIN_ROLE",
      "outputs": [
        {
          "internalType": "bytes32",
          "name": "",
          "type": "bytes32"
        }
      ],
      "stateMutability": "view",
      "type": "function"
    },
    {
      "inputs": [],
      "name": "MKT_ARBITRATOR_ROLE",
      "outputs": [
        {
          "internalType": "bytes32",
          "name": "",
          "type": "bytes32"
        }
      ],
      "stateMutability": "view",
      "type": "function"
    },
    {
      "inputs": [],
      "name": "SERVICE_ADMIN_ROLE",
      "outputs": [
        {
          "internalType": "bytes32",
          "name": "",
          "type": "bytes32"
        }
      ],
      "stateMutability": "view",
      "type": "function"
    },
    {
      "inputs": [
        {
          "internalType": "string",
          "name": "uri_",
          "type": "string"
        }
      ],
      "name": "_setBaseURI",
      "outputs": [],
      "stateMutability": "nonpayable",
      "type": "function"
    },
    {
      "inputs": [
        {
          "internalType": "uint256",
          "name": "tokenId_",
          "type": "uint256"
        },
        {
          "internalType": "address",
          "name": "operator_",
          "type": "address"
        }
      ],
      "name": "allowance",
      "outputs": [
        {
          "internalType": "uint256",
          "name": "",
          "type": "uint256"
        }
      ],
      "stateMutability": "view",
      "type": "function"
    },
    {
      "inputs": [
        {
          "internalType": "address",
          "name": "to_",
          "type": "address"
        },
        {
          "internalType": "uint256",
          "name": "tokenId_",
          "type": "uint256"
        }
      ],
      "name": "approve",
      "outputs": [],
      "stateMutability": "payable",
      "type": "function"
    },
    {
      "inputs": [
        {
          "internalType": "uint256",
          "name": "tokenId_",
          "type": "uint256"
        },
        {
          "internalType": "address",
          "name": "to_",
          "type": "address"
        },
        {
          "internalType": "uint256",
          "name": "value_",
          "type": "uint256"
        }
      ],
      "name": "approve",
      "outputs": [],
      "stateMutability": "payable",
      "type": "function"
    },
    {
      "inputs": [
        {
          "internalType": "address",
          "name": "owner_",
          "type": "address"
        }
      ],
      "name": "balanceOf",
      "outputs": [
        {
          "internalType": "uint256",
          "name": "balance",
          "type": "uint256"
        }
      ],
      "stateMutability": "view",
      "type": "function"
    },
    {
      "inputs": [
        {
          "internalType": "uint256",
          "name": "tokenId_",
          "type": "uint256"
        }
      ],
      "name": "balanceOf",
      "outputs": [
        {
          "internalType": "uint256",
          "name": "",
          "type": "uint256"
        }
      ],
      "stateMutability": "view",
      "type": "function"
    },
    {
      "inputs": [],
      "name": "contractAdmin",
      "outputs": [
        {
          "internalType": "address",
          "name": "",
          "type": "address"
        }
      ],
      "stateMutability": "view",
      "type": "function"
    },
    {
      "inputs": [],
      "name": "contractURI",
      "outputs": [
        {
          "internalType": "string",
          "name": "",
          "type": "string"
        }
      ],
      "stateMutability": "view",
      "type": "function"
    },
    {
      "inputs": [],
      "name": "creditType",
      "outputs": [
        {
          "internalType": "string",
          "name": "",
          "type": "string"
        }
      ],
      "stateMutability": "view",
      "type": "function"
    },
    {
      "inputs": [],
      "name": "defaultSlot",
      "outputs": [
        {
          "internalType": "uint256",
          "name": "",
          "type": "uint256"
        }
      ],
      "stateMutability": "view",
      "type": "function"
    },
    {
      "inputs": [
        {
          "internalType": "uint256",
          "name": "index",
          "type": "uint256"
        }
      ],
      "name": "dequeue",
      "outputs": [],
      "stateMutability": "nonpayable",
      "type": "function"
    },
    {
      "inputs": [
        {
          "internalType": "address",
          "name": "owner_",
          "type": "address"
        },
        {
          "internalType": "uint256",
          "name": "slot_",
          "type": "uint256"
        },
        {
          "internalType": "string",
          "name": "uuid_",
          "type": "string"
        },
        {
          "internalType": "string",
          "name": "tokenDescription_",
          "type": "string"
        },
        {
          "internalType": "string",
          "name": "tokenImage_",
          "type": "string"
        },
        {
          "internalType": "string",
          "name": "property_",
          "type": "string"
        }
      ],
      "name": "enqueue",
      "outputs": [
        {
          "internalType": "uint256",
          "name": "",
          "type": "uint256"
        }
      ],
      "stateMutability": "nonpayable",
      "type": "function"
    },
    {
      "inputs": [
        {
          "internalType": "uint256",
          "name": "tokenId_",
          "type": "uint256"
        }
      ],
      "name": "getApproved",
      "outputs": [
        {
          "internalType": "address",
          "name": "",
          "type": "address"
        }
      ],
      "stateMutability": "view",
      "type": "function"
    },
    {
      "inputs": [
        {
          "internalType": "bytes32",
          "name": "role",
          "type": "bytes32"
        }
      ],
      "name": "getRoleAdmin",
      "outputs": [
        {
          "internalType": "bytes32",
          "name": "",
          "type": "bytes32"
        }
      ],
      "stateMutability": "view",
      "type": "function"
    },
    {
      "inputs": [
        {
          "internalType": "uint256",
          "name": "tokenId",
          "type": "uint256"
        }
      ],
      "name": "getTokenDescription",
      "outputs": [
        {
          "internalType": "string",
          "name": "",
          "type": "string"
        }
      ],
      "stateMutability": "view",
      "type": "function"
    },
    {
      "inputs": [
        {
          "internalType": "uint256",
          "name": "tokenId",
          "type": "uint256"
        }
      ],
      "name": "getTokenImage",
      "outputs": [
        {
          "internalType": "string",
          "name": "",
          "type": "string"
        }
      ],
      "stateMutability": "view",
      "type": "function"
    },
    {
      "inputs": [
        {
          "internalType": "uint256",
          "name": "tokenId",
          "type": "uint256"
        }
      ],
      "name": "getTokenUUID",
      "outputs": [
        {
          "internalType": "string",
          "name": "",
          "type": "string"
        }
      ],
      "stateMutability": "view",
      "type": "function"
    },
    {
      "inputs": [
        {
          "internalType": "bytes32",
          "name": "role",
          "type": "bytes32"
        },
        {
          "internalType": "address",
          "name": "account",
          "type": "address"
        }
      ],
      "name": "grantRole",
      "outputs": [],
      "stateMutability": "nonpayable",
      "type": "function"
    },
    {
      "inputs": [
        {
          "internalType": "bytes32",
          "name": "role",
          "type": "bytes32"
        },
        {
          "internalType": "address",
          "name": "account",
          "type": "address"
        }
      ],
      "name": "hasRole",
      "outputs": [
        {
          "internalType": "bool",
          "name": "",
          "type": "bool"
        }
      ],
      "stateMutability": "view",
      "type": "function"
    },
    {
      "inputs": [
        {
          "internalType": "address",
          "name": "owner_",
          "type": "address"
        },
        {
          "internalType": "address",
          "name": "operator_",
          "type": "address"
        }
      ],
      "name": "isApprovedForAll",
      "outputs": [
        {
          "internalType": "bool",
          "name": "",
          "type": "bool"
        }
      ],
      "stateMutability": "view",
      "type": "function"
    },
    {
      "inputs": [
        {
          "internalType": "uint256",
          "name": "expiration_",
          "type": "uint256"
        },
        {
          "internalType": "uint256",
          "name": "tokenId_",
          "type": "uint256"
        },
        {
          "internalType": "uint256",
          "name": "price_",
          "type": "uint256"
        },
        {
          "internalType": "string",
          "name": "assetId_",
          "type": "string"
        },
        {
          "internalType": "string",
          "name": "side_",
          "type": "string"
        }
      ],
      "name": "listOffer",
      "outputs": [],
      "stateMutability": "nonpayable",
      "type": "function"
    },
    {
      "inputs": [],
      "name": "metadataDescriptor",
      "outputs": [
        {
          "internalType": "contract IERC3525MetadataDescriptor",
          "name": "",
          "type": "address"
        }
      ],
      "stateMutability": "view",
      "type": "function"
    },
    {
      "inputs": [
        {
          "internalType": "address",
          "name": "owner_",
          "type": "address"
        },
        {
          "internalType": "uint256",
          "name": "slot_",
          "type": "uint256"
        },
        {
          "internalType": "uint256",
          "name": "value_",
          "type": "uint256"
        },
        {
          "internalType": "string",
          "name": "uuid_",
          "type": "string"
        },
        {
          "internalType": "string",
          "name": "tokenDescription_",
          "type": "string"
        },
        {
          "internalType": "string",
          "name": "tokenImage_",
          "type": "string"
        },
        {
          "internalType": "string",
          "name": "property_",
          "type": "string"
        }
      ],
      "name": "mint",
      "outputs": [
        {
          "internalType": "uint256",
          "name": "",
          "type": "uint256"
        }
      ],
      "stateMutability": "nonpayable",
      "type": "function"
    },
    {
      "inputs": [
        {
          "internalType": "address",
          "name": "owner_",
          "type": "address"
        },
        {
          "internalType": "uint256",
          "name": "expiration_",
          "type": "uint256"
        },
        {
          "internalType": "uint256",
          "name": "tokenId_",
          "type": "uint256"
        },
        {
          "internalType": "uint256",
          "name": "price_",
          "type": "uint256"
        },
        {
          "internalType": "string",
          "name": "assetId_",
          "type": "string"
        },
        {
          "internalType": "string",
          "name": "side_",
          "type": "string"
        }
      ],
      "name": "mktListOffer",
      "outputs": [],
      "stateMutability": "nonpayable",
      "type": "function"
    },
    {
      "inputs": [],
      "name": "name",
      "outputs": [
        {
          "internalType": "string",
          "name": "",
          "type": "string"
        }
      ],
      "stateMutability": "view",
      "type": "function"
    },
    {
      "inputs": [
        {
          "internalType": "address",
          "name": "owner_",
          "type": "address"
        },
        {
          "internalType": "uint256",
          "name": "slot_",
          "type": "uint256"
        },
        {
          "internalType": "uint256",
          "name": "value_",
          "type": "uint256"
        },
        {
          "internalType": "uint256",
          "name": "discountBasisPts_",
          "type": "uint256"
        },
        {
          "internalType": "string",
          "name": "uuid_",
          "type": "string"
        },
        {
          "internalType": "string",
          "name": "tokenDescription_",
          "type": "string"
        },
        {
          "internalType": "string",
          "name": "tokenImage_",
          "type": "string"
        },
        {
          "internalType": "string",
          "name": "property_",
          "type": "string"
        }
      ],
      "name": "networkMintWithDiscount",
      "outputs": [
        {
          "internalType": "uint256",
          "name": "",
          "type": "uint256"
        }
      ],
      "stateMutability": "nonpayable",
      "type": "function"
    },
    {
      "inputs": [
        {
          "internalType": "address",
          "name": "owner_",
          "type": "address"
        },
        {
          "internalType": "uint256",
          "name": "slot_",
          "type": "uint256"
        },
        {
          "internalType": "uint256",
          "name": "value_",
          "type": "uint256"
        },
        {
          "internalType": "uint256",
          "name": "valueRate_",
          "type": "uint256"
        },
        {
          "internalType": "string",
          "name": "uuid_",
          "type": "string"
        },
        {
          "internalType": "string",
          "name": "tokenDescription_",
          "type": "string"
        },
        {
          "internalType": "string",
          "name": "tokenImage_",
          "type": "string"
        },
        {
          "internalType": "string",
          "name": "property_",
          "type": "string"
        }
      ],
      "name": "networkMintWithValueRate",
      "outputs": [
        {
          "internalType": "uint256",
          "name": "",
          "type": "uint256"
        }
      ],
      "stateMutability": "nonpayable",
      "type": "function"
    },
    {
      "inputs": [
        {
          "internalType": "uint256",
          "name": "tokenId_",
          "type": "uint256"
        }
      ],
      "name": "ownerOf",
      "outputs": [
        {
          "internalType": "address",
          "name": "owner_",
          "type": "address"
        }
      ],
      "stateMutability": "view",
      "type": "function"
    },
    {
      "inputs": [
        {
          "internalType": "uint256",
          "name": "slotId_",
          "type": "uint256"
        }
      ],
      "name": "registerOnSlot",
      "outputs": [],
      "stateMutability": "nonpayable",
      "type": "function"
    },
    {
      "inputs": [
        {
          "internalType": "bytes32",
          "name": "role",
          "type": "bytes32"
        },
        {
          "internalType": "address",
          "name": "account",
          "type": "address"
        }
      ],
      "name": "renounceRole",
      "outputs": [],
      "stateMutability": "nonpayable",
      "type": "function"
    },
    {
      "inputs": [
        {
          "internalType": "bytes32",
          "name": "role",
          "type": "bytes32"
        },
        {
          "internalType": "address",
          "name": "account",
          "type": "address"
        }
      ],
      "name": "revokeRole",
      "outputs": [],
      "stateMutability": "nonpayable",
      "type": "function"
    },
    {
      "inputs": [
        {
          "internalType": "address",
          "name": "from_",
          "type": "address"
        },
        {
          "internalType": "address",
          "name": "to_",
          "type": "address"
        },
        {
          "internalType": "uint256",
          "name": "tokenId_",
          "type": "uint256"
        }
      ],
      "name": "safeTransferFrom",
      "outputs": [],
      "stateMutability": "payable",
      "type": "function"
    },
    {
      "inputs": [
        {
          "internalType": "address",
          "name": "from_",
          "type": "address"
        },
        {
          "internalType": "address",
          "name": "to_",
          "type": "address"
        },
        {
          "internalType": "uint256",
          "name": "tokenId_",
          "type": "uint256"
        },
        {
          "internalType": "bytes",
          "name": "data_",
          "type": "bytes"
        }
      ],
      "name": "safeTransferFrom",
      "outputs": [],
      "stateMutability": "payable",
      "type": "function"
    },
    {
      "inputs": [
        {
          "internalType": "address",
          "name": "operator_",
          "type": "address"
        },
        {
          "internalType": "bool",
          "name": "approved_",
          "type": "bool"
        }
      ],
      "name": "setApprovalForAll",
      "outputs": [],
      "stateMutability": "nonpayable",
      "type": "function"
    },
    {
      "inputs": [
        {
          "internalType": "uint256",
          "name": "tokenId_",
          "type": "uint256"
        }
      ],
      "name": "slotOf",
      "outputs": [
        {
          "internalType": "uint256",
          "name": "",
          "type": "uint256"
        }
      ],
      "stateMutability": "view",
      "type": "function"
    },
    {
      "inputs": [
        {
          "internalType": "uint256",
          "name": "slot_",
          "type": "uint256"
        }
      ],
      "name": "slotURI",
      "outputs": [
        {
          "internalType": "string",
          "name": "",
          "type": "string"
        }
      ],
      "stateMutability": "view",
      "type": "function"
    },
    {
      "inputs": [
        {
          "internalType": "bytes4",
          "name": "interfaceId",
          "type": "bytes4"
        }
      ],
      "name": "supportsInterface",
      "outputs": [
        {
          "internalType": "bool",
          "name": "",
          "type": "bool"
        }
      ],
      "stateMutability": "view",
      "type": "function"
    },
    {
      "inputs": [],
      "name": "symbol",
      "outputs": [
        {
          "internalType": "string",
          "name": "",
          "type": "string"
        }
      ],
      "stateMutability": "view",
      "type": "function"
    },
    {
      "inputs": [
        {
          "internalType": "uint256",
          "name": "index_",
          "type": "uint256"
        }
      ],
      "name": "tokenByIndex",
      "outputs": [
        {
          "internalType": "uint256",
          "name": "",
          "type": "uint256"
        }
      ],
      "stateMutability": "view",
      "type": "function"
    },
    {
      "inputs": [
        {
          "internalType": "address",
          "name": "owner_",
          "type": "address"
        },
        {
          "internalType": "uint256",
          "name": "index_",
          "type": "uint256"
        }
      ],
      "name": "tokenOfOwnerByIndex",
      "outputs": [
        {
          "internalType": "uint256",
          "name": "",
          "type": "uint256"
        }
      ],
      "stateMutability": "view",
      "type": "function"
    },
    {
      "inputs": [
        {
          "internalType": "uint256",
          "name": "tokenId_",
          "type": "uint256"
        }
      ],
      "name": "tokenURI",
      "outputs": [
        {
          "internalType": "string",
          "name": "",
          "type": "string"
        }
      ],
      "stateMutability": "view",
      "type": "function"
    },
    {
      "inputs": [],
      "name": "totalSupply",
      "outputs": [
        {
          "internalType": "uint256",
          "name": "",
          "type": "uint256"
        }
      ],
      "stateMutability": "view",
      "type": "function"
    },
    {
      "inputs": [
        {
          "internalType": "uint256",
          "name": "fromTokenId_",
          "type": "uint256"
        },
        {
          "internalType": "address",
          "name": "to_",
          "type": "address"
        },
        {
          "internalType": "uint256",
          "name": "value_",
          "type": "uint256"
        }
      ],
      "name": "transferFrom",
      "outputs": [
        {
          "internalType": "uint256",
          "name": "",
          "type": "uint256"
        }
      ],
      "stateMutability": "payable",
      "type": "function"
    },
    {
      "inputs": [
        {
          "internalType": "address",
          "name": "from_",
          "type": "address"
        },
        {
          "internalType": "address",
          "name": "to_",
          "type": "address"
        },
        {
          "internalType": "uint256",
          "name": "tokenId_",
          "type": "uint256"
        }
      ],
      "name": "transferFrom",
      "outputs": [],
      "stateMutability": "payable",
      "type": "function"
    },
    {
      "inputs": [
        {
          "internalType": "uint256",
          "name": "fromTokenId_",
          "type": "uint256"
        },
        {
          "internalType": "uint256",
          "name": "toTokenId_",
          "type": "uint256"
        },
        {
          "internalType": "uint256",
          "name": "value_",
          "type": "uint256"
        }
      ],
      "name": "transferFrom",
      "outputs": [],
      "stateMutability": "payable",
      "type": "function"
    },
    {
      "inputs": [
        {
          "internalType": "string",
          "name": "assetId_",
          "type": "string"
        },
        {
          "internalType": "string",
          "name": "side_",
          "type": "string"
        }
      ],
      "name": "validOffers",
      "outputs": [
        {
          "components": [
            {
              "internalType": "uint256",
              "name": "offerId",
              "type": "uint256"
            },
            {
              "internalType": "address",
              "name": "owner",
              "type": "address"
            },
            {
              "internalType": "string",
              "name": "side",
              "type": "string"
            },
            {
              "internalType": "uint256",
              "name": "price",
              "type": "uint256"
            },
            {
              "internalType": "uint256",
              "name": "tokenId",
              "type": "uint256"
            },
            {
              "internalType": "uint256",
              "name": "expiration",
              "type": "uint256"
            }
          ],
          "internalType": "struct Service.Offer[]",
          "name": "",
          "type": "tuple[]"
        }
      ],
      "stateMutability": "view",
      "type": "function"
    },
    {
      "inputs": [],
      "name": "valueDecimals",
      "outputs": [
        {
          "internalType": "uint8",
          "name": "",
          "type": "uint8"
        }
      ],
      "stateMutability": "view",
      "type": "function"
    }
  ],
  "bytecode": "0x60a080604052346200096457600060805262007a4b80380380916200002582856200099b565b833981016101a08282031262000695576200004082620009bf565b506200004f60208301620009bf565b916200005e60408201620009bf565b916200006d60608301620009bf565b916200007c60808201620009bf565b506200008b60a08201620009bf565b60c082015160e0830151919490916001600160401b038111620006955784620000b6918501620009f9565b6101008401519091906001600160401b038111620006955785620000dc918601620009f9565b6101208501519096906001600160401b03811162000695578662000102918701620009f9565b6101408601519097906001600160401b03811162000695578762000128918801620009f9565b6101608701519097906001600160401b03811162000695576101809162000151918901620009f9565b96015160ff811681036200069557604051946200016e8662000969565b60088652677072696f7269747960c01b6020870152600160035580516001600160401b0381116200063f57608051805490600182811c9216801562000959575b60208310146200086f5750601f81116200090d575b5060805191602092601f83116001146200089d57506080519283918362000891575b50508160011b916000199060031b1c19161790555b81516001600160401b0381116200063f57600154608051600182811c9216801562000886575b60208310146200086f5750601f811162000822575b50608051602090601f8311600114620007ab5750819060ff94608051926200079f575b50508160011b916000199060031b1c1916176001555b1660ff19600254161760025560805180526009602052608051604081209060018060a01b038316905260205260805160ff6040822054161562000750575b50600b80546001600160a01b03199081166001600160a01b0393841617909155600c859055600a805482168b8416179055600d805482168a8416179055600e8054909116929091169190911790556040518151602080830192916200032b919083906200031d8187898601620009d4565b81010380845201826200099b565b51902060405160208101906374696d6560e01b8252600481526200034f8162000969565b519020036200069b57506080515b60048110156200067d576010805460ff191660ff83161790556001600160a01b0386163b156200069557604051916394b39b0960e01b835260018060a01b03881660048401526024830152600460ff821610156200067d5760ff16604482015260805181606481836001600160a01b038a165af18015620006705762000657575b50604051926001600160401b036120c58501908111908511176200063f576200045392620004256200043c926120c562005966883960806120c58801818152019062000a54565b906120c58601820360206120c58801015262000a54565b906120c58401820360406120c58601015262000a54565b6001600160a01b039092166120c5820160600152608051918190039082f0908115620006335750600880546001600160a01b0319166001600160a01b03928316179055600b541660008181527f3d62299d961dc9bf64f24e2e5b7d5a2b17ee5fc8163a3ddca90e52de8744675560205260409020547f1cd6d520d98babae1045eb69c31ecab800996aa332094cb55c0ac10362e9b0c9919060ff1615620005f0575b50506001600160a01b03811660009081527ff0bca53ec534e170e0b4115320ce2b072ee8e3338cc6b0c7b13351839d628e0a60205260409020547f9a95e87c5af084bf5db8491c3a6515da9dd6da39b24b0eb0af08d7b9cd808d919060ff1615620005a0575b7f9ac4f8025631594629895b778dc5ee88d01673a254a2291f6b6b174ad25230ca602060018060a01b0360085416604051908152a1604051614eea908162000a7c8239f35b60008181526009602090815260408083206001600160a01b0395909516808452949091528120805460ff191660011790553392919060008051602062007a2b8339815191529080a438806200055b565b8160005260096020526040600020816000526020526040600020600160ff19825416179055339160008051602062007a2b833981519152600080a43880620004f5565b604051903d90823e3d90fd5b634e487b7160e01b6080515260416004526024608051fd5b6001600160401b0381116200063f5760405238620003de565b6040513d608051823e3d90fd5b634e487b7160e01b6080515260216004526024608051fd5b60805180fd5b6040516020810190620006bb60208285516200031d8187858a01620009d4565b5190206040516020810190630c6c2e6d60e31b825260048152620006df8162000969565b51902003620006f1575060016200035d565b60405162000711602082816200031d8183019687815193849201620009d4565b519020604051602081019065636f756e747360d01b825260068152620007378162000969565b51902003620007485760026200035d565b60036200035d565b8052600960209081526080805160408082206001600160a01b038616928390529093529051918220805460ff19166001179055339160008051602062007a2b8339815191528180a438620002ac565b01519050388062000258565b60019094929394526080519160208320925b601f198516811062000809575091839160019360ff9695601f19811610620007ef575b505050811b016001556200026e565b015160001960f88460031b161c19169055388080620007e0565b91926020600181928685015181550194019201620007bd565b60016080515260805160208120601f840160051c81016020851062000867575b601f840160051c820181106200085b5750505062000235565b82815560010162000842565b508062000842565b634e487b7160e01b90526022600452608051602490fd5b91607f169162000220565b015190503880620001e5565b80526080516020812090938493925b601f1984168510620008f1576001945083601f19811610620008d7575b505050811b019055620001fa565b015160001960f88460031b161c19169055388080620008c9565b81810151835560209485019460019093019290910190620008ac565b608051805260805160208120601f840160051c81016020851062000951575b601f840160051c820181106200094557505050620001c3565b8281556001016200092c565b50806200092c565b91607f1691620001ae565b600080fd5b604081019081106001600160401b038211176200098557604052565b634e487b7160e01b600052604160045260246000fd5b601f909101601f19168101906001600160401b038211908210176200098557604052565b51906001600160a01b03821682036200096457565b60005b838110620009e85750506000910152565b8181015183820152602001620009d7565b81601f82011215620009645780516001600160401b03811162000985576040519262000a30601f8301601f1916602001856200099b565b81845260208284010111620009645762000a519160208085019101620009d4565b90565b9060209162000a6f81518092818552858086019101620009d4565b601f01601f191601019056fe608080604052600436101561001357600080fd5b600090813560e01c90816301ffc9a7146125a25750806303e20953146123de57806306fdde031461233b578063081812fc1461231c578063095ea7b3146121e157806309c3dd8714611f0d5780630f485c0214611ecc5780631375d84314611e665780631429fb5714611dcb57806318160ddd14611dad57806323b872dd14611d885780632425eeaf14611a31578063248a9ca314611a04578063263f3e7e146119e55780632f2ff15d146119325780632f745c5914611889578063310ed7f01461179f57806331b5b9071461171557806336568abe146116825780633e7e8669146116615780633f5d70671461143857806341815ee41461134057806342842e0e1461131d5780634f6ccce714611298578063505a38531461127a57806353a3a300146110f95780636352211e146110c857806370a08231146110a457806371f0442e1461103e5780637795524514611015578063840f711314610fec5780638cb0a51114610eaa57806391d1485414610e5e57806395d89b4114610d7f5780639cc7f70814610d60578063a217fddf14610d44578063a22cb46514610c6f578063a74cfaa014610bd4578063a7c9f2d614610b99578063aa20ce55146108ea578063b3154c0814610884578063b88d4fde14610825578063be950a62146106df578063c87b56dd1461064a578063cf2d6fe6146103db578063d09445c2146103a0578063d547741f1461035f578063e345e0bc14610330578063e8a3d485146102a05763e985e9c51461024757600080fd5b3461029d57604036600319011261029d576102606125f7565b6002604061026c61260d565b9360018060a01b038094168152600760205220019116600052602052602060ff604060002054166040519015158152f35b80fd5b503461029d578060031936011261029d57600854604051631c97e82760e21b8152908290829060049082906001600160a01b03165afa90811561032557826102fe9392610302575b50506040519182916020835260208301906127cf565b0390f35b61031e92503d8091833e6103168183612687565b810190612d60565b38806102e8565b6040513d84823e3d90fd5b503461029d57604036600319011261029d57602061035761034f61260d565b600435614dc9565b604051908152f35b503461029d57604036600319011261029d5761039d60043561037f61260d565b9080845260096020526103986001604086200154612853565b612b74565b80f35b503461029d578060031936011261029d5760206040517f9a95e87c5af084bf5db8491c3a6515da9dd6da39b24b0eb0af08d7b9cd808d918152f35b503461029d5760c036600319011261029d576103f56125f7565b6064356001600160401b03608435818111610646576104189036906004016126fa565b9060a435818111610642576104319036906004016126fa565b93600f549461043f866133f0565b600f5583516020809501209283885260139283865260408920888a5286526001908160408b20019060018060a01b03166001600160601b0360a01b82541617905584895283865260408920888a5286528760408a205584895283865260408920888a528652600260408a200192805192831161062e576104bf8454612c1e565b601f81116105f5575b5086908a601f851160011461057b579360409997959381938293600080516020614e958339815191529d9b999794610570575b50501b916000199060031b1c19161790555b81885280835285882085895283526024356005878a20015581885280835285882085895283526044356004878a20015581885282528487208488528252826003868920015586526014815261056483858820613276565b8351928352820152a180f35b0151925038806104fb565b50848b52878b209293929190601f1984168c5b8181106105e0575091600080516020614e958339815191529b99979593918560409c9a989694106105c7575b505050811b01905561050d565b015160001960f88460031b161c191690553880806105ba565b82840151855593860193928a01928a0161058e565b61061e90858c52888c20601f860160051c8101918a8710610624575b601f0160051c01906133ff565b386104c8565b9091508190610611565b634e487b7160e01b8a52604160045260248afd5b8580fd5b8480fd5b503461029d57602036600319011261029d5760043561066881614b4c565b80156106cb575b61067890612f75565b6008546040516344a5a61760e11b815260048101929092528290829060249082906001600160a01b03165afa90811561032557826102fe93926103025750506040519182916020835260208301906127cf565b506106786106d882614b7a565b905061066f565b503461029d57602036600319011261029d577f9a95e87c5af084bf5db8491c3a6515da9dd6da39b24b0eb0af08d7b9cd808d9181526009602052604081203360005260205260ff60406000205416156107ba5760018060a01b039081600d541691600a541660ff60105416833b156107b657604051916394b39b0960e01b83526004830152600435602483015260048110156107a25781606481858097819560448401525af18015610325576107925750f35b61079b90612623565b61029d5780f35b634e487b7160e01b83526021600452602483fd5b8280fd5b60405162461bcd60e51b815260206004820152603760248201527f53656e646572206e6f7420617574686f72697a656420746f207265676973746560448201527f7220636f6e747261637420746f207468697320736c6f740000000000000000006064820152608490fd5b50608036600319011261029d5761083a6125f7565b61084261260d565b606435916001600160401b03831161088057366023840112156108805761087661039d9336906024816004013591016126c3565b9160443591612e9e565b8380fd5b503461029d57602036600319011261029d57600854604051631662a98160e31b81526004803590820152908290829060249082906001600160a01b03165afa90811561032557826102fe93926103025750506040519182916020835260208301906127cf565b503461029d576020816108fc36612718565b96600399929591969994939454996109138b6133f0565b600355600e54604051630151086360e31b81526001600160a01b039384166004820152602481019290925260448201939093526064810194909452839160849183918b91165af1908115610b8e578691610b54575b50868652601160205260408620556008546001600160a01b0316803b15610642576109bb8692918392604051948580948193632108947560e21b83528d60048401526040602484015260448301906127cf565b03925af1908115610b49578591610b35575b50506008546001600160a01b0316803b1561064657610a14859291839260405194858094819363246a908b60e01b83528c60048401526040602484015260448301906127cf565b03925af1908115610b2a578491610b16575b50506008546001600160a01b0316803b1561088057610a6d8492918392604051948580948193630190503b60e61b83528b60048401526040602484015260448301906127cf565b03925af1908115610af7578391610b02575b50506008546001600160a01b031690813b156107b6578291610ac591604051948580948193637e468a5160e01b83528960048401526040602484015260448301906127cf565b03925af18015610af757610adf575b602082604051908152f35b610ae98391612623565b610af35781610ad4565b5080fd5b6040513d85823e3d90fd5b610b0b90612623565b610af3578138610a7f565b610b1f90612623565b6107b6578238610a26565b6040513d86823e3d90fd5b610b3e90612623565b6108805783386109cd565b6040513d87823e3d90fd5b9550506020853d602011610b86575b81610b7060209383612687565b81010312610b815786945138610968565b600080fd5b3d9150610b63565b6040513d88823e3d90fd5b503461029d578060031936011261029d5760206040517f1cd6d520d98babae1045eb69c31ecab800996aa332094cb55c0ac10362e9b0c98152f35b503461029d5760c036600319011261029d57610bee6125f7565b906001600160401b036044358181116107b657610c0f9036906004016126fa565b60643582811161088057610c279036906004016126fa565b9160843581811161064657610c409036906004016126fa565b9360a43591821161029d57602061035787878787610c613660048a016126fa565b936005549060243590613625565b503461029d57604036600319011261029d57610c896125f7565b602435908115158092036107b6576001600160a01b031690338214610cff5733835260076020526002604084200182600052602052604060002060ff1981541660ff83161790556040519081527f17307eab39ab6107e8899845ad3d59bd9653f200f220920489ca2b5937696c3160203392a380f35b60405162461bcd60e51b815260206004820152601a60248201527f455243333532353a20617070726f766520746f2063616c6c65720000000000006044820152606490fd5b503461029d578060031936011261029d57602090604051908152f35b503461029d57602036600319011261029d576020610357600435614c33565b503461029d578060031936011261029d5760405160006001805490610da382612c1e565b80855291818116908115610e375750600114610dde575b6102fe84610dca81860382612687565b6040519182916020835260208301906127cf565b600081815292507fb10e2d527612073b26eecdfd717e6a320cf44b4afac2b0732d9fcbe2b7fa0cf65b828410610e1f575050508101602001610dca82610dba565b80546020858701810191909152909301928101610e07565b60ff191660208087019190915292151560051b85019092019250610dca9150839050610dba565b503461029d57604036600319011261029d576040610e7a61260d565b9160043581526009602052209060018060a01b0316600052602052602060ff604060002054166040519015158152f35b50610eb4366127f4565b90610ebe83614bf0565b83610ec884614b4c565b80610fd9575b15610f6b5750610ef46001600160a01b0380610ee986612fc1565b169083161415612f1e565b610efe8333613079565b15610f0c5761039d926143bf565b60405162461bcd60e51b815260206004820152603160248201527f455243333532353a20617070726f76652063616c6c6572206973206e6f74206f6044820152701ddb995c881b9bdc88185c1c1c9bdd9959607a1b6064820152608490fd5b600e54938152601160205260408120549093919290916001600160a01b0316803b1561064657604051638cb0a51160e01b815260048101939093526001600160a01b0393909316602483015260448201529082908290606490829084905af180156103255761079257505080f35b50610fe384612d39565b600c5414610ece565b503461029d578060031936011261029d576008546040516001600160a01b039091168152602090f35b503461029d578060031936011261029d57600a546040516001600160a01b039091168152602090f35b503461029d57602036600319011261029d576008546040516338f8221760e11b81526004803590820152908290829060249082906001600160a01b03165afa90811561032557826102fe93926103025750506040519182916020835260208301906127cf565b503461029d57602036600319011261029d5760206103576110c36125f7565b612dbe565b503461029d57602036600319011261029d5760206110e7600435614ce5565b6040516001600160a01b039091168152f35b503461029d57602080600319360112610af35760055490600435821561123557806111266111349261302a565b929054600393841b1c61370e565b83811061113f578480f35b60019081810180821161122157858110611164575b5061115f91506133f0565b611134565b61116d8161302a565b905490851b1c9061117d82612fc1565b5061118782612d39565b50816000526006865260026111a0604060002054612cfe565b50019081549285840180941161120b576000600080516020614e558339815191528961115f98611205976111db9755604051908152a361302a565b905490851b1c6111ea8361302a565b90919082549060031b600019811b9283911b16911916179055565b38611154565b634e487b7160e01b600052601160045260246000fd5b634e487b7160e01b87526011600452602487fd5b60405162461bcd60e51b815260048101839052601a60248201527f4f726465724372656469743a204c69737420697320656d7074790000000000006044820152606490fd5b503461029d578060031936011261029d576020600c54604051908152f35b503461029d57602036600319011261029d576004356005548110156112cc576112c2602091612cfe565b5054604051908152f35b60405162461bcd60e51b815260206004820152602360248201527f455243333532353a20676c6f62616c20696e646578206f7574206f6620626f756044820152626e647360e81b6064820152608490fd5b5061039d61132a3661281e565b90604051926113388461266c565b858452612e9e565b503461029d578060031936011261029d5760ff60105416600481101561142457600381036113a25750506102fe60405161137981612651565b60088152677072696f7269747960c01b60208201526040519182916020835260208301906127cf565b806113ce5750506102fe6040516113b881612651565b600481526374696d6560e01b6020820152610dca565b6002141590506113ff576102fe6040516113e781612651565b6006815265636f756e747360d01b6020820152610dca565b6102fe60405161140e81612651565b60048152630c6c2e6d60e31b6020820152610dca565b634e487b7160e01b82526021600452602482fd5b503461029d5760a036600319011261029d576001600160401b036044356064358281116108805761146d9036906004016126fa565b608435838111610646576114859036906004016126fa565b600f5493611492856133f0565b600f5582516020809401209182875260139182855260408820878952855260018060408a2001336001600160601b0360a01b82541617905584895283865260408920888a5286528760408a205584895283865260408920888a528652600260408a200192805192831161062e576115098454612c1e565b601f8111611633575b5086908a601f85116001146115b9579360409997959381938293600080516020614e958339815191529d9b9997946115ae575b50501b916000199060031b1c19161790555b81885280835285882085895283526004356005878a20015581885280835285882085895283526024356004878a20015581885282528487208488528252826003868920015586526014815261056483858820613276565b015192503880611545565b50848b52878b209293929190601f1984168c5b81811061161e575091600080516020614e958339815191529b99979593918560409c9a98969410611605575b505050811b019055611557565b015160001960f88460031b161c191690553880806115f8565b82840151855593860193928a01928a016115cc565b61165b90858c52888c20601f860160051c8101918a871061062457601f0160051c01906133ff565b38611512565b503461029d578060031936011261029d57602060ff60025416604051908152f35b503461029d57604036600319011261029d5761169c61260d565b336001600160a01b038216036116b85761039d90600435612b74565b60405162461bcd60e51b815260206004820152602f60248201527f416363657373436f6e74726f6c3a2063616e206f6e6c792072656e6f756e636560448201526e103937b632b9903337b91039b2b63360891b6064820152608490fd5b503461029d57602036600319011261029d57806004356001600160401b03811161179c576117479036906004016126fa565b6008546001600160a01b0316803b15611798576040516355f804b360e01b81526020600482015291839183918290849082906117879060248301906127cf565b03925af18015610325576107925750f35b5050fd5b50fd5b50606036600319011261029d576044356024356004356117c86117c182614c33565b8414613a26565b6117d182614c33565b916117db81614bf0565b808552600660205260026117f26040872054612cfe565b5001938454908482106118385761039d956118108661183394613300565b90558683600080516020614e558339815191526020604051898152a3828461498d565b61498d565b60405162461bcd60e51b815260206004820152602360248201527f455243333532353a206275726e2076616c756520657863656564732062616c616044820152626e636560e81b6064820152608490fd5b503461029d57604036600319011261029d576118a36125f7565b906024356118b083612dbe565b8110156118e25760406118d49260209460018060a01b031681526007855220613061565b90546040519160031b1c8152f35b60405162461bcd60e51b815260206004820152602260248201527f455243333532353a206f776e657220696e646578206f7574206f6620626f756e604482015261647360f01b6064820152608490fd5b503461029d57604036600319011261029d5760043561194f61260d565b81835260096020526119676001604085200154612853565b8183526009602052604083209060018060a01b0316908160005260205260ff6040600020541615611996578280f35b818352600960205260408320816000526020526040600020600160ff1982541617905533917f2f8788117e7eff1d82e926ec794901d17c78024a50270940304540a733656f0d8480a438808280f35b503461029d57602036600319011261029d576020610357600435612d39565b503461029d57602036600319011261029d5760016040602092600435815260098452200154604051908152f35b503461029d57604036600319011261029d576001600160401b036004358181116107b657611a639036906004016126fa565b906024359081116107b657611a7c9036906004016126fa565b9080516020809201209182845260148252604084206040519081848254918281520191875284872090875b818110611d745750505081611abd910382612687565b849282810191845b8151811015611b83578688526013835260408820611ae38284614db5565b518952835260a060408920604051611afa81612636565b81548152600180841b03600183015416868201526005611b1c60028401612c58565b9283604084015260038101546060840152600481015460808401520154928391015284815191012086518620149081611b79575b50611b64575b611b5f906133f0565b611ac5565b94611b71611b5f916133f0565b959050611b56565b9050421038611b50565b5092939193611b9183613f69565b92611b9f6040519485612687565b808452611bae601f1991613f69565b0182885b828110611d3a575050508693875b8151811015611c99578789526013845260408920611bde8284614db5565b518a5284526040892060405190611bf482612636565b8054825260018101546001600160a01b0316868301526005611c1860028301612c58565b9182604085015260038101546060850152600481015460808501520154908160a084015286815191012085518a20149081611c8f575b50611c63575b50611c5e906133f0565b611bc0565b9590611c8882611c76611c5e94916133f0565b98611c81828a614db5565b5287614db5565b5090611c54565b9050421038611c4e565b83898660405191838301848452825180915260408401948060408360051b870101940192955b828710611ccc5785850386f35b909192938280600192603f1989820301855287519081518152848060a01b03838301511683820152611d0c604083015160c08060408501528301906127cf565b91606080820151908301526080808201519083015260a0809101519101529601920196019592919092611cbf565b604051611d4681612636565b8a81528a838201528a60608060408401528201528a60808201528a60a0820152828288010152018390611bb2565b825484529286019260019283019201611aa7565b5061039d611d953661281e565b91611da8611da38433613079565b612e37565b6130ea565b503461029d578060031936011261029d576020600554604051908152f35b503461029d5760e036600319011261029d57611de56125f7565b906001600160401b036064358181116107b657611e069036906004016126fa565b60843582811161088057611e1e9036906004016126fa565b9160a43581811161064657611e379036906004016126fa565b9360c43591821161029d57602061035787878787611e583660048a016126fa565b936044359060243590613625565b503461029d57602036600319011261029d57600854604051631375d84360e01b81526004803590820152908290829060249082906001600160a01b03165afa90811561032557826102fe93926103025750506040519182916020835260208301906127cf565b60206111ea610357611f00611f08611ee3366127f4565b829491611efa611ef38395614c33565b8314613a26565b85613f80565b94859161302a565b61370e565b503461029d576020908160031936011261029d5760043560018060a01b036008541690604051636c0360eb60e01b81528381600481865afa908115610b2a5784916121c7575b508215611fc457508290602460405180948193633601bfc560e11b835260048301525afa918215611fb8578092611f9d575b5050905b6102fe6040519282849384528301906127cf565b611fb192503d8091833e6103168183612687565b3880611f85565b604051903d90823e3d90fd5b8051909392501561218c578190807a184f03e93ff9f4daa797ed6e38ed64bf6a1f010000000000000000818181101561217e575b5050856d04ee2d6d415b85acef810000000080841015612170575b5050662386f26fc1000080831015612161575b506305f5e10080831015612152575b5061271080831015612143575b506064821015612133575b600a80921015612129575b6001908160218186019561208461206e886126a8565b9761207c604051998a612687565b8089526126a8565b878b019890601f1901368a3750860101905b6120f3575b505050506120de926120ed9260259260405195836120c288955180928b80890191016127ac565b84019164736c6f742f60d81b89840152518093868401906127ac565b01036005810184520182612687565b90611f89565b600019019083906f181899199a1a9b1b9c1cb0b131b232b360811b8282061a83530491821561212457919082612096565b61209b565b9160010191612058565b919060646002910491019161204d565b60049193920491019138612042565b60089193920491019138612035565b60109193920491019138612026565b930192909104908538612013565b604094500491503880611ff8565b5060405191508282016001600160401b038111838210176121b15760405281526120ed565b634e487b7160e01b600052604160045260246000fd5b6121db91503d8086833e6103168183612687565b38611f53565b50604036600319011261029d576121f66125f7565b602435906001600160a01b03808061220d85612fc1565b1692169161221d81841415612f1e565b8033149081156122f6575b501561228b578260005260066020526004612247604060002054612cfe565b500180546001600160a01b0319168317905561226283612fc1565b167f8c5be1e5ebec7d5bd14f71427d1e84f3dd0314c0f7b2291e5b200ac8c7c3b925600080a480f35b60405162461bcd60e51b815260206004820152603960248201527f455243333532353a20617070726f76652063616c6c6572206973206e6f74206f60448201527f776e6572206e6f7220617070726f76656420666f7220616c6c000000000000006064820152608490fd5b905084526007602052600260408520013360005260205260ff6040600020541638612228565b503461029d57602036600319011261029d5760206110e7600435612ffa565b503461029d578060031936011261029d576040516000805461235c81612c1e565b80845290600190818116908115610e375750600114612385576102fe84610dca81860382612687565b600080805292507f290decd9548b62a8d60345a988386fc84ba6bc95484008f6362f93160ef3e5635b8284106123c6575050508101602001610dca82610dba565b805460208587018101919091529093019281016123ae565b503461029d576123ed36612718565b95919360ff600298929698541660018060a01b03600e541692604d821161258e5781600a0a1561257a57604051630bbed13160e21b81526001600160a01b0391909116600482015260248101949094526044840198909852600a9790970a9096046064820152948691906020908790608490829086905af1958615610325578296612546575b5060035495612481876133f0565b600355868352601160205260408320556008546001600160a01b031690813b156107b65782916124d591604051948580948193632108947560e21b83528c60048401526040602484015260448301906127cf565b03925af18015610b8e5761252f575b5060085485939291906001600160a01b0316803b1561064657610a14859291839260405194858094819363246a908b60e01b83528c60048401526040602484015260448301906127cf565b61253d909591939295612623565b939091386124e4565b9095506020813d602011612572575b8161256260209383612687565b81010312610af357519438612473565b3d9150612555565b634e487b7160e01b8b52601260045260248bfd5b634e487b7160e01b8b52601160045260248bfd5b905034610af3576020366003190112610af35760043563ffffffff60e01b81168091036107b65760209250637965db0b60e01b81149081156125e6575b5015158152f35b6301ffc9a760e01b149050386125df565b600435906001600160a01b0382168203610b8157565b602435906001600160a01b0382168203610b8157565b6001600160401b0381116121b157604052565b60c081019081106001600160401b038211176121b157604052565b604081019081106001600160401b038211176121b157604052565b602081019081106001600160401b038211176121b157604052565b90601f801991011681019081106001600160401b038211176121b157604052565b6001600160401b0381116121b157601f01601f191660200190565b9291926126cf826126a8565b916126dd6040519384612687565b829481845281830111610b81578281602093846000960137010152565b9080601f83011215610b8157816020612715933591016126c3565b90565b610100600319820112610b81576004356001600160a01b0381168103610b8157916024359160443591606435916001600160401b0390608435828111610b815781612765916004016126fa565b9260a435838111610b81578261277d916004016126fa565b9260c435818111610b815783612795916004016126fa565b9260e435918211610b8157612715916004016126fa565b60005b8381106127bf5750506000910152565b81810151838201526020016127af565b906020916127e8815180928185528580860191016127ac565b601f01601f1916010190565b6060906003190112610b8157600435906024356001600160a01b0381168103610b81579060443590565b6060906003190112610b81576001600160a01b03906004358281168103610b8157916024359081168103610b81579060443590565b60009080825260209060098252604092838120338252835260ff84822054161561287d5750505050565b8351916001600160401b0390336060850183811186821017612b60578752602a85528585019187368437855115612b4c5760308353855191600192831015612b38576078602188015360295b838111612ae25750612aa05790875193608085019085821090821117612a8c57885260428452868401946060368737845115612a7857603086538451821015612a785790607860218601536041915b818311612a0a575050506129c8576129c49386936129a8936129996048946129709a519a8b957f416363657373436f6e74726f6c3a206163636f756e74200000000000000000008c88015251809260378801906127ac565b8401917001034b99036b4b9b9b4b733903937b6329607d1b6037840152518093868401906127ac565b01036028810187520185612687565b5192839262461bcd60e51b8452600484015260248301906127cf565b0390fd5b60648587519062461bcd60e51b825280600483015260248201527f537472696e67733a20686578206c656e67746820696e73756666696369656e746044820152fd5b909192600f81166010811015612a64576f181899199a1a9b1b9c1cb0b131b232b360811b901a612a3a8588612bf7565b5360041c928015612a5057600019019190612918565b634e487b7160e01b82526011600452602482fd5b634e487b7160e01b83526032600452602483fd5b634e487b7160e01b81526032600452602490fd5b634e487b7160e01b86526041600452602486fd5b60648789519062461bcd60e51b825280600483015260248201527f537472696e67733a20686578206c656e67746820696e73756666696369656e746044820152fd5b90600f81166010811015612b24576f181899199a1a9b1b9c1cb0b131b232b360811b901a612b10838a612bf7565b5360041c90801561122157600019016128c9565b634e487b7160e01b88526032600452602488fd5b634e487b7160e01b86526032600452602486fd5b634e487b7160e01b85526032600452602485fd5b634e487b7160e01b85526041600452602485fd5b906000918083526009602052604083209160018060a01b03169182845260205260ff604084205416612ba557505050565b8083526009602052604083208284526020526040832060ff1981541690557ff6391f5c32d9c69d2a47ea670b442974b53935d1edc7fd64eb21e047a839171b339380a4565b9190820180921161120b57565b908151811015612c08570160200190565b634e487b7160e01b600052603260045260246000fd5b90600182811c92168015612c4e575b6020831014612c3857565b634e487b7160e01b600052602260045260246000fd5b91607f1691612c2d565b9060405191826000825492612c6c84612c1e565b908184526001948581169081600014612cdb5750600114612c98575b5050612c9692500383612687565b565b9093915060005260209081600020936000915b818310612cc3575050612c9693508201013880612c88565b85548884018501529485019487945091830191612cab565b915050612c9694506020925060ff191682840152151560051b8201013880612c88565b600554811015612c08576006906005600052027f036b6384b5eca791c62761152d0c79bb0604c104a5fb6f4eb0703f3154bb3db00190600090565b612d4281614bf0565b60005260066020526001612d5a604060002054612cfe565b50015490565b602081830312610b81578051906001600160401b038211610b81570181601f82011215610b81578051612d92816126a8565b92612da06040519485612687565b81845260208284010111610b815761271591602080850191016127ac565b6001600160a01b03168015612dde57600052600760205260406000205490565b60405162461bcd60e51b815260206004820152602b60248201527f455243333532353a2062616c616e636520717565727920666f7220746865207a60448201526a65726f206164647265737360a81b6064820152608490fd5b15612e3e57565b60405162461bcd60e51b815260206004820152603260248201527f455243333532353a207472616e736665722063616c6c6572206973206e6f74206044820152711bdddb995c881b9bdc88185c1c1c9bdd995960721b6064820152608490fd5b90612ec2939291612eb2611da38433613079565b612ebd8383836130ea565b6134fe565b15612ec957565b60405162461bcd60e51b815260206004820152602760248201527f455243333532353a207472616e7366657220746f206e6f6e204552433732315260448201526632b1b2b4bb32b960c91b6064820152608490fd5b15612f2557565b60405162461bcd60e51b815260206004820152602260248201527f455243333532353a20617070726f76616c20746f2063757272656e74206f776e60448201526132b960f11b6064820152608490fd5b15612f7c57565b60405162461bcd60e51b815260206004820152601960248201527f455243333532353a20696e76616c696420746f6b656e204944000000000000006044820152606490fd5b612fca81614bf0565b6000526006602052612fe0604060002054612cfe565b50600301546001600160a01b031690612c96821515612f75565b61300381614bf0565b6000526006602052613019604060002054612cfe565b50600401546001600160a01b031690565b601654811015612c085760166000527fd833147d7dc355ba459fc788f669e58cfaf9dc25ddcd0702e87d69c7b51242890190600090565b8054821015612c085760005260206000200190600090565b906001600160a01b03808061308d84612fc1565b169316918383149384156130c0575b5083156130aa575b50505090565b6130b691929350612ffa565b16143880806130a4565b909350600052600760205260026040600020018260005260205260ff60406000205416923861309c565b6130f383612fc1565b6001600160a01b0380831692918116839003613204578084169384156131b157856131ad916131a882600080516020614e758339815191529661313582612d39565b5061313f82613255565b5081600080988282526006602052600461315c6040842054612cfe565b500180546001600160a01b031916905561317583612fc1565b167f8c5be1e5ebec7d5bd14f71427d1e84f3dd0314c0f7b2291e5b200ac8c7c3b9258280a46131a382613416565b61330d565b613299565b80a4565b60405162461bcd60e51b815260206004820152602560248201527f455243333532353a207472616e7366657220746f20746865207a65726f206164604482015264647265737360d81b6064820152608490fd5b60405162461bcd60e51b8152602060048201526024808201527f455243333532353a207472616e736665722066726f6d20696e76616c6964206f6044820152633bb732b960e11b6064820152608490fd5b61325e81614bf0565b60005260066020526002612d5a604060002054612cfe565b90815491600160401b8310156121b157826111ea916001612c9695018155613061565b906040612c9692600090838252600660205260036132b984842054612cfe565b500180546001600160a01b0319166001600160a01b039092169182179055808252600760208181528484208054878652600191909101825285852055918352905220613276565b9190820391821161120b57565b600090828252600660205260036133276040842054612cfe565b500180546001600160a01b03191690556001600160a01b03168152600760205260408120805460001993919291908481019081116133dc576133699084613061565b90549060031b1c600184018284528060205260408420549161338f816111ea8589613061565b84526020526040832055815280604081205581549081156133c857508201916133b88383613061565b909182549160031b1b1916905555565b634e487b7160e01b81526031600452602490fd5b634e487b7160e01b83526011600452602483fd5b600019811461120b5760010190565b81811061340a575050565b600081556001016133ff565b6000818152602060068152604092600561343285852054612cfe565b500193845491845b838110613470575050505082549180845582613457575b50505050565b61346793815220908101906133ff565b38808080613451565b8061347e6134a99289613061565b90548489526004885285892060039290921b1c6001600160a01b0316885286528387208790556133f0565b61343a565b90816020910312610b8157516001600160e01b031981168103610b815790565b3d156134f9573d906134df826126a8565b916134ed6040519384612687565b82523d6000602084013e565b606090565b9192813b63ffffffff161561361c57602091613556916000604051958680958194630a85bd0160e11b9a8b845233600485015260018060a01b03809516602485015260448401526080606484015260848301906127cf565b0393165af1600091816135ec575b506135de576135716134ce565b805190816135d95760405162461bcd60e51b815260206004820152603260248201527f4552433732313a207472616e7366657220746f206e6f6e20455243373231526560448201527131b2b4bb32b91034b6b83632b6b2b73a32b960711b6064820152608490fd5b602001fd5b6001600160e01b0319161490565b61360e91925060203d8111613615575b6136068183612687565b8101906134ae565b9038613564565b503d6135fc565b50505050600190565b95949392919060055482036136605761363d96613a8b565b601654600160401b8110156121b157816111ea826001612715940160165561302a565b60405162461bcd60e51b815260206004820152603c60248201527f4f726465724372656469743a204e657720746f6b656e732063616e206f6e6c7960448201527f206d696e7420746f2074686520656e64206f6620746865206c697374000000006064820152608490fd5b90600080516020614e5583398151915260206000928484526006825260026136f66040862054612cfe565b5001613703828254612bea565b9055604051908152a3565b61371781614bf0565b600081815260206006815260409061373182842054612cfe565b509060018060a01b03806003840154169360016002818601549501549261375789613416565b613761898861330d565b6005546000199182820191821161391e578a8a5260068752868a6137888782205494612cfe565b5092600588519461379886612636565b80548652888101548587015260028101548a8701528260038201541660608701528260048201541660808701520188518094859381845493848152019386528a82872096925b8484106139015750505050506137f692500382612687565b60a082015261380e8161380884612cfe565b90613932565b5189526006865283892055888852878381205560055480156138ed57019061383582612cfe565b9190916138d957938993600080516020614e55833981519152936005848c809b9a969981809b55820155886002820155886003820155886004820155018054888255806138c0575b505060055551908152a3847fe4f48c240d3b994948aa54f3e2f5fca59263dfe1d52b6e4cf39a5d249b5ccb658380a4600080516020614e758339815191528280a4565b6138d2918952858920908101906133ff565b388061387d565b634e487b7160e01b89526004899052602489fd5b634e487b7160e01b89526031600452602489fd5b875483168652968101968896509094019391909101908a8e6137de565b634e487b7160e01b8a52601160045260248afd5b9190613a1057805182556020908181015192600193848201556040820151600282015560a060056003830192600180841b039384606087015116906001600160601b03851b91828254161790556004820190856080880151169082541617905501920151928351936001600160401b0385116121b157600160401b85116121b157819084548686558087106139f3575b500192600052806000209160005b8581106139e05750505050505050565b84518216848201559382019386016139d0565b613a0a9086600052878460002091820191016133ff565b386139c2565b634e487b7160e01b600052600060045260246000fd5b15613a2d57565b60405162461bcd60e51b815260206004820152603060248201527f4f726465724372656469743a206f6e6c7920656e746972652076616c7565206360448201526f185b881899481d1c985b9cd9995c995960821b6064820152608490fd5b9295909394919460009260018060a01b03918286169889865260209960158b526040978888208a89528c52888820548881151580613f4b575b613efc575b613e9157506003549b613adb8d6133f0565b6003558215613e44578c15613df757613af38d614b4c565b8015613de8575b613da5578c60068c928c8c815191613b118361266c565b818352805196613b2088612636565b868852848801528601528660608601528c608086015260a0850152600554928c5252808b8b2055600160401b81101561062e578d93926131a8613b6e93613808846001899601600555612cfe565b87600080516020614e758339815191528180a487868b7fe4f48c240d3b994948aa54f3e2f5fca59263dfe1d52b6e4cf39a5d249b5ccb658280a4613bb2898b6136cb565b8360085416803b15613da157613bee91879189838e825196879586948593632108947560e21b85526004850152602484015260448301906127cf565b03925af18015613d9757613d84575b508260085416803b1561064257613c399186918b838a5180968195829463246a908b60e01b845260048401528d602484015260448301906127cf565b03925af18015613d7a57908591613d66575b50508160085416803b1561064657613c889185918a838951809681958294630190503b60e61b845260048401528c602484015260448301906127cf565b03925af18015613d5c57908491613d48575b50506008541690813b156107b657613cd7839283928651948580948193637e468a5160e01b83528d60048401528a602484015260448301906127cf565b03925af18015613d3e57613d2a575b505051838152602081019190915260408101919091527f84eeb48eca46cea54afc9753345f6038981672ea565f32885420829dfd88aea69080606081015b0390a190565b613d348291612623565b61029d5780613ce6565b83513d84823e3d90fd5b613d5190612623565b6107b6578238613c9a565b85513d86823e3d90fd5b613d6f90612623565b610880578338613c4b565b86513d87823e3d90fd5b613d9090959195612623565b9338613bfd565b87513d88823e3d90fd5b8680fd5b6064908a519062461bcd60e51b82526004820152601d60248201527f455243333532353a20746f6b656e20616c7265616479206d696e7465640000006044820152fd5b50613df28d614b7a565b613afa565b6084908a519062461bcd60e51b82526004820152602160248201527f455243333532353a2063616e6e6f74206d696e74207a65726f20746f6b656e496044820152601960fa1b6064820152fd5b6084908a519062461bcd60e51b82526004820152602160248201527f455243333532353a206d696e7420746f20746865207a65726f206164647265736044820152607360f81b6064820152fd5b9b50505050505050505090613d247f84eeb48eca46cea54afc9753345f6038981672ea565f32885420829dfd88aea69392613ecb86612fc1565b50613ed586612d39565b50613ee084876136cb565b5192839286846040919493926060820195825260208201520152565b8d8489613f0885614ce5565b16149081613f38575b81613f25575b5015613ac957506001613ac9565b60119150838c52528a8a2054158e613f17565b90508c613f4484612d39565b1490613f11565b50613f5582614b4c565b80613ac45750613f6482614b7a565b613ac4565b6001600160401b0381116121b15760051b60200190565b91909160009080825260209160118352604092838220541560001461421e57613faa858433614301565b60035495613fb7876133f0565b600355613fc384612d39565b906001600160a01b0381169081156141d057881561418257613fe489614b4c565b8015614173575b61412f578651613ffa8161266c565b85815287519061400982612636565b8a82528486830152868983015283606083015286608083015260a08201526005548a8752600686528089882055600160401b81101561411b57947f6d811e6a20ae5461a4ef22a6998c1d958defe727f1cc522b6eb792bc8e6f7266999897948b809561409a82613d249b976131a8600080516020614e55833981519152986138088e6140fe9f600101600555612cfe565b85600080516020614e758339815191528180a483857fe4f48c240d3b994948aa54f3e2f5fca59263dfe1d52b6e4cf39a5d249b5ccb658280a4838352600681526140e688842054612cfe565b50508751838152a36140f9858883614591565b612d39565b915192839286846040919493926060820195825260208201520152565b634e487b7160e01b87526041600452602487fd5b865162461bcd60e51b815260048101859052601d60248201527f455243333532353a20746f6b656e20616c7265616479206d696e7465640000006044820152606490fd5b5061417d89614b7a565b613feb565b865162461bcd60e51b815260048101859052602160248201527f455243333532353a2063616e6e6f74206d696e74207a65726f20746f6b656e496044820152601960fa1b6064820152608490fd5b865162461bcd60e51b815260048101859052602160248201527f455243333532353a206d696e7420746f20746865207a65726f206164647265736044820152607360f81b6064820152608490fd5b600e5484516307a42e0160e11b8152600481018590526001600160a01b0397881660248201526044810187905291969192918791849160649183918691165af19586156142f557819661429e575b50505090613d246140fe7f6d811e6a20ae5461a4ef22a6998c1d958defe727f1cc522b6eb792bc8e6f72669493612d39565b909180939650813d83116142ee575b6142b78183612687565b8101031261029d57505192613d246140fe7f6d811e6a20ae5461a4ef22a6998c1d958defe727f1cc522b6eb792bc8e6f726661426c565b503d6142ad565b508351903d90823e3d90fd5b61430b8183614391565b6143158383613079565b1580614385575b6143265750505050565b838110614340576134679361433a91613300565b916143bf565b60405162461bcd60e51b815260206004820152601f60248201527f455243333532353a20696e73756666696369656e7420616c6c6f77616e6365006044820152606490fd5b5060001981141561431c565b61439a81614bf0565b600052600460205260406000209060018060a01b031660005260205260406000205490565b6001600160a01b0380831693919284156144a857836143dd91614500565b1561442b575b5060207f621b050de0ad08b51d19b48b3e6df75348c4de6bdd93e81b252ca62e28265b1b918360005260048252604060002085600052825280604060002055604051908152a3565b908260005260066020526005614445604060002054612cfe565b500190815492600160401b8410156121b1578561448b8560209560017f621b050de0ad08b51d19b48b3e6df75348c4de6bdd93e81b252ca62e28265b1b98018155613061565b909283549160031b90811b9283911b1691191617905591506143e3565b60405162461bcd60e51b815260206004820152602a60248201527f455243333532353a20617070726f76652076616c756520746f20746865207a65604482015269726f206164647265737360b01b6064820152608490fd5b600090828252600660209080825260409061451d82862054612cfe565b509260058094015496865b88811061453b5750505050505050905090565b8188528383526145598187614552888c2054612cfe565b5001613061565b905460039190911b1c6001600160a01b03908116908816146145835761457e906133f0565b614528565b505050505050505050600190565b61459a81614b4c565b8015614827575b156147d2576145af82614b4c565b80156147c3575b156147705780600052602092600684526040926145d68460002054612cfe565b5081600052600686526145ec8560002054612cfe565b5090600281019081549085821061471957600101546001840154036146be579160029161461f8661465c98979695613300565b90550161462d838254612bea565b90558083600080516020614e55833981519152888851868152a38451926146538461266c565b6000845261484e565b15614665575050565b60849250519062461bcd60e51b82526004820152602d60248201527f455243333532353a207472616e736665722072656a656374656420627920455260448201526c21999a991aa932b1b2b4bb32b960991b6064820152fd5b865162461bcd60e51b815260048101899052602e60248201527f455243333532353a207472616e7366657220746f20746f6b656e20776974682060448201526d191a5999995c995b9d081cdb1bdd60921b6064820152608490fd5b875162461bcd60e51b8152600481018a9052602a60248201527f455243333532353a20696e73756666696369656e742062616c616e636520666f60448201526939103a3930b739b332b960b11b6064820152608490fd5b60405162461bcd60e51b815260206004820152602560248201527f455243333532353a207472616e7366657220746f20696e76616c696420746f6b604482015264195b88125160da1b6064820152608490fd5b506147cd82614b7a565b6145b6565b60405162461bcd60e51b815260206004820152602760248201527f455243333532353a207472616e736665722066726f6d20696e76616c696420746044820152661bdad95b88125160ca1b6064820152608490fd5b5061483181614b7a565b6145a1565b90816020910312610b8157518015158103610b815790565b92909261485a84612fc1565b803b63ffffffff1615614983576040516301ffc9a760e01b8152629ce20b60e01b6004820181905295602095926001600160a01b0316918681602481865afa60009181614954575b506148bd5750505050505050506148b76134ce565b50600190565b1561494857600086946148fc604051978896879586948d865233600487015260248601526044850152606484015260a0608484015260a48301906127cf565b03925af191821561493c5760009261491f575b50506001600160e01b0319161490565b6149359250803d10613615576136068183612687565b388061490f565b6040513d6000823e3d90fd5b50505050505050600190565b614975919250883d8a1161497c575b61496d8183612687565b810190614836565b90386148a2565b503d614963565b5050505050600190565b909161499883614b4c565b80614b39575b8015614b2a575b15614ab3576149b382614b4c565b80614aa0575b80614a7d575b15614a235790614a1e826149f67fdf7a601a0a201ccd4b4bfcfd610913188d931867997223d226f85f2f2673988a95948433614301565b614a01818585614591565b604051938493846040919493926060820195825260208201520152565b0390a1565b600e546001600160a01b0316803b15610b8157604051630310ed7f60e41b8152600481019390935260248301939093526044820152906000908290606490829084905af1801561493c57614a745750565b612c9690612623565b50614a8783614b4c565b80156149bf5750614a9783612d39565b600c54146149bf565b50614aaa82612d39565b600c54146149b9565b60a460405162461bcd60e51b815260206004820152604460248201527f546f6b656e204944206f66207265636569766572206e6f74207265636f676e6960448201527f7a6564206279207468697320636f6e7472616374206f722074686520726567696064820152637374727960e01b6084820152fd5b50614b3483614b7a565b6149a5565b50614b4383612d39565b600c541461499e565b60055415159081614b5b575090565b8091506000526006602052614b74604060002054612cfe565b50541490565b8060005260116020526040600020541590811591614b96575090565b600e546040516341ce4b3f60e01b81526004810192909252909150602090829060249082906001600160a01b03165afa90811561493c57600091614bd8575090565b612715915060203d811161497c5761496d8183612687565b612c9690614bfd81614b4c565b908115614c22575b8115614c12575b50612f75565b614c1c9150614b7a565b38614c0c565b9050614c2d81614b7a565b90614c05565b614c3c81614bf0565b614c4581614b4c565b80614cd2575b15614c595761271590613255565b600090815260116020526040812054602060018060a01b03600e541691602460405180948193631398fee160e31b835260048301525afa918215611fb8578092614ca257505090565b9091506020823d8211614cca575b81614cbd60209383612687565b8101031261029d57505190565b3d9150614cb0565b50614cdc81612d39565b600c5414614c4b565b614cee81614bf0565b614cf781614b4c565b80614da2575b15614d0b5761271590612fc1565b60018060a01b0380600e54169160009081526011602052602060408220546024604051809681936331a9108f60e11b835260048301525afa928315614d95578193614d565750505090565b909192506020813d8211614d8d575b81614d7260209383612687565b81010312610af35751918216820361029d57503880806130a4565b3d9150614d65565b50604051903d90823e3d90fd5b50614dac81612d39565b600c5414614cfd565b8051821015612c085760209160051b010190565b90614dd382614bf0565b614ddc82614b4c565b80614e41575b15614df05761271591614391565b602060018060a01b0391604483600e541660009586526011845260408620549060405195869485936338d1782f60e21b855260048501521660248301525afa918215611fb8578092614ca257505090565b50614e4b82612d39565b600c5414614de256fe0b2aac84f3ec956911fd78eae5311062972ff949f38412e8da39069d9f068cc6ddf252ad1be2c89b69c2b068fc378daa952ba7f163c4a11628f55a4df523b3ef519b8a896d3cf44bd2d0545987d41a13bfb2ba37ce6ce401c753218178535608a26469706673582212204d54cbee6f248db551f3c2f818713e3142b1247bfd8345a157ad0fddc17a002164736f6c634300081100336080604052346200048657620020c5803803806200001d816200048b565b9283398101608082820312620004865781516001600160401b0391908281116200048657816200004f918501620004b1565b91602092838501518281116200048657836200006d918701620004b1565b92604086015183811162000486576060916200008b918801620004b1565b9501516001600160a01b03811695908690036200048657815193838511620002c3576001948554938685811c951680156200047b575b88861014620002a2578190601f9586811162000425575b508890868311600114620003bd57600092620003b1575b5050600019600383901b1c191690861b1785555b805190848211620002c357600254908682811c92168015620003a6575b88831014620002a25781858493116200034f575b508790858311600114620002e557600092620002d9575b5050600019600383901b1c191690851b176002555b8051928311620002c35760039485548581811c91168015620002b8575b82821014620002a25783811162000257575b5080928411600114620001ed5750928293918392600094620001e1575b50501b9160001990841b1c19161790555b600080546001600160a01b031916919091179055604051611ba19081620005248239f35b015192503880620001ac565b919083601f1981168760005284600020946000905b888383106200023c575050501062000223575b505050811b019055620001bd565b015160001983861b60f8161c1916905538808062000215565b85870151885590960195948501948793509081019062000202565b86600052816000208480870160051c82019284881062000298575b0160051c019086905b8281106200028b5750506200018f565b600081550186906200027b565b9250819262000272565b634e487b7160e01b600052602260045260246000fd5b90607f16906200017d565b634e487b7160e01b600052604160045260246000fd5b0151905038806200014b565b90879350601f198316916002600052896000209260005b8b8282106200033857505084116200031e575b505050811b0160025562000160565b015160001960f88460031b161c191690553880806200030f565b8385015186558b97909501949384019301620002fc565b9091506002600052876000208580850160051c8201928a86106200039c575b918991869594930160051c01915b8281106200038c57505062000134565b600081558594508991016200037c565b925081926200036e565b91607f169162000120565b015190503880620000ef565b90889350601f19831691846000528a6000209260005b8c8282106200040e5750508411620003f4575b505050811b01855562000103565b015160001960f88460031b161c19169055388080620003e6565b8385015186558c97909501949384019301620003d3565b90915087600052886000208680850160051c8201928b861062000471575b918a91869594930160051c01915b82811062000461575050620000d8565b600081558594508a910162000451565b9250819262000443565b94607f1694620000c1565b600080fd5b6040519190601f01601f191682016001600160401b03811183821017620002c357604052565b919080601f84011215620004865782516001600160401b038111620002c357602090620004e7601f8201601f191683016200048b565b92818452828287010111620004865760005b8181106200050f57508260009394955001015290565b8581018301518482018401528201620004f956fe608060408181526004908136101561001657600080fd5b600092833560e01c9081631375d843146113cd57508063246a908b146112cf57806355f804b31461118b57806364140ec01461108c5780636c0360eb14610fcd5780636c037f8a14610d0f57806371f0442e14610c7b578063725fa09c146108c05780637e468a51146107c1578063842251d414610685578063894b4c2e146101755763b3154c08146100a857600080fd5b34610171576020918260031936011261016d5780358452825280832091815192848154906100d5826118ef565b80875292600192808416908115610149575060011461010e575b61010a8787610100828c03836114e3565b5191829182611485565b0390f35b9080949750528583205b828410610136575050508261010a94610100928201019438806100ef565b8054868501880152928601928101610118565b60ff19168887015250505050151560051b83010192506101008261010a38806100ef565b8380fd5b8280fd5b50903461017157602092836003193601126106825782516306fdde0360e01b81529180359082848281335afa938415610678578394610654575b506101b9826117ac565b926102056022875180968a6101d78184019a8b815193849201611462565b820161202360f01b8c8201526101f68c83519384918785019101611462565b010360028101875201856114e3565b828152818752858120865181549391899184610220876118ef565b80835284830193600198868a821691826000146106345750506001146105fb575b505090610254816102c9949303826114e3565b6102e561026030611a28565b898852600686526102d78d808a209a60058952818b2091519788948a86019a6102ac61028b8d611929565b91692f636f6e74726163742f60b01b83528351938491600a85019101611462565b019c6011662f746f6b656e2f60c81b9e8f600a82015201906119a5565b602f60f81b815201906119a5565b03601f1981018552846114e3565b8a51631398fee160e31b81528581018990528c81602481335afa80156105c25787906105cc575b61031691506117ac565b8b5163131f9f3f60e11b8152958601899052948c81602481335afa9081156105c2578d918d918991610589575b5061034d906117ac565b9761035733611a28565b9a815260068352208c51713d91383937b832b93a34b2b9afbab934911d60711b818401908152601160f91b60328301529a90998a93909161039a60338601611929565b9068636f6e74726163742f60b81b825280518093600984019201916103be92611462565b019060098201526010016103d1916119a5565b6f17b83937b832b93a34b2b9973539b7b760811b815261227d60f01b601082015203600d198101885260120161040790886114e3565b8a51998a998d683d913730b6b2911d1160b91b908c015251908160298c0161042e92611462565b890190701116113232b9b1b934b83a34b7b7111d1160791b6029830152519182603a830161045b92611462565b01906a11161134b6b0b3b2911d1160a91b603a8301525191826045830161048192611462565b016c1116113130b630b731b2911d1160991b6045820152815191828a605284019201916104ad92611462565b016911161139b637ba111d1160b11b60528201528151918289605c84019201916104d692611462565b01906e111611383937b832b93a34b2b9911d60891b605c830152519182606b830161050092611462565b01606b8101607d60f81b905203604c81018252606c0161052090826114e3565b61052990611631565b81517f646174613a6170706c69636174696f6e2f6a736f6e3b6261736536342c00000084820152815190938492610567918391603d86019101611462565b810103601d81018352603d0161057d90836114e3565b5161010a819282611485565b928092508391503d83116105bb575b6105a281836114e3565b810103126105b7578b61034d8e925190610343565b8680fd5b503d610598565b8c513d89823e3d90fd5b508c81813d83116105f4575b6105e281836114e3565b810103126105b757610316905161030c565b503d6105d8565b8592508752818720908888925b82841061061e5750505082010161025482610241565b80548487018601528794909301928a9101610608565b60ff1916875292151560051b850190920192506102549150839050610241565b6106719194503d8085833e61066981836114e3565b8101906115a0565b92386101af565b85513d85823e3d90fd5b80fd5b508290346107bd576106963661156d565b939083526020916006835283209184519167ffffffffffffffff83116107aa57506106c183546118ef565b601f8111610767575b5080601f831160011461070557508394829394926106fa575b50508160011b916000199060031b1c191617905580f35b0151905084806106e3565b90601f198316958486528286209286905b88821061074f57505083600195969710610736575b505050811b01905580f35b015160001960f88460031b161c1916905584808061072b565b80600185968294968601518155019501930190610716565b838552818520601f840160051c8101918385106107a0575b601f0160051c01905b81811061079557506106ca565b858155600101610788565b909150819061077f565b634e487b7160e01b855260419052602484fd5b5080fd5b508290346107bd576107d23661156d565b939083526020916007835283209184519167ffffffffffffffff83116107aa57506107fd83546118ef565b601f811161087d575b5080601f831160011461083557508394829394926106fa5750508160011b916000199060031b1c191617905580f35b90601f198316958486528286209286905b8882106108655750508360019596971061073657505050811b01905580f35b80600185968294968601518155019501930190610846565b838552818520601f840160051c8101918385106108b6575b601f0160051c01905b8181106108ab5750610806565b85815560010161089e565b9091508190610895565b50913461068257806003193601126106825782516306fdde0360e01b815281818481335afa908115610c71578291610c57575b508351829060025492610905846118ef565b9586835260209683888101956001978a8982169182600014610c3c575050600114610be1575b610937925003846114e3565b61094033611a28565b9588519586898101986109528a611929565b68636f6e74726163742f60b81b81526109758c8351938491600985019101611462565b01602f60f81b600982015283906003549361098f856118ef565b94818116908115610bc05750600114610b61575b50506109b8925003601f1981018852876114e3565b8789518093633e7e866960e01b825281335afa918215610b55578192610b17575b5050610ac9605a888a61010a9b9961010099610a7f603d9a610b079e9a610a5c610ace9b610a0c60ff610a329d166117ac565b97519b8c99683d913730b6b2911d1160b91b818c0152825192839160298d019101611462565b880191701116113232b9b1b934b83a34b7b7111d1160791b6029840152518093603a840190611462565b01916a11161134b6b0b3b2911d1160a91b603a8401525180936045840190611462565b01721116113b30b63ab2a232b1b4b6b0b639911d1160691b6045820152610aaf825180938a605885019101611462565b0161227d60f01b605882015203603a8101845201826114e3565b611631565b845195827f646174613a6170706c69636174696f6e2f6a736f6e3b6261736536342c000000889485015282519283918686019101611462565b810103601d8101855201836114e3565b9091508781813d8311610b4e575b610b2f81836114e3565b810103126107bd57519060ff821682036106825750610ac9605a6109d9565b503d610b25565b508851903d90823e3d90fd5b6003865290915084908c7fc2575a0e9e593c00f959f8c92f12db2869c3395a3b0502d05e2516446f71f85b5b868410610ba857505050506109b892600a91010138806109a3565b8054858501600a01528c95509201918d908201610b8d565b9050600a93506109b895915060ff19168383015280151502010138806109a3565b505060028752838888887f405787fa12a823e0f2b7631cc41b3ba8828b3321ca811111fa75cd3aa3bb5ace5b858310610c23575050610937935082010161092b565b80919294505483858a0101520191018990888793610c0d565b60ff1916895261093794151560051b840101915061092b9050565b610c6b91503d8084833e61066981836114e3565b386108f3565b84513d84823e3d90fd5b5034610171576020918260031936011261016d57358352600582528083209181519284815490610caa826118ef565b808752926001928084169081156101495750600114610cd45761010a8787610100828c03836114e3565b9080949750528583205b828410610cfc575050508261010a94610100928201019438806100ef565b8054868501880152928601928101610cde565b5090346101715760209283600319360112610682578054835163ec327a2160e01b815283358185018190529092916001600160a01b0316908284602481855afa938415610fc3578394610fa7575b50855163bc74ebb960e01b8152858101829052948386602481865afa958615610f9d578496610f81575b5086516309c3dd8760e01b80825282820184905290938585602481845afa948515610f7757918a9594939187938496610f56575b5090602491610dfb60268d518a652f696d61676560d01b81610de7849e85019d8e815193849201611462565b83019182015203600681018b5201896114e3565b8b51958694859384528301525afa938415610f4b578094610f2e575b50508551918288808201868197519283910191610e3392611462565b81018981016f17b83937b832b93a34b2b9973539b7b760811b905203601081018452603001610e6290846114e3565b8651958695683d913730b6b2911d1160b91b8a880152805190818b60298a01920191610e8d92611462565b8601701116113232b9b1b934b83a34b7b7111d1160791b6029820152815191828b603a8401920191610ebe92611462565b01906a11161134b6b0b3b2911d1160a91b603a83015251918260458301610ee492611462565b01906e111611383937b832b93a34b2b9911d60891b604583015251918260548301610f0e92611462565b0160548101607d60f81b90520360358101825260550161052090826114e3565b610f439294503d8091833e61066981836114e3565b913880610e17565b8751903d90823e3d90fd5b602492919650610f6f903d8087833e61066981836114e3565b959091610dbb565b89513d88823e3d90fd5b610f969196503d8086833e61066981836114e3565b9438610d87565b87513d86823e3d90fd5b610fbc9194503d8085833e61066981836114e3565b9238610d5d565b86513d85823e3d90fd5b8382346107bd57816003193601126107bd57805190826001805491610ff1836118ef565b80865292828116908115611064575060011461101a575b5050506101008261010a9403836114e3565b9450808552600080516020611b4c8339815191525b82861061104c5750505061010082602061010a9582010194611008565b8054602087870181019190915290950194810161102f565b61010a97508693506020925061010094915060ff191682840152151560051b82010194611008565b508290346107bd5761109d3661156d565b939083526020916005835283209184519167ffffffffffffffff83116107aa57506110c883546118ef565b601f8111611148575b5080601f831160011461110057508394829394926106fa5750508160011b916000199060031b1c191617905580f35b90601f198316958486528286209286905b8882106111305750508360019596971061073657505050811b01905580f35b80600185968294968601518155019501930190611111565b838552818520601f840160051c810191838510611181575b601f0160051c01905b81811061117657506110d1565b858155600101611169565b9091508190611160565b828434610682576020806003193601126107bd5767ffffffffffffffff833581811161016d576111be9036908601611521565b9384519182116112bc57506001916111d683546118ef565b601f811161126a575b5080601f8311600114611219575083948293949261120e575b5050600019600383901b1c191690821b17905580f35b0151905084806111f8565b838552601f19831695600080516020611b4c833981519152929186905b888210611253575050838596971061073657505050811b01905580f35b808785968294968601518155019501930190611236565b838552600080516020611b4c833981519152601f840160051c8101918385106112b2575b601f0160051c019084905b8281106112a75750506111df565b868155018490611299565b909150819061128e565b634e487b7160e01b845260419052602483fd5b508290346107bd576112e03661156d565b9390835260209181835283209184519167ffffffffffffffff83116107aa575061130a83546118ef565b601f811161138a575b5080601f831160011461134257508394829394926106fa5750508160011b916000199060031b1c191617905580f35b90601f198316958486528286209286905b8882106113725750508360019596971061073657505050811b01905580f35b80600185968294968601518155019501930190611353565b838552818520601f840160051c8101918385106113c3575b601f0160051c01905b8181106113b85750611313565b8581556001016113ab565b90915081906113a2565b9290503461016d576020908160031936011261145e57358452600681528184208054856113f9826118ef565b8087529260019280841690811561014957506001146114235761010a8787610100828c03836114e3565b9080949750528583205b82841061144b575050508261010a94610100928201019438806100ef565b805486850188015292860192810161142d565b8480fd5b60005b8381106114755750506000910152565b8181015183820152602001611465565b604091602082526114a58151809281602086015260208686019101611462565b601f01601f1916010190565b6060810190811067ffffffffffffffff8211176114cd57604052565b634e487b7160e01b600052604160045260246000fd5b90601f8019910116810190811067ffffffffffffffff8211176114cd57604052565b67ffffffffffffffff81116114cd57601f01601f191660200190565b81601f820112156115685780359061153882611505565b9261154660405194856114e3565b8284526020838301011161156857816000926020809301838601378301015290565b600080fd5b90604060031983011261156857600435916024359067ffffffffffffffff82116115685761159d91600401611521565b90565b6020818303126115685780519067ffffffffffffffff8211611568570181601f820112156115685780516115d381611505565b926115e160405194856114e3565b818452602082840101116115685761159d9160208085019101611462565b9061160982611505565b61161660405191826114e3565b8281528092611627601f1991611505565b0190602036910137565b8051156117875760405190611645826114b1565b604082527f4142434445464748494a4b4c4d4e4f505152535455565758595a61626364656660208301527f6768696a6b6c6d6e6f707172737475767778797a303132333435363738392b2f60408301528051600291828201809211611771576003918290046001600160fe1b0381168103611771576116c7908495941b6115ff565b936020850193829183518401906020820192835194600085525b83811061172057505050505251068060011461170d57600214611702575090565b603d90600019015390565b50603d9081600019820153600119015390565b87600491999293949901918251600190603f9082828260121c16880101518453828282600c1c16880101518385015382828260061c16880101518885015316850101518982015301979291906116e1565b634e487b7160e01b600052601160045260246000fd5b506040516020810181811067ffffffffffffffff8211176114cd576040526000815290565b806000917a184f03e93ff9f4daa797ed6e38ed64bf6a1f010000000000000000808210156118e1575b506d04ee2d6d415b85acef8100000000808310156118d2575b50662386f26fc10000808310156118c3575b506305f5e100808310156118b4575b50612710808310156118a5575b506064821015611895575b600a8092101561188b575b6001908160216118438287016115ff565b95860101905b611855575b5050505090565b600019019083906f181899199a1a9b1b9c1cb0b131b232b360811b8282061a83530491821561188657919082611849565b61184e565b9160010191611832565b9190606460029104910191611827565b6004919392049101913861181c565b6008919392049101913861180f565b60109193920491019138611800565b602091939204910191386117ee565b6040935081049150386117d5565b90600182811c9216801561191f575b602083101461190957565b634e487b7160e01b600052602260045260246000fd5b91607f16916118fe565b9060009160019081549161193c836118ef565b92818116908115611992575060011461195457505050565b809192939450600052600080516020611b4c833981519152906000915b84831061197f575050500190565b8181602092548587015201920191611971565b60ff191683525050811515909102019150565b6000929181546119b4816118ef565b92600191808316908115611a0d57506001146119d1575b50505050565b90919293945060005260209081600020906000915b8583106119fc57505050500190388080806119cb565b8054858401529183019181016119e6565b60ff19168452505050811515909102019150388080806119cb565b604051906001600160a01b0316611a3e826114b1565b602a82526020908183016040368237835115611b3557603090538251600190811015611b3557607860218501536029905b808211611ac3575050611a80575090565b6064906040519062461bcd60e51b825280600483015260248201527f537472696e67733a20686578206c656e67746820696e73756666696369656e746044820152fd5b9091600f81166010811015611b20578551841015611b20576f181899199a1a9b1b9c1cb0b131b232b360811b901a85840185015360041c918015611b0b576000190190611a6f565b60246000634e487b7160e01b81526011600452fd5b60246000634e487b7160e01b81526032600452fd5b634e487b7160e01b600052603260045260246000fdfeb10e2d527612073b26eecdfd717e6a320cf44b4afac2b0732d9fcbe2b7fa0cf6a264697066735822122061ff1a13aed041bfa23394cc44d48966f9ae8be5bf078d1de33aa23665105e1b64736f6c634300081100332f8788117e7eff1d82e926ec794901d17c78024a50270940304540a733656f0d",
  "linkReferences": {},
  "deployedLinkReferences": {}
}