{
  "_format": "hh-sol-artifact-1",
  "contractName": "OrderCredit",
  "sourceName": "contracts/OrderCredit.sol",
  "abi": [
    {
      "inputs": [
        {
          "internalType": "address",
          "name": "revenueAddress_",
          "type": "address"
        },
        {
          "internalType": "address",
          "name": "adminAddress_",
          "type": "address"
        },
        {
          "internalType": "address",
          "name": "slotRegistry_",
          "type": "address"
        },
        {
          "internalType": "address",
          "name": "mktAdmin_",
          "type": "address"
        },
        {
          "internalType": "uint256",
          "name": "defaultSlot_",
          "type": "uint256"
        },
        {
          "internalType": "string",
          "name": "name_",
          "type": "string"
        },
        {
          "internalType": "string",
          "name": "symbol_",
          "type": "string"
        },
        {
          "internalType": "string",
          "name": "baseuri_",
          "type": "string"
        },
        {
          "internalType": "string",
          "name": "contractDescription_",
          "type": "string"
        },
        {
          "internalType": "string",
          "name": "contractImage_",
          "type": "string"
        },
        {
          "internalType": "uint8",
          "name": "decimals_",
          "type": "uint8"
        }
      ],
      "stateMutability": "nonpayable",
      "type": "constructor"
    },
    {
      "anonymous": false,
      "inputs": [
        {
          "indexed": true,
          "internalType": "address",
          "name": "_owner",
          "type": "address"
        },
        {
          "indexed": true,
          "internalType": "address",
          "name": "_approved",
          "type": "address"
        },
        {
          "indexed": true,
          "internalType": "uint256",
          "name": "_tokenId",
          "type": "uint256"
        }
      ],
      "name": "Approval",
      "type": "event"
    },
    {
      "anonymous": false,
      "inputs": [
        {
          "indexed": true,
          "internalType": "address",
          "name": "_owner",
          "type": "address"
        },
        {
          "indexed": true,
          "internalType": "address",
          "name": "_operator",
          "type": "address"
        },
        {
          "indexed": false,
          "internalType": "bool",
          "name": "_approved",
          "type": "bool"
        }
      ],
      "name": "ApprovalForAll",
      "type": "event"
    },
    {
      "anonymous": false,
      "inputs": [
        {
          "indexed": true,
          "internalType": "uint256",
          "name": "_tokenId",
          "type": "uint256"
        },
        {
          "indexed": true,
          "internalType": "address",
          "name": "_operator",
          "type": "address"
        },
        {
          "indexed": false,
          "internalType": "uint256",
          "name": "_value",
          "type": "uint256"
        }
      ],
      "name": "ApprovalValue",
      "type": "event"
    },
    {
      "anonymous": false,
      "inputs": [
        {
          "indexed": false,
          "internalType": "address",
          "name": "contractAddress",
          "type": "address"
        }
      ],
      "name": "MetadataDescriptor",
      "type": "event"
    },
    {
      "anonymous": false,
      "inputs": [
        {
          "indexed": false,
          "internalType": "uint256",
          "name": "tokenId",
          "type": "uint256"
        },
        {
          "indexed": false,
          "internalType": "uint256",
          "name": "slot",
          "type": "uint256"
        },
        {
          "indexed": false,
          "internalType": "uint256",
          "name": "value",
          "type": "uint256"
        }
      ],
      "name": "MintServiceToken",
      "type": "event"
    },
    {
      "anonymous": false,
      "inputs": [
        {
          "indexed": false,
          "internalType": "uint256",
          "name": "newTokenId",
          "type": "uint256"
        },
        {
          "indexed": false,
          "internalType": "uint256",
          "name": "slot",
          "type": "uint256"
        },
        {
          "indexed": false,
          "internalType": "uint256",
          "name": "value",
          "type": "uint256"
        }
      ],
      "name": "MintServiceTokenToAddress",
      "type": "event"
    },
    {
      "anonymous": false,
      "inputs": [
        {
          "indexed": true,
          "internalType": "bytes32",
          "name": "role",
          "type": "bytes32"
        },
        {
          "indexed": true,
          "internalType": "bytes32",
          "name": "previousAdminRole",
          "type": "bytes32"
        },
        {
          "indexed": true,
          "internalType": "bytes32",
          "name": "newAdminRole",
          "type": "bytes32"
        }
      ],
      "name": "RoleAdminChanged",
      "type": "event"
    },
    {
      "anonymous": false,
      "inputs": [
        {
          "indexed": true,
          "internalType": "bytes32",
          "name": "role",
          "type": "bytes32"
        },
        {
          "indexed": true,
          "internalType": "address",
          "name": "account",
          "type": "address"
        },
        {
          "indexed": true,
          "internalType": "address",
          "name": "sender",
          "type": "address"
        }
      ],
      "name": "RoleGranted",
      "type": "event"
    },
    {
      "anonymous": false,
      "inputs": [
        {
          "indexed": true,
          "internalType": "bytes32",
          "name": "role",
          "type": "bytes32"
        },
        {
          "indexed": true,
          "internalType": "address",
          "name": "account",
          "type": "address"
        },
        {
          "indexed": true,
          "internalType": "address",
          "name": "sender",
          "type": "address"
        }
      ],
      "name": "RoleRevoked",
      "type": "event"
    },
    {
      "anonymous": false,
      "inputs": [
        {
          "indexed": true,
          "internalType": "address",
          "name": "metadataDescriptor",
          "type": "address"
        }
      ],
      "name": "SetMetadataDescriptor",
      "type": "event"
    },
    {
      "anonymous": false,
      "inputs": [
        {
          "indexed": true,
          "internalType": "uint256",
          "name": "_tokenId",
          "type": "uint256"
        },
        {
          "indexed": true,
          "internalType": "uint256",
          "name": "_oldSlot",
          "type": "uint256"
        },
        {
          "indexed": true,
          "internalType": "uint256",
          "name": "_newSlot",
          "type": "uint256"
        }
      ],
      "name": "SlotChanged",
      "type": "event"
    },
    {
      "anonymous": false,
      "inputs": [
        {
          "indexed": true,
          "internalType": "address",
          "name": "_from",
          "type": "address"
        },
        {
          "indexed": true,
          "internalType": "address",
          "name": "_to",
          "type": "address"
        },
        {
          "indexed": true,
          "internalType": "uint256",
          "name": "_tokenId",
          "type": "uint256"
        }
      ],
      "name": "Transfer",
      "type": "event"
    },
    {
      "anonymous": false,
      "inputs": [
        {
          "indexed": true,
          "internalType": "uint256",
          "name": "_fromTokenId",
          "type": "uint256"
        },
        {
          "indexed": true,
          "internalType": "uint256",
          "name": "_toTokenId",
          "type": "uint256"
        },
        {
          "indexed": false,
          "internalType": "uint256",
          "name": "_value",
          "type": "uint256"
        }
      ],
      "name": "TransferValue",
      "type": "event"
    },
    {
      "anonymous": false,
      "inputs": [
        {
          "indexed": false,
          "internalType": "uint256",
          "name": "fromTokenId",
          "type": "uint256"
        },
        {
          "indexed": false,
          "internalType": "uint256",
          "name": "toTokenId",
          "type": "uint256"
        },
        {
          "indexed": false,
          "internalType": "uint256",
          "name": "value",
          "type": "uint256"
        }
      ],
      "name": "ValueTransfer",
      "type": "event"
    },
    {
      "inputs": [],
      "name": "DEFAULT_ADMIN_ROLE",
      "outputs": [
        {
          "internalType": "bytes32",
          "name": "",
          "type": "bytes32"
        }
      ],
      "stateMutability": "view",
      "type": "function"
    },
    {
      "inputs": [],
      "name": "MKT_ARBITRATOR_ROLE",
      "outputs": [
        {
          "internalType": "bytes32",
          "name": "",
          "type": "bytes32"
        }
      ],
      "stateMutability": "view",
      "type": "function"
    },
    {
      "inputs": [
        {
          "internalType": "string",
          "name": "uri_",
          "type": "string"
        }
      ],
      "name": "_setBaseURI",
      "outputs": [],
      "stateMutability": "nonpayable",
      "type": "function"
    },
    {
      "inputs": [
        {
          "internalType": "uint256",
          "name": "tokenId_",
          "type": "uint256"
        },
        {
          "internalType": "address",
          "name": "operator_",
          "type": "address"
        }
      ],
      "name": "allowance",
      "outputs": [
        {
          "internalType": "uint256",
          "name": "",
          "type": "uint256"
        }
      ],
      "stateMutability": "view",
      "type": "function"
    },
    {
      "inputs": [
        {
          "internalType": "address",
          "name": "to_",
          "type": "address"
        },
        {
          "internalType": "uint256",
          "name": "tokenId_",
          "type": "uint256"
        }
      ],
      "name": "approve",
      "outputs": [],
      "stateMutability": "payable",
      "type": "function"
    },
    {
      "inputs": [
        {
          "internalType": "uint256",
          "name": "tokenId_",
          "type": "uint256"
        },
        {
          "internalType": "address",
          "name": "to_",
          "type": "address"
        },
        {
          "internalType": "uint256",
          "name": "value_",
          "type": "uint256"
        }
      ],
      "name": "approve",
      "outputs": [],
      "stateMutability": "payable",
      "type": "function"
    },
    {
      "inputs": [
        {
          "internalType": "address",
          "name": "owner_",
          "type": "address"
        }
      ],
      "name": "balanceOf",
      "outputs": [
        {
          "internalType": "uint256",
          "name": "balance",
          "type": "uint256"
        }
      ],
      "stateMutability": "view",
      "type": "function"
    },
    {
      "inputs": [
        {
          "internalType": "uint256",
          "name": "tokenId_",
          "type": "uint256"
        }
      ],
      "name": "balanceOf",
      "outputs": [
        {
          "internalType": "uint256",
          "name": "",
          "type": "uint256"
        }
      ],
      "stateMutability": "view",
      "type": "function"
    },
    {
      "inputs": [],
      "name": "contractAdmin",
      "outputs": [
        {
          "internalType": "address",
          "name": "",
          "type": "address"
        }
      ],
      "stateMutability": "view",
      "type": "function"
    },
    {
      "inputs": [],
      "name": "contractURI",
      "outputs": [
        {
          "internalType": "string",
          "name": "",
          "type": "string"
        }
      ],
      "stateMutability": "view",
      "type": "function"
    },
    {
      "inputs": [],
      "name": "creditType",
      "outputs": [
        {
          "internalType": "string",
          "name": "",
          "type": "string"
        }
      ],
      "stateMutability": "view",
      "type": "function"
    },
    {
      "inputs": [
        {
          "internalType": "uint256",
          "name": "index",
          "type": "uint256"
        }
      ],
      "name": "dequeue",
      "outputs": [],
      "stateMutability": "nonpayable",
      "type": "function"
    },
    {
      "inputs": [
        {
          "internalType": "address",
          "name": "owner_",
          "type": "address"
        },
        {
          "internalType": "uint256",
          "name": "slot_",
          "type": "uint256"
        },
        {
          "internalType": "string",
          "name": "uuid_",
          "type": "string"
        },
        {
          "internalType": "string",
          "name": "token_description_",
          "type": "string"
        },
        {
          "internalType": "string",
          "name": "token_image_",
          "type": "string"
        }
      ],
      "name": "enqueue",
      "outputs": [
        {
          "internalType": "uint256",
          "name": "",
          "type": "uint256"
        }
      ],
      "stateMutability": "nonpayable",
      "type": "function"
    },
    {
      "inputs": [
        {
          "internalType": "uint256",
          "name": "tokenId_",
          "type": "uint256"
        }
      ],
      "name": "getApproved",
      "outputs": [
        {
          "internalType": "address",
          "name": "",
          "type": "address"
        }
      ],
      "stateMutability": "view",
      "type": "function"
    },
    {
      "inputs": [
        {
          "internalType": "bytes32",
          "name": "role",
          "type": "bytes32"
        }
      ],
      "name": "getRoleAdmin",
      "outputs": [
        {
          "internalType": "bytes32",
          "name": "",
          "type": "bytes32"
        }
      ],
      "stateMutability": "view",
      "type": "function"
    },
    {
      "inputs": [
        {
          "internalType": "uint256",
          "name": "tokenId",
          "type": "uint256"
        }
      ],
      "name": "getTokenDescription",
      "outputs": [
        {
          "internalType": "string",
          "name": "",
          "type": "string"
        }
      ],
      "stateMutability": "view",
      "type": "function"
    },
    {
      "inputs": [
        {
          "internalType": "uint256",
          "name": "tokenId",
          "type": "uint256"
        }
      ],
      "name": "getTokenImage",
      "outputs": [
        {
          "internalType": "string",
          "name": "",
          "type": "string"
        }
      ],
      "stateMutability": "view",
      "type": "function"
    },
    {
      "inputs": [
        {
          "internalType": "uint256",
          "name": "tokenId",
          "type": "uint256"
        }
      ],
      "name": "getTokenUUID",
      "outputs": [
        {
          "internalType": "string",
          "name": "",
          "type": "string"
        }
      ],
      "stateMutability": "view",
      "type": "function"
    },
    {
      "inputs": [
        {
          "internalType": "bytes32",
          "name": "role",
          "type": "bytes32"
        },
        {
          "internalType": "address",
          "name": "account",
          "type": "address"
        }
      ],
      "name": "grantRole",
      "outputs": [],
      "stateMutability": "nonpayable",
      "type": "function"
    },
    {
      "inputs": [
        {
          "internalType": "bytes32",
          "name": "role",
          "type": "bytes32"
        },
        {
          "internalType": "address",
          "name": "account",
          "type": "address"
        }
      ],
      "name": "hasRole",
      "outputs": [
        {
          "internalType": "bool",
          "name": "",
          "type": "bool"
        }
      ],
      "stateMutability": "view",
      "type": "function"
    },
    {
      "inputs": [
        {
          "internalType": "address",
          "name": "owner_",
          "type": "address"
        },
        {
          "internalType": "address",
          "name": "operator_",
          "type": "address"
        }
      ],
      "name": "isApprovedForAll",
      "outputs": [
        {
          "internalType": "bool",
          "name": "",
          "type": "bool"
        }
      ],
      "stateMutability": "view",
      "type": "function"
    },
    {
      "inputs": [],
      "name": "metadataDescriptor",
      "outputs": [
        {
          "internalType": "contract IERC3525MetadataDescriptor",
          "name": "",
          "type": "address"
        }
      ],
      "stateMutability": "view",
      "type": "function"
    },
    {
      "inputs": [
        {
          "internalType": "address",
          "name": "owner_",
          "type": "address"
        },
        {
          "internalType": "uint256",
          "name": "slot_",
          "type": "uint256"
        },
        {
          "internalType": "uint256",
          "name": "value_",
          "type": "uint256"
        },
        {
          "internalType": "string",
          "name": "uuid_",
          "type": "string"
        },
        {
          "internalType": "string",
          "name": "token_description_",
          "type": "string"
        },
        {
          "internalType": "string",
          "name": "token_image_",
          "type": "string"
        }
      ],
      "name": "mint",
      "outputs": [
        {
          "internalType": "uint256",
          "name": "",
          "type": "uint256"
        }
      ],
      "stateMutability": "nonpayable",
      "type": "function"
    },
    {
      "inputs": [],
      "name": "name",
      "outputs": [
        {
          "internalType": "string",
          "name": "",
          "type": "string"
        }
      ],
      "stateMutability": "view",
      "type": "function"
    },
    {
      "inputs": [
        {
          "internalType": "address",
          "name": "owner_",
          "type": "address"
        },
        {
          "internalType": "uint256",
          "name": "slot_",
          "type": "uint256"
        },
        {
          "internalType": "uint256",
          "name": "value_",
          "type": "uint256"
        },
        {
          "internalType": "uint256",
          "name": "discountBasisPts_",
          "type": "uint256"
        },
        {
          "internalType": "string",
          "name": "uuid_",
          "type": "string"
        },
        {
          "internalType": "string",
          "name": "token_description_",
          "type": "string"
        },
        {
          "internalType": "string",
          "name": "token_image_",
          "type": "string"
        }
      ],
      "name": "networkMintWithDiscount",
      "outputs": [
        {
          "internalType": "uint256",
          "name": "",
          "type": "uint256"
        }
      ],
      "stateMutability": "nonpayable",
      "type": "function"
    },
    {
      "inputs": [
        {
          "internalType": "address",
          "name": "owner_",
          "type": "address"
        },
        {
          "internalType": "uint256",
          "name": "slot_",
          "type": "uint256"
        },
        {
          "internalType": "uint256",
          "name": "value_",
          "type": "uint256"
        },
        {
          "internalType": "uint256",
          "name": "tVRate_",
          "type": "uint256"
        },
        {
          "internalType": "string",
          "name": "uuid_",
          "type": "string"
        },
        {
          "internalType": "string",
          "name": "token_description_",
          "type": "string"
        },
        {
          "internalType": "string",
          "name": "token_image_",
          "type": "string"
        }
      ],
      "name": "networkMintWithTVRate",
      "outputs": [
        {
          "internalType": "uint256",
          "name": "",
          "type": "uint256"
        }
      ],
      "stateMutability": "nonpayable",
      "type": "function"
    },
    {
      "inputs": [
        {
          "internalType": "uint256",
          "name": "tokenId_",
          "type": "uint256"
        }
      ],
      "name": "ownerOf",
      "outputs": [
        {
          "internalType": "address",
          "name": "owner_",
          "type": "address"
        }
      ],
      "stateMutability": "view",
      "type": "function"
    },
    {
      "inputs": [
        {
          "internalType": "bytes32",
          "name": "role",
          "type": "bytes32"
        },
        {
          "internalType": "address",
          "name": "account",
          "type": "address"
        }
      ],
      "name": "renounceRole",
      "outputs": [],
      "stateMutability": "nonpayable",
      "type": "function"
    },
    {
      "inputs": [
        {
          "internalType": "bytes32",
          "name": "role",
          "type": "bytes32"
        },
        {
          "internalType": "address",
          "name": "account",
          "type": "address"
        }
      ],
      "name": "revokeRole",
      "outputs": [],
      "stateMutability": "nonpayable",
      "type": "function"
    },
    {
      "inputs": [
        {
          "internalType": "address",
          "name": "from_",
          "type": "address"
        },
        {
          "internalType": "address",
          "name": "to_",
          "type": "address"
        },
        {
          "internalType": "uint256",
          "name": "tokenId_",
          "type": "uint256"
        }
      ],
      "name": "safeTransferFrom",
      "outputs": [],
      "stateMutability": "payable",
      "type": "function"
    },
    {
      "inputs": [
        {
          "internalType": "address",
          "name": "from_",
          "type": "address"
        },
        {
          "internalType": "address",
          "name": "to_",
          "type": "address"
        },
        {
          "internalType": "uint256",
          "name": "tokenId_",
          "type": "uint256"
        },
        {
          "internalType": "bytes",
          "name": "data_",
          "type": "bytes"
        }
      ],
      "name": "safeTransferFrom",
      "outputs": [],
      "stateMutability": "payable",
      "type": "function"
    },
    {
      "inputs": [
        {
          "internalType": "address",
          "name": "operator_",
          "type": "address"
        },
        {
          "internalType": "bool",
          "name": "approved_",
          "type": "bool"
        }
      ],
      "name": "setApprovalForAll",
      "outputs": [],
      "stateMutability": "nonpayable",
      "type": "function"
    },
    {
      "inputs": [
        {
          "internalType": "uint256",
          "name": "tokenId_",
          "type": "uint256"
        }
      ],
      "name": "slotOf",
      "outputs": [
        {
          "internalType": "uint256",
          "name": "",
          "type": "uint256"
        }
      ],
      "stateMutability": "view",
      "type": "function"
    },
    {
      "inputs": [
        {
          "internalType": "uint256",
          "name": "slot_",
          "type": "uint256"
        }
      ],
      "name": "slotURI",
      "outputs": [
        {
          "internalType": "string",
          "name": "",
          "type": "string"
        }
      ],
      "stateMutability": "view",
      "type": "function"
    },
    {
      "inputs": [
        {
          "internalType": "bytes4",
          "name": "interfaceId",
          "type": "bytes4"
        }
      ],
      "name": "supportsInterface",
      "outputs": [
        {
          "internalType": "bool",
          "name": "",
          "type": "bool"
        }
      ],
      "stateMutability": "view",
      "type": "function"
    },
    {
      "inputs": [],
      "name": "symbol",
      "outputs": [
        {
          "internalType": "string",
          "name": "",
          "type": "string"
        }
      ],
      "stateMutability": "view",
      "type": "function"
    },
    {
      "inputs": [
        {
          "internalType": "uint256",
          "name": "index_",
          "type": "uint256"
        }
      ],
      "name": "tokenByIndex",
      "outputs": [
        {
          "internalType": "uint256",
          "name": "",
          "type": "uint256"
        }
      ],
      "stateMutability": "view",
      "type": "function"
    },
    {
      "inputs": [
        {
          "internalType": "address",
          "name": "owner_",
          "type": "address"
        },
        {
          "internalType": "uint256",
          "name": "index_",
          "type": "uint256"
        }
      ],
      "name": "tokenOfOwnerByIndex",
      "outputs": [
        {
          "internalType": "uint256",
          "name": "",
          "type": "uint256"
        }
      ],
      "stateMutability": "view",
      "type": "function"
    },
    {
      "inputs": [
        {
          "internalType": "uint256",
          "name": "tokenId_",
          "type": "uint256"
        }
      ],
      "name": "tokenURI",
      "outputs": [
        {
          "internalType": "string",
          "name": "",
          "type": "string"
        }
      ],
      "stateMutability": "view",
      "type": "function"
    },
    {
      "inputs": [],
      "name": "totalSupply",
      "outputs": [
        {
          "internalType": "uint256",
          "name": "",
          "type": "uint256"
        }
      ],
      "stateMutability": "view",
      "type": "function"
    },
    {
      "inputs": [
        {
          "internalType": "uint256",
          "name": "fromTokenId_",
          "type": "uint256"
        },
        {
          "internalType": "address",
          "name": "to_",
          "type": "address"
        },
        {
          "internalType": "uint256",
          "name": "value_",
          "type": "uint256"
        }
      ],
      "name": "transferFrom",
      "outputs": [
        {
          "internalType": "uint256",
          "name": "",
          "type": "uint256"
        }
      ],
      "stateMutability": "payable",
      "type": "function"
    },
    {
      "inputs": [
        {
          "internalType": "address",
          "name": "from_",
          "type": "address"
        },
        {
          "internalType": "address",
          "name": "to_",
          "type": "address"
        },
        {
          "internalType": "uint256",
          "name": "tokenId_",
          "type": "uint256"
        }
      ],
      "name": "transferFrom",
      "outputs": [],
      "stateMutability": "payable",
      "type": "function"
    },
    {
      "inputs": [
        {
          "internalType": "uint256",
          "name": "fromTokenId_",
          "type": "uint256"
        },
        {
          "internalType": "uint256",
          "name": "toTokenId_",
          "type": "uint256"
        },
        {
          "internalType": "uint256",
          "name": "value_",
          "type": "uint256"
        }
      ],
      "name": "transferFrom",
      "outputs": [],
      "stateMutability": "payable",
      "type": "function"
    },
    {
      "inputs": [],
      "name": "valueDecimals",
      "outputs": [
        {
          "internalType": "uint8",
          "name": "",
          "type": "uint8"
        }
      ],
      "stateMutability": "view",
      "type": "function"
    }
  ],
  "bytecode": "0x60a08060405234620007e8576000608052620073f98038038091620000258285620007ed565b8339810190610160818303126200053957620000418162000827565b50620000506020820162000827565b906200005f6040820162000827565b916200006e6060830162000827565b9360808301519160a084015160018060401b0381116200053957826200009691860162000861565b60c08501519093906001600160401b038111620005395783620000bb91870162000861565b60e08601519094906001600160401b038111620005395784620000e091880162000861565b6101008701519095906001600160401b0381116200053957856200010691890162000861565b6101208801519095906001600160401b0381116200053957610140916200012f918a0162000861565b97015160ff81168103620005395760408051939084016001600160401b03811185821017620004fb5760405260078452661bdc99195c995960ca1b602085015280516001600160401b038111620004fb57608051805490600182811c92168015620007dd575b6020831014620006185750601f811162000791575b5060805191602092601f83116001146200072157506080519283918362000715575b50508160011b916000199060031b1c19161790555b81516001600160401b038111620004fb57600154608051600182811c921680156200070a575b6020831014620006185750601f8111620006bd575b50608051602090601f8311600114620006465750819060ff94608051926200063a575b50508160011b916000199060031b1c1916176001555b600280549190921660ff19909116179055600b829055600c80546001600160a01b038981166001600160a01b031992831617909255600a8054928616929091169190911790558051906001600160401b038211620004fb57600d54608051600182811c921680156200062f575b60208310146200061857509081601f849311620005be575b5060805190602091601f84116001146200054b5750608051926200053f575b50508160011b916000199060031b1c191617600d555b600c546001600160a01b031690813b15620005395760405163152f0eb560e01b81526001600160a01b0390931660048401526024830152608051908290604490829084905af180156200052c5762000513575b5060405192612423808501939091906001600160401b03851186861017620004fb57606093620003aa620003b992620003c89562004fd68a39608088526080880190620008bc565b908682036020880152620008bc565b908482036040860152620008bc565b6001600160a01b03909416910152608051918190039082f0908115620004ef575060018060a01b031660018060a01b031960085416176008557f1cd6d520d98babae1045eb69c31ecab800996aa332094cb55c0ac10362e9b0c99081608051526009602052608051604081209160018060a01b0316918260005260205260ff60406000205416156200049a575b7f9ac4f8025631594629895b778dc5ee88d01673a254a2291f6b6b174ad25230ca602060018060a01b0360085416604051908152a16040516146f29081620008e48239f35b82905260096020526080519160408320826000526020526040600020600160ff198254161790557f2f8788117e7eff1d82e926ec794901d17c78024a50270940304540a733656f0d339380a438808062000455565b604051903d90823e3d90fd5b634e487b7160e01b6080515260416004526024608051fd5b6001600160401b038111620004fb576040523862000362565b6040513d608051823e3d90fd5b60805180fd5b015190503880620002f9565b600d91945052608051906020822091935b601f1984168510620005a2576001945083601f1981161062000588575b505050811b01600d556200030f565b015160001960f88460031b161c1916905538808062000579565b818101518355602094850194600190930192909101906200055c565b909150600d6080515260805160208120601f850160051c81016020861062000610575b9085949392915b601f840160051c820181106200060157505050620002da565b828155869550600101620005e8565b5080620005e1565b634e487b7160e01b90526022600452608051602490fd5b91607f1691620002c2565b0151905038806200023f565b60019094929394526080519160208320925b601f1985168110620006a4575091839160019360ff9695601f198116106200068a575b505050811b0160015562000255565b015160001960f88460031b161c191690553880806200067b565b9192602060018192868501518155019401920162000658565b60016080515260805160208120601f840160051c81016020851062000702575b601f840160051c82018110620006f6575050506200021c565b828155600101620006dd565b5080620006dd565b91607f169162000207565b015190503880620001cc565b80526080516020812090938493925b601f198416851062000775576001945083601f198116106200075b575b505050811b019055620001e1565b015160001960f88460031b161c191690553880806200074d565b8181015183556020948501946001909301929091019062000730565b608051805260805160208120601f840160051c810160208510620007d5575b601f840160051c82018110620007c957505050620001aa565b828155600101620007b0565b5080620007b0565b91607f169162000195565b600080fd5b601f909101601f19168101906001600160401b038211908210176200081157604052565b634e487b7160e01b600052604160045260246000fd5b51906001600160a01b0382168203620007e857565b60005b838110620008505750506000910152565b81810151838201526020016200083f565b81601f82011215620007e85780516001600160401b03811162000811576040519262000898601f8301601f191660200185620007ed565b81845260208284010111620007e857620008b991602080850191016200083c565b90565b90602091620008d7815180928185528580860191016200083c565b601f01601f191601019056fe608060408181526004918236101561001657600080fd5b600090813560e01c90816301ffc9a714611a195750806306fdde0314611914578063081812fc146118f5578063095ea7b3146117c157806309c3dd87146114d25780630f485c021461148a5780631375d8431461142557806318160ddd1461140657806323b872dd146113e1578063248a9ca3146113b6578063263f3e7e146113975780632f2ff15d146112ea5780632f745c5914611241578063310ed7f01461112657806331b5b9071461109d57806336568abe1461100c5780633e7e866914610fea57806341815ee414610fb957806342842e0e14610f96578063476de4a814610f145780634f6ccce714610e8e57806353a3a30014610d105780636352211e14610ce057806370a0823114610cba57806371f0442e14610c555780637795524514610c2c5780638005f5db14610ba7578063840f711314610b7e5780638cb0a511146109e757806391d14854146109a157806395d89b41146108945780639cc7f70814610875578063a217fddf1461085a578063a22cb46514610789578063a7c9f2d61461074e578063b3154c08146106e9578063b88d4fde1461068e578063bd8c65071461046c578063c87b56dd146103ea578063d547741f146103ab578063e345e0bc14610384578063e8a3d485146102f2578063e985e9c51461029b5763f4b724bc1461020857600080fd5b346102905760a036600319011261029057610221611ab5565b926001600160401b0390604435828111610297576102429036908301611c12565b916064358181116102935761025a9036908401611c12565b9360843591821161029057509161027b610289949260209794369101611c12565b926005549060243590612b8e565b9051908152f35b80fd5b8480fd5b8380fd5b5090346102ee57806003193601126102ee576020916102b8611ab5565b6002836102c3611acb565b9360018060a01b0380941681526007875220019116600052825260ff81600020541690519015158152f35b5080fd5b5091903461038057826003193601126103805760085481516331264fc160e01b815292849184919082906001600160a01b03165afa918215610376578361034d9493610351575b505051918291602083526020830190611a90565b0390f35b61036e9293503d8091833e6103668183611b9f565b81019061221f565b903880610339565b81513d85823e3d90fd5b8280fd5b5034610290578160031936011261029057506102896020926103a4611acb565b90356145bf565b509190346103805780600319360112610380576103e791356103e260016103d0611acb565b93838752600960205286200154611cab565b611fe0565b80f35b509190346103805760203660031901126103805782823561041261040d82613384565b612454565b6008546001600160a01b03169360449061042b83614404565b95855196879485936304e6f55760e51b855284015260248301525afa918215610376578361034d949361035157505051918291602083526020830190611a90565b508091833461068a5761047e36611c30565b600254600c54979a9791966001600160a01b03969395928716939290916104a79060ff166133b2565b6104b09161227d565b8a51632d2a246560e01b81526001600160a01b03909c168a8d01908152602081019290925260408201929092526060810191909152899081906080015b0381885a94602095f197881561064157859861064f575b508260085416803b1561064b578786918a838a61053f855197889687958694632108947560e21b865285015260248401526044830190611a90565b03925af180156106415790859161062d575b50508160085416803b156102935761058d91859189838a5180968195829463246a908b60e01b84528d8401528d60248401526044830190611a90565b03925af180156106235790849161060f575b505060085416803b156103805785836105d895875196879586948593630190503b60e61b85528401528960248401526044830190611a90565b03925af18015610605576105f1575b6020838351908152f35b6105fb8491611b40565b61038057826105e7565b82513d86823e3d90fd5b61061890611b40565b61038057828861059f565b86513d86823e3d90fd5b61063690611b40565b610297578389610551565b87513d87823e3d90fd5b8580fd5b945096506020843d8211610682575b8161066b60209383611b9f565b8101031261067d578793519689610504565b600080fd5b3d915061065e565b5050fd5b508260803660031901126102ee576106a4611ab5565b6106ac611acb565b906064356001600160401b0381116102935736602382011215610293576103e7938160246106df93369301359101611bdb565b916044359161237d565b50919034610380576020366003190112610380576008548151631662a98160e31b81528335938101939093528390839060249082906001600160a01b03165afa918215610376578361034d949361035157505051918291602083526020830190611a90565b5090346102ee57816003193601126102ee57602090517f1cd6d520d98babae1045eb69c31ecab800996aa332094cb55c0ac10362e9b0c98152f35b509190346103805780600319360112610380576107a4611ab5565b9060243591821515809303610293576001600160a01b03169233841461081857503384526007602052600281852001836000526020528060002060ff1981541660ff8416179055519081527f17307eab39ab6107e8899845ad3d59bd9653f200f220920489ca2b5937696c3160203392a380f35b6020606492519162461bcd60e51b8352820152601a60248201527f455243333532353a20617070726f766520746f2063616c6c65720000000000006044820152fd5b5090346102ee57816003193601126102ee5751908152602090f35b5034610290576020366003190112610290575061028960209235614404565b50346102905780600319360112610290575080519060009060019182549283811c90808516948515610997575b602095868410811461098457838852879493929187908215610962575050600114610908575b505061034d92916108f9910385611b9f565b51928284938452830190611a90565b600081815286935091907fb10e2d527612073b26eecdfd717e6a320cf44b4afac2b0732d9fcbe2b7fa0cf65b82841061094a57505050820101816108f96108e7565b8054848a018601528895508794909301928101610934565b60ff19168682015292151560051b850190920192508391506108f990506108e7565b634e487b7160e01b855260228952602485fd5b91607f16916108c1565b509134610380578160031936011261038057816020936109bf611acb565b9235815260098552209060018060a01b0316600052825260ff81600020541690519015158152f35b50826109f236611ae1565b926109fe839293613384565b8015610b5c575b610a0e90612454565b610a1782613384565b80610b49575b15610aba57610a426001600160a01b0380610a37856124a0565b1690851614156123fd565b610a4c82336125bc565b15610a5d57506103e7939450613825565b608490602087519162461bcd60e51b8352820152603160248201527f455243333532353a20617070726f76652063616c6c6572206973206e6f74206f6044820152701ddb995c881b9bdc88185c1c1c9bdd9959607a1b6064820152fd5b909184959260018060a01b03600c5416908652600e60205283862054813b15610b45578451638cb0a51160e01b81529384019081526001600160a01b03909216602083015260408201949094529092849184919082908490829060600103925af1908115610b3c5750610b2c57505080f35b610b3590611b40565b6102905780f35b513d84823e3d90fd5b8680fd5b50610b53826121c6565b600b5414610a1d565b50610a0e610b7783600052600e602052604060002054151590565b9050610a05565b5090346102ee57816003193601126102ee5760085490516001600160a01b039091168152602090f35b508091833461068a57610bb936611c30565b600254600c54979a9791966001600160a01b0396939592871693929091610be29060ff166133b2565b610beb9161227d565b8a51630151086360e31b81526001600160a01b03909c168a8d01908152602081019290925260408201929092526060810191909152899081906080016104ed565b5090346102ee57816003193601126102ee57600a5490516001600160a01b039091168152602090f35b509190346103805760203660031901126103805760085481516338f8221760e11b81528335938101939093528390839060249082906001600160a01b03165afa918215610376578361034d949361035157505051918291602083526020830190611a90565b5090346102ee5760203660031901126102ee57602090610289610cdb611ab5565b61229d565b50346102905760203660031901126102905750610cff602092356144f4565b90516001600160a01b039091168152f35b5090346102ee5760209283600319360112610380578035936005548015610e4d5785610d3f610d4d969761256d565b969054600397881b1c612fbc565b818110610d58578680f35b600180820190818311610e3a57838210610d7d575b5050610d7890612971565b610d4d565b610d868261256d565b905490891b1c90610d96826124a0565b50610da0826121c6565b5081600052600686526002610db8896000205461218b565b5001805490828201809211610e255792600060008051602061467d83398151915289610df495610d78999895610e1e98558d51908152a361256d565b905490891b1c610e038361256d565b90919082549060031b600019811b9283911b16911916179055565b9038610d6d565b601189634e487b7160e01b6000525260246000fd5b634e487b7160e01b895260118652602489fd5b50606492519162461bcd60e51b8352820152601a60248201527f4f726465724372656469743a204c69737420697320656d7074790000000000006044820152fd5b508290346102905760203660031901126102905750803590600554821015610ec557602083610ebc8461218b565b50549051908152f35b608490602084519162461bcd60e51b8352820152602360248201527f455243333532353a20676c6f62616c20696e646578206f7574206f6620626f756044820152626e647360e81b6064820152fd5b50346102905760c036600319011261029057610f2e611ab5565b926001600160401b039060643582811161029757610f4f9036908301611c12565b9160843581811161029357610f679036908401611c12565b9360a435918211610290575091610f88610289949260209794369101611c12565b926044359060243590612b8e565b506103e782610fa436611b0b565b91925192610fb184611b84565b85845261237d565b5090346102ee57816003193601126102ee5761034d90610fd76120a0565b9051918291602083526020830190611a90565b5090346102ee57816003193601126102ee5760209060ff600254169051908152f35b5082346102ee57826003193601126102ee57611026611acb565b90336001600160a01b0383160361104257906103e79135611fe0565b608490602085519162461bcd60e51b8352820152602f60248201527f416363657373436f6e74726f6c3a2063616e206f6e6c792072656e6f756e636560448201526e103937b632b9903337b91039b2b63360891b6064820152fd5b50919034610380576020366003190112610380578282356001600160401b0381116102ee576110cf9036908501611c12565b6008546001600160a01b0316803b1561038057602083611109968651978895869485936355f804b360e01b85528401526024830190611a90565b03925af1908115610b3c575061111d575080f35b6103e790611b40565b508260603660031901126102ee57803560243560443561114f61114884614404565b821461331f565b61115882614404565b9361116283613384565b801561121f575b61117290612454565b828652600660205260026111888888205461218b565b5001908154908682106111d05750958360008051602061467d8339815191526020839a6111cb96956111bd8b6103e79d612881565b905551898152a38284613dc6565b613dc6565b60849060208a519162461bcd60e51b8352820152602360248201527f455243333532353a206275726e2076616c756520657863656564732062616c616044820152626e636560e81b6064820152fd5b5061117261123a84600052600e602052604060002054151590565b9050611169565b5082903461029057826003193601126102905761125c611ab5565b602435926112698261229d565b84101561129c5760208561128e8682878760018060a01b0316815260078652206125a4565b91905490519160031b1c8152f35b608490602086519162461bcd60e51b8352820152602260248201527f455243333532353a206f776e657220696e646578206f7574206f6620626f756e604482015261647360f01b6064820152fd5b5091346103805781600319360112610380573590611306611acb565b90828452600960205261131e60018286200154611cab565b828452600960209081528185206001600160a01b039093168086529290528084205460ff161561134c578380f35b82845260096020528084208285526020528320600160ff1982541617905533917f2f8788117e7eff1d82e926ec794901d17c78024a50270940304540a733656f0d8480a43880808380f35b50346102905760203660031901126102905750610289602092356121c6565b5091346103805760203660031901126103805781602093600192358152600985522001549051908152f35b506103e76113ee36611b0b565b916114016113fc84336125bc565b612316565b61262d565b5090346102ee57816003193601126102ee576020906005549051908152f35b50919034610380576020366003190112610380576008548151631375d84360e01b81528335938101939093528390839060249082906001600160a01b03165afa918215610376578361034d949361035157505051918291602083526020830190611a90565b6020610e03846114cc6114bf6114c76114a236611ae1565b8294916114b96114b28395614404565b831461331f565b856133c0565b95869161256d565b612fbc565b51908152f35b5091346103805760209081600319360112610297576008548351636c0360eb60e01b81526001600160a01b039091169180359186818381875afa9081156117b757879161179d575b50831561158b5750906024869286519485938492633601bfc560e11b84528301525afa90811561157e578461034d93949592611563575b50509251928284938452830190611a90565b61157792503d8091833e6103668183611b9f565b3880611551565b50505051903d90823e3d90fd5b809350959193949551151560001461175c5783849183957a184f03e93ff9f4daa797ed6e38ed64bf6a1f010000000000000000908181101561174f575b5050866d04ee2d6d415b85acef810000000080851015611741575b5050662386f26fc1000080841015611732575b506305f5e10080841015611723575b5061271080841015611715575b50506064821015611705575b600a809210156116fb575b6001908160218188019761165461163f8a611bc0565b9961164c8d519b8c611b9f565b808b52611bc0565b898b019790601f190136893750880101905b6116c5575b5050505060256116b0926116bf9261034d958851958361169488955180928c8089019101611a6d565b84019164736c6f742f60d81b8a84015251809386840190611a6d565b01036005810184520182611b9f565b926108f9565b600019019083906f181899199a1a9b1b9c1cb0b131b232b360811b8282061a8353049182156116f657919082611666565b61166b565b9360010193611629565b939060646002910491019361161e565b950194909104903880611612565b60089196930492019438611605565b601091969304920194386115f6565b9601959092049186386115e3565b89975004925038806115c8565b9493925090508251908282018281106001600160401b0382111761178a578461034d949596505281526116bf565b634e487b7160e01b825260418652602482fd5b6117b191503d8089833e6103668183611b9f565b3861151a565b86513d89823e3d90fd5b50919080600319360112610380576117d7611ab5565b6024359290916001600160a01b03919082806117f2876124a0565b16941693611802818614156123fd565b8033149081156118d3575b501561186a5761182790858752600660205286205461218b565b500180546001600160a01b03191683179055611842836124a0565b167f8c5be1e5ebec7d5bd14f71427d1e84f3dd0314c0f7b2291e5b200ac8c7c3b9258480a480f35b906020608492519162461bcd60e51b8352820152603960248201527f455243333532353a20617070726f76652063616c6c6572206973206e6f74206f60448201527f776e6572206e6f7220617070726f76656420666f7220616c6c000000000000006064820152fd5b90508652600760205260028187200133875260205260ff81872054163861180d565b50346102905760203660031901126102905750610cff6020923561250b565b503461029057806003193601126102905781519181825492600184811c91818616958615611a0f575b60209687851081146119fc578899509688969785829a5291826000146119d557505060011461197a575b50505061034d92916108f9910385611b9f565b91908693508280527f290decd9548b62a8d60345a988386fc84ba6bc95484008f6362f93160ef3e5635b8284106119bd57505050820101816108f961034d611967565b8054848a0186015288955087949093019281016119a4565b60ff19168782015293151560051b860190930193508492506108f9915061034d9050611967565b634e487b7160e01b835260228a52602483fd5b92607f169261193d565b90508334610380576020366003190112610380573563ffffffff60e01b81168091036103805760209250637965db0b60e01b8114908115611a5c575b5015158152f35b6301ffc9a760e01b14905083611a55565b60005b838110611a805750506000910152565b8181015183820152602001611a70565b90602091611aa981518092818552858086019101611a6d565b601f01601f1916010190565b600435906001600160a01b038216820361067d57565b602435906001600160a01b038216820361067d57565b606090600319011261067d57600435906024356001600160a01b038116810361067d579060443590565b606090600319011261067d576001600160a01b0390600435828116810361067d5791602435908116810361067d579060443590565b6001600160401b038111611b5357604052565b634e487b7160e01b600052604160045260246000fd5b60c081019081106001600160401b03821117611b5357604052565b602081019081106001600160401b03821117611b5357604052565b90601f801991011681019081106001600160401b03821117611b5357604052565b6001600160401b038111611b5357601f01601f191660200190565b929192611be782611bc0565b91611bf56040519384611b9f565b82948184528183011161067d578281602093846000960137010152565b9080601f8301121561067d57816020611c2d93359101611bdb565b90565b60e060031982011261067d576004356001600160a01b038116810361067d57916024359160443591606435916001600160401b039160843583811161067d5782611c7c91600401611c12565b9260a43581811161067d5783611c9491600401611c12565b9260c43591821161067d57611c2d91600401611c12565b60009080825260209060098252604092838120338252835260ff848220541615611cd55750505050565b8351916001600160401b0390336060850183811186821017611fcc578752602a85528585019187368437855115611fb85760308353855191600192831015611fa4576078602188015360295b838111611f3a5750611ef85790875193608085019085821090821117611ee457885260428452868401946060368737845115611ed057603086538451821015611ed05790607860218601536041915b818311611e6257505050611e2057611e1c938693611e0093611df1604894611dc89a519a8b957f416363657373436f6e74726f6c3a206163636f756e74200000000000000000008c8801525180926037880190611a6d565b8401917001034b99036b4b9b9b4b733903937b6329607d1b603784015251809386840190611a6d565b01036028810187520185611b9f565b5192839262461bcd60e51b845260048401526024830190611a90565b0390fd5b60648587519062461bcd60e51b825280600483015260248201527f537472696e67733a20686578206c656e67746820696e73756666696369656e746044820152fd5b909192600f81166010811015611ebc576f181899199a1a9b1b9c1cb0b131b232b360811b901a611e928588612079565b5360041c928015611ea857600019019190611d70565b634e487b7160e01b82526011600452602482fd5b634e487b7160e01b83526032600452602483fd5b634e487b7160e01b81526032600452602490fd5b634e487b7160e01b86526041600452602486fd5b60648789519062461bcd60e51b825280600483015260248201527f537472696e67733a20686578206c656e67746820696e73756666696369656e746044820152fd5b90600f81166010811015611f90576f181899199a1a9b1b9c1cb0b131b232b360811b901a611f68838a612079565b5360041c908015611f7c5760001901611d21565b634e487b7160e01b87526011600452602487fd5b634e487b7160e01b88526032600452602488fd5b634e487b7160e01b86526032600452602486fd5b634e487b7160e01b85526032600452602485fd5b634e487b7160e01b85526041600452602485fd5b906000918083526009602052604083209160018060a01b03169182845260205260ff60408420541661201157505050565b8083526009602052604083208284526020526040832060ff1981541690557ff6391f5c32d9c69d2a47ea670b442974b53935d1edc7fd64eb21e047a839171b339380a4565b9190820180921161206357565b634e487b7160e01b600052601160045260246000fd5b90815181101561208a570160200190565b634e487b7160e01b600052603260045260246000fd5b604051906000600d5490600182811c90808416938415612181575b602094858410811461216d578388528794939291811561214d57506001146120ee575b50506120ec92500383611b9f565b565b90939150600d6000527fd7b6990105719101dabeb77144f2a3385c8033acd3af97e9423a695e81ad1eb5936000915b8183106121355750506120ec935082010138806120de565b8554888401850152948501948794509183019161211d565b9150506120ec94925060ff191682840152151560051b82010138806120de565b634e487b7160e01b85526022600452602485fd5b91607f16916120bb565b60055481101561208a576006906005600052027f036b6384b5eca791c62761152d0c79bb0604c104a5fb6f4eb0703f3154bb3db00190600090565b6121cf81613384565b80156121fd575b6121df90612454565b600052600660205260016121f760406000205461218b565b50015490565b506121df61221882600052600e602052604060002054151590565b90506121d6565b60208183031261067d578051906001600160401b03821161067d570181601f8201121561067d57805161225181611bc0565b9261225f6040519485611b9f565b8184526020828401011161067d57611c2d9160208085019101611a6d565b8115612287570490565b634e487b7160e01b600052601260045260246000fd5b6001600160a01b031680156122bd57600052600760205260406000205490565b60405162461bcd60e51b815260206004820152602b60248201527f455243333532353a2062616c616e636520717565727920666f7220746865207a60448201526a65726f206164647265737360a81b6064820152608490fd5b1561231d57565b60405162461bcd60e51b815260206004820152603260248201527f455243333532353a207472616e736665722063616c6c6572206973206e6f74206044820152711bdddb995c881b9bdc88185c1c1c9bdd995960721b6064820152608490fd5b906123a19392916123916113fc84336125bc565b61239c83838361262d565b612a40565b156123a857565b60405162461bcd60e51b815260206004820152602760248201527f455243333532353a207472616e7366657220746f206e6f6e204552433732315260448201526632b1b2b4bb32b960c91b6064820152608490fd5b1561240457565b60405162461bcd60e51b815260206004820152602260248201527f455243333532353a20617070726f76616c20746f2063757272656e74206f776e60448201526132b960f11b6064820152608490fd5b1561245b57565b60405162461bcd60e51b815260206004820152601960248201527f455243333532353a20696e76616c696420746f6b656e204944000000000000006044820152606490fd5b6124a981613384565b80156124e9575b6124b990612454565b60005260066020526124cf60406000205461218b565b50600301546001600160a01b0316906120ec821515612454565b506124b961250482600052600e602052604060002054151590565b90506124b0565b61251481613384565b801561254b575b61252490612454565b600052600660205261253a60406000205461218b565b50600401546001600160a01b031690565b5061252461256682600052600e602052604060002054151590565b905061251b565b600f5481101561208a57600f6000527f8d1108e10bcb7c27dddfc02ed9d693a074039d026cf4ea4240b40f7d581ac8020190600090565b805482101561208a5760005260206000200190600090565b906001600160a01b0380806125d0846124a0565b16931691838314938415612603575b5083156125ed575b50505090565b6125f99192935061250b565b16143880806125e7565b909350600052600760205260026040600020018260005260205260ff6040600020541692386125df565b612636836124a0565b6001600160a01b0380831692918116839003612747578084169384156126f457856126f0916126eb8260008051602061469d83398151915296612678826121c6565b5061268282612798565b5081600080988282526006602052600461269f604084205461218b565b500180546001600160a01b03191690556126b8836124a0565b167f8c5be1e5ebec7d5bd14f71427d1e84f3dd0314c0f7b2291e5b200ac8c7c3b9258280a46126e682612980565b61288e565b6127eb565b80a4565b60405162461bcd60e51b815260206004820152602560248201527f455243333532353a207472616e7366657220746f20746865207a65726f206164604482015264647265737360d81b6064820152608490fd5b60405162461bcd60e51b8152602060048201526024808201527f455243333532353a207472616e736665722066726f6d20696e76616c6964206f6044820152633bb732b960e11b6064820152608490fd5b6127a181613384565b80156127c9575b6127b190612454565b600052600660205260026121f760406000205461218b565b506127b16127e482600052600e602052604060002054151590565b90506127a8565b60009082825260066020526003612805604084205461218b565b500180546001600160a01b0319166001600160a01b0390921691821790558082526007602081815260408085208054878752600191909101835281862055928452528120805491600160401b83101561286d575081610e039160016120ec95940181556125a4565b634e487b7160e01b81526041600452602490fd5b9190820391821161206357565b600090828252600660205260036128a8604084205461218b565b500180546001600160a01b03191690556001600160a01b031681526007602052604081208054600019939192919084810190811161295d576128ea90846125a4565b90549060031b1c600184018284528060205260408420549161291081610e0385896125a4565b8452602052604083205581528060408120558154908115612949575082019161293983836125a4565b909182549160031b1b1916905555565b634e487b7160e01b81526031600452602490fd5b634e487b7160e01b83526011600452602483fd5b60001981146120635760010190565b6000818152602060068152604092600561299c8585205461218b565b500193845491845b8381106129e25750505050825492828155836129c1575b50505050565b82528120918201915b8281106129d757806129bb565b8181556001016129ca565b806129f0612a1b92896125a4565b90548489526004885285892060039290921b1c6001600160a01b031688528652838720879055612971565b6129a4565b9081602091031261067d57516001600160e01b03198116810361067d5790565b92939290803b15612b855793600091612a979560405180948193630a85bd0160e11b9788845233600485015260018060a01b0380921660248501526044840152608060648401528260209a8b976084830190611a90565b0393165af160009181612b56575b50612b4757833d15612b3f573d90612abc82611bc0565b91612aca6040519384611b9f565b82523d60008284013e5b81519182612b3c5760405162461bcd60e51b815260048101839052603260248201527f4552433732313a207472616e7366657220746f206e6f6e20455243373231526560448201527131b2b4bb32b91034b6b83632b6b2b73a32b960711b6064820152608490fd5b01fd5b606090612ad4565b6001600160e01b031916149150565b612b77919250853d8711612b7e575b612b6f8183611b9f565b810190612a20565b9038612aa5565b503d612b65565b50600193505050565b90919294939460055494600091868603612f51576003805460010190819055976001600160a01b03918583168015612f02578a15612eb357612bcf8b613384565b612e6e576040968751612be181611b84565b878152885190612bf082611b69565b8d82528a6020830152888a83015283606083015288608083015260a08201528c885260066020528b89892055600160401b9b8c811015612e5a578d93926126eb612c4b93612c4584600189960160055561218b565b90613216565b8660008051602061469d8339815191528180a486858b7fe4f48c240d3b994948aa54f3e2f5fca59263dfe1d52b6e4cf39a5d249b5ccb658280a489855260066020526002612c9b8787205461218b565b5001612ca8898254612056565b9055898560008051602061467d833981519152602089518c8152a38260085416803b1561064b57612cfe9186918c838a51809681958294632108947560e21b845260048401528d60248401526044830190611a90565b03925af18015612e5057612e3d575b508160085416803b1561029357612d499185918b83895180968195829463246a908b60e01b845260048401528c60248401526044830190611a90565b03925af18015612e3357908491612e1f575b505060085416803b1561038057612d9791839189838751809681958294630190503b60e61b845260048401528a60248401526044830190611a90565b03925af18015612e1557612e01575b505051848152602081019190915260408101919091527f84eeb48eca46cea54afc9753345f6038981672ea565f32885420829dfd88aea690606090a1600f5490811015611b535781610e03826001611c2d9401600f5561256d565b612e0b8291611b40565b6102905780612da6565b83513d84823e3d90fd5b612e2890611b40565b610380578238612d5b565b85513d86823e3d90fd5b612e4990949194611b40565b9238612d0d565b86513d87823e3d90fd5b634e487b7160e01b89526041600452602489fd5b60405162461bcd60e51b815260206004820152601d60248201527f455243333532353a20746f6b656e20616c7265616479206d696e7465640000006044820152606490fd5b60405162461bcd60e51b815260206004820152602160248201527f455243333532353a2063616e6e6f74206d696e74207a65726f20746f6b656e496044820152601960fa1b6064820152608490fd5b60405162461bcd60e51b815260206004820152602160248201527f455243333532353a206d696e7420746f20746865207a65726f206164647265736044820152607360f81b6064820152608490fd5b60405162461bcd60e51b815260206004820152603c60248201527f4f726465724372656469743a204e657720746f6b656e732063616e206f6e6c7960448201527f206d696e7420746f2074686520656e64206f6620746865206c697374000000006064820152608490fd5b612fc581613384565b80156131f4575b612fd590612454565b6000818152602060068152604090612fef8284205461218b565b509060018060a01b03806003840154169360016002818601549501549261301589612980565b61301f898861288e565b600554600019918282019182116131e0578a8a5260068752868a613046878220549461218b565b5092600588519461305686611b69565b80548652888101548587015260028101548a8701528260038201541660608701528260048201541660808701520188518094859381845493848152019386528a82872096925b8484106131c35750505050506130b492500382611b9f565b60a08201526130c681612c458461218b565b5189526006865283892055888852878381205560055480156131af5701906130ed8261218b565b61319b57918896959391600584898d9896558983820155896002820155896003820155896004820155018054908981558161317a575b5050506005555190815284929160008051602061467d83398151915291a3847fe4f48c240d3b994948aa54f3e2f5fca59263dfe1d52b6e4cf39a5d249b5ccb658380a460008051602061469d8339815191528280a4565b8952858920908101905b81811015613123579889558a988c97508201613184565b634e487b7160e01b89526004899052602489fd5b634e487b7160e01b89526031600452602489fd5b875483168652968101968896509094019391909101908a8e61309c565b634e487b7160e01b8a52601160045260248afd5b50612fd561320f82600052600e602052604060002054151590565b9050612fcc565b919061330957805182556020908181015192600193848201556040820151600282015560a060056003830192600180841b039384606087015116906bffffffffffffffffffffffff851b91828254161790556004820190856080880151169082541617905501920151928351936001600160401b038511611b5357600160401b8511611b5357819084548686558087106132dc575b500192600052806000209160005b8581106132c95750505050505050565b84518216848201559382019386016132b9565b6000868152888885832093840193015b8381106132fb575050506132ab565b8281558695508a91016132ec565b634e487b7160e01b600052600060045260246000fd5b1561332657565b60405162461bcd60e51b815260206004820152603060248201527f4f726465724372656469743a206f6e6c7920656e746972652076616c7565206360448201526f185b881899481d1c985b9cd9995c995960821b6064820152608490fd5b60055415159081613393575090565b80915060005260066020526133ac60406000205461218b565b50541490565b604d811161206357600a0a90565b919091600090808252602091600e83526040928382205415600014613649576133ea85843361372c565b60016003540195866003556133fe846121c6565b906001600160a01b0381169081156135fb5788156135ad5761341f89613384565b61356957865161342e81611b84565b85815287519061343d82611b69565b8a82528486830152868983015283606083015286608083015260a08201526005548a8752600686528089882055600160401b81101561355557947f6d811e6a20ae5461a4ef22a6998c1d958defe727f1cc522b6eb792bc8e6f7266999897948b80956134ce8261354f9b976126eb60008051602061467d83398151915298612c458e6135329f60010160055561218b565b8560008051602061469d8339815191528180a483857fe4f48c240d3b994948aa54f3e2f5fca59263dfe1d52b6e4cf39a5d249b5ccb658280a48383526006815261351a8884205461218b565b50508751838152a361352d8588836139f7565b6121c6565b915192839286846040919493926060820195825260208201520152565b0390a190565b634e487b7160e01b87526041600452602487fd5b865162461bcd60e51b815260048101859052601d60248201527f455243333532353a20746f6b656e20616c7265616479206d696e7465640000006044820152606490fd5b865162461bcd60e51b815260048101859052602160248201527f455243333532353a2063616e6e6f74206d696e74207a65726f20746f6b656e496044820152601960fa1b6064820152608490fd5b865162461bcd60e51b815260048101859052602160248201527f455243333532353a206d696e7420746f20746865207a65726f206164647265736044820152607360f81b6064820152608490fd5b600c5484516307a42e0160e11b8152600481018590526001600160a01b0397881660248201526044810187905291969192918791849160649183918691165af19586156137205781966136c9575b5050509061354f6135327f6d811e6a20ae5461a4ef22a6998c1d958defe727f1cc522b6eb792bc8e6f726694936121c6565b909180939650813d8311613719575b6136e28183611b9f565b810103126102905750519261354f6135327f6d811e6a20ae5461a4ef22a6998c1d958defe727f1cc522b6eb792bc8e6f7266613697565b503d6136d8565b508351903d90823e3d90fd5b61373681836137c5565b61374083836125bc565b15806137b9575b6137515750505050565b8381106137745761376b9361376591612881565b91613825565b388080806129bb565b60405162461bcd60e51b815260206004820152601f60248201527f455243333532353a20696e73756666696369656e7420616c6c6f77616e6365006044820152606490fd5b50600019811415613747565b6137ce81613384565b8015613803575b6137de90612454565b600052600460205260406000209060018060a01b031660005260205260406000205490565b506137de61381e82600052600e602052604060002054151590565b90506137d5565b6001600160a01b03808316939192841561390e578361384391613966565b15613891575b5060207f621b050de0ad08b51d19b48b3e6df75348c4de6bdd93e81b252ca62e28265b1b918360005260048252604060002085600052825280604060002055604051908152a3565b9082600052600660205260056138ab60406000205461218b565b500190815492600160401b841015611b5357856138f18560209560017f621b050de0ad08b51d19b48b3e6df75348c4de6bdd93e81b252ca62e28265b1b980181556125a4565b909283549160031b90811b9283911b169119161790559150613849565b60405162461bcd60e51b815260206004820152602a60248201527f455243333532353a20617070726f76652076616c756520746f20746865207a65604482015269726f206164647265737360b01b6064820152608490fd5b60009082825260066020908082526040906139838286205461218b565b509260058094015496865b8881106139a15750505050505050905090565b8188528383526139bf81876139b8888c205461218b565b50016125a4565b905460039190911b1c6001600160a01b03908116908816146139e9576139e490612971565b61398e565b505050505050505050600190565b613a0081613384565b15613c1b57613a0e82613384565b15613bc8578060005260209260068452604092613a2e846000205461218b565b508160005260068652613a44856000205461218b565b50906002810190815490858210613b715760010154600184015403613b165791600291613a7786613ab498979695612881565b905501613a85838254612056565b9055808360008051602061467d833981519152888851868152a3845192613aab84611b84565b60008452613c70565b15613abd575050565b60849250519062461bcd60e51b82526004820152602d60248201527f455243333532353a207472616e736665722072656a656374656420627920455260448201526c21999a991aa932b1b2b4bb32b960991b6064820152fd5b865162461bcd60e51b815260048101899052602e60248201527f455243333532353a207472616e7366657220746f20746f6b656e20776974682060448201526d191a5999995c995b9d081cdb1bdd60921b6064820152608490fd5b875162461bcd60e51b8152600481018a9052602a60248201527f455243333532353a20696e73756666696369656e742062616c616e636520666f60448201526939103a3930b739b332b960b11b6064820152608490fd5b60405162461bcd60e51b815260206004820152602560248201527f455243333532353a207472616e7366657220746f20696e76616c696420746f6b604482015264195b88125160da1b6064820152608490fd5b60405162461bcd60e51b815260206004820152602760248201527f455243333532353a207472616e736665722066726f6d20696e76616c696420746044820152661bdad95b88125160ca1b6064820152608490fd5b92613c7a826124a0565b803b151580613d2c575b15613d2257613ccd93600060209460405196879586948593629ce20b60e01b9b8c865233600487015260248601526044850152606484015260a0608484015260a4830190611a90565b03926001600160a01b03165af1908115613d1657600091613cf8575b506001600160e01b0319161490565b613d10915060203d8111612b7e57612b6f8183611b9f565b38613ce9565b6040513d6000823e3d90fd5b5050505050600190565b506040516301ffc9a760e01b8152629ce20b60e01b60048201526020816024816001600160a01b0386165afa908115613d1657600091613d6d575b50613c84565b6020813d8211613d9f575b81613d8560209383611b9f565b810103126102ee5751908115158203610290575038613d67565b3d9150613d78565b9081602091031261067d57516001600160a01b038116810361067d5790565b909291613dd282613384565b806143f1575b806143ce575b15613e435790613e3e82613e167fdf7a601a0a201ccd4b4bfcfd610913188d931867997223d226f85f2f2673988a959694843361372c565b613e218185856139f7565b604051938493846040919493926060820195825260208201520152565b0390a1565b613e5a82600052600e602052604060002054151590565b806143b1575b1561407957600093828552600e6020526040928386205491808752848720549183158015808091614070575b15613f05575050600c546001600160a01b031693915050823b15610b45578451630310ed7f60e41b81526004810191909152602481019190915260448101929092529293909281908490818381606481015b03925af1918215613efb575050613ef25750565b6120ec90611b40565b51903d90823e3d90fd5b9293919280614068575b15613f71575050600c546001600160a01b0316929050823b15610b45578451630310ed7f60e41b81526004810191909152602481019190915260448101929092529293909281908490606490829084905af1918215613efb575050613ef25750565b9193509190808061405f575b15613fd0575050600c546001600160a01b031691823b15610b45578451630310ed7f60e41b8152600481019190915260248101919091526044810192909252929390928190849081838160648101613ede565b909181614056575b50613fe6575b505050509050565b600c546001600160a01b031691823b15610b45578451630310ed7f60e41b81526004810191909152602481019190915260448101929092529293909281908490606490829084905af1918215613efb575050614047575b8080808493613fde565b61405090611b40565b3861403d565b90501538613fd8565b50821515613f7d565b508115613f0f565b50841515613e8c565b61409382949394600052600e602052604060002054151590565b80614293575b1561428e57600c5460408051639448bddb60e01b81526004810186905290936001600160a01b039283169392916020908181602481895afa90811561428357600091614256575b508360006140ec6120a0565b8481519101209260048a518094819363106057b960e21b8352165afa90811561424b57600091614232575b50828151910120036141d8576000828152600e9091528590205493841561418e575050600c5416803b1561067d578351630310ed7f60e41b8152600481019390935260248301949094526044820152916000908390606490829084905af19081156141845750613ef25750565b513d6000823e3d90fd5b91509250803b1561067d578351630310ed7f60e41b8152600481019390935260248301949094526044820152916000908390606490829084905af19081156141845750613ef25750565b60849086519062461bcd60e51b82526004820152602e60248201527f43616e6e6f74207472616e73666572206265747765656e20646966666572656e60448201526d742063726564697420747970657360901b6064820152fd5b614245913d8091833e6103668183611b9f565b38614117565b88513d6000823e3d90fd5b6142769150823d841161427c575b61426e8183611b9f565b810190613da7565b386140e0565b503d614264565b87513d6000823e3d90fd5b505050565b506000838152602090600e825260408082205415928361434a575b83156142bd575b505050614099565b868352600e815281832054151593509091836142df575b5050503880806142b5565b9091925060018060a01b039182600c54169181858220546024875180968193639448bddb60e01b835260048301525afa948515613efb57509361432b575b5050163014153880806142d4565b614342929350803d1061427c5761426e8183611b9f565b90388061431d565b600c548251639448bddb60e01b8152600481018990529194506001600160a01b039085908390602490829085165afa91821561157e578492614392575b5016301415926142ae565b6143aa919250853d871161427c5761426e8183611b9f565b9038614387565b506143c984600052600e602052604060002054151590565b613e60565b506143d884613384565b8015613dde57506143e8846121c6565b600b5414613dde565b506143fb826121c6565b600b5414613dd8565b61440d81613384565b80156144d2575b61441d90612454565b61442681613384565b806144bf575b1561443a57611c2d90612798565b6000908152600e6020526040812054602060018060a01b03600c541691602460405180948193631398fee160e31b835260048301525afa9182156144b357809261448357505090565b9091506020823d82116144ab575b8161449e60209383611b9f565b8101031261029057505190565b3d9150614491565b604051903d90823e3d90fd5b506144c9816121c6565b600b541461442c565b5061441d6144ed82600052600e602052604060002054151590565b9050614414565b6144fd81613384565b801561459d575b61450d90612454565b61451681613384565b8061458a575b1561452a57611c2d906124a0565b60018060a01b03600c541690600052600e60205260206040600020546024604051809481936331a9108f60e11b835260048301525afa908115613d1657600091614572575090565b611c2d915060203d811161427c5761426e8183611b9f565b50614594816121c6565b600b541461451c565b5061450d6145b882600052600e602052604060002054151590565b9050614504565b906145c982613384565b801561465a575b6145d990612454565b6145e282613384565b80614647575b156145f657611c2d916137c5565b602060018060a01b0391604483600c54166000958652600e845260408620549060405195869485936338d1782f60e21b855260048501521660248301525afa9182156144b357809261448357505090565b50614651826121c6565b600b54146145e8565b506145d961467583600052600e602052604060002054151590565b90506145d056fe0b2aac84f3ec956911fd78eae5311062972ff949f38412e8da39069d9f068cc6ddf252ad1be2c89b69c2b068fc378daa952ba7f163c4a11628f55a4df523b3efa26469706673582212200982023d17eaa9f0ff26e5eb912a11fc5430585a6b4cbbfb63c5c013803bfab664736f6c63430008110033608060405234620004865762002423803803806200001d816200048b565b9283398101608082820312620004865781516001600160401b0391908281116200048657816200004f918501620004b1565b91602092838501518281116200048657836200006d918701620004b1565b92604086015183811162000486576060916200008b918801620004b1565b9501516001600160a01b03811695908690036200048657815193838511620002c3576001948554938685811c951680156200047b575b88861014620002a2578190601f9586811162000425575b508890868311600114620003bd57600092620003b1575b5050600019600383901b1c191690861b1785555b805190848211620002c357600254908682811c92168015620003a6575b88831014620002a25781858493116200034f575b508790858311600114620002e557600092620002d9575b5050600019600383901b1c191690851b176002555b8051928311620002c35760039485548581811c91168015620002b8575b82821014620002a25783811162000257575b5080928411600114620001ed5750928293918392600094620001e1575b50501b9160001990841b1c19161790555b600080546001600160a01b031916919091179055604051611eff9081620005248239f35b015192503880620001ac565b919083601f1981168760005284600020946000905b888383106200023c575050501062000223575b505050811b019055620001bd565b015160001983861b60f8161c1916905538808062000215565b85870151885590960195948501948793509081019062000202565b86600052816000208480870160051c82019284881062000298575b0160051c019086905b8281106200028b5750506200018f565b600081550186906200027b565b9250819262000272565b634e487b7160e01b600052602260045260246000fd5b90607f16906200017d565b634e487b7160e01b600052604160045260246000fd5b0151905038806200014b565b90879350601f198316916002600052896000209260005b8b8282106200033857505084116200031e575b505050811b0160025562000160565b015160001960f88460031b161c191690553880806200030f565b8385015186558b97909501949384019301620002fc565b9091506002600052876000208580850160051c8201928a86106200039c575b918991869594930160051c01915b8281106200038c57505062000134565b600081558594508991016200037c565b925081926200036e565b91607f169162000120565b015190503880620000ef565b90889350601f19831691846000528a6000209260005b8c8282106200040e5750508411620003f4575b505050811b01855562000103565b015160001960f88460031b161c19169055388080620003e6565b8385015186558c97909501949384019301620003d3565b90915087600052886000208680850160051c8201928b861062000471575b918a91869594930160051c01915b82811062000461575050620000d8565b600081558594508a910162000451565b9250819262000443565b94607f1694620000c1565b600080fd5b6040519190601f01601f191682016001600160401b03811183821017620002c357604052565b919080601f84011215620004865782516001600160401b038111620002c357602090620004e7601f8201601f191683016200048b565b92818452828287010111620004865760005b8181106200050f57508260009394955001015290565b8581018301518482018401528201620004f956fe608060408181526004908136101561001657600080fd5b600092833560e01c9081631375d8431461149c57508063246a908b1461139e57806331264fc11461118c57806355f804b31461104857806364140ec014610f495780636c0360eb14610e8a5780636c037f8a14610b6e57806371f0442e14610ada578063725fa09c14610862578063842251d41461072a578063894b4c2e146103fe5780639cdeaae0146101805763b3154c08146100b357600080fd5b3461017c57602091826003193601126101785780358452825280832091815192848154906100e082611a79565b808752926001928084169081156101545750600114610119575b610115878761010b828c03836115b2565b5191829182611554565b0390f35b9080949750528583205b82841061014157505050826101159461010b928201019438806100fa565b8054868501880152928601928101610123565b60ff19168887015250505050151560051b830101925061010b8261011538806100fa565b8380fd5b8280fd5b50913461038c578260031936011261038c57813561019d816119c9565b928183526020918183528584209186519480868554916101bc83611a79565b92838352888301976001918a83821691826000146103de5750506001146103a1575b50506101ec925003876115b2565b6101f583611de0565b91610201602435611886565b9389519163131f9f3f60e11b83528201528581602481335afa918215610396578092610360575b61011561027a8b61010b606c8d8d8d6103478e8e8e6102468f611886565b9261024f611e7a565b966102a460298d519e8f809c683d913730b6b2911d1160b91b8c8301528b8151948593019101611531565b8a0191701116113232b9b1b934b83a34b7b7111d1160791b6029840152518093603a840190611531565b016a11161134b6b0b3b2911d1160a91b603a8201526102cc8251809388604585019101611531565b016c1116113130b630b731b2911d1160991b60458201526102f68251809387605285019101611531565b016911161139b637ba111d1160b11b605282015261031d8251809386605c85019101611531565b01916e111611383937b832b93a34b2b9911d60891b605c8401528351938491606b85019101611531565b01607d60f81b606b82015203604c8101855201836115b2565b9091508582813d831161038f575b61037881836115b2565b8101031261038c575051610347606c610228565b80fd5b503d61036e565b8951903d90823e3d90fd5b89925085528185209085915b8583106103c55750506101ec935082010138806101de565b81948484839695965492010152019101899289926103ad565b92509350506101ec94915060ff19168852151560051b82010138806101de565b50913461038c57602091826003193601126107265780359061041f826119c9565b9282815281855285812090865190808284549161043b83611a79565b928383528a8301966001918c83821691826000146107065750506001146106ca575b505061046b925003836115b2565b61047485611de0565b938851631398fee160e31b815286828201528881602481335afa80156106c0578390610691575b6104a59150611886565b9589519163131f9f3f60e11b83528201528781602481335afa91821561039657809261065e575b5050610610606c888a6101159b9961010b99603d9961064e9d99610615996105526104f96105289b611886565b95610502611e7a565b97519b8c99683d913730b6b2911d1160b91b818c0152825192839160298d019101611531565b880191701116113232b9b1b934b83a34b7b7111d1160791b6029840152518093603a840190611531565b016a11161134b6b0b3b2911d1160a91b603a82015261057a825180938d604585019101611531565b016c1116113130b630b731b2911d1160991b60458201526105a4825180938c605285019101611531565b016911161139b637ba111d1160b11b60528201526105cb825180938b605c85019101611531565b016e111611383937b832b93a34b2b9911d60891b605c8201526105f7825180938a606b85019101611531565b01607d60f81b606b82015203604c8101845201826115b2565b611719565b845195827f646174613a6170706c69636174696f6e2f6a736f6e3b6261736536342c000000889485015282519283918686019101611531565b810103601d8101855201836115b2565b9091508782813d831161068a575b61067681836115b2565b8101031261038c575051610610606c6104cc565b503d61066c565b508881813d83116106b9575b6106a781836115b2565b8101031261017c576104a5905161049b565b503d61069d565b8a513d85823e3d90fd5b8b925085528185209085915b8583106106ee57505061046b9350820101388061045d565b80548389018501528794508c939092019181016106d6565b925093505061046b94915060ff19168752151560051b820101388061045d565b5080fd5b508290346107265761073b3661163c565b939083526020916006835283209184519167ffffffffffffffff831161084f57506107668354611a79565b601f811161080c575b5080601f83116001146107aa575083948293949261079f575b50508160011b916000199060031b1c191617905580f35b015190508480610788565b90601f198316958486528286209286905b8882106107f4575050836001959697106107db575b505050811b01905580f35b015160001960f88460031b161c191690558480806107d0565b806001859682949686015181550195019301906107bb565b838552818520601f840160051c810191838510610845575b601f0160051c01905b81811061083a575061076f565b85815560010161082d565b9091508190610824565b634e487b7160e01b855260419052602484fd5b50903461017c578260031936011261017c5781516306fdde0360e01b81529083828281335afa918215610acd578492610aa9575b5082519084600254906108a882611a79565b808552846020988992838301956001908181169081600014610a8a5750600114610a2e575b50506108db925003856115b2565b6108e3611bb2565b928787518092633e7e866960e01b825281335afa918215610a2357605a61064e989761010b97603d976101159c9761092f60ff610615996109849961061099916109f6575b5016611886565b928c51978895683d913730b6b2911d1160b91b8c88015261095a8c825192839160298b019101611531565b860191701116113232b9b1b934b83a34b7b7111d1160791b6029840152518093603a840190611531565b016a11161134b6b0b3b2911d1160a91b603a8201526109ac825180938b604585019101611531565b01721116113b30b63ab2a232b1b4b6b0b639911d1160691b60458201526109dc825180938a605885019101611531565b0161227d60f01b605882015203603a8101845201826115b2565b610a1691508c8d3d10610a1c575b610a0e81836115b2565b8101906116ce565b38610928565b503d610a04565b8751903d90823e3d90fd5b600286527f405787fa12a823e0f2b7631cc41b3ba8828b3321ca811111fa75cd3aa3bb5ace9492508591905b818310610a7257508b9450508201016108db386108cd565b85548a84018501529485019489945091830191610a5a565b9150506108db94925060ff19168652151560051b8201018992386108cd565b610ac69192503d8086833e610abe81836115b2565b81019061166f565b9038610896565b50505051903d90823e3d90fd5b503461017c576020918260031936011261017857358352600582528083209181519284815490610b0982611a79565b808752926001928084169081156101545750600114610b3357610115878761010b828c03836115b2565b9080949750528583205b828410610b5b57505050826101159461010b928201019438806100fa565b8054868501880152928601928101610b3d565b50903461017c576020928360031936011261038c578054835163ec327a2160e01b815283358185018190529092916001600160a01b0316908284602481855afa938415610e80578394610e64575b50855163bc74ebb960e01b8152858101829052948386602481865afa958615610e5a578496610e3e575b5086516309c3dd8760e01b80825282820184905290938585602481845afa948515610e3457918a9594939187938496610e13575b5090602491610c5a60268d518a652f696d61676560d01b81610c46849e85019d8e815193849201611531565b83019182015203600681018b5201896115b2565b8b51958694859384528301525afa938415610a23578094610df6575b50508551918288808201868197519283910191610c9292611531565b81018981016f17b83937b832b93a34b2b9973539b7b760811b905203601081018452603001610cc190846115b2565b8651958695683d913730b6b2911d1160b91b8a880152805190818b60298a01920191610cec92611531565b8601701116113232b9b1b934b83a34b7b7111d1160791b6029820152815191828b603a8401920191610d1d92611531565b01906a11161134b6b0b3b2911d1160a91b603a83015251918260458301610d4392611531565b01906e111611383937b832b93a34b2b9911d60891b604583015251918260548301610d6d92611531565b0160548101607d60f81b905203603581018252605501610d8d90826115b2565b610d9690611719565b81517f646174613a6170706c69636174696f6e2f6a736f6e3b6261736536342c00000084820152815190938492610dd4918391603d86019101611531565b810103601d81018352603d01610dea90836115b2565b51610115819282611554565b610e0b9294503d8091833e610abe81836115b2565b913880610c76565b602492919650610e2c903d8087833e610abe81836115b2565b959091610c1a565b89513d88823e3d90fd5b610e539196503d8086833e610abe81836115b2565b9438610be6565b87513d86823e3d90fd5b610e799194503d8085833e610abe81836115b2565b9238610bbc565b86513d85823e3d90fd5b838234610726578160031936011261072657805190826001805491610eae83611a79565b80865292828116908115610f215750600114610ed7575b50505061010b826101159403836115b2565b9450808552600080516020611eaa8339815191525b828610610f095750505061010b8260206101159582010194610ec5565b80546020878701810191909152909501948101610eec565b61011597508693506020925061010b94915060ff191682840152151560051b82010194610ec5565b5082903461072657610f5a3661163c565b939083526020916005835283209184519167ffffffffffffffff831161084f5750610f858354611a79565b601f8111611005575b5080601f8311600114610fbd575083948293949261079f5750508160011b916000199060031b1c191617905580f35b90601f198316958486528286209286905b888210610fed575050836001959697106107db57505050811b01905580f35b80600185968294968601518155019501930190610fce565b838552818520601f840160051c81019183851061103e575b601f0160051c01905b8181106110335750610f8e565b858155600101611026565b909150819061101d565b82843461038c576020806003193601126107265767ffffffffffffffff83358181116101785761107b90369086016115f0565b93845191821161117957506001916110938354611a79565b601f8111611127575b5080601f83116001146110d657508394829394926110cb575b5050600019600383901b1c191690821b17905580f35b0151905084806110b5565b838552601f19831695600080516020611eaa833981519152929186905b88821061111057505083859697106107db57505050811b01905580f35b8087859682949686015181550195019301906110f3565b838552600080516020611eaa833981519152601f840160051c81019183851061116f575b601f0160051c019084905b82811061116457505061109c565b868155018490611156565b909150819061114b565b634e487b7160e01b845260419052602483fd5b50903461017c578260031936011261017c5781516306fdde0360e01b81529083828281335afa918215610acd578492611382575b5082519084906002546111d281611a79565b808552846020948582019360019087828216918260001461136457505060011461130a575b50611204925003856115b2565b61120c611bb2565b918387518092633e7e866960e01b825281335afa9081156113005761127997969361010b969361124f60ff605a98956112cf956101159e916112e9575016611886565b9489519a8b97683d913730b6b2911d1160b91b878a0152610528815180928960298d019101611531565b016a11161134b6b0b3b2911d1160a91b603a8201526112a18251809386604585019101611531565b0191721116113b30b63ab2a232b1b4b6b0b639911d1160691b60458401528351938491605885019101611531565b0161227d60f01b605882015203603a8101855201836115b2565b610a169150873d8911610a1c57610a0e81836115b2565b87513d8a823e3d90fd5b60028b528691508a907f405787fa12a823e0f2b7631cc41b3ba8828b3321ca811111fa75cd3aa3bb5ace5b85831061134c5750506112049350820101386111f7565b8054838b018501528994508893909201918101611335565b60ff1916875261120495151560051b85010192503891506111f79050565b6113979192503d8086833e610abe81836115b2565b90386111c0565b50829034610726576113af3661163c565b9390835260209181835283209184519167ffffffffffffffff831161084f57506113d98354611a79565b601f8111611459575b5080601f8311600114611411575083948293949261079f5750508160011b916000199060031b1c191617905580f35b90601f198316958486528286209286905b888210611441575050836001959697106107db57505050811b01905580f35b80600185968294968601518155019501930190611422565b838552818520601f840160051c810191838510611492575b601f0160051c01905b81811061148757506113e2565b85815560010161147a565b9091508190611471565b92905034610178576020908160031936011261152d57358452600681528184208054856114c882611a79565b8087529260019280841690811561015457506001146114f257610115878761010b828c03836115b2565b9080949750528583205b82841061151a57505050826101159461010b928201019438806100fa565b80548685018801529286019281016114fc565b8480fd5b60005b8381106115445750506000910152565b8181015183820152602001611534565b604091602082526115748151809281602086015260208686019101611531565b601f01601f1916010190565b6060810190811067ffffffffffffffff82111761159c57604052565b634e487b7160e01b600052604160045260246000fd5b90601f8019910116810190811067ffffffffffffffff82111761159c57604052565b67ffffffffffffffff811161159c57601f01601f191660200190565b81601f8201121561163757803590611607826115d4565b9261161560405194856115b2565b8284526020838301011161163757816000926020809301838601378301015290565b600080fd5b90604060031983011261163757600435916024359067ffffffffffffffff82116116375761166c916004016115f0565b90565b6020818303126116375780519067ffffffffffffffff8211611637570181601f820112156116375780516116a2816115d4565b926116b060405194856115b2565b818452602082840101116116375761166c9160208085019101611531565b90816020910312611637575160ff811681036116375790565b906116f1826115d4565b6116fe60405191826115b2565b828152809261170f601f19916115d4565b0190602036910137565b8051156118615760405161172c81611580565b604081527f4142434445464748494a4b4c4d4e4f505152535455565758595a61626364656660208201527f6768696a6b6c6d6e6f707172737475767778797a303132333435363738392b2f6040820152815160029283820180921161184b576003918290046001600160fe1b038116810361184b576117ae908594951b6116e7565b936020850193829183518401925b8381106117fa57505050505106806001146117e7576002146117dc575090565b603d90600019015390565b50603d9081600019820153600119015390565b85600491979293949701918251600190603f9082828260121c16880101518453828282600c1c16880101518385015382828260061c16880101518885015316850101518782015301959291906117bc565b634e487b7160e01b600052601160045260246000fd5b506040516020810181811067ffffffffffffffff82111761159c576040526000815290565b806000917a184f03e93ff9f4daa797ed6e38ed64bf6a1f010000000000000000808210156119bb575b506d04ee2d6d415b85acef8100000000808310156119ac575b50662386f26fc100008083101561199d575b506305f5e1008083101561198e575b506127108083101561197f575b50606482101561196f575b600a80921015611965575b60019081602161191d8287016116e7565b95860101905b61192f575b5050505090565b600019019083906f181899199a1a9b1b9c1cb0b131b232b360811b8282061a83530491821561196057919082611923565b611928565b916001019161190c565b9190606460029104910191611901565b600491939204910191386118f6565b600891939204910191386118e9565b601091939204910191386118da565b602091939204910191386118c8565b6040935081049150386118af565b6040516306fdde0360e01b815290600082600481335afa918215611a6d57600092611a47575b5060226119fe61166c92611886565b926040519381611a18869351809260208087019101611531565b820161202360f01b6020820152611a388251809360208785019101611531565b010360028101845201826115b2565b6119fe611a6460229261166c94953d8091833e610abe81836115b2565b939250506119ef565b6040513d6000823e3d90fd5b90600182811c92168015611aa9575b6020831014611a9357565b634e487b7160e01b600052602260045260246000fd5b91607f1691611a88565b90600091600190815491611ac683611a79565b92818116908115611b1c5750600114611ade57505050565b809192939450600052600080516020611eaa833981519152906000915b848310611b09575050500190565b8181602092548587015201920191611afb565b60ff191683525050811515909102019150565b600092918154611b3e81611a79565b92600191808316908115611b975750600114611b5b575b50505050565b90919293945060005260209081600020906000915b858310611b865750505050019038808080611b55565b805485840152918301918101611b70565b60ff1916845250505081151590910201915038808080611b55565b611bbb33611cbd565b6040519081602091611bce838301611ab3565b68636f6e74726163742f60b81b8152611bf08251809386600985019101611531565b01602f60f81b600982015260009060035493611c0b85611a79565b94600190818116908115611c9a5750600114611c38575b50505061166c925003601f1981018352826115b2565b9091925060036000527fc2575a0e9e593c00f959f8c92f12db2869c3395a3b0502d05e2516446f71f85b906000915b868310611c83575050505061166c92600a910101388080611c22565b8054838601600a0152879550918301918101611c67565b915050600a935061166c95915060ff191683830152801515020101388080611c22565b604051906001600160a01b0316611cd382611580565b602a82526020908183016040368237835115611dca57603090538251600190811015611dca57607860218501536029905b808211611d58575050611d15575090565b6064906040519062461bcd60e51b825280600483015260248201527f537472696e67733a20686578206c656e67746820696e73756666696369656e746044820152fd5b9091600f81166010811015611db5578551841015611db5576f181899199a1a9b1b9c1cb0b131b232b360811b901a85840185015360041c918015611da0576000190190611d04565b60246000634e487b7160e01b81526011600452fd5b60246000634e487b7160e01b81526032600452fd5b634e487b7160e01b600052603260045260246000fd5b61166c601191611def30611cbd565b906000526006602052611e6c604060002060056020526001611e5e604060002092604051978896611e2260208901611ab3565b692f636f6e74726163742f60b01b8152611e46825180936020600a85019101611531565b01662f746f6b656e2f60c81b600a8201520190611b2f565b602f60f81b81520190611b2f565b03601f1981018352826115b2565b604051617b7d60f01b6020820152600281526040810181811067ffffffffffffffff82111761159c576040529056feb10e2d527612073b26eecdfd717e6a320cf44b4afac2b0732d9fcbe2b7fa0cf6a26469706673582212203dabc739771c8e6f68eb2ab2ac8412ac3a180aba7847d36163cef424177ca31d64736f6c63430008110033",
  "linkReferences": {},
  "deployedLinkReferences": {}
}