{
  "_format": "hh-sol-artifact-1",
  "contractName": "OrderCredit",
  "sourceName": "contracts/OrderCredit.sol",
  "abi": [
    {
      "inputs": [
        {
          "internalType": "address",
          "name": "serviceAddress_",
          "type": "address"
        },
        {
          "internalType": "address",
          "name": "slotRegistry_",
          "type": "address"
        },
        {
          "internalType": "string",
          "name": "name_",
          "type": "string"
        },
        {
          "internalType": "string",
          "name": "symbol_",
          "type": "string"
        },
        {
          "internalType": "string",
          "name": "baseuri_",
          "type": "string"
        },
        {
          "internalType": "string",
          "name": "contractDescription_",
          "type": "string"
        },
        {
          "internalType": "string",
          "name": "contractImage_",
          "type": "string"
        },
        {
          "internalType": "uint8",
          "name": "decimals_",
          "type": "uint8"
        }
      ],
      "stateMutability": "nonpayable",
      "type": "constructor"
    },
    {
      "anonymous": false,
      "inputs": [
        {
          "indexed": true,
          "internalType": "address",
          "name": "_owner",
          "type": "address"
        },
        {
          "indexed": true,
          "internalType": "address",
          "name": "_approved",
          "type": "address"
        },
        {
          "indexed": true,
          "internalType": "uint256",
          "name": "_tokenId",
          "type": "uint256"
        }
      ],
      "name": "Approval",
      "type": "event"
    },
    {
      "anonymous": false,
      "inputs": [
        {
          "indexed": true,
          "internalType": "address",
          "name": "_owner",
          "type": "address"
        },
        {
          "indexed": true,
          "internalType": "address",
          "name": "_operator",
          "type": "address"
        },
        {
          "indexed": false,
          "internalType": "bool",
          "name": "_approved",
          "type": "bool"
        }
      ],
      "name": "ApprovalForAll",
      "type": "event"
    },
    {
      "anonymous": false,
      "inputs": [
        {
          "indexed": true,
          "internalType": "uint256",
          "name": "_tokenId",
          "type": "uint256"
        },
        {
          "indexed": true,
          "internalType": "address",
          "name": "_operator",
          "type": "address"
        },
        {
          "indexed": false,
          "internalType": "uint256",
          "name": "_value",
          "type": "uint256"
        }
      ],
      "name": "ApprovalValue",
      "type": "event"
    },
    {
      "anonymous": false,
      "inputs": [
        {
          "indexed": false,
          "internalType": "address",
          "name": "contractAddress",
          "type": "address"
        }
      ],
      "name": "MetadataDescriptor",
      "type": "event"
    },
    {
      "anonymous": false,
      "inputs": [
        {
          "indexed": false,
          "internalType": "uint256",
          "name": "tokenId",
          "type": "uint256"
        },
        {
          "indexed": false,
          "internalType": "uint256",
          "name": "slot",
          "type": "uint256"
        },
        {
          "indexed": false,
          "internalType": "uint256",
          "name": "value",
          "type": "uint256"
        }
      ],
      "name": "MintServiceToken",
      "type": "event"
    },
    {
      "anonymous": false,
      "inputs": [
        {
          "indexed": true,
          "internalType": "address",
          "name": "previousOwner",
          "type": "address"
        },
        {
          "indexed": true,
          "internalType": "address",
          "name": "newOwner",
          "type": "address"
        }
      ],
      "name": "OwnershipTransferred",
      "type": "event"
    },
    {
      "anonymous": false,
      "inputs": [
        {
          "indexed": true,
          "internalType": "address",
          "name": "metadataDescriptor",
          "type": "address"
        }
      ],
      "name": "SetMetadataDescriptor",
      "type": "event"
    },
    {
      "anonymous": false,
      "inputs": [
        {
          "indexed": true,
          "internalType": "uint256",
          "name": "_tokenId",
          "type": "uint256"
        },
        {
          "indexed": true,
          "internalType": "uint256",
          "name": "_oldSlot",
          "type": "uint256"
        },
        {
          "indexed": true,
          "internalType": "uint256",
          "name": "_newSlot",
          "type": "uint256"
        }
      ],
      "name": "SlotChanged",
      "type": "event"
    },
    {
      "anonymous": false,
      "inputs": [
        {
          "indexed": true,
          "internalType": "address",
          "name": "_from",
          "type": "address"
        },
        {
          "indexed": true,
          "internalType": "address",
          "name": "_to",
          "type": "address"
        },
        {
          "indexed": true,
          "internalType": "uint256",
          "name": "_tokenId",
          "type": "uint256"
        }
      ],
      "name": "Transfer",
      "type": "event"
    },
    {
      "anonymous": false,
      "inputs": [
        {
          "indexed": true,
          "internalType": "uint256",
          "name": "_fromTokenId",
          "type": "uint256"
        },
        {
          "indexed": true,
          "internalType": "uint256",
          "name": "_toTokenId",
          "type": "uint256"
        },
        {
          "indexed": false,
          "internalType": "uint256",
          "name": "_value",
          "type": "uint256"
        }
      ],
      "name": "TransferValue",
      "type": "event"
    },
    {
      "inputs": [
        {
          "internalType": "string",
          "name": "uri_",
          "type": "string"
        }
      ],
      "name": "_setBaseURI",
      "outputs": [],
      "stateMutability": "nonpayable",
      "type": "function"
    },
    {
      "inputs": [
        {
          "internalType": "uint256",
          "name": "tokenId_",
          "type": "uint256"
        },
        {
          "internalType": "address",
          "name": "operator_",
          "type": "address"
        }
      ],
      "name": "allowance",
      "outputs": [
        {
          "internalType": "uint256",
          "name": "",
          "type": "uint256"
        }
      ],
      "stateMutability": "view",
      "type": "function"
    },
    {
      "inputs": [
        {
          "internalType": "address",
          "name": "to_",
          "type": "address"
        },
        {
          "internalType": "uint256",
          "name": "tokenId_",
          "type": "uint256"
        }
      ],
      "name": "approve",
      "outputs": [],
      "stateMutability": "payable",
      "type": "function"
    },
    {
      "inputs": [
        {
          "internalType": "uint256",
          "name": "tokenId_",
          "type": "uint256"
        },
        {
          "internalType": "address",
          "name": "to_",
          "type": "address"
        },
        {
          "internalType": "uint256",
          "name": "value_",
          "type": "uint256"
        }
      ],
      "name": "approve",
      "outputs": [],
      "stateMutability": "payable",
      "type": "function"
    },
    {
      "inputs": [
        {
          "internalType": "address",
          "name": "owner_",
          "type": "address"
        }
      ],
      "name": "balanceOf",
      "outputs": [
        {
          "internalType": "uint256",
          "name": "balance",
          "type": "uint256"
        }
      ],
      "stateMutability": "view",
      "type": "function"
    },
    {
      "inputs": [
        {
          "internalType": "uint256",
          "name": "tokenId_",
          "type": "uint256"
        }
      ],
      "name": "balanceOf",
      "outputs": [
        {
          "internalType": "uint256",
          "name": "",
          "type": "uint256"
        }
      ],
      "stateMutability": "view",
      "type": "function"
    },
    {
      "inputs": [],
      "name": "contractURI",
      "outputs": [
        {
          "internalType": "string",
          "name": "",
          "type": "string"
        }
      ],
      "stateMutability": "view",
      "type": "function"
    },
    {
      "inputs": [
        {
          "internalType": "uint256",
          "name": "index",
          "type": "uint256"
        }
      ],
      "name": "dequeue",
      "outputs": [],
      "stateMutability": "nonpayable",
      "type": "function"
    },
    {
      "inputs": [
        {
          "internalType": "address",
          "name": "owner_",
          "type": "address"
        },
        {
          "internalType": "uint256",
          "name": "slot_",
          "type": "uint256"
        },
        {
          "internalType": "string",
          "name": "uuid_",
          "type": "string"
        },
        {
          "internalType": "string",
          "name": "token_description_",
          "type": "string"
        },
        {
          "internalType": "string",
          "name": "token_image_",
          "type": "string"
        }
      ],
      "name": "enqueue",
      "outputs": [
        {
          "internalType": "uint256",
          "name": "",
          "type": "uint256"
        }
      ],
      "stateMutability": "nonpayable",
      "type": "function"
    },
    {
      "inputs": [
        {
          "internalType": "uint256",
          "name": "tokenId_",
          "type": "uint256"
        }
      ],
      "name": "getApproved",
      "outputs": [
        {
          "internalType": "address",
          "name": "",
          "type": "address"
        }
      ],
      "stateMutability": "view",
      "type": "function"
    },
    {
      "inputs": [
        {
          "internalType": "address",
          "name": "owner_",
          "type": "address"
        },
        {
          "internalType": "address",
          "name": "operator_",
          "type": "address"
        }
      ],
      "name": "isApprovedForAll",
      "outputs": [
        {
          "internalType": "bool",
          "name": "",
          "type": "bool"
        }
      ],
      "stateMutability": "view",
      "type": "function"
    },
    {
      "inputs": [],
      "name": "metadataDescriptor",
      "outputs": [
        {
          "internalType": "contract IERC3525MetadataDescriptor",
          "name": "",
          "type": "address"
        }
      ],
      "stateMutability": "view",
      "type": "function"
    },
    {
      "inputs": [
        {
          "internalType": "address",
          "name": "owner_",
          "type": "address"
        },
        {
          "internalType": "uint256",
          "name": "slot_",
          "type": "uint256"
        },
        {
          "internalType": "uint256",
          "name": "value_",
          "type": "uint256"
        },
        {
          "internalType": "string",
          "name": "uuid_",
          "type": "string"
        },
        {
          "internalType": "string",
          "name": "token_description_",
          "type": "string"
        },
        {
          "internalType": "string",
          "name": "token_image_",
          "type": "string"
        }
      ],
      "name": "mint",
      "outputs": [
        {
          "internalType": "uint256",
          "name": "",
          "type": "uint256"
        }
      ],
      "stateMutability": "nonpayable",
      "type": "function"
    },
    {
      "inputs": [],
      "name": "name",
      "outputs": [
        {
          "internalType": "string",
          "name": "",
          "type": "string"
        }
      ],
      "stateMutability": "view",
      "type": "function"
    },
    {
      "inputs": [],
      "name": "owner",
      "outputs": [
        {
          "internalType": "address",
          "name": "",
          "type": "address"
        }
      ],
      "stateMutability": "view",
      "type": "function"
    },
    {
      "inputs": [
        {
          "internalType": "uint256",
          "name": "tokenId_",
          "type": "uint256"
        }
      ],
      "name": "ownerOf",
      "outputs": [
        {
          "internalType": "address",
          "name": "owner_",
          "type": "address"
        }
      ],
      "stateMutability": "view",
      "type": "function"
    },
    {
      "inputs": [],
      "name": "renounceOwnership",
      "outputs": [],
      "stateMutability": "nonpayable",
      "type": "function"
    },
    {
      "inputs": [
        {
          "internalType": "address",
          "name": "from_",
          "type": "address"
        },
        {
          "internalType": "address",
          "name": "to_",
          "type": "address"
        },
        {
          "internalType": "uint256",
          "name": "tokenId_",
          "type": "uint256"
        }
      ],
      "name": "safeTransferFrom",
      "outputs": [],
      "stateMutability": "payable",
      "type": "function"
    },
    {
      "inputs": [
        {
          "internalType": "address",
          "name": "from_",
          "type": "address"
        },
        {
          "internalType": "address",
          "name": "to_",
          "type": "address"
        },
        {
          "internalType": "uint256",
          "name": "tokenId_",
          "type": "uint256"
        },
        {
          "internalType": "bytes",
          "name": "data_",
          "type": "bytes"
        }
      ],
      "name": "safeTransferFrom",
      "outputs": [],
      "stateMutability": "payable",
      "type": "function"
    },
    {
      "inputs": [
        {
          "internalType": "address",
          "name": "operator_",
          "type": "address"
        },
        {
          "internalType": "bool",
          "name": "approved_",
          "type": "bool"
        }
      ],
      "name": "setApprovalForAll",
      "outputs": [],
      "stateMutability": "nonpayable",
      "type": "function"
    },
    {
      "inputs": [
        {
          "internalType": "uint256",
          "name": "tokenId_",
          "type": "uint256"
        }
      ],
      "name": "slotOf",
      "outputs": [
        {
          "internalType": "uint256",
          "name": "",
          "type": "uint256"
        }
      ],
      "stateMutability": "view",
      "type": "function"
    },
    {
      "inputs": [
        {
          "internalType": "uint256",
          "name": "slot_",
          "type": "uint256"
        }
      ],
      "name": "slotURI",
      "outputs": [
        {
          "internalType": "string",
          "name": "",
          "type": "string"
        }
      ],
      "stateMutability": "view",
      "type": "function"
    },
    {
      "inputs": [
        {
          "internalType": "bytes4",
          "name": "interfaceId",
          "type": "bytes4"
        }
      ],
      "name": "supportsInterface",
      "outputs": [
        {
          "internalType": "bool",
          "name": "",
          "type": "bool"
        }
      ],
      "stateMutability": "view",
      "type": "function"
    },
    {
      "inputs": [],
      "name": "symbol",
      "outputs": [
        {
          "internalType": "string",
          "name": "",
          "type": "string"
        }
      ],
      "stateMutability": "view",
      "type": "function"
    },
    {
      "inputs": [
        {
          "internalType": "uint256",
          "name": "index_",
          "type": "uint256"
        }
      ],
      "name": "tokenByIndex",
      "outputs": [
        {
          "internalType": "uint256",
          "name": "",
          "type": "uint256"
        }
      ],
      "stateMutability": "view",
      "type": "function"
    },
    {
      "inputs": [
        {
          "internalType": "address",
          "name": "owner_",
          "type": "address"
        },
        {
          "internalType": "uint256",
          "name": "index_",
          "type": "uint256"
        }
      ],
      "name": "tokenOfOwnerByIndex",
      "outputs": [
        {
          "internalType": "uint256",
          "name": "",
          "type": "uint256"
        }
      ],
      "stateMutability": "view",
      "type": "function"
    },
    {
      "inputs": [
        {
          "internalType": "uint256",
          "name": "tokenId_",
          "type": "uint256"
        }
      ],
      "name": "tokenURI",
      "outputs": [
        {
          "internalType": "string",
          "name": "",
          "type": "string"
        }
      ],
      "stateMutability": "view",
      "type": "function"
    },
    {
      "inputs": [],
      "name": "totalSupply",
      "outputs": [
        {
          "internalType": "uint256",
          "name": "",
          "type": "uint256"
        }
      ],
      "stateMutability": "view",
      "type": "function"
    },
    {
      "inputs": [
        {
          "internalType": "uint256",
          "name": "fromTokenId_",
          "type": "uint256"
        },
        {
          "internalType": "address",
          "name": "to_",
          "type": "address"
        },
        {
          "internalType": "uint256",
          "name": "value_",
          "type": "uint256"
        }
      ],
      "name": "transferFrom",
      "outputs": [
        {
          "internalType": "uint256",
          "name": "",
          "type": "uint256"
        }
      ],
      "stateMutability": "payable",
      "type": "function"
    },
    {
      "inputs": [
        {
          "internalType": "address",
          "name": "from_",
          "type": "address"
        },
        {
          "internalType": "address",
          "name": "to_",
          "type": "address"
        },
        {
          "internalType": "uint256",
          "name": "tokenId_",
          "type": "uint256"
        }
      ],
      "name": "transferFrom",
      "outputs": [],
      "stateMutability": "payable",
      "type": "function"
    },
    {
      "inputs": [
        {
          "internalType": "uint256",
          "name": "fromTokenId_",
          "type": "uint256"
        },
        {
          "internalType": "uint256",
          "name": "toTokenId_",
          "type": "uint256"
        },
        {
          "internalType": "uint256",
          "name": "value_",
          "type": "uint256"
        }
      ],
      "name": "transferFrom",
      "outputs": [],
      "stateMutability": "payable",
      "type": "function"
    },
    {
      "inputs": [
        {
          "internalType": "address",
          "name": "newOwner",
          "type": "address"
        }
      ],
      "name": "transferOwnership",
      "outputs": [],
      "stateMutability": "nonpayable",
      "type": "function"
    },
    {
      "inputs": [],
      "name": "valueDecimals",
      "outputs": [
        {
          "internalType": "uint8",
          "name": "",
          "type": "uint8"
        }
      ],
      "stateMutability": "view",
      "type": "function"
    }
  ],
  "bytecode": "0x60806040523480156200001157600080fd5b5060405162005d7238038062005d728339810160408190526200003491620002b4565b878787878787878785858260006200004d84826200045d565b5060016200005c83826200045d565b506002805460ff191660ff9290921691909117905550620000869050620000803390565b62000158565b600a80546001600160a01b0319166001600160a01b038a16179055600b620000af85826200045d565b50600b838389604051620000c390620001aa565b620000d2949392919062000557565b604051809103906000f080158015620000ef573d6000803e3d6000fd5b50600880546001600160a01b0319166001600160a01b039290921691821790556040519081527f9ac4f8025631594629895b778dc5ee88d01673a254a2291f6b6b174ad25230ca9060200160405180910390a1505050505050505050505050505050506200062f565b600980546001600160a01b038381166001600160a01b0319831681179093556040519116919082907f8be0079c531659141344cd1fd0a4f28419497f9722a3daafe3b4186f6b6457e090600090a35050565b611a46806200432c83390190565b80516001600160a01b0381168114620001d057600080fd5b919050565b634e487b7160e01b600052604160045260246000fd5b60005b8381101562000208578181015183820152602001620001ee565b50506000910152565b600082601f8301126200022357600080fd5b81516001600160401b0380821115620002405762000240620001d5565b604051601f8301601f19908116603f011681019082821181831017156200026b576200026b620001d5565b816040528381528660208588010111156200028557600080fd5b62000298846020830160208901620001eb565b9695505050505050565b805160ff81168114620001d057600080fd5b600080600080600080600080610100898b031215620002d257600080fd5b620002dd89620001b8565b9750620002ed60208a01620001b8565b60408a01519097506001600160401b03808211156200030b57600080fd5b620003198c838d0162000211565b975060608b01519150808211156200033057600080fd5b6200033e8c838d0162000211565b965060808b01519150808211156200035557600080fd5b620003638c838d0162000211565b955060a08b01519150808211156200037a57600080fd5b620003888c838d0162000211565b945060c08b01519150808211156200039f57600080fd5b50620003ae8b828c0162000211565b925050620003bf60e08a01620002a2565b90509295985092959890939650565b600181811c90821680620003e357607f821691505b6020821081036200040457634e487b7160e01b600052602260045260246000fd5b50919050565b601f8211156200045857600081815260208120601f850160051c81016020861015620004335750805b601f850160051c820191505b8181101562000454578281556001016200043f565b5050505b505050565b81516001600160401b03811115620004795762000479620001d5565b62000491816200048a8454620003ce565b846200040a565b602080601f831160018114620004c95760008415620004b05750858301515b600019600386901b1c1916600185901b17855562000454565b600085815260208120601f198616915b82811015620004fa57888601518255948401946001909101908401620004d9565b5085821015620005195787850151600019600388901b60f8161c191681555b5050505050600190811b01905550565b6000815180845262000543816020860160208601620001eb565b601f01601f19169290920160200192915050565b6080815260008086546200056b81620003ce565b80608086015260a0600180841660008114620005905760018114620005ab57620005de565b60ff1985168884015283151560051b880183019550620005de565b8b60005260208060002060005b86811015620005d55781548b8201870152908401908201620005b8565b8a018501975050505b50505050508281036020840152620005f7818762000529565b905082810360408401526200060d818662000529565b9150506200062660608301846001600160a01b03169052565b95945050505050565b613ced806200063f6000396000f3fe6080604052600436106101ee5760003560e01c806353a3a3001161010d5780639cc7f708116100a0578063e345e0bc1161006f578063e345e0bc14610536578063e8a3d48514610556578063e985e9c51461056b578063f2fde38b146105b8578063f4b724bc146105d857600080fd5b80639cc7f708146104c3578063a22cb465146104e3578063b88d4fde14610503578063c87b56dd1461051657600080fd5b8063840f7113116100dc578063840f71131461045d5780638cb0a5111461047d5780638da5cb5b1461049057806395d89b41146104ae57600080fd5b806353a3a300146103e85780636352211e1461040857806370a0823114610428578063715018a61461044857600080fd5b8063263f3e7e116101855780633e7e8669116101545780633e7e86691461037357806342842e0e14610395578063476de4a8146103a85780634f6ccce7146103c857600080fd5b8063263f3e7e146103005780632f745c5914610320578063310ed7f01461034057806331b5b9071461035357600080fd5b806309c3dd87116101c157806309c3dd87146102975780630f485c02146102b757806318160ddd146102d857806323b872dd146102ed57600080fd5b806301ffc9a7146101f357806306fdde0314610228578063081812fc1461024a578063095ea7b314610282575b600080fd5b3480156101ff57600080fd5b5061021361020e3660046132ee565b6105f8565b60405190151581526020015b60405180910390f35b34801561023457600080fd5b5061023d61069b565b60405161021f919061335b565b34801561025657600080fd5b5061026a61026536600461336e565b61072d565b6040516001600160a01b03909116815260200161021f565b61029561029036600461339e565b61077f565b005b3480156102a357600080fd5b5061023d6102b236600461336e565b610863565b6102ca6102c53660046133c8565b610948565b60405190815260200161021f565b3480156102e457600080fd5b506005546102ca565b6102956102fb3660046133fd565b6109b1565b34801561030c57600080fd5b506102ca61031b36600461336e565b6109bc565b34801561032c57600080fd5b506102ca61033b36600461339e565b610a04565b61029561034e366004613429565b610aa5565b34801561035f57600080fd5b5061029561036e366004613522565b610aff565b34801561037f57600080fd5b5060025460405160ff909116815260200161021f565b6102956103a33660046133fd565b610b71565b3480156103b457600080fd5b506102ca6103c3366004613557565b610b8c565b3480156103d457600080fd5b506102ca6103e336600461336e565b610c5c565b3480156103f457600080fd5b5061029561040336600461336e565b610ced565b34801561041457600080fd5b5061026a61042336600461336e565b610e16565b34801561043457600080fd5b506102ca610443366004613602565b610eb2565b34801561045457600080fd5b50610295610f3a565b34801561046957600080fd5b5060085461026a906001600160a01b031681565b61029561048b3660046133c8565b610f4e565b34801561049c57600080fd5b506009546001600160a01b031661026a565b3480156104ba57600080fd5b5061023d611007565b3480156104cf57600080fd5b506102ca6104de36600461336e565b611016565b3480156104ef57600080fd5b506102956104fe36600461362b565b61105e565b610295610511366004613662565b6110a4565b34801561052257600080fd5b5061023d61053136600461336e565b6110d6565b34801561054257600080fd5b506102ca6105513660046136de565b611168565b34801561056257600080fd5b5061023d61119c565b34801561057757600080fd5b5061021361058636600461370a565b6001600160a01b0391821660009081526007602090815260408083209390941682526002909201909152205460ff1690565b3480156105c457600080fd5b506102956105d3366004613602565b611289565b3480156105e457600080fd5b506102ca6105f3366004613734565b611302565b60006001600160e01b031982166301ffc9a760e01b148061062957506001600160e01b03198216630354d60560e61b145b8061064457506001600160e01b031982166380ac58cd60e01b145b8061065f57506001600160e01b031982166370b0048160e11b145b8061067a57506001600160e01b0319821663780e9d6360e01b145b8061069557506001600160e01b03198216635b5e139f60e01b145b92915050565b6060600080546106aa906137d7565b80601f01602080910402602001604051908101604052809291908181526020018280546106d6906137d7565b80156107235780601f106106f857610100808354040283529160200191610723565b820191906000526020600020905b81548152906001019060200180831161070657829003601f168201915b5050505050905090565b600061073882611329565b60008281526006602052604090205460058054909190811061075c5761075c613811565b60009182526020909120600460069092020101546001600160a01b031692915050565b600061078a82610e16565b9050806001600160a01b0316836001600160a01b0316036107c65760405162461bcd60e51b81526004016107bd90613827565b60405180910390fd5b336001600160a01b03821614806107e257506107e28133610586565b6108545760405162461bcd60e51b815260206004820152603960248201527f455243333532353a20617070726f76652063616c6c6572206973206e6f74206f60448201527f776e6572206e6f7220617070726f76656420666f7220616c6c0000000000000060648201526084016107bd565b61085e838361137a565b505050565b6060600061086f611411565b6008549091506001600160a01b03166108cf5760008151116108a05760405180602001604052806000815250610941565b806108aa84611420565b6040516020016108bb929190613869565b604051602081830303815290604052610941565b600854604051633601bfc560e11b8152600481018590526001600160a01b0390911690636c037f8a906024015b600060405180830381865afa158015610919573d6000803e3d6000fd5b505050506040513d6000823e601f3d908101601f1916820160405261094191908101906138a9565b9392505050565b600061095384611016565b82146109715760405162461bcd60e51b81526004016107bd90613920565b600061097e8585856114b3565b905080600f848154811061099457610994613811565b6000918252602090912001556109a9856114c0565b949350505050565b61085e8383836115cf565b60006109c782611329565b6000828152600660205260409020546005805490919081106109eb576109eb613811565b9060005260206000209060060201600101549050919050565b6000610a0f83610eb2565b8210610a685760405162461bcd60e51b815260206004820152602260248201527f455243333532353a206f776e657220696e646578206f7574206f6620626f756e604482015261647360f01b60648201526084016107bd565b6001600160a01b0383166000908152600760205260409020805483908110610a9257610a92613811565b9060005260206000200154905092915050565b610aae83611016565b8114610acc5760405162461bcd60e51b81526004016107bd90613920565b6000610ad783611016565b9050610ae383826115da565b610aee8484846116d9565b610af98385836116d9565b50505050565b600b610b0b82826139b6565b506008546040516355f804b360e01b81526001600160a01b03909116906355f804b390610b3c90849060040161335b565b600060405180830381600087803b158015610b5657600080fd5b505af1158015610b6a573d6000803e3d6000fd5b5050505050565b61085e838383604051806020016040528060008152506110a4565b6000610b9760055490565b8514610c0b5760405162461bcd60e51b815260206004820152603c60248201527f4f726465724372656469743a204e657720746f6b656e732063616e206f6e6c7960448201527f206d696e7420746f2074686520656e64206f6620746865206c6973740000000060648201526084016107bd565b6000610c1b8888888888886116e4565b600f80546001810182556000919091527f8d1108e10bcb7c27dddfc02ed9d693a074039d026cf4ea4240b40f7d581ac8020181905598975050505050505050565b6000610c6760055490565b8210610cc15760405162461bcd60e51b815260206004820152602360248201527f455243333532353a20676c6f62616c20696e646578206f7574206f6620626f756044820152626e647360e81b60648201526084016107bd565b60058281548110610cd457610cd4613811565b9060005260206000209060060201600001549050919050565b6000610cf860055490565b905060008111610d4a5760405162461bcd60e51b815260206004820152601a60248201527f4f726465724372656469743a204c69737420697320656d70747900000000000060448201526064016107bd565b610d70600f8381548110610d6057610d60613811565b90600052602060002001546114c0565b815b8181101561085e5781610d86826001613a8c565b1015610e0657610dbe600f610d9c836001613a8c565b81548110610dac57610dac613811565b906000526020600020015460016118d8565b600f610dcb826001613a8c565b81548110610ddb57610ddb613811565b9060005260206000200154600f8281548110610df957610df9613811565b6000918252602090912001555b610e0f81613a9f565b9050610d72565b6000610e2182611329565b600082815260066020526040902054600580549091908110610e4557610e45613811565b60009182526020909120600360069092020101546001600160a01b0316905080610ead5760405162461bcd60e51b8152602060048201526019602482015278115490cccd4c8d4e881a5b9d985b1a59081d1bdad95b881251603a1b60448201526064016107bd565b919050565b60006001600160a01b038216610f1e5760405162461bcd60e51b815260206004820152602b60248201527f455243333532353a2062616c616e636520717565727920666f7220746865207a60448201526a65726f206164647265737360a81b60648201526084016107bd565b506001600160a01b031660009081526007602052604090205490565b610f42611901565b610f4c600061195b565b565b6000610f5984610e16565b9050806001600160a01b0316836001600160a01b031603610f8c5760405162461bcd60e51b81526004016107bd90613827565b610f9633856119ad565b610ffc5760405162461bcd60e51b815260206004820152603160248201527f455243333532353a20617070726f76652063616c6c6572206973206e6f74206f6044820152701ddb995c881b9bdc88185c1c1c9bdd9959607a1b60648201526084016107bd565b610af9848484611a2f565b6060600180546106aa906137d7565b600061102182611329565b60008281526006602052604090205460058054909190811061104557611045613811565b9060005260206000209060060201600201549050919050565b6110688282611b67565b336000908152600e602090815260408083206001600160a01b039590951683526002909401905291909120805460ff1916911515919091179055565b6110ae33836119ad565b6110ca5760405162461bcd60e51b81526004016107bd90613ab8565b610af984848484611b71565b60606110e182611329565b60006110eb611411565b6008549091506001600160a01b031661113757600081511161111c5760405180602001604052806000815250610941565b8061112684611420565b6040516020016108bb929190613b0a565b6008546040516344a5a61760e11b8152600481018590526001600160a01b039091169063894b4c2e906024016108fc565b600061117383611329565b5060009182526004602090815260408084206001600160a01b0393909316845291905290205490565b606060006111a8611411565b6008549091506001600160a01b03166112085760008151116111d95760405180602001604052806000815250611283565b806111e330611be4565b6040516020016111f4929190613b39565b604051602081830303815290604052611283565b600860009054906101000a90046001600160a01b03166001600160a01b031663725fa09c6040518163ffffffff1660e01b8152600401600060405180830381865afa15801561125b573d6000803e3d6000fd5b505050506040513d6000823e601f3d908101601f1916820160405261128391908101906138a9565b91505090565b611291611901565b6001600160a01b0381166112f65760405162461bcd60e51b815260206004820152602660248201527f4f776e61626c653a206e6577206f776e657220697320746865207a65726f206160448201526564647265737360d01b60648201526084016107bd565b6112ff8161195b565b50565b60008061130e60055490565b905061131e878783888888610b8c565b979650505050505050565b61133281611bfa565b6112ff5760405162461bcd60e51b8152602060048201526019602482015278115490cccd4c8d4e881a5b9d985b1a59081d1bdad95b881251603a1b60448201526064016107bd565b60008181526006602052604090205460058054849290811061139e5761139e613811565b6000918252602090912060069091020160040180546001600160a01b0319166001600160a01b03928316179055819083166113d882610e16565b6001600160a01b03167f8c5be1e5ebec7d5bd14f71427d1e84f3dd0314c0f7b2291e5b200ac8c7c3b92560405160405180910390a45050565b6060600b80546106aa906137d7565b6060600061142d83611c46565b600101905060008167ffffffffffffffff81111561144d5761144d613455565b6040519080825280601f01601f191660200182016040528015611477576020820181803683370190505b5090508181016020015b600019016f181899199a1a9b1b9c1cb0b131b232b360811b600a86061a8153600a850494508461148157509392505050565b60006109a9848484611d1e565b6114c981611329565b6000818152600660205260408120546005805490919081106114ed576114ed613811565b60009182526020909120600691909102016003810154600182015460028301549293506001600160a01b039091169161152585611d56565b61152f8386611e01565b61153885611f22565b600085600080516020613c988339815191528360405161155a91815260200190565b60405180910390a3600082867fe4f48c240d3b994948aa54f3e2f5fca59263dfe1d52b6e4cf39a5d249b5ccb6560405160405180910390a460405185906000906001600160a01b038616907fddf252ad1be2c89b69c2b068fc378daa952ba7f163c4a11628f55a4df523b3ef908390a4610b6a565b61085e838383612130565b6115e382611329565b60008281526006602052604081205460058054909190811061160757611607613811565b600091825260209091206006909102016003810154600182015460028301549293506001600160a01b0390911691848110156116915760405162461bcd60e51b815260206004820152602360248201527f455243333532353a206275726e2076616c756520657863656564732062616c616044820152626e636560e81b60648201526084016107bd565b848460020160008282546116a59190613b7d565b90915550506040518581526000908790600080516020613c988339815191529060200160405180910390a35b505050505050565b61085e838383612161565b60006116ee611901565b60006116f8612177565b90506117068882898961218e565b6040805160c08101825282815260208082018a90528183018990526001600160a01b038b166060830152600060808301819052835181815291820190935260a08201529050611754816122b3565b61175e8983612405565b600854604051632108947560e21b81526001600160a01b039091169063842251d4906117909085908a90600401613b90565b600060405180830381600087803b1580156117aa57600080fd5b505af11580156117be573d6000803e3d6000fd5b505060085460405163246a908b60e01b81526001600160a01b03909116925063246a908b91506117f49085908990600401613b90565b600060405180830381600087803b15801561180e57600080fd5b505af1158015611822573d6000803e3d6000fd5b5050600854604051630190503b60e61b81526001600160a01b0390911692506364140ec091506118589085908890600401613b90565b600060405180830381600087803b15801561187257600080fd5b505af1158015611886573d6000803e3d6000fd5b505060408051858152602081018c90529081018a90527f84eeb48eca46cea54afc9753345f6038981672ea565f32885420829dfd88aea69250606001905060405180910390a150979650505050505050565b60006118e383610e16565b905060006118f0846109bc565b90506118fc848461248e565b610af9565b6009546001600160a01b03163314610f4c5760405162461bcd60e51b815260206004820181905260248201527f4f776e61626c653a2063616c6c6572206973206e6f7420746865206f776e657260448201526064016107bd565b600980546001600160a01b038381166001600160a01b0319831681179093556040519116919082907f8be0079c531659141344cd1fd0a4f28419497f9722a3daafe3b4186f6b6457e090600090a35050565b6000806119b983610e16565b9050806001600160a01b0316846001600160a01b03161480611a0457506001600160a01b038082166000908152600760209081526040808320938816835260029093019052205460ff165b806109a95750836001600160a01b0316611a1d8461072d565b6001600160a01b031614949350505050565b6001600160a01b038216611a985760405162461bcd60e51b815260206004820152602a60248201527f455243333532353a20617070726f76652076616c756520746f20746865207a65604482015269726f206164647265737360b01b60648201526084016107bd565b611aa28284612501565b611b0857600083815260066020526040902054600580549091908110611aca57611aca613811565b60009182526020808320600692909202909101600501805460018101825590835291200180546001600160a01b0319166001600160a01b0384161790555b60008381526004602090815260408083206001600160a01b038616808552908352928190208490555183815285917f621b050de0ad08b51d19b48b3e6df75348c4de6bdd93e81b252ca62e28265b1b91015b60405180910390a3505050565b61106882826125d4565b611b7c8484846125e3565b611b8884848484612744565b610af95760405162461bcd60e51b815260206004820152602760248201527f455243333532353a207472616e7366657220746f206e6f6e204552433732315260448201526632b1b2b4bb32b960c91b60648201526084016107bd565b60606106956001600160a01b0383166014612890565b600554600090158015906106955750600082815260066020526040902054600580548492908110611c2d57611c2d613811565b9060005260206000209060060201600001541492915050565b60008072184f03e93ff9f4daa797ed6e38ed64bf6a1f0160401b8310611c855772184f03e93ff9f4daa797ed6e38ed64bf6a1f0160401b830492506040015b6d04ee2d6d415b85acef81000000008310611cb1576d04ee2d6d415b85acef8100000000830492506020015b662386f26fc100008310611ccf57662386f26fc10000830492506010015b6305f5e1008310611ce7576305f5e100830492506008015b6127108310611cfb57612710830492506004015b60648310611d0d576064830492506002015b600a83106106955760010192915050565b6000611d2b338584612a2c565b611d3484612abc565b9050611d4b8382611d44876109bc565b600061218e565b610941848284612ac6565b600081815260066020526040812054600580549091908110611d7a57611d7a613811565b600091825260208220600560069092020190810154909250905b81811015611df2576000836005018281548110611db357611db3613811565b60009182526020808320909101548783526004825260408084206001600160a01b03909216845291528120555080611dea81613a9f565b915050611d94565b5061085e600583016000613240565b600081815260066020526040812054600580549091908110611e2557611e25613811565b6000918252602080832060069290920290910160030180546001600160a01b0319166001600160a01b0394851617905591841681526007909152604081208054909190611e7490600190613b7d565b90506000826000018281548110611e8d57611e8d613811565b90600052602060002001549050600083600101600086815260200190815260200160002054905081846000018281548110611eca57611eca613811565b60009182526020808320909101929092558381526001860190915260408082208390558682528120558354849080611f0457611f04613ba9565b60019003818190600052602060002001600090559055505050505050565b600554600090611f3490600190613b7d565b60008381526006602052604081205460058054939450909284908110611f5c57611f5c613811565b60009182526020918290206040805160c08101825260069093029091018054835260018101548385015260028101548383015260038101546001600160a01b03908116606085015260048201541660808401526005810180548351818702810187019094528084529394919360a08601939283018282801561200757602002820191906000526020600020905b81546001600160a01b03168152600190910190602001808311611fe9575b5050505050815250509050806005838154811061202657612026613811565b600091825260209182902083516006909202019081558282015160018201556040830151600282015560608301516003820180546001600160a01b039283166001600160a01b031991821617909155608085015160048401805491909316911617905560a0830151805191926120a49260058501929091019061325e565b505081516000908152600660205260408082208590558682528120555060058054806120d2576120d2613ba9565b60008281526020812060066000199093019283020181815560018101829055600281018290556003810180546001600160a01b03199081169091556004820180549091169055906121266005830182613240565b5050905550505050565b61213a33826119ad565b6121565760405162461bcd60e51b81526004016107bd90613ab8565b61085e8383836125e3565b61216c338483612a2c565b61085e838383612ac6565b6000612187600380546001019055565b5060035490565b6001600160a01b0384166121ee5760405162461bcd60e51b815260206004820152602160248201527f455243333532353a206d696e7420746f20746865207a65726f206164647265736044820152607360f81b60648201526084016107bd565b826000036122485760405162461bcd60e51b815260206004820152602160248201527f455243333532353a2063616e6e6f74206d696e74207a65726f20746f6b656e496044820152601960fa1b60648201526084016107bd565b61225183611bfa565b1561229e5760405162461bcd60e51b815260206004820152601d60248201527f455243333532353a20746f6b656e20616c7265616479206d696e74656400000060448201526064016107bd565b6122a9848484612da5565b6118fc838261248e565b600c805482516000908152600d6020908152604080832084905560018401855593909152835160069092027fdf6966c971051c3d54ec59162606531493a51404a002842f56009d7e5cf4a8c78101928355818501517fdf6966c971051c3d54ec59162606531493a51404a002842f56009d7e5cf4a8c8820155928401517fdf6966c971051c3d54ec59162606531493a51404a002842f56009d7e5cf4a8c984015560608401517fdf6966c971051c3d54ec59162606531493a51404a002842f56009d7e5cf4a8ca840180546001600160a01b039283166001600160a01b03199182161790915560808601517fdf6966c971051c3d54ec59162606531493a51404a002842f56009d7e5cf4a8cb8601805491909316911617905560a084015180518594610af9937fdf6966c971051c3d54ec59162606531493a51404a002842f56009d7e5cf4a8cc90910192019061325e565b6000818152600d6020526040902054600c8054849290811061242957612429613811565b6000918252602080832060069290920290910160030180546001600160a01b0319166001600160a01b03948516179055939091168152600e80845260408083208054858552600182810188529285208190559286529082018155825292902090910155565b6000828152600660205260409020546005805483929081106124b2576124b2613811565b906000526020600020906006020160020160008282546124d29190613a8c565b90915550506040518181528290600090600080516020613c988339815191529060200160405180910390a35050565b60008181526006602052604081205460058054839290811061252557612525613811565b6000918252602082206005600690920201015491505b818110156125c957600084815260066020526040902054600580546001600160a01b0388169290811061257057612570613811565b9060005260206000209060060201600501828154811061259257612592613811565b6000918252602090912001546001600160a01b0316036125b757600192505050610695565b806125c181613a9f565b91505061253b565b506000949350505050565b6125df338383612e6b565b5050565b826001600160a01b03166125f682610e16565b6001600160a01b0316146126585760405162461bcd60e51b8152602060048201526024808201527f455243333532353a207472616e736665722066726f6d20696e76616c6964206f6044820152633bb732b960e11b60648201526084016107bd565b6001600160a01b0382166126bc5760405162461bcd60e51b815260206004820152602560248201527f455243333532353a207472616e7366657220746f20746865207a65726f206164604482015264647265737360d81b60648201526084016107bd565b60006126c7826109bc565b905060006126d483611016565b90506126e160008461137a565b6126ea83611d56565b6126f48584611e01565b6126fe8484612f35565b82846001600160a01b0316866001600160a01b03167fddf252ad1be2c89b69c2b068fc378daa952ba7f163c4a11628f55a4df523b3ef60405160405180910390a4610b6a565b60006001600160a01b0384163b1561288557604051630a85bd0160e11b81526001600160a01b0385169063150b7a0290612788903390899088908890600401613bbf565b6020604051808303816000875af19250505080156127c3575060408051601f3d908101601f191682019092526127c091810190613bfc565b60015b61286b573d8080156127f1576040519150601f19603f3d011682016040523d82523d6000602084013e6127f6565b606091505b5080516000036128635760405162461bcd60e51b815260206004820152603260248201527f4552433732313a207472616e7366657220746f206e6f6e20455243373231526560448201527131b2b4bb32b91034b6b83632b6b2b73a32b960711b60648201526084016107bd565b805181602001fd5b6001600160e01b031916630a85bd0160e11b1490506109a9565b506001949350505050565b6060600061289f836002613c19565b6128aa906002613a8c565b67ffffffffffffffff8111156128c2576128c2613455565b6040519080825280601f01601f1916602001820160405280156128ec576020820181803683370190505b509050600360fc1b8160008151811061290757612907613811565b60200101906001600160f81b031916908160001a905350600f60fb1b8160018151811061293657612936613811565b60200101906001600160f81b031916908160001a905350600061295a846002613c19565b612965906001613a8c565b90505b60018111156129dd576f181899199a1a9b1b9c1cb0b131b232b360811b85600f166010811061299957612999613811565b1a60f81b8282815181106129af576129af613811565b60200101906001600160f81b031916908160001a90535060049490941c936129d681613c30565b9050612968565b5083156109415760405162461bcd60e51b815260206004820181905260248201527f537472696e67733a20686578206c656e67746820696e73756666696369656e7460448201526064016107bd565b6000612a388385611168565b9050612a4484846119ad565b158015612a5357506000198114155b15610af95781811015612aa85760405162461bcd60e51b815260206004820152601f60248201527f455243333532353a20696e73756666696369656e7420616c6c6f77616e63650060448201526064016107bd565b610af98385612ab78585613b7d565b611a2f565b6000610695612177565b612acf83611bfa565b612b2b5760405162461bcd60e51b815260206004820152602760248201527f455243333532353a207472616e736665722066726f6d20696e76616c696420746044820152661bdad95b88125160ca1b60648201526084016107bd565b612b3482611bfa565b612b8e5760405162461bcd60e51b815260206004820152602560248201527f455243333532353a207472616e7366657220746f20696e76616c696420746f6b604482015264195b88125160da1b60648201526084016107bd565b600083815260066020526040812054600580549091908110612bb257612bb2613811565b9060005260206000209060060201905060006005600660008681526020019081526020016000205481548110612bea57612bea613811565b906000526020600020906006020190508282600201541015612c615760405162461bcd60e51b815260206004820152602a60248201527f455243333532353a20696e73756666696369656e742062616c616e636520666f60448201526939103a3930b739b332b960b11b60648201526084016107bd565b8060010154826001015414612ccf5760405162461bcd60e51b815260206004820152602e60248201527f455243333532353a207472616e7366657220746f20746f6b656e20776974682060448201526d191a5999995c995b9d081cdb1bdd60921b60648201526084016107bd565b82826002016000828254612ce39190613b7d565b9250508190555082816002016000828254612cfe9190613a8c565b909155505060405183815284908690600080516020613c988339815191529060200160405180910390a3612d4385858560405180602001604052806000815250612fbe565b610b6a5760405162461bcd60e51b815260206004820152602d60248201527f455243333532353a207472616e736665722072656a656374656420627920455260448201526c21999a991aa932b1b2b4bb32b960991b60648201526084016107bd565b6040805160c081018252838152602080820184905260008284018190526001600160a01b038716606084015260808301819052835181815291820190935260a08201529050612df3816130f1565b612dfd8484612f35565b60405183906001600160a01b038616906000907fddf252ad1be2c89b69c2b068fc378daa952ba7f163c4a11628f55a4df523b3ef908290a4816000847fe4f48c240d3b994948aa54f3e2f5fca59263dfe1d52b6e4cf39a5d249b5ccb6560405160405180910390a450505050565b816001600160a01b0316836001600160a01b031603612ecc5760405162461bcd60e51b815260206004820152601a60248201527f455243333532353a20617070726f766520746f2063616c6c657200000000000060448201526064016107bd565b6001600160a01b0383811660008181526007602090815260408083209487168084526002909501825291829020805460ff191686151590811790915591519182527f17307eab39ab6107e8899845ad3d59bd9653f200f220920489ca2b5937696c319101611b5a565b600081815260066020526040902054600580548492908110612f5957612f59613811565b6000918252602080832060069290920290910160030180546001600160a01b0319166001600160a01b03948516179055939091168152600780845260408083208054858552600182810188529285208190559286529082018155825292902090910155565b600080612fca85610e16565b90506001600160a01b0381163b1515801561304e57506040516301ffc9a760e01b8152629ce20b60e01b60048201526001600160a01b038216906301ffc9a790602401602060405180830381865afa15801561302a573d6000803e3d6000fd5b505050506040513d601f19601f8201168201806040525081019061304e9190613c47565b156130e757604051629ce20b60e01b81526000906001600160a01b03831690629ce20b906130889033908b908b908b908b90600401613c64565b6020604051808303816000875af11580156130a7573d6000803e3d6000fd5b505050506040513d601f19601f820116820180604052508101906130cb9190613bfc565b6001600160e01b031916629ce20b60e01b1492506109a9915050565b60019150506109a9565b600580548251600090815260066020818152604080842085905560018501865594909252845192027f036b6384b5eca791c62761152d0c79bb0604c104a5fb6f4eb0703f3154bb3db08101928355818501517f036b6384b5eca791c62761152d0c79bb0604c104a5fb6f4eb0703f3154bb3db1820155928401517f036b6384b5eca791c62761152d0c79bb0604c104a5fb6f4eb0703f3154bb3db284015560608401517f036b6384b5eca791c62761152d0c79bb0604c104a5fb6f4eb0703f3154bb3db3840180546001600160a01b039283166001600160a01b03199182161790915560808601517f036b6384b5eca791c62761152d0c79bb0604c104a5fb6f4eb0703f3154bb3db48601805491909316911617905560a084015180518594610af9937f036b6384b5eca791c62761152d0c79bb0604c104a5fb6f4eb0703f3154bb3db590910192019061325e565b50805460008255906000526020600020908101906112ff91906132c3565b8280548282559060005260206000209081019282156132b3579160200282015b828111156132b357825182546001600160a01b0319166001600160a01b0390911617825560209092019160019091019061327e565b506132bf9291506132c3565b5090565b5b808211156132bf57600081556001016132c4565b6001600160e01b0319811681146112ff57600080fd5b60006020828403121561330057600080fd5b8135610941816132d8565b60005b8381101561332657818101518382015260200161330e565b50506000910152565b6000815180845261334781602086016020860161330b565b601f01601f19169290920160200192915050565b602081526000610941602083018461332f565b60006020828403121561338057600080fd5b5035919050565b80356001600160a01b0381168114610ead57600080fd5b600080604083850312156133b157600080fd5b6133ba83613387565b946020939093013593505050565b6000806000606084860312156133dd57600080fd5b833592506133ed60208501613387565b9150604084013590509250925092565b60008060006060848603121561341257600080fd5b61341b84613387565b92506133ed60208501613387565b60008060006060848603121561343e57600080fd5b505081359360208301359350604090920135919050565b634e487b7160e01b600052604160045260246000fd5b604051601f8201601f1916810167ffffffffffffffff8111828210171561349457613494613455565b604052919050565b600067ffffffffffffffff8211156134b6576134b6613455565b50601f01601f191660200190565b60006134d76134d28461349c565b61346b565b90508281528383830111156134eb57600080fd5b828260208301376000602084830101529392505050565b600082601f83011261351357600080fd5b610941838335602085016134c4565b60006020828403121561353457600080fd5b813567ffffffffffffffff81111561354b57600080fd5b6109a984828501613502565b60008060008060008060c0878903121561357057600080fd5b61357987613387565b95506020870135945060408701359350606087013567ffffffffffffffff808211156135a457600080fd5b6135b08a838b01613502565b945060808901359150808211156135c657600080fd5b6135d28a838b01613502565b935060a08901359150808211156135e857600080fd5b506135f589828a01613502565b9150509295509295509295565b60006020828403121561361457600080fd5b61094182613387565b80151581146112ff57600080fd5b6000806040838503121561363e57600080fd5b61364783613387565b915060208301356136578161361d565b809150509250929050565b6000806000806080858703121561367857600080fd5b61368185613387565b935061368f60208601613387565b925060408501359150606085013567ffffffffffffffff8111156136b257600080fd5b8501601f810187136136c357600080fd5b6136d2878235602084016134c4565b91505092959194509250565b600080604083850312156136f157600080fd5b8235915061370160208401613387565b90509250929050565b6000806040838503121561371d57600080fd5b61372683613387565b915061370160208401613387565b600080600080600060a0868803121561374c57600080fd5b61375586613387565b945060208601359350604086013567ffffffffffffffff8082111561377957600080fd5b61378589838a01613502565b9450606088013591508082111561379b57600080fd5b6137a789838a01613502565b935060808801359150808211156137bd57600080fd5b506137ca88828901613502565b9150509295509295909350565b600181811c908216806137eb57607f821691505b60208210810361380b57634e487b7160e01b600052602260045260246000fd5b50919050565b634e487b7160e01b600052603260045260246000fd5b60208082526022908201527f455243333532353a20617070726f76616c20746f2063757272656e74206f776e60408201526132b960f11b606082015260800190565b6000835161387b81846020880161330b565b64736c6f742f60d81b908301908152835161389d81600584016020880161330b565b01600501949350505050565b6000602082840312156138bb57600080fd5b815167ffffffffffffffff8111156138d257600080fd5b8201601f810184136138e357600080fd5b80516138f16134d28261349c565b81815285602083850101111561390657600080fd5b61391782602083016020860161330b565b95945050505050565b60208082526030908201527f4f726465724372656469743a206f6e6c7920656e746972652076616c7565206360408201526f185b881899481d1c985b9cd9995c995960821b606082015260800190565b601f82111561085e57600081815260208120601f850160051c810160208610156139975750805b601f850160051c820191505b818110156116d1578281556001016139a3565b815167ffffffffffffffff8111156139d0576139d0613455565b6139e4816139de84546137d7565b84613970565b602080601f831160018114613a195760008415613a015750858301515b600019600386901b1c1916600185901b1785556116d1565b600085815260208120601f198616915b82811015613a4857888601518255948401946001909101908401613a29565b5085821015613a665787850151600019600388901b60f8161c191681555b5050505050600190811b01905550565b634e487b7160e01b600052601160045260246000fd5b8082018082111561069557610695613a76565b600060018201613ab157613ab1613a76565b5060010190565b60208082526032908201527f455243333532353a207472616e736665722063616c6c6572206973206e6f74206040820152711bdddb995c881b9bdc88185c1c1c9bdd995960721b606082015260800190565b60008351613b1c81846020880161330b565b835190830190613b3081836020880161330b565b01949350505050565b60008351613b4b81846020880161330b565b68636f6e74726163742f60b81b9083019081528351613b7181600984016020880161330b565b01600901949350505050565b8181038181111561069557610695613a76565b8281526040602082015260006109a9604083018461332f565b634e487b7160e01b600052603160045260246000fd5b6001600160a01b0385811682528416602082015260408101839052608060608201819052600090613bf29083018461332f565b9695505050505050565b600060208284031215613c0e57600080fd5b8151610941816132d8565b808202811582820484141761069557610695613a76565b600081613c3f57613c3f613a76565b506000190190565b600060208284031215613c5957600080fd5b81516109418161361d565b60018060a01b038616815284602082015283604082015282606082015260a06080820152600061131e60a083018461332f56fe0b2aac84f3ec956911fd78eae5311062972ff949f38412e8da39069d9f068cc6a2646970667358221220aea3da7fd3a3ca1702059f04e45eecb242b3cbfedc284eea3c7db36af2a0ed3264736f6c6343000811003360806040523480156200001157600080fd5b5060405162001a4638038062001a46833981016040819052620000349162000150565b600162000042858262000292565b50600262000051848262000292565b50600362000060838262000292565b50600080546001600160a01b0319166001600160a01b0392909216919091179055506200035e915050565b634e487b7160e01b600052604160045260246000fd5b600082601f830112620000b357600080fd5b81516001600160401b0380821115620000d057620000d06200008b565b604051601f8301601f19908116603f01168101908282118183101715620000fb57620000fb6200008b565b816040528381526020925086838588010111156200011857600080fd5b600091505b838210156200013c57858201830151818301840152908201906200011d565b600093810190920192909252949350505050565b600080600080608085870312156200016757600080fd5b84516001600160401b03808211156200017f57600080fd5b6200018d88838901620000a1565b95506020870151915080821115620001a457600080fd5b620001b288838901620000a1565b94506040870151915080821115620001c957600080fd5b50620001d887828801620000a1565b606087015190935090506001600160a01b0381168114620001f857600080fd5b939692955090935050565b600181811c908216806200021857607f821691505b6020821081036200023957634e487b7160e01b600052602260045260246000fd5b50919050565b601f8211156200028d57600081815260208120601f850160051c81016020861015620002685750805b601f850160051c820191505b81811015620002895782815560010162000274565b5050505b505050565b81516001600160401b03811115620002ae57620002ae6200008b565b620002c681620002bf845462000203565b846200023f565b602080601f831160018114620002fe5760008415620002e55750858301515b600019600386901b1c1916600185901b17855562000289565b600085815260208120601f198616915b828110156200032f578886015182559484019460019091019084016200030e565b50858210156200034e5787850151600019600388901b60f8161c191681555b5050505050600190811b01905550565b6116d8806200036e6000396000f3fe608060405234801561001057600080fd5b506004361061007d5760003560e01c80636c037f8a1161005b5780636c037f8a146100bd578063725fa09c146100e6578063842251d4146100ee578063894b4c2e1461010157600080fd5b8063246a908b1461008257806355f804b31461009757806364140ec0146100aa575b600080fd5b610095610090366004610d53565b610114565b005b6100956100a5366004610d9a565b610131565b6100956100b8366004610d53565b610141565b6100d06100cb366004610dd7565b610159565b6040516100dd9190610e14565b60405180910390f35b6100d06101cf565b6100956100fc366004610d53565b6102f4565b6100d061010f366004610dd7565b61030c565b600082815260046020526040902061012c8282610ecf565b505050565b600161013d8282610ecf565b5050565b600082815260056020526040902061012c8282610ecf565b60606101a961016783610416565b6101708461048f565b610179856104c1565b61018286610543565b6040516020016101959493929190610fab565b6040516020818303038152906040526105c5565b6040516020016101b99190611079565b6040516020818303038152906040529050919050565b606060003390506102cf816001600160a01b03166306fdde036040518163ffffffff1660e01b8152600401600060405180830381865afa158015610217573d6000803e3d6000fd5b505050506040513d6000823e601f3d908101601f1916820160405261023f91908101906110be565b610247610718565b61024f6107aa565b6102bc856001600160a01b0316633e7e86696040518163ffffffff1660e01b8152600401602060405180830381865afa158015610290573d6000803e3d6000fd5b505050506040513d601f19601f820116820180604052508101906102b49190611135565b60ff166107df565b6040516020016101959493929190611158565b6040516020016102df9190611079565b60405160208183030381529060405291505090565b600082815260066020526040902061012c8282610ecf565b6060336103ef61031b84610872565b610324856108f4565b61032d86610996565b604051631398fee160e31b8152600481018890526103a0906001600160a01b03871690639cc7f708906024015b602060405180830381865afa158015610377573d6000803e3d6000fd5b505050506040513d601f19601f8201168201806040525081019061039b919061122b565b6107df565b60405163131f9f3f60e11b8152600481018990526103d1906001600160a01b0388169063263f3e7e9060240161035a565b6103da896109cb565b60405160200161019596959493929190611244565b6040516020016103ff9190611079565b604051602081830303815290604052915050919050565b60005460405163ec327a2160e01b8152600481018390526060916001600160a01b03169063ec327a21906024015b600060405180830381865afa158015610461573d6000803e3d6000fd5b505050506040513d6000823e601f3d908101601f1916820160405261048991908101906110be565b92915050565b60005460405163bc74ebb960e01b8152600481018390526060916001600160a01b03169063bc74ebb990602401610444565b6000546040516309c3dd8760e01b8152600481018390526060916001600160a01b0316906309c3dd8790602401600060405180830381865afa15801561050b573d6000803e3d6000fd5b505050506040513d6000823e601f3d908101601f1916820160405261053391908101906110be565b6040516020016101b9919061136a565b6000546040516309c3dd8760e01b8152600481018390526060916001600160a01b0316906309c3dd8790602401600060405180830381865afa15801561058d573d6000803e3d6000fd5b505050506040513d6000823e601f3d908101601f191682016040526105b591908101906110be565b6040516020016101b99190611394565b606081516000036105e457505060408051602081019091526000815290565b6000604051806060016040528060408152602001611663604091399050600060038451600261061391906113de565b61061d91906113f1565b610628906004611413565b67ffffffffffffffff81111561064057610640610c8e565b6040519080825280601f01601f19166020018201604052801561066a576020820181803683370190505b509050600182016020820185865187015b808210156106d6576003820191508151603f8160121c168501518453600184019350603f81600c1c168501518453600184019350603f8160061c168501518453600184019350603f811685015184535060018301925061067b565b50506003865106600181146106f257600281146107055761070d565b603d6001830353603d600283035361070d565b603d60018303535b509195945050505050565b60606002805461072790610e47565b80601f016020809104026020016040519081016040528092919081815260200182805461075390610e47565b80156107a05780601f10610775576101008083540402835291602001916107a0565b820191906000526020600020905b81548152906001019060200180831161078357829003601f168201915b5050505050905090565b606060016107b7336109f9565b60036040516020016107cb9392919061149d565b604051602081830303815290604052905090565b606060006107ec83610a0f565b600101905060008167ffffffffffffffff81111561080c5761080c610c8e565b6040519080825280601f01601f191660200182016040528015610836576020820181803683370190505b5090508181016020015b600019016f181899199a1a9b1b9c1cb0b131b232b360811b600a86061a8153600a850494508461084057509392505050565b6060336001600160a01b03166306fdde036040518163ffffffff1660e01b8152600401600060405180830381865afa1580156108b2573d6000803e3d6000fd5b505050506040513d6000823e601f3d908101601f191682016040526108da91908101906110be565b6108e3836107df565b6040516020016101b99291906114f1565b600081815260046020526040902080546060919061091190610e47565b80601f016020809104026020016040519081016040528092919081815260200182805461093d90610e47565b801561098a5780601f1061095f5761010080835404028352916020019161098a565b820191906000526020600020905b81548152906001019060200180831161096d57829003601f168201915b50505050509050919050565b606060016109a3306109f9565b6000848152600660209081526040808320600583529281902090516101b9959493920161152e565b606060016109d8336109f9565b60008481526006602090815260409182902091516101b994939291016115a0565b60606104896001600160a01b0383166014610ae7565b60008072184f03e93ff9f4daa797ed6e38ed64bf6a1f0160401b8310610a4e5772184f03e93ff9f4daa797ed6e38ed64bf6a1f0160401b830492506040015b6d04ee2d6d415b85acef81000000008310610a7a576d04ee2d6d415b85acef8100000000830492506020015b662386f26fc100008310610a9857662386f26fc10000830492506010015b6305f5e1008310610ab0576305f5e100830492506008015b6127108310610ac457612710830492506004015b60648310610ad6576064830492506002015b600a83106104895760010192915050565b60606000610af6836002611413565b610b019060026113de565b67ffffffffffffffff811115610b1957610b19610c8e565b6040519080825280601f01601f191660200182016040528015610b43576020820181803683370190505b509050600360fc1b81600081518110610b5e57610b5e611635565b60200101906001600160f81b031916908160001a905350600f60fb1b81600181518110610b8d57610b8d611635565b60200101906001600160f81b031916908160001a9053506000610bb1846002611413565b610bbc9060016113de565b90505b6001811115610c34576f181899199a1a9b1b9c1cb0b131b232b360811b85600f1660108110610bf057610bf0611635565b1a60f81b828281518110610c0657610c06611635565b60200101906001600160f81b031916908160001a90535060049490941c93610c2d8161164b565b9050610bbf565b508315610c875760405162461bcd60e51b815260206004820181905260248201527f537472696e67733a20686578206c656e67746820696e73756666696369656e74604482015260640160405180910390fd5b9392505050565b634e487b7160e01b600052604160045260246000fd5b604051601f8201601f1916810167ffffffffffffffff81118282101715610ccd57610ccd610c8e565b604052919050565b600067ffffffffffffffff821115610cef57610cef610c8e565b50601f01601f191660200190565b600082601f830112610d0e57600080fd5b8135610d21610d1c82610cd5565b610ca4565b818152846020838601011115610d3657600080fd5b816020850160208301376000918101602001919091529392505050565b60008060408385031215610d6657600080fd5b82359150602083013567ffffffffffffffff811115610d8457600080fd5b610d9085828601610cfd565b9150509250929050565b600060208284031215610dac57600080fd5b813567ffffffffffffffff811115610dc357600080fd5b610dcf84828501610cfd565b949350505050565b600060208284031215610de957600080fd5b5035919050565b60005b83811015610e0b578181015183820152602001610df3565b50506000910152565b6020815260008251806020840152610e33816040850160208701610df0565b601f01601f19169190910160400192915050565b600181811c90821680610e5b57607f821691505b602082108103610e7b57634e487b7160e01b600052602260045260246000fd5b50919050565b601f82111561012c57600081815260208120601f850160051c81016020861015610ea85750805b601f850160051c820191505b81811015610ec757828155600101610eb4565b505050505050565b815167ffffffffffffffff811115610ee957610ee9610c8e565b610efd81610ef78454610e47565b84610e81565b602080601f831160018114610f325760008415610f1a5750858301515b600019600386901b1c1916600185901b178555610ec7565b600085815260208120601f198616915b82811015610f6157888601518255948401946001909101908401610f42565b5085821015610f7f5787850151600019600388901b60f8161c191681555b5050505050600190811b01905550565b60008151610fa1818560208601610df0565b9290920192915050565b683d913730b6b2911d1160b91b81528451600090610fd0816009850160208a01610df0565b701116113232b9b1b934b83a34b7b7111d1160791b600991840191820152855161100181601a840160208a01610df0565b6a11161134b6b0b3b2911d1160a91b601a9290910191820152845161102d816025840160208901610df0565b6e111611383937b832b93a34b2b9911d60891b60259290910191820152835161105d816034840160208801610df0565b607d60f81b603492909101918201526035019695505050505050565b7f646174613a6170706c69636174696f6e2f6a736f6e3b6261736536342c0000008152600082516110b181601d850160208701610df0565b91909101601d0192915050565b6000602082840312156110d057600080fd5b815167ffffffffffffffff8111156110e757600080fd5b8201601f810184136110f857600080fd5b8051611106610d1c82610cd5565b81815285602083850101111561111b57600080fd5b61112c826020830160208601610df0565b95945050505050565b60006020828403121561114757600080fd5b815160ff81168114610c8757600080fd5b683d913730b6b2911d1160b91b8152845160009061117d816009850160208a01610df0565b701116113232b9b1b934b83a34b7b7111d1160791b60099184019182015285516111ae81601a840160208a01610df0565b6a11161134b6b0b3b2911d1160a91b601a929091019182015284516111da816025840160208901610df0565b721116113b30b63ab2a232b1b4b6b0b639911d1160691b60259290910191820152835161120e816038840160208801610df0565b61227d60f01b60389290910191820152603a019695505050505050565b60006020828403121561123d57600080fd5b5051919050565b683d913730b6b2911d1160b91b81528651600090611269816009850160208c01610df0565b701116113232b9b1b934b83a34b7b7111d1160791b600991840191820152875161129a81601a840160208c01610df0565b6a11161134b6b0b3b2911d1160a91b601a929091019182015286516112c6816025840160208b01610df0565b6c1116113130b630b731b2911d1160991b6025929091019182015285516112f4816032840160208a01610df0565b6911161139b637ba111d1160b11b60329290910191820152845161131f81603c840160208901610df0565b61135c61134f611349603c848601016e111611383937b832b93a34b2b9911d60891b8152600f0190565b87610f8f565b607d60f81b815260010190565b9a9950505050505050505050565b6000825161137c818460208701610df0565b652f696d61676560d01b920191825250600601919050565b600082516113a6818460208701610df0565b6f17b83937b832b93a34b2b9973539b7b760811b920191825250601001919050565b634e487b7160e01b600052601160045260246000fd5b80820180821115610489576104896113c8565b60008261140e57634e487b7160e01b600052601260045260246000fd5b500490565b8082028115828204841417610489576104896113c8565b6000815461143781610e47565b6001828116801561144f576001811461146457611493565b60ff1984168752821515830287019450611493565b8560005260208060002060005b8581101561148a5781548a820152908401908201611471565b50505082870194505b5050505092915050565b60006114a9828661142a565b68636f6e74726163742f60b81b815284516114cb816009840160208901610df0565b602f60f81b600992909101918201526114e7600a82018561142a565b9695505050505050565b60008351611503818460208801610df0565b61202360f01b9083019081528351611522816002840160208801610df0565b01600201949350505050565b600061153a828761142a565b692f636f6e74726163742f60b01b8152855161155d81600a840160208a01610df0565b662f746f6b656e2f60c81b600a929091019182015261157f601182018661142a565b9050602f60f81b8152611595600182018561142a565b979650505050505050565b6e7b70726f706572746965735f75726960881b815260006115c4600f83018661142a565b68636f6e74726163742f60b81b815284516115e6816009840160208901610df0565b662f746f6b656e2f60c81b60099290910191820152611608601082018561142a565b6f17b83937b832b93a34b2b9973539b7b760811b8152607d60f81b60108201526011019695505050505050565b634e487b7160e01b600052603260045260246000fd5b60008161165a5761165a6113c8565b50600019019056fe4142434445464748494a4b4c4d4e4f505152535455565758595a6162636465666768696a6b6c6d6e6f707172737475767778797a303132333435363738392b2fa2646970667358221220f622a95ca579ad3e624f36a75282d2e2e7eb7abc812f4a74518e120350c886ff64736f6c63430008110033",
  "linkReferences": {},
  "deployedLinkReferences": {}
}