{
  "_format": "hh-sol-artifact-1",
  "contractName": "OrderCredit",
  "sourceName": "contracts/OrderCredit.sol",
  "abi": [
    {
      "inputs": [
        {
          "internalType": "address",
          "name": "revenueAddress_",
          "type": "address"
        },
        {
          "internalType": "address",
          "name": "adminAddress_",
          "type": "address"
        },
        {
          "internalType": "address",
          "name": "slotRegistry_",
          "type": "address"
        },
        {
          "internalType": "address",
          "name": "mktAdmin_",
          "type": "address"
        },
        {
          "internalType": "uint256",
          "name": "defaultSlot_",
          "type": "uint256"
        },
        {
          "internalType": "string",
          "name": "name_",
          "type": "string"
        },
        {
          "internalType": "string",
          "name": "symbol_",
          "type": "string"
        },
        {
          "internalType": "string",
          "name": "baseUri_",
          "type": "string"
        },
        {
          "internalType": "string",
          "name": "contractDescription_",
          "type": "string"
        },
        {
          "internalType": "string",
          "name": "contractImage_",
          "type": "string"
        },
        {
          "internalType": "uint8",
          "name": "decimals_",
          "type": "uint8"
        }
      ],
      "stateMutability": "nonpayable",
      "type": "constructor"
    },
    {
      "anonymous": false,
      "inputs": [
        {
          "indexed": true,
          "internalType": "address",
          "name": "_owner",
          "type": "address"
        },
        {
          "indexed": true,
          "internalType": "address",
          "name": "_approved",
          "type": "address"
        },
        {
          "indexed": true,
          "internalType": "uint256",
          "name": "_tokenId",
          "type": "uint256"
        }
      ],
      "name": "Approval",
      "type": "event"
    },
    {
      "anonymous": false,
      "inputs": [
        {
          "indexed": true,
          "internalType": "address",
          "name": "_owner",
          "type": "address"
        },
        {
          "indexed": true,
          "internalType": "address",
          "name": "_operator",
          "type": "address"
        },
        {
          "indexed": false,
          "internalType": "bool",
          "name": "_approved",
          "type": "bool"
        }
      ],
      "name": "ApprovalForAll",
      "type": "event"
    },
    {
      "anonymous": false,
      "inputs": [
        {
          "indexed": true,
          "internalType": "uint256",
          "name": "_tokenId",
          "type": "uint256"
        },
        {
          "indexed": true,
          "internalType": "address",
          "name": "_operator",
          "type": "address"
        },
        {
          "indexed": false,
          "internalType": "uint256",
          "name": "_value",
          "type": "uint256"
        }
      ],
      "name": "ApprovalValue",
      "type": "event"
    },
    {
      "anonymous": false,
      "inputs": [
        {
          "indexed": false,
          "internalType": "address",
          "name": "contractAddress",
          "type": "address"
        }
      ],
      "name": "MetadataDescriptor",
      "type": "event"
    },
    {
      "anonymous": false,
      "inputs": [
        {
          "indexed": false,
          "internalType": "uint256",
          "name": "tokenId",
          "type": "uint256"
        },
        {
          "indexed": false,
          "internalType": "uint256",
          "name": "slot",
          "type": "uint256"
        },
        {
          "indexed": false,
          "internalType": "uint256",
          "name": "value",
          "type": "uint256"
        }
      ],
      "name": "MintServiceToken",
      "type": "event"
    },
    {
      "anonymous": false,
      "inputs": [
        {
          "indexed": false,
          "internalType": "uint256",
          "name": "newTokenId",
          "type": "uint256"
        },
        {
          "indexed": false,
          "internalType": "uint256",
          "name": "slot",
          "type": "uint256"
        },
        {
          "indexed": false,
          "internalType": "uint256",
          "name": "value",
          "type": "uint256"
        }
      ],
      "name": "MintServiceTokenToAddress",
      "type": "event"
    },
    {
      "anonymous": false,
      "inputs": [
        {
          "indexed": true,
          "internalType": "bytes32",
          "name": "role",
          "type": "bytes32"
        },
        {
          "indexed": true,
          "internalType": "bytes32",
          "name": "previousAdminRole",
          "type": "bytes32"
        },
        {
          "indexed": true,
          "internalType": "bytes32",
          "name": "newAdminRole",
          "type": "bytes32"
        }
      ],
      "name": "RoleAdminChanged",
      "type": "event"
    },
    {
      "anonymous": false,
      "inputs": [
        {
          "indexed": true,
          "internalType": "bytes32",
          "name": "role",
          "type": "bytes32"
        },
        {
          "indexed": true,
          "internalType": "address",
          "name": "account",
          "type": "address"
        },
        {
          "indexed": true,
          "internalType": "address",
          "name": "sender",
          "type": "address"
        }
      ],
      "name": "RoleGranted",
      "type": "event"
    },
    {
      "anonymous": false,
      "inputs": [
        {
          "indexed": true,
          "internalType": "bytes32",
          "name": "role",
          "type": "bytes32"
        },
        {
          "indexed": true,
          "internalType": "address",
          "name": "account",
          "type": "address"
        },
        {
          "indexed": true,
          "internalType": "address",
          "name": "sender",
          "type": "address"
        }
      ],
      "name": "RoleRevoked",
      "type": "event"
    },
    {
      "anonymous": false,
      "inputs": [
        {
          "indexed": true,
          "internalType": "address",
          "name": "metadataDescriptor",
          "type": "address"
        }
      ],
      "name": "SetMetadataDescriptor",
      "type": "event"
    },
    {
      "anonymous": false,
      "inputs": [
        {
          "indexed": true,
          "internalType": "uint256",
          "name": "_tokenId",
          "type": "uint256"
        },
        {
          "indexed": true,
          "internalType": "uint256",
          "name": "_oldSlot",
          "type": "uint256"
        },
        {
          "indexed": true,
          "internalType": "uint256",
          "name": "_newSlot",
          "type": "uint256"
        }
      ],
      "name": "SlotChanged",
      "type": "event"
    },
    {
      "anonymous": false,
      "inputs": [
        {
          "indexed": true,
          "internalType": "address",
          "name": "_from",
          "type": "address"
        },
        {
          "indexed": true,
          "internalType": "address",
          "name": "_to",
          "type": "address"
        },
        {
          "indexed": true,
          "internalType": "uint256",
          "name": "_tokenId",
          "type": "uint256"
        }
      ],
      "name": "Transfer",
      "type": "event"
    },
    {
      "anonymous": false,
      "inputs": [
        {
          "indexed": true,
          "internalType": "uint256",
          "name": "_fromTokenId",
          "type": "uint256"
        },
        {
          "indexed": true,
          "internalType": "uint256",
          "name": "_toTokenId",
          "type": "uint256"
        },
        {
          "indexed": false,
          "internalType": "uint256",
          "name": "_value",
          "type": "uint256"
        }
      ],
      "name": "TransferValue",
      "type": "event"
    },
    {
      "anonymous": false,
      "inputs": [
        {
          "indexed": false,
          "internalType": "uint256",
          "name": "fromTokenId",
          "type": "uint256"
        },
        {
          "indexed": false,
          "internalType": "uint256",
          "name": "toTokenId",
          "type": "uint256"
        },
        {
          "indexed": false,
          "internalType": "uint256",
          "name": "value",
          "type": "uint256"
        }
      ],
      "name": "ValueTransfer",
      "type": "event"
    },
    {
      "inputs": [],
      "name": "DEFAULT_ADMIN_ROLE",
      "outputs": [
        {
          "internalType": "bytes32",
          "name": "",
          "type": "bytes32"
        }
      ],
      "stateMutability": "view",
      "type": "function"
    },
    {
      "inputs": [],
      "name": "MKT_ARBITRATOR_ROLE",
      "outputs": [
        {
          "internalType": "bytes32",
          "name": "",
          "type": "bytes32"
        }
      ],
      "stateMutability": "view",
      "type": "function"
    },
    {
      "inputs": [],
      "name": "SERVICE_ADMIN_ROLE",
      "outputs": [
        {
          "internalType": "bytes32",
          "name": "",
          "type": "bytes32"
        }
      ],
      "stateMutability": "view",
      "type": "function"
    },
    {
      "inputs": [
        {
          "internalType": "string",
          "name": "uri_",
          "type": "string"
        }
      ],
      "name": "_setBaseURI",
      "outputs": [],
      "stateMutability": "nonpayable",
      "type": "function"
    },
    {
      "inputs": [
        {
          "internalType": "uint256",
          "name": "tokenId_",
          "type": "uint256"
        },
        {
          "internalType": "address",
          "name": "operator_",
          "type": "address"
        }
      ],
      "name": "allowance",
      "outputs": [
        {
          "internalType": "uint256",
          "name": "",
          "type": "uint256"
        }
      ],
      "stateMutability": "view",
      "type": "function"
    },
    {
      "inputs": [
        {
          "internalType": "address",
          "name": "to_",
          "type": "address"
        },
        {
          "internalType": "uint256",
          "name": "tokenId_",
          "type": "uint256"
        }
      ],
      "name": "approve",
      "outputs": [],
      "stateMutability": "payable",
      "type": "function"
    },
    {
      "inputs": [
        {
          "internalType": "uint256",
          "name": "tokenId_",
          "type": "uint256"
        },
        {
          "internalType": "address",
          "name": "to_",
          "type": "address"
        },
        {
          "internalType": "uint256",
          "name": "value_",
          "type": "uint256"
        }
      ],
      "name": "approve",
      "outputs": [],
      "stateMutability": "payable",
      "type": "function"
    },
    {
      "inputs": [
        {
          "internalType": "address",
          "name": "owner_",
          "type": "address"
        }
      ],
      "name": "balanceOf",
      "outputs": [
        {
          "internalType": "uint256",
          "name": "balance",
          "type": "uint256"
        }
      ],
      "stateMutability": "view",
      "type": "function"
    },
    {
      "inputs": [
        {
          "internalType": "uint256",
          "name": "tokenId_",
          "type": "uint256"
        }
      ],
      "name": "balanceOf",
      "outputs": [
        {
          "internalType": "uint256",
          "name": "",
          "type": "uint256"
        }
      ],
      "stateMutability": "view",
      "type": "function"
    },
    {
      "inputs": [],
      "name": "contractAdmin",
      "outputs": [
        {
          "internalType": "address",
          "name": "",
          "type": "address"
        }
      ],
      "stateMutability": "view",
      "type": "function"
    },
    {
      "inputs": [],
      "name": "contractURI",
      "outputs": [
        {
          "internalType": "string",
          "name": "",
          "type": "string"
        }
      ],
      "stateMutability": "view",
      "type": "function"
    },
    {
      "inputs": [],
      "name": "creditType",
      "outputs": [
        {
          "internalType": "string",
          "name": "",
          "type": "string"
        }
      ],
      "stateMutability": "view",
      "type": "function"
    },
    {
      "inputs": [],
      "name": "defaultSlot",
      "outputs": [
        {
          "internalType": "uint256",
          "name": "",
          "type": "uint256"
        }
      ],
      "stateMutability": "view",
      "type": "function"
    },
    {
      "inputs": [
        {
          "internalType": "uint256",
          "name": "index",
          "type": "uint256"
        }
      ],
      "name": "dequeue",
      "outputs": [],
      "stateMutability": "nonpayable",
      "type": "function"
    },
    {
      "inputs": [
        {
          "internalType": "address",
          "name": "owner_",
          "type": "address"
        },
        {
          "internalType": "uint256",
          "name": "slot_",
          "type": "uint256"
        },
        {
          "internalType": "string",
          "name": "uuid_",
          "type": "string"
        },
        {
          "internalType": "string",
          "name": "token_description_",
          "type": "string"
        },
        {
          "internalType": "string",
          "name": "token_image_",
          "type": "string"
        }
      ],
      "name": "enqueue",
      "outputs": [
        {
          "internalType": "uint256",
          "name": "",
          "type": "uint256"
        }
      ],
      "stateMutability": "nonpayable",
      "type": "function"
    },
    {
      "inputs": [
        {
          "internalType": "uint256",
          "name": "tokenId_",
          "type": "uint256"
        }
      ],
      "name": "getApproved",
      "outputs": [
        {
          "internalType": "address",
          "name": "",
          "type": "address"
        }
      ],
      "stateMutability": "view",
      "type": "function"
    },
    {
      "inputs": [
        {
          "internalType": "bytes32",
          "name": "role",
          "type": "bytes32"
        }
      ],
      "name": "getRoleAdmin",
      "outputs": [
        {
          "internalType": "bytes32",
          "name": "",
          "type": "bytes32"
        }
      ],
      "stateMutability": "view",
      "type": "function"
    },
    {
      "inputs": [
        {
          "internalType": "uint256",
          "name": "tokenId",
          "type": "uint256"
        }
      ],
      "name": "getTokenDescription",
      "outputs": [
        {
          "internalType": "string",
          "name": "",
          "type": "string"
        }
      ],
      "stateMutability": "view",
      "type": "function"
    },
    {
      "inputs": [
        {
          "internalType": "uint256",
          "name": "tokenId",
          "type": "uint256"
        }
      ],
      "name": "getTokenImage",
      "outputs": [
        {
          "internalType": "string",
          "name": "",
          "type": "string"
        }
      ],
      "stateMutability": "view",
      "type": "function"
    },
    {
      "inputs": [
        {
          "internalType": "uint256",
          "name": "tokenId",
          "type": "uint256"
        }
      ],
      "name": "getTokenUUID",
      "outputs": [
        {
          "internalType": "string",
          "name": "",
          "type": "string"
        }
      ],
      "stateMutability": "view",
      "type": "function"
    },
    {
      "inputs": [
        {
          "internalType": "bytes32",
          "name": "role",
          "type": "bytes32"
        },
        {
          "internalType": "address",
          "name": "account",
          "type": "address"
        }
      ],
      "name": "grantRole",
      "outputs": [],
      "stateMutability": "nonpayable",
      "type": "function"
    },
    {
      "inputs": [
        {
          "internalType": "bytes32",
          "name": "role",
          "type": "bytes32"
        },
        {
          "internalType": "address",
          "name": "account",
          "type": "address"
        }
      ],
      "name": "hasRole",
      "outputs": [
        {
          "internalType": "bool",
          "name": "",
          "type": "bool"
        }
      ],
      "stateMutability": "view",
      "type": "function"
    },
    {
      "inputs": [
        {
          "internalType": "address",
          "name": "owner_",
          "type": "address"
        },
        {
          "internalType": "address",
          "name": "operator_",
          "type": "address"
        }
      ],
      "name": "isApprovedForAll",
      "outputs": [
        {
          "internalType": "bool",
          "name": "",
          "type": "bool"
        }
      ],
      "stateMutability": "view",
      "type": "function"
    },
    {
      "inputs": [],
      "name": "metadataDescriptor",
      "outputs": [
        {
          "internalType": "contract IERC3525MetadataDescriptor",
          "name": "",
          "type": "address"
        }
      ],
      "stateMutability": "view",
      "type": "function"
    },
    {
      "inputs": [
        {
          "internalType": "address",
          "name": "owner_",
          "type": "address"
        },
        {
          "internalType": "uint256",
          "name": "slot_",
          "type": "uint256"
        },
        {
          "internalType": "uint256",
          "name": "value_",
          "type": "uint256"
        },
        {
          "internalType": "string",
          "name": "uuid_",
          "type": "string"
        },
        {
          "internalType": "string",
          "name": "token_description_",
          "type": "string"
        },
        {
          "internalType": "string",
          "name": "token_image_",
          "type": "string"
        }
      ],
      "name": "mint",
      "outputs": [
        {
          "internalType": "uint256",
          "name": "",
          "type": "uint256"
        }
      ],
      "stateMutability": "nonpayable",
      "type": "function"
    },
    {
      "inputs": [],
      "name": "name",
      "outputs": [
        {
          "internalType": "string",
          "name": "",
          "type": "string"
        }
      ],
      "stateMutability": "view",
      "type": "function"
    },
    {
      "inputs": [
        {
          "internalType": "address",
          "name": "owner_",
          "type": "address"
        },
        {
          "internalType": "uint256",
          "name": "slot_",
          "type": "uint256"
        },
        {
          "internalType": "uint256",
          "name": "value_",
          "type": "uint256"
        },
        {
          "internalType": "uint256",
          "name": "discountBasisPts_",
          "type": "uint256"
        },
        {
          "internalType": "string",
          "name": "uuid_",
          "type": "string"
        },
        {
          "internalType": "string",
          "name": "tokenDescription_",
          "type": "string"
        },
        {
          "internalType": "string",
          "name": "tokenImage_",
          "type": "string"
        }
      ],
      "name": "networkMintWithDiscount",
      "outputs": [
        {
          "internalType": "uint256",
          "name": "",
          "type": "uint256"
        }
      ],
      "stateMutability": "nonpayable",
      "type": "function"
    },
    {
      "inputs": [
        {
          "internalType": "address",
          "name": "owner_",
          "type": "address"
        },
        {
          "internalType": "uint256",
          "name": "slot_",
          "type": "uint256"
        },
        {
          "internalType": "uint256",
          "name": "value_",
          "type": "uint256"
        },
        {
          "internalType": "uint256",
          "name": "tVRate_",
          "type": "uint256"
        },
        {
          "internalType": "string",
          "name": "uuid_",
          "type": "string"
        },
        {
          "internalType": "string",
          "name": "token_description_",
          "type": "string"
        },
        {
          "internalType": "string",
          "name": "token_image_",
          "type": "string"
        }
      ],
      "name": "networkMintWithTVRate",
      "outputs": [
        {
          "internalType": "uint256",
          "name": "",
          "type": "uint256"
        }
      ],
      "stateMutability": "nonpayable",
      "type": "function"
    },
    {
      "inputs": [
        {
          "internalType": "uint256",
          "name": "tokenId_",
          "type": "uint256"
        }
      ],
      "name": "ownerOf",
      "outputs": [
        {
          "internalType": "address",
          "name": "owner_",
          "type": "address"
        }
      ],
      "stateMutability": "view",
      "type": "function"
    },
    {
      "inputs": [
        {
          "internalType": "uint256",
          "name": "slotId_",
          "type": "uint256"
        }
      ],
      "name": "registerOnSlot",
      "outputs": [],
      "stateMutability": "nonpayable",
      "type": "function"
    },
    {
      "inputs": [
        {
          "internalType": "bytes32",
          "name": "role",
          "type": "bytes32"
        },
        {
          "internalType": "address",
          "name": "account",
          "type": "address"
        }
      ],
      "name": "renounceRole",
      "outputs": [],
      "stateMutability": "nonpayable",
      "type": "function"
    },
    {
      "inputs": [
        {
          "internalType": "bytes32",
          "name": "role",
          "type": "bytes32"
        },
        {
          "internalType": "address",
          "name": "account",
          "type": "address"
        }
      ],
      "name": "revokeRole",
      "outputs": [],
      "stateMutability": "nonpayable",
      "type": "function"
    },
    {
      "inputs": [
        {
          "internalType": "address",
          "name": "from_",
          "type": "address"
        },
        {
          "internalType": "address",
          "name": "to_",
          "type": "address"
        },
        {
          "internalType": "uint256",
          "name": "tokenId_",
          "type": "uint256"
        }
      ],
      "name": "safeTransferFrom",
      "outputs": [],
      "stateMutability": "payable",
      "type": "function"
    },
    {
      "inputs": [
        {
          "internalType": "address",
          "name": "from_",
          "type": "address"
        },
        {
          "internalType": "address",
          "name": "to_",
          "type": "address"
        },
        {
          "internalType": "uint256",
          "name": "tokenId_",
          "type": "uint256"
        },
        {
          "internalType": "bytes",
          "name": "data_",
          "type": "bytes"
        }
      ],
      "name": "safeTransferFrom",
      "outputs": [],
      "stateMutability": "payable",
      "type": "function"
    },
    {
      "inputs": [
        {
          "internalType": "address",
          "name": "operator_",
          "type": "address"
        },
        {
          "internalType": "bool",
          "name": "approved_",
          "type": "bool"
        }
      ],
      "name": "setApprovalForAll",
      "outputs": [],
      "stateMutability": "nonpayable",
      "type": "function"
    },
    {
      "inputs": [
        {
          "internalType": "uint256",
          "name": "tokenId_",
          "type": "uint256"
        }
      ],
      "name": "slotOf",
      "outputs": [
        {
          "internalType": "uint256",
          "name": "",
          "type": "uint256"
        }
      ],
      "stateMutability": "view",
      "type": "function"
    },
    {
      "inputs": [
        {
          "internalType": "uint256",
          "name": "slot_",
          "type": "uint256"
        }
      ],
      "name": "slotURI",
      "outputs": [
        {
          "internalType": "string",
          "name": "",
          "type": "string"
        }
      ],
      "stateMutability": "view",
      "type": "function"
    },
    {
      "inputs": [
        {
          "internalType": "bytes4",
          "name": "interfaceId",
          "type": "bytes4"
        }
      ],
      "name": "supportsInterface",
      "outputs": [
        {
          "internalType": "bool",
          "name": "",
          "type": "bool"
        }
      ],
      "stateMutability": "view",
      "type": "function"
    },
    {
      "inputs": [],
      "name": "symbol",
      "outputs": [
        {
          "internalType": "string",
          "name": "",
          "type": "string"
        }
      ],
      "stateMutability": "view",
      "type": "function"
    },
    {
      "inputs": [
        {
          "internalType": "uint256",
          "name": "index_",
          "type": "uint256"
        }
      ],
      "name": "tokenByIndex",
      "outputs": [
        {
          "internalType": "uint256",
          "name": "",
          "type": "uint256"
        }
      ],
      "stateMutability": "view",
      "type": "function"
    },
    {
      "inputs": [
        {
          "internalType": "address",
          "name": "owner_",
          "type": "address"
        },
        {
          "internalType": "uint256",
          "name": "index_",
          "type": "uint256"
        }
      ],
      "name": "tokenOfOwnerByIndex",
      "outputs": [
        {
          "internalType": "uint256",
          "name": "",
          "type": "uint256"
        }
      ],
      "stateMutability": "view",
      "type": "function"
    },
    {
      "inputs": [
        {
          "internalType": "uint256",
          "name": "tokenId_",
          "type": "uint256"
        }
      ],
      "name": "tokenURI",
      "outputs": [
        {
          "internalType": "string",
          "name": "",
          "type": "string"
        }
      ],
      "stateMutability": "view",
      "type": "function"
    },
    {
      "inputs": [],
      "name": "totalSupply",
      "outputs": [
        {
          "internalType": "uint256",
          "name": "",
          "type": "uint256"
        }
      ],
      "stateMutability": "view",
      "type": "function"
    },
    {
      "inputs": [
        {
          "internalType": "uint256",
          "name": "fromTokenId_",
          "type": "uint256"
        },
        {
          "internalType": "address",
          "name": "to_",
          "type": "address"
        },
        {
          "internalType": "uint256",
          "name": "value_",
          "type": "uint256"
        }
      ],
      "name": "transferFrom",
      "outputs": [
        {
          "internalType": "uint256",
          "name": "",
          "type": "uint256"
        }
      ],
      "stateMutability": "payable",
      "type": "function"
    },
    {
      "inputs": [
        {
          "internalType": "address",
          "name": "from_",
          "type": "address"
        },
        {
          "internalType": "address",
          "name": "to_",
          "type": "address"
        },
        {
          "internalType": "uint256",
          "name": "tokenId_",
          "type": "uint256"
        }
      ],
      "name": "transferFrom",
      "outputs": [],
      "stateMutability": "payable",
      "type": "function"
    },
    {
      "inputs": [
        {
          "internalType": "uint256",
          "name": "fromTokenId_",
          "type": "uint256"
        },
        {
          "internalType": "uint256",
          "name": "toTokenId_",
          "type": "uint256"
        },
        {
          "internalType": "uint256",
          "name": "value_",
          "type": "uint256"
        }
      ],
      "name": "transferFrom",
      "outputs": [],
      "stateMutability": "payable",
      "type": "function"
    },
    {
      "inputs": [],
      "name": "valueDecimals",
      "outputs": [
        {
          "internalType": "uint8",
          "name": "",
          "type": "uint8"
        }
      ],
      "stateMutability": "view",
      "type": "function"
    }
  ],
  "bytecode": "0x60808060405234620008b4576000620072dd8038038091620000228286620008eb565b8439820161016083820312620008b0576200003d836200090f565b506200004c602084016200090f565b926200005b604082016200090f565b916200006a606083016200090f565b9260808301519260a081015160018060401b038111620008ac57836200009291830162000949565b60c08201519093906001600160401b038111620008a85781620000b791840162000949565b60e08301519095906001600160401b038111620005b85782620000dc91850162000949565b6101008401519096906001600160401b038111620008a457836200010291860162000949565b6101208501519093906001600160401b038111620008a057610140916200012b91870162000949565b94015160ff811603620005b857604051956200014787620008b9565b60088752677072696f7269747960c01b60208801528051906001600160401b0382116200088c578a54600181811c9116801562000881575b60208210146200086d579081601f84931162000819575b50602090601f8311600114620007ab578c926200079f575b50508160011b916000199060031b1c19161789555b8051906001600160401b0382116200078b57600154600181811c9116801562000780575b60208210146200076c579081601f8493116200070c575b50602090601f831160011462000690578b9262000684575b50508160011b916000199060031b1c1916176001555b6002805460ff19166006179055600b819055600c54600a80546001600160a01b0319166001600160a01b038c161790556040518651602080830192916200028d919083906200027f81878e860162000924565b8101038084520182620008eb565b5190209560405196602088016374696d6560e01b8152600498898152620002b481620008b9565b51902003620005cf575088945b86861015620005bc576001600160a81b03199091166001600160a01b0390911690811760a095861b60ff60a01b1617600c81905590941c60ff16843b15620005b8576040516394b39b0960e01b81526001600160a01b038b1687820152602481019290925285811015620005a5576044820152878160648183885af180156200059a576200056a575b50604051946124ae808701956001600160401b0387118888101762000557575092620003a360609362000394620003b2948a99989762004def8b39608089526080890190620009a4565b908782036020890152620009a4565b908582036040870152620009a4565b920152039083f080156200054c57600880546001600160a01b0319166001600160a01b039283161790557f1cd6d520d98babae1045eb69c31ecab800996aa332094cb55c0ac10362e9b0c980845260096020908152604080862094909316600081815294909152919092205460ff16156200050c575b50507f9a95e87c5af084bf5db8491c3a6515da9dd6da39b24b0eb0af08d7b9cd808d9180825260096020526040822060018060a01b03841660005260205260ff6040600020541615620004bb575b7f9ac4f8025631594629895b778dc5ee88d01673a254a2291f6b6b174ad25230ca602060018060a01b0360085416604051908152a16040516144239081620009cc8239f35b8082526009602090815260408084206001600160a01b0395909516600081815295909252909320805460ff191660011790553392916000805160206200729d8339815191529080a438808062000476565b818352600960205260408320816000526020526040600020600160ff1982541617905533916000805160206200729d8339815191528480a4388062000428565b6040513d84823e3d90fd5b634e487b7160e01b8a5260419052602489fd5b9096906001600160401b038111620005875760405295386200034a565b634e487b7160e01b825260418552602482fd5b6040513d8a823e3d90fd5b634e487b7160e01b895260218652602489fd5b8880fd5b634e487b7160e01b8a526021875260248afd5b6040516020810190620005ef60208285516200027f8187858a0162000924565b5190206040516020810190630c6c2e6d60e31b82528981526200061281620008b9565b5190200362000626575060015b94620002c1565b60405162000646602082816200027f818301968781519384920162000924565b5190206040516020810190646974656d7360d81b8252600581526200066b81620008b9565b519020036200067c5760026200061f565b60036200061f565b01519050388062000216565b60018c528b9350600080516020620072bd83398151915291905b601f1984168510620006f0576001945083601f19811610620006d6575b505050811b016001556200022c565b015160001960f88460031b161c19169055388080620006c7565b81810151835560209485019460019093019290910190620006aa565b60018c52909150600080516020620072bd833981519152601f840160051c81016020851062000764575b90849392915b8d601f840160051c830182106200075657505050620001fe565b81558594506001016200073c565b508062000736565b634e487b7160e01b8b52602260045260248bfd5b90607f1690620001e7565b634e487b7160e01b8a52604160045260248afd5b015190503880620001ae565b92508b805260208c20908c935b601f1984168510620007fd576001945083601f19811610620007e3575b505050811b018955620001c3565b015160001960f88460031b161c19169055388080620007d5565b81810151835560209485019460019093019290910190620007b8565b9091508b805260208c20601f840160051c81016020851062000865575b84939291908e5b601f840160051c83018210620008565750505062000196565b81558594506001018e6200083d565b508062000836565b634e487b7160e01b8c52602260045260248cfd5b90607f16906200017f565b634e487b7160e01b8b52604160045260248bfd5b8a80fd5b8980fd5b8780fd5b8680fd5b5080fd5b600080fd5b604081019081106001600160401b03821117620008d557604052565b634e487b7160e01b600052604160045260246000fd5b601f909101601f19168101906001600160401b03821190821017620008d557604052565b51906001600160a01b0382168203620008b457565b60005b838110620009385750506000910152565b818101518382015260200162000927565b81601f82011215620008b45780516001600160401b038111620008d5576040519262000980601f8301601f191660200185620008eb565b81845260208284010111620008b457620009a1916020808501910162000924565b90565b90602091620009bf8151809281855285808601910162000924565b601f01601f191601019056fe608060408181526004918236101561001657600080fd5b600090813560e01c90816301ffc9a714611d525750806306fdde0314611c88578063081812fc14611c69578063095ea7b314611b3557806309c3dd87146118465780630f485c02146117fe5780631375d8431461179957806318160ddd1461177a57806323b872dd14611755578063248a9ca31461172a578063263f3e7e1461170b5780632f2ff15d1461165e5780632f745c59146115b5578063310ed7f0146114cc57806331b5b9071461144357806336568abe146113b25780633e7e86691461139057806341815ee4146112a157806342842e0e1461127e578063476de4a8146111fc5780634f6ccce714611176578063505a38531461115757806353a3a30014610fd95780636352211e14610fa957806370a0823114610f8357806371f0442e14610f1e5780637795524514610ef55780638005f5db14610d4e578063840f711314610d255780638cb0a51114610bd957806391d1485414610b9357806395d89b4114610a7e5780639cc7f70814610a5f578063a217fddf14610a44578063a22cb46514610973578063a7c9f2d614610938578063b3154c08146108d3578063b88d4fde14610878578063bd8c65071461062f578063be950a62146104e4578063c87b56dd14610446578063d09445c21461040b578063d547741f146103cc578063e345e0bc146103a5578063e8a3d48514610313578063e985e9c5146102bc5763f4b724bc1461022957600080fd5b346102b15760a03660031901126102b157610242611dee565b926001600160401b03906044358281116102b8576102639036908301611f66565b916064358181116102b45761027b9036908401611f66565b936084359182116102b157509161029c6102aa949260209794369101611f66565b926005549060243590612d11565b9051908152f35b80fd5b8480fd5b8380fd5b50903461030f578060031936011261030f576020916102d9611dee565b6002836102e4611e04565b9360018060a01b0380941681526007875220019116600052825260ff81600020541690519015158152f35b5080fd5b509190346103a157826003193601126103a15760085481516331264fc160e01b815292849184919082906001600160a01b03165afa918215610397578361036e9493610372575b505051918291602083526020830190611dc9565b0390f35b61038f9293503d8091833e6103878183611ef3565b810190612456565b90388061035a565b81513d85823e3d90fd5b8280fd5b50346102b157816003193601126102b157506102aa6020926103c5611e04565b9035614322565b509190346103a157806003193601126103a157610408913561040360016103f1611e04565b93838752600960205286200154611fff565b612334565b80f35b50903461030f578160031936011261030f57602090517f9a95e87c5af084bf5db8491c3a6515da9dd6da39b24b0eb0af08d7b9cd808d918152f35b509190346103a15760203660031901126103a157828235610466816140ad565b80156104d0575b6104769061266b565b6008546001600160a01b03169360449061048f83614194565b95855196879485936304e6f55760e51b855284015260248301525afa918215610397578361036e949361037257505051918291602083526020830190611dc9565b506104766104dd826140db565b905061046d565b50903461030f57602036600319011261030f577f9a95e87c5af084bf5db8491c3a6515da9dd6da39b24b0eb0af08d7b9cd808d91825260096020528082203360005260205260ff816000205416156105c757600c54600a546001600160a01b0390811692919081169060a01c60ff16813b156102b4578251936394b39b0960e01b85528685015285356024850152858110156105b457849550606484868094829460448401525af19081156105ab575061059b5750f35b6105a490611e79565b6102b15780f35b513d84823e3d90fd5b634e487b7160e01b855260218652602485fd5b5162461bcd60e51b8152602081840152603760248201527f53656e646572206e6f7420617574686f72697a656420746f207265676973746560448201527f7220636f6e747261637420746f207468697320736c6f740000000000000000006064820152608490fd5b50903461030f5761063f36611f84565b93969560ff60029a969a93929354169060018060a01b039485600c541692604d811161086557600a0a918215610850578951632d2a246560e01b81526001600160a01b03909116818a01908152602081019d909d5260408d019a909a520460608b015297989697959694958995899081906080010381885a94602095f1978815610807578598610815575b508260085416803b15610811578786918a838a610705855197889687958694632108947560e21b865285015260248401526044830190611dc9565b03925af18015610807579085916107f3575b50508160085416803b156102b45761075391859189838a5180968195829463246a908b60e01b84528d8401528d60248401526044830190611dc9565b03925af180156107e9579084916107d5575b505060085416803b156103a157858361079e95875196879586948593630190503b60e61b85528401528960248401526044830190611dc9565b03925af180156107cb576107b7575b6020838351908152f35b6107c18491611e79565b6103a157826107ad565b82513d86823e3d90fd5b6107de90611e79565b6103a1578238610765565b86513d86823e3d90fd5b6107fc90611e79565b6102b8578338610717565b87513d87823e3d90fd5b8580fd5b945096506020843d8211610848575b8161083160209383611ef3565b810103126108435787935196386106ca565b600080fd5b3d9150610824565b601289634e487b7160e01b6000525260246000fd5b634e487b7160e01b8c526011895260248cfd5b5082608036600319011261030f5761088e611dee565b610896611e04565b906064356001600160401b0381116102b457366023820112156102b457610408938160246108c993369301359101611f2f565b9160443591612594565b509190346103a15760203660031901126103a1576008548151631662a98160e31b81528335938101939093528390839060249082906001600160a01b03165afa918215610397578361036e949361037257505051918291602083526020830190611dc9565b50903461030f578160031936011261030f57602090517f1cd6d520d98babae1045eb69c31ecab800996aa332094cb55c0ac10362e9b0c98152f35b509190346103a157806003193601126103a15761098e611dee565b90602435918215158093036102b4576001600160a01b031692338414610a0257503384526007602052600281852001836000526020528060002060ff1981541660ff8416179055519081527f17307eab39ab6107e8899845ad3d59bd9653f200f220920489ca2b5937696c3160203392a380f35b6020606492519162461bcd60e51b8352820152601a60248201527f455243333532353a20617070726f766520746f2063616c6c65720000000000006044820152fd5b50903461030f578160031936011261030f5751908152602090f35b50346102b15760203660031901126102b157506102aa60209235614194565b50346102b157806003193601126102b1578151918160019283549384811c91818616958615610b89575b6020968785108114610b76578899509688969785829a529182600014610b4f575050600114610af4575b50505061036e9291610ae5910385611ef3565b51928284938452830190611dc9565b91908693508083527fb10e2d527612073b26eecdfd717e6a320cf44b4afac2b0732d9fcbe2b7fa0cf65b828410610b375750505082010181610ae561036e610ad2565b8054848a018601528895508794909301928101610b1e565b60ff19168782015293151560051b86019093019350849250610ae5915061036e9050610ad2565b634e487b7160e01b835260228a52602483fd5b92607f1692610aa8565b5091346103a157816003193601126103a15781602093610bb1611e04565b9235815260098552209060018060a01b0316600052825260ff81600020541690519015158152f35b5082610be436611e1a565b92610bf0839293614151565b610bf9826140ad565b80610d12575b15610c9c57610c246001600160a01b0380610c19856126b7565b169085161415612614565b610c2e8233612771565b15610c3f5750610408939450613934565b608490602087519162461bcd60e51b8352820152603160248201527f455243333532353a20617070726f76652063616c6c6572206973206e6f74206f6044820152701ddb995c881b9bdc88185c1c1c9bdd9959607a1b6064820152fd5b909184959260018060a01b03600c5416908652600d60205283862054813b15610d0e578451638cb0a51160e01b81529384019081526001600160a01b03909216602083015260408201949094529092849184919082908490829060600103925af19081156105ab575061059b57505080f35b8680fd5b50610d1c8261242f565b600b5414610bff565b50903461030f578160031936011261030f5760085490516001600160a01b039091168152602090f35b5080918334610ef157610d6036611f84565b600c548951630151086360e31b81526001600160a01b039889168a820190815260208101989098526040880196909652606087019490945293989593949092841690899081906080010381885a94602095f1978815610807578598610ebb575b508260085416803b15610811578786918a838a610dfb855197889687958694632108947560e21b865285015260248401526044830190611dc9565b03925af1801561080757908591610ea7575b50508160085416803b156102b457610e4991859189838a5180968195829463246a908b60e01b84528d8401528d60248401526044830190611dc9565b03925af180156107e957908491610e9357505060085416803b156103a157858361079e95875196879586948593630190503b60e61b85528401528960248401526044830190611dc9565b610e9c90611e79565b6103a1578288610765565b610eb090611e79565b6102b8578389610e0d565b945096506020843d8211610ee9575b81610ed760209383611ef3565b81010312610843578793519689610dc0565b3d9150610eca565b5050fd5b50903461030f578160031936011261030f57600a5490516001600160a01b039091168152602090f35b509190346103a15760203660031901126103a15760085481516338f8221760e11b81528335938101939093528390839060249082906001600160a01b03165afa918215610397578361036e949361037257505051918291602083526020830190611dc9565b50903461030f57602036600319011261030f576020906102aa610fa4611dee565b6124b4565b50346102b15760203660031901126102b15750610fc860209235614252565b90516001600160a01b039091168152f35b50903461030f57602092836003193601126103a157803593600554801561111657856110086110169697612722565b969054600397881b1c613155565b818110611021578680f35b60018082019081831161110357838210611046575b505061104190612af4565b611016565b61104f82612722565b905490891b1c9061105f826126b7565b506110698261242f565b508160005260068652600261108189600020546123f4565b50018054908282018092116110ee579260006000805160206143ae833981519152896110bd956110419998956110e798558d51908152a3612722565b905490891b1c6110cc83612722565b90919082549060031b600019811b9283911b16911916179055565b9038611036565b601189634e487b7160e01b6000525260246000fd5b634e487b7160e01b895260118652602489fd5b50606492519162461bcd60e51b8352820152601a60248201527f4f726465724372656469743a204c69737420697320656d7074790000000000006044820152fd5b50903461030f578160031936011261030f57602090600b549051908152f35b508290346102b15760203660031901126102b157508035906005548210156111ad576020836111a4846123f4565b50549051908152f35b608490602084519162461bcd60e51b8352820152602360248201527f455243333532353a20676c6f62616c20696e646578206f7574206f6620626f756044820152626e647360e81b6064820152fd5b50346102b15760c03660031901126102b157611216611dee565b926001600160401b03906064358281116102b8576112379036908301611f66565b916084358181116102b45761124f9036908401611f66565b9360a4359182116102b15750916112706102aa949260209794369101611f66565b926044359060243590612d11565b506104088261128c36611e44565b9192519261129984611ed8565b858452612594565b5091346103a157826003193601126103a15760ff600c5460a01c16928184101561137e5761036e93600381036113085750505080516112df81611ebd565b60088152677072696f7269747960c01b6020820152905b51918291602083526020830190611dc9565b8061133157505081519061131b82611ebd565b81526374696d6560e01b60208201525b906112f6565b60021415905061135e5750805161134781611ebd565b60058152646974656d7360d81b602082015261132b565b81519061136a82611ebd565b8152630c6c2e6d60e31b602082015261132b565b6021602492634e487b7160e01b835252fd5b50903461030f578160031936011261030f5760209060ff600254169051908152f35b50823461030f578260031936011261030f576113cc611e04565b90336001600160a01b038316036113e857906104089135612334565b608490602085519162461bcd60e51b8352820152602f60248201527f416363657373436f6e74726f6c3a2063616e206f6e6c792072656e6f756e636560448201526e103937b632b9903337b91039b2b63360891b6064820152fd5b509190346103a15760203660031901126103a1578282356001600160401b03811161030f576114759036908501611f66565b6008546001600160a01b0316803b156103a1576020836114af968651978895869485936355f804b360e01b85528401526024830190611dc9565b03925af19081156105ab57506114c3575080f35b61040890611e79565b5082606036600319011261030f5780356024356044356114f56114ee84614194565b8214613486565b6114fe82614194565b9361150883614151565b8286526006602052600261151e888820546123f4565b500190815490868210611566575095836000805160206143ae8339815191526020839a61156196956115538b6104089d612a04565b905551898152a38284613eee565b613eee565b60849060208a519162461bcd60e51b8352820152602360248201527f455243333532353a206275726e2076616c756520657863656564732062616c616044820152626e636560e81b6064820152fd5b508290346102b157826003193601126102b1576115d0611dee565b602435926115dd826124b4565b841015611610576020856116028682878760018060a01b031681526007865220612759565b91905490519160031b1c8152f35b608490602086519162461bcd60e51b8352820152602260248201527f455243333532353a206f776e657220696e646578206f7574206f6620626f756e604482015261647360f01b6064820152fd5b5091346103a157816003193601126103a157359061167a611e04565b90828452600960205261169260018286200154611fff565b828452600960209081528185206001600160a01b039093168086529290528084205460ff16156116c0578380f35b82845260096020528084208285526020528320600160ff1982541617905533917f2f8788117e7eff1d82e926ec794901d17c78024a50270940304540a733656f0d8480a43880808380f35b50346102b15760203660031901126102b157506102aa6020923561242f565b5091346103a15760203660031901126103a15781602093600192358152600985522001549051908152f35b5061040861176236611e44565b916117756117708433612771565b61252d565b6127e2565b50903461030f578160031936011261030f576020906005549051908152f35b509190346103a15760203660031901126103a1576008548151631375d84360e01b81528335938101939093528390839060249082906001600160a01b03165afa918215610397578361036e949361037257505051918291602083526020830190611dc9565b60206110cc8461184061183361183b61181636611e1a565b82949161182d6118268395614194565b8314613486565b856134eb565b958691612722565b613155565b51908152f35b5091346103a157602090816003193601126102b8576008548351636c0360eb60e01b81526001600160a01b039091169180359186818381875afa908115611b2b578791611b11575b5083156118ff5750906024869286519485938492633601bfc560e11b84528301525afa9081156118f2578461036e939495926118d7575b50509251928284938452830190611dc9565b6118eb92503d8091833e6103878183611ef3565b38806118c5565b50505051903d90823e3d90fd5b8093509591939495511515600014611ad05783849183957a184f03e93ff9f4daa797ed6e38ed64bf6a1f0100000000000000009081811015611ac3575b5050866d04ee2d6d415b85acef810000000080851015611ab5575b5050662386f26fc1000080841015611aa6575b506305f5e10080841015611a97575b5061271080841015611a89575b50506064821015611a79575b600a80921015611a6f575b600190816021818801976119c86119b38a611f14565b996119c08d519b8c611ef3565b808b52611f14565b898b019790601f190136893750880101905b611a39575b505050506025611a2492611a339261036e9588519583611a0888955180928c8089019101611da6565b84019164736c6f742f60d81b8a84015251809386840190611da6565b01036005810184520182611ef3565b92610ae5565b600019019083906f181899199a1a9b1b9c1cb0b131b232b360811b8282061a835304918215611a6a579190826119da565b6119df565b936001019361199d565b9390606460029104910193611992565b950194909104903880611986565b60089196930492019438611979565b6010919693049201943861196a565b960195909204918638611957565b899750049250388061193c565b9493925090508251908282018281106001600160401b03821117611afe578461036e94959650528152611a33565b634e487b7160e01b825260418652602482fd5b611b2591503d8089833e6103878183611ef3565b3861188e565b86513d89823e3d90fd5b509190806003193601126103a157611b4b611dee565b6024359290916001600160a01b0391908280611b66876126b7565b16941693611b7681861415612614565b803314908115611c47575b5015611bde57611b9b9085875260066020528620546123f4565b500180546001600160a01b03191683179055611bb6836126b7565b167f8c5be1e5ebec7d5bd14f71427d1e84f3dd0314c0f7b2291e5b200ac8c7c3b9258480a480f35b906020608492519162461bcd60e51b8352820152603960248201527f455243333532353a20617070726f76652063616c6c6572206973206e6f74206f60448201527f776e6572206e6f7220617070726f76656420666f7220616c6c000000000000006064820152fd5b90508652600760205260028187200133875260205260ff818720541638611b81565b50346102b15760203660031901126102b15750610fc8602092356126f2565b50346102b157806003193601126102b15781519181825492600184811c91818616958615611d48575b6020968785108114610b76578899509688969785829a529182600014610b4f575050600114611ced5750505061036e9291610ae5910385611ef3565b91908693508280527f290decd9548b62a8d60345a988386fc84ba6bc95484008f6362f93160ef3e5635b828410611d305750505082010181610ae561036e610ad2565b8054848a018601528895508794909301928101611d17565b92607f1692611cb1565b905083346103a15760203660031901126103a1573563ffffffff60e01b81168091036103a15760209250637965db0b60e01b8114908115611d95575b5015158152f35b6301ffc9a760e01b14905083611d8e565b60005b838110611db95750506000910152565b8181015183820152602001611da9565b90602091611de281518092818552858086019101611da6565b601f01601f1916010190565b600435906001600160a01b038216820361084357565b602435906001600160a01b038216820361084357565b606090600319011261084357600435906024356001600160a01b0381168103610843579060443590565b6060906003190112610843576001600160a01b0390600435828116810361084357916024359081168103610843579060443590565b6001600160401b038111611e8c57604052565b634e487b7160e01b600052604160045260246000fd5b60c081019081106001600160401b03821117611e8c57604052565b604081019081106001600160401b03821117611e8c57604052565b602081019081106001600160401b03821117611e8c57604052565b90601f801991011681019081106001600160401b03821117611e8c57604052565b6001600160401b038111611e8c57601f01601f191660200190565b929192611f3b82611f14565b91611f496040519384611ef3565b829481845281830111610843578281602093846000960137010152565b9080601f8301121561084357816020611f8193359101611f2f565b90565b60e0600319820112610843576004356001600160a01b038116810361084357916024359160443591606435916001600160401b03916084358381116108435782611fd091600401611f66565b9260a4358181116108435783611fe891600401611f66565b9260c43591821161084357611f8191600401611f66565b60009080825260209060098252604092838120338252835260ff8482205416156120295750505050565b8351916001600160401b0390336060850183811186821017612320578752602a8552858501918736843785511561230c57603083538551916001928310156122f8576078602188015360295b83811161228e575061224c579087519360808501908582109082111761223857885260428452868401946060368737845115612224576030865384518210156122245790607860218601536041915b8183116121b657505050612174576121709386936121549361214560489461211c9a519a8b957f416363657373436f6e74726f6c3a206163636f756e74200000000000000000008c8801525180926037880190611da6565b8401917001034b99036b4b9b9b4b733903937b6329607d1b603784015251809386840190611da6565b01036028810187520185611ef3565b5192839262461bcd60e51b845260048401526024830190611dc9565b0390fd5b60648587519062461bcd60e51b825280600483015260248201527f537472696e67733a20686578206c656e67746820696e73756666696369656e746044820152fd5b909192600f81166010811015612210576f181899199a1a9b1b9c1cb0b131b232b360811b901a6121e685886123cd565b5360041c9280156121fc576000190191906120c4565b634e487b7160e01b82526011600452602482fd5b634e487b7160e01b83526032600452602483fd5b634e487b7160e01b81526032600452602490fd5b634e487b7160e01b86526041600452602486fd5b60648789519062461bcd60e51b825280600483015260248201527f537472696e67733a20686578206c656e67746820696e73756666696369656e746044820152fd5b90600f811660108110156122e4576f181899199a1a9b1b9c1cb0b131b232b360811b901a6122bc838a6123cd565b5360041c9080156122d05760001901612075565b634e487b7160e01b87526011600452602487fd5b634e487b7160e01b88526032600452602488fd5b634e487b7160e01b86526032600452602486fd5b634e487b7160e01b85526032600452602485fd5b634e487b7160e01b85526041600452602485fd5b906000918083526009602052604083209160018060a01b03169182845260205260ff60408420541661236557505050565b8083526009602052604083208284526020526040832060ff1981541690557ff6391f5c32d9c69d2a47ea670b442974b53935d1edc7fd64eb21e047a839171b339380a4565b919082018092116123b757565b634e487b7160e01b600052601160045260246000fd5b9081518110156123de570160200190565b634e487b7160e01b600052603260045260246000fd5b6005548110156123de576006906005600052027f036b6384b5eca791c62761152d0c79bb0604c104a5fb6f4eb0703f3154bb3db00190600090565b61243881614151565b600052600660205260016124506040600020546123f4565b50015490565b602081830312610843578051906001600160401b038211610843570181601f8201121561084357805161248881611f14565b926124966040519485611ef3565b8184526020828401011161084357611f819160208085019101611da6565b6001600160a01b031680156124d457600052600760205260406000205490565b60405162461bcd60e51b815260206004820152602b60248201527f455243333532353a2062616c616e636520717565727920666f7220746865207a60448201526a65726f206164647265737360a81b6064820152608490fd5b1561253457565b60405162461bcd60e51b815260206004820152603260248201527f455243333532353a207472616e736665722063616c6c6572206973206e6f74206044820152711bdddb995c881b9bdc88185c1c1c9bdd995960721b6064820152608490fd5b906125b89392916125a86117708433612771565b6125b38383836127e2565b612bc3565b156125bf57565b60405162461bcd60e51b815260206004820152602760248201527f455243333532353a207472616e7366657220746f206e6f6e204552433732315260448201526632b1b2b4bb32b960c91b6064820152608490fd5b1561261b57565b60405162461bcd60e51b815260206004820152602260248201527f455243333532353a20617070726f76616c20746f2063757272656e74206f776e60448201526132b960f11b6064820152608490fd5b1561267257565b60405162461bcd60e51b815260206004820152601960248201527f455243333532353a20696e76616c696420746f6b656e204944000000000000006044820152606490fd5b6126c081614151565b60005260066020526126d66040600020546123f4565b50600301546001600160a01b0316906126f082151561266b565b565b6126fb81614151565b60005260066020526127116040600020546123f4565b50600401546001600160a01b031690565b600e548110156123de57600e6000527fbb7b4a454dc3493923482f07822329ed19e8244eff582cc204f8554c3620c3fd0190600090565b80548210156123de5760005260206000200190600090565b906001600160a01b038080612785846126b7565b169316918383149384156127b8575b5083156127a2575b50505090565b6127ae919293506126f2565b161438808061279c565b909350600052600760205260026040600020018260005260205260ff604060002054169238612794565b6127eb836126b7565b6001600160a01b03808316929181168390036128fc578084169384156128a957856128a5916128a0826000805160206143ce8339815191529661282d8261242f565b506128378261294d565b5081600080988282526006602052600461285460408420546123f4565b500180546001600160a01b031916905561286d836126b7565b167f8c5be1e5ebec7d5bd14f71427d1e84f3dd0314c0f7b2291e5b200ac8c7c3b9258280a461289b82612b03565b612a11565b61296e565b80a4565b60405162461bcd60e51b815260206004820152602560248201527f455243333532353a207472616e7366657220746f20746865207a65726f206164604482015264647265737360d81b6064820152608490fd5b60405162461bcd60e51b8152602060048201526024808201527f455243333532353a207472616e736665722066726f6d20696e76616c6964206f6044820152633bb732b960e11b6064820152608490fd5b61295681614151565b600052600660205260026124506040600020546123f4565b6000908282526006602052600361298860408420546123f4565b500180546001600160a01b0319166001600160a01b0390921691821790558082526007602081815260408085208054878752600191909101835281862055928452528120805491600160401b8310156129f05750816110cc9160016126f09594018155612759565b634e487b7160e01b81526041600452602490fd5b919082039182116123b757565b60009082825260066020526003612a2b60408420546123f4565b500180546001600160a01b03191690556001600160a01b0316815260076020526040812080546000199391929190848101908111612ae057612a6d9084612759565b90549060031b1c6001840182845280602052604084205491612a93816110cc8589612759565b8452602052604083205581528060408120558154908115612acc5750820191612abc8383612759565b909182549160031b1b1916905555565b634e487b7160e01b81526031600452602490fd5b634e487b7160e01b83526011600452602483fd5b60001981146123b75760010190565b60008181526020600681526040926005612b1f858520546123f4565b500193845491845b838110612b65575050505082549282815583612b44575b50505050565b82528120918201915b828110612b5a5780612b3e565b818155600101612b4d565b80612b73612b9e9289612759565b90548489526004885285892060039290921b1c6001600160a01b031688528652838720879055612af4565b612b27565b9081602091031261084357516001600160e01b0319811681036108435790565b92939290803b15612d085793600091612c1a9560405180948193630a85bd0160e11b9788845233600485015260018060a01b0380921660248501526044840152608060648401528260209a8b976084830190611dc9565b0393165af160009181612cd9575b50612cca57833d15612cc2573d90612c3f82611f14565b91612c4d6040519384611ef3565b82523d60008284013e5b81519182612cbf5760405162461bcd60e51b815260048101839052603260248201527f4552433732313a207472616e7366657220746f206e6f6e20455243373231526560448201527131b2b4bb32b91034b6b83632b6b2b73a32b960711b6064820152608490fd5b01fd5b606090612c57565b6001600160e01b031916149150565b612cfa919250853d8711612d01575b612cf28183611ef3565b810190612ba3565b9038612c28565b503d612ce8565b50600193505050565b909192949394600554946000918686036130ea576003805460010190819055976001600160a01b0391858316801561309b578a1561304c57612d528b6140ad565b801561303d575b612ff8576040968751612d6b81611ed8565b878152885190612d7a82611ea2565b8d82528a6020830152888a83015283606083015288608083015260a08201528c885260066020528b89892055600160401b9b8c811015612fe4578d93926128a0612dd593612dcf8460018996016005556123f4565b9061337d565b866000805160206143ce8339815191528180a486858b7fe4f48c240d3b994948aa54f3e2f5fca59263dfe1d52b6e4cf39a5d249b5ccb658280a489855260066020526002612e25878720546123f4565b5001612e328982546123aa565b905589856000805160206143ae833981519152602089518c8152a38260085416803b1561081157612e889186918c838a51809681958294632108947560e21b845260048401528d60248401526044830190611dc9565b03925af18015612fda57612fc7575b508160085416803b156102b457612ed39185918b83895180968195829463246a908b60e01b845260048401528c60248401526044830190611dc9565b03925af18015612fbd57908491612fa9575b505060085416803b156103a157612f2191839189838751809681958294630190503b60e61b845260048401528a60248401526044830190611dc9565b03925af18015612f9f57612f8b575b505051848152602081019190915260408101919091527f84eeb48eca46cea54afc9753345f6038981672ea565f32885420829dfd88aea690606090a1600e5490811015611e8c57816110cc826001611f819401600e55612722565b612f958291611e79565b6102b15780612f30565b83513d84823e3d90fd5b612fb290611e79565b6103a1578238612ee5565b85513d86823e3d90fd5b612fd390949194611e79565b9238612e97565b86513d87823e3d90fd5b634e487b7160e01b89526041600452602489fd5b60405162461bcd60e51b815260206004820152601d60248201527f455243333532353a20746f6b656e20616c7265616479206d696e7465640000006044820152606490fd5b506130478b6140db565b612d59565b60405162461bcd60e51b815260206004820152602160248201527f455243333532353a2063616e6e6f74206d696e74207a65726f20746f6b656e496044820152601960fa1b6064820152608490fd5b60405162461bcd60e51b815260206004820152602160248201527f455243333532353a206d696e7420746f20746865207a65726f206164647265736044820152607360f81b6064820152608490fd5b60405162461bcd60e51b815260206004820152603c60248201527f4f726465724372656469743a204e657720746f6b656e732063616e206f6e6c7960448201527f206d696e7420746f2074686520656e64206f6620746865206c697374000000006064820152608490fd5b61315e81614151565b6000818152602060068152604090613178828420546123f4565b509060018060a01b03806003840154169360016002818601549501549261319e89612b03565b6131a88988612a11565b60055460001991828201918211613369578a8a5260068752868a6131cf87822054946123f4565b509260058851946131df86611ea2565b80548652888101548587015260028101548a8701528260038201541660608701528260048201541660808701520188518094859381845493848152019386528a82872096925b84841061334c57505050505061323d92500382611ef3565b60a082015261324f81612dcf846123f4565b518952600686528389205588885287838120556005548015613338570190613276826123f4565b61332457918896959391600584898d98965589838201558960028201558960038201558960048201550180549089815581613303575b505050600555519081528492916000805160206143ae83398151915291a3847fe4f48c240d3b994948aa54f3e2f5fca59263dfe1d52b6e4cf39a5d249b5ccb658380a46000805160206143ce8339815191528280a4565b8952858920908101905b818110156132ac579889558a988c9750820161330d565b634e487b7160e01b89526004899052602489fd5b634e487b7160e01b89526031600452602489fd5b875483168652968101968896509094019391909101908a8e613225565b634e487b7160e01b8a52601160045260248afd5b919061347057805182556020908181015192600193848201556040820151600282015560a060056003830192600180841b039384606087015116906bffffffffffffffffffffffff851b91828254161790556004820190856080880151169082541617905501920151928351936001600160401b038511611e8c57600160401b8511611e8c5781908454868655808710613443575b500192600052806000209160005b8581106134305750505050505050565b8451821684820155938201938601613420565b6000868152888885832093840193015b83811061346257505050613412565b8281558695508a9101613453565b634e487b7160e01b600052600060045260246000fd5b1561348d57565b60405162461bcd60e51b815260206004820152603060248201527f4f726465724372656469743a206f6e6c7920656e746972652076616c7565206360448201526f185b881899481d1c985b9cd9995c995960821b6064820152608490fd5b919091600090808252602091600d8352604092838220541560001461378a5761351585843361386d565b60016003540195866003556135298461242f565b906001600160a01b03811690811561373c5788156136ee5761354a896140ad565b80156136df575b61369b57865161356081611ed8565b85815287519061356f82611ea2565b8a82528486830152868983015283606083015286608083015260a08201526005548a8752600686528089882055600160401b81101561368757947f6d811e6a20ae5461a4ef22a6998c1d958defe727f1cc522b6eb792bc8e6f7266999897948b8095613600826136819b976128a06000805160206143ae83398151915298612dcf8e6136649f6001016005556123f4565b856000805160206143ce8339815191528180a483857fe4f48c240d3b994948aa54f3e2f5fca59263dfe1d52b6e4cf39a5d249b5ccb658280a48383526006815261364c888420546123f4565b50508751838152a361365f858883613b06565b61242f565b915192839286846040919493926060820195825260208201520152565b0390a190565b634e487b7160e01b87526041600452602487fd5b865162461bcd60e51b815260048101859052601d60248201527f455243333532353a20746f6b656e20616c7265616479206d696e7465640000006044820152606490fd5b506136e9896140db565b613551565b865162461bcd60e51b815260048101859052602160248201527f455243333532353a2063616e6e6f74206d696e74207a65726f20746f6b656e496044820152601960fa1b6064820152608490fd5b865162461bcd60e51b815260048101859052602160248201527f455243333532353a206d696e7420746f20746865207a65726f206164647265736044820152607360f81b6064820152608490fd5b600c5484516307a42e0160e11b8152600481018590526001600160a01b0397881660248201526044810187905291969192918791849160649183918691165af195861561386157819661380a575b505050906136816136647f6d811e6a20ae5461a4ef22a6998c1d958defe727f1cc522b6eb792bc8e6f7266949361242f565b909180939650813d831161385a575b6138238183611ef3565b810103126102b1575051926136816136647f6d811e6a20ae5461a4ef22a6998c1d958defe727f1cc522b6eb792bc8e6f72666137d8565b503d613819565b508351903d90823e3d90fd5b6138778183613906565b6138818383612771565b15806138fa575b6138925750505050565b8381106138b5576138ac936138a691612a04565b91613934565b38808080612b3e565b60405162461bcd60e51b815260206004820152601f60248201527f455243333532353a20696e73756666696369656e7420616c6c6f77616e6365006044820152606490fd5b50600019811415613888565b61390f81614151565b600052600460205260406000209060018060a01b031660005260205260406000205490565b6001600160a01b038083169391928415613a1d578361395291613a75565b156139a0575b5060207f621b050de0ad08b51d19b48b3e6df75348c4de6bdd93e81b252ca62e28265b1b918360005260048252604060002085600052825280604060002055604051908152a3565b9082600052600660205260056139ba6040600020546123f4565b500190815492600160401b841015611e8c5785613a008560209560017f621b050de0ad08b51d19b48b3e6df75348c4de6bdd93e81b252ca62e28265b1b98018155612759565b909283549160031b90811b9283911b169119161790559150613958565b60405162461bcd60e51b815260206004820152602a60248201527f455243333532353a20617070726f76652076616c756520746f20746865207a65604482015269726f206164647265737360b01b6064820152608490fd5b6000908282526006602090808252604090613a92828620546123f4565b509260058094015496865b888110613ab05750505050505050905090565b818852838352613ace8187613ac7888c20546123f4565b5001612759565b905460039190911b1c6001600160a01b0390811690881614613af857613af390612af4565b613a9d565b505050505050505050600190565b613b0f816140ad565b8015613d9c575b15613d4757613b24826140ad565b8015613d38575b15613ce5578060005260209260068452604092613b4b84600020546123f4565b508160005260068652613b6185600020546123f4565b50906002810190815490858210613c8e5760010154600184015403613c335791600291613b9486613bd198979695612a04565b905501613ba28382546123aa565b905580836000805160206143ae833981519152888851868152a3845192613bc884611ed8565b60008452613dc3565b15613bda575050565b60849250519062461bcd60e51b82526004820152602d60248201527f455243333532353a207472616e736665722072656a656374656420627920455260448201526c21999a991aa932b1b2b4bb32b960991b6064820152fd5b865162461bcd60e51b815260048101899052602e60248201527f455243333532353a207472616e7366657220746f20746f6b656e20776974682060448201526d191a5999995c995b9d081cdb1bdd60921b6064820152608490fd5b875162461bcd60e51b8152600481018a9052602a60248201527f455243333532353a20696e73756666696369656e742062616c616e636520666f60448201526939103a3930b739b332b960b11b6064820152608490fd5b60405162461bcd60e51b815260206004820152602560248201527f455243333532353a207472616e7366657220746f20696e76616c696420746f6b604482015264195b88125160da1b6064820152608490fd5b50613d42826140db565b613b2b565b60405162461bcd60e51b815260206004820152602760248201527f455243333532353a207472616e736665722066726f6d20696e76616c696420746044820152661bdad95b88125160ca1b6064820152608490fd5b50613da6816140db565b613b16565b90816020910312610843575180151581036108435790565b92613dcd826126b7565b803b151580613e7f575b15613e7557613e2093600060209460405196879586948593629ce20b60e01b9b8c865233600487015260248601526044850152606484015260a0608484015260a4830190611dc9565b03926001600160a01b03165af1908115613e6957600091613e4b575b506001600160e01b0319161490565b613e63915060203d8111612d0157612cf28183611ef3565b38613e3c565b6040513d6000823e3d90fd5b5050505050600190565b506040516301ffc9a760e01b8152629ce20b60e01b60048201526020816024816001600160a01b0386165afa908115613e6957600091613ec0575b50613dd7565b613ee1915060203d8111613ee7575b613ed98183611ef3565b810190613dab565b38613eba565b503d613ecf565b9091613ef9836140ad565b8061409a575b801561408b575b1561401457613f14826140ad565b80614001575b80613fde575b15613f845790613f7f82613f577fdf7a601a0a201ccd4b4bfcfd610913188d931867997223d226f85f2f2673988a9594843361386d565b613f62818585613b06565b604051938493846040919493926060820195825260208201520152565b0390a1565b600c546001600160a01b0316803b1561084357604051630310ed7f60e41b8152600481019390935260248301939093526044820152906000908290606490829084905af18015613e6957613fd55750565b6126f090611e79565b50613fe8836140ad565b8015613f205750613ff88361242f565b600b5414613f20565b5061400b8261242f565b600b5414613f1a565b60a460405162461bcd60e51b815260206004820152604460248201527f546f6b656e204944206f66207265636569766572206e6f74207265636f676e6960448201527f7a6564206279207468697320636f6e7472616374206f722074686520726567696064820152637374727960e01b6084820152fd5b50614095836140db565b613f06565b506140a48361242f565b600b5414613eff565b600554151590816140bc575090565b80915060005260066020526140d56040600020546123f4565b50541490565b80600052600d60205260406000205415908115916140f7575090565b600c546040516341ce4b3f60e01b81526004810192909252909150602090829060249082906001600160a01b03165afa908115613e6957600091614139575090565b611f81915060203d8111613ee757613ed98183611ef3565b6126f09061415e816140ad565b908115614183575b8115614173575b5061266b565b61417d91506140db565b3861416d565b905061418e816140db565b90614166565b61419d81614151565b6141a6816140ad565b8061423f575b156141ba57611f819061294d565b6000908152600d6020526040812054602060018060a01b03600c541691602460405180948193631398fee160e31b835260048301525afa91821561423357809261420357505090565b9091506020823d821161422b575b8161421e60209383611ef3565b810103126102b157505190565b3d9150614211565b604051903d90823e3d90fd5b506142498161242f565b600b54146141ac565b61425b81614151565b614264816140ad565b8061430f575b1561427857611f81906126b7565b60018060a01b0380600c5416916000908152600d602052602060408220546024604051809681936331a9108f60e11b835260048301525afa9283156143025781936142c35750505090565b909192506020813d82116142fa575b816142df60209383611ef3565b8101031261030f575191821682036102b1575038808061279c565b3d91506142d2565b50604051903d90823e3d90fd5b506143198161242f565b600b541461426a565b9061432c82614151565b614335826140ad565b8061439a575b1561434957611f8191613906565b602060018060a01b0391604483600c54166000958652600d845260408620549060405195869485936338d1782f60e21b855260048501521660248301525afa91821561423357809261420357505090565b506143a48261242f565b600b541461433b56fe0b2aac84f3ec956911fd78eae5311062972ff949f38412e8da39069d9f068cc6ddf252ad1be2c89b69c2b068fc378daa952ba7f163c4a11628f55a4df523b3efa264697066735822122088449d16ba8f736995c88b27915d29b3bc8bf251a26b9a3076bcb970e3abe72b64736f6c634300081100336080604052346200048657620024ae803803806200001d816200048b565b9283398101608082820312620004865781516001600160401b0391908281116200048657816200004f918501620004b1565b91602092838501518281116200048657836200006d918701620004b1565b92604086015183811162000486576060916200008b918801620004b1565b9501516001600160a01b03811695908690036200048657815193838511620002c3576001948554938685811c951680156200047b575b88861014620002a2578190601f9586811162000425575b508890868311600114620003bd57600092620003b1575b5050600019600383901b1c191690861b1785555b805190848211620002c357600254908682811c92168015620003a6575b88831014620002a25781858493116200034f575b508790858311600114620002e557600092620002d9575b5050600019600383901b1c191690851b176002555b8051928311620002c35760039485548581811c91168015620002b8575b82821014620002a25783811162000257575b5080928411600114620001ed5750928293918392600094620001e1575b50501b9160001990841b1c19161790555b600080546001600160a01b031916919091179055604051611f8a9081620005248239f35b015192503880620001ac565b919083601f1981168760005284600020946000905b888383106200023c575050501062000223575b505050811b019055620001bd565b015160001983861b60f8161c1916905538808062000215565b85870151885590960195948501948793509081019062000202565b86600052816000208480870160051c82019284881062000298575b0160051c019086905b8281106200028b5750506200018f565b600081550186906200027b565b9250819262000272565b634e487b7160e01b600052602260045260246000fd5b90607f16906200017d565b634e487b7160e01b600052604160045260246000fd5b0151905038806200014b565b90879350601f198316916002600052896000209260005b8b8282106200033857505084116200031e575b505050811b0160025562000160565b015160001960f88460031b161c191690553880806200030f565b8385015186558b97909501949384019301620002fc565b9091506002600052876000208580850160051c8201928a86106200039c575b918991869594930160051c01915b8281106200038c57505062000134565b600081558594508991016200037c565b925081926200036e565b91607f169162000120565b015190503880620000ef565b90889350601f19831691846000528a6000209260005b8c8282106200040e5750508411620003f4575b505050811b01855562000103565b015160001960f88460031b161c19169055388080620003e6565b8385015186558c97909501949384019301620003d3565b90915087600052886000208680850160051c8201928b861062000471575b918a91869594930160051c01915b82811062000461575050620000d8565b600081558594508a910162000451565b9250819262000443565b94607f1694620000c1565b600080fd5b6040519190601f01601f191682016001600160401b03811183821017620002c357604052565b919080601f84011215620004865782516001600160401b038111620002c357602090620004e7601f8201601f191683016200048b565b92818452828287010111620004865760005b8181106200050f57508260009394955001015290565b8581018301518482018401528201620004f956fe608060408181526004908136101561001657600080fd5b600092833560e01c9081631375d843146114a057508063246a908b146113a257806331264fc11461119057806355f804b31461104c57806364140ec014610f4d5780636c0360eb14610e8e5780636c037f8a14610b7257806371f0442e14610ade578063725fa09c14610866578063842251d41461072e578063894b4c2e146104025780639cdeaae0146101805763b3154c08146100b357600080fd5b3461017c57602091826003193601126101785780358452825280832091815192848154906100e082611a7d565b808752926001928084169081156101545750600114610119575b610115878761010b828c03836115b6565b5191829182611558565b0390f35b9080949750528583205b82841061014157505050826101159461010b928201019438806100fa565b8054868501880152928601928101610123565b60ff19168887015250505050151560051b830101925061010b8261011538806100fa565b8380fd5b8280fd5b50913461039057826003193601126103905781359161019e836119cd565b928083526020918083528584209386519481868254916101bd83611a7d565b92838352888301946001918a83821691826000146103e25750506001146103a5575b50506101ed925003876115b6565b6101f684611de4565b9161020260243561188a565b895163131f9f3f60e11b8152948501869052938681602481335afa91821561039a578092610365575b61011561027f8c61010b606c8e8e8e61034c8f8f8f8f8f61024e6102549161188a565b94611e7e565b966102a960298d519e8f809c683d913730b6b2911d1160b91b8c8301528b8151948593019101611535565b8a0191701116113232b9b1b934b83a34b7b7111d1160791b6029840152518093603a840190611535565b016a11161134b6b0b3b2911d1160a91b603a8201526102d18251809388604585019101611535565b016c1116113130b630b731b2911d1160991b60458201526102fb8251809387605285019101611535565b016911161139b637ba111d1160b11b60528201526103228251809386605c85019101611535565b01916e111611383937b832b93a34b2b9911d60891b605c8401528351938491606b85019101611535565b01607d60f81b606b82015203604c8101855201836115b6565b9091508682813d8311610393575b61037d81836115b6565b810103126103905750518461027f61022b565b80fd5b503d610373565b8a51903d90823e3d90fd5b89925086528186209086915b8583106103c95750506101ed935082010138806101df565b81948484839695965492010152019101899289926103b1565b92509350506101ed94915060ff19168552151560051b82010138806101df565b50913461039057602091826003193601126106bd57803591610423836119cd565b83825282855285822090865190838284549161043e83611a7d565b928383528a8301966001918c838216918260001461070e5750506001146106d2575b505061046e925003836115b6565b61047786611de4565b938851631398fee160e31b815287878201528881602481335afa80156106c8578290610695575b6104a8915061188a565b895163131f9f3f60e11b8152968701889052958881602481335afa91821561039a578092610664575b5050606c888a6101159b9961010b99603d996106549d9961061b9961055861052e9a6105086105026106169c61188a565b97611e7e565b97519b8c99683d913730b6b2911d1160b91b818c0152825192839160298d019101611535565b880191701116113232b9b1b934b83a34b7b7111d1160791b6029840152518093603a840190611535565b016a11161134b6b0b3b2911d1160a91b603a820152610580825180938d604585019101611535565b016c1116113130b630b731b2911d1160991b60458201526105aa825180938c605285019101611535565b016911161139b637ba111d1160b11b60528201526105d1825180938b605c85019101611535565b016e111611383937b832b93a34b2b9911d60891b605c8201526105fd825180938a606b85019101611535565b01607d60f81b606b82015203604c8101845201826115b6565b61171d565b845195827f646174613a6170706c69636174696f6e2f6a736f6e3b6261736536342c000000889485015282519283918686019101611535565b810103601d8101855201836115b6565b9091508882813d831161068e575b61067c81836115b6565b81010312610390575051606c886104d1565b503d610672565b508881813d83116106c1575b6106ab81836115b6565b810103126106bd576104a8905161049e565b5080fd5b503d6106a1565b8a513d84823e3d90fd5b8b925088528188209088915b8583106106f657505061046e93508201013880610460565b80548389018501528794508c939092019181016106de565b925093505061046e94915060ff19168752151560051b8201013880610460565b508290346106bd5761073f36611640565b939083526020916006835283209184519167ffffffffffffffff8311610853575061076a8354611a7d565b601f8111610810575b5080601f83116001146107ae57508394829394926107a3575b50508160011b916000199060031b1c191617905580f35b01519050848061078c565b90601f198316958486528286209286905b8882106107f8575050836001959697106107df575b505050811b01905580f35b015160001960f88460031b161c191690558480806107d4565b806001859682949686015181550195019301906107bf565b838552818520601f840160051c810191838510610849575b601f0160051c01905b81811061083e5750610773565b858155600101610831565b9091508190610828565b634e487b7160e01b855260419052602484fd5b50903461017c578260031936011261017c5781516306fdde0360e01b81529083828281335afa918215610ad1578492610aad575b5082519084600254906108ac82611a7d565b808552846020988992838301956001908181169081600014610a8e5750600114610a32575b50506108df925003856115b6565b6108e7611bb6565b928787518092633e7e866960e01b825281335afa918215610a2757605a610654989761010b97603d976101159c9761093360ff61061b996109889961061699916109fa575b501661188a565b928c51978895683d913730b6b2911d1160b91b8c88015261095e8c825192839160298b019101611535565b860191701116113232b9b1b934b83a34b7b7111d1160791b6029840152518093603a840190611535565b016a11161134b6b0b3b2911d1160a91b603a8201526109b0825180938b604585019101611535565b01721116113b30b63ab2a232b1b4b6b0b639911d1160691b60458201526109e0825180938a605885019101611535565b0161227d60f01b605882015203603a8101845201826115b6565b610a1a91508c8d3d10610a20575b610a1281836115b6565b8101906116d2565b3861092c565b503d610a08565b8751903d90823e3d90fd5b600286527f405787fa12a823e0f2b7631cc41b3ba8828b3321ca811111fa75cd3aa3bb5ace9492508591905b818310610a7657508b9450508201016108df386108d1565b85548a84018501529485019489945091830191610a5e565b9150506108df94925060ff19168652151560051b8201018992386108d1565b610aca9192503d8086833e610ac281836115b6565b810190611673565b903861089a565b50505051903d90823e3d90fd5b503461017c576020918260031936011261017857358352600582528083209181519284815490610b0d82611a7d565b808752926001928084169081156101545750600114610b3757610115878761010b828c03836115b6565b9080949750528583205b828410610b5f57505050826101159461010b928201019438806100fa565b8054868501880152928601928101610b41565b50903461017c5760209283600319360112610390578054835163ec327a2160e01b815283358185018190529092916001600160a01b0316908284602481855afa938415610e84578394610e68575b50855163bc74ebb960e01b8152858101829052948386602481865afa958615610e5e578496610e42575b5086516309c3dd8760e01b80825282820184905290938585602481845afa948515610e3857918a9594939187938496610e17575b5090602491610c5e60268d518a652f696d61676560d01b81610c4a849e85019d8e815193849201611535565b83019182015203600681018b5201896115b6565b8b51958694859384528301525afa938415610a27578094610dfa575b50508551918288808201868197519283910191610c9692611535565b81018981016f17b83937b832b93a34b2b9973539b7b760811b905203601081018452603001610cc590846115b6565b8651958695683d913730b6b2911d1160b91b8a880152805190818b60298a01920191610cf092611535565b8601701116113232b9b1b934b83a34b7b7111d1160791b6029820152815191828b603a8401920191610d2192611535565b01906a11161134b6b0b3b2911d1160a91b603a83015251918260458301610d4792611535565b01906e111611383937b832b93a34b2b9911d60891b604583015251918260548301610d7192611535565b0160548101607d60f81b905203603581018252605501610d9190826115b6565b610d9a9061171d565b81517f646174613a6170706c69636174696f6e2f6a736f6e3b6261736536342c00000084820152815190938492610dd8918391603d86019101611535565b810103601d81018352603d01610dee90836115b6565b51610115819282611558565b610e0f9294503d8091833e610ac281836115b6565b913880610c7a565b602492919650610e30903d8087833e610ac281836115b6565b959091610c1e565b89513d88823e3d90fd5b610e579196503d8086833e610ac281836115b6565b9438610bea565b87513d86823e3d90fd5b610e7d9194503d8085833e610ac281836115b6565b9238610bc0565b86513d85823e3d90fd5b8382346106bd57816003193601126106bd57805190826001805491610eb283611a7d565b80865292828116908115610f255750600114610edb575b50505061010b826101159403836115b6565b9450808552600080516020611f358339815191525b828610610f0d5750505061010b8260206101159582010194610ec9565b80546020878701810191909152909501948101610ef0565b61011597508693506020925061010b94915060ff191682840152151560051b82010194610ec9565b508290346106bd57610f5e36611640565b939083526020916005835283209184519167ffffffffffffffff83116108535750610f898354611a7d565b601f8111611009575b5080601f8311600114610fc157508394829394926107a35750508160011b916000199060031b1c191617905580f35b90601f198316958486528286209286905b888210610ff1575050836001959697106107df57505050811b01905580f35b80600185968294968601518155019501930190610fd2565b838552818520601f840160051c810191838510611042575b601f0160051c01905b8181106110375750610f92565b85815560010161102a565b9091508190611021565b828434610390576020806003193601126106bd5767ffffffffffffffff83358181116101785761107f90369086016115f4565b93845191821161117d57506001916110978354611a7d565b601f811161112b575b5080601f83116001146110da57508394829394926110cf575b5050600019600383901b1c191690821b17905580f35b0151905084806110b9565b838552601f19831695600080516020611f35833981519152929186905b88821061111457505083859697106107df57505050811b01905580f35b8087859682949686015181550195019301906110f7565b838552600080516020611f35833981519152601f840160051c810191838510611173575b601f0160051c019084905b8281106111685750506110a0565b86815501849061115a565b909150819061114f565b634e487b7160e01b845260419052602483fd5b50903461017c578260031936011261017c5781516306fdde0360e01b81529083828281335afa918215610ad1578492611386575b5082519084906002546111d681611a7d565b808552846020948582019360019087828216918260001461136857505060011461130e575b50611208925003856115b6565b611210611bb6565b918387518092633e7e866960e01b825281335afa9081156113045761127d97969361010b969361125360ff605a98956112d3956101159e916112ed57501661188a565b9489519a8b97683d913730b6b2911d1160b91b878a015261052e815180928960298d019101611535565b016a11161134b6b0b3b2911d1160a91b603a8201526112a58251809386604585019101611535565b0191721116113b30b63ab2a232b1b4b6b0b639911d1160691b60458401528351938491605885019101611535565b0161227d60f01b605882015203603a8101855201836115b6565b610a1a9150873d8911610a2057610a1281836115b6565b87513d8a823e3d90fd5b60028b528691508a907f405787fa12a823e0f2b7631cc41b3ba8828b3321ca811111fa75cd3aa3bb5ace5b8583106113505750506112089350820101386111fb565b8054838b018501528994508893909201918101611339565b60ff1916875261120895151560051b85010192503891506111fb9050565b61139b9192503d8086833e610ac281836115b6565b90386111c4565b508290346106bd576113b336611640565b9390835260209181835283209184519167ffffffffffffffff831161085357506113dd8354611a7d565b601f811161145d575b5080601f831160011461141557508394829394926107a35750508160011b916000199060031b1c191617905580f35b90601f198316958486528286209286905b888210611445575050836001959697106107df57505050811b01905580f35b80600185968294968601518155019501930190611426565b838552818520601f840160051c810191838510611496575b601f0160051c01905b81811061148b57506113e6565b85815560010161147e565b9091508190611475565b92905034610178576020908160031936011261153157358452600681528184208054856114cc82611a7d565b8087529260019280841690811561015457506001146114f657610115878761010b828c03836115b6565b9080949750528583205b82841061151e57505050826101159461010b928201019438806100fa565b8054868501880152928601928101611500565b8480fd5b60005b8381106115485750506000910152565b8181015183820152602001611538565b604091602082526115788151809281602086015260208686019101611535565b601f01601f1916010190565b6060810190811067ffffffffffffffff8211176115a057604052565b634e487b7160e01b600052604160045260246000fd5b90601f8019910116810190811067ffffffffffffffff8211176115a057604052565b67ffffffffffffffff81116115a057601f01601f191660200190565b81601f8201121561163b5780359061160b826115d8565b9261161960405194856115b6565b8284526020838301011161163b57816000926020809301838601378301015290565b600080fd5b90604060031983011261163b57600435916024359067ffffffffffffffff821161163b57611670916004016115f4565b90565b60208183031261163b5780519067ffffffffffffffff821161163b570181601f8201121561163b5780516116a6816115d8565b926116b460405194856115b6565b8184526020828401011161163b576116709160208085019101611535565b9081602091031261163b575160ff8116810361163b5790565b906116f5826115d8565b61170260405191826115b6565b8281528092611713601f19916115d8565b0190602036910137565b8051156118655760405161173081611584565b604081527f4142434445464748494a4b4c4d4e4f505152535455565758595a61626364656660208201527f6768696a6b6c6d6e6f707172737475767778797a303132333435363738392b2f6040820152815160029283820180921161184f576003918290046001600160fe1b038116810361184f576117b2908594951b6116eb565b936020850193829183518401925b8381106117fe57505050505106806001146117eb576002146117e0575090565b603d90600019015390565b50603d9081600019820153600119015390565b85600491979293949701918251600190603f9082828260121c16880101518453828282600c1c16880101518385015382828260061c16880101518885015316850101518782015301959291906117c0565b634e487b7160e01b600052601160045260246000fd5b506040516020810181811067ffffffffffffffff8211176115a0576040526000815290565b806000917a184f03e93ff9f4daa797ed6e38ed64bf6a1f010000000000000000808210156119bf575b506d04ee2d6d415b85acef8100000000808310156119b0575b50662386f26fc10000808310156119a1575b506305f5e10080831015611992575b5061271080831015611983575b506064821015611973575b600a80921015611969575b6001908160216119218287016116eb565b95860101905b611933575b5050505090565b600019019083906f181899199a1a9b1b9c1cb0b131b232b360811b8282061a83530491821561196457919082611927565b61192c565b9160010191611910565b9190606460029104910191611905565b600491939204910191386118fa565b600891939204910191386118ed565b601091939204910191386118de565b602091939204910191386118cc565b6040935081049150386118b3565b6040516306fdde0360e01b815290600082600481335afa918215611a7157600092611a4b575b506022611a026116709261188a565b926040519381611a1c869351809260208087019101611535565b820161202360f01b6020820152611a3c8251809360208785019101611535565b010360028101845201826115b6565b611a02611a6860229261167094953d8091833e610ac281836115b6565b939250506119f3565b6040513d6000823e3d90fd5b90600182811c92168015611aad575b6020831014611a9757565b634e487b7160e01b600052602260045260246000fd5b91607f1691611a8c565b90600091600190815491611aca83611a7d565b92818116908115611b205750600114611ae257505050565b809192939450600052600080516020611f35833981519152906000915b848310611b0d575050500190565b8181602092548587015201920191611aff565b60ff191683525050811515909102019150565b600092918154611b4281611a7d565b92600191808316908115611b9b5750600114611b5f575b50505050565b90919293945060005260209081600020906000915b858310611b8a5750505050019038808080611b59565b805485840152918301918101611b74565b60ff1916845250505081151590910201915038808080611b59565b611bbf33611cc1565b6040519081602091611bd2838301611ab7565b68636f6e74726163742f60b81b8152611bf48251809386600985019101611535565b01602f60f81b600982015260009060035493611c0f85611a7d565b94600190818116908115611c9e5750600114611c3c575b505050611670925003601f1981018352826115b6565b9091925060036000527fc2575a0e9e593c00f959f8c92f12db2869c3395a3b0502d05e2516446f71f85b906000915b868310611c87575050505061167092600a910101388080611c26565b8054838601600a0152879550918301918101611c6b565b915050600a935061167095915060ff191683830152801515020101388080611c26565b604051906001600160a01b0316611cd782611584565b602a82526020908183016040368237835115611dce57603090538251600190811015611dce57607860218501536029905b808211611d5c575050611d19575090565b6064906040519062461bcd60e51b825280600483015260248201527f537472696e67733a20686578206c656e67746820696e73756666696369656e746044820152fd5b9091600f81166010811015611db9578551841015611db9576f181899199a1a9b1b9c1cb0b131b232b360811b901a85840185015360041c918015611da4576000190190611d08565b60246000634e487b7160e01b81526011600452fd5b60246000634e487b7160e01b81526032600452fd5b634e487b7160e01b600052603260045260246000fd5b611670601191611df330611cc1565b906000526006602052611e70604060002060056020526001611e62604060002092604051978896611e2660208901611ab7565b692f636f6e74726163742f60b01b8152611e4a825180936020600a85019101611535565b01662f746f6b656e2f60c81b600a8201520190611b33565b602f60f81b81520190611b33565b03601f1981018352826115b6565b6116706011601092611e8f33611cc1565b906000526006602052611f0560406000206040519586936e7b70726f706572746965735f75726960881b6020860152611eca602f8601611ab7565b68636f6e74726163742f60b81b8152611eed825180936020600985019101611535565b01662f746f6b656e2f60c81b60098201520190611b33565b6f17b83937b832b93a34b2b9973539b7b760811b8152607d60f81b601082015203600e198101845201826115b656feb10e2d527612073b26eecdfd717e6a320cf44b4afac2b0732d9fcbe2b7fa0cf6a26469706673582212202c467a4a676d76e370970da3ab744733f2ec2a4e8cd3718f3dd576d976390f8864736f6c634300081100332f8788117e7eff1d82e926ec794901d17c78024a50270940304540a733656f0db10e2d527612073b26eecdfd717e6a320cf44b4afac2b0732d9fcbe2b7fa0cf6",
  "linkReferences": {},
  "deployedLinkReferences": {}
}