{
  "_format": "hh-sol-artifact-1",
  "contractName": "OrderCredit",
  "sourceName": "contracts/OrderCredit.sol",
  "abi": [
    {
      "inputs": [
        {
          "internalType": "address",
          "name": "revenueAddress_",
          "type": "address"
        },
        {
          "internalType": "address",
          "name": "adminAddress_",
          "type": "address"
        },
        {
          "internalType": "address",
          "name": "slotRegistry_",
          "type": "address"
        },
        {
          "internalType": "address",
          "name": "poolContract_",
          "type": "address"
        },
        {
          "internalType": "address",
          "name": "underlyingContract_",
          "type": "address"
        },
        {
          "internalType": "address",
          "name": "mktAdmin_",
          "type": "address"
        },
        {
          "internalType": "uint256",
          "name": "defaultSlot_",
          "type": "uint256"
        },
        {
          "internalType": "string",
          "name": "name_",
          "type": "string"
        },
        {
          "internalType": "string",
          "name": "symbol_",
          "type": "string"
        },
        {
          "internalType": "string",
          "name": "baseUri_",
          "type": "string"
        },
        {
          "internalType": "string",
          "name": "contractDescription_",
          "type": "string"
        },
        {
          "internalType": "string",
          "name": "contractImage_",
          "type": "string"
        },
        {
          "internalType": "uint8",
          "name": "decimals_",
          "type": "uint8"
        }
      ],
      "stateMutability": "nonpayable",
      "type": "constructor"
    },
    {
      "anonymous": false,
      "inputs": [
        {
          "indexed": true,
          "internalType": "address",
          "name": "_owner",
          "type": "address"
        },
        {
          "indexed": true,
          "internalType": "address",
          "name": "_approved",
          "type": "address"
        },
        {
          "indexed": true,
          "internalType": "uint256",
          "name": "_tokenId",
          "type": "uint256"
        }
      ],
      "name": "Approval",
      "type": "event"
    },
    {
      "anonymous": false,
      "inputs": [
        {
          "indexed": true,
          "internalType": "address",
          "name": "_owner",
          "type": "address"
        },
        {
          "indexed": true,
          "internalType": "address",
          "name": "_operator",
          "type": "address"
        },
        {
          "indexed": false,
          "internalType": "bool",
          "name": "_approved",
          "type": "bool"
        }
      ],
      "name": "ApprovalForAll",
      "type": "event"
    },
    {
      "anonymous": false,
      "inputs": [
        {
          "indexed": true,
          "internalType": "uint256",
          "name": "_tokenId",
          "type": "uint256"
        },
        {
          "indexed": true,
          "internalType": "address",
          "name": "_operator",
          "type": "address"
        },
        {
          "indexed": false,
          "internalType": "uint256",
          "name": "_value",
          "type": "uint256"
        }
      ],
      "name": "ApprovalValue",
      "type": "event"
    },
    {
      "anonymous": false,
      "inputs": [
        {
          "indexed": false,
          "internalType": "uint256",
          "name": "offeringId",
          "type": "uint256"
        },
        {
          "indexed": false,
          "internalType": "uint256",
          "name": "value",
          "type": "uint256"
        }
      ],
      "name": "ListOffer",
      "type": "event"
    },
    {
      "anonymous": false,
      "inputs": [
        {
          "indexed": false,
          "internalType": "address",
          "name": "contractAddress",
          "type": "address"
        }
      ],
      "name": "MetadataDescriptor",
      "type": "event"
    },
    {
      "anonymous": false,
      "inputs": [
        {
          "indexed": false,
          "internalType": "uint256",
          "name": "tokenId",
          "type": "uint256"
        },
        {
          "indexed": false,
          "internalType": "uint256",
          "name": "slot",
          "type": "uint256"
        },
        {
          "indexed": false,
          "internalType": "uint256",
          "name": "value",
          "type": "uint256"
        }
      ],
      "name": "MintAssetToken",
      "type": "event"
    },
    {
      "anonymous": false,
      "inputs": [
        {
          "indexed": false,
          "internalType": "uint256",
          "name": "tokenId",
          "type": "uint256"
        },
        {
          "indexed": false,
          "internalType": "uint256",
          "name": "slot",
          "type": "uint256"
        },
        {
          "indexed": false,
          "internalType": "uint256",
          "name": "value",
          "type": "uint256"
        }
      ],
      "name": "MintServiceToken",
      "type": "event"
    },
    {
      "anonymous": false,
      "inputs": [
        {
          "indexed": false,
          "internalType": "uint256",
          "name": "newTokenId",
          "type": "uint256"
        },
        {
          "indexed": false,
          "internalType": "uint256",
          "name": "slot",
          "type": "uint256"
        },
        {
          "indexed": false,
          "internalType": "uint256",
          "name": "value",
          "type": "uint256"
        }
      ],
      "name": "MintServiceTokenToAddress",
      "type": "event"
    },
    {
      "anonymous": false,
      "inputs": [
        {
          "indexed": true,
          "internalType": "bytes32",
          "name": "role",
          "type": "bytes32"
        },
        {
          "indexed": true,
          "internalType": "bytes32",
          "name": "previousAdminRole",
          "type": "bytes32"
        },
        {
          "indexed": true,
          "internalType": "bytes32",
          "name": "newAdminRole",
          "type": "bytes32"
        }
      ],
      "name": "RoleAdminChanged",
      "type": "event"
    },
    {
      "anonymous": false,
      "inputs": [
        {
          "indexed": true,
          "internalType": "bytes32",
          "name": "role",
          "type": "bytes32"
        },
        {
          "indexed": true,
          "internalType": "address",
          "name": "account",
          "type": "address"
        },
        {
          "indexed": true,
          "internalType": "address",
          "name": "sender",
          "type": "address"
        }
      ],
      "name": "RoleGranted",
      "type": "event"
    },
    {
      "anonymous": false,
      "inputs": [
        {
          "indexed": true,
          "internalType": "bytes32",
          "name": "role",
          "type": "bytes32"
        },
        {
          "indexed": true,
          "internalType": "address",
          "name": "account",
          "type": "address"
        },
        {
          "indexed": true,
          "internalType": "address",
          "name": "sender",
          "type": "address"
        }
      ],
      "name": "RoleRevoked",
      "type": "event"
    },
    {
      "anonymous": false,
      "inputs": [
        {
          "indexed": true,
          "internalType": "address",
          "name": "metadataDescriptor",
          "type": "address"
        }
      ],
      "name": "SetMetadataDescriptor",
      "type": "event"
    },
    {
      "anonymous": false,
      "inputs": [
        {
          "indexed": true,
          "internalType": "uint256",
          "name": "_tokenId",
          "type": "uint256"
        },
        {
          "indexed": true,
          "internalType": "uint256",
          "name": "_oldSlot",
          "type": "uint256"
        },
        {
          "indexed": true,
          "internalType": "uint256",
          "name": "_newSlot",
          "type": "uint256"
        }
      ],
      "name": "SlotChanged",
      "type": "event"
    },
    {
      "anonymous": false,
      "inputs": [
        {
          "indexed": true,
          "internalType": "address",
          "name": "_from",
          "type": "address"
        },
        {
          "indexed": true,
          "internalType": "address",
          "name": "_to",
          "type": "address"
        },
        {
          "indexed": true,
          "internalType": "uint256",
          "name": "_tokenId",
          "type": "uint256"
        }
      ],
      "name": "Transfer",
      "type": "event"
    },
    {
      "anonymous": false,
      "inputs": [
        {
          "indexed": true,
          "internalType": "uint256",
          "name": "_fromTokenId",
          "type": "uint256"
        },
        {
          "indexed": true,
          "internalType": "uint256",
          "name": "_toTokenId",
          "type": "uint256"
        },
        {
          "indexed": false,
          "internalType": "uint256",
          "name": "_value",
          "type": "uint256"
        }
      ],
      "name": "TransferValue",
      "type": "event"
    },
    {
      "anonymous": false,
      "inputs": [
        {
          "indexed": false,
          "internalType": "uint256",
          "name": "fromTokenId",
          "type": "uint256"
        },
        {
          "indexed": false,
          "internalType": "uint256",
          "name": "toTokenId",
          "type": "uint256"
        },
        {
          "indexed": false,
          "internalType": "uint256",
          "name": "value",
          "type": "uint256"
        }
      ],
      "name": "ValueTransfer",
      "type": "event"
    },
    {
      "inputs": [],
      "name": "DEFAULT_ADMIN_ROLE",
      "outputs": [
        {
          "internalType": "bytes32",
          "name": "",
          "type": "bytes32"
        }
      ],
      "stateMutability": "view",
      "type": "function"
    },
    {
      "inputs": [],
      "name": "MKT_ARBITRATOR_ROLE",
      "outputs": [
        {
          "internalType": "bytes32",
          "name": "",
          "type": "bytes32"
        }
      ],
      "stateMutability": "view",
      "type": "function"
    },
    {
      "inputs": [],
      "name": "SERVICE_ADMIN_ROLE",
      "outputs": [
        {
          "internalType": "bytes32",
          "name": "",
          "type": "bytes32"
        }
      ],
      "stateMutability": "view",
      "type": "function"
    },
    {
      "inputs": [
        {
          "internalType": "string",
          "name": "uri_",
          "type": "string"
        }
      ],
      "name": "_setBaseURI",
      "outputs": [],
      "stateMutability": "nonpayable",
      "type": "function"
    },
    {
      "inputs": [
        {
          "internalType": "uint256",
          "name": "tokenId_",
          "type": "uint256"
        },
        {
          "internalType": "address",
          "name": "operator_",
          "type": "address"
        }
      ],
      "name": "allowance",
      "outputs": [
        {
          "internalType": "uint256",
          "name": "",
          "type": "uint256"
        }
      ],
      "stateMutability": "view",
      "type": "function"
    },
    {
      "inputs": [
        {
          "internalType": "address",
          "name": "to_",
          "type": "address"
        },
        {
          "internalType": "uint256",
          "name": "tokenId_",
          "type": "uint256"
        }
      ],
      "name": "approve",
      "outputs": [],
      "stateMutability": "payable",
      "type": "function"
    },
    {
      "inputs": [
        {
          "internalType": "uint256",
          "name": "tokenId_",
          "type": "uint256"
        },
        {
          "internalType": "address",
          "name": "to_",
          "type": "address"
        },
        {
          "internalType": "uint256",
          "name": "value_",
          "type": "uint256"
        }
      ],
      "name": "approve",
      "outputs": [],
      "stateMutability": "payable",
      "type": "function"
    },
    {
      "inputs": [
        {
          "internalType": "address",
          "name": "owner_",
          "type": "address"
        }
      ],
      "name": "balanceOf",
      "outputs": [
        {
          "internalType": "uint256",
          "name": "balance",
          "type": "uint256"
        }
      ],
      "stateMutability": "view",
      "type": "function"
    },
    {
      "inputs": [
        {
          "internalType": "uint256",
          "name": "tokenId_",
          "type": "uint256"
        }
      ],
      "name": "balanceOf",
      "outputs": [
        {
          "internalType": "uint256",
          "name": "",
          "type": "uint256"
        }
      ],
      "stateMutability": "view",
      "type": "function"
    },
    {
      "inputs": [],
      "name": "contractAdmin",
      "outputs": [
        {
          "internalType": "address",
          "name": "",
          "type": "address"
        }
      ],
      "stateMutability": "view",
      "type": "function"
    },
    {
      "inputs": [],
      "name": "contractURI",
      "outputs": [
        {
          "internalType": "string",
          "name": "",
          "type": "string"
        }
      ],
      "stateMutability": "view",
      "type": "function"
    },
    {
      "inputs": [],
      "name": "creditType",
      "outputs": [
        {
          "internalType": "string",
          "name": "",
          "type": "string"
        }
      ],
      "stateMutability": "view",
      "type": "function"
    },
    {
      "inputs": [],
      "name": "defaultSlot",
      "outputs": [
        {
          "internalType": "uint256",
          "name": "",
          "type": "uint256"
        }
      ],
      "stateMutability": "view",
      "type": "function"
    },
    {
      "inputs": [
        {
          "internalType": "uint256",
          "name": "index",
          "type": "uint256"
        }
      ],
      "name": "dequeue",
      "outputs": [],
      "stateMutability": "nonpayable",
      "type": "function"
    },
    {
      "inputs": [
        {
          "internalType": "address",
          "name": "owner_",
          "type": "address"
        },
        {
          "internalType": "uint256",
          "name": "slot_",
          "type": "uint256"
        },
        {
          "internalType": "string",
          "name": "uuid_",
          "type": "string"
        },
        {
          "internalType": "string",
          "name": "tokenDescription_",
          "type": "string"
        },
        {
          "internalType": "string",
          "name": "tokenImage_",
          "type": "string"
        },
        {
          "internalType": "string",
          "name": "property_",
          "type": "string"
        }
      ],
      "name": "enqueue",
      "outputs": [
        {
          "internalType": "uint256",
          "name": "",
          "type": "uint256"
        }
      ],
      "stateMutability": "nonpayable",
      "type": "function"
    },
    {
      "inputs": [
        {
          "internalType": "uint256",
          "name": "tokenId_",
          "type": "uint256"
        }
      ],
      "name": "getApproved",
      "outputs": [
        {
          "internalType": "address",
          "name": "",
          "type": "address"
        }
      ],
      "stateMutability": "view",
      "type": "function"
    },
    {
      "inputs": [
        {
          "internalType": "bytes32",
          "name": "role",
          "type": "bytes32"
        }
      ],
      "name": "getRoleAdmin",
      "outputs": [
        {
          "internalType": "bytes32",
          "name": "",
          "type": "bytes32"
        }
      ],
      "stateMutability": "view",
      "type": "function"
    },
    {
      "inputs": [
        {
          "internalType": "uint256",
          "name": "tokenId",
          "type": "uint256"
        }
      ],
      "name": "getTokenDescription",
      "outputs": [
        {
          "internalType": "string",
          "name": "",
          "type": "string"
        }
      ],
      "stateMutability": "view",
      "type": "function"
    },
    {
      "inputs": [
        {
          "internalType": "uint256",
          "name": "tokenId",
          "type": "uint256"
        }
      ],
      "name": "getTokenImage",
      "outputs": [
        {
          "internalType": "string",
          "name": "",
          "type": "string"
        }
      ],
      "stateMutability": "view",
      "type": "function"
    },
    {
      "inputs": [
        {
          "internalType": "uint256",
          "name": "tokenId",
          "type": "uint256"
        }
      ],
      "name": "getTokenUUID",
      "outputs": [
        {
          "internalType": "string",
          "name": "",
          "type": "string"
        }
      ],
      "stateMutability": "view",
      "type": "function"
    },
    {
      "inputs": [
        {
          "internalType": "bytes32",
          "name": "role",
          "type": "bytes32"
        },
        {
          "internalType": "address",
          "name": "account",
          "type": "address"
        }
      ],
      "name": "grantRole",
      "outputs": [],
      "stateMutability": "nonpayable",
      "type": "function"
    },
    {
      "inputs": [
        {
          "internalType": "bytes32",
          "name": "role",
          "type": "bytes32"
        },
        {
          "internalType": "address",
          "name": "account",
          "type": "address"
        }
      ],
      "name": "hasRole",
      "outputs": [
        {
          "internalType": "bool",
          "name": "",
          "type": "bool"
        }
      ],
      "stateMutability": "view",
      "type": "function"
    },
    {
      "inputs": [
        {
          "internalType": "address",
          "name": "owner_",
          "type": "address"
        },
        {
          "internalType": "address",
          "name": "operator_",
          "type": "address"
        }
      ],
      "name": "isApprovedForAll",
      "outputs": [
        {
          "internalType": "bool",
          "name": "",
          "type": "bool"
        }
      ],
      "stateMutability": "view",
      "type": "function"
    },
    {
      "inputs": [
        {
          "internalType": "uint256",
          "name": "expiration_",
          "type": "uint256"
        },
        {
          "internalType": "uint256",
          "name": "tokenId_",
          "type": "uint256"
        },
        {
          "internalType": "uint256",
          "name": "price_",
          "type": "uint256"
        },
        {
          "internalType": "string",
          "name": "assetId_",
          "type": "string"
        },
        {
          "internalType": "string",
          "name": "side_",
          "type": "string"
        }
      ],
      "name": "listOffer",
      "outputs": [],
      "stateMutability": "nonpayable",
      "type": "function"
    },
    {
      "inputs": [],
      "name": "metadataDescriptor",
      "outputs": [
        {
          "internalType": "contract IERC3525MetadataDescriptor",
          "name": "",
          "type": "address"
        }
      ],
      "stateMutability": "view",
      "type": "function"
    },
    {
      "inputs": [
        {
          "internalType": "address",
          "name": "owner_",
          "type": "address"
        },
        {
          "internalType": "uint256",
          "name": "slot_",
          "type": "uint256"
        },
        {
          "internalType": "uint256",
          "name": "value_",
          "type": "uint256"
        },
        {
          "internalType": "string",
          "name": "uuid_",
          "type": "string"
        },
        {
          "internalType": "string",
          "name": "tokenDescription_",
          "type": "string"
        },
        {
          "internalType": "string",
          "name": "tokenImage_",
          "type": "string"
        },
        {
          "internalType": "string",
          "name": "property_",
          "type": "string"
        }
      ],
      "name": "mint",
      "outputs": [
        {
          "internalType": "uint256",
          "name": "",
          "type": "uint256"
        }
      ],
      "stateMutability": "nonpayable",
      "type": "function"
    },
    {
      "inputs": [
        {
          "internalType": "address",
          "name": "owner_",
          "type": "address"
        },
        {
          "internalType": "uint256",
          "name": "expiration_",
          "type": "uint256"
        },
        {
          "internalType": "uint256",
          "name": "tokenId_",
          "type": "uint256"
        },
        {
          "internalType": "uint256",
          "name": "price_",
          "type": "uint256"
        },
        {
          "internalType": "string",
          "name": "assetId_",
          "type": "string"
        },
        {
          "internalType": "string",
          "name": "side_",
          "type": "string"
        }
      ],
      "name": "mktListOffer",
      "outputs": [],
      "stateMutability": "nonpayable",
      "type": "function"
    },
    {
      "inputs": [],
      "name": "name",
      "outputs": [
        {
          "internalType": "string",
          "name": "",
          "type": "string"
        }
      ],
      "stateMutability": "view",
      "type": "function"
    },
    {
      "inputs": [
        {
          "internalType": "address",
          "name": "owner_",
          "type": "address"
        },
        {
          "internalType": "uint256",
          "name": "slot_",
          "type": "uint256"
        },
        {
          "internalType": "uint256",
          "name": "value_",
          "type": "uint256"
        },
        {
          "internalType": "uint256",
          "name": "discountBasisPts_",
          "type": "uint256"
        },
        {
          "internalType": "string",
          "name": "uuid_",
          "type": "string"
        },
        {
          "internalType": "string",
          "name": "tokenDescription_",
          "type": "string"
        },
        {
          "internalType": "string",
          "name": "tokenImage_",
          "type": "string"
        },
        {
          "internalType": "string",
          "name": "property_",
          "type": "string"
        }
      ],
      "name": "networkMintWithDiscount",
      "outputs": [
        {
          "internalType": "uint256",
          "name": "",
          "type": "uint256"
        }
      ],
      "stateMutability": "nonpayable",
      "type": "function"
    },
    {
      "inputs": [
        {
          "internalType": "address",
          "name": "owner_",
          "type": "address"
        },
        {
          "internalType": "uint256",
          "name": "slot_",
          "type": "uint256"
        },
        {
          "internalType": "uint256",
          "name": "value_",
          "type": "uint256"
        },
        {
          "internalType": "uint256",
          "name": "valueRate_",
          "type": "uint256"
        },
        {
          "internalType": "string",
          "name": "uuid_",
          "type": "string"
        },
        {
          "internalType": "string",
          "name": "tokenDescription_",
          "type": "string"
        },
        {
          "internalType": "string",
          "name": "tokenImage_",
          "type": "string"
        },
        {
          "internalType": "string",
          "name": "property_",
          "type": "string"
        }
      ],
      "name": "networkMintWithValueRate",
      "outputs": [
        {
          "internalType": "uint256",
          "name": "",
          "type": "uint256"
        }
      ],
      "stateMutability": "nonpayable",
      "type": "function"
    },
    {
      "inputs": [
        {
          "internalType": "uint256",
          "name": "tokenId_",
          "type": "uint256"
        }
      ],
      "name": "ownerOf",
      "outputs": [
        {
          "internalType": "address",
          "name": "owner_",
          "type": "address"
        }
      ],
      "stateMutability": "view",
      "type": "function"
    },
    {
      "inputs": [
        {
          "internalType": "uint256",
          "name": "slotId_",
          "type": "uint256"
        }
      ],
      "name": "registerOnSlot",
      "outputs": [],
      "stateMutability": "nonpayable",
      "type": "function"
    },
    {
      "inputs": [
        {
          "internalType": "bytes32",
          "name": "role",
          "type": "bytes32"
        },
        {
          "internalType": "address",
          "name": "account",
          "type": "address"
        }
      ],
      "name": "renounceRole",
      "outputs": [],
      "stateMutability": "nonpayable",
      "type": "function"
    },
    {
      "inputs": [
        {
          "internalType": "bytes32",
          "name": "role",
          "type": "bytes32"
        },
        {
          "internalType": "address",
          "name": "account",
          "type": "address"
        }
      ],
      "name": "revokeRole",
      "outputs": [],
      "stateMutability": "nonpayable",
      "type": "function"
    },
    {
      "inputs": [
        {
          "internalType": "address",
          "name": "from_",
          "type": "address"
        },
        {
          "internalType": "address",
          "name": "to_",
          "type": "address"
        },
        {
          "internalType": "uint256",
          "name": "tokenId_",
          "type": "uint256"
        }
      ],
      "name": "safeTransferFrom",
      "outputs": [],
      "stateMutability": "payable",
      "type": "function"
    },
    {
      "inputs": [
        {
          "internalType": "address",
          "name": "from_",
          "type": "address"
        },
        {
          "internalType": "address",
          "name": "to_",
          "type": "address"
        },
        {
          "internalType": "uint256",
          "name": "tokenId_",
          "type": "uint256"
        },
        {
          "internalType": "bytes",
          "name": "data_",
          "type": "bytes"
        }
      ],
      "name": "safeTransferFrom",
      "outputs": [],
      "stateMutability": "payable",
      "type": "function"
    },
    {
      "inputs": [
        {
          "internalType": "address",
          "name": "operator_",
          "type": "address"
        },
        {
          "internalType": "bool",
          "name": "approved_",
          "type": "bool"
        }
      ],
      "name": "setApprovalForAll",
      "outputs": [],
      "stateMutability": "nonpayable",
      "type": "function"
    },
    {
      "inputs": [
        {
          "internalType": "uint256",
          "name": "tokenId_",
          "type": "uint256"
        }
      ],
      "name": "slotOf",
      "outputs": [
        {
          "internalType": "uint256",
          "name": "",
          "type": "uint256"
        }
      ],
      "stateMutability": "view",
      "type": "function"
    },
    {
      "inputs": [
        {
          "internalType": "uint256",
          "name": "slot_",
          "type": "uint256"
        }
      ],
      "name": "slotURI",
      "outputs": [
        {
          "internalType": "string",
          "name": "",
          "type": "string"
        }
      ],
      "stateMutability": "view",
      "type": "function"
    },
    {
      "inputs": [
        {
          "internalType": "bytes4",
          "name": "interfaceId",
          "type": "bytes4"
        }
      ],
      "name": "supportsInterface",
      "outputs": [
        {
          "internalType": "bool",
          "name": "",
          "type": "bool"
        }
      ],
      "stateMutability": "view",
      "type": "function"
    },
    {
      "inputs": [],
      "name": "symbol",
      "outputs": [
        {
          "internalType": "string",
          "name": "",
          "type": "string"
        }
      ],
      "stateMutability": "view",
      "type": "function"
    },
    {
      "inputs": [
        {
          "internalType": "uint256",
          "name": "index_",
          "type": "uint256"
        }
      ],
      "name": "tokenByIndex",
      "outputs": [
        {
          "internalType": "uint256",
          "name": "",
          "type": "uint256"
        }
      ],
      "stateMutability": "view",
      "type": "function"
    },
    {
      "inputs": [
        {
          "internalType": "address",
          "name": "owner_",
          "type": "address"
        },
        {
          "internalType": "uint256",
          "name": "index_",
          "type": "uint256"
        }
      ],
      "name": "tokenOfOwnerByIndex",
      "outputs": [
        {
          "internalType": "uint256",
          "name": "",
          "type": "uint256"
        }
      ],
      "stateMutability": "view",
      "type": "function"
    },
    {
      "inputs": [
        {
          "internalType": "uint256",
          "name": "tokenId_",
          "type": "uint256"
        }
      ],
      "name": "tokenURI",
      "outputs": [
        {
          "internalType": "string",
          "name": "",
          "type": "string"
        }
      ],
      "stateMutability": "view",
      "type": "function"
    },
    {
      "inputs": [],
      "name": "totalSupply",
      "outputs": [
        {
          "internalType": "uint256",
          "name": "",
          "type": "uint256"
        }
      ],
      "stateMutability": "view",
      "type": "function"
    },
    {
      "inputs": [
        {
          "internalType": "uint256",
          "name": "fromTokenId_",
          "type": "uint256"
        },
        {
          "internalType": "address",
          "name": "to_",
          "type": "address"
        },
        {
          "internalType": "uint256",
          "name": "value_",
          "type": "uint256"
        }
      ],
      "name": "transferFrom",
      "outputs": [
        {
          "internalType": "uint256",
          "name": "",
          "type": "uint256"
        }
      ],
      "stateMutability": "payable",
      "type": "function"
    },
    {
      "inputs": [
        {
          "internalType": "address",
          "name": "from_",
          "type": "address"
        },
        {
          "internalType": "address",
          "name": "to_",
          "type": "address"
        },
        {
          "internalType": "uint256",
          "name": "tokenId_",
          "type": "uint256"
        }
      ],
      "name": "transferFrom",
      "outputs": [],
      "stateMutability": "payable",
      "type": "function"
    },
    {
      "inputs": [
        {
          "internalType": "uint256",
          "name": "fromTokenId_",
          "type": "uint256"
        },
        {
          "internalType": "uint256",
          "name": "toTokenId_",
          "type": "uint256"
        },
        {
          "internalType": "uint256",
          "name": "value_",
          "type": "uint256"
        }
      ],
      "name": "transferFrom",
      "outputs": [],
      "stateMutability": "payable",
      "type": "function"
    },
    {
      "inputs": [
        {
          "internalType": "string",
          "name": "assetId_",
          "type": "string"
        },
        {
          "internalType": "string",
          "name": "side_",
          "type": "string"
        }
      ],
      "name": "validOffers",
      "outputs": [
        {
          "components": [
            {
              "internalType": "uint256",
              "name": "offerId",
              "type": "uint256"
            },
            {
              "internalType": "address",
              "name": "owner",
              "type": "address"
            },
            {
              "internalType": "string",
              "name": "side",
              "type": "string"
            },
            {
              "internalType": "uint256",
              "name": "price",
              "type": "uint256"
            },
            {
              "internalType": "uint256",
              "name": "tokenId",
              "type": "uint256"
            },
            {
              "internalType": "uint256",
              "name": "expiration",
              "type": "uint256"
            }
          ],
          "internalType": "struct Service.Offer[]",
          "name": "",
          "type": "tuple[]"
        }
      ],
      "stateMutability": "view",
      "type": "function"
    },
    {
      "inputs": [],
      "name": "valueContractAddress",
      "outputs": [
        {
          "internalType": "address",
          "name": "",
          "type": "address"
        }
      ],
      "stateMutability": "view",
      "type": "function"
    },
    {
      "inputs": [],
      "name": "valueDecimals",
      "outputs": [
        {
          "internalType": "uint8",
          "name": "",
          "type": "uint8"
        }
      ],
      "stateMutability": "view",
      "type": "function"
    }
  ],
  "bytecode": "0x60c08060405234620008dc576000608052620078b1803803809162000025828562000913565b833981016101a0828203126200065a57620000408262000937565b506200004f6020830162000937565b916200005e6040820162000937565b916200006d6060830162000937565b6200007b6080840162000937565b6200008960a0850162000937565b9060c08501519260e086015160018060401b0381116200065a5785620000b191880162000971565b6101008701519093906001600160401b0381116200065a5786620000d791890162000971565b6101208801516001600160401b0381116200065a5787620000fa918a0162000971565b6101408901519097906001600160401b0381116200065a578162000120918b0162000971565b60a0526101608901516001600160401b0381116200065a576101809162000149918b0162000971565b98015160ff811681036200065a57604051956200016687620008e1565b60088752677072696f7269747960c01b602088015280516001600160401b0381116200060457608051805490600182811c92168015620008d1575b6020831014620007e75750601f811162000885575b5060805191602092601f83116001146200081557506080519283918362000809575b50508160011b916000199060031b1c19161790555b81516001600160401b0381116200060457600154608051600182811c92168015620007fe575b6020831014620007e75750601f81116200079a575b50608051602090601f8311600114620007235750819060ff946080519262000717575b50508160011b916000199060031b1c1916176001555b6002805460ff191692909116919091179055600b80546001600160a01b03199081166001600160a01b0393841617909155600c869055600a805482168b8416179055600d805482168a8416179055600e805490911692909116919091179055601054604051835191939160208083019291620002f791908390620002e98187858a016200094c565b810103808452018262000913565b51902060405160208101906374696d6560e01b8252600481526200031b81620008e1565b51902003620006605750608051915b600483101562000642576001600160a81b0319166001600160a01b039182161760a092831b60ff60a01b1617601081905590911c60ff169085163b156200065a57604051916394b39b0960e01b835260018060a01b0387166004840152602483015260048110156200064257604482015260805181606481836001600160a01b0389165af1801562000635576200061c575b50604051916001600160401b036120b784019081119084111762000604576200041b6200040262000432936120b7620057da873960806120b787018181520190620009cc565b6120b78501810360206120b78701015260a051620009cc565b906120b78401820360406120b786010152620009cc565b6001600160a01b039092166120b7820160600152608051918190039082f0908115620005f8575060018060a01b031660018060a01b0319600854161760085560018060a01b03600b54167f1cd6d520d98babae1045eb69c31ecab800996aa332094cb55c0ac10362e9b0c99081608051526009602052608051604081208260005260205260ff6040600020541615620005b4575b5050507f9a95e87c5af084bf5db8491c3a6515da9dd6da39b24b0eb0af08d7b9cd808d91806080515260096020526080516040812060018060a01b03841660005260205260ff60406000205416156200055f575b7f9ac4f8025631594629895b778dc5ee88d01673a254a2291f6b6b174ad25230ca602060018060a01b0360085416604051908152a1604051614de69081620009f48239f35b8190526009602052608051906040822060018060a01b0384166000526020526040600020600160ff1982541617905560008051602062007891833981519152339360018060a01b03169280a43880806200051a565b82905260096020526080519160408320826000526020526040600020600160ff1982541617905560008051602062007891833981519152339380a4388080620004c6565b604051903d90823e3d90fd5b634e487b7160e01b6080515260416004526024608051fd5b6001600160401b038111620006045760405238620003bc565b6040513d608051823e3d90fd5b634e487b7160e01b6080515260216004526024608051fd5b60805180fd5b6040516020810190620006806020828551620002e98187858a016200094c565b5190206040516020810190630c6c2e6d60e31b825260048152620006a481620008e1565b51902003620006b8575060015b916200032a565b604051620006d860208281620002e981830196878151938492016200094c565b519020604051602081019065636f756e747360d01b825260068152620006fe81620008e1565b519020036200070f576002620006b1565b6003620006b1565b0151905038806200024b565b60019094929394526080519160208320925b601f198516811062000781575091839160019360ff9695601f1981161062000767575b505050811b0160015562000261565b015160001960f88460031b161c1916905538808062000758565b9192602060018192868501518155019401920162000735565b60016080515260805160208120601f840160051c810160208510620007df575b601f840160051c82018110620007d35750505062000228565b828155600101620007ba565b5080620007ba565b634e487b7160e01b90526022600452608051602490fd5b91607f169162000213565b015190503880620001d8565b80526080516020812090938493925b601f198416851062000869576001945083601f198116106200084f575b505050811b019055620001ed565b015160001960f88460031b161c1916905538808062000841565b8181015183556020948501946001909301929091019062000824565b608051805260805160208120601f840160051c810160208510620008c9575b601f840160051c82018110620008bd57505050620001b6565b828155600101620008a4565b5080620008a4565b91607f1691620001a1565b600080fd5b604081019081106001600160401b03821117620008fd57604052565b634e487b7160e01b600052604160045260246000fd5b601f909101601f19168101906001600160401b03821190821017620008fd57604052565b51906001600160a01b0382168203620008dc57565b60005b838110620009605750506000910152565b81810151838201526020016200094f565b81601f82011215620008dc5780516001600160401b038111620008fd5760405192620009a8601f8301601f19166020018562000913565b81845260208284010111620008dc57620009c991602080850191016200094c565b90565b90602091620009e7815180928185528580860191016200094c565b601f01601f191601019056fe608080604052600436101561001357600080fd5b600090813560e01c90816301ffc9a7146125d35750806303e209531461241557806306fdde0314612372578063081812fc14612353578063095ea7b31461221857806309c3dd8714611f445780630f485c0214611f035780631375d84314611e9d5780631429fb5714611e0257806318160ddd14611de457806323b872dd14611dbf5780632425eeaf14611a68578063248a9ca314611a3b578063263f3e7e14611a1c5780632f2ff15d146119695780632f745c59146118c0578063310ed7f0146117d657806331b5b9071461174c57806336568abe146116b95780633e7e8669146116985780633f5d70671461146f57806341815ee41461137457806342842e0e146113515780634f6ccce7146112cc578063505a3853146112ae57806353a3a3001461112d5780636352211e146110fc57806370a08231146110d857806371f0442e146110725780637795524514611049578063840f7113146110205780638cb0a51114610ede57806391d1485414610e9257806395d89b4114610db35780639cc7f70814610d94578063a217fddf14610d78578063a22cb46514610ca3578063a74cfaa014610c08578063a7c9f2d614610bcd578063aa20ce5514610921578063b198fc54146108f8578063b3154c0814610892578063b88d4fde14610833578063be950a62146106ea578063c87b56dd14610655578063cf2d6fe6146103e6578063d09445c2146103ab578063d547741f1461036a578063e345e0bc1461033b578063e8a3d485146102ab5763e985e9c51461025257600080fd5b346102a85760403660031901126102a85761026b612628565b6002604061027761263e565b9360018060a01b038094168152600760205220019116600052602052602060ff604060002054166040519015158152f35b80fd5b50346102a857806003193601126102a857600854604051631c97e82760e21b8152908290829060049082906001600160a01b03165afa9081156103305782610309939261030d575b5050604051918291602083526020830190612800565b0390f35b61032992503d8091833e61032181836126b8565b810190612d91565b38806102f3565b6040513d84823e3d90fd5b50346102a85760403660031901126102a857602061036261035a61263e565b600435614cc5565b604051908152f35b50346102a85760403660031901126102a8576103a860043561038a61263e565b9080845260096020526103a36001604086200154612884565b612ba5565b80f35b50346102a857806003193601126102a85760206040517f9a95e87c5af084bf5db8491c3a6515da9dd6da39b24b0eb0af08d7b9cd808d918152f35b50346102a85760c03660031901126102a857610400612628565b6064356001600160401b036084358181116106515761042390369060040161272b565b9060a43581811161064d5761043c90369060040161272b565b93600f549461044a86613421565b600f5583516020809501209283885260139283865260408920888a5286526001908160408b20019060018060a01b03166001600160601b0360a01b82541617905584895283865260408920888a5286528760408a205584895283865260408920888a528652600260408a2001928051928311610639576104ca8454612c4f565b601f8111610600575b5086908a601f8511600114610586579360409997959381938293600080516020614d918339815191529d9b99979461057b575b50501b916000199060031b1c19161790555b81885280835285882085895283526024356005878a20015581885280835285882085895283526044356004878a20015581885282528487208488528252826003868920015586526014815261056f838588206132a7565b8351928352820152a180f35b015192503880610506565b50848b52878b209293929190601f1984168c5b8181106105eb575091600080516020614d918339815191529b99979593918560409c9a989694106105d2575b505050811b019055610518565b015160001960f88460031b161c191690553880806105c5565b82840151855593860193928a01928a01610599565b61062990858c52888c20601f860160051c8101918a871061062f575b601f0160051c0190613430565b386104d3565b909150819061061c565b634e487b7160e01b8a52604160045260248afd5b8580fd5b8480fd5b50346102a85760203660031901126102a85760043561067381614a48565b80156106d6575b61068390612fa6565b6008546040516344a5a61760e11b815260048101929092528290829060249082906001600160a01b03165afa9081156103305782610309939261030d575050604051918291602083526020830190612800565b506106836106e382614a76565b905061067a565b50346102a85760203660031901126102a8577f9a95e87c5af084bf5db8491c3a6515da9dd6da39b24b0eb0af08d7b9cd808d9181526009602052604081203360005260205260ff60406000205416156107c85760018060a01b039081600d541691600a541660ff60105460a01c16833b156107c457604051916394b39b0960e01b83526004830152600435602483015260048110156107b05781606481858097819560448401525af18015610330576107a05750f35b6107a990612654565b6102a85780f35b634e487b7160e01b83526021600452602483fd5b8280fd5b60405162461bcd60e51b815260206004820152603760248201527f53656e646572206e6f7420617574686f72697a656420746f207265676973746560448201527f7220636f6e747261637420746f207468697320736c6f740000000000000000006064820152608490fd5b5060803660031901126102a857610848612628565b61085061263e565b606435916001600160401b03831161088e573660238401121561088e576108846103a89336906024816004013591016126f4565b9160443591612ecf565b8380fd5b50346102a85760203660031901126102a857600854604051631662a98160e31b81526004803590820152908290829060249082906001600160a01b03165afa9081156103305782610309939261030d575050604051918291602083526020830190612800565b50346102a857806003193601126102a8576010546040516001600160a01b039091168152602090f35b50346102a85760208161093336612749565b6003805460010190819055600e54604051630151086360e31b81526001600160a01b039a8b166004820152602481019990995260448901979097526064880195909552939893969095919492939192839160849183918b91165af1908115610bc2578691610b88575b50868652601160205260408620556008546001600160a01b0316803b1561064d576109ef8692918392604051948580948193632108947560e21b83528d6004840152604060248401526044830190612800565b03925af1908115610b7d578591610b69575b50506008546001600160a01b0316803b1561065157610a48859291839260405194858094819363246a908b60e01b83528c6004840152604060248401526044830190612800565b03925af1908115610b5e578491610b4a575b50506008546001600160a01b0316803b1561088e57610aa18492918392604051948580948193630190503b60e61b83528b6004840152604060248401526044830190612800565b03925af1908115610b2b578391610b36575b50506008546001600160a01b031690813b156107c4578291610af991604051948580948193637e468a5160e01b8352896004840152604060248401526044830190612800565b03925af18015610b2b57610b13575b602082604051908152f35b610b1d8391612654565b610b275781610b08565b5080fd5b6040513d85823e3d90fd5b610b3f90612654565b610b27578138610ab3565b610b5390612654565b6107c4578238610a5a565b6040513d86823e3d90fd5b610b7290612654565b61088e578338610a01565b6040513d87823e3d90fd5b9550506020853d602011610bba575b81610ba4602093836126b8565b81010312610bb5578694513861099c565b600080fd5b3d9150610b97565b6040513d88823e3d90fd5b50346102a857806003193601126102a85760206040517f1cd6d520d98babae1045eb69c31ecab800996aa332094cb55c0ac10362e9b0c98152f35b50346102a85760c03660031901126102a857610c22612628565b906001600160401b036044358181116107c457610c4390369060040161272b565b60643582811161088e57610c5b90369060040161272b565b9160843581811161065157610c7490369060040161272b565b9360a4359182116102a857602061036287878787610c953660048a0161272b565b936005549060243590613650565b50346102a85760403660031901126102a857610cbd612628565b602435908115158092036107c4576001600160a01b031690338214610d335733835260076020526002604084200182600052602052604060002060ff1981541660ff83161790556040519081527f17307eab39ab6107e8899845ad3d59bd9653f200f220920489ca2b5937696c3160203392a380f35b60405162461bcd60e51b815260206004820152601a60248201527f455243333532353a20617070726f766520746f2063616c6c65720000000000006044820152606490fd5b50346102a857806003193601126102a857602090604051908152f35b50346102a85760203660031901126102a8576020610362600435614b2f565b50346102a857806003193601126102a85760405160006001805490610dd782612c4f565b80855291818116908115610e6b5750600114610e12575b61030984610dfe818603826126b8565b604051918291602083526020830190612800565b600081815292507fb10e2d527612073b26eecdfd717e6a320cf44b4afac2b0732d9fcbe2b7fa0cf65b828410610e53575050508101602001610dfe82610dee565b80546020858701810191909152909301928101610e3b565b60ff191660208087019190915292151560051b85019092019250610dfe9150839050610dee565b50346102a85760403660031901126102a8576040610eae61263e565b9160043581526009602052209060018060a01b0316600052602052602060ff604060002054166040519015158152f35b50610ee836612825565b90610ef283614aec565b83610efc84614a48565b8061100d575b15610f9f5750610f286001600160a01b0380610f1d86612ff2565b169083161415612f4f565b610f3283336130aa565b15610f40576103a8926142c1565b60405162461bcd60e51b815260206004820152603160248201527f455243333532353a20617070726f76652063616c6c6572206973206e6f74206f6044820152701ddb995c881b9bdc88185c1c1c9bdd9959607a1b6064820152608490fd5b600e54938152601160205260408120549093919290916001600160a01b0316803b1561065157604051638cb0a51160e01b815260048101939093526001600160a01b0393909316602483015260448201529082908290606490829084905af18015610330576107a057505080f35b5061101784612d6a565b600c5414610f02565b50346102a857806003193601126102a8576008546040516001600160a01b039091168152602090f35b50346102a857806003193601126102a857600a546040516001600160a01b039091168152602090f35b50346102a85760203660031901126102a8576008546040516338f8221760e11b81526004803590820152908290829060249082906001600160a01b03165afa9081156103305782610309939261030d575050604051918291602083526020830190612800565b50346102a85760203660031901126102a85760206103626110f7612628565b612def565b50346102a85760203660031901126102a857602061111b600435614be1565b6040516001600160a01b039091168152f35b50346102a857602080600319360112610b2757600554906004358215611269578061115a6111689261305b565b929054600393841b1c613af3565b838110611173578480f35b60019081810180821161125557858110611198575b506111939150613421565b611168565b6111a18161305b565b905490851b1c906111b182612ff2565b506111bb82612d6a565b50816000526006865260026111d4604060002054612d2f565b50019081549285840180941161123f576000600080516020614d5183398151915289611193986112399761120f9755604051908152a361305b565b905490851b1c61121e8361305b565b90919082549060031b600019811b9283911b16911916179055565b38611188565b634e487b7160e01b600052601160045260246000fd5b634e487b7160e01b87526011600452602487fd5b60405162461bcd60e51b815260048101839052601a60248201527f4f726465724372656469743a204c69737420697320656d7074790000000000006044820152606490fd5b50346102a857806003193601126102a8576020600c54604051908152f35b50346102a85760203660031901126102a857600435600554811015611300576112f6602091612d2f565b5054604051908152f35b60405162461bcd60e51b815260206004820152602360248201527f455243333532353a20676c6f62616c20696e646578206f7574206f6620626f756044820152626e647360e81b6064820152608490fd5b506103a861135e3661284f565b906040519261136c8461269d565b858452612ecf565b50346102a857806003193601126102a85760ff60105460a01c16600481101561145b57600381036113d95750506103096040516113b081612682565b60088152677072696f7269747960c01b6020820152604051918291602083526020830190612800565b806114055750506103096040516113ef81612682565b600481526374696d6560e01b6020820152610dfe565b6002141590506114365761030960405161141e81612682565b6006815265636f756e747360d01b6020820152610dfe565b61030960405161144581612682565b60048152630c6c2e6d60e31b6020820152610dfe565b634e487b7160e01b82526021600452602482fd5b50346102a85760a03660031901126102a8576001600160401b0360443560643582811161088e576114a490369060040161272b565b608435838111610651576114bc90369060040161272b565b600f54936114c985613421565b600f5582516020809401209182875260139182855260408820878952855260018060408a2001336001600160601b0360a01b82541617905584895283865260408920888a5286528760408a205584895283865260408920888a528652600260408a2001928051928311610639576115408454612c4f565b601f811161166a575b5086908a601f85116001146115f0579360409997959381938293600080516020614d918339815191529d9b9997946115e5575b50501b916000199060031b1c19161790555b81885280835285882085895283526004356005878a20015581885280835285882085895283526024356004878a20015581885282528487208488528252826003868920015586526014815261056f838588206132a7565b01519250388061157c565b50848b52878b209293929190601f1984168c5b818110611655575091600080516020614d918339815191529b99979593918560409c9a9896941061163c575b505050811b01905561158e565b015160001960f88460031b161c1916905538808061162f565b82840151855593860193928a01928a01611603565b61169290858c52888c20601f860160051c8101918a871061062f57601f0160051c0190613430565b38611549565b50346102a857806003193601126102a857602060ff60025416604051908152f35b50346102a85760403660031901126102a8576116d361263e565b336001600160a01b038216036116ef576103a890600435612ba5565b60405162461bcd60e51b815260206004820152602f60248201527f416363657373436f6e74726f6c3a2063616e206f6e6c792072656e6f756e636560448201526e103937b632b9903337b91039b2b63360891b6064820152608490fd5b50346102a85760203660031901126102a857806004356001600160401b0381116117d35761177e90369060040161272b565b6008546001600160a01b0316803b156117cf576040516355f804b360e01b81526020600482015291839183918290849082906117be906024830190612800565b03925af18015610330576107a05750f35b5050fd5b50fd5b5060603660031901126102a8576044356024356004356117ff6117f882614b2f565b8414613e05565b61180882614b2f565b9161181281614aec565b808552600660205260026118296040872054612d2f565b50019384549084821061186f576103a8956118478661186a94613331565b90558683600080516020614d518339815191526020604051898152a38284614889565b614889565b60405162461bcd60e51b815260206004820152602360248201527f455243333532353a206275726e2076616c756520657863656564732062616c616044820152626e636560e81b6064820152608490fd5b50346102a85760403660031901126102a8576118da612628565b906024356118e783612def565b81101561191957604061190b9260209460018060a01b031681526007855220613092565b90546040519160031b1c8152f35b60405162461bcd60e51b815260206004820152602260248201527f455243333532353a206f776e657220696e646578206f7574206f6620626f756e604482015261647360f01b6064820152608490fd5b50346102a85760403660031901126102a85760043561198661263e565b818352600960205261199e6001604085200154612884565b8183526009602052604083209060018060a01b0316908160005260205260ff60406000205416156119cd578280f35b818352600960205260408320816000526020526040600020600160ff1982541617905533917f2f8788117e7eff1d82e926ec794901d17c78024a50270940304540a733656f0d8480a438808280f35b50346102a85760203660031901126102a8576020610362600435612d6a565b50346102a85760203660031901126102a85760016040602092600435815260098452200154604051908152f35b50346102a85760403660031901126102a8576001600160401b036004358181116107c457611a9a90369060040161272b565b906024359081116107c457611ab390369060040161272b565b9080516020809201209182845260148252604084206040519081848254918281520191875284872090875b818110611dab5750505081611af49103826126b8565b849282810191845b8151811015611bba578688526013835260408820611b1a8284614cb1565b518952835260a060408920604051611b3181612667565b81548152600180841b03600183015416868201526005611b5360028401612c89565b9283604084015260038101546060840152600481015460808401520154928391015284815191012086518620149081611bb0575b50611b9b575b611b9690613421565b611afc565b94611ba8611b9691613421565b959050611b8d565b9050421038611b87565b5092939193611bc883613e6a565b92611bd660405194856126b8565b808452611be5601f1991613e6a565b0182885b828110611d71575050508693875b8151811015611cd0578789526013845260408920611c158284614cb1565b518a5284526040892060405190611c2b82612667565b8054825260018101546001600160a01b0316868301526005611c4f60028301612c89565b9182604085015260038101546060850152600481015460808501520154908160a084015286815191012085518a20149081611cc6575b50611c9a575b50611c9590613421565b611bf7565b9590611cbf82611cad611c959491613421565b98611cb8828a614cb1565b5287614cb1565b5090611c8b565b9050421038611c85565b83898660405191838301848452825180915260408401948060408360051b870101940192955b828710611d035785850386f35b909192938280600192603f1989820301855287519081518152848060a01b03838301511683820152611d43604083015160c0806040850152830190612800565b91606080820151908301526080808201519083015260a0809101519101529601920196019592919092611cf6565b604051611d7d81612667565b8a81528a838201528a60608060408401528201528a60808201528a60a0820152828288010152018390611be9565b825484529286019260019283019201611ade565b506103a8611dcc3661284f565b91611ddf611dda84336130aa565b612e68565b61311b565b50346102a857806003193601126102a8576020600554604051908152f35b50346102a85760e03660031901126102a857611e1c612628565b906001600160401b036064358181116107c457611e3d90369060040161272b565b60843582811161088e57611e5590369060040161272b565b9160a43581811161065157611e6e90369060040161272b565b9360c4359182116102a857602061036287878787611e8f3660048a0161272b565b936044359060243590613650565b50346102a85760203660031901126102a857600854604051631375d84360e01b81526004803590820152908290829060249082906001600160a01b03165afa9081156103305782610309939261030d575050604051918291602083526020830190612800565b602061121e610362611f37611f3f611f1a36612825565b829491611f31611f2a8395614b2f565b8314613e05565b85613e81565b94859161305b565b613af3565b50346102a857602090816003193601126102a85760043560018060a01b036008541690604051636c0360eb60e01b81528381600481865afa908115610b5e5784916121fe575b508215611ffb57508290602460405180948193633601bfc560e11b835260048301525afa918215611fef578092611fd4575b5050905b610309604051928284938452830190612800565b611fe892503d8091833e61032181836126b8565b3880611fbc565b604051903d90823e3d90fd5b805190939250156121c3578190807a184f03e93ff9f4daa797ed6e38ed64bf6a1f01000000000000000081818110156121b5575b5050856d04ee2d6d415b85acef8100000000808410156121a7575b5050662386f26fc1000080831015612198575b506305f5e10080831015612189575b506127108083101561217a575b50606482101561216a575b600a80921015612160575b600190816021818601956120bb6120a5886126d9565b976120b3604051998a6126b8565b8089526126d9565b878b019890601f1901368a3750860101905b61212a575b50505050612115926121249260259260405195836120f988955180928b80890191016127dd565b84019164736c6f742f60d81b89840152518093868401906127dd565b010360058101845201826126b8565b90611fc0565b600019019083906f181899199a1a9b1b9c1cb0b131b232b360811b8282061a83530491821561215b579190826120cd565b6120d2565b916001019161208f565b9190606460029104910191612084565b60049193920491019138612079565b6008919392049101913861206c565b6010919392049101913861205d565b93019290910490853861204a565b60409450049150388061202f565b5060405191508282016001600160401b038111838210176121e8576040528152612124565b634e487b7160e01b600052604160045260246000fd5b61221291503d8086833e61032181836126b8565b38611f8a565b5060403660031901126102a85761222d612628565b602435906001600160a01b03808061224485612ff2565b1692169161225481841415612f4f565b80331490811561232d575b50156122c257826000526006602052600461227e604060002054612d2f565b500180546001600160a01b0319168317905561229983612ff2565b167f8c5be1e5ebec7d5bd14f71427d1e84f3dd0314c0f7b2291e5b200ac8c7c3b925600080a480f35b60405162461bcd60e51b815260206004820152603960248201527f455243333532353a20617070726f76652063616c6c6572206973206e6f74206f60448201527f776e6572206e6f7220617070726f76656420666f7220616c6c000000000000006064820152608490fd5b905084526007602052600260408520013360005260205260ff604060002054163861225f565b50346102a85760203660031901126102a857602061111b60043561302b565b50346102a857806003193601126102a8576040516000805461239381612c4f565b80845290600190818116908115610e6b57506001146123bc5761030984610dfe818603826126b8565b600080805292507f290decd9548b62a8d60345a988386fc84ba6bc95484008f6362f93160ef3e5635b8284106123fd575050508101602001610dfe82610dee565b805460208587018101919091529093019281016123e5565b50346102a85761242436612749565b95919360ff600298929698541660018060a01b03600e541692604d82116125bf5781600a0a156125ab57604051630bbed13160e21b81526001600160a01b0391909116600482015260248101949094526044840198909852600a9790970a9096046064820152948691906020908790608490829086905af1958615610330578296612577575b5060016003540195866003558683526011602052604083205560018060a01b036008541690813b156107c457829161250691604051948580948193632108947560e21b83528c6004840152604060248401526044830190612800565b03925af18015610bc257612560575b5060085485939291906001600160a01b0316803b1561065157610a48859291839260405194858094819363246a908b60e01b83528c6004840152604060248401526044830190612800565b61256e909591939295612654565b93909138612515565b9095506020813d6020116125a3575b81612593602093836126b8565b81010312610b27575194386124aa565b3d9150612586565b634e487b7160e01b8b52601260045260248bfd5b634e487b7160e01b8b52601160045260248bfd5b905034610b27576020366003190112610b275760043563ffffffff60e01b81168091036107c45760209250637965db0b60e01b8114908115612617575b5015158152f35b6301ffc9a760e01b14905038612610565b600435906001600160a01b0382168203610bb557565b602435906001600160a01b0382168203610bb557565b6001600160401b0381116121e857604052565b60c081019081106001600160401b038211176121e857604052565b604081019081106001600160401b038211176121e857604052565b602081019081106001600160401b038211176121e857604052565b90601f801991011681019081106001600160401b038211176121e857604052565b6001600160401b0381116121e857601f01601f191660200190565b929192612700826126d9565b9161270e60405193846126b8565b829481845281830111610bb5578281602093846000960137010152565b9080601f83011215610bb557816020612746933591016126f4565b90565b610100600319820112610bb5576004356001600160a01b0381168103610bb557916024359160443591606435916001600160401b0390608435828111610bb557816127969160040161272b565b9260a435838111610bb557826127ae9160040161272b565b9260c435818111610bb557836127c69160040161272b565b9260e435918211610bb5576127469160040161272b565b60005b8381106127f05750506000910152565b81810151838201526020016127e0565b90602091612819815180928185528580860191016127dd565b601f01601f1916010190565b6060906003190112610bb557600435906024356001600160a01b0381168103610bb5579060443590565b6060906003190112610bb5576001600160a01b03906004358281168103610bb557916024359081168103610bb5579060443590565b60009080825260209060098252604092838120338252835260ff8482205416156128ae5750505050565b8351916001600160401b0390336060850183811186821017612b91578752602a85528585019187368437855115612b7d5760308353855191600192831015612b69576078602188015360295b838111612b135750612ad15790875193608085019085821090821117612abd57885260428452868401946060368737845115612aa957603086538451821015612aa95790607860218601536041915b818311612a3b575050506129f9576129f59386936129d9936129ca6048946129a19a519a8b957f416363657373436f6e74726f6c3a206163636f756e74200000000000000000008c88015251809260378801906127dd565b8401917001034b99036b4b9b9b4b733903937b6329607d1b6037840152518093868401906127dd565b010360288101875201856126b8565b5192839262461bcd60e51b845260048401526024830190612800565b0390fd5b60648587519062461bcd60e51b825280600483015260248201527f537472696e67733a20686578206c656e67746820696e73756666696369656e746044820152fd5b909192600f81166010811015612a95576f181899199a1a9b1b9c1cb0b131b232b360811b901a612a6b8588612c28565b5360041c928015612a8157600019019190612949565b634e487b7160e01b82526011600452602482fd5b634e487b7160e01b83526032600452602483fd5b634e487b7160e01b81526032600452602490fd5b634e487b7160e01b86526041600452602486fd5b60648789519062461bcd60e51b825280600483015260248201527f537472696e67733a20686578206c656e67746820696e73756666696369656e746044820152fd5b90600f81166010811015612b55576f181899199a1a9b1b9c1cb0b131b232b360811b901a612b41838a612c28565b5360041c90801561125557600019016128fa565b634e487b7160e01b88526032600452602488fd5b634e487b7160e01b86526032600452602486fd5b634e487b7160e01b85526032600452602485fd5b634e487b7160e01b85526041600452602485fd5b906000918083526009602052604083209160018060a01b03169182845260205260ff604084205416612bd657505050565b8083526009602052604083208284526020526040832060ff1981541690557ff6391f5c32d9c69d2a47ea670b442974b53935d1edc7fd64eb21e047a839171b339380a4565b9190820180921161123f57565b908151811015612c39570160200190565b634e487b7160e01b600052603260045260246000fd5b90600182811c92168015612c7f575b6020831014612c6957565b634e487b7160e01b600052602260045260246000fd5b91607f1691612c5e565b9060405191826000825492612c9d84612c4f565b908184526001948581169081600014612d0c5750600114612cc9575b5050612cc7925003836126b8565b565b9093915060005260209081600020936000915b818310612cf4575050612cc793508201013880612cb9565b85548884018501529485019487945091830191612cdc565b915050612cc794506020925060ff191682840152151560051b8201013880612cb9565b600554811015612c39576006906005600052027f036b6384b5eca791c62761152d0c79bb0604c104a5fb6f4eb0703f3154bb3db00190600090565b612d7381614aec565b60005260066020526001612d8b604060002054612d2f565b50015490565b602081830312610bb5578051906001600160401b038211610bb5570181601f82011215610bb5578051612dc3816126d9565b92612dd160405194856126b8565b81845260208284010111610bb55761274691602080850191016127dd565b6001600160a01b03168015612e0f57600052600760205260406000205490565b60405162461bcd60e51b815260206004820152602b60248201527f455243333532353a2062616c616e636520717565727920666f7220746865207a60448201526a65726f206164647265737360a81b6064820152608490fd5b15612e6f57565b60405162461bcd60e51b815260206004820152603260248201527f455243333532353a207472616e736665722063616c6c6572206973206e6f74206044820152711bdddb995c881b9bdc88185c1c1c9bdd995960721b6064820152608490fd5b90612ef3939291612ee3611dda84336130aa565b612eee83838361311b565b61352f565b15612efa57565b60405162461bcd60e51b815260206004820152602760248201527f455243333532353a207472616e7366657220746f206e6f6e204552433732315260448201526632b1b2b4bb32b960c91b6064820152608490fd5b15612f5657565b60405162461bcd60e51b815260206004820152602260248201527f455243333532353a20617070726f76616c20746f2063757272656e74206f776e60448201526132b960f11b6064820152608490fd5b15612fad57565b60405162461bcd60e51b815260206004820152601960248201527f455243333532353a20696e76616c696420746f6b656e204944000000000000006044820152606490fd5b612ffb81614aec565b6000526006602052613011604060002054612d2f565b50600301546001600160a01b031690612cc7821515612fa6565b61303481614aec565b600052600660205261304a604060002054612d2f565b50600401546001600160a01b031690565b601554811015612c395760156000527f55f448fdea98c4d29eb340757ef0a66cd03dbb9538908a6a81d96026b71ec4750190600090565b8054821015612c395760005260206000200190600090565b906001600160a01b0380806130be84612ff2565b169316918383149384156130f1575b5083156130db575b50505090565b6130e79192935061302b565b16143880806130d5565b909350600052600760205260026040600020018260005260205260ff6040600020541692386130cd565b61312483612ff2565b6001600160a01b0380831692918116839003613235578084169384156131e257856131de916131d982600080516020614d718339815191529661316682612d6a565b5061317082613286565b5081600080988282526006602052600461318d6040842054612d2f565b500180546001600160a01b03191690556131a683612ff2565b167f8c5be1e5ebec7d5bd14f71427d1e84f3dd0314c0f7b2291e5b200ac8c7c3b9258280a46131d482613447565b61333e565b6132ca565b80a4565b60405162461bcd60e51b815260206004820152602560248201527f455243333532353a207472616e7366657220746f20746865207a65726f206164604482015264647265737360d81b6064820152608490fd5b60405162461bcd60e51b8152602060048201526024808201527f455243333532353a207472616e736665722066726f6d20696e76616c6964206f6044820152633bb732b960e11b6064820152608490fd5b61328f81614aec565b60005260066020526002612d8b604060002054612d2f565b90815491600160401b8310156121e8578261121e916001612cc795018155613092565b906040612cc792600090838252600660205260036132ea84842054612d2f565b500180546001600160a01b0319166001600160a01b0390921691821790558082526007602081815284842080548786526001919091018252858520559183529052206132a7565b9190820391821161123f57565b600090828252600660205260036133586040842054612d2f565b500180546001600160a01b03191690556001600160a01b031681526007602052604081208054600019939192919084810190811161340d5761339a9084613092565b90549060031b1c60018401828452806020526040842054916133c08161121e8589613092565b84526020526040832055815280604081205581549081156133f957508201916133e98383613092565b909182549160031b1b1916905555565b634e487b7160e01b81526031600452602490fd5b634e487b7160e01b83526011600452602483fd5b600019811461123f5760010190565b81811061343b575050565b60008155600101613430565b6000818152602060068152604092600561346385852054612d2f565b500193845491845b8381106134a1575050505082549180845582613488575b50505050565b6134989381522090810190613430565b38808080613482565b806134af6134da9289613092565b90548489526004885285892060039290921b1c6001600160a01b031688528652838720879055613421565b61346b565b90816020910312610bb557516001600160e01b031981168103610bb55790565b3d1561352a573d90613510826126d9565b9161351e60405193846126b8565b82523d6000602084013e565b606090565b9192813b1561364757602091613581916000604051958680958194630a85bd0160e11b9a8b845233600485015260018060a01b0380951660248501526044840152608060648401526084830190612800565b0393165af160009181613617575b506136095761359c6134ff565b805190816136045760405162461bcd60e51b815260206004820152603260248201527f4552433732313a207472616e7366657220746f206e6f6e20455243373231526560448201527131b2b4bb32b91034b6b83632b6b2b73a32b960711b6064820152608490fd5b602001fd5b6001600160e01b0319161490565b61363991925060203d8111613640575b61363181836126b8565b8101906134df565b903861358f565b503d613627565b50505050600190565b9193959490929460055495600092878703613a88576003805460010190819055986001600160a01b03928684168015613a39578b156139ea576136928c614a48565b80156139db575b613996576040978c89516136ac8161269d565b8981528a51916136bb83612667565b82528b6020830152898b83015283606083015289608083015260a08201528d895260066020528c8a8a2055600160401b9c8d811015610639578e93926131d96137159361370f846001899601600555612d2f565b90613d11565b87600080516020614d718339815191528180a487868c7fe4f48c240d3b994948aa54f3e2f5fca59263dfe1d52b6e4cf39a5d249b5ccb658280a48a86526006602052600261376588882054612d2f565b50016137728a8254612c1b565b90558a86600080516020614d5183398151915260208a518d8152a38360085416803b15613992576137c991879189838f825196879586948593632108947560e21b8552600485015260248401526044830190612800565b03925af1801561398857613975575b508260085416803b1561064d576138149186918c838a5180968195829463246a908b60e01b845260048401528d60248401526044830190612800565b03925af1801561396b57908591613957575b50508160085416803b15610651576138639185918b838951809681958294630190503b60e61b845260048401528c60248401526044830190612800565b03925af1801561394d57908491613939575b505060085416803b156107c4576138b191839189838751809681958294637e468a5160e01b845260048401528a60248401526044830190612800565b03925af1801561392f5761391b575b505051848152602081019190915260408101919091527f84eeb48eca46cea54afc9753345f6038981672ea565f32885420829dfd88aea690606090a1601554908110156121e8578161121e826001612746940160155561305b565b6139258291612654565b6102a857806138c0565b83513d84823e3d90fd5b61394290612654565b6107c4578238613875565b85513d86823e3d90fd5b61396090612654565b61088e578338613826565b86513d87823e3d90fd5b61398190959195612654565b93386137d8565b87513d88823e3d90fd5b8680fd5b60405162461bcd60e51b815260206004820152601d60248201527f455243333532353a20746f6b656e20616c7265616479206d696e7465640000006044820152606490fd5b506139e58c614a76565b613699565b60405162461bcd60e51b815260206004820152602160248201527f455243333532353a2063616e6e6f74206d696e74207a65726f20746f6b656e496044820152601960fa1b6064820152608490fd5b60405162461bcd60e51b815260206004820152602160248201527f455243333532353a206d696e7420746f20746865207a65726f206164647265736044820152607360f81b6064820152608490fd5b60405162461bcd60e51b815260206004820152603c60248201527f4f726465724372656469743a204e657720746f6b656e732063616e206f6e6c7960448201527f206d696e7420746f2074686520656e64206f6620746865206c697374000000006064820152608490fd5b613afc81614aec565b6000818152602060068152604090613b1682842054612d2f565b509060018060a01b038060038401541693600160028186015495015492613b3c89613447565b613b46898861333e565b60055460001991828201918211613cfd578a8a5260068752868a613b6d8782205494612d2f565b50926005885194613b7d86612667565b80548652888101548587015260028101548a8701528260038201541660608701528260048201541660808701520188518094859381845493848152019386528a82872096925b848410613ce0575050505050613bdb925003826126b8565b60a0820152613bed8161370f84612d2f565b518952600686528389205588885287838120556005548015613ccc570190613c1482612d2f565b919091613cb857938993600080516020614d51833981519152936005848c809b9a969981809b5582015588600282015588600382015588600482015501805488825580613c9f575b505060055551908152a3847fe4f48c240d3b994948aa54f3e2f5fca59263dfe1d52b6e4cf39a5d249b5ccb658380a4600080516020614d718339815191528280a4565b613cb191895285892090810190613430565b3880613c5c565b634e487b7160e01b89526004899052602489fd5b634e487b7160e01b89526031600452602489fd5b875483168652968101968896509094019391909101908a8e613bc3565b634e487b7160e01b8a52601160045260248afd5b9190613def57805182556020908181015192600193848201556040820151600282015560a060056003830192600180841b039384606087015116906001600160601b03851b91828254161790556004820190856080880151169082541617905501920151928351936001600160401b0385116121e857600160401b85116121e85781908454868655808710613dd2575b500192600052806000209160005b858110613dbf5750505050505050565b8451821684820155938201938601613daf565b613de9908660005287846000209182019101613430565b38613da1565b634e487b7160e01b600052600060045260246000fd5b15613e0c57565b60405162461bcd60e51b815260206004820152603060248201527f4f726465724372656469743a206f6e6c7920656e746972652076616c7565206360448201526f185b881899481d1c985b9cd9995c995960821b6064820152608490fd5b6001600160401b0381116121e85760051b60200190565b91909160009080825260209160118352604092838220541560001461412057613eab858433614203565b6001600354019586600355613ebf84612d6a565b906001600160a01b0381169081156140d257881561408457613ee089614a48565b8015614075575b614031578651613ef68161269d565b858152875190613f0582612667565b8a82528486830152868983015283606083015286608083015260a08201526005548a8752600686528089882055600160401b81101561401d57947f6d811e6a20ae5461a4ef22a6998c1d958defe727f1cc522b6eb792bc8e6f7266999897948b8095613f96826140179b976131d9600080516020614d518339815191529861370f8e613ffa9f600101600555612d2f565b85600080516020614d718339815191528180a483857fe4f48c240d3b994948aa54f3e2f5fca59263dfe1d52b6e4cf39a5d249b5ccb658280a483835260068152613fe288842054612d2f565b50508751838152a3613ff5858883614493565b612d6a565b915192839286846040919493926060820195825260208201520152565b0390a190565b634e487b7160e01b87526041600452602487fd5b865162461bcd60e51b815260048101859052601d60248201527f455243333532353a20746f6b656e20616c7265616479206d696e7465640000006044820152606490fd5b5061407f89614a76565b613ee7565b865162461bcd60e51b815260048101859052602160248201527f455243333532353a2063616e6e6f74206d696e74207a65726f20746f6b656e496044820152601960fa1b6064820152608490fd5b865162461bcd60e51b815260048101859052602160248201527f455243333532353a206d696e7420746f20746865207a65726f206164647265736044820152607360f81b6064820152608490fd5b600e5484516307a42e0160e11b8152600481018590526001600160a01b0397881660248201526044810187905291969192918791849160649183918691165af19586156141f75781966141a0575b50505090614017613ffa7f6d811e6a20ae5461a4ef22a6998c1d958defe727f1cc522b6eb792bc8e6f72669493612d6a565b909180939650813d83116141f0575b6141b981836126b8565b810103126102a857505192614017613ffa7f6d811e6a20ae5461a4ef22a6998c1d958defe727f1cc522b6eb792bc8e6f726661416e565b503d6141af565b508351903d90823e3d90fd5b61420d8183614293565b61421783836130aa565b1580614287575b6142285750505050565b838110614242576134989361423c91613331565b916142c1565b60405162461bcd60e51b815260206004820152601f60248201527f455243333532353a20696e73756666696369656e7420616c6c6f77616e6365006044820152606490fd5b5060001981141561421e565b61429c81614aec565b600052600460205260406000209060018060a01b031660005260205260406000205490565b6001600160a01b0380831693919284156143aa57836142df91614402565b1561432d575b5060207f621b050de0ad08b51d19b48b3e6df75348c4de6bdd93e81b252ca62e28265b1b918360005260048252604060002085600052825280604060002055604051908152a3565b908260005260066020526005614347604060002054612d2f565b500190815492600160401b8410156121e8578561438d8560209560017f621b050de0ad08b51d19b48b3e6df75348c4de6bdd93e81b252ca62e28265b1b98018155613092565b909283549160031b90811b9283911b1691191617905591506142e5565b60405162461bcd60e51b815260206004820152602a60248201527f455243333532353a20617070726f76652076616c756520746f20746865207a65604482015269726f206164647265737360b01b6064820152608490fd5b600090828252600660209080825260409061441f82862054612d2f565b509260058094015496865b88811061443d5750505050505050905090565b81885283835261445b8187614454888c2054612d2f565b5001613092565b905460039190911b1c6001600160a01b03908116908816146144855761448090613421565b61442a565b505050505050505050600190565b61449c81614a48565b8015614729575b156146d4576144b182614a48565b80156146c5575b156146725780600052602092600684526040926144d88460002054612d2f565b5081600052600686526144ee8560002054612d2f565b5090600281019081549085821061461b57600101546001840154036145c057916002916145218661455e98979695613331565b90550161452f838254612c1b565b90558083600080516020614d51833981519152888851868152a38451926145558461269d565b60008452614750565b15614567575050565b60849250519062461bcd60e51b82526004820152602d60248201527f455243333532353a207472616e736665722072656a656374656420627920455260448201526c21999a991aa932b1b2b4bb32b960991b6064820152fd5b865162461bcd60e51b815260048101899052602e60248201527f455243333532353a207472616e7366657220746f20746f6b656e20776974682060448201526d191a5999995c995b9d081cdb1bdd60921b6064820152608490fd5b875162461bcd60e51b8152600481018a9052602a60248201527f455243333532353a20696e73756666696369656e742062616c616e636520666f60448201526939103a3930b739b332b960b11b6064820152608490fd5b60405162461bcd60e51b815260206004820152602560248201527f455243333532353a207472616e7366657220746f20696e76616c696420746f6b604482015264195b88125160da1b6064820152608490fd5b506146cf82614a76565b6144b8565b60405162461bcd60e51b815260206004820152602760248201527f455243333532353a207472616e736665722066726f6d20696e76616c696420746044820152661bdad95b88125160ca1b6064820152608490fd5b5061473381614a76565b6144a3565b90816020910312610bb557518015158103610bb55790565b92909261475c84612ff2565b803b1561487f576040516301ffc9a760e01b8152629ce20b60e01b6004820181905295602095926001600160a01b0316918681602481865afa60009181614850575b506147b95750505050505050506147b36134ff565b50600190565b1561484457600086946147f8604051978896879586948d865233600487015260248601526044850152606484015260a0608484015260a4830190612800565b03925af19182156148385760009261481b575b50506001600160e01b0319161490565b6148319250803d106136405761363181836126b8565b388061480b565b6040513d6000823e3d90fd5b50505050505050600190565b614871919250883d8a11614878575b61486981836126b8565b810190614738565b903861479e565b503d61485f565b5050505050600190565b909161489483614a48565b80614a35575b8015614a26575b156149af576148af82614a48565b8061499c575b80614979575b1561491f579061491a826148f27fdf7a601a0a201ccd4b4bfcfd610913188d931867997223d226f85f2f2673988a95948433614203565b6148fd818585614493565b604051938493846040919493926060820195825260208201520152565b0390a1565b600e546001600160a01b0316803b15610bb557604051630310ed7f60e41b8152600481019390935260248301939093526044820152906000908290606490829084905af18015614838576149705750565b612cc790612654565b5061498383614a48565b80156148bb575061499383612d6a565b600c54146148bb565b506149a682612d6a565b600c54146148b5565b60a460405162461bcd60e51b815260206004820152604460248201527f546f6b656e204944206f66207265636569766572206e6f74207265636f676e6960448201527f7a6564206279207468697320636f6e7472616374206f722074686520726567696064820152637374727960e01b6084820152fd5b50614a3083614a76565b6148a1565b50614a3f83612d6a565b600c541461489a565b60055415159081614a57575090565b8091506000526006602052614a70604060002054612d2f565b50541490565b8060005260116020526040600020541590811591614a92575090565b600e546040516341ce4b3f60e01b81526004810192909252909150602090829060249082906001600160a01b03165afa90811561483857600091614ad4575090565b612746915060203d81116148785761486981836126b8565b612cc790614af981614a48565b908115614b1e575b8115614b0e575b50612fa6565b614b189150614a76565b38614b08565b9050614b2981614a76565b90614b01565b614b3881614aec565b614b4181614a48565b80614bce575b15614b555761274690613286565b600090815260116020526040812054602060018060a01b03600e541691602460405180948193631398fee160e31b835260048301525afa918215611fef578092614b9e57505090565b9091506020823d8211614bc6575b81614bb9602093836126b8565b810103126102a857505190565b3d9150614bac565b50614bd881612d6a565b600c5414614b47565b614bea81614aec565b614bf381614a48565b80614c9e575b15614c075761274690612ff2565b60018060a01b0380600e54169160009081526011602052602060408220546024604051809681936331a9108f60e11b835260048301525afa928315614c91578193614c525750505090565b909192506020813d8211614c89575b81614c6e602093836126b8565b81010312610b27575191821682036102a857503880806130d5565b3d9150614c61565b50604051903d90823e3d90fd5b50614ca881612d6a565b600c5414614bf9565b8051821015612c395760209160051b010190565b90614ccf82614aec565b614cd882614a48565b80614d3d575b15614cec5761274691614293565b602060018060a01b0391604483600e541660009586526011845260408620549060405195869485936338d1782f60e21b855260048501521660248301525afa918215611fef578092614b9e57505090565b50614d4782612d6a565b600c5414614cde56fe0b2aac84f3ec956911fd78eae5311062972ff949f38412e8da39069d9f068cc6ddf252ad1be2c89b69c2b068fc378daa952ba7f163c4a11628f55a4df523b3ef519b8a896d3cf44bd2d0545987d41a13bfb2ba37ce6ce401c753218178535608a2646970667358221220b53b757ee9e5c9eab7ca3c5010a235bd7843b677bba6e58f345434f92b375b2164736f6c634300081100336080604052346200048657620020b7803803806200001d816200048b565b9283398101608082820312620004865781516001600160401b0391908281116200048657816200004f918501620004b1565b91602092838501518281116200048657836200006d918701620004b1565b92604086015183811162000486576060916200008b918801620004b1565b9501516001600160a01b03811695908690036200048657815193838511620002c3576001948554938685811c951680156200047b575b88861014620002a2578190601f9586811162000425575b508890868311600114620003bd57600092620003b1575b5050600019600383901b1c191690861b1785555b805190848211620002c357600254908682811c92168015620003a6575b88831014620002a25781858493116200034f575b508790858311600114620002e557600092620002d9575b5050600019600383901b1c191690851b176002555b8051928311620002c35760039485548581811c91168015620002b8575b82821014620002a25783811162000257575b5080928411600114620001ed5750928293918392600094620001e1575b50501b9160001990841b1c19161790555b600080546001600160a01b031916919091179055604051611b939081620005248239f35b015192503880620001ac565b919083601f1981168760005284600020946000905b888383106200023c575050501062000223575b505050811b019055620001bd565b015160001983861b60f8161c1916905538808062000215565b85870151885590960195948501948793509081019062000202565b86600052816000208480870160051c82019284881062000298575b0160051c019086905b8281106200028b5750506200018f565b600081550186906200027b565b9250819262000272565b634e487b7160e01b600052602260045260246000fd5b90607f16906200017d565b634e487b7160e01b600052604160045260246000fd5b0151905038806200014b565b90879350601f198316916002600052896000209260005b8b8282106200033857505084116200031e575b505050811b0160025562000160565b015160001960f88460031b161c191690553880806200030f565b8385015186558b97909501949384019301620002fc565b9091506002600052876000208580850160051c8201928a86106200039c575b918991869594930160051c01915b8281106200038c57505062000134565b600081558594508991016200037c565b925081926200036e565b91607f169162000120565b015190503880620000ef565b90889350601f19831691846000528a6000209260005b8c8282106200040e5750508411620003f4575b505050811b01855562000103565b015160001960f88460031b161c19169055388080620003e6565b8385015186558c97909501949384019301620003d3565b90915087600052886000208680850160051c8201928b861062000471575b918a91869594930160051c01915b82811062000461575050620000d8565b600081558594508a910162000451565b9250819262000443565b94607f1694620000c1565b600080fd5b6040519190601f01601f191682016001600160401b03811183821017620002c357604052565b919080601f84011215620004865782516001600160401b038111620002c357602090620004e7601f8201601f191683016200048b565b92818452828287010111620004865760005b8181106200050f57508260009394955001015290565b8581018301518482018401528201620004f956fe608060408181526004908136101561001657600080fd5b600092833560e01c9081631375d843146113cd57508063246a908b146112cf57806355f804b31461118b57806364140ec01461108c5780636c0360eb14610fcd5780636c037f8a14610d0f57806371f0442e14610c7b578063725fa09c146108c05780637e468a51146107c1578063842251d414610685578063894b4c2e146101755763b3154c08146100a857600080fd5b34610171576020918260031936011261016d5780358452825280832091815192848154906100d5826118e1565b80875292600192808416908115610149575060011461010e575b61010a8787610100828c03836114e3565b5191829182611485565b0390f35b9080949750528583205b828410610136575050508261010a94610100928201019438806100ef565b8054868501880152928601928101610118565b60ff19168887015250505050151560051b83010192506101008261010a38806100ef565b8380fd5b8280fd5b50903461017157602092836003193601126106825782516306fdde0360e01b81529180359082848281335afa938415610678578394610654575b506101b98261179e565b926102056022875180968a6101d78184019a8b815193849201611462565b820161202360f01b8c8201526101f68c83519384918785019101611462565b010360028101875201856114e3565b828152818752858120865181549391899184610220876118e1565b80835284830193600198868a821691826000146106345750506001146105fb575b505090610254816102c9949303826114e3565b6102e561026030611a1a565b898852600686526102d78d808a209a60058952818b2091519788948a86019a6102ac61028b8d61191b565b91692f636f6e74726163742f60b01b83528351938491600a85019101611462565b019c6011662f746f6b656e2f60c81b9e8f600a8201520190611997565b602f60f81b81520190611997565b03601f1981018552846114e3565b8a51631398fee160e31b81528581018990528c81602481335afa80156105c25787906105cc575b610316915061179e565b8b5163131f9f3f60e11b8152958601899052948c81602481335afa9081156105c2578d918d918991610589575b5061034d9061179e565b9761035733611a1a565b9a815260068352208c51713d91383937b832b93a34b2b9afbab934911d60711b818401908152601160f91b60328301529a90998a93909161039a6033860161191b565b9068636f6e74726163742f60b81b825280518093600984019201916103be92611462565b019060098201526010016103d191611997565b6f17b83937b832b93a34b2b9973539b7b760811b815261227d60f01b601082015203600d198101885260120161040790886114e3565b8a51998a998d683d913730b6b2911d1160b91b908c015251908160298c0161042e92611462565b890190701116113232b9b1b934b83a34b7b7111d1160791b6029830152519182603a830161045b92611462565b01906a11161134b6b0b3b2911d1160a91b603a8301525191826045830161048192611462565b016c1116113130b630b731b2911d1160991b6045820152815191828a605284019201916104ad92611462565b016911161139b637ba111d1160b11b60528201528151918289605c84019201916104d692611462565b01906e111611383937b832b93a34b2b9911d60891b605c830152519182606b830161050092611462565b01606b8101607d60f81b905203604c81018252606c0161052090826114e3565b61052990611631565b81517f646174613a6170706c69636174696f6e2f6a736f6e3b6261736536342c00000084820152815190938492610567918391603d86019101611462565b810103601d81018352603d0161057d90836114e3565b5161010a819282611485565b928092508391503d83116105bb575b6105a281836114e3565b810103126105b7578b61034d8e925190610343565b8680fd5b503d610598565b8c513d89823e3d90fd5b508c81813d83116105f4575b6105e281836114e3565b810103126105b757610316905161030c565b503d6105d8565b8592508752818720908888925b82841061061e5750505082010161025482610241565b80548487018601528794909301928a9101610608565b60ff1916875292151560051b850190920192506102549150839050610241565b6106719194503d8085833e61066981836114e3565b8101906115a0565b92386101af565b85513d85823e3d90fd5b80fd5b508290346107bd576106963661156d565b939083526020916006835283209184519167ffffffffffffffff83116107aa57506106c183546118e1565b601f8111610767575b5080601f831160011461070557508394829394926106fa575b50508160011b916000199060031b1c191617905580f35b0151905084806106e3565b90601f198316958486528286209286905b88821061074f57505083600195969710610736575b505050811b01905580f35b015160001960f88460031b161c1916905584808061072b565b80600185968294968601518155019501930190610716565b838552818520601f840160051c8101918385106107a0575b601f0160051c01905b81811061079557506106ca565b858155600101610788565b909150819061077f565b634e487b7160e01b855260419052602484fd5b5080fd5b508290346107bd576107d23661156d565b939083526020916007835283209184519167ffffffffffffffff83116107aa57506107fd83546118e1565b601f811161087d575b5080601f831160011461083557508394829394926106fa5750508160011b916000199060031b1c191617905580f35b90601f198316958486528286209286905b8882106108655750508360019596971061073657505050811b01905580f35b80600185968294968601518155019501930190610846565b838552818520601f840160051c8101918385106108b6575b601f0160051c01905b8181106108ab5750610806565b85815560010161089e565b9091508190610895565b50913461068257806003193601126106825782516306fdde0360e01b815281818481335afa908115610c71578291610c57575b508351829060025492610905846118e1565b9586835260209683888101956001978a8982169182600014610c3c575050600114610be1575b610937925003846114e3565b61094033611a1a565b9588519586898101986109528a61191b565b68636f6e74726163742f60b81b81526109758c8351938491600985019101611462565b01602f60f81b600982015283906003549361098f856118e1565b94818116908115610bc05750600114610b61575b50506109b8925003601f1981018852876114e3565b8789518093633e7e866960e01b825281335afa918215610b55578192610b17575b5050610ac9605a888a61010a9b9961010099610a7f603d9a610b079e9a610a5c610ace9b610a0c60ff610a329d1661179e565b97519b8c99683d913730b6b2911d1160b91b818c0152825192839160298d019101611462565b880191701116113232b9b1b934b83a34b7b7111d1160791b6029840152518093603a840190611462565b01916a11161134b6b0b3b2911d1160a91b603a8401525180936045840190611462565b01721116113b30b63ab2a232b1b4b6b0b639911d1160691b6045820152610aaf825180938a605885019101611462565b0161227d60f01b605882015203603a8101845201826114e3565b611631565b845195827f646174613a6170706c69636174696f6e2f6a736f6e3b6261736536342c000000889485015282519283918686019101611462565b810103601d8101855201836114e3565b9091508781813d8311610b4e575b610b2f81836114e3565b810103126107bd57519060ff821682036106825750610ac9605a6109d9565b503d610b25565b508851903d90823e3d90fd5b6003865290915084908c7fc2575a0e9e593c00f959f8c92f12db2869c3395a3b0502d05e2516446f71f85b5b868410610ba857505050506109b892600a91010138806109a3565b8054858501600a01528c95509201918d908201610b8d565b9050600a93506109b895915060ff19168383015280151502010138806109a3565b505060028752838888887f405787fa12a823e0f2b7631cc41b3ba8828b3321ca811111fa75cd3aa3bb5ace5b858310610c23575050610937935082010161092b565b80919294505483858a0101520191018990888793610c0d565b60ff1916895261093794151560051b840101915061092b9050565b610c6b91503d8084833e61066981836114e3565b386108f3565b84513d84823e3d90fd5b5034610171576020918260031936011261016d57358352600582528083209181519284815490610caa826118e1565b808752926001928084169081156101495750600114610cd45761010a8787610100828c03836114e3565b9080949750528583205b828410610cfc575050508261010a94610100928201019438806100ef565b8054868501880152928601928101610cde565b5090346101715760209283600319360112610682578054835163ec327a2160e01b815283358185018190529092916001600160a01b0316908284602481855afa938415610fc3578394610fa7575b50855163bc74ebb960e01b8152858101829052948386602481865afa958615610f9d578496610f81575b5086516309c3dd8760e01b80825282820184905290938585602481845afa948515610f7757918a9594939187938496610f56575b5090602491610dfb60268d518a652f696d61676560d01b81610de7849e85019d8e815193849201611462565b83019182015203600681018b5201896114e3565b8b51958694859384528301525afa938415610f4b578094610f2e575b50508551918288808201868197519283910191610e3392611462565b81018981016f17b83937b832b93a34b2b9973539b7b760811b905203601081018452603001610e6290846114e3565b8651958695683d913730b6b2911d1160b91b8a880152805190818b60298a01920191610e8d92611462565b8601701116113232b9b1b934b83a34b7b7111d1160791b6029820152815191828b603a8401920191610ebe92611462565b01906a11161134b6b0b3b2911d1160a91b603a83015251918260458301610ee492611462565b01906e111611383937b832b93a34b2b9911d60891b604583015251918260548301610f0e92611462565b0160548101607d60f81b90520360358101825260550161052090826114e3565b610f439294503d8091833e61066981836114e3565b913880610e17565b8751903d90823e3d90fd5b602492919650610f6f903d8087833e61066981836114e3565b959091610dbb565b89513d88823e3d90fd5b610f969196503d8086833e61066981836114e3565b9438610d87565b87513d86823e3d90fd5b610fbc9194503d8085833e61066981836114e3565b9238610d5d565b86513d85823e3d90fd5b8382346107bd57816003193601126107bd57805190826001805491610ff1836118e1565b80865292828116908115611064575060011461101a575b5050506101008261010a9403836114e3565b9450808552600080516020611b3e8339815191525b82861061104c5750505061010082602061010a9582010194611008565b8054602087870181019190915290950194810161102f565b61010a97508693506020925061010094915060ff191682840152151560051b82010194611008565b508290346107bd5761109d3661156d565b939083526020916005835283209184519167ffffffffffffffff83116107aa57506110c883546118e1565b601f8111611148575b5080601f831160011461110057508394829394926106fa5750508160011b916000199060031b1c191617905580f35b90601f198316958486528286209286905b8882106111305750508360019596971061073657505050811b01905580f35b80600185968294968601518155019501930190611111565b838552818520601f840160051c810191838510611181575b601f0160051c01905b81811061117657506110d1565b858155600101611169565b9091508190611160565b828434610682576020806003193601126107bd5767ffffffffffffffff833581811161016d576111be9036908601611521565b9384519182116112bc57506001916111d683546118e1565b601f811161126a575b5080601f8311600114611219575083948293949261120e575b5050600019600383901b1c191690821b17905580f35b0151905084806111f8565b838552601f19831695600080516020611b3e833981519152929186905b888210611253575050838596971061073657505050811b01905580f35b808785968294968601518155019501930190611236565b838552600080516020611b3e833981519152601f840160051c8101918385106112b2575b601f0160051c019084905b8281106112a75750506111df565b868155018490611299565b909150819061128e565b634e487b7160e01b845260419052602483fd5b508290346107bd576112e03661156d565b9390835260209181835283209184519167ffffffffffffffff83116107aa575061130a83546118e1565b601f811161138a575b5080601f831160011461134257508394829394926106fa5750508160011b916000199060031b1c191617905580f35b90601f198316958486528286209286905b8882106113725750508360019596971061073657505050811b01905580f35b80600185968294968601518155019501930190611353565b838552818520601f840160051c8101918385106113c3575b601f0160051c01905b8181106113b85750611313565b8581556001016113ab565b90915081906113a2565b9290503461016d576020908160031936011261145e57358452600681528184208054856113f9826118e1565b8087529260019280841690811561014957506001146114235761010a8787610100828c03836114e3565b9080949750528583205b82841061144b575050508261010a94610100928201019438806100ef565b805486850188015292860192810161142d565b8480fd5b60005b8381106114755750506000910152565b8181015183820152602001611465565b604091602082526114a58151809281602086015260208686019101611462565b601f01601f1916010190565b6060810190811067ffffffffffffffff8211176114cd57604052565b634e487b7160e01b600052604160045260246000fd5b90601f8019910116810190811067ffffffffffffffff8211176114cd57604052565b67ffffffffffffffff81116114cd57601f01601f191660200190565b81601f820112156115685780359061153882611505565b9261154660405194856114e3565b8284526020838301011161156857816000926020809301838601378301015290565b600080fd5b90604060031983011261156857600435916024359067ffffffffffffffff82116115685761159d91600401611521565b90565b6020818303126115685780519067ffffffffffffffff8211611568570181601f820112156115685780516115d381611505565b926115e160405194856114e3565b818452602082840101116115685761159d9160208085019101611462565b9061160982611505565b61161660405191826114e3565b8281528092611627601f1991611505565b0190602036910137565b80511561177957604051611644816114b1565b604081527f4142434445464748494a4b4c4d4e4f505152535455565758595a61626364656660208201527f6768696a6b6c6d6e6f707172737475767778797a303132333435363738392b2f60408201528151600292838201809211611763576003918290046001600160fe1b0381168103611763576116c6908594951b6115ff565b936020850193829183518401925b83811061171257505050505106806001146116ff576002146116f4575090565b603d90600019015390565b50603d9081600019820153600119015390565b85600491979293949701918251600190603f9082828260121c16880101518453828282600c1c16880101518385015382828260061c16880101518885015316850101518782015301959291906116d4565b634e487b7160e01b600052601160045260246000fd5b506040516020810181811067ffffffffffffffff8211176114cd576040526000815290565b806000917a184f03e93ff9f4daa797ed6e38ed64bf6a1f010000000000000000808210156118d3575b506d04ee2d6d415b85acef8100000000808310156118c4575b50662386f26fc10000808310156118b5575b506305f5e100808310156118a6575b5061271080831015611897575b506064821015611887575b600a8092101561187d575b6001908160216118358287016115ff565b95860101905b611847575b5050505090565b600019019083906f181899199a1a9b1b9c1cb0b131b232b360811b8282061a8353049182156118785791908261183b565b611840565b9160010191611824565b9190606460029104910191611819565b6004919392049101913861180e565b60089193920491019138611801565b601091939204910191386117f2565b602091939204910191386117e0565b6040935081049150386117c7565b90600182811c92168015611911575b60208310146118fb57565b634e487b7160e01b600052602260045260246000fd5b91607f16916118f0565b9060009160019081549161192e836118e1565b92818116908115611984575060011461194657505050565b809192939450600052600080516020611b3e833981519152906000915b848310611971575050500190565b8181602092548587015201920191611963565b60ff191683525050811515909102019150565b6000929181546119a6816118e1565b926001918083169081156119ff57506001146119c3575b50505050565b90919293945060005260209081600020906000915b8583106119ee57505050500190388080806119bd565b8054858401529183019181016119d8565b60ff19168452505050811515909102019150388080806119bd565b604051906001600160a01b0316611a30826114b1565b602a82526020908183016040368237835115611b2757603090538251600190811015611b2757607860218501536029905b808211611ab5575050611a72575090565b6064906040519062461bcd60e51b825280600483015260248201527f537472696e67733a20686578206c656e67746820696e73756666696369656e746044820152fd5b9091600f81166010811015611b12578551841015611b12576f181899199a1a9b1b9c1cb0b131b232b360811b901a85840185015360041c918015611afd576000190190611a61565b60246000634e487b7160e01b81526011600452fd5b60246000634e487b7160e01b81526032600452fd5b634e487b7160e01b600052603260045260246000fdfeb10e2d527612073b26eecdfd717e6a320cf44b4afac2b0732d9fcbe2b7fa0cf6a2646970667358221220075d961bac45a8455e8b8f4260cef222c6c6880276b6f448f391c8c0a2b708f264736f6c634300081100332f8788117e7eff1d82e926ec794901d17c78024a50270940304540a733656f0d",
  "linkReferences": {},
  "deployedLinkReferences": {}
}