{
  "_format": "hh-sol-artifact-1",
  "contractName": "OrderCredit",
  "sourceName": "contracts/OrderCredit.sol",
  "abi": [
    {
      "inputs": [
        {
          "internalType": "address",
          "name": "revenueAddress_",
          "type": "address"
        },
        {
          "internalType": "address",
          "name": "adminAddress_",
          "type": "address"
        },
        {
          "internalType": "address",
          "name": "slotRegistry_",
          "type": "address"
        },
        {
          "internalType": "address",
          "name": "mktAdmin_",
          "type": "address"
        },
        {
          "internalType": "uint256",
          "name": "defaultSlot_",
          "type": "uint256"
        },
        {
          "internalType": "string",
          "name": "name_",
          "type": "string"
        },
        {
          "internalType": "string",
          "name": "symbol_",
          "type": "string"
        },
        {
          "internalType": "string",
          "name": "baseUri_",
          "type": "string"
        },
        {
          "internalType": "string",
          "name": "contractDescription_",
          "type": "string"
        },
        {
          "internalType": "string",
          "name": "contractImage_",
          "type": "string"
        },
        {
          "internalType": "uint8",
          "name": "decimals_",
          "type": "uint8"
        }
      ],
      "stateMutability": "nonpayable",
      "type": "constructor"
    },
    {
      "anonymous": false,
      "inputs": [
        {
          "indexed": true,
          "internalType": "address",
          "name": "_owner",
          "type": "address"
        },
        {
          "indexed": true,
          "internalType": "address",
          "name": "_approved",
          "type": "address"
        },
        {
          "indexed": true,
          "internalType": "uint256",
          "name": "_tokenId",
          "type": "uint256"
        }
      ],
      "name": "Approval",
      "type": "event"
    },
    {
      "anonymous": false,
      "inputs": [
        {
          "indexed": true,
          "internalType": "address",
          "name": "_owner",
          "type": "address"
        },
        {
          "indexed": true,
          "internalType": "address",
          "name": "_operator",
          "type": "address"
        },
        {
          "indexed": false,
          "internalType": "bool",
          "name": "_approved",
          "type": "bool"
        }
      ],
      "name": "ApprovalForAll",
      "type": "event"
    },
    {
      "anonymous": false,
      "inputs": [
        {
          "indexed": true,
          "internalType": "uint256",
          "name": "_tokenId",
          "type": "uint256"
        },
        {
          "indexed": true,
          "internalType": "address",
          "name": "_operator",
          "type": "address"
        },
        {
          "indexed": false,
          "internalType": "uint256",
          "name": "_value",
          "type": "uint256"
        }
      ],
      "name": "ApprovalValue",
      "type": "event"
    },
    {
      "anonymous": false,
      "inputs": [
        {
          "indexed": false,
          "internalType": "address",
          "name": "contractAddress",
          "type": "address"
        }
      ],
      "name": "MetadataDescriptor",
      "type": "event"
    },
    {
      "anonymous": false,
      "inputs": [
        {
          "indexed": false,
          "internalType": "uint256",
          "name": "tokenId",
          "type": "uint256"
        },
        {
          "indexed": false,
          "internalType": "uint256",
          "name": "slot",
          "type": "uint256"
        },
        {
          "indexed": false,
          "internalType": "uint256",
          "name": "value",
          "type": "uint256"
        }
      ],
      "name": "MintServiceToken",
      "type": "event"
    },
    {
      "anonymous": false,
      "inputs": [
        {
          "indexed": false,
          "internalType": "uint256",
          "name": "newTokenId",
          "type": "uint256"
        },
        {
          "indexed": false,
          "internalType": "uint256",
          "name": "slot",
          "type": "uint256"
        },
        {
          "indexed": false,
          "internalType": "uint256",
          "name": "value",
          "type": "uint256"
        }
      ],
      "name": "MintServiceTokenToAddress",
      "type": "event"
    },
    {
      "anonymous": false,
      "inputs": [
        {
          "indexed": true,
          "internalType": "bytes32",
          "name": "role",
          "type": "bytes32"
        },
        {
          "indexed": true,
          "internalType": "bytes32",
          "name": "previousAdminRole",
          "type": "bytes32"
        },
        {
          "indexed": true,
          "internalType": "bytes32",
          "name": "newAdminRole",
          "type": "bytes32"
        }
      ],
      "name": "RoleAdminChanged",
      "type": "event"
    },
    {
      "anonymous": false,
      "inputs": [
        {
          "indexed": true,
          "internalType": "bytes32",
          "name": "role",
          "type": "bytes32"
        },
        {
          "indexed": true,
          "internalType": "address",
          "name": "account",
          "type": "address"
        },
        {
          "indexed": true,
          "internalType": "address",
          "name": "sender",
          "type": "address"
        }
      ],
      "name": "RoleGranted",
      "type": "event"
    },
    {
      "anonymous": false,
      "inputs": [
        {
          "indexed": true,
          "internalType": "bytes32",
          "name": "role",
          "type": "bytes32"
        },
        {
          "indexed": true,
          "internalType": "address",
          "name": "account",
          "type": "address"
        },
        {
          "indexed": true,
          "internalType": "address",
          "name": "sender",
          "type": "address"
        }
      ],
      "name": "RoleRevoked",
      "type": "event"
    },
    {
      "anonymous": false,
      "inputs": [
        {
          "indexed": true,
          "internalType": "address",
          "name": "metadataDescriptor",
          "type": "address"
        }
      ],
      "name": "SetMetadataDescriptor",
      "type": "event"
    },
    {
      "anonymous": false,
      "inputs": [
        {
          "indexed": true,
          "internalType": "uint256",
          "name": "_tokenId",
          "type": "uint256"
        },
        {
          "indexed": true,
          "internalType": "uint256",
          "name": "_oldSlot",
          "type": "uint256"
        },
        {
          "indexed": true,
          "internalType": "uint256",
          "name": "_newSlot",
          "type": "uint256"
        }
      ],
      "name": "SlotChanged",
      "type": "event"
    },
    {
      "anonymous": false,
      "inputs": [
        {
          "indexed": true,
          "internalType": "address",
          "name": "_from",
          "type": "address"
        },
        {
          "indexed": true,
          "internalType": "address",
          "name": "_to",
          "type": "address"
        },
        {
          "indexed": true,
          "internalType": "uint256",
          "name": "_tokenId",
          "type": "uint256"
        }
      ],
      "name": "Transfer",
      "type": "event"
    },
    {
      "anonymous": false,
      "inputs": [
        {
          "indexed": true,
          "internalType": "uint256",
          "name": "_fromTokenId",
          "type": "uint256"
        },
        {
          "indexed": true,
          "internalType": "uint256",
          "name": "_toTokenId",
          "type": "uint256"
        },
        {
          "indexed": false,
          "internalType": "uint256",
          "name": "_value",
          "type": "uint256"
        }
      ],
      "name": "TransferValue",
      "type": "event"
    },
    {
      "anonymous": false,
      "inputs": [
        {
          "indexed": false,
          "internalType": "uint256",
          "name": "fromTokenId",
          "type": "uint256"
        },
        {
          "indexed": false,
          "internalType": "uint256",
          "name": "toTokenId",
          "type": "uint256"
        },
        {
          "indexed": false,
          "internalType": "uint256",
          "name": "value",
          "type": "uint256"
        }
      ],
      "name": "ValueTransfer",
      "type": "event"
    },
    {
      "inputs": [],
      "name": "DEFAULT_ADMIN_ROLE",
      "outputs": [
        {
          "internalType": "bytes32",
          "name": "",
          "type": "bytes32"
        }
      ],
      "stateMutability": "view",
      "type": "function"
    },
    {
      "inputs": [],
      "name": "MKT_ARBITRATOR_ROLE",
      "outputs": [
        {
          "internalType": "bytes32",
          "name": "",
          "type": "bytes32"
        }
      ],
      "stateMutability": "view",
      "type": "function"
    },
    {
      "inputs": [],
      "name": "SERVICE_ADMIN_ROLE",
      "outputs": [
        {
          "internalType": "bytes32",
          "name": "",
          "type": "bytes32"
        }
      ],
      "stateMutability": "view",
      "type": "function"
    },
    {
      "inputs": [
        {
          "internalType": "string",
          "name": "uri_",
          "type": "string"
        }
      ],
      "name": "_setBaseURI",
      "outputs": [],
      "stateMutability": "nonpayable",
      "type": "function"
    },
    {
      "inputs": [
        {
          "internalType": "uint256",
          "name": "tokenId_",
          "type": "uint256"
        },
        {
          "internalType": "address",
          "name": "operator_",
          "type": "address"
        }
      ],
      "name": "allowance",
      "outputs": [
        {
          "internalType": "uint256",
          "name": "",
          "type": "uint256"
        }
      ],
      "stateMutability": "view",
      "type": "function"
    },
    {
      "inputs": [
        {
          "internalType": "address",
          "name": "to_",
          "type": "address"
        },
        {
          "internalType": "uint256",
          "name": "tokenId_",
          "type": "uint256"
        }
      ],
      "name": "approve",
      "outputs": [],
      "stateMutability": "payable",
      "type": "function"
    },
    {
      "inputs": [
        {
          "internalType": "uint256",
          "name": "tokenId_",
          "type": "uint256"
        },
        {
          "internalType": "address",
          "name": "to_",
          "type": "address"
        },
        {
          "internalType": "uint256",
          "name": "value_",
          "type": "uint256"
        }
      ],
      "name": "approve",
      "outputs": [],
      "stateMutability": "payable",
      "type": "function"
    },
    {
      "inputs": [
        {
          "internalType": "address",
          "name": "owner_",
          "type": "address"
        }
      ],
      "name": "balanceOf",
      "outputs": [
        {
          "internalType": "uint256",
          "name": "balance",
          "type": "uint256"
        }
      ],
      "stateMutability": "view",
      "type": "function"
    },
    {
      "inputs": [
        {
          "internalType": "uint256",
          "name": "tokenId_",
          "type": "uint256"
        }
      ],
      "name": "balanceOf",
      "outputs": [
        {
          "internalType": "uint256",
          "name": "",
          "type": "uint256"
        }
      ],
      "stateMutability": "view",
      "type": "function"
    },
    {
      "inputs": [],
      "name": "contractAdmin",
      "outputs": [
        {
          "internalType": "address",
          "name": "",
          "type": "address"
        }
      ],
      "stateMutability": "view",
      "type": "function"
    },
    {
      "inputs": [],
      "name": "contractURI",
      "outputs": [
        {
          "internalType": "string",
          "name": "",
          "type": "string"
        }
      ],
      "stateMutability": "view",
      "type": "function"
    },
    {
      "inputs": [],
      "name": "creditType",
      "outputs": [
        {
          "internalType": "string",
          "name": "",
          "type": "string"
        }
      ],
      "stateMutability": "view",
      "type": "function"
    },
    {
      "inputs": [],
      "name": "defaultSlot",
      "outputs": [
        {
          "internalType": "uint256",
          "name": "",
          "type": "uint256"
        }
      ],
      "stateMutability": "view",
      "type": "function"
    },
    {
      "inputs": [
        {
          "internalType": "uint256",
          "name": "index",
          "type": "uint256"
        }
      ],
      "name": "dequeue",
      "outputs": [],
      "stateMutability": "nonpayable",
      "type": "function"
    },
    {
      "inputs": [
        {
          "internalType": "address",
          "name": "owner_",
          "type": "address"
        },
        {
          "internalType": "uint256",
          "name": "slot_",
          "type": "uint256"
        },
        {
          "internalType": "string",
          "name": "uuid_",
          "type": "string"
        },
        {
          "internalType": "string",
          "name": "tokenDescription_",
          "type": "string"
        },
        {
          "internalType": "string",
          "name": "tokenImage_",
          "type": "string"
        },
        {
          "internalType": "string",
          "name": "property_",
          "type": "string"
        }
      ],
      "name": "enqueue",
      "outputs": [
        {
          "internalType": "uint256",
          "name": "",
          "type": "uint256"
        }
      ],
      "stateMutability": "nonpayable",
      "type": "function"
    },
    {
      "inputs": [
        {
          "internalType": "uint256",
          "name": "tokenId_",
          "type": "uint256"
        }
      ],
      "name": "getApproved",
      "outputs": [
        {
          "internalType": "address",
          "name": "",
          "type": "address"
        }
      ],
      "stateMutability": "view",
      "type": "function"
    },
    {
      "inputs": [
        {
          "internalType": "bytes32",
          "name": "role",
          "type": "bytes32"
        }
      ],
      "name": "getRoleAdmin",
      "outputs": [
        {
          "internalType": "bytes32",
          "name": "",
          "type": "bytes32"
        }
      ],
      "stateMutability": "view",
      "type": "function"
    },
    {
      "inputs": [
        {
          "internalType": "uint256",
          "name": "tokenId",
          "type": "uint256"
        }
      ],
      "name": "getTokenDescription",
      "outputs": [
        {
          "internalType": "string",
          "name": "",
          "type": "string"
        }
      ],
      "stateMutability": "view",
      "type": "function"
    },
    {
      "inputs": [
        {
          "internalType": "uint256",
          "name": "tokenId",
          "type": "uint256"
        }
      ],
      "name": "getTokenImage",
      "outputs": [
        {
          "internalType": "string",
          "name": "",
          "type": "string"
        }
      ],
      "stateMutability": "view",
      "type": "function"
    },
    {
      "inputs": [
        {
          "internalType": "uint256",
          "name": "tokenId",
          "type": "uint256"
        }
      ],
      "name": "getTokenUUID",
      "outputs": [
        {
          "internalType": "string",
          "name": "",
          "type": "string"
        }
      ],
      "stateMutability": "view",
      "type": "function"
    },
    {
      "inputs": [
        {
          "internalType": "bytes32",
          "name": "role",
          "type": "bytes32"
        },
        {
          "internalType": "address",
          "name": "account",
          "type": "address"
        }
      ],
      "name": "grantRole",
      "outputs": [],
      "stateMutability": "nonpayable",
      "type": "function"
    },
    {
      "inputs": [
        {
          "internalType": "bytes32",
          "name": "role",
          "type": "bytes32"
        },
        {
          "internalType": "address",
          "name": "account",
          "type": "address"
        }
      ],
      "name": "hasRole",
      "outputs": [
        {
          "internalType": "bool",
          "name": "",
          "type": "bool"
        }
      ],
      "stateMutability": "view",
      "type": "function"
    },
    {
      "inputs": [
        {
          "internalType": "address",
          "name": "owner_",
          "type": "address"
        },
        {
          "internalType": "address",
          "name": "operator_",
          "type": "address"
        }
      ],
      "name": "isApprovedForAll",
      "outputs": [
        {
          "internalType": "bool",
          "name": "",
          "type": "bool"
        }
      ],
      "stateMutability": "view",
      "type": "function"
    },
    {
      "inputs": [],
      "name": "metadataDescriptor",
      "outputs": [
        {
          "internalType": "contract IERC3525MetadataDescriptor",
          "name": "",
          "type": "address"
        }
      ],
      "stateMutability": "view",
      "type": "function"
    },
    {
      "inputs": [
        {
          "internalType": "address",
          "name": "owner_",
          "type": "address"
        },
        {
          "internalType": "uint256",
          "name": "slot_",
          "type": "uint256"
        },
        {
          "internalType": "uint256",
          "name": "value_",
          "type": "uint256"
        },
        {
          "internalType": "string",
          "name": "uuid_",
          "type": "string"
        },
        {
          "internalType": "string",
          "name": "tokenDescription_",
          "type": "string"
        },
        {
          "internalType": "string",
          "name": "tokenImage_",
          "type": "string"
        },
        {
          "internalType": "string",
          "name": "property_",
          "type": "string"
        }
      ],
      "name": "mint",
      "outputs": [
        {
          "internalType": "uint256",
          "name": "",
          "type": "uint256"
        }
      ],
      "stateMutability": "nonpayable",
      "type": "function"
    },
    {
      "inputs": [],
      "name": "name",
      "outputs": [
        {
          "internalType": "string",
          "name": "",
          "type": "string"
        }
      ],
      "stateMutability": "view",
      "type": "function"
    },
    {
      "inputs": [
        {
          "internalType": "address",
          "name": "owner_",
          "type": "address"
        },
        {
          "internalType": "uint256",
          "name": "slot_",
          "type": "uint256"
        },
        {
          "internalType": "uint256",
          "name": "value_",
          "type": "uint256"
        },
        {
          "internalType": "uint256",
          "name": "discountBasisPts_",
          "type": "uint256"
        },
        {
          "internalType": "string",
          "name": "uuid_",
          "type": "string"
        },
        {
          "internalType": "string",
          "name": "tokenDescription_",
          "type": "string"
        },
        {
          "internalType": "string",
          "name": "tokenImage_",
          "type": "string"
        },
        {
          "internalType": "string",
          "name": "property_",
          "type": "string"
        }
      ],
      "name": "networkMintWithDiscount",
      "outputs": [
        {
          "internalType": "uint256",
          "name": "",
          "type": "uint256"
        }
      ],
      "stateMutability": "nonpayable",
      "type": "function"
    },
    {
      "inputs": [
        {
          "internalType": "address",
          "name": "owner_",
          "type": "address"
        },
        {
          "internalType": "uint256",
          "name": "slot_",
          "type": "uint256"
        },
        {
          "internalType": "uint256",
          "name": "value_",
          "type": "uint256"
        },
        {
          "internalType": "uint256",
          "name": "tVRate_",
          "type": "uint256"
        },
        {
          "internalType": "string",
          "name": "uuid_",
          "type": "string"
        },
        {
          "internalType": "string",
          "name": "tokenDescription_",
          "type": "string"
        },
        {
          "internalType": "string",
          "name": "tokenImage_",
          "type": "string"
        },
        {
          "internalType": "string",
          "name": "property_",
          "type": "string"
        }
      ],
      "name": "networkMintWithTVRate",
      "outputs": [
        {
          "internalType": "uint256",
          "name": "",
          "type": "uint256"
        }
      ],
      "stateMutability": "nonpayable",
      "type": "function"
    },
    {
      "inputs": [
        {
          "internalType": "uint256",
          "name": "tokenId_",
          "type": "uint256"
        }
      ],
      "name": "ownerOf",
      "outputs": [
        {
          "internalType": "address",
          "name": "owner_",
          "type": "address"
        }
      ],
      "stateMutability": "view",
      "type": "function"
    },
    {
      "inputs": [
        {
          "internalType": "uint256",
          "name": "slotId_",
          "type": "uint256"
        }
      ],
      "name": "registerOnSlot",
      "outputs": [],
      "stateMutability": "nonpayable",
      "type": "function"
    },
    {
      "inputs": [
        {
          "internalType": "bytes32",
          "name": "role",
          "type": "bytes32"
        },
        {
          "internalType": "address",
          "name": "account",
          "type": "address"
        }
      ],
      "name": "renounceRole",
      "outputs": [],
      "stateMutability": "nonpayable",
      "type": "function"
    },
    {
      "inputs": [
        {
          "internalType": "bytes32",
          "name": "role",
          "type": "bytes32"
        },
        {
          "internalType": "address",
          "name": "account",
          "type": "address"
        }
      ],
      "name": "revokeRole",
      "outputs": [],
      "stateMutability": "nonpayable",
      "type": "function"
    },
    {
      "inputs": [
        {
          "internalType": "address",
          "name": "from_",
          "type": "address"
        },
        {
          "internalType": "address",
          "name": "to_",
          "type": "address"
        },
        {
          "internalType": "uint256",
          "name": "tokenId_",
          "type": "uint256"
        }
      ],
      "name": "safeTransferFrom",
      "outputs": [],
      "stateMutability": "payable",
      "type": "function"
    },
    {
      "inputs": [
        {
          "internalType": "address",
          "name": "from_",
          "type": "address"
        },
        {
          "internalType": "address",
          "name": "to_",
          "type": "address"
        },
        {
          "internalType": "uint256",
          "name": "tokenId_",
          "type": "uint256"
        },
        {
          "internalType": "bytes",
          "name": "data_",
          "type": "bytes"
        }
      ],
      "name": "safeTransferFrom",
      "outputs": [],
      "stateMutability": "payable",
      "type": "function"
    },
    {
      "inputs": [
        {
          "internalType": "address",
          "name": "operator_",
          "type": "address"
        },
        {
          "internalType": "bool",
          "name": "approved_",
          "type": "bool"
        }
      ],
      "name": "setApprovalForAll",
      "outputs": [],
      "stateMutability": "nonpayable",
      "type": "function"
    },
    {
      "inputs": [
        {
          "internalType": "uint256",
          "name": "tokenId_",
          "type": "uint256"
        }
      ],
      "name": "slotOf",
      "outputs": [
        {
          "internalType": "uint256",
          "name": "",
          "type": "uint256"
        }
      ],
      "stateMutability": "view",
      "type": "function"
    },
    {
      "inputs": [
        {
          "internalType": "uint256",
          "name": "slot_",
          "type": "uint256"
        }
      ],
      "name": "slotURI",
      "outputs": [
        {
          "internalType": "string",
          "name": "",
          "type": "string"
        }
      ],
      "stateMutability": "view",
      "type": "function"
    },
    {
      "inputs": [
        {
          "internalType": "bytes4",
          "name": "interfaceId",
          "type": "bytes4"
        }
      ],
      "name": "supportsInterface",
      "outputs": [
        {
          "internalType": "bool",
          "name": "",
          "type": "bool"
        }
      ],
      "stateMutability": "view",
      "type": "function"
    },
    {
      "inputs": [],
      "name": "symbol",
      "outputs": [
        {
          "internalType": "string",
          "name": "",
          "type": "string"
        }
      ],
      "stateMutability": "view",
      "type": "function"
    },
    {
      "inputs": [
        {
          "internalType": "uint256",
          "name": "index_",
          "type": "uint256"
        }
      ],
      "name": "tokenByIndex",
      "outputs": [
        {
          "internalType": "uint256",
          "name": "",
          "type": "uint256"
        }
      ],
      "stateMutability": "view",
      "type": "function"
    },
    {
      "inputs": [
        {
          "internalType": "address",
          "name": "owner_",
          "type": "address"
        },
        {
          "internalType": "uint256",
          "name": "index_",
          "type": "uint256"
        }
      ],
      "name": "tokenOfOwnerByIndex",
      "outputs": [
        {
          "internalType": "uint256",
          "name": "",
          "type": "uint256"
        }
      ],
      "stateMutability": "view",
      "type": "function"
    },
    {
      "inputs": [
        {
          "internalType": "uint256",
          "name": "tokenId_",
          "type": "uint256"
        }
      ],
      "name": "tokenURI",
      "outputs": [
        {
          "internalType": "string",
          "name": "",
          "type": "string"
        }
      ],
      "stateMutability": "view",
      "type": "function"
    },
    {
      "inputs": [],
      "name": "totalSupply",
      "outputs": [
        {
          "internalType": "uint256",
          "name": "",
          "type": "uint256"
        }
      ],
      "stateMutability": "view",
      "type": "function"
    },
    {
      "inputs": [
        {
          "internalType": "uint256",
          "name": "fromTokenId_",
          "type": "uint256"
        },
        {
          "internalType": "address",
          "name": "to_",
          "type": "address"
        },
        {
          "internalType": "uint256",
          "name": "value_",
          "type": "uint256"
        }
      ],
      "name": "transferFrom",
      "outputs": [
        {
          "internalType": "uint256",
          "name": "",
          "type": "uint256"
        }
      ],
      "stateMutability": "payable",
      "type": "function"
    },
    {
      "inputs": [
        {
          "internalType": "address",
          "name": "from_",
          "type": "address"
        },
        {
          "internalType": "address",
          "name": "to_",
          "type": "address"
        },
        {
          "internalType": "uint256",
          "name": "tokenId_",
          "type": "uint256"
        }
      ],
      "name": "transferFrom",
      "outputs": [],
      "stateMutability": "payable",
      "type": "function"
    },
    {
      "inputs": [
        {
          "internalType": "uint256",
          "name": "fromTokenId_",
          "type": "uint256"
        },
        {
          "internalType": "uint256",
          "name": "toTokenId_",
          "type": "uint256"
        },
        {
          "internalType": "uint256",
          "name": "value_",
          "type": "uint256"
        }
      ],
      "name": "transferFrom",
      "outputs": [],
      "stateMutability": "payable",
      "type": "function"
    },
    {
      "inputs": [],
      "name": "valueDecimals",
      "outputs": [
        {
          "internalType": "uint8",
          "name": "",
          "type": "uint8"
        }
      ],
      "stateMutability": "view",
      "type": "function"
    }
  ],
  "bytecode": "0x60808060405234620008b457600062006f618038038091620000228286620008eb565b8439820161016083820312620008b0576200003d836200090f565b506200004c602084016200090f565b926200005b604082016200090f565b916200006a606083016200090f565b9260808301519260a081015160018060401b038111620008ac57836200009291830162000949565b60c08201519093906001600160401b038111620008a85781620000b791840162000949565b60e08301519095906001600160401b038111620005b85782620000dc91850162000949565b6101008401519096906001600160401b038111620008a457836200010291860162000949565b6101208501519093906001600160401b038111620008a057610140916200012b91870162000949565b94015160ff811603620005b857604051956200014787620008b9565b60088752677072696f7269747960c01b60208801528051906001600160401b0382116200088c578a54600181811c9116801562000881575b60208210146200086d579081601f84931162000819575b50602090601f8311600114620007ab578c926200079f575b50508160011b916000199060031b1c19161789555b8051906001600160401b0382116200078b57600154600181811c9116801562000780575b60208210146200076c579081601f8493116200070c575b50602090601f831160011462000690578b9262000684575b50508160011b916000199060031b1c1916176001555b6002805460ff19166006179055600b819055600c54600a80546001600160a01b0319166001600160a01b038c161790556040518651602080830192916200028d919083906200027f81878e860162000924565b8101038084520182620008eb565b5190209560405196602088016374696d6560e01b8152600498898152620002b481620008b9565b51902003620005cf575088945b86861015620005bc576001600160a81b03199091166001600160a01b0390911690811760a095861b60ff60a01b1617600c81905590941c60ff16843b15620005b8576040516394b39b0960e01b81526001600160a01b038b1687820152602481019290925285811015620005a5576044820152878160648183885af180156200059a576200056a575b50604051946120b7808701956001600160401b0387118888101762000557575092620003a360609362000394620003b2948a99989762004e6a8b39608089526080890190620009a4565b908782036020890152620009a4565b908582036040870152620009a4565b920152039083f080156200054c57600880546001600160a01b0319166001600160a01b039283161790557f1cd6d520d98babae1045eb69c31ecab800996aa332094cb55c0ac10362e9b0c980845260096020908152604080862094909316600081815294909152919092205460ff16156200050c575b50507f9a95e87c5af084bf5db8491c3a6515da9dd6da39b24b0eb0af08d7b9cd808d9180825260096020526040822060018060a01b03841660005260205260ff6040600020541615620004bb575b7f9ac4f8025631594629895b778dc5ee88d01673a254a2291f6b6b174ad25230ca602060018060a01b0360085416604051908152a160405161449e9081620009cc8239f35b8082526009602090815260408084206001600160a01b0395909516600081815295909252909320805460ff1916600117905533929160008051602062006f218339815191529080a438808062000476565b818352600960205260408320816000526020526040600020600160ff19825416179055339160008051602062006f218339815191528480a4388062000428565b6040513d84823e3d90fd5b634e487b7160e01b8a5260419052602489fd5b9096906001600160401b038111620005875760405295386200034a565b634e487b7160e01b825260418552602482fd5b6040513d8a823e3d90fd5b634e487b7160e01b895260218652602489fd5b8880fd5b634e487b7160e01b8a526021875260248afd5b6040516020810190620005ef60208285516200027f8187858a0162000924565b5190206040516020810190630c6c2e6d60e31b82528981526200061281620008b9565b5190200362000626575060015b94620002c1565b60405162000646602082816200027f818301968781519384920162000924565b5190206040516020810190646974656d7360d81b8252600581526200066b81620008b9565b519020036200067c5760026200061f565b60036200061f565b01519050388062000216565b60018c528b935060008051602062006f4183398151915291905b601f1984168510620006f0576001945083601f19811610620006d6575b505050811b016001556200022c565b015160001960f88460031b161c19169055388080620006c7565b81810151835560209485019460019093019290910190620006aa565b60018c5290915060008051602062006f41833981519152601f840160051c81016020851062000764575b90849392915b8d601f840160051c830182106200075657505050620001fe565b81558594506001016200073c565b508062000736565b634e487b7160e01b8b52602260045260248bfd5b90607f1690620001e7565b634e487b7160e01b8a52604160045260248afd5b015190503880620001ae565b92508b805260208c20908c935b601f1984168510620007fd576001945083601f19811610620007e3575b505050811b018955620001c3565b015160001960f88460031b161c19169055388080620007d5565b81810151835560209485019460019093019290910190620007b8565b9091508b805260208c20601f840160051c81016020851062000865575b84939291908e5b601f840160051c83018210620008565750505062000196565b81558594506001018e6200083d565b508062000836565b634e487b7160e01b8c52602260045260248cfd5b90607f16906200017f565b634e487b7160e01b8b52604160045260248bfd5b8a80fd5b8980fd5b8780fd5b8680fd5b5080fd5b600080fd5b604081019081106001600160401b03821117620008d557604052565b634e487b7160e01b600052604160045260246000fd5b601f909101601f19168101906001600160401b03821190821017620008d557604052565b51906001600160a01b0382168203620008b457565b60005b838110620009385750506000910152565b818101518382015260200162000927565b81601f82011215620008b45780516001600160401b038111620008d5576040519262000980601f8301601f191660200185620008eb565b81845260208284010111620008b457620009a1916020808501910162000924565b90565b90602091620009bf8151809281855285808601910162000924565b601f01601f191601019056fe608080604052600436101561001357600080fd5b600090813560e01c90816301ffc9a714611d765750806306fdde0314611cb6578063081812fc14611c97578063095ea7b314611b6157806309c3dd87146118905780630f485c021461184f5780631375d843146117e95780631429fb571461174e57806318160ddd1461173057806323b872dd1461170b578063248a9ca3146116de578063263f3e7e146116bf5780632f2ff15d146116105780632f745c5914611567578063310ed7f01461147d57806331b5b907146113eb57806336568abe146113585780633e7e86691461133757806341815ee41461123c57806342842e0e146112195780634f6ccce714611194578063505a38531461117657806353a3a30014610ff55780636352211e14610fc457806370a0823114610fa057806371f0442e14610f3a5780637795524514610f11578063840f711314610ee857806389e2920414610d925780638cb0a51114610c5057806391d1485414610c0457806395d89b4114610af85780639cc7f70814610ad9578063a217fddf14610abd578063a22cb465146109e8578063a74cfaa01461094d578063a7c9f2d614610912578063aa20ce551461065e578063b3154c08146105f8578063b88d4fde14610599578063be950a621461044f578063c87b56dd146103ba578063d09445c21461037f578063d547741f1461033e578063e345e0bc1461030f578063e8a3d4851461027f5763e985e9c51461022657600080fd5b3461027c57604036600319011261027c5761023f611e13565b6002604061024b611e29565b9360018060a01b038094168152600760205220019116600052602052602060ff604060002054166040519015158152f35b80fd5b503461027c578060031936011261027c57600854604051631c97e82760e21b8152908290829060049082906001600160a01b03165afa90811561030457826102dd93926102e1575b5050604051918291602083526020830190611dee565b0390f35b6102fd92503d8091833e6102f58183611ee3565b81019061246a565b38806102c7565b6040513d84823e3d90fd5b503461027c57604036600319011261027c57602061033661032e611e29565b60043561439d565b604051908152f35b503461027c57604036600319011261027c5761037c60043561035e611e29565b908084526009602052610377600160408620015461203d565b61235e565b80f35b503461027c578060031936011261027c5760206040517f9a95e87c5af084bf5db8491c3a6515da9dd6da39b24b0eb0af08d7b9cd808d918152f35b503461027c57602036600319011261027c576004356103d881614134565b801561043b575b6103e89061267f565b6008546040516344a5a61760e11b815260048101929092528290829060249082906001600160a01b03165afa90811561030457826102dd93926102e1575050604051918291602083526020830190611dee565b506103e861044882614162565b90506103df565b503461027c57602036600319011261027c577f9a95e87c5af084bf5db8491c3a6515da9dd6da39b24b0eb0af08d7b9cd808d9181526009602052604081203360005260205260ff604060002054161561052e57600c54600a546001600160a01b03808316939291169060a01c60ff16833b1561052a57604051916394b39b0960e01b83526004830152600435602483015260048110156105165781606481858097819560448401525af18015610304576105065750f35b61050f90611e69565b61027c5780f35b634e487b7160e01b83526021600452602483fd5b8280fd5b60405162461bcd60e51b815260206004820152603760248201527f53656e646572206e6f7420617574686f72697a656420746f207265676973746560448201527f7220636f6e747261637420746f207468697320736c6f740000000000000000006064820152608490fd5b50608036600319011261027c576105ae611e13565b6105b6611e29565b606435916001600160401b0383116105f457366023840112156105f4576105ea61037c933690602481600401359101611f1f565b91604435916125a8565b8380fd5b503461027c57602036600319011261027c57600854604051631662a98160e31b81526004803590820152908290829060249082906001600160a01b03165afa90811561030457826102dd93926102e1575050604051918291602083526020830190611dee565b503461027c5760208161067036611fa9565b6003805460010190819055600c54604051630151086360e31b81526001600160a01b039a8b166004820152602481019990995260448901979097526064880195909552939893969095919492939192839160849183918b91165af19081156109075786916108cd575b50868652600d60205260408620556008546001600160a01b0316803b156108c95761072c8692918392604051948580948193632108947560e21b83528d6004840152604060248401526044830190611dee565b03925af19081156108be5785916108aa575b50506008546001600160a01b0316803b156108a657610785859291839260405194858094819363246a908b60e01b83528c6004840152604060248401526044830190611dee565b03925af190811561089b578491610887575b50506008546001600160a01b0316803b156105f4576107de8492918392604051948580948193630190503b60e61b83528b6004840152604060248401526044830190611dee565b03925af1908115610868578391610873575b50506008546001600160a01b031690813b1561052a57829161083691604051948580948193637e468a5160e01b8352896004840152604060248401526044830190611dee565b03925af1801561086857610850575b602082604051908152f35b61085a8391611e69565b6108645781610845565b5080fd5b6040513d85823e3d90fd5b61087c90611e69565b6108645781386107f0565b61089090611e69565b61052a578238610797565b6040513d86823e3d90fd5b8480fd5b6108b390611e69565b6105f457833861073e565b6040513d87823e3d90fd5b8580fd5b9550506020853d6020116108ff575b816108e960209383611ee3565b810103126108fa57869451386106d9565b600080fd5b3d91506108dc565b6040513d88823e3d90fd5b503461027c578060031936011261027c5760206040517f1cd6d520d98babae1045eb69c31ecab800996aa332094cb55c0ac10362e9b0c98152f35b503461027c5760c036600319011261027c57610967611e13565b906001600160401b0360443581811161052a57610988903690600401611f56565b6064358281116105f4576109a0903690600401611f56565b916084358181116108a6576109b9903690600401611f56565b9360a43591821161027c576020610336878787876109da3660048a01611f56565b936005549060243590612d25565b503461027c57604036600319011261027c57610a02611e13565b6024359081151580920361052a576001600160a01b031690338214610a785733835260076020526002604084200182600052602052604060002060ff1981541660ff83161790556040519081527f17307eab39ab6107e8899845ad3d59bd9653f200f220920489ca2b5937696c3160203392a380f35b60405162461bcd60e51b815260206004820152601a60248201527f455243333532353a20617070726f766520746f2063616c6c65720000000000006044820152606490fd5b503461027c578060031936011261027c57602090604051908152f35b503461027c57602036600319011261027c57602061033660043561421b565b503461027c578060031936011261027c57604051908060019182549283811c92818516948515610bfa575b6020958686108114610be657858852879493929187908215610bc4575050600114610b6b575b5050610b5792500383611ee3565b6102dd604051928284938452830190611dee565b908592508082527fb10e2d527612073b26eecdfd717e6a320cf44b4afac2b0732d9fcbe2b7fa0cf65b858310610bac575050610b5793508201013880610b49565b80548389018501528794508693909201918101610b94565b9250935050610b5794915060ff191682840152151560051b8201013880610b49565b634e487b7160e01b83526022600452602483fd5b93607f1693610b23565b503461027c57604036600319011261027c576040610c20611e29565b9160043581526009602052209060018060a01b0316600052602052602060ff604060002054166040519015158152f35b50610c5a36611e3f565b90610c64836141d8565b83610c6e84614134565b80610d7f575b15610d115750610c9a6001600160a01b0380610c8f866126cb565b169083161415612628565b610ca48333612785565b15610cb25761037c926139bb565b60405162461bcd60e51b815260206004820152603160248201527f455243333532353a20617070726f76652063616c6c6572206973206e6f74206f6044820152701ddb995c881b9bdc88185c1c1c9bdd9959607a1b6064820152608490fd5b600c54938152600d60205260408120549093919290916001600160a01b0316803b156108a657604051638cb0a51160e01b815260048101939093526001600160a01b0393909316602483015260448201529082908290606490829084905af180156103045761050657505080f35b50610d8984612443565b600b5414610c74565b503461027c57610da136611fa9565b94969560ff600295929594939454169160018060a01b03600c541690604d8411610ed45783600a0a15610ebe57604051632d2a246560e01b81526001600160a01b039990991660048a015260248901929092526044880198909852600a9190910a9004606486015293948694906020908790608490829089905af19586156108be578596610e87575b506001600354019586600355868652600d602052604086205560018060a01b0360085416803b156108c95761072c8692918392604051948580948193632108947560e21b83528d6004840152604060248401526044830190611dee565b945094506020843d602011610eb6575b81610ea460209383611ee3565b810103126108fa578593519438610e2a565b3d9150610e97565b634e487b7160e01b600052601260045260246000fd5b634e487b7160e01b8b52601160045260248bfd5b503461027c578060031936011261027c576008546040516001600160a01b039091168152602090f35b503461027c578060031936011261027c57600a546040516001600160a01b039091168152602090f35b503461027c57602036600319011261027c576008546040516338f8221760e11b81526004803590820152908290829060249082906001600160a01b03165afa90811561030457826102dd93926102e1575050604051918291602083526020830190611dee565b503461027c57602036600319011261027c576020610336610fbf611e13565b6124c8565b503461027c57602036600319011261027c576020610fe36004356142cd565b6040516001600160a01b039091168152f35b503461027c5760208060031936011261086457600554906004358215611131578061102261103092612736565b929054600393841b1c6131dc565b83811061103b578480f35b60019081810180821161111d57858110611060575b5061105b9150612b08565b611030565b61106981612736565b905490851b1c90611079826126cb565b5061108382612443565b508160005260068652600261109c604060002054612408565b5001908154928584018094116111075760006000805160206144298339815191528961105b98611101976110d79755604051908152a3612736565b905490851b1c6110e683612736565b90919082549060031b600019811b9283911b16911916179055565b38611050565b634e487b7160e01b600052601160045260246000fd5b634e487b7160e01b87526011600452602487fd5b60405162461bcd60e51b815260048101839052601a60248201527f4f726465724372656469743a204c69737420697320656d7074790000000000006044820152606490fd5b503461027c578060031936011261027c576020600b54604051908152f35b503461027c57602036600319011261027c576004356005548110156111c8576111be602091612408565b5054604051908152f35b60405162461bcd60e51b815260206004820152602360248201527f455243333532353a20676c6f62616c20696e646578206f7574206f6620626f756044820152626e647360e81b6064820152608490fd5b5061037c61122636611f74565b906040519261123484611ec8565b8584526125a8565b503461027c578060031936011261027c5760ff600c5460a01c16600481101561132357600381036112a25750506102dd60405161127881611ead565b60088152677072696f7269747960c01b60208201525b604051918291602083526020830190611dee565b806112ce5750506102dd6040516112b881611ead565b600481526374696d6560e01b602082015261128e565b6002141590506112fe576102dd6040516112e781611ead565b60058152646974656d7360d81b602082015261128e565b6102dd60405161130d81611ead565b60048152630c6c2e6d60e31b602082015261128e565b634e487b7160e01b82526021600452602482fd5b503461027c578060031936011261027c57602060ff60025416604051908152f35b503461027c57604036600319011261027c57611372611e29565b336001600160a01b0382160361138e5761037c9060043561235e565b60405162461bcd60e51b815260206004820152602f60248201527f416363657373436f6e74726f6c3a2063616e206f6e6c792072656e6f756e636560448201526e103937b632b9903337b91039b2b63360891b6064820152608490fd5b503461027c57602036600319011261027c57806004356001600160401b03811161147a5761141d903690600401611f56565b6008546001600160a01b031690813b1561147657829161145b916040519485809481936355f804b360e01b8352602060048401526024830190611dee565b03925af180156103045761146d575080f35b61037c90611e69565b5050fd5b50fd5b50606036600319011261027c576044356024356004356114a661149f8261421b565b841461350d565b6114af8261421b565b916114b9816141d8565b808552600660205260026114d06040872054612408565b5001938454908482106115165761037c956114ee8661151194612a18565b905586836000805160206144298339815191526020604051898152a38284613f75565b613f75565b60405162461bcd60e51b815260206004820152602360248201527f455243333532353a206275726e2076616c756520657863656564732062616c616044820152626e636560e81b6064820152608490fd5b503461027c57604036600319011261027c57611581611e13565b9060243561158e836124c8565b8110156115c05760406115b29260209460018060a01b03168152600785522061276d565b90546040519160031b1c8152f35b60405162461bcd60e51b815260206004820152602260248201527f455243333532353a206f776e657220696e646578206f7574206f6620626f756e604482015261647360f01b6064820152608490fd5b503461027c57604036600319011261027c5760043561162d611e29565b8183526009602052611645600160408520015461203d565b8183526009602052604083209060018060a01b03169081845260205260ff60408420541615611672578280f35b81835260096020526040832081845260205260408320600160ff1982541617905533917f2f8788117e7eff1d82e926ec794901d17c78024a50270940304540a733656f0d8480a438808280f35b503461027c57602036600319011261027c576020610336600435612443565b503461027c57602036600319011261027c5760016040602092600435815260098452200154604051908152f35b5061037c61171836611f74565b9161172b6117268433612785565b612541565b6127f6565b503461027c578060031936011261027c576020600554604051908152f35b503461027c5760e036600319011261027c57611768611e13565b906001600160401b0360643581811161052a57611789903690600401611f56565b6084358281116105f4576117a1903690600401611f56565b9160a4358181116108a6576117ba903690600401611f56565b9360c43591821161027c576020610336878787876117db3660048a01611f56565b936044359060243590612d25565b503461027c57602036600319011261027c57600854604051631375d84360e01b81526004803590820152908290829060249082906001600160a01b03165afa90811561030457826102dd93926102e1575050604051918291602083526020830190611dee565b60206110e661033661188361188b61186636611e3f565b82949161187d611876839561421b565b831461350d565b85613572565b948591612736565b6131dc565b503461027c576020908160031936011261027c5760043560018060a01b036008541690604051636c0360eb60e01b81528381600481865afa90811561089b578491611b47575b50821561194657508290602460405180948193633601bfc560e11b835260048301525afa91821561193a57809261191f575b5050906102dd604051928284938452830190611dee565b61193392503d8091833e6102f58183611ee3565b3880611908565b604051903d90823e3d90fd5b80519093925015611b0e578190807a184f03e93ff9f4daa797ed6e38ed64bf6a1f0100000000000000008181811015611b00575b5050856d04ee2d6d415b85acef810000000080841015611af2575b5050662386f26fc1000080831015611ae3575b506305f5e10080831015611ad4575b5061271080831015611ac5575b506064821015611ab5575b600a80921015611aab575b60019081602181860195611a066119f088611f04565b976119fe604051998a611ee3565b808952611f04565b878b019890601f1901368a3750860101905b611a75575b50505050611a6092611a6f926025926040519583611a4488955180928b8089019101611dcb565b84019164736c6f742f60d81b8984015251809386840190611dcb565b01036005810184520182611ee3565b90610b57565b600019019083906f181899199a1a9b1b9c1cb0b131b232b360811b8282061a835304918215611aa657919082611a18565b611a1d565b91600101916119da565b91906064600291049101916119cf565b600491939204910191386119c4565b600891939204910191386119b7565b601091939204910191386119a8565b930192909104908538611995565b60409450049150388061197a565b5060405191508282016001600160401b03811183821017611b33576040528152611a6f565b634e487b7160e01b82526041600452602482fd5b611b5b91503d8086833e6102f58183611ee3565b386118d6565b50604036600319011261027c57611b76611e13565b602435906001600160a01b038080611b8d856126cb565b16921691611b9d81841415612628565b803314908115611c73575b5015611c085782845260066020526004611bc56040862054612408565b500180546001600160a01b03191683179055611be0836126cb565b167f8c5be1e5ebec7d5bd14f71427d1e84f3dd0314c0f7b2291e5b200ac8c7c3b9258480a480f35b60405162461bcd60e51b815260206004820152603960248201527f455243333532353a20617070726f76652063616c6c6572206973206e6f74206f60448201527f776e6572206e6f7220617070726f76656420666f7220616c6c000000000000006064820152608490fd5b9050845260076020526002604085200133855260205260ff60408520541638611ba8565b503461027c57602036600319011261027c576020610fe3600435612706565b503461027c578060031936011261027c576040519080805491600183811c92818516948515611d6c575b6020958686108114610be657858852879493929187908215610bc4575050600114611d13575050610b5792500383611ee3565b908592508180527f290decd9548b62a8d60345a988386fc84ba6bc95484008f6362f93160ef3e5635b858310611d54575050610b5793508201013880610b49565b80548389018501528794508693909201918101611d3c565b93607f1693611ce0565b9050346108645760203660031901126108645760043563ffffffff60e01b811680910361052a5760209250637965db0b60e01b8114908115611dba575b5015158152f35b6301ffc9a760e01b14905038611db3565b60005b838110611dde5750506000910152565b8181015183820152602001611dce565b90602091611e0781518092818552858086019101611dcb565b601f01601f1916010190565b600435906001600160a01b03821682036108fa57565b602435906001600160a01b03821682036108fa57565b60609060031901126108fa57600435906024356001600160a01b03811681036108fa579060443590565b6001600160401b038111611e7c57604052565b634e487b7160e01b600052604160045260246000fd5b60c081019081106001600160401b03821117611e7c57604052565b604081019081106001600160401b03821117611e7c57604052565b602081019081106001600160401b03821117611e7c57604052565b90601f801991011681019081106001600160401b03821117611e7c57604052565b6001600160401b038111611e7c57601f01601f191660200190565b929192611f2b82611f04565b91611f396040519384611ee3565b8294818452818301116108fa578281602093846000960137010152565b9080601f830112156108fa57816020611f7193359101611f1f565b90565b60609060031901126108fa576001600160a01b039060043582811681036108fa579160243590811681036108fa579060443590565b6101006003198201126108fa576004356001600160a01b03811681036108fa57916024359160443591606435916001600160401b03906084358281116108fa5781611ff691600401611f56565b9260a4358381116108fa578261200e91600401611f56565b9260c4358181116108fa578361202691600401611f56565b9260e4359182116108fa57611f7191600401611f56565b60009080825260209060098252604092838120338252835260ff8482205416156120675750505050565b8351916001600160401b039033606085018381118682101761234a578752602a855285850191873684378551156123365760308353855191600192831015612322576078602188015360295b8381116122cc575061228a579087519360808501908582109082111761227657885260428452868401946060368737845115612262576030865384518210156122625790607860218601536041915b8183116121f4575050506121b2576121ae9386936121929361218360489461215a9a519a8b957f416363657373436f6e74726f6c3a206163636f756e74200000000000000000008c8801525180926037880190611dcb565b8401917001034b99036b4b9b9b4b733903937b6329607d1b603784015251809386840190611dcb565b01036028810187520185611ee3565b5192839262461bcd60e51b845260048401526024830190611dee565b0390fd5b60648587519062461bcd60e51b825280600483015260248201527f537472696e67733a20686578206c656e67746820696e73756666696369656e746044820152fd5b909192600f8116601081101561224e576f181899199a1a9b1b9c1cb0b131b232b360811b901a61222485886123e1565b5360041c92801561223a57600019019190612102565b634e487b7160e01b82526011600452602482fd5b634e487b7160e01b83526032600452602483fd5b634e487b7160e01b81526032600452602490fd5b634e487b7160e01b86526041600452602486fd5b60648789519062461bcd60e51b825280600483015260248201527f537472696e67733a20686578206c656e67746820696e73756666696369656e746044820152fd5b90600f8116601081101561230e576f181899199a1a9b1b9c1cb0b131b232b360811b901a6122fa838a6123e1565b5360041c90801561111d57600019016120b3565b634e487b7160e01b88526032600452602488fd5b634e487b7160e01b86526032600452602486fd5b634e487b7160e01b85526032600452602485fd5b634e487b7160e01b85526041600452602485fd5b906000918083526009602052604083209160018060a01b03169182845260205260ff60408420541661238f57505050565b8083526009602052604083208284526020526040832060ff1981541690557ff6391f5c32d9c69d2a47ea670b442974b53935d1edc7fd64eb21e047a839171b339380a4565b9190820180921161110757565b9081518110156123f2570160200190565b634e487b7160e01b600052603260045260246000fd5b6005548110156123f2576006906005600052027f036b6384b5eca791c62761152d0c79bb0604c104a5fb6f4eb0703f3154bb3db00190600090565b61244c816141d8565b60005260066020526001612464604060002054612408565b50015490565b6020818303126108fa578051906001600160401b0382116108fa570181601f820112156108fa57805161249c81611f04565b926124aa6040519485611ee3565b818452602082840101116108fa57611f719160208085019101611dcb565b6001600160a01b031680156124e857600052600760205260406000205490565b60405162461bcd60e51b815260206004820152602b60248201527f455243333532353a2062616c616e636520717565727920666f7220746865207a60448201526a65726f206164647265737360a81b6064820152608490fd5b1561254857565b60405162461bcd60e51b815260206004820152603260248201527f455243333532353a207472616e736665722063616c6c6572206973206e6f74206044820152711bdddb995c881b9bdc88185c1c1c9bdd995960721b6064820152608490fd5b906125cc9392916125bc6117268433612785565b6125c78383836127f6565b612bd7565b156125d357565b60405162461bcd60e51b815260206004820152602760248201527f455243333532353a207472616e7366657220746f206e6f6e204552433732315260448201526632b1b2b4bb32b960c91b6064820152608490fd5b1561262f57565b60405162461bcd60e51b815260206004820152602260248201527f455243333532353a20617070726f76616c20746f2063757272656e74206f776e60448201526132b960f11b6064820152608490fd5b1561268657565b60405162461bcd60e51b815260206004820152601960248201527f455243333532353a20696e76616c696420746f6b656e204944000000000000006044820152606490fd5b6126d4816141d8565b60005260066020526126ea604060002054612408565b50600301546001600160a01b03169061270482151561267f565b565b61270f816141d8565b6000526006602052612725604060002054612408565b50600401546001600160a01b031690565b600e548110156123f257600e6000527fbb7b4a454dc3493923482f07822329ed19e8244eff582cc204f8554c3620c3fd0190600090565b80548210156123f25760005260206000200190600090565b906001600160a01b038080612799846126cb565b169316918383149384156127cc575b5083156127b6575b50505090565b6127c291929350612706565b16143880806127b0565b909350600052600760205260026040600020018260005260205260ff6040600020541692386127a8565b6127ff836126cb565b6001600160a01b0380831692918116839003612910578084169384156128bd57856128b9916128b4826000805160206144498339815191529661284182612443565b5061284b82612961565b508160008098828252600660205260046128686040842054612408565b500180546001600160a01b0319169055612881836126cb565b167f8c5be1e5ebec7d5bd14f71427d1e84f3dd0314c0f7b2291e5b200ac8c7c3b9258280a46128af82612b17565b612a25565b612982565b80a4565b60405162461bcd60e51b815260206004820152602560248201527f455243333532353a207472616e7366657220746f20746865207a65726f206164604482015264647265737360d81b6064820152608490fd5b60405162461bcd60e51b8152602060048201526024808201527f455243333532353a207472616e736665722066726f6d20696e76616c6964206f6044820152633bb732b960e11b6064820152608490fd5b61296a816141d8565b60005260066020526002612464604060002054612408565b6000908282526006602052600361299c6040842054612408565b500180546001600160a01b0319166001600160a01b0390921691821790558082526007602081815260408085208054878752600191909101835281862055928452528120805491600160401b831015612a045750816110e6916001612704959401815561276d565b634e487b7160e01b81526041600452602490fd5b9190820391821161110757565b60009082825260066020526003612a3f6040842054612408565b500180546001600160a01b03191690556001600160a01b0316815260076020526040812080546000199391929190848101908111612af457612a81908461276d565b90549060031b1c6001840182845280602052604084205491612aa7816110e6858961276d565b8452602052604083205581528060408120558154908115612ae05750820191612ad0838361276d565b909182549160031b1b1916905555565b634e487b7160e01b81526031600452602490fd5b634e487b7160e01b83526011600452602483fd5b60001981146111075760010190565b60008181526020600681526040926005612b3385852054612408565b500193845491845b838110612b79575050505082549282815583612b58575b50505050565b82528120918201915b828110612b6e5780612b52565b818155600101612b61565b80612b87612bb2928961276d565b90548489526004885285892060039290921b1c6001600160a01b031688528652838720879055612b08565b612b3b565b908160209103126108fa57516001600160e01b0319811681036108fa5790565b92939290803b15612d1c5793600091612c2e9560405180948193630a85bd0160e11b9788845233600485015260018060a01b0380921660248501526044840152608060648401528260209a8b976084830190611dee565b0393165af160009181612ced575b50612cde57833d15612cd6573d90612c5382611f04565b91612c616040519384611ee3565b82523d60008284013e5b81519182612cd35760405162461bcd60e51b815260048101839052603260248201527f4552433732313a207472616e7366657220746f206e6f6e20455243373231526560448201527131b2b4bb32b91034b6b83632b6b2b73a32b960711b6064820152608490fd5b01fd5b606090612c6b565b6001600160e01b031916149150565b612d0e919250853d8711612d15575b612d068183611ee3565b810190612bb7565b9038612c3c565b503d612cfc565b50600193505050565b9193959490929460055495600092878703613171576003805460010190819055986001600160a01b03928684168015613122578b156130d357612d678c614134565b80156130c4575b61307f576040978c8951612d8181611ec8565b8981528a5191612d9083611e92565b82528b6020830152898b83015283606083015289608083015260a08201528d895260066020528c8a8a2055600160401b9c8d81101561306b578e93926128b4612dea93612de4846001899601600555612408565b90613404565b876000805160206144498339815191528180a487868c7fe4f48c240d3b994948aa54f3e2f5fca59263dfe1d52b6e4cf39a5d249b5ccb658280a48a865260066020526002612e3a88882054612408565b5001612e478a82546123d4565b90558a8660008051602061442983398151915260208a518d8152a38360085416803b1561306757612e9e91879189838f825196879586948593632108947560e21b8552600485015260248401526044830190611dee565b03925af1801561305d5761304a575b508260085416803b156108c957612ee99186918c838a5180968195829463246a908b60e01b845260048401528d60248401526044830190611dee565b03925af180156130405790859161302c575b50508160085416803b156108a657612f389185918b838951809681958294630190503b60e61b845260048401528c60248401526044830190611dee565b03925af180156130225790849161300e575b505060085416803b1561052a57612f8691839189838751809681958294637e468a5160e01b845260048401528a60248401526044830190611dee565b03925af1801561300457612ff0575b505051848152602081019190915260408101919091527f84eeb48eca46cea54afc9753345f6038981672ea565f32885420829dfd88aea690606090a1600e5490811015611e7c57816110e6826001611f719401600e55612736565b612ffa8291611e69565b61027c5780612f95565b83513d84823e3d90fd5b61301790611e69565b61052a578238612f4a565b85513d86823e3d90fd5b61303590611e69565b6105f4578338612efb565b86513d87823e3d90fd5b61305690959195611e69565b9338612ead565b87513d88823e3d90fd5b8680fd5b634e487b7160e01b8a52604160045260248afd5b60405162461bcd60e51b815260206004820152601d60248201527f455243333532353a20746f6b656e20616c7265616479206d696e7465640000006044820152606490fd5b506130ce8c614162565b612d6e565b60405162461bcd60e51b815260206004820152602160248201527f455243333532353a2063616e6e6f74206d696e74207a65726f20746f6b656e496044820152601960fa1b6064820152608490fd5b60405162461bcd60e51b815260206004820152602160248201527f455243333532353a206d696e7420746f20746865207a65726f206164647265736044820152607360f81b6064820152608490fd5b60405162461bcd60e51b815260206004820152603c60248201527f4f726465724372656469743a204e657720746f6b656e732063616e206f6e6c7960448201527f206d696e7420746f2074686520656e64206f6620746865206c697374000000006064820152608490fd5b6131e5816141d8565b60008181526020600681526040906131ff82842054612408565b509060018060a01b03806003840154169360016002818601549501549261322589612b17565b61322f8988612a25565b600554600019918282019182116133f0578a8a5260068752868a6132568782205494612408565b5092600588519461326686611e92565b80548652888101548587015260028101548a8701528260038201541660608701528260048201541660808701520188518094859381845493848152019386528a82872096925b8484106133d35750505050506132c492500382611ee3565b60a08201526132d681612de484612408565b5189526006865283892055888852878381205560055480156133bf5701906132fd82612408565b6133ab57918896959391600584898d9896558983820155896002820155896003820155896004820155018054908981558161338a575b5050506005555190815284929160008051602061442983398151915291a3847fe4f48c240d3b994948aa54f3e2f5fca59263dfe1d52b6e4cf39a5d249b5ccb658380a46000805160206144498339815191528280a4565b8952858920908101905b81811015613333579889558a988c97508201613394565b634e487b7160e01b89526004899052602489fd5b634e487b7160e01b89526031600452602489fd5b875483168652968101968896509094019391909101908a8e6132ac565b634e487b7160e01b8a52601160045260248afd5b91906134f757805182556020908181015192600193848201556040820151600282015560a060056003830192600180841b039384606087015116906bffffffffffffffffffffffff851b91828254161790556004820190856080880151169082541617905501920151928351936001600160401b038511611e7c57600160401b8511611e7c57819084548686558087106134ca575b500192600052806000209160005b8581106134b75750505050505050565b84518216848201559382019386016134a7565b6000868152888885832093840193015b8381106134e957505050613499565b8281558695508a91016134da565b634e487b7160e01b600052600060045260246000fd5b1561351457565b60405162461bcd60e51b815260206004820152603060248201527f4f726465724372656469743a206f6e6c7920656e746972652076616c7565206360448201526f185b881899481d1c985b9cd9995c995960821b6064820152608490fd5b919091600090808252602091600d835260409283822054156000146138115761359c8584336138f4565b60016003540195866003556135b084612443565b906001600160a01b0381169081156137c3578815613775576135d189614134565b8015613766575b6137225786516135e781611ec8565b8581528751906135f682611e92565b8a82528486830152868983015283606083015286608083015260a08201526005548a8752600686528089882055600160401b81101561370e57947f6d811e6a20ae5461a4ef22a6998c1d958defe727f1cc522b6eb792bc8e6f7266999897948b8095613687826137089b976128b460008051602061442983398151915298612de48e6136eb9f600101600555612408565b856000805160206144498339815191528180a483857fe4f48c240d3b994948aa54f3e2f5fca59263dfe1d52b6e4cf39a5d249b5ccb658280a4838352600681526136d388842054612408565b50508751838152a36136e6858883613b8d565b612443565b915192839286846040919493926060820195825260208201520152565b0390a190565b634e487b7160e01b87526041600452602487fd5b865162461bcd60e51b815260048101859052601d60248201527f455243333532353a20746f6b656e20616c7265616479206d696e7465640000006044820152606490fd5b5061377089614162565b6135d8565b865162461bcd60e51b815260048101859052602160248201527f455243333532353a2063616e6e6f74206d696e74207a65726f20746f6b656e496044820152601960fa1b6064820152608490fd5b865162461bcd60e51b815260048101859052602160248201527f455243333532353a206d696e7420746f20746865207a65726f206164647265736044820152607360f81b6064820152608490fd5b600c5484516307a42e0160e11b8152600481018590526001600160a01b0397881660248201526044810187905291969192918791849160649183918691165af19586156138e8578196613891575b505050906137086136eb7f6d811e6a20ae5461a4ef22a6998c1d958defe727f1cc522b6eb792bc8e6f72669493612443565b909180939650813d83116138e1575b6138aa8183611ee3565b8101031261027c575051926137086136eb7f6d811e6a20ae5461a4ef22a6998c1d958defe727f1cc522b6eb792bc8e6f726661385f565b503d6138a0565b508351903d90823e3d90fd5b6138fe818361398d565b6139088383612785565b1580613981575b6139195750505050565b83811061393c576139339361392d91612a18565b916139bb565b38808080612b52565b60405162461bcd60e51b815260206004820152601f60248201527f455243333532353a20696e73756666696369656e7420616c6c6f77616e6365006044820152606490fd5b5060001981141561390f565b613996816141d8565b600052600460205260406000209060018060a01b031660005260205260406000205490565b6001600160a01b038083169391928415613aa457836139d991613afc565b15613a27575b5060207f621b050de0ad08b51d19b48b3e6df75348c4de6bdd93e81b252ca62e28265b1b918360005260048252604060002085600052825280604060002055604051908152a3565b908260005260066020526005613a41604060002054612408565b500190815492600160401b841015611e7c5785613a878560209560017f621b050de0ad08b51d19b48b3e6df75348c4de6bdd93e81b252ca62e28265b1b9801815561276d565b909283549160031b90811b9283911b1691191617905591506139df565b60405162461bcd60e51b815260206004820152602a60248201527f455243333532353a20617070726f76652076616c756520746f20746865207a65604482015269726f206164647265737360b01b6064820152608490fd5b6000908282526006602090808252604090613b1982862054612408565b509260058094015496865b888110613b375750505050505050905090565b818852838352613b558187613b4e888c2054612408565b500161276d565b905460039190911b1c6001600160a01b0390811690881614613b7f57613b7a90612b08565b613b24565b505050505050505050600190565b613b9681614134565b8015613e23575b15613dce57613bab82614134565b8015613dbf575b15613d6c578060005260209260068452604092613bd28460002054612408565b508160005260068652613be88560002054612408565b50906002810190815490858210613d155760010154600184015403613cba5791600291613c1b86613c5898979695612a18565b905501613c298382546123d4565b90558083600080516020614429833981519152888851868152a3845192613c4f84611ec8565b60008452613e4a565b15613c61575050565b60849250519062461bcd60e51b82526004820152602d60248201527f455243333532353a207472616e736665722072656a656374656420627920455260448201526c21999a991aa932b1b2b4bb32b960991b6064820152fd5b865162461bcd60e51b815260048101899052602e60248201527f455243333532353a207472616e7366657220746f20746f6b656e20776974682060448201526d191a5999995c995b9d081cdb1bdd60921b6064820152608490fd5b875162461bcd60e51b8152600481018a9052602a60248201527f455243333532353a20696e73756666696369656e742062616c616e636520666f60448201526939103a3930b739b332b960b11b6064820152608490fd5b60405162461bcd60e51b815260206004820152602560248201527f455243333532353a207472616e7366657220746f20696e76616c696420746f6b604482015264195b88125160da1b6064820152608490fd5b50613dc982614162565b613bb2565b60405162461bcd60e51b815260206004820152602760248201527f455243333532353a207472616e736665722066726f6d20696e76616c696420746044820152661bdad95b88125160ca1b6064820152608490fd5b50613e2d81614162565b613b9d565b908160209103126108fa575180151581036108fa5790565b92613e54826126cb565b803b151580613f06575b15613efc57613ea793600060209460405196879586948593629ce20b60e01b9b8c865233600487015260248601526044850152606484015260a0608484015260a4830190611dee565b03926001600160a01b03165af1908115613ef057600091613ed2575b506001600160e01b0319161490565b613eea915060203d8111612d1557612d068183611ee3565b38613ec3565b6040513d6000823e3d90fd5b5050505050600190565b506040516301ffc9a760e01b8152629ce20b60e01b60048201526020816024816001600160a01b0386165afa908115613ef057600091613f47575b50613e5e565b613f68915060203d8111613f6e575b613f608183611ee3565b810190613e32565b38613f41565b503d613f56565b9091613f8083614134565b80614121575b8015614112575b1561409b57613f9b82614134565b80614088575b80614065575b1561400b579061400682613fde7fdf7a601a0a201ccd4b4bfcfd610913188d931867997223d226f85f2f2673988a959484336138f4565b613fe9818585613b8d565b604051938493846040919493926060820195825260208201520152565b0390a1565b600c546001600160a01b0316803b156108fa57604051630310ed7f60e41b8152600481019390935260248301939093526044820152906000908290606490829084905af18015613ef05761405c5750565b61270490611e69565b5061406f83614134565b8015613fa7575061407f83612443565b600b5414613fa7565b5061409282612443565b600b5414613fa1565b60a460405162461bcd60e51b815260206004820152604460248201527f546f6b656e204944206f66207265636569766572206e6f74207265636f676e6960448201527f7a6564206279207468697320636f6e7472616374206f722074686520726567696064820152637374727960e01b6084820152fd5b5061411c83614162565b613f8d565b5061412b83612443565b600b5414613f86565b60055415159081614143575090565b809150600052600660205261415c604060002054612408565b50541490565b80600052600d602052604060002054159081159161417e575090565b600c546040516341ce4b3f60e01b81526004810192909252909150602090829060249082906001600160a01b03165afa908115613ef0576000916141c0575090565b611f71915060203d8111613f6e57613f608183611ee3565b612704906141e581614134565b90811561420a575b81156141fa575b5061267f565b6142049150614162565b386141f4565b905061421581614162565b906141ed565b614224816141d8565b61422d81614134565b806142ba575b1561424157611f7190612961565b6000908152600d6020526040812054602060018060a01b03600c541691602460405180948193631398fee160e31b835260048301525afa91821561193a57809261428a57505090565b9091506020823d82116142b2575b816142a560209383611ee3565b8101031261027c57505190565b3d9150614298565b506142c481612443565b600b5414614233565b6142d6816141d8565b6142df81614134565b8061438a575b156142f357611f71906126cb565b60018060a01b0380600c5416916000908152600d602052602060408220546024604051809681936331a9108f60e11b835260048301525afa92831561437d57819361433e5750505090565b909192506020813d8211614375575b8161435a60209383611ee3565b810103126108645751918216820361027c57503880806127b0565b3d915061434d565b50604051903d90823e3d90fd5b5061439481612443565b600b54146142e5565b906143a7826141d8565b6143b082614134565b80614415575b156143c457611f719161398d565b602060018060a01b0391604483600c54166000958652600d845260408620549060405195869485936338d1782f60e21b855260048501521660248301525afa91821561193a57809261428a57505090565b5061441f82612443565b600b54146143b656fe0b2aac84f3ec956911fd78eae5311062972ff949f38412e8da39069d9f068cc6ddf252ad1be2c89b69c2b068fc378daa952ba7f163c4a11628f55a4df523b3efa26469706673582212205e87f229f0d4d2690a467ae00ed870d773b56cba89efffdaa523e9ed0f24593464736f6c634300081100336080604052346200048657620020b7803803806200001d816200048b565b9283398101608082820312620004865781516001600160401b0391908281116200048657816200004f918501620004b1565b91602092838501518281116200048657836200006d918701620004b1565b92604086015183811162000486576060916200008b918801620004b1565b9501516001600160a01b03811695908690036200048657815193838511620002c3576001948554938685811c951680156200047b575b88861014620002a2578190601f9586811162000425575b508890868311600114620003bd57600092620003b1575b5050600019600383901b1c191690861b1785555b805190848211620002c357600254908682811c92168015620003a6575b88831014620002a25781858493116200034f575b508790858311600114620002e557600092620002d9575b5050600019600383901b1c191690851b176002555b8051928311620002c35760039485548581811c91168015620002b8575b82821014620002a25783811162000257575b5080928411600114620001ed5750928293918392600094620001e1575b50501b9160001990841b1c19161790555b600080546001600160a01b031916919091179055604051611b939081620005248239f35b015192503880620001ac565b919083601f1981168760005284600020946000905b888383106200023c575050501062000223575b505050811b019055620001bd565b015160001983861b60f8161c1916905538808062000215565b85870151885590960195948501948793509081019062000202565b86600052816000208480870160051c82019284881062000298575b0160051c019086905b8281106200028b5750506200018f565b600081550186906200027b565b9250819262000272565b634e487b7160e01b600052602260045260246000fd5b90607f16906200017d565b634e487b7160e01b600052604160045260246000fd5b0151905038806200014b565b90879350601f198316916002600052896000209260005b8b8282106200033857505084116200031e575b505050811b0160025562000160565b015160001960f88460031b161c191690553880806200030f565b8385015186558b97909501949384019301620002fc565b9091506002600052876000208580850160051c8201928a86106200039c575b918991869594930160051c01915b8281106200038c57505062000134565b600081558594508991016200037c565b925081926200036e565b91607f169162000120565b015190503880620000ef565b90889350601f19831691846000528a6000209260005b8c8282106200040e5750508411620003f4575b505050811b01855562000103565b015160001960f88460031b161c19169055388080620003e6565b8385015186558c97909501949384019301620003d3565b90915087600052886000208680850160051c8201928b861062000471575b918a91869594930160051c01915b82811062000461575050620000d8565b600081558594508a910162000451565b9250819262000443565b94607f1694620000c1565b600080fd5b6040519190601f01601f191682016001600160401b03811183821017620002c357604052565b919080601f84011215620004865782516001600160401b038111620002c357602090620004e7601f8201601f191683016200048b565b92818452828287010111620004865760005b8181106200050f57508260009394955001015290565b8581018301518482018401528201620004f956fe608060408181526004908136101561001657600080fd5b600092833560e01c9081631375d843146113cd57508063246a908b146112cf57806355f804b31461118b57806364140ec01461108c5780636c0360eb14610fcd5780636c037f8a14610d0f57806371f0442e14610c7b578063725fa09c146108c05780637e468a51146107c1578063842251d414610685578063894b4c2e146101755763b3154c08146100a857600080fd5b34610171576020918260031936011261016d5780358452825280832091815192848154906100d5826118e1565b80875292600192808416908115610149575060011461010e575b61010a8787610100828c03836114e3565b5191829182611485565b0390f35b9080949750528583205b828410610136575050508261010a94610100928201019438806100ef565b8054868501880152928601928101610118565b60ff19168887015250505050151560051b83010192506101008261010a38806100ef565b8380fd5b8280fd5b50903461017157602092836003193601126106825782516306fdde0360e01b81529180359082848281335afa938415610678578394610654575b506101b98261179e565b926102056022875180968a6101d78184019a8b815193849201611462565b820161202360f01b8c8201526101f68c83519384918785019101611462565b010360028101875201856114e3565b828152818752858120865181549391899184610220876118e1565b80835284830193600198868a821691826000146106345750506001146105fb575b505090610254816102c9949303826114e3565b6102e561026030611a1a565b898852600686526102d78d808a209a60058952818b2091519788948a86019a6102ac61028b8d61191b565b91692f636f6e74726163742f60b01b83528351938491600a85019101611462565b019c6011662f746f6b656e2f60c81b9e8f600a8201520190611997565b602f60f81b81520190611997565b03601f1981018552846114e3565b8a51631398fee160e31b81528581018990528c81602481335afa80156105c25787906105cc575b610316915061179e565b8b5163131f9f3f60e11b8152958601899052948c81602481335afa9081156105c2578d918d918991610589575b5061034d9061179e565b9761035733611a1a565b9a815260068352208c51713d91383937b832b93a34b2b9afbab934911d60711b818401908152601160f91b60328301529a90998a93909161039a6033860161191b565b9068636f6e74726163742f60b81b825280518093600984019201916103be92611462565b019060098201526010016103d191611997565b6f17b83937b832b93a34b2b9973539b7b760811b815261227d60f01b601082015203600d198101885260120161040790886114e3565b8a51998a998d683d913730b6b2911d1160b91b908c015251908160298c0161042e92611462565b890190701116113232b9b1b934b83a34b7b7111d1160791b6029830152519182603a830161045b92611462565b01906a11161134b6b0b3b2911d1160a91b603a8301525191826045830161048192611462565b016c1116113130b630b731b2911d1160991b6045820152815191828a605284019201916104ad92611462565b016911161139b637ba111d1160b11b60528201528151918289605c84019201916104d692611462565b01906e111611383937b832b93a34b2b9911d60891b605c830152519182606b830161050092611462565b01606b8101607d60f81b905203604c81018252606c0161052090826114e3565b61052990611631565b81517f646174613a6170706c69636174696f6e2f6a736f6e3b6261736536342c00000084820152815190938492610567918391603d86019101611462565b810103601d81018352603d0161057d90836114e3565b5161010a819282611485565b928092508391503d83116105bb575b6105a281836114e3565b810103126105b7578b61034d8e925190610343565b8680fd5b503d610598565b8c513d89823e3d90fd5b508c81813d83116105f4575b6105e281836114e3565b810103126105b757610316905161030c565b503d6105d8565b8592508752818720908888925b82841061061e5750505082010161025482610241565b80548487018601528794909301928a9101610608565b60ff1916875292151560051b850190920192506102549150839050610241565b6106719194503d8085833e61066981836114e3565b8101906115a0565b92386101af565b85513d85823e3d90fd5b80fd5b508290346107bd576106963661156d565b939083526020916006835283209184519167ffffffffffffffff83116107aa57506106c183546118e1565b601f8111610767575b5080601f831160011461070557508394829394926106fa575b50508160011b916000199060031b1c191617905580f35b0151905084806106e3565b90601f198316958486528286209286905b88821061074f57505083600195969710610736575b505050811b01905580f35b015160001960f88460031b161c1916905584808061072b565b80600185968294968601518155019501930190610716565b838552818520601f840160051c8101918385106107a0575b601f0160051c01905b81811061079557506106ca565b858155600101610788565b909150819061077f565b634e487b7160e01b855260419052602484fd5b5080fd5b508290346107bd576107d23661156d565b939083526020916007835283209184519167ffffffffffffffff83116107aa57506107fd83546118e1565b601f811161087d575b5080601f831160011461083557508394829394926106fa5750508160011b916000199060031b1c191617905580f35b90601f198316958486528286209286905b8882106108655750508360019596971061073657505050811b01905580f35b80600185968294968601518155019501930190610846565b838552818520601f840160051c8101918385106108b6575b601f0160051c01905b8181106108ab5750610806565b85815560010161089e565b9091508190610895565b50913461068257806003193601126106825782516306fdde0360e01b815281818481335afa908115610c71578291610c57575b508351829060025492610905846118e1565b9586835260209683888101956001978a8982169182600014610c3c575050600114610be1575b610937925003846114e3565b61094033611a1a565b9588519586898101986109528a61191b565b68636f6e74726163742f60b81b81526109758c8351938491600985019101611462565b01602f60f81b600982015283906003549361098f856118e1565b94818116908115610bc05750600114610b61575b50506109b8925003601f1981018852876114e3565b8789518093633e7e866960e01b825281335afa918215610b55578192610b17575b5050610ac9605a888a61010a9b9961010099610a7f603d9a610b079e9a610a5c610ace9b610a0c60ff610a329d1661179e565b97519b8c99683d913730b6b2911d1160b91b818c0152825192839160298d019101611462565b880191701116113232b9b1b934b83a34b7b7111d1160791b6029840152518093603a840190611462565b01916a11161134b6b0b3b2911d1160a91b603a8401525180936045840190611462565b01721116113b30b63ab2a232b1b4b6b0b639911d1160691b6045820152610aaf825180938a605885019101611462565b0161227d60f01b605882015203603a8101845201826114e3565b611631565b845195827f646174613a6170706c69636174696f6e2f6a736f6e3b6261736536342c000000889485015282519283918686019101611462565b810103601d8101855201836114e3565b9091508781813d8311610b4e575b610b2f81836114e3565b810103126107bd57519060ff821682036106825750610ac9605a6109d9565b503d610b25565b508851903d90823e3d90fd5b6003865290915084908c7fc2575a0e9e593c00f959f8c92f12db2869c3395a3b0502d05e2516446f71f85b5b868410610ba857505050506109b892600a91010138806109a3565b8054858501600a01528c95509201918d908201610b8d565b9050600a93506109b895915060ff19168383015280151502010138806109a3565b505060028752838888887f405787fa12a823e0f2b7631cc41b3ba8828b3321ca811111fa75cd3aa3bb5ace5b858310610c23575050610937935082010161092b565b80919294505483858a0101520191018990888793610c0d565b60ff1916895261093794151560051b840101915061092b9050565b610c6b91503d8084833e61066981836114e3565b386108f3565b84513d84823e3d90fd5b5034610171576020918260031936011261016d57358352600582528083209181519284815490610caa826118e1565b808752926001928084169081156101495750600114610cd45761010a8787610100828c03836114e3565b9080949750528583205b828410610cfc575050508261010a94610100928201019438806100ef565b8054868501880152928601928101610cde565b5090346101715760209283600319360112610682578054835163ec327a2160e01b815283358185018190529092916001600160a01b0316908284602481855afa938415610fc3578394610fa7575b50855163bc74ebb960e01b8152858101829052948386602481865afa958615610f9d578496610f81575b5086516309c3dd8760e01b80825282820184905290938585602481845afa948515610f7757918a9594939187938496610f56575b5090602491610dfb60268d518a652f696d61676560d01b81610de7849e85019d8e815193849201611462565b83019182015203600681018b5201896114e3565b8b51958694859384528301525afa938415610f4b578094610f2e575b50508551918288808201868197519283910191610e3392611462565b81018981016f17b83937b832b93a34b2b9973539b7b760811b905203601081018452603001610e6290846114e3565b8651958695683d913730b6b2911d1160b91b8a880152805190818b60298a01920191610e8d92611462565b8601701116113232b9b1b934b83a34b7b7111d1160791b6029820152815191828b603a8401920191610ebe92611462565b01906a11161134b6b0b3b2911d1160a91b603a83015251918260458301610ee492611462565b01906e111611383937b832b93a34b2b9911d60891b604583015251918260548301610f0e92611462565b0160548101607d60f81b90520360358101825260550161052090826114e3565b610f439294503d8091833e61066981836114e3565b913880610e17565b8751903d90823e3d90fd5b602492919650610f6f903d8087833e61066981836114e3565b959091610dbb565b89513d88823e3d90fd5b610f969196503d8086833e61066981836114e3565b9438610d87565b87513d86823e3d90fd5b610fbc9194503d8085833e61066981836114e3565b9238610d5d565b86513d85823e3d90fd5b8382346107bd57816003193601126107bd57805190826001805491610ff1836118e1565b80865292828116908115611064575060011461101a575b5050506101008261010a9403836114e3565b9450808552600080516020611b3e8339815191525b82861061104c5750505061010082602061010a9582010194611008565b8054602087870181019190915290950194810161102f565b61010a97508693506020925061010094915060ff191682840152151560051b82010194611008565b508290346107bd5761109d3661156d565b939083526020916005835283209184519167ffffffffffffffff83116107aa57506110c883546118e1565b601f8111611148575b5080601f831160011461110057508394829394926106fa5750508160011b916000199060031b1c191617905580f35b90601f198316958486528286209286905b8882106111305750508360019596971061073657505050811b01905580f35b80600185968294968601518155019501930190611111565b838552818520601f840160051c810191838510611181575b601f0160051c01905b81811061117657506110d1565b858155600101611169565b9091508190611160565b828434610682576020806003193601126107bd5767ffffffffffffffff833581811161016d576111be9036908601611521565b9384519182116112bc57506001916111d683546118e1565b601f811161126a575b5080601f8311600114611219575083948293949261120e575b5050600019600383901b1c191690821b17905580f35b0151905084806111f8565b838552601f19831695600080516020611b3e833981519152929186905b888210611253575050838596971061073657505050811b01905580f35b808785968294968601518155019501930190611236565b838552600080516020611b3e833981519152601f840160051c8101918385106112b2575b601f0160051c019084905b8281106112a75750506111df565b868155018490611299565b909150819061128e565b634e487b7160e01b845260419052602483fd5b508290346107bd576112e03661156d565b9390835260209181835283209184519167ffffffffffffffff83116107aa575061130a83546118e1565b601f811161138a575b5080601f831160011461134257508394829394926106fa5750508160011b916000199060031b1c191617905580f35b90601f198316958486528286209286905b8882106113725750508360019596971061073657505050811b01905580f35b80600185968294968601518155019501930190611353565b838552818520601f840160051c8101918385106113c3575b601f0160051c01905b8181106113b85750611313565b8581556001016113ab565b90915081906113a2565b9290503461016d576020908160031936011261145e57358452600681528184208054856113f9826118e1565b8087529260019280841690811561014957506001146114235761010a8787610100828c03836114e3565b9080949750528583205b82841061144b575050508261010a94610100928201019438806100ef565b805486850188015292860192810161142d565b8480fd5b60005b8381106114755750506000910152565b8181015183820152602001611465565b604091602082526114a58151809281602086015260208686019101611462565b601f01601f1916010190565b6060810190811067ffffffffffffffff8211176114cd57604052565b634e487b7160e01b600052604160045260246000fd5b90601f8019910116810190811067ffffffffffffffff8211176114cd57604052565b67ffffffffffffffff81116114cd57601f01601f191660200190565b81601f820112156115685780359061153882611505565b9261154660405194856114e3565b8284526020838301011161156857816000926020809301838601378301015290565b600080fd5b90604060031983011261156857600435916024359067ffffffffffffffff82116115685761159d91600401611521565b90565b6020818303126115685780519067ffffffffffffffff8211611568570181601f820112156115685780516115d381611505565b926115e160405194856114e3565b818452602082840101116115685761159d9160208085019101611462565b9061160982611505565b61161660405191826114e3565b8281528092611627601f1991611505565b0190602036910137565b80511561177957604051611644816114b1565b604081527f4142434445464748494a4b4c4d4e4f505152535455565758595a61626364656660208201527f6768696a6b6c6d6e6f707172737475767778797a303132333435363738392b2f60408201528151600292838201809211611763576003918290046001600160fe1b0381168103611763576116c6908594951b6115ff565b936020850193829183518401925b83811061171257505050505106806001146116ff576002146116f4575090565b603d90600019015390565b50603d9081600019820153600119015390565b85600491979293949701918251600190603f9082828260121c16880101518453828282600c1c16880101518385015382828260061c16880101518885015316850101518782015301959291906116d4565b634e487b7160e01b600052601160045260246000fd5b506040516020810181811067ffffffffffffffff8211176114cd576040526000815290565b806000917a184f03e93ff9f4daa797ed6e38ed64bf6a1f010000000000000000808210156118d3575b506d04ee2d6d415b85acef8100000000808310156118c4575b50662386f26fc10000808310156118b5575b506305f5e100808310156118a6575b5061271080831015611897575b506064821015611887575b600a8092101561187d575b6001908160216118358287016115ff565b95860101905b611847575b5050505090565b600019019083906f181899199a1a9b1b9c1cb0b131b232b360811b8282061a8353049182156118785791908261183b565b611840565b9160010191611824565b9190606460029104910191611819565b6004919392049101913861180e565b60089193920491019138611801565b601091939204910191386117f2565b602091939204910191386117e0565b6040935081049150386117c7565b90600182811c92168015611911575b60208310146118fb57565b634e487b7160e01b600052602260045260246000fd5b91607f16916118f0565b9060009160019081549161192e836118e1565b92818116908115611984575060011461194657505050565b809192939450600052600080516020611b3e833981519152906000915b848310611971575050500190565b8181602092548587015201920191611963565b60ff191683525050811515909102019150565b6000929181546119a6816118e1565b926001918083169081156119ff57506001146119c3575b50505050565b90919293945060005260209081600020906000915b8583106119ee57505050500190388080806119bd565b8054858401529183019181016119d8565b60ff19168452505050811515909102019150388080806119bd565b604051906001600160a01b0316611a30826114b1565b602a82526020908183016040368237835115611b2757603090538251600190811015611b2757607860218501536029905b808211611ab5575050611a72575090565b6064906040519062461bcd60e51b825280600483015260248201527f537472696e67733a20686578206c656e67746820696e73756666696369656e746044820152fd5b9091600f81166010811015611b12578551841015611b12576f181899199a1a9b1b9c1cb0b131b232b360811b901a85840185015360041c918015611afd576000190190611a61565b60246000634e487b7160e01b81526011600452fd5b60246000634e487b7160e01b81526032600452fd5b634e487b7160e01b600052603260045260246000fdfeb10e2d527612073b26eecdfd717e6a320cf44b4afac2b0732d9fcbe2b7fa0cf6a26469706673582212208ca4f65294610ecd78a777bb408e8725ee425416006ed9fc7c5c58d006126bd564736f6c634300081100332f8788117e7eff1d82e926ec794901d17c78024a50270940304540a733656f0db10e2d527612073b26eecdfd717e6a320cf44b4afac2b0732d9fcbe2b7fa0cf6",
  "linkReferences": {},
  "deployedLinkReferences": {}
}