{
  "_format": "hh-sol-artifact-1",
  "contractName": "Util",
  "sourceName": "contracts/util/Util.sol",
  "abi": [
    {
      "inputs": [
        {
          "internalType": "string",
          "name": "str",
          "type": "string"
        }
      ],
      "name": "strToLower",
      "outputs": [
        {
          "internalType": "string",
          "name": "",
          "type": "string"
        }
      ],
      "stateMutability": "view",
      "type": "function"
    }
  ],
  "bytecode": "0x608080604052346100165761029a908161001c8239f35b600080fdfe6040608081526004908136101561001557600080fd5b6000803560e01c63c94fdef01461002b57600080fd5b346101e257602092836003193601126101de5780359267ffffffffffffffff84116101da57366023850112156101da57838201359461007161006c87610221565b6101e5565b90868252602495368789830101116101d657818888996100b49989940183870137840101528151926100a561006c85610221565b93808552601f19978891610221565b013683860137855b8351811015610189576100cf818561023d565b51604160f891821c101580610172575b1561014a57836100ef838761023d565b51821c0160ff811161013857901b6001600160f81b031916871a610113828761023d565b535b6000198114610126576001016100bc565b634e487b7160e01b8752601186528887fd5b634e487b7160e01b8952601188528a89fd5b506001600160f81b031961015e828661023d565b5116871a61016c828761023d565b53610115565b50605a61017f838761023d565b51821c11156100df565b508386888351948592818452845191828186015281955b8387106101be5750508394508582601f949501015201168101030190f35b868101820151898801890152958101958895506101a0565b8580fd5b8280fd5b5080fd5b80fd5b6040519190601f01601f1916820167ffffffffffffffff81118382101761020b57604052565b634e487b7160e01b600052604160045260246000fd5b67ffffffffffffffff811161020b57601f01601f191660200190565b90815181101561024e570160200190565b634e487b7160e01b600052603260045260246000fdfea26469706673582212203e13222e780553c7b6a54e151bc557dfd476fda07dd4062282fa9aeebd8809fc64736f6c63430008110033",
  "linkReferences": {},
  "deployedLinkReferences": {}
}