{
  "_format": "hh-sol-artifact-1",
  "contractName": "CashCredit",
  "sourceName": "contracts/CashCredit.sol",
  "abi": [
    {
      "inputs": [
        {
          "internalType": "address",
          "name": "revenueAcct_",
          "type": "address"
        },
        {
          "internalType": "address",
          "name": "slotRegistryContract_",
          "type": "address"
        },
        {
          "internalType": "address",
          "name": "poolContract_",
          "type": "address"
        },
        {
          "internalType": "address",
          "name": "underlyingContract_",
          "type": "address"
        },
        {
          "internalType": "address",
          "name": "mktAdmin_",
          "type": "address"
        },
        {
          "internalType": "uint256",
          "name": "defaultSlot_",
          "type": "uint256"
        },
        {
          "internalType": "string",
          "name": "name_",
          "type": "string"
        },
        {
          "internalType": "string",
          "name": "symbol_",
          "type": "string"
        },
        {
          "internalType": "string",
          "name": "baseuri_",
          "type": "string"
        },
        {
          "internalType": "string",
          "name": "contractDescription_",
          "type": "string"
        },
        {
          "internalType": "string",
          "name": "contractImage_",
          "type": "string"
        },
        {
          "internalType": "string",
          "name": "valueToken_",
          "type": "string"
        },
        {
          "internalType": "uint8",
          "name": "decimals_",
          "type": "uint8"
        }
      ],
      "stateMutability": "nonpayable",
      "type": "constructor"
    },
    {
      "anonymous": false,
      "inputs": [
        {
          "indexed": true,
          "internalType": "address",
          "name": "_owner",
          "type": "address"
        },
        {
          "indexed": true,
          "internalType": "address",
          "name": "_approved",
          "type": "address"
        },
        {
          "indexed": true,
          "internalType": "uint256",
          "name": "_tokenId",
          "type": "uint256"
        }
      ],
      "name": "Approval",
      "type": "event"
    },
    {
      "anonymous": false,
      "inputs": [
        {
          "indexed": true,
          "internalType": "address",
          "name": "_owner",
          "type": "address"
        },
        {
          "indexed": true,
          "internalType": "address",
          "name": "_operator",
          "type": "address"
        },
        {
          "indexed": false,
          "internalType": "bool",
          "name": "_approved",
          "type": "bool"
        }
      ],
      "name": "ApprovalForAll",
      "type": "event"
    },
    {
      "anonymous": false,
      "inputs": [
        {
          "indexed": true,
          "internalType": "uint256",
          "name": "_tokenId",
          "type": "uint256"
        },
        {
          "indexed": true,
          "internalType": "address",
          "name": "_operator",
          "type": "address"
        },
        {
          "indexed": false,
          "internalType": "uint256",
          "name": "_value",
          "type": "uint256"
        }
      ],
      "name": "ApprovalValue",
      "type": "event"
    },
    {
      "anonymous": false,
      "inputs": [
        {
          "indexed": false,
          "internalType": "uint256",
          "name": "offeringId",
          "type": "uint256"
        },
        {
          "indexed": false,
          "internalType": "uint256",
          "name": "value",
          "type": "uint256"
        }
      ],
      "name": "ListOffer",
      "type": "event"
    },
    {
      "anonymous": false,
      "inputs": [
        {
          "indexed": false,
          "internalType": "address",
          "name": "contractAddress",
          "type": "address"
        }
      ],
      "name": "MetadataDescriptor",
      "type": "event"
    },
    {
      "anonymous": false,
      "inputs": [
        {
          "indexed": false,
          "internalType": "uint256",
          "name": "tokenId",
          "type": "uint256"
        },
        {
          "indexed": false,
          "internalType": "uint256",
          "name": "slot",
          "type": "uint256"
        },
        {
          "indexed": false,
          "internalType": "uint256",
          "name": "value",
          "type": "uint256"
        }
      ],
      "name": "MintAssetToken",
      "type": "event"
    },
    {
      "anonymous": false,
      "inputs": [
        {
          "indexed": false,
          "internalType": "uint256",
          "name": "tokenId",
          "type": "uint256"
        },
        {
          "indexed": false,
          "internalType": "uint256",
          "name": "slot",
          "type": "uint256"
        },
        {
          "indexed": false,
          "internalType": "uint256",
          "name": "value",
          "type": "uint256"
        }
      ],
      "name": "MintCashToken",
      "type": "event"
    },
    {
      "anonymous": false,
      "inputs": [
        {
          "indexed": false,
          "internalType": "uint256",
          "name": "tokenId",
          "type": "uint256"
        },
        {
          "indexed": false,
          "internalType": "uint256",
          "name": "slot",
          "type": "uint256"
        },
        {
          "indexed": false,
          "internalType": "uint256",
          "name": "value",
          "type": "uint256"
        }
      ],
      "name": "MintNetworkServiceToken",
      "type": "event"
    },
    {
      "anonymous": false,
      "inputs": [
        {
          "indexed": false,
          "internalType": "uint256",
          "name": "tokenId",
          "type": "uint256"
        },
        {
          "indexed": false,
          "internalType": "uint256",
          "name": "slot",
          "type": "uint256"
        },
        {
          "indexed": false,
          "internalType": "uint256",
          "name": "value",
          "type": "uint256"
        }
      ],
      "name": "MintServiceToken",
      "type": "event"
    },
    {
      "anonymous": false,
      "inputs": [
        {
          "indexed": false,
          "internalType": "uint256",
          "name": "newTokenId",
          "type": "uint256"
        },
        {
          "indexed": false,
          "internalType": "uint256",
          "name": "slot",
          "type": "uint256"
        },
        {
          "indexed": false,
          "internalType": "uint256",
          "name": "value",
          "type": "uint256"
        }
      ],
      "name": "MintServiceTokenToAddress",
      "type": "event"
    },
    {
      "anonymous": false,
      "inputs": [
        {
          "indexed": true,
          "internalType": "address",
          "name": "redeemer",
          "type": "address"
        },
        {
          "indexed": false,
          "internalType": "uint256",
          "name": "creditAmount",
          "type": "uint256"
        },
        {
          "indexed": false,
          "internalType": "uint256",
          "name": "valueAmount",
          "type": "uint256"
        }
      ],
      "name": "RedeemForAccess",
      "type": "event"
    },
    {
      "anonymous": false,
      "inputs": [
        {
          "indexed": false,
          "internalType": "uint256",
          "name": "tokenId",
          "type": "uint256"
        },
        {
          "indexed": true,
          "internalType": "address",
          "name": "redeemer",
          "type": "address"
        },
        {
          "indexed": false,
          "internalType": "uint256",
          "name": "amount",
          "type": "uint256"
        }
      ],
      "name": "RedeemForAsset",
      "type": "event"
    },
    {
      "anonymous": false,
      "inputs": [
        {
          "indexed": true,
          "internalType": "bytes32",
          "name": "role",
          "type": "bytes32"
        },
        {
          "indexed": true,
          "internalType": "bytes32",
          "name": "previousAdminRole",
          "type": "bytes32"
        },
        {
          "indexed": true,
          "internalType": "bytes32",
          "name": "newAdminRole",
          "type": "bytes32"
        }
      ],
      "name": "RoleAdminChanged",
      "type": "event"
    },
    {
      "anonymous": false,
      "inputs": [
        {
          "indexed": true,
          "internalType": "bytes32",
          "name": "role",
          "type": "bytes32"
        },
        {
          "indexed": true,
          "internalType": "address",
          "name": "account",
          "type": "address"
        },
        {
          "indexed": true,
          "internalType": "address",
          "name": "sender",
          "type": "address"
        }
      ],
      "name": "RoleGranted",
      "type": "event"
    },
    {
      "anonymous": false,
      "inputs": [
        {
          "indexed": true,
          "internalType": "bytes32",
          "name": "role",
          "type": "bytes32"
        },
        {
          "indexed": true,
          "internalType": "address",
          "name": "account",
          "type": "address"
        },
        {
          "indexed": true,
          "internalType": "address",
          "name": "sender",
          "type": "address"
        }
      ],
      "name": "RoleRevoked",
      "type": "event"
    },
    {
      "anonymous": false,
      "inputs": [
        {
          "indexed": true,
          "internalType": "address",
          "name": "metadataDescriptor",
          "type": "address"
        }
      ],
      "name": "SetMetadataDescriptor",
      "type": "event"
    },
    {
      "anonymous": false,
      "inputs": [
        {
          "indexed": true,
          "internalType": "uint256",
          "name": "_tokenId",
          "type": "uint256"
        },
        {
          "indexed": true,
          "internalType": "uint256",
          "name": "_oldSlot",
          "type": "uint256"
        },
        {
          "indexed": true,
          "internalType": "uint256",
          "name": "_newSlot",
          "type": "uint256"
        }
      ],
      "name": "SlotChanged",
      "type": "event"
    },
    {
      "anonymous": false,
      "inputs": [
        {
          "indexed": true,
          "internalType": "address",
          "name": "_from",
          "type": "address"
        },
        {
          "indexed": true,
          "internalType": "address",
          "name": "_to",
          "type": "address"
        },
        {
          "indexed": true,
          "internalType": "uint256",
          "name": "_tokenId",
          "type": "uint256"
        }
      ],
      "name": "Transfer",
      "type": "event"
    },
    {
      "anonymous": false,
      "inputs": [
        {
          "indexed": true,
          "internalType": "uint256",
          "name": "_fromTokenId",
          "type": "uint256"
        },
        {
          "indexed": true,
          "internalType": "uint256",
          "name": "_toTokenId",
          "type": "uint256"
        },
        {
          "indexed": false,
          "internalType": "uint256",
          "name": "_value",
          "type": "uint256"
        }
      ],
      "name": "TransferValue",
      "type": "event"
    },
    {
      "anonymous": false,
      "inputs": [
        {
          "indexed": false,
          "internalType": "uint256",
          "name": "fromTokenId",
          "type": "uint256"
        },
        {
          "indexed": false,
          "internalType": "uint256",
          "name": "toTokenId",
          "type": "uint256"
        },
        {
          "indexed": false,
          "internalType": "uint256",
          "name": "value",
          "type": "uint256"
        }
      ],
      "name": "ValueTransfer",
      "type": "event"
    },
    {
      "inputs": [],
      "name": "DEFAULT_ADMIN_ROLE",
      "outputs": [
        {
          "internalType": "bytes32",
          "name": "",
          "type": "bytes32"
        }
      ],
      "stateMutability": "view",
      "type": "function"
    },
    {
      "inputs": [],
      "name": "MKT_ARBITRATOR_ROLE",
      "outputs": [
        {
          "internalType": "bytes32",
          "name": "",
          "type": "bytes32"
        }
      ],
      "stateMutability": "view",
      "type": "function"
    },
    {
      "inputs": [],
      "name": "SERVICE_ADMIN_ROLE",
      "outputs": [
        {
          "internalType": "bytes32",
          "name": "",
          "type": "bytes32"
        }
      ],
      "stateMutability": "view",
      "type": "function"
    },
    {
      "inputs": [
        {
          "internalType": "string",
          "name": "uri_",
          "type": "string"
        }
      ],
      "name": "_setBaseURI",
      "outputs": [],
      "stateMutability": "nonpayable",
      "type": "function"
    },
    {
      "inputs": [
        {
          "internalType": "uint256",
          "name": "fromTokenId_",
          "type": "uint256"
        },
        {
          "internalType": "uint256",
          "name": "toTokenId_",
          "type": "uint256"
        },
        {
          "internalType": "uint256",
          "name": "value_",
          "type": "uint256"
        }
      ],
      "name": "addValue",
      "outputs": [],
      "stateMutability": "nonpayable",
      "type": "function"
    },
    {
      "inputs": [
        {
          "internalType": "uint256",
          "name": "tokenId_",
          "type": "uint256"
        },
        {
          "internalType": "address",
          "name": "operator_",
          "type": "address"
        }
      ],
      "name": "allowance",
      "outputs": [
        {
          "internalType": "uint256",
          "name": "",
          "type": "uint256"
        }
      ],
      "stateMutability": "view",
      "type": "function"
    },
    {
      "inputs": [
        {
          "internalType": "address",
          "name": "to_",
          "type": "address"
        },
        {
          "internalType": "uint256",
          "name": "tokenId_",
          "type": "uint256"
        }
      ],
      "name": "approve",
      "outputs": [],
      "stateMutability": "payable",
      "type": "function"
    },
    {
      "inputs": [
        {
          "internalType": "uint256",
          "name": "tokenId_",
          "type": "uint256"
        },
        {
          "internalType": "address",
          "name": "to_",
          "type": "address"
        },
        {
          "internalType": "uint256",
          "name": "value_",
          "type": "uint256"
        }
      ],
      "name": "approve",
      "outputs": [],
      "stateMutability": "payable",
      "type": "function"
    },
    {
      "inputs": [
        {
          "internalType": "address",
          "name": "owner_",
          "type": "address"
        }
      ],
      "name": "balanceOf",
      "outputs": [
        {
          "internalType": "uint256",
          "name": "balance",
          "type": "uint256"
        }
      ],
      "stateMutability": "view",
      "type": "function"
    },
    {
      "inputs": [
        {
          "internalType": "uint256",
          "name": "tokenId_",
          "type": "uint256"
        }
      ],
      "name": "balanceOf",
      "outputs": [
        {
          "internalType": "uint256",
          "name": "",
          "type": "uint256"
        }
      ],
      "stateMutability": "view",
      "type": "function"
    },
    {
      "inputs": [],
      "name": "contractAdmin",
      "outputs": [
        {
          "internalType": "address",
          "name": "",
          "type": "address"
        }
      ],
      "stateMutability": "view",
      "type": "function"
    },
    {
      "inputs": [],
      "name": "contractURI",
      "outputs": [
        {
          "internalType": "string",
          "name": "",
          "type": "string"
        }
      ],
      "stateMutability": "view",
      "type": "function"
    },
    {
      "inputs": [],
      "name": "creditType",
      "outputs": [
        {
          "internalType": "string",
          "name": "",
          "type": "string"
        }
      ],
      "stateMutability": "view",
      "type": "function"
    },
    {
      "inputs": [],
      "name": "defaultSlot",
      "outputs": [
        {
          "internalType": "uint256",
          "name": "",
          "type": "uint256"
        }
      ],
      "stateMutability": "view",
      "type": "function"
    },
    {
      "inputs": [
        {
          "internalType": "uint256",
          "name": "tokenId_",
          "type": "uint256"
        }
      ],
      "name": "getApproved",
      "outputs": [
        {
          "internalType": "address",
          "name": "",
          "type": "address"
        }
      ],
      "stateMutability": "view",
      "type": "function"
    },
    {
      "inputs": [
        {
          "internalType": "bytes32",
          "name": "role",
          "type": "bytes32"
        }
      ],
      "name": "getRoleAdmin",
      "outputs": [
        {
          "internalType": "bytes32",
          "name": "",
          "type": "bytes32"
        }
      ],
      "stateMutability": "view",
      "type": "function"
    },
    {
      "inputs": [
        {
          "internalType": "uint256",
          "name": "tokenId",
          "type": "uint256"
        }
      ],
      "name": "getTokenDescription",
      "outputs": [
        {
          "internalType": "string",
          "name": "",
          "type": "string"
        }
      ],
      "stateMutability": "view",
      "type": "function"
    },
    {
      "inputs": [
        {
          "internalType": "uint256",
          "name": "tokenId",
          "type": "uint256"
        }
      ],
      "name": "getTokenImage",
      "outputs": [
        {
          "internalType": "string",
          "name": "",
          "type": "string"
        }
      ],
      "stateMutability": "view",
      "type": "function"
    },
    {
      "inputs": [
        {
          "internalType": "uint256",
          "name": "tokenId",
          "type": "uint256"
        }
      ],
      "name": "getTokenUUID",
      "outputs": [
        {
          "internalType": "string",
          "name": "",
          "type": "string"
        }
      ],
      "stateMutability": "view",
      "type": "function"
    },
    {
      "inputs": [
        {
          "internalType": "bytes32",
          "name": "role",
          "type": "bytes32"
        },
        {
          "internalType": "address",
          "name": "account",
          "type": "address"
        }
      ],
      "name": "grantRole",
      "outputs": [],
      "stateMutability": "nonpayable",
      "type": "function"
    },
    {
      "inputs": [
        {
          "internalType": "bytes32",
          "name": "role",
          "type": "bytes32"
        },
        {
          "internalType": "address",
          "name": "account",
          "type": "address"
        }
      ],
      "name": "hasRole",
      "outputs": [
        {
          "internalType": "bool",
          "name": "",
          "type": "bool"
        }
      ],
      "stateMutability": "view",
      "type": "function"
    },
    {
      "inputs": [
        {
          "internalType": "address",
          "name": "owner_",
          "type": "address"
        },
        {
          "internalType": "address",
          "name": "operator_",
          "type": "address"
        }
      ],
      "name": "isApprovedForAll",
      "outputs": [
        {
          "internalType": "bool",
          "name": "",
          "type": "bool"
        }
      ],
      "stateMutability": "view",
      "type": "function"
    },
    {
      "inputs": [
        {
          "internalType": "uint256",
          "name": "expiration_",
          "type": "uint256"
        },
        {
          "internalType": "uint256",
          "name": "tokenId_",
          "type": "uint256"
        },
        {
          "internalType": "uint256",
          "name": "price_",
          "type": "uint256"
        },
        {
          "internalType": "string",
          "name": "assetId_",
          "type": "string"
        },
        {
          "internalType": "string",
          "name": "side_",
          "type": "string"
        }
      ],
      "name": "listOffer",
      "outputs": [],
      "stateMutability": "nonpayable",
      "type": "function"
    },
    {
      "inputs": [],
      "name": "metadataDescriptor",
      "outputs": [
        {
          "internalType": "contract IERC3525MetadataDescriptor",
          "name": "",
          "type": "address"
        }
      ],
      "stateMutability": "view",
      "type": "function"
    },
    {
      "inputs": [
        {
          "internalType": "address",
          "name": "owner_",
          "type": "address"
        },
        {
          "internalType": "uint256",
          "name": "slot_",
          "type": "uint256"
        },
        {
          "internalType": "uint256",
          "name": "value_",
          "type": "uint256"
        },
        {
          "internalType": "string",
          "name": "uuid_",
          "type": "string"
        },
        {
          "internalType": "string",
          "name": "tokenDescription_",
          "type": "string"
        },
        {
          "internalType": "string",
          "name": "tokenImage_",
          "type": "string"
        },
        {
          "internalType": "string",
          "name": "property_",
          "type": "string"
        }
      ],
      "name": "mint",
      "outputs": [
        {
          "internalType": "uint256",
          "name": "",
          "type": "uint256"
        }
      ],
      "stateMutability": "nonpayable",
      "type": "function"
    },
    {
      "inputs": [
        {
          "internalType": "address",
          "name": "owner_",
          "type": "address"
        },
        {
          "internalType": "uint256",
          "name": "slot_",
          "type": "uint256"
        },
        {
          "internalType": "uint256",
          "name": "value_",
          "type": "uint256"
        },
        {
          "internalType": "uint256",
          "name": "etherizedDiscountBasisPts_",
          "type": "uint256"
        },
        {
          "internalType": "string",
          "name": "uuid_",
          "type": "string"
        },
        {
          "internalType": "string",
          "name": "tokenDescription_",
          "type": "string"
        },
        {
          "internalType": "string",
          "name": "tokenImage_",
          "type": "string"
        },
        {
          "internalType": "string",
          "name": "property_",
          "type": "string"
        }
      ],
      "name": "mintWithDiscount",
      "outputs": [
        {
          "internalType": "uint256",
          "name": "",
          "type": "uint256"
        }
      ],
      "stateMutability": "nonpayable",
      "type": "function"
    },
    {
      "inputs": [
        {
          "internalType": "address",
          "name": "owner_",
          "type": "address"
        },
        {
          "internalType": "uint256",
          "name": "expiration_",
          "type": "uint256"
        },
        {
          "internalType": "uint256",
          "name": "tokenId_",
          "type": "uint256"
        },
        {
          "internalType": "uint256",
          "name": "price_",
          "type": "uint256"
        },
        {
          "internalType": "string",
          "name": "assetId_",
          "type": "string"
        },
        {
          "internalType": "string",
          "name": "side_",
          "type": "string"
        }
      ],
      "name": "mktListOffer",
      "outputs": [],
      "stateMutability": "nonpayable",
      "type": "function"
    },
    {
      "inputs": [],
      "name": "name",
      "outputs": [
        {
          "internalType": "string",
          "name": "",
          "type": "string"
        }
      ],
      "stateMutability": "view",
      "type": "function"
    },
    {
      "inputs": [
        {
          "internalType": "address",
          "name": "owner_",
          "type": "address"
        },
        {
          "internalType": "uint256",
          "name": "slot_",
          "type": "uint256"
        },
        {
          "internalType": "uint256",
          "name": "value_",
          "type": "uint256"
        },
        {
          "internalType": "uint256",
          "name": "discountBasisPts_",
          "type": "uint256"
        },
        {
          "internalType": "string",
          "name": "uuid_",
          "type": "string"
        },
        {
          "internalType": "string",
          "name": "tokenDescription_",
          "type": "string"
        },
        {
          "internalType": "string",
          "name": "tokenImage_",
          "type": "string"
        },
        {
          "internalType": "string",
          "name": "property_",
          "type": "string"
        }
      ],
      "name": "networkMintWithDiscount",
      "outputs": [
        {
          "internalType": "uint256",
          "name": "",
          "type": "uint256"
        }
      ],
      "stateMutability": "nonpayable",
      "type": "function"
    },
    {
      "inputs": [
        {
          "internalType": "address",
          "name": "owner_",
          "type": "address"
        },
        {
          "internalType": "uint256",
          "name": "slot_",
          "type": "uint256"
        },
        {
          "internalType": "uint256",
          "name": "value_",
          "type": "uint256"
        },
        {
          "internalType": "uint256",
          "name": "valueRate_",
          "type": "uint256"
        },
        {
          "internalType": "string",
          "name": "uuid_",
          "type": "string"
        },
        {
          "internalType": "string",
          "name": "tokenDescription_",
          "type": "string"
        },
        {
          "internalType": "string",
          "name": "tokenImage_",
          "type": "string"
        },
        {
          "internalType": "string",
          "name": "property_",
          "type": "string"
        }
      ],
      "name": "networkMintWithValueRate",
      "outputs": [
        {
          "internalType": "uint256",
          "name": "",
          "type": "uint256"
        }
      ],
      "stateMutability": "nonpayable",
      "type": "function"
    },
    {
      "inputs": [
        {
          "internalType": "uint256",
          "name": "tokenId_",
          "type": "uint256"
        }
      ],
      "name": "ownerOf",
      "outputs": [
        {
          "internalType": "address",
          "name": "owner_",
          "type": "address"
        }
      ],
      "stateMutability": "view",
      "type": "function"
    },
    {
      "inputs": [
        {
          "internalType": "address",
          "name": "offeringContract_",
          "type": "address"
        },
        {
          "internalType": "uint256",
          "name": "creditTokenId_",
          "type": "uint256"
        },
        {
          "internalType": "uint256",
          "name": "slotId_",
          "type": "uint256"
        },
        {
          "internalType": "uint256",
          "name": "value_",
          "type": "uint256"
        },
        {
          "internalType": "uint256",
          "name": "accesssEndTime_",
          "type": "uint256"
        },
        {
          "internalType": "string",
          "name": "assetId_",
          "type": "string"
        }
      ],
      "name": "redeemForAccess",
      "outputs": [
        {
          "internalType": "bool",
          "name": "",
          "type": "bool"
        }
      ],
      "stateMutability": "nonpayable",
      "type": "function"
    },
    {
      "inputs": [
        {
          "internalType": "address",
          "name": "offeringContract_",
          "type": "address"
        },
        {
          "internalType": "uint256",
          "name": "creditTokenId_",
          "type": "uint256"
        },
        {
          "internalType": "uint256",
          "name": "slotId_",
          "type": "uint256"
        },
        {
          "internalType": "uint256",
          "name": "value_",
          "type": "uint256"
        },
        {
          "internalType": "string",
          "name": "assetId_",
          "type": "string"
        }
      ],
      "name": "redeemForAsset",
      "outputs": [
        {
          "internalType": "uint256",
          "name": "",
          "type": "uint256"
        }
      ],
      "stateMutability": "nonpayable",
      "type": "function"
    },
    {
      "inputs": [
        {
          "internalType": "uint256",
          "name": "slotId_",
          "type": "uint256"
        }
      ],
      "name": "registerOnSlot",
      "outputs": [],
      "stateMutability": "nonpayable",
      "type": "function"
    },
    {
      "inputs": [
        {
          "internalType": "bytes32",
          "name": "role",
          "type": "bytes32"
        },
        {
          "internalType": "address",
          "name": "account",
          "type": "address"
        }
      ],
      "name": "renounceRole",
      "outputs": [],
      "stateMutability": "nonpayable",
      "type": "function"
    },
    {
      "inputs": [
        {
          "internalType": "bytes32",
          "name": "role",
          "type": "bytes32"
        },
        {
          "internalType": "address",
          "name": "account",
          "type": "address"
        }
      ],
      "name": "revokeRole",
      "outputs": [],
      "stateMutability": "nonpayable",
      "type": "function"
    },
    {
      "inputs": [
        {
          "internalType": "address",
          "name": "from_",
          "type": "address"
        },
        {
          "internalType": "address",
          "name": "to_",
          "type": "address"
        },
        {
          "internalType": "uint256",
          "name": "tokenId_",
          "type": "uint256"
        }
      ],
      "name": "safeTransferFrom",
      "outputs": [],
      "stateMutability": "payable",
      "type": "function"
    },
    {
      "inputs": [
        {
          "internalType": "address",
          "name": "from_",
          "type": "address"
        },
        {
          "internalType": "address",
          "name": "to_",
          "type": "address"
        },
        {
          "internalType": "uint256",
          "name": "tokenId_",
          "type": "uint256"
        },
        {
          "internalType": "bytes",
          "name": "data_",
          "type": "bytes"
        }
      ],
      "name": "safeTransferFrom",
      "outputs": [],
      "stateMutability": "payable",
      "type": "function"
    },
    {
      "inputs": [
        {
          "internalType": "address",
          "name": "operator_",
          "type": "address"
        },
        {
          "internalType": "bool",
          "name": "approved_",
          "type": "bool"
        }
      ],
      "name": "setApprovalForAll",
      "outputs": [],
      "stateMutability": "nonpayable",
      "type": "function"
    },
    {
      "inputs": [
        {
          "internalType": "uint256",
          "name": "tokenId_",
          "type": "uint256"
        }
      ],
      "name": "slotOf",
      "outputs": [
        {
          "internalType": "uint256",
          "name": "",
          "type": "uint256"
        }
      ],
      "stateMutability": "view",
      "type": "function"
    },
    {
      "inputs": [
        {
          "internalType": "uint256",
          "name": "slot_",
          "type": "uint256"
        }
      ],
      "name": "slotURI",
      "outputs": [
        {
          "internalType": "string",
          "name": "",
          "type": "string"
        }
      ],
      "stateMutability": "view",
      "type": "function"
    },
    {
      "inputs": [
        {
          "internalType": "bytes4",
          "name": "interfaceId",
          "type": "bytes4"
        }
      ],
      "name": "supportsInterface",
      "outputs": [
        {
          "internalType": "bool",
          "name": "",
          "type": "bool"
        }
      ],
      "stateMutability": "view",
      "type": "function"
    },
    {
      "inputs": [],
      "name": "symbol",
      "outputs": [
        {
          "internalType": "string",
          "name": "",
          "type": "string"
        }
      ],
      "stateMutability": "view",
      "type": "function"
    },
    {
      "inputs": [
        {
          "internalType": "uint256",
          "name": "index_",
          "type": "uint256"
        }
      ],
      "name": "tokenByIndex",
      "outputs": [
        {
          "internalType": "uint256",
          "name": "",
          "type": "uint256"
        }
      ],
      "stateMutability": "view",
      "type": "function"
    },
    {
      "inputs": [
        {
          "internalType": "uint256",
          "name": "tokenId_",
          "type": "uint256"
        }
      ],
      "name": "tokenDiscount",
      "outputs": [
        {
          "internalType": "uint256",
          "name": "",
          "type": "uint256"
        }
      ],
      "stateMutability": "view",
      "type": "function"
    },
    {
      "inputs": [
        {
          "internalType": "address",
          "name": "owner_",
          "type": "address"
        },
        {
          "internalType": "uint256",
          "name": "index_",
          "type": "uint256"
        }
      ],
      "name": "tokenOfOwnerByIndex",
      "outputs": [
        {
          "internalType": "uint256",
          "name": "",
          "type": "uint256"
        }
      ],
      "stateMutability": "view",
      "type": "function"
    },
    {
      "inputs": [
        {
          "internalType": "uint256",
          "name": "tokenId_",
          "type": "uint256"
        }
      ],
      "name": "tokenURI",
      "outputs": [
        {
          "internalType": "string",
          "name": "",
          "type": "string"
        }
      ],
      "stateMutability": "view",
      "type": "function"
    },
    {
      "inputs": [],
      "name": "totalBalance",
      "outputs": [
        {
          "internalType": "uint256",
          "name": "",
          "type": "uint256"
        }
      ],
      "stateMutability": "view",
      "type": "function"
    },
    {
      "inputs": [],
      "name": "totalSupply",
      "outputs": [
        {
          "internalType": "uint256",
          "name": "",
          "type": "uint256"
        }
      ],
      "stateMutability": "view",
      "type": "function"
    },
    {
      "inputs": [
        {
          "internalType": "uint256",
          "name": "fromTokenId_",
          "type": "uint256"
        },
        {
          "internalType": "address",
          "name": "to_",
          "type": "address"
        },
        {
          "internalType": "uint256",
          "name": "value_",
          "type": "uint256"
        }
      ],
      "name": "transferFrom",
      "outputs": [
        {
          "internalType": "uint256",
          "name": "",
          "type": "uint256"
        }
      ],
      "stateMutability": "payable",
      "type": "function"
    },
    {
      "inputs": [
        {
          "internalType": "address",
          "name": "fromContract_",
          "type": "address"
        },
        {
          "internalType": "uint256",
          "name": "fromTokenId_",
          "type": "uint256"
        },
        {
          "internalType": "address",
          "name": "toContract_",
          "type": "address"
        },
        {
          "internalType": "uint256",
          "name": "toTokenId_",
          "type": "uint256"
        },
        {
          "internalType": "uint256",
          "name": "value_",
          "type": "uint256"
        }
      ],
      "name": "transferFrom",
      "outputs": [],
      "stateMutability": "payable",
      "type": "function"
    },
    {
      "inputs": [
        {
          "internalType": "address",
          "name": "from_",
          "type": "address"
        },
        {
          "internalType": "address",
          "name": "to_",
          "type": "address"
        },
        {
          "internalType": "uint256",
          "name": "tokenId_",
          "type": "uint256"
        }
      ],
      "name": "transferFrom",
      "outputs": [],
      "stateMutability": "payable",
      "type": "function"
    },
    {
      "inputs": [
        {
          "internalType": "uint256",
          "name": "fromTokenId_",
          "type": "uint256"
        },
        {
          "internalType": "uint256",
          "name": "toTokenId_",
          "type": "uint256"
        },
        {
          "internalType": "uint256",
          "name": "value_",
          "type": "uint256"
        }
      ],
      "name": "transferFrom",
      "outputs": [],
      "stateMutability": "payable",
      "type": "function"
    },
    {
      "inputs": [
        {
          "internalType": "string",
          "name": "assetId_",
          "type": "string"
        },
        {
          "internalType": "string",
          "name": "side_",
          "type": "string"
        }
      ],
      "name": "validOffers",
      "outputs": [
        {
          "components": [
            {
              "internalType": "uint256",
              "name": "offerId",
              "type": "uint256"
            },
            {
              "internalType": "address",
              "name": "owner",
              "type": "address"
            },
            {
              "internalType": "string",
              "name": "side",
              "type": "string"
            },
            {
              "internalType": "uint256",
              "name": "price",
              "type": "uint256"
            },
            {
              "internalType": "uint256",
              "name": "tokenId",
              "type": "uint256"
            },
            {
              "internalType": "uint256",
              "name": "expiration",
              "type": "uint256"
            }
          ],
          "internalType": "struct Service.Offer[]",
          "name": "",
          "type": "tuple[]"
        }
      ],
      "stateMutability": "view",
      "type": "function"
    },
    {
      "inputs": [],
      "name": "valueContractAddress",
      "outputs": [
        {
          "internalType": "address",
          "name": "",
          "type": "address"
        }
      ],
      "stateMutability": "view",
      "type": "function"
    },
    {
      "inputs": [],
      "name": "valueDecimals",
      "outputs": [
        {
          "internalType": "uint8",
          "name": "",
          "type": "uint8"
        }
      ],
      "stateMutability": "view",
      "type": "function"
    }
  ],
  "bytecode": "0x6080806040523462000aed57600090620088ab803803809162000023828562000b24565b833981016101a08282031262000ae9576200003e8262000b48565b916200004d6020820162000b48565b926200005c6040830162000b48565b946200006b6060840162000b48565b946200007a6080850162000b48565b9060a08501519560c086015160018060401b03811162000ae55781620000a291880162000b82565b60e08701519093906001600160401b03811162000ae15782620000c791890162000b82565b6101008801519098906001600160401b03811162000add5783620000ed918a0162000b82565b6101208901519095906001600160401b038111620007a5578462000113918b0162000b82565b6101408a01519093906001600160401b03811162000ad5578562000139918c0162000b82565b6101608b01519095906001600160401b03811162000ad9576101809162000162918d0162000b82565b9a01519a60ff8c168c0362000ad55760405192620001808462000af2565b60048452630c6c2e6d60e31b602085015260016003558051906001600160401b03821162000ac1578a54600181811c9116801562000ab6575b602082101462000aa2579081601f84931162000a4e575b50602090601f8311600114620009e0578c92620009d4575b50508160011b916000199060031b1c19161789555b8051906001600160401b038211620009c057600154600181811c91168015620009b5575b6020821014620009a1579081601f84931162000941575b50602090601f8311600114620008c5578b92620008b9575b50508160011b916000199060031b1c1916176001555b60ff8b1660ff19600254161760025587805260096020526040882060018060a01b038216895260205260ff6040892054161562000872575b600b80546001600160a01b03199081166001600160a01b0393841617909155600c849055600a805482168b8416179055600d80548216888416179055600e8054909116918e169190911790556010546040518251919291602080830192916200032191908390620003138187858a0162000b5d565b810103808452018262000b24565b51902060405160208101906374696d6560e01b825260048152620003458162000af2565b51902003620007bd5750865b6004811015620007a9576001600160a81b031982166001600160a01b038d81169190911760a083901b60ff60a01b161760105586163b15620007a5576040516394b39b0960e01b81526001600160a01b038a8116600480840191909152602483019590955290936001600160a81b0319909316908d161760a091821b60ff60a01b1617901c60ff1690811015620007915760448201528581606481836001600160a01b0389165af18015620007865762000755575b50604051936001600160401b036120c5860190811190861117620007415791620004676200047e92620004508796956120c5620067a6893960806120c58901818152019062000bdd565b906120c58701820360206120c58901015262000bdd565b906120c58501820360406120c58701015262000bdd565b6001600160a01b039091166120c5830160600152039082f0908115620007355750600880546001600160a01b0319166001600160a01b03928316179055600b541660008181527f3d62299d961dc9bf64f24e2e5b7d5a2b17ee5fc8163a3ddca90e52de8744675560205260409020547f1cd6d520d98babae1045eb69c31ecab800996aa332094cb55c0ac10362e9b0c9919060ff1615620006f2575b50506001600160a01b03811660009081527ff0bca53ec534e170e0b4115320ce2b072ee8e3338cc6b0c7b13351839d628e0a60205260409020547f9a95e87c5af084bf5db8491c3a6515da9dd6da39b24b0eb0af08d7b9cd808d919060ff1615620006a2575b50507f9ac4f8025631594629895b778dc5ee88d01673a254a2291f6b6b174ad25230ca602060018060a01b0360085416604051908152a1629896806019556020815191012060046020604051620005d78162000af2565b82815201635553444360e01b815220146000146200063757601c80546001600160a01b039384166001600160a01b03199182161790915560ff9190911660175560168054939092169216919091179055604051615ba1908162000c058239f35b60405162461bcd60e51b815260206004820152603660248201527f436173684372656469743a204f6e6c79205553444320756e6465726c79696e6760448201527f20616363657074656420617420746869732074696d65000000000000000000006064820152608490fd5b60008181526009602090815260408083206001600160a01b0395909516808452949091528120805460ff19166001179055339291906000805160206200886b8339815191529080a4388062000580565b8160005260096020526040600020816000526020526040600020600160ff1982541617905533916000805160206200886b833981519152600080a438806200051a565b604051903d90823e3d90fd5b634e487b7160e01b86526041600452602486fd5b9094906001600160401b0381116200077257604052933862000406565b634e487b7160e01b82526041600452602482fd5b6040513d88823e3d90fd5b634e487b7160e01b87526021600452602487fd5b8780fd5b634e487b7160e01b88526021600452602488fd5b6040516020810190620007dd6020828551620003138187858a0162000b5d565b5190206040516020810190630c6c2e6d60e31b825260048152620008018162000af2565b51902003620008135750600162000351565b604051620008336020828162000313818301968781519384920162000b5d565b519020604051602081019065636f756e747360d01b825260068152620008598162000af2565b519020036200086a57600262000351565b600362000351565b878052600960209081526040808a206001600160a01b038416808c5292528920805460ff191660011790553390896000805160206200886b8339815191528180a46200029e565b01519050388062000250565b60018c528b93506000805160206200888b83398151915291905b601f198416851062000925576001945083601f198116106200090b575b505050811b0160015562000266565b015160001960f88460031b161c19169055388080620008fc565b81810151835560209485019460019093019290910190620008df565b60018c529091506000805160206200888b833981519152601f840160051c81016020851062000999575b90849392915b8d601f840160051c830182106200098b5750505062000238565b815585945060010162000971565b50806200096b565b634e487b7160e01b8b52602260045260248bfd5b90607f169062000221565b634e487b7160e01b8a52604160045260248afd5b015190503880620001e8565b92508b805260208c20908c935b601f198416851062000a32576001945083601f1981161062000a18575b505050811b018955620001fd565b015160001960f88460031b161c1916905538808062000a0a565b81810151835560209485019460019093019290910190620009ed565b9091508b805260208c20601f840160051c81016020851062000a9a575b84939291908e5b601f840160051c8301821062000a8b57505050620001d0565b81558594506001018e62000a72565b508062000a6b565b634e487b7160e01b8c52602260045260248cfd5b90607f1690620001b9565b634e487b7160e01b8b52604160045260248bfd5b8880fd5b8980fd5b8680fd5b8580fd5b8480fd5b8280fd5b600080fd5b604081019081106001600160401b0382111762000b0e57604052565b634e487b7160e01b600052604160045260246000fd5b601f909101601f19168101906001600160401b0382119082101762000b0e57604052565b51906001600160a01b038216820362000aed57565b60005b83811062000b715750506000910152565b818101518382015260200162000b60565b81601f8201121562000aed5780516001600160401b03811162000b0e576040519262000bb9601f8301601f19166020018562000b24565b8184526020828401011162000aed5762000bda916020808501910162000b5d565b90565b9060209162000bf88151809281855285808601910162000b5d565b601f01601f191601019056fe608080604052600436101561001357600080fd5b600090813560e01c90816301ffc9a714612c5257508063020dbf2514612a7557806303e20953146128e857806306fdde031461284557806307913686146124d9578063081812fc146124ba578063095ea7b31461237f57806309c3dd87146120ab5780630f485c02146120975780631375d843146120315780631429fb5714611d6757806318160ddd14611d495780631d856ea714611d0c5780631f5d5f0014611bbd57806323b872dd14611b985780632425eeaf14611841578063248a9ca314611814578063263f3e7e146117f55780632f2ff15d146117425780632f745c5914611699578063310ed7f01461168357806331b5b907146115f957806336568abe1461156657806339ace21f146115475780633e7e8669146115265780633f5d7067146112fd57806341815ee41461120257806342842e0e146111df5780634f6ccce71461115a578063505a38531461113c5780636352211e1461110b57806370a08231146110e757806371f0442e146110815780637795524514611058578063840f71131461102f5780638cb0a51114610eed57806391d1485414610ea157806395d89b4114610dc25780639cc7f70814610da3578063a217fddf14610d87578063a22cb46514610cb2578063a7c9f2d614610c77578063a84565e614610c25578063aa20ce5514610976578063ad7a672f14610958578063b198fc541461092f578063b3154c08146108c9578063b88d4fde1461086a578063be950a6214610721578063c87b56dd1461068c578063cf2d6fe61461041d578063d09445c2146103e2578063d547741f146103a1578063e345e0bc14610372578063e8a3d485146102e25763e985e9c51461028957600080fd5b346102df5760403660031901126102df576102a2612ca7565b600260406102ae612cbd565b9360018060a01b038094168152600760205220019116600052602052602060ff604060002054166040519015158152f35b80fd5b50346102df57806003193601126102df57600854604051631c97e82760e21b8152908290829060049082906001600160a01b03165afa90811561036757826103409392610344575b5050604051918291602083526020830190612e7f565b0390f35b61036092503d8091833e6103588183612d37565b810190613467565b388061032a565b6040513d84823e3d90fd5b50346102df5760403660031901126102df576020610399610391612cbd565b600435615aa0565b604051908152f35b50346102df5760403660031901126102df576103df6004356103c1612cbd565b9080845260096020526103da6001604086200154612f1d565b613252565b80f35b50346102df57806003193601126102df5760206040517f9a95e87c5af084bf5db8491c3a6515da9dd6da39b24b0eb0af08d7b9cd808d918152f35b50346102df5760c03660031901126102df57610437612ca7565b6064356001600160401b036084358181116106885761045a903690600401612daa565b9060a43581811161068457610473903690600401612daa565b93600f549461048186613b77565b600f5583516020809501209283885260139283865260408920888a5286526001908160408b20019060018060a01b03166001600160601b0360a01b82541617905584895283865260408920888a5286528760408a205584895283865260408920888a528652600260408a2001928051928311610670576105018454613325565b601f8111610637575b5086908a601f85116001146105bd579360409997959381938293600080516020615b4c8339815191529d9b9997946105b2575b50501b916000199060031b1c19161790555b81885280835285882085895283526024356005878a20015581885280835285882085895283526044356004878a2001558188528252848720848852825282600386892001558652601481526105a683858820613ae0565b8351928352820152a180f35b01519250388061053d565b50848b52878b209293929190601f1984168c5b818110610622575091600080516020615b4c8339815191529b99979593918560409c9a98969410610609575b505050811b01905561054f565b015160001960f88460031b161c191690553880806105fc565b82840151855593860193928a01928a016105d0565b61066090858c52888c20601f860160051c8101918a8710610666575b601f0160051c0190613b86565b3861050a565b9091508190610653565b634e487b7160e01b8a52604160045260248afd5b8580fd5b8480fd5b50346102df5760203660031901126102df576004356106aa81615839565b801561070d575b6106ba9061369c565b6008546040516344a5a61760e11b815260048101929092528290829060249082906001600160a01b03165afa90811561036757826103409392610344575050604051918291602083526020830190612e7f565b506106ba61071a82615867565b90506106b1565b50346102df5760203660031901126102df577f9a95e87c5af084bf5db8491c3a6515da9dd6da39b24b0eb0af08d7b9cd808d9181526009602052604081203360005260205260ff60406000205416156107ff5760018060a01b039081600d541691600a541660ff60105460a01c16833b156107fb57604051916394b39b0960e01b83526004830152600435602483015260048110156107e75781606481858097819560448401525af18015610367576107d75750f35b6107e090612cd3565b6102df5780f35b634e487b7160e01b83526021600452602483fd5b8280fd5b60405162461bcd60e51b815260206004820152603760248201527f53656e646572206e6f7420617574686f72697a656420746f207265676973746560448201527f7220636f6e747261637420746f207468697320736c6f740000000000000000006064820152608490fd5b5060803660031901126102df5761087f612ca7565b610887612cbd565b606435916001600160401b0383116108c557366023840112156108c5576108bb6103df933690602481600401359101612d73565b91604435916135c5565b8380fd5b50346102df5760203660031901126102df57600854604051631662a98160e31b81526004803590820152908290829060249082906001600160a01b03165afa90811561036757826103409392610344575050604051918291602083526020830190612e7f565b50346102df57806003193601126102df576010546040516001600160a01b039091168152602090f35b50346102df57806003193601126102df576020601854604051908152f35b50346102df5760208161098836612dc8565b966003999295919699949394549961099f8b613b77565b600355600e54604051630151086360e31b81526001600160a01b039384166004820152602481019290925260448201939093526064810194909452839160849183918b91165af1908115610c1a578691610be0575b50868652601160205260408620556008546001600160a01b0316803b1561068457610a478692918392604051948580948193632108947560e21b83528d6004840152604060248401526044830190612e7f565b03925af1908115610bd5578591610bc1575b50506008546001600160a01b0316803b1561068857610aa0859291839260405194858094819363246a908b60e01b83528c6004840152604060248401526044830190612e7f565b03925af1908115610bb6578491610ba2575b50506008546001600160a01b0316803b156108c557610af98492918392604051948580948193630190503b60e61b83528b6004840152604060248401526044830190612e7f565b03925af1908115610b83578391610b8e575b50506008546001600160a01b031690813b156107fb578291610b5191604051948580948193637e468a5160e01b8352896004840152604060248401526044830190612e7f565b03925af18015610b8357610b6b575b602082604051908152f35b610b758391612cd3565b610b7f5781610b60565b5080fd5b6040513d85823e3d90fd5b610b9790612cd3565b610b7f578138610b0b565b610bab90612cd3565b6107fb578238610ab2565b6040513d86823e3d90fd5b610bca90612cd3565b6108c5578338610a59565b6040513d87823e3d90fd5b9550506020853d602011610c12575b81610bfc60209383612d37565b81010312610c0d57869451386109f4565b600080fd5b3d9150610bef565b6040513d88823e3d90fd5b50346102df5760a03660031901126102df57610c3f612ca7565b90608435906001600160401b0382116102df57602061039984610c653660048701612daa565b90606435906044359060243590613f3b565b50346102df57806003193601126102df5760206040517f1cd6d520d98babae1045eb69c31ecab800996aa332094cb55c0ac10362e9b0c98152f35b50346102df5760403660031901126102df57610ccc612ca7565b602435908115158092036107fb576001600160a01b031690338214610d425733835260076020526002604084200182600052602052604060002060ff1981541660ff83161790556040519081527f17307eab39ab6107e8899845ad3d59bd9653f200f220920489ca2b5937696c3160203392a380f35b60405162461bcd60e51b815260206004820152601a60248201527f455243333532353a20617070726f766520746f2063616c6c65720000000000006044820152606490fd5b50346102df57806003193601126102df57602090604051908152f35b50346102df5760203660031901126102df576020610399600435615920565b50346102df57806003193601126102df5760405160006001805490610de682613325565b80855291818116908115610e7a5750600114610e21575b61034084610e0d81860382612d37565b604051918291602083526020830190612e7f565b600081815292507fb10e2d527612073b26eecdfd717e6a320cf44b4afac2b0732d9fcbe2b7fa0cf65b828410610e62575050508101602001610e0d82610dfd565b80546020858701810191909152909301928101610e4a565b60ff191660208087019190915292151560051b85019092019250610e0d9150839050610dfd565b50346102df5760403660031901126102df576040610ebd612cbd565b9160043581526009602052209060018060a01b0316600052602052602060ff604060002054166040519015158152f35b50610ef736612ea4565b90610f01836158dd565b83610f0b84615839565b8061101c575b15610fae5750610f376001600160a01b0380610f2c866136e8565b169083161415613645565b610f418333613769565b15610f4f576103df9261529f565b60405162461bcd60e51b815260206004820152603160248201527f455243333532353a20617070726f76652063616c6c6572206973206e6f74206f6044820152701ddb995c881b9bdc88185c1c1c9bdd9959607a1b6064820152608490fd5b600e54938152601160205260408120549093919290916001600160a01b0316803b1561068857604051638cb0a51160e01b815260048101939093526001600160a01b0393909316602483015260448201529082908290606490829084905af18015610367576107d757505080f35b5061102684613440565b600c5414610f11565b50346102df57806003193601126102df576008546040516001600160a01b039091168152602090f35b50346102df57806003193601126102df57600a546040516001600160a01b039091168152602090f35b50346102df5760203660031901126102df576008546040516338f8221760e11b81526004803590820152908290829060249082906001600160a01b03165afa90811561036757826103409392610344575050604051918291602083526020830190612e7f565b50346102df5760203660031901126102df576020610399611106612ca7565b6134e5565b50346102df5760203660031901126102df57602061112a6004356159bc565b6040516001600160a01b039091168152f35b50346102df57806003193601126102df576020600c54604051908152f35b50346102df5760203660031901126102df5760043560055481101561118e57611184602091613405565b5054604051908152f35b60405162461bcd60e51b815260206004820152602360248201527f455243333532353a20676c6f62616c20696e646578206f7574206f6620626f756044820152626e647360e81b6064820152608490fd5b506103df6111ec36612ee8565b90604051926111fa84612d1c565b8584526135c5565b50346102df57806003193601126102df5760ff60105460a01c1660048110156112e9576003810361126757505061034060405161123e81612d01565b60088152677072696f7269747960c01b6020820152604051918291602083526020830190612e7f565b8061129357505061034060405161127d81612d01565b600481526374696d6560e01b6020820152610e0d565b6002141590506112c4576103406040516112ac81612d01565b6006815265636f756e747360d01b6020820152610e0d565b6103406040516112d381612d01565b60048152630c6c2e6d60e31b6020820152610e0d565b634e487b7160e01b82526021600452602482fd5b50346102df5760a03660031901126102df576001600160401b036044356064358281116108c557611332903690600401612daa565b6084358381116106885761134a903690600401612daa565b600f549361135785613b77565b600f5582516020809401209182875260139182855260408820878952855260018060408a2001336001600160601b0360a01b82541617905584895283865260408920888a5286528760408a205584895283865260408920888a528652600260408a2001928051928311610670576113ce8454613325565b601f81116114f8575b5086908a601f851160011461147e579360409997959381938293600080516020615b4c8339815191529d9b999794611473575b50501b916000199060031b1c19161790555b81885280835285882085895283526004356005878a20015581885280835285882085895283526024356004878a2001558188528252848720848852825282600386892001558652601481526105a683858820613ae0565b01519250388061140a565b50848b52878b209293929190601f1984168c5b8181106114e3575091600080516020615b4c8339815191529b99979593918560409c9a989694106114ca575b505050811b01905561141c565b015160001960f88460031b161c191690553880806114bd565b82840151855593860193928a01928a01611491565b61152090858c52888c20601f860160051c8101918a871061066657601f0160051c0190613b86565b386113d7565b50346102df57806003193601126102df57602060ff60025416604051908152f35b50346102df5760203660031901126102df576020610399600435613d6e565b50346102df5760403660031901126102df57611580612cbd565b336001600160a01b0382160361159c576103df90600435613252565b60405162461bcd60e51b815260206004820152602f60248201527f416363657373436f6e74726f6c3a2063616e206f6e6c792072656e6f756e636560448201526e103937b632b9903337b91039b2b63360891b6064820152608490fd5b50346102df5760203660031901126102df57806004356001600160401b0381116116805761162b903690600401612daa565b6008546001600160a01b0316803b1561167c576040516355f804b360e01b815260206004820152918391839182908490829061166b906024830190612e7f565b03925af18015610367576107d75750f35b5050fd5b50fd5b506103df61169036612ece565b91309030614381565b50346102df5760403660031901126102df576116b3612ca7565b906024356116c0836134e5565b8110156116f25760406116e49260209460018060a01b031681526007855220613751565b90546040519160031b1c8152f35b60405162461bcd60e51b815260206004820152602260248201527f455243333532353a206f776e657220696e646578206f7574206f6620626f756e604482015261647360f01b6064820152608490fd5b50346102df5760403660031901126102df5760043561175f612cbd565b81835260096020526117776001604085200154612f1d565b8183526009602052604083209060018060a01b0316908160005260205260ff60406000205416156117a6578280f35b818352600960205260408320816000526020526040600020600160ff1982541617905533917f2f8788117e7eff1d82e926ec794901d17c78024a50270940304540a733656f0d8480a438808280f35b50346102df5760203660031901126102df576020610399600435613440565b50346102df5760203660031901126102df5760016040602092600435815260098452200154604051908152f35b50346102df5760403660031901126102df576001600160401b036004358181116107fb57611873903690600401612daa565b906024359081116107fb5761188c903690600401612daa565b9080516020809201209182845260148252604084206040519081848254918281520191875284872090875b818110611b8457505050816118cd910382612d37565b849282810191845b81518110156119935786885260138352604088206118f38284615a8c565b518952835260a06040892060405161190a81612ce6565b81548152600180841b0360018301541686820152600561192c6002840161335f565b9283604084015260038101546060840152600481015460808401520154928391015284815191012086518620149081611989575b50611974575b61196f90613b77565b6118d5565b9461198161196f91613b77565b959050611966565b9050421038611960565b50929391936119a183614d69565b926119af6040519485612d37565b8084526119be601f1991614d69565b0182885b828110611b4a575050508693875b8151811015611aa95787895260138452604089206119ee8284615a8c565b518a5284526040892060405190611a0482612ce6565b8054825260018101546001600160a01b0316868301526005611a286002830161335f565b9182604085015260038101546060850152600481015460808501520154908160a084015286815191012085518a20149081611a9f575b50611a73575b50611a6e90613b77565b6119d0565b9590611a9882611a86611a6e9491613b77565b98611a91828a615a8c565b5287615a8c565b5090611a64565b9050421038611a5e565b83898660405191838301848452825180915260408401948060408360051b870101940192955b828710611adc5785850386f35b909192938280600192603f1989820301855287519081518152848060a01b03838301511683820152611b1c604083015160c0806040850152830190612e7f565b91606080820151908301526080808201519083015260a0809101519101529601920196019592919092611acf565b604051611b5681612ce6565b8a81528a838201528a60608060408401528201528a60808201528a60a08201528282880101520183906119c2565b8254845292860192600192830192016118b7565b506103df611ba536612ee8565b91611bb8611bb38433613769565b61355e565b6137da565b50346102df57611bcc36612ece565b604051926339ace21f60e01b845260048401526020928381602481335afa8015610bd5578590611cdd575b611c0d9150611c07601754613d48565b906134c5565b612710908103818111611cc95792611c4a83611c8a93611c2f88968a986132c8565b0492611c3a816136e8565b50611c4481613440565b50614349565b601c546040516323b872dd60e01b81523360048201523060248201526044810192909252909384926001600160a01b039092169183919082906064820190565b03925af18015610b8357611c9c578280f35b81611cbb92903d10611cc2575b611cb38183612d37565b810190613d56565b5038808280f35b503d611ca9565b634e487b7160e01b86526011600452602486fd5b508381813d8311611d05575b611cf38183612d37565b81010312610c0d57611c0d9051611bf7565b503d611ce9565b5060a03660031901126102df57611d21612ca7565b6044356001600160a01b0381168103610c0d576103df91608435916064359160243590614381565b50346102df57806003193601126102df576020600554604051908152f35b50346102df5760e03660031901126102df57611d81612ca7565b90602435906044356001600160401b036064358181116108c557611da9903690600401612daa565b92608435828111610b7f57611dc2903690600401612daa565b9160a4358181116107fb57611ddb903690600401612daa565b9160c4359182116102df575090611dfa611e0693923690600401612daa565b9160009585888a61479a565b600d5490936001600160a01b039390918416803b15610b7f5781809160446040518094819363317bf0ed60e21b83528b60048401528860248401525af1801561036757612022575b50600c548203611fc9575b60408051868152602081018490529081018490527f4af706e18e55b579174ac72261103ef5aa29a76f776089af4e6806dc3ac3cb4194908590606090a1611ea2846018546132f1565b601855858252611f5960208098601a8252846040812055611ee9601954611ee489611edf611ed960408b2054611c07601754613d48565b84613b6a565b6132c8565b6134c5565b938491878752601b84528160408820911660005283526040600020611f0f8382546132f1565b9055601c54600b546040516323b872dd60e01b81529083166001600160a01b0316600482015230602482015260448101939093529193849291909116908290879082906064820190565b03925af18015610b835791611f8191604093611fac575b5087845260128952828420546132f1565b86835260128852912055604080518581526020810192909252810191909152606090a1604051908152f35b611fc2908a3d8c11611cc257611cb38183612d37565b5038611f70565b8360165416803b15610b7f57818091604460405180948193638e9eeaef60e01b83528860048401528b60248401525af180156103675790829161200e575b5050611e59565b61201790612cd3565b6102df578038612007565b61202b90612cd3565b38611e4e565b50346102df5760203660031901126102df57600854604051631375d84360e01b81526004803590820152908290829060249082906001600160a01b03165afa90811561036757826103409392610344575050604051918291602083526020830190612e7f565b60206103996120a536612ea4565b91614d80565b50346102df57602090816003193601126102df5760043560018060a01b036008541690604051636c0360eb60e01b81528381600481865afa908115610bb6578491612365575b50821561216257508290602460405180948193633601bfc560e11b835260048301525afa91821561215657809261213b575b5050905b610340604051928284938452830190612e7f565b61214f92503d8091833e6103588183612d37565b3880612123565b604051903d90823e3d90fd5b8051909392501561232a578190807a184f03e93ff9f4daa797ed6e38ed64bf6a1f010000000000000000818181101561231c575b5050856d04ee2d6d415b85acef81000000008084101561230e575b5050662386f26fc10000808310156122ff575b506305f5e100808310156122f0575b50612710808310156122e1575b5060648210156122d1575b600a809210156122c7575b6001908160218186019561222261220c88612d58565b9761221a604051998a612d37565b808952612d58565b878b019890601f1901368a3750860101905b612291575b5050505061227c9261228b92602592604051958361226088955180928b8089019101612e5c565b84019164736c6f742f60d81b8984015251809386840190612e5c565b01036005810184520182612d37565b90612127565b600019019083906f181899199a1a9b1b9c1cb0b131b232b360811b8282061a8353049182156122c257919082612234565b612239565b91600101916121f6565b91906064600291049101916121eb565b600491939204910191386121e0565b600891939204910191386121d3565b601091939204910191386121c4565b9301929091049085386121b1565b604094500491503880612196565b5060405191508282016001600160401b0381118382101761234f57604052815261228b565b634e487b7160e01b600052604160045260246000fd5b61237991503d8086833e6103588183612d37565b386120f1565b5060403660031901126102df57612394612ca7565b602435906001600160a01b0380806123ab856136e8565b169216916123bb81841415613645565b803314908115612494575b50156124295782600052600660205260046123e5604060002054613405565b500180546001600160a01b03191683179055612400836136e8565b167f8c5be1e5ebec7d5bd14f71427d1e84f3dd0314c0f7b2291e5b200ac8c7c3b925600080a480f35b60405162461bcd60e51b815260206004820152603960248201527f455243333532353a20617070726f76652063616c6c6572206973206e6f74206f60448201527f776e6572206e6f7220617070726f76656420666f7220616c6c000000000000006064820152608490fd5b905084526007602052600260408520013360005260205260ff60406000205416386123c6565b50346102df5760203660031901126102df57602061112a600435613721565b50346102df5760c03660031901126102df576124f3612ca7565b60243590604435916064359160a4356001600160401b0381116106845761251e903690600401612daa565b936001600160a01b03828116612533856136e8565b8216331480156127e4575b61254790613e52565b61255b8661255487613abf565b1015613eaa565b6040516312db76c160e21b81523060048201526020979089908981602481875afa908115610367578289928b928d95916127c7575b5015612763575b91611ee46125c392611edf611ed9604061261f9b97601954968152601a8a522054611c07601754613d48565b968791878d52601b845260408d203360005284526125e8604060002054841115613ef6565b601c5416908c60405180988195829463095ea7b360e01b84526004840160209093929193604081019460018060a01b031681520152565b03925af19182156127585761267e93899361273b575b50868a52601a835260408a20548a604051809681958294632f1d61b960e11b84523060048501528c60248501528a6044850152606484015260e0608484015260e4830190612e7f565b8b60a483015260843560c483015203925af18015612730579161270a969791604093612713575b508152601b87522033600052855260406000206126c3828254613b6a565b905560405190838252858201527f3d3d75b7882b9fce0686df4e58e022dfe10deefe33da0e845564f0511e46cf6e60403392a261270282601854613b6a565b6018556142a1565b60405160018152f35b61272990893d8b11611cc257611cb38183612d37565b50386126a5565b6040513d89823e3d90fd5b61275190843d8611611cc257611cb38183612d37565b5038612635565b6040513d8b823e3d90fd5b50505050813b156127c35760405162f4c5fd60e11b815230600482015292898460248183875af1908a8215612156578989918c946127a6575b9091929650612597565b93505050936127b58291612cd3565b6102df578387898b9361279c565b8880fd5b6127de9150853d8711611cc257611cb38183612d37565b38612590565b5081600d5416602060405180926309de907160e11b8252818061280a3360048301613e1f565b03915afa801561275857612547918a91612827575b50905061253e565b61283f915060203d8111611cc257611cb38183612d37565b3861281f565b50346102df57806003193601126102df576040516000805461286681613325565b80845290600190818116908115610e7a575060011461288f5761034084610e0d81860382612d37565b600080805292507f290decd9548b62a8d60345a988386fc84ba6bc95484008f6362f93160ef3e5635b8284106128d0575050508101602001610e0d82610dfd565b805460208587018101919091529093019281016128b8565b50346102df576020816128fa36612dc8565b979491958561292360ff60029c9697949a9c541693611c0760018060a01b03600e541695613d48565b604051630bbed13160e21b81526001600160a01b039c909c1660048d015260248c019290925260448b019390935260648a015288916084918391905af1958615610367578296612a41575b506003549561297c87613b77565b600355868352601160205260408320556008546001600160a01b031690813b156107fb5782916129d091604051948580948193632108947560e21b83528c6004840152604060248401526044830190612e7f565b03925af18015610c1a57612a2a575b5060085485939291906001600160a01b0316803b1561068857610aa0859291839260405194858094819363246a908b60e01b83528c6004840152604060248401526044830190612e7f565b612a38909591939295612cd3565b939091386129df565b9095506020813d602011612a6d575b81612a5d60209383612d37565b81010312610b7f5751943861296e565b3d9150612a50565b50346102df57612a99612a8736612dc8565b92858789989a96979b9994939461479a565b600d549094906001600160a01b039085908216803b15610b7f5781809160446040518094819363317bf0ed60e21b83528d60048401528960248401525af1801561036757612c40575b50600c548303612be3575b60408051888152602081018590528082018a9052612b8c95949392907f4af706e18e55b579174ac72261103ef5aa29a76f776089af4e6806dc3ac3cb4190606090a1612b3b8a6018546132f1565b601855888852612b6d88611ee460209c8d98601a8a5286842055611edf611ed987601954952054611c07601754613d48565b9687948952601b865283838a2091168252855220611f0f8382546132f1565b03925af18015610b835791612bb491604093612bc6575b5084845260128652828420546132f1565b91838152601285522055604051908152f35b612bdc90873d8911611cc257611cb38183612d37565b5038612ba3565b8160165416803b15612c3c57868091604460405180948193638e9eeaef60e01b83528960048401528d60248401525af1801561273057908791612c28575b5050612aed565b612c3190612cd3565b610684578538612c21565b8680fd5b612c4b919650612cd3565b8438612ae2565b905034610b7f576020366003190112610b7f5760043563ffffffff60e01b81168091036107fb5760209250637965db0b60e01b8114908115612c96575b5015158152f35b6301ffc9a760e01b14905038612c8f565b600435906001600160a01b0382168203610c0d57565b602435906001600160a01b0382168203610c0d57565b6001600160401b03811161234f57604052565b60c081019081106001600160401b0382111761234f57604052565b604081019081106001600160401b0382111761234f57604052565b602081019081106001600160401b0382111761234f57604052565b90601f801991011681019081106001600160401b0382111761234f57604052565b6001600160401b03811161234f57601f01601f191660200190565b929192612d7f82612d58565b91612d8d6040519384612d37565b829481845281830111610c0d578281602093846000960137010152565b9080601f83011215610c0d57816020612dc593359101612d73565b90565b610100600319820112610c0d576004356001600160a01b0381168103610c0d57916024359160443591606435916001600160401b0390608435828111610c0d5781612e1591600401612daa565b9260a435838111610c0d5782612e2d91600401612daa565b9260c435818111610c0d5783612e4591600401612daa565b9260e435918211610c0d57612dc591600401612daa565b60005b838110612e6f5750506000910152565b8181015183820152602001612e5f565b90602091612e9881518092818552858086019101612e5c565b601f01601f1916010190565b6060906003190112610c0d57600435906024356001600160a01b0381168103610c0d579060443590565b6060906003190112610c0d57600435906024359060443590565b6060906003190112610c0d576001600160a01b03906004358281168103610c0d57916024359081168103610c0d579060443590565b60009080825260209060098252604092838120338252835260ff848220541615612f475750505050565b8351916001600160401b039033606085018381118682101761323e578752602a8552858501918736843785511561322a5760308353855191600192831015613216576078602188015360295b8381116131ac575061316a579087519360808501908582109082111761315657885260428452868401946060368737845115613142576030865384518210156131425790607860218601536041915b8183116130d4575050506130925761308e9386936130729361306360489461303a9a519a8b957f416363657373436f6e74726f6c3a206163636f756e74200000000000000000008c8801525180926037880190612e5c565b8401917001034b99036b4b9b9b4b733903937b6329607d1b603784015251809386840190612e5c565b01036028810187520185612d37565b5192839262461bcd60e51b845260048401526024830190612e7f565b0390fd5b60648587519062461bcd60e51b825280600483015260248201527f537472696e67733a20686578206c656e67746820696e73756666696369656e746044820152fd5b909192600f8116601081101561312e576f181899199a1a9b1b9c1cb0b131b232b360811b901a61310485886132fe565b5360041c92801561311a57600019019190612fe2565b634e487b7160e01b82526011600452602482fd5b634e487b7160e01b83526032600452602483fd5b634e487b7160e01b81526032600452602490fd5b634e487b7160e01b86526041600452602486fd5b60648789519062461bcd60e51b825280600483015260248201527f537472696e67733a20686578206c656e67746820696e73756666696369656e746044820152fd5b90600f81166010811015613202576f181899199a1a9b1b9c1cb0b131b232b360811b901a6131da838a6132fe565b5360041c9080156131ee5760001901612f93565b634e487b7160e01b87526011600452602487fd5b634e487b7160e01b88526032600452602488fd5b634e487b7160e01b86526032600452602486fd5b634e487b7160e01b85526032600452602485fd5b634e487b7160e01b85526041600452602485fd5b906000918083526009602052604083209160018060a01b03169182845260205260ff60408420541661328357505050565b8083526009602052604083208284526020526040832060ff1981541690557ff6391f5c32d9c69d2a47ea670b442974b53935d1edc7fd64eb21e047a839171b339380a4565b818102929181159184041417156132db57565b634e487b7160e01b600052601160045260246000fd5b919082018092116132db57565b90815181101561330f570160200190565b634e487b7160e01b600052603260045260246000fd5b90600182811c92168015613355575b602083101461333f57565b634e487b7160e01b600052602260045260246000fd5b91607f1691613334565b906040519182600082549261337384613325565b9081845260019485811690816000146133e2575060011461339f575b505061339d92500383612d37565b565b9093915060005260209081600020936000915b8183106133ca57505061339d9350820101388061338f565b855488840185015294850194879450918301916133b2565b91505061339d94506020925060ff191682840152151560051b820101388061338f565b60055481101561330f576006906005600052027f036b6384b5eca791c62761152d0c79bb0604c104a5fb6f4eb0703f3154bb3db00190600090565b613449816158dd565b60005260066020526001613461604060002054613405565b50015490565b602081830312610c0d578051906001600160401b038211610c0d570181601f82011215610c0d57805161349981612d58565b926134a76040519485612d37565b81845260208284010111610c0d57612dc59160208085019101612e5c565b81156134cf570490565b634e487b7160e01b600052601260045260246000fd5b6001600160a01b0316801561350557600052600760205260406000205490565b60405162461bcd60e51b815260206004820152602b60248201527f455243333532353a2062616c616e636520717565727920666f7220746865207a60448201526a65726f206164647265737360a81b6064820152608490fd5b1561356557565b60405162461bcd60e51b815260206004820152603260248201527f455243333532353a207472616e736665722063616c6c6572206973206e6f74206044820152711bdddb995c881b9bdc88185c1c1c9bdd995960721b6064820152608490fd5b906135e99392916135d9611bb38433613769565b6135e48383836137da565b613c21565b156135f057565b60405162461bcd60e51b815260206004820152602760248201527f455243333532353a207472616e7366657220746f206e6f6e204552433732315260448201526632b1b2b4bb32b960c91b6064820152608490fd5b1561364c57565b60405162461bcd60e51b815260206004820152602260248201527f455243333532353a20617070726f76616c20746f2063757272656e74206f776e60448201526132b960f11b6064820152608490fd5b156136a357565b60405162461bcd60e51b815260206004820152601960248201527f455243333532353a20696e76616c696420746f6b656e204944000000000000006044820152606490fd5b6136f1816158dd565b6000526006602052613707604060002054613405565b50600301546001600160a01b03169061339d82151561369c565b61372a816158dd565b6000526006602052613740604060002054613405565b50600401546001600160a01b031690565b805482101561330f5760005260206000200190600090565b906001600160a01b03808061377d846136e8565b169316918383149384156137b0575b50831561379a575b50505090565b6137a691929350613721565b1614388080613794565b909350600052600760205260026040600020018260005260205260ff60406000205416923861378c565b6137e3836136e8565b6001600160a01b0391821691908116829003613a6e57808316928315613a1b5761380c85613440565b5061381685613abf565b506000918583526020906006825260409061383382862054613405565b50600490810180546001600160a01b03199081169091559091898782613858836136e8565b167f8c5be1e5ebec7d5bd14f71427d1e84f3dd0314c0f7b2291e5b200ac8c7c3b9258280a489875260068552600561389285892054613405565b500180549091858988818f5b8684106139e457505050505050508054878255806139cb575b50508886526006845260036138ce84882054613405565b50019081541690558585526007835281852091825493600019948581019081116139b857906138ff88939286613751565b90549060031b1c9060018601908c8552818152838520549261394081613925868b613751565b90919082549060031b600019811b9283911b16911916179055565b8552528183205589825281205581549081156139a55750928288926139a1947fddf252ad1be2c89b69c2b068fc378daa952ba7f163c4a11628f55a4df523b3ef9796019161398e8383613751565b909182549160031b1b1916905555613b03565b80a4565b634e487b7160e01b865260319052602485fd5b634e487b7160e01b885260118452602488fd5b6139dd91885285882090810190613b86565b38806138b7565b613a119486928b6139f5878c613751565b96905494835252209260031b1c168c5289528a88812055613b77565b8690888b8f61389e565b60405162461bcd60e51b815260206004820152602560248201527f455243333532353a207472616e7366657220746f20746865207a65726f206164604482015264647265737360d81b6064820152608490fd5b60405162461bcd60e51b8152602060048201526024808201527f455243333532353a207472616e736665722066726f6d20696e76616c6964206f6044820152633bb732b960e11b6064820152608490fd5b613ac8816158dd565b60005260066020526002613461604060002054613405565b90815491600160401b83101561234f578261392591600161339d95018155613751565b90604061339d9260009083825260066020526003613b2384842054613405565b500180546001600160a01b0319166001600160a01b039092169182179055808252600760208181528484208054878652600191909101825285852055918352905220613ae0565b919082039182116132db57565b60001981146132db5760010190565b818110613b91575050565b60008155600101613b86565b90600160401b811161234f57815490808355818110613bbb57505050565b61339d9260005260206000209182019101613b86565b90816020910312610c0d57516001600160e01b031981168103610c0d5790565b3d15613c1c573d90613c0282612d58565b91613c106040519384612d37565b82523d6000602084013e565b606090565b9192813b63ffffffff1615613d3f57602091613c79916000604051958680958194630a85bd0160e11b9a8b845233600485015260018060a01b0380951660248501526044840152608060648401526084830190612e7f565b0393165af160009181613d0f575b50613d0157613c94613bf1565b80519081613cfc5760405162461bcd60e51b815260206004820152603260248201527f4552433732313a207472616e7366657220746f206e6f6e20455243373231526560448201527131b2b4bb32b91034b6b83632b6b2b73a32b960711b6064820152608490fd5b602001fd5b6001600160e01b0319161490565b613d3191925060203d8111613d38575b613d298183612d37565b810190613bd1565b9038613c87565b503d613d1f565b50505050600190565b604d81116132db57600a0a90565b90816020910312610c0d57518015158103610c0d5790565b613d7781615839565b80613e0c575b15613d9357600052601a60205260406000205490565b6016546040516339ace21f60e01b81526004810192909252602090829060249082906001600160a01b03165afa908115613e0057600091613dd2575090565b906020823d8211613df8575b81613deb60209383612d37565b810103126102df57505190565b3d9150613dde565b6040513d6000823e3d90fd5b50613e1681613440565b600c5414613d7d565b60408082526009908201526826a5aa2fa0a226a4a760b91b60608201526001600160a01b03909116602082015260800190565b15613e5957565b60405162461bcd60e51b815260206004820152602360248201527f53656e646572206973206e6f7420617574686f72697a656420746f207265646560448201526232b69760e91b6064820152608490fd5b15613eb157565b60405162461bcd60e51b815260206004820152601c60248201527f56616c75652065786365656473206372656469742062616c616e6365000000006044820152606490fd5b15613efd57565b60405162461bcd60e51b8152602060048201526016602482015275496e73756666696369656e7420616c6c6f77616e636560501b6044820152606490fd5b6001600160a01b0380821695909490929091613f56826136e8565b86163314801561423f575b613f6a90613e52565b613f778361255484613abf565b604080516312db76c160e21b81523060048201526020989197600092918a81602481865afa90811561421857908b918591614222575b50156141c9575b61403891613fdf8b611ee48a611edf611ed9601954948d8c52601a89528b2054611c07601754613d48565b9586918b8752601b84528c87203360005284526140028d60002054841115613ef6565b601c541690868d5180968195829463095ea7b360e01b84526004840160209093929193604081019460018060a01b031681520152565b03925af190816141ac575b5061409b57875162461bcd60e51b8152600481018a9052602660248201527f43726564697473206e6f7420617070726f76656420666f722074686973206f66604482015265666572696e6760d01b6064820152608490fd5b97868195979985849a96989a52601a83528584205484896140fa89519d8e968795869463706fefd760e11b86523060048701526024860152604485015233606485015260848401528d60a484015260e060c484015260e4830190612e7f565b03925af19687156141a057819761416d575b50908282612dc598997f64c7d5c40799609542953bf8a06247851ffb5739aea8f092d8d4121086e51fc4959452601b86522033600052845281600020614153828254613b6a565b90558151938885528401523392a261270282601854613b6a565b965091908387813d8311614199575b6141868183612d37565b81010312610c0d5795519590918261410c565b503d61417c565b508251903d90823e3d90fd5b6141c2908b3d8d11611cc257611cb38183612d37565b5038614043565b50813b156107fb57885162f4c5fd60e11b8152306004820152838160248183875af1801561421857908b9291614201575b5090613fb4565b93614210614038939295612cd3565b9390916141fa565b8a513d86823e3d90fd5b6142399150823d8411611cc257611cb38183612d37565b38613fad565b5085600d5416602060405180926309de907160e11b825281806142653360048301613e1f565b03915afa8015613e0057613f6a91600091614283575b509050613f61565b61429b915060203d8111611cc257611cb38183612d37565b3861427b565b6142aa816158dd565b80600052600660205260026142c3604060002054613405565b500180548381106142f85783600080516020615b2c833981519152926142ed600096602094613b6a565b9055604051908152a3565b60405162461bcd60e51b815260206004820152602360248201527f455243333532353a206275726e2076616c756520657863656564732062616c616044820152626e636560e81b6064820152608490fd5b90600080516020615b2c83398151915260206000928484526006825260026143746040862054613405565b50016142ed8282546132f1565b909493916001600160a01b03913090831603614756578082163081036146485750506143ac83615920565b6000868152601a6020526040808220548683528183205491949293911461464257601754906143da82613d48565b916127108381029381850403611cc9576143f382613d48565b80820290828204036131ee5761441c89611edf614422938f8b52601a6020528b8b205490613b6a565b92613d48565b80820291820403611cc95791611c0761445c6144639361445684611edf61446999988f8d52601a6020528d8d205490613b6a565b906132f1565b91896132f1565b90613b6a565b858352601a602052838320555b61447f85615839565b8061462f575b8015614620575b156145aa5761449a87615839565b80614597575b80614574575b1561450b57505081614506916144e087947fdf7a601a0a201ccd4b4bfcfd610913188d931867997223d226f85f2f2673988a9798336151d7565b6144eb828686615471565b51938493846040919493926060820195825260208201520152565b0390a1565b600e9692949196541691823b15612c3c578451630310ed7f60e41b81526004810191909152602481019190915260448101929092529293909281908490606490829084905af191821561456a5750506145615750565b61339d90612cd3565b51903d90823e3d90fd5b5061457e85615839565b80156144a6575061458e85613440565b600c54146144a6565b506145a187613440565b600c54146144a0565b60a4835162461bcd60e51b815260206004820152604460248201527f546f6b656e204944206f66207265636569766572206e6f74207265636f676e6960448201527f7a6564206279207468697320636f6e7472616374206f722074686520726567696064820152637374727960e01b6084820152fd5b5061462a85615867565b61448c565b5061463985613440565b600c5414614485565b50614476565b92939160009691959695828752601a60205261466d6040882054611c07601754613d48565b61271090810381811161474257916146ca939161468c896020956132c8565b601c5460405163095ea7b360e01b81526001600160a01b039094166004850152919004602483015290938492919091169082908a9082906044820190565b03925af18015610c1a57614724575b50823b1561068857604051621f5d5f60e81b815260048101919091526024810191909152604481019290925290919081908390606490829084905af190811561215657506145615750565b61473b9060203d8111611cc257611cb38183612d37565b50386146d9565b634e487b7160e01b89526011600452602489fd5b606460405162461bcd60e51b815260206004820152602060248201527f5472616e7366657272696e672066726f6d2077726f6e6720636f6e74726163746044820152fd5b95909394919460009260018060a01b0391828916958686526015602052604096878720898852602052878720548781151580614d4b575b614d01575b614c9757506003549a6147e88c613b77565b6003558115614c49578b15614bfb576148008c615839565b8015614bec575b614ba857885161481681612d1c565b88815289518a8e61482683612ce6565b8083528d60208401908152828401908d82528d6060860193898552608087019582875260a08801988952600554928392815260066020522055600160401b811015614b945780600161487b9201600555613405565b959095614b805751855551600185015551600284015551600383018054918b166001600160a01b03199283161790559051600483018054918b16919092161790559051805191600501906001600160401b038311614b6c579060208f959493926148e58484613b9d565b01908b5260208b208b5b838110614b4957505050508261490491613b03565b877fddf252ad1be2c89b69c2b068fc378daa952ba7f163c4a11628f55a4df523b3ef8180a487868b7fe4f48c240d3b994948aa54f3e2f5fca59263dfe1d52b6e4cf39a5d249b5ccb658280a461495a898b614349565b8360085416803b15612c3c5761499691879189838e825196879586948593632108947560e21b8552600485015260248401526044830190612e7f565b03925af18015614b3f57614b2c575b508260085416803b15610684576149e19186918b838a5180968195829463246a908b60e01b845260048401528d60248401526044830190612e7f565b03925af18015614b2257908591614b0e575b50508160085416803b1561068857614a309185918a838951809681958294630190503b60e61b845260048401528c60248401526044830190612e7f565b03925af18015614b0457908491614af0575b50506008541690813b156107fb57614a7f839283928651948580948193637e468a5160e01b83528d60048401528a60248401526044830190612e7f565b03925af18015614ae657614ad2575b505051838152602081019190915260408101919091527f84eeb48eca46cea54afc9753345f6038981672ea565f32885420829dfd88aea69080606081015b0390a190565b614adc8291612cd3565b6102df5780614a8e565b83513d84823e3d90fd5b614af990612cd3565b6107fb578238614a42565b85513d86823e3d90fd5b614b1790612cd3565b6108c55783386149f3565b86513d87823e3d90fd5b614b3890959195612cd3565b93386149a5565b87513d88823e3d90fd5b82939495965060208b6001939451169401938184015501908f95949392916148ef565b634e487b7160e01b8b52604160045260248bfd5b634e487b7160e01b8f5260048f905260248ffd5b634e487b7160e01b8f52604160045260248ffd5b885162461bcd60e51b815260206004820152601d60248201527f455243333532353a20746f6b656e20616c7265616479206d696e7465640000006044820152606490fd5b50614bf68c615867565b614807565b885162461bcd60e51b815260206004820152602160248201527f455243333532353a2063616e6e6f74206d696e74207a65726f20746f6b656e496044820152601960fa1b6064820152608490fd5b885162461bcd60e51b815260206004820152602160248201527f455243333532353a206d696e7420746f20746865207a65726f206164647265736044820152607360f81b6064820152608490fd5b9a505050505050505090614acc7f84eeb48eca46cea54afc9753345f6038981672ea565f32885420829dfd88aea69392614cd0866136e8565b50614cda86613440565b50614ce58487614349565b5192839286846040919493926060820195825260208201520152565b8287614d0c846159bc565b161480614d3a575b80614d27575b156147d6575060016147d6565b5081895260116020528989205415614d1a565b508a614d4583613440565b14614d14565b50614d5582615839565b806147d15750614d6482615867565b6147d1565b6001600160401b03811161234f5760051b60200190565b9190916000908082526020916011835260409283822054156000146150f457614daa8584336151d7565b60035495614db787613b77565b600355614dc384613440565b906001600160a01b03808216919082156150a657891561505857614de68a615839565b8015615049575b6150055784908851614dfe81612d1c565b8781528951888b8e614e0f84612ce6565b8084528684018a81528285019184835260608601938b8552608087019580875260a0880198895260066005549b8c948352522055600160401b881015614ff157614e60600198898101600555613405565b959095614fdd57906005959493929151855551888501555160028401558560038401915116906001600160601b0360a01b9182825416179055856004840192511690825416179055019051918251926001600160401b03841161067057908883928f9b9a99989796959485614ed491613b9d565b0191895287892090895b848110614fc7575050505050507f6d811e6a20ae5461a4ef22a6998c1d958defe727f1cc522b6eb792bc8e6f726698979693869384614faa9794614f34614acc9a600080516020615b2c83398151915296613b03565b857fddf252ad1be2c89b69c2b068fc378daa952ba7f163c4a11628f55a4df523b3ef8180a483857fe4f48c240d3b994948aa54f3e2f5fca59263dfe1d52b6e4cf39a5d249b5ccb658280a483835260068152614f9288842054613405565b50508751838152a3614fa5858883615471565b613440565b915192839286846040919493926060820195825260208201520152565b83518216818401558f9b50928901928501614ede565b634e487b7160e01b8e5260048e905260248efd5b634e487b7160e01b8d52604160045260248dfd5b875162461bcd60e51b815260048101869052601d60248201527f455243333532353a20746f6b656e20616c7265616479206d696e7465640000006044820152606490fd5b506150538a615867565b614ded565b875162461bcd60e51b815260048101869052602160248201527f455243333532353a2063616e6e6f74206d696e74207a65726f20746f6b656e496044820152601960fa1b6064820152608490fd5b875162461bcd60e51b815260048101869052602160248201527f455243333532353a206d696e7420746f20746865207a65726f206164647265736044820152607360f81b6064820152608490fd5b600e5484516307a42e0160e11b8152600481018590526001600160a01b0397881660248201526044810187905291969192918791849160649183918691165af19586156151cb578196615174575b50505090614acc614faa7f6d811e6a20ae5461a4ef22a6998c1d958defe727f1cc522b6eb792bc8e6f72669493613440565b909180939650813d83116151c4575b61518d8183612d37565b810103126102df57505192614acc614faa7f6d811e6a20ae5461a4ef22a6998c1d958defe727f1cc522b6eb792bc8e6f7266615142565b503d615183565b508351903d90823e3d90fd5b6151e18183615271565b6151eb8383613769565b1580615265575b6151fd575b50505050565b838110615220576152179361521191613b6a565b9161529f565b388080806151f7565b60405162461bcd60e51b815260206004820152601f60248201527f455243333532353a20696e73756666696369656e7420616c6c6f77616e6365006044820152606490fd5b506000198114156151f2565b61527a816158dd565b600052600460205260406000209060018060a01b031660005260205260406000205490565b6001600160a01b03808316939192841561538857836152bd916153e0565b1561530b575b5060207f621b050de0ad08b51d19b48b3e6df75348c4de6bdd93e81b252ca62e28265b1b918360005260048252604060002085600052825280604060002055604051908152a3565b908260005260066020526005615325604060002054613405565b500190815492600160401b84101561234f578561536b8560209560017f621b050de0ad08b51d19b48b3e6df75348c4de6bdd93e81b252ca62e28265b1b98018155613751565b909283549160031b90811b9283911b1691191617905591506152c3565b60405162461bcd60e51b815260206004820152602a60248201527f455243333532353a20617070726f76652076616c756520746f20746865207a65604482015269726f206164647265737360b01b6064820152608490fd5b60009082825260066020908082526040906153fd82862054613405565b509260058094015496865b88811061541b5750505050505050905090565b8188528383526154398187615432888c2054613405565b5001613751565b905460039190911b1c6001600160a01b03908116908816146154635761545e90613b77565b615408565b505050505050505050600190565b61547a81615839565b8015615707575b156156b25761548f82615839565b80156156a3575b156156505780600052602092600684526040926154b68460002054613405565b5081600052600686526154cc8560002054613405565b509060028101908154908582106155f9576001015460018401540361559e57916002916154ff8661553c98979695613b6a565b90550161550d8382546132f1565b90558083600080516020615b2c833981519152888851868152a384519261553384612d1c565b60008452615716565b15615545575050565b60849250519062461bcd60e51b82526004820152602d60248201527f455243333532353a207472616e736665722072656a656374656420627920455260448201526c21999a991aa932b1b2b4bb32b960991b6064820152fd5b865162461bcd60e51b815260048101899052602e60248201527f455243333532353a207472616e7366657220746f20746f6b656e20776974682060448201526d191a5999995c995b9d081cdb1bdd60921b6064820152608490fd5b875162461bcd60e51b8152600481018a9052602a60248201527f455243333532353a20696e73756666696369656e742062616c616e636520666f60448201526939103a3930b739b332b960b11b6064820152608490fd5b60405162461bcd60e51b815260206004820152602560248201527f455243333532353a207472616e7366657220746f20696e76616c696420746f6b604482015264195b88125160da1b6064820152608490fd5b506156ad82615867565b615496565b60405162461bcd60e51b815260206004820152602760248201527f455243333532353a207472616e736665722066726f6d20696e76616c696420746044820152661bdad95b88125160ca1b6064820152608490fd5b5061571181615867565b615481565b929092615722846136e8565b803b63ffffffff161561582f576040516301ffc9a760e01b8152629ce20b60e01b6004820181905295602095926001600160a01b0316918681602481865afa60009181615810575b5061578557505050505050505061577f613bf1565b50600190565b1561580457600086946157c4604051978896879586948d865233600487015260248601526044850152606484015260a0608484015260a4830190612e7f565b03925af1918215613e00576000926157e7575b50506001600160e01b0319161490565b6157fd9250803d10613d3857613d298183612d37565b38806157d7565b50505050505050600190565b615828919250883d8a11611cc257611cb38183612d37565b903861576a565b5050505050600190565b60055415159081615848575090565b8091506000526006602052615861604060002054613405565b50541490565b8060005260116020526040600020541590811591615883575090565b600e546040516341ce4b3f60e01b81526004810192909252909150602090829060249082906001600160a01b03165afa908115613e00576000916158c5575090565b612dc5915060203d8111611cc257611cb38183612d37565b61339d906158ea81615839565b90811561590f575b81156158ff575b5061369c565b6159099150615867565b386158f9565b905061591a81615867565b906158f2565b615929816158dd565b61593281615839565b806159a9575b1561594657612dc590613abf565b600090815260116020526040812054602060018060a01b03600e541691602460405180948193631398fee160e31b835260048301525afa91821561215657809261598f57505090565b9091506020823d8211613df85781613deb60209383612d37565b506159b381613440565b600c5414615938565b6159c5816158dd565b6159ce81615839565b80615a79575b156159e257612dc5906136e8565b60018060a01b0380600e54169160009081526011602052602060408220546024604051809681936331a9108f60e11b835260048301525afa928315615a6c578193615a2d5750505090565b909192506020813d8211615a64575b81615a4960209383612d37565b81010312610b7f575191821682036102df5750388080613794565b3d9150615a3c565b50604051903d90823e3d90fd5b50615a8381613440565b600c54146159d4565b805182101561330f5760209160051b010190565b90615aaa826158dd565b615ab382615839565b80615b18575b15615ac757612dc591615271565b602060018060a01b0391604483600e541660009586526011845260408620549060405195869485936338d1782f60e21b855260048501521660248301525afa91821561215657809261598f57505090565b50615b2282613440565b600c5414615ab956fe0b2aac84f3ec956911fd78eae5311062972ff949f38412e8da39069d9f068cc6519b8a896d3cf44bd2d0545987d41a13bfb2ba37ce6ce401c753218178535608a26469706673582212204442a2ac1f0686f3f0d517d3c79ffdb211078b5d3fc7a43cf013865d2ceff7d864736f6c634300081100336080604052346200048657620020c5803803806200001d816200048b565b9283398101608082820312620004865781516001600160401b0391908281116200048657816200004f918501620004b1565b91602092838501518281116200048657836200006d918701620004b1565b92604086015183811162000486576060916200008b918801620004b1565b9501516001600160a01b03811695908690036200048657815193838511620002c3576001948554938685811c951680156200047b575b88861014620002a2578190601f9586811162000425575b508890868311600114620003bd57600092620003b1575b5050600019600383901b1c191690861b1785555b805190848211620002c357600254908682811c92168015620003a6575b88831014620002a25781858493116200034f575b508790858311600114620002e557600092620002d9575b5050600019600383901b1c191690851b176002555b8051928311620002c35760039485548581811c91168015620002b8575b82821014620002a25783811162000257575b5080928411600114620001ed5750928293918392600094620001e1575b50501b9160001990841b1c19161790555b600080546001600160a01b031916919091179055604051611ba19081620005248239f35b015192503880620001ac565b919083601f1981168760005284600020946000905b888383106200023c575050501062000223575b505050811b019055620001bd565b015160001983861b60f8161c1916905538808062000215565b85870151885590960195948501948793509081019062000202565b86600052816000208480870160051c82019284881062000298575b0160051c019086905b8281106200028b5750506200018f565b600081550186906200027b565b9250819262000272565b634e487b7160e01b600052602260045260246000fd5b90607f16906200017d565b634e487b7160e01b600052604160045260246000fd5b0151905038806200014b565b90879350601f198316916002600052896000209260005b8b8282106200033857505084116200031e575b505050811b0160025562000160565b015160001960f88460031b161c191690553880806200030f565b8385015186558b97909501949384019301620002fc565b9091506002600052876000208580850160051c8201928a86106200039c575b918991869594930160051c01915b8281106200038c57505062000134565b600081558594508991016200037c565b925081926200036e565b91607f169162000120565b015190503880620000ef565b90889350601f19831691846000528a6000209260005b8c8282106200040e5750508411620003f4575b505050811b01855562000103565b015160001960f88460031b161c19169055388080620003e6565b8385015186558c97909501949384019301620003d3565b90915087600052886000208680850160051c8201928b861062000471575b918a91869594930160051c01915b82811062000461575050620000d8565b600081558594508a910162000451565b9250819262000443565b94607f1694620000c1565b600080fd5b6040519190601f01601f191682016001600160401b03811183821017620002c357604052565b919080601f84011215620004865782516001600160401b038111620002c357602090620004e7601f8201601f191683016200048b565b92818452828287010111620004865760005b8181106200050f57508260009394955001015290565b8581018301518482018401528201620004f956fe608060408181526004908136101561001657600080fd5b600092833560e01c9081631375d843146113cd57508063246a908b146112cf57806355f804b31461118b57806364140ec01461108c5780636c0360eb14610fcd5780636c037f8a14610d0f57806371f0442e14610c7b578063725fa09c146108c05780637e468a51146107c1578063842251d414610685578063894b4c2e146101755763b3154c08146100a857600080fd5b34610171576020918260031936011261016d5780358452825280832091815192848154906100d5826118ef565b80875292600192808416908115610149575060011461010e575b61010a8787610100828c03836114e3565b5191829182611485565b0390f35b9080949750528583205b828410610136575050508261010a94610100928201019438806100ef565b8054868501880152928601928101610118565b60ff19168887015250505050151560051b83010192506101008261010a38806100ef565b8380fd5b8280fd5b50903461017157602092836003193601126106825782516306fdde0360e01b81529180359082848281335afa938415610678578394610654575b506101b9826117ac565b926102056022875180968a6101d78184019a8b815193849201611462565b820161202360f01b8c8201526101f68c83519384918785019101611462565b010360028101875201856114e3565b828152818752858120865181549391899184610220876118ef565b80835284830193600198868a821691826000146106345750506001146105fb575b505090610254816102c9949303826114e3565b6102e561026030611a28565b898852600686526102d78d808a209a60058952818b2091519788948a86019a6102ac61028b8d611929565b91692f636f6e74726163742f60b01b83528351938491600a85019101611462565b019c6011662f746f6b656e2f60c81b9e8f600a82015201906119a5565b602f60f81b815201906119a5565b03601f1981018552846114e3565b8a51631398fee160e31b81528581018990528c81602481335afa80156105c25787906105cc575b61031691506117ac565b8b5163131f9f3f60e11b8152958601899052948c81602481335afa9081156105c2578d918d918991610589575b5061034d906117ac565b9761035733611a28565b9a815260068352208c51713d91383937b832b93a34b2b9afbab934911d60711b818401908152601160f91b60328301529a90998a93909161039a60338601611929565b9068636f6e74726163742f60b81b825280518093600984019201916103be92611462565b019060098201526010016103d1916119a5565b6f17b83937b832b93a34b2b9973539b7b760811b815261227d60f01b601082015203600d198101885260120161040790886114e3565b8a51998a998d683d913730b6b2911d1160b91b908c015251908160298c0161042e92611462565b890190701116113232b9b1b934b83a34b7b7111d1160791b6029830152519182603a830161045b92611462565b01906a11161134b6b0b3b2911d1160a91b603a8301525191826045830161048192611462565b016c1116113130b630b731b2911d1160991b6045820152815191828a605284019201916104ad92611462565b016911161139b637ba111d1160b11b60528201528151918289605c84019201916104d692611462565b01906e111611383937b832b93a34b2b9911d60891b605c830152519182606b830161050092611462565b01606b8101607d60f81b905203604c81018252606c0161052090826114e3565b61052990611631565b81517f646174613a6170706c69636174696f6e2f6a736f6e3b6261736536342c00000084820152815190938492610567918391603d86019101611462565b810103601d81018352603d0161057d90836114e3565b5161010a819282611485565b928092508391503d83116105bb575b6105a281836114e3565b810103126105b7578b61034d8e925190610343565b8680fd5b503d610598565b8c513d89823e3d90fd5b508c81813d83116105f4575b6105e281836114e3565b810103126105b757610316905161030c565b503d6105d8565b8592508752818720908888925b82841061061e5750505082010161025482610241565b80548487018601528794909301928a9101610608565b60ff1916875292151560051b850190920192506102549150839050610241565b6106719194503d8085833e61066981836114e3565b8101906115a0565b92386101af565b85513d85823e3d90fd5b80fd5b508290346107bd576106963661156d565b939083526020916006835283209184519167ffffffffffffffff83116107aa57506106c183546118ef565b601f8111610767575b5080601f831160011461070557508394829394926106fa575b50508160011b916000199060031b1c191617905580f35b0151905084806106e3565b90601f198316958486528286209286905b88821061074f57505083600195969710610736575b505050811b01905580f35b015160001960f88460031b161c1916905584808061072b565b80600185968294968601518155019501930190610716565b838552818520601f840160051c8101918385106107a0575b601f0160051c01905b81811061079557506106ca565b858155600101610788565b909150819061077f565b634e487b7160e01b855260419052602484fd5b5080fd5b508290346107bd576107d23661156d565b939083526020916007835283209184519167ffffffffffffffff83116107aa57506107fd83546118ef565b601f811161087d575b5080601f831160011461083557508394829394926106fa5750508160011b916000199060031b1c191617905580f35b90601f198316958486528286209286905b8882106108655750508360019596971061073657505050811b01905580f35b80600185968294968601518155019501930190610846565b838552818520601f840160051c8101918385106108b6575b601f0160051c01905b8181106108ab5750610806565b85815560010161089e565b9091508190610895565b50913461068257806003193601126106825782516306fdde0360e01b815281818481335afa908115610c71578291610c57575b508351829060025492610905846118ef565b9586835260209683888101956001978a8982169182600014610c3c575050600114610be1575b610937925003846114e3565b61094033611a28565b9588519586898101986109528a611929565b68636f6e74726163742f60b81b81526109758c8351938491600985019101611462565b01602f60f81b600982015283906003549361098f856118ef565b94818116908115610bc05750600114610b61575b50506109b8925003601f1981018852876114e3565b8789518093633e7e866960e01b825281335afa918215610b55578192610b17575b5050610ac9605a888a61010a9b9961010099610a7f603d9a610b079e9a610a5c610ace9b610a0c60ff610a329d166117ac565b97519b8c99683d913730b6b2911d1160b91b818c0152825192839160298d019101611462565b880191701116113232b9b1b934b83a34b7b7111d1160791b6029840152518093603a840190611462565b01916a11161134b6b0b3b2911d1160a91b603a8401525180936045840190611462565b01721116113b30b63ab2a232b1b4b6b0b639911d1160691b6045820152610aaf825180938a605885019101611462565b0161227d60f01b605882015203603a8101845201826114e3565b611631565b845195827f646174613a6170706c69636174696f6e2f6a736f6e3b6261736536342c000000889485015282519283918686019101611462565b810103601d8101855201836114e3565b9091508781813d8311610b4e575b610b2f81836114e3565b810103126107bd57519060ff821682036106825750610ac9605a6109d9565b503d610b25565b508851903d90823e3d90fd5b6003865290915084908c7fc2575a0e9e593c00f959f8c92f12db2869c3395a3b0502d05e2516446f71f85b5b868410610ba857505050506109b892600a91010138806109a3565b8054858501600a01528c95509201918d908201610b8d565b9050600a93506109b895915060ff19168383015280151502010138806109a3565b505060028752838888887f405787fa12a823e0f2b7631cc41b3ba8828b3321ca811111fa75cd3aa3bb5ace5b858310610c23575050610937935082010161092b565b80919294505483858a0101520191018990888793610c0d565b60ff1916895261093794151560051b840101915061092b9050565b610c6b91503d8084833e61066981836114e3565b386108f3565b84513d84823e3d90fd5b5034610171576020918260031936011261016d57358352600582528083209181519284815490610caa826118ef565b808752926001928084169081156101495750600114610cd45761010a8787610100828c03836114e3565b9080949750528583205b828410610cfc575050508261010a94610100928201019438806100ef565b8054868501880152928601928101610cde565b5090346101715760209283600319360112610682578054835163ec327a2160e01b815283358185018190529092916001600160a01b0316908284602481855afa938415610fc3578394610fa7575b50855163bc74ebb960e01b8152858101829052948386602481865afa958615610f9d578496610f81575b5086516309c3dd8760e01b80825282820184905290938585602481845afa948515610f7757918a9594939187938496610f56575b5090602491610dfb60268d518a652f696d61676560d01b81610de7849e85019d8e815193849201611462565b83019182015203600681018b5201896114e3565b8b51958694859384528301525afa938415610f4b578094610f2e575b50508551918288808201868197519283910191610e3392611462565b81018981016f17b83937b832b93a34b2b9973539b7b760811b905203601081018452603001610e6290846114e3565b8651958695683d913730b6b2911d1160b91b8a880152805190818b60298a01920191610e8d92611462565b8601701116113232b9b1b934b83a34b7b7111d1160791b6029820152815191828b603a8401920191610ebe92611462565b01906a11161134b6b0b3b2911d1160a91b603a83015251918260458301610ee492611462565b01906e111611383937b832b93a34b2b9911d60891b604583015251918260548301610f0e92611462565b0160548101607d60f81b90520360358101825260550161052090826114e3565b610f439294503d8091833e61066981836114e3565b913880610e17565b8751903d90823e3d90fd5b602492919650610f6f903d8087833e61066981836114e3565b959091610dbb565b89513d88823e3d90fd5b610f969196503d8086833e61066981836114e3565b9438610d87565b87513d86823e3d90fd5b610fbc9194503d8085833e61066981836114e3565b9238610d5d565b86513d85823e3d90fd5b8382346107bd57816003193601126107bd57805190826001805491610ff1836118ef565b80865292828116908115611064575060011461101a575b5050506101008261010a9403836114e3565b9450808552600080516020611b4c8339815191525b82861061104c5750505061010082602061010a9582010194611008565b8054602087870181019190915290950194810161102f565b61010a97508693506020925061010094915060ff191682840152151560051b82010194611008565b508290346107bd5761109d3661156d565b939083526020916005835283209184519167ffffffffffffffff83116107aa57506110c883546118ef565b601f8111611148575b5080601f831160011461110057508394829394926106fa5750508160011b916000199060031b1c191617905580f35b90601f198316958486528286209286905b8882106111305750508360019596971061073657505050811b01905580f35b80600185968294968601518155019501930190611111565b838552818520601f840160051c810191838510611181575b601f0160051c01905b81811061117657506110d1565b858155600101611169565b9091508190611160565b828434610682576020806003193601126107bd5767ffffffffffffffff833581811161016d576111be9036908601611521565b9384519182116112bc57506001916111d683546118ef565b601f811161126a575b5080601f8311600114611219575083948293949261120e575b5050600019600383901b1c191690821b17905580f35b0151905084806111f8565b838552601f19831695600080516020611b4c833981519152929186905b888210611253575050838596971061073657505050811b01905580f35b808785968294968601518155019501930190611236565b838552600080516020611b4c833981519152601f840160051c8101918385106112b2575b601f0160051c019084905b8281106112a75750506111df565b868155018490611299565b909150819061128e565b634e487b7160e01b845260419052602483fd5b508290346107bd576112e03661156d565b9390835260209181835283209184519167ffffffffffffffff83116107aa575061130a83546118ef565b601f811161138a575b5080601f831160011461134257508394829394926106fa5750508160011b916000199060031b1c191617905580f35b90601f198316958486528286209286905b8882106113725750508360019596971061073657505050811b01905580f35b80600185968294968601518155019501930190611353565b838552818520601f840160051c8101918385106113c3575b601f0160051c01905b8181106113b85750611313565b8581556001016113ab565b90915081906113a2565b9290503461016d576020908160031936011261145e57358452600681528184208054856113f9826118ef565b8087529260019280841690811561014957506001146114235761010a8787610100828c03836114e3565b9080949750528583205b82841061144b575050508261010a94610100928201019438806100ef565b805486850188015292860192810161142d565b8480fd5b60005b8381106114755750506000910152565b8181015183820152602001611465565b604091602082526114a58151809281602086015260208686019101611462565b601f01601f1916010190565b6060810190811067ffffffffffffffff8211176114cd57604052565b634e487b7160e01b600052604160045260246000fd5b90601f8019910116810190811067ffffffffffffffff8211176114cd57604052565b67ffffffffffffffff81116114cd57601f01601f191660200190565b81601f820112156115685780359061153882611505565b9261154660405194856114e3565b8284526020838301011161156857816000926020809301838601378301015290565b600080fd5b90604060031983011261156857600435916024359067ffffffffffffffff82116115685761159d91600401611521565b90565b6020818303126115685780519067ffffffffffffffff8211611568570181601f820112156115685780516115d381611505565b926115e160405194856114e3565b818452602082840101116115685761159d9160208085019101611462565b9061160982611505565b61161660405191826114e3565b8281528092611627601f1991611505565b0190602036910137565b8051156117875760405190611645826114b1565b604082527f4142434445464748494a4b4c4d4e4f505152535455565758595a61626364656660208301527f6768696a6b6c6d6e6f707172737475767778797a303132333435363738392b2f60408301528051600291828201809211611771576003918290046001600160fe1b0381168103611771576116c7908495941b6115ff565b936020850193829183518401906020820192835194600085525b83811061172057505050505251068060011461170d57600214611702575090565b603d90600019015390565b50603d9081600019820153600119015390565b87600491999293949901918251600190603f9082828260121c16880101518453828282600c1c16880101518385015382828260061c16880101518885015316850101518982015301979291906116e1565b634e487b7160e01b600052601160045260246000fd5b506040516020810181811067ffffffffffffffff8211176114cd576040526000815290565b806000917a184f03e93ff9f4daa797ed6e38ed64bf6a1f010000000000000000808210156118e1575b506d04ee2d6d415b85acef8100000000808310156118d2575b50662386f26fc10000808310156118c3575b506305f5e100808310156118b4575b50612710808310156118a5575b506064821015611895575b600a8092101561188b575b6001908160216118438287016115ff565b95860101905b611855575b5050505090565b600019019083906f181899199a1a9b1b9c1cb0b131b232b360811b8282061a83530491821561188657919082611849565b61184e565b9160010191611832565b9190606460029104910191611827565b6004919392049101913861181c565b6008919392049101913861180f565b60109193920491019138611800565b602091939204910191386117ee565b6040935081049150386117d5565b90600182811c9216801561191f575b602083101461190957565b634e487b7160e01b600052602260045260246000fd5b91607f16916118fe565b9060009160019081549161193c836118ef565b92818116908115611992575060011461195457505050565b809192939450600052600080516020611b4c833981519152906000915b84831061197f575050500190565b8181602092548587015201920191611971565b60ff191683525050811515909102019150565b6000929181546119b4816118ef565b92600191808316908115611a0d57506001146119d1575b50505050565b90919293945060005260209081600020906000915b8583106119fc57505050500190388080806119cb565b8054858401529183019181016119e6565b60ff19168452505050811515909102019150388080806119cb565b604051906001600160a01b0316611a3e826114b1565b602a82526020908183016040368237835115611b3557603090538251600190811015611b3557607860218501536029905b808211611ac3575050611a80575090565b6064906040519062461bcd60e51b825280600483015260248201527f537472696e67733a20686578206c656e67746820696e73756666696369656e746044820152fd5b9091600f81166010811015611b20578551841015611b20576f181899199a1a9b1b9c1cb0b131b232b360811b901a85840185015360041c918015611b0b576000190190611a6f565b60246000634e487b7160e01b81526011600452fd5b60246000634e487b7160e01b81526032600452fd5b634e487b7160e01b600052603260045260246000fdfeb10e2d527612073b26eecdfd717e6a320cf44b4afac2b0732d9fcbe2b7fa0cf6a26469706673582212205208bd354fcd99de0d29dc5719eed661906cf96e68df3bb0c8ee392f6a09a8d164736f6c634300081100332f8788117e7eff1d82e926ec794901d17c78024a50270940304540a733656f0db10e2d527612073b26eecdfd717e6a320cf44b4afac2b0732d9fcbe2b7fa0cf6",
  "linkReferences": {},
  "deployedLinkReferences": {}
}