{
  "_format": "hh-sol-artifact-1",
  "contractName": "CashCredit",
  "sourceName": "contracts/CashCredit.sol",
  "abi": [
    {
      "inputs": [
        {
          "internalType": "address",
          "name": "revenueAcct_",
          "type": "address"
        },
        {
          "internalType": "address",
          "name": "slotRegistryContract_",
          "type": "address"
        },
        {
          "internalType": "address",
          "name": "poolContract_",
          "type": "address"
        },
        {
          "internalType": "address",
          "name": "usdcContract_",
          "type": "address"
        },
        {
          "internalType": "address",
          "name": "mktAdmin_",
          "type": "address"
        },
        {
          "internalType": "uint256",
          "name": "defaultSlot_",
          "type": "uint256"
        },
        {
          "internalType": "string",
          "name": "name_",
          "type": "string"
        },
        {
          "internalType": "string",
          "name": "symbol_",
          "type": "string"
        },
        {
          "internalType": "string",
          "name": "baseuri_",
          "type": "string"
        },
        {
          "internalType": "string",
          "name": "contractDescription_",
          "type": "string"
        },
        {
          "internalType": "string",
          "name": "contractImage_",
          "type": "string"
        },
        {
          "internalType": "uint8",
          "name": "decimals_",
          "type": "uint8"
        }
      ],
      "stateMutability": "nonpayable",
      "type": "constructor"
    },
    {
      "anonymous": false,
      "inputs": [
        {
          "indexed": true,
          "internalType": "address",
          "name": "_owner",
          "type": "address"
        },
        {
          "indexed": true,
          "internalType": "address",
          "name": "_approved",
          "type": "address"
        },
        {
          "indexed": true,
          "internalType": "uint256",
          "name": "_tokenId",
          "type": "uint256"
        }
      ],
      "name": "Approval",
      "type": "event"
    },
    {
      "anonymous": false,
      "inputs": [
        {
          "indexed": true,
          "internalType": "address",
          "name": "_owner",
          "type": "address"
        },
        {
          "indexed": true,
          "internalType": "address",
          "name": "_operator",
          "type": "address"
        },
        {
          "indexed": false,
          "internalType": "bool",
          "name": "_approved",
          "type": "bool"
        }
      ],
      "name": "ApprovalForAll",
      "type": "event"
    },
    {
      "anonymous": false,
      "inputs": [
        {
          "indexed": true,
          "internalType": "uint256",
          "name": "_tokenId",
          "type": "uint256"
        },
        {
          "indexed": true,
          "internalType": "address",
          "name": "_operator",
          "type": "address"
        },
        {
          "indexed": false,
          "internalType": "uint256",
          "name": "_value",
          "type": "uint256"
        }
      ],
      "name": "ApprovalValue",
      "type": "event"
    },
    {
      "anonymous": false,
      "inputs": [
        {
          "indexed": false,
          "internalType": "uint256",
          "name": "offeringId",
          "type": "uint256"
        },
        {
          "indexed": false,
          "internalType": "uint256",
          "name": "value",
          "type": "uint256"
        }
      ],
      "name": "ListOffer",
      "type": "event"
    },
    {
      "anonymous": false,
      "inputs": [
        {
          "indexed": false,
          "internalType": "address",
          "name": "contractAddress",
          "type": "address"
        }
      ],
      "name": "MetadataDescriptor",
      "type": "event"
    },
    {
      "anonymous": false,
      "inputs": [
        {
          "indexed": false,
          "internalType": "uint256",
          "name": "tokenId",
          "type": "uint256"
        },
        {
          "indexed": false,
          "internalType": "uint256",
          "name": "slot",
          "type": "uint256"
        },
        {
          "indexed": false,
          "internalType": "uint256",
          "name": "value",
          "type": "uint256"
        }
      ],
      "name": "MintAssetToken",
      "type": "event"
    },
    {
      "anonymous": false,
      "inputs": [
        {
          "indexed": false,
          "internalType": "uint256",
          "name": "tokenId",
          "type": "uint256"
        },
        {
          "indexed": false,
          "internalType": "uint256",
          "name": "slot",
          "type": "uint256"
        },
        {
          "indexed": false,
          "internalType": "uint256",
          "name": "value",
          "type": "uint256"
        }
      ],
      "name": "MintCashToken",
      "type": "event"
    },
    {
      "anonymous": false,
      "inputs": [
        {
          "indexed": false,
          "internalType": "uint256",
          "name": "tokenId",
          "type": "uint256"
        },
        {
          "indexed": false,
          "internalType": "uint256",
          "name": "slot",
          "type": "uint256"
        },
        {
          "indexed": false,
          "internalType": "uint256",
          "name": "value",
          "type": "uint256"
        }
      ],
      "name": "MintNetworkServiceToken",
      "type": "event"
    },
    {
      "anonymous": false,
      "inputs": [
        {
          "indexed": false,
          "internalType": "uint256",
          "name": "tokenId",
          "type": "uint256"
        },
        {
          "indexed": false,
          "internalType": "uint256",
          "name": "slot",
          "type": "uint256"
        },
        {
          "indexed": false,
          "internalType": "uint256",
          "name": "value",
          "type": "uint256"
        }
      ],
      "name": "MintServiceToken",
      "type": "event"
    },
    {
      "anonymous": false,
      "inputs": [
        {
          "indexed": false,
          "internalType": "uint256",
          "name": "newTokenId",
          "type": "uint256"
        },
        {
          "indexed": false,
          "internalType": "uint256",
          "name": "slot",
          "type": "uint256"
        },
        {
          "indexed": false,
          "internalType": "uint256",
          "name": "value",
          "type": "uint256"
        }
      ],
      "name": "MintServiceTokenToAddress",
      "type": "event"
    },
    {
      "anonymous": false,
      "inputs": [
        {
          "indexed": true,
          "internalType": "address",
          "name": "redeemer",
          "type": "address"
        },
        {
          "indexed": false,
          "internalType": "uint256",
          "name": "creditAmount",
          "type": "uint256"
        },
        {
          "indexed": false,
          "internalType": "uint256",
          "name": "valueAmount",
          "type": "uint256"
        }
      ],
      "name": "RedeemForAccess",
      "type": "event"
    },
    {
      "anonymous": false,
      "inputs": [
        {
          "indexed": false,
          "internalType": "uint256",
          "name": "tokenId",
          "type": "uint256"
        },
        {
          "indexed": true,
          "internalType": "address",
          "name": "redeemer",
          "type": "address"
        },
        {
          "indexed": false,
          "internalType": "uint256",
          "name": "amount",
          "type": "uint256"
        }
      ],
      "name": "RedeemForAsset",
      "type": "event"
    },
    {
      "anonymous": false,
      "inputs": [
        {
          "indexed": true,
          "internalType": "bytes32",
          "name": "role",
          "type": "bytes32"
        },
        {
          "indexed": true,
          "internalType": "bytes32",
          "name": "previousAdminRole",
          "type": "bytes32"
        },
        {
          "indexed": true,
          "internalType": "bytes32",
          "name": "newAdminRole",
          "type": "bytes32"
        }
      ],
      "name": "RoleAdminChanged",
      "type": "event"
    },
    {
      "anonymous": false,
      "inputs": [
        {
          "indexed": true,
          "internalType": "bytes32",
          "name": "role",
          "type": "bytes32"
        },
        {
          "indexed": true,
          "internalType": "address",
          "name": "account",
          "type": "address"
        },
        {
          "indexed": true,
          "internalType": "address",
          "name": "sender",
          "type": "address"
        }
      ],
      "name": "RoleGranted",
      "type": "event"
    },
    {
      "anonymous": false,
      "inputs": [
        {
          "indexed": true,
          "internalType": "bytes32",
          "name": "role",
          "type": "bytes32"
        },
        {
          "indexed": true,
          "internalType": "address",
          "name": "account",
          "type": "address"
        },
        {
          "indexed": true,
          "internalType": "address",
          "name": "sender",
          "type": "address"
        }
      ],
      "name": "RoleRevoked",
      "type": "event"
    },
    {
      "anonymous": false,
      "inputs": [
        {
          "indexed": true,
          "internalType": "address",
          "name": "metadataDescriptor",
          "type": "address"
        }
      ],
      "name": "SetMetadataDescriptor",
      "type": "event"
    },
    {
      "anonymous": false,
      "inputs": [
        {
          "indexed": true,
          "internalType": "uint256",
          "name": "_tokenId",
          "type": "uint256"
        },
        {
          "indexed": true,
          "internalType": "uint256",
          "name": "_oldSlot",
          "type": "uint256"
        },
        {
          "indexed": true,
          "internalType": "uint256",
          "name": "_newSlot",
          "type": "uint256"
        }
      ],
      "name": "SlotChanged",
      "type": "event"
    },
    {
      "anonymous": false,
      "inputs": [
        {
          "indexed": true,
          "internalType": "address",
          "name": "_from",
          "type": "address"
        },
        {
          "indexed": true,
          "internalType": "address",
          "name": "_to",
          "type": "address"
        },
        {
          "indexed": true,
          "internalType": "uint256",
          "name": "_tokenId",
          "type": "uint256"
        }
      ],
      "name": "Transfer",
      "type": "event"
    },
    {
      "anonymous": false,
      "inputs": [
        {
          "indexed": true,
          "internalType": "uint256",
          "name": "_fromTokenId",
          "type": "uint256"
        },
        {
          "indexed": true,
          "internalType": "uint256",
          "name": "_toTokenId",
          "type": "uint256"
        },
        {
          "indexed": false,
          "internalType": "uint256",
          "name": "_value",
          "type": "uint256"
        }
      ],
      "name": "TransferValue",
      "type": "event"
    },
    {
      "anonymous": false,
      "inputs": [
        {
          "indexed": false,
          "internalType": "uint256",
          "name": "fromTokenId",
          "type": "uint256"
        },
        {
          "indexed": false,
          "internalType": "uint256",
          "name": "toTokenId",
          "type": "uint256"
        },
        {
          "indexed": false,
          "internalType": "uint256",
          "name": "value",
          "type": "uint256"
        }
      ],
      "name": "ValueTransfer",
      "type": "event"
    },
    {
      "inputs": [],
      "name": "DEFAULT_ADMIN_ROLE",
      "outputs": [
        {
          "internalType": "bytes32",
          "name": "",
          "type": "bytes32"
        }
      ],
      "stateMutability": "view",
      "type": "function"
    },
    {
      "inputs": [],
      "name": "MKT_ARBITRATOR_ROLE",
      "outputs": [
        {
          "internalType": "bytes32",
          "name": "",
          "type": "bytes32"
        }
      ],
      "stateMutability": "view",
      "type": "function"
    },
    {
      "inputs": [],
      "name": "SERVICE_ADMIN_ROLE",
      "outputs": [
        {
          "internalType": "bytes32",
          "name": "",
          "type": "bytes32"
        }
      ],
      "stateMutability": "view",
      "type": "function"
    },
    {
      "inputs": [
        {
          "internalType": "string",
          "name": "uri_",
          "type": "string"
        }
      ],
      "name": "_setBaseURI",
      "outputs": [],
      "stateMutability": "nonpayable",
      "type": "function"
    },
    {
      "inputs": [
        {
          "internalType": "uint256",
          "name": "slotId",
          "type": "uint256"
        },
        {
          "internalType": "uint256",
          "name": "amount",
          "type": "uint256"
        }
      ],
      "name": "addSlotLiquidity",
      "outputs": [],
      "stateMutability": "nonpayable",
      "type": "function"
    },
    {
      "inputs": [
        {
          "internalType": "uint256",
          "name": "tokenId_",
          "type": "uint256"
        },
        {
          "internalType": "address",
          "name": "operator_",
          "type": "address"
        }
      ],
      "name": "allowance",
      "outputs": [
        {
          "internalType": "uint256",
          "name": "",
          "type": "uint256"
        }
      ],
      "stateMutability": "view",
      "type": "function"
    },
    {
      "inputs": [
        {
          "internalType": "address",
          "name": "to_",
          "type": "address"
        },
        {
          "internalType": "uint256",
          "name": "tokenId_",
          "type": "uint256"
        }
      ],
      "name": "approve",
      "outputs": [],
      "stateMutability": "payable",
      "type": "function"
    },
    {
      "inputs": [
        {
          "internalType": "uint256",
          "name": "tokenId_",
          "type": "uint256"
        },
        {
          "internalType": "address",
          "name": "to_",
          "type": "address"
        },
        {
          "internalType": "uint256",
          "name": "value_",
          "type": "uint256"
        }
      ],
      "name": "approve",
      "outputs": [],
      "stateMutability": "payable",
      "type": "function"
    },
    {
      "inputs": [
        {
          "internalType": "address",
          "name": "owner_",
          "type": "address"
        }
      ],
      "name": "balanceOf",
      "outputs": [
        {
          "internalType": "uint256",
          "name": "balance",
          "type": "uint256"
        }
      ],
      "stateMutability": "view",
      "type": "function"
    },
    {
      "inputs": [
        {
          "internalType": "uint256",
          "name": "tokenId_",
          "type": "uint256"
        }
      ],
      "name": "balanceOf",
      "outputs": [
        {
          "internalType": "uint256",
          "name": "",
          "type": "uint256"
        }
      ],
      "stateMutability": "view",
      "type": "function"
    },
    {
      "inputs": [],
      "name": "contractAdmin",
      "outputs": [
        {
          "internalType": "address",
          "name": "",
          "type": "address"
        }
      ],
      "stateMutability": "view",
      "type": "function"
    },
    {
      "inputs": [],
      "name": "contractURI",
      "outputs": [
        {
          "internalType": "string",
          "name": "",
          "type": "string"
        }
      ],
      "stateMutability": "view",
      "type": "function"
    },
    {
      "inputs": [],
      "name": "creditType",
      "outputs": [
        {
          "internalType": "string",
          "name": "",
          "type": "string"
        }
      ],
      "stateMutability": "view",
      "type": "function"
    },
    {
      "inputs": [],
      "name": "defaultSlot",
      "outputs": [
        {
          "internalType": "uint256",
          "name": "",
          "type": "uint256"
        }
      ],
      "stateMutability": "view",
      "type": "function"
    },
    {
      "inputs": [
        {
          "internalType": "uint256",
          "name": "tokenId_",
          "type": "uint256"
        }
      ],
      "name": "getApproved",
      "outputs": [
        {
          "internalType": "address",
          "name": "",
          "type": "address"
        }
      ],
      "stateMutability": "view",
      "type": "function"
    },
    {
      "inputs": [
        {
          "internalType": "bytes32",
          "name": "role",
          "type": "bytes32"
        }
      ],
      "name": "getRoleAdmin",
      "outputs": [
        {
          "internalType": "bytes32",
          "name": "",
          "type": "bytes32"
        }
      ],
      "stateMutability": "view",
      "type": "function"
    },
    {
      "inputs": [
        {
          "internalType": "uint256",
          "name": "tokenId",
          "type": "uint256"
        }
      ],
      "name": "getTokenDescription",
      "outputs": [
        {
          "internalType": "string",
          "name": "",
          "type": "string"
        }
      ],
      "stateMutability": "view",
      "type": "function"
    },
    {
      "inputs": [
        {
          "internalType": "uint256",
          "name": "tokenId",
          "type": "uint256"
        }
      ],
      "name": "getTokenImage",
      "outputs": [
        {
          "internalType": "string",
          "name": "",
          "type": "string"
        }
      ],
      "stateMutability": "view",
      "type": "function"
    },
    {
      "inputs": [
        {
          "internalType": "uint256",
          "name": "tokenId",
          "type": "uint256"
        }
      ],
      "name": "getTokenUUID",
      "outputs": [
        {
          "internalType": "string",
          "name": "",
          "type": "string"
        }
      ],
      "stateMutability": "view",
      "type": "function"
    },
    {
      "inputs": [
        {
          "internalType": "bytes32",
          "name": "role",
          "type": "bytes32"
        },
        {
          "internalType": "address",
          "name": "account",
          "type": "address"
        }
      ],
      "name": "grantRole",
      "outputs": [],
      "stateMutability": "nonpayable",
      "type": "function"
    },
    {
      "inputs": [
        {
          "internalType": "bytes32",
          "name": "role",
          "type": "bytes32"
        },
        {
          "internalType": "address",
          "name": "account",
          "type": "address"
        }
      ],
      "name": "hasRole",
      "outputs": [
        {
          "internalType": "bool",
          "name": "",
          "type": "bool"
        }
      ],
      "stateMutability": "view",
      "type": "function"
    },
    {
      "inputs": [
        {
          "internalType": "address",
          "name": "owner_",
          "type": "address"
        },
        {
          "internalType": "address",
          "name": "operator_",
          "type": "address"
        }
      ],
      "name": "isApprovedForAll",
      "outputs": [
        {
          "internalType": "bool",
          "name": "",
          "type": "bool"
        }
      ],
      "stateMutability": "view",
      "type": "function"
    },
    {
      "inputs": [
        {
          "internalType": "uint256",
          "name": "expiration_",
          "type": "uint256"
        },
        {
          "internalType": "uint256",
          "name": "tokenId_",
          "type": "uint256"
        },
        {
          "internalType": "uint256",
          "name": "price_",
          "type": "uint256"
        },
        {
          "internalType": "string",
          "name": "assetId_",
          "type": "string"
        },
        {
          "internalType": "string",
          "name": "side_",
          "type": "string"
        }
      ],
      "name": "listOffer",
      "outputs": [],
      "stateMutability": "nonpayable",
      "type": "function"
    },
    {
      "inputs": [],
      "name": "metadataDescriptor",
      "outputs": [
        {
          "internalType": "contract IERC3525MetadataDescriptor",
          "name": "",
          "type": "address"
        }
      ],
      "stateMutability": "view",
      "type": "function"
    },
    {
      "inputs": [
        {
          "internalType": "address",
          "name": "owner_",
          "type": "address"
        },
        {
          "internalType": "uint256",
          "name": "slot_",
          "type": "uint256"
        },
        {
          "internalType": "uint256",
          "name": "value_",
          "type": "uint256"
        },
        {
          "internalType": "string",
          "name": "uuid_",
          "type": "string"
        },
        {
          "internalType": "string",
          "name": "tokenDescription_",
          "type": "string"
        },
        {
          "internalType": "string",
          "name": "tokenImage_",
          "type": "string"
        },
        {
          "internalType": "string",
          "name": "property_",
          "type": "string"
        }
      ],
      "name": "mint",
      "outputs": [
        {
          "internalType": "uint256",
          "name": "",
          "type": "uint256"
        }
      ],
      "stateMutability": "nonpayable",
      "type": "function"
    },
    {
      "inputs": [
        {
          "internalType": "address",
          "name": "owner_",
          "type": "address"
        },
        {
          "internalType": "uint256",
          "name": "slot_",
          "type": "uint256"
        },
        {
          "internalType": "uint256",
          "name": "value_",
          "type": "uint256"
        },
        {
          "internalType": "uint256",
          "name": "discountBasisPts_",
          "type": "uint256"
        },
        {
          "internalType": "string",
          "name": "uuid_",
          "type": "string"
        },
        {
          "internalType": "string",
          "name": "tokenDescription_",
          "type": "string"
        },
        {
          "internalType": "string",
          "name": "tokenImage_",
          "type": "string"
        },
        {
          "internalType": "string",
          "name": "property_",
          "type": "string"
        }
      ],
      "name": "mintWithDiscount",
      "outputs": [
        {
          "internalType": "uint256",
          "name": "",
          "type": "uint256"
        }
      ],
      "stateMutability": "nonpayable",
      "type": "function"
    },
    {
      "inputs": [
        {
          "internalType": "address",
          "name": "owner_",
          "type": "address"
        },
        {
          "internalType": "uint256",
          "name": "expiration_",
          "type": "uint256"
        },
        {
          "internalType": "uint256",
          "name": "tokenId_",
          "type": "uint256"
        },
        {
          "internalType": "uint256",
          "name": "price_",
          "type": "uint256"
        },
        {
          "internalType": "string",
          "name": "assetId_",
          "type": "string"
        },
        {
          "internalType": "string",
          "name": "side_",
          "type": "string"
        }
      ],
      "name": "mktListOffer",
      "outputs": [],
      "stateMutability": "nonpayable",
      "type": "function"
    },
    {
      "inputs": [],
      "name": "name",
      "outputs": [
        {
          "internalType": "string",
          "name": "",
          "type": "string"
        }
      ],
      "stateMutability": "view",
      "type": "function"
    },
    {
      "inputs": [
        {
          "internalType": "address",
          "name": "owner_",
          "type": "address"
        },
        {
          "internalType": "uint256",
          "name": "slot_",
          "type": "uint256"
        },
        {
          "internalType": "uint256",
          "name": "value_",
          "type": "uint256"
        },
        {
          "internalType": "uint256",
          "name": "discountBasisPts_",
          "type": "uint256"
        },
        {
          "internalType": "string",
          "name": "uuid_",
          "type": "string"
        },
        {
          "internalType": "string",
          "name": "tokenDescription_",
          "type": "string"
        },
        {
          "internalType": "string",
          "name": "tokenImage_",
          "type": "string"
        },
        {
          "internalType": "string",
          "name": "property_",
          "type": "string"
        }
      ],
      "name": "networkMintWithDiscount",
      "outputs": [
        {
          "internalType": "uint256",
          "name": "",
          "type": "uint256"
        }
      ],
      "stateMutability": "nonpayable",
      "type": "function"
    },
    {
      "inputs": [
        {
          "internalType": "address",
          "name": "owner_",
          "type": "address"
        },
        {
          "internalType": "uint256",
          "name": "slot_",
          "type": "uint256"
        },
        {
          "internalType": "uint256",
          "name": "value_",
          "type": "uint256"
        },
        {
          "internalType": "uint256",
          "name": "valueRate_",
          "type": "uint256"
        },
        {
          "internalType": "string",
          "name": "uuid_",
          "type": "string"
        },
        {
          "internalType": "string",
          "name": "tokenDescription_",
          "type": "string"
        },
        {
          "internalType": "string",
          "name": "tokenImage_",
          "type": "string"
        },
        {
          "internalType": "string",
          "name": "property_",
          "type": "string"
        }
      ],
      "name": "networkMintWithValueRate",
      "outputs": [
        {
          "internalType": "uint256",
          "name": "",
          "type": "uint256"
        }
      ],
      "stateMutability": "nonpayable",
      "type": "function"
    },
    {
      "inputs": [
        {
          "internalType": "uint256",
          "name": "tokenId_",
          "type": "uint256"
        }
      ],
      "name": "ownerOf",
      "outputs": [
        {
          "internalType": "address",
          "name": "owner_",
          "type": "address"
        }
      ],
      "stateMutability": "view",
      "type": "function"
    },
    {
      "inputs": [
        {
          "internalType": "uint256",
          "name": "tokenId_",
          "type": "uint256"
        },
        {
          "internalType": "uint256",
          "name": "value_",
          "type": "uint256"
        }
      ],
      "name": "redeem",
      "outputs": [],
      "stateMutability": "nonpayable",
      "type": "function"
    },
    {
      "inputs": [
        {
          "internalType": "address",
          "name": "offeringContract_",
          "type": "address"
        },
        {
          "internalType": "uint256",
          "name": "creditTokenId_",
          "type": "uint256"
        },
        {
          "internalType": "uint256",
          "name": "slotId_",
          "type": "uint256"
        },
        {
          "internalType": "uint256",
          "name": "value_",
          "type": "uint256"
        },
        {
          "internalType": "string",
          "name": "assetId_",
          "type": "string"
        }
      ],
      "name": "redeemForAsset",
      "outputs": [
        {
          "internalType": "uint256",
          "name": "",
          "type": "uint256"
        }
      ],
      "stateMutability": "nonpayable",
      "type": "function"
    },
    {
      "inputs": [
        {
          "internalType": "uint256",
          "name": "slotId_",
          "type": "uint256"
        }
      ],
      "name": "registerOnSlot",
      "outputs": [],
      "stateMutability": "nonpayable",
      "type": "function"
    },
    {
      "inputs": [
        {
          "internalType": "bytes32",
          "name": "role",
          "type": "bytes32"
        },
        {
          "internalType": "address",
          "name": "account",
          "type": "address"
        }
      ],
      "name": "renounceRole",
      "outputs": [],
      "stateMutability": "nonpayable",
      "type": "function"
    },
    {
      "inputs": [
        {
          "internalType": "bytes32",
          "name": "role",
          "type": "bytes32"
        },
        {
          "internalType": "address",
          "name": "account",
          "type": "address"
        }
      ],
      "name": "revokeRole",
      "outputs": [],
      "stateMutability": "nonpayable",
      "type": "function"
    },
    {
      "inputs": [
        {
          "internalType": "address",
          "name": "from_",
          "type": "address"
        },
        {
          "internalType": "address",
          "name": "to_",
          "type": "address"
        },
        {
          "internalType": "uint256",
          "name": "tokenId_",
          "type": "uint256"
        }
      ],
      "name": "safeTransferFrom",
      "outputs": [],
      "stateMutability": "payable",
      "type": "function"
    },
    {
      "inputs": [
        {
          "internalType": "address",
          "name": "from_",
          "type": "address"
        },
        {
          "internalType": "address",
          "name": "to_",
          "type": "address"
        },
        {
          "internalType": "uint256",
          "name": "tokenId_",
          "type": "uint256"
        },
        {
          "internalType": "bytes",
          "name": "data_",
          "type": "bytes"
        }
      ],
      "name": "safeTransferFrom",
      "outputs": [],
      "stateMutability": "payable",
      "type": "function"
    },
    {
      "inputs": [
        {
          "internalType": "address",
          "name": "operator_",
          "type": "address"
        },
        {
          "internalType": "bool",
          "name": "approved_",
          "type": "bool"
        }
      ],
      "name": "setApprovalForAll",
      "outputs": [],
      "stateMutability": "nonpayable",
      "type": "function"
    },
    {
      "inputs": [
        {
          "internalType": "uint256",
          "name": "tokenId_",
          "type": "uint256"
        }
      ],
      "name": "slotOf",
      "outputs": [
        {
          "internalType": "uint256",
          "name": "",
          "type": "uint256"
        }
      ],
      "stateMutability": "view",
      "type": "function"
    },
    {
      "inputs": [
        {
          "internalType": "uint256",
          "name": "slot_",
          "type": "uint256"
        }
      ],
      "name": "slotURI",
      "outputs": [
        {
          "internalType": "string",
          "name": "",
          "type": "string"
        }
      ],
      "stateMutability": "view",
      "type": "function"
    },
    {
      "inputs": [
        {
          "internalType": "bytes4",
          "name": "interfaceId",
          "type": "bytes4"
        }
      ],
      "name": "supportsInterface",
      "outputs": [
        {
          "internalType": "bool",
          "name": "",
          "type": "bool"
        }
      ],
      "stateMutability": "view",
      "type": "function"
    },
    {
      "inputs": [],
      "name": "symbol",
      "outputs": [
        {
          "internalType": "string",
          "name": "",
          "type": "string"
        }
      ],
      "stateMutability": "view",
      "type": "function"
    },
    {
      "inputs": [
        {
          "internalType": "uint256",
          "name": "index_",
          "type": "uint256"
        }
      ],
      "name": "tokenByIndex",
      "outputs": [
        {
          "internalType": "uint256",
          "name": "",
          "type": "uint256"
        }
      ],
      "stateMutability": "view",
      "type": "function"
    },
    {
      "inputs": [
        {
          "internalType": "uint256",
          "name": "tokenId_",
          "type": "uint256"
        }
      ],
      "name": "tokenDiscount",
      "outputs": [
        {
          "internalType": "uint256",
          "name": "",
          "type": "uint256"
        }
      ],
      "stateMutability": "view",
      "type": "function"
    },
    {
      "inputs": [
        {
          "internalType": "address",
          "name": "owner_",
          "type": "address"
        },
        {
          "internalType": "uint256",
          "name": "index_",
          "type": "uint256"
        }
      ],
      "name": "tokenOfOwnerByIndex",
      "outputs": [
        {
          "internalType": "uint256",
          "name": "",
          "type": "uint256"
        }
      ],
      "stateMutability": "view",
      "type": "function"
    },
    {
      "inputs": [
        {
          "internalType": "uint256",
          "name": "tokenId_",
          "type": "uint256"
        }
      ],
      "name": "tokenURI",
      "outputs": [
        {
          "internalType": "string",
          "name": "",
          "type": "string"
        }
      ],
      "stateMutability": "view",
      "type": "function"
    },
    {
      "inputs": [],
      "name": "totalBalance",
      "outputs": [
        {
          "internalType": "uint256",
          "name": "",
          "type": "uint256"
        }
      ],
      "stateMutability": "view",
      "type": "function"
    },
    {
      "inputs": [],
      "name": "totalSupply",
      "outputs": [
        {
          "internalType": "uint256",
          "name": "",
          "type": "uint256"
        }
      ],
      "stateMutability": "view",
      "type": "function"
    },
    {
      "inputs": [
        {
          "internalType": "uint256",
          "name": "fromTokenId_",
          "type": "uint256"
        },
        {
          "internalType": "address",
          "name": "to_",
          "type": "address"
        },
        {
          "internalType": "uint256",
          "name": "value_",
          "type": "uint256"
        }
      ],
      "name": "transferFrom",
      "outputs": [
        {
          "internalType": "uint256",
          "name": "",
          "type": "uint256"
        }
      ],
      "stateMutability": "payable",
      "type": "function"
    },
    {
      "inputs": [
        {
          "internalType": "address",
          "name": "from_",
          "type": "address"
        },
        {
          "internalType": "address",
          "name": "to_",
          "type": "address"
        },
        {
          "internalType": "uint256",
          "name": "tokenId_",
          "type": "uint256"
        }
      ],
      "name": "transferFrom",
      "outputs": [],
      "stateMutability": "payable",
      "type": "function"
    },
    {
      "inputs": [
        {
          "internalType": "uint256",
          "name": "fromTokenId_",
          "type": "uint256"
        },
        {
          "internalType": "uint256",
          "name": "toTokenId_",
          "type": "uint256"
        },
        {
          "internalType": "uint256",
          "name": "value_",
          "type": "uint256"
        }
      ],
      "name": "transferFrom",
      "outputs": [],
      "stateMutability": "payable",
      "type": "function"
    },
    {
      "inputs": [
        {
          "internalType": "string",
          "name": "assetId_",
          "type": "string"
        },
        {
          "internalType": "string",
          "name": "side_",
          "type": "string"
        }
      ],
      "name": "validOffers",
      "outputs": [
        {
          "components": [
            {
              "internalType": "uint256",
              "name": "offerId",
              "type": "uint256"
            },
            {
              "internalType": "address",
              "name": "owner",
              "type": "address"
            },
            {
              "internalType": "string",
              "name": "side",
              "type": "string"
            },
            {
              "internalType": "uint256",
              "name": "price",
              "type": "uint256"
            },
            {
              "internalType": "uint256",
              "name": "tokenId",
              "type": "uint256"
            },
            {
              "internalType": "uint256",
              "name": "expiration",
              "type": "uint256"
            }
          ],
          "internalType": "struct Service.Offer[]",
          "name": "",
          "type": "tuple[]"
        }
      ],
      "stateMutability": "view",
      "type": "function"
    },
    {
      "inputs": [],
      "name": "valueDecimals",
      "outputs": [
        {
          "internalType": "uint8",
          "name": "",
          "type": "uint8"
        }
      ],
      "stateMutability": "view",
      "type": "function"
    }
  ],
  "bytecode": "0x60e08060405234620009a157600060805262008bbf8038038091620000258285620009d8565b833981019061018081830312620006c9576200004181620009fc565b906200005060208201620009fc565b906200005f60408201620009fc565b60a0526200007060608201620009fc565b936200007f60808301620009fc565b60a083015160c08401519193916001600160401b038111620006c95783620000a991840162000a36565b60e08301516001600160401b038111620006c95784620000cb91850162000a36565b6101008401519095906001600160401b038111620006c95785620000f191860162000a36565b6101208501519096906001600160401b038111620006c957866200011791870162000a36565b6101408601519096906001600160401b038111620006c957610160916200014091880162000a36565b9501518060c05260ff811603620006c957604051926200016084620009a6565b60048452630c6c2e6d60e31b6020850152600160035580516001600160401b0381116200067357608051805490600182811c9216801562000996575b6020831014620008ac5750601f81116200094a575b5060805191602092601f8311600114620008da575060805192839183620008ce575b50508160011b916000199060031b1c19161790555b8051906001600160401b0382116200067357600154608051600182811c92168015620008c3575b6020831014620008ac57509081601f84931162000852575b5060805190602091601f8411600114620007df575060805192620007d3575b50508160011b916000199060031b1c1916176001555b60ff60c0511660ff19600254161760025560805180526009602052608051604081209060018060a01b038316905260205260805160ff6040822054161562000784575b50600b80546001600160a01b03199081166001600160a01b0393841617909155600c849055600a805482168a8416179055600d8054821689841617905560a051600e805490921692169190911790556040518151602080830192916200031f9190839062000311818789860162000a11565b8101038084520182620009d8565b51902060405160208101906374696d6560e01b8252600481526200034381620009a6565b51902003620006cf57506080515b6004811015620006b1576010805460ff191660ff83161790556001600160a01b0386163b15620006c957604051916394b39b0960e01b835260018060a01b03881660048401526024830152600460ff82161015620006b15760ff16604482015260805181606481836001600160a01b038a165af18015620006a4576200068b575b50604051926001600160401b036120c5850190811190851117620006735762000447926200041962000430926120c562006ada883960806120c58801818152019062000a91565b906120c58601820360206120c58801015262000a91565b906120c58401820360406120c58601015262000a91565b6001600160a01b039092166120c5820160600152608051918190039082f0908115620006675750600880546001600160a01b0319166001600160a01b03928316179055600b541660008181527f3d62299d961dc9bf64f24e2e5b7d5a2b17ee5fc8163a3ddca90e52de8744675560205260409020547f1cd6d520d98babae1045eb69c31ecab800996aa332094cb55c0ac10362e9b0c9919060ff161562000624575b50506001600160a01b03811660009081527ff0bca53ec534e170e0b4115320ce2b072ee8e3338cc6b0c7b13351839d628e0a60205260409020547f9a95e87c5af084bf5db8491c3a6515da9dd6da39b24b0eb0af08d7b9cd808d919060ff1615620005d4575b827f9ac4f8025631594629895b778dc5ee88d01673a254a2291f6b6b174ad25230ca602060018060a01b0360085416604051908152a162989680601955601c80546001600160a01b039283166001600160a01b03199182161790915560c05160ff1660175560a05160168054919093169116179055604051616021908162000ab98239f35b60008181526009602090815260408083206001600160a01b0395909516808452949091528120805460ff191660011790553392919060008051602062008b9f8339815191529080a438806200054f565b8160005260096020526040600020816000526020526040600020600160ff19825416179055339160008051602062008b9f833981519152600080a43880620004e9565b604051903d90823e3d90fd5b634e487b7160e01b6080515260416004526024608051fd5b6001600160401b038111620006735760405238620003d2565b6040513d608051823e3d90fd5b634e487b7160e01b6080515260216004526024608051fd5b60805180fd5b6040516020810190620006ef6020828551620003118187858a0162000a11565b5190206040516020810190630c6c2e6d60e31b8252600481526200071381620009a6565b51902003620007255750600162000351565b604051620007456020828162000311818301968781519384920162000a11565b519020604051602081019065636f756e747360d01b8252600681526200076b81620009a6565b519020036200077c57600262000351565b600362000351565b8052600960209081526080805160408082206001600160a01b038616928390529093529051918220805460ff19166001179055339160008051602062008b9f8339815191528180a4386200029f565b01519050388062000246565b600191945052608051906020822091935b601f198416851062000836576001945083601f198116106200081c575b505050811b016001556200025c565b015160001960f88460031b161c191690553880806200080d565b81810151835560209485019460019093019290910190620007f0565b90915060016080515260805160208120601f850160051c810160208610620008a4575b9085949392915b601f840160051c82018110620008955750505062000227565b8281558695506001016200087c565b508062000875565b634e487b7160e01b90526022600452608051602490fd5b91607f16916200020f565b015190503880620001d3565b80526080516020812090938493925b601f19841685106200092e576001945083601f1981161062000914575b505050811b019055620001e8565b015160001960f88460031b161c1916905538808062000906565b81810151835560209485019460019093019290910190620008e9565b608051805260805160208120601f840160051c8101602085106200098e575b601f840160051c820181106200098257505050620001b1565b82815560010162000969565b508062000969565b91607f16916200019c565b600080fd5b604081019081106001600160401b03821117620009c257604052565b634e487b7160e01b600052604160045260246000fd5b601f909101601f19168101906001600160401b03821190821017620009c257604052565b51906001600160a01b0382168203620009a157565b60005b83811062000a255750506000910152565b818101518382015260200162000a14565b81601f82011215620009a15780516001600160401b038111620009c2576040519262000a6d601f8301601f191660200185620009d8565b81845260208284010111620009a15762000a8e916020808501910162000a11565b90565b9060209162000aac8151809281855285808601910162000a11565b601f01601f191601019056fe608080604052600436101561001357600080fd5b600090813560e01c90816301ffc9a71461355757508063020dbf25146132ab57806303e209531461301757806306fdde0314612f74578063081812fc14612f55578063095ea7b314612e1a57806309c3dd8714612b465780630f485c0214612b325780631375d84314612acc5780631429fb57146124f057806318160ddd146124d257806323b872dd146124ad5780632425eeaf14612156578063248a9ca314612129578063263f3e7e1461210a5780632f2ff15d146120575780632f745c5914611fae578063310ed7f014611b1057806331b5b90714611a8657806336568abe146119f357806339ace21f146119d45780633e7e8669146119b35780633f5d70671461178a57806341815ee41461169257806342842e0e1461166f5780634f6ccce7146115ea578063505a3853146115cc5780636352211e1461159b57806370a082311461157757806371f0442e1461151157806377955245146114e85780637cbc2373146111a4578063840f71131461117b5780638cb0a5111461103957806391d1485414610fed57806395d89b4114610f0e5780639cc7f70814610eef578063a217fddf14610ed3578063a22cb46514610dfe578063a7c9f2d614610dc3578063a84565e614610982578063aa20ce551461095f578063ad7a672f14610941578063b3154c08146108db578063b88d4fde1461087c578063be950a6214610736578063c87b56dd146106a1578063cf2d6fe614610432578063d09445c2146103f7578063d547741f146103b6578063e14bd3601461038b578063e345e0bc1461035c578063e8a3d485146102cc5763e985e9c51461027357600080fd5b346102c95760403660031901126102c95761028c6135ac565b600260406102986135c2565b9360018060a01b038094168152600760205220019116600052602052602060ff604060002054166040519015158152f35b80fd5b50346102c957806003193601126102c957600854604051631c97e82760e21b8152908290829060049082906001600160a01b03165afa908115610351578261032a939261032e575b5050604051918291602083526020830190613784565b0390f35b61034a92503d8091833e610342818361363c565b810190613d68565b3880610314565b6040513d84823e3d90fd5b50346102c95760403660031901126102c957602061038361037b6135c2565b600435615f20565b604051908152f35b50346102c95761039a36613808565b908252601b6020526103b160408320918254613bf2565b905580f35b50346102c95760403660031901126102c9576103f46004356103d66135c2565b9080845260096020526103ef600160408620015461381e565b613b53565b80f35b50346102c957806003193601126102c95760206040517f9a95e87c5af084bf5db8491c3a6515da9dd6da39b24b0eb0af08d7b9cd808d918152f35b50346102c95760c03660031901126102c95761044c6135ac565b6064356001600160401b0360843581811161069d5761046f9036906004016136af565b9060a435818111610699576104889036906004016136af565b93600f549461049686614478565b600f5583516020809501209283885260139283865260408920888a5286526001908160408b20019060018060a01b03166001600160601b0360a01b82541617905584895283865260408920888a5286528760408a205584895283865260408920888a528652600260408a2001928051928311610685576105168454613c26565b601f811161064c575b5086908a601f85116001146105d2579360409997959381938293600080516020615fcc8339815191529d9b9997946105c7575b50501b916000199060031b1c19161790555b81885280835285882085895283526024356005878a20015581885280835285882085895283526044356004878a2001558188528252848720848852825282600386892001558652601481526105bb838588206143e1565b8351928352820152a180f35b015192503880610552565b50848b52878b209293929190601f1984168c5b818110610637575091600080516020615fcc8339815191529b99979593918560409c9a9896941061061e575b505050811b019055610564565b015160001960f88460031b161c19169055388080610611565b82840151855593860193928a01928a016105e5565b61067590858c52888c20601f860160051c8101918a871061067b575b601f0160051c0190614487565b3861051f565b9091508190610668565b634e487b7160e01b8a52604160045260248afd5b8580fd5b8480fd5b50346102c95760203660031901126102c9576004356106bf81615cf0565b8015610722575b6106cf90613f9d565b6008546040516344a5a61760e11b815260048101929092528290829060249082906001600160a01b03165afa908115610351578261032a939261032e575050604051918291602083526020830190613784565b506106cf61072f82615d1e565b90506106c6565b50346102c95760203660031901126102c9577f9a95e87c5af084bf5db8491c3a6515da9dd6da39b24b0eb0af08d7b9cd808d9181526009602052604081203360005260205260ff60406000205416156108115760018060a01b039081600d541691600a541660ff60105416833b1561080d57604051916394b39b0960e01b83526004830152600435602483015260048110156107f95781606481858097819560448401525af18015610351576107e95750f35b6107f2906135d8565b6102c95780f35b634e487b7160e01b83526021600452602483fd5b8280fd5b60405162461bcd60e51b815260206004820152603760248201527f53656e646572206e6f7420617574686f72697a656420746f207265676973746560448201527f7220636f6e747261637420746f207468697320736c6f740000000000000000006064820152608490fd5b5060803660031901126102c9576108916135ac565b6108996135c2565b606435916001600160401b0383116108d757366023840112156108d7576108cd6103f4933690602481600401359101613678565b9160443591613ec6565b8380fd5b50346102c95760203660031901126102c957600854604051631662a98160e31b81526004803590820152908290829060249082906001600160a01b03165afa908115610351578261032a939261032e575050604051918291602083526020830190613784565b50346102c957806003193601126102c9576020601854604051908152f35b50346102c9576020610383610973366136cd565b96959095949194939293614e09565b50346102c95760a03660031901126102c95761099c6135ac565b60249081359160448035936064958635926084356001600160401b03811161080d576109cc9036906004016136af565b6001600160a01b0395878716916109e286613fe9565b881633148015610d44575b15610d0257866109fc876143c0565b10610cc0576040516312db76c160e21b815230600482015260209b908c818581885afa908115610c0c578791610ca3575b5015610c59575b868652601a8c52604086205499601954898c601754610a5290614649565b610a5b91613dc6565b610a65908361446b565b90610a6f91613bc9565b90610a7991613dc6565b998d8d8952601b90528a604089205410610c1757601c5460405163095ea7b360e01b81526001600160a01b03939093166004840152602483018c90528e91839160449183918c91165af18015610c0c57889388938f98979693610b1e93610bdf575b506040519d8e988997889663706fefd760e11b885230600489015287015285015233908401528d60848401528a60a484015260e060c484015260e4830190613784565b03925af1948515610bd2578195610b9b575b5080610b6294959660409252601b885220610b4c85825461446b565b9055610b5a8260185461446b565b601855614720565b60405190828252838201527f64c7d5c40799609542953bf8a06247851ffb5739aea8f092d8d4121086e51fc460403392a2604051908152f35b909394508681813d8311610bcb575b610bb4818361363c565b81010312610bc6575193926040610b30565b600080fd5b503d610baa565b50604051903d90823e3d90fd5b610bfe908a3d8c11610c05575b610bf6818361363c565b810190614657565b5038610adb565b503d610bec565b6040513d89823e3d90fd5b60405162461bcd60e51b8152600481018f9052601b818701527f496e73756666696369656e7420736c6f74206c69717569646974790000000000818901528390fd5b833b156106995760405162f4c5fd60e11b81523060048201528681858183895af18015610c0c57908791610c8f575b5050610a34565b610c98906135d8565b610699578538610c88565b610cba91508d803d10610c0557610bf6818361363c565b38610a2d565b60405162461bcd60e51b815260206004820152601c818401527f56616c75652065786365656473206372656469742062616c616e636500000000818601528b90fd5b60405162461bcd60e51b8152602060048201526019818401527f53656e646572206973206e6f7420617574686f72697a65642e00000000000000818601528b90fd5b508a60206826a5aa2fa0a226a4a760b91b60848b600d54169360405194859384926309de907160e11b84526040600485015260098c85015283015233888301525afa908115610db8578691610d9a575b506109ed565b610db2915060203d8111610c0557610bf6818361363c565b38610d94565b6040513d88823e3d90fd5b50346102c957806003193601126102c95760206040517f1cd6d520d98babae1045eb69c31ecab800996aa332094cb55c0ac10362e9b0c98152f35b50346102c95760403660031901126102c957610e186135ac565b6024359081151580920361080d576001600160a01b031690338214610e8e5733835260076020526002604084200182600052602052604060002060ff1981541660ff83161790556040519081527f17307eab39ab6107e8899845ad3d59bd9653f200f220920489ca2b5937696c3160203392a380f35b60405162461bcd60e51b815260206004820152601a60248201527f455243333532353a20617070726f766520746f2063616c6c65720000000000006044820152606490fd5b50346102c957806003193601126102c957602090604051908152f35b50346102c95760203660031901126102c9576020610383600435615dd7565b50346102c957806003193601126102c95760405160006001805490610f3282613c26565b80855291818116908115610fc65750600114610f6d575b61032a84610f598186038261363c565b604051918291602083526020830190613784565b600081815292507fb10e2d527612073b26eecdfd717e6a320cf44b4afac2b0732d9fcbe2b7fa0cf65b828410610fae575050508101602001610f5982610f49565b80546020858701810191909152909301928101610f96565b60ff191660208087019190915292151560051b85019092019250610f599150839050610f49565b50346102c95760403660031901126102c95760406110096135c2565b9160043581526009602052209060018060a01b0316600052602052602060ff604060002054166040519015158152f35b50611043366137a9565b9061104d83615d94565b8361105784615cf0565b80611168575b156110fa57506110836001600160a01b038061107886613fe9565b169083161415613f46565b61108d833361406a565b1561109b576103f492615597565b60405162461bcd60e51b815260206004820152603160248201527f455243333532353a20617070726f76652063616c6c6572206973206e6f74206f6044820152701ddb995c881b9bdc88185c1c1c9bdd9959607a1b6064820152608490fd5b600e54938152601160205260408120549093919290916001600160a01b0316803b1561069d57604051638cb0a51160e01b815260048101939093526001600160a01b0393909316602483015260448201529082908290606490829084905af18015610351576107e957505080f35b5061117284613d41565b600c541461105d565b50346102c957806003193601126102c9576008546040516001600160a01b039091168152602090f35b50346102c9576111b336613808565b6111bc82613fe9565b6001600160a01b03929033908416036114a457816111d9826143c0565b1061145f576111e781615cf0565b8061144c575b1561137f5780611254918552601a60205261124c61123960408720545b6112348661122f61122960195494611223601754614649565b90613dc6565b8461446b565b613bc9565b613dc6565b936112448184614720565b60185461446b565b601855613d41565b91828452602092601b84528260408620541061133a57849284926112bb928552601b84526040852061128783825461446b565b9055601c5460405163a9059cbb60e01b81523360048201526024810193909352919485939190921691839182906044820190565b03925af190811561132f578391611312575b50156112d7575080f35b6064906040519062461bcd60e51b8252600482015260146024820152731554d110c8151c985b9cd9995c8819985a5b195960621b6044820152fd5b6113299150823d8411610c0557610bf6818361363c565b386112cd565b6040513d85823e3d90fd5b60405162461bcd60e51b815260048101859052601860248201527f437269746963616c3a20536c6f7420696e736f6c76656e7400000000000000006044820152606490fd5b80845260209060118252604085205480151560001461140c57828560165416916024604051809481936339ace21f60e01b835260048301525afa928315610db85786936113d8575b505061124c6112396112549361120a565b90809350813d8311611405575b6113ef818361363c565b81010312610bc65790519061124c6112396113c7565b503d6113e5565b506024828560165416604051928380926339ace21f60e01b82528660048301525afa928315610db85786936113d857505061124c6112396112549361120a565b5061145681613d41565b600c54146111ed565b60405162461bcd60e51b815260206004820152601b60248201527f496e73756666696369656e74206372656469742062616c616e636500000000006044820152606490fd5b606460405162461bcd60e51b815260206004820152602060248201527f53656e646572206e6f7420617574686f72697a656420746f2072656465656d2e6044820152fd5b50346102c957806003193601126102c957600a546040516001600160a01b039091168152602090f35b50346102c95760203660031901126102c9576008546040516338f8221760e11b81526004803590820152908290829060249082906001600160a01b03165afa908115610351578261032a939261032e575050604051918291602083526020830190613784565b50346102c95760203660031901126102c95760206103836115966135ac565b613de6565b50346102c95760203660031901126102c95760206115ba600435615e73565b6040516001600160a01b039091168152f35b50346102c957806003193601126102c9576020600c54604051908152f35b50346102c95760203660031901126102c95760043560055481101561161e57611614602091613d06565b5054604051908152f35b60405162461bcd60e51b815260206004820152602360248201527f455243333532353a20676c6f62616c20696e646578206f7574206f6620626f756044820152626e647360e81b6064820152608490fd5b506103f461167c366137d3565b906040519261168a84613621565b858452613ec6565b50346102c957806003193601126102c95760ff60105416600481101561177657600381036116f457505061032a6040516116cb81613606565b60088152677072696f7269747960c01b6020820152604051918291602083526020830190613784565b8061172057505061032a60405161170a81613606565b600481526374696d6560e01b6020820152610f59565b6002141590506117515761032a60405161173981613606565b6006815265636f756e747360d01b6020820152610f59565b61032a60405161176081613606565b60048152630c6c2e6d60e31b6020820152610f59565b634e487b7160e01b82526021600452602482fd5b50346102c95760a03660031901126102c9576001600160401b036044356064358281116108d7576117bf9036906004016136af565b60843583811161069d576117d79036906004016136af565b600f54936117e485614478565b600f5582516020809401209182875260139182855260408820878952855260018060408a2001336001600160601b0360a01b82541617905584895283865260408920888a5286528760408a205584895283865260408920888a528652600260408a20019280519283116106855761185b8454613c26565b601f8111611985575b5086908a601f851160011461190b579360409997959381938293600080516020615fcc8339815191529d9b999794611900575b50501b916000199060031b1c19161790555b81885280835285882085895283526004356005878a20015581885280835285882085895283526024356004878a2001558188528252848720848852825282600386892001558652601481526105bb838588206143e1565b015192503880611897565b50848b52878b209293929190601f1984168c5b818110611970575091600080516020615fcc8339815191529b99979593918560409c9a98969410611957575b505050811b0190556118a9565b015160001960f88460031b161c1916905538808061194a565b82840151855593860193928a01928a0161191e565b6119ad90858c52888c20601f860160051c8101918a871061067b57601f0160051c0190614487565b38611864565b50346102c957806003193601126102c957602060ff60025416604051908152f35b50346102c95760203660031901126102c957602061038360043561466f565b50346102c95760403660031901126102c957611a0d6135c2565b336001600160a01b03821603611a29576103f490600435613b53565b60405162461bcd60e51b815260206004820152602f60248201527f416363657373436f6e74726f6c3a2063616e206f6e6c792072656e6f756e636560448201526e103937b632b9903337b91039b2b63360891b6064820152608490fd5b50346102c95760203660031901126102c957806004356001600160401b038111611b0d57611ab89036906004016136af565b6008546001600160a01b0316803b15611b09576040516355f804b360e01b8152602060048201529183918391829084908290611af8906024830190613784565b03925af18015610351576107e95750f35b5050fd5b50fd5b5060603660031901126102c9576004359060248035604491823592611b3486615cf0565b80611f9b575b80611f78575b15611bbf5750506103f49293611b55826143c0565b818652601a60205260408620549083875260408720549185838203611b7e575b50505050615b31565b611ba993611b9c84611b96611ba29461122396613bc9565b92613bc9565b90613bf2565b9186613bf2565b828652601a602052604086205538808085611b75565b611bca869496615cf0565b80611f65575b1580611f3c575b15611eee578385526020601181526040862054938415611ea057601654604051639448bddb60e01b815260048101839052916001600160a01b0391849084908890829086165afa928315611e6057908a918a94611e6b575b5090611c3b9189615b31565b80821695308703611c54575b5050505050505050905080f35b8382601654169187604051809481936339ace21f60e01b835260048301525afa908115611e60578991611e31575b50611ca3611ca9916112348c61122f61122960195494611223601754614649565b97613d41565b98898952601b84528760408a205410611de257611d21928492611ce78a938d8d52601b865260408d20611cdd86825461446b565b905560185461446b565b601855601c5416908a60405180968195829463a9059cbb60e01b84526004840160209093929193604081019460018060a01b031681520152565b03925af1908115610c0c578791611dc5575b5015611d8d57508495833b1561069957858094604051968795869463070a5e9b60e51b865260048601528401525af1801561035157611d79575b80808080808080611c47565b611d82906135d8565b6102c9578038611d6d565b731554d110c81d1c985b9cd9995c8819985a5b195960621b6064926014856040519462461bcd60e51b86526004860152840152820152fd5b611ddc9150823d8411610c0557610bf6818361363c565b38611d33565b60405162461bcd60e51b8152600481018590526023818801527f496e73756666696369656e74206c697175696469747920666f72207472616e7381870152623332b960e91b6064820152608490fd5b90508381813d8311611e59575b611e48818361363c565b81010312610bc65751611ca3611c82565b503d611e3e565b6040513d8b823e3d90fd5b611c3b92919450611e9190863d8811611e99575b611e89818361363c565b8101906147c8565b939091611c2f565b503d611e7f565b507f436173684372656469743a20696e76616c69642073656e64657220746f6b656e6084926023856040519462461bcd60e51b865260048601528401528201526208125160ea1b6064820152fd5b907f436173684372656469743a207472616e736665722074797065206d69736d617460849260226040519362461bcd60e51b855260206004860152840152820152610c6d60f31b6064820152fd5b50611f4683615cf0565b80611f52575b15611bd7565b50611f5c83613d41565b600c5414611f4c565b50611f6f84613d41565b600c5414611bd0565b50611f8283615cf0565b8015611b405750611f9283613d41565b600c5414611b40565b50611fa586613d41565b600c5414611b3a565b50346102c95760403660031901126102c957611fc86135ac565b90602435611fd583613de6565b811015612007576040611ff99260209460018060a01b031681526007855220614052565b90546040519160031b1c8152f35b60405162461bcd60e51b815260206004820152602260248201527f455243333532353a206f776e657220696e646578206f7574206f6620626f756e604482015261647360f01b6064820152608490fd5b50346102c95760403660031901126102c9576004356120746135c2565b818352600960205261208c600160408520015461381e565b8183526009602052604083209060018060a01b0316908160005260205260ff60406000205416156120bb578280f35b818352600960205260408320816000526020526040600020600160ff1982541617905533917f2f8788117e7eff1d82e926ec794901d17c78024a50270940304540a733656f0d8480a438808280f35b50346102c95760203660031901126102c9576020610383600435613d41565b50346102c95760203660031901126102c95760016040602092600435815260098452200154604051908152f35b50346102c95760403660031901126102c9576001600160401b0360043581811161080d576121889036906004016136af565b9060243590811161080d576121a19036906004016136af565b9080516020809201209182845260148252604084206040519081848254918281520191875284872090875b81811061249957505050816121e291038261363c565b849282810191845b81518110156122a85786885260138352604088206122088284615f0c565b518952835260a06040892060405161221f816135eb565b81548152600180841b0360018301541686820152600561224160028401613c60565b928360408401526003810154606084015260048101546080840152015492839101528481519101208651862014908161229e575b50612289575b61228490614478565b6121ea565b9461229661228491614478565b95905061227b565b9050421038612275565b50929391936122b683614df2565b926122c4604051948561363c565b8084526122d3601f1991614df2565b0182885b82811061245f575050508693875b81518110156123be5787895260138452604089206123038284615f0c565b518a5284526040892060405190612319826135eb565b8054825260018101546001600160a01b031686830152600561233d60028301613c60565b9182604085015260038101546060850152600481015460808501520154908160a084015286815191012085518a201490816123b4575b50612388575b5061238390614478565b6122e5565b95906123ad8261239b6123839491614478565b986123a6828a615f0c565b5287615f0c565b5090612379565b9050421038612373565b83898660405191838301848452825180915260408401948060408360051b870101940192955b8287106123f15785850386f35b909192938280600192603f1989820301855287519081518152848060a01b03838301511683820152612431604083015160c0806040850152830190613784565b91606080820151908301526080808201519083015260a08091015191015296019201960195929190926123e4565b60405161246b816135eb565b8a81528a838201528a60608060408401528201528a60808201528a60a08201528282880101520183906122d7565b8254845292860192600192830192016121cc565b506103f46124ba366137d3565b916124cd6124c8843361406a565b613e5f565b6140db565b50346102c957806003193601126102c9576020600554604051908152f35b50346102c95760e03660031901126102c95761250a6135ac565b6001600160401b039160643583811161278c5761252b9036906004016136af565b9060843584811161278c576125449036906004016136af565b9360a43581811161080d5761255d9036906004016136af565b9160c4359182116102c957506125779036906004016136af565b90600094601954612589601754614649565b15612ab85761259e9061123460443582613bc9565b9386602060018060a01b03601c54166064604051809481936323b872dd60e01b83523360048401523060248401528b60448401525af18015612a5857612a99575b50600c54602435036127cc576125fd949560443590602435906147e7565b90612607826143c0565b6126136044358261446b565b80156127b757838552601a602052604085205461262f91613bc9565b60016044351517156127a3579061264591613dc6565b828452601a60205260408420555b600d5483906001600160a01b0316803b1561278c57819060446040518094819363317bf0ed60e21b835288600484015260243560248401525af1801561278157612790575b50600c5460243503612722575b61271860406020947f4af706e18e55b579174ac72261103ef5aa29a76f776089af4e6806dc3ac3cb418251806126f26044356024358a846040919493926060820195825260208201520152565b0390a1612703604435601854613bf2565b6018556024358152601b865220918254613bf2565b9055604051908152f35b60165483906001600160a01b0316803b1561278c578190604460405180948193638e9eeaef60e01b835260243560048401528860248401525af180156127815761276d575b506126a5565b61277784916135d8565b61080d5738612767565b6040513d86823e3d90fd5b5080fd5b61279c909391936135d8565b9138612698565b634e487b7160e01b85526011600452602485fd5b5050818352601a602052826040812055612653565b9291908693876020600354986127e18a614478565b600355600e54604051630151086360e31b81526001600160a01b0392831660048201526024803590820152604480359082015260648101859052938492608492849291165af1908115611e60578991612a63575b50878952601160205260408920556008546001600160a01b0316908890823b1561278c57612888928983604051809681958294632108947560e21b84526004840152604060248401526044830190613784565b03925af18015612a5857612a45575b506008546001600160a01b031690813b1561069d576128dd8592839260405194858094819363246a908b60e01b83528d6004840152604060248401526044830190613784565b03925af1801561278157908491612a31575b50506008546001600160a01b031690813b156108d75761293684928392604051948580948193630190503b60e61b83528c6004840152604060248401526044830190613784565b03925af1801561132f57908391612a1d575b50506008546001600160a01b031690813b1561080d5761298f83928392604051948580948193637e468a5160e01b83528b6004840152604060248401526044830190613784565b03925af1801561035157612a09575b5050818352601a60205282604081205560116020527f36fba2e6d0870905dade4201d8b7ff8b54c52b9e7de8df1400244d22e0d23846612a0160408520546040519182916044359060243590846040919493926060820195825260208201520152565b0390a1612653565b612a1382916135d8565b6102c9578061299e565b612a26906135d8565b61278c578138612948565b612a3a906135d8565b61080d5782386128ef565b612a509194506135d8565b859238612897565b6040513d8a823e3d90fd5b90506020813d602011612a91575b81612a7e6020938361363c565b81010312612a8d575138612835565b8880fd5b3d9150612a71565b612ab19060203d602011610c0557610bf6818361363c565b50386125df565b634e487b7160e01b87526012600452602487fd5b50346102c95760203660031901126102c957600854604051631375d84360e01b81526004803590820152908290829060249082906001600160a01b03165afa908115610351578261032a939261032e575050604051918291602083526020830190613784565b6020610383612b40366137a9565b91615078565b50346102c957602090816003193601126102c95760043560018060a01b036008541690604051636c0360eb60e01b81528381600481865afa908115612781578491612e00575b508215612bfd57508290602460405180948193633601bfc560e11b835260048301525afa918215612bf1578092612bd6575b5050905b61032a604051928284938452830190613784565b612bea92503d8091833e610342818361363c565b3880612bbe565b604051903d90823e3d90fd5b80519093925015612dc5578190807a184f03e93ff9f4daa797ed6e38ed64bf6a1f0100000000000000008181811015612db7575b5050856d04ee2d6d415b85acef810000000080841015612da9575b5050662386f26fc1000080831015612d9a575b506305f5e10080831015612d8b575b5061271080831015612d7c575b506064821015612d6c575b600a80921015612d62575b60019081602181860195612cbd612ca78861365d565b97612cb5604051998a61363c565b80895261365d565b878b019890601f1901368a3750860101905b612d2c575b50505050612d1792612d26926025926040519583612cfb88955180928b8089019101613761565b84019164736c6f742f60d81b8984015251809386840190613761565b0103600581018452018261363c565b90612bc2565b600019019083906f181899199a1a9b1b9c1cb0b131b232b360811b8282061a835304918215612d5d57919082612ccf565b612cd4565b9160010191612c91565b9190606460029104910191612c86565b60049193920491019138612c7b565b60089193920491019138612c6e565b60109193920491019138612c5f565b930192909104908538612c4c565b604094500491503880612c31565b5060405191508282016001600160401b03811183821017612dea576040528152612d26565b634e487b7160e01b600052604160045260246000fd5b612e1491503d8086833e610342818361363c565b38612b8c565b5060403660031901126102c957612e2f6135ac565b602435906001600160a01b038080612e4685613fe9565b16921691612e5681841415613f46565b803314908115612f2f575b5015612ec4578260005260066020526004612e80604060002054613d06565b500180546001600160a01b03191683179055612e9b83613fe9565b167f8c5be1e5ebec7d5bd14f71427d1e84f3dd0314c0f7b2291e5b200ac8c7c3b925600080a480f35b60405162461bcd60e51b815260206004820152603960248201527f455243333532353a20617070726f76652063616c6c6572206973206e6f74206f60448201527f776e6572206e6f7220617070726f76656420666f7220616c6c000000000000006064820152608490fd5b905084526007602052600260408520013360005260205260ff6040600020541638612e61565b50346102c95760203660031901126102c95760206115ba600435614022565b50346102c957806003193601126102c95760405160008054612f9581613c26565b80845290600190818116908115610fc65750600114612fbe5761032a84610f598186038261363c565b600080805292507f290decd9548b62a8d60345a988386fc84ba6bc95484008f6362f93160ef3e5635b828410612fff575050508101602001610f5982610f49565b80546020858701810191909152909301928101612fe7565b50346102c957602081613029366136cd565b979491958561305260ff60029c9697949a9c54169361122360018060a01b03600e541695614649565b604051630bbed13160e21b81526001600160a01b039c909c1660048d015260248c019290925260448b019390935260648a015288916084918391905af1958615610351578296613277575b50600354956130ab87614478565b600355868352601160205260408320556008546001600160a01b031690813b1561080d5782916130ff91604051948580948193632108947560e21b83528c6004840152604060248401526044830190613784565b03925af18015610db857613260575b5060085485939291906001600160a01b0316803b1561069d57613159859291839260405194858094819363246a908b60e01b83528c6004840152604060248401526044830190613784565b03925af190811561278157849161324c575b50506008546001600160a01b0316803b156108d7576131b28492918392604051948580948193630190503b60e61b83528b6004840152604060248401526044830190613784565b03925af190811561132f578391613238575b50506008546001600160a01b031690813b1561080d57829161320a91604051948580948193637e468a5160e01b8352896004840152604060248401526044830190613784565b03925af1801561132f57613224575b602082604051908152f35b61322e83916135d8565b61278c5781613219565b613241906135d8565b61278c5781386131c4565b613255906135d8565b61080d57823861316b565b61326e9095919392956135d8565b9390913861310e565b9095506020813d6020116132a3575b816132936020938361363c565b8101031261278c5751943861309d565b3d9150613286565b50346102c9576132ba366136cd565b9084989396959497926132e06019546112348861122f6112298a9f611223601754614649565b9785602060018060a01b03601c541660648c60405194859384926323b872dd60e01b845233600485015230602485015260448401525af18015610c0c57613538575b5086888b600c5482146000146134ca575061333c966147e7565b94613346866143c0565b613350848261446b565b80156134b65761337e92611b9c613377611234938b8852601a602052604088205490613bc9565b9187613bc9565b858252601a60205260408220555b600d546001600160a01b0316803b1561278c5781809160446040518094819363317bf0ed60e21b83528b60048401528960248401525af18015610351576134a2575b5050600c548203613445575b602094612718926134336040937f4af706e18e55b579174ac72261103ef5aa29a76f776089af4e6806dc3ac3cb4185518061342884878d846040919493926060820195825260208201520152565b0390a1601854613bf2565b6018558152601b865220918254613bf2565b60165485906001600160a01b0316803b1561278c578190604460405180948193638e9eeaef60e01b83528860048401528a60248401525af18015610db85761348e575b506133da565b61349886916135d8565b61069d5738613488565b6134ae919296506135d8565b9338806133ce565b5050858252601a602052604082205561338c565b91906134d597614e09565b94858252601a602052604082205560116020527f36fba2e6d0870905dade4201d8b7ff8b54c52b9e7de8df1400244d22e0d2384683604083205461353085604051938493846040919493926060820195825260208201520152565b0390a161338c565b6135509060203d602011610c0557610bf6818361363c565b5038613322565b90503461278c57602036600319011261278c5760043563ffffffff60e01b811680910361080d5760209250637965db0b60e01b811490811561359b575b5015158152f35b6301ffc9a760e01b14905038613594565b600435906001600160a01b0382168203610bc657565b602435906001600160a01b0382168203610bc657565b6001600160401b038111612dea57604052565b60c081019081106001600160401b03821117612dea57604052565b604081019081106001600160401b03821117612dea57604052565b602081019081106001600160401b03821117612dea57604052565b90601f801991011681019081106001600160401b03821117612dea57604052565b6001600160401b038111612dea57601f01601f191660200190565b9291926136848261365d565b91613692604051938461363c565b829481845281830111610bc6578281602093846000960137010152565b9080601f83011215610bc6578160206136ca93359101613678565b90565b610100600319820112610bc6576004356001600160a01b0381168103610bc657916024359160443591606435916001600160401b0390608435828111610bc6578161371a916004016136af565b9260a435838111610bc65782613732916004016136af565b9260c435818111610bc6578361374a916004016136af565b9260e435918211610bc6576136ca916004016136af565b60005b8381106137745750506000910152565b8181015183820152602001613764565b9060209161379d81518092818552858086019101613761565b601f01601f1916010190565b6060906003190112610bc657600435906024356001600160a01b0381168103610bc6579060443590565b6060906003190112610bc6576001600160a01b03906004358281168103610bc657916024359081168103610bc6579060443590565b6040906003190112610bc6576004359060243590565b60009080825260209060098252604092838120338252835260ff8482205416156138485750505050565b8351916001600160401b0390336060850183811186821017613b3f578752602a85528585019187368437855115613b2b5760308353855191600192831015613b17576078602188015360295b838111613aad5750613a6b5790875193608085019085821090821117613a5757885260428452868401946060368737845115613a4357603086538451821015613a435790607860218601536041915b8183116139d5575050506139935761398f9386936139739361396460489461393b9a519a8b957f416363657373436f6e74726f6c3a206163636f756e74200000000000000000008c8801525180926037880190613761565b8401917001034b99036b4b9b9b4b733903937b6329607d1b603784015251809386840190613761565b0103602881018752018561363c565b5192839262461bcd60e51b845260048401526024830190613784565b0390fd5b60648587519062461bcd60e51b825280600483015260248201527f537472696e67733a20686578206c656e67746820696e73756666696369656e746044820152fd5b909192600f81166010811015613a2f576f181899199a1a9b1b9c1cb0b131b232b360811b901a613a058588613bff565b5360041c928015613a1b576000190191906138e3565b634e487b7160e01b82526011600452602482fd5b634e487b7160e01b83526032600452602483fd5b634e487b7160e01b81526032600452602490fd5b634e487b7160e01b86526041600452602486fd5b60648789519062461bcd60e51b825280600483015260248201527f537472696e67733a20686578206c656e67746820696e73756666696369656e746044820152fd5b90600f81166010811015613b03576f181899199a1a9b1b9c1cb0b131b232b360811b901a613adb838a613bff565b5360041c908015613aef5760001901613894565b634e487b7160e01b87526011600452602487fd5b634e487b7160e01b88526032600452602488fd5b634e487b7160e01b86526032600452602486fd5b634e487b7160e01b85526032600452602485fd5b634e487b7160e01b85526041600452602485fd5b906000918083526009602052604083209160018060a01b03169182845260205260ff604084205416613b8457505050565b8083526009602052604083208284526020526040832060ff1981541690557ff6391f5c32d9c69d2a47ea670b442974b53935d1edc7fd64eb21e047a839171b339380a4565b81810292918115918404141715613bdc57565b634e487b7160e01b600052601160045260246000fd5b91908201809211613bdc57565b908151811015613c10570160200190565b634e487b7160e01b600052603260045260246000fd5b90600182811c92168015613c56575b6020831014613c4057565b634e487b7160e01b600052602260045260246000fd5b91607f1691613c35565b9060405191826000825492613c7484613c26565b908184526001948581169081600014613ce35750600114613ca0575b5050613c9e9250038361363c565b565b9093915060005260209081600020936000915b818310613ccb575050613c9e93508201013880613c90565b85548884018501529485019487945091830191613cb3565b915050613c9e94506020925060ff191682840152151560051b8201013880613c90565b600554811015613c10576006906005600052027f036b6384b5eca791c62761152d0c79bb0604c104a5fb6f4eb0703f3154bb3db00190600090565b613d4a81615d94565b60005260066020526001613d62604060002054613d06565b50015490565b602081830312610bc6578051906001600160401b038211610bc6570181601f82011215610bc6578051613d9a8161365d565b92613da8604051948561363c565b81845260208284010111610bc6576136ca9160208085019101613761565b8115613dd0570490565b634e487b7160e01b600052601260045260246000fd5b6001600160a01b03168015613e0657600052600760205260406000205490565b60405162461bcd60e51b815260206004820152602b60248201527f455243333532353a2062616c616e636520717565727920666f7220746865207a60448201526a65726f206164647265737360a81b6064820152608490fd5b15613e6657565b60405162461bcd60e51b815260206004820152603260248201527f455243333532353a207472616e736665722063616c6c6572206973206e6f74206044820152711bdddb995c881b9bdc88185c1c1c9bdd995960721b6064820152608490fd5b90613eea939291613eda6124c8843361406a565b613ee58383836140db565b614522565b15613ef157565b60405162461bcd60e51b815260206004820152602760248201527f455243333532353a207472616e7366657220746f206e6f6e204552433732315260448201526632b1b2b4bb32b960c91b6064820152608490fd5b15613f4d57565b60405162461bcd60e51b815260206004820152602260248201527f455243333532353a20617070726f76616c20746f2063757272656e74206f776e60448201526132b960f11b6064820152608490fd5b15613fa457565b60405162461bcd60e51b815260206004820152601960248201527f455243333532353a20696e76616c696420746f6b656e204944000000000000006044820152606490fd5b613ff281615d94565b6000526006602052614008604060002054613d06565b50600301546001600160a01b031690613c9e821515613f9d565b61402b81615d94565b6000526006602052614041604060002054613d06565b50600401546001600160a01b031690565b8054821015613c105760005260206000200190600090565b906001600160a01b03808061407e84613fe9565b169316918383149384156140b1575b50831561409b575b50505090565b6140a791929350614022565b1614388080614095565b909350600052600760205260026040600020018260005260205260ff60406000205416923861408d565b6140e483613fe9565b6001600160a01b039182169190811682900361436f5780831692831561431c5761410d85613d41565b50614117856143c0565b506000918583526020906006825260409061413482862054613d06565b50600490810180546001600160a01b0319908116909155909189878261415983613fe9565b167f8c5be1e5ebec7d5bd14f71427d1e84f3dd0314c0f7b2291e5b200ac8c7c3b9258280a489875260068552600561419385892054613d06565b500180549091858988818f5b8684106142e557505050505050508054878255806142cc575b50508886526006845260036141cf84882054613d06565b50019081541690558585526007835281852091825493600019948581019081116142b9579061420088939286614052565b90549060031b1c9060018601908c8552818152838520549261424181614226868b614052565b90919082549060031b600019811b9283911b16911916179055565b8552528183205589825281205581549081156142a65750928288926142a2947fddf252ad1be2c89b69c2b068fc378daa952ba7f163c4a11628f55a4df523b3ef9796019161428f8383614052565b909182549160031b1b1916905555614404565b80a4565b634e487b7160e01b865260319052602485fd5b634e487b7160e01b885260118452602488fd5b6142de91885285882090810190614487565b38806141b8565b6143129486928b6142f6878c614052565b96905494835252209260031b1c168c5289528a88812055614478565b8690888b8f61419f565b60405162461bcd60e51b815260206004820152602560248201527f455243333532353a207472616e7366657220746f20746865207a65726f206164604482015264647265737360d81b6064820152608490fd5b60405162461bcd60e51b8152602060048201526024808201527f455243333532353a207472616e736665722066726f6d20696e76616c6964206f6044820152633bb732b960e11b6064820152608490fd5b6143c981615d94565b60005260066020526002613d62604060002054613d06565b90815491600160401b831015612dea5782614226916001613c9e95018155614052565b906040613c9e926000908382526006602052600361442484842054613d06565b500180546001600160a01b0319166001600160a01b0390921691821790558082526007602081815284842080548786526001919091018252858520559183529052206143e1565b91908203918211613bdc57565b6000198114613bdc5760010190565b818110614492575050565b60008155600101614487565b90600160401b8111612dea578154908083558181106144bc57505050565b613c9e9260005260206000209182019101614487565b90816020910312610bc657516001600160e01b031981168103610bc65790565b3d1561451d573d906145038261365d565b91614511604051938461363c565b82523d6000602084013e565b606090565b9192813b63ffffffff16156146405760209161457a916000604051958680958194630a85bd0160e11b9a8b845233600485015260018060a01b0380951660248501526044840152608060648401526084830190613784565b0393165af160009181614610575b50614602576145956144f2565b805190816145fd5760405162461bcd60e51b815260206004820152603260248201527f4552433732313a207472616e7366657220746f206e6f6e20455243373231526560448201527131b2b4bb32b91034b6b83632b6b2b73a32b960711b6064820152608490fd5b602001fd5b6001600160e01b0319161490565b61463291925060203d8111614639575b61462a818361363c565b8101906144d2565b9038614588565b503d614620565b50505050600190565b604d8111613bdc57600a0a90565b90816020910312610bc657518015158103610bc65790565b61467881615cf0565b8061470d575b1561469457600052601a60205260406000205490565b6016546040516339ace21f60e01b81526004810192909252602090829060249082906001600160a01b03165afa908115614701576000916146d3575090565b906020823d82116146f9575b816146ec6020938361363c565b810103126102c957505190565b3d91506146df565b6040513d6000823e3d90fd5b5061471781613d41565b600c541461467e565b61472981615d94565b8060005260066020526002614742604060002054613d06565b500180548381106147775783600080516020615fac8339815191529261476c60009660209461446b565b9055604051908152a3565b60405162461bcd60e51b815260206004820152602360248201527f455243333532353a206275726e2076616c756520657863656564732062616c616044820152626e636560e81b6064820152608490fd5b90816020910312610bc657516001600160a01b0381168103610bc65790565b95909394919460009260018060a01b0391828916958686526015602052604096878720898852602052878720548781151580614d9c575b614d52575b614ce857506003549a6148358c614478565b6003558115614c9a578b15614c4c5761484d8c615cf0565b8015614c3d575b614bf957885161486381613621565b88815289518a8e614873836135eb565b8083528d60208401908152828401908d82528d6060860193898552608087019582875260a08801988952600554928392815260066020522055600160401b811015614be5578060016148c89201600555613d06565b959095614bd15751855551600185015551600284015551600383018054918b166001600160a01b03199283161790559051600483018054918b16919092161790559051805191600501906001600160401b038311614bbd579060208f95949392614932848461449e565b01908b5260208b208b5b838110614b9a57505050508261495191614404565b877fddf252ad1be2c89b69c2b068fc378daa952ba7f163c4a11628f55a4df523b3ef8180a487868b7fe4f48c240d3b994948aa54f3e2f5fca59263dfe1d52b6e4cf39a5d249b5ccb658280a46149a7898b614dba565b8360085416803b15614b96576149e391879189838e825196879586948593632108947560e21b8552600485015260248401526044830190613784565b03925af18015614b8c57614b79575b508260085416803b1561069957614a2e9186918b838a5180968195829463246a908b60e01b845260048401528d60248401526044830190613784565b03925af18015614b6f57908591614b5b575b50508160085416803b1561069d57614a7d9185918a838951809681958294630190503b60e61b845260048401528c60248401526044830190613784565b03925af18015614b5157908491614b3d575b50506008541690813b1561080d57614acc839283928651948580948193637e468a5160e01b83528d60048401528a60248401526044830190613784565b03925af18015614b3357614b1f575b505051838152602081019190915260408101919091527f84eeb48eca46cea54afc9753345f6038981672ea565f32885420829dfd88aea69080606081015b0390a190565b614b2982916135d8565b6102c95780614adb565b83513d84823e3d90fd5b614b46906135d8565b61080d578238614a8f565b85513d86823e3d90fd5b614b64906135d8565b6108d7578338614a40565b86513d87823e3d90fd5b614b85909591956135d8565b93386149f2565b87513d88823e3d90fd5b8680fd5b82939495965060208b6001939451169401938184015501908f959493929161493c565b634e487b7160e01b8b52604160045260248bfd5b634e487b7160e01b8f5260048f905260248ffd5b634e487b7160e01b8f52604160045260248ffd5b885162461bcd60e51b815260206004820152601d60248201527f455243333532353a20746f6b656e20616c7265616479206d696e7465640000006044820152606490fd5b50614c478c615d1e565b614854565b885162461bcd60e51b815260206004820152602160248201527f455243333532353a2063616e6e6f74206d696e74207a65726f20746f6b656e496044820152601960fa1b6064820152608490fd5b885162461bcd60e51b815260206004820152602160248201527f455243333532353a206d696e7420746f20746865207a65726f206164647265736044820152607360f81b6064820152608490fd5b9a505050505050505090614b197f84eeb48eca46cea54afc9753345f6038981672ea565f32885420829dfd88aea69392614d2186613fe9565b50614d2b86613d41565b50614d368487614dba565b5192839286846040919493926060820195825260208201520152565b8287614d5d84615e73565b161480614d8b575b80614d78575b1561482357506001614823565b5081895260116020528989205415614d6b565b508a614d9683613d41565b14614d65565b50614da682615cf0565b8061481e5750614db582615d1e565b61481e565b90600080516020615fac8339815191526020600092848452600682526002614de56040862054613d06565b500161476c828254613bf2565b6001600160401b038111612dea5760051b60200190565b94909295919693600096602060035499614e228b614478565b600355600e5460408051630151086360e31b81526001600160a01b039b8c166004820152602481019990995260448901929092526064880193909352979591829060849082908c908a165af190811561506e57889161503d575b508888526011602052868820558360085416803b1561503957614ec49188918a838a51809681958294632108947560e21b845260048401528d60248401526044830190613784565b03925af1801561502f5761501c575b508260085416803b15614b9657614f0f9187918983895180968195829463246a908b60e01b845260048401528c60248401526044830190613784565b03925af1801561501257908691614ffe575b5050816008541690813b1561069957614f5f869283928751948580948193630190503b60e61b83528d60048401528b60248401526044830190613784565b03925af18015614ff457908591614fe0575b50506008541690813b156108d757614fb08392859492859351958680948193637e468a5160e01b83528b60048401528860248401526044830190613784565b03925af1908115614fd75750614fc557505090565b614fcf82916135d8565b6102c9575090565b513d84823e3d90fd5b614fe9906135d8565b6108d7578338614f71565b84513d87823e3d90fd5b615007906135d8565b61069d578438614f21565b85513d88823e3d90fd5b615028909691966135d8565b9438614ed3565b86513d89823e3d90fd5b8780fd5b90506020813d8211615066575b816150576020938361363c565b81010312615039575138614e7c565b3d915061504a565b87513d8a823e3d90fd5b9190916000908082526020916011835260409283822054156000146153ec576150a28584336154cf565b600354956150af87614478565b6003556150bb84613d41565b906001600160a01b038082169190821561539e578915615350576150de8a615cf0565b8015615341575b6152fd57849088516150f681613621565b8781528951888b8e615107846135eb565b8084528684018a81528285019184835260608601938b8552608087019580875260a0880198895260066005549b8c948352522055600160401b8810156152e957615158600198898101600555613d06565b9590956152d557906005959493929151855551888501555160028401558560038401915116906001600160601b0360a01b9182825416179055856004840192511690825416179055019051918251926001600160401b03841161068557908883928f9b9a999897969594856151cc9161449e565b0191895287892090895b8481106152bf575050505050507f6d811e6a20ae5461a4ef22a6998c1d958defe727f1cc522b6eb792bc8e6f7266989796938693846152a2979461522c614b199a600080516020615fac83398151915296614404565b857fddf252ad1be2c89b69c2b068fc378daa952ba7f163c4a11628f55a4df523b3ef8180a483857fe4f48c240d3b994948aa54f3e2f5fca59263dfe1d52b6e4cf39a5d249b5ccb658280a48383526006815261528a88842054613d06565b50508751838152a361529d858883615769565b613d41565b915192839286846040919493926060820195825260208201520152565b83518216818401558f9b509289019285016151d6565b634e487b7160e01b8e5260048e905260248efd5b634e487b7160e01b8d52604160045260248dfd5b875162461bcd60e51b815260048101869052601d60248201527f455243333532353a20746f6b656e20616c7265616479206d696e7465640000006044820152606490fd5b5061534b8a615d1e565b6150e5565b875162461bcd60e51b815260048101869052602160248201527f455243333532353a2063616e6e6f74206d696e74207a65726f20746f6b656e496044820152601960fa1b6064820152608490fd5b875162461bcd60e51b815260048101869052602160248201527f455243333532353a206d696e7420746f20746865207a65726f206164647265736044820152607360f81b6064820152608490fd5b600e5484516307a42e0160e11b8152600481018590526001600160a01b0397881660248201526044810187905291969192918791849160649183918691165af19586156154c357819661546c575b50505090614b196152a27f6d811e6a20ae5461a4ef22a6998c1d958defe727f1cc522b6eb792bc8e6f72669493613d41565b909180939650813d83116154bc575b615485818361363c565b810103126102c957505192614b196152a27f6d811e6a20ae5461a4ef22a6998c1d958defe727f1cc522b6eb792bc8e6f726661543a565b503d61547b565b508351903d90823e3d90fd5b6154d98183615569565b6154e3838361406a565b158061555d575b6154f5575b50505050565b8381106155185761550f936155099161446b565b91615597565b388080806154ef565b60405162461bcd60e51b815260206004820152601f60248201527f455243333532353a20696e73756666696369656e7420616c6c6f77616e6365006044820152606490fd5b506000198114156154ea565b61557281615d94565b600052600460205260406000209060018060a01b031660005260205260406000205490565b6001600160a01b03808316939192841561568057836155b5916156d8565b15615603575b5060207f621b050de0ad08b51d19b48b3e6df75348c4de6bdd93e81b252ca62e28265b1b918360005260048252604060002085600052825280604060002055604051908152a3565b90826000526006602052600561561d604060002054613d06565b500190815492600160401b841015612dea57856156638560209560017f621b050de0ad08b51d19b48b3e6df75348c4de6bdd93e81b252ca62e28265b1b98018155614052565b909283549160031b90811b9283911b1691191617905591506155bb565b60405162461bcd60e51b815260206004820152602a60248201527f455243333532353a20617070726f76652076616c756520746f20746865207a65604482015269726f206164647265737360b01b6064820152608490fd5b60009082825260066020908082526040906156f582862054613d06565b509260058094015496865b8881106157135750505050505050905090565b818852838352615731818761572a888c2054613d06565b5001614052565b905460039190911b1c6001600160a01b039081169088161461575b5761575690614478565b615700565b505050505050505050600190565b61577281615cf0565b80156159ff575b156159aa5761578782615cf0565b801561599b575b156159485780600052602092600684526040926157ae8460002054613d06565b5081600052600686526157c48560002054613d06565b509060028101908154908582106158f1576001015460018401540361589657916002916157f7866158349897969561446b565b905501615805838254613bf2565b90558083600080516020615fac833981519152888851868152a384519261582b84613621565b60008452615a0e565b1561583d575050565b60849250519062461bcd60e51b82526004820152602d60248201527f455243333532353a207472616e736665722072656a656374656420627920455260448201526c21999a991aa932b1b2b4bb32b960991b6064820152fd5b865162461bcd60e51b815260048101899052602e60248201527f455243333532353a207472616e7366657220746f20746f6b656e20776974682060448201526d191a5999995c995b9d081cdb1bdd60921b6064820152608490fd5b875162461bcd60e51b8152600481018a9052602a60248201527f455243333532353a20696e73756666696369656e742062616c616e636520666f60448201526939103a3930b739b332b960b11b6064820152608490fd5b60405162461bcd60e51b815260206004820152602560248201527f455243333532353a207472616e7366657220746f20696e76616c696420746f6b604482015264195b88125160da1b6064820152608490fd5b506159a582615d1e565b61578e565b60405162461bcd60e51b815260206004820152602760248201527f455243333532353a207472616e736665722066726f6d20696e76616c696420746044820152661bdad95b88125160ca1b6064820152608490fd5b50615a0981615d1e565b615779565b929092615a1a84613fe9565b803b63ffffffff1615615b27576040516301ffc9a760e01b8152629ce20b60e01b6004820181905295602095926001600160a01b0316918681602481865afa60009181615b08575b50615a7d575050505050505050615a776144f2565b50600190565b15615afc5760008694615abc604051978896879586948d865233600487015260248601526044850152606484015260a0608484015260a4830190613784565b03925af191821561470157600092615adf575b50506001600160e01b0319161490565b615af59250803d106146395761462a818361363c565b3880615acf565b50505050505050600190565b615b20919250883d8a11610c0557610bf6818361363c565b9038615a62565b5050505050600190565b9091615b3c83615cf0565b80615cdd575b8015615cce575b15615c5757615b5782615cf0565b80615c44575b80615c21575b15615bc75790615bc282615b9a7fdf7a601a0a201ccd4b4bfcfd610913188d931867997223d226f85f2f2673988a959484336154cf565b615ba5818585615769565b604051938493846040919493926060820195825260208201520152565b0390a1565b600e546001600160a01b0316803b15610bc657604051630310ed7f60e41b8152600481019390935260248301939093526044820152906000908290606490829084905af1801561470157615c185750565b613c9e906135d8565b50615c2b83615cf0565b8015615b635750615c3b83613d41565b600c5414615b63565b50615c4e82613d41565b600c5414615b5d565b60a460405162461bcd60e51b815260206004820152604460248201527f546f6b656e204944206f66207265636569766572206e6f74207265636f676e6960448201527f7a6564206279207468697320636f6e7472616374206f722074686520726567696064820152637374727960e01b6084820152fd5b50615cd883615d1e565b615b49565b50615ce783613d41565b600c5414615b42565b60055415159081615cff575090565b8091506000526006602052615d18604060002054613d06565b50541490565b8060005260116020526040600020541590811591615d3a575090565b600e546040516341ce4b3f60e01b81526004810192909252909150602090829060249082906001600160a01b03165afa90811561470157600091615d7c575090565b6136ca915060203d8111610c0557610bf6818361363c565b613c9e90615da181615cf0565b908115615dc6575b8115615db6575b50613f9d565b615dc09150615d1e565b38615db0565b9050615dd181615d1e565b90615da9565b615de081615d94565b615de981615cf0565b80615e60575b15615dfd576136ca906143c0565b600090815260116020526040812054602060018060a01b03600e541691602460405180948193631398fee160e31b835260048301525afa918215612bf1578092615e4657505090565b9091506020823d82116146f957816146ec6020938361363c565b50615e6a81613d41565b600c5414615def565b615e7c81615d94565b615e8581615cf0565b80615ef9575b15615e99576136ca90613fe9565b60018060a01b03600e541690600052601160205260206040600020546024604051809481936331a9108f60e11b835260048301525afa90811561470157600091615ee1575090565b6136ca915060203d8111611e9957611e89818361363c565b50615f0381613d41565b600c5414615e8b565b8051821015613c105760209160051b010190565b90615f2a82615d94565b615f3382615cf0565b80615f98575b15615f47576136ca91615569565b602060018060a01b0391604483600e541660009586526011845260408620549060405195869485936338d1782f60e21b855260048501521660248301525afa918215612bf1578092615e4657505090565b50615fa282613d41565b600c5414615f3956fe0b2aac84f3ec956911fd78eae5311062972ff949f38412e8da39069d9f068cc6519b8a896d3cf44bd2d0545987d41a13bfb2ba37ce6ce401c753218178535608a2646970667358221220e9268ef1f67fe94eda343ba9bcf6e81e68f3eaa59388777e765bb1661fd0dd1964736f6c634300081100336080604052346200048657620020c5803803806200001d816200048b565b9283398101608082820312620004865781516001600160401b0391908281116200048657816200004f918501620004b1565b91602092838501518281116200048657836200006d918701620004b1565b92604086015183811162000486576060916200008b918801620004b1565b9501516001600160a01b03811695908690036200048657815193838511620002c3576001948554938685811c951680156200047b575b88861014620002a2578190601f9586811162000425575b508890868311600114620003bd57600092620003b1575b5050600019600383901b1c191690861b1785555b805190848211620002c357600254908682811c92168015620003a6575b88831014620002a25781858493116200034f575b508790858311600114620002e557600092620002d9575b5050600019600383901b1c191690851b176002555b8051928311620002c35760039485548581811c91168015620002b8575b82821014620002a25783811162000257575b5080928411600114620001ed5750928293918392600094620001e1575b50501b9160001990841b1c19161790555b600080546001600160a01b031916919091179055604051611ba19081620005248239f35b015192503880620001ac565b919083601f1981168760005284600020946000905b888383106200023c575050501062000223575b505050811b019055620001bd565b015160001983861b60f8161c1916905538808062000215565b85870151885590960195948501948793509081019062000202565b86600052816000208480870160051c82019284881062000298575b0160051c019086905b8281106200028b5750506200018f565b600081550186906200027b565b9250819262000272565b634e487b7160e01b600052602260045260246000fd5b90607f16906200017d565b634e487b7160e01b600052604160045260246000fd5b0151905038806200014b565b90879350601f198316916002600052896000209260005b8b8282106200033857505084116200031e575b505050811b0160025562000160565b015160001960f88460031b161c191690553880806200030f565b8385015186558b97909501949384019301620002fc565b9091506002600052876000208580850160051c8201928a86106200039c575b918991869594930160051c01915b8281106200038c57505062000134565b600081558594508991016200037c565b925081926200036e565b91607f169162000120565b015190503880620000ef565b90889350601f19831691846000528a6000209260005b8c8282106200040e5750508411620003f4575b505050811b01855562000103565b015160001960f88460031b161c19169055388080620003e6565b8385015186558c97909501949384019301620003d3565b90915087600052886000208680850160051c8201928b861062000471575b918a91869594930160051c01915b82811062000461575050620000d8565b600081558594508a910162000451565b9250819262000443565b94607f1694620000c1565b600080fd5b6040519190601f01601f191682016001600160401b03811183821017620002c357604052565b919080601f84011215620004865782516001600160401b038111620002c357602090620004e7601f8201601f191683016200048b565b92818452828287010111620004865760005b8181106200050f57508260009394955001015290565b8581018301518482018401528201620004f956fe608060408181526004908136101561001657600080fd5b600092833560e01c9081631375d843146113cd57508063246a908b146112cf57806355f804b31461118b57806364140ec01461108c5780636c0360eb14610fcd5780636c037f8a14610d0f57806371f0442e14610c7b578063725fa09c146108c05780637e468a51146107c1578063842251d414610685578063894b4c2e146101755763b3154c08146100a857600080fd5b34610171576020918260031936011261016d5780358452825280832091815192848154906100d5826118ef565b80875292600192808416908115610149575060011461010e575b61010a8787610100828c03836114e3565b5191829182611485565b0390f35b9080949750528583205b828410610136575050508261010a94610100928201019438806100ef565b8054868501880152928601928101610118565b60ff19168887015250505050151560051b83010192506101008261010a38806100ef565b8380fd5b8280fd5b50903461017157602092836003193601126106825782516306fdde0360e01b81529180359082848281335afa938415610678578394610654575b506101b9826117ac565b926102056022875180968a6101d78184019a8b815193849201611462565b820161202360f01b8c8201526101f68c83519384918785019101611462565b010360028101875201856114e3565b828152818752858120865181549391899184610220876118ef565b80835284830193600198868a821691826000146106345750506001146105fb575b505090610254816102c9949303826114e3565b6102e561026030611a28565b898852600686526102d78d808a209a60058952818b2091519788948a86019a6102ac61028b8d611929565b91692f636f6e74726163742f60b01b83528351938491600a85019101611462565b019c6011662f746f6b656e2f60c81b9e8f600a82015201906119a5565b602f60f81b815201906119a5565b03601f1981018552846114e3565b8a51631398fee160e31b81528581018990528c81602481335afa80156105c25787906105cc575b61031691506117ac565b8b5163131f9f3f60e11b8152958601899052948c81602481335afa9081156105c2578d918d918991610589575b5061034d906117ac565b9761035733611a28565b9a815260068352208c51713d91383937b832b93a34b2b9afbab934911d60711b818401908152601160f91b60328301529a90998a93909161039a60338601611929565b9068636f6e74726163742f60b81b825280518093600984019201916103be92611462565b019060098201526010016103d1916119a5565b6f17b83937b832b93a34b2b9973539b7b760811b815261227d60f01b601082015203600d198101885260120161040790886114e3565b8a51998a998d683d913730b6b2911d1160b91b908c015251908160298c0161042e92611462565b890190701116113232b9b1b934b83a34b7b7111d1160791b6029830152519182603a830161045b92611462565b01906a11161134b6b0b3b2911d1160a91b603a8301525191826045830161048192611462565b016c1116113130b630b731b2911d1160991b6045820152815191828a605284019201916104ad92611462565b016911161139b637ba111d1160b11b60528201528151918289605c84019201916104d692611462565b01906e111611383937b832b93a34b2b9911d60891b605c830152519182606b830161050092611462565b01606b8101607d60f81b905203604c81018252606c0161052090826114e3565b61052990611631565b81517f646174613a6170706c69636174696f6e2f6a736f6e3b6261736536342c00000084820152815190938492610567918391603d86019101611462565b810103601d81018352603d0161057d90836114e3565b5161010a819282611485565b928092508391503d83116105bb575b6105a281836114e3565b810103126105b7578b61034d8e925190610343565b8680fd5b503d610598565b8c513d89823e3d90fd5b508c81813d83116105f4575b6105e281836114e3565b810103126105b757610316905161030c565b503d6105d8565b8592508752818720908888925b82841061061e5750505082010161025482610241565b80548487018601528794909301928a9101610608565b60ff1916875292151560051b850190920192506102549150839050610241565b6106719194503d8085833e61066981836114e3565b8101906115a0565b92386101af565b85513d85823e3d90fd5b80fd5b508290346107bd576106963661156d565b939083526020916006835283209184519167ffffffffffffffff83116107aa57506106c183546118ef565b601f8111610767575b5080601f831160011461070557508394829394926106fa575b50508160011b916000199060031b1c191617905580f35b0151905084806106e3565b90601f198316958486528286209286905b88821061074f57505083600195969710610736575b505050811b01905580f35b015160001960f88460031b161c1916905584808061072b565b80600185968294968601518155019501930190610716565b838552818520601f840160051c8101918385106107a0575b601f0160051c01905b81811061079557506106ca565b858155600101610788565b909150819061077f565b634e487b7160e01b855260419052602484fd5b5080fd5b508290346107bd576107d23661156d565b939083526020916007835283209184519167ffffffffffffffff83116107aa57506107fd83546118ef565b601f811161087d575b5080601f831160011461083557508394829394926106fa5750508160011b916000199060031b1c191617905580f35b90601f198316958486528286209286905b8882106108655750508360019596971061073657505050811b01905580f35b80600185968294968601518155019501930190610846565b838552818520601f840160051c8101918385106108b6575b601f0160051c01905b8181106108ab5750610806565b85815560010161089e565b9091508190610895565b50913461068257806003193601126106825782516306fdde0360e01b815281818481335afa908115610c71578291610c57575b508351829060025492610905846118ef565b9586835260209683888101956001978a8982169182600014610c3c575050600114610be1575b610937925003846114e3565b61094033611a28565b9588519586898101986109528a611929565b68636f6e74726163742f60b81b81526109758c8351938491600985019101611462565b01602f60f81b600982015283906003549361098f856118ef565b94818116908115610bc05750600114610b61575b50506109b8925003601f1981018852876114e3565b8789518093633e7e866960e01b825281335afa918215610b55578192610b17575b5050610ac9605a888a61010a9b9961010099610a7f603d9a610b079e9a610a5c610ace9b610a0c60ff610a329d166117ac565b97519b8c99683d913730b6b2911d1160b91b818c0152825192839160298d019101611462565b880191701116113232b9b1b934b83a34b7b7111d1160791b6029840152518093603a840190611462565b01916a11161134b6b0b3b2911d1160a91b603a8401525180936045840190611462565b01721116113b30b63ab2a232b1b4b6b0b639911d1160691b6045820152610aaf825180938a605885019101611462565b0161227d60f01b605882015203603a8101845201826114e3565b611631565b845195827f646174613a6170706c69636174696f6e2f6a736f6e3b6261736536342c000000889485015282519283918686019101611462565b810103601d8101855201836114e3565b9091508781813d8311610b4e575b610b2f81836114e3565b810103126107bd57519060ff821682036106825750610ac9605a6109d9565b503d610b25565b508851903d90823e3d90fd5b6003865290915084908c7fc2575a0e9e593c00f959f8c92f12db2869c3395a3b0502d05e2516446f71f85b5b868410610ba857505050506109b892600a91010138806109a3565b8054858501600a01528c95509201918d908201610b8d565b9050600a93506109b895915060ff19168383015280151502010138806109a3565b505060028752838888887f405787fa12a823e0f2b7631cc41b3ba8828b3321ca811111fa75cd3aa3bb5ace5b858310610c23575050610937935082010161092b565b80919294505483858a0101520191018990888793610c0d565b60ff1916895261093794151560051b840101915061092b9050565b610c6b91503d8084833e61066981836114e3565b386108f3565b84513d84823e3d90fd5b5034610171576020918260031936011261016d57358352600582528083209181519284815490610caa826118ef565b808752926001928084169081156101495750600114610cd45761010a8787610100828c03836114e3565b9080949750528583205b828410610cfc575050508261010a94610100928201019438806100ef565b8054868501880152928601928101610cde565b5090346101715760209283600319360112610682578054835163ec327a2160e01b815283358185018190529092916001600160a01b0316908284602481855afa938415610fc3578394610fa7575b50855163bc74ebb960e01b8152858101829052948386602481865afa958615610f9d578496610f81575b5086516309c3dd8760e01b80825282820184905290938585602481845afa948515610f7757918a9594939187938496610f56575b5090602491610dfb60268d518a652f696d61676560d01b81610de7849e85019d8e815193849201611462565b83019182015203600681018b5201896114e3565b8b51958694859384528301525afa938415610f4b578094610f2e575b50508551918288808201868197519283910191610e3392611462565b81018981016f17b83937b832b93a34b2b9973539b7b760811b905203601081018452603001610e6290846114e3565b8651958695683d913730b6b2911d1160b91b8a880152805190818b60298a01920191610e8d92611462565b8601701116113232b9b1b934b83a34b7b7111d1160791b6029820152815191828b603a8401920191610ebe92611462565b01906a11161134b6b0b3b2911d1160a91b603a83015251918260458301610ee492611462565b01906e111611383937b832b93a34b2b9911d60891b604583015251918260548301610f0e92611462565b0160548101607d60f81b90520360358101825260550161052090826114e3565b610f439294503d8091833e61066981836114e3565b913880610e17565b8751903d90823e3d90fd5b602492919650610f6f903d8087833e61066981836114e3565b959091610dbb565b89513d88823e3d90fd5b610f969196503d8086833e61066981836114e3565b9438610d87565b87513d86823e3d90fd5b610fbc9194503d8085833e61066981836114e3565b9238610d5d565b86513d85823e3d90fd5b8382346107bd57816003193601126107bd57805190826001805491610ff1836118ef565b80865292828116908115611064575060011461101a575b5050506101008261010a9403836114e3565b9450808552600080516020611b4c8339815191525b82861061104c5750505061010082602061010a9582010194611008565b8054602087870181019190915290950194810161102f565b61010a97508693506020925061010094915060ff191682840152151560051b82010194611008565b508290346107bd5761109d3661156d565b939083526020916005835283209184519167ffffffffffffffff83116107aa57506110c883546118ef565b601f8111611148575b5080601f831160011461110057508394829394926106fa5750508160011b916000199060031b1c191617905580f35b90601f198316958486528286209286905b8882106111305750508360019596971061073657505050811b01905580f35b80600185968294968601518155019501930190611111565b838552818520601f840160051c810191838510611181575b601f0160051c01905b81811061117657506110d1565b858155600101611169565b9091508190611160565b828434610682576020806003193601126107bd5767ffffffffffffffff833581811161016d576111be9036908601611521565b9384519182116112bc57506001916111d683546118ef565b601f811161126a575b5080601f8311600114611219575083948293949261120e575b5050600019600383901b1c191690821b17905580f35b0151905084806111f8565b838552601f19831695600080516020611b4c833981519152929186905b888210611253575050838596971061073657505050811b01905580f35b808785968294968601518155019501930190611236565b838552600080516020611b4c833981519152601f840160051c8101918385106112b2575b601f0160051c019084905b8281106112a75750506111df565b868155018490611299565b909150819061128e565b634e487b7160e01b845260419052602483fd5b508290346107bd576112e03661156d565b9390835260209181835283209184519167ffffffffffffffff83116107aa575061130a83546118ef565b601f811161138a575b5080601f831160011461134257508394829394926106fa5750508160011b916000199060031b1c191617905580f35b90601f198316958486528286209286905b8882106113725750508360019596971061073657505050811b01905580f35b80600185968294968601518155019501930190611353565b838552818520601f840160051c8101918385106113c3575b601f0160051c01905b8181106113b85750611313565b8581556001016113ab565b90915081906113a2565b9290503461016d576020908160031936011261145e57358452600681528184208054856113f9826118ef565b8087529260019280841690811561014957506001146114235761010a8787610100828c03836114e3565b9080949750528583205b82841061144b575050508261010a94610100928201019438806100ef565b805486850188015292860192810161142d565b8480fd5b60005b8381106114755750506000910152565b8181015183820152602001611465565b604091602082526114a58151809281602086015260208686019101611462565b601f01601f1916010190565b6060810190811067ffffffffffffffff8211176114cd57604052565b634e487b7160e01b600052604160045260246000fd5b90601f8019910116810190811067ffffffffffffffff8211176114cd57604052565b67ffffffffffffffff81116114cd57601f01601f191660200190565b81601f820112156115685780359061153882611505565b9261154660405194856114e3565b8284526020838301011161156857816000926020809301838601378301015290565b600080fd5b90604060031983011261156857600435916024359067ffffffffffffffff82116115685761159d91600401611521565b90565b6020818303126115685780519067ffffffffffffffff8211611568570181601f820112156115685780516115d381611505565b926115e160405194856114e3565b818452602082840101116115685761159d9160208085019101611462565b9061160982611505565b61161660405191826114e3565b8281528092611627601f1991611505565b0190602036910137565b8051156117875760405190611645826114b1565b604082527f4142434445464748494a4b4c4d4e4f505152535455565758595a61626364656660208301527f6768696a6b6c6d6e6f707172737475767778797a303132333435363738392b2f60408301528051600291828201809211611771576003918290046001600160fe1b0381168103611771576116c7908495941b6115ff565b936020850193829183518401906020820192835194600085525b83811061172057505050505251068060011461170d57600214611702575090565b603d90600019015390565b50603d9081600019820153600119015390565b87600491999293949901918251600190603f9082828260121c16880101518453828282600c1c16880101518385015382828260061c16880101518885015316850101518982015301979291906116e1565b634e487b7160e01b600052601160045260246000fd5b506040516020810181811067ffffffffffffffff8211176114cd576040526000815290565b806000917a184f03e93ff9f4daa797ed6e38ed64bf6a1f010000000000000000808210156118e1575b506d04ee2d6d415b85acef8100000000808310156118d2575b50662386f26fc10000808310156118c3575b506305f5e100808310156118b4575b50612710808310156118a5575b506064821015611895575b600a8092101561188b575b6001908160216118438287016115ff565b95860101905b611855575b5050505090565b600019019083906f181899199a1a9b1b9c1cb0b131b232b360811b8282061a83530491821561188657919082611849565b61184e565b9160010191611832565b9190606460029104910191611827565b6004919392049101913861181c565b6008919392049101913861180f565b60109193920491019138611800565b602091939204910191386117ee565b6040935081049150386117d5565b90600182811c9216801561191f575b602083101461190957565b634e487b7160e01b600052602260045260246000fd5b91607f16916118fe565b9060009160019081549161193c836118ef565b92818116908115611992575060011461195457505050565b809192939450600052600080516020611b4c833981519152906000915b84831061197f575050500190565b8181602092548587015201920191611971565b60ff191683525050811515909102019150565b6000929181546119b4816118ef565b92600191808316908115611a0d57506001146119d1575b50505050565b90919293945060005260209081600020906000915b8583106119fc57505050500190388080806119cb565b8054858401529183019181016119e6565b60ff19168452505050811515909102019150388080806119cb565b604051906001600160a01b0316611a3e826114b1565b602a82526020908183016040368237835115611b3557603090538251600190811015611b3557607860218501536029905b808211611ac3575050611a80575090565b6064906040519062461bcd60e51b825280600483015260248201527f537472696e67733a20686578206c656e67746820696e73756666696369656e746044820152fd5b9091600f81166010811015611b20578551841015611b20576f181899199a1a9b1b9c1cb0b131b232b360811b901a85840185015360041c918015611b0b576000190190611a6f565b60246000634e487b7160e01b81526011600452fd5b60246000634e487b7160e01b81526032600452fd5b634e487b7160e01b600052603260045260246000fdfeb10e2d527612073b26eecdfd717e6a320cf44b4afac2b0732d9fcbe2b7fa0cf6a264697066735822122061ff1a13aed041bfa23394cc44d48966f9ae8be5bf078d1de33aa23665105e1b64736f6c634300081100332f8788117e7eff1d82e926ec794901d17c78024a50270940304540a733656f0d",
  "linkReferences": {},
  "deployedLinkReferences": {}
}