{
  "_format": "hh-sol-artifact-1",
  "contractName": "CashCredit",
  "sourceName": "contracts/CashCredit.sol",
  "abi": [
    {
      "inputs": [
        {
          "internalType": "address",
          "name": "revenueAcct_",
          "type": "address"
        },
        {
          "internalType": "address",
          "name": "slotRegistryContract_",
          "type": "address"
        },
        {
          "internalType": "address",
          "name": "poolContract_",
          "type": "address"
        },
        {
          "internalType": "address",
          "name": "underlyingContract_",
          "type": "address"
        },
        {
          "internalType": "address",
          "name": "mktAdmin_",
          "type": "address"
        },
        {
          "internalType": "uint256",
          "name": "defaultSlot_",
          "type": "uint256"
        },
        {
          "internalType": "string",
          "name": "name_",
          "type": "string"
        },
        {
          "internalType": "string",
          "name": "symbol_",
          "type": "string"
        },
        {
          "internalType": "string",
          "name": "baseuri_",
          "type": "string"
        },
        {
          "internalType": "string",
          "name": "contractDescription_",
          "type": "string"
        },
        {
          "internalType": "string",
          "name": "contractImage_",
          "type": "string"
        },
        {
          "internalType": "string",
          "name": "valueToken_",
          "type": "string"
        },
        {
          "internalType": "uint8",
          "name": "decimals_",
          "type": "uint8"
        }
      ],
      "stateMutability": "nonpayable",
      "type": "constructor"
    },
    {
      "anonymous": false,
      "inputs": [
        {
          "indexed": true,
          "internalType": "address",
          "name": "_owner",
          "type": "address"
        },
        {
          "indexed": true,
          "internalType": "address",
          "name": "_approved",
          "type": "address"
        },
        {
          "indexed": true,
          "internalType": "uint256",
          "name": "_tokenId",
          "type": "uint256"
        }
      ],
      "name": "Approval",
      "type": "event"
    },
    {
      "anonymous": false,
      "inputs": [
        {
          "indexed": true,
          "internalType": "address",
          "name": "_owner",
          "type": "address"
        },
        {
          "indexed": true,
          "internalType": "address",
          "name": "_operator",
          "type": "address"
        },
        {
          "indexed": false,
          "internalType": "bool",
          "name": "_approved",
          "type": "bool"
        }
      ],
      "name": "ApprovalForAll",
      "type": "event"
    },
    {
      "anonymous": false,
      "inputs": [
        {
          "indexed": true,
          "internalType": "uint256",
          "name": "_tokenId",
          "type": "uint256"
        },
        {
          "indexed": true,
          "internalType": "address",
          "name": "_operator",
          "type": "address"
        },
        {
          "indexed": false,
          "internalType": "uint256",
          "name": "_value",
          "type": "uint256"
        }
      ],
      "name": "ApprovalValue",
      "type": "event"
    },
    {
      "anonymous": false,
      "inputs": [
        {
          "indexed": false,
          "internalType": "uint256",
          "name": "offeringId",
          "type": "uint256"
        },
        {
          "indexed": false,
          "internalType": "uint256",
          "name": "value",
          "type": "uint256"
        }
      ],
      "name": "ListOffer",
      "type": "event"
    },
    {
      "anonymous": false,
      "inputs": [
        {
          "indexed": false,
          "internalType": "address",
          "name": "contractAddress",
          "type": "address"
        }
      ],
      "name": "MetadataDescriptor",
      "type": "event"
    },
    {
      "anonymous": false,
      "inputs": [
        {
          "indexed": false,
          "internalType": "uint256",
          "name": "tokenId",
          "type": "uint256"
        },
        {
          "indexed": false,
          "internalType": "uint256",
          "name": "slot",
          "type": "uint256"
        },
        {
          "indexed": false,
          "internalType": "uint256",
          "name": "value",
          "type": "uint256"
        }
      ],
      "name": "MintAssetToken",
      "type": "event"
    },
    {
      "anonymous": false,
      "inputs": [
        {
          "indexed": false,
          "internalType": "uint256",
          "name": "tokenId",
          "type": "uint256"
        },
        {
          "indexed": false,
          "internalType": "uint256",
          "name": "slot",
          "type": "uint256"
        },
        {
          "indexed": false,
          "internalType": "uint256",
          "name": "value",
          "type": "uint256"
        }
      ],
      "name": "MintCashToken",
      "type": "event"
    },
    {
      "anonymous": false,
      "inputs": [
        {
          "indexed": false,
          "internalType": "uint256",
          "name": "tokenId",
          "type": "uint256"
        },
        {
          "indexed": false,
          "internalType": "uint256",
          "name": "slot",
          "type": "uint256"
        },
        {
          "indexed": false,
          "internalType": "uint256",
          "name": "value",
          "type": "uint256"
        }
      ],
      "name": "MintNetworkServiceToken",
      "type": "event"
    },
    {
      "anonymous": false,
      "inputs": [
        {
          "indexed": false,
          "internalType": "uint256",
          "name": "tokenId",
          "type": "uint256"
        },
        {
          "indexed": false,
          "internalType": "uint256",
          "name": "slot",
          "type": "uint256"
        },
        {
          "indexed": false,
          "internalType": "uint256",
          "name": "value",
          "type": "uint256"
        }
      ],
      "name": "MintServiceToken",
      "type": "event"
    },
    {
      "anonymous": false,
      "inputs": [
        {
          "indexed": false,
          "internalType": "uint256",
          "name": "newTokenId",
          "type": "uint256"
        },
        {
          "indexed": false,
          "internalType": "uint256",
          "name": "slot",
          "type": "uint256"
        },
        {
          "indexed": false,
          "internalType": "uint256",
          "name": "value",
          "type": "uint256"
        }
      ],
      "name": "MintServiceTokenToAddress",
      "type": "event"
    },
    {
      "anonymous": false,
      "inputs": [
        {
          "indexed": true,
          "internalType": "address",
          "name": "redeemer",
          "type": "address"
        },
        {
          "indexed": false,
          "internalType": "uint256",
          "name": "creditAmount",
          "type": "uint256"
        },
        {
          "indexed": false,
          "internalType": "uint256",
          "name": "valueAmount",
          "type": "uint256"
        }
      ],
      "name": "RedeemForAccess",
      "type": "event"
    },
    {
      "anonymous": false,
      "inputs": [
        {
          "indexed": false,
          "internalType": "uint256",
          "name": "tokenId",
          "type": "uint256"
        },
        {
          "indexed": true,
          "internalType": "address",
          "name": "redeemer",
          "type": "address"
        },
        {
          "indexed": false,
          "internalType": "uint256",
          "name": "amount",
          "type": "uint256"
        }
      ],
      "name": "RedeemForAsset",
      "type": "event"
    },
    {
      "anonymous": false,
      "inputs": [
        {
          "indexed": true,
          "internalType": "bytes32",
          "name": "role",
          "type": "bytes32"
        },
        {
          "indexed": true,
          "internalType": "bytes32",
          "name": "previousAdminRole",
          "type": "bytes32"
        },
        {
          "indexed": true,
          "internalType": "bytes32",
          "name": "newAdminRole",
          "type": "bytes32"
        }
      ],
      "name": "RoleAdminChanged",
      "type": "event"
    },
    {
      "anonymous": false,
      "inputs": [
        {
          "indexed": true,
          "internalType": "bytes32",
          "name": "role",
          "type": "bytes32"
        },
        {
          "indexed": true,
          "internalType": "address",
          "name": "account",
          "type": "address"
        },
        {
          "indexed": true,
          "internalType": "address",
          "name": "sender",
          "type": "address"
        }
      ],
      "name": "RoleGranted",
      "type": "event"
    },
    {
      "anonymous": false,
      "inputs": [
        {
          "indexed": true,
          "internalType": "bytes32",
          "name": "role",
          "type": "bytes32"
        },
        {
          "indexed": true,
          "internalType": "address",
          "name": "account",
          "type": "address"
        },
        {
          "indexed": true,
          "internalType": "address",
          "name": "sender",
          "type": "address"
        }
      ],
      "name": "RoleRevoked",
      "type": "event"
    },
    {
      "anonymous": false,
      "inputs": [
        {
          "indexed": true,
          "internalType": "address",
          "name": "metadataDescriptor",
          "type": "address"
        }
      ],
      "name": "SetMetadataDescriptor",
      "type": "event"
    },
    {
      "anonymous": false,
      "inputs": [
        {
          "indexed": true,
          "internalType": "uint256",
          "name": "_tokenId",
          "type": "uint256"
        },
        {
          "indexed": true,
          "internalType": "uint256",
          "name": "_oldSlot",
          "type": "uint256"
        },
        {
          "indexed": true,
          "internalType": "uint256",
          "name": "_newSlot",
          "type": "uint256"
        }
      ],
      "name": "SlotChanged",
      "type": "event"
    },
    {
      "anonymous": false,
      "inputs": [
        {
          "indexed": true,
          "internalType": "address",
          "name": "_from",
          "type": "address"
        },
        {
          "indexed": true,
          "internalType": "address",
          "name": "_to",
          "type": "address"
        },
        {
          "indexed": true,
          "internalType": "uint256",
          "name": "_tokenId",
          "type": "uint256"
        }
      ],
      "name": "Transfer",
      "type": "event"
    },
    {
      "anonymous": false,
      "inputs": [
        {
          "indexed": true,
          "internalType": "uint256",
          "name": "_fromTokenId",
          "type": "uint256"
        },
        {
          "indexed": true,
          "internalType": "uint256",
          "name": "_toTokenId",
          "type": "uint256"
        },
        {
          "indexed": false,
          "internalType": "uint256",
          "name": "_value",
          "type": "uint256"
        }
      ],
      "name": "TransferValue",
      "type": "event"
    },
    {
      "anonymous": false,
      "inputs": [
        {
          "indexed": false,
          "internalType": "uint256",
          "name": "fromTokenId",
          "type": "uint256"
        },
        {
          "indexed": false,
          "internalType": "uint256",
          "name": "toTokenId",
          "type": "uint256"
        },
        {
          "indexed": false,
          "internalType": "uint256",
          "name": "value",
          "type": "uint256"
        }
      ],
      "name": "ValueTransfer",
      "type": "event"
    },
    {
      "inputs": [],
      "name": "DEFAULT_ADMIN_ROLE",
      "outputs": [
        {
          "internalType": "bytes32",
          "name": "",
          "type": "bytes32"
        }
      ],
      "stateMutability": "view",
      "type": "function"
    },
    {
      "inputs": [],
      "name": "MKT_ARBITRATOR_ROLE",
      "outputs": [
        {
          "internalType": "bytes32",
          "name": "",
          "type": "bytes32"
        }
      ],
      "stateMutability": "view",
      "type": "function"
    },
    {
      "inputs": [],
      "name": "SERVICE_ADMIN_ROLE",
      "outputs": [
        {
          "internalType": "bytes32",
          "name": "",
          "type": "bytes32"
        }
      ],
      "stateMutability": "view",
      "type": "function"
    },
    {
      "inputs": [
        {
          "internalType": "string",
          "name": "uri_",
          "type": "string"
        }
      ],
      "name": "_setBaseURI",
      "outputs": [],
      "stateMutability": "nonpayable",
      "type": "function"
    },
    {
      "inputs": [
        {
          "internalType": "uint256",
          "name": "fromTokenId_",
          "type": "uint256"
        },
        {
          "internalType": "uint256",
          "name": "toTokenId_",
          "type": "uint256"
        },
        {
          "internalType": "uint256",
          "name": "value_",
          "type": "uint256"
        }
      ],
      "name": "addValue",
      "outputs": [],
      "stateMutability": "nonpayable",
      "type": "function"
    },
    {
      "inputs": [
        {
          "internalType": "uint256",
          "name": "tokenId_",
          "type": "uint256"
        },
        {
          "internalType": "address",
          "name": "operator_",
          "type": "address"
        }
      ],
      "name": "allowance",
      "outputs": [
        {
          "internalType": "uint256",
          "name": "",
          "type": "uint256"
        }
      ],
      "stateMutability": "view",
      "type": "function"
    },
    {
      "inputs": [
        {
          "internalType": "address",
          "name": "to_",
          "type": "address"
        },
        {
          "internalType": "uint256",
          "name": "tokenId_",
          "type": "uint256"
        }
      ],
      "name": "approve",
      "outputs": [],
      "stateMutability": "payable",
      "type": "function"
    },
    {
      "inputs": [
        {
          "internalType": "uint256",
          "name": "tokenId_",
          "type": "uint256"
        },
        {
          "internalType": "address",
          "name": "to_",
          "type": "address"
        },
        {
          "internalType": "uint256",
          "name": "value_",
          "type": "uint256"
        }
      ],
      "name": "approve",
      "outputs": [],
      "stateMutability": "payable",
      "type": "function"
    },
    {
      "inputs": [
        {
          "internalType": "address",
          "name": "owner_",
          "type": "address"
        }
      ],
      "name": "balanceOf",
      "outputs": [
        {
          "internalType": "uint256",
          "name": "balance",
          "type": "uint256"
        }
      ],
      "stateMutability": "view",
      "type": "function"
    },
    {
      "inputs": [
        {
          "internalType": "uint256",
          "name": "tokenId_",
          "type": "uint256"
        }
      ],
      "name": "balanceOf",
      "outputs": [
        {
          "internalType": "uint256",
          "name": "",
          "type": "uint256"
        }
      ],
      "stateMutability": "view",
      "type": "function"
    },
    {
      "inputs": [],
      "name": "contractAdmin",
      "outputs": [
        {
          "internalType": "address",
          "name": "",
          "type": "address"
        }
      ],
      "stateMutability": "view",
      "type": "function"
    },
    {
      "inputs": [],
      "name": "contractURI",
      "outputs": [
        {
          "internalType": "string",
          "name": "",
          "type": "string"
        }
      ],
      "stateMutability": "view",
      "type": "function"
    },
    {
      "inputs": [],
      "name": "creditType",
      "outputs": [
        {
          "internalType": "string",
          "name": "",
          "type": "string"
        }
      ],
      "stateMutability": "view",
      "type": "function"
    },
    {
      "inputs": [],
      "name": "defaultSlot",
      "outputs": [
        {
          "internalType": "uint256",
          "name": "",
          "type": "uint256"
        }
      ],
      "stateMutability": "view",
      "type": "function"
    },
    {
      "inputs": [
        {
          "internalType": "uint256",
          "name": "tokenId_",
          "type": "uint256"
        }
      ],
      "name": "getApproved",
      "outputs": [
        {
          "internalType": "address",
          "name": "",
          "type": "address"
        }
      ],
      "stateMutability": "view",
      "type": "function"
    },
    {
      "inputs": [
        {
          "internalType": "bytes32",
          "name": "role",
          "type": "bytes32"
        }
      ],
      "name": "getRoleAdmin",
      "outputs": [
        {
          "internalType": "bytes32",
          "name": "",
          "type": "bytes32"
        }
      ],
      "stateMutability": "view",
      "type": "function"
    },
    {
      "inputs": [
        {
          "internalType": "uint256",
          "name": "tokenId",
          "type": "uint256"
        }
      ],
      "name": "getTokenDescription",
      "outputs": [
        {
          "internalType": "string",
          "name": "",
          "type": "string"
        }
      ],
      "stateMutability": "view",
      "type": "function"
    },
    {
      "inputs": [
        {
          "internalType": "uint256",
          "name": "tokenId",
          "type": "uint256"
        }
      ],
      "name": "getTokenImage",
      "outputs": [
        {
          "internalType": "string",
          "name": "",
          "type": "string"
        }
      ],
      "stateMutability": "view",
      "type": "function"
    },
    {
      "inputs": [
        {
          "internalType": "uint256",
          "name": "tokenId",
          "type": "uint256"
        }
      ],
      "name": "getTokenUUID",
      "outputs": [
        {
          "internalType": "string",
          "name": "",
          "type": "string"
        }
      ],
      "stateMutability": "view",
      "type": "function"
    },
    {
      "inputs": [
        {
          "internalType": "bytes32",
          "name": "role",
          "type": "bytes32"
        },
        {
          "internalType": "address",
          "name": "account",
          "type": "address"
        }
      ],
      "name": "grantRole",
      "outputs": [],
      "stateMutability": "nonpayable",
      "type": "function"
    },
    {
      "inputs": [
        {
          "internalType": "bytes32",
          "name": "role",
          "type": "bytes32"
        },
        {
          "internalType": "address",
          "name": "account",
          "type": "address"
        }
      ],
      "name": "hasRole",
      "outputs": [
        {
          "internalType": "bool",
          "name": "",
          "type": "bool"
        }
      ],
      "stateMutability": "view",
      "type": "function"
    },
    {
      "inputs": [
        {
          "internalType": "address",
          "name": "owner_",
          "type": "address"
        },
        {
          "internalType": "address",
          "name": "operator_",
          "type": "address"
        }
      ],
      "name": "isApprovedForAll",
      "outputs": [
        {
          "internalType": "bool",
          "name": "",
          "type": "bool"
        }
      ],
      "stateMutability": "view",
      "type": "function"
    },
    {
      "inputs": [
        {
          "internalType": "uint256",
          "name": "expiration_",
          "type": "uint256"
        },
        {
          "internalType": "uint256",
          "name": "tokenId_",
          "type": "uint256"
        },
        {
          "internalType": "uint256",
          "name": "price_",
          "type": "uint256"
        },
        {
          "internalType": "string",
          "name": "assetId_",
          "type": "string"
        },
        {
          "internalType": "string",
          "name": "side_",
          "type": "string"
        }
      ],
      "name": "listOffer",
      "outputs": [],
      "stateMutability": "nonpayable",
      "type": "function"
    },
    {
      "inputs": [],
      "name": "metadataDescriptor",
      "outputs": [
        {
          "internalType": "contract IERC3525MetadataDescriptor",
          "name": "",
          "type": "address"
        }
      ],
      "stateMutability": "view",
      "type": "function"
    },
    {
      "inputs": [
        {
          "internalType": "address",
          "name": "owner_",
          "type": "address"
        },
        {
          "internalType": "uint256",
          "name": "slot_",
          "type": "uint256"
        },
        {
          "internalType": "uint256",
          "name": "value_",
          "type": "uint256"
        },
        {
          "internalType": "string",
          "name": "uuid_",
          "type": "string"
        },
        {
          "internalType": "string",
          "name": "tokenDescription_",
          "type": "string"
        },
        {
          "internalType": "string",
          "name": "tokenImage_",
          "type": "string"
        },
        {
          "internalType": "string",
          "name": "property_",
          "type": "string"
        }
      ],
      "name": "mint",
      "outputs": [
        {
          "internalType": "uint256",
          "name": "",
          "type": "uint256"
        }
      ],
      "stateMutability": "nonpayable",
      "type": "function"
    },
    {
      "inputs": [
        {
          "internalType": "address",
          "name": "owner_",
          "type": "address"
        },
        {
          "internalType": "uint256",
          "name": "slot_",
          "type": "uint256"
        },
        {
          "internalType": "uint256",
          "name": "value_",
          "type": "uint256"
        },
        {
          "internalType": "uint256",
          "name": "etherizedDiscountBasisPts_",
          "type": "uint256"
        },
        {
          "internalType": "string",
          "name": "uuid_",
          "type": "string"
        },
        {
          "internalType": "string",
          "name": "tokenDescription_",
          "type": "string"
        },
        {
          "internalType": "string",
          "name": "tokenImage_",
          "type": "string"
        },
        {
          "internalType": "string",
          "name": "property_",
          "type": "string"
        }
      ],
      "name": "mintWithDiscount",
      "outputs": [
        {
          "internalType": "uint256",
          "name": "",
          "type": "uint256"
        }
      ],
      "stateMutability": "nonpayable",
      "type": "function"
    },
    {
      "inputs": [
        {
          "internalType": "address",
          "name": "owner_",
          "type": "address"
        },
        {
          "internalType": "uint256",
          "name": "expiration_",
          "type": "uint256"
        },
        {
          "internalType": "uint256",
          "name": "tokenId_",
          "type": "uint256"
        },
        {
          "internalType": "uint256",
          "name": "price_",
          "type": "uint256"
        },
        {
          "internalType": "string",
          "name": "assetId_",
          "type": "string"
        },
        {
          "internalType": "string",
          "name": "side_",
          "type": "string"
        }
      ],
      "name": "mktListOffer",
      "outputs": [],
      "stateMutability": "nonpayable",
      "type": "function"
    },
    {
      "inputs": [],
      "name": "name",
      "outputs": [
        {
          "internalType": "string",
          "name": "",
          "type": "string"
        }
      ],
      "stateMutability": "view",
      "type": "function"
    },
    {
      "inputs": [
        {
          "internalType": "address",
          "name": "owner_",
          "type": "address"
        },
        {
          "internalType": "uint256",
          "name": "slot_",
          "type": "uint256"
        },
        {
          "internalType": "uint256",
          "name": "value_",
          "type": "uint256"
        },
        {
          "internalType": "uint256",
          "name": "discountBasisPts_",
          "type": "uint256"
        },
        {
          "internalType": "string",
          "name": "uuid_",
          "type": "string"
        },
        {
          "internalType": "string",
          "name": "tokenDescription_",
          "type": "string"
        },
        {
          "internalType": "string",
          "name": "tokenImage_",
          "type": "string"
        },
        {
          "internalType": "string",
          "name": "property_",
          "type": "string"
        }
      ],
      "name": "networkMintWithDiscount",
      "outputs": [
        {
          "internalType": "uint256",
          "name": "",
          "type": "uint256"
        }
      ],
      "stateMutability": "nonpayable",
      "type": "function"
    },
    {
      "inputs": [
        {
          "internalType": "address",
          "name": "owner_",
          "type": "address"
        },
        {
          "internalType": "uint256",
          "name": "slot_",
          "type": "uint256"
        },
        {
          "internalType": "uint256",
          "name": "value_",
          "type": "uint256"
        },
        {
          "internalType": "uint256",
          "name": "valueRate_",
          "type": "uint256"
        },
        {
          "internalType": "string",
          "name": "uuid_",
          "type": "string"
        },
        {
          "internalType": "string",
          "name": "tokenDescription_",
          "type": "string"
        },
        {
          "internalType": "string",
          "name": "tokenImage_",
          "type": "string"
        },
        {
          "internalType": "string",
          "name": "property_",
          "type": "string"
        }
      ],
      "name": "networkMintWithValueRate",
      "outputs": [
        {
          "internalType": "uint256",
          "name": "",
          "type": "uint256"
        }
      ],
      "stateMutability": "nonpayable",
      "type": "function"
    },
    {
      "inputs": [
        {
          "internalType": "uint256",
          "name": "tokenId_",
          "type": "uint256"
        }
      ],
      "name": "ownerOf",
      "outputs": [
        {
          "internalType": "address",
          "name": "owner_",
          "type": "address"
        }
      ],
      "stateMutability": "view",
      "type": "function"
    },
    {
      "inputs": [
        {
          "internalType": "address",
          "name": "offeringContract_",
          "type": "address"
        },
        {
          "internalType": "uint256",
          "name": "creditTokenId_",
          "type": "uint256"
        },
        {
          "internalType": "uint256",
          "name": "slotId_",
          "type": "uint256"
        },
        {
          "internalType": "uint256",
          "name": "value_",
          "type": "uint256"
        },
        {
          "internalType": "uint256",
          "name": "accesssEndTime_",
          "type": "uint256"
        },
        {
          "internalType": "string",
          "name": "assetId_",
          "type": "string"
        }
      ],
      "name": "redeemForAccess",
      "outputs": [
        {
          "internalType": "bool",
          "name": "",
          "type": "bool"
        }
      ],
      "stateMutability": "nonpayable",
      "type": "function"
    },
    {
      "inputs": [
        {
          "internalType": "address",
          "name": "offeringContract_",
          "type": "address"
        },
        {
          "internalType": "uint256",
          "name": "creditTokenId_",
          "type": "uint256"
        },
        {
          "internalType": "uint256",
          "name": "slotId_",
          "type": "uint256"
        },
        {
          "internalType": "uint256",
          "name": "value_",
          "type": "uint256"
        },
        {
          "internalType": "string",
          "name": "assetId_",
          "type": "string"
        }
      ],
      "name": "redeemForAsset",
      "outputs": [
        {
          "internalType": "uint256",
          "name": "",
          "type": "uint256"
        }
      ],
      "stateMutability": "nonpayable",
      "type": "function"
    },
    {
      "inputs": [
        {
          "internalType": "uint256",
          "name": "slotId_",
          "type": "uint256"
        }
      ],
      "name": "registerOnSlot",
      "outputs": [],
      "stateMutability": "nonpayable",
      "type": "function"
    },
    {
      "inputs": [
        {
          "internalType": "bytes32",
          "name": "role",
          "type": "bytes32"
        },
        {
          "internalType": "address",
          "name": "account",
          "type": "address"
        }
      ],
      "name": "renounceRole",
      "outputs": [],
      "stateMutability": "nonpayable",
      "type": "function"
    },
    {
      "inputs": [
        {
          "internalType": "bytes32",
          "name": "role",
          "type": "bytes32"
        },
        {
          "internalType": "address",
          "name": "account",
          "type": "address"
        }
      ],
      "name": "revokeRole",
      "outputs": [],
      "stateMutability": "nonpayable",
      "type": "function"
    },
    {
      "inputs": [
        {
          "internalType": "address",
          "name": "from_",
          "type": "address"
        },
        {
          "internalType": "address",
          "name": "to_",
          "type": "address"
        },
        {
          "internalType": "uint256",
          "name": "tokenId_",
          "type": "uint256"
        }
      ],
      "name": "safeTransferFrom",
      "outputs": [],
      "stateMutability": "payable",
      "type": "function"
    },
    {
      "inputs": [
        {
          "internalType": "address",
          "name": "from_",
          "type": "address"
        },
        {
          "internalType": "address",
          "name": "to_",
          "type": "address"
        },
        {
          "internalType": "uint256",
          "name": "tokenId_",
          "type": "uint256"
        },
        {
          "internalType": "bytes",
          "name": "data_",
          "type": "bytes"
        }
      ],
      "name": "safeTransferFrom",
      "outputs": [],
      "stateMutability": "payable",
      "type": "function"
    },
    {
      "inputs": [
        {
          "internalType": "address",
          "name": "operator_",
          "type": "address"
        },
        {
          "internalType": "bool",
          "name": "approved_",
          "type": "bool"
        }
      ],
      "name": "setApprovalForAll",
      "outputs": [],
      "stateMutability": "nonpayable",
      "type": "function"
    },
    {
      "inputs": [
        {
          "internalType": "uint256",
          "name": "tokenId_",
          "type": "uint256"
        }
      ],
      "name": "slotOf",
      "outputs": [
        {
          "internalType": "uint256",
          "name": "",
          "type": "uint256"
        }
      ],
      "stateMutability": "view",
      "type": "function"
    },
    {
      "inputs": [
        {
          "internalType": "uint256",
          "name": "slot_",
          "type": "uint256"
        }
      ],
      "name": "slotURI",
      "outputs": [
        {
          "internalType": "string",
          "name": "",
          "type": "string"
        }
      ],
      "stateMutability": "view",
      "type": "function"
    },
    {
      "inputs": [
        {
          "internalType": "bytes4",
          "name": "interfaceId",
          "type": "bytes4"
        }
      ],
      "name": "supportsInterface",
      "outputs": [
        {
          "internalType": "bool",
          "name": "",
          "type": "bool"
        }
      ],
      "stateMutability": "view",
      "type": "function"
    },
    {
      "inputs": [],
      "name": "symbol",
      "outputs": [
        {
          "internalType": "string",
          "name": "",
          "type": "string"
        }
      ],
      "stateMutability": "view",
      "type": "function"
    },
    {
      "inputs": [
        {
          "internalType": "uint256",
          "name": "index_",
          "type": "uint256"
        }
      ],
      "name": "tokenByIndex",
      "outputs": [
        {
          "internalType": "uint256",
          "name": "",
          "type": "uint256"
        }
      ],
      "stateMutability": "view",
      "type": "function"
    },
    {
      "inputs": [
        {
          "internalType": "uint256",
          "name": "tokenId_",
          "type": "uint256"
        }
      ],
      "name": "tokenDiscount",
      "outputs": [
        {
          "internalType": "uint256",
          "name": "",
          "type": "uint256"
        }
      ],
      "stateMutability": "view",
      "type": "function"
    },
    {
      "inputs": [
        {
          "internalType": "address",
          "name": "owner_",
          "type": "address"
        },
        {
          "internalType": "uint256",
          "name": "index_",
          "type": "uint256"
        }
      ],
      "name": "tokenOfOwnerByIndex",
      "outputs": [
        {
          "internalType": "uint256",
          "name": "",
          "type": "uint256"
        }
      ],
      "stateMutability": "view",
      "type": "function"
    },
    {
      "inputs": [
        {
          "internalType": "uint256",
          "name": "tokenId_",
          "type": "uint256"
        }
      ],
      "name": "tokenURI",
      "outputs": [
        {
          "internalType": "string",
          "name": "",
          "type": "string"
        }
      ],
      "stateMutability": "view",
      "type": "function"
    },
    {
      "inputs": [],
      "name": "totalBalance",
      "outputs": [
        {
          "internalType": "uint256",
          "name": "",
          "type": "uint256"
        }
      ],
      "stateMutability": "view",
      "type": "function"
    },
    {
      "inputs": [],
      "name": "totalSupply",
      "outputs": [
        {
          "internalType": "uint256",
          "name": "",
          "type": "uint256"
        }
      ],
      "stateMutability": "view",
      "type": "function"
    },
    {
      "inputs": [
        {
          "internalType": "uint256",
          "name": "fromTokenId_",
          "type": "uint256"
        },
        {
          "internalType": "address",
          "name": "to_",
          "type": "address"
        },
        {
          "internalType": "uint256",
          "name": "value_",
          "type": "uint256"
        }
      ],
      "name": "transferFrom",
      "outputs": [
        {
          "internalType": "uint256",
          "name": "",
          "type": "uint256"
        }
      ],
      "stateMutability": "payable",
      "type": "function"
    },
    {
      "inputs": [
        {
          "internalType": "address",
          "name": "fromContract_",
          "type": "address"
        },
        {
          "internalType": "uint256",
          "name": "fromTokenId_",
          "type": "uint256"
        },
        {
          "internalType": "address",
          "name": "toContract_",
          "type": "address"
        },
        {
          "internalType": "uint256",
          "name": "toTokenId_",
          "type": "uint256"
        },
        {
          "internalType": "uint256",
          "name": "value_",
          "type": "uint256"
        }
      ],
      "name": "transferFrom",
      "outputs": [],
      "stateMutability": "payable",
      "type": "function"
    },
    {
      "inputs": [
        {
          "internalType": "address",
          "name": "from_",
          "type": "address"
        },
        {
          "internalType": "address",
          "name": "to_",
          "type": "address"
        },
        {
          "internalType": "uint256",
          "name": "tokenId_",
          "type": "uint256"
        }
      ],
      "name": "transferFrom",
      "outputs": [],
      "stateMutability": "payable",
      "type": "function"
    },
    {
      "inputs": [
        {
          "internalType": "uint256",
          "name": "fromTokenId_",
          "type": "uint256"
        },
        {
          "internalType": "uint256",
          "name": "toTokenId_",
          "type": "uint256"
        },
        {
          "internalType": "uint256",
          "name": "value_",
          "type": "uint256"
        }
      ],
      "name": "transferFrom",
      "outputs": [],
      "stateMutability": "payable",
      "type": "function"
    },
    {
      "inputs": [
        {
          "internalType": "string",
          "name": "assetId_",
          "type": "string"
        },
        {
          "internalType": "string",
          "name": "side_",
          "type": "string"
        }
      ],
      "name": "validOffers",
      "outputs": [
        {
          "components": [
            {
              "internalType": "uint256",
              "name": "offerId",
              "type": "uint256"
            },
            {
              "internalType": "address",
              "name": "owner",
              "type": "address"
            },
            {
              "internalType": "string",
              "name": "side",
              "type": "string"
            },
            {
              "internalType": "uint256",
              "name": "price",
              "type": "uint256"
            },
            {
              "internalType": "uint256",
              "name": "tokenId",
              "type": "uint256"
            },
            {
              "internalType": "uint256",
              "name": "expiration",
              "type": "uint256"
            }
          ],
          "internalType": "struct Service.Offer[]",
          "name": "",
          "type": "tuple[]"
        }
      ],
      "stateMutability": "view",
      "type": "function"
    },
    {
      "inputs": [],
      "name": "valueDecimals",
      "outputs": [
        {
          "internalType": "uint8",
          "name": "",
          "type": "uint8"
        }
      ],
      "stateMutability": "view",
      "type": "function"
    }
  ],
  "bytecode": "0x6080806040523462000a9d5760009062008821803803809162000023828562000ad4565b833981016101a08282031262000a99576200003e8262000af8565b916200004d6020820162000af8565b926200005c6040830162000af8565b946200006b6060840162000af8565b946200007a6080850162000af8565b9060a08501519560c086015160018060401b03811162000a955781620000a291880162000b32565b60e08701519093906001600160401b03811162000a915782620000c791890162000b32565b6101008801519098906001600160401b038111620007695783620000ed918a0162000b32565b6101208901519095906001600160401b03811162000a8d578462000113918b0162000b32565b6101408a01519093906001600160401b03811162000a85578562000139918c0162000b32565b6101608b01519095906001600160401b03811162000a89576101809162000162918d0162000b32565b9a01519a60ff8c168c0362000a855760405192620001808462000aa2565b60048452630c6c2e6d60e31b602085015260016003558051906001600160401b03821162000a71578a54600181811c9116801562000a66575b602082101462000a52579081601f849311620009fe575b50602090601f831160011462000990578c9262000984575b50508160011b916000199060031b1c19161789555b8051906001600160401b0382116200097057600154600181811c9116801562000965575b602082101462000951579081601f849311620008f1575b50602090601f831160011462000875578b9262000869575b50508160011b916000199060031b1c1916176001555b60ff8b1660ff19600254161760025587805260096020526040882060018060a01b038216895260205260ff6040892054161562000822575b600b80546001600160a01b03199081166001600160a01b0393841617909155600c849055600a805482168b8416179055600d80548216888416179055600e8054909116918e169190911790556040518151602080830192916200031b919083906200030d818789860162000b0d565b810103808452018262000ad4565b51902060405160208101906374696d6560e01b8252600481526200033f8162000aa2565b519020036200076d5750855b600481101562000755576010805460ff191660ff83161790556001600160a01b0385163b156200076957604051916394b39b0960e01b835260018060a01b03891660048401526024830152600460ff82161015620007555760ff1660448201528581606481836001600160a01b0389165af180156200074a5762000719575b50604051936001600160401b036120c58601908111908611176200070557916200042b6200044292620004148796956120c56200671c893960806120c58901818152019062000b8d565b906120c58701820360206120c58901015262000b8d565b906120c58501820360406120c58701015262000b8d565b6001600160a01b039091166120c5830160600152039082f0908115620006f95750600880546001600160a01b0319166001600160a01b03928316179055600b541660008181527f3d62299d961dc9bf64f24e2e5b7d5a2b17ee5fc8163a3ddca90e52de8744675560205260409020547f1cd6d520d98babae1045eb69c31ecab800996aa332094cb55c0ac10362e9b0c9919060ff1615620006b6575b50506001600160a01b03811660009081527ff0bca53ec534e170e0b4115320ce2b072ee8e3338cc6b0c7b13351839d628e0a60205260409020547f9a95e87c5af084bf5db8491c3a6515da9dd6da39b24b0eb0af08d7b9cd808d919060ff161562000666575b50507f9ac4f8025631594629895b778dc5ee88d01673a254a2291f6b6b174ad25230ca602060018060a01b0360085416604051908152a16298968060195560208151910120600460206040516200059b8162000aa2565b82815201635553444360e01b81522014600014620005fb57601c80546001600160a01b039384166001600160a01b03199182161790915560ff9190911660175560168054939092169216919091179055604051615b67908162000bb58239f35b60405162461bcd60e51b815260206004820152603660248201527f436173684372656469743a204f6e6c79205553444320756e6465726c79696e6760448201527f20616363657074656420617420746869732074696d65000000000000000000006064820152608490fd5b60008181526009602090815260408083206001600160a01b0395909516808452949091528120805460ff1916600117905533929190600080516020620087e18339815191529080a4388062000544565b8160005260096020526040600020816000526020526040600020600160ff198254161790553391600080516020620087e1833981519152600080a43880620004de565b604051903d90823e3d90fd5b634e487b7160e01b86526041600452602486fd5b9094906001600160401b03811162000736576040529338620003ca565b634e487b7160e01b82526041600452602482fd5b6040513d88823e3d90fd5b634e487b7160e01b87526021600452602487fd5b8680fd5b60405160208101906200078d60208285516200030d8187858a0162000b0d565b5190206040516020810190630c6c2e6d60e31b825260048152620007b18162000aa2565b51902003620007c3575060016200034b565b604051620007e3602082816200030d818301968781519384920162000b0d565b519020604051602081019065636f756e747360d01b825260068152620008098162000aa2565b519020036200081a5760026200034b565b60036200034b565b878052600960209081526040808a206001600160a01b038416808c5292528920805460ff19166001179055339089600080516020620087e18339815191528180a46200029e565b01519050388062000250565b60018c528b93506000805160206200880183398151915291905b601f1984168510620008d5576001945083601f19811610620008bb575b505050811b0160015562000266565b015160001960f88460031b161c19169055388080620008ac565b818101518355602094850194600190930192909101906200088f565b60018c5290915060008051602062008801833981519152601f840160051c81016020851062000949575b90849392915b8d601f840160051c830182106200093b5750505062000238565b815585945060010162000921565b50806200091b565b634e487b7160e01b8b52602260045260248bfd5b90607f169062000221565b634e487b7160e01b8a52604160045260248afd5b015190503880620001e8565b92508b805260208c20908c935b601f1984168510620009e2576001945083601f19811610620009c8575b505050811b018955620001fd565b015160001960f88460031b161c19169055388080620009ba565b818101518355602094850194600190930192909101906200099d565b9091508b805260208c20601f840160051c81016020851062000a4a575b84939291908e5b601f840160051c8301821062000a3b57505050620001d0565b81558594506001018e62000a22565b508062000a1b565b634e487b7160e01b8c52602260045260248cfd5b90607f1690620001b9565b634e487b7160e01b8b52604160045260248bfd5b8880fd5b8980fd5b8780fd5b8580fd5b8480fd5b8280fd5b600080fd5b604081019081106001600160401b0382111762000abe57604052565b634e487b7160e01b600052604160045260246000fd5b601f909101601f19168101906001600160401b0382119082101762000abe57604052565b51906001600160a01b038216820362000a9d57565b60005b83811062000b215750506000910152565b818101518382015260200162000b10565b81601f8201121562000a9d5780516001600160401b03811162000abe576040519262000b69601f8301601f19166020018562000ad4565b8184526020828401011162000a9d5762000b8a916020808501910162000b0d565b90565b9060209162000ba88151809281855285808601910162000b0d565b601f01601f191601019056fe608080604052600436101561001357600080fd5b600090813560e01c90816301ffc9a714612c1857508063020dbf2514612a3b57806303e20953146128ae57806306fdde031461280b578063079136861461249f578063081812fc14612480578063095ea7b31461234557806309c3dd87146120715780630f485c021461205d5780631375d84314611ff75780631429fb5714611d2d57806318160ddd14611d0f5780631d856ea714611cd25780631f5d5f0014611b8357806323b872dd14611b5e5780632425eeaf14611807578063248a9ca3146117da578063263f3e7e146117bb5780632f2ff15d146117085780632f745c591461165f578063310ed7f01461164957806331b5b907146115bf57806336568abe1461152c57806339ace21f1461150d5780633e7e8669146114ec5780633f5d7067146112c357806341815ee4146111cb57806342842e0e146111a85780634f6ccce714611123578063505a3853146111055780636352211e146110d457806370a08231146110b057806371f0442e1461104a5780637795524514611021578063840f711314610ff85780638cb0a51114610eb657806391d1485414610e6a57806395d89b4114610d8b5780639cc7f70814610d6c578063a217fddf14610d50578063a22cb46514610c7b578063a7c9f2d614610c40578063a84565e614610bee578063aa20ce551461093f578063ad7a672f14610921578063b3154c08146108bb578063b88d4fde1461085c578063be950a6214610716578063c87b56dd14610681578063cf2d6fe614610412578063d09445c2146103d7578063d547741f14610396578063e345e0bc14610367578063e8a3d485146102d75763e985e9c51461027e57600080fd5b346102d45760403660031901126102d457610297612c6d565b600260406102a3612c83565b9360018060a01b038094168152600760205220019116600052602052602060ff604060002054166040519015158152f35b80fd5b50346102d457806003193601126102d457600854604051631c97e82760e21b8152908290829060049082906001600160a01b03165afa90811561035c57826103359392610339575b5050604051918291602083526020830190612e45565b0390f35b61035592503d8091833e61034d8183612cfd565b81019061342d565b388061031f565b6040513d84823e3d90fd5b50346102d45760403660031901126102d457602061038e610386612c83565b600435615a66565b604051908152f35b50346102d45760403660031901126102d4576103d46004356103b6612c83565b9080845260096020526103cf6001604086200154612ee3565b613218565b80f35b50346102d457806003193601126102d45760206040517f9a95e87c5af084bf5db8491c3a6515da9dd6da39b24b0eb0af08d7b9cd808d918152f35b50346102d45760c03660031901126102d45761042c612c6d565b6064356001600160401b0360843581811161067d5761044f903690600401612d70565b9060a43581811161067957610468903690600401612d70565b93600f549461047686613b3d565b600f5583516020809501209283885260139283865260408920888a5286526001908160408b20019060018060a01b03166001600160601b0360a01b82541617905584895283865260408920888a5286528760408a205584895283865260408920888a528652600260408a2001928051928311610665576104f684546132eb565b601f811161062c575b5086908a601f85116001146105b2579360409997959381938293600080516020615b128339815191529d9b9997946105a7575b50501b916000199060031b1c19161790555b81885280835285882085895283526024356005878a20015581885280835285882085895283526044356004878a20015581885282528487208488528252826003868920015586526014815261059b83858820613aa6565b8351928352820152a180f35b015192503880610532565b50848b52878b209293929190601f1984168c5b818110610617575091600080516020615b128339815191529b99979593918560409c9a989694106105fe575b505050811b019055610544565b015160001960f88460031b161c191690553880806105f1565b82840151855593860193928a01928a016105c5565b61065590858c52888c20601f860160051c8101918a871061065b575b601f0160051c0190613b4c565b386104ff565b9091508190610648565b634e487b7160e01b8a52604160045260248afd5b8580fd5b8480fd5b50346102d45760203660031901126102d45760043561069f816157ff565b8015610702575b6106af90613662565b6008546040516344a5a61760e11b815260048101929092528290829060249082906001600160a01b03165afa90811561035c57826103359392610339575050604051918291602083526020830190612e45565b506106af61070f8261582d565b90506106a6565b50346102d45760203660031901126102d4577f9a95e87c5af084bf5db8491c3a6515da9dd6da39b24b0eb0af08d7b9cd808d9181526009602052604081203360005260205260ff60406000205416156107f15760018060a01b039081600d541691600a541660ff60105416833b156107ed57604051916394b39b0960e01b83526004830152600435602483015260048110156107d95781606481858097819560448401525af1801561035c576107c95750f35b6107d290612c99565b6102d45780f35b634e487b7160e01b83526021600452602483fd5b8280fd5b60405162461bcd60e51b815260206004820152603760248201527f53656e646572206e6f7420617574686f72697a656420746f207265676973746560448201527f7220636f6e747261637420746f207468697320736c6f740000000000000000006064820152608490fd5b5060803660031901126102d457610871612c6d565b610879612c83565b606435916001600160401b0383116108b757366023840112156108b7576108ad6103d4933690602481600401359101612d39565b916044359161358b565b8380fd5b50346102d45760203660031901126102d457600854604051631662a98160e31b81526004803590820152908290829060249082906001600160a01b03165afa90811561035c57826103359392610339575050604051918291602083526020830190612e45565b50346102d457806003193601126102d4576020601854604051908152f35b50346102d45760208161095136612d8e565b96600399929591969994939454996109688b613b3d565b600355600e54604051630151086360e31b81526001600160a01b039384166004820152602481019290925260448201939093526064810194909452839160849183918b91165af1908115610be3578691610ba9575b50868652601160205260408620556008546001600160a01b0316803b1561067957610a108692918392604051948580948193632108947560e21b83528d6004840152604060248401526044830190612e45565b03925af1908115610b9e578591610b8a575b50506008546001600160a01b0316803b1561067d57610a69859291839260405194858094819363246a908b60e01b83528c6004840152604060248401526044830190612e45565b03925af1908115610b7f578491610b6b575b50506008546001600160a01b0316803b156108b757610ac28492918392604051948580948193630190503b60e61b83528b6004840152604060248401526044830190612e45565b03925af1908115610b4c578391610b57575b50506008546001600160a01b031690813b156107ed578291610b1a91604051948580948193637e468a5160e01b8352896004840152604060248401526044830190612e45565b03925af18015610b4c57610b34575b602082604051908152f35b610b3e8391612c99565b610b485781610b29565b5080fd5b6040513d85823e3d90fd5b610b6090612c99565b610b48578138610ad4565b610b7490612c99565b6107ed578238610a7b565b6040513d86823e3d90fd5b610b9390612c99565b6108b7578338610a22565b6040513d87823e3d90fd5b9550506020853d602011610bdb575b81610bc560209383612cfd565b81010312610bd657869451386109bd565b600080fd5b3d9150610bb8565b6040513d88823e3d90fd5b50346102d45760a03660031901126102d457610c08612c6d565b90608435906001600160401b0382116102d457602061038e84610c2e3660048701612d70565b90606435906044359060243590613f01565b50346102d457806003193601126102d45760206040517f1cd6d520d98babae1045eb69c31ecab800996aa332094cb55c0ac10362e9b0c98152f35b50346102d45760403660031901126102d457610c95612c6d565b602435908115158092036107ed576001600160a01b031690338214610d0b5733835260076020526002604084200182600052602052604060002060ff1981541660ff83161790556040519081527f17307eab39ab6107e8899845ad3d59bd9653f200f220920489ca2b5937696c3160203392a380f35b60405162461bcd60e51b815260206004820152601a60248201527f455243333532353a20617070726f766520746f2063616c6c65720000000000006044820152606490fd5b50346102d457806003193601126102d457602090604051908152f35b50346102d45760203660031901126102d457602061038e6004356158e6565b50346102d457806003193601126102d45760405160006001805490610daf826132eb565b80855291818116908115610e435750600114610dea575b61033584610dd681860382612cfd565b604051918291602083526020830190612e45565b600081815292507fb10e2d527612073b26eecdfd717e6a320cf44b4afac2b0732d9fcbe2b7fa0cf65b828410610e2b575050508101602001610dd682610dc6565b80546020858701810191909152909301928101610e13565b60ff191660208087019190915292151560051b85019092019250610dd69150839050610dc6565b50346102d45760403660031901126102d4576040610e86612c83565b9160043581526009602052209060018060a01b0316600052602052602060ff604060002054166040519015158152f35b50610ec036612e6a565b90610eca836158a3565b83610ed4846157ff565b80610fe5575b15610f775750610f006001600160a01b0380610ef5866136ae565b16908316141561360b565b610f0a833361372f565b15610f18576103d492615265565b60405162461bcd60e51b815260206004820152603160248201527f455243333532353a20617070726f76652063616c6c6572206973206e6f74206f6044820152701ddb995c881b9bdc88185c1c1c9bdd9959607a1b6064820152608490fd5b600e54938152601160205260408120549093919290916001600160a01b0316803b1561067d57604051638cb0a51160e01b815260048101939093526001600160a01b0393909316602483015260448201529082908290606490829084905af1801561035c576107c957505080f35b50610fef84613406565b600c5414610eda565b50346102d457806003193601126102d4576008546040516001600160a01b039091168152602090f35b50346102d457806003193601126102d457600a546040516001600160a01b039091168152602090f35b50346102d45760203660031901126102d4576008546040516338f8221760e11b81526004803590820152908290829060249082906001600160a01b03165afa90811561035c57826103359392610339575050604051918291602083526020830190612e45565b50346102d45760203660031901126102d457602061038e6110cf612c6d565b6134ab565b50346102d45760203660031901126102d45760206110f3600435615982565b6040516001600160a01b039091168152f35b50346102d457806003193601126102d4576020600c54604051908152f35b50346102d45760203660031901126102d4576004356005548110156111575761114d6020916133cb565b5054604051908152f35b60405162461bcd60e51b815260206004820152602360248201527f455243333532353a20676c6f62616c20696e646578206f7574206f6620626f756044820152626e647360e81b6064820152608490fd5b506103d46111b536612eae565b90604051926111c384612ce2565b85845261358b565b50346102d457806003193601126102d45760ff6010541660048110156112af576003810361122d57505061033560405161120481612cc7565b60088152677072696f7269747960c01b6020820152604051918291602083526020830190612e45565b8061125957505061033560405161124381612cc7565b600481526374696d6560e01b6020820152610dd6565b60021415905061128a5761033560405161127281612cc7565b6006815265636f756e747360d01b6020820152610dd6565b61033560405161129981612cc7565b60048152630c6c2e6d60e31b6020820152610dd6565b634e487b7160e01b82526021600452602482fd5b50346102d45760a03660031901126102d4576001600160401b036044356064358281116108b7576112f8903690600401612d70565b60843583811161067d57611310903690600401612d70565b600f549361131d85613b3d565b600f5582516020809401209182875260139182855260408820878952855260018060408a2001336001600160601b0360a01b82541617905584895283865260408920888a5286528760408a205584895283865260408920888a528652600260408a20019280519283116106655761139484546132eb565b601f81116114be575b5086908a601f8511600114611444579360409997959381938293600080516020615b128339815191529d9b999794611439575b50501b916000199060031b1c19161790555b81885280835285882085895283526004356005878a20015581885280835285882085895283526024356004878a20015581885282528487208488528252826003868920015586526014815261059b83858820613aa6565b0151925038806113d0565b50848b52878b209293929190601f1984168c5b8181106114a9575091600080516020615b128339815191529b99979593918560409c9a98969410611490575b505050811b0190556113e2565b015160001960f88460031b161c19169055388080611483565b82840151855593860193928a01928a01611457565b6114e690858c52888c20601f860160051c8101918a871061065b57601f0160051c0190613b4c565b3861139d565b50346102d457806003193601126102d457602060ff60025416604051908152f35b50346102d45760203660031901126102d457602061038e600435613d34565b50346102d45760403660031901126102d457611546612c83565b336001600160a01b03821603611562576103d490600435613218565b60405162461bcd60e51b815260206004820152602f60248201527f416363657373436f6e74726f6c3a2063616e206f6e6c792072656e6f756e636560448201526e103937b632b9903337b91039b2b63360891b6064820152608490fd5b50346102d45760203660031901126102d457806004356001600160401b038111611646576115f1903690600401612d70565b6008546001600160a01b0316803b15611642576040516355f804b360e01b8152602060048201529183918391829084908290611631906024830190612e45565b03925af1801561035c576107c95750f35b5050fd5b50fd5b506103d461165636612e94565b91309030614347565b50346102d45760403660031901126102d457611679612c6d565b90602435611686836134ab565b8110156116b85760406116aa9260209460018060a01b031681526007855220613717565b90546040519160031b1c8152f35b60405162461bcd60e51b815260206004820152602260248201527f455243333532353a206f776e657220696e646578206f7574206f6620626f756e604482015261647360f01b6064820152608490fd5b50346102d45760403660031901126102d457600435611725612c83565b818352600960205261173d6001604085200154612ee3565b8183526009602052604083209060018060a01b0316908160005260205260ff604060002054161561176c578280f35b818352600960205260408320816000526020526040600020600160ff1982541617905533917f2f8788117e7eff1d82e926ec794901d17c78024a50270940304540a733656f0d8480a438808280f35b50346102d45760203660031901126102d457602061038e600435613406565b50346102d45760203660031901126102d45760016040602092600435815260098452200154604051908152f35b50346102d45760403660031901126102d4576001600160401b036004358181116107ed57611839903690600401612d70565b906024359081116107ed57611852903690600401612d70565b9080516020809201209182845260148252604084206040519081848254918281520191875284872090875b818110611b4a5750505081611893910382612cfd565b849282810191845b81518110156119595786885260138352604088206118b98284615a52565b518952835260a0604089206040516118d081612cac565b81548152600180841b036001830154168682015260056118f260028401613325565b928360408401526003810154606084015260048101546080840152015492839101528481519101208651862014908161194f575b5061193a575b61193590613b3d565b61189b565b9461194761193591613b3d565b95905061192c565b9050421038611926565b509293919361196783614d2f565b926119756040519485612cfd565b808452611984601f1991614d2f565b0182885b828110611b10575050508693875b8151811015611a6f5787895260138452604089206119b48284615a52565b518a52845260408920604051906119ca82612cac565b8054825260018101546001600160a01b03168683015260056119ee60028301613325565b9182604085015260038101546060850152600481015460808501520154908160a084015286815191012085518a20149081611a65575b50611a39575b50611a3490613b3d565b611996565b9590611a5e82611a4c611a349491613b3d565b98611a57828a615a52565b5287615a52565b5090611a2a565b9050421038611a24565b83898660405191838301848452825180915260408401948060408360051b870101940192955b828710611aa25785850386f35b909192938280600192603f1989820301855287519081518152848060a01b03838301511683820152611ae2604083015160c0806040850152830190612e45565b91606080820151908301526080808201519083015260a0809101519101529601920196019592919092611a95565b604051611b1c81612cac565b8a81528a838201528a60608060408401528201528a60808201528a60a0820152828288010152018390611988565b82548452928601926001928301920161187d565b506103d4611b6b36612eae565b91611b7e611b79843361372f565b613524565b6137a0565b50346102d457611b9236612e94565b604051926339ace21f60e01b845260048401526020928381602481335afa8015610b9e578590611ca3575b611bd39150611bcd601754613d0e565b9061348b565b612710908103818111611c8f5792611c1083611c5093611bf588968a9861328e565b0492611c00816136ae565b50611c0a81613406565b5061430f565b601c546040516323b872dd60e01b81523360048201523060248201526044810192909252909384926001600160a01b039092169183919082906064820190565b03925af18015610b4c57611c62578280f35b81611c8192903d10611c88575b611c798183612cfd565b810190613d1c565b5038808280f35b503d611c6f565b634e487b7160e01b86526011600452602486fd5b508381813d8311611ccb575b611cb98183612cfd565b81010312610bd657611bd39051611bbd565b503d611caf565b5060a03660031901126102d457611ce7612c6d565b6044356001600160a01b0381168103610bd6576103d491608435916064359160243590614347565b50346102d457806003193601126102d4576020600554604051908152f35b50346102d45760e03660031901126102d457611d47612c6d565b90602435906044356001600160401b036064358181116108b757611d6f903690600401612d70565b92608435828111610b4857611d88903690600401612d70565b9160a4358181116107ed57611da1903690600401612d70565b9160c4359182116102d4575090611dc0611dcc93923690600401612d70565b9160009585888a614760565b600d5490936001600160a01b039390918416803b15610b485781809160446040518094819363317bf0ed60e21b83528b60048401528860248401525af1801561035c57611fe8575b50600c548203611f8f575b60408051868152602081018490529081018490527f4af706e18e55b579174ac72261103ef5aa29a76f776089af4e6806dc3ac3cb4194908590606090a1611e68846018546132b7565b601855858252611f1f60208098601a8252846040812055611eaf601954611eaa89611ea5611e9f60408b2054611bcd601754613d0e565b84613b30565b61328e565b61348b565b938491878752601b84528160408820911660005283526040600020611ed58382546132b7565b9055601c54600b546040516323b872dd60e01b81529083166001600160a01b0316600482015230602482015260448101939093529193849291909116908290879082906064820190565b03925af18015610b4c5791611f4791604093611f72575b5087845260128952828420546132b7565b86835260128852912055604080518581526020810192909252810191909152606090a1604051908152f35b611f88908a3d8c11611c8857611c798183612cfd565b5038611f36565b8360165416803b15610b4857818091604460405180948193638e9eeaef60e01b83528860048401528b60248401525af1801561035c57908291611fd4575b5050611e1f565b611fdd90612c99565b6102d4578038611fcd565b611ff190612c99565b38611e14565b50346102d45760203660031901126102d457600854604051631375d84360e01b81526004803590820152908290829060249082906001600160a01b03165afa90811561035c57826103359392610339575050604051918291602083526020830190612e45565b602061038e61206b36612e6a565b91614d46565b50346102d457602090816003193601126102d45760043560018060a01b036008541690604051636c0360eb60e01b81528381600481865afa908115610b7f57849161232b575b50821561212857508290602460405180948193633601bfc560e11b835260048301525afa91821561211c578092612101575b5050905b610335604051928284938452830190612e45565b61211592503d8091833e61034d8183612cfd565b38806120e9565b604051903d90823e3d90fd5b805190939250156122f0578190807a184f03e93ff9f4daa797ed6e38ed64bf6a1f01000000000000000081818110156122e2575b5050856d04ee2d6d415b85acef8100000000808410156122d4575b5050662386f26fc10000808310156122c5575b506305f5e100808310156122b6575b50612710808310156122a7575b506064821015612297575b600a8092101561228d575b600190816021818601956121e86121d288612d1e565b976121e0604051998a612cfd565b808952612d1e565b878b019890601f1901368a3750860101905b612257575b505050506122429261225192602592604051958361222688955180928b8089019101612e22565b84019164736c6f742f60d81b8984015251809386840190612e22565b01036005810184520182612cfd565b906120ed565b600019019083906f181899199a1a9b1b9c1cb0b131b232b360811b8282061a835304918215612288579190826121fa565b6121ff565b91600101916121bc565b91906064600291049101916121b1565b600491939204910191386121a6565b60089193920491019138612199565b6010919392049101913861218a565b930192909104908538612177565b60409450049150388061215c565b5060405191508282016001600160401b03811183821017612315576040528152612251565b634e487b7160e01b600052604160045260246000fd5b61233f91503d8086833e61034d8183612cfd565b386120b7565b5060403660031901126102d45761235a612c6d565b602435906001600160a01b038080612371856136ae565b169216916123818184141561360b565b80331490811561245a575b50156123ef5782600052600660205260046123ab6040600020546133cb565b500180546001600160a01b031916831790556123c6836136ae565b167f8c5be1e5ebec7d5bd14f71427d1e84f3dd0314c0f7b2291e5b200ac8c7c3b925600080a480f35b60405162461bcd60e51b815260206004820152603960248201527f455243333532353a20617070726f76652063616c6c6572206973206e6f74206f60448201527f776e6572206e6f7220617070726f76656420666f7220616c6c000000000000006064820152608490fd5b905084526007602052600260408520013360005260205260ff604060002054163861238c565b50346102d45760203660031901126102d45760206110f36004356136e7565b50346102d45760c03660031901126102d4576124b9612c6d565b60243590604435916064359160a4356001600160401b038111610679576124e4903690600401612d70565b936001600160a01b038281166124f9856136ae565b8216331480156127aa575b61250d90613e18565b6125218661251a87613a85565b1015613e70565b6040516312db76c160e21b81523060048201526020979089908981602481875afa90811561035c578289928b928d959161278d575b5015612729575b91611eaa61258992611ea5611e9f60406125e59b97601954968152601a8a522054611bcd601754613d0e565b968791878d52601b845260408d203360005284526125ae604060002054841115613ebc565b601c5416908c60405180988195829463095ea7b360e01b84526004840160209093929193604081019460018060a01b031681520152565b03925af191821561271e57612644938993612701575b50868a52601a835260408a20548a604051809681958294632f1d61b960e11b84523060048501528c60248501528a6044850152606484015260e0608484015260e4830190612e45565b8b60a483015260843560c483015203925af180156126f657916126d09697916040936126d9575b508152601b8752203360005285526040600020612689828254613b30565b905560405190838252858201527f3d3d75b7882b9fce0686df4e58e022dfe10deefe33da0e845564f0511e46cf6e60403392a26126c882601854613b30565b601855614267565b60405160018152f35b6126ef90893d8b11611c8857611c798183612cfd565b503861266b565b6040513d89823e3d90fd5b61271790843d8611611c8857611c798183612cfd565b50386125fb565b6040513d8b823e3d90fd5b50505050813b156127895760405162f4c5fd60e11b815230600482015292898460248183875af1908a821561211c578989918c9461276c575b909192965061255d565b935050509361277b8291612c99565b6102d4578387898b93612762565b8880fd5b6127a49150853d8711611c8857611c798183612cfd565b38612556565b5081600d5416602060405180926309de907160e11b825281806127d03360048301613de5565b03915afa801561271e5761250d918a916127ed575b509050612504565b612805915060203d8111611c8857611c798183612cfd565b386127e5565b50346102d457806003193601126102d4576040516000805461282c816132eb565b80845290600190818116908115610e4357506001146128555761033584610dd681860382612cfd565b600080805292507f290decd9548b62a8d60345a988386fc84ba6bc95484008f6362f93160ef3e5635b828410612896575050508101602001610dd682610dc6565b8054602085870181019190915290930192810161287e565b50346102d4576020816128c036612d8e565b97949195856128e960ff60029c9697949a9c541693611bcd60018060a01b03600e541695613d0e565b604051630bbed13160e21b81526001600160a01b039c909c1660048d015260248c019290925260448b019390935260648a015288916084918391905af195861561035c578296612a07575b506003549561294287613b3d565b600355868352601160205260408320556008546001600160a01b031690813b156107ed57829161299691604051948580948193632108947560e21b83528c6004840152604060248401526044830190612e45565b03925af18015610be3576129f0575b5060085485939291906001600160a01b0316803b1561067d57610a69859291839260405194858094819363246a908b60e01b83528c6004840152604060248401526044830190612e45565b6129fe909591939295612c99565b939091386129a5565b9095506020813d602011612a33575b81612a2360209383612cfd565b81010312610b4857519438612934565b3d9150612a16565b50346102d457612a5f612a4d36612d8e565b92858789989a96979b99949394614760565b600d549094906001600160a01b039085908216803b15610b485781809160446040518094819363317bf0ed60e21b83528d60048401528960248401525af1801561035c57612c06575b50600c548303612ba9575b60408051888152602081018590528082018a9052612b5295949392907f4af706e18e55b579174ac72261103ef5aa29a76f776089af4e6806dc3ac3cb4190606090a1612b018a6018546132b7565b601855888852612b3388611eaa60209c8d98601a8a5286842055611ea5611e9f87601954952054611bcd601754613d0e565b9687948952601b865283838a2091168252855220611ed58382546132b7565b03925af18015610b4c5791612b7a91604093612b8c575b5084845260128652828420546132b7565b91838152601285522055604051908152f35b612ba290873d8911611c8857611c798183612cfd565b5038612b69565b8160165416803b15612c0257868091604460405180948193638e9eeaef60e01b83528960048401528d60248401525af180156126f657908791612bee575b5050612ab3565b612bf790612c99565b610679578538612be7565b8680fd5b612c11919650612c99565b8438612aa8565b905034610b48576020366003190112610b485760043563ffffffff60e01b81168091036107ed5760209250637965db0b60e01b8114908115612c5c575b5015158152f35b6301ffc9a760e01b14905038612c55565b600435906001600160a01b0382168203610bd657565b602435906001600160a01b0382168203610bd657565b6001600160401b03811161231557604052565b60c081019081106001600160401b0382111761231557604052565b604081019081106001600160401b0382111761231557604052565b602081019081106001600160401b0382111761231557604052565b90601f801991011681019081106001600160401b0382111761231557604052565b6001600160401b03811161231557601f01601f191660200190565b929192612d4582612d1e565b91612d536040519384612cfd565b829481845281830111610bd6578281602093846000960137010152565b9080601f83011215610bd657816020612d8b93359101612d39565b90565b610100600319820112610bd6576004356001600160a01b0381168103610bd657916024359160443591606435916001600160401b0390608435828111610bd65781612ddb91600401612d70565b9260a435838111610bd65782612df391600401612d70565b9260c435818111610bd65783612e0b91600401612d70565b9260e435918211610bd657612d8b91600401612d70565b60005b838110612e355750506000910152565b8181015183820152602001612e25565b90602091612e5e81518092818552858086019101612e22565b601f01601f1916010190565b6060906003190112610bd657600435906024356001600160a01b0381168103610bd6579060443590565b6060906003190112610bd657600435906024359060443590565b6060906003190112610bd6576001600160a01b03906004358281168103610bd657916024359081168103610bd6579060443590565b60009080825260209060098252604092838120338252835260ff848220541615612f0d5750505050565b8351916001600160401b0390336060850183811186821017613204578752602a855285850191873684378551156131f057603083538551916001928310156131dc576078602188015360295b8381116131725750613130579087519360808501908582109082111761311c57885260428452868401946060368737845115613108576030865384518210156131085790607860218601536041915b81831161309a5750505061305857613054938693613038936130296048946130009a519a8b957f416363657373436f6e74726f6c3a206163636f756e74200000000000000000008c8801525180926037880190612e22565b8401917001034b99036b4b9b9b4b733903937b6329607d1b603784015251809386840190612e22565b01036028810187520185612cfd565b5192839262461bcd60e51b845260048401526024830190612e45565b0390fd5b60648587519062461bcd60e51b825280600483015260248201527f537472696e67733a20686578206c656e67746820696e73756666696369656e746044820152fd5b909192600f811660108110156130f4576f181899199a1a9b1b9c1cb0b131b232b360811b901a6130ca85886132c4565b5360041c9280156130e057600019019190612fa8565b634e487b7160e01b82526011600452602482fd5b634e487b7160e01b83526032600452602483fd5b634e487b7160e01b81526032600452602490fd5b634e487b7160e01b86526041600452602486fd5b60648789519062461bcd60e51b825280600483015260248201527f537472696e67733a20686578206c656e67746820696e73756666696369656e746044820152fd5b90600f811660108110156131c8576f181899199a1a9b1b9c1cb0b131b232b360811b901a6131a0838a6132c4565b5360041c9080156131b45760001901612f59565b634e487b7160e01b87526011600452602487fd5b634e487b7160e01b88526032600452602488fd5b634e487b7160e01b86526032600452602486fd5b634e487b7160e01b85526032600452602485fd5b634e487b7160e01b85526041600452602485fd5b906000918083526009602052604083209160018060a01b03169182845260205260ff60408420541661324957505050565b8083526009602052604083208284526020526040832060ff1981541690557ff6391f5c32d9c69d2a47ea670b442974b53935d1edc7fd64eb21e047a839171b339380a4565b818102929181159184041417156132a157565b634e487b7160e01b600052601160045260246000fd5b919082018092116132a157565b9081518110156132d5570160200190565b634e487b7160e01b600052603260045260246000fd5b90600182811c9216801561331b575b602083101461330557565b634e487b7160e01b600052602260045260246000fd5b91607f16916132fa565b9060405191826000825492613339846132eb565b9081845260019485811690816000146133a85750600114613365575b505061336392500383612cfd565b565b9093915060005260209081600020936000915b81831061339057505061336393508201013880613355565b85548884018501529485019487945091830191613378565b91505061336394506020925060ff191682840152151560051b8201013880613355565b6005548110156132d5576006906005600052027f036b6384b5eca791c62761152d0c79bb0604c104a5fb6f4eb0703f3154bb3db00190600090565b61340f816158a3565b600052600660205260016134276040600020546133cb565b50015490565b602081830312610bd6578051906001600160401b038211610bd6570181601f82011215610bd657805161345f81612d1e565b9261346d6040519485612cfd565b81845260208284010111610bd657612d8b9160208085019101612e22565b8115613495570490565b634e487b7160e01b600052601260045260246000fd5b6001600160a01b031680156134cb57600052600760205260406000205490565b60405162461bcd60e51b815260206004820152602b60248201527f455243333532353a2062616c616e636520717565727920666f7220746865207a60448201526a65726f206164647265737360a81b6064820152608490fd5b1561352b57565b60405162461bcd60e51b815260206004820152603260248201527f455243333532353a207472616e736665722063616c6c6572206973206e6f74206044820152711bdddb995c881b9bdc88185c1c1c9bdd995960721b6064820152608490fd5b906135af93929161359f611b79843361372f565b6135aa8383836137a0565b613be7565b156135b657565b60405162461bcd60e51b815260206004820152602760248201527f455243333532353a207472616e7366657220746f206e6f6e204552433732315260448201526632b1b2b4bb32b960c91b6064820152608490fd5b1561361257565b60405162461bcd60e51b815260206004820152602260248201527f455243333532353a20617070726f76616c20746f2063757272656e74206f776e60448201526132b960f11b6064820152608490fd5b1561366957565b60405162461bcd60e51b815260206004820152601960248201527f455243333532353a20696e76616c696420746f6b656e204944000000000000006044820152606490fd5b6136b7816158a3565b60005260066020526136cd6040600020546133cb565b50600301546001600160a01b031690613363821515613662565b6136f0816158a3565b60005260066020526137066040600020546133cb565b50600401546001600160a01b031690565b80548210156132d55760005260206000200190600090565b906001600160a01b038080613743846136ae565b16931691838314938415613776575b508315613760575b50505090565b61376c919293506136e7565b161438808061375a565b909350600052600760205260026040600020018260005260205260ff604060002054169238613752565b6137a9836136ae565b6001600160a01b0391821691908116829003613a34578083169283156139e1576137d285613406565b506137dc85613a85565b50600091858352602090600682526040906137f9828620546133cb565b50600490810180546001600160a01b0319908116909155909189878261381e836136ae565b167f8c5be1e5ebec7d5bd14f71427d1e84f3dd0314c0f7b2291e5b200ac8c7c3b9258280a4898752600685526005613858858920546133cb565b500180549091858988818f5b8684106139aa5750505050505050805487825580613991575b5050888652600684526003613894848820546133cb565b500190815416905585855260078352818520918254936000199485810190811161397e57906138c588939286613717565b90549060031b1c9060018601908c85528181528385205492613906816138eb868b613717565b90919082549060031b600019811b9283911b16911916179055565b85525281832055898252812055815490811561396b575092828892613967947fddf252ad1be2c89b69c2b068fc378daa952ba7f163c4a11628f55a4df523b3ef979601916139548383613717565b909182549160031b1b1916905555613ac9565b80a4565b634e487b7160e01b865260319052602485fd5b634e487b7160e01b885260118452602488fd5b6139a391885285882090810190613b4c565b388061387d565b6139d79486928b6139bb878c613717565b96905494835252209260031b1c168c5289528a88812055613b3d565b8690888b8f613864565b60405162461bcd60e51b815260206004820152602560248201527f455243333532353a207472616e7366657220746f20746865207a65726f206164604482015264647265737360d81b6064820152608490fd5b60405162461bcd60e51b8152602060048201526024808201527f455243333532353a207472616e736665722066726f6d20696e76616c6964206f6044820152633bb732b960e11b6064820152608490fd5b613a8e816158a3565b600052600660205260026134276040600020546133cb565b90815491600160401b83101561231557826138eb91600161336395018155613717565b9060406133639260009083825260066020526003613ae9848420546133cb565b500180546001600160a01b0319166001600160a01b039092169182179055808252600760208181528484208054878652600191909101825285852055918352905220613aa6565b919082039182116132a157565b60001981146132a15760010190565b818110613b57575050565b60008155600101613b4c565b90600160401b811161231557815490808355818110613b8157505050565b6133639260005260206000209182019101613b4c565b90816020910312610bd657516001600160e01b031981168103610bd65790565b3d15613be2573d90613bc882612d1e565b91613bd66040519384612cfd565b82523d6000602084013e565b606090565b9192813b63ffffffff1615613d0557602091613c3f916000604051958680958194630a85bd0160e11b9a8b845233600485015260018060a01b0380951660248501526044840152608060648401526084830190612e45565b0393165af160009181613cd5575b50613cc757613c5a613bb7565b80519081613cc25760405162461bcd60e51b815260206004820152603260248201527f4552433732313a207472616e7366657220746f206e6f6e20455243373231526560448201527131b2b4bb32b91034b6b83632b6b2b73a32b960711b6064820152608490fd5b602001fd5b6001600160e01b0319161490565b613cf791925060203d8111613cfe575b613cef8183612cfd565b810190613b97565b9038613c4d565b503d613ce5565b50505050600190565b604d81116132a157600a0a90565b90816020910312610bd657518015158103610bd65790565b613d3d816157ff565b80613dd2575b15613d5957600052601a60205260406000205490565b6016546040516339ace21f60e01b81526004810192909252602090829060249082906001600160a01b03165afa908115613dc657600091613d98575090565b906020823d8211613dbe575b81613db160209383612cfd565b810103126102d457505190565b3d9150613da4565b6040513d6000823e3d90fd5b50613ddc81613406565b600c5414613d43565b60408082526009908201526826a5aa2fa0a226a4a760b91b60608201526001600160a01b03909116602082015260800190565b15613e1f57565b60405162461bcd60e51b815260206004820152602360248201527f53656e646572206973206e6f7420617574686f72697a656420746f207265646560448201526232b69760e91b6064820152608490fd5b15613e7757565b60405162461bcd60e51b815260206004820152601c60248201527f56616c75652065786365656473206372656469742062616c616e6365000000006044820152606490fd5b15613ec357565b60405162461bcd60e51b8152602060048201526016602482015275496e73756666696369656e7420616c6c6f77616e636560501b6044820152606490fd5b6001600160a01b0380821695909490929091613f1c826136ae565b861633148015614205575b613f3090613e18565b613f3d8361251a84613a85565b604080516312db76c160e21b81523060048201526020989197600092918a81602481865afa9081156141de57908b9185916141e8575b501561418f575b613ffe91613fa58b611eaa8a611ea5611e9f601954948d8c52601a89528b2054611bcd601754613d0e565b9586918b8752601b84528c8720336000528452613fc88d60002054841115613ebc565b601c541690868d5180968195829463095ea7b360e01b84526004840160209093929193604081019460018060a01b031681520152565b03925af19081614172575b5061406157875162461bcd60e51b8152600481018a9052602660248201527f43726564697473206e6f7420617070726f76656420666f722074686973206f66604482015265666572696e6760d01b6064820152608490fd5b97868195979985849a96989a52601a83528584205484896140c089519d8e968795869463706fefd760e11b86523060048701526024860152604485015233606485015260848401528d60a484015260e060c484015260e4830190612e45565b03925af1968715614166578197614133575b50908282612d8b98997f64c7d5c40799609542953bf8a06247851ffb5739aea8f092d8d4121086e51fc4959452601b86522033600052845281600020614119828254613b30565b90558151938885528401523392a26126c882601854613b30565b965091908387813d831161415f575b61414c8183612cfd565b81010312610bd6579551959091826140d2565b503d614142565b508251903d90823e3d90fd5b614188908b3d8d11611c8857611c798183612cfd565b5038614009565b50813b156107ed57885162f4c5fd60e11b8152306004820152838160248183875af180156141de57908b92916141c7575b5090613f7a565b936141d6613ffe939295612c99565b9390916141c0565b8a513d86823e3d90fd5b6141ff9150823d8411611c8857611c798183612cfd565b38613f73565b5085600d5416602060405180926309de907160e11b8252818061422b3360048301613de5565b03915afa8015613dc657613f3091600091614249575b509050613f27565b614261915060203d8111611c8857611c798183612cfd565b38614241565b614270816158a3565b80600052600660205260026142896040600020546133cb565b500180548381106142be5783600080516020615af2833981519152926142b3600096602094613b30565b9055604051908152a3565b60405162461bcd60e51b815260206004820152602360248201527f455243333532353a206275726e2076616c756520657863656564732062616c616044820152626e636560e81b6064820152608490fd5b90600080516020615af2833981519152602060009284845260068252600261433a60408620546133cb565b50016142b38282546132b7565b909493916001600160a01b0391309083160361471c5780821630810361460e575050614372836158e6565b6000868152601a6020526040808220548683528183205491949293911461460857601754906143a082613d0e565b916127108381029381850403611c8f576143b982613d0e565b80820290828204036131b4576143e289611ea56143e8938f8b52601a6020528b8b205490613b30565b92613d0e565b80820291820403611c8f5791611bcd6144226144299361441c84611ea561442f99988f8d52601a6020528d8d205490613b30565b906132b7565b91896132b7565b90613b30565b858352601a602052838320555b614445856157ff565b806145f5575b80156145e6575b1561457057614460876157ff565b8061455d575b8061453a575b156144d1575050816144cc916144a687947fdf7a601a0a201ccd4b4bfcfd610913188d931867997223d226f85f2f2673988a97983361519d565b6144b1828686615437565b51938493846040919493926060820195825260208201520152565b0390a1565b600e9692949196541691823b15612c02578451630310ed7f60e41b81526004810191909152602481019190915260448101929092529293909281908490606490829084905af19182156145305750506145275750565b61336390612c99565b51903d90823e3d90fd5b50614544856157ff565b801561446c575061455485613406565b600c541461446c565b5061456787613406565b600c5414614466565b60a4835162461bcd60e51b815260206004820152604460248201527f546f6b656e204944206f66207265636569766572206e6f74207265636f676e6960448201527f7a6564206279207468697320636f6e7472616374206f722074686520726567696064820152637374727960e01b6084820152fd5b506145f08561582d565b614452565b506145ff85613406565b600c541461444b565b5061443c565b92939160009691959695828752601a6020526146336040882054611bcd601754613d0e565b612710908103818111614708579161469093916146528960209561328e565b601c5460405163095ea7b360e01b81526001600160a01b039094166004850152919004602483015290938492919091169082908a9082906044820190565b03925af18015610be3576146ea575b50823b1561067d57604051621f5d5f60e81b815260048101919091526024810191909152604481019290925290919081908390606490829084905af190811561211c57506145275750565b6147019060203d8111611c8857611c798183612cfd565b503861469f565b634e487b7160e01b89526011600452602489fd5b606460405162461bcd60e51b815260206004820152602060248201527f5472616e7366657272696e672066726f6d2077726f6e6720636f6e74726163746044820152fd5b95909394919460009260018060a01b0391828916958686526015602052604096878720898852602052878720548781151580614d11575b614cc7575b614c5d57506003549a6147ae8c613b3d565b6003558115614c0f578b15614bc1576147c68c6157ff565b8015614bb2575b614b6e5788516147dc81612ce2565b88815289518a8e6147ec83612cac565b8083528d60208401908152828401908d82528d6060860193898552608087019582875260a08801988952600554928392815260066020522055600160401b811015614b5a5780600161484192016005556133cb565b959095614b465751855551600185015551600284015551600383018054918b166001600160a01b03199283161790559051600483018054918b16919092161790559051805191600501906001600160401b038311614b32579060208f959493926148ab8484613b63565b01908b5260208b208b5b838110614b0f5750505050826148ca91613ac9565b877fddf252ad1be2c89b69c2b068fc378daa952ba7f163c4a11628f55a4df523b3ef8180a487868b7fe4f48c240d3b994948aa54f3e2f5fca59263dfe1d52b6e4cf39a5d249b5ccb658280a4614920898b61430f565b8360085416803b15612c025761495c91879189838e825196879586948593632108947560e21b8552600485015260248401526044830190612e45565b03925af18015614b0557614af2575b508260085416803b15610679576149a79186918b838a5180968195829463246a908b60e01b845260048401528d60248401526044830190612e45565b03925af18015614ae857908591614ad4575b50508160085416803b1561067d576149f69185918a838951809681958294630190503b60e61b845260048401528c60248401526044830190612e45565b03925af18015614aca57908491614ab6575b50506008541690813b156107ed57614a45839283928651948580948193637e468a5160e01b83528d60048401528a60248401526044830190612e45565b03925af18015614aac57614a98575b505051838152602081019190915260408101919091527f84eeb48eca46cea54afc9753345f6038981672ea565f32885420829dfd88aea69080606081015b0390a190565b614aa28291612c99565b6102d45780614a54565b83513d84823e3d90fd5b614abf90612c99565b6107ed578238614a08565b85513d86823e3d90fd5b614add90612c99565b6108b75783386149b9565b86513d87823e3d90fd5b614afe90959195612c99565b933861496b565b87513d88823e3d90fd5b82939495965060208b6001939451169401938184015501908f95949392916148b5565b634e487b7160e01b8b52604160045260248bfd5b634e487b7160e01b8f5260048f905260248ffd5b634e487b7160e01b8f52604160045260248ffd5b885162461bcd60e51b815260206004820152601d60248201527f455243333532353a20746f6b656e20616c7265616479206d696e7465640000006044820152606490fd5b50614bbc8c61582d565b6147cd565b885162461bcd60e51b815260206004820152602160248201527f455243333532353a2063616e6e6f74206d696e74207a65726f20746f6b656e496044820152601960fa1b6064820152608490fd5b885162461bcd60e51b815260206004820152602160248201527f455243333532353a206d696e7420746f20746865207a65726f206164647265736044820152607360f81b6064820152608490fd5b9a505050505050505090614a927f84eeb48eca46cea54afc9753345f6038981672ea565f32885420829dfd88aea69392614c96866136ae565b50614ca086613406565b50614cab848761430f565b5192839286846040919493926060820195825260208201520152565b8287614cd284615982565b161480614d00575b80614ced575b1561479c5750600161479c565b5081895260116020528989205415614ce0565b508a614d0b83613406565b14614cda565b50614d1b826157ff565b806147975750614d2a8261582d565b614797565b6001600160401b0381116123155760051b60200190565b9190916000908082526020916011835260409283822054156000146150ba57614d7085843361519d565b60035495614d7d87613b3d565b600355614d8984613406565b906001600160a01b038082169190821561506c57891561501e57614dac8a6157ff565b801561500f575b614fcb5784908851614dc481612ce2565b8781528951888b8e614dd584612cac565b8084528684018a81528285019184835260608601938b8552608087019580875260a0880198895260066005549b8c948352522055600160401b881015614fb757614e266001988981016005556133cb565b959095614fa357906005959493929151855551888501555160028401558560038401915116906001600160601b0360a01b9182825416179055856004840192511690825416179055019051918251926001600160401b03841161066557908883928f9b9a99989796959485614e9a91613b63565b0191895287892090895b848110614f8d575050505050507f6d811e6a20ae5461a4ef22a6998c1d958defe727f1cc522b6eb792bc8e6f726698979693869384614f709794614efa614a929a600080516020615af283398151915296613ac9565b857fddf252ad1be2c89b69c2b068fc378daa952ba7f163c4a11628f55a4df523b3ef8180a483857fe4f48c240d3b994948aa54f3e2f5fca59263dfe1d52b6e4cf39a5d249b5ccb658280a483835260068152614f58888420546133cb565b50508751838152a3614f6b858883615437565b613406565b915192839286846040919493926060820195825260208201520152565b83518216818401558f9b50928901928501614ea4565b634e487b7160e01b8e5260048e905260248efd5b634e487b7160e01b8d52604160045260248dfd5b875162461bcd60e51b815260048101869052601d60248201527f455243333532353a20746f6b656e20616c7265616479206d696e7465640000006044820152606490fd5b506150198a61582d565b614db3565b875162461bcd60e51b815260048101869052602160248201527f455243333532353a2063616e6e6f74206d696e74207a65726f20746f6b656e496044820152601960fa1b6064820152608490fd5b875162461bcd60e51b815260048101869052602160248201527f455243333532353a206d696e7420746f20746865207a65726f206164647265736044820152607360f81b6064820152608490fd5b600e5484516307a42e0160e11b8152600481018590526001600160a01b0397881660248201526044810187905291969192918791849160649183918691165af195861561519157819661513a575b50505090614a92614f707f6d811e6a20ae5461a4ef22a6998c1d958defe727f1cc522b6eb792bc8e6f72669493613406565b909180939650813d831161518a575b6151538183612cfd565b810103126102d457505192614a92614f707f6d811e6a20ae5461a4ef22a6998c1d958defe727f1cc522b6eb792bc8e6f7266615108565b503d615149565b508351903d90823e3d90fd5b6151a78183615237565b6151b1838361372f565b158061522b575b6151c3575b50505050565b8381106151e6576151dd936151d791613b30565b91615265565b388080806151bd565b60405162461bcd60e51b815260206004820152601f60248201527f455243333532353a20696e73756666696369656e7420616c6c6f77616e6365006044820152606490fd5b506000198114156151b8565b615240816158a3565b600052600460205260406000209060018060a01b031660005260205260406000205490565b6001600160a01b03808316939192841561534e5783615283916153a6565b156152d1575b5060207f621b050de0ad08b51d19b48b3e6df75348c4de6bdd93e81b252ca62e28265b1b918360005260048252604060002085600052825280604060002055604051908152a3565b9082600052600660205260056152eb6040600020546133cb565b500190815492600160401b84101561231557856153318560209560017f621b050de0ad08b51d19b48b3e6df75348c4de6bdd93e81b252ca62e28265b1b98018155613717565b909283549160031b90811b9283911b169119161790559150615289565b60405162461bcd60e51b815260206004820152602a60248201527f455243333532353a20617070726f76652076616c756520746f20746865207a65604482015269726f206164647265737360b01b6064820152608490fd5b60009082825260066020908082526040906153c3828620546133cb565b509260058094015496865b8881106153e15750505050505050905090565b8188528383526153ff81876153f8888c20546133cb565b5001613717565b905460039190911b1c6001600160a01b03908116908816146154295761542490613b3d565b6153ce565b505050505050505050600190565b615440816157ff565b80156156cd575b1561567857615455826157ff565b8015615669575b1561561657806000526020926006845260409261547c84600020546133cb565b50816000526006865261549285600020546133cb565b509060028101908154908582106155bf576001015460018401540361556457916002916154c58661550298979695613b30565b9055016154d38382546132b7565b90558083600080516020615af2833981519152888851868152a38451926154f984612ce2565b600084526156dc565b1561550b575050565b60849250519062461bcd60e51b82526004820152602d60248201527f455243333532353a207472616e736665722072656a656374656420627920455260448201526c21999a991aa932b1b2b4bb32b960991b6064820152fd5b865162461bcd60e51b815260048101899052602e60248201527f455243333532353a207472616e7366657220746f20746f6b656e20776974682060448201526d191a5999995c995b9d081cdb1bdd60921b6064820152608490fd5b875162461bcd60e51b8152600481018a9052602a60248201527f455243333532353a20696e73756666696369656e742062616c616e636520666f60448201526939103a3930b739b332b960b11b6064820152608490fd5b60405162461bcd60e51b815260206004820152602560248201527f455243333532353a207472616e7366657220746f20696e76616c696420746f6b604482015264195b88125160da1b6064820152608490fd5b506156738261582d565b61545c565b60405162461bcd60e51b815260206004820152602760248201527f455243333532353a207472616e736665722066726f6d20696e76616c696420746044820152661bdad95b88125160ca1b6064820152608490fd5b506156d78161582d565b615447565b9290926156e8846136ae565b803b63ffffffff16156157f5576040516301ffc9a760e01b8152629ce20b60e01b6004820181905295602095926001600160a01b0316918681602481865afa600091816157d6575b5061574b575050505050505050615745613bb7565b50600190565b156157ca576000869461578a604051978896879586948d865233600487015260248601526044850152606484015260a0608484015260a4830190612e45565b03925af1918215613dc6576000926157ad575b50506001600160e01b0319161490565b6157c39250803d10613cfe57613cef8183612cfd565b388061579d565b50505050505050600190565b6157ee919250883d8a11611c8857611c798183612cfd565b9038615730565b5050505050600190565b6005541515908161580e575090565b80915060005260066020526158276040600020546133cb565b50541490565b8060005260116020526040600020541590811591615849575090565b600e546040516341ce4b3f60e01b81526004810192909252909150602090829060249082906001600160a01b03165afa908115613dc65760009161588b575090565b612d8b915060203d8111611c8857611c798183612cfd565b613363906158b0816157ff565b9081156158d5575b81156158c5575b50613662565b6158cf915061582d565b386158bf565b90506158e08161582d565b906158b8565b6158ef816158a3565b6158f8816157ff565b8061596f575b1561590c57612d8b90613a85565b600090815260116020526040812054602060018060a01b03600e541691602460405180948193631398fee160e31b835260048301525afa91821561211c57809261595557505090565b9091506020823d8211613dbe5781613db160209383612cfd565b5061597981613406565b600c54146158fe565b61598b816158a3565b615994816157ff565b80615a3f575b156159a857612d8b906136ae565b60018060a01b0380600e54169160009081526011602052602060408220546024604051809681936331a9108f60e11b835260048301525afa928315615a325781936159f35750505090565b909192506020813d8211615a2a575b81615a0f60209383612cfd565b81010312610b48575191821682036102d4575038808061375a565b3d9150615a02565b50604051903d90823e3d90fd5b50615a4981613406565b600c541461599a565b80518210156132d55760209160051b010190565b90615a70826158a3565b615a79826157ff565b80615ade575b15615a8d57612d8b91615237565b602060018060a01b0391604483600e541660009586526011845260408620549060405195869485936338d1782f60e21b855260048501521660248301525afa91821561211c57809261595557505090565b50615ae882613406565b600c5414615a7f56fe0b2aac84f3ec956911fd78eae5311062972ff949f38412e8da39069d9f068cc6519b8a896d3cf44bd2d0545987d41a13bfb2ba37ce6ce401c753218178535608a26469706673582212203545a34994301abaa8c2b9d340d24ca900efaf81e936b74e6eefc14ab1a4b06e64736f6c634300081100336080604052346200048657620020c5803803806200001d816200048b565b9283398101608082820312620004865781516001600160401b0391908281116200048657816200004f918501620004b1565b91602092838501518281116200048657836200006d918701620004b1565b92604086015183811162000486576060916200008b918801620004b1565b9501516001600160a01b03811695908690036200048657815193838511620002c3576001948554938685811c951680156200047b575b88861014620002a2578190601f9586811162000425575b508890868311600114620003bd57600092620003b1575b5050600019600383901b1c191690861b1785555b805190848211620002c357600254908682811c92168015620003a6575b88831014620002a25781858493116200034f575b508790858311600114620002e557600092620002d9575b5050600019600383901b1c191690851b176002555b8051928311620002c35760039485548581811c91168015620002b8575b82821014620002a25783811162000257575b5080928411600114620001ed5750928293918392600094620001e1575b50501b9160001990841b1c19161790555b600080546001600160a01b031916919091179055604051611ba19081620005248239f35b015192503880620001ac565b919083601f1981168760005284600020946000905b888383106200023c575050501062000223575b505050811b019055620001bd565b015160001983861b60f8161c1916905538808062000215565b85870151885590960195948501948793509081019062000202565b86600052816000208480870160051c82019284881062000298575b0160051c019086905b8281106200028b5750506200018f565b600081550186906200027b565b9250819262000272565b634e487b7160e01b600052602260045260246000fd5b90607f16906200017d565b634e487b7160e01b600052604160045260246000fd5b0151905038806200014b565b90879350601f198316916002600052896000209260005b8b8282106200033857505084116200031e575b505050811b0160025562000160565b015160001960f88460031b161c191690553880806200030f565b8385015186558b97909501949384019301620002fc565b9091506002600052876000208580850160051c8201928a86106200039c575b918991869594930160051c01915b8281106200038c57505062000134565b600081558594508991016200037c565b925081926200036e565b91607f169162000120565b015190503880620000ef565b90889350601f19831691846000528a6000209260005b8c8282106200040e5750508411620003f4575b505050811b01855562000103565b015160001960f88460031b161c19169055388080620003e6565b8385015186558c97909501949384019301620003d3565b90915087600052886000208680850160051c8201928b861062000471575b918a91869594930160051c01915b82811062000461575050620000d8565b600081558594508a910162000451565b9250819262000443565b94607f1694620000c1565b600080fd5b6040519190601f01601f191682016001600160401b03811183821017620002c357604052565b919080601f84011215620004865782516001600160401b038111620002c357602090620004e7601f8201601f191683016200048b565b92818452828287010111620004865760005b8181106200050f57508260009394955001015290565b8581018301518482018401528201620004f956fe608060408181526004908136101561001657600080fd5b600092833560e01c9081631375d843146113cd57508063246a908b146112cf57806355f804b31461118b57806364140ec01461108c5780636c0360eb14610fcd5780636c037f8a14610d0f57806371f0442e14610c7b578063725fa09c146108c05780637e468a51146107c1578063842251d414610685578063894b4c2e146101755763b3154c08146100a857600080fd5b34610171576020918260031936011261016d5780358452825280832091815192848154906100d5826118ef565b80875292600192808416908115610149575060011461010e575b61010a8787610100828c03836114e3565b5191829182611485565b0390f35b9080949750528583205b828410610136575050508261010a94610100928201019438806100ef565b8054868501880152928601928101610118565b60ff19168887015250505050151560051b83010192506101008261010a38806100ef565b8380fd5b8280fd5b50903461017157602092836003193601126106825782516306fdde0360e01b81529180359082848281335afa938415610678578394610654575b506101b9826117ac565b926102056022875180968a6101d78184019a8b815193849201611462565b820161202360f01b8c8201526101f68c83519384918785019101611462565b010360028101875201856114e3565b828152818752858120865181549391899184610220876118ef565b80835284830193600198868a821691826000146106345750506001146105fb575b505090610254816102c9949303826114e3565b6102e561026030611a28565b898852600686526102d78d808a209a60058952818b2091519788948a86019a6102ac61028b8d611929565b91692f636f6e74726163742f60b01b83528351938491600a85019101611462565b019c6011662f746f6b656e2f60c81b9e8f600a82015201906119a5565b602f60f81b815201906119a5565b03601f1981018552846114e3565b8a51631398fee160e31b81528581018990528c81602481335afa80156105c25787906105cc575b61031691506117ac565b8b5163131f9f3f60e11b8152958601899052948c81602481335afa9081156105c2578d918d918991610589575b5061034d906117ac565b9761035733611a28565b9a815260068352208c51713d91383937b832b93a34b2b9afbab934911d60711b818401908152601160f91b60328301529a90998a93909161039a60338601611929565b9068636f6e74726163742f60b81b825280518093600984019201916103be92611462565b019060098201526010016103d1916119a5565b6f17b83937b832b93a34b2b9973539b7b760811b815261227d60f01b601082015203600d198101885260120161040790886114e3565b8a51998a998d683d913730b6b2911d1160b91b908c015251908160298c0161042e92611462565b890190701116113232b9b1b934b83a34b7b7111d1160791b6029830152519182603a830161045b92611462565b01906a11161134b6b0b3b2911d1160a91b603a8301525191826045830161048192611462565b016c1116113130b630b731b2911d1160991b6045820152815191828a605284019201916104ad92611462565b016911161139b637ba111d1160b11b60528201528151918289605c84019201916104d692611462565b01906e111611383937b832b93a34b2b9911d60891b605c830152519182606b830161050092611462565b01606b8101607d60f81b905203604c81018252606c0161052090826114e3565b61052990611631565b81517f646174613a6170706c69636174696f6e2f6a736f6e3b6261736536342c00000084820152815190938492610567918391603d86019101611462565b810103601d81018352603d0161057d90836114e3565b5161010a819282611485565b928092508391503d83116105bb575b6105a281836114e3565b810103126105b7578b61034d8e925190610343565b8680fd5b503d610598565b8c513d89823e3d90fd5b508c81813d83116105f4575b6105e281836114e3565b810103126105b757610316905161030c565b503d6105d8565b8592508752818720908888925b82841061061e5750505082010161025482610241565b80548487018601528794909301928a9101610608565b60ff1916875292151560051b850190920192506102549150839050610241565b6106719194503d8085833e61066981836114e3565b8101906115a0565b92386101af565b85513d85823e3d90fd5b80fd5b508290346107bd576106963661156d565b939083526020916006835283209184519167ffffffffffffffff83116107aa57506106c183546118ef565b601f8111610767575b5080601f831160011461070557508394829394926106fa575b50508160011b916000199060031b1c191617905580f35b0151905084806106e3565b90601f198316958486528286209286905b88821061074f57505083600195969710610736575b505050811b01905580f35b015160001960f88460031b161c1916905584808061072b565b80600185968294968601518155019501930190610716565b838552818520601f840160051c8101918385106107a0575b601f0160051c01905b81811061079557506106ca565b858155600101610788565b909150819061077f565b634e487b7160e01b855260419052602484fd5b5080fd5b508290346107bd576107d23661156d565b939083526020916007835283209184519167ffffffffffffffff83116107aa57506107fd83546118ef565b601f811161087d575b5080601f831160011461083557508394829394926106fa5750508160011b916000199060031b1c191617905580f35b90601f198316958486528286209286905b8882106108655750508360019596971061073657505050811b01905580f35b80600185968294968601518155019501930190610846565b838552818520601f840160051c8101918385106108b6575b601f0160051c01905b8181106108ab5750610806565b85815560010161089e565b9091508190610895565b50913461068257806003193601126106825782516306fdde0360e01b815281818481335afa908115610c71578291610c57575b508351829060025492610905846118ef565b9586835260209683888101956001978a8982169182600014610c3c575050600114610be1575b610937925003846114e3565b61094033611a28565b9588519586898101986109528a611929565b68636f6e74726163742f60b81b81526109758c8351938491600985019101611462565b01602f60f81b600982015283906003549361098f856118ef565b94818116908115610bc05750600114610b61575b50506109b8925003601f1981018852876114e3565b8789518093633e7e866960e01b825281335afa918215610b55578192610b17575b5050610ac9605a888a61010a9b9961010099610a7f603d9a610b079e9a610a5c610ace9b610a0c60ff610a329d166117ac565b97519b8c99683d913730b6b2911d1160b91b818c0152825192839160298d019101611462565b880191701116113232b9b1b934b83a34b7b7111d1160791b6029840152518093603a840190611462565b01916a11161134b6b0b3b2911d1160a91b603a8401525180936045840190611462565b01721116113b30b63ab2a232b1b4b6b0b639911d1160691b6045820152610aaf825180938a605885019101611462565b0161227d60f01b605882015203603a8101845201826114e3565b611631565b845195827f646174613a6170706c69636174696f6e2f6a736f6e3b6261736536342c000000889485015282519283918686019101611462565b810103601d8101855201836114e3565b9091508781813d8311610b4e575b610b2f81836114e3565b810103126107bd57519060ff821682036106825750610ac9605a6109d9565b503d610b25565b508851903d90823e3d90fd5b6003865290915084908c7fc2575a0e9e593c00f959f8c92f12db2869c3395a3b0502d05e2516446f71f85b5b868410610ba857505050506109b892600a91010138806109a3565b8054858501600a01528c95509201918d908201610b8d565b9050600a93506109b895915060ff19168383015280151502010138806109a3565b505060028752838888887f405787fa12a823e0f2b7631cc41b3ba8828b3321ca811111fa75cd3aa3bb5ace5b858310610c23575050610937935082010161092b565b80919294505483858a0101520191018990888793610c0d565b60ff1916895261093794151560051b840101915061092b9050565b610c6b91503d8084833e61066981836114e3565b386108f3565b84513d84823e3d90fd5b5034610171576020918260031936011261016d57358352600582528083209181519284815490610caa826118ef565b808752926001928084169081156101495750600114610cd45761010a8787610100828c03836114e3565b9080949750528583205b828410610cfc575050508261010a94610100928201019438806100ef565b8054868501880152928601928101610cde565b5090346101715760209283600319360112610682578054835163ec327a2160e01b815283358185018190529092916001600160a01b0316908284602481855afa938415610fc3578394610fa7575b50855163bc74ebb960e01b8152858101829052948386602481865afa958615610f9d578496610f81575b5086516309c3dd8760e01b80825282820184905290938585602481845afa948515610f7757918a9594939187938496610f56575b5090602491610dfb60268d518a652f696d61676560d01b81610de7849e85019d8e815193849201611462565b83019182015203600681018b5201896114e3565b8b51958694859384528301525afa938415610f4b578094610f2e575b50508551918288808201868197519283910191610e3392611462565b81018981016f17b83937b832b93a34b2b9973539b7b760811b905203601081018452603001610e6290846114e3565b8651958695683d913730b6b2911d1160b91b8a880152805190818b60298a01920191610e8d92611462565b8601701116113232b9b1b934b83a34b7b7111d1160791b6029820152815191828b603a8401920191610ebe92611462565b01906a11161134b6b0b3b2911d1160a91b603a83015251918260458301610ee492611462565b01906e111611383937b832b93a34b2b9911d60891b604583015251918260548301610f0e92611462565b0160548101607d60f81b90520360358101825260550161052090826114e3565b610f439294503d8091833e61066981836114e3565b913880610e17565b8751903d90823e3d90fd5b602492919650610f6f903d8087833e61066981836114e3565b959091610dbb565b89513d88823e3d90fd5b610f969196503d8086833e61066981836114e3565b9438610d87565b87513d86823e3d90fd5b610fbc9194503d8085833e61066981836114e3565b9238610d5d565b86513d85823e3d90fd5b8382346107bd57816003193601126107bd57805190826001805491610ff1836118ef565b80865292828116908115611064575060011461101a575b5050506101008261010a9403836114e3565b9450808552600080516020611b4c8339815191525b82861061104c5750505061010082602061010a9582010194611008565b8054602087870181019190915290950194810161102f565b61010a97508693506020925061010094915060ff191682840152151560051b82010194611008565b508290346107bd5761109d3661156d565b939083526020916005835283209184519167ffffffffffffffff83116107aa57506110c883546118ef565b601f8111611148575b5080601f831160011461110057508394829394926106fa5750508160011b916000199060031b1c191617905580f35b90601f198316958486528286209286905b8882106111305750508360019596971061073657505050811b01905580f35b80600185968294968601518155019501930190611111565b838552818520601f840160051c810191838510611181575b601f0160051c01905b81811061117657506110d1565b858155600101611169565b9091508190611160565b828434610682576020806003193601126107bd5767ffffffffffffffff833581811161016d576111be9036908601611521565b9384519182116112bc57506001916111d683546118ef565b601f811161126a575b5080601f8311600114611219575083948293949261120e575b5050600019600383901b1c191690821b17905580f35b0151905084806111f8565b838552601f19831695600080516020611b4c833981519152929186905b888210611253575050838596971061073657505050811b01905580f35b808785968294968601518155019501930190611236565b838552600080516020611b4c833981519152601f840160051c8101918385106112b2575b601f0160051c019084905b8281106112a75750506111df565b868155018490611299565b909150819061128e565b634e487b7160e01b845260419052602483fd5b508290346107bd576112e03661156d565b9390835260209181835283209184519167ffffffffffffffff83116107aa575061130a83546118ef565b601f811161138a575b5080601f831160011461134257508394829394926106fa5750508160011b916000199060031b1c191617905580f35b90601f198316958486528286209286905b8882106113725750508360019596971061073657505050811b01905580f35b80600185968294968601518155019501930190611353565b838552818520601f840160051c8101918385106113c3575b601f0160051c01905b8181106113b85750611313565b8581556001016113ab565b90915081906113a2565b9290503461016d576020908160031936011261145e57358452600681528184208054856113f9826118ef565b8087529260019280841690811561014957506001146114235761010a8787610100828c03836114e3565b9080949750528583205b82841061144b575050508261010a94610100928201019438806100ef565b805486850188015292860192810161142d565b8480fd5b60005b8381106114755750506000910152565b8181015183820152602001611465565b604091602082526114a58151809281602086015260208686019101611462565b601f01601f1916010190565b6060810190811067ffffffffffffffff8211176114cd57604052565b634e487b7160e01b600052604160045260246000fd5b90601f8019910116810190811067ffffffffffffffff8211176114cd57604052565b67ffffffffffffffff81116114cd57601f01601f191660200190565b81601f820112156115685780359061153882611505565b9261154660405194856114e3565b8284526020838301011161156857816000926020809301838601378301015290565b600080fd5b90604060031983011261156857600435916024359067ffffffffffffffff82116115685761159d91600401611521565b90565b6020818303126115685780519067ffffffffffffffff8211611568570181601f820112156115685780516115d381611505565b926115e160405194856114e3565b818452602082840101116115685761159d9160208085019101611462565b9061160982611505565b61161660405191826114e3565b8281528092611627601f1991611505565b0190602036910137565b8051156117875760405190611645826114b1565b604082527f4142434445464748494a4b4c4d4e4f505152535455565758595a61626364656660208301527f6768696a6b6c6d6e6f707172737475767778797a303132333435363738392b2f60408301528051600291828201809211611771576003918290046001600160fe1b0381168103611771576116c7908495941b6115ff565b936020850193829183518401906020820192835194600085525b83811061172057505050505251068060011461170d57600214611702575090565b603d90600019015390565b50603d9081600019820153600119015390565b87600491999293949901918251600190603f9082828260121c16880101518453828282600c1c16880101518385015382828260061c16880101518885015316850101518982015301979291906116e1565b634e487b7160e01b600052601160045260246000fd5b506040516020810181811067ffffffffffffffff8211176114cd576040526000815290565b806000917a184f03e93ff9f4daa797ed6e38ed64bf6a1f010000000000000000808210156118e1575b506d04ee2d6d415b85acef8100000000808310156118d2575b50662386f26fc10000808310156118c3575b506305f5e100808310156118b4575b50612710808310156118a5575b506064821015611895575b600a8092101561188b575b6001908160216118438287016115ff565b95860101905b611855575b5050505090565b600019019083906f181899199a1a9b1b9c1cb0b131b232b360811b8282061a83530491821561188657919082611849565b61184e565b9160010191611832565b9190606460029104910191611827565b6004919392049101913861181c565b6008919392049101913861180f565b60109193920491019138611800565b602091939204910191386117ee565b6040935081049150386117d5565b90600182811c9216801561191f575b602083101461190957565b634e487b7160e01b600052602260045260246000fd5b91607f16916118fe565b9060009160019081549161193c836118ef565b92818116908115611992575060011461195457505050565b809192939450600052600080516020611b4c833981519152906000915b84831061197f575050500190565b8181602092548587015201920191611971565b60ff191683525050811515909102019150565b6000929181546119b4816118ef565b92600191808316908115611a0d57506001146119d1575b50505050565b90919293945060005260209081600020906000915b8583106119fc57505050500190388080806119cb565b8054858401529183019181016119e6565b60ff19168452505050811515909102019150388080806119cb565b604051906001600160a01b0316611a3e826114b1565b602a82526020908183016040368237835115611b3557603090538251600190811015611b3557607860218501536029905b808211611ac3575050611a80575090565b6064906040519062461bcd60e51b825280600483015260248201527f537472696e67733a20686578206c656e67746820696e73756666696369656e746044820152fd5b9091600f81166010811015611b20578551841015611b20576f181899199a1a9b1b9c1cb0b131b232b360811b901a85840185015360041c918015611b0b576000190190611a6f565b60246000634e487b7160e01b81526011600452fd5b60246000634e487b7160e01b81526032600452fd5b634e487b7160e01b600052603260045260246000fdfeb10e2d527612073b26eecdfd717e6a320cf44b4afac2b0732d9fcbe2b7fa0cf6a26469706673582212207268838d9e05685158e281adf85f3727e09a35961503a02a5731a9254c21cd0364736f6c634300081100332f8788117e7eff1d82e926ec794901d17c78024a50270940304540a733656f0db10e2d527612073b26eecdfd717e6a320cf44b4afac2b0732d9fcbe2b7fa0cf6",
  "linkReferences": {},
  "deployedLinkReferences": {}
}