{
  "_format": "hh-sol-artifact-1",
  "contractName": "ERC3525",
  "sourceName": "@solvprotocol/erc-3525/ERC3525.sol",
  "abi": [
    {
      "inputs": [
        {
          "internalType": "string",
          "name": "name_",
          "type": "string"
        },
        {
          "internalType": "string",
          "name": "symbol_",
          "type": "string"
        },
        {
          "internalType": "uint8",
          "name": "decimals_",
          "type": "uint8"
        }
      ],
      "stateMutability": "nonpayable",
      "type": "constructor"
    },
    {
      "anonymous": false,
      "inputs": [
        {
          "indexed": true,
          "internalType": "address",
          "name": "_owner",
          "type": "address"
        },
        {
          "indexed": true,
          "internalType": "address",
          "name": "_approved",
          "type": "address"
        },
        {
          "indexed": true,
          "internalType": "uint256",
          "name": "_tokenId",
          "type": "uint256"
        }
      ],
      "name": "Approval",
      "type": "event"
    },
    {
      "anonymous": false,
      "inputs": [
        {
          "indexed": true,
          "internalType": "address",
          "name": "_owner",
          "type": "address"
        },
        {
          "indexed": true,
          "internalType": "address",
          "name": "_operator",
          "type": "address"
        },
        {
          "indexed": false,
          "internalType": "bool",
          "name": "_approved",
          "type": "bool"
        }
      ],
      "name": "ApprovalForAll",
      "type": "event"
    },
    {
      "anonymous": false,
      "inputs": [
        {
          "indexed": true,
          "internalType": "uint256",
          "name": "_tokenId",
          "type": "uint256"
        },
        {
          "indexed": true,
          "internalType": "address",
          "name": "_operator",
          "type": "address"
        },
        {
          "indexed": false,
          "internalType": "uint256",
          "name": "_value",
          "type": "uint256"
        }
      ],
      "name": "ApprovalValue",
      "type": "event"
    },
    {
      "anonymous": false,
      "inputs": [
        {
          "indexed": true,
          "internalType": "address",
          "name": "metadataDescriptor",
          "type": "address"
        }
      ],
      "name": "SetMetadataDescriptor",
      "type": "event"
    },
    {
      "anonymous": false,
      "inputs": [
        {
          "indexed": true,
          "internalType": "uint256",
          "name": "_tokenId",
          "type": "uint256"
        },
        {
          "indexed": true,
          "internalType": "uint256",
          "name": "_oldSlot",
          "type": "uint256"
        },
        {
          "indexed": true,
          "internalType": "uint256",
          "name": "_newSlot",
          "type": "uint256"
        }
      ],
      "name": "SlotChanged",
      "type": "event"
    },
    {
      "anonymous": false,
      "inputs": [
        {
          "indexed": true,
          "internalType": "address",
          "name": "_from",
          "type": "address"
        },
        {
          "indexed": true,
          "internalType": "address",
          "name": "_to",
          "type": "address"
        },
        {
          "indexed": true,
          "internalType": "uint256",
          "name": "_tokenId",
          "type": "uint256"
        }
      ],
      "name": "Transfer",
      "type": "event"
    },
    {
      "anonymous": false,
      "inputs": [
        {
          "indexed": true,
          "internalType": "uint256",
          "name": "_fromTokenId",
          "type": "uint256"
        },
        {
          "indexed": true,
          "internalType": "uint256",
          "name": "_toTokenId",
          "type": "uint256"
        },
        {
          "indexed": false,
          "internalType": "uint256",
          "name": "_value",
          "type": "uint256"
        }
      ],
      "name": "TransferValue",
      "type": "event"
    },
    {
      "inputs": [
        {
          "internalType": "uint256",
          "name": "tokenId_",
          "type": "uint256"
        },
        {
          "internalType": "address",
          "name": "operator_",
          "type": "address"
        }
      ],
      "name": "allowance",
      "outputs": [
        {
          "internalType": "uint256",
          "name": "",
          "type": "uint256"
        }
      ],
      "stateMutability": "view",
      "type": "function"
    },
    {
      "inputs": [
        {
          "internalType": "address",
          "name": "to_",
          "type": "address"
        },
        {
          "internalType": "uint256",
          "name": "tokenId_",
          "type": "uint256"
        }
      ],
      "name": "approve",
      "outputs": [],
      "stateMutability": "payable",
      "type": "function"
    },
    {
      "inputs": [
        {
          "internalType": "uint256",
          "name": "tokenId_",
          "type": "uint256"
        },
        {
          "internalType": "address",
          "name": "to_",
          "type": "address"
        },
        {
          "internalType": "uint256",
          "name": "value_",
          "type": "uint256"
        }
      ],
      "name": "approve",
      "outputs": [],
      "stateMutability": "payable",
      "type": "function"
    },
    {
      "inputs": [
        {
          "internalType": "address",
          "name": "owner_",
          "type": "address"
        }
      ],
      "name": "balanceOf",
      "outputs": [
        {
          "internalType": "uint256",
          "name": "balance",
          "type": "uint256"
        }
      ],
      "stateMutability": "view",
      "type": "function"
    },
    {
      "inputs": [
        {
          "internalType": "uint256",
          "name": "tokenId_",
          "type": "uint256"
        }
      ],
      "name": "balanceOf",
      "outputs": [
        {
          "internalType": "uint256",
          "name": "",
          "type": "uint256"
        }
      ],
      "stateMutability": "view",
      "type": "function"
    },
    {
      "inputs": [],
      "name": "contractURI",
      "outputs": [
        {
          "internalType": "string",
          "name": "",
          "type": "string"
        }
      ],
      "stateMutability": "view",
      "type": "function"
    },
    {
      "inputs": [
        {
          "internalType": "uint256",
          "name": "tokenId_",
          "type": "uint256"
        }
      ],
      "name": "getApproved",
      "outputs": [
        {
          "internalType": "address",
          "name": "",
          "type": "address"
        }
      ],
      "stateMutability": "view",
      "type": "function"
    },
    {
      "inputs": [
        {
          "internalType": "address",
          "name": "owner_",
          "type": "address"
        },
        {
          "internalType": "address",
          "name": "operator_",
          "type": "address"
        }
      ],
      "name": "isApprovedForAll",
      "outputs": [
        {
          "internalType": "bool",
          "name": "",
          "type": "bool"
        }
      ],
      "stateMutability": "view",
      "type": "function"
    },
    {
      "inputs": [],
      "name": "metadataDescriptor",
      "outputs": [
        {
          "internalType": "contract IERC3525MetadataDescriptor",
          "name": "",
          "type": "address"
        }
      ],
      "stateMutability": "view",
      "type": "function"
    },
    {
      "inputs": [],
      "name": "name",
      "outputs": [
        {
          "internalType": "string",
          "name": "",
          "type": "string"
        }
      ],
      "stateMutability": "view",
      "type": "function"
    },
    {
      "inputs": [
        {
          "internalType": "uint256",
          "name": "tokenId_",
          "type": "uint256"
        }
      ],
      "name": "ownerOf",
      "outputs": [
        {
          "internalType": "address",
          "name": "owner_",
          "type": "address"
        }
      ],
      "stateMutability": "view",
      "type": "function"
    },
    {
      "inputs": [
        {
          "internalType": "address",
          "name": "from_",
          "type": "address"
        },
        {
          "internalType": "address",
          "name": "to_",
          "type": "address"
        },
        {
          "internalType": "uint256",
          "name": "tokenId_",
          "type": "uint256"
        }
      ],
      "name": "safeTransferFrom",
      "outputs": [],
      "stateMutability": "payable",
      "type": "function"
    },
    {
      "inputs": [
        {
          "internalType": "address",
          "name": "from_",
          "type": "address"
        },
        {
          "internalType": "address",
          "name": "to_",
          "type": "address"
        },
        {
          "internalType": "uint256",
          "name": "tokenId_",
          "type": "uint256"
        },
        {
          "internalType": "bytes",
          "name": "data_",
          "type": "bytes"
        }
      ],
      "name": "safeTransferFrom",
      "outputs": [],
      "stateMutability": "payable",
      "type": "function"
    },
    {
      "inputs": [
        {
          "internalType": "address",
          "name": "operator_",
          "type": "address"
        },
        {
          "internalType": "bool",
          "name": "approved_",
          "type": "bool"
        }
      ],
      "name": "setApprovalForAll",
      "outputs": [],
      "stateMutability": "nonpayable",
      "type": "function"
    },
    {
      "inputs": [
        {
          "internalType": "uint256",
          "name": "tokenId_",
          "type": "uint256"
        }
      ],
      "name": "slotOf",
      "outputs": [
        {
          "internalType": "uint256",
          "name": "",
          "type": "uint256"
        }
      ],
      "stateMutability": "view",
      "type": "function"
    },
    {
      "inputs": [
        {
          "internalType": "uint256",
          "name": "slot_",
          "type": "uint256"
        }
      ],
      "name": "slotURI",
      "outputs": [
        {
          "internalType": "string",
          "name": "",
          "type": "string"
        }
      ],
      "stateMutability": "view",
      "type": "function"
    },
    {
      "inputs": [
        {
          "internalType": "bytes4",
          "name": "interfaceId",
          "type": "bytes4"
        }
      ],
      "name": "supportsInterface",
      "outputs": [
        {
          "internalType": "bool",
          "name": "",
          "type": "bool"
        }
      ],
      "stateMutability": "view",
      "type": "function"
    },
    {
      "inputs": [],
      "name": "symbol",
      "outputs": [
        {
          "internalType": "string",
          "name": "",
          "type": "string"
        }
      ],
      "stateMutability": "view",
      "type": "function"
    },
    {
      "inputs": [
        {
          "internalType": "uint256",
          "name": "index_",
          "type": "uint256"
        }
      ],
      "name": "tokenByIndex",
      "outputs": [
        {
          "internalType": "uint256",
          "name": "",
          "type": "uint256"
        }
      ],
      "stateMutability": "view",
      "type": "function"
    },
    {
      "inputs": [
        {
          "internalType": "address",
          "name": "owner_",
          "type": "address"
        },
        {
          "internalType": "uint256",
          "name": "index_",
          "type": "uint256"
        }
      ],
      "name": "tokenOfOwnerByIndex",
      "outputs": [
        {
          "internalType": "uint256",
          "name": "",
          "type": "uint256"
        }
      ],
      "stateMutability": "view",
      "type": "function"
    },
    {
      "inputs": [
        {
          "internalType": "uint256",
          "name": "tokenId_",
          "type": "uint256"
        }
      ],
      "name": "tokenURI",
      "outputs": [
        {
          "internalType": "string",
          "name": "",
          "type": "string"
        }
      ],
      "stateMutability": "view",
      "type": "function"
    },
    {
      "inputs": [],
      "name": "totalSupply",
      "outputs": [
        {
          "internalType": "uint256",
          "name": "",
          "type": "uint256"
        }
      ],
      "stateMutability": "view",
      "type": "function"
    },
    {
      "inputs": [
        {
          "internalType": "uint256",
          "name": "fromTokenId_",
          "type": "uint256"
        },
        {
          "internalType": "address",
          "name": "to_",
          "type": "address"
        },
        {
          "internalType": "uint256",
          "name": "value_",
          "type": "uint256"
        }
      ],
      "name": "transferFrom",
      "outputs": [
        {
          "internalType": "uint256",
          "name": "newTokenId",
          "type": "uint256"
        }
      ],
      "stateMutability": "payable",
      "type": "function"
    },
    {
      "inputs": [
        {
          "internalType": "address",
          "name": "from_",
          "type": "address"
        },
        {
          "internalType": "address",
          "name": "to_",
          "type": "address"
        },
        {
          "internalType": "uint256",
          "name": "tokenId_",
          "type": "uint256"
        }
      ],
      "name": "transferFrom",
      "outputs": [],
      "stateMutability": "payable",
      "type": "function"
    },
    {
      "inputs": [
        {
          "internalType": "uint256",
          "name": "fromTokenId_",
          "type": "uint256"
        },
        {
          "internalType": "uint256",
          "name": "toTokenId_",
          "type": "uint256"
        },
        {
          "internalType": "uint256",
          "name": "value_",
          "type": "uint256"
        }
      ],
      "name": "transferFrom",
      "outputs": [],
      "stateMutability": "payable",
      "type": "function"
    },
    {
      "inputs": [],
      "name": "valueDecimals",
      "outputs": [
        {
          "internalType": "uint8",
          "name": "",
          "type": "uint8"
        }
      ],
      "stateMutability": "view",
      "type": "function"
    }
  ],
  "bytecode": "0x6080604052346200033f57620024e4803803806200001d8162000344565b9283398101906060818303126200033f5780516001600160401b0391908281116200033f5783620000509183016200036a565b91602093848301518281116200033f57604091620000709185016200036a565b9201519260ff84168094036200033f5760019283600355815183811162000329576000908154938685811c951680156200031e575b898610146200030a578190601f95868111620002b7575b5089908683116001146200025357849262000247575b5050600019600383901b1c191690861b1781555b8151938411620002335784548581811c9116801562000228575b888210146200021457838111620001cc575b508692841160011462000166578394959650926200015a575b5050600019600383901b1c191690821b1790555b60ff1960025416176002556040516121079081620003dd8239f35b0151905038806200012b565b9190601f1984169685845280842093905b888210620001b457505083859697106200019a575b505050811b0190556200013f565b015160001960f88460031b161c191690553880806200018c565b80878596829496860151815501950193019062000177565b8582528782208480870160051c8201928a88106200020a575b0160051c019086905b828110620001fe57505062000112565b838155018690620001ee565b92508192620001e5565b634e487b7160e01b82526022600452602482fd5b90607f169062000100565b634e487b7160e01b81526041600452602490fd5b015190503880620000d2565b8480528a85208994509190601f198416865b8d828210620002a0575050841162000286575b505050811b018155620000e6565b015160001960f88460031b161c1916905538808062000278565b8385015186558c9790950194938401930162000265565b9091508380528984208680850160051c8201928c861062000300575b918a91869594930160051c01915b828110620002f1575050620000bc565b8681558594508a9101620002e1565b92508192620002d3565b634e487b7160e01b83526022600452602483fd5b94607f1694620000a5565b634e487b7160e01b600052604160045260246000fd5b600080fd5b6040519190601f01601f191682016001600160401b038111838210176200032957604052565b919080601f840112156200033f5782516001600160401b0381116200032957602090620003a0601f8201601f1916830162000344565b928184528282870101116200033f5760005b818110620003c857508260009394955001015290565b8581018301518482018401528201620003b256fe608060408181526004918236101561001657600080fd5b600092833560e01c91826301ffc9a714610efc5750816306fdde0314610e31578163081812fc14610e11578163095ea7b314610cdd57816309c3dd8714610c685781630f485c02146108d857816318160ddd146108b957816323b872dd14610894578163263f3e7e146108745781632f745c59146107cb578163310ed7f0146107a05781633e7e86691461077e57816342842e0e1461075b5781634f6ccce7146106d55781636352211e146106a457816370a082311461067e578163840f7113146106555781638cb0a511146105ad57816395d89b41146104975781639cc7f70814610477578163a22cb465146103a4578163b88d4fde1461031f578163c87b56dd14610285578163e345e0bc14610253578163e8a3d48514610196575063e985e9c51461014357600080fd5b3461019257806003193601126101925760ff81602093610161610ff7565b610169611012565b6001600160a01b0391821683526007875283832091168252600201855220549151911615158152f35b5080fd5b90503461024f578260031936011261024f578282516101b481611087565b526008546001600160a01b03168015610236578390835192838092631c97e82760e21b82525afa90811561022a57836102039492610207575b5050905b51918291602083526020830190610fd2565b0390f35b61022392503d8091833e61021b81836110b9565b810190611220565b38806101ed565b505051903d90823e3d90fd5b505080516102039261024782611087565b8152906101f1565b8280fd5b8284346102825781600319360112610282575061027b602092610274611012565b90356112d9565b9051908152f35b80fd5b90503461024f57602036600319011261024f5780356102ab6102a6826115e3565b611172565b8383516102b781611087565b526008546001600160a01b031691821561030c579060248592855194859384926344a5a61760e11b84528301525afa90811561022a578361020394926102075750509051918291602083526020830190610fd2565b5050506102039181519061024782611087565b919050608036600319011261024f57610336610ff7565b61033e611012565b846064359467ffffffffffffffff86116101925736602387011215610192578501359461037661036d876110db565b955195866110b9565b858552366024878301011161019257856103a1966024602093018388013785010152604435916113ea565b80f35b9190503461024f578060031936011261024f576103bf610ff7565b9060243591821515809303610473576001600160a01b0316923384146104315750338452600760205260028185200183855260205280842060ff1981541660ff8416179055519081527f17307eab39ab6107e8899845ad3d59bd9653f200f220920489ca2b5937696c3160203392a380f35b6020606492519162461bcd60e51b8352820152601a60248201527f455243333532353a20617070726f766520746f2063616c6c65720000000000006044820152fd5b8480fd5b828434610282576020366003190112610282575061027b60209235611148565b8284346102825780600319360112610282578151918160019283549384811c918186169586156105a3575b6020968785108114610590578899509688969785829a52918260001461056957505060011461050e575b50505061020392916104ff9103856110b9565b51928284938452830190610fd2565b91908693508083527fb10e2d527612073b26eecdfd717e6a320cf44b4afac2b0732d9fcbe2b7fa0cf65b82841061055157505050820101816104ff6102036104ec565b8054848a018601528895508794909301928101610538565b60ff19168782015293151560051b860190930193508492506104ff915061020390506104ec565b634e487b7160e01b835260228a52602483fd5b92607f16926104c2565b8391506105b936611028565b929091906105dd6001600160a01b03806105d2856111be565b169085161415611282565b6105e782336114b5565b156105f857506103a19394506116c2565b608490602087519162461bcd60e51b8352820152603160248201527f455243333532353a20617070726f76652063616c6c6572206973206e6f74206f6044820152701ddb995c881b9bdc88185c1c1c9bdd9959607a1b6064820152fd5b50503461019257816003193601126101925760085490516001600160a01b039091168152602090f35b5050346101925760203660031901126101925760209061027b61069f610ff7565b61130a565b82843461028257602036600319011261028257506106c4602092356111be565b90516001600160a01b039091168152f35b90508234610282576020366003190112610282575080359060055482101561070c57602083610703846110f7565b50549051908152f35b608490602084519162461bcd60e51b8352820152602360248201527f455243333532353a20676c6f62616c20696e646578206f7574206f6620626f756044820152626e647360e81b6064820152fd5b836103a18461076936611052565b9192519261077684611087565b8584526113ea565b50503461019257816003193601126101925760209060ff600254169051908152f35b83906060366003190112610192576103a19035604435906107c2828233611549565b602435906118a3565b905082346102825782600319360112610282576107e6610ff7565b602435926107f38261130a565b841015610826576020856108188682878760018060a01b03168152600786522061149d565b91905490519160031b1c8152f35b608490602086519162461bcd60e51b8352820152602260248201527f455243333532353a206f776e657220696e646578206f7574206f6620626f756e604482015261647360f01b6064820152fd5b828434610282576020366003190112610282575061027b602092356111fc565b836103a16108a136611052565b916108b46108af84336114b5565b611383565b611b43565b5050346101925781600319360112610192576020906005549051908152f35b9190506108e436611028565b94906108f1868433611549565b600354946108fe86611803565b60035561090a846111fc565b916001600160a01b0380821692908315610c1b578815610bce5761092d896115e3565b610b8b5787519061093d82611087565b868252885167ffffffffffffffff939060c0810185811182821017610b7857918c918a969594938d528281528c60208201938b855281830189815260608401918c835260808501938b855260a08601998a526005549b8c92815260066020522055600160401b95868b1015610b65576109bd60019b8c81016005556110f7565b959095610b52579060059594939291518555518b8501555160028401558660038401915116906bffffffffffffffffffffffff60a01b91828254161790558685840192511690825416179055019351918251958611610b3f578511610b2c57508254848455808510610b04575b506020019188526020882090885b848110610aef5750505050505060209793879384610ae99794610a5c828096611611565b837fddf252ad1be2c89b69c2b068fc378daa952ba7f163c4a11628f55a4df523b3ef8180a481837fe4f48c240d3b994948aa54f3e2f5fca59263dfe1d52b6e4cf39a5d249b5ccb658280a481815260068952610aba878220546110f7565b50507f0b2aac84f3ec956911fd78eae5311062972ff949f38412e8da39069d9f068cc6898851838152a36118a3565b51908152f35b85906020838651169501948185015501610a38565b838a52858560208c2092830192015b828110610b21575050610a2a565b8b8155018690610b13565b634e487b7160e01b8a5260419052602489fd5b634e487b7160e01b8b526041825260248bfd5b50634e487b7160e01b8f528e865260248ffd5b634e487b7160e01b8f526041865260248ffd5b634e487b7160e01b8a526041835260248afd5b875162461bcd60e51b8152602081840152601d60248201527f455243333532353a20746f6b656e20616c7265616479206d696e7465640000006044820152606490fd5b875162461bcd60e51b8152602081840152602160248201527f455243333532353a2063616e6e6f74206d696e74207a65726f20746f6b656e496044820152601960fa1b6064820152608490fd5b875162461bcd60e51b8152602081840152602160248201527f455243333532353a206d696e7420746f20746865207a65726f206164647265736044820152607360f81b6064820152608490fd5b90503461024f57602036600319011261024f57828251610c8781611087565b526008546001600160a01b03169081156102365783906024845180948193633601bfc560e11b83528035908301525afa90811561022a578361020394926102075750509051918291602083526020830190610fd2565b9180915060031936011261024f57610cf3610ff7565b6024359290916001600160a01b0391908280610d0e876111be565b16941693610d1e81861415611282565b803314908115610def575b5015610d8657610d439085875260066020528620546110f7565b500180546001600160a01b03191683179055610d5e836111be565b167f8c5be1e5ebec7d5bd14f71427d1e84f3dd0314c0f7b2291e5b200ac8c7c3b9258480a480f35b906020608492519162461bcd60e51b8352820152603960248201527f455243333532353a20617070726f76652063616c6c6572206973206e6f74206f60448201527f776e6572206e6f7220617070726f76656420666f7220616c6c000000000000006064820152fd5b90508652600760205260028187200133875260205260ff818720541638610d29565b82843461028257602036600319011261028257506106c46020923561146a565b82843461028257806003193601126102825781519181825492600184811c91818616958615610ef2575b6020968785108114610590578899509688969785829a529182600014610569575050600114610e975750505061020392916104ff9103856110b9565b91908693508280527f290decd9548b62a8d60345a988386fc84ba6bc95484008f6362f93160ef3e5635b828410610eda57505050820101816104ff6102036104ec565b8054848a018601528895508794909301928101610ec1565b92607f1692610e5b565b84913461024f57602036600319011261024f573563ffffffff60e01b811680910361024f57602092506301ffc9a760e01b8114908115610f9e575b8115610f8d575b8115610f7c575b8115610f6b575b8115610f5a575b5015158152f35b635b5e139f60e01b14905083610f53565b63780e9d6360e01b81149150610f4c565b6370b0048160e11b81149150610f45565b6380ac58cd60e01b81149150610f3e565b630354d60560e61b81149150610f37565b60005b838110610fc25750506000910152565b8181015183820152602001610fb2565b90602091610feb81518092818552858086019101610faf565b601f01601f1916010190565b600435906001600160a01b038216820361100d57565b600080fd5b602435906001600160a01b038216820361100d57565b606090600319011261100d57600435906024356001600160a01b038116810361100d579060443590565b606090600319011261100d576001600160a01b0390600435828116810361100d5791602435908116810361100d579060443590565b6020810190811067ffffffffffffffff8211176110a357604052565b634e487b7160e01b600052604160045260246000fd5b90601f8019910116810190811067ffffffffffffffff8211176110a357604052565b67ffffffffffffffff81116110a357601f01601f191660200190565b600554811015611132576006906005600052027f036b6384b5eca791c62761152d0c79bb0604c104a5fb6f4eb0703f3154bb3db00190600090565b634e487b7160e01b600052603260045260246000fd5b6111546102a6826115e3565b6000526006602052600261116c6040600020546110f7565b50015490565b1561117957565b60405162461bcd60e51b815260206004820152601960248201527f455243333532353a20696e76616c696420746f6b656e204944000000000000006044820152606490fd5b6111ca6102a6826115e3565b60005260066020526111e06040600020546110f7565b50600301546001600160a01b0316906111fa821515611172565b565b6112086102a6826115e3565b6000526006602052600161116c6040600020546110f7565b60208183031261100d5780519067ffffffffffffffff821161100d570181601f8201121561100d578051611253816110db565b9261126160405194856110b9565b8184526020828401011161100d5761127f9160208085019101610faf565b90565b1561128957565b60405162461bcd60e51b815260206004820152602260248201527f455243333532353a20617070726f76616c20746f2063757272656e74206f776e60448201526132b960f11b6064820152608490fd5b6112e56102a6826115e3565b600052600460205260406000209060018060a01b031660005260205260406000205490565b6001600160a01b0316801561132a57600052600760205260406000205490565b60405162461bcd60e51b815260206004820152602b60248201527f455243333532353a2062616c616e636520717565727920666f7220746865207a60448201526a65726f206164647265737360a81b6064820152608490fd5b1561138a57565b60405162461bcd60e51b815260206004820152603260248201527f455243333532353a207472616e736665722063616c6c6572206973206e6f74206044820152711bdddb995c881b9bdc88185c1c1c9bdd995960721b6064820152608490fd5b9061140e9392916113fe6108af84336114b5565b611409838383611b43565b611fba565b1561141557565b60405162461bcd60e51b815260206004820152602760248201527f455243333532353a207472616e7366657220746f206e6f6e204552433732315260448201526632b1b2b4bb32b960c91b6064820152608490fd5b6114766102a6826115e3565b600052600660205261148c6040600020546110f7565b50600401546001600160a01b031690565b80548210156111325760005260206000200190600090565b906001600160a01b0380806114c9846111be565b169316918383149384156114fc575b5083156114e6575b50505090565b6114f29192935061146a565b16143880806114e0565b909350600052600760205260026040600020018260005260205260ff6040600020541692386114d8565b9190820391821161153357565b634e487b7160e01b600052601160045260246000fd5b61155381836112d9565b61155d83836114b5565b15806115d7575b61156f575b50505050565b838110611592576115899361158391611526565b916116c2565b38808080611569565b60405162461bcd60e51b815260206004820152601f60248201527f455243333532353a20696e73756666696369656e7420616c6c6f77616e6365006044820152606490fd5b50600019811415611564565b600554151590816115f2575090565b809150600052600660205261160b6040600020546110f7565b50541490565b6000908282526006602052600361162b60408420546110f7565b500180546001600160a01b0319166001600160a01b0390921691821790558082526007602081815260408085208054878752600191909101835281862055928452528120805491600160401b8310156116ae5750816116939160016111fa959401815561149d565b90919082549060031b600019811b9283911b16911916179055565b634e487b7160e01b81526041600452602490fd5b6001600160a01b0380831693919284156117ab57836116e091611812565b1561172e575b5060207f621b050de0ad08b51d19b48b3e6df75348c4de6bdd93e81b252ca62e28265b1b918360005260048252604060002085600052825280604060002055604051908152a3565b9082600052600660205260056117486040600020546110f7565b500190815492600160401b8410156110a3578561178e8560209560017f621b050de0ad08b51d19b48b3e6df75348c4de6bdd93e81b252ca62e28265b1b9801815561149d565b909283549160031b90811b9283911b1691191617905591506116e6565b60405162461bcd60e51b815260206004820152602a60248201527f455243333532353a20617070726f76652076616c756520746f20746865207a65604482015269726f206164647265737360b01b6064820152608490fd5b60001981146115335760010190565b600090828252600660209080825260409061182f828620546110f7565b509260058094015496865b88811061184d5750505050505050905090565b81885283835261186b8187611864888c20546110f7565b500161149d565b905460039190911b1c6001600160a01b03908116908816146118955761189090611803565b61183a565b505050505050505050600190565b9291906118af846115e3565b15611aee576118bd816115e3565b15611a9b576000848152602092600684526040926118dd848420546110f7565b50818452600686526118f1858520546110f7565b50906002810190815490858210611a4457600101546001840154036119e9579061191e8560029493611526565b9055019687548381018091116119d557611973959697985581817f0b2aac84f3ec956911fd78eae5311062972ff949f38412e8da39069d9f068cc6898951878152a385519361196c85611087565b8452611e62565b1561197c575050565b60849250519062461bcd60e51b82526004820152602d60248201527f455243333532353a207472616e736665722072656a656374656420627920455260448201526c21999a991aa932b1b2b4bb32b960991b6064820152fd5b634e487b7160e01b85526011600452602485fd5b865162461bcd60e51b815260048101899052602e60248201527f455243333532353a207472616e7366657220746f20746f6b656e20776974682060448201526d191a5999995c995b9d081cdb1bdd60921b6064820152608490fd5b875162461bcd60e51b8152600481018a9052602a60248201527f455243333532353a20696e73756666696369656e742062616c616e636520666f60448201526939103a3930b739b332b960b11b6064820152608490fd5b60405162461bcd60e51b815260206004820152602560248201527f455243333532353a207472616e7366657220746f20696e76616c696420746f6b604482015264195b88125160da1b6064820152608490fd5b60405162461bcd60e51b815260206004820152602760248201527f455243333532353a207472616e736665722066726f6d20696e76616c696420746044820152661bdad95b88125160ca1b6064820152608490fd5b611b4c836111be565b6001600160a01b0391821691908116829003611dc157808316928315611d6e57611b75856111fc565b50611b7f85611148565b5060009185835260209060068252604090611b9c828620546110f7565b50600490810180546001600160a01b03199081169091559091898782611bc1836111be565b167f8c5be1e5ebec7d5bd14f71427d1e84f3dd0314c0f7b2291e5b200ac8c7c3b9258280a4898752600685526005611bfb858920546110f7565b500180549091858988818f5b868410611d37575050505050505080549087815581611d1a575b5050888652600684526003611c38848820546110f7565b5001908154169055858552600783528185209182549360001994858101908111611d075790611c698893928661149d565b90549060031b1c9060018601908c85528181528385205492611c8f81611693868b61149d565b855252818320558982528120558154908115611cf4575092828892611cf0947fddf252ad1be2c89b69c2b068fc378daa952ba7f163c4a11628f55a4df523b3ef97960191611cdd838361149d565b909182549160031b1b1916905555611611565b80a4565b634e487b7160e01b865260319052602485fd5b634e487b7160e01b885260118452602488fd5b8752848720908101905b81811015611c2157878155600101611d24565b611d649486928b611d48878c61149d565b96905494835252209260031b1c168c5289528a88812055611803565b8690888b8f611c07565b60405162461bcd60e51b815260206004820152602560248201527f455243333532353a207472616e7366657220746f20746865207a65726f206164604482015264647265737360d81b6064820152608490fd5b60405162461bcd60e51b8152602060048201526024808201527f455243333532353a207472616e736665722066726f6d20696e76616c6964206f6044820152633bb732b960e11b6064820152608490fd5b9081602091031261100d57516001600160e01b03198116810361100d5790565b3d15611e5d573d90611e43826110db565b91611e5160405193846110b9565b82523d6000602084013e565b606090565b929092611e6e846111be565b803b63ffffffff1615611fb0576040516301ffc9a760e01b8152629ce20b60e01b6004820181905295602095926001600160a01b0316918681602481865afa8091600091611f7a575b5090611ed3575050505050505050611ecd611e32565b50600190565b15611f6e5760008694611f12604051978896879586948d865233600487015260248601526044850152606484015260a0608484015260a4830190610fd2565b03925af1918215611f6257600092611f35575b50506001600160e01b0319161490565b611f549250803d10611f5b575b611f4c81836110b9565b810190611e12565b3880611f25565b503d611f42565b6040513d6000823e3d90fd5b50505050505050600190565b8881813d8311611fa9575b611f8f81836110b9565b810103126101925751908115158203610282575038611eb7565b503d611f85565b5050505050600190565b9192813b63ffffffff16156120c857602091612012916000604051958680958194630a85bd0160e11b9a8b845233600485015260018060a01b0380951660248501526044840152608060648401526084830190610fd2565b0393165af1600091816120a8575b5061209a5761202d611e32565b805190816120955760405162461bcd60e51b815260206004820152603260248201527f4552433732313a207472616e7366657220746f206e6f6e20455243373231526560448201527131b2b4bb32b91034b6b83632b6b2b73a32b960711b6064820152608490fd5b602001fd5b6001600160e01b0319161490565b6120c191925060203d8111611f5b57611f4c81836110b9565b9038612020565b5050505060019056fea264697066735822122046f9338f85d55b9fae9559eab4c6a853800250a67bca727f9d4076a4efdbe47664736f6c63430008110033",
  "linkReferences": {},
  "deployedLinkReferences": {}
}