{
  "_format": "hh-sol-artifact-1",
  "contractName": "ServiceMetadataDescriptor",
  "sourceName": "contracts/ServiceMetadataDescriptor.sol",
  "abi": [
    {
      "inputs": [
        {
          "internalType": "string",
          "name": "baseURI_",
          "type": "string"
        },
        {
          "internalType": "string",
          "name": "contractDescription_",
          "type": "string"
        },
        {
          "internalType": "string",
          "name": "contractImage_",
          "type": "string"
        },
        {
          "internalType": "address",
          "name": "slotRegistry_",
          "type": "address"
        }
      ],
      "stateMutability": "nonpayable",
      "type": "constructor"
    },
    {
      "inputs": [],
      "name": "constructContractURI",
      "outputs": [
        {
          "internalType": "string",
          "name": "",
          "type": "string"
        }
      ],
      "stateMutability": "view",
      "type": "function"
    },
    {
      "inputs": [
        {
          "internalType": "uint256",
          "name": "slot_",
          "type": "uint256"
        }
      ],
      "name": "constructSlotURI",
      "outputs": [
        {
          "internalType": "string",
          "name": "",
          "type": "string"
        }
      ],
      "stateMutability": "view",
      "type": "function"
    },
    {
      "inputs": [
        {
          "internalType": "uint256",
          "name": "tokenId_",
          "type": "uint256"
        }
      ],
      "name": "constructTokenURI",
      "outputs": [
        {
          "internalType": "string",
          "name": "",
          "type": "string"
        }
      ],
      "stateMutability": "view",
      "type": "function"
    },
    {
      "inputs": [
        {
          "internalType": "uint256",
          "name": "tokenId_",
          "type": "uint256"
        }
      ],
      "name": "getTokenDescription",
      "outputs": [
        {
          "internalType": "string",
          "name": "",
          "type": "string"
        }
      ],
      "stateMutability": "view",
      "type": "function"
    },
    {
      "inputs": [
        {
          "internalType": "uint256",
          "name": "tokenId_",
          "type": "uint256"
        }
      ],
      "name": "getTokenImage",
      "outputs": [
        {
          "internalType": "string",
          "name": "",
          "type": "string"
        }
      ],
      "stateMutability": "view",
      "type": "function"
    },
    {
      "inputs": [
        {
          "internalType": "uint256",
          "name": "tokenId_",
          "type": "uint256"
        }
      ],
      "name": "getTokenUUID",
      "outputs": [
        {
          "internalType": "string",
          "name": "",
          "type": "string"
        }
      ],
      "stateMutability": "view",
      "type": "function"
    },
    {
      "inputs": [
        {
          "internalType": "string",
          "name": "uri_",
          "type": "string"
        }
      ],
      "name": "setBaseURI",
      "outputs": [],
      "stateMutability": "nonpayable",
      "type": "function"
    },
    {
      "inputs": [
        {
          "internalType": "uint256",
          "name": "tokenId_",
          "type": "uint256"
        },
        {
          "internalType": "string",
          "name": "description_",
          "type": "string"
        }
      ],
      "name": "setTokenDescription",
      "outputs": [],
      "stateMutability": "nonpayable",
      "type": "function"
    },
    {
      "inputs": [
        {
          "internalType": "uint256",
          "name": "tokenId_",
          "type": "uint256"
        },
        {
          "internalType": "string",
          "name": "imgname_",
          "type": "string"
        }
      ],
      "name": "setTokenImage",
      "outputs": [],
      "stateMutability": "nonpayable",
      "type": "function"
    },
    {
      "inputs": [
        {
          "internalType": "uint256",
          "name": "tokenId_",
          "type": "uint256"
        },
        {
          "internalType": "string",
          "name": "uuid_",
          "type": "string"
        }
      ],
      "name": "setTokenUUID",
      "outputs": [],
      "stateMutability": "nonpayable",
      "type": "function"
    }
  ],
  "bytecode": "0x60806040523480156200001157600080fd5b5060405162001ada38038062001ada833981016040819052620000349162000150565b600162000042858262000292565b50600262000051848262000292565b50600362000060838262000292565b50600080546001600160a01b0319166001600160a01b0392909216919091179055506200035e915050565b634e487b7160e01b600052604160045260246000fd5b600082601f830112620000b357600080fd5b81516001600160401b0380821115620000d057620000d06200008b565b604051601f8301601f19908116603f01168101908282118183101715620000fb57620000fb6200008b565b816040528381526020925086838588010111156200011857600080fd5b600091505b838210156200013c57858201830151818301840152908201906200011d565b600093810190920192909252949350505050565b600080600080608085870312156200016757600080fd5b84516001600160401b03808211156200017f57600080fd5b6200018d88838901620000a1565b95506020870151915080821115620001a457600080fd5b620001b288838901620000a1565b94506040870151915080821115620001c957600080fd5b50620001d887828801620000a1565b606087015190935090506001600160a01b0381168114620001f857600080fd5b939692955090935050565b600181811c908216806200021857607f821691505b6020821081036200023957634e487b7160e01b600052602260045260246000fd5b50919050565b601f8211156200028d57600081815260208120601f850160051c81016020861015620002685750805b601f850160051c820191505b81811015620002895782815560010162000274565b5050505b505050565b81516001600160401b03811115620002ae57620002ae6200008b565b620002c681620002bf845462000203565b846200023f565b602080601f831160018114620002fe5760008415620002e55750858301515b600019600386901b1c1916600185901b17855562000289565b600085815260208120601f198616915b828110156200032f578886015182559484019460019091019084016200030e565b50858210156200034e5787850151600019600388901b60f8161c191681555b5050505050600190811b01905550565b61176c806200036e6000396000f3fe608060405234801561001057600080fd5b506004361061009e5760003560e01c806371f0442e1161006657806371f0442e1461011a578063725fa09c1461012d578063842251d414610135578063894b4c2e14610148578063b3154c081461015b57600080fd5b80631375d843146100a3578063246a908b146100cc57806355f804b3146100e157806364140ec0146100f45780636c037f8a14610107575b600080fd5b6100b66100b1366004610d22565b61016e565b6040516100c39190610d5f565b60405180910390f35b6100df6100da366004610e57565b610210565b005b6100df6100ef366004610e9e565b61022d565b6100df610102366004610e57565b61023d565b6100b6610115366004610d22565b610255565b6100b6610128366004610d22565b6102cb565b6100b66102e8565b6100df610143366004610e57565b61040d565b6100b6610156366004610d22565b610425565b6100b6610169366004610d22565b61052f565b600081815260066020526040902080546060919061018b90610edb565b80601f01602080910402602001604051908101604052809291908181526020018280546101b790610edb565b80156102045780601f106101d957610100808354040283529160200191610204565b820191906000526020600020905b8154815290600101906020018083116101e757829003601f168201915b50505050509050919050565b60008281526004602052604090206102288282610f63565b505050565b60016102398282610f63565b5050565b60008281526005602052604090206102288282610f63565b60606102a56102638361054c565b61026c846105c5565b610275856105f7565b61027e86610679565b604051602001610291949392919061103f565b6040516020818303038152906040526106fb565b6040516020016102b5919061110d565b6040516020818303038152906040529050919050565b600081815260056020526040902080546060919061018b90610edb565b606060003390506103e8816001600160a01b03166306fdde036040518163ffffffff1660e01b8152600401600060405180830381865afa158015610330573d6000803e3d6000fd5b505050506040513d6000823e601f3d908101601f191682016040526103589190810190611152565b61036061084e565b6103686108e0565b6103d5856001600160a01b0316633e7e86696040518163ffffffff1660e01b8152600401602060405180830381865afa1580156103a9573d6000803e3d6000fd5b505050506040513d601f19601f820116820180604052508101906103cd91906111c9565b60ff16610915565b60405160200161029194939291906111ec565b6040516020016103f8919061110d565b60405160208183030381529060405291505090565b60008281526006602052604090206102288282610f63565b606033610508610434846109a8565b61043d8561052f565b61044686610a2a565b604051631398fee160e31b8152600481018890526104b9906001600160a01b03871690639cc7f708906024015b602060405180830381865afa158015610490573d6000803e3d6000fd5b505050506040513d601f19601f820116820180604052508101906104b491906112bf565b610915565b60405163131f9f3f60e11b8152600481018990526104ea906001600160a01b0388169063263f3e7e90602401610473565b6104f389610a5f565b604051602001610291969594939291906112d8565b604051602001610518919061110d565b604051602081830303815290604052915050919050565b600081815260046020526040902080546060919061018b90610edb565b60005460405163ec327a2160e01b8152600481018390526060916001600160a01b03169063ec327a21906024015b600060405180830381865afa158015610597573d6000803e3d6000fd5b505050506040513d6000823e601f3d908101601f191682016040526105bf9190810190611152565b92915050565b60005460405163bc74ebb960e01b8152600481018390526060916001600160a01b03169063bc74ebb99060240161057a565b6000546040516309c3dd8760e01b8152600481018390526060916001600160a01b0316906309c3dd8790602401600060405180830381865afa158015610641573d6000803e3d6000fd5b505050506040513d6000823e601f3d908101601f191682016040526106699190810190611152565b6040516020016102b591906113fe565b6000546040516309c3dd8760e01b8152600481018390526060916001600160a01b0316906309c3dd8790602401600060405180830381865afa1580156106c3573d6000803e3d6000fd5b505050506040513d6000823e601f3d908101601f191682016040526106eb9190810190611152565b6040516020016102b59190611428565b6060815160000361071a57505060408051602081019091526000815290565b60006040518060600160405280604081526020016116f760409139905060006003845160026107499190611472565b6107539190611485565b61075e9060046114a7565b67ffffffffffffffff81111561077657610776610d92565b6040519080825280601f01601f1916602001820160405280156107a0576020820181803683370190505b509050600182016020820185865187015b8082101561080c576003820191508151603f8160121c168501518453600184019350603f81600c1c168501518453600184019350603f8160061c168501518453600184019350603f81168501518453506001830192506107b1565b5050600386510660018114610828576002811461083b57610843565b603d6001830353603d6002830353610843565b603d60018303535b509195945050505050565b60606002805461085d90610edb565b80601f016020809104026020016040519081016040528092919081815260200182805461088990610edb565b80156108d65780601f106108ab576101008083540402835291602001916108d6565b820191906000526020600020905b8154815290600101906020018083116108b957829003601f168201915b5050505050905090565b606060016108ed33610a8d565b600360405160200161090193929190611531565b604051602081830303815290604052905090565b6060600061092283610aa3565b600101905060008167ffffffffffffffff81111561094257610942610d92565b6040519080825280601f01601f19166020018201604052801561096c576020820181803683370190505b5090508181016020015b600019016f181899199a1a9b1b9c1cb0b131b232b360811b600a86061a8153600a850494508461097657509392505050565b6060336001600160a01b03166306fdde036040518163ffffffff1660e01b8152600401600060405180830381865afa1580156109e8573d6000803e3d6000fd5b505050506040513d6000823e601f3d908101601f19168201604052610a109190810190611152565b610a1983610915565b6040516020016102b5929190611585565b60606001610a3730610a8d565b6000848152600660209081526040808320600583529281902090516102b595949392016115c2565b60606001610a6c33610a8d565b60008481526006602090815260409182902091516102b59493929101611634565b60606105bf6001600160a01b0383166014610b7b565b60008072184f03e93ff9f4daa797ed6e38ed64bf6a1f0160401b8310610ae25772184f03e93ff9f4daa797ed6e38ed64bf6a1f0160401b830492506040015b6d04ee2d6d415b85acef81000000008310610b0e576d04ee2d6d415b85acef8100000000830492506020015b662386f26fc100008310610b2c57662386f26fc10000830492506010015b6305f5e1008310610b44576305f5e100830492506008015b6127108310610b5857612710830492506004015b60648310610b6a576064830492506002015b600a83106105bf5760010192915050565b60606000610b8a8360026114a7565b610b95906002611472565b67ffffffffffffffff811115610bad57610bad610d92565b6040519080825280601f01601f191660200182016040528015610bd7576020820181803683370190505b509050600360fc1b81600081518110610bf257610bf26116c9565b60200101906001600160f81b031916908160001a905350600f60fb1b81600181518110610c2157610c216116c9565b60200101906001600160f81b031916908160001a9053506000610c458460026114a7565b610c50906001611472565b90505b6001811115610cc8576f181899199a1a9b1b9c1cb0b131b232b360811b85600f1660108110610c8457610c846116c9565b1a60f81b828281518110610c9a57610c9a6116c9565b60200101906001600160f81b031916908160001a90535060049490941c93610cc1816116df565b9050610c53565b508315610d1b5760405162461bcd60e51b815260206004820181905260248201527f537472696e67733a20686578206c656e67746820696e73756666696369656e74604482015260640160405180910390fd5b9392505050565b600060208284031215610d3457600080fd5b5035919050565b60005b83811015610d56578181015183820152602001610d3e565b50506000910152565b6020815260008251806020840152610d7e816040850160208701610d3b565b601f01601f19169190910160400192915050565b634e487b7160e01b600052604160045260246000fd5b604051601f8201601f1916810167ffffffffffffffff81118282101715610dd157610dd1610d92565b604052919050565b600067ffffffffffffffff821115610df357610df3610d92565b50601f01601f191660200190565b600082601f830112610e1257600080fd5b8135610e25610e2082610dd9565b610da8565b818152846020838601011115610e3a57600080fd5b816020850160208301376000918101602001919091529392505050565b60008060408385031215610e6a57600080fd5b82359150602083013567ffffffffffffffff811115610e8857600080fd5b610e9485828601610e01565b9150509250929050565b600060208284031215610eb057600080fd5b813567ffffffffffffffff811115610ec757600080fd5b610ed384828501610e01565b949350505050565b600181811c90821680610eef57607f821691505b602082108103610f0f57634e487b7160e01b600052602260045260246000fd5b50919050565b601f82111561022857600081815260208120601f850160051c81016020861015610f3c5750805b601f850160051c820191505b81811015610f5b57828155600101610f48565b505050505050565b815167ffffffffffffffff811115610f7d57610f7d610d92565b610f9181610f8b8454610edb565b84610f15565b602080601f831160018114610fc65760008415610fae5750858301515b600019600386901b1c1916600185901b178555610f5b565b600085815260208120601f198616915b82811015610ff557888601518255948401946001909101908401610fd6565b50858210156110135787850151600019600388901b60f8161c191681555b5050505050600190811b01905550565b60008151611035818560208601610d3b565b9290920192915050565b683d913730b6b2911d1160b91b81528451600090611064816009850160208a01610d3b565b701116113232b9b1b934b83a34b7b7111d1160791b600991840191820152855161109581601a840160208a01610d3b565b6a11161134b6b0b3b2911d1160a91b601a929091019182015284516110c1816025840160208901610d3b565b6e111611383937b832b93a34b2b9911d60891b6025929091019182015283516110f1816034840160208801610d3b565b607d60f81b603492909101918201526035019695505050505050565b7f646174613a6170706c69636174696f6e2f6a736f6e3b6261736536342c00000081526000825161114581601d850160208701610d3b565b91909101601d0192915050565b60006020828403121561116457600080fd5b815167ffffffffffffffff81111561117b57600080fd5b8201601f8101841361118c57600080fd5b805161119a610e2082610dd9565b8181528560208385010111156111af57600080fd5b6111c0826020830160208601610d3b565b95945050505050565b6000602082840312156111db57600080fd5b815160ff81168114610d1b57600080fd5b683d913730b6b2911d1160b91b81528451600090611211816009850160208a01610d3b565b701116113232b9b1b934b83a34b7b7111d1160791b600991840191820152855161124281601a840160208a01610d3b565b6a11161134b6b0b3b2911d1160a91b601a9290910191820152845161126e816025840160208901610d3b565b721116113b30b63ab2a232b1b4b6b0b639911d1160691b6025929091019182015283516112a2816038840160208801610d3b565b61227d60f01b60389290910191820152603a019695505050505050565b6000602082840312156112d157600080fd5b5051919050565b683d913730b6b2911d1160b91b815286516000906112fd816009850160208c01610d3b565b701116113232b9b1b934b83a34b7b7111d1160791b600991840191820152875161132e81601a840160208c01610d3b565b6a11161134b6b0b3b2911d1160a91b601a9290910191820152865161135a816025840160208b01610d3b565b6c1116113130b630b731b2911d1160991b602592909101918201528551611388816032840160208a01610d3b565b6911161139b637ba111d1160b11b6032929091019182015284516113b381603c840160208901610d3b565b6113f06113e36113dd603c848601016e111611383937b832b93a34b2b9911d60891b8152600f0190565b87611023565b607d60f81b815260010190565b9a9950505050505050505050565b60008251611410818460208701610d3b565b652f696d61676560d01b920191825250600601919050565b6000825161143a818460208701610d3b565b6f17b83937b832b93a34b2b9973539b7b760811b920191825250601001919050565b634e487b7160e01b600052601160045260246000fd5b808201808211156105bf576105bf61145c565b6000826114a257634e487b7160e01b600052601260045260246000fd5b500490565b80820281158282048414176105bf576105bf61145c565b600081546114cb81610edb565b600182811680156114e357600181146114f857611527565b60ff1984168752821515830287019450611527565b8560005260208060002060005b8581101561151e5781548a820152908401908201611505565b50505082870194505b5050505092915050565b600061153d82866114be565b68636f6e74726163742f60b81b8152845161155f816009840160208901610d3b565b602f60f81b6009929091019182015261157b600a8201856114be565b9695505050505050565b60008351611597818460208801610d3b565b61202360f01b90830190815283516115b6816002840160208801610d3b565b01600201949350505050565b60006115ce82876114be565b692f636f6e74726163742f60b01b815285516115f181600a840160208a01610d3b565b662f746f6b656e2f60c81b600a929091019182015261161360118201866114be565b9050602f60f81b815261162960018201856114be565b979650505050505050565b6e7b70726f706572746965735f75726960881b81526000611658600f8301866114be565b68636f6e74726163742f60b81b8152845161167a816009840160208901610d3b565b662f746f6b656e2f60c81b6009929091019182015261169c60108201856114be565b6f17b83937b832b93a34b2b9973539b7b760811b8152607d60f81b60108201526011019695505050505050565b634e487b7160e01b600052603260045260246000fd5b6000816116ee576116ee61145c565b50600019019056fe4142434445464748494a4b4c4d4e4f505152535455565758595a6162636465666768696a6b6c6d6e6f707172737475767778797a303132333435363738392b2fa2646970667358221220ff9209fa763cebe143e190fa2f1ad1e413f9b97c45e4f09a1f7a97ba3d94292564736f6c63430008110033",
  "linkReferences": {},
  "deployedLinkReferences": {}
}