{
  "_format": "hh-sol-artifact-1",
  "contractName": "ServiceMetadataDescriptor",
  "sourceName": "contracts/ServiceMetadataDescriptor.sol",
  "abi": [
    {
      "inputs": [
        {
          "internalType": "string",
          "name": "baseURI_",
          "type": "string"
        },
        {
          "internalType": "string",
          "name": "contractDescription_",
          "type": "string"
        },
        {
          "internalType": "string",
          "name": "contractImage_",
          "type": "string"
        },
        {
          "internalType": "address",
          "name": "slotRegistry_",
          "type": "address"
        }
      ],
      "stateMutability": "nonpayable",
      "type": "constructor"
    },
    {
      "inputs": [],
      "name": "baseURI",
      "outputs": [
        {
          "internalType": "string",
          "name": "",
          "type": "string"
        }
      ],
      "stateMutability": "view",
      "type": "function"
    },
    {
      "inputs": [],
      "name": "constructContractURI",
      "outputs": [
        {
          "internalType": "string",
          "name": "",
          "type": "string"
        }
      ],
      "stateMutability": "view",
      "type": "function"
    },
    {
      "inputs": [],
      "name": "constructContractURI2",
      "outputs": [
        {
          "internalType": "string",
          "name": "",
          "type": "string"
        }
      ],
      "stateMutability": "view",
      "type": "function"
    },
    {
      "inputs": [
        {
          "internalType": "uint256",
          "name": "slot_",
          "type": "uint256"
        }
      ],
      "name": "constructSlotURI",
      "outputs": [
        {
          "internalType": "string",
          "name": "",
          "type": "string"
        }
      ],
      "stateMutability": "view",
      "type": "function"
    },
    {
      "inputs": [
        {
          "internalType": "uint256",
          "name": "tokenId_",
          "type": "uint256"
        }
      ],
      "name": "constructTokenURI",
      "outputs": [
        {
          "internalType": "string",
          "name": "",
          "type": "string"
        }
      ],
      "stateMutability": "view",
      "type": "function"
    },
    {
      "inputs": [
        {
          "internalType": "uint256",
          "name": "tokenId_",
          "type": "uint256"
        },
        {
          "internalType": "uint256",
          "name": "balance_",
          "type": "uint256"
        }
      ],
      "name": "constructTokenURI2",
      "outputs": [
        {
          "internalType": "string",
          "name": "",
          "type": "string"
        }
      ],
      "stateMutability": "view",
      "type": "function"
    },
    {
      "inputs": [
        {
          "internalType": "uint256",
          "name": "tokenId_",
          "type": "uint256"
        }
      ],
      "name": "getTokenDescription",
      "outputs": [
        {
          "internalType": "string",
          "name": "",
          "type": "string"
        }
      ],
      "stateMutability": "view",
      "type": "function"
    },
    {
      "inputs": [
        {
          "internalType": "uint256",
          "name": "tokenId_",
          "type": "uint256"
        }
      ],
      "name": "getTokenImage",
      "outputs": [
        {
          "internalType": "string",
          "name": "",
          "type": "string"
        }
      ],
      "stateMutability": "view",
      "type": "function"
    },
    {
      "inputs": [
        {
          "internalType": "uint256",
          "name": "tokenId_",
          "type": "uint256"
        }
      ],
      "name": "getTokenUUID",
      "outputs": [
        {
          "internalType": "string",
          "name": "",
          "type": "string"
        }
      ],
      "stateMutability": "view",
      "type": "function"
    },
    {
      "inputs": [
        {
          "internalType": "string",
          "name": "uri_",
          "type": "string"
        }
      ],
      "name": "setBaseURI",
      "outputs": [],
      "stateMutability": "nonpayable",
      "type": "function"
    },
    {
      "inputs": [
        {
          "internalType": "uint256",
          "name": "tokenId_",
          "type": "uint256"
        },
        {
          "internalType": "string",
          "name": "description_",
          "type": "string"
        }
      ],
      "name": "setTokenDescription",
      "outputs": [],
      "stateMutability": "nonpayable",
      "type": "function"
    },
    {
      "inputs": [
        {
          "internalType": "uint256",
          "name": "tokenId_",
          "type": "uint256"
        },
        {
          "internalType": "string",
          "name": "imgname_",
          "type": "string"
        }
      ],
      "name": "setTokenImage",
      "outputs": [],
      "stateMutability": "nonpayable",
      "type": "function"
    },
    {
      "inputs": [
        {
          "internalType": "uint256",
          "name": "tokenId_",
          "type": "uint256"
        },
        {
          "internalType": "string",
          "name": "uuid_",
          "type": "string"
        }
      ],
      "name": "setTokenUUID",
      "outputs": [],
      "stateMutability": "nonpayable",
      "type": "function"
    }
  ],
  "bytecode": "0x608060405234620004865762002423803803806200001d816200048b565b9283398101608082820312620004865781516001600160401b0391908281116200048657816200004f918501620004b1565b91602092838501518281116200048657836200006d918701620004b1565b92604086015183811162000486576060916200008b918801620004b1565b9501516001600160a01b03811695908690036200048657815193838511620002c3576001948554938685811c951680156200047b575b88861014620002a2578190601f9586811162000425575b508890868311600114620003bd57600092620003b1575b5050600019600383901b1c191690861b1785555b805190848211620002c357600254908682811c92168015620003a6575b88831014620002a25781858493116200034f575b508790858311600114620002e557600092620002d9575b5050600019600383901b1c191690851b176002555b8051928311620002c35760039485548581811c91168015620002b8575b82821014620002a25783811162000257575b5080928411600114620001ed5750928293918392600094620001e1575b50501b9160001990841b1c19161790555b600080546001600160a01b031916919091179055604051611eff9081620005248239f35b015192503880620001ac565b919083601f1981168760005284600020946000905b888383106200023c575050501062000223575b505050811b019055620001bd565b015160001983861b60f8161c1916905538808062000215565b85870151885590960195948501948793509081019062000202565b86600052816000208480870160051c82019284881062000298575b0160051c019086905b8281106200028b5750506200018f565b600081550186906200027b565b9250819262000272565b634e487b7160e01b600052602260045260246000fd5b90607f16906200017d565b634e487b7160e01b600052604160045260246000fd5b0151905038806200014b565b90879350601f198316916002600052896000209260005b8b8282106200033857505084116200031e575b505050811b0160025562000160565b015160001960f88460031b161c191690553880806200030f565b8385015186558b97909501949384019301620002fc565b9091506002600052876000208580850160051c8201928a86106200039c575b918991869594930160051c01915b8281106200038c57505062000134565b600081558594508991016200037c565b925081926200036e565b91607f169162000120565b015190503880620000ef565b90889350601f19831691846000528a6000209260005b8c8282106200040e5750508411620003f4575b505050811b01855562000103565b015160001960f88460031b161c19169055388080620003e6565b8385015186558c97909501949384019301620003d3565b90915087600052886000208680850160051c8201928b861062000471575b918a91869594930160051c01915b82811062000461575050620000d8565b600081558594508a910162000451565b9250819262000443565b94607f1694620000c1565b600080fd5b6040519190601f01601f191682016001600160401b03811183821017620002c357604052565b919080601f84011215620004865782516001600160401b038111620002c357602090620004e7601f8201601f191683016200048b565b92818452828287010111620004865760005b8181106200050f57508260009394955001015290565b8581018301518482018401528201620004f956fe608060408181526004908136101561001657600080fd5b600092833560e01c9081631375d8431461149c57508063246a908b1461139e57806331264fc11461118c57806355f804b31461104857806364140ec014610f495780636c0360eb14610e8a5780636c037f8a14610b6e57806371f0442e14610ada578063725fa09c14610862578063842251d41461072a578063894b4c2e146103fe5780639cdeaae0146101805763b3154c08146100b357600080fd5b3461017c57602091826003193601126101785780358452825280832091815192848154906100e082611a79565b808752926001928084169081156101545750600114610119575b610115878761010b828c03836115b2565b5191829182611554565b0390f35b9080949750528583205b82841061014157505050826101159461010b928201019438806100fa565b8054868501880152928601928101610123565b60ff19168887015250505050151560051b830101925061010b8261011538806100fa565b8380fd5b8280fd5b50913461038c578260031936011261038c57813561019d816119c9565b928183526020918183528584209186519480868554916101bc83611a79565b92838352888301976001918a83821691826000146103de5750506001146103a1575b50506101ec925003876115b2565b6101f583611de0565b91610201602435611886565b9389519163131f9f3f60e11b83528201528581602481335afa918215610396578092610360575b61011561027a8b61010b606c8d8d8d6103478e8e8e6102468f611886565b9261024f611e7a565b966102a460298d519e8f809c683d913730b6b2911d1160b91b8c8301528b8151948593019101611531565b8a0191701116113232b9b1b934b83a34b7b7111d1160791b6029840152518093603a840190611531565b016a11161134b6b0b3b2911d1160a91b603a8201526102cc8251809388604585019101611531565b016c1116113130b630b731b2911d1160991b60458201526102f68251809387605285019101611531565b016911161139b637ba111d1160b11b605282015261031d8251809386605c85019101611531565b01916e111611383937b832b93a34b2b9911d60891b605c8401528351938491606b85019101611531565b01607d60f81b606b82015203604c8101855201836115b2565b9091508582813d831161038f575b61037881836115b2565b8101031261038c575051610347606c610228565b80fd5b503d61036e565b8951903d90823e3d90fd5b89925085528185209085915b8583106103c55750506101ec935082010138806101de565b81948484839695965492010152019101899289926103ad565b92509350506101ec94915060ff19168852151560051b82010138806101de565b50913461038c57602091826003193601126107265780359061041f826119c9565b9282815281855285812090865190808284549161043b83611a79565b928383528a8301966001918c83821691826000146107065750506001146106ca575b505061046b925003836115b2565b61047485611de0565b938851631398fee160e31b815286828201528881602481335afa80156106c0578390610691575b6104a59150611886565b9589519163131f9f3f60e11b83528201528781602481335afa91821561039657809261065e575b5050610610606c888a6101159b9961010b99603d9961064e9d99610615996105526104f96105289b611886565b95610502611e7a565b97519b8c99683d913730b6b2911d1160b91b818c0152825192839160298d019101611531565b880191701116113232b9b1b934b83a34b7b7111d1160791b6029840152518093603a840190611531565b016a11161134b6b0b3b2911d1160a91b603a82015261057a825180938d604585019101611531565b016c1116113130b630b731b2911d1160991b60458201526105a4825180938c605285019101611531565b016911161139b637ba111d1160b11b60528201526105cb825180938b605c85019101611531565b016e111611383937b832b93a34b2b9911d60891b605c8201526105f7825180938a606b85019101611531565b01607d60f81b606b82015203604c8101845201826115b2565b611719565b845195827f646174613a6170706c69636174696f6e2f6a736f6e3b6261736536342c000000889485015282519283918686019101611531565b810103601d8101855201836115b2565b9091508782813d831161068a575b61067681836115b2565b8101031261038c575051610610606c6104cc565b503d61066c565b508881813d83116106b9575b6106a781836115b2565b8101031261017c576104a5905161049b565b503d61069d565b8a513d85823e3d90fd5b8b925085528185209085915b8583106106ee57505061046b9350820101388061045d565b80548389018501528794508c939092019181016106d6565b925093505061046b94915060ff19168752151560051b820101388061045d565b5080fd5b508290346107265761073b3661163c565b939083526020916006835283209184519167ffffffffffffffff831161084f57506107668354611a79565b601f811161080c575b5080601f83116001146107aa575083948293949261079f575b50508160011b916000199060031b1c191617905580f35b015190508480610788565b90601f198316958486528286209286905b8882106107f4575050836001959697106107db575b505050811b01905580f35b015160001960f88460031b161c191690558480806107d0565b806001859682949686015181550195019301906107bb565b838552818520601f840160051c810191838510610845575b601f0160051c01905b81811061083a575061076f565b85815560010161082d565b9091508190610824565b634e487b7160e01b855260419052602484fd5b50903461017c578260031936011261017c5781516306fdde0360e01b81529083828281335afa918215610acd578492610aa9575b5082519084600254906108a882611a79565b808552846020988992838301956001908181169081600014610a8a5750600114610a2e575b50506108db925003856115b2565b6108e3611bb2565b928787518092633e7e866960e01b825281335afa918215610a2357605a61064e989761010b97603d976101159c9761092f60ff610615996109849961061099916109f6575b5016611886565b928c51978895683d913730b6b2911d1160b91b8c88015261095a8c825192839160298b019101611531565b860191701116113232b9b1b934b83a34b7b7111d1160791b6029840152518093603a840190611531565b016a11161134b6b0b3b2911d1160a91b603a8201526109ac825180938b604585019101611531565b01721116113b30b63ab2a232b1b4b6b0b639911d1160691b60458201526109dc825180938a605885019101611531565b0161227d60f01b605882015203603a8101845201826115b2565b610a1691508c8d3d10610a1c575b610a0e81836115b2565b8101906116ce565b38610928565b503d610a04565b8751903d90823e3d90fd5b600286527f405787fa12a823e0f2b7631cc41b3ba8828b3321ca811111fa75cd3aa3bb5ace9492508591905b818310610a7257508b9450508201016108db386108cd565b85548a84018501529485019489945091830191610a5a565b9150506108db94925060ff19168652151560051b8201018992386108cd565b610ac69192503d8086833e610abe81836115b2565b81019061166f565b9038610896565b50505051903d90823e3d90fd5b503461017c576020918260031936011261017857358352600582528083209181519284815490610b0982611a79565b808752926001928084169081156101545750600114610b3357610115878761010b828c03836115b2565b9080949750528583205b828410610b5b57505050826101159461010b928201019438806100fa565b8054868501880152928601928101610b3d565b50903461017c576020928360031936011261038c578054835163ec327a2160e01b815283358185018190529092916001600160a01b0316908284602481855afa938415610e80578394610e64575b50855163bc74ebb960e01b8152858101829052948386602481865afa958615610e5a578496610e3e575b5086516309c3dd8760e01b80825282820184905290938585602481845afa948515610e3457918a9594939187938496610e13575b5090602491610c5a60268d518a652f696d61676560d01b81610c46849e85019d8e815193849201611531565b83019182015203600681018b5201896115b2565b8b51958694859384528301525afa938415610a23578094610df6575b50508551918288808201868197519283910191610c9292611531565b81018981016f17b83937b832b93a34b2b9973539b7b760811b905203601081018452603001610cc190846115b2565b8651958695683d913730b6b2911d1160b91b8a880152805190818b60298a01920191610cec92611531565b8601701116113232b9b1b934b83a34b7b7111d1160791b6029820152815191828b603a8401920191610d1d92611531565b01906a11161134b6b0b3b2911d1160a91b603a83015251918260458301610d4392611531565b01906e111611383937b832b93a34b2b9911d60891b604583015251918260548301610d6d92611531565b0160548101607d60f81b905203603581018252605501610d8d90826115b2565b610d9690611719565b81517f646174613a6170706c69636174696f6e2f6a736f6e3b6261736536342c00000084820152815190938492610dd4918391603d86019101611531565b810103601d81018352603d01610dea90836115b2565b51610115819282611554565b610e0b9294503d8091833e610abe81836115b2565b913880610c76565b602492919650610e2c903d8087833e610abe81836115b2565b959091610c1a565b89513d88823e3d90fd5b610e539196503d8086833e610abe81836115b2565b9438610be6565b87513d86823e3d90fd5b610e799194503d8085833e610abe81836115b2565b9238610bbc565b86513d85823e3d90fd5b838234610726578160031936011261072657805190826001805491610eae83611a79565b80865292828116908115610f215750600114610ed7575b50505061010b826101159403836115b2565b9450808552600080516020611eaa8339815191525b828610610f095750505061010b8260206101159582010194610ec5565b80546020878701810191909152909501948101610eec565b61011597508693506020925061010b94915060ff191682840152151560051b82010194610ec5565b5082903461072657610f5a3661163c565b939083526020916005835283209184519167ffffffffffffffff831161084f5750610f858354611a79565b601f8111611005575b5080601f8311600114610fbd575083948293949261079f5750508160011b916000199060031b1c191617905580f35b90601f198316958486528286209286905b888210610fed575050836001959697106107db57505050811b01905580f35b80600185968294968601518155019501930190610fce565b838552818520601f840160051c81019183851061103e575b601f0160051c01905b8181106110335750610f8e565b858155600101611026565b909150819061101d565b82843461038c576020806003193601126107265767ffffffffffffffff83358181116101785761107b90369086016115f0565b93845191821161117957506001916110938354611a79565b601f8111611127575b5080601f83116001146110d657508394829394926110cb575b5050600019600383901b1c191690821b17905580f35b0151905084806110b5565b838552601f19831695600080516020611eaa833981519152929186905b88821061111057505083859697106107db57505050811b01905580f35b8087859682949686015181550195019301906110f3565b838552600080516020611eaa833981519152601f840160051c81019183851061116f575b601f0160051c019084905b82811061116457505061109c565b868155018490611156565b909150819061114b565b634e487b7160e01b845260419052602483fd5b50903461017c578260031936011261017c5781516306fdde0360e01b81529083828281335afa918215610acd578492611382575b5082519084906002546111d281611a79565b808552846020948582019360019087828216918260001461136457505060011461130a575b50611204925003856115b2565b61120c611bb2565b918387518092633e7e866960e01b825281335afa9081156113005761127997969361010b969361124f60ff605a98956112cf956101159e916112e9575016611886565b9489519a8b97683d913730b6b2911d1160b91b878a0152610528815180928960298d019101611531565b016a11161134b6b0b3b2911d1160a91b603a8201526112a18251809386604585019101611531565b0191721116113b30b63ab2a232b1b4b6b0b639911d1160691b60458401528351938491605885019101611531565b0161227d60f01b605882015203603a8101855201836115b2565b610a169150873d8911610a1c57610a0e81836115b2565b87513d8a823e3d90fd5b60028b528691508a907f405787fa12a823e0f2b7631cc41b3ba8828b3321ca811111fa75cd3aa3bb5ace5b85831061134c5750506112049350820101386111f7565b8054838b018501528994508893909201918101611335565b60ff1916875261120495151560051b85010192503891506111f79050565b6113979192503d8086833e610abe81836115b2565b90386111c0565b50829034610726576113af3661163c565b9390835260209181835283209184519167ffffffffffffffff831161084f57506113d98354611a79565b601f8111611459575b5080601f8311600114611411575083948293949261079f5750508160011b916000199060031b1c191617905580f35b90601f198316958486528286209286905b888210611441575050836001959697106107db57505050811b01905580f35b80600185968294968601518155019501930190611422565b838552818520601f840160051c810191838510611492575b601f0160051c01905b81811061148757506113e2565b85815560010161147a565b9091508190611471565b92905034610178576020908160031936011261152d57358452600681528184208054856114c882611a79565b8087529260019280841690811561015457506001146114f257610115878761010b828c03836115b2565b9080949750528583205b82841061151a57505050826101159461010b928201019438806100fa565b80548685018801529286019281016114fc565b8480fd5b60005b8381106115445750506000910152565b8181015183820152602001611534565b604091602082526115748151809281602086015260208686019101611531565b601f01601f1916010190565b6060810190811067ffffffffffffffff82111761159c57604052565b634e487b7160e01b600052604160045260246000fd5b90601f8019910116810190811067ffffffffffffffff82111761159c57604052565b67ffffffffffffffff811161159c57601f01601f191660200190565b81601f8201121561163757803590611607826115d4565b9261161560405194856115b2565b8284526020838301011161163757816000926020809301838601378301015290565b600080fd5b90604060031983011261163757600435916024359067ffffffffffffffff82116116375761166c916004016115f0565b90565b6020818303126116375780519067ffffffffffffffff8211611637570181601f820112156116375780516116a2816115d4565b926116b060405194856115b2565b818452602082840101116116375761166c9160208085019101611531565b90816020910312611637575160ff811681036116375790565b906116f1826115d4565b6116fe60405191826115b2565b828152809261170f601f19916115d4565b0190602036910137565b8051156118615760405161172c81611580565b604081527f4142434445464748494a4b4c4d4e4f505152535455565758595a61626364656660208201527f6768696a6b6c6d6e6f707172737475767778797a303132333435363738392b2f6040820152815160029283820180921161184b576003918290046001600160fe1b038116810361184b576117ae908594951b6116e7565b936020850193829183518401925b8381106117fa57505050505106806001146117e7576002146117dc575090565b603d90600019015390565b50603d9081600019820153600119015390565b85600491979293949701918251600190603f9082828260121c16880101518453828282600c1c16880101518385015382828260061c16880101518885015316850101518782015301959291906117bc565b634e487b7160e01b600052601160045260246000fd5b506040516020810181811067ffffffffffffffff82111761159c576040526000815290565b806000917a184f03e93ff9f4daa797ed6e38ed64bf6a1f010000000000000000808210156119bb575b506d04ee2d6d415b85acef8100000000808310156119ac575b50662386f26fc100008083101561199d575b506305f5e1008083101561198e575b506127108083101561197f575b50606482101561196f575b600a80921015611965575b60019081602161191d8287016116e7565b95860101905b61192f575b5050505090565b600019019083906f181899199a1a9b1b9c1cb0b131b232b360811b8282061a83530491821561196057919082611923565b611928565b916001019161190c565b9190606460029104910191611901565b600491939204910191386118f6565b600891939204910191386118e9565b601091939204910191386118da565b602091939204910191386118c8565b6040935081049150386118af565b6040516306fdde0360e01b815290600082600481335afa918215611a6d57600092611a47575b5060226119fe61166c92611886565b926040519381611a18869351809260208087019101611531565b820161202360f01b6020820152611a388251809360208785019101611531565b010360028101845201826115b2565b6119fe611a6460229261166c94953d8091833e610abe81836115b2565b939250506119ef565b6040513d6000823e3d90fd5b90600182811c92168015611aa9575b6020831014611a9357565b634e487b7160e01b600052602260045260246000fd5b91607f1691611a88565b90600091600190815491611ac683611a79565b92818116908115611b1c5750600114611ade57505050565b809192939450600052600080516020611eaa833981519152906000915b848310611b09575050500190565b8181602092548587015201920191611afb565b60ff191683525050811515909102019150565b600092918154611b3e81611a79565b92600191808316908115611b975750600114611b5b575b50505050565b90919293945060005260209081600020906000915b858310611b865750505050019038808080611b55565b805485840152918301918101611b70565b60ff1916845250505081151590910201915038808080611b55565b611bbb33611cbd565b6040519081602091611bce838301611ab3565b68636f6e74726163742f60b81b8152611bf08251809386600985019101611531565b01602f60f81b600982015260009060035493611c0b85611a79565b94600190818116908115611c9a5750600114611c38575b50505061166c925003601f1981018352826115b2565b9091925060036000527fc2575a0e9e593c00f959f8c92f12db2869c3395a3b0502d05e2516446f71f85b906000915b868310611c83575050505061166c92600a910101388080611c22565b8054838601600a0152879550918301918101611c67565b915050600a935061166c95915060ff191683830152801515020101388080611c22565b604051906001600160a01b0316611cd382611580565b602a82526020908183016040368237835115611dca57603090538251600190811015611dca57607860218501536029905b808211611d58575050611d15575090565b6064906040519062461bcd60e51b825280600483015260248201527f537472696e67733a20686578206c656e67746820696e73756666696369656e746044820152fd5b9091600f81166010811015611db5578551841015611db5576f181899199a1a9b1b9c1cb0b131b232b360811b901a85840185015360041c918015611da0576000190190611d04565b60246000634e487b7160e01b81526011600452fd5b60246000634e487b7160e01b81526032600452fd5b634e487b7160e01b600052603260045260246000fd5b61166c601191611def30611cbd565b906000526006602052611e6c604060002060056020526001611e5e604060002092604051978896611e2260208901611ab3565b692f636f6e74726163742f60b01b8152611e46825180936020600a85019101611531565b01662f746f6b656e2f60c81b600a8201520190611b2f565b602f60f81b81520190611b2f565b03601f1981018352826115b2565b604051617b7d60f01b6020820152600281526040810181811067ffffffffffffffff82111761159c576040529056feb10e2d527612073b26eecdfd717e6a320cf44b4afac2b0732d9fcbe2b7fa0cf6a26469706673582212203dabc739771c8e6f68eb2ab2ac8412ac3a180aba7847d36163cef424177ca31d64736f6c63430008110033",
  "linkReferences": {},
  "deployedLinkReferences": {}
}