{
  "_format": "hh-sol-artifact-1",
  "contractName": "Offering",
  "sourceName": "contracts/Offering.sol",
  "abi": [
    {
      "inputs": [
        {
          "internalType": "address",
          "name": "revenueAcct_",
          "type": "address"
        },
        {
          "internalType": "address",
          "name": "registry_",
          "type": "address"
        },
        {
          "internalType": "address",
          "name": "poolContract_",
          "type": "address"
        },
        {
          "internalType": "address",
          "name": "underlyingContract_",
          "type": "address"
        },
        {
          "internalType": "string",
          "name": "name_",
          "type": "string"
        },
        {
          "internalType": "string",
          "name": "symbol_",
          "type": "string"
        },
        {
          "internalType": "string",
          "name": "baseuri_",
          "type": "string"
        },
        {
          "internalType": "string",
          "name": "contractDescription_",
          "type": "string"
        },
        {
          "internalType": "string",
          "name": "contractImage_",
          "type": "string"
        },
        {
          "internalType": "uint8",
          "name": "decimals_",
          "type": "uint8"
        }
      ],
      "stateMutability": "nonpayable",
      "type": "constructor"
    },
    {
      "anonymous": false,
      "inputs": [
        {
          "indexed": true,
          "internalType": "address",
          "name": "_owner",
          "type": "address"
        },
        {
          "indexed": true,
          "internalType": "address",
          "name": "_approved",
          "type": "address"
        },
        {
          "indexed": true,
          "internalType": "uint256",
          "name": "_tokenId",
          "type": "uint256"
        }
      ],
      "name": "Approval",
      "type": "event"
    },
    {
      "anonymous": false,
      "inputs": [
        {
          "indexed": true,
          "internalType": "address",
          "name": "_owner",
          "type": "address"
        },
        {
          "indexed": true,
          "internalType": "address",
          "name": "_operator",
          "type": "address"
        },
        {
          "indexed": false,
          "internalType": "bool",
          "name": "_approved",
          "type": "bool"
        }
      ],
      "name": "ApprovalForAll",
      "type": "event"
    },
    {
      "anonymous": false,
      "inputs": [
        {
          "indexed": true,
          "internalType": "uint256",
          "name": "_tokenId",
          "type": "uint256"
        },
        {
          "indexed": true,
          "internalType": "address",
          "name": "_operator",
          "type": "address"
        },
        {
          "indexed": false,
          "internalType": "uint256",
          "name": "_value",
          "type": "uint256"
        }
      ],
      "name": "ApprovalValue",
      "type": "event"
    },
    {
      "anonymous": false,
      "inputs": [
        {
          "indexed": false,
          "internalType": "uint256",
          "name": "tokenId",
          "type": "uint256"
        },
        {
          "indexed": false,
          "internalType": "uint256",
          "name": "slot",
          "type": "uint256"
        },
        {
          "indexed": false,
          "internalType": "uint256",
          "name": "value",
          "type": "uint256"
        }
      ],
      "name": "CreditValue",
      "type": "event"
    },
    {
      "anonymous": false,
      "inputs": [
        {
          "indexed": false,
          "internalType": "uint256",
          "name": "offeringId",
          "type": "uint256"
        },
        {
          "indexed": false,
          "internalType": "uint256",
          "name": "slot",
          "type": "uint256"
        },
        {
          "indexed": false,
          "internalType": "uint256",
          "name": "value",
          "type": "uint256"
        }
      ],
      "name": "ListOffering",
      "type": "event"
    },
    {
      "anonymous": false,
      "inputs": [
        {
          "indexed": false,
          "internalType": "address",
          "name": "contractAddress",
          "type": "address"
        }
      ],
      "name": "MetadataDescriptor",
      "type": "event"
    },
    {
      "anonymous": false,
      "inputs": [
        {
          "indexed": false,
          "internalType": "uint256",
          "name": "tokenId",
          "type": "uint256"
        },
        {
          "indexed": false,
          "internalType": "uint256",
          "name": "slot",
          "type": "uint256"
        },
        {
          "indexed": false,
          "internalType": "uint256",
          "name": "value",
          "type": "uint256"
        }
      ],
      "name": "MintOffering",
      "type": "event"
    },
    {
      "anonymous": false,
      "inputs": [
        {
          "indexed": true,
          "internalType": "bytes32",
          "name": "role",
          "type": "bytes32"
        },
        {
          "indexed": true,
          "internalType": "bytes32",
          "name": "previousAdminRole",
          "type": "bytes32"
        },
        {
          "indexed": true,
          "internalType": "bytes32",
          "name": "newAdminRole",
          "type": "bytes32"
        }
      ],
      "name": "RoleAdminChanged",
      "type": "event"
    },
    {
      "anonymous": false,
      "inputs": [
        {
          "indexed": true,
          "internalType": "bytes32",
          "name": "role",
          "type": "bytes32"
        },
        {
          "indexed": true,
          "internalType": "address",
          "name": "account",
          "type": "address"
        },
        {
          "indexed": true,
          "internalType": "address",
          "name": "sender",
          "type": "address"
        }
      ],
      "name": "RoleGranted",
      "type": "event"
    },
    {
      "anonymous": false,
      "inputs": [
        {
          "indexed": true,
          "internalType": "bytes32",
          "name": "role",
          "type": "bytes32"
        },
        {
          "indexed": true,
          "internalType": "address",
          "name": "account",
          "type": "address"
        },
        {
          "indexed": true,
          "internalType": "address",
          "name": "sender",
          "type": "address"
        }
      ],
      "name": "RoleRevoked",
      "type": "event"
    },
    {
      "anonymous": false,
      "inputs": [
        {
          "indexed": true,
          "internalType": "address",
          "name": "metadataDescriptor",
          "type": "address"
        }
      ],
      "name": "SetMetadataDescriptor",
      "type": "event"
    },
    {
      "anonymous": false,
      "inputs": [
        {
          "indexed": true,
          "internalType": "uint256",
          "name": "_tokenId",
          "type": "uint256"
        },
        {
          "indexed": true,
          "internalType": "uint256",
          "name": "_oldSlot",
          "type": "uint256"
        },
        {
          "indexed": true,
          "internalType": "uint256",
          "name": "_newSlot",
          "type": "uint256"
        }
      ],
      "name": "SlotChanged",
      "type": "event"
    },
    {
      "anonymous": false,
      "inputs": [
        {
          "indexed": true,
          "internalType": "address",
          "name": "_from",
          "type": "address"
        },
        {
          "indexed": true,
          "internalType": "address",
          "name": "_to",
          "type": "address"
        },
        {
          "indexed": true,
          "internalType": "uint256",
          "name": "_tokenId",
          "type": "uint256"
        }
      ],
      "name": "Transfer",
      "type": "event"
    },
    {
      "anonymous": false,
      "inputs": [
        {
          "indexed": true,
          "internalType": "uint256",
          "name": "_fromTokenId",
          "type": "uint256"
        },
        {
          "indexed": true,
          "internalType": "uint256",
          "name": "_toTokenId",
          "type": "uint256"
        },
        {
          "indexed": false,
          "internalType": "uint256",
          "name": "_value",
          "type": "uint256"
        }
      ],
      "name": "TransferValue",
      "type": "event"
    },
    {
      "inputs": [],
      "name": "DEFAULT_ADMIN_ROLE",
      "outputs": [
        {
          "internalType": "bytes32",
          "name": "",
          "type": "bytes32"
        }
      ],
      "stateMutability": "view",
      "type": "function"
    },
    {
      "inputs": [],
      "name": "MKT_ARBITRATOR_ROLE",
      "outputs": [
        {
          "internalType": "bytes32",
          "name": "",
          "type": "bytes32"
        }
      ],
      "stateMutability": "view",
      "type": "function"
    },
    {
      "inputs": [],
      "name": "SERVICE_ADMIN_ROLE",
      "outputs": [
        {
          "internalType": "bytes32",
          "name": "",
          "type": "bytes32"
        }
      ],
      "stateMutability": "view",
      "type": "function"
    },
    {
      "inputs": [
        {
          "internalType": "string",
          "name": "uri_",
          "type": "string"
        }
      ],
      "name": "_setBaseURI",
      "outputs": [],
      "stateMutability": "nonpayable",
      "type": "function"
    },
    {
      "inputs": [
        {
          "internalType": "uint256",
          "name": "offeringId_",
          "type": "uint256"
        },
        {
          "internalType": "address",
          "name": "tokenContract_",
          "type": "address"
        },
        {
          "internalType": "uint256",
          "name": "tokenId_",
          "type": "uint256"
        }
      ],
      "name": "access",
      "outputs": [
        {
          "internalType": "bool",
          "name": "",
          "type": "bool"
        }
      ],
      "stateMutability": "nonpayable",
      "type": "function"
    },
    {
      "inputs": [
        {
          "internalType": "address",
          "name": "creditContract_",
          "type": "address"
        },
        {
          "internalType": "uint256",
          "name": "creditTokenId_",
          "type": "uint256"
        },
        {
          "internalType": "uint256",
          "name": "creditSlotId_",
          "type": "uint256"
        },
        {
          "internalType": "uint256",
          "name": "discountMilliBasisPts_",
          "type": "uint256"
        },
        {
          "internalType": "string",
          "name": "offeringAssetId_",
          "type": "string"
        },
        {
          "internalType": "uint256",
          "name": "value_",
          "type": "uint256"
        },
        {
          "internalType": "uint256",
          "name": "endTime_",
          "type": "uint256"
        }
      ],
      "name": "accessFromCredits",
      "outputs": [
        {
          "internalType": "bool",
          "name": "",
          "type": "bool"
        }
      ],
      "stateMutability": "nonpayable",
      "type": "function"
    },
    {
      "inputs": [
        {
          "internalType": "string",
          "name": "assetId_",
          "type": "string"
        },
        {
          "internalType": "uint256",
          "name": "msgId_",
          "type": "uint256"
        },
        {
          "internalType": "enum Offering.ActionType",
          "name": "actionType_",
          "type": "uint8"
        }
      ],
      "name": "addUserAction",
      "outputs": [],
      "stateMutability": "nonpayable",
      "type": "function"
    },
    {
      "inputs": [
        {
          "internalType": "uint256",
          "name": "tokenId_",
          "type": "uint256"
        },
        {
          "internalType": "address",
          "name": "operator_",
          "type": "address"
        }
      ],
      "name": "allowance",
      "outputs": [
        {
          "internalType": "uint256",
          "name": "",
          "type": "uint256"
        }
      ],
      "stateMutability": "view",
      "type": "function"
    },
    {
      "inputs": [
        {
          "internalType": "address",
          "name": "to_",
          "type": "address"
        },
        {
          "internalType": "uint256",
          "name": "tokenId_",
          "type": "uint256"
        }
      ],
      "name": "approve",
      "outputs": [],
      "stateMutability": "payable",
      "type": "function"
    },
    {
      "inputs": [
        {
          "internalType": "uint256",
          "name": "tokenId_",
          "type": "uint256"
        },
        {
          "internalType": "address",
          "name": "to_",
          "type": "address"
        },
        {
          "internalType": "uint256",
          "name": "value_",
          "type": "uint256"
        }
      ],
      "name": "approve",
      "outputs": [],
      "stateMutability": "payable",
      "type": "function"
    },
    {
      "inputs": [
        {
          "internalType": "address",
          "name": "creditContract_",
          "type": "address"
        }
      ],
      "name": "approveCredit",
      "outputs": [],
      "stateMutability": "nonpayable",
      "type": "function"
    },
    {
      "inputs": [
        {
          "internalType": "string",
          "name": "offeringAssetId_",
          "type": "string"
        }
      ],
      "name": "assetOffering",
      "outputs": [
        {
          "internalType": "uint256",
          "name": "",
          "type": "uint256"
        }
      ],
      "stateMutability": "view",
      "type": "function"
    },
    {
      "inputs": [
        {
          "internalType": "address",
          "name": "owner_",
          "type": "address"
        }
      ],
      "name": "balanceOf",
      "outputs": [
        {
          "internalType": "uint256",
          "name": "balance",
          "type": "uint256"
        }
      ],
      "stateMutability": "view",
      "type": "function"
    },
    {
      "inputs": [
        {
          "internalType": "uint256",
          "name": "tokenId_",
          "type": "uint256"
        }
      ],
      "name": "balanceOf",
      "outputs": [
        {
          "internalType": "uint256",
          "name": "",
          "type": "uint256"
        }
      ],
      "stateMutability": "view",
      "type": "function"
    },
    {
      "inputs": [],
      "name": "contractURI",
      "outputs": [
        {
          "internalType": "string",
          "name": "",
          "type": "string"
        }
      ],
      "stateMutability": "view",
      "type": "function"
    },
    {
      "inputs": [
        {
          "internalType": "uint256",
          "name": "tokenId_",
          "type": "uint256"
        }
      ],
      "name": "getApproved",
      "outputs": [
        {
          "internalType": "address",
          "name": "",
          "type": "address"
        }
      ],
      "stateMutability": "view",
      "type": "function"
    },
    {
      "inputs": [
        {
          "internalType": "string",
          "name": "assetId_",
          "type": "string"
        }
      ],
      "name": "getAssetUserActions",
      "outputs": [
        {
          "components": [
            {
              "internalType": "enum Offering.ActionType",
              "name": "actionType",
              "type": "uint8"
            },
            {
              "internalType": "uint256",
              "name": "actionTime",
              "type": "uint256"
            },
            {
              "internalType": "uint256",
              "name": "messageId",
              "type": "uint256"
            }
          ],
          "internalType": "struct Offering.UserAction[]",
          "name": "",
          "type": "tuple[]"
        }
      ],
      "stateMutability": "view",
      "type": "function"
    },
    {
      "inputs": [
        {
          "internalType": "bytes32",
          "name": "role",
          "type": "bytes32"
        }
      ],
      "name": "getRoleAdmin",
      "outputs": [
        {
          "internalType": "bytes32",
          "name": "",
          "type": "bytes32"
        }
      ],
      "stateMutability": "view",
      "type": "function"
    },
    {
      "inputs": [
        {
          "internalType": "address",
          "name": "user_",
          "type": "address"
        },
        {
          "internalType": "uint256",
          "name": "offeringId_",
          "type": "uint256"
        }
      ],
      "name": "grantAccess",
      "outputs": [
        {
          "internalType": "bool",
          "name": "",
          "type": "bool"
        }
      ],
      "stateMutability": "view",
      "type": "function"
    },
    {
      "inputs": [
        {
          "internalType": "bytes32",
          "name": "role",
          "type": "bytes32"
        },
        {
          "internalType": "address",
          "name": "account",
          "type": "address"
        }
      ],
      "name": "grantRole",
      "outputs": [],
      "stateMutability": "nonpayable",
      "type": "function"
    },
    {
      "inputs": [
        {
          "internalType": "bytes32",
          "name": "role",
          "type": "bytes32"
        },
        {
          "internalType": "address",
          "name": "account",
          "type": "address"
        }
      ],
      "name": "hasRole",
      "outputs": [
        {
          "internalType": "bool",
          "name": "",
          "type": "bool"
        }
      ],
      "stateMutability": "view",
      "type": "function"
    },
    {
      "inputs": [
        {
          "internalType": "address",
          "name": "creditContract_",
          "type": "address"
        }
      ],
      "name": "isApproveCredit",
      "outputs": [
        {
          "internalType": "bool",
          "name": "",
          "type": "bool"
        }
      ],
      "stateMutability": "view",
      "type": "function"
    },
    {
      "inputs": [
        {
          "internalType": "address",
          "name": "owner_",
          "type": "address"
        },
        {
          "internalType": "address",
          "name": "operator_",
          "type": "address"
        }
      ],
      "name": "isApprovedForAll",
      "outputs": [
        {
          "internalType": "bool",
          "name": "",
          "type": "bool"
        }
      ],
      "stateMutability": "view",
      "type": "function"
    },
    {
      "inputs": [],
      "name": "metadataDescriptor",
      "outputs": [
        {
          "internalType": "contract IERC3525MetadataDescriptor",
          "name": "",
          "type": "address"
        }
      ],
      "stateMutability": "view",
      "type": "function"
    },
    {
      "inputs": [
        {
          "internalType": "address",
          "name": "owner_",
          "type": "address"
        },
        {
          "internalType": "uint256",
          "name": "slotId_",
          "type": "uint256"
        },
        {
          "internalType": "uint256",
          "name": "value_",
          "type": "uint256"
        },
        {
          "internalType": "string",
          "name": "offeringAssetId_",
          "type": "string"
        }
      ],
      "name": "mint",
      "outputs": [
        {
          "internalType": "uint256",
          "name": "",
          "type": "uint256"
        }
      ],
      "stateMutability": "nonpayable",
      "type": "function"
    },
    {
      "inputs": [
        {
          "internalType": "address",
          "name": "creditContract_",
          "type": "address"
        },
        {
          "internalType": "uint256",
          "name": "creditTokenId_",
          "type": "uint256"
        },
        {
          "internalType": "uint256",
          "name": "discountMilliBasisPts_",
          "type": "uint256"
        },
        {
          "internalType": "address",
          "name": "owner_",
          "type": "address"
        },
        {
          "internalType": "uint256",
          "name": "slotId_",
          "type": "uint256"
        },
        {
          "internalType": "uint256",
          "name": "value_",
          "type": "uint256"
        },
        {
          "internalType": "string",
          "name": "offeringAssetId_",
          "type": "string"
        }
      ],
      "name": "mintFromCredits",
      "outputs": [
        {
          "internalType": "uint256",
          "name": "",
          "type": "uint256"
        }
      ],
      "stateMutability": "nonpayable",
      "type": "function"
    },
    {
      "inputs": [
        {
          "internalType": "address",
          "name": "owner_",
          "type": "address"
        },
        {
          "internalType": "string[]",
          "name": "asset_",
          "type": "string[]"
        },
        {
          "internalType": "string[]",
          "name": "assetUri_",
          "type": "string[]"
        },
        {
          "internalType": "string[]",
          "name": "assetType_",
          "type": "string[]"
        },
        {
          "internalType": "uint256",
          "name": "value_",
          "type": "uint256"
        },
        {
          "internalType": "uint256",
          "name": "slotId_",
          "type": "uint256"
        },
        {
          "internalType": "string",
          "name": "offeringAssetId_",
          "type": "string"
        },
        {
          "internalType": "string",
          "name": "side_",
          "type": "string"
        },
        {
          "internalType": "string",
          "name": "description_",
          "type": "string"
        },
        {
          "internalType": "string",
          "name": "image_",
          "type": "string"
        },
        {
          "internalType": "string",
          "name": "properties_",
          "type": "string"
        },
        {
          "internalType": "bool",
          "name": "canShareOwn_",
          "type": "bool"
        },
        {
          "internalType": "bool",
          "name": "isMultiAccess_",
          "type": "bool"
        }
      ],
      "name": "mktListOffering",
      "outputs": [],
      "stateMutability": "nonpayable",
      "type": "function"
    },
    {
      "inputs": [],
      "name": "name",
      "outputs": [
        {
          "internalType": "string",
          "name": "",
          "type": "string"
        }
      ],
      "stateMutability": "view",
      "type": "function"
    },
    {
      "inputs": [
        {
          "internalType": "uint256",
          "name": "offeringId_",
          "type": "uint256"
        }
      ],
      "name": "numOwners",
      "outputs": [
        {
          "internalType": "uint256",
          "name": "",
          "type": "uint256"
        }
      ],
      "stateMutability": "view",
      "type": "function"
    },
    {
      "inputs": [
        {
          "internalType": "uint256",
          "name": "offeringId_",
          "type": "uint256"
        }
      ],
      "name": "offering",
      "outputs": [
        {
          "components": [
            {
              "internalType": "address",
              "name": "creator",
              "type": "address"
            },
            {
              "internalType": "uint256",
              "name": "offeringId",
              "type": "uint256"
            },
            {
              "internalType": "bytes32[]",
              "name": "assets",
              "type": "bytes32[]"
            },
            {
              "internalType": "uint256[]",
              "name": "tokens",
              "type": "uint256[]"
            },
            {
              "internalType": "int256",
              "name": "value",
              "type": "int256"
            },
            {
              "internalType": "uint256",
              "name": "slotId",
              "type": "uint256"
            },
            {
              "internalType": "string",
              "name": "side",
              "type": "string"
            },
            {
              "internalType": "string",
              "name": "description",
              "type": "string"
            },
            {
              "internalType": "string",
              "name": "image",
              "type": "string"
            },
            {
              "internalType": "string",
              "name": "properties",
              "type": "string"
            },
            {
              "internalType": "bool",
              "name": "canShareOwn",
              "type": "bool"
            },
            {
              "internalType": "bool",
              "name": "isMultiAccess",
              "type": "bool"
            }
          ],
          "internalType": "struct Offering.SvcOffering",
          "name": "",
          "type": "tuple"
        }
      ],
      "stateMutability": "view",
      "type": "function"
    },
    {
      "inputs": [
        {
          "internalType": "uint256",
          "name": "tokenId_",
          "type": "uint256"
        }
      ],
      "name": "ownerOf",
      "outputs": [
        {
          "internalType": "address",
          "name": "owner_",
          "type": "address"
        }
      ],
      "stateMutability": "view",
      "type": "function"
    },
    {
      "inputs": [
        {
          "internalType": "string",
          "name": "offeringAssetId_",
          "type": "string"
        },
        {
          "internalType": "uint256",
          "name": "tokenId_",
          "type": "uint256"
        }
      ],
      "name": "ownershipMilliBasisPts",
      "outputs": [
        {
          "internalType": "int256",
          "name": "",
          "type": "int256"
        }
      ],
      "stateMutability": "view",
      "type": "function"
    },
    {
      "inputs": [
        {
          "internalType": "uint256",
          "name": "tokenId_",
          "type": "uint256"
        },
        {
          "internalType": "uint256",
          "name": "slotId_",
          "type": "uint256"
        },
        {
          "internalType": "uint256",
          "name": "value_",
          "type": "uint256"
        }
      ],
      "name": "redeem",
      "outputs": [],
      "stateMutability": "nonpayable",
      "type": "function"
    },
    {
      "inputs": [
        {
          "internalType": "bytes32",
          "name": "role",
          "type": "bytes32"
        },
        {
          "internalType": "address",
          "name": "account",
          "type": "address"
        }
      ],
      "name": "renounceRole",
      "outputs": [],
      "stateMutability": "nonpayable",
      "type": "function"
    },
    {
      "inputs": [
        {
          "internalType": "bytes32",
          "name": "role",
          "type": "bytes32"
        },
        {
          "internalType": "address",
          "name": "account",
          "type": "address"
        }
      ],
      "name": "revokeRole",
      "outputs": [],
      "stateMutability": "nonpayable",
      "type": "function"
    },
    {
      "inputs": [
        {
          "internalType": "address",
          "name": "from_",
          "type": "address"
        },
        {
          "internalType": "address",
          "name": "to_",
          "type": "address"
        },
        {
          "internalType": "uint256",
          "name": "tokenId_",
          "type": "uint256"
        }
      ],
      "name": "safeTransferFrom",
      "outputs": [],
      "stateMutability": "payable",
      "type": "function"
    },
    {
      "inputs": [
        {
          "internalType": "address",
          "name": "from_",
          "type": "address"
        },
        {
          "internalType": "address",
          "name": "to_",
          "type": "address"
        },
        {
          "internalType": "uint256",
          "name": "tokenId_",
          "type": "uint256"
        },
        {
          "internalType": "bytes",
          "name": "data_",
          "type": "bytes"
        }
      ],
      "name": "safeTransferFrom",
      "outputs": [],
      "stateMutability": "payable",
      "type": "function"
    },
    {
      "inputs": [
        {
          "internalType": "address",
          "name": "operator_",
          "type": "address"
        },
        {
          "internalType": "bool",
          "name": "approved_",
          "type": "bool"
        }
      ],
      "name": "setApprovalForAll",
      "outputs": [],
      "stateMutability": "nonpayable",
      "type": "function"
    },
    {
      "inputs": [
        {
          "internalType": "uint256",
          "name": "tokenId_",
          "type": "uint256"
        }
      ],
      "name": "slotOf",
      "outputs": [
        {
          "internalType": "uint256",
          "name": "",
          "type": "uint256"
        }
      ],
      "stateMutability": "view",
      "type": "function"
    },
    {
      "inputs": [
        {
          "internalType": "uint256",
          "name": "slot_",
          "type": "uint256"
        }
      ],
      "name": "slotURI",
      "outputs": [
        {
          "internalType": "string",
          "name": "",
          "type": "string"
        }
      ],
      "stateMutability": "view",
      "type": "function"
    },
    {
      "inputs": [
        {
          "internalType": "bytes4",
          "name": "interfaceId",
          "type": "bytes4"
        }
      ],
      "name": "supportsInterface",
      "outputs": [
        {
          "internalType": "bool",
          "name": "",
          "type": "bool"
        }
      ],
      "stateMutability": "view",
      "type": "function"
    },
    {
      "inputs": [],
      "name": "symbol",
      "outputs": [
        {
          "internalType": "string",
          "name": "",
          "type": "string"
        }
      ],
      "stateMutability": "view",
      "type": "function"
    },
    {
      "inputs": [
        {
          "internalType": "uint256",
          "name": "index_",
          "type": "uint256"
        }
      ],
      "name": "tokenByIndex",
      "outputs": [
        {
          "internalType": "uint256",
          "name": "",
          "type": "uint256"
        }
      ],
      "stateMutability": "view",
      "type": "function"
    },
    {
      "inputs": [
        {
          "internalType": "address",
          "name": "owner_",
          "type": "address"
        },
        {
          "internalType": "uint256",
          "name": "index_",
          "type": "uint256"
        }
      ],
      "name": "tokenOfOwnerByIndex",
      "outputs": [
        {
          "internalType": "uint256",
          "name": "",
          "type": "uint256"
        }
      ],
      "stateMutability": "view",
      "type": "function"
    },
    {
      "inputs": [
        {
          "internalType": "uint256",
          "name": "tokenId_",
          "type": "uint256"
        }
      ],
      "name": "tokenURI",
      "outputs": [
        {
          "internalType": "string",
          "name": "",
          "type": "string"
        }
      ],
      "stateMutability": "view",
      "type": "function"
    },
    {
      "inputs": [],
      "name": "totalSupply",
      "outputs": [
        {
          "internalType": "uint256",
          "name": "",
          "type": "uint256"
        }
      ],
      "stateMutability": "view",
      "type": "function"
    },
    {
      "inputs": [
        {
          "internalType": "uint256",
          "name": "fromTokenId_",
          "type": "uint256"
        },
        {
          "internalType": "address",
          "name": "to_",
          "type": "address"
        },
        {
          "internalType": "uint256",
          "name": "value_",
          "type": "uint256"
        }
      ],
      "name": "transferFrom",
      "outputs": [
        {
          "internalType": "uint256",
          "name": "",
          "type": "uint256"
        }
      ],
      "stateMutability": "payable",
      "type": "function"
    },
    {
      "inputs": [
        {
          "internalType": "address",
          "name": "from_",
          "type": "address"
        },
        {
          "internalType": "address",
          "name": "to_",
          "type": "address"
        },
        {
          "internalType": "uint256",
          "name": "tokenId_",
          "type": "uint256"
        }
      ],
      "name": "transferFrom",
      "outputs": [],
      "stateMutability": "payable",
      "type": "function"
    },
    {
      "inputs": [
        {
          "internalType": "uint256",
          "name": "fromTokenId_",
          "type": "uint256"
        },
        {
          "internalType": "uint256",
          "name": "toTokengId_",
          "type": "uint256"
        },
        {
          "internalType": "uint256",
          "name": "value_",
          "type": "uint256"
        }
      ],
      "name": "transferFrom",
      "outputs": [],
      "stateMutability": "payable",
      "type": "function"
    },
    {
      "inputs": [],
      "name": "valueDecimals",
      "outputs": [
        {
          "internalType": "uint8",
          "name": "",
          "type": "uint8"
        }
      ],
      "stateMutability": "view",
      "type": "function"
    }
  ],
  "bytecode": "0x6080604052346200069f57620087b5803803806200001d81620006a4565b9283398101610140828203126200069f576200003982620006ca565b6200004760208401620006ca565b926200005660408201620006ca565b6200006460608301620006ca565b60808301516001600160401b0381116200069f57856200008691850162000704565b60a08401519091906001600160401b0381116200069f5786620000ab91860162000704565b60c08501519097906001600160401b0381116200069f5787620000d091870162000704565b60e08601519096906001600160401b0381116200069f5788620000f591880162000704565b6101008701519098906001600160401b0381116200069f57610120916200011e91890162000704565b9601519360ff851685036200069f5760016003558051906001600160401b038211620004065760005490600182811c9216801562000694575b60208310146200058b5781601f84931162000634575b50602090601f8311600114620005b857600092620005ac575b50508160011b916000199060031b1c1916176000555b88516001600160401b0381116200040657600154600181811c91168015620005a1575b60208210146200058b57601f811162000525575b506020601f8211600114620004af57819060ff9798999a9b600092620004a3575b50508160011b916000199060031b1c1916176001555b600280548619169490951693841790945562989680601055600e80546001600160a01b03199081166001600160a01b0396871617909155600a805482169286169283179055600b8054821696861696909617909555601c8054861692909416918217909355600d805485169091179055601155600f80549092163317909155601d54620002979062000782565b601d55620002a7601e5462000782565b601e5533600090815260008051602062008775833981519152602052604090205460ff161562000460575b3360009081527ff0bca53ec534e170e0b4115320ce2b072ee8e3338cc6b0c7b13351839d628e0a60205260409020547f9a95e87c5af084bf5db8491c3a6515da9dd6da39b24b0eb0af08d7b9cd808d919060ff16156200041c575b50604051936120c5808601936001600160401b038511878610176200040657620003826060936200037389986200039195620066908b396080895260808901906200075b565b9087820360208901526200075b565b9085820360408701526200075b565b92015203906000f08015620003fa57600880546001600160a01b0319166001600160a01b0390921691821790556040519081527f9ac4f8025631594629895b778dc5ee88d01673a254a2291f6b6b174ad25230ca90602090a1604051615ee79081620007a98239f35b6040513d6000823e3d90fd5b634e487b7160e01b600052604160045260246000fd5b8060005260096020526040600020336000526020526040600020600160ff198254161790553390339060008051602062008755833981519152600080a4386200032d565b3360008181526000805160206200877583398151915260205260408120805460ff191660011790558190600080516020620087558339815191528180a4620002d2565b015190503880620001f4565b600160005260206000209a60005b601f19841681106200050c57509a829160ff98999a9b9c600194601f19811610620004f2575b505050811b016001556200020a565b015160001960f88460031b161c19169055388080620004e3565b828201518d556001909c019b60209283019201620004bd565b60016000527fb10e2d527612073b26eecdfd717e6a320cf44b4afac2b0732d9fcbe2b7fa0cf6601f830160051c81016020841062000583575b601f830160051c8201811062000576575050620001d3565b600081556001016200055e565b50806200055e565b634e487b7160e01b600052602260045260246000fd5b90607f1690620001bf565b01519050388062000186565b600080805293506000805160206200879583398151915291905b601f198416851062000618576001945083601f19811610620005fe575b505050811b016000556200019c565b015160001960f88460031b161c19169055388080620005ef565b81810151835560209485019460019093019290910190620005d2565b6000805290915060008051602062008795833981519152601f840160051c8101602085106200068c575b90849392915b601f830160051c820181106200067c5750506200016d565b6000815585945060010162000664565b50806200065e565b91607f169162000157565b600080fd5b6040519190601f01601f191682016001600160401b038111838210176200040657604052565b51906001600160a01b03821682036200069f57565b60005b838110620006f35750506000910152565b8181015183820152602001620006e2565b81601f820112156200069f5780516001600160401b038111620004065762000736601f8201601f1916602001620006a4565b92818452602082840101116200069f57620007589160208085019101620006df565b90565b906020916200077681518092818552858086019101620006df565b601f01601f1916010190565b6000198114620007925760010190565b634e487b7160e01b600052601160045260246000fdfe61016080604052600436101561001457600080fd5b60006101005260003560e01c90816301e98bfa14613d025750806301ffc9a714613cad57806306fdde0314613c05578063081812fc14613be7578063095ea7b314613a9c57806309c3dd8714613a035780630f485c021461336657806318160ddd146133455780631ba0c2801461327957806323b872dd146131d9578063248a9ca3146131a6578063263f3e7e146131885780632f2ff15d146130c05780632f745c5914613011578063310ed7f014612d3757806331b5b90714612c9957806336568abe14612c075780633e7e866914612be357806342842e0e14612bbe5780634b6ddb0414612b7b5780634f6ccce714612af75780635e3ac372146129b25780636352211e1461298257806370a082311461295f578063715d5e27146128cd578063840f7113146128a15780638cb0a5111461280057806391d14854146127af57806395d89b41146126e15780639cc7f708146126c35780639df892561461262a5780639e69e8a114612580578063a217fddf14612561578063a22cb4651461247a578063a7c9f2d61461243c578063aeaeb490146121f1578063b819220514611d6d578063b88d4fde14611d13578063bb7fde7114611cc7578063c672c93f14611c94578063c87b56dd14611a1b578063c9b380f814611948578063cc2a0598146109e8578063d09445c2146109aa578063d547741f14610960578063db24ec6c14610688578063e0dfdfae14610420578063e345e0bc146103f2578063e8a3d485146102b05763e985e9c51461024c57600080fd5b346102a95760403660031901126102a957610265613e97565b61026d613ead565b9060018060a01b0380911661010051526007602052600260406101005120019116600052602052602060ff604060002054166040519015158152f35b6101005180fd5b346102a95761010051806003193601126103ef576040516102d081613fb5565b6101008051825260085490516001600160a01b039091169190821561036757505060405190631c97e82760e21b82528160048161010051935afa801561035957610334916101005191610338575b505b604051918291602083526020830190613ee6565b0390f35b610353913d8091833e61034b8183613fd0565b8101906146fc565b8261031e565b6040513d61010051823e3d90fd5b909150156103d657610334906103d160296103813061440d565b92604051938161039b869351809260208087019101613ec3565b820168636f6e74726163742f60b81b60208201526103c28251809360208785019101613ec3565b01036009810184520182613fd0565b610320565b506103346040516103e681613fb5565b60008152610320565b80fd5b346102a95760403660031901126102a9576020610418610410613ead565b6004356147d1565b604051908152f35b346102a95760e03660031901126102a957610439613e97565b6064356024356001600160a01b038083168303610623576084359260c4356001600160401b0381116102a957610473903690600401614043565b600a54604051637daa6b9160e11b81526001600160a01b03881660048201526024810186905260209790929188908490604490829089165afa938415610359578588928a95610100519761062f575b5083926105157f1b760f25764c3cd3acd41610bcb59c4d18589986a6f7cf409054ccf04468f8cb9561055394889416998a6101005152601a8a5261050f60ff604061010051205416615193565b146151df565b61054b60105461054661052960115461523a565b61054161053b60a43592604435615248565b84615263565b61527c565b615248565b938491615306565b60408051828152602081019a909a5289019190915296606090a181815191012092600a541692602460405180958193633f0b1c4f60e01b835260048301525afa9081156103595761010051916105fa575b60019250604051936105b585613f48565b428552868501926101005184526101005152601b8752610100519160408320906000528752604060002091528552604061010051209251835551910155604051908152f35b90508482813d8311610628575b6106118183613fd0565b810103126106235760019151906105a4565b600080fd5b503d610607565b9592935095505083813d8311610681575b61064a8183613fd0565b81010312610623579151928792879186907f1b760f25764c3cd3acd41610bcb59c4d18589986a6f7cf409054ccf04468f8cb6104c2565b503d610640565b346102a95760203660031901126102a9576040516106a581613f7e565b610100518152610100516020820152606060408201526060808201526101005160808201526101005160a0820152606060c0820152606060e082015260606101008201526060610120820152610100516101408201526101606101005191015260043561010051526015602052604061010051206040519061072682613f7e565b60018060a01b03815416825260018101546020830152600281016040519081602082549182815201916101005152610100519060208220915b81811061094a578660ff600a8888610779818a0382613fd0565b604085015261078a6003820161529f565b606085015260048101546080850152600581015460a08501526107af60068201614545565b60c08501526107c060078201614545565b60e08501526107d160088201614545565b6101008501526107e360098201614545565b6101208501520154818116151561014084015260081c1615156101608201526040516020815260018060a01b0382511660208201526020820151604082015260408201519161018060608301526101a08201835180915260206101c08401940190610100515b81811061093457505050606081015192601f1983820301608084015260208085519283815201940190610100515b81811061091e575050506101606109036108eb6108d36108bc8697608087015160a089015260a087015160c089015260c0870151601f198983030160e08a0152613ee6565b60e0860151878203601f1901610100890152613ee6565b610100850151868203601f1901610120880152613ee6565b610120840151858203601f1901610140870152613ee6565b91610140810151151582850152015115156101808301520390f35b8251865260209586019590920191600101610877565b8251865260209586019590920191600101610849565b825484526020909301926001928301920161075f565b346102a95760403660031901126102a9576109a360043561097f613ead565b90806101005152600960205261099e6001604061010051200154614147565b61434d565b6101005180f35b346102a95761010051806003193601126103ef5760206040517f9a95e87c5af084bf5db8491c3a6515da9dd6da39b24b0eb0af08d7b9cd808d918152f35b346102a9576101a03660031901126102a957610a02613e97565b610120526024356001600160401b0381116102a957610a259036906004016140c7565b610140526044356001600160401b0381116102a957610a489036906004016140c7565b60a0526064356001600160401b0381116102a957610a6a9036906004016140c7565b60805260c4356001600160401b0381116102a957610a8c903690600401614043565b60e4356001600160401b0381116102a957610aab903690600401614043565b610104356001600160401b0381116102a957610acb903690600401614043565b91610124356001600160401b0381116102a957610aec903690600401614043565b610144356001600160401b0381116102a957610b0c903690600401614043565b916101643515156101643503610623576101843591821515830361062357610b39601d548060c052614b8d565b601d556101405151610b59610b4d826140b0565b6040518060e052613fd0565b8060e05152610b6a601f19916140b0565b0136602060e0510137610100515b61014051805160ff831610156112b057610b969060ff83169061517f565b516020815191012060018060a01b03600a5416604051633f0b1c4f60e01b8152826004820152602081602481855afa90811561035957610100519161127e575b5061120557803b156102a9576040519063a4870fa960e01b825282600483015260c0516024830152816044816101005180945af18015610359576111ef575b5061010051610c2960ff841660805161517f565b51604051610c5460208281610c478183019687815193849201613ec3565b8101038084520182613fd0565b519020604051636461746160e01b6020820152600481528060408101106001600160401b036040830111176111d957604081016040526020815191012014600014610f815750610100515b610caf60ff84166101405161517f565b5182610100515260146020526101005160408120918051916001600160401b038311610ec357508190610ce2845461450b565b601f8111610f4b575b50610100519084602092601f8511600114610ee65750506101005192610edb575b50508160011b916000199060031b1c19161790555b610d3060ff841660a05161517f565b5182610100515260146020526101005160016040822001918051916001600160401b038311610ec357508190610d66845461450b565b601f8111610e82575b50610100519084602092601f8511600114610e175750506101005192610e0c575b50508160011b916000199060031b1c19161790555b8161010051526014602052610100519060026040832001916007821015610df4575090610def93929160ff80198354169116179055610de960ff831660e05161517f565b5261516e565b610b78565b634e487b7160e01b9052602160045261010051602490fd5b015190508c80610d90565b52610100516020812090945091905b601f1984168510610e67576001945083601f19811610610e4e575b505050811b019055610da5565b015160001960f88460031b161c191690558c8080610e41565b81810151835560209485019460019093019290910190610e26565b610eb390856101005152602061010051206005601f8601811c82019260208710610eb9575b601f01901c0190614fac565b8d610d6f565b9192508291610ea7565b634e487b7160e01b9052604160045261010051602490fd5b015190508c80610d0c565b52610100516020812093505b601f1985168110610f33575083601f19811610610f1a575b505050600190811b019055610d21565b015160001960f88460031b161c191690558b8080610f0a565b91926020600181928685015181550194019201610ef2565b610f7b90856101005152602061010051206005601f8601811c82019260208710610eb957601f01901c0190614fac565b8d610ceb565b610f9060ff841660805161517f565b51604051610fae60208281610c478183019687815193849201613ec3565b5190209060405191602083016618dbdb9d195b9d60ca1b8152600793848152610fd681613f48565b51902003610fe857505060015b610c9f565b610ff760ff851660805161517f565b5160405161101560208281610c478183019687815193849201613ec3565b51902090604051916020830164195d995b9d60da1b815260059384815261103b81613f48565b5190200361104d575050506002610c9f565b61105c60ff861660805161517f565b5160405161107a60208281610c478183019687815193849201613ec3565b5190209260405193602085016206170760ec1b815260039586815261109e81613f48565b519020036110ae57505050610c9f565b909192506110c160ff861660805161517f565b516040516110df60208281610c478183019687815193849201613ec3565b51902060405160208101906a6d65726368616e6469736560a81b8252600b815261110881613f48565b5190200361111a575050506004610c9f565b61112960ff861660805161517f565b5160405161114760208281610c478183019687815193849201613ec3565b519020906040516020810191666372656469747360c81b8352815261116b81613f48565b519020036111795750610c9f565b9061118960ff851660805161517f565b516040516111a760208281610c478183019687815193849201613ec3565b5190209060405160208101916437ba3432b960d91b835281526111c981613f48565b51902003610fe357506006610c9f565b634e487b7160e01b600052604160045260246000fd5b6111f890613f35565b610100518015610c155780fd5b6040517f41737365742063616e206f6e6c7920626520696e206f6e65206f66666572696e6020820152606760f81b60408201526021815260608101908082106001600160401b038311176111d957604082905262461bcd60e51b825260206064820152605f19906112796084820182613ee6565b030190fd5b90506020813d6020116112a8575b8161129960209383613fd0565b8101031261062357518a610bd6565b3d915061128c565b505060c051610100805191909152601560205251604081206101205181546001600160a01b0319166001600160a01b039190911617815560e051518892889260020191906001600160401b038211610ec35750600160401b811161192e578154818355808210611900575b50602060e05101916101005152610100519160208320835b8381106118ec575050505060c0519052601560205260c0516101005190600160408320015560066040822001918051916001600160401b038311610ec35750819061137e845461450b565b601f81116118b6575b50610100519084602092601f851160011461184b5750506101005192611840575b50508160011b916000199060031b1c19161790555b60c051610100515260156020526101005160076040822001918051916001600160401b038311610ec3575081906113f4845461450b565b601f811161180a575b50610100519084602092601f851160011461179f5750506101005192611794575b50508160011b916000199060031b1c19161790555b60c051610100515260156020526101005160086040822001918051916001600160401b038311610ec35750819061146a845461450b565b601f811161175e575b50610100519084602092601f85116001146116f357505061010051926116e8575b50508160011b916000199060031b1c19161790555b60c051610100515260156020526101005160096040822001908451906001600160401b038211610ec357506114de825461450b565b601f81116116a7575b5061010051602090601f831160011461163f575081929394956101005192611634575b50508160011b916000199060031b1c19161790555b60c0516101005152601560205260a43591610100519083600560408420015561155d61016435600a60408520019060ff801983541691151516179055565b600a60408320019061ff00825491151560081b169061ff00191617905560843591826004604084200155602081519101209060018060a01b03600a541690813b156103ef57506040519163a4870fa960e01b8352600483015260c0516024830152816044816101005180945af1801561035957611617575b506040805160c051815260208101939093528201527f996c7fcc3e774297a738500264c15cee3f322db81c70b91166215f1447f23ffc90606090a16101005180f35b61162090613f35565b61010051918261163057916115d5565b8280fd5b01519050858061150a565b8390526101005160208120601f198416979092915b88811061168f57508360019596979810611676575b505050811b01905561151f565b015160001960f88460031b161c19169055858080611669565b91926020600181928685015181550194019201611654565b6116d89083610100515260206101005120601f840160051c810191602085106116de575b601f0160051c0190614fac565b856114e7565b90915081906116cb565b015190508680611494565b52610100516020812090945091905b601f1984168510611743576001945083601f1981161061172a575b505050811b0190556114a9565b015160001960f88460031b161c1916905586808061171d565b81810151835560209485019460019093019290910190611702565b61178e9085610100515260206101005120601f850160051c810191602086106116de57601f0160051c0190614fac565b87611473565b01519050878061141e565b52610100516020812090945091905b601f19841685106117ef576001945083601f198116106117d6575b505050811b019055611433565b015160001960f88460031b161c191690558780806117c9565b818101518355602094850194600190930192909101906117ae565b61183a9085610100515260206101005120601f850160051c810191602086106116de57601f0160051c0190614fac565b886113fd565b0151905088806113a8565b52610100516020812090945091905b601f198416851061189b576001945083601f19811610611882575b505050811b0190556113bd565b015160001960f88460031b161c19169055888080611875565b8181015183556020948501946001909301929091019061185a565b6118e69085610100515260206101005120601f850160051c810191602086106116de57601f0160051c0190614fac565b89611387565b600190602084519401938184015501611333565b82610100515260206101005120908282015b818301811061192257505061131b565b60008155600101611912565b634e487b7160e01b61010051526041600452602461010051fd5b346102a95760603660031901126102a9576004356001600160401b0381116102a957611978903690600401614043565b6044359060098210156102a95760208151910120601e549061199982614b8d565b601e556119b2604051936119ac85613f63565b84615e6f565b602083019242845260408101936024358552836101005152601360205261010051604081209251906009821015610df45750946002916109a39660ff80198654169116178455516001840155519101556101005152601460205260036040610100512001614f12565b346102a9576020806003193601126102a957600435611a41611a3c82614a1e565b614650565b604051611a4d81613fb5565b6101008051825260085490516001600160a01b03909116919084908315611ad057505050604051916344a5a61760e11b835260048301528160248161010051935afa908115610359576101005191611ab7575b50905b610334604051928284938452830190613ee6565b611aca913d8091833e61034b8183613fd0565b82611aa0565b91939092509015611c7c57600090807a184f03e93ff9f4daa797ed6e38ed64bf6a1f0100000000000000008181811015611c6e575b5050836d04ee2d6d415b85acef810000000080831015611c62575b5050662386f26fc1000080821015611c55575b506305f5e10080821015611c48575b5061271080821015611c3b575b506064811015611c2d575b600a80911015611c23575b600180840192816021611b90611b7a87613ff1565b96611b886040519889613fd0565b808852613ff1565b8689019790601f1901368937860101905b611bed575b5050505092611be79291611bdb946040519583611bcc8895518092888089019101613ec3565b84019151809386840190613ec3565b01038084520182613fd0565b90611aa3565b600019019083906f181899199a1a9b1b9c1cb0b131b232b360811b8282061a835304918215611c1e57919082611ba1565b611ba6565b9160010191611b65565b606460029104920191611b5a565b6004910492019186611b4f565b6008910492019186611b42565b6010910492019186611b33565b93019290048387611b20565b604094500490508680611b05565b505050604051611c8b81613fb5565b60008152611be7565b346102a95760203660031901126102a9576004356101005152601560205260206003604061010051200154604051908152f35b346102a95760803660031901126102a957611ce0613e97565b6064356001600160401b0381116102a957602091611d05610418923690600401614043565b906044359060243590615306565b60803660031901126102a957611d27613e97565b611d2f613ead565b606435916001600160401b0383116102a957366023840112156102a957611d636109a393369060248160040135910161400c565b91604435916148e2565b346102a957611d7b36614096565b9190611d868261469c565b6001600160a01b039033908216036121ac5781610100515260196020526040610100512033600052602052604060002054841161215857601c54600e5460405163095ea7b360e01b81529083166001600160a01b03166004820152602481018690529060209082908416818060448101039161010051905af1801561035957611e4f92602092879261213b575b5080601c541690600e541660405180958194829363a9059cbb60e01b84526004840160209093929193604081019460018060a01b031681520152565b039161010051905af180156103595761210c575b506101005152601960205260406101005120336000526020526040600020611e8c838254614f9f565b90558061010051526016602052611eaa60406101005120548361475a565b61010051928184035b836101005152601660205261010051604081205460ff8716101561204657856040611ede9220614995565b92905494600160ff1b851461202c576101008051600386901b88901c90526015602052516040902060040180549590611f178588615a11565b9055610100515b878660031b1c6101005152601560205261010051600360408220015460ff831610156120115790611f58816003604061200c952001614995565b90549060031b1c8061010051526018806020526101005160408120908c8b60031b1c9052602052611fb4611f938b604061010051205461527c565b8c8b60031b1c61010051526015602052600460406101005120015490615248565b9180610100515260176020526101005160408120908d8c60031b1c90526020526101005160408120600160ff19825416179055526020526101005160408120908b8a60031b1c9052602052604061010051205561516e565b611f1e565b505095509590925061202491935061516e565b939291611eb3565b634e487b7160e01b61010051526011600452602461010051fd5b848361205481600c54614f9f565b600c55612063611a3c83614a1e565b8161010051526006602052600261208060406101005120546145eb565b5001918254928284106120bb5761209983602095614f9f565b9055604051918252600080516020615e9283398151915261010051938493a380f35b60405162461bcd60e51b815260206004820152602360248201527f455243333532353a206275726e2076616c756520657863656564732062616c616044820152626e636560e81b6064820152608490fd5b61212d9060203d602011612134575b6121258183613fd0565b8101906152ee565b5083611e63565b503d61211b565b61215190843d8611612134576121258183613fd0565b5087611e13565b60405162461bcd60e51b815260206004820152602660248201527f496e73756666696369656e7420617070726f76616c20746f2072656465656d20604482015265185b5bdd5b9d60d21b6064820152608490fd5b60405162461bcd60e51b815260206004820152601960248201527f53656e646572206973206e6f7420617574686f72697a65642e000000000000006044820152606490fd5b346102a9576020806003193601126102a9576001600160401b036004358181116102a957612223903690600401614043565b8281519101206101005152601482526040610100512090604051906080820190828210908211176111d95760405261225a82614545565b815260019061226a828401614545565b8482015260ff6002938185820154166007811015612355576040840152929493926122979060030161529f565b9260608093019380855251936122ac856140b0565b946122ba6040519687613fd0565b8086526122c9601f19916140b0565b01610100515b81811061240457505061010051875b61236f575b50505050604051938385948501908086528451809252806040870195019361010051905b8382106123145787870388f35b91939590929480975051805190600982101561235557826040859288948b965284810151858401520151604082015201970192018796959391949294612307565b634e487b7160e01b61010051526021600452602461010051fd5b9087959697939291815190815191858216928310156123f857826123996123ec946123e69361517f565b51610100515260138c528b8660406101005120604051926123b984613f63565b6123c68b83541685615e6f565b8b82015490840152015460408201526123df828d61517f565b528a61517f565b5061516e565b909192939796956122de565b505050969594966122e3565b968098969760405161241581613f63565b610100518152610100518382015261010051604082015282828b01015201979695976122cf565b346102a95761010051806003193601126103ef5760206040517f1cd6d520d98babae1045eb69c31ecab800996aa332094cb55c0ac10362e9b0c98152f35b346102a95760403660031901126102a957612493613e97565b6024359081151590818303610623576001600160a01b03169133831461251c576124e9903361010051526007602052600260406101005120018460005260205260406000209060ff801983541691151516179055565b6040519081527f17307eab39ab6107e8899845ad3d59bd9653f200f220920489ca2b5937696c3160203392a36101005180f35b60405162461bcd60e51b815260206004820152601a60248201527f455243333532353a20617070726f766520746f2063616c6c65720000000000006044820152606490fd5b346102a95761010051806003193601126103ef57602090604051908152f35b346102a9576020806003193601126102a9576004356001600160401b0381116102a9576125b1903690600401614043565b805190820120600a54604051633f0b1c4f60e01b815260048101929092528290829060249082906001600160a01b03165afa9081156103595761010051916125fd575b50604051908152f35b90508181813d8311612623575b6126148183613fd0565b810103126106235751826125f4565b503d61260a565b346102a95760403660031901126102a957612643613e97565b60243590816101005152601560205260018060a01b0380604061010051205416156126895760209261010051526015835280604061010051205416906040519216148152f35b60405162461bcd60e51b815260206004820152601260248201527113d999995c9a5b99c81b9bdd08199bdd5b9960721b6044820152606490fd5b346102a95760203660031901126102a9576020610418600435614626565b346102a95761010051806003193601126103ef57604051600060018054906127088261450b565b80855291818116908115612788575060011461272f575b6103348461032081860382613fd0565b600081815292507fb10e2d527612073b26eecdfd717e6a320cf44b4afac2b0732d9fcbe2b7fa0cf65b8284106127705750505081016020016103208261271f565b80546020858701810191909152909301928101612758565b60ff191660208087019190915292151560051b85019092019250610320915083905061271f565b346102a95760403660031901126102a9576127c8613ead565b60043561010051526009602052604061010051209060018060a01b0316600052602052602060ff604060002054166040519015158152f35b61280936613f0b565b9061282a6001600160a01b038061281f8661469c565b16908316141561477a565b61283483336149ad565b15612842576109a392614a4c565b60405162461bcd60e51b815260206004820152603160248201527f455243333532353a20617070726f76652063616c6c6572206973206e6f74206f6044820152701ddb995c881b9bdc88185c1c1c9bdd9959607a1b6064820152608490fd5b346102a95761010051806003193601126103ef576008546040516001600160a01b039091168152602090f35b346102a9576128db36613f0b565b90916101005152601b6020526101005191604083209060018060a01b0316600052602052604060002091526020526020806040610100512060405161291f81613f48565b6001825492838352015492839101524211159081612943575b506040519015158152f35b801591508115612955575b5082612938565b905042118261294e565b346102a95760203660031901126102a957602061041861297d613e97565b614802565b346102a95760203660031901126102a95760206129a060043561469c565b6040516001600160a01b039091168152f35b346102a95760e03660031901126102a9576129cb613e97565b6084356001600160401b0381116102a9576129ea903690600401614043565b9060018060a01b0380911680610100515260208093601a8252612a1660ff604061010051205416615193565b81815191012092600a541692602460405180958193633f0b1c4f60e01b835260048301525afa918215610359576101005192612ac8575b5081610100515260158352612a6f6005604061010051200154604435146151df565b60405190612a7c82613f48565b4282528382019260c43584526101005152601b84526101005190604082209060005284526040600020906024359052835260016101005192604084209251835551910155604051908152f35b9091508281813d8311612af0575b612ae08183613fd0565b8101031261062357519083612a4d565b503d612ad6565b346102a95760203660031901126102a957600435600554811015612b2a57612b206020916145eb565b5054604051908152f35b60405162461bcd60e51b815260206004820152602360248201527f455243333532353a20676c6f62616c20696e646578206f7574206f6620626f756044820152626e647360e81b6064820152608490fd5b346102a95760203660031901126102a9576001600160a01b03612b9c613e97565b166101005152601a602052602060ff6040610100512054166040519015158152f35b6109a3612bca36614061565b9060405192612bd884613fb5565b6101005184526148e2565b346102a95761010051806003193601126103ef57602060ff60025416604051908152f35b346102a95760403660031901126102a957612c20613ead565b336001600160a01b03821603612c3c576109a39060043561434d565b60405162461bcd60e51b815260206004820152602f60248201527f416363657373436f6e74726f6c3a2063616e206f6e6c792072656e6f756e636560448201526e103937b632b9903337b91039b2b63360891b6064820152608490fd5b346102a95760203660031901126102a9576004356001600160401b0381116102a957612cc9903690600401614043565b6008546001600160a01b031690813b156102a95760405180926355f804b360e01b8252602060048301528180612d0761010051956024830190613ee6565b039161010051905af1801561035957612d21576101005180f35b612d2a90613f35565b6101005180156109a35780fd5b612d4036614096565b9091612d4b816146d8565b90612d57838233615a2d565b612d62838583615ac7565b612d6b8161469c565b612d748561469c565b90836101005152602093601985526040610100512060018060a01b0380931660005285526040600020612da8878254614f9f565b905561010051526019845260406101005120911660005282526040600020612dd18482546143c3565b9055806101005152601692838352612df0604061010051205482615248565b506101005194855b83610100515285855261010051604081205460ff89161015612e5557612e4f91612e28896040612e499420614995565b90549060031b1c610100515260158752600460406101005120015490615a11565b9661516e565b95612df8565b5085908585610100515b8161010051528483526101005190604082205460ff9081831610156109a3578585888a612ef08d95612f13612ef9612e9d8a6040612fb79d20614995565b949054600395861b1c98896101005152612eea612ee4612ecd60159d8e8d5260046040610100512001549061527c565b9261054660115494612ede8661523a565b9061527c565b9161523a565b90615248565b6010549061527c565b876101005152888752600460406101005120015490615248565b968a6101005152838b60188881809a52610100518b6040822091528152612f418c6040610100512054615263565b926101005152528d61010051908a6040832092525261010051906040822055526017808d5261010051886040822091528d52610100519260408420541615612fbc575b5050505090506101005152865261010051906040822091528552612fb060406101005120918254615a11565b905561516e565b612e5f565b6130069585604094528d52612fd688846101005120614f12565b8461010051528c52610100518783822091528c526101005190828220600160ff198254161790558c522001614f12565b888a8d808080612f84565b346102a95760403660031901126102a95761302a613e97565b6024359061303781614802565b821015613070576020916130629160018060a01b031661010051526007835260406101005120614995565b90546040519160031b1c8152f35b60405162461bcd60e51b815260206004820152602260248201527f455243333532353a206f776e657220696e646578206f7574206f6620626f756e604482015261647360f01b6064820152608490fd5b346102a95760403660031901126102a9576004356130dc613ead565b81610100515260096020526130fa6001604061010051200154614147565b816101005152600960205261010051604081209160018060a01b0316918260005260205260ff6040600020541615613133576101005180f35b8290526009602052610100519160408320826000526020526040600020600160ff198254161790557f2f8788117e7eff1d82e926ec794901d17c78024a50270940304540a733656f0d339380a48080806109a3565b346102a95760203660031901126102a95760206104186004356146d8565b346102a95760203660031901126102a9576004356101005152600960205260206001604061010051200154604051908152f35b6131e236614061565b916131f56131f084336149ad565b61487b565b613200838383614c2d565b61321261320c846146d8565b93614626565b9280610100515260196020526040610100512060018060a01b038093166000526020526040600020613245858254614f9f565b90556101005152601960205260406101005120911660005260205261327060406000209182546143c3565b90556101005180f35b346102a95760403660031901126102a9576004356001600160401b0381116102a9576132a9903690600401614043565b8051602091820120600a54604051633f0b1c4f60e01b815260048101929092528290829060249082906001600160a01b03165afa908115610359576101005191613318575b50602435610100515260188252610100519060408220915281526040610100512054604051908152f35b90508181813d831161333e575b61332f8183613fd0565b810103126106235751826132ee565b503d613325565b346102a95761010051806003193601126103ef576020600554604051908152f35b61336f36613f0b565b82610100939293515260166020526040610100512054156139c657801515806139a2575b604051907f56616c7565206c657373207468616e206d696e696d756d0000000000000000006020830152601782526133ca82613f48565b1561397a57506133d9826146d8565b806101005152601960205261010051604081209033905260205260406101005120613405838254614f9f565b9055806101005152601960205261010051604081209060018060a01b03861690526020526040610100512061343b8382546143c3565b9055613448828433615a2d565b6003549361345585614b8d565b600355613461846146d8565b6001600160a01b0382161561392b5785156138dc5761347f86614a1e565b6138975760405161348f81613fb5565b610100518152604051906134a282613f9a565b87825282602083015261010051604083015260018060a01b038416606083015261010051608083015260a0820152600554876101005152600660205261010051816040822055600160401b821015610ec3575080600161350592016005556145eb565b91909161387e5780518255602081015160018301556040810151600283015560608101516003830180546001600160a01b039283166001600160a01b031991821617909155608083015160048501805491909316911617905560a001518051916001600160401b03831161192e5790602060058a9695949301916135898484614fc3565b019061010051526101005160208120905b83811061385e57505050506135af8383614f38565b610100519183906001600160a01b0316837fddf252ad1be2c89b69c2b068fc378daa952ba7f163c4a11628f55a4df523b3ef8180a481837fe4f48c240d3b994948aa54f3e2f5fca59263dfe1d52b6e4cf39a5d249b5ccb658280a452600660205261362060406101005120546145eb565b505083604051610100518152600080516020615e9283398151915260206101005192a361364e828585615ac7565b600b546001600160a01b0316803b156102a95760405191638e9eeaef60e01b83526004830152846024830152816044816101005180945af180156103595761384f575b506101005192835b836101005152601660205261010051604081205460ff871610156136f9576136f3916136cb8760406136ed9420614995565b90549060031b1c61010051526015602052600460406101005120015490615a11565b9461516e565b93613699565b50909350610100515b836101005152601660205261010051604081205460ff83161015613844579061383a866003604087613739868361383f9920614995565b905490841b1c8061010051528461378a613770612ef08c612eea612ee4612ecd6015998a60205260048c610100512001549061527c565b836101005152846020526004866101005120015490615248565b8c61010051526137d06018918260205261010051858882209152602052610100518488822054915283602052610100518689822091526020528188610100512055615263565b908d61010051526020526101005183868220915260205261010051908582205552601660205261380581846101005120614f12565b8461010051526017602052610100519083822091526020526101005190828220600160ff198254161790556020522001614f12565b61516e565b613702565b602086604051908152f35b61385890613f35565b83613691565b82516001600160a01b0316818301558a965060209092019160010161359a565b634e487b7160e01b610100515260246101005180600452fd5b60405162461bcd60e51b815260206004820152601d60248201527f455243333532353a20746f6b656e20616c7265616479206d696e7465640000006044820152606490fd5b60405162461bcd60e51b815260206004820152602160248201527f455243333532353a2063616e6e6f74206d696e74207a65726f20746f6b656e496044820152601960fa1b6064820152608490fd5b60405162461bcd60e51b815260206004820152602160248201527f455243333532353a206d696e7420746f20746865207a65726f206164647265736044820152607360f81b6064820152608490fd5b60405162461bcd60e51b81526020600482015290819061399e906024830190613ee6565b0390fd5b5081610100515260166020526139bf60406101005120548261475a565b1515613393565b60405162461bcd60e51b8152602060048201526015602482015274546f6b656e20686173206e6f206f66666572696e6760581b6044820152606490fd5b346102a95760203660031901126102a957604051613a2081613fb5565b6101005190526008546001600160a01b03168015613a815760405190633601bfc560e11b825260043560048301528160248161010051935afa8015610359576103349161010051916103385750604051918291602083526020830190613ee6565b50610334604051613a9181613fb5565b610100518152610320565b60403660031901126102a957613ab0613e97565b6024356001600160a01b038080613ac68461469c565b16931692613ad68185141561477a565b803314908115613bb8575b5015613b4d5781610100515260066020526004613b0460406101005120546145eb565b500180546001600160a01b03191684179055613b1f8261469c565b169161010051927f8c5be1e5ebec7d5bd14f71427d1e84f3dd0314c0f7b2291e5b200ac8c7c3b9258480a480f35b60405162461bcd60e51b815260206004820152603960248201527f455243333532353a20617070726f76652063616c6c6572206973206e6f74206f60448201527f776e6572206e6f7220617070726f76656420666f7220616c6c000000000000006064820152608490fd5b90506101005152600760205261010051600260408220019033905260205260ff60406101005120541684613ae1565b346102a95760203660031901126102a95760206129a0600435614962565b346102a95761010051806003193601126103ef57604051908054613c288161450b565b808452906001908181169081156127885750600114613c51576103348461032081860382613fd0565b610100805180525192507f290decd9548b62a8d60345a988386fc84ba6bc95484008f6362f93160ef3e5635b828410613c955750505081016020016103208261271f565b80546020858701810191909152909301928101613c7d565b346102a95760203660031901126102a95760043563ffffffff60e01b81168091036102a957602090637965db0b60e01b8114908115613cf157506040519015158152f35b6301ffc9a760e01b14905082612938565b3461062357602080600319360112610623576001600160a01b039182613d26613e97565b632c663f1560e21b835216928282600481875afa918215610359576101005192613e5f575b5080600d5416911603613e1b57604051633e7e866960e01b81528181600481865afa908115610359576101005191613de4575b5060ff8060025416911603613dac57601a916101005152526101005160408120600160ff1982541617905580f35b6064906040519062461bcd60e51b825260048201526011602482015270088cac6d2dac2d8e640dad2e6dac2e8c6d607b1b6044820152fd5b90508181813d8311613e14575b613dfb8183613fd0565b810103126102a9575160ff811681036102a95783613d7e565b503d613df1565b6064906040519062461bcd60e51b82526004820152601760248201527f56616c756520636f6e7472616374206d69736d617463680000000000000000006044820152fd5b9091508281813d8311613e90575b613e778183613fd0565b810103126102a9575181811681036102a9579084613d4b565b503d613e6d565b600435906001600160a01b038216820361062357565b602435906001600160a01b038216820361062357565b60005b838110613ed65750506000910152565b8181015183820152602001613ec6565b90602091613eff81518092818552858086019101613ec3565b601f01601f1916010190565b606090600319011261062357600435906024356001600160a01b0381168103610623579060443590565b6001600160401b0381116111d957604052565b604081019081106001600160401b038211176111d957604052565b606081019081106001600160401b038211176111d957604052565b61018081019081106001600160401b038211176111d957604052565b60c081019081106001600160401b038211176111d957604052565b602081019081106001600160401b038211176111d957604052565b90601f801991011681019081106001600160401b038211176111d957604052565b6001600160401b0381116111d957601f01601f191660200190565b92919261401882613ff1565b916140266040519384613fd0565b829481845281830111610623578281602093846000960137010152565b9080601f830112156106235781602061405e9335910161400c565b90565b6060906003190112610623576001600160a01b0390600435828116810361062357916024359081168103610623579060443590565b606090600319011261062357600435906024359060443590565b6001600160401b0381116111d95760051b60200190565b9080601f83011215610623578135906140df826140b0565b926140ed6040519485613fd0565b828452602092838086019160051b8301019280841161062357848301915b84831061411b5750505050505090565b82356001600160401b03811161062357869161413c84848094890101614043565b81520192019161410b565b60009080825260209060098252604092838120338252835260ff8482205416156141715750505050565b61417a3361440d565b91845190608082018281106001600160401b038211176143395786526042825284820192606036853782511561432557603084538251906001918210156143255790607860218501536041915b8183116142b75750505061427557604861399e9386936142599361424a98519889937f416363657373436f6e74726f6c3a206163636f756e74200000000000000000008a860152614221815180928c603789019101613ec3565b8401917001034b99036b4b9b9b4b733903937b6329607d1b603784015251809386840190613ec3565b01036028810187520185613fd0565b5192839262461bcd60e51b845260048401526024830190613ee6565b60648486519062461bcd60e51b825280600483015260248201527f537472696e67733a20686578206c656e67746820696e73756666696369656e746044820152fd5b909192600f81166010811015614311576f181899199a1a9b1b9c1cb0b131b232b360811b901a6142e785876143e6565b5360041c9280156142fd576000190191906141c7565b634e487b7160e01b82526011600452602482fd5b634e487b7160e01b83526032600452602483fd5b634e487b7160e01b81526032600452602490fd5b634e487b7160e01b84526041600452602484fd5b906000918083526009602052604083209160018060a01b03169182845260205260ff60408420541661437e57505050565b8083526009602052604083208284526020526040832060ff1981541690557ff6391f5c32d9c69d2a47ea670b442974b53935d1edc7fd64eb21e047a839171b339380a4565b919082018092116143d057565b634e487b7160e01b600052601160045260246000fd5b9081518110156143f7570160200190565b634e487b7160e01b600052603260045260246000fd5b6040519061441a82613f63565b602a82526020820160403682378251156143f7576030905381516001908110156143f757607860218401536029905b80821161449d5750506144595790565b606460405162461bcd60e51b815260206004820152602060248201527f537472696e67733a20686578206c656e67746820696e73756666696369656e746044820152fd5b9091600f811660108110156144f6576f181899199a1a9b1b9c1cb0b131b232b360811b901a6144cc84866143e6565b5360041c9180156144e1576000190190614449565b60246000634e487b7160e01b81526011600452fd5b60246000634e487b7160e01b81526032600452fd5b90600182811c9216801561453b575b602083101461452557565b634e487b7160e01b600052602260045260246000fd5b91607f169161451a565b90604051918260008254926145598461450b565b9081845260019485811690816000146145c85750600114614585575b505061458392500383613fd0565b565b9093915060005260209081600020936000915b8183106145b057505061458393508201013880614575565b85548884018501529485019487945091830191614598565b91505061458394506020925060ff191682840152151560051b8201013880614575565b6005548110156143f7576006906005600052027f036b6384b5eca791c62761152d0c79bb0604c104a5fb6f4eb0703f3154bb3db00190600090565b614632611a3c82614a1e565b6000526006602052600261464a6040600020546145eb565b50015490565b1561465757565b60405162461bcd60e51b815260206004820152601960248201527f455243333532353a20696e76616c696420746f6b656e204944000000000000006044820152606490fd5b6146a8611a3c82614a1e565b60005260066020526146be6040600020546145eb565b50600301546001600160a01b031690614583821515614650565b6146e4611a3c82614a1e565b6000526006602052600161464a6040600020546145eb565b602081830312610623578051906001600160401b038211610623570181601f8201121561062357805161472e81613ff1565b9261473c6040519485613fd0565b818452602082840101116106235761405e9160208085019101613ec3565b8115614764570490565b634e487b7160e01b600052601260045260246000fd5b1561478157565b60405162461bcd60e51b815260206004820152602260248201527f455243333532353a20617070726f76616c20746f2063757272656e74206f776e60448201526132b960f11b6064820152608490fd5b6147dd611a3c82614a1e565b600052600460205260406000209060018060a01b031660005260205260406000205490565b6001600160a01b0316801561482257600052600760205260406000205490565b60405162461bcd60e51b815260206004820152602b60248201527f455243333532353a2062616c616e636520717565727920666f7220746865207a60448201526a65726f206164647265737360a81b6064820152608490fd5b1561488257565b60405162461bcd60e51b815260206004820152603260248201527f455243333532353a207472616e736665722063616c6c6572206973206e6f74206044820152711bdddb995c881b9bdc88185c1c1c9bdd995960721b6064820152608490fd5b906149069392916148f66131f084336149ad565b614901838383614c2d565b615047565b1561490d57565b60405162461bcd60e51b815260206004820152602760248201527f455243333532353a207472616e7366657220746f206e6f6e204552433732315260448201526632b1b2b4bb32b960c91b6064820152608490fd5b61496e611a3c82614a1e565b60005260066020526149846040600020546145eb565b50600401546001600160a01b031690565b80548210156143f75760005260206000200190600090565b906001600160a01b0380806149c18461469c565b169316918383149384156149f4575b5083156149de575b50505090565b6149ea91929350614962565b16143880806149d8565b909350600052600760205260026040600020018260005260205260ff6040600020541692386149d0565b60055415159081614a2d575090565b8091506000526006602052614a466040600020546145eb565b50541490565b6001600160a01b038083169391928415614b355783614a6a91614b9c565b15614ab8575b5060207f621b050de0ad08b51d19b48b3e6df75348c4de6bdd93e81b252ca62e28265b1b918360005260048252604060002085600052825280604060002055604051908152a3565b908260005260066020526005614ad26040600020546145eb565b500190815492600160401b8410156111d95785614b188560209560017f621b050de0ad08b51d19b48b3e6df75348c4de6bdd93e81b252ca62e28265b1b98018155614995565b909283549160031b90811b9283911b169119161790559150614a70565b60405162461bcd60e51b815260206004820152602a60248201527f455243333532353a20617070726f76652076616c756520746f20746865207a65604482015269726f206164647265737360b01b6064820152608490fd5b60001981146143d05760010190565b6000908282526006602090808252604090614bb9828620546145eb565b509260058094015496865b888110614bd75750505050505050905090565b818852838352614bf58187614bee888c20546145eb565b5001614995565b905460039190911b1c6001600160a01b0390811690881614614c1f57614c1a90614b8d565b614bc4565b505050505050505050600190565b614c368361469c565b6001600160a01b0391821691908116829003614ec157808316928315614e6e57614c5f856146d8565b50614c6985614626565b5060009185835260209060068252604090614c86828620546145eb565b50600490810180546001600160a01b03199081169091559091898782614cab8361469c565b167f8c5be1e5ebec7d5bd14f71427d1e84f3dd0314c0f7b2291e5b200ac8c7c3b9258280a4898752600685526005614ce5858920546145eb565b500180549091858988818f5b868410614e375750505050505050805487825580614e1e575b5050888652600684526003614d21848820546145eb565b5001908154169055858552600783528185209182549360001994858101908111614e0b5790614d5288939286614995565b90549060031b1c9060018601908c8552818152838520549280614d91614d78868b614995565b819391549060031b600019811b9283911b169119161790565b9055855252818320558982528120558154908115614df8575092828892614df4947fddf252ad1be2c89b69c2b068fc378daa952ba7f163c4a11628f55a4df523b3ef97960191614de18383614995565b909182549160031b1b1916905555614f38565b80a4565b634e487b7160e01b865260319052602485fd5b634e487b7160e01b885260118452602488fd5b614e3091885285882090810190614fac565b3880614d0a565b614e649486928b614e48878c614995565b96905494835252209260031b1c168c5289528a88812055614b8d565b8690888b8f614cf1565b60405162461bcd60e51b815260206004820152602560248201527f455243333532353a207472616e7366657220746f20746865207a65726f206164604482015264647265737360d81b6064820152608490fd5b60405162461bcd60e51b8152602060048201526024808201527f455243333532353a207472616e736665722066726f6d20696e76616c6964206f6044820152633bb732b960e11b6064820152608490fd5b805490600160401b8210156111d95781614d78916001614f3494018155614995565b9055565b9060406145839260009083825260066020526003614f58848420546145eb565b500180546001600160a01b0319166001600160a01b039092169182179055808252600760208181528484208054878652600191909101825285852055918352905220614f12565b919082039182116143d057565b818110614fb7575050565b60008155600101614fac565b90600160401b81116111d957815490808355818110614fe157505050565b6145839260005260206000209182019101614fac565b9081602091031261062357516001600160e01b0319811681036106235790565b3d15615042573d9061502882613ff1565b916150366040519384613fd0565b82523d6000602084013e565b606090565b9192813b63ffffffff16156151655760209161509f916000604051958680958194630a85bd0160e11b9a8b845233600485015260018060a01b0380951660248501526044840152608060648401526084830190613ee6565b0393165af160009181615135575b50615127576150ba615017565b805190816151225760405162461bcd60e51b815260206004820152603260248201527f4552433732313a207472616e7366657220746f206e6f6e20455243373231526560448201527131b2b4bb32b91034b6b83632b6b2b73a32b960711b6064820152608490fd5b602001fd5b6001600160e01b0319161490565b61515791925060203d811161515e575b61514f8183613fd0565b810190614ff7565b90386150ad565b503d615145565b50505050600190565b60ff1660ff81146143d05760010190565b80518210156143f75760209160051b010190565b1561519a57565b60405162461bcd60e51b815260206004820152601c60248201527f43726564697420636f6e7472616374206e6f7420617070726f766564000000006044820152606490fd5b156151e657565b60405162461bcd60e51b815260206004820152602660248201527f63726564697473206e6f7420617070726f76656420666f722074686973206f66604482015265666572696e6760d01b6064820152608490fd5b604d81116143d057600a0a90565b811561476457600160ff1b81146000198314166143d0570590565b818103929160001380158285131691841216176143d057565b818102929160008212600160ff1b8214166143d05781840514901517156143d057565b9060405191828154918282526020928383019160005283600020936000905b8282106152d45750505061458392500383613fd0565b8554845260019586019588955093810193909101906152be565b90816020910312610623575180151581036106235790565b91909392938451602086012092600a549560009660018060a01b031660405195633f0b1c4f60e01b87526004870152602086602481845afa9586156159cd5788966159d8575b506020608491604051928380926309de907160e11b825260406004830152600960448301526826a5aa2fa0a226a4a760b91b60648301523360248301525afa9081156159cd5788916159ae575b508015615998575b801561597a575b1561593557600354946153ba86614b8d565b6003556001600160a01b0383161561392b5785156138dc576153db86614a1e565b613897576040516153eb81613fb5565b888152604051906153fb82613f9a565b87825260208201868152604083018b8152606084019060018060a01b038816825260808501928d845260a086019485528d8c6040600554928392815260066020522055600160401b8110156159215780600161545a92016005556145eb565b96909661590d57518655516001860155516002850155516003840180546001600160a01b03199081166001600160a01b039384161790915591516004850180549093169116179055518051916001600160401b0383116158f957600560209101916154c58484614fc3565b01908a5260208a208a5b8381106158dc57505050506154e48684614f38565b856001600160a01b038416897fddf252ad1be2c89b69c2b068fc378daa952ba7f163c4a11628f55a4df523b3ef8180a48388877fe4f48c240d3b994948aa54f3e2f5fca59263dfe1d52b6e4cf39a5d249b5ccb658280a48588526006602052600261555260408a20546145eb565b500161555f8682546143c3565b90558588600080516020615e928339815191526020604051898152a360105490808952601560205261559787600360408c2001614f12565b86895260166020526155ac8160408b20614f12565b868952601760205260408920818a5260205260408920600160ff1982541617905586895260186020526040892090895260205260408820556015602052600760408820016008604089200161561361560d61560d600960408d200194614545565b92614545565b928960018060a01b036008541691823b1561585157615657928a83604051809681958294632108947560e21b84526004840152604060248401526044830190613ee6565b03925af180156158d1576158ba575b5060085489939291906001600160a01b0316803b156158b6576156b09185918a8360405180968195829463246a908b60e01b84526004840152604060248401526044830190613ee6565b03925af19081156158ab578491615897575b50506008546001600160a01b0316803b15615893576157089184918983604051809681958294630190503b60e61b84526004840152604060248401526044830190613ee6565b03925af1908115615888578391615874575b50506008546001600160a01b0316803b15611630576157618392918392604051948580948193637e468a5160e01b83528d6004840152604060248401526044830190613ee6565b03925af1801561586957615855575b50600b546001600160a01b0316803b15615851578190604460405180948193638e9eeaef60e01b83528860048401528a60248401525af180156158465761582e575b5060407fd1366f3f7ed30bafca8767d407a9553668f0d7ea19bc30557cdbec04a31d30539495966157e585600c546143c3565b600c558381526019602052209060018060a01b031660005260205260406000206158108382546143c3565b9055604080518581526020810192909252810191909152606090a190565b6158388791613f35565b61584257386157b2565b8580fd5b6040513d89823e3d90fd5b5080fd5b61585e90613f35565b615842578538615770565b6040513d84823e3d90fd5b61587d90613f35565b61585157813861571a565b6040513d85823e3d90fd5b8380fd5b6158a090613f35565b6116305782386156c2565b6040513d86823e3d90fd5b8480fd5b6158c8909991939299613f35565b97909138615666565b6040513d8c823e3d90fd5b82516001600160a01b0316818301556020909201916001016154cf565b634e487b7160e01b8b52604160045260248bfd5b634e487b7160e01b8f5260048f905260248ffd5b634e487b7160e01b8f52604160045260248ffd5b60405162461bcd60e51b815260206004820152601d60248201527f53656e646572206e6f7420617574686f72697a656420746f206d696e740000006044820152606490fd5b50848752601560205260408720546001600160a01b031633146153a8565b50338752601a60205260ff6040882054166153a1565b6159c7915060203d602011612134576121258183613fd0565b38615399565b6040513d8a823e3d90fd5b9095506020813d602011615a09575b816159f460209383613fd0565b81010312615a05575194602061534c565b8780fd5b3d91506159e7565b919091600083820193841291129080158216911516176143d057565b615a3781836147d1565b615a4183836149ad565b1580615abb575b615a53575b50505050565b838110615a7657615a6d93615a6791614f9f565b91614a4c565b38808080615a4d565b60405162461bcd60e51b815260206004820152601f60248201527f455243333532353a20696e73756666696369656e7420616c6c6f77616e6365006044820152606490fd5b50600019811415615a48565b615ad081614a1e565b15615ceb57615ade82614a1e565b15615c98578060005260209260068452604092615afe84600020546145eb565b508160005260068652615b1485600020546145eb565b50906002810190815490858210615c415760010154600184015403615be65791600291615b4786615b8498979695614f9f565b905501615b558382546143c3565b90558083600080516020615e92833981519152888851868152a3845192615b7b84613fb5565b60008452615d40565b15615b8d575050565b60849250519062461bcd60e51b82526004820152602d60248201527f455243333532353a207472616e736665722072656a656374656420627920455260448201526c21999a991aa932b1b2b4bb32b960991b6064820152fd5b865162461bcd60e51b815260048101899052602e60248201527f455243333532353a207472616e7366657220746f20746f6b656e20776974682060448201526d191a5999995c995b9d081cdb1bdd60921b6064820152608490fd5b875162461bcd60e51b8152600481018a9052602a60248201527f455243333532353a20696e73756666696369656e742062616c616e636520666f60448201526939103a3930b739b332b960b11b6064820152608490fd5b60405162461bcd60e51b815260206004820152602560248201527f455243333532353a207472616e7366657220746f20696e76616c696420746f6b604482015264195b88125160da1b6064820152608490fd5b60405162461bcd60e51b815260206004820152602760248201527f455243333532353a207472616e736665722066726f6d20696e76616c696420746044820152661bdad95b88125160ca1b6064820152608490fd5b929092615d4c8461469c565b803b63ffffffff1615615e65576040516301ffc9a760e01b8152629ce20b60e01b6004820181905295602095926001600160a01b0316918681602481865afa60009181615e46575b50615daf575050505050505050615da9615017565b50600190565b15615e3a5760008694615dee604051978896879586948d865233600487015260248601526044850152606484015260a0608484015260a4830190613ee6565b03925af1918215615e2e57600092615e11575b50506001600160e01b0319161490565b615e279250803d1061515e5761514f8183613fd0565b3880615e01565b6040513d6000823e3d90fd5b50505050505050600190565b615e5e919250883d8a11612134576121258183613fd0565b9038615d94565b5050505050600190565b6009821015615e7b5752565b634e487b7160e01b600052602160045260246000fdfe0b2aac84f3ec956911fd78eae5311062972ff949f38412e8da39069d9f068cc6a2646970667358221220ec85b01d532e2b3fe1f259c53eb08919665c08dcbac47fb8034a9d5514db55cb64736f6c634300081100336080604052346200048657620020c5803803806200001d816200048b565b9283398101608082820312620004865781516001600160401b0391908281116200048657816200004f918501620004b1565b91602092838501518281116200048657836200006d918701620004b1565b92604086015183811162000486576060916200008b918801620004b1565b9501516001600160a01b03811695908690036200048657815193838511620002c3576001948554938685811c951680156200047b575b88861014620002a2578190601f9586811162000425575b508890868311600114620003bd57600092620003b1575b5050600019600383901b1c191690861b1785555b805190848211620002c357600254908682811c92168015620003a6575b88831014620002a25781858493116200034f575b508790858311600114620002e557600092620002d9575b5050600019600383901b1c191690851b176002555b8051928311620002c35760039485548581811c91168015620002b8575b82821014620002a25783811162000257575b5080928411600114620001ed5750928293918392600094620001e1575b50501b9160001990841b1c19161790555b600080546001600160a01b031916919091179055604051611ba19081620005248239f35b015192503880620001ac565b919083601f1981168760005284600020946000905b888383106200023c575050501062000223575b505050811b019055620001bd565b015160001983861b60f8161c1916905538808062000215565b85870151885590960195948501948793509081019062000202565b86600052816000208480870160051c82019284881062000298575b0160051c019086905b8281106200028b5750506200018f565b600081550186906200027b565b9250819262000272565b634e487b7160e01b600052602260045260246000fd5b90607f16906200017d565b634e487b7160e01b600052604160045260246000fd5b0151905038806200014b565b90879350601f198316916002600052896000209260005b8b8282106200033857505084116200031e575b505050811b0160025562000160565b015160001960f88460031b161c191690553880806200030f565b8385015186558b97909501949384019301620002fc565b9091506002600052876000208580850160051c8201928a86106200039c575b918991869594930160051c01915b8281106200038c57505062000134565b600081558594508991016200037c565b925081926200036e565b91607f169162000120565b015190503880620000ef565b90889350601f19831691846000528a6000209260005b8c8282106200040e5750508411620003f4575b505050811b01855562000103565b015160001960f88460031b161c19169055388080620003e6565b8385015186558c97909501949384019301620003d3565b90915087600052886000208680850160051c8201928b861062000471575b918a91869594930160051c01915b82811062000461575050620000d8565b600081558594508a910162000451565b9250819262000443565b94607f1694620000c1565b600080fd5b6040519190601f01601f191682016001600160401b03811183821017620002c357604052565b919080601f84011215620004865782516001600160401b038111620002c357602090620004e7601f8201601f191683016200048b565b92818452828287010111620004865760005b8181106200050f57508260009394955001015290565b8581018301518482018401528201620004f956fe608060408181526004908136101561001657600080fd5b600092833560e01c9081631375d843146113cd57508063246a908b146112cf57806355f804b31461118b57806364140ec01461108c5780636c0360eb14610fcd5780636c037f8a14610d0f57806371f0442e14610c7b578063725fa09c146108c05780637e468a51146107c1578063842251d414610685578063894b4c2e146101755763b3154c08146100a857600080fd5b34610171576020918260031936011261016d5780358452825280832091815192848154906100d5826118ef565b80875292600192808416908115610149575060011461010e575b61010a8787610100828c03836114e3565b5191829182611485565b0390f35b9080949750528583205b828410610136575050508261010a94610100928201019438806100ef565b8054868501880152928601928101610118565b60ff19168887015250505050151560051b83010192506101008261010a38806100ef565b8380fd5b8280fd5b50903461017157602092836003193601126106825782516306fdde0360e01b81529180359082848281335afa938415610678578394610654575b506101b9826117ac565b926102056022875180968a6101d78184019a8b815193849201611462565b820161202360f01b8c8201526101f68c83519384918785019101611462565b010360028101875201856114e3565b828152818752858120865181549391899184610220876118ef565b80835284830193600198868a821691826000146106345750506001146105fb575b505090610254816102c9949303826114e3565b6102e561026030611a28565b898852600686526102d78d808a209a60058952818b2091519788948a86019a6102ac61028b8d611929565b91692f636f6e74726163742f60b01b83528351938491600a85019101611462565b019c6011662f746f6b656e2f60c81b9e8f600a82015201906119a5565b602f60f81b815201906119a5565b03601f1981018552846114e3565b8a51631398fee160e31b81528581018990528c81602481335afa80156105c25787906105cc575b61031691506117ac565b8b5163131f9f3f60e11b8152958601899052948c81602481335afa9081156105c2578d918d918991610589575b5061034d906117ac565b9761035733611a28565b9a815260068352208c51713d91383937b832b93a34b2b9afbab934911d60711b818401908152601160f91b60328301529a90998a93909161039a60338601611929565b9068636f6e74726163742f60b81b825280518093600984019201916103be92611462565b019060098201526010016103d1916119a5565b6f17b83937b832b93a34b2b9973539b7b760811b815261227d60f01b601082015203600d198101885260120161040790886114e3565b8a51998a998d683d913730b6b2911d1160b91b908c015251908160298c0161042e92611462565b890190701116113232b9b1b934b83a34b7b7111d1160791b6029830152519182603a830161045b92611462565b01906a11161134b6b0b3b2911d1160a91b603a8301525191826045830161048192611462565b016c1116113130b630b731b2911d1160991b6045820152815191828a605284019201916104ad92611462565b016911161139b637ba111d1160b11b60528201528151918289605c84019201916104d692611462565b01906e111611383937b832b93a34b2b9911d60891b605c830152519182606b830161050092611462565b01606b8101607d60f81b905203604c81018252606c0161052090826114e3565b61052990611631565b81517f646174613a6170706c69636174696f6e2f6a736f6e3b6261736536342c00000084820152815190938492610567918391603d86019101611462565b810103601d81018352603d0161057d90836114e3565b5161010a819282611485565b928092508391503d83116105bb575b6105a281836114e3565b810103126105b7578b61034d8e925190610343565b8680fd5b503d610598565b8c513d89823e3d90fd5b508c81813d83116105f4575b6105e281836114e3565b810103126105b757610316905161030c565b503d6105d8565b8592508752818720908888925b82841061061e5750505082010161025482610241565b80548487018601528794909301928a9101610608565b60ff1916875292151560051b850190920192506102549150839050610241565b6106719194503d8085833e61066981836114e3565b8101906115a0565b92386101af565b85513d85823e3d90fd5b80fd5b508290346107bd576106963661156d565b939083526020916006835283209184519167ffffffffffffffff83116107aa57506106c183546118ef565b601f8111610767575b5080601f831160011461070557508394829394926106fa575b50508160011b916000199060031b1c191617905580f35b0151905084806106e3565b90601f198316958486528286209286905b88821061074f57505083600195969710610736575b505050811b01905580f35b015160001960f88460031b161c1916905584808061072b565b80600185968294968601518155019501930190610716565b838552818520601f840160051c8101918385106107a0575b601f0160051c01905b81811061079557506106ca565b858155600101610788565b909150819061077f565b634e487b7160e01b855260419052602484fd5b5080fd5b508290346107bd576107d23661156d565b939083526020916007835283209184519167ffffffffffffffff83116107aa57506107fd83546118ef565b601f811161087d575b5080601f831160011461083557508394829394926106fa5750508160011b916000199060031b1c191617905580f35b90601f198316958486528286209286905b8882106108655750508360019596971061073657505050811b01905580f35b80600185968294968601518155019501930190610846565b838552818520601f840160051c8101918385106108b6575b601f0160051c01905b8181106108ab5750610806565b85815560010161089e565b9091508190610895565b50913461068257806003193601126106825782516306fdde0360e01b815281818481335afa908115610c71578291610c57575b508351829060025492610905846118ef565b9586835260209683888101956001978a8982169182600014610c3c575050600114610be1575b610937925003846114e3565b61094033611a28565b9588519586898101986109528a611929565b68636f6e74726163742f60b81b81526109758c8351938491600985019101611462565b01602f60f81b600982015283906003549361098f856118ef565b94818116908115610bc05750600114610b61575b50506109b8925003601f1981018852876114e3565b8789518093633e7e866960e01b825281335afa918215610b55578192610b17575b5050610ac9605a888a61010a9b9961010099610a7f603d9a610b079e9a610a5c610ace9b610a0c60ff610a329d166117ac565b97519b8c99683d913730b6b2911d1160b91b818c0152825192839160298d019101611462565b880191701116113232b9b1b934b83a34b7b7111d1160791b6029840152518093603a840190611462565b01916a11161134b6b0b3b2911d1160a91b603a8401525180936045840190611462565b01721116113b30b63ab2a232b1b4b6b0b639911d1160691b6045820152610aaf825180938a605885019101611462565b0161227d60f01b605882015203603a8101845201826114e3565b611631565b845195827f646174613a6170706c69636174696f6e2f6a736f6e3b6261736536342c000000889485015282519283918686019101611462565b810103601d8101855201836114e3565b9091508781813d8311610b4e575b610b2f81836114e3565b810103126107bd57519060ff821682036106825750610ac9605a6109d9565b503d610b25565b508851903d90823e3d90fd5b6003865290915084908c7fc2575a0e9e593c00f959f8c92f12db2869c3395a3b0502d05e2516446f71f85b5b868410610ba857505050506109b892600a91010138806109a3565b8054858501600a01528c95509201918d908201610b8d565b9050600a93506109b895915060ff19168383015280151502010138806109a3565b505060028752838888887f405787fa12a823e0f2b7631cc41b3ba8828b3321ca811111fa75cd3aa3bb5ace5b858310610c23575050610937935082010161092b565b80919294505483858a0101520191018990888793610c0d565b60ff1916895261093794151560051b840101915061092b9050565b610c6b91503d8084833e61066981836114e3565b386108f3565b84513d84823e3d90fd5b5034610171576020918260031936011261016d57358352600582528083209181519284815490610caa826118ef565b808752926001928084169081156101495750600114610cd45761010a8787610100828c03836114e3565b9080949750528583205b828410610cfc575050508261010a94610100928201019438806100ef565b8054868501880152928601928101610cde565b5090346101715760209283600319360112610682578054835163ec327a2160e01b815283358185018190529092916001600160a01b0316908284602481855afa938415610fc3578394610fa7575b50855163bc74ebb960e01b8152858101829052948386602481865afa958615610f9d578496610f81575b5086516309c3dd8760e01b80825282820184905290938585602481845afa948515610f7757918a9594939187938496610f56575b5090602491610dfb60268d518a652f696d61676560d01b81610de7849e85019d8e815193849201611462565b83019182015203600681018b5201896114e3565b8b51958694859384528301525afa938415610f4b578094610f2e575b50508551918288808201868197519283910191610e3392611462565b81018981016f17b83937b832b93a34b2b9973539b7b760811b905203601081018452603001610e6290846114e3565b8651958695683d913730b6b2911d1160b91b8a880152805190818b60298a01920191610e8d92611462565b8601701116113232b9b1b934b83a34b7b7111d1160791b6029820152815191828b603a8401920191610ebe92611462565b01906a11161134b6b0b3b2911d1160a91b603a83015251918260458301610ee492611462565b01906e111611383937b832b93a34b2b9911d60891b604583015251918260548301610f0e92611462565b0160548101607d60f81b90520360358101825260550161052090826114e3565b610f439294503d8091833e61066981836114e3565b913880610e17565b8751903d90823e3d90fd5b602492919650610f6f903d8087833e61066981836114e3565b959091610dbb565b89513d88823e3d90fd5b610f969196503d8086833e61066981836114e3565b9438610d87565b87513d86823e3d90fd5b610fbc9194503d8085833e61066981836114e3565b9238610d5d565b86513d85823e3d90fd5b8382346107bd57816003193601126107bd57805190826001805491610ff1836118ef565b80865292828116908115611064575060011461101a575b5050506101008261010a9403836114e3565b9450808552600080516020611b4c8339815191525b82861061104c5750505061010082602061010a9582010194611008565b8054602087870181019190915290950194810161102f565b61010a97508693506020925061010094915060ff191682840152151560051b82010194611008565b508290346107bd5761109d3661156d565b939083526020916005835283209184519167ffffffffffffffff83116107aa57506110c883546118ef565b601f8111611148575b5080601f831160011461110057508394829394926106fa5750508160011b916000199060031b1c191617905580f35b90601f198316958486528286209286905b8882106111305750508360019596971061073657505050811b01905580f35b80600185968294968601518155019501930190611111565b838552818520601f840160051c810191838510611181575b601f0160051c01905b81811061117657506110d1565b858155600101611169565b9091508190611160565b828434610682576020806003193601126107bd5767ffffffffffffffff833581811161016d576111be9036908601611521565b9384519182116112bc57506001916111d683546118ef565b601f811161126a575b5080601f8311600114611219575083948293949261120e575b5050600019600383901b1c191690821b17905580f35b0151905084806111f8565b838552601f19831695600080516020611b4c833981519152929186905b888210611253575050838596971061073657505050811b01905580f35b808785968294968601518155019501930190611236565b838552600080516020611b4c833981519152601f840160051c8101918385106112b2575b601f0160051c019084905b8281106112a75750506111df565b868155018490611299565b909150819061128e565b634e487b7160e01b845260419052602483fd5b508290346107bd576112e03661156d565b9390835260209181835283209184519167ffffffffffffffff83116107aa575061130a83546118ef565b601f811161138a575b5080601f831160011461134257508394829394926106fa5750508160011b916000199060031b1c191617905580f35b90601f198316958486528286209286905b8882106113725750508360019596971061073657505050811b01905580f35b80600185968294968601518155019501930190611353565b838552818520601f840160051c8101918385106113c3575b601f0160051c01905b8181106113b85750611313565b8581556001016113ab565b90915081906113a2565b9290503461016d576020908160031936011261145e57358452600681528184208054856113f9826118ef565b8087529260019280841690811561014957506001146114235761010a8787610100828c03836114e3565b9080949750528583205b82841061144b575050508261010a94610100928201019438806100ef565b805486850188015292860192810161142d565b8480fd5b60005b8381106114755750506000910152565b8181015183820152602001611465565b604091602082526114a58151809281602086015260208686019101611462565b601f01601f1916010190565b6060810190811067ffffffffffffffff8211176114cd57604052565b634e487b7160e01b600052604160045260246000fd5b90601f8019910116810190811067ffffffffffffffff8211176114cd57604052565b67ffffffffffffffff81116114cd57601f01601f191660200190565b81601f820112156115685780359061153882611505565b9261154660405194856114e3565b8284526020838301011161156857816000926020809301838601378301015290565b600080fd5b90604060031983011261156857600435916024359067ffffffffffffffff82116115685761159d91600401611521565b90565b6020818303126115685780519067ffffffffffffffff8211611568570181601f820112156115685780516115d381611505565b926115e160405194856114e3565b818452602082840101116115685761159d9160208085019101611462565b9061160982611505565b61161660405191826114e3565b8281528092611627601f1991611505565b0190602036910137565b8051156117875760405190611645826114b1565b604082527f4142434445464748494a4b4c4d4e4f505152535455565758595a61626364656660208301527f6768696a6b6c6d6e6f707172737475767778797a303132333435363738392b2f60408301528051600291828201809211611771576003918290046001600160fe1b0381168103611771576116c7908495941b6115ff565b936020850193829183518401906020820192835194600085525b83811061172057505050505251068060011461170d57600214611702575090565b603d90600019015390565b50603d9081600019820153600119015390565b87600491999293949901918251600190603f9082828260121c16880101518453828282600c1c16880101518385015382828260061c16880101518885015316850101518982015301979291906116e1565b634e487b7160e01b600052601160045260246000fd5b506040516020810181811067ffffffffffffffff8211176114cd576040526000815290565b806000917a184f03e93ff9f4daa797ed6e38ed64bf6a1f010000000000000000808210156118e1575b506d04ee2d6d415b85acef8100000000808310156118d2575b50662386f26fc10000808310156118c3575b506305f5e100808310156118b4575b50612710808310156118a5575b506064821015611895575b600a8092101561188b575b6001908160216118438287016115ff565b95860101905b611855575b5050505090565b600019019083906f181899199a1a9b1b9c1cb0b131b232b360811b8282061a83530491821561188657919082611849565b61184e565b9160010191611832565b9190606460029104910191611827565b6004919392049101913861181c565b6008919392049101913861180f565b60109193920491019138611800565b602091939204910191386117ee565b6040935081049150386117d5565b90600182811c9216801561191f575b602083101461190957565b634e487b7160e01b600052602260045260246000fd5b91607f16916118fe565b9060009160019081549161193c836118ef565b92818116908115611992575060011461195457505050565b809192939450600052600080516020611b4c833981519152906000915b84831061197f575050500190565b8181602092548587015201920191611971565b60ff191683525050811515909102019150565b6000929181546119b4816118ef565b92600191808316908115611a0d57506001146119d1575b50505050565b90919293945060005260209081600020906000915b8583106119fc57505050500190388080806119cb565b8054858401529183019181016119e6565b60ff19168452505050811515909102019150388080806119cb565b604051906001600160a01b0316611a3e826114b1565b602a82526020908183016040368237835115611b3557603090538251600190811015611b3557607860218501536029905b808211611ac3575050611a80575090565b6064906040519062461bcd60e51b825280600483015260248201527f537472696e67733a20686578206c656e67746820696e73756666696369656e746044820152fd5b9091600f81166010811015611b20578551841015611b20576f181899199a1a9b1b9c1cb0b131b232b360811b901a85840185015360041c918015611b0b576000190190611a6f565b60246000634e487b7160e01b81526011600452fd5b60246000634e487b7160e01b81526032600452fd5b634e487b7160e01b600052603260045260246000fdfeb10e2d527612073b26eecdfd717e6a320cf44b4afac2b0732d9fcbe2b7fa0cf6a264697066735822122061ff1a13aed041bfa23394cc44d48966f9ae8be5bf078d1de33aa23665105e1b64736f6c634300081100332f8788117e7eff1d82e926ec794901d17c78024a50270940304540a733656f0dec8156718a8372b1db44bb411437d0870f3e3790d4a08526d024ce1b0b668f6b290decd9548b62a8d60345a988386fc84ba6bc95484008f6362f93160ef3e563",
  "linkReferences": {},
  "deployedLinkReferences": {}
}