{
  "_format": "hh-sol-artifact-1",
  "contractName": "Offering",
  "sourceName": "contracts/Offering.sol",
  "abi": [
    {
      "inputs": [
        {
          "internalType": "address",
          "name": "revenueAcct_",
          "type": "address"
        },
        {
          "internalType": "address",
          "name": "registry_",
          "type": "address"
        },
        {
          "internalType": "address",
          "name": "poolContract_",
          "type": "address"
        },
        {
          "internalType": "address",
          "name": "underlyingContract_",
          "type": "address"
        },
        {
          "internalType": "string",
          "name": "name_",
          "type": "string"
        },
        {
          "internalType": "string",
          "name": "symbol_",
          "type": "string"
        },
        {
          "internalType": "string",
          "name": "baseuri_",
          "type": "string"
        },
        {
          "internalType": "string",
          "name": "contractDescription_",
          "type": "string"
        },
        {
          "internalType": "string",
          "name": "contractImage_",
          "type": "string"
        },
        {
          "internalType": "string",
          "name": "valueToken_",
          "type": "string"
        },
        {
          "internalType": "uint8",
          "name": "decimals_",
          "type": "uint8"
        }
      ],
      "stateMutability": "nonpayable",
      "type": "constructor"
    },
    {
      "anonymous": false,
      "inputs": [
        {
          "indexed": true,
          "internalType": "address",
          "name": "_owner",
          "type": "address"
        },
        {
          "indexed": true,
          "internalType": "address",
          "name": "_approved",
          "type": "address"
        },
        {
          "indexed": true,
          "internalType": "uint256",
          "name": "_tokenId",
          "type": "uint256"
        }
      ],
      "name": "Approval",
      "type": "event"
    },
    {
      "anonymous": false,
      "inputs": [
        {
          "indexed": true,
          "internalType": "address",
          "name": "_owner",
          "type": "address"
        },
        {
          "indexed": true,
          "internalType": "address",
          "name": "_operator",
          "type": "address"
        },
        {
          "indexed": false,
          "internalType": "bool",
          "name": "_approved",
          "type": "bool"
        }
      ],
      "name": "ApprovalForAll",
      "type": "event"
    },
    {
      "anonymous": false,
      "inputs": [
        {
          "indexed": true,
          "internalType": "uint256",
          "name": "_tokenId",
          "type": "uint256"
        },
        {
          "indexed": true,
          "internalType": "address",
          "name": "_operator",
          "type": "address"
        },
        {
          "indexed": false,
          "internalType": "uint256",
          "name": "_value",
          "type": "uint256"
        }
      ],
      "name": "ApprovalValue",
      "type": "event"
    },
    {
      "anonymous": false,
      "inputs": [
        {
          "indexed": false,
          "internalType": "uint256",
          "name": "tokenId",
          "type": "uint256"
        },
        {
          "indexed": false,
          "internalType": "uint256",
          "name": "slot",
          "type": "uint256"
        },
        {
          "indexed": false,
          "internalType": "uint256",
          "name": "value",
          "type": "uint256"
        }
      ],
      "name": "CreditValue",
      "type": "event"
    },
    {
      "anonymous": false,
      "inputs": [
        {
          "indexed": false,
          "internalType": "uint256",
          "name": "offeringId",
          "type": "uint256"
        },
        {
          "indexed": false,
          "internalType": "uint256",
          "name": "slot",
          "type": "uint256"
        },
        {
          "indexed": false,
          "internalType": "uint256",
          "name": "value",
          "type": "uint256"
        }
      ],
      "name": "ListOffering",
      "type": "event"
    },
    {
      "anonymous": false,
      "inputs": [
        {
          "indexed": false,
          "internalType": "address",
          "name": "contractAddress",
          "type": "address"
        }
      ],
      "name": "MetadataDescriptor",
      "type": "event"
    },
    {
      "anonymous": false,
      "inputs": [
        {
          "indexed": false,
          "internalType": "uint256",
          "name": "tokenId",
          "type": "uint256"
        },
        {
          "indexed": false,
          "internalType": "uint256",
          "name": "slot",
          "type": "uint256"
        },
        {
          "indexed": false,
          "internalType": "uint256",
          "name": "value",
          "type": "uint256"
        }
      ],
      "name": "MintOffering",
      "type": "event"
    },
    {
      "anonymous": false,
      "inputs": [
        {
          "indexed": true,
          "internalType": "bytes32",
          "name": "role",
          "type": "bytes32"
        },
        {
          "indexed": true,
          "internalType": "bytes32",
          "name": "previousAdminRole",
          "type": "bytes32"
        },
        {
          "indexed": true,
          "internalType": "bytes32",
          "name": "newAdminRole",
          "type": "bytes32"
        }
      ],
      "name": "RoleAdminChanged",
      "type": "event"
    },
    {
      "anonymous": false,
      "inputs": [
        {
          "indexed": true,
          "internalType": "bytes32",
          "name": "role",
          "type": "bytes32"
        },
        {
          "indexed": true,
          "internalType": "address",
          "name": "account",
          "type": "address"
        },
        {
          "indexed": true,
          "internalType": "address",
          "name": "sender",
          "type": "address"
        }
      ],
      "name": "RoleGranted",
      "type": "event"
    },
    {
      "anonymous": false,
      "inputs": [
        {
          "indexed": true,
          "internalType": "bytes32",
          "name": "role",
          "type": "bytes32"
        },
        {
          "indexed": true,
          "internalType": "address",
          "name": "account",
          "type": "address"
        },
        {
          "indexed": true,
          "internalType": "address",
          "name": "sender",
          "type": "address"
        }
      ],
      "name": "RoleRevoked",
      "type": "event"
    },
    {
      "anonymous": false,
      "inputs": [
        {
          "indexed": true,
          "internalType": "address",
          "name": "metadataDescriptor",
          "type": "address"
        }
      ],
      "name": "SetMetadataDescriptor",
      "type": "event"
    },
    {
      "anonymous": false,
      "inputs": [
        {
          "indexed": true,
          "internalType": "uint256",
          "name": "_tokenId",
          "type": "uint256"
        },
        {
          "indexed": true,
          "internalType": "uint256",
          "name": "_oldSlot",
          "type": "uint256"
        },
        {
          "indexed": true,
          "internalType": "uint256",
          "name": "_newSlot",
          "type": "uint256"
        }
      ],
      "name": "SlotChanged",
      "type": "event"
    },
    {
      "anonymous": false,
      "inputs": [
        {
          "indexed": true,
          "internalType": "address",
          "name": "_from",
          "type": "address"
        },
        {
          "indexed": true,
          "internalType": "address",
          "name": "_to",
          "type": "address"
        },
        {
          "indexed": true,
          "internalType": "uint256",
          "name": "_tokenId",
          "type": "uint256"
        }
      ],
      "name": "Transfer",
      "type": "event"
    },
    {
      "anonymous": false,
      "inputs": [
        {
          "indexed": true,
          "internalType": "uint256",
          "name": "_fromTokenId",
          "type": "uint256"
        },
        {
          "indexed": true,
          "internalType": "uint256",
          "name": "_toTokenId",
          "type": "uint256"
        },
        {
          "indexed": false,
          "internalType": "uint256",
          "name": "_value",
          "type": "uint256"
        }
      ],
      "name": "TransferValue",
      "type": "event"
    },
    {
      "inputs": [],
      "name": "DEFAULT_ADMIN_ROLE",
      "outputs": [
        {
          "internalType": "bytes32",
          "name": "",
          "type": "bytes32"
        }
      ],
      "stateMutability": "view",
      "type": "function"
    },
    {
      "inputs": [
        {
          "internalType": "string",
          "name": "uri_",
          "type": "string"
        }
      ],
      "name": "_setBaseURI",
      "outputs": [],
      "stateMutability": "nonpayable",
      "type": "function"
    },
    {
      "inputs": [
        {
          "internalType": "uint256",
          "name": "offeringId_",
          "type": "uint256"
        },
        {
          "internalType": "address",
          "name": "tokenContract_",
          "type": "address"
        },
        {
          "internalType": "uint256",
          "name": "tokenId_",
          "type": "uint256"
        }
      ],
      "name": "access",
      "outputs": [
        {
          "internalType": "bool",
          "name": "",
          "type": "bool"
        }
      ],
      "stateMutability": "nonpayable",
      "type": "function"
    },
    {
      "inputs": [
        {
          "internalType": "address",
          "name": "creditContract_",
          "type": "address"
        },
        {
          "internalType": "uint256",
          "name": "creditTokenId_",
          "type": "uint256"
        },
        {
          "internalType": "uint256",
          "name": "creditSlotId_",
          "type": "uint256"
        },
        {
          "internalType": "uint256",
          "name": "discountMilliBasisPts_",
          "type": "uint256"
        },
        {
          "internalType": "string",
          "name": "offeringAssetId_",
          "type": "string"
        },
        {
          "internalType": "uint256",
          "name": "value_",
          "type": "uint256"
        },
        {
          "internalType": "uint256",
          "name": "endTime_",
          "type": "uint256"
        }
      ],
      "name": "accessFromCredits",
      "outputs": [
        {
          "internalType": "bool",
          "name": "",
          "type": "bool"
        }
      ],
      "stateMutability": "nonpayable",
      "type": "function"
    },
    {
      "inputs": [
        {
          "internalType": "string",
          "name": "assetId_",
          "type": "string"
        },
        {
          "internalType": "uint256",
          "name": "msgId_",
          "type": "uint256"
        },
        {
          "internalType": "enum Offering.ActionType",
          "name": "actionType_",
          "type": "uint8"
        }
      ],
      "name": "addUserAction",
      "outputs": [],
      "stateMutability": "nonpayable",
      "type": "function"
    },
    {
      "inputs": [
        {
          "internalType": "uint256",
          "name": "tokenId_",
          "type": "uint256"
        },
        {
          "internalType": "address",
          "name": "operator_",
          "type": "address"
        }
      ],
      "name": "allowance",
      "outputs": [
        {
          "internalType": "uint256",
          "name": "",
          "type": "uint256"
        }
      ],
      "stateMutability": "view",
      "type": "function"
    },
    {
      "inputs": [
        {
          "internalType": "address",
          "name": "to_",
          "type": "address"
        },
        {
          "internalType": "uint256",
          "name": "tokenId_",
          "type": "uint256"
        }
      ],
      "name": "approve",
      "outputs": [],
      "stateMutability": "payable",
      "type": "function"
    },
    {
      "inputs": [
        {
          "internalType": "uint256",
          "name": "tokenId_",
          "type": "uint256"
        },
        {
          "internalType": "address",
          "name": "to_",
          "type": "address"
        },
        {
          "internalType": "uint256",
          "name": "value_",
          "type": "uint256"
        }
      ],
      "name": "approve",
      "outputs": [],
      "stateMutability": "payable",
      "type": "function"
    },
    {
      "inputs": [
        {
          "internalType": "address",
          "name": "creditContract_",
          "type": "address"
        }
      ],
      "name": "approveCredit",
      "outputs": [],
      "stateMutability": "nonpayable",
      "type": "function"
    },
    {
      "inputs": [
        {
          "internalType": "string",
          "name": "offeringAssetId_",
          "type": "string"
        }
      ],
      "name": "assetOffering",
      "outputs": [
        {
          "internalType": "uint256",
          "name": "",
          "type": "uint256"
        }
      ],
      "stateMutability": "view",
      "type": "function"
    },
    {
      "inputs": [
        {
          "internalType": "address",
          "name": "owner_",
          "type": "address"
        }
      ],
      "name": "balanceOf",
      "outputs": [
        {
          "internalType": "uint256",
          "name": "balance",
          "type": "uint256"
        }
      ],
      "stateMutability": "view",
      "type": "function"
    },
    {
      "inputs": [
        {
          "internalType": "uint256",
          "name": "tokenId_",
          "type": "uint256"
        }
      ],
      "name": "balanceOf",
      "outputs": [
        {
          "internalType": "uint256",
          "name": "",
          "type": "uint256"
        }
      ],
      "stateMutability": "view",
      "type": "function"
    },
    {
      "inputs": [],
      "name": "contractURI",
      "outputs": [
        {
          "internalType": "string",
          "name": "",
          "type": "string"
        }
      ],
      "stateMutability": "view",
      "type": "function"
    },
    {
      "inputs": [
        {
          "internalType": "uint256",
          "name": "tokenId_",
          "type": "uint256"
        }
      ],
      "name": "getApproved",
      "outputs": [
        {
          "internalType": "address",
          "name": "",
          "type": "address"
        }
      ],
      "stateMutability": "view",
      "type": "function"
    },
    {
      "inputs": [
        {
          "internalType": "string",
          "name": "assetId_",
          "type": "string"
        }
      ],
      "name": "getAssetUserActions",
      "outputs": [
        {
          "components": [
            {
              "internalType": "enum Offering.ActionType",
              "name": "actionType",
              "type": "uint8"
            },
            {
              "internalType": "uint256",
              "name": "actionTime",
              "type": "uint256"
            },
            {
              "internalType": "uint256",
              "name": "messageId",
              "type": "uint256"
            }
          ],
          "internalType": "struct Offering.UserAction[]",
          "name": "",
          "type": "tuple[]"
        }
      ],
      "stateMutability": "view",
      "type": "function"
    },
    {
      "inputs": [
        {
          "internalType": "bytes32",
          "name": "role",
          "type": "bytes32"
        }
      ],
      "name": "getRoleAdmin",
      "outputs": [
        {
          "internalType": "bytes32",
          "name": "",
          "type": "bytes32"
        }
      ],
      "stateMutability": "view",
      "type": "function"
    },
    {
      "inputs": [
        {
          "internalType": "address",
          "name": "user_",
          "type": "address"
        },
        {
          "internalType": "uint256",
          "name": "offeringId_",
          "type": "uint256"
        }
      ],
      "name": "grantAccess",
      "outputs": [
        {
          "internalType": "bool",
          "name": "",
          "type": "bool"
        }
      ],
      "stateMutability": "view",
      "type": "function"
    },
    {
      "inputs": [
        {
          "internalType": "bytes32",
          "name": "role",
          "type": "bytes32"
        },
        {
          "internalType": "address",
          "name": "account",
          "type": "address"
        }
      ],
      "name": "grantRole",
      "outputs": [],
      "stateMutability": "nonpayable",
      "type": "function"
    },
    {
      "inputs": [
        {
          "internalType": "bytes32",
          "name": "role",
          "type": "bytes32"
        },
        {
          "internalType": "address",
          "name": "account",
          "type": "address"
        }
      ],
      "name": "hasRole",
      "outputs": [
        {
          "internalType": "bool",
          "name": "",
          "type": "bool"
        }
      ],
      "stateMutability": "view",
      "type": "function"
    },
    {
      "inputs": [
        {
          "internalType": "address",
          "name": "creditContract_",
          "type": "address"
        }
      ],
      "name": "isApproveCredit",
      "outputs": [
        {
          "internalType": "bool",
          "name": "",
          "type": "bool"
        }
      ],
      "stateMutability": "view",
      "type": "function"
    },
    {
      "inputs": [
        {
          "internalType": "address",
          "name": "owner_",
          "type": "address"
        },
        {
          "internalType": "address",
          "name": "operator_",
          "type": "address"
        }
      ],
      "name": "isApprovedForAll",
      "outputs": [
        {
          "internalType": "bool",
          "name": "",
          "type": "bool"
        }
      ],
      "stateMutability": "view",
      "type": "function"
    },
    {
      "inputs": [],
      "name": "metadataDescriptor",
      "outputs": [
        {
          "internalType": "contract IERC3525MetadataDescriptor",
          "name": "",
          "type": "address"
        }
      ],
      "stateMutability": "view",
      "type": "function"
    },
    {
      "inputs": [
        {
          "internalType": "address",
          "name": "owner_",
          "type": "address"
        },
        {
          "internalType": "uint256",
          "name": "slotId_",
          "type": "uint256"
        },
        {
          "internalType": "uint256",
          "name": "value_",
          "type": "uint256"
        },
        {
          "internalType": "string",
          "name": "offeringAssetId_",
          "type": "string"
        }
      ],
      "name": "mint",
      "outputs": [
        {
          "internalType": "uint256",
          "name": "",
          "type": "uint256"
        }
      ],
      "stateMutability": "nonpayable",
      "type": "function"
    },
    {
      "inputs": [
        {
          "internalType": "address",
          "name": "creditContract_",
          "type": "address"
        },
        {
          "internalType": "uint256",
          "name": "creditTokenId_",
          "type": "uint256"
        },
        {
          "internalType": "uint256",
          "name": "discountMilliBasisPts_",
          "type": "uint256"
        },
        {
          "internalType": "address",
          "name": "owner_",
          "type": "address"
        },
        {
          "internalType": "uint256",
          "name": "slotId_",
          "type": "uint256"
        },
        {
          "internalType": "uint256",
          "name": "value_",
          "type": "uint256"
        },
        {
          "internalType": "string",
          "name": "offeringAssetId_",
          "type": "string"
        }
      ],
      "name": "mintFromCredits",
      "outputs": [
        {
          "internalType": "uint256",
          "name": "",
          "type": "uint256"
        }
      ],
      "stateMutability": "nonpayable",
      "type": "function"
    },
    {
      "inputs": [
        {
          "internalType": "address",
          "name": "owner_",
          "type": "address"
        },
        {
          "internalType": "string[]",
          "name": "asset_",
          "type": "string[]"
        },
        {
          "internalType": "string[]",
          "name": "assetUri_",
          "type": "string[]"
        },
        {
          "internalType": "string[]",
          "name": "assetType_",
          "type": "string[]"
        },
        {
          "internalType": "uint256",
          "name": "value_",
          "type": "uint256"
        },
        {
          "internalType": "uint256",
          "name": "slotId_",
          "type": "uint256"
        },
        {
          "internalType": "string",
          "name": "offeringAssetId_",
          "type": "string"
        },
        {
          "internalType": "string",
          "name": "side_",
          "type": "string"
        },
        {
          "internalType": "string",
          "name": "description_",
          "type": "string"
        },
        {
          "internalType": "string",
          "name": "image_",
          "type": "string"
        },
        {
          "internalType": "string",
          "name": "properties_",
          "type": "string"
        },
        {
          "internalType": "bool",
          "name": "canShareOwn_",
          "type": "bool"
        },
        {
          "internalType": "bool",
          "name": "isMultiAccess_",
          "type": "bool"
        }
      ],
      "name": "mktListOffering",
      "outputs": [],
      "stateMutability": "nonpayable",
      "type": "function"
    },
    {
      "inputs": [],
      "name": "name",
      "outputs": [
        {
          "internalType": "string",
          "name": "",
          "type": "string"
        }
      ],
      "stateMutability": "view",
      "type": "function"
    },
    {
      "inputs": [
        {
          "internalType": "uint256",
          "name": "offeringId_",
          "type": "uint256"
        }
      ],
      "name": "numOwners",
      "outputs": [
        {
          "internalType": "uint256",
          "name": "",
          "type": "uint256"
        }
      ],
      "stateMutability": "view",
      "type": "function"
    },
    {
      "inputs": [
        {
          "internalType": "uint256",
          "name": "offeringId_",
          "type": "uint256"
        }
      ],
      "name": "offering",
      "outputs": [
        {
          "components": [
            {
              "internalType": "address",
              "name": "creator",
              "type": "address"
            },
            {
              "internalType": "uint256",
              "name": "offeringId",
              "type": "uint256"
            },
            {
              "internalType": "bytes32[]",
              "name": "assets",
              "type": "bytes32[]"
            },
            {
              "internalType": "uint256[]",
              "name": "tokens",
              "type": "uint256[]"
            },
            {
              "internalType": "int256",
              "name": "value",
              "type": "int256"
            },
            {
              "internalType": "uint256",
              "name": "slotId",
              "type": "uint256"
            },
            {
              "internalType": "string",
              "name": "side",
              "type": "string"
            },
            {
              "internalType": "string",
              "name": "description",
              "type": "string"
            },
            {
              "internalType": "string",
              "name": "image",
              "type": "string"
            },
            {
              "internalType": "string",
              "name": "properties",
              "type": "string"
            },
            {
              "internalType": "bool",
              "name": "canShareOwn",
              "type": "bool"
            },
            {
              "internalType": "bool",
              "name": "isMultiAccess",
              "type": "bool"
            }
          ],
          "internalType": "struct Offering.SvcOffering",
          "name": "",
          "type": "tuple"
        }
      ],
      "stateMutability": "view",
      "type": "function"
    },
    {
      "inputs": [
        {
          "internalType": "uint256",
          "name": "tokenId_",
          "type": "uint256"
        }
      ],
      "name": "ownerOf",
      "outputs": [
        {
          "internalType": "address",
          "name": "owner_",
          "type": "address"
        }
      ],
      "stateMutability": "view",
      "type": "function"
    },
    {
      "inputs": [
        {
          "internalType": "string",
          "name": "offeringAssetId_",
          "type": "string"
        },
        {
          "internalType": "uint256",
          "name": "tokenId_",
          "type": "uint256"
        }
      ],
      "name": "ownershipMilliBasisPts",
      "outputs": [
        {
          "internalType": "int256",
          "name": "",
          "type": "int256"
        }
      ],
      "stateMutability": "view",
      "type": "function"
    },
    {
      "inputs": [
        {
          "internalType": "uint256",
          "name": "tokenId_",
          "type": "uint256"
        },
        {
          "internalType": "uint256",
          "name": "slotId_",
          "type": "uint256"
        },
        {
          "internalType": "uint256",
          "name": "value_",
          "type": "uint256"
        }
      ],
      "name": "redeem",
      "outputs": [],
      "stateMutability": "nonpayable",
      "type": "function"
    },
    {
      "inputs": [
        {
          "internalType": "bytes32",
          "name": "role",
          "type": "bytes32"
        },
        {
          "internalType": "address",
          "name": "account",
          "type": "address"
        }
      ],
      "name": "renounceRole",
      "outputs": [],
      "stateMutability": "nonpayable",
      "type": "function"
    },
    {
      "inputs": [
        {
          "internalType": "bytes32",
          "name": "role",
          "type": "bytes32"
        },
        {
          "internalType": "address",
          "name": "account",
          "type": "address"
        }
      ],
      "name": "revokeRole",
      "outputs": [],
      "stateMutability": "nonpayable",
      "type": "function"
    },
    {
      "inputs": [
        {
          "internalType": "address",
          "name": "from_",
          "type": "address"
        },
        {
          "internalType": "address",
          "name": "to_",
          "type": "address"
        },
        {
          "internalType": "uint256",
          "name": "tokenId_",
          "type": "uint256"
        }
      ],
      "name": "safeTransferFrom",
      "outputs": [],
      "stateMutability": "payable",
      "type": "function"
    },
    {
      "inputs": [
        {
          "internalType": "address",
          "name": "from_",
          "type": "address"
        },
        {
          "internalType": "address",
          "name": "to_",
          "type": "address"
        },
        {
          "internalType": "uint256",
          "name": "tokenId_",
          "type": "uint256"
        },
        {
          "internalType": "bytes",
          "name": "data_",
          "type": "bytes"
        }
      ],
      "name": "safeTransferFrom",
      "outputs": [],
      "stateMutability": "payable",
      "type": "function"
    },
    {
      "inputs": [
        {
          "internalType": "address",
          "name": "operator_",
          "type": "address"
        },
        {
          "internalType": "bool",
          "name": "approved_",
          "type": "bool"
        }
      ],
      "name": "setApprovalForAll",
      "outputs": [],
      "stateMutability": "nonpayable",
      "type": "function"
    },
    {
      "inputs": [
        {
          "internalType": "uint256",
          "name": "tokenId_",
          "type": "uint256"
        }
      ],
      "name": "slotOf",
      "outputs": [
        {
          "internalType": "uint256",
          "name": "",
          "type": "uint256"
        }
      ],
      "stateMutability": "view",
      "type": "function"
    },
    {
      "inputs": [
        {
          "internalType": "uint256",
          "name": "slot_",
          "type": "uint256"
        }
      ],
      "name": "slotURI",
      "outputs": [
        {
          "internalType": "string",
          "name": "",
          "type": "string"
        }
      ],
      "stateMutability": "view",
      "type": "function"
    },
    {
      "inputs": [
        {
          "internalType": "bytes4",
          "name": "interfaceId",
          "type": "bytes4"
        }
      ],
      "name": "supportsInterface",
      "outputs": [
        {
          "internalType": "bool",
          "name": "",
          "type": "bool"
        }
      ],
      "stateMutability": "view",
      "type": "function"
    },
    {
      "inputs": [],
      "name": "symbol",
      "outputs": [
        {
          "internalType": "string",
          "name": "",
          "type": "string"
        }
      ],
      "stateMutability": "view",
      "type": "function"
    },
    {
      "inputs": [
        {
          "internalType": "uint256",
          "name": "index_",
          "type": "uint256"
        }
      ],
      "name": "tokenByIndex",
      "outputs": [
        {
          "internalType": "uint256",
          "name": "",
          "type": "uint256"
        }
      ],
      "stateMutability": "view",
      "type": "function"
    },
    {
      "inputs": [
        {
          "internalType": "address",
          "name": "owner_",
          "type": "address"
        },
        {
          "internalType": "uint256",
          "name": "index_",
          "type": "uint256"
        }
      ],
      "name": "tokenOfOwnerByIndex",
      "outputs": [
        {
          "internalType": "uint256",
          "name": "",
          "type": "uint256"
        }
      ],
      "stateMutability": "view",
      "type": "function"
    },
    {
      "inputs": [
        {
          "internalType": "uint256",
          "name": "tokenId_",
          "type": "uint256"
        }
      ],
      "name": "tokenURI",
      "outputs": [
        {
          "internalType": "string",
          "name": "",
          "type": "string"
        }
      ],
      "stateMutability": "view",
      "type": "function"
    },
    {
      "inputs": [],
      "name": "totalSupply",
      "outputs": [
        {
          "internalType": "uint256",
          "name": "",
          "type": "uint256"
        }
      ],
      "stateMutability": "view",
      "type": "function"
    },
    {
      "inputs": [
        {
          "internalType": "uint256",
          "name": "fromTokenId_",
          "type": "uint256"
        },
        {
          "internalType": "address",
          "name": "to_",
          "type": "address"
        },
        {
          "internalType": "uint256",
          "name": "value_",
          "type": "uint256"
        }
      ],
      "name": "transferFrom",
      "outputs": [
        {
          "internalType": "uint256",
          "name": "",
          "type": "uint256"
        }
      ],
      "stateMutability": "payable",
      "type": "function"
    },
    {
      "inputs": [
        {
          "internalType": "address",
          "name": "from_",
          "type": "address"
        },
        {
          "internalType": "address",
          "name": "to_",
          "type": "address"
        },
        {
          "internalType": "uint256",
          "name": "tokenId_",
          "type": "uint256"
        }
      ],
      "name": "transferFrom",
      "outputs": [],
      "stateMutability": "payable",
      "type": "function"
    },
    {
      "inputs": [
        {
          "internalType": "uint256",
          "name": "fromTokenId_",
          "type": "uint256"
        },
        {
          "internalType": "uint256",
          "name": "toTokengId_",
          "type": "uint256"
        },
        {
          "internalType": "uint256",
          "name": "value_",
          "type": "uint256"
        }
      ],
      "name": "transferFrom",
      "outputs": [],
      "stateMutability": "payable",
      "type": "function"
    },
    {
      "inputs": [],
      "name": "valueDecimals",
      "outputs": [
        {
          "internalType": "uint8",
          "name": "",
          "type": "uint8"
        }
      ],
      "stateMutability": "view",
      "type": "function"
    }
  ],
  "bytecode": "0x6080604052346200058f5762008491803803806200001d8162000594565b9283398101610160828203126200058f576200003982620005ba565b906200004860208401620005ba565b6200005660408501620005ba565b936200006560608201620005ba565b60808201519095906001600160401b0381116200058f57846200008a918401620005f4565b60a08301516001600160401b0381116200058f5785620000ac918501620005f4565b60c08401519094906001600160401b0381116200058f5786620000d1918601620005f4565b60e08501519095906001600160401b0381116200058f5787620000f6918701620005f4565b6101008601519097906001600160401b0381116200058f57816200011c918801620005f4565b6101208701519096906001600160401b0381116200058f576101409262000145918301620005f4565b5001519260ff841684036200058f578051906001600160401b0382116200037e5760005490600182811c9216801562000584575b60208310146200047b5781601f84931162000524575b50602090601f8311600114620004a8576000926200049c575b50508160011b916000199060031b1c1916176000555b8051906001600160401b0382116200037e57600154600181811c9116801562000491575b60208210146200047b57601f811162000415575b50602090601f8311600114620003a05760ff949392916000918362000394575b50508160011b916000199060031b1c1916176001555b828216831960025416176002556298968060105560018060a01b0398898080938160018060a01b03199c168c600e541617600e551695868b600a541617600a551689600b541617600b55168088601c541617601c5587600d541617600d55166011553385600f541617600f55620002a5601d5462000672565b601d55620002b5601e5462000672565b601e55604051936120b7808601936001600160401b038511878610176200037e576200030c606093620002fd89986200031b95620063ba8b396080895260808901906200064b565b9087820360208901526200064b565b9085820360408701526200064b565b92015203906000f090811562000372577f9ac4f8025631594629895b778dc5ee88d01673a254a2291f6b6b174ad25230ca926020921680916008541617600855604051908152a1604051615d219081620006998239f35b6040513d6000823e3d90fd5b634e487b7160e01b600052604160045260246000fd5b01519050388062000216565b90600160005260206000209160005b601f1985168110620003fc575091839160019360ff979695601f19811610620003e2575b505050811b016001556200022c565b015160001960f88460031b161c19169055388080620003d3565b91926020600181928685015181550194019201620003af565b60016000527fb10e2d527612073b26eecdfd717e6a320cf44b4afac2b0732d9fcbe2b7fa0cf6601f840160051c81016020851062000473575b601f830160051c8201811062000466575050620001f6565b600081556001016200044e565b50806200044e565b634e487b7160e01b600052602260045260246000fd5b90607f1690620001e2565b015190503880620001a8565b600080805293506000805160206200847183398151915291905b601f198416851062000508576001945083601f19811610620004ee575b505050811b01600055620001be565b015160001960f88460031b161c19169055388080620004df565b81810151835560209485019460019093019290910190620004c2565b6000805290915060008051602062008471833981519152601f840160051c8101602085106200057c575b90849392915b601f830160051c820181106200056c5750506200018f565b6000815585945060010162000554565b50806200054e565b91607f169162000179565b600080fd5b6040519190601f01601f191682016001600160401b038111838210176200037e57604052565b51906001600160a01b03821682036200058f57565b60005b838110620005e35750506000910152565b8181015183820152602001620005d2565b81601f820112156200058f5780516001600160401b0381116200037e5762000626601f8201601f191660200162000594565b92818452602082840101116200058f57620006489160208085019101620005cf565b90565b906020916200066681518092818552858086019101620005cf565b601f01601f1916010190565b6000198114620006825760010190565b634e487b7160e01b600052601160045260246000fdfe61016080604052600436101561001457600080fd5b600060a05260003560e01c90816301e98bfa14613b505750806301ffc9a714613afb57806306fdde0314613a55578063081812fc14613a37578063095ea7b3146138f257806309c3dd871461385d5780630f485c02146131f557806318160ddd146131d55780631ba0c2801461310d57806323b872dd14613072578063248a9ca314613041578063263f3e7e146130235780632f2ff15d14612f615780632f745c5914612eb4578063310ed7f014612bfb57806331b5b90714612b6157806336568abe14612acf5780633e7e866914612aac57806342842e0e14612a885780634b6ddb0414612a475780634f6ccce7146129c35780635e3ac372146128865780636352211e1461285657806370a0823114612833578063715d5e27146127a4578063840f7113146127795780638cb0a511146126d857806391d148541461268957806395d89b41146125bc5780639cc7f7081461259e5780639df89256146125095780639e69e8a114612460578063a217fddf14612442578063a22cb4651461235e578063aeaeb4901461211f578063b819220514611cb9578063b88d4fde14611c5f578063bb7fde7114611c13578063c672c93f14611be2578063c87b56dd1461196c578063c9b380f81461189d578063cc2a059814610974578063d547741f1461092d578063db24ec6c14610661578063e0dfdfae14610401578063e345e0bc146103d3578063e8a3d485146102965763e985e9c51461023557600080fd5b346102905760403660031901126102905761024e613ce1565b610256613cf7565b9060018060a01b0380911660a0515260076020526002604060a05120019116600052602052602060ff604060002054166040519015158152f35b60a05180fd5b346102905760a051806003193601126103d0576040516102b581613dff565b60a08051825260085490516001600160a01b039091169190821561034857505060405190631c97e82760e21b82528160048160a051935afa801561033b576103169160a0519161031a575b505b604051918291602083526020830190613d30565b0390f35b610335913d8091833e61032d8183613e1a565b810190614546565b82610300565b6040513d60a051823e3d90fd5b909150156103b757610316906103b2602961036230614257565b92604051938161037c869351809260208087019101613d0d565b820168636f6e74726163742f60b81b60208201526103a38251809360208785019101613d0d565b01036009810184520182613e1a565b610302565b506103166040516103c781613dff565b60008152610302565b80fd5b346102905760403660031901126102905760206103f96103f1613cf7565b60043561461b565b604051908152f35b346102905760e03660031901126102905761041a613ce1565b6064356024356001600160a01b0380831683036105fc576084359260c4356001600160401b03811161029057610454903690600401613e8d565b600a54604051637daa6b9160e11b81526001600160a01b03881660048201526024810186905260209790929188908490604490829089165afa93841561033b578588928a9560a05197610608575b5083926104f37f1b760f25764c3cd3acd41610bcb59c4d18589986a6f7cf409054ccf04468f8cb9561053194889416998a60a05152601a8a526104ed60ff604060a051205416614fd7565b14615023565b61052960105461052461050760115461507e565b61051f61051960a4359260443561508c565b846150a7565b6150c0565b61508c565b93849161514a565b60408051828152602081019a909a5289019190915296606090a181815191012092600a541692602460405180958193633f0b1c4f60e01b835260048301525afa90811561033b5760a051916105d3575b600192506040519361059285613d92565b4285528685019260a051845260a05152601b875260a0519160408320906000528752604060002091528552604060a051209251835551910155604051908152f35b90508482813d8311610601575b6105ea8183613e1a565b810103126105fc576001915190610581565b600080fd5b503d6105e0565b9592935095505083813d831161065a575b6106238183613e1a565b810103126105fc579151928792879186907f1b760f25764c3cd3acd41610bcb59c4d18589986a6f7cf409054ccf04468f8cb6104a2565b503d610619565b346102905760203660031901126102905760405161067e81613dc8565b60a051815260a05160208201526060604082015260608082015260a051608082015260a05160a0820152606060c0820152606060e08201526060610100820152606061012082015260a05161014082015261016060a05191015260043560a051526015602052604060a05120604051906106f782613dc8565b60018060a01b038154168252600181015460208301526002810160405190816020825491828152019160a0515260a0519060208220915b818110610917578660ff600a8888610748818a0382613e1a565b6040850152610759600382016150e3565b606085015260048101546080850152600581015460a085015261077e6006820161438f565b60c085015261078f6007820161438f565b60e08501526107a06008820161438f565b6101008501526107b26009820161438f565b6101208501520154818116151561014084015260081c1615156101608201526040516020815260018060a01b0382511660208201526020820151604082015260408201519161018060608301526101a08201835180915260206101c0840194019060a0515b81811061090157505050606081015192601f198382030160808401526020808551928381520194019060a0515b8181106108eb575050506101606108d06108b86108a06108898697608087015160a089015260a087015160c089015260c0870151601f198983030160e08a0152613d30565b60e0860151878203601f1901610100890152613d30565b610100850151868203601f1901610120880152613d30565b610120840151858203601f1901610140870152613d30565b91610140810151151582850152015115156101808301520390f35b8251865260209586019590920191600101610844565b8251865260209586019590920191600101610817565b825484526020909301926001928301920161072e565b346102905760403660031901126102905761096e60043561094c613cf7565b908060a0515260096020526109696001604060a051200154613f91565b614197565b60a05180f35b34610290576101a03660031901126102905761098e613ce1565b60c0526024356001600160401b038111610290576109b0903690600401613f11565b610140526044356001600160401b038111610290576109d3903690600401613f11565b610100526064356001600160401b038111610290576109f6903690600401613f11565b6101205260c4356001600160401b03811161029057610a19903690600401613e8d565b60e4356001600160401b03811161029057610a38903690600401613e8d565b610104356001600160401b03811161029057610a58903690600401613e8d565b91610124356001600160401b03811161029057610a79903690600401613e8d565b610144356001600160401b03811161029057610a99903690600401613e8d565b9161016435151561016435036105fc57610184359182151583036105fc57610ac6601d54806080526149d7565b601d556101405151610ae6610ada82613efa565b6040518060e052613e1a565b8060e05152610af7601f1991613efa565b0136602060e051013760a0515b61014051805160ff8316101561122d57610b229060ff831690614fc3565b516020815191012060018060a01b03600a5416604051633f0b1c4f60e01b8152826004820152602081602481855afa90811561033b5760a051916111fb575b5061118257803b15610290576040519063a4870fa960e01b825282600483015260805160248301528160448160a05180945af1801561033b5761116d575b5060a051610bb360ff841661012051614fc3565b51604051610bde60208281610bd18183019687815193849201613d0d565b8101038084520182613e1a565b519020604051636461746160e01b6020820152600481528060408101106001600160401b0360408301111761115757604081016040526020815191012014600014610ef9575060a0515b610c3860ff841661014051614fc3565b518260a05152601460205260a05160408120918051916001600160401b038311610e3f57508190610c698454614355565b601f8111610ec5575b5060a0519084602092601f8511600114610e6157505060a05192610e56575b50508160011b916000199060031b1c19161790555b610cb660ff841661010051614fc3565b518260a05152601460205260a05160016040822001918051916001600160401b038311610e3f57508190610cea8454614355565b601f8111610e00575b5060a0519084602092601f8511600114610d9657505060a05192610d8b575b50508160011b916000199060031b1c19161790555b8160a05152601460205260a0519060026040832001916007821015610d74575090610d6f93929160ff80198354169116179055610d6960ff831660e051614fc3565b52614fb2565b610b04565b634e487b7160e01b9052602160045260a051602490fd5b015190508c80610d12565b5260a0516020812090945091905b601f1984168510610de5576001945083601f19811610610dcc575b505050811b019055610d27565b015160001960f88460031b161c191690558c8080610dbf565b81810151835560209485019460019093019290910190610da4565b610e2f908560a05152602060a051206005601f8601811c82019260208710610e35575b601f01901c0190614df6565b8d610cf3565b9192508291610e23565b634e487b7160e01b9052604160045260a051602490fd5b015190508c80610c91565b5260a0516020812093505b601f1985168110610ead575083601f19811610610e94575b505050600190811b019055610ca6565b015160001960f88460031b161c191690558b8080610e84565b91926020600181928685015181550194019201610e6c565b610ef3908560a05152602060a051206005601f8601811c82019260208710610e3557601f01901c0190614df6565b8d610c72565b610f0960ff841661012051614fc3565b51604051610f2760208281610bd18183019687815193849201613d0d565b5190209060405191602083016618dbdb9d195b9d60ca1b8152600793848152610f4f81613d92565b51902003610f6157505060015b610c28565b610f7160ff851661012051614fc3565b51604051610f8f60208281610bd18183019687815193849201613d0d565b51902090604051916020830164195d995b9d60da1b8152600593848152610fb581613d92565b51902003610fc7575050506002610c28565b610fd760ff861661012051614fc3565b51604051610ff560208281610bd18183019687815193849201613d0d565b5190209260405193602085016206170760ec1b815260039586815261101981613d92565b5190200361102957505050610c28565b9091925061103d60ff861661012051614fc3565b5160405161105b60208281610bd18183019687815193849201613d0d565b51902060405160208101906a6d65726368616e6469736560a81b8252600b815261108481613d92565b51902003611096575050506004610c28565b6110a660ff861661012051614fc3565b516040516110c460208281610bd18183019687815193849201613d0d565b519020906040516020810191666372656469747360c81b835281526110e881613d92565b519020036110f65750610c28565b9061110760ff851661012051614fc3565b5160405161112560208281610bd18183019687815193849201613d0d565b5190209060405160208101916437ba3432b960d91b8352815261114781613d92565b51902003610f5c57506006610c28565b634e487b7160e01b600052604160045260246000fd5b61117690613d7f565b60a0518015610b9f5780fd5b6040517f41737365742063616e206f6e6c7920626520696e206f6e65206f66666572696e6020820152606760f81b60408201526021815260608101908082106001600160401b0383111761115757604082905262461bcd60e51b825260206064820152605f19906111f66084820182613d30565b030190fd5b90506020813d602011611225575b8161121660209383613e1a565b810103126105fc57518a610b61565b3d9150611209565b505060805160a08051919091526015602052516040812060c05181546001600160a01b0319166001600160a01b039190911617815560e051518892889260020191906001600160401b038211610e3f5750600160401b8111611885578154818355808210611859575b50602060e051019160a0515260a0519160208320835b83811061184557505050506080519052601560205260805160a05190600160408320015560066040822001918051916001600160401b038311610e3f575081906112f68454614355565b601f8111611811575b5060a0519084602092601f85116001146117a757505060a0519261179c575b50508160011b916000199060031b1c19161790555b60805160a05152601560205260a05160076040822001918051916001600160401b038311610e3f575081906113688454614355565b601f8111611768575b5060a0519084602092601f85116001146116fe57505060a051926116f3575b50508160011b916000199060031b1c19161790555b60805160a05152601560205260a05160086040822001918051916001600160401b038311610e3f575081906113da8454614355565b601f81116116bf575b5060a0519084602092601f851160011461165557505060a0519261164a575b50508160011b916000199060031b1c19161790555b60805160a05152601560205260a05160096040822001908451906001600160401b038211610e3f575061144a8254614355565b601f811161160b575b5060a051602090601f83116001146115a45750819293949560a05192611599575b50508160011b916000199060031b1c19161790555b60805160a05152601560205260a4359160a051908360056040842001556114c561016435600a60408520019060ff801983541691151516179055565b600a60408320019061ff00825491151560081b169061ff00191617905560843591826004604084200155602081519101209060018060a01b03600a541690813b156103d057506040519163a4870fa960e01b8352600483015260805160248301528160448160a05180945af1801561033b5761157d575b5060408051608051815260208101939093528201527f996c7fcc3e774297a738500264c15cee3f322db81c70b91166215f1447f23ffc90606090a160a05180f35b61158690613d7f565b60a0519182611595579161153c565b8280fd5b015190508580611474565b83905260a05160208120601f198416979092915b8881106115f3575083600195969798106115da575b505050811b019055611489565b015160001960f88460031b161c191690558580806115cd565b919260206001819286850151815501940192016115b8565b61163a908360a05152602060a05120601f840160051c81019160208510611640575b601f0160051c0190614df6565b85611453565b909150819061162d565b015190508680611402565b5260a0516020812090945091905b601f19841685106116a4576001945083601f1981161061168b575b505050811b019055611417565b015160001960f88460031b161c1916905586808061167e565b81810151835560209485019460019093019290910190611663565b6116ed908560a05152602060a05120601f850160051c8101916020861061164057601f0160051c0190614df6565b876113e3565b015190508780611390565b5260a0516020812090945091905b601f198416851061174d576001945083601f19811610611734575b505050811b0190556113a5565b015160001960f88460031b161c19169055878080611727565b8181015183556020948501946001909301929091019061170c565b611796908560a05152602060a05120601f850160051c8101916020861061164057601f0160051c0190614df6565b88611371565b01519050888061131e565b5260a0516020812090945091905b601f19841685106117f6576001945083601f198116106117dd575b505050811b019055611333565b015160001960f88460031b161c191690558880806117d0565b818101518355602094850194600190930192909101906117b5565b61183f908560a05152602060a05120601f850160051c8101916020861061164057601f0160051c0190614df6565b896112ff565b6001906020845194019381840155016112ac565b8260a05152602060a05120908282015b8183018110611879575050611296565b60008155600101611869565b634e487b7160e01b60a051526041600452602460a051fd5b34610290576060366003190112610290576004356001600160401b038111610290576118cd903690600401613e8d565b6044359060098210156102905760208151910120601e54906118ee826149d7565b601e556119076040519361190185613dad565b84615ca9565b6020830192428452604081019360243585528360a05152601360205260a051604081209251906009821015610d7457509460029161096e9660ff801986541691161784555160018401555191015560a0515260146020526003604060a0512001614d5c565b34610290576020806003193601126102905760043561199261198d82614868565b61449a565b60405161199e81613dff565b60a08051825260085490516001600160a01b03909116919084908315611a1e57505050604051916344a5a61760e11b835260048301528160248160a051935afa90811561033b5760a05191611a05575b50905b610316604051928284938452830190613d30565b611a18913d8091833e61032d8183613e1a565b826119ee565b91939092509015611bca57600090807a184f03e93ff9f4daa797ed6e38ed64bf6a1f0100000000000000008181811015611bbc575b5050836d04ee2d6d415b85acef810000000080831015611bb0575b5050662386f26fc1000080821015611ba3575b506305f5e10080821015611b96575b5061271080821015611b89575b506064811015611b7b575b600a80911015611b71575b600180840192816021611ade611ac887613e3b565b96611ad66040519889613e1a565b808852613e3b565b8689019790601f1901368937860101905b611b3b575b5050505092611b359291611b29946040519583611b1a8895518092888089019101613d0d565b84019151809386840190613d0d565b01038084520182613e1a565b906119f1565b600019019083906f181899199a1a9b1b9c1cb0b131b232b360811b8282061a835304918215611b6c57919082611aef565b611af4565b9160010191611ab3565b606460029104920191611aa8565b6004910492019186611a9d565b6008910492019186611a90565b6010910492019186611a81565b93019290048387611a6e565b604094500490508680611a53565b505050604051611bd981613dff565b60008152611b35565b346102905760203660031901126102905760043560a05152601560205260206003604060a051200154604051908152f35b3461029057608036600319011261029057611c2c613ce1565b6064356001600160401b03811161029057602091611c516103f9923690600401613e8d565b90604435906024359061514a565b608036600319011261029057611c73613ce1565b611c7b613cf7565b606435916001600160401b038311610290573660238401121561029057611caf61096e933690602481600401359101613e56565b916044359161472c565b3461029057611cc736613ee0565b9190611cd2826144e6565b6001600160a01b039033908216036120da578160a051526019602052604060a0512033600052602052604060002054841161208657601c54600e5460405163095ea7b360e01b81529083166001600160a01b03166004820152602481018690529060209082908416818060448101039160a051905af1801561033b57611d98926020928792612069575b5080601c541690600e541660405180958194829363a9059cbb60e01b84526004840160209093929193604081019460018060a01b031681520152565b039160a051905af1801561033b5761203a575b5060a051526019602052604060a05120336000526020526040600020611dd2838254614de9565b90558060a051526016602052611dee604060a0512054836145a4565b60a051928184035b8360a05152601660205260a051604081205460ff87161015611f7757856040611e1f92206147df565b92905494600160ff1b8514611f5f5760a08051600386901b88901c90526015602052516040902060040180549590611e578588615851565b905560a0515b878660031b1c60a05152601560205260a051600360408220015460ff83161015611f445790611e958160036040611f3f9520016147df565b90549060031b1c8060a0515260188060205260a05160408120908c8b60031b1c9052602052611eec611ecd8b604060a05120546150c0565b8c8b60031b1c60a0515260156020526004604060a0512001549061508c565b918060a05152601760205260a05160408120908d8c60031b1c905260205260a05160408120600160ff198254161790555260205260a05160408120908b8a60031b1c9052602052604060a0512055614fb2565b611e5d565b5050955095909250611f57919350614fb2565b939291611df6565b634e487b7160e01b60a051526011600452602460a051fd5b8483611f8581600c54614de9565b600c55611f9461198d83614868565b8160a0515260066020526002611faf604060a0512054614435565b500191825492828410611fe957611fc883602095614de9565b9055604051918252600080516020615ccc83398151915260a051938493a380f35b60405162461bcd60e51b815260206004820152602360248201527f455243333532353a206275726e2076616c756520657863656564732062616c616044820152626e636560e81b6064820152608490fd5b61205b9060203d602011612062575b6120538183613e1a565b810190615132565b5083611dab565b503d612049565b61207f90843d8611612062576120538183613e1a565b5087611d5c565b60405162461bcd60e51b815260206004820152602660248201527f496e73756666696369656e7420617070726f76616c20746f2072656465656d20604482015265185b5bdd5b9d60d21b6064820152608490fd5b60405162461bcd60e51b815260206004820152601960248201527f53656e646572206973206e6f7420617574686f72697a65642e000000000000006044820152606490fd5b3461029057602080600319360112610290576001600160401b0360043581811161029057612151903690600401613e8d565b82815191012060a0515260148252604060a051209060405190608082019082821090821117611157576040526121868261438f565b815260019061219682840161438f565b8482015260ff600293818582015416600781101561227e576040840152929493926121c3906003016150e3565b9260608093019380855251936121d885613efa565b946121e66040519687613e1a565b8086526121f5601f1991613efa565b0160a0515b81811061232957505060a051875b612296575b50505050604051938385948501908086528451809252806040870195019360a051905b83821061223d5787870388f35b91939590929480975051805190600982101561227e57826040859288948b965284810151858401520151604082015201970192018796959391949294612230565b634e487b7160e01b60a051526021600452602460a051fd5b90879596979392918151908151918582169283101561231d57826122c06123119461230b93614fc3565b5160a0515260138c528b86604060a05120604051926122de84613dad565b6122eb8b83541685615ca9565b8b8201549084015201546040820152612304828d614fc3565b528a614fc3565b50614fb2565b90919293979695612208565b5050509695949661220d565b968098969760405161233a81613dad565b60a051815260a0518382015260a051604082015282828b01015201979695976121fa565b3461029057604036600319011261029057612377613ce1565b60243590811515908183036105fc576001600160a01b0316913383146123fd576123cb903360a0515260076020526002604060a05120018460005260205260406000209060ff801983541691151516179055565b6040519081527f17307eab39ab6107e8899845ad3d59bd9653f200f220920489ca2b5937696c3160203392a360a05180f35b60405162461bcd60e51b815260206004820152601a60248201527f455243333532353a20617070726f766520746f2063616c6c65720000000000006044820152606490fd5b346102905760a051806003193601126103d057602090604051908152f35b3461029057602080600319360112610290576004356001600160401b03811161029057612491903690600401613e8d565b805190820120600a54604051633f0b1c4f60e01b815260048101929092528290829060249082906001600160a01b03165afa90811561033b5760a051916124dc575b50604051908152f35b90508181813d8311612502575b6124f38183613e1a565b810103126105fc5751826124d3565b503d6124e9565b3461029057604036600319011261029057612522613ce1565b602435908160a05152601560205260018060a01b0380604060a051205416156125645760209260a051526015835280604060a051205416906040519216148152f35b60405162461bcd60e51b815260206004820152601260248201527113d999995c9a5b99c81b9bdd08199bdd5b9960721b6044820152606490fd5b346102905760203660031901126102905760206103f9600435614470565b346102905760a051806003193601126103d057604051600060018054906125e282614355565b808552918181169081156126625750600114612609575b6103168461030281860382613e1a565b600081815292507fb10e2d527612073b26eecdfd717e6a320cf44b4afac2b0732d9fcbe2b7fa0cf65b82841061264a575050508101602001610302826125f9565b80546020858701810191909152909301928101612632565b60ff191660208087019190915292151560051b8501909201925061030291508390506125f9565b34610290576040366003190112610290576126a2613cf7565b60043560a051526009602052604060a051209060018060a01b0316600052602052602060ff604060002054166040519015158152f35b6126e136613d55565b906127026001600160a01b03806126f7866144e6565b1690831614156145c4565b61270c83336147f7565b1561271a5761096e92614896565b60405162461bcd60e51b815260206004820152603160248201527f455243333532353a20617070726f76652063616c6c6572206973206e6f74206f6044820152701ddb995c881b9bdc88185c1c1c9bdd9959607a1b6064820152608490fd5b346102905760a051806003193601126103d0576008546040516001600160a01b039091168152602090f35b34610290576127b236613d55565b909160a05152601b60205260a05191604083209060018060a01b031660005260205260406000209152602052602080604060a051206040516127f381613d92565b6001825492838352015492839101524211159081612817575b506040519015158152f35b801591508115612829575b508261280c565b9050421182612822565b346102905760203660031901126102905760206103f9612851613ce1565b61464c565b346102905760203660031901126102905760206128746004356144e6565b6040516001600160a01b039091168152f35b346102905760e03660031901126102905761289f613ce1565b6084356001600160401b038111610290576128be903690600401613e8d565b9060018060a01b038091168060a0515260208093601a82526128e860ff604060a051205416614fd7565b81815191012092600a541692602460405180958193633f0b1c4f60e01b835260048301525afa91821561033b5760a05192612994575b508160a051526015835261293e6005604060a05120015460443514615023565b6040519061294b82613d92565b4282528382019260c435845260a05152601b845260a051906040822090600052845260406000209060243590528352600160a05192604084209251835551910155604051908152f35b9091508281813d83116129bc575b6129ac8183613e1a565b810103126105fc5751908361291e565b503d6129a2565b34610290576020366003190112610290576004356005548110156129f6576129ec602091614435565b5054604051908152f35b60405162461bcd60e51b815260206004820152602360248201527f455243333532353a20676c6f62616c20696e646578206f7574206f6620626f756044820152626e647360e81b6064820152608490fd5b34610290576020366003190112610290576001600160a01b03612a68613ce1565b1660a05152601a602052602060ff604060a0512054166040519015158152f35b61096e612a9436613eab565b9060405192612aa284613dff565b60a051845261472c565b346102905760a051806003193601126103d057602060ff60025416604051908152f35b3461029057604036600319011261029057612ae8613cf7565b336001600160a01b03821603612b045761096e90600435614197565b60405162461bcd60e51b815260206004820152602f60248201527f416363657373436f6e74726f6c3a2063616e206f6e6c792072656e6f756e636560448201526e103937b632b9903337b91039b2b63360891b6064820152608490fd5b34610290576020366003190112610290576004356001600160401b03811161029057612b91903690600401613e8d565b6008546001600160a01b031690813b156102905760405180926355f804b360e01b8252602060048301528180612bce60a051956024830190613d30565b039160a051905af1801561033b57612be65760a05180f35b612bef90613d7f565b60a051801561096e5780fd5b612c0436613ee0565b9091612c0f81614522565b90612c1b83823361586d565b612c26838583615907565b612c2f816144e6565b612c38856144e6565b908360a0515260209360198552604060a0512060018060a01b0380931660005285526040600020612c6a878254614de9565b905560a0515260198452604060a05120911660005282526040600020612c9184825461420d565b90558060a05152601692838352612cae604060a05120548261508c565b5060a05194855b8360a0515285855260a051604081205460ff89161015612d0e57612d0891612ce3896040612d0294206147df565b90549060031b1c60a05152601587526004604060a05120015490615851565b96614fb2565b95612cb5565b508590858560a0515b8160a0515284835260a05190604082205460ff90818316101561096e578585888a612da48d95612dc5612dad612d538a6040612e5e9d206147df565b949054600395861b1c988960a05152612d9e612d98612d8160159d8e8d526004604060a051200154906150c0565b9261052460115494612d928661507e565b906150c0565b9161507e565b9061508c565b601054906150c0565b8760a051528887526004604060a0512001549061508c565b968a60a05152838b60188881809a5260a0518b6040822091528152612df08c604060a05120546150a7565b9260a05152528d60a051908a6040832092525260a051906040822055526017808d5260a051886040822091528d5260a0519260408420541615612e63575b50505050905060a05152865260a051906040822091528552612e57604060a05120918254615851565b9055614fb2565b612d17565b612ea99585604094528d52612e7c888460a05120614d5c565b8460a051528c5260a0518783822091528c5260a05190828220600160ff198254161790558c522001614d5c565b888a8d808080612e2e565b3461029057604036600319011261029057612ecd613ce1565b60243590612eda8161464c565b821015612f1157602091612f039160018060a01b031660a0515260078352604060a051206147df565b90546040519160031b1c8152f35b60405162461bcd60e51b815260206004820152602260248201527f455243333532353a206f776e657220696e646578206f7574206f6620626f756e604482015261647360f01b6064820152608490fd5b3461029057604036600319011261029057600435612f7d613cf7565b8160a051526009602052612f996001604060a051200154613f91565b8160a05152600960205260a051604081209160018060a01b0316918260005260205260ff6040600020541615612fcf5760a05180f35b829052600960205260a0519160408320826000526020526040600020600160ff198254161790557f2f8788117e7eff1d82e926ec794901d17c78024a50270940304540a733656f0d339380a480808061096e565b346102905760203660031901126102905760206103f9600435614522565b346102905760203660031901126102905760043560a05152600960205260206001604060a051200154604051908152f35b61307b36613eab565b9161308e61308984336147f7565b6146c5565b613099838383614a77565b6130ab6130a584614522565b93614470565b928060a051526019602052604060a0512060018060a01b0380931660005260205260406000206130dc858254614de9565b905560a051526019602052604060a051209116600052602052613105604060002091825461420d565b905560a05180f35b34610290576040366003190112610290576004356001600160401b0381116102905761313d903690600401613e8d565b8051602091820120600a54604051633f0b1c4f60e01b815260048101929092528290829060249082906001600160a01b03165afa90811561033b5760a051916131a8575b5060243560a051526018825260a051906040822091528152604060a0512054604051908152f35b90508181813d83116131ce575b6131bf8183613e1a565b810103126105fc575182613181565b503d6131b5565b346102905760a051806003193601126103d0576020600554604051908152f35b6131fe36613d55565b8260a093929351526016602052604060a05120541561382057801515806137fe575b604051907f56616c7565206c657373207468616e206d696e696d756d00000000000000000060208301526017825261325782613d92565b156137d6575061326682614522565b8060a05152601960205260a0516040812090339052602052604060a0512061328f838254614de9565b90558060a05152601960205260a051604081209060018060a01b0386169052602052604060a051206132c283825461420d565b90556132cf82843361586d565b60016003540193846003556132e384614522565b6001600160a01b038216156137875785156137385761330186614868565b6136f35760405161331181613dff565b60a05181526040519061332382613de4565b87825282602083015260a051604083015260018060a01b038416606083015260a051608083015260a08201526005548760a05152600660205260a051816040822055600160401b821015610e3f57508060016133829201600555614435565b9190916136dc5780518255602081015160018301556040810151600283015560608101516003830180546001600160a01b039283166001600160a01b031991821617909155608083015160048501805491909316911617905560a001518051916001600160401b0383116118855790602060058a9695949301916134068484614e0d565b019060a0515260a05160208120905b8381106136bc575050505061342a8383614d82565b60a0519183906001600160a01b0316837fddf252ad1be2c89b69c2b068fc378daa952ba7f163c4a11628f55a4df523b3ef8180a481837fe4f48c240d3b994948aa54f3e2f5fca59263dfe1d52b6e4cf39a5d249b5ccb658280a4526006602052613499604060a0512054614435565b50508360405160a0518152600080516020615ccc833981519152602060a05192a36134c5828585615907565b600b546001600160a01b0316803b156102905760405191638e9eeaef60e01b835260048301528460248301528160448160a05180945af1801561033b576136ad575b5060a05192835b8360a05152601660205260a051604081205460ff8716101561356a576135649161353e87604061355e94206147df565b90549060031b1c60a0515260156020526004604060a05120015490615851565b94614fb2565b9361350e565b5090935060a0515b8360a05152601660205260a051604081205460ff831610156136a257906136988660036040876135a7868361369d99206147df565b905490841b1c8060a05152846135f46135dc612da48c612d9e612d98612d816015998a60205260048c60a051200154906150c0565b8360a051528460205260048660a0512001549061508c565b8c60a051526136356018918260205260a05185888220915260205260a051848882205491528360205260a051868982209152602052818860a05120556150a7565b908d60a0515260205260a05183868220915260205260a0519085822055526016602052613666818460a05120614d5c565b8460a05152601760205260a05190838220915260205260a05190828220600160ff198254161790556020522001614d5c565b614fb2565b613572565b602086604051908152f35b6136b690613d7f565b83613507565b82516001600160a01b0316818301558a9650602090920191600101613415565b634e487b7160e01b60a05152602460a05180600452fd5b60405162461bcd60e51b815260206004820152601d60248201527f455243333532353a20746f6b656e20616c7265616479206d696e7465640000006044820152606490fd5b60405162461bcd60e51b815260206004820152602160248201527f455243333532353a2063616e6e6f74206d696e74207a65726f20746f6b656e496044820152601960fa1b6064820152608490fd5b60405162461bcd60e51b815260206004820152602160248201527f455243333532353a206d696e7420746f20746865207a65726f206164647265736044820152607360f81b6064820152608490fd5b60405162461bcd60e51b8152602060048201529081906137fa906024830190613d30565b0390fd5b508160a051526016602052613819604060a0512054826145a4565b1515613220565b60405162461bcd60e51b8152602060048201526015602482015274546f6b656e20686173206e6f206f66666572696e6760581b6044820152606490fd5b346102905760203660031901126102905760405161387a81613dff565b60a05190526008546001600160a01b031680156138d85760405190633601bfc560e11b825260043560048301528160248160a051935afa801561033b576103169160a0519161031a5750604051918291602083526020830190613d30565b506103166040516138e881613dff565b60a0518152610302565b604036600319011261029057613906613ce1565b6024356001600160a01b03808061391c846144e6565b1693169261392c818514156145c4565b803314908115613a0b575b50156139a0578160a0515260066020526004613958604060a0512054614435565b500180546001600160a01b03191684179055613973826144e6565b169160a051927f8c5be1e5ebec7d5bd14f71427d1e84f3dd0314c0f7b2291e5b200ac8c7c3b9258480a480f35b60405162461bcd60e51b815260206004820152603960248201527f455243333532353a20617070726f76652063616c6c6572206973206e6f74206f60448201527f776e6572206e6f7220617070726f76656420666f7220616c6c000000000000006064820152608490fd5b905060a05152600760205260a051600260408220019033905260205260ff604060a05120541684613937565b346102905760203660031901126102905760206128746004356147ac565b346102905760a051806003193601126103d057604051908054613a7781614355565b808452906001908181169081156126625750600114613aa0576103168461030281860382613e1a565b60a0805180525192507f290decd9548b62a8d60345a988386fc84ba6bc95484008f6362f93160ef3e5635b828410613ae3575050508101602001610302826125f9565b80546020858701810191909152909301928101613acb565b346102905760203660031901126102905760043563ffffffff60e01b811680910361029057602090637965db0b60e01b8114908115613b3f57506040519015158152f35b6301ffc9a760e01b1490508261280c565b346105fc576020806003193601126105fc576001600160a01b039182613b74613ce1565b632c663f1560e21b835216928282600481875afa91821561033b5760a05192613ca9575b5080600d5416911603613c6557604051633e7e866960e01b81528181600481865afa90811561033b5760a05191613c2e575b5060ff8060025416911603613bf657601a9160a051525260a05160408120600160ff1982541617905580f35b6064906040519062461bcd60e51b825260048201526011602482015270088cac6d2dac2d8e640dad2e6dac2e8c6d607b1b6044820152fd5b90508181813d8311613c5e575b613c458183613e1a565b81010312610290575160ff811681036102905783613bca565b503d613c3b565b6064906040519062461bcd60e51b82526004820152601760248201527f56616c756520636f6e7472616374206d69736d617463680000000000000000006044820152fd5b9091508281813d8311613cda575b613cc18183613e1a565b8101031261029057518181168103610290579084613b98565b503d613cb7565b600435906001600160a01b03821682036105fc57565b602435906001600160a01b03821682036105fc57565b60005b838110613d205750506000910152565b8181015183820152602001613d10565b90602091613d4981518092818552858086019101613d0d565b601f01601f1916010190565b60609060031901126105fc57600435906024356001600160a01b03811681036105fc579060443590565b6001600160401b03811161115757604052565b604081019081106001600160401b0382111761115757604052565b606081019081106001600160401b0382111761115757604052565b61018081019081106001600160401b0382111761115757604052565b60c081019081106001600160401b0382111761115757604052565b602081019081106001600160401b0382111761115757604052565b90601f801991011681019081106001600160401b0382111761115757604052565b6001600160401b03811161115757601f01601f191660200190565b929192613e6282613e3b565b91613e706040519384613e1a565b8294818452818301116105fc578281602093846000960137010152565b9080601f830112156105fc57816020613ea893359101613e56565b90565b60609060031901126105fc576001600160a01b039060043582811681036105fc579160243590811681036105fc579060443590565b60609060031901126105fc57600435906024359060443590565b6001600160401b0381116111575760051b60200190565b9080601f830112156105fc57813590613f2982613efa565b92613f376040519485613e1a565b828452602092838086019160051b830101928084116105fc57848301915b848310613f655750505050505090565b82356001600160401b0381116105fc578691613f8684848094890101613e8d565b815201920191613f55565b60009080825260209060098252604092838120338252835260ff848220541615613fbb5750505050565b613fc433614257565b91845190608082018281106001600160401b038211176141835786526042825284820192606036853782511561416f576030845382519060019182101561416f5790607860218501536041915b818311614101575050506140bf5760486137fa9386936140a39361409498519889937f416363657373436f6e74726f6c3a206163636f756e74200000000000000000008a86015261406b815180928c603789019101613d0d565b8401917001034b99036b4b9b9b4b733903937b6329607d1b603784015251809386840190613d0d565b01036028810187520185613e1a565b5192839262461bcd60e51b845260048401526024830190613d30565b60648486519062461bcd60e51b825280600483015260248201527f537472696e67733a20686578206c656e67746820696e73756666696369656e746044820152fd5b909192600f8116601081101561415b576f181899199a1a9b1b9c1cb0b131b232b360811b901a6141318587614230565b5360041c92801561414757600019019190614011565b634e487b7160e01b82526011600452602482fd5b634e487b7160e01b83526032600452602483fd5b634e487b7160e01b81526032600452602490fd5b634e487b7160e01b84526041600452602484fd5b906000918083526009602052604083209160018060a01b03169182845260205260ff6040842054166141c857505050565b8083526009602052604083208284526020526040832060ff1981541690557ff6391f5c32d9c69d2a47ea670b442974b53935d1edc7fd64eb21e047a839171b339380a4565b9190820180921161421a57565b634e487b7160e01b600052601160045260246000fd5b908151811015614241570160200190565b634e487b7160e01b600052603260045260246000fd5b6040519061426482613dad565b602a82526020820160403682378251156142415760309053815160019081101561424157607860218401536029905b8082116142e75750506142a35790565b606460405162461bcd60e51b815260206004820152602060248201527f537472696e67733a20686578206c656e67746820696e73756666696369656e746044820152fd5b9091600f81166010811015614340576f181899199a1a9b1b9c1cb0b131b232b360811b901a6143168486614230565b5360041c91801561432b576000190190614293565b60246000634e487b7160e01b81526011600452fd5b60246000634e487b7160e01b81526032600452fd5b90600182811c92168015614385575b602083101461436f57565b634e487b7160e01b600052602260045260246000fd5b91607f1691614364565b90604051918260008254926143a384614355565b90818452600194858116908160001461441257506001146143cf575b50506143cd92500383613e1a565b565b9093915060005260209081600020936000915b8183106143fa5750506143cd935082010138806143bf565b855488840185015294850194879450918301916143e2565b9150506143cd94506020925060ff191682840152151560051b82010138806143bf565b600554811015614241576006906005600052027f036b6384b5eca791c62761152d0c79bb0604c104a5fb6f4eb0703f3154bb3db00190600090565b61447c61198d82614868565b60005260066020526002614494604060002054614435565b50015490565b156144a157565b60405162461bcd60e51b815260206004820152601960248201527f455243333532353a20696e76616c696420746f6b656e204944000000000000006044820152606490fd5b6144f261198d82614868565b6000526006602052614508604060002054614435565b50600301546001600160a01b0316906143cd82151561449a565b61452e61198d82614868565b60005260066020526001614494604060002054614435565b6020818303126105fc578051906001600160401b0382116105fc570181601f820112156105fc57805161457881613e3b565b926145866040519485613e1a565b818452602082840101116105fc57613ea89160208085019101613d0d565b81156145ae570490565b634e487b7160e01b600052601260045260246000fd5b156145cb57565b60405162461bcd60e51b815260206004820152602260248201527f455243333532353a20617070726f76616c20746f2063757272656e74206f776e60448201526132b960f11b6064820152608490fd5b61462761198d82614868565b600052600460205260406000209060018060a01b031660005260205260406000205490565b6001600160a01b0316801561466c57600052600760205260406000205490565b60405162461bcd60e51b815260206004820152602b60248201527f455243333532353a2062616c616e636520717565727920666f7220746865207a60448201526a65726f206164647265737360a81b6064820152608490fd5b156146cc57565b60405162461bcd60e51b815260206004820152603260248201527f455243333532353a207472616e736665722063616c6c6572206973206e6f74206044820152711bdddb995c881b9bdc88185c1c1c9bdd995960721b6064820152608490fd5b9061475093929161474061308984336147f7565b61474b838383614a77565b614e91565b1561475757565b60405162461bcd60e51b815260206004820152602760248201527f455243333532353a207472616e7366657220746f206e6f6e204552433732315260448201526632b1b2b4bb32b960c91b6064820152608490fd5b6147b861198d82614868565b60005260066020526147ce604060002054614435565b50600401546001600160a01b031690565b80548210156142415760005260206000200190600090565b906001600160a01b03808061480b846144e6565b1693169183831493841561483e575b508315614828575b50505090565b614834919293506147ac565b1614388080614822565b909350600052600760205260026040600020018260005260205260ff60406000205416923861481a565b60055415159081614877575090565b8091506000526006602052614890604060002054614435565b50541490565b6001600160a01b03808316939192841561497f57836148b4916149e6565b15614902575b5060207f621b050de0ad08b51d19b48b3e6df75348c4de6bdd93e81b252ca62e28265b1b918360005260048252604060002085600052825280604060002055604051908152a3565b90826000526006602052600561491c604060002054614435565b500190815492600160401b84101561115757856149628560209560017f621b050de0ad08b51d19b48b3e6df75348c4de6bdd93e81b252ca62e28265b1b980181556147df565b909283549160031b90811b9283911b1691191617905591506148ba565b60405162461bcd60e51b815260206004820152602a60248201527f455243333532353a20617070726f76652076616c756520746f20746865207a65604482015269726f206164647265737360b01b6064820152608490fd5b600019811461421a5760010190565b6000908282526006602090808252604090614a0382862054614435565b509260058094015496865b888110614a215750505050505050905090565b818852838352614a3f8187614a38888c2054614435565b50016147df565b905460039190911b1c6001600160a01b0390811690881614614a6957614a64906149d7565b614a0e565b505050505050505050600190565b614a80836144e6565b6001600160a01b0391821691908116829003614d0b57808316928315614cb857614aa985614522565b50614ab385614470565b5060009185835260209060068252604090614ad082862054614435565b50600490810180546001600160a01b03199081169091559091898782614af5836144e6565b167f8c5be1e5ebec7d5bd14f71427d1e84f3dd0314c0f7b2291e5b200ac8c7c3b9258280a4898752600685526005614b2f85892054614435565b500180549091858988818f5b868410614c815750505050505050805487825580614c68575b5050888652600684526003614b6b84882054614435565b5001908154169055858552600783528185209182549360001994858101908111614c555790614b9c889392866147df565b90549060031b1c9060018601908c8552818152838520549280614bdb614bc2868b6147df565b819391549060031b600019811b9283911b169119161790565b9055855252818320558982528120558154908115614c42575092828892614c3e947fddf252ad1be2c89b69c2b068fc378daa952ba7f163c4a11628f55a4df523b3ef97960191614c2b83836147df565b909182549160031b1b1916905555614d82565b80a4565b634e487b7160e01b865260319052602485fd5b634e487b7160e01b885260118452602488fd5b614c7a91885285882090810190614df6565b3880614b54565b614cae9486928b614c92878c6147df565b96905494835252209260031b1c168c5289528a888120556149d7565b8690888b8f614b3b565b60405162461bcd60e51b815260206004820152602560248201527f455243333532353a207472616e7366657220746f20746865207a65726f206164604482015264647265737360d81b6064820152608490fd5b60405162461bcd60e51b8152602060048201526024808201527f455243333532353a207472616e736665722066726f6d20696e76616c6964206f6044820152633bb732b960e11b6064820152608490fd5b805490600160401b8210156111575781614bc2916001614d7e940181556147df565b9055565b9060406143cd9260009083825260066020526003614da284842054614435565b500180546001600160a01b0319166001600160a01b039092169182179055808252600760208181528484208054878652600191909101825285852055918352905220614d5c565b9190820391821161421a57565b818110614e01575050565b60008155600101614df6565b90600160401b811161115757815490808355818110614e2b57505050565b6143cd9260005260206000209182019101614df6565b908160209103126105fc57516001600160e01b0319811681036105fc5790565b3d15614e8c573d90614e7282613e3b565b91614e806040519384613e1a565b82523d6000602084013e565b606090565b9192813b15614fa957602091614ee3916000604051958680958194630a85bd0160e11b9a8b845233600485015260018060a01b0380951660248501526044840152608060648401526084830190613d30565b0393165af160009181614f79575b50614f6b57614efe614e61565b80519081614f665760405162461bcd60e51b815260206004820152603260248201527f4552433732313a207472616e7366657220746f206e6f6e20455243373231526560448201527131b2b4bb32b91034b6b83632b6b2b73a32b960711b6064820152608490fd5b602001fd5b6001600160e01b0319161490565b614f9b91925060203d8111614fa2575b614f938183613e1a565b810190614e41565b9038614ef1565b503d614f89565b50505050600190565b60ff1660ff811461421a5760010190565b80518210156142415760209160051b010190565b15614fde57565b60405162461bcd60e51b815260206004820152601c60248201527f43726564697420636f6e7472616374206e6f7420617070726f766564000000006044820152606490fd5b1561502a57565b60405162461bcd60e51b815260206004820152602660248201527f63726564697473206e6f7420617070726f76656420666f722074686973206f66604482015265666572696e6760d01b6064820152608490fd5b604d811161421a57600a0a90565b81156145ae57600160ff1b811460001983141661421a570590565b8181039291600013801582851316918412161761421a57565b818102929160008212600160ff1b82141661421a57818405149015171561421a57565b9060405191828154918282526020928383019160005283600020936000905b828210615118575050506143cd92500383613e1a565b855484526001958601958895509381019390910190615102565b908160209103126105fc575180151581036105fc5790565b91909392938451602086012092600a549560009660018060a01b031660405195633f0b1c4f60e01b87526004870152602086602481845afa95861561580d578896615818575b506020608491604051928380926309de907160e11b825260406004830152600960448301526826a5aa2fa0a226a4a760b91b60648301523360248301525afa90811561580d5788916157ee575b5080156157d8575b80156157ba575b15615775576003805460010190819055946001600160a01b038316156137875785156137385761521b86614868565b6136f35760405161522b81613dff565b8881526040519061523b82613de4565b87825260208201868152604083018b8152606084019060018060a01b038816825260808501928d845260a086019485528d8c6040600554928392815260066020522055600160401b8110156157615780600161529a9201600555614435565b96909661574d57518655516001860155516002850155516003840180546001600160a01b03199081166001600160a01b039384161790915591516004850180549093169116179055518051916001600160401b03831161573957600560209101916153058484614e0d565b01908a5260208a208a5b83811061571c57505050506153248684614d82565b856001600160a01b038416897fddf252ad1be2c89b69c2b068fc378daa952ba7f163c4a11628f55a4df523b3ef8180a48388877fe4f48c240d3b994948aa54f3e2f5fca59263dfe1d52b6e4cf39a5d249b5ccb658280a48588526006602052600261539260408a2054614435565b500161539f86825461420d565b90558588600080516020615ccc8339815191526020604051898152a36010549080895260156020526153d787600360408c2001614d5c565b86895260166020526153ec8160408b20614d5c565b868952601760205260408920818a5260205260408920600160ff1982541617905586895260186020526040892090895260205260408820556015602052600760408820016008604089200161545361544d61544d600960408d20019461438f565b9261438f565b928960018060a01b036008541691823b1561569157615497928a83604051809681958294632108947560e21b84526004840152604060248401526044830190613d30565b03925af18015615711576156fa575b5060085489939291906001600160a01b0316803b156156f6576154f09185918a8360405180968195829463246a908b60e01b84526004840152604060248401526044830190613d30565b03925af19081156156eb5784916156d7575b50506008546001600160a01b0316803b156156d3576155489184918983604051809681958294630190503b60e61b84526004840152604060248401526044830190613d30565b03925af19081156156c85783916156b4575b50506008546001600160a01b0316803b15611595576155a18392918392604051948580948193637e468a5160e01b83528d6004840152604060248401526044830190613d30565b03925af180156156a957615695575b50600b546001600160a01b0316803b15615691578190604460405180948193638e9eeaef60e01b83528860048401528a60248401525af180156156865761566e575b5060407fd1366f3f7ed30bafca8767d407a9553668f0d7ea19bc30557cdbec04a31d305394959661562585600c5461420d565b600c558381526019602052209060018060a01b0316600052602052604060002061565083825461420d565b9055604080518581526020810192909252810191909152606090a190565b6156788791613d7f565b61568257386155f2565b8580fd5b6040513d89823e3d90fd5b5080fd5b61569e90613d7f565b6156825785386155b0565b6040513d84823e3d90fd5b6156bd90613d7f565b61569157813861555a565b6040513d85823e3d90fd5b8380fd5b6156e090613d7f565b611595578238615502565b6040513d86823e3d90fd5b8480fd5b615708909991939299613d7f565b979091386154a6565b6040513d8c823e3d90fd5b82516001600160a01b03168183015560209092019160010161530f565b634e487b7160e01b8b52604160045260248bfd5b634e487b7160e01b8f5260048f905260248ffd5b634e487b7160e01b8f52604160045260248ffd5b60405162461bcd60e51b815260206004820152601d60248201527f53656e646572206e6f7420617574686f72697a656420746f206d696e740000006044820152606490fd5b50848752601560205260408720546001600160a01b031633146151ec565b50338752601a60205260ff6040882054166151e5565b615807915060203d602011612062576120538183613e1a565b386151dd565b6040513d8a823e3d90fd5b9095506020813d602011615849575b8161583460209383613e1a565b810103126158455751946020615190565b8780fd5b3d9150615827565b9190916000838201938412911290801582169115161761421a57565b615877818361461b565b61588183836147f7565b15806158fb575b615893575b50505050565b8381106158b6576158ad936158a791614de9565b91614896565b3880808061588d565b60405162461bcd60e51b815260206004820152601f60248201527f455243333532353a20696e73756666696369656e7420616c6c6f77616e6365006044820152606490fd5b50600019811415615888565b61591081614868565b15615b2b5761591e82614868565b15615ad857806000526020926006845260409261593e8460002054614435565b5081600052600686526159548560002054614435565b50906002810190815490858210615a815760010154600184015403615a265791600291615987866159c498979695614de9565b90550161599583825461420d565b90558083600080516020615ccc833981519152888851868152a38451926159bb84613dff565b60008452615b80565b156159cd575050565b60849250519062461bcd60e51b82526004820152602d60248201527f455243333532353a207472616e736665722072656a656374656420627920455260448201526c21999a991aa932b1b2b4bb32b960991b6064820152fd5b865162461bcd60e51b815260048101899052602e60248201527f455243333532353a207472616e7366657220746f20746f6b656e20776974682060448201526d191a5999995c995b9d081cdb1bdd60921b6064820152608490fd5b875162461bcd60e51b8152600481018a9052602a60248201527f455243333532353a20696e73756666696369656e742062616c616e636520666f60448201526939103a3930b739b332b960b11b6064820152608490fd5b60405162461bcd60e51b815260206004820152602560248201527f455243333532353a207472616e7366657220746f20696e76616c696420746f6b604482015264195b88125160da1b6064820152608490fd5b60405162461bcd60e51b815260206004820152602760248201527f455243333532353a207472616e736665722066726f6d20696e76616c696420746044820152661bdad95b88125160ca1b6064820152608490fd5b929092615b8c846144e6565b803b15615c9f576040516301ffc9a760e01b8152629ce20b60e01b6004820181905295602095926001600160a01b0316918681602481865afa60009181615c80575b50615be9575050505050505050615be3614e61565b50600190565b15615c745760008694615c28604051978896879586948d865233600487015260248601526044850152606484015260a0608484015260a4830190613d30565b03925af1918215615c6857600092615c4b575b50506001600160e01b0319161490565b615c619250803d10614fa257614f938183613e1a565b3880615c3b565b6040513d6000823e3d90fd5b50505050505050600190565b615c98919250883d8a11612062576120538183613e1a565b9038615bce565b5050505050600190565b6009821015615cb55752565b634e487b7160e01b600052602160045260246000fdfe0b2aac84f3ec956911fd78eae5311062972ff949f38412e8da39069d9f068cc6a26469706673582212200aa7b282fb101f930a65b2199d6ca05744e2a2bdc865c7869c863866a238fc0964736f6c634300081100336080604052346200048657620020b7803803806200001d816200048b565b9283398101608082820312620004865781516001600160401b0391908281116200048657816200004f918501620004b1565b91602092838501518281116200048657836200006d918701620004b1565b92604086015183811162000486576060916200008b918801620004b1565b9501516001600160a01b03811695908690036200048657815193838511620002c3576001948554938685811c951680156200047b575b88861014620002a2578190601f9586811162000425575b508890868311600114620003bd57600092620003b1575b5050600019600383901b1c191690861b1785555b805190848211620002c357600254908682811c92168015620003a6575b88831014620002a25781858493116200034f575b508790858311600114620002e557600092620002d9575b5050600019600383901b1c191690851b176002555b8051928311620002c35760039485548581811c91168015620002b8575b82821014620002a25783811162000257575b5080928411600114620001ed5750928293918392600094620001e1575b50501b9160001990841b1c19161790555b600080546001600160a01b031916919091179055604051611b939081620005248239f35b015192503880620001ac565b919083601f1981168760005284600020946000905b888383106200023c575050501062000223575b505050811b019055620001bd565b015160001983861b60f8161c1916905538808062000215565b85870151885590960195948501948793509081019062000202565b86600052816000208480870160051c82019284881062000298575b0160051c019086905b8281106200028b5750506200018f565b600081550186906200027b565b9250819262000272565b634e487b7160e01b600052602260045260246000fd5b90607f16906200017d565b634e487b7160e01b600052604160045260246000fd5b0151905038806200014b565b90879350601f198316916002600052896000209260005b8b8282106200033857505084116200031e575b505050811b0160025562000160565b015160001960f88460031b161c191690553880806200030f565b8385015186558b97909501949384019301620002fc565b9091506002600052876000208580850160051c8201928a86106200039c575b918991869594930160051c01915b8281106200038c57505062000134565b600081558594508991016200037c565b925081926200036e565b91607f169162000120565b015190503880620000ef565b90889350601f19831691846000528a6000209260005b8c8282106200040e5750508411620003f4575b505050811b01855562000103565b015160001960f88460031b161c19169055388080620003e6565b8385015186558c97909501949384019301620003d3565b90915087600052886000208680850160051c8201928b861062000471575b918a91869594930160051c01915b82811062000461575050620000d8565b600081558594508a910162000451565b9250819262000443565b94607f1694620000c1565b600080fd5b6040519190601f01601f191682016001600160401b03811183821017620002c357604052565b919080601f84011215620004865782516001600160401b038111620002c357602090620004e7601f8201601f191683016200048b565b92818452828287010111620004865760005b8181106200050f57508260009394955001015290565b8581018301518482018401528201620004f956fe608060408181526004908136101561001657600080fd5b600092833560e01c9081631375d843146113cd57508063246a908b146112cf57806355f804b31461118b57806364140ec01461108c5780636c0360eb14610fcd5780636c037f8a14610d0f57806371f0442e14610c7b578063725fa09c146108c05780637e468a51146107c1578063842251d414610685578063894b4c2e146101755763b3154c08146100a857600080fd5b34610171576020918260031936011261016d5780358452825280832091815192848154906100d5826118e1565b80875292600192808416908115610149575060011461010e575b61010a8787610100828c03836114e3565b5191829182611485565b0390f35b9080949750528583205b828410610136575050508261010a94610100928201019438806100ef565b8054868501880152928601928101610118565b60ff19168887015250505050151560051b83010192506101008261010a38806100ef565b8380fd5b8280fd5b50903461017157602092836003193601126106825782516306fdde0360e01b81529180359082848281335afa938415610678578394610654575b506101b98261179e565b926102056022875180968a6101d78184019a8b815193849201611462565b820161202360f01b8c8201526101f68c83519384918785019101611462565b010360028101875201856114e3565b828152818752858120865181549391899184610220876118e1565b80835284830193600198868a821691826000146106345750506001146105fb575b505090610254816102c9949303826114e3565b6102e561026030611a1a565b898852600686526102d78d808a209a60058952818b2091519788948a86019a6102ac61028b8d61191b565b91692f636f6e74726163742f60b01b83528351938491600a85019101611462565b019c6011662f746f6b656e2f60c81b9e8f600a8201520190611997565b602f60f81b81520190611997565b03601f1981018552846114e3565b8a51631398fee160e31b81528581018990528c81602481335afa80156105c25787906105cc575b610316915061179e565b8b5163131f9f3f60e11b8152958601899052948c81602481335afa9081156105c2578d918d918991610589575b5061034d9061179e565b9761035733611a1a565b9a815260068352208c51713d91383937b832b93a34b2b9afbab934911d60711b818401908152601160f91b60328301529a90998a93909161039a6033860161191b565b9068636f6e74726163742f60b81b825280518093600984019201916103be92611462565b019060098201526010016103d191611997565b6f17b83937b832b93a34b2b9973539b7b760811b815261227d60f01b601082015203600d198101885260120161040790886114e3565b8a51998a998d683d913730b6b2911d1160b91b908c015251908160298c0161042e92611462565b890190701116113232b9b1b934b83a34b7b7111d1160791b6029830152519182603a830161045b92611462565b01906a11161134b6b0b3b2911d1160a91b603a8301525191826045830161048192611462565b016c1116113130b630b731b2911d1160991b6045820152815191828a605284019201916104ad92611462565b016911161139b637ba111d1160b11b60528201528151918289605c84019201916104d692611462565b01906e111611383937b832b93a34b2b9911d60891b605c830152519182606b830161050092611462565b01606b8101607d60f81b905203604c81018252606c0161052090826114e3565b61052990611631565b81517f646174613a6170706c69636174696f6e2f6a736f6e3b6261736536342c00000084820152815190938492610567918391603d86019101611462565b810103601d81018352603d0161057d90836114e3565b5161010a819282611485565b928092508391503d83116105bb575b6105a281836114e3565b810103126105b7578b61034d8e925190610343565b8680fd5b503d610598565b8c513d89823e3d90fd5b508c81813d83116105f4575b6105e281836114e3565b810103126105b757610316905161030c565b503d6105d8565b8592508752818720908888925b82841061061e5750505082010161025482610241565b80548487018601528794909301928a9101610608565b60ff1916875292151560051b850190920192506102549150839050610241565b6106719194503d8085833e61066981836114e3565b8101906115a0565b92386101af565b85513d85823e3d90fd5b80fd5b508290346107bd576106963661156d565b939083526020916006835283209184519167ffffffffffffffff83116107aa57506106c183546118e1565b601f8111610767575b5080601f831160011461070557508394829394926106fa575b50508160011b916000199060031b1c191617905580f35b0151905084806106e3565b90601f198316958486528286209286905b88821061074f57505083600195969710610736575b505050811b01905580f35b015160001960f88460031b161c1916905584808061072b565b80600185968294968601518155019501930190610716565b838552818520601f840160051c8101918385106107a0575b601f0160051c01905b81811061079557506106ca565b858155600101610788565b909150819061077f565b634e487b7160e01b855260419052602484fd5b5080fd5b508290346107bd576107d23661156d565b939083526020916007835283209184519167ffffffffffffffff83116107aa57506107fd83546118e1565b601f811161087d575b5080601f831160011461083557508394829394926106fa5750508160011b916000199060031b1c191617905580f35b90601f198316958486528286209286905b8882106108655750508360019596971061073657505050811b01905580f35b80600185968294968601518155019501930190610846565b838552818520601f840160051c8101918385106108b6575b601f0160051c01905b8181106108ab5750610806565b85815560010161089e565b9091508190610895565b50913461068257806003193601126106825782516306fdde0360e01b815281818481335afa908115610c71578291610c57575b508351829060025492610905846118e1565b9586835260209683888101956001978a8982169182600014610c3c575050600114610be1575b610937925003846114e3565b61094033611a1a565b9588519586898101986109528a61191b565b68636f6e74726163742f60b81b81526109758c8351938491600985019101611462565b01602f60f81b600982015283906003549361098f856118e1565b94818116908115610bc05750600114610b61575b50506109b8925003601f1981018852876114e3565b8789518093633e7e866960e01b825281335afa918215610b55578192610b17575b5050610ac9605a888a61010a9b9961010099610a7f603d9a610b079e9a610a5c610ace9b610a0c60ff610a329d1661179e565b97519b8c99683d913730b6b2911d1160b91b818c0152825192839160298d019101611462565b880191701116113232b9b1b934b83a34b7b7111d1160791b6029840152518093603a840190611462565b01916a11161134b6b0b3b2911d1160a91b603a8401525180936045840190611462565b01721116113b30b63ab2a232b1b4b6b0b639911d1160691b6045820152610aaf825180938a605885019101611462565b0161227d60f01b605882015203603a8101845201826114e3565b611631565b845195827f646174613a6170706c69636174696f6e2f6a736f6e3b6261736536342c000000889485015282519283918686019101611462565b810103601d8101855201836114e3565b9091508781813d8311610b4e575b610b2f81836114e3565b810103126107bd57519060ff821682036106825750610ac9605a6109d9565b503d610b25565b508851903d90823e3d90fd5b6003865290915084908c7fc2575a0e9e593c00f959f8c92f12db2869c3395a3b0502d05e2516446f71f85b5b868410610ba857505050506109b892600a91010138806109a3565b8054858501600a01528c95509201918d908201610b8d565b9050600a93506109b895915060ff19168383015280151502010138806109a3565b505060028752838888887f405787fa12a823e0f2b7631cc41b3ba8828b3321ca811111fa75cd3aa3bb5ace5b858310610c23575050610937935082010161092b565b80919294505483858a0101520191018990888793610c0d565b60ff1916895261093794151560051b840101915061092b9050565b610c6b91503d8084833e61066981836114e3565b386108f3565b84513d84823e3d90fd5b5034610171576020918260031936011261016d57358352600582528083209181519284815490610caa826118e1565b808752926001928084169081156101495750600114610cd45761010a8787610100828c03836114e3565b9080949750528583205b828410610cfc575050508261010a94610100928201019438806100ef565b8054868501880152928601928101610cde565b5090346101715760209283600319360112610682578054835163ec327a2160e01b815283358185018190529092916001600160a01b0316908284602481855afa938415610fc3578394610fa7575b50855163bc74ebb960e01b8152858101829052948386602481865afa958615610f9d578496610f81575b5086516309c3dd8760e01b80825282820184905290938585602481845afa948515610f7757918a9594939187938496610f56575b5090602491610dfb60268d518a652f696d61676560d01b81610de7849e85019d8e815193849201611462565b83019182015203600681018b5201896114e3565b8b51958694859384528301525afa938415610f4b578094610f2e575b50508551918288808201868197519283910191610e3392611462565b81018981016f17b83937b832b93a34b2b9973539b7b760811b905203601081018452603001610e6290846114e3565b8651958695683d913730b6b2911d1160b91b8a880152805190818b60298a01920191610e8d92611462565b8601701116113232b9b1b934b83a34b7b7111d1160791b6029820152815191828b603a8401920191610ebe92611462565b01906a11161134b6b0b3b2911d1160a91b603a83015251918260458301610ee492611462565b01906e111611383937b832b93a34b2b9911d60891b604583015251918260548301610f0e92611462565b0160548101607d60f81b90520360358101825260550161052090826114e3565b610f439294503d8091833e61066981836114e3565b913880610e17565b8751903d90823e3d90fd5b602492919650610f6f903d8087833e61066981836114e3565b959091610dbb565b89513d88823e3d90fd5b610f969196503d8086833e61066981836114e3565b9438610d87565b87513d86823e3d90fd5b610fbc9194503d8085833e61066981836114e3565b9238610d5d565b86513d85823e3d90fd5b8382346107bd57816003193601126107bd57805190826001805491610ff1836118e1565b80865292828116908115611064575060011461101a575b5050506101008261010a9403836114e3565b9450808552600080516020611b3e8339815191525b82861061104c5750505061010082602061010a9582010194611008565b8054602087870181019190915290950194810161102f565b61010a97508693506020925061010094915060ff191682840152151560051b82010194611008565b508290346107bd5761109d3661156d565b939083526020916005835283209184519167ffffffffffffffff83116107aa57506110c883546118e1565b601f8111611148575b5080601f831160011461110057508394829394926106fa5750508160011b916000199060031b1c191617905580f35b90601f198316958486528286209286905b8882106111305750508360019596971061073657505050811b01905580f35b80600185968294968601518155019501930190611111565b838552818520601f840160051c810191838510611181575b601f0160051c01905b81811061117657506110d1565b858155600101611169565b9091508190611160565b828434610682576020806003193601126107bd5767ffffffffffffffff833581811161016d576111be9036908601611521565b9384519182116112bc57506001916111d683546118e1565b601f811161126a575b5080601f8311600114611219575083948293949261120e575b5050600019600383901b1c191690821b17905580f35b0151905084806111f8565b838552601f19831695600080516020611b3e833981519152929186905b888210611253575050838596971061073657505050811b01905580f35b808785968294968601518155019501930190611236565b838552600080516020611b3e833981519152601f840160051c8101918385106112b2575b601f0160051c019084905b8281106112a75750506111df565b868155018490611299565b909150819061128e565b634e487b7160e01b845260419052602483fd5b508290346107bd576112e03661156d565b9390835260209181835283209184519167ffffffffffffffff83116107aa575061130a83546118e1565b601f811161138a575b5080601f831160011461134257508394829394926106fa5750508160011b916000199060031b1c191617905580f35b90601f198316958486528286209286905b8882106113725750508360019596971061073657505050811b01905580f35b80600185968294968601518155019501930190611353565b838552818520601f840160051c8101918385106113c3575b601f0160051c01905b8181106113b85750611313565b8581556001016113ab565b90915081906113a2565b9290503461016d576020908160031936011261145e57358452600681528184208054856113f9826118e1565b8087529260019280841690811561014957506001146114235761010a8787610100828c03836114e3565b9080949750528583205b82841061144b575050508261010a94610100928201019438806100ef565b805486850188015292860192810161142d565b8480fd5b60005b8381106114755750506000910152565b8181015183820152602001611465565b604091602082526114a58151809281602086015260208686019101611462565b601f01601f1916010190565b6060810190811067ffffffffffffffff8211176114cd57604052565b634e487b7160e01b600052604160045260246000fd5b90601f8019910116810190811067ffffffffffffffff8211176114cd57604052565b67ffffffffffffffff81116114cd57601f01601f191660200190565b81601f820112156115685780359061153882611505565b9261154660405194856114e3565b8284526020838301011161156857816000926020809301838601378301015290565b600080fd5b90604060031983011261156857600435916024359067ffffffffffffffff82116115685761159d91600401611521565b90565b6020818303126115685780519067ffffffffffffffff8211611568570181601f820112156115685780516115d381611505565b926115e160405194856114e3565b818452602082840101116115685761159d9160208085019101611462565b9061160982611505565b61161660405191826114e3565b8281528092611627601f1991611505565b0190602036910137565b80511561177957604051611644816114b1565b604081527f4142434445464748494a4b4c4d4e4f505152535455565758595a61626364656660208201527f6768696a6b6c6d6e6f707172737475767778797a303132333435363738392b2f60408201528151600292838201809211611763576003918290046001600160fe1b0381168103611763576116c6908594951b6115ff565b936020850193829183518401925b83811061171257505050505106806001146116ff576002146116f4575090565b603d90600019015390565b50603d9081600019820153600119015390565b85600491979293949701918251600190603f9082828260121c16880101518453828282600c1c16880101518385015382828260061c16880101518885015316850101518782015301959291906116d4565b634e487b7160e01b600052601160045260246000fd5b506040516020810181811067ffffffffffffffff8211176114cd576040526000815290565b806000917a184f03e93ff9f4daa797ed6e38ed64bf6a1f010000000000000000808210156118d3575b506d04ee2d6d415b85acef8100000000808310156118c4575b50662386f26fc10000808310156118b5575b506305f5e100808310156118a6575b5061271080831015611897575b506064821015611887575b600a8092101561187d575b6001908160216118358287016115ff565b95860101905b611847575b5050505090565b600019019083906f181899199a1a9b1b9c1cb0b131b232b360811b8282061a8353049182156118785791908261183b565b611840565b9160010191611824565b9190606460029104910191611819565b6004919392049101913861180e565b60089193920491019138611801565b601091939204910191386117f2565b602091939204910191386117e0565b6040935081049150386117c7565b90600182811c92168015611911575b60208310146118fb57565b634e487b7160e01b600052602260045260246000fd5b91607f16916118f0565b9060009160019081549161192e836118e1565b92818116908115611984575060011461194657505050565b809192939450600052600080516020611b3e833981519152906000915b848310611971575050500190565b8181602092548587015201920191611963565b60ff191683525050811515909102019150565b6000929181546119a6816118e1565b926001918083169081156119ff57506001146119c3575b50505050565b90919293945060005260209081600020906000915b8583106119ee57505050500190388080806119bd565b8054858401529183019181016119d8565b60ff19168452505050811515909102019150388080806119bd565b604051906001600160a01b0316611a30826114b1565b602a82526020908183016040368237835115611b2757603090538251600190811015611b2757607860218501536029905b808211611ab5575050611a72575090565b6064906040519062461bcd60e51b825280600483015260248201527f537472696e67733a20686578206c656e67746820696e73756666696369656e746044820152fd5b9091600f81166010811015611b12578551841015611b12576f181899199a1a9b1b9c1cb0b131b232b360811b901a85840185015360041c918015611afd576000190190611a61565b60246000634e487b7160e01b81526011600452fd5b60246000634e487b7160e01b81526032600452fd5b634e487b7160e01b600052603260045260246000fdfeb10e2d527612073b26eecdfd717e6a320cf44b4afac2b0732d9fcbe2b7fa0cf6a2646970667358221220075d961bac45a8455e8b8f4260cef222c6c6880276b6f448f391c8c0a2b708f264736f6c63430008110033290decd9548b62a8d60345a988386fc84ba6bc95484008f6362f93160ef3e563",
  "linkReferences": {},
  "deployedLinkReferences": {}
}