{
  "_format": "hh-sol-artifact-1",
  "contractName": "Offering",
  "sourceName": "contracts/Offering.sol",
  "abi": [
    {
      "inputs": [
        {
          "internalType": "address",
          "name": "revenueAcct_",
          "type": "address"
        },
        {
          "internalType": "address",
          "name": "registry_",
          "type": "address"
        },
        {
          "internalType": "address",
          "name": "poolContract_",
          "type": "address"
        },
        {
          "internalType": "address",
          "name": "underlyingContract_",
          "type": "address"
        },
        {
          "internalType": "string",
          "name": "name_",
          "type": "string"
        },
        {
          "internalType": "string",
          "name": "symbol_",
          "type": "string"
        },
        {
          "internalType": "string",
          "name": "baseuri_",
          "type": "string"
        },
        {
          "internalType": "string",
          "name": "contractDescription_",
          "type": "string"
        },
        {
          "internalType": "string",
          "name": "contractImage_",
          "type": "string"
        },
        {
          "internalType": "string",
          "name": "valueToken_",
          "type": "string"
        },
        {
          "internalType": "uint8",
          "name": "decimals_",
          "type": "uint8"
        }
      ],
      "stateMutability": "nonpayable",
      "type": "constructor"
    },
    {
      "anonymous": false,
      "inputs": [
        {
          "indexed": true,
          "internalType": "address",
          "name": "_owner",
          "type": "address"
        },
        {
          "indexed": true,
          "internalType": "address",
          "name": "_approved",
          "type": "address"
        },
        {
          "indexed": true,
          "internalType": "uint256",
          "name": "_tokenId",
          "type": "uint256"
        }
      ],
      "name": "Approval",
      "type": "event"
    },
    {
      "anonymous": false,
      "inputs": [
        {
          "indexed": true,
          "internalType": "address",
          "name": "_owner",
          "type": "address"
        },
        {
          "indexed": true,
          "internalType": "address",
          "name": "_operator",
          "type": "address"
        },
        {
          "indexed": false,
          "internalType": "bool",
          "name": "_approved",
          "type": "bool"
        }
      ],
      "name": "ApprovalForAll",
      "type": "event"
    },
    {
      "anonymous": false,
      "inputs": [
        {
          "indexed": true,
          "internalType": "uint256",
          "name": "_tokenId",
          "type": "uint256"
        },
        {
          "indexed": true,
          "internalType": "address",
          "name": "_operator",
          "type": "address"
        },
        {
          "indexed": false,
          "internalType": "uint256",
          "name": "_value",
          "type": "uint256"
        }
      ],
      "name": "ApprovalValue",
      "type": "event"
    },
    {
      "anonymous": false,
      "inputs": [
        {
          "indexed": false,
          "internalType": "uint256",
          "name": "tokenId",
          "type": "uint256"
        },
        {
          "indexed": false,
          "internalType": "uint256",
          "name": "slot",
          "type": "uint256"
        },
        {
          "indexed": false,
          "internalType": "uint256",
          "name": "value",
          "type": "uint256"
        }
      ],
      "name": "CreditValue",
      "type": "event"
    },
    {
      "anonymous": false,
      "inputs": [
        {
          "indexed": false,
          "internalType": "uint256",
          "name": "offeringId",
          "type": "uint256"
        },
        {
          "indexed": false,
          "internalType": "uint256",
          "name": "slot",
          "type": "uint256"
        },
        {
          "indexed": false,
          "internalType": "uint256",
          "name": "value",
          "type": "uint256"
        }
      ],
      "name": "ListOffering",
      "type": "event"
    },
    {
      "anonymous": false,
      "inputs": [
        {
          "indexed": false,
          "internalType": "address",
          "name": "contractAddress",
          "type": "address"
        }
      ],
      "name": "MetadataDescriptor",
      "type": "event"
    },
    {
      "anonymous": false,
      "inputs": [
        {
          "indexed": false,
          "internalType": "uint256",
          "name": "tokenId",
          "type": "uint256"
        },
        {
          "indexed": false,
          "internalType": "uint256",
          "name": "slot",
          "type": "uint256"
        },
        {
          "indexed": false,
          "internalType": "uint256",
          "name": "value",
          "type": "uint256"
        }
      ],
      "name": "MintOffering",
      "type": "event"
    },
    {
      "anonymous": false,
      "inputs": [
        {
          "indexed": true,
          "internalType": "bytes32",
          "name": "role",
          "type": "bytes32"
        },
        {
          "indexed": true,
          "internalType": "bytes32",
          "name": "previousAdminRole",
          "type": "bytes32"
        },
        {
          "indexed": true,
          "internalType": "bytes32",
          "name": "newAdminRole",
          "type": "bytes32"
        }
      ],
      "name": "RoleAdminChanged",
      "type": "event"
    },
    {
      "anonymous": false,
      "inputs": [
        {
          "indexed": true,
          "internalType": "bytes32",
          "name": "role",
          "type": "bytes32"
        },
        {
          "indexed": true,
          "internalType": "address",
          "name": "account",
          "type": "address"
        },
        {
          "indexed": true,
          "internalType": "address",
          "name": "sender",
          "type": "address"
        }
      ],
      "name": "RoleGranted",
      "type": "event"
    },
    {
      "anonymous": false,
      "inputs": [
        {
          "indexed": true,
          "internalType": "bytes32",
          "name": "role",
          "type": "bytes32"
        },
        {
          "indexed": true,
          "internalType": "address",
          "name": "account",
          "type": "address"
        },
        {
          "indexed": true,
          "internalType": "address",
          "name": "sender",
          "type": "address"
        }
      ],
      "name": "RoleRevoked",
      "type": "event"
    },
    {
      "anonymous": false,
      "inputs": [
        {
          "indexed": true,
          "internalType": "address",
          "name": "metadataDescriptor",
          "type": "address"
        }
      ],
      "name": "SetMetadataDescriptor",
      "type": "event"
    },
    {
      "anonymous": false,
      "inputs": [
        {
          "indexed": true,
          "internalType": "uint256",
          "name": "_tokenId",
          "type": "uint256"
        },
        {
          "indexed": true,
          "internalType": "uint256",
          "name": "_oldSlot",
          "type": "uint256"
        },
        {
          "indexed": true,
          "internalType": "uint256",
          "name": "_newSlot",
          "type": "uint256"
        }
      ],
      "name": "SlotChanged",
      "type": "event"
    },
    {
      "anonymous": false,
      "inputs": [
        {
          "indexed": true,
          "internalType": "address",
          "name": "_from",
          "type": "address"
        },
        {
          "indexed": true,
          "internalType": "address",
          "name": "_to",
          "type": "address"
        },
        {
          "indexed": true,
          "internalType": "uint256",
          "name": "_tokenId",
          "type": "uint256"
        }
      ],
      "name": "Transfer",
      "type": "event"
    },
    {
      "anonymous": false,
      "inputs": [
        {
          "indexed": true,
          "internalType": "uint256",
          "name": "_fromTokenId",
          "type": "uint256"
        },
        {
          "indexed": true,
          "internalType": "uint256",
          "name": "_toTokenId",
          "type": "uint256"
        },
        {
          "indexed": false,
          "internalType": "uint256",
          "name": "_value",
          "type": "uint256"
        }
      ],
      "name": "TransferValue",
      "type": "event"
    },
    {
      "inputs": [],
      "name": "DEFAULT_ADMIN_ROLE",
      "outputs": [
        {
          "internalType": "bytes32",
          "name": "",
          "type": "bytes32"
        }
      ],
      "stateMutability": "view",
      "type": "function"
    },
    {
      "inputs": [
        {
          "internalType": "string",
          "name": "uri_",
          "type": "string"
        }
      ],
      "name": "_setBaseURI",
      "outputs": [],
      "stateMutability": "nonpayable",
      "type": "function"
    },
    {
      "inputs": [
        {
          "internalType": "uint256",
          "name": "offeringId_",
          "type": "uint256"
        },
        {
          "internalType": "address",
          "name": "tokenContract_",
          "type": "address"
        },
        {
          "internalType": "uint256",
          "name": "tokenId_",
          "type": "uint256"
        }
      ],
      "name": "access",
      "outputs": [
        {
          "internalType": "bool",
          "name": "",
          "type": "bool"
        }
      ],
      "stateMutability": "nonpayable",
      "type": "function"
    },
    {
      "inputs": [
        {
          "internalType": "address",
          "name": "creditContract_",
          "type": "address"
        },
        {
          "internalType": "uint256",
          "name": "creditTokenId_",
          "type": "uint256"
        },
        {
          "internalType": "uint256",
          "name": "creditSlotId_",
          "type": "uint256"
        },
        {
          "internalType": "uint256",
          "name": "discountMilliBasisPts_",
          "type": "uint256"
        },
        {
          "internalType": "string",
          "name": "offeringAssetId_",
          "type": "string"
        },
        {
          "internalType": "uint256",
          "name": "value_",
          "type": "uint256"
        },
        {
          "internalType": "uint256",
          "name": "endTime_",
          "type": "uint256"
        }
      ],
      "name": "accessFromCredits",
      "outputs": [
        {
          "internalType": "bool",
          "name": "",
          "type": "bool"
        }
      ],
      "stateMutability": "nonpayable",
      "type": "function"
    },
    {
      "inputs": [
        {
          "internalType": "string",
          "name": "assetId_",
          "type": "string"
        },
        {
          "internalType": "uint256",
          "name": "msgId_",
          "type": "uint256"
        },
        {
          "internalType": "enum Offering.ActionType",
          "name": "actionType_",
          "type": "uint8"
        }
      ],
      "name": "addUserAction",
      "outputs": [],
      "stateMutability": "nonpayable",
      "type": "function"
    },
    {
      "inputs": [
        {
          "internalType": "uint256",
          "name": "tokenId_",
          "type": "uint256"
        },
        {
          "internalType": "address",
          "name": "operator_",
          "type": "address"
        }
      ],
      "name": "allowance",
      "outputs": [
        {
          "internalType": "uint256",
          "name": "",
          "type": "uint256"
        }
      ],
      "stateMutability": "view",
      "type": "function"
    },
    {
      "inputs": [
        {
          "internalType": "address",
          "name": "to_",
          "type": "address"
        },
        {
          "internalType": "uint256",
          "name": "tokenId_",
          "type": "uint256"
        }
      ],
      "name": "approve",
      "outputs": [],
      "stateMutability": "payable",
      "type": "function"
    },
    {
      "inputs": [
        {
          "internalType": "uint256",
          "name": "tokenId_",
          "type": "uint256"
        },
        {
          "internalType": "address",
          "name": "to_",
          "type": "address"
        },
        {
          "internalType": "uint256",
          "name": "value_",
          "type": "uint256"
        }
      ],
      "name": "approve",
      "outputs": [],
      "stateMutability": "payable",
      "type": "function"
    },
    {
      "inputs": [
        {
          "internalType": "address",
          "name": "creditContract_",
          "type": "address"
        }
      ],
      "name": "approveCredit",
      "outputs": [],
      "stateMutability": "nonpayable",
      "type": "function"
    },
    {
      "inputs": [
        {
          "internalType": "string",
          "name": "offeringAssetId_",
          "type": "string"
        }
      ],
      "name": "assetOffering",
      "outputs": [
        {
          "internalType": "uint256",
          "name": "",
          "type": "uint256"
        }
      ],
      "stateMutability": "view",
      "type": "function"
    },
    {
      "inputs": [
        {
          "internalType": "address",
          "name": "owner_",
          "type": "address"
        }
      ],
      "name": "balanceOf",
      "outputs": [
        {
          "internalType": "uint256",
          "name": "balance",
          "type": "uint256"
        }
      ],
      "stateMutability": "view",
      "type": "function"
    },
    {
      "inputs": [
        {
          "internalType": "uint256",
          "name": "tokenId_",
          "type": "uint256"
        }
      ],
      "name": "balanceOf",
      "outputs": [
        {
          "internalType": "uint256",
          "name": "",
          "type": "uint256"
        }
      ],
      "stateMutability": "view",
      "type": "function"
    },
    {
      "inputs": [],
      "name": "contractURI",
      "outputs": [
        {
          "internalType": "string",
          "name": "",
          "type": "string"
        }
      ],
      "stateMutability": "view",
      "type": "function"
    },
    {
      "inputs": [
        {
          "internalType": "uint256",
          "name": "tokenId_",
          "type": "uint256"
        }
      ],
      "name": "getApproved",
      "outputs": [
        {
          "internalType": "address",
          "name": "",
          "type": "address"
        }
      ],
      "stateMutability": "view",
      "type": "function"
    },
    {
      "inputs": [
        {
          "internalType": "string",
          "name": "assetId_",
          "type": "string"
        }
      ],
      "name": "getAssetUserActions",
      "outputs": [
        {
          "components": [
            {
              "internalType": "enum Offering.ActionType",
              "name": "actionType",
              "type": "uint8"
            },
            {
              "internalType": "uint256",
              "name": "actionTime",
              "type": "uint256"
            },
            {
              "internalType": "uint256",
              "name": "messageId",
              "type": "uint256"
            }
          ],
          "internalType": "struct Offering.UserAction[]",
          "name": "",
          "type": "tuple[]"
        }
      ],
      "stateMutability": "view",
      "type": "function"
    },
    {
      "inputs": [
        {
          "internalType": "bytes32",
          "name": "role",
          "type": "bytes32"
        }
      ],
      "name": "getRoleAdmin",
      "outputs": [
        {
          "internalType": "bytes32",
          "name": "",
          "type": "bytes32"
        }
      ],
      "stateMutability": "view",
      "type": "function"
    },
    {
      "inputs": [
        {
          "internalType": "address",
          "name": "user_",
          "type": "address"
        },
        {
          "internalType": "uint256",
          "name": "offeringId_",
          "type": "uint256"
        }
      ],
      "name": "grantAccess",
      "outputs": [
        {
          "internalType": "bool",
          "name": "",
          "type": "bool"
        }
      ],
      "stateMutability": "view",
      "type": "function"
    },
    {
      "inputs": [
        {
          "internalType": "bytes32",
          "name": "role",
          "type": "bytes32"
        },
        {
          "internalType": "address",
          "name": "account",
          "type": "address"
        }
      ],
      "name": "grantRole",
      "outputs": [],
      "stateMutability": "nonpayable",
      "type": "function"
    },
    {
      "inputs": [
        {
          "internalType": "bytes32",
          "name": "role",
          "type": "bytes32"
        },
        {
          "internalType": "address",
          "name": "account",
          "type": "address"
        }
      ],
      "name": "hasRole",
      "outputs": [
        {
          "internalType": "bool",
          "name": "",
          "type": "bool"
        }
      ],
      "stateMutability": "view",
      "type": "function"
    },
    {
      "inputs": [
        {
          "internalType": "address",
          "name": "creditContract_",
          "type": "address"
        }
      ],
      "name": "isApproveCredit",
      "outputs": [
        {
          "internalType": "bool",
          "name": "",
          "type": "bool"
        }
      ],
      "stateMutability": "view",
      "type": "function"
    },
    {
      "inputs": [
        {
          "internalType": "address",
          "name": "owner_",
          "type": "address"
        },
        {
          "internalType": "address",
          "name": "operator_",
          "type": "address"
        }
      ],
      "name": "isApprovedForAll",
      "outputs": [
        {
          "internalType": "bool",
          "name": "",
          "type": "bool"
        }
      ],
      "stateMutability": "view",
      "type": "function"
    },
    {
      "inputs": [],
      "name": "metadataDescriptor",
      "outputs": [
        {
          "internalType": "contract IERC3525MetadataDescriptor",
          "name": "",
          "type": "address"
        }
      ],
      "stateMutability": "view",
      "type": "function"
    },
    {
      "inputs": [
        {
          "internalType": "address",
          "name": "owner_",
          "type": "address"
        },
        {
          "internalType": "uint256",
          "name": "slotId_",
          "type": "uint256"
        },
        {
          "internalType": "uint256",
          "name": "value_",
          "type": "uint256"
        },
        {
          "internalType": "string",
          "name": "offeringAssetId_",
          "type": "string"
        }
      ],
      "name": "mint",
      "outputs": [
        {
          "internalType": "uint256",
          "name": "",
          "type": "uint256"
        }
      ],
      "stateMutability": "nonpayable",
      "type": "function"
    },
    {
      "inputs": [
        {
          "internalType": "address",
          "name": "creditContract_",
          "type": "address"
        },
        {
          "internalType": "uint256",
          "name": "creditTokenId_",
          "type": "uint256"
        },
        {
          "internalType": "uint256",
          "name": "discountMilliBasisPts_",
          "type": "uint256"
        },
        {
          "internalType": "address",
          "name": "owner_",
          "type": "address"
        },
        {
          "internalType": "uint256",
          "name": "slotId_",
          "type": "uint256"
        },
        {
          "internalType": "uint256",
          "name": "value_",
          "type": "uint256"
        },
        {
          "internalType": "string",
          "name": "offeringAssetId_",
          "type": "string"
        }
      ],
      "name": "mintFromCredits",
      "outputs": [
        {
          "internalType": "uint256",
          "name": "",
          "type": "uint256"
        }
      ],
      "stateMutability": "nonpayable",
      "type": "function"
    },
    {
      "inputs": [
        {
          "internalType": "address",
          "name": "owner_",
          "type": "address"
        },
        {
          "internalType": "string[]",
          "name": "asset_",
          "type": "string[]"
        },
        {
          "internalType": "string[]",
          "name": "assetUri_",
          "type": "string[]"
        },
        {
          "internalType": "string[]",
          "name": "assetType_",
          "type": "string[]"
        },
        {
          "internalType": "uint256",
          "name": "value_",
          "type": "uint256"
        },
        {
          "internalType": "uint256",
          "name": "slotId_",
          "type": "uint256"
        },
        {
          "internalType": "string",
          "name": "offeringAssetId_",
          "type": "string"
        },
        {
          "internalType": "string",
          "name": "side_",
          "type": "string"
        },
        {
          "internalType": "string",
          "name": "description_",
          "type": "string"
        },
        {
          "internalType": "string",
          "name": "image_",
          "type": "string"
        },
        {
          "internalType": "string",
          "name": "properties_",
          "type": "string"
        },
        {
          "internalType": "bool",
          "name": "canShareOwn_",
          "type": "bool"
        },
        {
          "internalType": "bool",
          "name": "isMultiAccess_",
          "type": "bool"
        }
      ],
      "name": "mktListOffering",
      "outputs": [],
      "stateMutability": "nonpayable",
      "type": "function"
    },
    {
      "inputs": [],
      "name": "name",
      "outputs": [
        {
          "internalType": "string",
          "name": "",
          "type": "string"
        }
      ],
      "stateMutability": "view",
      "type": "function"
    },
    {
      "inputs": [
        {
          "internalType": "uint256",
          "name": "offeringId_",
          "type": "uint256"
        }
      ],
      "name": "numOwners",
      "outputs": [
        {
          "internalType": "uint256",
          "name": "",
          "type": "uint256"
        }
      ],
      "stateMutability": "view",
      "type": "function"
    },
    {
      "inputs": [
        {
          "internalType": "uint256",
          "name": "offeringId_",
          "type": "uint256"
        }
      ],
      "name": "offering",
      "outputs": [
        {
          "components": [
            {
              "internalType": "address",
              "name": "creator",
              "type": "address"
            },
            {
              "internalType": "uint256",
              "name": "offeringId",
              "type": "uint256"
            },
            {
              "internalType": "bytes32[]",
              "name": "assets",
              "type": "bytes32[]"
            },
            {
              "internalType": "uint256[]",
              "name": "tokens",
              "type": "uint256[]"
            },
            {
              "internalType": "int256",
              "name": "value",
              "type": "int256"
            },
            {
              "internalType": "uint256",
              "name": "slotId",
              "type": "uint256"
            },
            {
              "internalType": "string",
              "name": "side",
              "type": "string"
            },
            {
              "internalType": "string",
              "name": "description",
              "type": "string"
            },
            {
              "internalType": "string",
              "name": "image",
              "type": "string"
            },
            {
              "internalType": "string",
              "name": "properties",
              "type": "string"
            },
            {
              "internalType": "bool",
              "name": "canShareOwn",
              "type": "bool"
            },
            {
              "internalType": "bool",
              "name": "isMultiAccess",
              "type": "bool"
            }
          ],
          "internalType": "struct Offering.SvcOffering",
          "name": "",
          "type": "tuple"
        }
      ],
      "stateMutability": "view",
      "type": "function"
    },
    {
      "inputs": [
        {
          "internalType": "uint256",
          "name": "tokenId_",
          "type": "uint256"
        }
      ],
      "name": "ownerOf",
      "outputs": [
        {
          "internalType": "address",
          "name": "owner_",
          "type": "address"
        }
      ],
      "stateMutability": "view",
      "type": "function"
    },
    {
      "inputs": [
        {
          "internalType": "string",
          "name": "offeringAssetId_",
          "type": "string"
        },
        {
          "internalType": "uint256",
          "name": "tokenId_",
          "type": "uint256"
        }
      ],
      "name": "ownershipMilliBasisPts",
      "outputs": [
        {
          "internalType": "int256",
          "name": "",
          "type": "int256"
        }
      ],
      "stateMutability": "view",
      "type": "function"
    },
    {
      "inputs": [
        {
          "internalType": "uint256",
          "name": "tokenId_",
          "type": "uint256"
        },
        {
          "internalType": "uint256",
          "name": "slotId_",
          "type": "uint256"
        },
        {
          "internalType": "uint256",
          "name": "value_",
          "type": "uint256"
        }
      ],
      "name": "redeem",
      "outputs": [],
      "stateMutability": "nonpayable",
      "type": "function"
    },
    {
      "inputs": [
        {
          "internalType": "bytes32",
          "name": "role",
          "type": "bytes32"
        },
        {
          "internalType": "address",
          "name": "account",
          "type": "address"
        }
      ],
      "name": "renounceRole",
      "outputs": [],
      "stateMutability": "nonpayable",
      "type": "function"
    },
    {
      "inputs": [
        {
          "internalType": "bytes32",
          "name": "role",
          "type": "bytes32"
        },
        {
          "internalType": "address",
          "name": "account",
          "type": "address"
        }
      ],
      "name": "revokeRole",
      "outputs": [],
      "stateMutability": "nonpayable",
      "type": "function"
    },
    {
      "inputs": [
        {
          "internalType": "address",
          "name": "from_",
          "type": "address"
        },
        {
          "internalType": "address",
          "name": "to_",
          "type": "address"
        },
        {
          "internalType": "uint256",
          "name": "tokenId_",
          "type": "uint256"
        }
      ],
      "name": "safeTransferFrom",
      "outputs": [],
      "stateMutability": "payable",
      "type": "function"
    },
    {
      "inputs": [
        {
          "internalType": "address",
          "name": "from_",
          "type": "address"
        },
        {
          "internalType": "address",
          "name": "to_",
          "type": "address"
        },
        {
          "internalType": "uint256",
          "name": "tokenId_",
          "type": "uint256"
        },
        {
          "internalType": "bytes",
          "name": "data_",
          "type": "bytes"
        }
      ],
      "name": "safeTransferFrom",
      "outputs": [],
      "stateMutability": "payable",
      "type": "function"
    },
    {
      "inputs": [
        {
          "internalType": "address",
          "name": "operator_",
          "type": "address"
        },
        {
          "internalType": "bool",
          "name": "approved_",
          "type": "bool"
        }
      ],
      "name": "setApprovalForAll",
      "outputs": [],
      "stateMutability": "nonpayable",
      "type": "function"
    },
    {
      "inputs": [
        {
          "internalType": "uint256",
          "name": "tokenId_",
          "type": "uint256"
        }
      ],
      "name": "slotOf",
      "outputs": [
        {
          "internalType": "uint256",
          "name": "",
          "type": "uint256"
        }
      ],
      "stateMutability": "view",
      "type": "function"
    },
    {
      "inputs": [
        {
          "internalType": "uint256",
          "name": "slot_",
          "type": "uint256"
        }
      ],
      "name": "slotURI",
      "outputs": [
        {
          "internalType": "string",
          "name": "",
          "type": "string"
        }
      ],
      "stateMutability": "view",
      "type": "function"
    },
    {
      "inputs": [
        {
          "internalType": "bytes4",
          "name": "interfaceId",
          "type": "bytes4"
        }
      ],
      "name": "supportsInterface",
      "outputs": [
        {
          "internalType": "bool",
          "name": "",
          "type": "bool"
        }
      ],
      "stateMutability": "view",
      "type": "function"
    },
    {
      "inputs": [],
      "name": "symbol",
      "outputs": [
        {
          "internalType": "string",
          "name": "",
          "type": "string"
        }
      ],
      "stateMutability": "view",
      "type": "function"
    },
    {
      "inputs": [
        {
          "internalType": "uint256",
          "name": "index_",
          "type": "uint256"
        }
      ],
      "name": "tokenByIndex",
      "outputs": [
        {
          "internalType": "uint256",
          "name": "",
          "type": "uint256"
        }
      ],
      "stateMutability": "view",
      "type": "function"
    },
    {
      "inputs": [
        {
          "internalType": "address",
          "name": "owner_",
          "type": "address"
        },
        {
          "internalType": "uint256",
          "name": "index_",
          "type": "uint256"
        }
      ],
      "name": "tokenOfOwnerByIndex",
      "outputs": [
        {
          "internalType": "uint256",
          "name": "",
          "type": "uint256"
        }
      ],
      "stateMutability": "view",
      "type": "function"
    },
    {
      "inputs": [
        {
          "internalType": "uint256",
          "name": "tokenId_",
          "type": "uint256"
        }
      ],
      "name": "tokenURI",
      "outputs": [
        {
          "internalType": "string",
          "name": "",
          "type": "string"
        }
      ],
      "stateMutability": "view",
      "type": "function"
    },
    {
      "inputs": [],
      "name": "totalSupply",
      "outputs": [
        {
          "internalType": "uint256",
          "name": "",
          "type": "uint256"
        }
      ],
      "stateMutability": "view",
      "type": "function"
    },
    {
      "inputs": [
        {
          "internalType": "uint256",
          "name": "fromTokenId_",
          "type": "uint256"
        },
        {
          "internalType": "address",
          "name": "to_",
          "type": "address"
        },
        {
          "internalType": "uint256",
          "name": "value_",
          "type": "uint256"
        }
      ],
      "name": "transferFrom",
      "outputs": [
        {
          "internalType": "uint256",
          "name": "",
          "type": "uint256"
        }
      ],
      "stateMutability": "payable",
      "type": "function"
    },
    {
      "inputs": [
        {
          "internalType": "address",
          "name": "from_",
          "type": "address"
        },
        {
          "internalType": "address",
          "name": "to_",
          "type": "address"
        },
        {
          "internalType": "uint256",
          "name": "tokenId_",
          "type": "uint256"
        }
      ],
      "name": "transferFrom",
      "outputs": [],
      "stateMutability": "payable",
      "type": "function"
    },
    {
      "inputs": [
        {
          "internalType": "uint256",
          "name": "fromTokenId_",
          "type": "uint256"
        },
        {
          "internalType": "uint256",
          "name": "toTokengId_",
          "type": "uint256"
        },
        {
          "internalType": "uint256",
          "name": "value_",
          "type": "uint256"
        }
      ],
      "name": "transferFrom",
      "outputs": [],
      "stateMutability": "payable",
      "type": "function"
    },
    {
      "inputs": [],
      "name": "valueDecimals",
      "outputs": [
        {
          "internalType": "uint8",
          "name": "",
          "type": "uint8"
        }
      ],
      "stateMutability": "view",
      "type": "function"
    }
  ],
  "bytecode": "0x6080604052346200059457620084bc803803806200001d8162000599565b92833981016101608282031262000594576200003982620005bf565b906200004860208401620005bf565b6200005660408501620005bf565b936200006560608201620005bf565b60808201519095906001600160401b0381116200059457846200008a918401620005f9565b60a08301516001600160401b038111620005945785620000ac918501620005f9565b60c08401519094906001600160401b038111620005945786620000d1918601620005f9565b60e08501519095906001600160401b038111620005945787620000f6918701620005f9565b6101008601519097906001600160401b0381116200059457816200011c918801620005f9565b6101208701519096906001600160401b03811162000594576101409262000145918301620005f9565b5001519260ff84168403620005945760016003558051906001600160401b038211620003835760005490600182811c9216801562000589575b6020831014620004805781601f84931162000529575b50602090601f8311600114620004ad57600092620004a1575b50508160011b916000199060031b1c1916176000555b8051906001600160401b0382116200038357600154600181811c9116801562000496575b60208210146200048057601f81116200041a575b50602090601f8311600114620003a55760ff949392916000918362000399575b50508160011b916000199060031b1c1916176001555b828216831960025416176002556298968060105560018060a01b0398898080938160018060a01b03199c168c600e541617600e551695868b600a541617600a551689600b541617600b55168088601c541617601c5587600d541617600d55166011553385600f541617600f55620002aa601d5462000677565b601d55620002ba601e5462000677565b601e55604051936120c5808601936001600160401b038511878610176200038357620003116060936200030289986200032095620063d78b3960808952608089019062000650565b90878203602089015262000650565b90858203604087015262000650565b92015203906000f090811562000377577f9ac4f8025631594629895b778dc5ee88d01673a254a2291f6b6b174ad25230ca926020921680916008541617600855604051908152a1604051615d3990816200069e8239f35b6040513d6000823e3d90fd5b634e487b7160e01b600052604160045260246000fd5b0151905038806200021b565b90600160005260206000209160005b601f198516811062000401575091839160019360ff979695601f19811610620003e7575b505050811b0160015562000231565b015160001960f88460031b161c19169055388080620003d8565b91926020600181928685015181550194019201620003b4565b60016000527fb10e2d527612073b26eecdfd717e6a320cf44b4afac2b0732d9fcbe2b7fa0cf6601f840160051c81016020851062000478575b601f830160051c820181106200046b575050620001fb565b6000815560010162000453565b508062000453565b634e487b7160e01b600052602260045260246000fd5b90607f1690620001e7565b015190503880620001ad565b600080805293506000805160206200849c83398151915291905b601f19841685106200050d576001945083601f19811610620004f3575b505050811b01600055620001c3565b015160001960f88460031b161c19169055388080620004e4565b81810151835560209485019460019093019290910190620004c7565b600080529091506000805160206200849c833981519152601f840160051c81016020851062000581575b90849392915b601f830160051c820181106200057157505062000194565b6000815585945060010162000559565b508062000553565b91607f16916200017e565b600080fd5b6040519190601f01601f191682016001600160401b038111838210176200038357604052565b51906001600160a01b03821682036200059457565b60005b838110620005e85750506000910152565b8181015183820152602001620005d7565b81601f82011215620005945780516001600160401b03811162000383576200062b601f8201601f191660200162000599565b928184526020828401011162000594576200064d9160208085019101620005d4565b90565b906020916200066b81518092818552858086019101620005d4565b601f01601f1916010190565b6000198114620006875760010190565b634e487b7160e01b600052601160045260246000fdfe61016080604052600436101561001457600080fd5b600060c05260003560e01c90816301e98bfa14613b585750806301ffc9a714613b0357806306fdde0314613a5d578063081812fc14613a3f578063095ea7b3146138fa57806309c3dd87146138655780630f485c02146131f857806318160ddd146131d85780631ba0c2801461311057806323b872dd14613075578063248a9ca314613044578063263f3e7e146130265780632f2ff15d14612f645780632f745c5914612eb7578063310ed7f014612bfe57806331b5b90714612b6457806336568abe14612ad25780633e7e866914612aaf57806342842e0e14612a8b5780634b6ddb0414612a4a5780634f6ccce7146129c65780635e3ac372146128895780636352211e1461285957806370a0823114612836578063715d5e27146127a7578063840f71131461277c5780638cb0a511146126db57806391d148541461268c57806395d89b41146125bf5780639cc7f708146125a15780639df892561461250c5780639e69e8a114612463578063a217fddf14612445578063a22cb46514612361578063aeaeb49014612122578063b819220514611cbc578063b88d4fde14611c62578063bb7fde7114611c16578063c672c93f14611be5578063c87b56dd1461196f578063c9b380f8146118a0578063cc2a059814610974578063d547741f1461092d578063db24ec6c14610661578063e0dfdfae14610401578063e345e0bc146103d3578063e8a3d485146102965763e985e9c51461023557600080fd5b346102905760403660031901126102905761024e613ce9565b610256613cff565b9060018060a01b0380911660c0515260076020526002604060c05120019116600052602052602060ff604060002054166040519015158152f35b60c05180fd5b346102905760c051806003193601126103d0576040516102b581613e07565b60c08051825260085490516001600160a01b039091169190821561034857505060405190631c97e82760e21b82528160048160c051935afa801561033b576103169160c0519161031a575b505b604051918291602083526020830190613d38565b0390f35b610335913d8091833e61032d8183613e22565b81019061454e565b82610300565b6040513d60c051823e3d90fd5b909150156103b757610316906103b260296103623061425f565b92604051938161037c869351809260208087019101613d15565b820168636f6e74726163742f60b81b60208201526103a38251809360208785019101613d15565b01036009810184520182613e22565b610302565b506103166040516103c781613e07565b60008152610302565b80fd5b346102905760403660031901126102905760206103f96103f1613cff565b600435614623565b604051908152f35b346102905760e03660031901126102905761041a613ce9565b6064356024356001600160a01b0380831683036105fc576084359260c4356001600160401b03811161029057610454903690600401613e95565b600a54604051637daa6b9160e11b81526001600160a01b03881660048201526024810186905260209790929188908490604490829089165afa93841561033b578588928a9560c05197610608575b5083926104f37f1b760f25764c3cd3acd41610bcb59c4d18589986a6f7cf409054ccf04468f8cb9561053194889416998a60c05152601a8a526104ed60ff604060c051205416614fe5565b14615031565b61052960105461052461050760115461508c565b61051f61051960a4359260443561509a565b846150b5565b6150ce565b61509a565b938491615158565b60408051828152602081019a909a5289019190915296606090a181815191012092600a541692602460405180958193633f0b1c4f60e01b835260048301525afa90811561033b5760c051916105d3575b600192506040519361059285613d9a565b4285528685019260c051845260c05152601b875260c0519160408320906000528752604060002091528552604060c051209251835551910155604051908152f35b90508482813d8311610601575b6105ea8183613e22565b810103126105fc576001915190610581565b600080fd5b503d6105e0565b9592935095505083813d831161065a575b6106238183613e22565b810103126105fc579151928792879186907f1b760f25764c3cd3acd41610bcb59c4d18589986a6f7cf409054ccf04468f8cb6104a2565b503d610619565b346102905760203660031901126102905760405161067e81613dd0565b60c051815260c05160208201526060604082015260608082015260c051608082015260c05160a0820152606060c0820152606060e08201526060610100820152606061012082015260c05161014082015261016060c05191015260043560c051526015602052604060c05120604051906106f782613dd0565b60018060a01b038154168252600181015460208301526002810160405190816020825491828152019160c0515260c0519060208220915b818110610917578660ff600a8888610748818a0382613e22565b6040850152610759600382016150f1565b606085015260048101546080850152600581015460a085015261077e60068201614397565b60c085015261078f60078201614397565b60e08501526107a060088201614397565b6101008501526107b260098201614397565b6101208501520154818116151561014084015260081c1615156101608201526040516020815260018060a01b0382511660208201526020820151604082015260408201519161018060608301526101a08201835180915260206101c0840194019060c0515b81811061090157505050606081015192601f198382030160808401526020808551928381520194019060c0515b8181106108eb575050506101606108d06108b86108a06108898697608087015160a089015260a087015160c089015260c0870151601f198983030160e08a0152613d38565b60e0860151878203601f1901610100890152613d38565b610100850151868203601f1901610120880152613d38565b610120840151858203601f1901610140870152613d38565b91610140810151151582850152015115156101808301520390f35b8251865260209586019590920191600101610844565b8251865260209586019590920191600101610817565b825484526020909301926001928301920161072e565b346102905760403660031901126102905761096e60043561094c613cff565b908060c0515260096020526109696001604060c051200154613f99565b61419f565b60c05180f35b34610290576101a03660031901126102905761098e613ce9565b610100526024356001600160401b038111610290576109b1903690600401613f19565b610120526044356001600160401b038111610290576109d4903690600401613f19565b60a0526064356001600160401b038111610290576109f6903690600401613f19565b60805260c4356001600160401b03811161029057610a18903690600401613e95565b60e4356001600160401b03811161029057610a37903690600401613e95565b610104356001600160401b03811161029057610a57903690600401613e95565b91610124356001600160401b03811161029057610a78903690600401613e95565b610144356001600160401b03811161029057610a98903690600401613e95565b9161016435151561016435036105fc57610184359182151583036105fc57610ac6601d5480610140526149df565b601d556101205151610ae6610ada82613f02565b6040518060e052613e22565b8060e05152610af7601f1991613f02565b0136602060e051013760c0515b61012051805160ff8316101561122657610b229060ff831690614fd1565b516020815191012060018060a01b03600a5416604051633f0b1c4f60e01b8152826004820152602081602481855afa90811561033b5760c051916111f4575b5061117b57803b15610290576040519063a4870fa960e01b82528260048301526101405160248301528160448160c05180945af1801561033b57611166575b5060c051610bb360ff8416608051614fd1565b51604051610bde60208281610bd18183019687815193849201613d15565b8101038084520182613e22565b519020604051636461746160e01b6020820152600481528060408101106001600160401b0360408301111761115057604081016040526020815191012014600014610ef8575060c0515b610c3860ff841661012051614fd1565b518260c05152601460205260c05160408120918051916001600160401b038311610e3e57508190610c69845461435d565b601f8111610ec4575b5060c0519084602092601f8511600114610e6057505060c05192610e55575b50508160011b916000199060031b1c19161790555b610cb560ff841660a051614fd1565b518260c05152601460205260c05160016040822001918051916001600160401b038311610e3e57508190610ce9845461435d565b601f8111610dff575b5060c0519084602092601f8511600114610d9557505060c05192610d8a575b50508160011b916000199060031b1c19161790555b8160c05152601460205260c0519060026040832001916007821015610d73575090610d6e93929160ff80198354169116179055610d6860ff831660e051614fd1565b52614fc0565b610b04565b634e487b7160e01b9052602160045260c051602490fd5b015190508c80610d11565b5260c0516020812090945091905b601f1984168510610de4576001945083601f19811610610dcb575b505050811b019055610d26565b015160001960f88460031b161c191690558c8080610dbe565b81810151835560209485019460019093019290910190610da3565b610e2e908560c05152602060c051206005601f8601811c82019260208710610e34575b601f01901c0190614dfe565b8d610cf2565b9192508291610e22565b634e487b7160e01b9052604160045260c051602490fd5b015190508c80610c91565b5260c0516020812093505b601f1985168110610eac575083601f19811610610e93575b505050600190811b019055610ca6565b015160001960f88460031b161c191690558b8080610e83565b91926020600181928685015181550194019201610e6b565b610ef2908560c05152602060c051206005601f8601811c82019260208710610e3457601f01901c0190614dfe565b8d610c72565b610f0760ff8416608051614fd1565b51604051610f2560208281610bd18183019687815193849201613d15565b5190209060405191602083016618dbdb9d195b9d60ca1b8152600793848152610f4d81613d9a565b51902003610f5f57505060015b610c28565b610f6e60ff8516608051614fd1565b51604051610f8c60208281610bd18183019687815193849201613d15565b51902090604051916020830164195d995b9d60da1b8152600593848152610fb281613d9a565b51902003610fc4575050506002610c28565b610fd360ff8616608051614fd1565b51604051610ff160208281610bd18183019687815193849201613d15565b5190209260405193602085016206170760ec1b815260039586815261101581613d9a565b5190200361102557505050610c28565b9091925061103860ff8616608051614fd1565b5160405161105660208281610bd18183019687815193849201613d15565b51902060405160208101906a6d65726368616e6469736560a81b8252600b815261107f81613d9a565b51902003611091575050506004610c28565b6110a060ff8616608051614fd1565b516040516110be60208281610bd18183019687815193849201613d15565b519020906040516020810191666372656469747360c81b835281526110e281613d9a565b519020036110f05750610c28565b9061110060ff8516608051614fd1565b5160405161111e60208281610bd18183019687815193849201613d15565b5190209060405160208101916437ba3432b960d91b8352815261114081613d9a565b51902003610f5a57506006610c28565b634e487b7160e01b600052604160045260246000fd5b61116f90613d87565b60c0518015610ba05780fd5b6040517f41737365742063616e206f6e6c7920626520696e206f6e65206f66666572696e6020820152606760f81b60408201526021815260608101908082106001600160401b0383111761115057604082905262461bcd60e51b825260206064820152605f19906111ef6084820182613d38565b030190fd5b90506020813d60201161121e575b8161120f60209383613e22565b810103126105fc57518a610b61565b3d9150611202565b50506101405160c0805191909152601560205251604081206101005181546001600160a01b0319166001600160a01b039190911617815560e051518892889260020191906001600160401b038211610e3e5750600160401b811161188857815481835580821061185c575b50602060e051019160c0515260c0519160208320835b838110611848575050505061014051905260156020526101405160c05190600160408320015560066040822001918051916001600160401b038311610e3e575081906112f3845461435d565b601f8111611814575b5060c0519084602092601f85116001146117aa57505060c0519261179f575b50508160011b916000199060031b1c19161790555b6101405160c05152601560205260c05160076040822001918051916001600160401b038311610e3e57508190611366845461435d565b601f811161176b575b5060c0519084602092601f851160011461170157505060c051926116f6575b50508160011b916000199060031b1c19161790555b6101405160c05152601560205260c05160086040822001918051916001600160401b038311610e3e575081906113d9845461435d565b601f81116116c2575b5060c0519084602092601f851160011461165857505060c0519261164d575b50508160011b916000199060031b1c19161790555b6101405160c05152601560205260c05160096040822001908451906001600160401b038211610e3e575061144a825461435d565b601f811161160e575b5060c051602090601f83116001146115a75750819293949560c0519261159c575b50508160011b916000199060031b1c19161790555b6101405160c05152601560205260a4359160c051908360056040842001556114c661016435600a60408520019060ff801983541691151516179055565b600a60408320019061ff00825491151560081b169061ff00191617905560843591826004604084200155602081519101209060018060a01b03600a541690813b156103d057506040519163a4870fa960e01b835260048301526101405160248301528160448160c05180945af1801561033b57611580575b506040805161014051815260208101939093528201527f996c7fcc3e774297a738500264c15cee3f322db81c70b91166215f1447f23ffc90606090a160c05180f35b61158990613d87565b60c0519182611598579161153e565b8280fd5b015190508580611474565b83905260c05160208120601f198416979092915b8881106115f6575083600195969798106115dd575b505050811b019055611489565b015160001960f88460031b161c191690558580806115d0565b919260206001819286850151815501940192016115bb565b61163d908360c05152602060c05120601f840160051c81019160208510611643575b601f0160051c0190614dfe565b85611453565b9091508190611630565b015190508680611401565b5260c0516020812090945091905b601f19841685106116a7576001945083601f1981161061168e575b505050811b019055611416565b015160001960f88460031b161c19169055868080611681565b81810151835560209485019460019093019290910190611666565b6116f0908560c05152602060c05120601f850160051c8101916020861061164357601f0160051c0190614dfe565b876113e2565b01519050878061138e565b5260c0516020812090945091905b601f1984168510611750576001945083601f19811610611737575b505050811b0190556113a3565b015160001960f88460031b161c1916905587808061172a565b8181015183556020948501946001909301929091019061170f565b611799908560c05152602060c05120601f850160051c8101916020861061164357601f0160051c0190614dfe565b8861136f565b01519050888061131b565b5260c0516020812090945091905b601f19841685106117f9576001945083601f198116106117e0575b505050811b019055611330565b015160001960f88460031b161c191690558880806117d3565b818101518355602094850194600190930192909101906117b8565b611842908560c05152602060c05120601f850160051c8101916020861061164357601f0160051c0190614dfe565b896112fc565b6001906020845194019381840155016112a7565b8260c05152602060c05120908282015b818301811061187c575050611291565b6000815560010161186c565b634e487b7160e01b60c051526041600452602460c051fd5b34610290576060366003190112610290576004356001600160401b038111610290576118d0903690600401613e95565b6044359060098210156102905760208151910120601e54906118f1826149df565b601e5561190a6040519361190485613db5565b84615cc1565b6020830192428452604081019360243585528360c05152601360205260c051604081209251906009821015610d7357509460029161096e9660ff801986541691161784555160018401555191015560c0515260146020526003604060c0512001614d64565b34610290576020806003193601126102905760043561199561199082614870565b6144a2565b6040516119a181613e07565b60c08051825260085490516001600160a01b03909116919084908315611a2157505050604051916344a5a61760e11b835260048301528160248160c051935afa90811561033b5760c05191611a08575b50905b610316604051928284938452830190613d38565b611a1b913d8091833e61032d8183613e22565b826119f1565b91939092509015611bcd57600090807a184f03e93ff9f4daa797ed6e38ed64bf6a1f0100000000000000008181811015611bbf575b5050836d04ee2d6d415b85acef810000000080831015611bb3575b5050662386f26fc1000080821015611ba6575b506305f5e10080821015611b99575b5061271080821015611b8c575b506064811015611b7e575b600a80911015611b74575b600180840192816021611ae1611acb87613e43565b96611ad96040519889613e22565b808852613e43565b8689019790601f1901368937860101905b611b3e575b5050505092611b389291611b2c946040519583611b1d8895518092888089019101613d15565b84019151809386840190613d15565b01038084520182613e22565b906119f4565b600019019083906f181899199a1a9b1b9c1cb0b131b232b360811b8282061a835304918215611b6f57919082611af2565b611af7565b9160010191611ab6565b606460029104920191611aab565b6004910492019186611aa0565b6008910492019186611a93565b6010910492019186611a84565b93019290048387611a71565b604094500490508680611a56565b505050604051611bdc81613e07565b60008152611b38565b346102905760203660031901126102905760043560c05152601560205260206003604060c051200154604051908152f35b3461029057608036600319011261029057611c2f613ce9565b6064356001600160401b03811161029057602091611c546103f9923690600401613e95565b906044359060243590615158565b608036600319011261029057611c76613ce9565b611c7e613cff565b606435916001600160401b038311610290573660238401121561029057611cb261096e933690602481600401359101613e5e565b9160443591614734565b3461029057611cca36613ee8565b9190611cd5826144ee565b6001600160a01b039033908216036120dd578160c051526019602052604060c0512033600052602052604060002054841161208957601c54600e5460405163095ea7b360e01b81529083166001600160a01b03166004820152602481018690529060209082908416818060448101039160c051905af1801561033b57611d9b92602092879261206c575b5080601c541690600e541660405180958194829363a9059cbb60e01b84526004840160209093929193604081019460018060a01b031681520152565b039160c051905af1801561033b5761203d575b5060c051526019602052604060c05120336000526020526040600020611dd5838254614df1565b90558060c051526016602052611df1604060c0512054836145ac565b60c051928184035b8360c05152601660205260c051604081205460ff87161015611f7a57856040611e2292206147e7565b92905494600160ff1b8514611f625760c08051600386901b88901c90526015602052516040902060040180549590611e5a8588615863565b905560c0515b878660031b1c60c05152601560205260c051600360408220015460ff83161015611f475790611e988160036040611f429520016147e7565b90549060031b1c8060c0515260188060205260c05160408120908c8b60031b1c9052602052611eef611ed08b604060c05120546150ce565b8c8b60031b1c60c0515260156020526004604060c0512001549061509a565b918060c05152601760205260c05160408120908d8c60031b1c905260205260c05160408120600160ff198254161790555260205260c05160408120908b8a60031b1c9052602052604060c0512055614fc0565b611e60565b5050955095909250611f5a919350614fc0565b939291611df9565b634e487b7160e01b60c051526011600452602460c051fd5b8483611f8881600c54614df1565b600c55611f9761199083614870565b8160c0515260066020526002611fb2604060c051205461443d565b500191825492828410611fec57611fcb83602095614df1565b9055604051918252600080516020615ce483398151915260c051938493a380f35b60405162461bcd60e51b815260206004820152602360248201527f455243333532353a206275726e2076616c756520657863656564732062616c616044820152626e636560e81b6064820152608490fd5b61205e9060203d602011612065575b6120568183613e22565b810190615140565b5083611dae565b503d61204c565b61208290843d8611612065576120568183613e22565b5087611d5f565b60405162461bcd60e51b815260206004820152602660248201527f496e73756666696369656e7420617070726f76616c20746f2072656465656d20604482015265185b5bdd5b9d60d21b6064820152608490fd5b60405162461bcd60e51b815260206004820152601960248201527f53656e646572206973206e6f7420617574686f72697a65642e000000000000006044820152606490fd5b3461029057602080600319360112610290576001600160401b0360043581811161029057612154903690600401613e95565b82815191012060c0515260148252604060c0512090604051906080820190828210908211176111505760405261218982614397565b8152600190612199828401614397565b8482015260ff6002938185820154166007811015612281576040840152929493926121c6906003016150f1565b9260608093019380855251936121db85613f02565b946121e96040519687613e22565b8086526121f8601f1991613f02565b0160c0515b81811061232c57505060c051875b612299575b50505050604051938385948501908086528451809252806040870195019360c051905b8382106122405787870388f35b91939590929480975051805190600982101561228157826040859288948b965284810151858401520151604082015201970192018796959391949294612233565b634e487b7160e01b60c051526021600452602460c051fd5b90879596979392918151908151918582169283101561232057826122c36123149461230e93614fd1565b5160c0515260138c528b86604060c05120604051926122e184613db5565b6122ee8b83541685615cc1565b8b8201549084015201546040820152612307828d614fd1565b528a614fd1565b50614fc0565b9091929397969561220b565b50505096959496612210565b968098969760405161233d81613db5565b60c051815260c0518382015260c051604082015282828b01015201979695976121fd565b346102905760403660031901126102905761237a613ce9565b60243590811515908183036105fc576001600160a01b031691338314612400576123ce903360c0515260076020526002604060c05120018460005260205260406000209060ff801983541691151516179055565b6040519081527f17307eab39ab6107e8899845ad3d59bd9653f200f220920489ca2b5937696c3160203392a360c05180f35b60405162461bcd60e51b815260206004820152601a60248201527f455243333532353a20617070726f766520746f2063616c6c65720000000000006044820152606490fd5b346102905760c051806003193601126103d057602090604051908152f35b3461029057602080600319360112610290576004356001600160401b03811161029057612494903690600401613e95565b805190820120600a54604051633f0b1c4f60e01b815260048101929092528290829060249082906001600160a01b03165afa90811561033b5760c051916124df575b50604051908152f35b90508181813d8311612505575b6124f68183613e22565b810103126105fc5751826124d6565b503d6124ec565b3461029057604036600319011261029057612525613ce9565b602435908160c05152601560205260018060a01b0380604060c051205416156125675760209260c051526015835280604060c051205416906040519216148152f35b60405162461bcd60e51b815260206004820152601260248201527113d999995c9a5b99c81b9bdd08199bdd5b9960721b6044820152606490fd5b346102905760203660031901126102905760206103f9600435614478565b346102905760c051806003193601126103d057604051600060018054906125e58261435d565b80855291818116908115612665575060011461260c575b6103168461030281860382613e22565b600081815292507fb10e2d527612073b26eecdfd717e6a320cf44b4afac2b0732d9fcbe2b7fa0cf65b82841061264d575050508101602001610302826125fc565b80546020858701810191909152909301928101612635565b60ff191660208087019190915292151560051b8501909201925061030291508390506125fc565b34610290576040366003190112610290576126a5613cff565b60043560c051526009602052604060c051209060018060a01b0316600052602052602060ff604060002054166040519015158152f35b6126e436613d5d565b906127056001600160a01b03806126fa866144ee565b1690831614156145cc565b61270f83336147ff565b1561271d5761096e9261489e565b60405162461bcd60e51b815260206004820152603160248201527f455243333532353a20617070726f76652063616c6c6572206973206e6f74206f6044820152701ddb995c881b9bdc88185c1c1c9bdd9959607a1b6064820152608490fd5b346102905760c051806003193601126103d0576008546040516001600160a01b039091168152602090f35b34610290576127b536613d5d565b909160c05152601b60205260c05191604083209060018060a01b031660005260205260406000209152602052602080604060c051206040516127f681613d9a565b600182549283835201549283910152421115908161281a575b506040519015158152f35b80159150811561282c575b508261280f565b9050421182612825565b346102905760203660031901126102905760206103f9612854613ce9565b614654565b346102905760203660031901126102905760206128776004356144ee565b6040516001600160a01b039091168152f35b346102905760e0366003190112610290576128a2613ce9565b6084356001600160401b038111610290576128c1903690600401613e95565b9060018060a01b038091168060c0515260208093601a82526128eb60ff604060c051205416614fe5565b81815191012092600a541692602460405180958193633f0b1c4f60e01b835260048301525afa91821561033b5760c05192612997575b508160c05152601583526129416005604060c05120015460443514615031565b6040519061294e82613d9a565b4282528382019260c435845260c05152601b845260c051906040822090600052845260406000209060243590528352600160c05192604084209251835551910155604051908152f35b9091508281813d83116129bf575b6129af8183613e22565b810103126105fc57519083612921565b503d6129a5565b34610290576020366003190112610290576004356005548110156129f9576129ef60209161443d565b5054604051908152f35b60405162461bcd60e51b815260206004820152602360248201527f455243333532353a20676c6f62616c20696e646578206f7574206f6620626f756044820152626e647360e81b6064820152608490fd5b34610290576020366003190112610290576001600160a01b03612a6b613ce9565b1660c05152601a602052602060ff604060c0512054166040519015158152f35b61096e612a9736613eb3565b9060405192612aa584613e07565b60c0518452614734565b346102905760c051806003193601126103d057602060ff60025416604051908152f35b3461029057604036600319011261029057612aeb613cff565b336001600160a01b03821603612b075761096e9060043561419f565b60405162461bcd60e51b815260206004820152602f60248201527f416363657373436f6e74726f6c3a2063616e206f6e6c792072656e6f756e636560448201526e103937b632b9903337b91039b2b63360891b6064820152608490fd5b34610290576020366003190112610290576004356001600160401b03811161029057612b94903690600401613e95565b6008546001600160a01b031690813b156102905760405180926355f804b360e01b8252602060048301528180612bd160c051956024830190613d38565b039160c051905af1801561033b57612be95760c05180f35b612bf290613d87565b60c051801561096e5780fd5b612c0736613ee8565b9091612c128161452a565b90612c1e83823361587f565b612c29838583615919565b612c32816144ee565b612c3b856144ee565b908360c0515260209360198552604060c0512060018060a01b0380931660005285526040600020612c6d878254614df1565b905560c0515260198452604060c05120911660005282526040600020612c94848254614215565b90558060c05152601692838352612cb1604060c05120548261509a565b5060c05194855b8360c0515285855260c051604081205460ff89161015612d1157612d0b91612ce6896040612d0594206147e7565b90549060031b1c60c05152601587526004604060c05120015490615863565b96614fc0565b95612cb8565b508590858560c0515b8160c0515284835260c05190604082205460ff90818316101561096e578585888a612da78d95612dc8612db0612d568a6040612e619d206147e7565b949054600395861b1c988960c05152612da1612d9b612d8460159d8e8d526004604060c051200154906150ce565b9261052460115494612d958661508c565b906150ce565b9161508c565b9061509a565b601054906150ce565b8760c051528887526004604060c0512001549061509a565b968a60c05152838b60188881809a5260c0518b6040822091528152612df38c604060c05120546150b5565b9260c05152528d60c051908a6040832092525260c051906040822055526017808d5260c051886040822091528d5260c0519260408420541615612e66575b50505050905060c05152865260c051906040822091528552612e5a604060c05120918254615863565b9055614fc0565b612d1a565b612eac9585604094528d52612e7f888460c05120614d64565b8460c051528c5260c0518783822091528c5260c05190828220600160ff198254161790558c522001614d64565b888a8d808080612e31565b3461029057604036600319011261029057612ed0613ce9565b60243590612edd81614654565b821015612f1457602091612f069160018060a01b031660c0515260078352604060c051206147e7565b90546040519160031b1c8152f35b60405162461bcd60e51b815260206004820152602260248201527f455243333532353a206f776e657220696e646578206f7574206f6620626f756e604482015261647360f01b6064820152608490fd5b3461029057604036600319011261029057600435612f80613cff565b8160c051526009602052612f9c6001604060c051200154613f99565b8160c05152600960205260c051604081209160018060a01b0316918260005260205260ff6040600020541615612fd25760c05180f35b829052600960205260c0519160408320826000526020526040600020600160ff198254161790557f2f8788117e7eff1d82e926ec794901d17c78024a50270940304540a733656f0d339380a480808061096e565b346102905760203660031901126102905760206103f960043561452a565b346102905760203660031901126102905760043560c05152600960205260206001604060c051200154604051908152f35b61307e36613eb3565b9161309161308c84336147ff565b6146cd565b61309c838383614a7f565b6130ae6130a88461452a565b93614478565b928060c051526019602052604060c0512060018060a01b0380931660005260205260406000206130df858254614df1565b905560c051526019602052604060c0512091166000526020526131086040600020918254614215565b905560c05180f35b34610290576040366003190112610290576004356001600160401b03811161029057613140903690600401613e95565b8051602091820120600a54604051633f0b1c4f60e01b815260048101929092528290829060249082906001600160a01b03165afa90811561033b5760c051916131ab575b5060243560c051526018825260c051906040822091528152604060c0512054604051908152f35b90508181813d83116131d1575b6131c28183613e22565b810103126105fc575182613184565b503d6131b8565b346102905760c051806003193601126103d0576020600554604051908152f35b61320136613d5d565b8260c093929351526016602052604060c0512054156138285780151580613806575b604051907f56616c7565206c657373207468616e206d696e696d756d00000000000000000060208301526017825261325a82613d9a565b156137de57506132698261452a565b8060c05152601960205260c0516040812090339052602052604060c05120613292838254614df1565b90558060c05152601960205260c051604081209060018060a01b0386169052602052604060c051206132c5838254614215565b90556132d282843361587f565b600354936132df856149df565b6003556132eb8461452a565b6001600160a01b0382161561378f5785156137405761330986614870565b6136fb5760405161331981613e07565b60c05181526040519061332b82613dec565b87825282602083015260c051604083015260018060a01b038416606083015260c051608083015260a08201526005548760c05152600660205260c051816040822055600160401b821015610e3e575080600161338a920160055561443d565b9190916136e45780518255602081015160018301556040810151600283015560608101516003830180546001600160a01b039283166001600160a01b031991821617909155608083015160048501805491909316911617905560a001518051916001600160401b0383116118885790602060058a96959493019161340e8484614e15565b019060c0515260c05160208120905b8381106136c457505050506134328383614d8a565b60c0519183906001600160a01b0316837fddf252ad1be2c89b69c2b068fc378daa952ba7f163c4a11628f55a4df523b3ef8180a481837fe4f48c240d3b994948aa54f3e2f5fca59263dfe1d52b6e4cf39a5d249b5ccb658280a45260066020526134a1604060c051205461443d565b50508360405160c0518152600080516020615ce4833981519152602060c05192a36134cd828585615919565b600b546001600160a01b0316803b156102905760405191638e9eeaef60e01b835260048301528460248301528160448160c05180945af1801561033b576136b5575b5060c05192835b8360c05152601660205260c051604081205460ff871610156135725761356c9161354687604061356694206147e7565b90549060031b1c60c0515260156020526004604060c05120015490615863565b94614fc0565b93613516565b5090935060c0515b8360c05152601660205260c051604081205460ff831610156136aa57906136a08660036040876135af86836136a599206147e7565b905490841b1c8060c05152846135fc6135e4612da78c612da1612d9b612d846015998a60205260048c60c051200154906150ce565b8360c051528460205260048660c0512001549061509a565b8c60c0515261363d6018918260205260c05185888220915260205260c051848882205491528360205260c051868982209152602052818860c05120556150b5565b908d60c0515260205260c05183868220915260205260c051908582205552601660205261366e818460c05120614d64565b8460c05152601760205260c05190838220915260205260c05190828220600160ff198254161790556020522001614d64565b614fc0565b61357a565b602086604051908152f35b6136be90613d87565b8361350f565b82516001600160a01b0316818301558a965060209092019160010161341d565b634e487b7160e01b60c05152602460c05180600452fd5b60405162461bcd60e51b815260206004820152601d60248201527f455243333532353a20746f6b656e20616c7265616479206d696e7465640000006044820152606490fd5b60405162461bcd60e51b815260206004820152602160248201527f455243333532353a2063616e6e6f74206d696e74207a65726f20746f6b656e496044820152601960fa1b6064820152608490fd5b60405162461bcd60e51b815260206004820152602160248201527f455243333532353a206d696e7420746f20746865207a65726f206164647265736044820152607360f81b6064820152608490fd5b60405162461bcd60e51b815260206004820152908190613802906024830190613d38565b0390fd5b508160c051526016602052613821604060c0512054826145ac565b1515613223565b60405162461bcd60e51b8152602060048201526015602482015274546f6b656e20686173206e6f206f66666572696e6760581b6044820152606490fd5b346102905760203660031901126102905760405161388281613e07565b60c05190526008546001600160a01b031680156138e05760405190633601bfc560e11b825260043560048301528160248160c051935afa801561033b576103169160c0519161031a5750604051918291602083526020830190613d38565b506103166040516138f081613e07565b60c0518152610302565b60403660031901126102905761390e613ce9565b6024356001600160a01b038080613924846144ee565b16931692613934818514156145cc565b803314908115613a13575b50156139a8578160c0515260066020526004613960604060c051205461443d565b500180546001600160a01b0319168417905561397b826144ee565b169160c051927f8c5be1e5ebec7d5bd14f71427d1e84f3dd0314c0f7b2291e5b200ac8c7c3b9258480a480f35b60405162461bcd60e51b815260206004820152603960248201527f455243333532353a20617070726f76652063616c6c6572206973206e6f74206f60448201527f776e6572206e6f7220617070726f76656420666f7220616c6c000000000000006064820152608490fd5b905060c05152600760205260c051600260408220019033905260205260ff604060c0512054168461393f565b346102905760203660031901126102905760206128776004356147b4565b346102905760c051806003193601126103d057604051908054613a7f8161435d565b808452906001908181169081156126655750600114613aa8576103168461030281860382613e22565b60c0805180525192507f290decd9548b62a8d60345a988386fc84ba6bc95484008f6362f93160ef3e5635b828410613aeb575050508101602001610302826125fc565b80546020858701810191909152909301928101613ad3565b346102905760203660031901126102905760043563ffffffff60e01b811680910361029057602090637965db0b60e01b8114908115613b4757506040519015158152f35b6301ffc9a760e01b1490508261280f565b346105fc576020806003193601126105fc576001600160a01b039182613b7c613ce9565b632c663f1560e21b835216928282600481875afa91821561033b5760c05192613cb1575b5080600d5416911603613c6d57604051633e7e866960e01b81528181600481865afa90811561033b5760c05191613c36575b5060ff8060025416911603613bfe57601a9160c051525260c05160408120600160ff1982541617905580f35b6064906040519062461bcd60e51b825260048201526011602482015270088cac6d2dac2d8e640dad2e6dac2e8c6d607b1b6044820152fd5b90508181813d8311613c66575b613c4d8183613e22565b81010312610290575160ff811681036102905783613bd2565b503d613c43565b6064906040519062461bcd60e51b82526004820152601760248201527f56616c756520636f6e7472616374206d69736d617463680000000000000000006044820152fd5b9091508281813d8311613ce2575b613cc98183613e22565b8101031261029057518181168103610290579084613ba0565b503d613cbf565b600435906001600160a01b03821682036105fc57565b602435906001600160a01b03821682036105fc57565b60005b838110613d285750506000910152565b8181015183820152602001613d18565b90602091613d5181518092818552858086019101613d15565b601f01601f1916010190565b60609060031901126105fc57600435906024356001600160a01b03811681036105fc579060443590565b6001600160401b03811161115057604052565b604081019081106001600160401b0382111761115057604052565b606081019081106001600160401b0382111761115057604052565b61018081019081106001600160401b0382111761115057604052565b60c081019081106001600160401b0382111761115057604052565b602081019081106001600160401b0382111761115057604052565b90601f801991011681019081106001600160401b0382111761115057604052565b6001600160401b03811161115057601f01601f191660200190565b929192613e6a82613e43565b91613e786040519384613e22565b8294818452818301116105fc578281602093846000960137010152565b9080601f830112156105fc57816020613eb093359101613e5e565b90565b60609060031901126105fc576001600160a01b039060043582811681036105fc579160243590811681036105fc579060443590565b60609060031901126105fc57600435906024359060443590565b6001600160401b0381116111505760051b60200190565b9080601f830112156105fc57813590613f3182613f02565b92613f3f6040519485613e22565b828452602092838086019160051b830101928084116105fc57848301915b848310613f6d5750505050505090565b82356001600160401b0381116105fc578691613f8e84848094890101613e95565b815201920191613f5d565b60009080825260209060098252604092838120338252835260ff848220541615613fc35750505050565b613fcc3361425f565b91845190608082018281106001600160401b0382111761418b5786526042825284820192606036853782511561417757603084538251906001918210156141775790607860218501536041915b818311614109575050506140c75760486138029386936140ab9361409c98519889937f416363657373436f6e74726f6c3a206163636f756e74200000000000000000008a860152614073815180928c603789019101613d15565b8401917001034b99036b4b9b9b4b733903937b6329607d1b603784015251809386840190613d15565b01036028810187520185613e22565b5192839262461bcd60e51b845260048401526024830190613d38565b60648486519062461bcd60e51b825280600483015260248201527f537472696e67733a20686578206c656e67746820696e73756666696369656e746044820152fd5b909192600f81166010811015614163576f181899199a1a9b1b9c1cb0b131b232b360811b901a6141398587614238565b5360041c92801561414f57600019019190614019565b634e487b7160e01b82526011600452602482fd5b634e487b7160e01b83526032600452602483fd5b634e487b7160e01b81526032600452602490fd5b634e487b7160e01b84526041600452602484fd5b906000918083526009602052604083209160018060a01b03169182845260205260ff6040842054166141d057505050565b8083526009602052604083208284526020526040832060ff1981541690557ff6391f5c32d9c69d2a47ea670b442974b53935d1edc7fd64eb21e047a839171b339380a4565b9190820180921161422257565b634e487b7160e01b600052601160045260246000fd5b908151811015614249570160200190565b634e487b7160e01b600052603260045260246000fd5b6040519061426c82613db5565b602a82526020820160403682378251156142495760309053815160019081101561424957607860218401536029905b8082116142ef5750506142ab5790565b606460405162461bcd60e51b815260206004820152602060248201527f537472696e67733a20686578206c656e67746820696e73756666696369656e746044820152fd5b9091600f81166010811015614348576f181899199a1a9b1b9c1cb0b131b232b360811b901a61431e8486614238565b5360041c91801561433357600019019061429b565b60246000634e487b7160e01b81526011600452fd5b60246000634e487b7160e01b81526032600452fd5b90600182811c9216801561438d575b602083101461437757565b634e487b7160e01b600052602260045260246000fd5b91607f169161436c565b90604051918260008254926143ab8461435d565b90818452600194858116908160001461441a57506001146143d7575b50506143d592500383613e22565b565b9093915060005260209081600020936000915b8183106144025750506143d5935082010138806143c7565b855488840185015294850194879450918301916143ea565b9150506143d594506020925060ff191682840152151560051b82010138806143c7565b600554811015614249576006906005600052027f036b6384b5eca791c62761152d0c79bb0604c104a5fb6f4eb0703f3154bb3db00190600090565b61448461199082614870565b6000526006602052600261449c60406000205461443d565b50015490565b156144a957565b60405162461bcd60e51b815260206004820152601960248201527f455243333532353a20696e76616c696420746f6b656e204944000000000000006044820152606490fd5b6144fa61199082614870565b600052600660205261451060406000205461443d565b50600301546001600160a01b0316906143d58215156144a2565b61453661199082614870565b6000526006602052600161449c60406000205461443d565b6020818303126105fc578051906001600160401b0382116105fc570181601f820112156105fc57805161458081613e43565b9261458e6040519485613e22565b818452602082840101116105fc57613eb09160208085019101613d15565b81156145b6570490565b634e487b7160e01b600052601260045260246000fd5b156145d357565b60405162461bcd60e51b815260206004820152602260248201527f455243333532353a20617070726f76616c20746f2063757272656e74206f776e60448201526132b960f11b6064820152608490fd5b61462f61199082614870565b600052600460205260406000209060018060a01b031660005260205260406000205490565b6001600160a01b0316801561467457600052600760205260406000205490565b60405162461bcd60e51b815260206004820152602b60248201527f455243333532353a2062616c616e636520717565727920666f7220746865207a60448201526a65726f206164647265737360a81b6064820152608490fd5b156146d457565b60405162461bcd60e51b815260206004820152603260248201527f455243333532353a207472616e736665722063616c6c6572206973206e6f74206044820152711bdddb995c881b9bdc88185c1c1c9bdd995960721b6064820152608490fd5b9061475893929161474861308c84336147ff565b614753838383614a7f565b614e99565b1561475f57565b60405162461bcd60e51b815260206004820152602760248201527f455243333532353a207472616e7366657220746f206e6f6e204552433732315260448201526632b1b2b4bb32b960c91b6064820152608490fd5b6147c061199082614870565b60005260066020526147d660406000205461443d565b50600401546001600160a01b031690565b80548210156142495760005260206000200190600090565b906001600160a01b038080614813846144ee565b16931691838314938415614846575b508315614830575b50505090565b61483c919293506147b4565b161438808061482a565b909350600052600760205260026040600020018260005260205260ff604060002054169238614822565b6005541515908161487f575090565b809150600052600660205261489860406000205461443d565b50541490565b6001600160a01b03808316939192841561498757836148bc916149ee565b1561490a575b5060207f621b050de0ad08b51d19b48b3e6df75348c4de6bdd93e81b252ca62e28265b1b918360005260048252604060002085600052825280604060002055604051908152a3565b90826000526006602052600561492460406000205461443d565b500190815492600160401b841015611150578561496a8560209560017f621b050de0ad08b51d19b48b3e6df75348c4de6bdd93e81b252ca62e28265b1b980181556147e7565b909283549160031b90811b9283911b1691191617905591506148c2565b60405162461bcd60e51b815260206004820152602a60248201527f455243333532353a20617070726f76652076616c756520746f20746865207a65604482015269726f206164647265737360b01b6064820152608490fd5b60001981146142225760010190565b6000908282526006602090808252604090614a0b8286205461443d565b509260058094015496865b888110614a295750505050505050905090565b818852838352614a478187614a40888c205461443d565b50016147e7565b905460039190911b1c6001600160a01b0390811690881614614a7157614a6c906149df565b614a16565b505050505050505050600190565b614a88836144ee565b6001600160a01b0391821691908116829003614d1357808316928315614cc057614ab18561452a565b50614abb85614478565b5060009185835260209060068252604090614ad88286205461443d565b50600490810180546001600160a01b03199081169091559091898782614afd836144ee565b167f8c5be1e5ebec7d5bd14f71427d1e84f3dd0314c0f7b2291e5b200ac8c7c3b9258280a4898752600685526005614b378589205461443d565b500180549091858988818f5b868410614c895750505050505050805487825580614c70575b5050888652600684526003614b738488205461443d565b5001908154169055858552600783528185209182549360001994858101908111614c5d5790614ba4889392866147e7565b90549060031b1c9060018601908c8552818152838520549280614be3614bca868b6147e7565b819391549060031b600019811b9283911b169119161790565b9055855252818320558982528120558154908115614c4a575092828892614c46947fddf252ad1be2c89b69c2b068fc378daa952ba7f163c4a11628f55a4df523b3ef97960191614c3383836147e7565b909182549160031b1b1916905555614d8a565b80a4565b634e487b7160e01b865260319052602485fd5b634e487b7160e01b885260118452602488fd5b614c8291885285882090810190614dfe565b3880614b5c565b614cb69486928b614c9a878c6147e7565b96905494835252209260031b1c168c5289528a888120556149df565b8690888b8f614b43565b60405162461bcd60e51b815260206004820152602560248201527f455243333532353a207472616e7366657220746f20746865207a65726f206164604482015264647265737360d81b6064820152608490fd5b60405162461bcd60e51b8152602060048201526024808201527f455243333532353a207472616e736665722066726f6d20696e76616c6964206f6044820152633bb732b960e11b6064820152608490fd5b805490600160401b8210156111505781614bca916001614d86940181556147e7565b9055565b9060406143d59260009083825260066020526003614daa8484205461443d565b500180546001600160a01b0319166001600160a01b039092169182179055808252600760208181528484208054878652600191909101825285852055918352905220614d64565b9190820391821161422257565b818110614e09575050565b60008155600101614dfe565b90600160401b811161115057815490808355818110614e3357505050565b6143d59260005260206000209182019101614dfe565b908160209103126105fc57516001600160e01b0319811681036105fc5790565b3d15614e94573d90614e7a82613e43565b91614e886040519384613e22565b82523d6000602084013e565b606090565b9192813b63ffffffff1615614fb757602091614ef1916000604051958680958194630a85bd0160e11b9a8b845233600485015260018060a01b0380951660248501526044840152608060648401526084830190613d38565b0393165af160009181614f87575b50614f7957614f0c614e69565b80519081614f745760405162461bcd60e51b815260206004820152603260248201527f4552433732313a207472616e7366657220746f206e6f6e20455243373231526560448201527131b2b4bb32b91034b6b83632b6b2b73a32b960711b6064820152608490fd5b602001fd5b6001600160e01b0319161490565b614fa991925060203d8111614fb0575b614fa18183613e22565b810190614e49565b9038614eff565b503d614f97565b50505050600190565b60ff1660ff81146142225760010190565b80518210156142495760209160051b010190565b15614fec57565b60405162461bcd60e51b815260206004820152601c60248201527f43726564697420636f6e7472616374206e6f7420617070726f766564000000006044820152606490fd5b1561503857565b60405162461bcd60e51b815260206004820152602660248201527f63726564697473206e6f7420617070726f76656420666f722074686973206f66604482015265666572696e6760d01b6064820152608490fd5b604d811161422257600a0a90565b81156145b657600160ff1b8114600019831416614222570590565b8181039291600013801582851316918412161761422257565b818102929160008212600160ff1b82141661422257818405149015171561422257565b9060405191828154918282526020928383019160005283600020936000905b828210615126575050506143d592500383613e22565b855484526001958601958895509381019390910190615110565b908160209103126105fc575180151581036105fc5790565b91909392938451602086012092600a549560009660018060a01b031660405195633f0b1c4f60e01b87526004870152602086602481845afa95861561581f57889661582a575b506020608491604051928380926309de907160e11b825260406004830152600960448301526826a5aa2fa0a226a4a760b91b60648301523360248301525afa90811561581f578891615800575b5080156157ea575b80156157cc575b15615787576003549461520c866149df565b6003556001600160a01b0383161561378f5785156137405761522d86614870565b6136fb5760405161523d81613e07565b8881526040519061524d82613dec565b87825260208201868152604083018b8152606084019060018060a01b038816825260808501928d845260a086019485528d8c6040600554928392815260066020522055600160401b811015615773578060016152ac920160055561443d565b96909661575f57518655516001860155516002850155516003840180546001600160a01b03199081166001600160a01b039384161790915591516004850180549093169116179055518051916001600160401b03831161574b57600560209101916153178484614e15565b01908a5260208a208a5b83811061572e57505050506153368684614d8a565b856001600160a01b038416897fddf252ad1be2c89b69c2b068fc378daa952ba7f163c4a11628f55a4df523b3ef8180a48388877fe4f48c240d3b994948aa54f3e2f5fca59263dfe1d52b6e4cf39a5d249b5ccb658280a4858852600660205260026153a460408a205461443d565b50016153b1868254614215565b90558588600080516020615ce48339815191526020604051898152a36010549080895260156020526153e987600360408c2001614d64565b86895260166020526153fe8160408b20614d64565b868952601760205260408920818a5260205260408920600160ff1982541617905586895260186020526040892090895260205260408820556015602052600760408820016008604089200161546561545f61545f600960408d200194614397565b92614397565b928960018060a01b036008541691823b156156a3576154a9928a83604051809681958294632108947560e21b84526004840152604060248401526044830190613d38565b03925af180156157235761570c575b5060085489939291906001600160a01b0316803b15615708576155029185918a8360405180968195829463246a908b60e01b84526004840152604060248401526044830190613d38565b03925af19081156156fd5784916156e9575b50506008546001600160a01b0316803b156156e55761555a9184918983604051809681958294630190503b60e61b84526004840152604060248401526044830190613d38565b03925af19081156156da5783916156c6575b50506008546001600160a01b0316803b15611598576155b38392918392604051948580948193637e468a5160e01b83528d6004840152604060248401526044830190613d38565b03925af180156156bb576156a7575b50600b546001600160a01b0316803b156156a3578190604460405180948193638e9eeaef60e01b83528860048401528a60248401525af1801561569857615680575b5060407fd1366f3f7ed30bafca8767d407a9553668f0d7ea19bc30557cdbec04a31d305394959661563785600c54614215565b600c558381526019602052209060018060a01b03166000526020526040600020615662838254614215565b9055604080518581526020810192909252810191909152606090a190565b61568a8791613d87565b6156945738615604565b8580fd5b6040513d89823e3d90fd5b5080fd5b6156b090613d87565b6156945785386155c2565b6040513d84823e3d90fd5b6156cf90613d87565b6156a357813861556c565b6040513d85823e3d90fd5b8380fd5b6156f290613d87565b611598578238615514565b6040513d86823e3d90fd5b8480fd5b61571a909991939299613d87565b979091386154b8565b6040513d8c823e3d90fd5b82516001600160a01b031681830155602090920191600101615321565b634e487b7160e01b8b52604160045260248bfd5b634e487b7160e01b8f5260048f905260248ffd5b634e487b7160e01b8f52604160045260248ffd5b60405162461bcd60e51b815260206004820152601d60248201527f53656e646572206e6f7420617574686f72697a656420746f206d696e740000006044820152606490fd5b50848752601560205260408720546001600160a01b031633146151fa565b50338752601a60205260ff6040882054166151f3565b615819915060203d602011612065576120568183613e22565b386151eb565b6040513d8a823e3d90fd5b9095506020813d60201161585b575b8161584660209383613e22565b81010312615857575194602061519e565b8780fd5b3d9150615839565b9190916000838201938412911290801582169115161761422257565b6158898183614623565b61589383836147ff565b158061590d575b6158a5575b50505050565b8381106158c8576158bf936158b991614df1565b9161489e565b3880808061589f565b60405162461bcd60e51b815260206004820152601f60248201527f455243333532353a20696e73756666696369656e7420616c6c6f77616e6365006044820152606490fd5b5060001981141561589a565b61592281614870565b15615b3d5761593082614870565b15615aea578060005260209260068452604092615950846000205461443d565b508160005260068652615966856000205461443d565b50906002810190815490858210615a935760010154600184015403615a385791600291615999866159d698979695614df1565b9055016159a7838254614215565b90558083600080516020615ce4833981519152888851868152a38451926159cd84613e07565b60008452615b92565b156159df575050565b60849250519062461bcd60e51b82526004820152602d60248201527f455243333532353a207472616e736665722072656a656374656420627920455260448201526c21999a991aa932b1b2b4bb32b960991b6064820152fd5b865162461bcd60e51b815260048101899052602e60248201527f455243333532353a207472616e7366657220746f20746f6b656e20776974682060448201526d191a5999995c995b9d081cdb1bdd60921b6064820152608490fd5b875162461bcd60e51b8152600481018a9052602a60248201527f455243333532353a20696e73756666696369656e742062616c616e636520666f60448201526939103a3930b739b332b960b11b6064820152608490fd5b60405162461bcd60e51b815260206004820152602560248201527f455243333532353a207472616e7366657220746f20696e76616c696420746f6b604482015264195b88125160da1b6064820152608490fd5b60405162461bcd60e51b815260206004820152602760248201527f455243333532353a207472616e736665722066726f6d20696e76616c696420746044820152661bdad95b88125160ca1b6064820152608490fd5b929092615b9e846144ee565b803b63ffffffff1615615cb7576040516301ffc9a760e01b8152629ce20b60e01b6004820181905295602095926001600160a01b0316918681602481865afa60009181615c98575b50615c01575050505050505050615bfb614e69565b50600190565b15615c8c5760008694615c40604051978896879586948d865233600487015260248601526044850152606484015260a0608484015260a4830190613d38565b03925af1918215615c8057600092615c63575b50506001600160e01b0319161490565b615c799250803d10614fb057614fa18183613e22565b3880615c53565b6040513d6000823e3d90fd5b50505050505050600190565b615cb0919250883d8a11612065576120568183613e22565b9038615be6565b5050505050600190565b6009821015615ccd5752565b634e487b7160e01b600052602160045260246000fdfe0b2aac84f3ec956911fd78eae5311062972ff949f38412e8da39069d9f068cc6a2646970667358221220e3d3c7bc99b1db374668eeb1da3d76de0d9746d62464174371983dbb8370337e64736f6c634300081100336080604052346200048657620020c5803803806200001d816200048b565b9283398101608082820312620004865781516001600160401b0391908281116200048657816200004f918501620004b1565b91602092838501518281116200048657836200006d918701620004b1565b92604086015183811162000486576060916200008b918801620004b1565b9501516001600160a01b03811695908690036200048657815193838511620002c3576001948554938685811c951680156200047b575b88861014620002a2578190601f9586811162000425575b508890868311600114620003bd57600092620003b1575b5050600019600383901b1c191690861b1785555b805190848211620002c357600254908682811c92168015620003a6575b88831014620002a25781858493116200034f575b508790858311600114620002e557600092620002d9575b5050600019600383901b1c191690851b176002555b8051928311620002c35760039485548581811c91168015620002b8575b82821014620002a25783811162000257575b5080928411600114620001ed5750928293918392600094620001e1575b50501b9160001990841b1c19161790555b600080546001600160a01b031916919091179055604051611ba19081620005248239f35b015192503880620001ac565b919083601f1981168760005284600020946000905b888383106200023c575050501062000223575b505050811b019055620001bd565b015160001983861b60f8161c1916905538808062000215565b85870151885590960195948501948793509081019062000202565b86600052816000208480870160051c82019284881062000298575b0160051c019086905b8281106200028b5750506200018f565b600081550186906200027b565b9250819262000272565b634e487b7160e01b600052602260045260246000fd5b90607f16906200017d565b634e487b7160e01b600052604160045260246000fd5b0151905038806200014b565b90879350601f198316916002600052896000209260005b8b8282106200033857505084116200031e575b505050811b0160025562000160565b015160001960f88460031b161c191690553880806200030f565b8385015186558b97909501949384019301620002fc565b9091506002600052876000208580850160051c8201928a86106200039c575b918991869594930160051c01915b8281106200038c57505062000134565b600081558594508991016200037c565b925081926200036e565b91607f169162000120565b015190503880620000ef565b90889350601f19831691846000528a6000209260005b8c8282106200040e5750508411620003f4575b505050811b01855562000103565b015160001960f88460031b161c19169055388080620003e6565b8385015186558c97909501949384019301620003d3565b90915087600052886000208680850160051c8201928b861062000471575b918a91869594930160051c01915b82811062000461575050620000d8565b600081558594508a910162000451565b9250819262000443565b94607f1694620000c1565b600080fd5b6040519190601f01601f191682016001600160401b03811183821017620002c357604052565b919080601f84011215620004865782516001600160401b038111620002c357602090620004e7601f8201601f191683016200048b565b92818452828287010111620004865760005b8181106200050f57508260009394955001015290565b8581018301518482018401528201620004f956fe608060408181526004908136101561001657600080fd5b600092833560e01c9081631375d843146113cd57508063246a908b146112cf57806355f804b31461118b57806364140ec01461108c5780636c0360eb14610fcd5780636c037f8a14610d0f57806371f0442e14610c7b578063725fa09c146108c05780637e468a51146107c1578063842251d414610685578063894b4c2e146101755763b3154c08146100a857600080fd5b34610171576020918260031936011261016d5780358452825280832091815192848154906100d5826118ef565b80875292600192808416908115610149575060011461010e575b61010a8787610100828c03836114e3565b5191829182611485565b0390f35b9080949750528583205b828410610136575050508261010a94610100928201019438806100ef565b8054868501880152928601928101610118565b60ff19168887015250505050151560051b83010192506101008261010a38806100ef565b8380fd5b8280fd5b50903461017157602092836003193601126106825782516306fdde0360e01b81529180359082848281335afa938415610678578394610654575b506101b9826117ac565b926102056022875180968a6101d78184019a8b815193849201611462565b820161202360f01b8c8201526101f68c83519384918785019101611462565b010360028101875201856114e3565b828152818752858120865181549391899184610220876118ef565b80835284830193600198868a821691826000146106345750506001146105fb575b505090610254816102c9949303826114e3565b6102e561026030611a28565b898852600686526102d78d808a209a60058952818b2091519788948a86019a6102ac61028b8d611929565b91692f636f6e74726163742f60b01b83528351938491600a85019101611462565b019c6011662f746f6b656e2f60c81b9e8f600a82015201906119a5565b602f60f81b815201906119a5565b03601f1981018552846114e3565b8a51631398fee160e31b81528581018990528c81602481335afa80156105c25787906105cc575b61031691506117ac565b8b5163131f9f3f60e11b8152958601899052948c81602481335afa9081156105c2578d918d918991610589575b5061034d906117ac565b9761035733611a28565b9a815260068352208c51713d91383937b832b93a34b2b9afbab934911d60711b818401908152601160f91b60328301529a90998a93909161039a60338601611929565b9068636f6e74726163742f60b81b825280518093600984019201916103be92611462565b019060098201526010016103d1916119a5565b6f17b83937b832b93a34b2b9973539b7b760811b815261227d60f01b601082015203600d198101885260120161040790886114e3565b8a51998a998d683d913730b6b2911d1160b91b908c015251908160298c0161042e92611462565b890190701116113232b9b1b934b83a34b7b7111d1160791b6029830152519182603a830161045b92611462565b01906a11161134b6b0b3b2911d1160a91b603a8301525191826045830161048192611462565b016c1116113130b630b731b2911d1160991b6045820152815191828a605284019201916104ad92611462565b016911161139b637ba111d1160b11b60528201528151918289605c84019201916104d692611462565b01906e111611383937b832b93a34b2b9911d60891b605c830152519182606b830161050092611462565b01606b8101607d60f81b905203604c81018252606c0161052090826114e3565b61052990611631565b81517f646174613a6170706c69636174696f6e2f6a736f6e3b6261736536342c00000084820152815190938492610567918391603d86019101611462565b810103601d81018352603d0161057d90836114e3565b5161010a819282611485565b928092508391503d83116105bb575b6105a281836114e3565b810103126105b7578b61034d8e925190610343565b8680fd5b503d610598565b8c513d89823e3d90fd5b508c81813d83116105f4575b6105e281836114e3565b810103126105b757610316905161030c565b503d6105d8565b8592508752818720908888925b82841061061e5750505082010161025482610241565b80548487018601528794909301928a9101610608565b60ff1916875292151560051b850190920192506102549150839050610241565b6106719194503d8085833e61066981836114e3565b8101906115a0565b92386101af565b85513d85823e3d90fd5b80fd5b508290346107bd576106963661156d565b939083526020916006835283209184519167ffffffffffffffff83116107aa57506106c183546118ef565b601f8111610767575b5080601f831160011461070557508394829394926106fa575b50508160011b916000199060031b1c191617905580f35b0151905084806106e3565b90601f198316958486528286209286905b88821061074f57505083600195969710610736575b505050811b01905580f35b015160001960f88460031b161c1916905584808061072b565b80600185968294968601518155019501930190610716565b838552818520601f840160051c8101918385106107a0575b601f0160051c01905b81811061079557506106ca565b858155600101610788565b909150819061077f565b634e487b7160e01b855260419052602484fd5b5080fd5b508290346107bd576107d23661156d565b939083526020916007835283209184519167ffffffffffffffff83116107aa57506107fd83546118ef565b601f811161087d575b5080601f831160011461083557508394829394926106fa5750508160011b916000199060031b1c191617905580f35b90601f198316958486528286209286905b8882106108655750508360019596971061073657505050811b01905580f35b80600185968294968601518155019501930190610846565b838552818520601f840160051c8101918385106108b6575b601f0160051c01905b8181106108ab5750610806565b85815560010161089e565b9091508190610895565b50913461068257806003193601126106825782516306fdde0360e01b815281818481335afa908115610c71578291610c57575b508351829060025492610905846118ef565b9586835260209683888101956001978a8982169182600014610c3c575050600114610be1575b610937925003846114e3565b61094033611a28565b9588519586898101986109528a611929565b68636f6e74726163742f60b81b81526109758c8351938491600985019101611462565b01602f60f81b600982015283906003549361098f856118ef565b94818116908115610bc05750600114610b61575b50506109b8925003601f1981018852876114e3565b8789518093633e7e866960e01b825281335afa918215610b55578192610b17575b5050610ac9605a888a61010a9b9961010099610a7f603d9a610b079e9a610a5c610ace9b610a0c60ff610a329d166117ac565b97519b8c99683d913730b6b2911d1160b91b818c0152825192839160298d019101611462565b880191701116113232b9b1b934b83a34b7b7111d1160791b6029840152518093603a840190611462565b01916a11161134b6b0b3b2911d1160a91b603a8401525180936045840190611462565b01721116113b30b63ab2a232b1b4b6b0b639911d1160691b6045820152610aaf825180938a605885019101611462565b0161227d60f01b605882015203603a8101845201826114e3565b611631565b845195827f646174613a6170706c69636174696f6e2f6a736f6e3b6261736536342c000000889485015282519283918686019101611462565b810103601d8101855201836114e3565b9091508781813d8311610b4e575b610b2f81836114e3565b810103126107bd57519060ff821682036106825750610ac9605a6109d9565b503d610b25565b508851903d90823e3d90fd5b6003865290915084908c7fc2575a0e9e593c00f959f8c92f12db2869c3395a3b0502d05e2516446f71f85b5b868410610ba857505050506109b892600a91010138806109a3565b8054858501600a01528c95509201918d908201610b8d565b9050600a93506109b895915060ff19168383015280151502010138806109a3565b505060028752838888887f405787fa12a823e0f2b7631cc41b3ba8828b3321ca811111fa75cd3aa3bb5ace5b858310610c23575050610937935082010161092b565b80919294505483858a0101520191018990888793610c0d565b60ff1916895261093794151560051b840101915061092b9050565b610c6b91503d8084833e61066981836114e3565b386108f3565b84513d84823e3d90fd5b5034610171576020918260031936011261016d57358352600582528083209181519284815490610caa826118ef565b808752926001928084169081156101495750600114610cd45761010a8787610100828c03836114e3565b9080949750528583205b828410610cfc575050508261010a94610100928201019438806100ef565b8054868501880152928601928101610cde565b5090346101715760209283600319360112610682578054835163ec327a2160e01b815283358185018190529092916001600160a01b0316908284602481855afa938415610fc3578394610fa7575b50855163bc74ebb960e01b8152858101829052948386602481865afa958615610f9d578496610f81575b5086516309c3dd8760e01b80825282820184905290938585602481845afa948515610f7757918a9594939187938496610f56575b5090602491610dfb60268d518a652f696d61676560d01b81610de7849e85019d8e815193849201611462565b83019182015203600681018b5201896114e3565b8b51958694859384528301525afa938415610f4b578094610f2e575b50508551918288808201868197519283910191610e3392611462565b81018981016f17b83937b832b93a34b2b9973539b7b760811b905203601081018452603001610e6290846114e3565b8651958695683d913730b6b2911d1160b91b8a880152805190818b60298a01920191610e8d92611462565b8601701116113232b9b1b934b83a34b7b7111d1160791b6029820152815191828b603a8401920191610ebe92611462565b01906a11161134b6b0b3b2911d1160a91b603a83015251918260458301610ee492611462565b01906e111611383937b832b93a34b2b9911d60891b604583015251918260548301610f0e92611462565b0160548101607d60f81b90520360358101825260550161052090826114e3565b610f439294503d8091833e61066981836114e3565b913880610e17565b8751903d90823e3d90fd5b602492919650610f6f903d8087833e61066981836114e3565b959091610dbb565b89513d88823e3d90fd5b610f969196503d8086833e61066981836114e3565b9438610d87565b87513d86823e3d90fd5b610fbc9194503d8085833e61066981836114e3565b9238610d5d565b86513d85823e3d90fd5b8382346107bd57816003193601126107bd57805190826001805491610ff1836118ef565b80865292828116908115611064575060011461101a575b5050506101008261010a9403836114e3565b9450808552600080516020611b4c8339815191525b82861061104c5750505061010082602061010a9582010194611008565b8054602087870181019190915290950194810161102f565b61010a97508693506020925061010094915060ff191682840152151560051b82010194611008565b508290346107bd5761109d3661156d565b939083526020916005835283209184519167ffffffffffffffff83116107aa57506110c883546118ef565b601f8111611148575b5080601f831160011461110057508394829394926106fa5750508160011b916000199060031b1c191617905580f35b90601f198316958486528286209286905b8882106111305750508360019596971061073657505050811b01905580f35b80600185968294968601518155019501930190611111565b838552818520601f840160051c810191838510611181575b601f0160051c01905b81811061117657506110d1565b858155600101611169565b9091508190611160565b828434610682576020806003193601126107bd5767ffffffffffffffff833581811161016d576111be9036908601611521565b9384519182116112bc57506001916111d683546118ef565b601f811161126a575b5080601f8311600114611219575083948293949261120e575b5050600019600383901b1c191690821b17905580f35b0151905084806111f8565b838552601f19831695600080516020611b4c833981519152929186905b888210611253575050838596971061073657505050811b01905580f35b808785968294968601518155019501930190611236565b838552600080516020611b4c833981519152601f840160051c8101918385106112b2575b601f0160051c019084905b8281106112a75750506111df565b868155018490611299565b909150819061128e565b634e487b7160e01b845260419052602483fd5b508290346107bd576112e03661156d565b9390835260209181835283209184519167ffffffffffffffff83116107aa575061130a83546118ef565b601f811161138a575b5080601f831160011461134257508394829394926106fa5750508160011b916000199060031b1c191617905580f35b90601f198316958486528286209286905b8882106113725750508360019596971061073657505050811b01905580f35b80600185968294968601518155019501930190611353565b838552818520601f840160051c8101918385106113c3575b601f0160051c01905b8181106113b85750611313565b8581556001016113ab565b90915081906113a2565b9290503461016d576020908160031936011261145e57358452600681528184208054856113f9826118ef565b8087529260019280841690811561014957506001146114235761010a8787610100828c03836114e3565b9080949750528583205b82841061144b575050508261010a94610100928201019438806100ef565b805486850188015292860192810161142d565b8480fd5b60005b8381106114755750506000910152565b8181015183820152602001611465565b604091602082526114a58151809281602086015260208686019101611462565b601f01601f1916010190565b6060810190811067ffffffffffffffff8211176114cd57604052565b634e487b7160e01b600052604160045260246000fd5b90601f8019910116810190811067ffffffffffffffff8211176114cd57604052565b67ffffffffffffffff81116114cd57601f01601f191660200190565b81601f820112156115685780359061153882611505565b9261154660405194856114e3565b8284526020838301011161156857816000926020809301838601378301015290565b600080fd5b90604060031983011261156857600435916024359067ffffffffffffffff82116115685761159d91600401611521565b90565b6020818303126115685780519067ffffffffffffffff8211611568570181601f820112156115685780516115d381611505565b926115e160405194856114e3565b818452602082840101116115685761159d9160208085019101611462565b9061160982611505565b61161660405191826114e3565b8281528092611627601f1991611505565b0190602036910137565b8051156117875760405190611645826114b1565b604082527f4142434445464748494a4b4c4d4e4f505152535455565758595a61626364656660208301527f6768696a6b6c6d6e6f707172737475767778797a303132333435363738392b2f60408301528051600291828201809211611771576003918290046001600160fe1b0381168103611771576116c7908495941b6115ff565b936020850193829183518401906020820192835194600085525b83811061172057505050505251068060011461170d57600214611702575090565b603d90600019015390565b50603d9081600019820153600119015390565b87600491999293949901918251600190603f9082828260121c16880101518453828282600c1c16880101518385015382828260061c16880101518885015316850101518982015301979291906116e1565b634e487b7160e01b600052601160045260246000fd5b506040516020810181811067ffffffffffffffff8211176114cd576040526000815290565b806000917a184f03e93ff9f4daa797ed6e38ed64bf6a1f010000000000000000808210156118e1575b506d04ee2d6d415b85acef8100000000808310156118d2575b50662386f26fc10000808310156118c3575b506305f5e100808310156118b4575b50612710808310156118a5575b506064821015611895575b600a8092101561188b575b6001908160216118438287016115ff565b95860101905b611855575b5050505090565b600019019083906f181899199a1a9b1b9c1cb0b131b232b360811b8282061a83530491821561188657919082611849565b61184e565b9160010191611832565b9190606460029104910191611827565b6004919392049101913861181c565b6008919392049101913861180f565b60109193920491019138611800565b602091939204910191386117ee565b6040935081049150386117d5565b90600182811c9216801561191f575b602083101461190957565b634e487b7160e01b600052602260045260246000fd5b91607f16916118fe565b9060009160019081549161193c836118ef565b92818116908115611992575060011461195457505050565b809192939450600052600080516020611b4c833981519152906000915b84831061197f575050500190565b8181602092548587015201920191611971565b60ff191683525050811515909102019150565b6000929181546119b4816118ef565b92600191808316908115611a0d57506001146119d1575b50505050565b90919293945060005260209081600020906000915b8583106119fc57505050500190388080806119cb565b8054858401529183019181016119e6565b60ff19168452505050811515909102019150388080806119cb565b604051906001600160a01b0316611a3e826114b1565b602a82526020908183016040368237835115611b3557603090538251600190811015611b3557607860218501536029905b808211611ac3575050611a80575090565b6064906040519062461bcd60e51b825280600483015260248201527f537472696e67733a20686578206c656e67746820696e73756666696369656e746044820152fd5b9091600f81166010811015611b20578551841015611b20576f181899199a1a9b1b9c1cb0b131b232b360811b901a85840185015360041c918015611b0b576000190190611a6f565b60246000634e487b7160e01b81526011600452fd5b60246000634e487b7160e01b81526032600452fd5b634e487b7160e01b600052603260045260246000fdfeb10e2d527612073b26eecdfd717e6a320cf44b4afac2b0732d9fcbe2b7fa0cf6a2646970667358221220e45901ebff168b9fc95318643b8b280449c5ea8b868eb1c402b785fef4c22e0a64736f6c63430008110033290decd9548b62a8d60345a988386fc84ba6bc95484008f6362f93160ef3e563",
  "linkReferences": {},
  "deployedLinkReferences": {}
}