{
  "_format": "hh-sol-artifact-1",
  "contractName": "WETH",
  "sourceName": "contracts/underlying/WETH.sol",
  "abi": [
    {
      "anonymous": false,
      "inputs": [
        {
          "indexed": true,
          "internalType": "address",
          "name": "owner",
          "type": "address"
        },
        {
          "indexed": true,
          "internalType": "address",
          "name": "spender",
          "type": "address"
        },
        {
          "indexed": false,
          "internalType": "uint256",
          "name": "value",
          "type": "uint256"
        }
      ],
      "name": "Approval",
      "type": "event"
    },
    {
      "anonymous": false,
      "inputs": [
        {
          "indexed": true,
          "internalType": "address",
          "name": "from",
          "type": "address"
        },
        {
          "indexed": false,
          "internalType": "uint256",
          "name": "amount",
          "type": "uint256"
        }
      ],
      "name": "Deposit",
      "type": "event"
    },
    {
      "anonymous": false,
      "inputs": [
        {
          "indexed": true,
          "internalType": "address",
          "name": "from",
          "type": "address"
        },
        {
          "indexed": true,
          "internalType": "address",
          "name": "to",
          "type": "address"
        },
        {
          "indexed": false,
          "internalType": "uint256",
          "name": "value",
          "type": "uint256"
        }
      ],
      "name": "Transfer",
      "type": "event"
    },
    {
      "anonymous": false,
      "inputs": [
        {
          "indexed": true,
          "internalType": "address",
          "name": "to",
          "type": "address"
        },
        {
          "indexed": false,
          "internalType": "uint256",
          "name": "amount",
          "type": "uint256"
        }
      ],
      "name": "Withdrawal",
      "type": "event"
    },
    {
      "inputs": [
        {
          "internalType": "address",
          "name": "owner",
          "type": "address"
        },
        {
          "internalType": "address",
          "name": "spender",
          "type": "address"
        }
      ],
      "name": "allowance",
      "outputs": [
        {
          "internalType": "uint256",
          "name": "",
          "type": "uint256"
        }
      ],
      "stateMutability": "view",
      "type": "function"
    },
    {
      "inputs": [
        {
          "internalType": "address",
          "name": "spender",
          "type": "address"
        },
        {
          "internalType": "uint256",
          "name": "amount",
          "type": "uint256"
        }
      ],
      "name": "approve",
      "outputs": [
        {
          "internalType": "bool",
          "name": "",
          "type": "bool"
        }
      ],
      "stateMutability": "nonpayable",
      "type": "function"
    },
    {
      "inputs": [
        {
          "internalType": "address",
          "name": "account",
          "type": "address"
        }
      ],
      "name": "balanceOf",
      "outputs": [
        {
          "internalType": "uint256",
          "name": "",
          "type": "uint256"
        }
      ],
      "stateMutability": "view",
      "type": "function"
    },
    {
      "inputs": [],
      "name": "decimals",
      "outputs": [
        {
          "internalType": "uint8",
          "name": "",
          "type": "uint8"
        }
      ],
      "stateMutability": "view",
      "type": "function"
    },
    {
      "inputs": [
        {
          "internalType": "address",
          "name": "spender",
          "type": "address"
        },
        {
          "internalType": "uint256",
          "name": "subtractedValue",
          "type": "uint256"
        }
      ],
      "name": "decreaseAllowance",
      "outputs": [
        {
          "internalType": "bool",
          "name": "",
          "type": "bool"
        }
      ],
      "stateMutability": "nonpayable",
      "type": "function"
    },
    {
      "inputs": [],
      "name": "deposit",
      "outputs": [],
      "stateMutability": "payable",
      "type": "function"
    },
    {
      "inputs": [
        {
          "internalType": "address",
          "name": "spender",
          "type": "address"
        },
        {
          "internalType": "uint256",
          "name": "addedValue",
          "type": "uint256"
        }
      ],
      "name": "increaseAllowance",
      "outputs": [
        {
          "internalType": "bool",
          "name": "",
          "type": "bool"
        }
      ],
      "stateMutability": "nonpayable",
      "type": "function"
    },
    {
      "inputs": [],
      "name": "name",
      "outputs": [
        {
          "internalType": "string",
          "name": "",
          "type": "string"
        }
      ],
      "stateMutability": "view",
      "type": "function"
    },
    {
      "inputs": [],
      "name": "symbol",
      "outputs": [
        {
          "internalType": "string",
          "name": "",
          "type": "string"
        }
      ],
      "stateMutability": "view",
      "type": "function"
    },
    {
      "inputs": [],
      "name": "totalSupply",
      "outputs": [
        {
          "internalType": "uint256",
          "name": "",
          "type": "uint256"
        }
      ],
      "stateMutability": "view",
      "type": "function"
    },
    {
      "inputs": [
        {
          "internalType": "address",
          "name": "to",
          "type": "address"
        },
        {
          "internalType": "uint256",
          "name": "amount",
          "type": "uint256"
        }
      ],
      "name": "transfer",
      "outputs": [
        {
          "internalType": "bool",
          "name": "",
          "type": "bool"
        }
      ],
      "stateMutability": "nonpayable",
      "type": "function"
    },
    {
      "inputs": [
        {
          "internalType": "address",
          "name": "from",
          "type": "address"
        },
        {
          "internalType": "address",
          "name": "to",
          "type": "address"
        },
        {
          "internalType": "uint256",
          "name": "amount",
          "type": "uint256"
        }
      ],
      "name": "transferFrom",
      "outputs": [
        {
          "internalType": "bool",
          "name": "",
          "type": "bool"
        }
      ],
      "stateMutability": "nonpayable",
      "type": "function"
    },
    {
      "inputs": [
        {
          "internalType": "uint256",
          "name": "amount",
          "type": "uint256"
        },
        {
          "internalType": "address",
          "name": "user",
          "type": "address"
        }
      ],
      "name": "withdraw",
      "outputs": [],
      "stateMutability": "nonpayable",
      "type": "function"
    },
    {
      "inputs": [
        {
          "internalType": "uint256",
          "name": "amount",
          "type": "uint256"
        }
      ],
      "name": "withdraw",
      "outputs": [],
      "stateMutability": "nonpayable",
      "type": "function"
    },
    {
      "stateMutability": "payable",
      "type": "receive"
    }
  ],
  "bytecode": "0x6080346200033d576040906001600160401b03908083018281118282101762000327578352600d81526020916c2bb930b83832b21022ba3432b960991b838301528351928484018481108382111762000327578552600493848152630ae8aa8960e31b8282015283519083821162000312576003928354926001968785811c9516801562000307575b83861014620002f2578190601f958681116200029c575b508390868311600114620002355760009262000229575b505060001982871b1c191690871b1784555b8151948511620002145786548681811c9116801562000209575b82821014620001f457838111620001a9575b50809285116001146200013b57509383949184926000956200012f575b50501b92600019911b1c19161790555b51610bc49081620003438239f35b01519350388062000111565b92919084601f1981168860005285600020956000905b898383106200018e575050501062000173575b50505050811b01905562000121565b01519060f884600019921b161c191690553880808062000164565b85870151895590970196948501948893509081019062000151565b87600052816000208480880160051c820192848910620001ea575b0160051c019087905b828110620001dd575050620000f4565b60008155018790620001cd565b92508192620001c4565b602288634e487b7160e01b6000525260246000fd5b90607f1690620000e2565b604187634e487b7160e01b6000525260246000fd5b015190503880620000b6565b90899350601f1983169188600052856000209260005b878282106200028557505084116200026c575b505050811b018455620000c8565b015160001983891b60f8161c191690553880806200025e565b8385015186558d979095019493840193016200024b565b90915086600052836000208680850160051c820192868610620002e8575b918b91869594930160051c01915b828110620002d85750506200009f565b600081558594508b9101620002c8565b92508192620002ba565b602289634e487b7160e01b6000525260246000fd5b94607f169462000088565b604186634e487b7160e01b6000525260246000fd5b634e487b7160e01b600052604160045260246000fd5b600080fdfe60406080815260049081361015610028575b5050361561001e57600080fd5b6100266109bd565b005b600091823560e01c90838262f714ce146106435750816306fdde0314610569578163095ea7b31461053f57816318160ddd1461052057816323b872dd146104565781632e1a7d4d146103c8578163313ce567146103ac578163395093511461035c57816370a082311461032557816395d89b4114610206578163a457c2d71461016157508063a9059cbb14610131578063d0e30db0146101175763dd62ed3e036100115734610113578060031936011261011357806020926100e86106cb565b6100f06106b0565b6001600160a01b0391821683526001865283832091168252845220549051908152f35b5080fd5b828060031936011261012e5761012b6109bd565b80f35b80fd5b503461011357806003193601126101135760209061015a6101506106cb565b602435903361074d565b5160018152f35b9050823461012e578260031936011261012e5761017c6106cb565b918360243592338152600160205281812060018060a01b03861682526020522054908282106101b55760208561015a85850387336108bb565b608490602086519162461bcd60e51b8352820152602560248201527f45524332303a2064656372656173656420616c6c6f77616e63652062656c6f77604482015264207a65726f60d81b6064820152fd5b838334610113578160031936011261011357805190828454600181811c9080831692831561031b575b6020938484108114610308578388529081156102ec5750600114610297575b505050829003601f01601f191682019267ffffffffffffffff84118385101761028457508291826102809252826106e1565b0390f35b634e487b7160e01b815260418552602490fd5b8787529192508591837f8a35acfbc15ff81a39ae7d344fd709f28e8600b4aa8c65c6b64bfe7fe36bd19b5b8385106102d8575050505083010185808061024e565b8054888601830152930192849082016102c2565b60ff1916878501525050151560051b840101905085808061024e565b634e487b7160e01b895260228a52602489fd5b91607f169161022f565b5050346101135760203660031901126101135760209181906001600160a01b0361034d6106cb565b16815280845220549051908152f35b50503461011357806003193601126101135761015a6020926103a561037f6106cb565b338352600186528483206001600160a01b0382168452865291849020546024359061072a565b90336108bb565b5050346101135781600319360112610113576020905160128152f35b90503461045257602036600319011261045257359033835282602052818184205410610452576103f88233610a87565b8280838015610448575b8280929181923390f11561043d57519081527f7fcf532c15f0a6db0bd6d0e038bea71d30d808c7d98cb3bf7268a95bf5081b6560203392a280f35b51913d9150823e3d90fd5b6108fc9150610402565b8280fd5b83915034610113576060366003190112610113576104726106cb565b61047a6106b0565b91846044359460018060a01b0384168152600160205281812033825260205220549060001982036104b4575b60208661015a87878761074d565b8482106104dd57509183916104d26020969561015a950333836108bb565b9193948193506104a6565b606490602087519162461bcd60e51b8352820152601d60248201527f45524332303a20696e73756666696369656e7420616c6c6f77616e63650000006044820152fd5b5050346101135781600319360112610113576020906002549051908152f35b50503461011357806003193601126101135760209061015a61055f6106cb565b60243590336108bb565b83833461011357816003193601126101135780519082600354600181811c90808316928315610639575b6020938484108114610308578388529081156102ec57506001146105e357505050829003601f01601f191682019267ffffffffffffffff84118385101761028457508291826102809252826106e1565b600387529192508591837fc2575a0e9e593c00f959f8c92f12db2869c3395a3b0502d05e2516446f71f85b5b838510610625575050505083010185808061024e565b80548886018301529301928490820161060f565b91607f1691610593565b9150346101135782600319360112610113573561065e6106b0565b9033835282602052808484205410610452578281819361067f839433610a87565b829082156106a6575b6001600160a01b031690f11561069c575080f35b51903d90823e3d90fd5b6108fc9150610688565b602435906001600160a01b03821682036106c657565b600080fd5b600435906001600160a01b03821682036106c657565b6020808252825181830181905290939260005b82811061071657505060409293506000838284010152601f8019910116010190565b8181018601518482016040015285016106f4565b9190820180921161073757565b634e487b7160e01b600052601160045260246000fd5b6001600160a01b039081169182156108685716918215610817576000828152806020526040812054918083106107c357604082827fddf252ad1be2c89b69c2b068fc378daa952ba7f163c4a11628f55a4df523b3ef958760209652828652038282205586815220818154019055604051908152a3565b60405162461bcd60e51b815260206004820152602660248201527f45524332303a207472616e7366657220616d6f756e7420657863656564732062604482015265616c616e636560d01b6064820152608490fd5b60405162461bcd60e51b815260206004820152602360248201527f45524332303a207472616e7366657220746f20746865207a65726f206164647260448201526265737360e81b6064820152608490fd5b60405162461bcd60e51b815260206004820152602560248201527f45524332303a207472616e736665722066726f6d20746865207a65726f206164604482015264647265737360d81b6064820152608490fd5b6001600160a01b0390811691821561096c571691821561091c5760207f8c5be1e5ebec7d5bd14f71427d1e84f3dd0314c0f7b2291e5b200ac8c7c3b925918360005260018252604060002085600052825280604060002055604051908152a3565b60405162461bcd60e51b815260206004820152602260248201527f45524332303a20617070726f766520746f20746865207a65726f206164647265604482015261737360f01b6064820152608490fd5b60405162461bcd60e51b8152602060048201526024808201527f45524332303a20617070726f76652066726f6d20746865207a65726f206164646044820152637265737360e01b6064820152608490fd5b3315610a42576109cf3460025461072a565b600255336000526000602052604060002034815401905560405134815260007fddf252ad1be2c89b69c2b068fc378daa952ba7f163c4a11628f55a4df523b3ef60203393a36040513481527fe1fffcc4923d04b559f4d29a8bfc6cda04eb5b0d3c460751c2402c5c5cc9109c60203392a2565b60405162461bcd60e51b815260206004820152601f60248201527f45524332303a206d696e7420746f20746865207a65726f2061646472657373006044820152606490fd5b6001600160a01b03168015610b3f57600091818352826020526040832054818110610aef57817fddf252ad1be2c89b69c2b068fc378daa952ba7f163c4a11628f55a4df523b3ef926020928587528684520360408620558060025403600255604051908152a3565b60405162461bcd60e51b815260206004820152602260248201527f45524332303a206275726e20616d6f756e7420657863656564732062616c616e604482015261636560f01b6064820152608490fd5b60405162461bcd60e51b815260206004820152602160248201527f45524332303a206275726e2066726f6d20746865207a65726f206164647265736044820152607360f81b6064820152608490fdfea26469706673582212205ba9a5d4da95a41e372c99168acdbe7bf1b93e5d6337cbbd554be5a18ca96f5864736f6c63430008110033",
  "linkReferences": {},
  "deployedLinkReferences": {}
}