{
  "_format": "hh-sol-artifact-1",
  "contractName": "CountsCredit",
  "sourceName": "contracts/CountsCredit.sol",
  "abi": [
    {
      "inputs": [
        {
          "internalType": "address",
          "name": "revenueAcct_",
          "type": "address"
        },
        {
          "internalType": "address",
          "name": "slotRegistryContract_",
          "type": "address"
        },
        {
          "internalType": "address",
          "name": "poolContract_",
          "type": "address"
        },
        {
          "internalType": "address",
          "name": "valueContract_",
          "type": "address"
        },
        {
          "internalType": "address",
          "name": "USDContract_",
          "type": "address"
        },
        {
          "internalType": "address",
          "name": "mktAdmin_",
          "type": "address"
        },
        {
          "internalType": "uint256",
          "name": "defaultSlot_",
          "type": "uint256"
        },
        {
          "internalType": "string",
          "name": "name_",
          "type": "string"
        },
        {
          "internalType": "string",
          "name": "symbol_",
          "type": "string"
        },
        {
          "internalType": "string",
          "name": "baseuri_",
          "type": "string"
        },
        {
          "internalType": "string",
          "name": "contractDescription_",
          "type": "string"
        },
        {
          "internalType": "string",
          "name": "contractImage_",
          "type": "string"
        },
        {
          "internalType": "string",
          "name": "valueToken_",
          "type": "string"
        },
        {
          "internalType": "uint8",
          "name": "decimals_",
          "type": "uint8"
        }
      ],
      "stateMutability": "nonpayable",
      "type": "constructor"
    },
    {
      "anonymous": false,
      "inputs": [
        {
          "indexed": true,
          "internalType": "address",
          "name": "_owner",
          "type": "address"
        },
        {
          "indexed": true,
          "internalType": "address",
          "name": "_approved",
          "type": "address"
        },
        {
          "indexed": true,
          "internalType": "uint256",
          "name": "_tokenId",
          "type": "uint256"
        }
      ],
      "name": "Approval",
      "type": "event"
    },
    {
      "anonymous": false,
      "inputs": [
        {
          "indexed": true,
          "internalType": "address",
          "name": "_owner",
          "type": "address"
        },
        {
          "indexed": true,
          "internalType": "address",
          "name": "_operator",
          "type": "address"
        },
        {
          "indexed": false,
          "internalType": "bool",
          "name": "_approved",
          "type": "bool"
        }
      ],
      "name": "ApprovalForAll",
      "type": "event"
    },
    {
      "anonymous": false,
      "inputs": [
        {
          "indexed": true,
          "internalType": "uint256",
          "name": "_tokenId",
          "type": "uint256"
        },
        {
          "indexed": true,
          "internalType": "address",
          "name": "_operator",
          "type": "address"
        },
        {
          "indexed": false,
          "internalType": "uint256",
          "name": "_value",
          "type": "uint256"
        }
      ],
      "name": "ApprovalValue",
      "type": "event"
    },
    {
      "anonymous": false,
      "inputs": [
        {
          "indexed": true,
          "internalType": "uint256",
          "name": "tokenId",
          "type": "uint256"
        },
        {
          "indexed": false,
          "internalType": "uint256",
          "name": "consumedValue",
          "type": "uint256"
        },
        {
          "indexed": false,
          "internalType": "uint256",
          "name": "underlyingBurntValue",
          "type": "uint256"
        }
      ],
      "name": "CreditsConsumed",
      "type": "event"
    },
    {
      "anonymous": false,
      "inputs": [
        {
          "indexed": false,
          "internalType": "uint256",
          "name": "offeringId",
          "type": "uint256"
        },
        {
          "indexed": false,
          "internalType": "uint256",
          "name": "value",
          "type": "uint256"
        }
      ],
      "name": "ListOffer",
      "type": "event"
    },
    {
      "anonymous": false,
      "inputs": [
        {
          "indexed": false,
          "internalType": "address",
          "name": "contractAddress",
          "type": "address"
        }
      ],
      "name": "MetadataDescriptor",
      "type": "event"
    },
    {
      "anonymous": false,
      "inputs": [
        {
          "indexed": false,
          "internalType": "uint256",
          "name": "tokenId",
          "type": "uint256"
        },
        {
          "indexed": false,
          "internalType": "uint256",
          "name": "slot",
          "type": "uint256"
        },
        {
          "indexed": false,
          "internalType": "uint256",
          "name": "value",
          "type": "uint256"
        }
      ],
      "name": "MintAssetToken",
      "type": "event"
    },
    {
      "anonymous": false,
      "inputs": [
        {
          "indexed": false,
          "internalType": "uint256",
          "name": "tokenId",
          "type": "uint256"
        },
        {
          "indexed": false,
          "internalType": "uint256",
          "name": "slot",
          "type": "uint256"
        },
        {
          "indexed": false,
          "internalType": "uint256",
          "name": "value",
          "type": "uint256"
        }
      ],
      "name": "MintCountsToken",
      "type": "event"
    },
    {
      "anonymous": false,
      "inputs": [
        {
          "indexed": false,
          "internalType": "uint256",
          "name": "tokenId",
          "type": "uint256"
        },
        {
          "indexed": false,
          "internalType": "uint256",
          "name": "slot",
          "type": "uint256"
        },
        {
          "indexed": false,
          "internalType": "uint256",
          "name": "value",
          "type": "uint256"
        }
      ],
      "name": "MintNetworkServiceToken",
      "type": "event"
    },
    {
      "anonymous": false,
      "inputs": [
        {
          "indexed": false,
          "internalType": "uint256",
          "name": "tokenId",
          "type": "uint256"
        },
        {
          "indexed": false,
          "internalType": "uint256",
          "name": "slot",
          "type": "uint256"
        },
        {
          "indexed": false,
          "internalType": "uint256",
          "name": "value",
          "type": "uint256"
        }
      ],
      "name": "MintServiceToken",
      "type": "event"
    },
    {
      "anonymous": false,
      "inputs": [
        {
          "indexed": false,
          "internalType": "uint256",
          "name": "newTokenId",
          "type": "uint256"
        },
        {
          "indexed": false,
          "internalType": "uint256",
          "name": "slot",
          "type": "uint256"
        },
        {
          "indexed": false,
          "internalType": "uint256",
          "name": "value",
          "type": "uint256"
        }
      ],
      "name": "MintServiceTokenToAddress",
      "type": "event"
    },
    {
      "anonymous": false,
      "inputs": [
        {
          "indexed": true,
          "internalType": "bytes32",
          "name": "role",
          "type": "bytes32"
        },
        {
          "indexed": true,
          "internalType": "bytes32",
          "name": "previousAdminRole",
          "type": "bytes32"
        },
        {
          "indexed": true,
          "internalType": "bytes32",
          "name": "newAdminRole",
          "type": "bytes32"
        }
      ],
      "name": "RoleAdminChanged",
      "type": "event"
    },
    {
      "anonymous": false,
      "inputs": [
        {
          "indexed": true,
          "internalType": "bytes32",
          "name": "role",
          "type": "bytes32"
        },
        {
          "indexed": true,
          "internalType": "address",
          "name": "account",
          "type": "address"
        },
        {
          "indexed": true,
          "internalType": "address",
          "name": "sender",
          "type": "address"
        }
      ],
      "name": "RoleGranted",
      "type": "event"
    },
    {
      "anonymous": false,
      "inputs": [
        {
          "indexed": true,
          "internalType": "bytes32",
          "name": "role",
          "type": "bytes32"
        },
        {
          "indexed": true,
          "internalType": "address",
          "name": "account",
          "type": "address"
        },
        {
          "indexed": true,
          "internalType": "address",
          "name": "sender",
          "type": "address"
        }
      ],
      "name": "RoleRevoked",
      "type": "event"
    },
    {
      "anonymous": false,
      "inputs": [
        {
          "indexed": true,
          "internalType": "address",
          "name": "metadataDescriptor",
          "type": "address"
        }
      ],
      "name": "SetMetadataDescriptor",
      "type": "event"
    },
    {
      "anonymous": false,
      "inputs": [
        {
          "indexed": true,
          "internalType": "uint256",
          "name": "_tokenId",
          "type": "uint256"
        },
        {
          "indexed": true,
          "internalType": "uint256",
          "name": "_oldSlot",
          "type": "uint256"
        },
        {
          "indexed": true,
          "internalType": "uint256",
          "name": "_newSlot",
          "type": "uint256"
        }
      ],
      "name": "SlotChanged",
      "type": "event"
    },
    {
      "anonymous": false,
      "inputs": [
        {
          "indexed": true,
          "internalType": "address",
          "name": "_from",
          "type": "address"
        },
        {
          "indexed": true,
          "internalType": "address",
          "name": "_to",
          "type": "address"
        },
        {
          "indexed": true,
          "internalType": "uint256",
          "name": "_tokenId",
          "type": "uint256"
        }
      ],
      "name": "Transfer",
      "type": "event"
    },
    {
      "anonymous": false,
      "inputs": [
        {
          "indexed": true,
          "internalType": "uint256",
          "name": "_fromTokenId",
          "type": "uint256"
        },
        {
          "indexed": true,
          "internalType": "uint256",
          "name": "_toTokenId",
          "type": "uint256"
        },
        {
          "indexed": false,
          "internalType": "uint256",
          "name": "_value",
          "type": "uint256"
        }
      ],
      "name": "TransferValue",
      "type": "event"
    },
    {
      "anonymous": false,
      "inputs": [
        {
          "indexed": false,
          "internalType": "uint256",
          "name": "fromTokenId",
          "type": "uint256"
        },
        {
          "indexed": false,
          "internalType": "uint256",
          "name": "toTokenId",
          "type": "uint256"
        },
        {
          "indexed": false,
          "internalType": "uint256",
          "name": "value",
          "type": "uint256"
        }
      ],
      "name": "ValueTransfer",
      "type": "event"
    },
    {
      "inputs": [],
      "name": "DEFAULT_ADMIN_ROLE",
      "outputs": [
        {
          "internalType": "bytes32",
          "name": "",
          "type": "bytes32"
        }
      ],
      "stateMutability": "view",
      "type": "function"
    },
    {
      "inputs": [],
      "name": "MKT_ARBITRATOR_ROLE",
      "outputs": [
        {
          "internalType": "bytes32",
          "name": "",
          "type": "bytes32"
        }
      ],
      "stateMutability": "view",
      "type": "function"
    },
    {
      "inputs": [],
      "name": "SERVICE_ADMIN_ROLE",
      "outputs": [
        {
          "internalType": "bytes32",
          "name": "",
          "type": "bytes32"
        }
      ],
      "stateMutability": "view",
      "type": "function"
    },
    {
      "inputs": [
        {
          "internalType": "string",
          "name": "uri_",
          "type": "string"
        }
      ],
      "name": "_setBaseURI",
      "outputs": [],
      "stateMutability": "nonpayable",
      "type": "function"
    },
    {
      "inputs": [
        {
          "internalType": "uint256",
          "name": "tokenId_",
          "type": "uint256"
        },
        {
          "internalType": "address",
          "name": "operator_",
          "type": "address"
        }
      ],
      "name": "allowance",
      "outputs": [
        {
          "internalType": "uint256",
          "name": "",
          "type": "uint256"
        }
      ],
      "stateMutability": "view",
      "type": "function"
    },
    {
      "inputs": [
        {
          "internalType": "address",
          "name": "to_",
          "type": "address"
        },
        {
          "internalType": "uint256",
          "name": "tokenId_",
          "type": "uint256"
        }
      ],
      "name": "approve",
      "outputs": [],
      "stateMutability": "payable",
      "type": "function"
    },
    {
      "inputs": [
        {
          "internalType": "uint256",
          "name": "tokenId_",
          "type": "uint256"
        },
        {
          "internalType": "address",
          "name": "to_",
          "type": "address"
        },
        {
          "internalType": "uint256",
          "name": "value_",
          "type": "uint256"
        }
      ],
      "name": "approve",
      "outputs": [],
      "stateMutability": "payable",
      "type": "function"
    },
    {
      "inputs": [
        {
          "internalType": "address",
          "name": "owner_",
          "type": "address"
        }
      ],
      "name": "balanceOf",
      "outputs": [
        {
          "internalType": "uint256",
          "name": "balance",
          "type": "uint256"
        }
      ],
      "stateMutability": "view",
      "type": "function"
    },
    {
      "inputs": [
        {
          "internalType": "uint256",
          "name": "tokenId_",
          "type": "uint256"
        }
      ],
      "name": "balanceOf",
      "outputs": [
        {
          "internalType": "uint256",
          "name": "",
          "type": "uint256"
        }
      ],
      "stateMutability": "view",
      "type": "function"
    },
    {
      "inputs": [
        {
          "internalType": "uint256",
          "name": "tokenId_",
          "type": "uint256"
        },
        {
          "internalType": "uint256",
          "name": "value_",
          "type": "uint256"
        }
      ],
      "name": "consumeCredits",
      "outputs": [],
      "stateMutability": "nonpayable",
      "type": "function"
    },
    {
      "inputs": [],
      "name": "contractAdmin",
      "outputs": [
        {
          "internalType": "address",
          "name": "",
          "type": "address"
        }
      ],
      "stateMutability": "view",
      "type": "function"
    },
    {
      "inputs": [],
      "name": "contractURI",
      "outputs": [
        {
          "internalType": "string",
          "name": "",
          "type": "string"
        }
      ],
      "stateMutability": "view",
      "type": "function"
    },
    {
      "inputs": [],
      "name": "creditType",
      "outputs": [
        {
          "internalType": "string",
          "name": "",
          "type": "string"
        }
      ],
      "stateMutability": "view",
      "type": "function"
    },
    {
      "inputs": [],
      "name": "defaultSlot",
      "outputs": [
        {
          "internalType": "uint256",
          "name": "",
          "type": "uint256"
        }
      ],
      "stateMutability": "view",
      "type": "function"
    },
    {
      "inputs": [
        {
          "internalType": "uint256",
          "name": "tokenId_",
          "type": "uint256"
        }
      ],
      "name": "getApproved",
      "outputs": [
        {
          "internalType": "address",
          "name": "",
          "type": "address"
        }
      ],
      "stateMutability": "view",
      "type": "function"
    },
    {
      "inputs": [
        {
          "internalType": "bytes32",
          "name": "role",
          "type": "bytes32"
        }
      ],
      "name": "getRoleAdmin",
      "outputs": [
        {
          "internalType": "bytes32",
          "name": "",
          "type": "bytes32"
        }
      ],
      "stateMutability": "view",
      "type": "function"
    },
    {
      "inputs": [
        {
          "internalType": "uint256",
          "name": "tokenId",
          "type": "uint256"
        }
      ],
      "name": "getTokenDescription",
      "outputs": [
        {
          "internalType": "string",
          "name": "",
          "type": "string"
        }
      ],
      "stateMutability": "view",
      "type": "function"
    },
    {
      "inputs": [
        {
          "internalType": "uint256",
          "name": "tokenId",
          "type": "uint256"
        }
      ],
      "name": "getTokenImage",
      "outputs": [
        {
          "internalType": "string",
          "name": "",
          "type": "string"
        }
      ],
      "stateMutability": "view",
      "type": "function"
    },
    {
      "inputs": [
        {
          "internalType": "uint256",
          "name": "tokenId",
          "type": "uint256"
        }
      ],
      "name": "getTokenUUID",
      "outputs": [
        {
          "internalType": "string",
          "name": "",
          "type": "string"
        }
      ],
      "stateMutability": "view",
      "type": "function"
    },
    {
      "inputs": [
        {
          "internalType": "bytes32",
          "name": "role",
          "type": "bytes32"
        },
        {
          "internalType": "address",
          "name": "account",
          "type": "address"
        }
      ],
      "name": "grantRole",
      "outputs": [],
      "stateMutability": "nonpayable",
      "type": "function"
    },
    {
      "inputs": [
        {
          "internalType": "bytes32",
          "name": "role",
          "type": "bytes32"
        },
        {
          "internalType": "address",
          "name": "account",
          "type": "address"
        }
      ],
      "name": "hasRole",
      "outputs": [
        {
          "internalType": "bool",
          "name": "",
          "type": "bool"
        }
      ],
      "stateMutability": "view",
      "type": "function"
    },
    {
      "inputs": [
        {
          "internalType": "address",
          "name": "owner_",
          "type": "address"
        },
        {
          "internalType": "address",
          "name": "operator_",
          "type": "address"
        }
      ],
      "name": "isApprovedForAll",
      "outputs": [
        {
          "internalType": "bool",
          "name": "",
          "type": "bool"
        }
      ],
      "stateMutability": "view",
      "type": "function"
    },
    {
      "inputs": [
        {
          "internalType": "uint256",
          "name": "expiration_",
          "type": "uint256"
        },
        {
          "internalType": "uint256",
          "name": "tokenId_",
          "type": "uint256"
        },
        {
          "internalType": "uint256",
          "name": "price_",
          "type": "uint256"
        },
        {
          "internalType": "string",
          "name": "assetId_",
          "type": "string"
        },
        {
          "internalType": "string",
          "name": "side_",
          "type": "string"
        }
      ],
      "name": "listOffer",
      "outputs": [],
      "stateMutability": "nonpayable",
      "type": "function"
    },
    {
      "inputs": [],
      "name": "metadataDescriptor",
      "outputs": [
        {
          "internalType": "contract IERC3525MetadataDescriptor",
          "name": "",
          "type": "address"
        }
      ],
      "stateMutability": "view",
      "type": "function"
    },
    {
      "inputs": [
        {
          "internalType": "address",
          "name": "owner_",
          "type": "address"
        },
        {
          "internalType": "uint256",
          "name": "slot_",
          "type": "uint256"
        },
        {
          "internalType": "uint256",
          "name": "value_",
          "type": "uint256"
        },
        {
          "internalType": "string",
          "name": "uuid_",
          "type": "string"
        },
        {
          "internalType": "string",
          "name": "tokenDescription_",
          "type": "string"
        },
        {
          "internalType": "string",
          "name": "tokenImage_",
          "type": "string"
        },
        {
          "internalType": "string",
          "name": "property_",
          "type": "string"
        }
      ],
      "name": "mint",
      "outputs": [
        {
          "internalType": "uint256",
          "name": "",
          "type": "uint256"
        }
      ],
      "stateMutability": "nonpayable",
      "type": "function"
    },
    {
      "inputs": [
        {
          "internalType": "address",
          "name": "owner_",
          "type": "address"
        },
        {
          "internalType": "uint256",
          "name": "slot_",
          "type": "uint256"
        },
        {
          "internalType": "uint256",
          "name": "countValue_",
          "type": "uint256"
        },
        {
          "internalType": "uint256",
          "name": "paidValue_",
          "type": "uint256"
        },
        {
          "internalType": "string",
          "name": "uuid_",
          "type": "string"
        },
        {
          "internalType": "string",
          "name": "tokenDescription_",
          "type": "string"
        },
        {
          "internalType": "string",
          "name": "tokenImage_",
          "type": "string"
        },
        {
          "internalType": "string",
          "name": "property_",
          "type": "string"
        }
      ],
      "name": "mintCounts",
      "outputs": [
        {
          "internalType": "uint256",
          "name": "",
          "type": "uint256"
        }
      ],
      "stateMutability": "nonpayable",
      "type": "function"
    },
    {
      "inputs": [
        {
          "internalType": "address",
          "name": "owner_",
          "type": "address"
        },
        {
          "internalType": "uint256",
          "name": "expiration_",
          "type": "uint256"
        },
        {
          "internalType": "uint256",
          "name": "tokenId_",
          "type": "uint256"
        },
        {
          "internalType": "uint256",
          "name": "price_",
          "type": "uint256"
        },
        {
          "internalType": "string",
          "name": "assetId_",
          "type": "string"
        },
        {
          "internalType": "string",
          "name": "side_",
          "type": "string"
        }
      ],
      "name": "mktListOffer",
      "outputs": [],
      "stateMutability": "nonpayable",
      "type": "function"
    },
    {
      "inputs": [],
      "name": "name",
      "outputs": [
        {
          "internalType": "string",
          "name": "",
          "type": "string"
        }
      ],
      "stateMutability": "view",
      "type": "function"
    },
    {
      "inputs": [
        {
          "internalType": "uint256",
          "name": "tokenId_",
          "type": "uint256"
        }
      ],
      "name": "networkId",
      "outputs": [
        {
          "internalType": "uint256",
          "name": "",
          "type": "uint256"
        }
      ],
      "stateMutability": "view",
      "type": "function"
    },
    {
      "inputs": [
        {
          "internalType": "address",
          "name": "owner_",
          "type": "address"
        },
        {
          "internalType": "uint256",
          "name": "slot_",
          "type": "uint256"
        },
        {
          "internalType": "uint256",
          "name": "value_",
          "type": "uint256"
        },
        {
          "internalType": "uint256",
          "name": "discountBasisPts_",
          "type": "uint256"
        },
        {
          "internalType": "string",
          "name": "uuid_",
          "type": "string"
        },
        {
          "internalType": "string",
          "name": "tokenDescription_",
          "type": "string"
        },
        {
          "internalType": "string",
          "name": "tokenImage_",
          "type": "string"
        },
        {
          "internalType": "string",
          "name": "property_",
          "type": "string"
        }
      ],
      "name": "networkMintWithDiscount",
      "outputs": [
        {
          "internalType": "uint256",
          "name": "",
          "type": "uint256"
        }
      ],
      "stateMutability": "nonpayable",
      "type": "function"
    },
    {
      "inputs": [
        {
          "internalType": "address",
          "name": "owner_",
          "type": "address"
        },
        {
          "internalType": "uint256",
          "name": "slot_",
          "type": "uint256"
        },
        {
          "internalType": "uint256",
          "name": "value_",
          "type": "uint256"
        },
        {
          "internalType": "uint256",
          "name": "valueRate_",
          "type": "uint256"
        },
        {
          "internalType": "string",
          "name": "uuid_",
          "type": "string"
        },
        {
          "internalType": "string",
          "name": "tokenDescription_",
          "type": "string"
        },
        {
          "internalType": "string",
          "name": "tokenImage_",
          "type": "string"
        },
        {
          "internalType": "string",
          "name": "property_",
          "type": "string"
        }
      ],
      "name": "networkMintWithValueRate",
      "outputs": [
        {
          "internalType": "uint256",
          "name": "",
          "type": "uint256"
        }
      ],
      "stateMutability": "nonpayable",
      "type": "function"
    },
    {
      "inputs": [
        {
          "internalType": "uint256",
          "name": "tokenId_",
          "type": "uint256"
        }
      ],
      "name": "ownerOf",
      "outputs": [
        {
          "internalType": "address",
          "name": "owner_",
          "type": "address"
        }
      ],
      "stateMutability": "view",
      "type": "function"
    },
    {
      "inputs": [
        {
          "internalType": "uint256",
          "name": "tokenId_",
          "type": "uint256"
        },
        {
          "internalType": "uint256",
          "name": "slotId_",
          "type": "uint256"
        },
        {
          "internalType": "uint256",
          "name": "value_",
          "type": "uint256"
        }
      ],
      "name": "redeem",
      "outputs": [],
      "stateMutability": "nonpayable",
      "type": "function"
    },
    {
      "inputs": [
        {
          "internalType": "uint256",
          "name": "slotId_",
          "type": "uint256"
        }
      ],
      "name": "registerOnSlot",
      "outputs": [],
      "stateMutability": "nonpayable",
      "type": "function"
    },
    {
      "inputs": [
        {
          "internalType": "bytes32",
          "name": "role",
          "type": "bytes32"
        },
        {
          "internalType": "address",
          "name": "account",
          "type": "address"
        }
      ],
      "name": "renounceRole",
      "outputs": [],
      "stateMutability": "nonpayable",
      "type": "function"
    },
    {
      "inputs": [
        {
          "internalType": "bytes32",
          "name": "role",
          "type": "bytes32"
        },
        {
          "internalType": "address",
          "name": "account",
          "type": "address"
        }
      ],
      "name": "revokeRole",
      "outputs": [],
      "stateMutability": "nonpayable",
      "type": "function"
    },
    {
      "inputs": [
        {
          "internalType": "address",
          "name": "from_",
          "type": "address"
        },
        {
          "internalType": "address",
          "name": "to_",
          "type": "address"
        },
        {
          "internalType": "uint256",
          "name": "tokenId_",
          "type": "uint256"
        }
      ],
      "name": "safeTransferFrom",
      "outputs": [],
      "stateMutability": "payable",
      "type": "function"
    },
    {
      "inputs": [
        {
          "internalType": "address",
          "name": "from_",
          "type": "address"
        },
        {
          "internalType": "address",
          "name": "to_",
          "type": "address"
        },
        {
          "internalType": "uint256",
          "name": "tokenId_",
          "type": "uint256"
        },
        {
          "internalType": "bytes",
          "name": "data_",
          "type": "bytes"
        }
      ],
      "name": "safeTransferFrom",
      "outputs": [],
      "stateMutability": "payable",
      "type": "function"
    },
    {
      "inputs": [
        {
          "internalType": "address",
          "name": "operator_",
          "type": "address"
        },
        {
          "internalType": "bool",
          "name": "approved_",
          "type": "bool"
        }
      ],
      "name": "setApprovalForAll",
      "outputs": [],
      "stateMutability": "nonpayable",
      "type": "function"
    },
    {
      "inputs": [
        {
          "internalType": "uint256",
          "name": "tokenId_",
          "type": "uint256"
        }
      ],
      "name": "slotOf",
      "outputs": [
        {
          "internalType": "uint256",
          "name": "",
          "type": "uint256"
        }
      ],
      "stateMutability": "view",
      "type": "function"
    },
    {
      "inputs": [
        {
          "internalType": "uint256",
          "name": "slot_",
          "type": "uint256"
        }
      ],
      "name": "slotURI",
      "outputs": [
        {
          "internalType": "string",
          "name": "",
          "type": "string"
        }
      ],
      "stateMutability": "view",
      "type": "function"
    },
    {
      "inputs": [
        {
          "internalType": "bytes4",
          "name": "interfaceId",
          "type": "bytes4"
        }
      ],
      "name": "supportsInterface",
      "outputs": [
        {
          "internalType": "bool",
          "name": "",
          "type": "bool"
        }
      ],
      "stateMutability": "view",
      "type": "function"
    },
    {
      "inputs": [],
      "name": "symbol",
      "outputs": [
        {
          "internalType": "string",
          "name": "",
          "type": "string"
        }
      ],
      "stateMutability": "view",
      "type": "function"
    },
    {
      "inputs": [
        {
          "internalType": "uint256",
          "name": "index_",
          "type": "uint256"
        }
      ],
      "name": "tokenByIndex",
      "outputs": [
        {
          "internalType": "uint256",
          "name": "",
          "type": "uint256"
        }
      ],
      "stateMutability": "view",
      "type": "function"
    },
    {
      "inputs": [
        {
          "internalType": "address",
          "name": "owner_",
          "type": "address"
        },
        {
          "internalType": "uint256",
          "name": "index_",
          "type": "uint256"
        }
      ],
      "name": "tokenOfOwnerByIndex",
      "outputs": [
        {
          "internalType": "uint256",
          "name": "",
          "type": "uint256"
        }
      ],
      "stateMutability": "view",
      "type": "function"
    },
    {
      "inputs": [
        {
          "internalType": "uint256",
          "name": "tokenId_",
          "type": "uint256"
        }
      ],
      "name": "tokenURI",
      "outputs": [
        {
          "internalType": "string",
          "name": "",
          "type": "string"
        }
      ],
      "stateMutability": "view",
      "type": "function"
    },
    {
      "inputs": [],
      "name": "totalBalance",
      "outputs": [
        {
          "internalType": "uint256",
          "name": "",
          "type": "uint256"
        }
      ],
      "stateMutability": "view",
      "type": "function"
    },
    {
      "inputs": [],
      "name": "totalSupply",
      "outputs": [
        {
          "internalType": "uint256",
          "name": "",
          "type": "uint256"
        }
      ],
      "stateMutability": "view",
      "type": "function"
    },
    {
      "inputs": [
        {
          "internalType": "uint256",
          "name": "fromTokenId_",
          "type": "uint256"
        },
        {
          "internalType": "address",
          "name": "to_",
          "type": "address"
        },
        {
          "internalType": "uint256",
          "name": "value_",
          "type": "uint256"
        }
      ],
      "name": "transferFrom",
      "outputs": [
        {
          "internalType": "uint256",
          "name": "",
          "type": "uint256"
        }
      ],
      "stateMutability": "payable",
      "type": "function"
    },
    {
      "inputs": [
        {
          "internalType": "address",
          "name": "from_",
          "type": "address"
        },
        {
          "internalType": "address",
          "name": "to_",
          "type": "address"
        },
        {
          "internalType": "uint256",
          "name": "tokenId_",
          "type": "uint256"
        }
      ],
      "name": "transferFrom",
      "outputs": [],
      "stateMutability": "payable",
      "type": "function"
    },
    {
      "inputs": [
        {
          "internalType": "uint256",
          "name": "fromTokenId_",
          "type": "uint256"
        },
        {
          "internalType": "uint256",
          "name": "toTokenId_",
          "type": "uint256"
        },
        {
          "internalType": "uint256",
          "name": "value_",
          "type": "uint256"
        }
      ],
      "name": "transferFrom",
      "outputs": [],
      "stateMutability": "payable",
      "type": "function"
    },
    {
      "inputs": [
        {
          "internalType": "string",
          "name": "assetId_",
          "type": "string"
        },
        {
          "internalType": "string",
          "name": "side_",
          "type": "string"
        }
      ],
      "name": "validOffers",
      "outputs": [
        {
          "components": [
            {
              "internalType": "uint256",
              "name": "offerId",
              "type": "uint256"
            },
            {
              "internalType": "address",
              "name": "owner",
              "type": "address"
            },
            {
              "internalType": "string",
              "name": "side",
              "type": "string"
            },
            {
              "internalType": "uint256",
              "name": "price",
              "type": "uint256"
            },
            {
              "internalType": "uint256",
              "name": "tokenId",
              "type": "uint256"
            },
            {
              "internalType": "uint256",
              "name": "expiration",
              "type": "uint256"
            }
          ],
          "internalType": "struct Service.Offer[]",
          "name": "",
          "type": "tuple[]"
        }
      ],
      "stateMutability": "view",
      "type": "function"
    },
    {
      "inputs": [],
      "name": "valueContractAddress",
      "outputs": [
        {
          "internalType": "address",
          "name": "",
          "type": "address"
        }
      ],
      "stateMutability": "view",
      "type": "function"
    },
    {
      "inputs": [],
      "name": "valueDecimals",
      "outputs": [
        {
          "internalType": "uint8",
          "name": "",
          "type": "uint8"
        }
      ],
      "stateMutability": "view",
      "type": "function"
    }
  ],
  "bytecode": "0x6101006040523462000a5557600060a052620085708038038091620000278261010062000a8c565b610100396101c081126200077b576200004261010062000ab0565b60c0526200005261012062000ab0565b906200006061014062000ab0565b60e0526200007061016062000ab0565b916200007e61018062000ab0565b916200008c6101a062000ab0565b6101c0516101e051919290916001600160401b0381116200077b57620000bc908261010001906101000162000aea565b610200519092906001600160401b0381116200077b57620000e7908361010001906101000162000aea565b610220519093906001600160401b0381116200077b5762000112908461010001906101000162000aea565b610240519095906001600160401b0381116200077b576200013d908561010001906101000162000aea565b610260519095906001600160401b0381116200077b5762000168908661010001906101000162000aea565b610280519095906001600160401b0381116200077b57620001929161010001906101000162000aea565b506102a051608081905260ff8116036200077b5760405192620001b58462000a5a565b6006845265636f756e747360d01b6020850152600160035580516001600160401b038111620007255760a051805490600182811c9216801562000a4a575b6020831014620009605750601f8111620009fe575b5060a05191602092601f83116001146200098e575060a0519283918362000982575b50508160011b916000199060031b1c19161790555b8051906001600160401b038211620007255760015460a051600182811c9216801562000977575b60208310146200096057509081601f84931162000906575b5060a05190602091601f841160011462000893575060a0519262000887575b50508160011b916000199060031b1c1916176001555b60ff6080511660ff19600254161760025560a0518052600960205260a051604081209060018060a01b038316905260205260a05160ff6040822054161562000838575b50600b80546001600160a01b03199081166001600160a01b0393841617909155600c84905560c051600a80548316918416919091179055600d8054821689841617905560e051600e805490921692169190911790556010546040518251919291602080830192916200038291908390620003748187858a0162000ac5565b810103808452018262000a8c565b5190206040516374696d6560e01b602082015260048152620003a48162000a5a565b80516020909101200362000781575060a051905b600482101562000763576001600160a81b031981166001600160a01b038a81169190911760a084901b60ff60a01b161760105587163b156200077b576040516394b39b0960e01b815260c0516001600160a01b03908116600480840191909152602483019590955290936001600160a81b0319909216908a161760a092831b60ff60a01b161790911c60ff16908110156200076357604482015260a05181606481836001600160a01b038a165af1801562000756576200073d575b50604051926001600160401b036120c58501908111908511176200072557620004e892620004ba620004d1926120c56200648b883960806120c58801818152019062000b45565b906120c58601820360206120c58801015262000b45565b906120c58401820360406120c58601015262000b45565b6001600160a01b039092166120c582016060015260a051918190039082f0908115620007195750600880546001600160a01b0319166001600160a01b03928316179055600b541660008181527f3d62299d961dc9bf64f24e2e5b7d5a2b17ee5fc8163a3ddca90e52de8744675560205260409020547f1cd6d520d98babae1045eb69c31ecab800996aa332094cb55c0ac10362e9b0c9919060ff1615620006d6575b505060c0516001600160a01b031660008181527ff0bca53ec534e170e0b4115320ce2b072ee8e3338cc6b0c7b13351839d628e0a60205260409020547f9a95e87c5af084bf5db8491c3a6515da9dd6da39b24b0eb0af08d7b9cd808d91919060ff161562000693575b50507f9ac4f8025631594629895b778dc5ee88d01673a254a2291f6b6b174ad25230ca602060018060a01b0360085416604051908152a1601880546001600160a01b03199081166001600160a01b03938416179091556017805482169383169390931790925560c05160198054841691831691909117905560805160ff1660165560e051601c8054909316911617905560405161591e908162000b6d8239f35b8160005260096020526040600020816000526020526040600020600160ff19825416179055339160008051602062008550833981519152600080a43880620005f3565b8160005260096020526040600020816000526020526040600020600160ff19825416179055339160008051602062008550833981519152600080a438806200058a565b604051903d90823e3d90fd5b634e487b7160e01b60a051526041600452602460a051fd5b6001600160401b03811162000725576040523862000473565b6040513d60a051823e3d90fd5b634e487b7160e01b60a051526021600452602460a051fd5b60a05180fd5b6040516020810190620007a16020828551620003748187858a0162000ac5565b5190206040516020810190630c6c2e6d60e31b825260048152620007c58162000a5a565b51902003620007d9575060015b90620003b8565b604051620007f96020828162000374818301968781519384920162000ac5565b519020604051602081019065636f756e747360d01b8252600681526200081f8162000a5a565b5190200362000830576002620007d2565b6003620007d2565b80526009602090815260a0805160408082206001600160a01b038616928390529093529051918220805460ff191660011790553391600080516020620085508339815191528180a438620002f6565b0151905038806200029d565b60019194505260a051906020822091935b601f1984168510620008ea576001945083601f19811610620008d0575b505050811b01600155620002b3565b015160001960f88460031b161c19169055388080620008c1565b81810151835560209485019460019093019290910190620008a4565b909150600160a0515260a05160208120601f850160051c81016020861062000958575b9085949392915b601f840160051c8201811062000949575050506200027e565b82815586955060010162000930565b508062000929565b634e487b7160e01b9052602260045260a051602490fd5b91607f169162000266565b0151905038806200022a565b805260a0516020812090938493925b601f1984168510620009e2576001945083601f19811610620009c8575b505050811b0190556200023f565b015160001960f88460031b161c19169055388080620009ba565b818101518355602094850194600190930192909101906200099d565b60a051805260a05160208120601f840160051c81016020851062000a42575b601f840160051c8201811062000a365750505062000208565b82815560010162000a1d565b508062000a1d565b91607f1691620001f3565b600080fd5b604081019081106001600160401b0382111762000a7657604052565b634e487b7160e01b600052604160045260246000fd5b601f909101601f19168101906001600160401b0382119082101762000a7657604052565b51906001600160a01b038216820362000a5557565b60005b83811062000ad95750506000910152565b818101518382015260200162000ac8565b81601f8201121562000a555780516001600160401b03811162000a76576040519262000b21601f8301601f19166020018562000a8c565b8184526020828401011162000a555762000b42916020808501910162000ac5565b90565b9060209162000b608151809281855285808601910162000ac5565b601f01601f191601019056fe608080604052600436101561001357600080fd5b600090813560e01c90816301ffc9a714612eb55750806303e2095314612e9257806306fdde0314612dc3578063081812fc14612da4578063095ea7b314612c6e57806309c3dd871461299c5780630f485c02146129885780631375d843146129225780631429fb571461288757806318160ddd1461286957806323b872dd146128445780632425eeaf146124ed578063248a9ca3146124c0578063263f3e7e146124a15780632caa55a01461215e5780632f2ff15d146120ab5780632f745c5914612002578063310ed7f014611b4057806331b5b90714611ab657806336568abe14611a235780633e7e866914611a025780633f5d7067146117d957806341815ee4146116de57806342842e0e146116bb5780634c1de213146116885780634f6ccce714611603578063505a3853146115e55780636352211e146115b457806370a082311461159057806371f0442e1461152a5780637795524514611501578063840f7113146114d8578063865112ce1461131b5780638cb0a511146111d957806391d148541461118d57806395d89b41146110ae5780639cc7f7081461108f578063a217fddf14611073578063a22cb46514610f9e578063a7c9f2d614610f63578063aa20ce5514610ccf578063ad7a672f14610cb1578063b198fc5414610c88578063b3154c0814610c22578063b8192205146108b3578063b88d4fde14610854578063be950a621461070b578063c87b56dd14610676578063cf2d6fe614610407578063d09445c2146103cc578063d547741f1461038b578063e345e0bc1461035c578063e8a3d485146102cc5763e985e9c51461027357600080fd5b346102c95760403660031901126102c95761028c612f0a565b60026040610298612f20565b9360018060a01b038094168152600760205220019116600052602052602060ff604060002054166040519015158152f35b80fd5b50346102c957806003193601126102c957600854604051631c97e82760e21b8152908290829060049082906001600160a01b03165afa908115610351578261032a939261032e575b50506040519182916020835260208301906130f8565b0390f35b61034a92503d8091833e6103428183612fb0565b8101906136e0565b3880610314565b6040513d84823e3d90fd5b50346102c95760403660031901126102c957602061038361037b612f20565b60043561581d565b604051908152f35b50346102c95760403660031901126102c9576103c96004356103ab612f20565b9080845260096020526103c46001604086200154613196565b6134cb565b80f35b50346102c957806003193601126102c95760206040517f9a95e87c5af084bf5db8491c3a6515da9dd6da39b24b0eb0af08d7b9cd808d918152f35b50346102c95760c03660031901126102c957610421612f0a565b6064356001600160401b0360843581811161067257610444903690600401613023565b9060a43581811161066e5761045d903690600401613023565b93600f549461046b86613df0565b600f5583516020809501209283885260139283865260408920888a5286526001908160408b20019060018060a01b03166001600160601b0360a01b82541617905584895283865260408920888a5286528760408a205584895283865260408920888a528652600260408a200192805192831161065a576104eb845461359e565b601f8111610621575b5086908a601f85116001146105a75793604099979593819382936000805160206158c98339815191529d9b99979461059c575b50501b916000199060031b1c19161790555b81885280835285882085895283526024356005878a20015581885280835285882085895283526044356004878a20015581885282528487208488528252826003868920015586526014815261059083858820613d59565b8351928352820152a180f35b015192503880610527565b50848b52878b209293929190601f1984168c5b81811061060c5750916000805160206158c98339815191529b99979593918560409c9a989694106105f3575b505050811b019055610539565b015160001960f88460031b161c191690553880806105e6565b82840151855593860193928a01928a016105ba565b61064a90858c52888c20601f860160051c8101918a8710610650575b601f0160051c0190613dff565b386104f4565b909150819061063d565b634e487b7160e01b8a52604160045260248afd5b8580fd5b8480fd5b50346102c95760203660031901126102c957600435610694816155d7565b80156106f7575b6106a490613915565b6008546040516344a5a61760e11b815260048101929092528290829060249082906001600160a01b03165afa908115610351578261032a939261032e5750506040519182916020835260208301906130f8565b506106a461070482615605565b905061069b565b50346102c95760203660031901126102c9577f9a95e87c5af084bf5db8491c3a6515da9dd6da39b24b0eb0af08d7b9cd808d9181526009602052604081203360005260205260ff60406000205416156107e95760018060a01b039081600d541691600a541660ff60105460a01c16833b156107e557604051916394b39b0960e01b83526004830152600435602483015260048110156107d15781606481858097819560448401525af18015610351576107c15750f35b6107ca90612f67565b6102c95780f35b634e487b7160e01b83526021600452602483fd5b8280fd5b60405162461bcd60e51b815260206004820152603760248201527f53656e646572206e6f7420617574686f72697a656420746f207265676973746560448201527f7220636f6e747261637420746f207468697320736c6f740000000000000000006064820152608490fd5b5060803660031901126102c957610869612f0a565b610871612f20565b606435916001600160401b0383116108af57366023840112156108af576108a56103c9933690602481600401359101612fec565b916044359161383e565b8380fd5b50346102c9576108c23661317c565b90916108cd81613961565b6001600160a01b0390811633148015610be0575b15610b8f57849384846108f3856155d7565b80610b7c575b15610a2a575050828552601b6020526109348461092e61091d8260408a2054613541565b610928601654613fc1565b9061373e565b94613fcf565b8160175416803b1561066e57604051637a94c56560e11b815230600482015260248101929092526044820184905285908290606490829084905af1908115610a1f578591610a06575b505060185460405163a9059cbb60e01b815233600482015260248101939093529193602092859260449284929091165af19182156109fb576109c7926109cd575b50601a54613de3565b601a5580f35b6109ed9060203d81116109f4575b6109e58183612fb0565b810190614077565b50386109be565b503d6109db565b6040513d85823e3d90fd5b610a0f90612f67565b610a1a57833861097d565b505050fd5b6040513d87823e3d90fd5b9093610a43816000526011602052604060002054151590565b610a52575b9061093491613fcf565b9350508285526020601181526040862054801515600014610afe578184601c541691602460405180948193633e1feff960e21b835260048301525afa918215610af3578792610ab9575b505084610aaf61091d8261093494613541565b945b909150610a48565b8197508092503d8311610aec575b610ad18183612fb0565b81010312610ae757935185949084610aaf610a9c565b600080fd5b503d610ac7565b6040513d89823e3d90fd5b5060248184601c541660405192838092633e1feff960e21b82528960048301525afa918215610af3578792610b47575b505084610b4161091d8261093494613541565b94610ab1565b8197508092503d8311610b75575b610b5f8183612fb0565b81010312610ae757935185949084610b41610b2e565b503d610b55565b50610b86856136b9565b600c54146108f9565b60405162461bcd60e51b815260206004820152602360248201527f53656e646572206973206e6f7420617574686f72697a656420746f207265646560448201526232b69760e91b6064820152608490fd5b507f1cd6d520d98babae1045eb69c31ecab800996aa332094cb55c0ac10362e9b0c985526009602052604085203360005260205260ff604060002054166108e1565b50346102c95760203660031901126102c957600854604051631662a98160e31b81526004803590820152908290829060249082906001600160a01b03165afa908115610351578261032a939261032e5750506040519182916020835260208301906130f8565b50346102c957806003193601126102c9576010546040516001600160a01b039091168152602090f35b50346102c957806003193601126102c9576020601a54604051908152f35b50346102c957602081610ce136613041565b9660039992959196999493945499610cf88b613df0565b600355600e54604051630151086360e31b81526001600160a01b039384166004820152602481019290925260448201939093526064810194909452839160849183918b91165af1908115610f58578691610f23575b50868652601160205260408620556008546001600160a01b0316803b1561066e57610da08692918392604051948580948193632108947560e21b83528d60048401526040602484015260448301906130f8565b03925af1908115610a1f578591610f0f575b50506008546001600160a01b0316803b1561067257610df9859291839260405194858094819363246a908b60e01b83528c60048401526040602484015260448301906130f8565b03925af1908115610f04578491610ef0575b50506008546001600160a01b0316803b156108af57610e528492918392604051948580948193630190503b60e61b83528b60048401526040602484015260448301906130f8565b03925af19081156109fb578391610edc575b50506008546001600160a01b031690813b156107e5578291610eaa91604051948580948193637e468a5160e01b83528960048401526040602484015260448301906130f8565b03925af180156109fb57610ec4575b602082604051908152f35b610ece8391612f67565b610ed85781610eb9565b5080fd5b610ee590612f67565b610ed8578138610e64565b610ef990612f67565b6107e5578238610e0b565b6040513d86823e3d90fd5b610f1890612f67565b6108af578338610db2565b9550506020853d602011610f50575b81610f3f60209383612fb0565b81010312610ae75786945138610d4d565b3d9150610f32565b6040513d88823e3d90fd5b50346102c957806003193601126102c95760206040517f1cd6d520d98babae1045eb69c31ecab800996aa332094cb55c0ac10362e9b0c98152f35b50346102c95760403660031901126102c957610fb8612f0a565b602435908115158092036107e5576001600160a01b03169033821461102e5733835260076020526002604084200182600052602052604060002060ff1981541660ff83161790556040519081527f17307eab39ab6107e8899845ad3d59bd9653f200f220920489ca2b5937696c3160203392a380f35b60405162461bcd60e51b815260206004820152601a60248201527f455243333532353a20617070726f766520746f2063616c6c65720000000000006044820152606490fd5b50346102c957806003193601126102c957602090604051908152f35b50346102c95760203660031901126102c95760206103836004356156be565b50346102c957806003193601126102c957604051600060018054906110d28261359e565b80855291818116908115611166575060011461110d575b61032a846110f981860382612fb0565b6040519182916020835260208301906130f8565b600081815292507fb10e2d527612073b26eecdfd717e6a320cf44b4afac2b0732d9fcbe2b7fa0cf65b82841061114e5750505081016020016110f9826110e9565b80546020858701810191909152909301928101611136565b60ff191660208087019190915292151560051b850190920192506110f991508390506110e9565b50346102c95760403660031901126102c95760406111a9612f20565b9160043581526009602052209060018060a01b0316600052602052602060ff604060002054166040519015158152f35b506111e33661311d565b906111ed8361567b565b836111f7846155d7565b80611308575b1561129a57506112236001600160a01b038061121886613961565b1690831614156138be565b61122d83336139e2565b1561123b576103c992614e72565b60405162461bcd60e51b815260206004820152603160248201527f455243333532353a20617070726f76652063616c6c6572206973206e6f74206f6044820152701ddb995c881b9bdc88185c1c1c9bdd9959607a1b6064820152608490fd5b600e54938152601160205260408120549093919290916001600160a01b0316803b1561067257604051638cb0a51160e01b815260048101939093526001600160a01b0393909316602483015260448201529082908290606490829084905af18015610351576107c157505080f35b50611312846136b9565b600c54146111fd565b50346102c957808061132c36613041565b91602060018060a09c9a96989c9b97999b1b03601854166064604051809881936323b872dd60e01b83523360048401523060248401528c60448401525af19485156114cd576113f6956114ae575b506113988a61139361138d601654613fc1565b8a613541565b61373e565b958a8a88600c54821460001461144a57506113b2966140ae565b955b60408051888152602081018890529081018290527faece14be49e112217fca958e740bc3cd03a735e7b72fc6449aa1961c5942966b90606090a1601a5461356a565b601a55848352601b60205260408320556017546001600160a01b0316803b156107e557604051630ab714fb60e11b815230600482015260248101949094526044840191909152829081838160648101610eaa565b9190611455976146d0565b9586855260116020527f36fba2e6d0870905dade4201d8b7ff8b54c52b9e7de8df1400244d22e0d238468660408720546114a684604051938493846040919493926060820195825260208201520152565b0390a16113b4565b6114c69060203d6020116109f4576109e58183612fb0565b503861137a565b6040513d8a823e3d90fd5b50346102c957806003193601126102c9576008546040516001600160a01b039091168152602090f35b50346102c957806003193601126102c957600a546040516001600160a01b039091168152602090f35b50346102c95760203660031901126102c9576008546040516338f8221760e11b81526004803590820152908290829060249082906001600160a01b03165afa908115610351578261032a939261032e5750506040519182916020835260208301906130f8565b50346102c95760203660031901126102c95760206103836115af612f0a565b61375e565b50346102c95760203660031901126102c95760206115d3600435615770565b6040516001600160a01b039091168152f35b50346102c957806003193601126102c9576020600c54604051908152f35b50346102c95760203660031901126102c9576004356005548110156116375761162d60209161367e565b5054604051908152f35b60405162461bcd60e51b815260206004820152602360248201527f455243333532353a20676c6f62616c20696e646578206f7574206f6620626f756044820152626e647360e81b6064820152608490fd5b50346102c95760203660031901126102c95760406020916004356116ab8161567b565b8152601183522054604051908152f35b506103c96116c836613147565b90604051926116d684612f95565b85845261383e565b50346102c957806003193601126102c95760ff60105460a01c1660048110156117c5576003810361174357505061032a60405161171a81612f7a565b60088152677072696f7269747960c01b60208201526040519182916020835260208301906130f8565b8061176f57505061032a60405161175981612f7a565b600481526374696d6560e01b60208201526110f9565b6002141590506117a05761032a60405161178881612f7a565b6006815265636f756e747360d01b60208201526110f9565b61032a6040516117af81612f7a565b60048152630c6c2e6d60e31b60208201526110f9565b634e487b7160e01b82526021600452602482fd5b50346102c95760a03660031901126102c9576001600160401b036044356064358281116108af5761180e903690600401613023565b60843583811161067257611826903690600401613023565b600f549361183385613df0565b600f5582516020809401209182875260139182855260408820878952855260018060408a2001336001600160601b0360a01b82541617905584895283865260408920888a5286528760408a205584895283865260408920888a528652600260408a200192805192831161065a576118aa845461359e565b601f81116119d4575b5086908a601f851160011461195a5793604099979593819382936000805160206158c98339815191529d9b99979461194f575b50501b916000199060031b1c19161790555b81885280835285882085895283526004356005878a20015581885280835285882085895283526024356004878a20015581885282528487208488528252826003868920015586526014815261059083858820613d59565b0151925038806118e6565b50848b52878b209293929190601f1984168c5b8181106119bf5750916000805160206158c98339815191529b99979593918560409c9a989694106119a6575b505050811b0190556118f8565b015160001960f88460031b161c19169055388080611999565b82840151855593860193928a01928a0161196d565b6119fc90858c52888c20601f860160051c8101918a871061065057601f0160051c0190613dff565b386118b3565b50346102c957806003193601126102c957602060ff60025416604051908152f35b50346102c95760403660031901126102c957611a3d612f20565b336001600160a01b03821603611a59576103c9906004356134cb565b60405162461bcd60e51b815260206004820152602f60248201527f416363657373436f6e74726f6c3a2063616e206f6e6c792072656e6f756e636560448201526e103937b632b9903337b91039b2b63360891b6064820152608490fd5b50346102c95760203660031901126102c957806004356001600160401b038111611b3d57611ae8903690600401613023565b6008546001600160a01b0316803b15611b39576040516355f804b360e01b8152602060048201529183918391829084908290611b289060248301906130f8565b03925af18015610351576107c15750f35b5050fd5b50fd5b50611b4a3661317c565b90611b54836155d7565b80611fef575b80611fcc575b15611ca457828452601b6020526040842054818552604085205403611b89575b6103c992615418565b611ba0836000526011602052604060002054151590565b80611c87575b15611c0e576103c992611bfa611bbb83613d38565b828752601b602052610928611bf3611bd78760408b2054613541565b868a52601b602052611bed8460408c2054613541565b9061356a565b918661356a565b828652601b60205260408620559250611b80565b60405162461bcd60e51b815260206004820152604560248201527f436f756e74734372656469743a2063616c6320636f6e747261637420636f756e60448201527f742d76616c7565207261746520726571756972657320636f6e747261637420746064820152646f6b656e7360d81b608482015260a490fd5b50611c9f816000526011602052604060002054151590565b611ba6565b909291611cb0816155d7565b80611fb9575b1580611f90575b15611f2f5780835260209360118552604084205415611ede579384611ce760249596601a54613de3565b601a55601c54604051639448bddb60e01b815260048101869052956001600160a01b039184918891829085165afa958615610af3578796611eaf575b50838752601183526040872054611d3b838787615418565b8015611e6c578382601c541691602460405180948193633e1feff960e21b835260048301525afa9081156114cd578891611e3b575b5090611dc296611d8461091d858795613541565b60175460405163a9059cbb60e01b81526001600160a01b039093166004840152602483019190915290978892919091169082908a9082906044820190565b03925af1918215610f58577fdf7a601a0a201ccd4b4bfcfd610913188d931867997223d226f85f2f2673988a95611e1793611e1d575b5050604051938493846040919493926060820195825260208201520152565b0390a180f35b81611e3392903d106109f4576109e58183612fb0565b503880611df8565b9190508382813d8311611e65575b611e538183612fb0565b81010312610ae7579051611dc2611d70565b503d611e49565b5060248382601c541660405192838092633e1feff960e21b82528960048301525afa9081156114cd578891611e3b575090611dc296611d8461091d858795613541565b611ed0919650833d8511611ed7575b611ec88183612fb0565b81019061408f565b9438611d23565b503d611ebe565b60405162461bcd60e51b8152600481018690526024808201527f436f756e7473546f6b656e3a20696e76616c69642073656e64657220746f6b656044820152631b88125160e21b6064820152608490fd5b60405162461bcd60e51b815260206004820152603360248201527f436f756e74734372656469743a207472616e7366657220746f20746f6b656e206044820152721dda5d1a08191a5999995c995b9d081cdb1bdd606a1b6064820152608490fd5b50611f9a826155d7565b80611fa6575b15611cbd565b50611fb0826136b9565b600c5414611fa0565b50611fc3816136b9565b600c5414611cb6565b50611fd6816155d7565b8015611b605750611fe6816136b9565b600c5414611b60565b50611ff9836136b9565b600c5414611b5a565b50346102c95760403660031901126102c95761201c612f0a565b906024356120298361375e565b81101561205b57604061204d9260209460018060a01b0316815260078552206139ca565b90546040519160031b1c8152f35b60405162461bcd60e51b815260206004820152602260248201527f455243333532353a206f776e657220696e646578206f7574206f6620626f756e604482015261647360f01b6064820152608490fd5b50346102c95760403660031901126102c9576004356120c8612f20565b81835260096020526120e06001604085200154613196565b8183526009602052604083209060018060a01b0316908160005260205260ff604060002054161561210f578280f35b818352600960205260408320816000526020526040600020600160ff1982541617905533917f2f8788117e7eff1d82e926ec794901d17c78024a50270940304540a733656f0d8480a438808280f35b50346102c95760403660031901126102c95760043560248035907f9a95e87c5af084bf5db8491c3a6515da9dd6da39b24b0eb0af08d7b9cd808d9184526020906009825260408520338652825260ff6040862054161561245e57826121c2856156be565b1061241b576121d0846155d7565b80612408575b156122d25750828452601b81526121f461091d836040872054613541565b905b6122008385613fcf565b6017546001600160a01b031685612216866136b9565b823b15610ed857604051637a94c56560e11b8152306004820152602481019190915260448101859052918290606490829084905af18015610f5857612298575b50916040917f4a293c533ddd236b4b0b10cb9468f82d2bcc41ce5dbf4c774a732774320d29369361228983601a54613de3565b601a558351928352820152a280f35b917f4a293c533ddd236b4b0b10cb9468f82d2bcc41ce5dbf4c774a732774320d29369391956122c8604094612f67565b9591935091612256565b6122e9846000526011602052604060002054151590565b156123c5578385526011825260408520548290801561238157601c54604051633e1feff960e21b815260048101929092529092839182906001600160a01b03165afa8015610a1f578391869161234e575b506123489161091d91613541565b906121f6565b809250838092503d831161237a575b6123678183612fb0565b810103126106725751829061234861233a565b503d61235d565b50601c54604051633e1feff960e21b81526004810187905292839182906001600160a01b03165afa8015610a1f578391869161234e57506123489161091d91613541565b9060176064926040519262461bcd60e51b845260048401528201527f546f6b656e206973206e6f74207265636f676e697a65640000000000000000006044820152fd5b50612412846136b9565b600c54146121d6565b90601b6064926040519262461bcd60e51b845260048401528201527f496e73756666696369656e74206372656469742062616c616e636500000000006044820152fd5b90601d6064926040519262461bcd60e51b845260048401528201527f43616c6c6572206973206e6f74206120736572766963652061646d696e0000006044820152fd5b50346102c95760203660031901126102c95760206103836004356136b9565b50346102c95760203660031901126102c95760016040602092600435815260098452200154604051908152f35b50346102c95760403660031901126102c9576001600160401b036004358181116107e55761251f903690600401613023565b906024359081116107e557612538903690600401613023565b9080516020809201209182845260148252604084206040519081848254918281520191875284872090875b8181106128305750505081612579910382612fb0565b849282810191845b815181101561263f57868852601383526040882061259f8284615809565b518952835260a0604089206040516125b681612f36565b81548152600180841b036001830154168682015260056125d8600284016135d8565b9283604084015260038101546060840152600481015460808401520154928391015284815191012086518620149081612635575b50612620575b61261b90613df0565b612581565b9461262d61261b91613df0565b959050612612565b905042103861260c565b509293919361264d836146b9565b9261265b6040519485612fb0565b80845261266a601f19916146b9565b0182885b8281106127f6575050508693875b815181101561275557878952601384526040892061269a8284615809565b518a52845260408920604051906126b082612f36565b8054825260018101546001600160a01b03168683015260056126d4600283016135d8565b9182604085015260038101546060850152600481015460808501520154908160a084015286815191012085518a2014908161274b575b5061271f575b5061271a90613df0565b61267c565b95906127448261273261271a9491613df0565b9861273d828a615809565b5287615809565b5090612710565b905042103861270a565b83898660405191838301848452825180915260408401948060408360051b870101940192955b8287106127885785850386f35b909192938280600192603f1989820301855287519081518152848060a01b038383015116838201526127c8604083015160c08060408501528301906130f8565b91606080820151908301526080808201519083015260a080910151910152960192019601959291909261277b565b60405161280281612f36565b8a81528a838201528a60608060408401528201528a60808201528a60a082015282828801015201839061266e565b825484529286019260019283019201612563565b506103c961285136613147565b9161286461285f84336139e2565b6137d7565b613a53565b50346102c957806003193601126102c9576020600554604051908152f35b50346102c95760e03660031901126102c9576128a1612f0a565b906001600160401b036064358181116107e5576128c2903690600401613023565b6084358281116108af576128da903690600401613023565b9160a435818111610672576128f3903690600401613023565b9360c4359182116102c9576020610383878787876129143660048a01613023565b9360443590602435906140ae565b50346102c95760203660031901126102c957600854604051631375d84360e01b81526004803590820152908290829060249082906001600160a01b03165afa908115610351578261032a939261032e5750506040519182916020835260208301906130f8565b60206103836129963661311d565b91614953565b50346102c957602090816003193601126102c95760043560018060a01b036008541690604051636c0360eb60e01b81528381600481865afa908115610f04578491612c54575b508215612a5357508290602460405180948193633601bfc560e11b835260048301525afa918215612a47578092612a2c575b5050905b61032a6040519282849384528301906130f8565b612a4092503d8091833e6103428183612fb0565b3880612a14565b604051903d90823e3d90fd5b80519093925015612c1b578190807a184f03e93ff9f4daa797ed6e38ed64bf6a1f0100000000000000008181811015612c0d575b5050856d04ee2d6d415b85acef810000000080841015612bff575b5050662386f26fc1000080831015612bf0575b506305f5e10080831015612be1575b5061271080831015612bd2575b506064821015612bc2575b600a80921015612bb8575b60019081602181860195612b13612afd88612fd1565b97612b0b604051998a612fb0565b808952612fd1565b878b019890601f1901368a3750860101905b612b82575b50505050612b6d92612b7c926025926040519583612b5188955180928b80890191016130d5565b84019164736c6f742f60d81b89840152518093868401906130d5565b01036005810184520182612fb0565b90612a18565b600019019083906f181899199a1a9b1b9c1cb0b131b232b360811b8282061a835304918215612bb357919082612b25565b612b2a565b9160010191612ae7565b9190606460029104910191612adc565b60049193920491019138612ad1565b60089193920491019138612ac4565b60109193920491019138612ab5565b930192909104908538612aa2565b604094500491503880612a87565b5060405191508282016001600160401b03811183821017612c40576040528152612b7c565b634e487b7160e01b82526041600452602482fd5b612c6891503d8086833e6103428183612fb0565b386129e2565b5060403660031901126102c957612c83612f0a565b602435906001600160a01b038080612c9a85613961565b16921691612caa818414156138be565b803314908115612d80575b5015612d155782845260066020526004612cd2604086205461367e565b500180546001600160a01b03191683179055612ced83613961565b167f8c5be1e5ebec7d5bd14f71427d1e84f3dd0314c0f7b2291e5b200ac8c7c3b9258480a480f35b60405162461bcd60e51b815260206004820152603960248201527f455243333532353a20617070726f76652063616c6c6572206973206e6f74206f60448201527f776e6572206e6f7220617070726f76656420666f7220616c6c000000000000006064820152608490fd5b9050845260076020526002604085200133855260205260ff60408520541638612cb5565b50346102c95760203660031901126102c95760206115d360043561399a565b50346102c957806003193601126102c95760405190808054612de48161359e565b80855291600191808316908115612e685750600114612e0e575b61032a856110f981870382612fb0565b80809450527f290decd9548b62a8d60345a988386fc84ba6bc95484008f6362f93160ef3e5635b828410612e505750505081016020016110f98261032a612dfe565b80546020858701810191909152909301928101612e35565b86955061032a969350602092506110f994915060ff191682840152151560051b8201019293612dfe565b50346102c9576020610383612ea636613041565b969590959491949392936146d0565b905034610ed8576020366003190112610ed85760043563ffffffff60e01b81168091036107e55760209250637965db0b60e01b8114908115612ef9575b5015158152f35b6301ffc9a760e01b14905038612ef2565b600435906001600160a01b0382168203610ae757565b602435906001600160a01b0382168203610ae757565b60c081019081106001600160401b03821117612f5157604052565b634e487b7160e01b600052604160045260246000fd5b6001600160401b038111612f5157604052565b604081019081106001600160401b03821117612f5157604052565b602081019081106001600160401b03821117612f5157604052565b90601f801991011681019081106001600160401b03821117612f5157604052565b6001600160401b038111612f5157601f01601f191660200190565b929192612ff882612fd1565b916130066040519384612fb0565b829481845281830111610ae7578281602093846000960137010152565b9080601f83011215610ae75781602061303e93359101612fec565b90565b610100600319820112610ae7576004356001600160a01b0381168103610ae757916024359160443591606435916001600160401b0390608435828111610ae7578161308e91600401613023565b9260a435838111610ae757826130a691600401613023565b9260c435818111610ae757836130be91600401613023565b9260e435918211610ae75761303e91600401613023565b60005b8381106130e85750506000910152565b81810151838201526020016130d8565b90602091613111815180928185528580860191016130d5565b601f01601f1916010190565b6060906003190112610ae757600435906024356001600160a01b0381168103610ae7579060443590565b6060906003190112610ae7576001600160a01b03906004358281168103610ae757916024359081168103610ae7579060443590565b6060906003190112610ae757600435906024359060443590565b60009080825260209060098252604092838120338252835260ff8482205416156131c05750505050565b8351916001600160401b03903360608501838111868210176134b7578752602a855285850191873684378551156134a3576030835385519160019283101561348f576078602188015360295b83811161342557506133e357908751936080850190858210908211176133cf578852604284528684019460603687378451156133bb576030865384518210156133bb5790607860218601536041915b81831161334d5750505061330b576133079386936132eb936132dc6048946132b39a519a8b957f416363657373436f6e74726f6c3a206163636f756e74200000000000000000008c88015251809260378801906130d5565b8401917001034b99036b4b9b9b4b733903937b6329607d1b6037840152518093868401906130d5565b01036028810187520185612fb0565b5192839262461bcd60e51b8452600484015260248301906130f8565b0390fd5b60648587519062461bcd60e51b825280600483015260248201527f537472696e67733a20686578206c656e67746820696e73756666696369656e746044820152fd5b909192600f811660108110156133a7576f181899199a1a9b1b9c1cb0b131b232b360811b901a61337d8588613577565b5360041c9280156133935760001901919061325b565b634e487b7160e01b82526011600452602482fd5b634e487b7160e01b83526032600452602483fd5b634e487b7160e01b81526032600452602490fd5b634e487b7160e01b86526041600452602486fd5b60648789519062461bcd60e51b825280600483015260248201527f537472696e67733a20686578206c656e67746820696e73756666696369656e746044820152fd5b90600f8116601081101561347b576f181899199a1a9b1b9c1cb0b131b232b360811b901a613453838a613577565b5360041c908015613467576000190161320c565b634e487b7160e01b87526011600452602487fd5b634e487b7160e01b88526032600452602488fd5b634e487b7160e01b86526032600452602486fd5b634e487b7160e01b85526032600452602485fd5b634e487b7160e01b85526041600452602485fd5b906000918083526009602052604083209160018060a01b03169182845260205260ff6040842054166134fc57505050565b8083526009602052604083208284526020526040832060ff1981541690557ff6391f5c32d9c69d2a47ea670b442974b53935d1edc7fd64eb21e047a839171b339380a4565b8181029291811591840414171561355457565b634e487b7160e01b600052601160045260246000fd5b9190820180921161355457565b908151811015613588570160200190565b634e487b7160e01b600052603260045260246000fd5b90600182811c921680156135ce575b60208310146135b857565b634e487b7160e01b600052602260045260246000fd5b91607f16916135ad565b90604051918260008254926135ec8461359e565b90818452600194858116908160001461365b5750600114613618575b505061361692500383612fb0565b565b9093915060005260209081600020936000915b81831061364357505061361693508201013880613608565b8554888401850152948501948794509183019161362b565b91505061361694506020925060ff191682840152151560051b8201013880613608565b600554811015613588576006906005600052027f036b6384b5eca791c62761152d0c79bb0604c104a5fb6f4eb0703f3154bb3db00190600090565b6136c28161567b565b600052600660205260016136da60406000205461367e565b50015490565b602081830312610ae7578051906001600160401b038211610ae7570181601f82011215610ae757805161371281612fd1565b926137206040519485612fb0565b81845260208284010111610ae75761303e91602080850191016130d5565b8115613748570490565b634e487b7160e01b600052601260045260246000fd5b6001600160a01b0316801561377e57600052600760205260406000205490565b60405162461bcd60e51b815260206004820152602b60248201527f455243333532353a2062616c616e636520717565727920666f7220746865207a60448201526a65726f206164647265737360a81b6064820152608490fd5b156137de57565b60405162461bcd60e51b815260206004820152603260248201527f455243333532353a207472616e736665722063616c6c6572206973206e6f74206044820152711bdddb995c881b9bdc88185c1c1c9bdd995960721b6064820152608490fd5b9061386293929161385261285f84336139e2565b61385d838383613a53565b613e9a565b1561386957565b60405162461bcd60e51b815260206004820152602760248201527f455243333532353a207472616e7366657220746f206e6f6e204552433732315260448201526632b1b2b4bb32b960c91b6064820152608490fd5b156138c557565b60405162461bcd60e51b815260206004820152602260248201527f455243333532353a20617070726f76616c20746f2063757272656e74206f776e60448201526132b960f11b6064820152608490fd5b1561391c57565b60405162461bcd60e51b815260206004820152601960248201527f455243333532353a20696e76616c696420746f6b656e204944000000000000006044820152606490fd5b61396a8161567b565b600052600660205261398060406000205461367e565b50600301546001600160a01b031690613616821515613915565b6139a38161567b565b60005260066020526139b960406000205461367e565b50600401546001600160a01b031690565b80548210156135885760005260206000200190600090565b906001600160a01b0380806139f684613961565b16931691838314938415613a29575b508315613a13575b50505090565b613a1f9192935061399a565b1614388080613a0d565b909350600052600760205260026040600020018260005260205260ff604060002054169238613a05565b613a5c83613961565b6001600160a01b0391821691908116829003613ce757808316928315613c9457613a85856136b9565b50613a8f85613d38565b5060009185835260209060068252604090613aac8286205461367e565b50600490810180546001600160a01b03199081169091559091898782613ad183613961565b167f8c5be1e5ebec7d5bd14f71427d1e84f3dd0314c0f7b2291e5b200ac8c7c3b9258280a4898752600685526005613b0b8589205461367e565b500180549091858988818f5b868410613c5d5750505050505050805487825580613c44575b5050888652600684526003613b478488205461367e565b5001908154169055858552600783528185209182549360001994858101908111613c315790613b78889392866139ca565b90549060031b1c9060018601908c85528181528385205492613bb981613b9e868b6139ca565b90919082549060031b600019811b9283911b16911916179055565b855252818320558982528120558154908115613c1e575092828892613c1a947fddf252ad1be2c89b69c2b068fc378daa952ba7f163c4a11628f55a4df523b3ef97960191613c0783836139ca565b909182549160031b1b1916905555613d7c565b80a4565b634e487b7160e01b865260319052602485fd5b634e487b7160e01b885260118452602488fd5b613c5691885285882090810190613dff565b3880613b30565b613c8a9486928b613c6e878c6139ca565b96905494835252209260031b1c168c5289528a88812055613df0565b8690888b8f613b17565b60405162461bcd60e51b815260206004820152602560248201527f455243333532353a207472616e7366657220746f20746865207a65726f206164604482015264647265737360d81b6064820152608490fd5b60405162461bcd60e51b8152602060048201526024808201527f455243333532353a207472616e736665722066726f6d20696e76616c6964206f6044820152633bb732b960e11b6064820152608490fd5b613d418161567b565b600052600660205260026136da60406000205461367e565b90815491600160401b831015612f515782613b9e916001613616950181556139ca565b9060406136169260009083825260066020526003613d9c8484205461367e565b500180546001600160a01b0319166001600160a01b039092169182179055808252600760208181528484208054878652600191909101825285852055918352905220613d59565b9190820391821161355457565b60001981146135545760010190565b818110613e0a575050565b60008155600101613dff565b90600160401b8111612f5157815490808355818110613e3457505050565b6136169260005260206000209182019101613dff565b90816020910312610ae757516001600160e01b031981168103610ae75790565b3d15613e95573d90613e7b82612fd1565b91613e896040519384612fb0565b82523d6000602084013e565b606090565b9192813b63ffffffff1615613fb857602091613ef2916000604051958680958194630a85bd0160e11b9a8b845233600485015260018060a01b03809516602485015260448401526080606484015260848301906130f8565b0393165af160009181613f88575b50613f7a57613f0d613e6a565b80519081613f755760405162461bcd60e51b815260206004820152603260248201527f4552433732313a207472616e7366657220746f206e6f6e20455243373231526560448201527131b2b4bb32b91034b6b83632b6b2b73a32b960711b6064820152608490fd5b602001fd5b6001600160e01b0319161490565b613faa91925060203d8111613fb1575b613fa28183612fb0565b810190613e4a565b9038613f00565b503d613f98565b50505050600190565b604d811161355457600a0a90565b613fd88161567b565b8060005260066020526002613ff160406000205461367e565b5001805483811061402657836000805160206158a98339815191529261401b600096602094613de3565b9055604051908152a3565b60405162461bcd60e51b815260206004820152602360248201527f455243333532353a206275726e2076616c756520657863656564732062616c616044820152626e636560e81b6064820152608490fd5b90816020910312610ae757518015158103610ae75790565b90816020910312610ae757516001600160a01b0381168103610ae75790565b95909394919460009260018060a01b0391828916958686526015602052604096878720898852602052878720548781151580614663575b614619575b6145af57506003549a6140fc8c613df0565b6003558115614561578b15614513576141148c6155d7565b8015614504575b6144c057885161412a81612f95565b88815289518a8e61413a83612f36565b8083528d60208401908152828401908d82528d6060860193898552608087019582875260a08801988952600554928392815260066020522055600160401b8110156144ac5780600161418f920160055561367e565b9590956144985751855551600185015551600284015551600383018054918b166001600160a01b03199283161790559051600483018054918b16919092161790559051805191600501906001600160401b038311614484579060208f959493926141f98484613e16565b01908b5260208b208b5b83811061446157505050508261421891613d7c565b877fddf252ad1be2c89b69c2b068fc378daa952ba7f163c4a11628f55a4df523b3ef8180a487868b7fe4f48c240d3b994948aa54f3e2f5fca59263dfe1d52b6e4cf39a5d249b5ccb658280a461426e898b614681565b8360085416803b1561445d576142aa91879189838e825196879586948593632108947560e21b85526004850152602484015260448301906130f8565b03925af1801561445357614440575b508260085416803b1561066e576142f59186918b838a5180968195829463246a908b60e01b845260048401528d602484015260448301906130f8565b03925af1801561443657908591614422575b50508160085416803b15610672576143449185918a838951809681958294630190503b60e61b845260048401528c602484015260448301906130f8565b03925af1801561441857908491614404575b50506008541690813b156107e557614393839283928651948580948193637e468a5160e01b83528d60048401528a602484015260448301906130f8565b03925af180156143fa576143e6575b505051838152602081019190915260408101919091527f84eeb48eca46cea54afc9753345f6038981672ea565f32885420829dfd88aea69080606081015b0390a190565b6143f08291612f67565b6102c957806143a2565b83513d84823e3d90fd5b61440d90612f67565b6107e5578238614356565b85513d86823e3d90fd5b61442b90612f67565b6108af578338614307565b86513d87823e3d90fd5b61444c90959195612f67565b93386142b9565b87513d88823e3d90fd5b8680fd5b82939495965060208b6001939451169401938184015501908f9594939291614203565b634e487b7160e01b8b52604160045260248bfd5b634e487b7160e01b8f5260048f905260248ffd5b634e487b7160e01b8f52604160045260248ffd5b885162461bcd60e51b815260206004820152601d60248201527f455243333532353a20746f6b656e20616c7265616479206d696e7465640000006044820152606490fd5b5061450e8c615605565b61411b565b885162461bcd60e51b815260206004820152602160248201527f455243333532353a2063616e6e6f74206d696e74207a65726f20746f6b656e496044820152601960fa1b6064820152608490fd5b885162461bcd60e51b815260206004820152602160248201527f455243333532353a206d696e7420746f20746865207a65726f206164647265736044820152607360f81b6064820152608490fd5b9a5050505050505050906143e07f84eeb48eca46cea54afc9753345f6038981672ea565f32885420829dfd88aea693926145e886613961565b506145f2866136b9565b506145fd8487614681565b5192839286846040919493926060820195825260208201520152565b828761462484615770565b161480614652575b8061463f575b156140ea575060016140ea565b5081895260116020528989205415614632565b508a61465d836136b9565b1461462c565b5061466d826155d7565b806140e5575061467c82615605565b6140e5565b906000805160206158a983398151915260206000928484526006825260026146ac604086205461367e565b500161401b82825461356a565b6001600160401b038111612f515760051b60200190565b949096939591956020600254976000986146fc60018060a01b039761092860ff8a600e54169416613fc1565b60408051630bbed13160e21b81526001600160a01b039b909b1660048c015260248b019c909c5260448a01929092526064890191909152969896899060849082908b905af1978815614912578798614920575b506003549761475d89613df0565b6003558888526011602052868820558360085416803b1561491c576147a79188918a838a51809681958294632108947560e21b845260048401528d602484015260448301906130f8565b03925af18015614912576148ff575b508260085416803b1561445d576147f29187918983895180968195829463246a908b60e01b845260048401528c602484015260448301906130f8565b03925af180156148f5579086916148e1575b5050816008541690813b1561066e57614842869283928751948580948193630190503b60e61b83528d60048401528b602484015260448301906130f8565b03925af180156148d7579085916148c3575b50506008541690813b156108af576148938392859492859351958680948193637e468a5160e01b83528b600484015288602484015260448301906130f8565b03925af19081156148ba57506148a857505090565b6148b28291612f67565b6102c9575090565b513d84823e3d90fd5b6148cc90612f67565b6108af578338614854565b84513d87823e3d90fd5b6148ea90612f67565b610672578438614804565b85513d88823e3d90fd5b61490b90969196612f67565b94386147b6565b86513d89823e3d90fd5b8780fd5b9097506020813d821161494b575b8161493b60209383612fb0565b8101031261445d5751963861474f565b3d915061492e565b919091600090808252602091601183526040928382205415600014614cc75761497d858433614daa565b6003549561498a87613df0565b600355614996846136b9565b906001600160a01b0380821691908215614c79578915614c2b576149b98a6155d7565b8015614c1c575b614bd857849088516149d181612f95565b8781528951888b8e6149e284612f36565b8084528684018a81528285019184835260608601938b8552608087019580875260a0880198895260066005549b8c948352522055600160401b881015614bc457614a3360019889810160055561367e565b959095614bb057906005959493929151855551888501555160028401558560038401915116906001600160601b0360a01b9182825416179055856004840192511690825416179055019051918251926001600160401b03841161065a57908883928f9b9a99989796959485614aa791613e16565b0191895287892090895b848110614b9a575050505050507f6d811e6a20ae5461a4ef22a6998c1d958defe727f1cc522b6eb792bc8e6f726698979693869384614b7d9794614b076143e09a6000805160206158a983398151915296613d7c565b857fddf252ad1be2c89b69c2b068fc378daa952ba7f163c4a11628f55a4df523b3ef8180a483857fe4f48c240d3b994948aa54f3e2f5fca59263dfe1d52b6e4cf39a5d249b5ccb658280a483835260068152614b658884205461367e565b50508751838152a3614b78858883615044565b6136b9565b915192839286846040919493926060820195825260208201520152565b83518216818401558f9b50928901928501614ab1565b634e487b7160e01b8e5260048e905260248efd5b634e487b7160e01b8d52604160045260248dfd5b875162461bcd60e51b815260048101869052601d60248201527f455243333532353a20746f6b656e20616c7265616479206d696e7465640000006044820152606490fd5b50614c268a615605565b6149c0565b875162461bcd60e51b815260048101869052602160248201527f455243333532353a2063616e6e6f74206d696e74207a65726f20746f6b656e496044820152601960fa1b6064820152608490fd5b875162461bcd60e51b815260048101869052602160248201527f455243333532353a206d696e7420746f20746865207a65726f206164647265736044820152607360f81b6064820152608490fd5b600e5484516307a42e0160e11b8152600481018590526001600160a01b0397881660248201526044810187905291969192918791849160649183918691165af1958615614d9e578196614d47575b505050906143e0614b7d7f6d811e6a20ae5461a4ef22a6998c1d958defe727f1cc522b6eb792bc8e6f726694936136b9565b909180939650813d8311614d97575b614d608183612fb0565b810103126102c9575051926143e0614b7d7f6d811e6a20ae5461a4ef22a6998c1d958defe727f1cc522b6eb792bc8e6f7266614d15565b503d614d56565b508351903d90823e3d90fd5b614db48183614e44565b614dbe83836139e2565b1580614e38575b614dd0575b50505050565b838110614df357614dea93614de491613de3565b91614e72565b38808080614dca565b60405162461bcd60e51b815260206004820152601f60248201527f455243333532353a20696e73756666696369656e7420616c6c6f77616e6365006044820152606490fd5b50600019811415614dc5565b614e4d8161567b565b600052600460205260406000209060018060a01b031660005260205260406000205490565b6001600160a01b038083169391928415614f5b5783614e9091614fb3565b15614ede575b5060207f621b050de0ad08b51d19b48b3e6df75348c4de6bdd93e81b252ca62e28265b1b918360005260048252604060002085600052825280604060002055604051908152a3565b908260005260066020526005614ef860406000205461367e565b500190815492600160401b841015612f515785614f3e8560209560017f621b050de0ad08b51d19b48b3e6df75348c4de6bdd93e81b252ca62e28265b1b980181556139ca565b909283549160031b90811b9283911b169119161790559150614e96565b60405162461bcd60e51b815260206004820152602a60248201527f455243333532353a20617070726f76652076616c756520746f20746865207a65604482015269726f206164647265737360b01b6064820152608490fd5b6000908282526006602090808252604090614fd08286205461367e565b509260058094015496865b888110614fee5750505050505050905090565b81885283835261500c8187615005888c205461367e565b50016139ca565b905460039190911b1c6001600160a01b03908116908816146150365761503190613df0565b614fdb565b505050505050505050600190565b61504d816155d7565b80156152da575b1561528557615062826155d7565b8015615276575b15615223578060005260209260068452604092615089846000205461367e565b50816000526006865261509f856000205461367e565b509060028101908154908582106151cc576001015460018401540361517157916002916150d28661510f98979695613de3565b9055016150e083825461356a565b905580836000805160206158a9833981519152888851868152a384519261510684612f95565b600084526152e9565b15615118575050565b60849250519062461bcd60e51b82526004820152602d60248201527f455243333532353a207472616e736665722072656a656374656420627920455260448201526c21999a991aa932b1b2b4bb32b960991b6064820152fd5b865162461bcd60e51b815260048101899052602e60248201527f455243333532353a207472616e7366657220746f20746f6b656e20776974682060448201526d191a5999995c995b9d081cdb1bdd60921b6064820152608490fd5b875162461bcd60e51b8152600481018a9052602a60248201527f455243333532353a20696e73756666696369656e742062616c616e636520666f60448201526939103a3930b739b332b960b11b6064820152608490fd5b60405162461bcd60e51b815260206004820152602560248201527f455243333532353a207472616e7366657220746f20696e76616c696420746f6b604482015264195b88125160da1b6064820152608490fd5b5061528082615605565b615069565b60405162461bcd60e51b815260206004820152602760248201527f455243333532353a207472616e736665722066726f6d20696e76616c696420746044820152661bdad95b88125160ca1b6064820152608490fd5b506152e481615605565b615054565b9290926152f584613961565b803b63ffffffff161561540e576040516301ffc9a760e01b8152629ce20b60e01b6004820181905295602095926001600160a01b0316918681602481865afa600091816153ef575b50615358575050505050505050615352613e6a565b50600190565b156153e35760008694615397604051978896879586948d865233600487015260248601526044850152606484015260a0608484015260a48301906130f8565b03925af19182156153d7576000926153ba575b50506001600160e01b0319161490565b6153d09250803d10613fb157613fa28183612fb0565b38806153aa565b6040513d6000823e3d90fd5b50505050505050600190565b615407919250883d8a116109f4576109e58183612fb0565b903861533d565b5050505050600190565b9091615423836155d7565b806155c4575b80156155b5575b1561553e5761543e826155d7565b8061552b575b80615508575b156154ae57906154a9826154817fdf7a601a0a201ccd4b4bfcfd610913188d931867997223d226f85f2f2673988a95948433614daa565b61548c818585615044565b604051938493846040919493926060820195825260208201520152565b0390a1565b600e546001600160a01b0316803b15610ae757604051630310ed7f60e41b8152600481019390935260248301939093526044820152906000908290606490829084905af180156153d7576154ff5750565b61361690612f67565b50615512836155d7565b801561544a5750615522836136b9565b600c541461544a565b50615535826136b9565b600c5414615444565b60a460405162461bcd60e51b815260206004820152604460248201527f546f6b656e204944206f66207265636569766572206e6f74207265636f676e6960448201527f7a6564206279207468697320636f6e7472616374206f722074686520726567696064820152637374727960e01b6084820152fd5b506155bf83615605565b615430565b506155ce836136b9565b600c5414615429565b600554151590816155e6575090565b80915060005260066020526155ff60406000205461367e565b50541490565b8060005260116020526040600020541590811591615621575090565b600e546040516341ce4b3f60e01b81526004810192909252909150602090829060249082906001600160a01b03165afa9081156153d757600091615663575090565b61303e915060203d81116109f4576109e58183612fb0565b61361690615688816155d7565b9081156156ad575b811561569d575b50613915565b6156a79150615605565b38615697565b90506156b881615605565b90615690565b6156c78161567b565b6156d0816155d7565b8061575d575b156156e45761303e90613d38565b600090815260116020526040812054602060018060a01b03600e541691602460405180948193631398fee160e31b835260048301525afa918215612a4757809261572d57505090565b9091506020823d8211615755575b8161574860209383612fb0565b810103126102c957505190565b3d915061573b565b50615767816136b9565b600c54146156d6565b6157798161567b565b615782816155d7565b806157f6575b156157965761303e90613961565b60018060a01b03600e541690600052601160205260206040600020546024604051809481936331a9108f60e11b835260048301525afa9081156153d7576000916157de575090565b61303e915060203d8111611ed757611ec88183612fb0565b50615800816136b9565b600c5414615788565b80518210156135885760209160051b010190565b906158278261567b565b615830826155d7565b80615895575b156158445761303e91614e44565b602060018060a01b0391604483600e541660009586526011845260408620549060405195869485936338d1782f60e21b855260048501521660248301525afa918215612a4757809261572d57505090565b5061589f826136b9565b600c541461583656fe0b2aac84f3ec956911fd78eae5311062972ff949f38412e8da39069d9f068cc6519b8a896d3cf44bd2d0545987d41a13bfb2ba37ce6ce401c753218178535608a2646970667358221220446d330025993b6b5316526df7598f4420cb9c6a2e0cfb91198d4fb8e129851964736f6c634300081100336080604052346200048657620020c5803803806200001d816200048b565b9283398101608082820312620004865781516001600160401b0391908281116200048657816200004f918501620004b1565b91602092838501518281116200048657836200006d918701620004b1565b92604086015183811162000486576060916200008b918801620004b1565b9501516001600160a01b03811695908690036200048657815193838511620002c3576001948554938685811c951680156200047b575b88861014620002a2578190601f9586811162000425575b508890868311600114620003bd57600092620003b1575b5050600019600383901b1c191690861b1785555b805190848211620002c357600254908682811c92168015620003a6575b88831014620002a25781858493116200034f575b508790858311600114620002e557600092620002d9575b5050600019600383901b1c191690851b176002555b8051928311620002c35760039485548581811c91168015620002b8575b82821014620002a25783811162000257575b5080928411600114620001ed5750928293918392600094620001e1575b50501b9160001990841b1c19161790555b600080546001600160a01b031916919091179055604051611ba19081620005248239f35b015192503880620001ac565b919083601f1981168760005284600020946000905b888383106200023c575050501062000223575b505050811b019055620001bd565b015160001983861b60f8161c1916905538808062000215565b85870151885590960195948501948793509081019062000202565b86600052816000208480870160051c82019284881062000298575b0160051c019086905b8281106200028b5750506200018f565b600081550186906200027b565b9250819262000272565b634e487b7160e01b600052602260045260246000fd5b90607f16906200017d565b634e487b7160e01b600052604160045260246000fd5b0151905038806200014b565b90879350601f198316916002600052896000209260005b8b8282106200033857505084116200031e575b505050811b0160025562000160565b015160001960f88460031b161c191690553880806200030f565b8385015186558b97909501949384019301620002fc565b9091506002600052876000208580850160051c8201928a86106200039c575b918991869594930160051c01915b8281106200038c57505062000134565b600081558594508991016200037c565b925081926200036e565b91607f169162000120565b015190503880620000ef565b90889350601f19831691846000528a6000209260005b8c8282106200040e5750508411620003f4575b505050811b01855562000103565b015160001960f88460031b161c19169055388080620003e6565b8385015186558c97909501949384019301620003d3565b90915087600052886000208680850160051c8201928b861062000471575b918a91869594930160051c01915b82811062000461575050620000d8565b600081558594508a910162000451565b9250819262000443565b94607f1694620000c1565b600080fd5b6040519190601f01601f191682016001600160401b03811183821017620002c357604052565b919080601f84011215620004865782516001600160401b038111620002c357602090620004e7601f8201601f191683016200048b565b92818452828287010111620004865760005b8181106200050f57508260009394955001015290565b8581018301518482018401528201620004f956fe608060408181526004908136101561001657600080fd5b600092833560e01c9081631375d843146113cd57508063246a908b146112cf57806355f804b31461118b57806364140ec01461108c5780636c0360eb14610fcd5780636c037f8a14610d0f57806371f0442e14610c7b578063725fa09c146108c05780637e468a51146107c1578063842251d414610685578063894b4c2e146101755763b3154c08146100a857600080fd5b34610171576020918260031936011261016d5780358452825280832091815192848154906100d5826118ef565b80875292600192808416908115610149575060011461010e575b61010a8787610100828c03836114e3565b5191829182611485565b0390f35b9080949750528583205b828410610136575050508261010a94610100928201019438806100ef565b8054868501880152928601928101610118565b60ff19168887015250505050151560051b83010192506101008261010a38806100ef565b8380fd5b8280fd5b50903461017157602092836003193601126106825782516306fdde0360e01b81529180359082848281335afa938415610678578394610654575b506101b9826117ac565b926102056022875180968a6101d78184019a8b815193849201611462565b820161202360f01b8c8201526101f68c83519384918785019101611462565b010360028101875201856114e3565b828152818752858120865181549391899184610220876118ef565b80835284830193600198868a821691826000146106345750506001146105fb575b505090610254816102c9949303826114e3565b6102e561026030611a28565b898852600686526102d78d808a209a60058952818b2091519788948a86019a6102ac61028b8d611929565b91692f636f6e74726163742f60b01b83528351938491600a85019101611462565b019c6011662f746f6b656e2f60c81b9e8f600a82015201906119a5565b602f60f81b815201906119a5565b03601f1981018552846114e3565b8a51631398fee160e31b81528581018990528c81602481335afa80156105c25787906105cc575b61031691506117ac565b8b5163131f9f3f60e11b8152958601899052948c81602481335afa9081156105c2578d918d918991610589575b5061034d906117ac565b9761035733611a28565b9a815260068352208c51713d91383937b832b93a34b2b9afbab934911d60711b818401908152601160f91b60328301529a90998a93909161039a60338601611929565b9068636f6e74726163742f60b81b825280518093600984019201916103be92611462565b019060098201526010016103d1916119a5565b6f17b83937b832b93a34b2b9973539b7b760811b815261227d60f01b601082015203600d198101885260120161040790886114e3565b8a51998a998d683d913730b6b2911d1160b91b908c015251908160298c0161042e92611462565b890190701116113232b9b1b934b83a34b7b7111d1160791b6029830152519182603a830161045b92611462565b01906a11161134b6b0b3b2911d1160a91b603a8301525191826045830161048192611462565b016c1116113130b630b731b2911d1160991b6045820152815191828a605284019201916104ad92611462565b016911161139b637ba111d1160b11b60528201528151918289605c84019201916104d692611462565b01906e111611383937b832b93a34b2b9911d60891b605c830152519182606b830161050092611462565b01606b8101607d60f81b905203604c81018252606c0161052090826114e3565b61052990611631565b81517f646174613a6170706c69636174696f6e2f6a736f6e3b6261736536342c00000084820152815190938492610567918391603d86019101611462565b810103601d81018352603d0161057d90836114e3565b5161010a819282611485565b928092508391503d83116105bb575b6105a281836114e3565b810103126105b7578b61034d8e925190610343565b8680fd5b503d610598565b8c513d89823e3d90fd5b508c81813d83116105f4575b6105e281836114e3565b810103126105b757610316905161030c565b503d6105d8565b8592508752818720908888925b82841061061e5750505082010161025482610241565b80548487018601528794909301928a9101610608565b60ff1916875292151560051b850190920192506102549150839050610241565b6106719194503d8085833e61066981836114e3565b8101906115a0565b92386101af565b85513d85823e3d90fd5b80fd5b508290346107bd576106963661156d565b939083526020916006835283209184519167ffffffffffffffff83116107aa57506106c183546118ef565b601f8111610767575b5080601f831160011461070557508394829394926106fa575b50508160011b916000199060031b1c191617905580f35b0151905084806106e3565b90601f198316958486528286209286905b88821061074f57505083600195969710610736575b505050811b01905580f35b015160001960f88460031b161c1916905584808061072b565b80600185968294968601518155019501930190610716565b838552818520601f840160051c8101918385106107a0575b601f0160051c01905b81811061079557506106ca565b858155600101610788565b909150819061077f565b634e487b7160e01b855260419052602484fd5b5080fd5b508290346107bd576107d23661156d565b939083526020916007835283209184519167ffffffffffffffff83116107aa57506107fd83546118ef565b601f811161087d575b5080601f831160011461083557508394829394926106fa5750508160011b916000199060031b1c191617905580f35b90601f198316958486528286209286905b8882106108655750508360019596971061073657505050811b01905580f35b80600185968294968601518155019501930190610846565b838552818520601f840160051c8101918385106108b6575b601f0160051c01905b8181106108ab5750610806565b85815560010161089e565b9091508190610895565b50913461068257806003193601126106825782516306fdde0360e01b815281818481335afa908115610c71578291610c57575b508351829060025492610905846118ef565b9586835260209683888101956001978a8982169182600014610c3c575050600114610be1575b610937925003846114e3565b61094033611a28565b9588519586898101986109528a611929565b68636f6e74726163742f60b81b81526109758c8351938491600985019101611462565b01602f60f81b600982015283906003549361098f856118ef565b94818116908115610bc05750600114610b61575b50506109b8925003601f1981018852876114e3565b8789518093633e7e866960e01b825281335afa918215610b55578192610b17575b5050610ac9605a888a61010a9b9961010099610a7f603d9a610b079e9a610a5c610ace9b610a0c60ff610a329d166117ac565b97519b8c99683d913730b6b2911d1160b91b818c0152825192839160298d019101611462565b880191701116113232b9b1b934b83a34b7b7111d1160791b6029840152518093603a840190611462565b01916a11161134b6b0b3b2911d1160a91b603a8401525180936045840190611462565b01721116113b30b63ab2a232b1b4b6b0b639911d1160691b6045820152610aaf825180938a605885019101611462565b0161227d60f01b605882015203603a8101845201826114e3565b611631565b845195827f646174613a6170706c69636174696f6e2f6a736f6e3b6261736536342c000000889485015282519283918686019101611462565b810103601d8101855201836114e3565b9091508781813d8311610b4e575b610b2f81836114e3565b810103126107bd57519060ff821682036106825750610ac9605a6109d9565b503d610b25565b508851903d90823e3d90fd5b6003865290915084908c7fc2575a0e9e593c00f959f8c92f12db2869c3395a3b0502d05e2516446f71f85b5b868410610ba857505050506109b892600a91010138806109a3565b8054858501600a01528c95509201918d908201610b8d565b9050600a93506109b895915060ff19168383015280151502010138806109a3565b505060028752838888887f405787fa12a823e0f2b7631cc41b3ba8828b3321ca811111fa75cd3aa3bb5ace5b858310610c23575050610937935082010161092b565b80919294505483858a0101520191018990888793610c0d565b60ff1916895261093794151560051b840101915061092b9050565b610c6b91503d8084833e61066981836114e3565b386108f3565b84513d84823e3d90fd5b5034610171576020918260031936011261016d57358352600582528083209181519284815490610caa826118ef565b808752926001928084169081156101495750600114610cd45761010a8787610100828c03836114e3565b9080949750528583205b828410610cfc575050508261010a94610100928201019438806100ef565b8054868501880152928601928101610cde565b5090346101715760209283600319360112610682578054835163ec327a2160e01b815283358185018190529092916001600160a01b0316908284602481855afa938415610fc3578394610fa7575b50855163bc74ebb960e01b8152858101829052948386602481865afa958615610f9d578496610f81575b5086516309c3dd8760e01b80825282820184905290938585602481845afa948515610f7757918a9594939187938496610f56575b5090602491610dfb60268d518a652f696d61676560d01b81610de7849e85019d8e815193849201611462565b83019182015203600681018b5201896114e3565b8b51958694859384528301525afa938415610f4b578094610f2e575b50508551918288808201868197519283910191610e3392611462565b81018981016f17b83937b832b93a34b2b9973539b7b760811b905203601081018452603001610e6290846114e3565b8651958695683d913730b6b2911d1160b91b8a880152805190818b60298a01920191610e8d92611462565b8601701116113232b9b1b934b83a34b7b7111d1160791b6029820152815191828b603a8401920191610ebe92611462565b01906a11161134b6b0b3b2911d1160a91b603a83015251918260458301610ee492611462565b01906e111611383937b832b93a34b2b9911d60891b604583015251918260548301610f0e92611462565b0160548101607d60f81b90520360358101825260550161052090826114e3565b610f439294503d8091833e61066981836114e3565b913880610e17565b8751903d90823e3d90fd5b602492919650610f6f903d8087833e61066981836114e3565b959091610dbb565b89513d88823e3d90fd5b610f969196503d8086833e61066981836114e3565b9438610d87565b87513d86823e3d90fd5b610fbc9194503d8085833e61066981836114e3565b9238610d5d565b86513d85823e3d90fd5b8382346107bd57816003193601126107bd57805190826001805491610ff1836118ef565b80865292828116908115611064575060011461101a575b5050506101008261010a9403836114e3565b9450808552600080516020611b4c8339815191525b82861061104c5750505061010082602061010a9582010194611008565b8054602087870181019190915290950194810161102f565b61010a97508693506020925061010094915060ff191682840152151560051b82010194611008565b508290346107bd5761109d3661156d565b939083526020916005835283209184519167ffffffffffffffff83116107aa57506110c883546118ef565b601f8111611148575b5080601f831160011461110057508394829394926106fa5750508160011b916000199060031b1c191617905580f35b90601f198316958486528286209286905b8882106111305750508360019596971061073657505050811b01905580f35b80600185968294968601518155019501930190611111565b838552818520601f840160051c810191838510611181575b601f0160051c01905b81811061117657506110d1565b858155600101611169565b9091508190611160565b828434610682576020806003193601126107bd5767ffffffffffffffff833581811161016d576111be9036908601611521565b9384519182116112bc57506001916111d683546118ef565b601f811161126a575b5080601f8311600114611219575083948293949261120e575b5050600019600383901b1c191690821b17905580f35b0151905084806111f8565b838552601f19831695600080516020611b4c833981519152929186905b888210611253575050838596971061073657505050811b01905580f35b808785968294968601518155019501930190611236565b838552600080516020611b4c833981519152601f840160051c8101918385106112b2575b601f0160051c019084905b8281106112a75750506111df565b868155018490611299565b909150819061128e565b634e487b7160e01b845260419052602483fd5b508290346107bd576112e03661156d565b9390835260209181835283209184519167ffffffffffffffff83116107aa575061130a83546118ef565b601f811161138a575b5080601f831160011461134257508394829394926106fa5750508160011b916000199060031b1c191617905580f35b90601f198316958486528286209286905b8882106113725750508360019596971061073657505050811b01905580f35b80600185968294968601518155019501930190611353565b838552818520601f840160051c8101918385106113c3575b601f0160051c01905b8181106113b85750611313565b8581556001016113ab565b90915081906113a2565b9290503461016d576020908160031936011261145e57358452600681528184208054856113f9826118ef565b8087529260019280841690811561014957506001146114235761010a8787610100828c03836114e3565b9080949750528583205b82841061144b575050508261010a94610100928201019438806100ef565b805486850188015292860192810161142d565b8480fd5b60005b8381106114755750506000910152565b8181015183820152602001611465565b604091602082526114a58151809281602086015260208686019101611462565b601f01601f1916010190565b6060810190811067ffffffffffffffff8211176114cd57604052565b634e487b7160e01b600052604160045260246000fd5b90601f8019910116810190811067ffffffffffffffff8211176114cd57604052565b67ffffffffffffffff81116114cd57601f01601f191660200190565b81601f820112156115685780359061153882611505565b9261154660405194856114e3565b8284526020838301011161156857816000926020809301838601378301015290565b600080fd5b90604060031983011261156857600435916024359067ffffffffffffffff82116115685761159d91600401611521565b90565b6020818303126115685780519067ffffffffffffffff8211611568570181601f820112156115685780516115d381611505565b926115e160405194856114e3565b818452602082840101116115685761159d9160208085019101611462565b9061160982611505565b61161660405191826114e3565b8281528092611627601f1991611505565b0190602036910137565b8051156117875760405190611645826114b1565b604082527f4142434445464748494a4b4c4d4e4f505152535455565758595a61626364656660208301527f6768696a6b6c6d6e6f707172737475767778797a303132333435363738392b2f60408301528051600291828201809211611771576003918290046001600160fe1b0381168103611771576116c7908495941b6115ff565b936020850193829183518401906020820192835194600085525b83811061172057505050505251068060011461170d57600214611702575090565b603d90600019015390565b50603d9081600019820153600119015390565b87600491999293949901918251600190603f9082828260121c16880101518453828282600c1c16880101518385015382828260061c16880101518885015316850101518982015301979291906116e1565b634e487b7160e01b600052601160045260246000fd5b506040516020810181811067ffffffffffffffff8211176114cd576040526000815290565b806000917a184f03e93ff9f4daa797ed6e38ed64bf6a1f010000000000000000808210156118e1575b506d04ee2d6d415b85acef8100000000808310156118d2575b50662386f26fc10000808310156118c3575b506305f5e100808310156118b4575b50612710808310156118a5575b506064821015611895575b600a8092101561188b575b6001908160216118438287016115ff565b95860101905b611855575b5050505090565b600019019083906f181899199a1a9b1b9c1cb0b131b232b360811b8282061a83530491821561188657919082611849565b61184e565b9160010191611832565b9190606460029104910191611827565b6004919392049101913861181c565b6008919392049101913861180f565b60109193920491019138611800565b602091939204910191386117ee565b6040935081049150386117d5565b90600182811c9216801561191f575b602083101461190957565b634e487b7160e01b600052602260045260246000fd5b91607f16916118fe565b9060009160019081549161193c836118ef565b92818116908115611992575060011461195457505050565b809192939450600052600080516020611b4c833981519152906000915b84831061197f575050500190565b8181602092548587015201920191611971565b60ff191683525050811515909102019150565b6000929181546119b4816118ef565b92600191808316908115611a0d57506001146119d1575b50505050565b90919293945060005260209081600020906000915b8583106119fc57505050500190388080806119cb565b8054858401529183019181016119e6565b60ff19168452505050811515909102019150388080806119cb565b604051906001600160a01b0316611a3e826114b1565b602a82526020908183016040368237835115611b3557603090538251600190811015611b3557607860218501536029905b808211611ac3575050611a80575090565b6064906040519062461bcd60e51b825280600483015260248201527f537472696e67733a20686578206c656e67746820696e73756666696369656e746044820152fd5b9091600f81166010811015611b20578551841015611b20576f181899199a1a9b1b9c1cb0b131b232b360811b901a85840185015360041c918015611b0b576000190190611a6f565b60246000634e487b7160e01b81526011600452fd5b60246000634e487b7160e01b81526032600452fd5b634e487b7160e01b600052603260045260246000fdfeb10e2d527612073b26eecdfd717e6a320cf44b4afac2b0732d9fcbe2b7fa0cf6a26469706673582212205208bd354fcd99de0d29dc5719eed661906cf96e68df3bb0c8ee392f6a09a8d164736f6c634300081100332f8788117e7eff1d82e926ec794901d17c78024a50270940304540a733656f0d",
  "linkReferences": {},
  "deployedLinkReferences": {}
}