{
  "_format": "hh-sol-artifact-1",
  "contractName": "CountsCredit",
  "sourceName": "contracts/CountsCredit.sol",
  "abi": [
    {
      "inputs": [
        {
          "internalType": "address",
          "name": "revenueAcct_",
          "type": "address"
        },
        {
          "internalType": "address",
          "name": "serviceAdmin_",
          "type": "address"
        },
        {
          "internalType": "address",
          "name": "slotRegistryContract_",
          "type": "address"
        },
        {
          "internalType": "address",
          "name": "poolContract_",
          "type": "address"
        },
        {
          "internalType": "address",
          "name": "underlyingContract_",
          "type": "address"
        },
        {
          "internalType": "address",
          "name": "mktAdmin_",
          "type": "address"
        },
        {
          "internalType": "uint256",
          "name": "defaultSlot_",
          "type": "uint256"
        },
        {
          "internalType": "string",
          "name": "name_",
          "type": "string"
        },
        {
          "internalType": "string",
          "name": "symbol_",
          "type": "string"
        },
        {
          "internalType": "string",
          "name": "baseuri_",
          "type": "string"
        },
        {
          "internalType": "string",
          "name": "contractDescription_",
          "type": "string"
        },
        {
          "internalType": "string",
          "name": "contractImage_",
          "type": "string"
        },
        {
          "internalType": "string",
          "name": "valueToken_",
          "type": "string"
        },
        {
          "internalType": "uint8",
          "name": "decimals_",
          "type": "uint8"
        }
      ],
      "stateMutability": "nonpayable",
      "type": "constructor"
    },
    {
      "anonymous": false,
      "inputs": [
        {
          "indexed": true,
          "internalType": "address",
          "name": "_owner",
          "type": "address"
        },
        {
          "indexed": true,
          "internalType": "address",
          "name": "_approved",
          "type": "address"
        },
        {
          "indexed": true,
          "internalType": "uint256",
          "name": "_tokenId",
          "type": "uint256"
        }
      ],
      "name": "Approval",
      "type": "event"
    },
    {
      "anonymous": false,
      "inputs": [
        {
          "indexed": true,
          "internalType": "address",
          "name": "_owner",
          "type": "address"
        },
        {
          "indexed": true,
          "internalType": "address",
          "name": "_operator",
          "type": "address"
        },
        {
          "indexed": false,
          "internalType": "bool",
          "name": "_approved",
          "type": "bool"
        }
      ],
      "name": "ApprovalForAll",
      "type": "event"
    },
    {
      "anonymous": false,
      "inputs": [
        {
          "indexed": true,
          "internalType": "uint256",
          "name": "_tokenId",
          "type": "uint256"
        },
        {
          "indexed": true,
          "internalType": "address",
          "name": "_operator",
          "type": "address"
        },
        {
          "indexed": false,
          "internalType": "uint256",
          "name": "_value",
          "type": "uint256"
        }
      ],
      "name": "ApprovalValue",
      "type": "event"
    },
    {
      "anonymous": false,
      "inputs": [
        {
          "indexed": false,
          "internalType": "uint256",
          "name": "offeringId",
          "type": "uint256"
        },
        {
          "indexed": false,
          "internalType": "uint256",
          "name": "value",
          "type": "uint256"
        }
      ],
      "name": "ListOffer",
      "type": "event"
    },
    {
      "anonymous": false,
      "inputs": [
        {
          "indexed": false,
          "internalType": "address",
          "name": "contractAddress",
          "type": "address"
        }
      ],
      "name": "MetadataDescriptor",
      "type": "event"
    },
    {
      "anonymous": false,
      "inputs": [
        {
          "indexed": false,
          "internalType": "uint256",
          "name": "tokenId",
          "type": "uint256"
        },
        {
          "indexed": false,
          "internalType": "uint256",
          "name": "slot",
          "type": "uint256"
        },
        {
          "indexed": false,
          "internalType": "uint256",
          "name": "value",
          "type": "uint256"
        }
      ],
      "name": "MintAssetToken",
      "type": "event"
    },
    {
      "anonymous": false,
      "inputs": [
        {
          "indexed": false,
          "internalType": "uint256",
          "name": "tokenId",
          "type": "uint256"
        },
        {
          "indexed": false,
          "internalType": "uint256",
          "name": "slot",
          "type": "uint256"
        },
        {
          "indexed": false,
          "internalType": "uint256",
          "name": "value",
          "type": "uint256"
        }
      ],
      "name": "MintCountsToken",
      "type": "event"
    },
    {
      "anonymous": false,
      "inputs": [
        {
          "indexed": false,
          "internalType": "uint256",
          "name": "tokenId",
          "type": "uint256"
        },
        {
          "indexed": false,
          "internalType": "uint256",
          "name": "slot",
          "type": "uint256"
        },
        {
          "indexed": false,
          "internalType": "uint256",
          "name": "value",
          "type": "uint256"
        }
      ],
      "name": "MintNetworkServiceToken",
      "type": "event"
    },
    {
      "anonymous": false,
      "inputs": [
        {
          "indexed": false,
          "internalType": "uint256",
          "name": "tokenId",
          "type": "uint256"
        },
        {
          "indexed": false,
          "internalType": "uint256",
          "name": "slot",
          "type": "uint256"
        },
        {
          "indexed": false,
          "internalType": "uint256",
          "name": "value",
          "type": "uint256"
        }
      ],
      "name": "MintServiceToken",
      "type": "event"
    },
    {
      "anonymous": false,
      "inputs": [
        {
          "indexed": false,
          "internalType": "uint256",
          "name": "newTokenId",
          "type": "uint256"
        },
        {
          "indexed": false,
          "internalType": "uint256",
          "name": "slot",
          "type": "uint256"
        },
        {
          "indexed": false,
          "internalType": "uint256",
          "name": "value",
          "type": "uint256"
        }
      ],
      "name": "MintServiceTokenToAddress",
      "type": "event"
    },
    {
      "anonymous": false,
      "inputs": [
        {
          "indexed": true,
          "internalType": "bytes32",
          "name": "role",
          "type": "bytes32"
        },
        {
          "indexed": true,
          "internalType": "bytes32",
          "name": "previousAdminRole",
          "type": "bytes32"
        },
        {
          "indexed": true,
          "internalType": "bytes32",
          "name": "newAdminRole",
          "type": "bytes32"
        }
      ],
      "name": "RoleAdminChanged",
      "type": "event"
    },
    {
      "anonymous": false,
      "inputs": [
        {
          "indexed": true,
          "internalType": "bytes32",
          "name": "role",
          "type": "bytes32"
        },
        {
          "indexed": true,
          "internalType": "address",
          "name": "account",
          "type": "address"
        },
        {
          "indexed": true,
          "internalType": "address",
          "name": "sender",
          "type": "address"
        }
      ],
      "name": "RoleGranted",
      "type": "event"
    },
    {
      "anonymous": false,
      "inputs": [
        {
          "indexed": true,
          "internalType": "bytes32",
          "name": "role",
          "type": "bytes32"
        },
        {
          "indexed": true,
          "internalType": "address",
          "name": "account",
          "type": "address"
        },
        {
          "indexed": true,
          "internalType": "address",
          "name": "sender",
          "type": "address"
        }
      ],
      "name": "RoleRevoked",
      "type": "event"
    },
    {
      "anonymous": false,
      "inputs": [
        {
          "indexed": true,
          "internalType": "address",
          "name": "metadataDescriptor",
          "type": "address"
        }
      ],
      "name": "SetMetadataDescriptor",
      "type": "event"
    },
    {
      "anonymous": false,
      "inputs": [
        {
          "indexed": true,
          "internalType": "uint256",
          "name": "_tokenId",
          "type": "uint256"
        },
        {
          "indexed": true,
          "internalType": "uint256",
          "name": "_oldSlot",
          "type": "uint256"
        },
        {
          "indexed": true,
          "internalType": "uint256",
          "name": "_newSlot",
          "type": "uint256"
        }
      ],
      "name": "SlotChanged",
      "type": "event"
    },
    {
      "anonymous": false,
      "inputs": [
        {
          "indexed": true,
          "internalType": "address",
          "name": "_from",
          "type": "address"
        },
        {
          "indexed": true,
          "internalType": "address",
          "name": "_to",
          "type": "address"
        },
        {
          "indexed": true,
          "internalType": "uint256",
          "name": "_tokenId",
          "type": "uint256"
        }
      ],
      "name": "Transfer",
      "type": "event"
    },
    {
      "anonymous": false,
      "inputs": [
        {
          "indexed": true,
          "internalType": "uint256",
          "name": "_fromTokenId",
          "type": "uint256"
        },
        {
          "indexed": true,
          "internalType": "uint256",
          "name": "_toTokenId",
          "type": "uint256"
        },
        {
          "indexed": false,
          "internalType": "uint256",
          "name": "_value",
          "type": "uint256"
        }
      ],
      "name": "TransferValue",
      "type": "event"
    },
    {
      "anonymous": false,
      "inputs": [
        {
          "indexed": false,
          "internalType": "uint256",
          "name": "fromTokenId",
          "type": "uint256"
        },
        {
          "indexed": false,
          "internalType": "uint256",
          "name": "toTokenId",
          "type": "uint256"
        },
        {
          "indexed": false,
          "internalType": "uint256",
          "name": "value",
          "type": "uint256"
        }
      ],
      "name": "ValueTransfer",
      "type": "event"
    },
    {
      "inputs": [],
      "name": "DEFAULT_ADMIN_ROLE",
      "outputs": [
        {
          "internalType": "bytes32",
          "name": "",
          "type": "bytes32"
        }
      ],
      "stateMutability": "view",
      "type": "function"
    },
    {
      "inputs": [],
      "name": "MKT_ARBITRATOR_ROLE",
      "outputs": [
        {
          "internalType": "bytes32",
          "name": "",
          "type": "bytes32"
        }
      ],
      "stateMutability": "view",
      "type": "function"
    },
    {
      "inputs": [],
      "name": "SERVICE_ADMIN_ROLE",
      "outputs": [
        {
          "internalType": "bytes32",
          "name": "",
          "type": "bytes32"
        }
      ],
      "stateMutability": "view",
      "type": "function"
    },
    {
      "inputs": [
        {
          "internalType": "string",
          "name": "uri_",
          "type": "string"
        }
      ],
      "name": "_setBaseURI",
      "outputs": [],
      "stateMutability": "nonpayable",
      "type": "function"
    },
    {
      "inputs": [
        {
          "internalType": "uint256",
          "name": "tokenId_",
          "type": "uint256"
        },
        {
          "internalType": "address",
          "name": "operator_",
          "type": "address"
        }
      ],
      "name": "allowance",
      "outputs": [
        {
          "internalType": "uint256",
          "name": "",
          "type": "uint256"
        }
      ],
      "stateMutability": "view",
      "type": "function"
    },
    {
      "inputs": [
        {
          "internalType": "address",
          "name": "to_",
          "type": "address"
        },
        {
          "internalType": "uint256",
          "name": "tokenId_",
          "type": "uint256"
        }
      ],
      "name": "approve",
      "outputs": [],
      "stateMutability": "payable",
      "type": "function"
    },
    {
      "inputs": [
        {
          "internalType": "uint256",
          "name": "tokenId_",
          "type": "uint256"
        },
        {
          "internalType": "address",
          "name": "to_",
          "type": "address"
        },
        {
          "internalType": "uint256",
          "name": "value_",
          "type": "uint256"
        }
      ],
      "name": "approve",
      "outputs": [],
      "stateMutability": "payable",
      "type": "function"
    },
    {
      "inputs": [
        {
          "internalType": "address",
          "name": "owner_",
          "type": "address"
        }
      ],
      "name": "balanceOf",
      "outputs": [
        {
          "internalType": "uint256",
          "name": "balance",
          "type": "uint256"
        }
      ],
      "stateMutability": "view",
      "type": "function"
    },
    {
      "inputs": [
        {
          "internalType": "uint256",
          "name": "tokenId_",
          "type": "uint256"
        }
      ],
      "name": "balanceOf",
      "outputs": [
        {
          "internalType": "uint256",
          "name": "",
          "type": "uint256"
        }
      ],
      "stateMutability": "view",
      "type": "function"
    },
    {
      "inputs": [],
      "name": "contractAdmin",
      "outputs": [
        {
          "internalType": "address",
          "name": "",
          "type": "address"
        }
      ],
      "stateMutability": "view",
      "type": "function"
    },
    {
      "inputs": [],
      "name": "contractURI",
      "outputs": [
        {
          "internalType": "string",
          "name": "",
          "type": "string"
        }
      ],
      "stateMutability": "view",
      "type": "function"
    },
    {
      "inputs": [],
      "name": "creditType",
      "outputs": [
        {
          "internalType": "string",
          "name": "",
          "type": "string"
        }
      ],
      "stateMutability": "view",
      "type": "function"
    },
    {
      "inputs": [],
      "name": "defaultSlot",
      "outputs": [
        {
          "internalType": "uint256",
          "name": "",
          "type": "uint256"
        }
      ],
      "stateMutability": "view",
      "type": "function"
    },
    {
      "inputs": [
        {
          "internalType": "uint256",
          "name": "tokenId_",
          "type": "uint256"
        }
      ],
      "name": "getApproved",
      "outputs": [
        {
          "internalType": "address",
          "name": "",
          "type": "address"
        }
      ],
      "stateMutability": "view",
      "type": "function"
    },
    {
      "inputs": [
        {
          "internalType": "bytes32",
          "name": "role",
          "type": "bytes32"
        }
      ],
      "name": "getRoleAdmin",
      "outputs": [
        {
          "internalType": "bytes32",
          "name": "",
          "type": "bytes32"
        }
      ],
      "stateMutability": "view",
      "type": "function"
    },
    {
      "inputs": [
        {
          "internalType": "uint256",
          "name": "tokenId",
          "type": "uint256"
        }
      ],
      "name": "getTokenDescription",
      "outputs": [
        {
          "internalType": "string",
          "name": "",
          "type": "string"
        }
      ],
      "stateMutability": "view",
      "type": "function"
    },
    {
      "inputs": [
        {
          "internalType": "uint256",
          "name": "tokenId",
          "type": "uint256"
        }
      ],
      "name": "getTokenImage",
      "outputs": [
        {
          "internalType": "string",
          "name": "",
          "type": "string"
        }
      ],
      "stateMutability": "view",
      "type": "function"
    },
    {
      "inputs": [
        {
          "internalType": "uint256",
          "name": "tokenId",
          "type": "uint256"
        }
      ],
      "name": "getTokenUUID",
      "outputs": [
        {
          "internalType": "string",
          "name": "",
          "type": "string"
        }
      ],
      "stateMutability": "view",
      "type": "function"
    },
    {
      "inputs": [
        {
          "internalType": "bytes32",
          "name": "role",
          "type": "bytes32"
        },
        {
          "internalType": "address",
          "name": "account",
          "type": "address"
        }
      ],
      "name": "grantRole",
      "outputs": [],
      "stateMutability": "nonpayable",
      "type": "function"
    },
    {
      "inputs": [
        {
          "internalType": "bytes32",
          "name": "role",
          "type": "bytes32"
        },
        {
          "internalType": "address",
          "name": "account",
          "type": "address"
        }
      ],
      "name": "hasRole",
      "outputs": [
        {
          "internalType": "bool",
          "name": "",
          "type": "bool"
        }
      ],
      "stateMutability": "view",
      "type": "function"
    },
    {
      "inputs": [
        {
          "internalType": "address",
          "name": "owner_",
          "type": "address"
        },
        {
          "internalType": "address",
          "name": "operator_",
          "type": "address"
        }
      ],
      "name": "isApprovedForAll",
      "outputs": [
        {
          "internalType": "bool",
          "name": "",
          "type": "bool"
        }
      ],
      "stateMutability": "view",
      "type": "function"
    },
    {
      "inputs": [
        {
          "internalType": "uint256",
          "name": "expiration_",
          "type": "uint256"
        },
        {
          "internalType": "uint256",
          "name": "tokenId_",
          "type": "uint256"
        },
        {
          "internalType": "uint256",
          "name": "price_",
          "type": "uint256"
        },
        {
          "internalType": "string",
          "name": "assetId_",
          "type": "string"
        },
        {
          "internalType": "string",
          "name": "side_",
          "type": "string"
        }
      ],
      "name": "listOffer",
      "outputs": [],
      "stateMutability": "nonpayable",
      "type": "function"
    },
    {
      "inputs": [],
      "name": "metadataDescriptor",
      "outputs": [
        {
          "internalType": "contract IERC3525MetadataDescriptor",
          "name": "",
          "type": "address"
        }
      ],
      "stateMutability": "view",
      "type": "function"
    },
    {
      "inputs": [
        {
          "internalType": "address",
          "name": "owner_",
          "type": "address"
        },
        {
          "internalType": "uint256",
          "name": "slot_",
          "type": "uint256"
        },
        {
          "internalType": "uint256",
          "name": "value_",
          "type": "uint256"
        },
        {
          "internalType": "string",
          "name": "uuid_",
          "type": "string"
        },
        {
          "internalType": "string",
          "name": "tokenDescription_",
          "type": "string"
        },
        {
          "internalType": "string",
          "name": "tokenImage_",
          "type": "string"
        },
        {
          "internalType": "string",
          "name": "property_",
          "type": "string"
        }
      ],
      "name": "mint",
      "outputs": [
        {
          "internalType": "uint256",
          "name": "",
          "type": "uint256"
        }
      ],
      "stateMutability": "nonpayable",
      "type": "function"
    },
    {
      "inputs": [
        {
          "internalType": "address",
          "name": "owner_",
          "type": "address"
        },
        {
          "internalType": "uint256",
          "name": "slot_",
          "type": "uint256"
        },
        {
          "internalType": "uint256",
          "name": "countValue_",
          "type": "uint256"
        },
        {
          "internalType": "uint256",
          "name": "paidValue_",
          "type": "uint256"
        },
        {
          "internalType": "string",
          "name": "uuid_",
          "type": "string"
        },
        {
          "internalType": "string",
          "name": "tokenDescription_",
          "type": "string"
        },
        {
          "internalType": "string",
          "name": "tokenImage_",
          "type": "string"
        },
        {
          "internalType": "string",
          "name": "property_",
          "type": "string"
        }
      ],
      "name": "mintCounts",
      "outputs": [
        {
          "internalType": "uint256",
          "name": "",
          "type": "uint256"
        }
      ],
      "stateMutability": "nonpayable",
      "type": "function"
    },
    {
      "inputs": [
        {
          "internalType": "address",
          "name": "owner_",
          "type": "address"
        },
        {
          "internalType": "uint256",
          "name": "expiration_",
          "type": "uint256"
        },
        {
          "internalType": "uint256",
          "name": "tokenId_",
          "type": "uint256"
        },
        {
          "internalType": "uint256",
          "name": "price_",
          "type": "uint256"
        },
        {
          "internalType": "string",
          "name": "assetId_",
          "type": "string"
        },
        {
          "internalType": "string",
          "name": "side_",
          "type": "string"
        }
      ],
      "name": "mktListOffer",
      "outputs": [],
      "stateMutability": "nonpayable",
      "type": "function"
    },
    {
      "inputs": [],
      "name": "name",
      "outputs": [
        {
          "internalType": "string",
          "name": "",
          "type": "string"
        }
      ],
      "stateMutability": "view",
      "type": "function"
    },
    {
      "inputs": [
        {
          "internalType": "uint256",
          "name": "tokenId_",
          "type": "uint256"
        }
      ],
      "name": "networkId",
      "outputs": [
        {
          "internalType": "uint256",
          "name": "",
          "type": "uint256"
        }
      ],
      "stateMutability": "view",
      "type": "function"
    },
    {
      "inputs": [
        {
          "internalType": "address",
          "name": "owner_",
          "type": "address"
        },
        {
          "internalType": "uint256",
          "name": "slot_",
          "type": "uint256"
        },
        {
          "internalType": "uint256",
          "name": "value_",
          "type": "uint256"
        },
        {
          "internalType": "uint256",
          "name": "discountBasisPts_",
          "type": "uint256"
        },
        {
          "internalType": "string",
          "name": "uuid_",
          "type": "string"
        },
        {
          "internalType": "string",
          "name": "tokenDescription_",
          "type": "string"
        },
        {
          "internalType": "string",
          "name": "tokenImage_",
          "type": "string"
        },
        {
          "internalType": "string",
          "name": "property_",
          "type": "string"
        }
      ],
      "name": "networkMintWithDiscount",
      "outputs": [
        {
          "internalType": "uint256",
          "name": "",
          "type": "uint256"
        }
      ],
      "stateMutability": "nonpayable",
      "type": "function"
    },
    {
      "inputs": [
        {
          "internalType": "address",
          "name": "owner_",
          "type": "address"
        },
        {
          "internalType": "uint256",
          "name": "slot_",
          "type": "uint256"
        },
        {
          "internalType": "uint256",
          "name": "value_",
          "type": "uint256"
        },
        {
          "internalType": "uint256",
          "name": "valueRate_",
          "type": "uint256"
        },
        {
          "internalType": "string",
          "name": "uuid_",
          "type": "string"
        },
        {
          "internalType": "string",
          "name": "tokenDescription_",
          "type": "string"
        },
        {
          "internalType": "string",
          "name": "tokenImage_",
          "type": "string"
        },
        {
          "internalType": "string",
          "name": "property_",
          "type": "string"
        }
      ],
      "name": "networkMintWithValueRate",
      "outputs": [
        {
          "internalType": "uint256",
          "name": "",
          "type": "uint256"
        }
      ],
      "stateMutability": "nonpayable",
      "type": "function"
    },
    {
      "inputs": [
        {
          "internalType": "uint256",
          "name": "tokenId_",
          "type": "uint256"
        }
      ],
      "name": "ownerOf",
      "outputs": [
        {
          "internalType": "address",
          "name": "owner_",
          "type": "address"
        }
      ],
      "stateMutability": "view",
      "type": "function"
    },
    {
      "inputs": [
        {
          "internalType": "uint256",
          "name": "tokenId_",
          "type": "uint256"
        },
        {
          "internalType": "uint256",
          "name": "slotId_",
          "type": "uint256"
        },
        {
          "internalType": "uint256",
          "name": "value_",
          "type": "uint256"
        }
      ],
      "name": "redeem",
      "outputs": [],
      "stateMutability": "nonpayable",
      "type": "function"
    },
    {
      "inputs": [
        {
          "internalType": "uint256",
          "name": "slotId_",
          "type": "uint256"
        }
      ],
      "name": "registerOnSlot",
      "outputs": [],
      "stateMutability": "nonpayable",
      "type": "function"
    },
    {
      "inputs": [
        {
          "internalType": "bytes32",
          "name": "role",
          "type": "bytes32"
        },
        {
          "internalType": "address",
          "name": "account",
          "type": "address"
        }
      ],
      "name": "renounceRole",
      "outputs": [],
      "stateMutability": "nonpayable",
      "type": "function"
    },
    {
      "inputs": [
        {
          "internalType": "bytes32",
          "name": "role",
          "type": "bytes32"
        },
        {
          "internalType": "address",
          "name": "account",
          "type": "address"
        }
      ],
      "name": "revokeRole",
      "outputs": [],
      "stateMutability": "nonpayable",
      "type": "function"
    },
    {
      "inputs": [
        {
          "internalType": "address",
          "name": "from_",
          "type": "address"
        },
        {
          "internalType": "address",
          "name": "to_",
          "type": "address"
        },
        {
          "internalType": "uint256",
          "name": "tokenId_",
          "type": "uint256"
        }
      ],
      "name": "safeTransferFrom",
      "outputs": [],
      "stateMutability": "payable",
      "type": "function"
    },
    {
      "inputs": [
        {
          "internalType": "address",
          "name": "from_",
          "type": "address"
        },
        {
          "internalType": "address",
          "name": "to_",
          "type": "address"
        },
        {
          "internalType": "uint256",
          "name": "tokenId_",
          "type": "uint256"
        },
        {
          "internalType": "bytes",
          "name": "data_",
          "type": "bytes"
        }
      ],
      "name": "safeTransferFrom",
      "outputs": [],
      "stateMutability": "payable",
      "type": "function"
    },
    {
      "inputs": [
        {
          "internalType": "address",
          "name": "operator_",
          "type": "address"
        },
        {
          "internalType": "bool",
          "name": "approved_",
          "type": "bool"
        }
      ],
      "name": "setApprovalForAll",
      "outputs": [],
      "stateMutability": "nonpayable",
      "type": "function"
    },
    {
      "inputs": [
        {
          "internalType": "uint256",
          "name": "tokenId_",
          "type": "uint256"
        }
      ],
      "name": "slotOf",
      "outputs": [
        {
          "internalType": "uint256",
          "name": "",
          "type": "uint256"
        }
      ],
      "stateMutability": "view",
      "type": "function"
    },
    {
      "inputs": [
        {
          "internalType": "uint256",
          "name": "slot_",
          "type": "uint256"
        }
      ],
      "name": "slotURI",
      "outputs": [
        {
          "internalType": "string",
          "name": "",
          "type": "string"
        }
      ],
      "stateMutability": "view",
      "type": "function"
    },
    {
      "inputs": [
        {
          "internalType": "bytes4",
          "name": "interfaceId",
          "type": "bytes4"
        }
      ],
      "name": "supportsInterface",
      "outputs": [
        {
          "internalType": "bool",
          "name": "",
          "type": "bool"
        }
      ],
      "stateMutability": "view",
      "type": "function"
    },
    {
      "inputs": [],
      "name": "symbol",
      "outputs": [
        {
          "internalType": "string",
          "name": "",
          "type": "string"
        }
      ],
      "stateMutability": "view",
      "type": "function"
    },
    {
      "inputs": [
        {
          "internalType": "uint256",
          "name": "index_",
          "type": "uint256"
        }
      ],
      "name": "tokenByIndex",
      "outputs": [
        {
          "internalType": "uint256",
          "name": "",
          "type": "uint256"
        }
      ],
      "stateMutability": "view",
      "type": "function"
    },
    {
      "inputs": [
        {
          "internalType": "address",
          "name": "owner_",
          "type": "address"
        },
        {
          "internalType": "uint256",
          "name": "index_",
          "type": "uint256"
        }
      ],
      "name": "tokenOfOwnerByIndex",
      "outputs": [
        {
          "internalType": "uint256",
          "name": "",
          "type": "uint256"
        }
      ],
      "stateMutability": "view",
      "type": "function"
    },
    {
      "inputs": [
        {
          "internalType": "uint256",
          "name": "tokenId_",
          "type": "uint256"
        }
      ],
      "name": "tokenURI",
      "outputs": [
        {
          "internalType": "string",
          "name": "",
          "type": "string"
        }
      ],
      "stateMutability": "view",
      "type": "function"
    },
    {
      "inputs": [],
      "name": "totalBalance",
      "outputs": [
        {
          "internalType": "uint256",
          "name": "",
          "type": "uint256"
        }
      ],
      "stateMutability": "view",
      "type": "function"
    },
    {
      "inputs": [],
      "name": "totalSupply",
      "outputs": [
        {
          "internalType": "uint256",
          "name": "",
          "type": "uint256"
        }
      ],
      "stateMutability": "view",
      "type": "function"
    },
    {
      "inputs": [
        {
          "internalType": "uint256",
          "name": "fromTokenId_",
          "type": "uint256"
        },
        {
          "internalType": "address",
          "name": "to_",
          "type": "address"
        },
        {
          "internalType": "uint256",
          "name": "value_",
          "type": "uint256"
        }
      ],
      "name": "transferFrom",
      "outputs": [
        {
          "internalType": "uint256",
          "name": "",
          "type": "uint256"
        }
      ],
      "stateMutability": "payable",
      "type": "function"
    },
    {
      "inputs": [
        {
          "internalType": "address",
          "name": "from_",
          "type": "address"
        },
        {
          "internalType": "address",
          "name": "to_",
          "type": "address"
        },
        {
          "internalType": "uint256",
          "name": "tokenId_",
          "type": "uint256"
        }
      ],
      "name": "transferFrom",
      "outputs": [],
      "stateMutability": "payable",
      "type": "function"
    },
    {
      "inputs": [
        {
          "internalType": "uint256",
          "name": "fromTokenId_",
          "type": "uint256"
        },
        {
          "internalType": "uint256",
          "name": "toTokenId_",
          "type": "uint256"
        },
        {
          "internalType": "uint256",
          "name": "value_",
          "type": "uint256"
        }
      ],
      "name": "transferFrom",
      "outputs": [],
      "stateMutability": "payable",
      "type": "function"
    },
    {
      "inputs": [
        {
          "internalType": "string",
          "name": "assetId_",
          "type": "string"
        },
        {
          "internalType": "string",
          "name": "side_",
          "type": "string"
        }
      ],
      "name": "validOffers",
      "outputs": [
        {
          "components": [
            {
              "internalType": "uint256",
              "name": "offerId",
              "type": "uint256"
            },
            {
              "internalType": "address",
              "name": "owner",
              "type": "address"
            },
            {
              "internalType": "string",
              "name": "side",
              "type": "string"
            },
            {
              "internalType": "uint256",
              "name": "price",
              "type": "uint256"
            },
            {
              "internalType": "uint256",
              "name": "tokenId",
              "type": "uint256"
            },
            {
              "internalType": "uint256",
              "name": "expiration",
              "type": "uint256"
            }
          ],
          "internalType": "struct Service.Offer[]",
          "name": "",
          "type": "tuple[]"
        }
      ],
      "stateMutability": "view",
      "type": "function"
    },
    {
      "inputs": [],
      "name": "valueContractAddress",
      "outputs": [
        {
          "internalType": "address",
          "name": "",
          "type": "address"
        }
      ],
      "stateMutability": "view",
      "type": "function"
    },
    {
      "inputs": [],
      "name": "valueDecimals",
      "outputs": [
        {
          "internalType": "uint8",
          "name": "",
          "type": "uint8"
        }
      ],
      "stateMutability": "view",
      "type": "function"
    }
  ],
  "bytecode": "0x6080806040523462000a6b5760009062008019803803809162000023828562000aa2565b833981016101c08282031262000a67576200003e8262000ac6565b6200004c6020840162000ac6565b926200005b6040820162000ac6565b936200006a6060830162000ac6565b95620000796080840162000ac6565b956200008860a0850162000ac6565b9060c08501519660e086015160018060401b03811162000a635781620000b091880162000b00565b6101008701519093906001600160401b03811162000a5f5782620000d691890162000b00565b6101208801519099906001600160401b03811162000a5b5783620000fc918a0162000b00565b6101408901519095906001600160401b0381116200076a578462000122918b0162000b00565b6101608a01519093906001600160401b03811162000a53578562000148918c0162000b00565b6101808b01519095906001600160401b03811162000a57576101a09162000171918d0162000b00565b9a01519b60ff8d168d0362000a5357604051926200018f8462000a70565b6006845265636f756e747360d01b60208501528051906001600160401b03821162000a3f578a54600181811c9116801562000a34575b602082101462000a20579081601f849311620009cc575b50602090601f83116001146200095e578c9262000952575b50508160011b916000199060031b1c19161789555b8051906001600160401b0382116200093e57600154600181811c9116801562000933575b60208210146200091f579081601f849311620008bf575b50602090601f831160011462000843578b9262000837575b50508160011b916000199060031b1c1916176001555b6002805460ff191660ff8e16179055600b80546001600160a01b03199081166001600160a01b0393841617909155600c849055600a805482168b8416179055600d80548216888416179055600e8054909116918f169190911790556010546040518251919291602080830192916200030491908390620002f68187858a0162000adb565b810103808452018262000aa2565b5190206040516374696d6560e01b602082015260048152620003268162000a70565b6020815191012014600014620007825750865b60048110156200076e576001600160a81b031982166001600160a01b03808f169190911760a083901b60ff60a01b161760105586163b156200076a576040516394b39b0960e01b81526001600160a01b038a8116600480840191909152602483019590955290936001600160a81b0319909316908e161760a091821b60ff60a01b1617901c60ff1690811015620007565760448201528581606481836001600160a01b0389165af180156200074b576200071a575b50604051936001600160401b036120b78601908111908611176200070657916200044f6200046692620004388796956120b762005f22893960806120b78901818152019062000b5b565b906120b78701820360206120b78901015262000b5b565b906120b78501820360406120b78701015262000b5b565b6001600160a01b039091166120b7830160600152039082f08015620006f95760018060a01b031660018060a01b0319600854161760085560018060a01b03600b54167f1cd6d520d98babae1045eb69c31ecab800996aa332094cb55c0ac10362e9b0c9908183526009602052604083208160005260205260ff6040600020541615620006b9575b50507f9a95e87c5af084bf5db8491c3a6515da9dd6da39b24b0eb0af08d7b9cd808d9180825260096020526040822060018060a01b03841660005260205260ff604060002054161562000668575b5050507f9ac4f8025631594629895b778dc5ee88d01673a254a2291f6b6b174ad25230ca602060018060a01b0360085416604051908152a160208151910120600460206040516200058c8162000a70565b82815201635553444360e01b81522014600014620005fd57601680546001600160a01b03199081166001600160a01b03958616179091556017805482169285169290921790915560ff91909116601555601a80549091169290911691909117905560405161539f908162000b838239f35b60405162461bcd60e51b815260206004820152603660248201527f436173684372656469743a204f6e6c79205553444320756e6465726c79696e6760448201527f20616363657074656420617420746869732074696d65000000000000000000006064820152608490fd5b8082526009602090815260408084206001600160a01b0395909516600081815295909252909320805460ff1916600117905533929160008051602062007fd98339815191529080a43880806200053b565b818352600960205260408320816000526020526040600020600160ff19825416179055339160008051602062007fd98339815191528480a43880620004ed565b50604051903d90823e3d90fd5b634e487b7160e01b86526041600452602486fd5b9094906001600160401b03811162000737576040529338620003ee565b634e487b7160e01b82526041600452602482fd5b6040513d88823e3d90fd5b634e487b7160e01b87526021600452602487fd5b8780fd5b634e487b7160e01b88526021600452602488fd5b6040516020810190620007a26020828551620002f68187858a0162000adb565b5190206040516020810190630c6c2e6d60e31b825260048152620007c68162000a70565b51902003620007d85750600162000339565b604051620007f860208281620002f6818301968781519384920162000adb565b519020604051602081019065636f756e747360d01b8252600681526200081e8162000a70565b519020036200082f57600262000339565b600362000339565b0151905038806200025c565b60018c528b935060008051602062007ff983398151915291905b601f1984168510620008a3576001945083601f1981161062000889575b505050811b0160015562000272565b015160001960f88460031b161c191690553880806200087a565b818101518355602094850194600190930192909101906200085d565b60018c5290915060008051602062007ff9833981519152601f840160051c81016020851062000917575b90849392915b8d601f840160051c83018210620009095750505062000244565b8155859450600101620008ef565b5080620008e9565b634e487b7160e01b8b52602260045260248bfd5b90607f16906200022d565b634e487b7160e01b8a52604160045260248afd5b015190503880620001f4565b92508b805260208c20908c935b601f1984168510620009b0576001945083601f1981161062000996575b505050811b01895562000209565b015160001960f88460031b161c1916905538808062000988565b818101518355602094850194600190930192909101906200096b565b9091508b805260208c20601f840160051c81016020851062000a18575b84939291908e5b601f840160051c8301821062000a0957505050620001dc565b81558594506001018e620009f0565b5080620009e9565b634e487b7160e01b8c52602260045260248cfd5b90607f1690620001c5565b634e487b7160e01b8b52604160045260248bfd5b8880fd5b8980fd5b8680fd5b8580fd5b8480fd5b8280fd5b600080fd5b604081019081106001600160401b0382111762000a8c57604052565b634e487b7160e01b600052604160045260246000fd5b601f909101601f19168101906001600160401b0382119082101762000a8c57604052565b51906001600160a01b038216820362000a6b57565b60005b83811062000aef5750506000910152565b818101518382015260200162000ade565b81601f8201121562000a6b5780516001600160401b03811162000a8c576040519262000b37601f8301601f19166020018562000aa2565b8184526020828401011162000a6b5762000b58916020808501910162000adb565b90565b9060209162000b768151809281855285808601910162000adb565b601f01601f191601019056fe608080604052600436101561001357600080fd5b600090813560e01c90816301ffc9a714612ae95750806303e2095314612ac657806306fdde03146129f7578063081812fc146129d8578063095ea7b3146128a257806309c3dd87146125d05780630f485c02146125bc5780631375d843146125565780631429fb57146124bb57806318160ddd1461249d57806323b872dd146124785780632425eeaf14612121578063248a9ca3146120f4578063263f3e7e146120d55780632f2ff15d146120265780632f745c5914611f7d578063310ed7f014611aa557806331b5b90714611a1357806336568abe146119805780633e7e86691461195f5780633f5d70671461173657806341815ee41461163b57806342842e0e146116185780634c1de213146115e55780634f6ccce714611560578063505a3853146115425780636352211e1461151157806370a08231146114ed57806371f0442e14611487578063779552451461145e578063840f711314611435578063865112ce146112e45780638cb0a511146111a257806391d148541461115657806395d89b41146110775780639cc7f70814611058578063a217fddf1461103c578063a22cb46514610f67578063a7c9f2d614610f2c578063aa20ce5514610c90578063ad7a672f14610c72578063b198fc5414610c49578063b3154c0814610be3578063b8192205146108a8578063b88d4fde14610849578063be950a6214610700578063c87b56dd1461066b578063cf2d6fe6146103fc578063d09445c2146103c1578063d547741f14610380578063e345e0bc14610351578063e8a3d485146102c15763e985e9c51461026857600080fd5b346102be5760403660031901126102be57610281612b3e565b6002604061028d612b54565b9360018060a01b038094168152600760205220019116600052602052602060ff604060002054166040519015158152f35b80fd5b50346102be57806003193601126102be57600854604051631c97e82760e21b8152908290829060049082906001600160a01b03165afa908115610346578261031f9392610323575b5050604051918291602083526020830190612d2c565b0390f35b61033f92503d8091833e6103378183612be4565b810190613314565b3880610309565b6040513d84823e3d90fd5b50346102be5760403660031901126102be576020610378610370612b54565b60043561529e565b604051908152f35b50346102be5760403660031901126102be576103be6004356103a0612b54565b9080845260096020526103b96001604086200154612dca565b6130ff565b80f35b50346102be57806003193601126102be5760206040517f9a95e87c5af084bf5db8491c3a6515da9dd6da39b24b0eb0af08d7b9cd808d918152f35b50346102be5760c03660031901126102be57610416612b3e565b6064356001600160401b0360843581811161066757610439903690600401612c57565b9060a43581811161066357610452903690600401612c57565b93600f549461046086613a24565b600f5583516020809501209283885260139283865260408920888a5286526001908160408b20019060018060a01b03166001600160601b0360a01b82541617905584895283865260408920888a5286528760408a205584895283865260408920888a528652600260408a200192805192831161064f576104e084546131d2565b601f8111610616575b5086908a601f851160011461059c57936040999795938193829360008051602061534a8339815191529d9b999794610591575b50501b916000199060031b1c19161790555b81885280835285882085895283526024356005878a20015581885280835285882085895283526044356004878a2001558188528252848720848852825282600386892001558652601481526105858385882061398d565b8351928352820152a180f35b01519250388061051c565b50848b52878b209293929190601f1984168c5b81811061060157509160008051602061534a8339815191529b99979593918560409c9a989694106105e8575b505050811b01905561052e565b015160001960f88460031b161c191690553880806105db565b82840151855593860193928a01928a016105af565b61063f90858c52888c20601f860160051c8101918a8710610645575b601f0160051c0190613a33565b386104e9565b9091508190610632565b634e487b7160e01b8a52604160045260248afd5b8580fd5b8480fd5b50346102be5760203660031901126102be5760043561068981615058565b80156106ec575b61069990613549565b6008546040516344a5a61760e11b815260048101929092528290829060249082906001600160a01b03165afa908115610346578261031f9392610323575050604051918291602083526020830190612d2c565b506106996106f982615086565b9050610690565b50346102be5760203660031901126102be577f9a95e87c5af084bf5db8491c3a6515da9dd6da39b24b0eb0af08d7b9cd808d9181526009602052604081203360005260205260ff60406000205416156107de5760018060a01b039081600d541691600a541660ff60105460a01c16833b156107da57604051916394b39b0960e01b83526004830152600435602483015260048110156107c65781606481858097819560448401525af18015610346576107b65750f35b6107bf90612b9b565b6102be5780f35b634e487b7160e01b83526021600452602483fd5b8280fd5b60405162461bcd60e51b815260206004820152603760248201527f53656e646572206e6f7420617574686f72697a656420746f207265676973746560448201527f7220636f6e747261637420746f207468697320736c6f740000000000000000006064820152608490fd5b5060803660031901126102be5761085e612b3e565b610866612b54565b606435916001600160401b0383116108a457366023840112156108a45761089a6103be933690602481600401359101612c20565b9160443591613472565b8380fd5b50346102be576108b736612db0565b91906108c282613595565b6001600160a01b039190821633148015610ba1575b15610b50578491826108e885615058565b80610b3d575b15610a3e5750838352601960205261091e61090d866040862054613175565b610918601554613bef565b90613372565b60165460175483169216803b1561066757604051632b83cccd60e01b81526001600160a01b03939093166004840152602483019390935260448201529082908290606490829084905af1801561034657610a2a575b505061098182601854613a17565b60185561098d816150fc565b808352600660205260026109a460408520546132b2565b500180548381106109d9578360008051602061532a833981519152926109cd8796602094613a17565b9055604051908152a380f35b60405162461bcd60e51b815260206004820152602360248201527f455243333532353a206275726e2076616c756520657863656564732062616c616044820152626e636560e81b6064820152608490fd5b610a3390612b9b565b6107da578238610973565b610a55856000526011602052604060002054151590565b610a5f575b61091e565b508383526011602090815260408420548015610afd578183601a541691602460405180948193633e1feff960e21b835260048301525afa908115610af25787928692610ab5575b5050610a5a9161090d91613175565b925094505083813d8311610aeb575b610ace8183612be4565b81010312610ae657915185929085908161090d610aa6565b600080fd5b503d610ac4565b6040513d87823e3d90fd5b5060248183601a541660405192838092633e1feff960e21b82528a60048301525afa908115610af25787928692610ab5575050610a5a9161090d91613175565b50610b47856132ed565b600c54146108ee565b60405162461bcd60e51b815260206004820152602360248201527f53656e646572206973206e6f7420617574686f72697a656420746f207265646560448201526232b69760e91b6064820152608490fd5b507f1cd6d520d98babae1045eb69c31ecab800996aa332094cb55c0ac10362e9b0c985526009602052604085203360005260205260ff604060002054166108d7565b50346102be5760203660031901126102be57600854604051631662a98160e31b81526004803590820152908290829060249082906001600160a01b03165afa908115610346578261031f9392610323575050604051918291602083526020830190612d2c565b50346102be57806003193601126102be576010546040516001600160a01b039091168152602090f35b50346102be57806003193601126102be576020601854604051908152f35b50346102be57602081610ca236612c75565b6003805460010190819055600e54604051630151086360e31b81526001600160a01b039a8b166004820152602481019990995260448901979097526064880195909552939893969095919492939192839160849183918b91165af1908115610f21578691610eec575b50868652601160205260408620556008546001600160a01b0316803b1561066357610d5e8692918392604051948580948193632108947560e21b83528d6004840152604060248401526044830190612d2c565b03925af1908115610af2578591610ed8575b50506008546001600160a01b0316803b1561066757610db7859291839260405194858094819363246a908b60e01b83528c6004840152604060248401526044830190612d2c565b03925af1908115610ecd578491610eb9575b50506008546001600160a01b0316803b156108a457610e108492918392604051948580948193630190503b60e61b83528b6004840152604060248401526044830190612d2c565b03925af1908115610e9a578391610ea5575b50506008546001600160a01b031690813b156107da578291610e6891604051948580948193637e468a5160e01b8352896004840152604060248401526044830190612d2c565b03925af18015610e9a57610e82575b602082604051908152f35b610e8c8391612b9b565b610e965781610e77565b5080fd5b6040513d85823e3d90fd5b610eae90612b9b565b610e96578138610e22565b610ec290612b9b565b6107da578238610dc9565b6040513d86823e3d90fd5b610ee190612b9b565b6108a4578338610d70565b9550506020853d602011610f19575b81610f0860209383612be4565b81010312610ae65786945138610d0b565b3d9150610efb565b6040513d88823e3d90fd5b50346102be57806003193601126102be5760206040517f1cd6d520d98babae1045eb69c31ecab800996aa332094cb55c0ac10362e9b0c98152f35b50346102be5760403660031901126102be57610f81612b3e565b602435908115158092036107da576001600160a01b031690338214610ff75733835260076020526002604084200182600052602052604060002060ff1981541660ff83161790556040519081527f17307eab39ab6107e8899845ad3d59bd9653f200f220920489ca2b5937696c3160203392a380f35b60405162461bcd60e51b815260206004820152601a60248201527f455243333532353a20617070726f766520746f2063616c6c65720000000000006044820152606490fd5b50346102be57806003193601126102be57602090604051908152f35b50346102be5760203660031901126102be57602061037860043561513f565b50346102be57806003193601126102be576040516000600180549061109b826131d2565b8085529181811690811561112f57506001146110d6575b61031f846110c281860382612be4565b604051918291602083526020830190612d2c565b600081815292507fb10e2d527612073b26eecdfd717e6a320cf44b4afac2b0732d9fcbe2b7fa0cf65b8284106111175750505081016020016110c2826110b2565b805460208587018101919091529093019281016110ff565b60ff191660208087019190915292151560051b850190920192506110c291508390506110b2565b50346102be5760403660031901126102be576040611172612b54565b9160043581526009602052209060018060a01b0316600052602052602060ff604060002054166040519015158152f35b506111ac36612d51565b906111b6836150fc565b836111c084615058565b806112d1575b1561126357506111ec6001600160a01b03806111e186613595565b1690831614156134f2565b6111f68333613616565b15611204576103be926148f9565b60405162461bcd60e51b815260206004820152603160248201527f455243333532353a20617070726f76652063616c6c6572206973206e6f74206f6044820152701ddb995c881b9bdc88185c1c1c9bdd9959607a1b6064820152608490fd5b600e54938152601160205260408120549093919290916001600160a01b0316803b1561066757604051638cb0a51160e01b815260048101939093526001600160a01b0393909316602483015260448201529082908290606490829084905af18015610346576107b657505080f35b506112db846132ed565b600c54146111c6565b50346102be578061137d6112f736612c75565b918997939599989496985061131f8a61131a611314601554613bef565b8a613175565b613372565b958a8a88600c5482146000146113d1575061133996613c34565b955b60408051888152602081018890529081018290527faece14be49e112217fca958e740bc3cd03a735e7b72fc6449aa1961c5942966b90606090a160185461319e565b601855848352601960205260408320556016546001600160a01b0316803b156107da57604051630ab714fb60e11b815230600482015260248101949094526044840191909152829081838160648101610e68565b91906113dc97614162565b9586855260116020527f36fba2e6d0870905dade4201d8b7ff8b54c52b9e7de8df1400244d22e0d2384686604087205461142d84604051938493846040919493926060820195825260208201520152565b0390a161133b565b50346102be57806003193601126102be576008546040516001600160a01b039091168152602090f35b50346102be57806003193601126102be57600a546040516001600160a01b039091168152602090f35b50346102be5760203660031901126102be576008546040516338f8221760e11b81526004803590820152908290829060249082906001600160a01b03165afa908115610346578261031f9392610323575050604051918291602083526020830190612d2c565b50346102be5760203660031901126102be57602061037861150c612b3e565b613392565b50346102be5760203660031901126102be5760206115306004356151f1565b6040516001600160a01b039091168152f35b50346102be57806003193601126102be576020600c54604051908152f35b50346102be5760203660031901126102be576004356005548110156115945761158a6020916132b2565b5054604051908152f35b60405162461bcd60e51b815260206004820152602360248201527f455243333532353a20676c6f62616c20696e646578206f7574206f6620626f756044820152626e647360e81b6064820152608490fd5b50346102be5760203660031901126102be576040602091600435611608816150fc565b8152601183522054604051908152f35b506103be61162536612d7b565b906040519261163384612bc9565b858452613472565b50346102be57806003193601126102be5760ff60105460a01c16600481101561172257600381036116a057505061031f60405161167781612bae565b60088152677072696f7269747960c01b6020820152604051918291602083526020830190612d2c565b806116cc57505061031f6040516116b681612bae565b600481526374696d6560e01b60208201526110c2565b6002141590506116fd5761031f6040516116e581612bae565b6006815265636f756e747360d01b60208201526110c2565b61031f60405161170c81612bae565b60048152630c6c2e6d60e31b60208201526110c2565b634e487b7160e01b82526021600452602482fd5b50346102be5760a03660031901126102be576001600160401b036044356064358281116108a45761176b903690600401612c57565b60843583811161066757611783903690600401612c57565b600f549361179085613a24565b600f5582516020809401209182875260139182855260408820878952855260018060408a2001336001600160601b0360a01b82541617905584895283865260408920888a5286528760408a205584895283865260408920888a528652600260408a200192805192831161064f5761180784546131d2565b601f8111611931575b5086908a601f85116001146118b757936040999795938193829360008051602061534a8339815191529d9b9997946118ac575b50501b916000199060031b1c19161790555b81885280835285882085895283526004356005878a20015581885280835285882085895283526024356004878a2001558188528252848720848852825282600386892001558652601481526105858385882061398d565b015192503880611843565b50848b52878b209293929190601f1984168c5b81811061191c57509160008051602061534a8339815191529b99979593918560409c9a98969410611903575b505050811b019055611855565b015160001960f88460031b161c191690553880806118f6565b82840151855593860193928a01928a016118ca565b61195990858c52888c20601f860160051c8101918a871061064557601f0160051c0190613a33565b38611810565b50346102be57806003193601126102be57602060ff60025416604051908152f35b50346102be5760403660031901126102be5761199a612b54565b336001600160a01b038216036119b6576103be906004356130ff565b60405162461bcd60e51b815260206004820152602f60248201527f416363657373436f6e74726f6c3a2063616e206f6e6c792072656e6f756e636560448201526e103937b632b9903337b91039b2b63360891b6064820152608490fd5b50346102be5760203660031901126102be57806004356001600160401b038111611aa257611a45903690600401612c57565b6008546001600160a01b031690813b15611a9e578291611a83916040519485809481936355f804b360e01b8352602060048401526024830190612d2c565b03925af1801561034657611a95575080f35b6103be90612b9b565b5050fd5b50fd5b50611aaf36612db0565b90611ab983615058565b80611f6a575b80611f47575b15611c095782845260196020526040842054818552604085205403611aee575b6103be92614e99565b611b05836000526011602052604060002054151590565b80611bec575b15611b73576103be92611b5f611b208361396c565b8287526019602052610918611b58611b3c8760408b2054613175565b868a526019602052611b528460408c2054613175565b9061319e565b918661319e565b828652601960205260408620559250611ae5565b60405162461bcd60e51b815260206004820152604560248201527f436f756e74734372656469743a2063616c6320636f6e747261637420636f756e60448201527f742d76616c7565207261746520726571756972657320636f6e747261637420746064820152646f6b656e7360d81b608482015260a490fd5b50611c04816000526011602052604060002054151590565b611b0b565b909291611c1581615058565b80611f34575b1580611f0b575b15611eaa5780835260209360118552604084205415611e59579384611c4c60249596601854613a17565b601855601a54604051639448bddb60e01b815260048101869052956001600160a01b039184918891829085165afa958615611e4e578796611e1f575b5083875260118352604087205490611ca1838787614e99565b8115611ddb578381601a541692602460405180958193633e1feff960e21b835260048301525afa918215611dd057849284918a91611d95575b5061090d604492611cea92613175565b978983601654166040519a8b95869463a9059cbb60e01b865216600485015260248401525af1918215610f21577fdf7a601a0a201ccd4b4bfcfd610913188d931867997223d226f85f2f2673988a95611d6193611d67575b5050604051938493846040919493926060820195825260208201520152565b0390a180f35b81611d8692903d10611d8e575b611d7e8183612be4565b810190613c1c565b503880611d42565b503d611d74565b938092508491503d8311611dc9575b611dae8183612be4565b81010312611dc5579051839190839061090d611cda565b8780fd5b503d611da4565b6040513d8a823e3d90fd5b602491508381601a541660405193848092633e1feff960e21b82528960048301525afa918215611dd057849284918a91611d95575061090d604492611cea92613175565b611e40919650833d8511611e47575b611e388183612be4565b810190613bfd565b9438611c88565b503d611e2e565b6040513d89823e3d90fd5b60405162461bcd60e51b8152600481018690526024808201527f436f756e7473546f6b656e3a20696e76616c69642073656e64657220746f6b656044820152631b88125160e21b6064820152608490fd5b60405162461bcd60e51b815260206004820152603360248201527f436f756e74734372656469743a207472616e7366657220746f20746f6b656e206044820152721dda5d1a08191a5999995c995b9d081cdb1bdd606a1b6064820152608490fd5b50611f1582615058565b80611f21575b15611c22565b50611f2b826132ed565b600c5414611f1b565b50611f3e816132ed565b600c5414611c1b565b50611f5181615058565b8015611ac55750611f61816132ed565b600c5414611ac5565b50611f74836132ed565b600c5414611abf565b50346102be5760403660031901126102be57611f97612b3e565b90602435611fa483613392565b811015611fd6576040611fc89260209460018060a01b0316815260078552206135fe565b90546040519160031b1c8152f35b60405162461bcd60e51b815260206004820152602260248201527f455243333532353a206f776e657220696e646578206f7574206f6620626f756e604482015261647360f01b6064820152608490fd5b50346102be5760403660031901126102be57600435612043612b54565b818352600960205261205b6001604085200154612dca565b8183526009602052604083209060018060a01b03169081845260205260ff60408420541615612088578280f35b81835260096020526040832081845260205260408320600160ff1982541617905533917f2f8788117e7eff1d82e926ec794901d17c78024a50270940304540a733656f0d8480a438808280f35b50346102be5760203660031901126102be5760206103786004356132ed565b50346102be5760203660031901126102be5760016040602092600435815260098452200154604051908152f35b50346102be5760403660031901126102be576001600160401b036004358181116107da57612153903690600401612c57565b906024359081116107da5761216c903690600401612c57565b9080516020809201209182845260148252604084206040519081848254918281520191875284872090875b81811061246457505050816121ad910382612be4565b849282810191845b81518110156122735786885260138352604088206121d3828461528a565b518952835260a0604089206040516121ea81612b6a565b81548152600180841b0360018301541686820152600561220c6002840161320c565b9283604084015260038101546060840152600481015460808401520154928391015284815191012086518620149081612269575b50612254575b61224f90613a24565b6121b5565b9461226161224f91613a24565b959050612246565b9050421038612240565b50929391936122818361414b565b9261228f6040519485612be4565b80845261229e601f199161414b565b0182885b82811061242a575050508693875b81518110156123895787895260138452604089206122ce828461528a565b518a52845260408920604051906122e482612b6a565b8054825260018101546001600160a01b03168683015260056123086002830161320c565b9182604085015260038101546060850152600481015460808501520154908160a084015286815191012085518a2014908161237f575b50612353575b5061234e90613a24565b6122b0565b95906123788261236661234e9491613a24565b98612371828a61528a565b528761528a565b5090612344565b905042103861233e565b83898660405191838301848452825180915260408401948060408360051b870101940192955b8287106123bc5785850386f35b909192938280600192603f1989820301855287519081518152848060a01b038383015116838201526123fc604083015160c0806040850152830190612d2c565b91606080820151908301526080808201519083015260a08091015191015296019201960195929190926123af565b60405161243681612b6a565b8a81528a838201528a60608060408401528201528a60808201528a60a08201528282880101520183906122a2565b825484529286019260019283019201612197565b506103be61248536612d7b565b916124986124938433613616565b61340b565b613687565b50346102be57806003193601126102be576020600554604051908152f35b50346102be5760e03660031901126102be576124d5612b3e565b906001600160401b036064358181116107da576124f6903690600401612c57565b6084358281116108a45761250e903690600401612c57565b9160a43581811161066757612527903690600401612c57565b9360c4359182116102be576020610378878787876125483660048a01612c57565b936044359060243590613c34565b50346102be5760203660031901126102be57600854604051631375d84360e01b81526004803590820152908290829060249082906001600160a01b03165afa908115610346578261031f9392610323575050604051918291602083526020830190612d2c565b60206103786125ca36612d51565b916143e0565b50346102be57602090816003193601126102be5760043560018060a01b036008541690604051636c0360eb60e01b81528381600481865afa908115610ecd578491612888575b50821561268757508290602460405180948193633601bfc560e11b835260048301525afa91821561267b578092612660575b5050905b61031f604051928284938452830190612d2c565b61267492503d8091833e6103378183612be4565b3880612648565b604051903d90823e3d90fd5b8051909392501561284f578190807a184f03e93ff9f4daa797ed6e38ed64bf6a1f0100000000000000008181811015612841575b5050856d04ee2d6d415b85acef810000000080841015612833575b5050662386f26fc1000080831015612824575b506305f5e10080831015612815575b5061271080831015612806575b5060648210156127f6575b600a809210156127ec575b6001908160218186019561274761273188612c05565b9761273f604051998a612be4565b808952612c05565b878b019890601f1901368a3750860101905b6127b6575b505050506127a1926127b092602592604051958361278588955180928b8089019101612d09565b84019164736c6f742f60d81b8984015251809386840190612d09565b01036005810184520182612be4565b9061264c565b600019019083906f181899199a1a9b1b9c1cb0b131b232b360811b8282061a8353049182156127e757919082612759565b61275e565b916001019161271b565b9190606460029104910191612710565b60049193920491019138612705565b600891939204910191386126f8565b601091939204910191386126e9565b9301929091049085386126d6565b6040945004915038806126bb565b5060405191508282016001600160401b038111838210176128745760405281526127b0565b634e487b7160e01b82526041600452602482fd5b61289c91503d8086833e6103378183612be4565b38612616565b5060403660031901126102be576128b7612b3e565b602435906001600160a01b0380806128ce85613595565b169216916128de818414156134f2565b8033149081156129b4575b5015612949578284526006602052600461290660408620546132b2565b500180546001600160a01b0319168317905561292183613595565b167f8c5be1e5ebec7d5bd14f71427d1e84f3dd0314c0f7b2291e5b200ac8c7c3b9258480a480f35b60405162461bcd60e51b815260206004820152603960248201527f455243333532353a20617070726f76652063616c6c6572206973206e6f74206f60448201527f776e6572206e6f7220617070726f76656420666f7220616c6c000000000000006064820152608490fd5b9050845260076020526002604085200133855260205260ff604085205416386128e9565b50346102be5760203660031901126102be5760206115306004356135ce565b50346102be57806003193601126102be5760405190808054612a18816131d2565b80855291600191808316908115612a9c5750600114612a42575b61031f856110c281870382612be4565b80809450527f290decd9548b62a8d60345a988386fc84ba6bc95484008f6362f93160ef3e5635b828410612a845750505081016020016110c28261031f612a32565b80546020858701810191909152909301928101612a69565b86955061031f969350602092506110c294915060ff191682840152151560051b8201019293612a32565b50346102be576020610378612ada36612c75565b96959095949194939293614162565b905034610e96576020366003190112610e965760043563ffffffff60e01b81168091036107da5760209250637965db0b60e01b8114908115612b2d575b5015158152f35b6301ffc9a760e01b14905038612b26565b600435906001600160a01b0382168203610ae657565b602435906001600160a01b0382168203610ae657565b60c081019081106001600160401b03821117612b8557604052565b634e487b7160e01b600052604160045260246000fd5b6001600160401b038111612b8557604052565b604081019081106001600160401b03821117612b8557604052565b602081019081106001600160401b03821117612b8557604052565b90601f801991011681019081106001600160401b03821117612b8557604052565b6001600160401b038111612b8557601f01601f191660200190565b929192612c2c82612c05565b91612c3a6040519384612be4565b829481845281830111610ae6578281602093846000960137010152565b9080601f83011215610ae657816020612c7293359101612c20565b90565b610100600319820112610ae6576004356001600160a01b0381168103610ae657916024359160443591606435916001600160401b0390608435828111610ae65781612cc291600401612c57565b9260a435838111610ae65782612cda91600401612c57565b9260c435818111610ae65783612cf291600401612c57565b9260e435918211610ae657612c7291600401612c57565b60005b838110612d1c5750506000910152565b8181015183820152602001612d0c565b90602091612d4581518092818552858086019101612d09565b601f01601f1916010190565b6060906003190112610ae657600435906024356001600160a01b0381168103610ae6579060443590565b6060906003190112610ae6576001600160a01b03906004358281168103610ae657916024359081168103610ae6579060443590565b6060906003190112610ae657600435906024359060443590565b60009080825260209060098252604092838120338252835260ff848220541615612df45750505050565b8351916001600160401b03903360608501838111868210176130eb578752602a855285850191873684378551156130d757603083538551916001928310156130c3576078602188015360295b8381116130595750613017579087519360808501908582109082111761300357885260428452868401946060368737845115612fef57603086538451821015612fef5790607860218601536041915b818311612f8157505050612f3f57612f3b938693612f1f93612f10604894612ee79a519a8b957f416363657373436f6e74726f6c3a206163636f756e74200000000000000000008c8801525180926037880190612d09565b8401917001034b99036b4b9b9b4b733903937b6329607d1b603784015251809386840190612d09565b01036028810187520185612be4565b5192839262461bcd60e51b845260048401526024830190612d2c565b0390fd5b60648587519062461bcd60e51b825280600483015260248201527f537472696e67733a20686578206c656e67746820696e73756666696369656e746044820152fd5b909192600f81166010811015612fdb576f181899199a1a9b1b9c1cb0b131b232b360811b901a612fb185886131ab565b5360041c928015612fc757600019019190612e8f565b634e487b7160e01b82526011600452602482fd5b634e487b7160e01b83526032600452602483fd5b634e487b7160e01b81526032600452602490fd5b634e487b7160e01b86526041600452602486fd5b60648789519062461bcd60e51b825280600483015260248201527f537472696e67733a20686578206c656e67746820696e73756666696369656e746044820152fd5b90600f811660108110156130af576f181899199a1a9b1b9c1cb0b131b232b360811b901a613087838a6131ab565b5360041c90801561309b5760001901612e40565b634e487b7160e01b87526011600452602487fd5b634e487b7160e01b88526032600452602488fd5b634e487b7160e01b86526032600452602486fd5b634e487b7160e01b85526032600452602485fd5b634e487b7160e01b85526041600452602485fd5b906000918083526009602052604083209160018060a01b03169182845260205260ff60408420541661313057505050565b8083526009602052604083208284526020526040832060ff1981541690557ff6391f5c32d9c69d2a47ea670b442974b53935d1edc7fd64eb21e047a839171b339380a4565b8181029291811591840414171561318857565b634e487b7160e01b600052601160045260246000fd5b9190820180921161318857565b9081518110156131bc570160200190565b634e487b7160e01b600052603260045260246000fd5b90600182811c92168015613202575b60208310146131ec57565b634e487b7160e01b600052602260045260246000fd5b91607f16916131e1565b9060405191826000825492613220846131d2565b90818452600194858116908160001461328f575060011461324c575b505061324a92500383612be4565b565b9093915060005260209081600020936000915b81831061327757505061324a9350820101388061323c565b8554888401850152948501948794509183019161325f565b91505061324a94506020925060ff191682840152151560051b820101388061323c565b6005548110156131bc576006906005600052027f036b6384b5eca791c62761152d0c79bb0604c104a5fb6f4eb0703f3154bb3db00190600090565b6132f6816150fc565b6000526006602052600161330e6040600020546132b2565b50015490565b602081830312610ae6578051906001600160401b038211610ae6570181601f82011215610ae657805161334681612c05565b926133546040519485612be4565b81845260208284010111610ae657612c729160208085019101612d09565b811561337c570490565b634e487b7160e01b600052601260045260246000fd5b6001600160a01b031680156133b257600052600760205260406000205490565b60405162461bcd60e51b815260206004820152602b60248201527f455243333532353a2062616c616e636520717565727920666f7220746865207a60448201526a65726f206164647265737360a81b6064820152608490fd5b1561341257565b60405162461bcd60e51b815260206004820152603260248201527f455243333532353a207472616e736665722063616c6c6572206973206e6f74206044820152711bdddb995c881b9bdc88185c1c1c9bdd995960721b6064820152608490fd5b906134969392916134866124938433613616565b613491838383613687565b613ace565b1561349d57565b60405162461bcd60e51b815260206004820152602760248201527f455243333532353a207472616e7366657220746f206e6f6e204552433732315260448201526632b1b2b4bb32b960c91b6064820152608490fd5b156134f957565b60405162461bcd60e51b815260206004820152602260248201527f455243333532353a20617070726f76616c20746f2063757272656e74206f776e60448201526132b960f11b6064820152608490fd5b1561355057565b60405162461bcd60e51b815260206004820152601960248201527f455243333532353a20696e76616c696420746f6b656e204944000000000000006044820152606490fd5b61359e816150fc565b60005260066020526135b46040600020546132b2565b50600301546001600160a01b03169061324a821515613549565b6135d7816150fc565b60005260066020526135ed6040600020546132b2565b50600401546001600160a01b031690565b80548210156131bc5760005260206000200190600090565b906001600160a01b03808061362a84613595565b1693169183831493841561365d575b508315613647575b50505090565b613653919293506135ce565b1614388080613641565b909350600052600760205260026040600020018260005260205260ff604060002054169238613639565b61369083613595565b6001600160a01b039182169190811682900361391b578083169283156138c8576136b9856132ed565b506136c38561396c565b50600091858352602090600682526040906136e0828620546132b2565b50600490810180546001600160a01b0319908116909155909189878261370583613595565b167f8c5be1e5ebec7d5bd14f71427d1e84f3dd0314c0f7b2291e5b200ac8c7c3b9258280a489875260068552600561373f858920546132b2565b500180549091858988818f5b8684106138915750505050505050805487825580613878575b505088865260068452600361377b848820546132b2565b500190815416905585855260078352818520918254936000199485810190811161386557906137ac889392866135fe565b90549060031b1c9060018601908c855281815283852054926137ed816137d2868b6135fe565b90919082549060031b600019811b9283911b16911916179055565b85525281832055898252812055815490811561385257509282889261384e947fddf252ad1be2c89b69c2b068fc378daa952ba7f163c4a11628f55a4df523b3ef9796019161383b83836135fe565b909182549160031b1b19169055556139b0565b80a4565b634e487b7160e01b865260319052602485fd5b634e487b7160e01b885260118452602488fd5b61388a91885285882090810190613a33565b3880613764565b6138be9486928b6138a2878c6135fe565b96905494835252209260031b1c168c5289528a88812055613a24565b8690888b8f61374b565b60405162461bcd60e51b815260206004820152602560248201527f455243333532353a207472616e7366657220746f20746865207a65726f206164604482015264647265737360d81b6064820152608490fd5b60405162461bcd60e51b8152602060048201526024808201527f455243333532353a207472616e736665722066726f6d20696e76616c6964206f6044820152633bb732b960e11b6064820152608490fd5b613975816150fc565b6000526006602052600261330e6040600020546132b2565b90815491600160401b831015612b8557826137d291600161324a950181556135fe565b90604061324a92600090838252600660205260036139d0848420546132b2565b500180546001600160a01b0319166001600160a01b03909216918217905580825260076020818152848420805487865260019190910182528585205591835290522061398d565b9190820391821161318857565b60001981146131885760010190565b818110613a3e575050565b60008155600101613a33565b90600160401b8111612b8557815490808355818110613a6857505050565b61324a9260005260206000209182019101613a33565b90816020910312610ae657516001600160e01b031981168103610ae65790565b3d15613ac9573d90613aaf82612c05565b91613abd6040519384612be4565b82523d6000602084013e565b606090565b9192813b15613be657602091613b20916000604051958680958194630a85bd0160e11b9a8b845233600485015260018060a01b0380951660248501526044840152608060648401526084830190612d2c565b0393165af160009181613bb6575b50613ba857613b3b613a9e565b80519081613ba35760405162461bcd60e51b815260206004820152603260248201527f4552433732313a207472616e7366657220746f206e6f6e20455243373231526560448201527131b2b4bb32b91034b6b83632b6b2b73a32b960711b6064820152608490fd5b602001fd5b6001600160e01b0319161490565b613bd891925060203d8111613bdf575b613bd08183612be4565b810190613a7e565b9038613b2e565b503d613bc6565b50505050600190565b604d811161318857600a0a90565b90816020910312610ae657516001600160a01b0381168103610ae65790565b90816020910312610ae657518015158103610ae65790565b6003805460010190819055969295919460009490916001600160a01b038116156140fc5788156140ad57613c6789615058565b801561409e575b61405957604051613c7e81612bc9565b86815260405190613c8e82612b6a565b8a82528a602083018a8152604084018a8152606085019160018060a01b03871683528b608087019481865260a088019687526040600554928392815260066020522055600160401b81101561404557806001613ced92016005556132b2565b96909661403157518655516001860155516002850155516003840180546001600160a01b03199081166001600160a01b039384161790915591516004850180549093169116179055518051916001600160401b03831161401d5790602060058d9594930191613d5c8484613a4a565b0190895260208920895b838110613ffd5750505050613d7b82826139b0565b6001600160a01b0316867fddf252ad1be2c89b69c2b068fc378daa952ba7f163c4a11628f55a4df523b3ef8180a48585897fe4f48c240d3b994948aa54f3e2f5fca59263dfe1d52b6e4cf39a5d249b5ccb658280a487855260066020526002613de760408720546132b2565b5001613df488825461319e565b9055878560008051602061532a83398151915260206040518b8152a36008546001600160a01b0316803b1561066357613e549186918a83604051809681958294632108947560e21b84526004840152604060248401526044830190612d2c565b03925af18015610af257613fea575b506008546001600160a01b0316803b1561066757613ea8918591898360405180968195829463246a908b60e01b84526004840152604060248401526044830190612d2c565b03925af18015610ecd57908491613fd6575b50506008546001600160a01b031690813b156108a457613f0184928392604051948580948193630190503b60e61b83528d6004840152604060248401526044830190612d2c565b03925af18015610e9a57908391613fc2575b50506008546001600160a01b031690813b156107da57613f5a83928392604051948580948193637e468a5160e01b83528c6004840152604060248401526044830190612d2c565b03925af1801561034657613fae575b50506040805184815260208101929092528101919091527f84eeb48eca46cea54afc9753345f6038981672ea565f32885420829dfd88aea69080606081015b0390a190565b613fb88291612b9b565b6102be5780613f69565b613fcb90612b9b565b610e96578138613f13565b613fdf90612b9b565b6107da578238613eba565b613ff690949194612b9b565b9238613e63565b82516001600160a01b0316818301558d9550602090920191600101613d66565b634e487b7160e01b89526041600452602489fd5b634e487b7160e01b8d5260048d905260248dfd5b634e487b7160e01b8d52604160045260248dfd5b60405162461bcd60e51b815260206004820152601d60248201527f455243333532353a20746f6b656e20616c7265616479206d696e7465640000006044820152606490fd5b506140a889615086565b613c6e565b60405162461bcd60e51b815260206004820152602160248201527f455243333532353a2063616e6e6f74206d696e74207a65726f20746f6b656e496044820152601960fa1b6064820152608490fd5b60405162461bcd60e51b815260206004820152602160248201527f455243333532353a206d696e7420746f20746865207a65726f206164647265736044820152607360f81b6064820152608490fd5b6001600160401b038111612b855760051b60200190565b9490969395919560206002549760009861418e60018060a01b039761091860ff8a600e54169416613bef565b60408051630bbed13160e21b81526001600160a01b039b909b1660048c015260248b019c909c5260448a01929092526064890191909152969896899060849082908b905af19788156143a35787986143ad575b5060016003540197886003558888526011602052868820558360085416803b15611dc5576142349188918a838a51809681958294632108947560e21b845260048401528d60248401526044830190612d2c565b03925af180156143a357614390575b508260085416803b1561438c5761427f9187918983895180968195829463246a908b60e01b845260048401528c60248401526044830190612d2c565b03925af180156143825790869161436e575b5050816008541690813b15610663576142cf869283928751948580948193630190503b60e61b83528d60048401528b60248401526044830190612d2c565b03925af1801561436457908591614350575b50506008541690813b156108a4576143208392859492859351958680948193637e468a5160e01b83528b60048401528860248401526044830190612d2c565b03925af1908115614347575061433557505090565b61433f8291612b9b565b6102be575090565b513d84823e3d90fd5b61435990612b9b565b6108a45783386142e1565b84513d87823e3d90fd5b61437790612b9b565b610667578438614291565b85513d88823e3d90fd5b8680fd5b61439c90969196612b9b565b9438614243565b86513d89823e3d90fd5b9097506020813d82116143d8575b816143c860209383612be4565b8101031261438c575196386141e1565b3d91506143bb565b91909160009080825260209160118352604092838220541560001461474e5761440a858433614831565b60019586600354019687600355614420856132ed565b916001600160a01b0380821692908315614700578a156146b2576144438b615058565b80156146a3575b61465f57885161445981612bc9565b8781528951888b8e61446a84612b6a565b8084528a84018a81528b8386019285845260608701948c8652608088019680885260a08901998a5260066005549485948352522055600160401b81101561464b5780896144ba92016005556132b2565b95909561463757906005959493929151855551888501555160028401558560038401915116906001600160601b0360a01b9182825416179055856004840192511690825416179055019051918251926001600160401b03841161064f57908883928f9b9a9998979695948561452e91613a4a565b0191895287892090895b848110614621575050505050507f6d811e6a20ae5461a4ef22a6998c1d958defe727f1cc522b6eb792bc8e6f726698979693869384614604979461458e613fa89a60008051602061532a833981519152966139b0565b857fddf252ad1be2c89b69c2b068fc378daa952ba7f163c4a11628f55a4df523b3ef8180a483857fe4f48c240d3b994948aa54f3e2f5fca59263dfe1d52b6e4cf39a5d249b5ccb658280a4838352600681526145ec888420546132b2565b50508751838152a36145ff858883614acb565b6132ed565b915192839286846040919493926060820195825260208201520152565b83518216818401558f9b50928901928501614538565b634e487b7160e01b8e5260048e905260248efd5b634e487b7160e01b8e52604160045260248efd5b885162461bcd60e51b815260048101879052601d60248201527f455243333532353a20746f6b656e20616c7265616479206d696e7465640000006044820152606490fd5b506146ad8b615086565b61444a565b885162461bcd60e51b815260048101879052602160248201527f455243333532353a2063616e6e6f74206d696e74207a65726f20746f6b656e496044820152601960fa1b6064820152608490fd5b885162461bcd60e51b815260048101879052602160248201527f455243333532353a206d696e7420746f20746865207a65726f206164647265736044820152607360f81b6064820152608490fd5b600e5484516307a42e0160e11b8152600481018590526001600160a01b0397881660248201526044810187905291969192918791849160649183918691165af19586156148255781966147ce575b50505090613fa86146047f6d811e6a20ae5461a4ef22a6998c1d958defe727f1cc522b6eb792bc8e6f726694936132ed565b909180939650813d831161481e575b6147e78183612be4565b810103126102be57505192613fa86146047f6d811e6a20ae5461a4ef22a6998c1d958defe727f1cc522b6eb792bc8e6f726661479c565b503d6147dd565b508351903d90823e3d90fd5b61483b81836148cb565b6148458383613616565b15806148bf575b614857575b50505050565b83811061487a576148719361486b91613a17565b916148f9565b38808080614851565b60405162461bcd60e51b815260206004820152601f60248201527f455243333532353a20696e73756666696369656e7420616c6c6f77616e6365006044820152606490fd5b5060001981141561484c565b6148d4816150fc565b600052600460205260406000209060018060a01b031660005260205260406000205490565b6001600160a01b0380831693919284156149e2578361491791614a3a565b15614965575b5060207f621b050de0ad08b51d19b48b3e6df75348c4de6bdd93e81b252ca62e28265b1b918360005260048252604060002085600052825280604060002055604051908152a3565b90826000526006602052600561497f6040600020546132b2565b500190815492600160401b841015612b8557856149c58560209560017f621b050de0ad08b51d19b48b3e6df75348c4de6bdd93e81b252ca62e28265b1b980181556135fe565b909283549160031b90811b9283911b16911916179055915061491d565b60405162461bcd60e51b815260206004820152602a60248201527f455243333532353a20617070726f76652076616c756520746f20746865207a65604482015269726f206164647265737360b01b6064820152608490fd5b6000908282526006602090808252604090614a57828620546132b2565b509260058094015496865b888110614a755750505050505050905090565b818852838352614a938187614a8c888c20546132b2565b50016135fe565b905460039190911b1c6001600160a01b0390811690881614614abd57614ab890613a24565b614a62565b505050505050505050600190565b614ad481615058565b8015614d61575b15614d0c57614ae982615058565b8015614cfd575b15614caa578060005260209260068452604092614b1084600020546132b2565b508160005260068652614b2685600020546132b2565b50906002810190815490858210614c535760010154600184015403614bf85791600291614b5986614b9698979695613a17565b905501614b6783825461319e565b9055808360008051602061532a833981519152888851868152a3845192614b8d84612bc9565b60008452614d70565b15614b9f575050565b60849250519062461bcd60e51b82526004820152602d60248201527f455243333532353a207472616e736665722072656a656374656420627920455260448201526c21999a991aa932b1b2b4bb32b960991b6064820152fd5b865162461bcd60e51b815260048101899052602e60248201527f455243333532353a207472616e7366657220746f20746f6b656e20776974682060448201526d191a5999995c995b9d081cdb1bdd60921b6064820152608490fd5b875162461bcd60e51b8152600481018a9052602a60248201527f455243333532353a20696e73756666696369656e742062616c616e636520666f60448201526939103a3930b739b332b960b11b6064820152608490fd5b60405162461bcd60e51b815260206004820152602560248201527f455243333532353a207472616e7366657220746f20696e76616c696420746f6b604482015264195b88125160da1b6064820152608490fd5b50614d0782615086565b614af0565b60405162461bcd60e51b815260206004820152602760248201527f455243333532353a207472616e736665722066726f6d20696e76616c696420746044820152661bdad95b88125160ca1b6064820152608490fd5b50614d6b81615086565b614adb565b929092614d7c84613595565b803b15614e8f576040516301ffc9a760e01b8152629ce20b60e01b6004820181905295602095926001600160a01b0316918681602481865afa60009181614e70575b50614dd9575050505050505050614dd3613a9e565b50600190565b15614e645760008694614e18604051978896879586948d865233600487015260248601526044850152606484015260a0608484015260a4830190612d2c565b03925af1918215614e5857600092614e3b575b50506001600160e01b0319161490565b614e519250803d10613bdf57613bd08183612be4565b3880614e2b565b6040513d6000823e3d90fd5b50505050505050600190565b614e88919250883d8a11611d8e57611d7e8183612be4565b9038614dbe565b5050505050600190565b9091614ea483615058565b80615045575b8015615036575b15614fbf57614ebf82615058565b80614fac575b80614f89575b15614f2f5790614f2a82614f027fdf7a601a0a201ccd4b4bfcfd610913188d931867997223d226f85f2f2673988a95948433614831565b614f0d818585614acb565b604051938493846040919493926060820195825260208201520152565b0390a1565b600e546001600160a01b0316803b15610ae657604051630310ed7f60e41b8152600481019390935260248301939093526044820152906000908290606490829084905af18015614e5857614f805750565b61324a90612b9b565b50614f9383615058565b8015614ecb5750614fa3836132ed565b600c5414614ecb565b50614fb6826132ed565b600c5414614ec5565b60a460405162461bcd60e51b815260206004820152604460248201527f546f6b656e204944206f66207265636569766572206e6f74207265636f676e6960448201527f7a6564206279207468697320636f6e7472616374206f722074686520726567696064820152637374727960e01b6084820152fd5b5061504083615086565b614eb1565b5061504f836132ed565b600c5414614eaa565b60055415159081615067575090565b80915060005260066020526150806040600020546132b2565b50541490565b80600052601160205260406000205415908115916150a2575090565b600e546040516341ce4b3f60e01b81526004810192909252909150602090829060249082906001600160a01b03165afa908115614e58576000916150e4575090565b612c72915060203d8111611d8e57611d7e8183612be4565b61324a9061510981615058565b90811561512e575b811561511e575b50613549565b6151289150615086565b38615118565b905061513981615086565b90615111565b615148816150fc565b61515181615058565b806151de575b1561516557612c729061396c565b600090815260116020526040812054602060018060a01b03600e541691602460405180948193631398fee160e31b835260048301525afa91821561267b5780926151ae57505090565b9091506020823d82116151d6575b816151c960209383612be4565b810103126102be57505190565b3d91506151bc565b506151e8816132ed565b600c5414615157565b6151fa816150fc565b61520381615058565b80615277575b1561521757612c7290613595565b60018060a01b03600e541690600052601160205260206040600020546024604051809481936331a9108f60e11b835260048301525afa908115614e585760009161525f575090565b612c72915060203d8111611e4757611e388183612be4565b50615281816132ed565b600c5414615209565b80518210156131bc5760209160051b010190565b906152a8826150fc565b6152b182615058565b80615316575b156152c557612c72916148cb565b602060018060a01b0391604483600e541660009586526011845260408620549060405195869485936338d1782f60e21b855260048501521660248301525afa91821561267b5780926151ae57505090565b50615320826132ed565b600c54146152b756fe0b2aac84f3ec956911fd78eae5311062972ff949f38412e8da39069d9f068cc6519b8a896d3cf44bd2d0545987d41a13bfb2ba37ce6ce401c753218178535608a2646970667358221220b00ea0035c8f4352ec71c28ee550bfc19d481e72b12dea49b6c6b0055cac25f364736f6c634300081100336080604052346200048657620020b7803803806200001d816200048b565b9283398101608082820312620004865781516001600160401b0391908281116200048657816200004f918501620004b1565b91602092838501518281116200048657836200006d918701620004b1565b92604086015183811162000486576060916200008b918801620004b1565b9501516001600160a01b03811695908690036200048657815193838511620002c3576001948554938685811c951680156200047b575b88861014620002a2578190601f9586811162000425575b508890868311600114620003bd57600092620003b1575b5050600019600383901b1c191690861b1785555b805190848211620002c357600254908682811c92168015620003a6575b88831014620002a25781858493116200034f575b508790858311600114620002e557600092620002d9575b5050600019600383901b1c191690851b176002555b8051928311620002c35760039485548581811c91168015620002b8575b82821014620002a25783811162000257575b5080928411600114620001ed5750928293918392600094620001e1575b50501b9160001990841b1c19161790555b600080546001600160a01b031916919091179055604051611b939081620005248239f35b015192503880620001ac565b919083601f1981168760005284600020946000905b888383106200023c575050501062000223575b505050811b019055620001bd565b015160001983861b60f8161c1916905538808062000215565b85870151885590960195948501948793509081019062000202565b86600052816000208480870160051c82019284881062000298575b0160051c019086905b8281106200028b5750506200018f565b600081550186906200027b565b9250819262000272565b634e487b7160e01b600052602260045260246000fd5b90607f16906200017d565b634e487b7160e01b600052604160045260246000fd5b0151905038806200014b565b90879350601f198316916002600052896000209260005b8b8282106200033857505084116200031e575b505050811b0160025562000160565b015160001960f88460031b161c191690553880806200030f565b8385015186558b97909501949384019301620002fc565b9091506002600052876000208580850160051c8201928a86106200039c575b918991869594930160051c01915b8281106200038c57505062000134565b600081558594508991016200037c565b925081926200036e565b91607f169162000120565b015190503880620000ef565b90889350601f19831691846000528a6000209260005b8c8282106200040e5750508411620003f4575b505050811b01855562000103565b015160001960f88460031b161c19169055388080620003e6565b8385015186558c97909501949384019301620003d3565b90915087600052886000208680850160051c8201928b861062000471575b918a91869594930160051c01915b82811062000461575050620000d8565b600081558594508a910162000451565b9250819262000443565b94607f1694620000c1565b600080fd5b6040519190601f01601f191682016001600160401b03811183821017620002c357604052565b919080601f84011215620004865782516001600160401b038111620002c357602090620004e7601f8201601f191683016200048b565b92818452828287010111620004865760005b8181106200050f57508260009394955001015290565b8581018301518482018401528201620004f956fe608060408181526004908136101561001657600080fd5b600092833560e01c9081631375d843146113cd57508063246a908b146112cf57806355f804b31461118b57806364140ec01461108c5780636c0360eb14610fcd5780636c037f8a14610d0f57806371f0442e14610c7b578063725fa09c146108c05780637e468a51146107c1578063842251d414610685578063894b4c2e146101755763b3154c08146100a857600080fd5b34610171576020918260031936011261016d5780358452825280832091815192848154906100d5826118e1565b80875292600192808416908115610149575060011461010e575b61010a8787610100828c03836114e3565b5191829182611485565b0390f35b9080949750528583205b828410610136575050508261010a94610100928201019438806100ef565b8054868501880152928601928101610118565b60ff19168887015250505050151560051b83010192506101008261010a38806100ef565b8380fd5b8280fd5b50903461017157602092836003193601126106825782516306fdde0360e01b81529180359082848281335afa938415610678578394610654575b506101b98261179e565b926102056022875180968a6101d78184019a8b815193849201611462565b820161202360f01b8c8201526101f68c83519384918785019101611462565b010360028101875201856114e3565b828152818752858120865181549391899184610220876118e1565b80835284830193600198868a821691826000146106345750506001146105fb575b505090610254816102c9949303826114e3565b6102e561026030611a1a565b898852600686526102d78d808a209a60058952818b2091519788948a86019a6102ac61028b8d61191b565b91692f636f6e74726163742f60b01b83528351938491600a85019101611462565b019c6011662f746f6b656e2f60c81b9e8f600a8201520190611997565b602f60f81b81520190611997565b03601f1981018552846114e3565b8a51631398fee160e31b81528581018990528c81602481335afa80156105c25787906105cc575b610316915061179e565b8b5163131f9f3f60e11b8152958601899052948c81602481335afa9081156105c2578d918d918991610589575b5061034d9061179e565b9761035733611a1a565b9a815260068352208c51713d91383937b832b93a34b2b9afbab934911d60711b818401908152601160f91b60328301529a90998a93909161039a6033860161191b565b9068636f6e74726163742f60b81b825280518093600984019201916103be92611462565b019060098201526010016103d191611997565b6f17b83937b832b93a34b2b9973539b7b760811b815261227d60f01b601082015203600d198101885260120161040790886114e3565b8a51998a998d683d913730b6b2911d1160b91b908c015251908160298c0161042e92611462565b890190701116113232b9b1b934b83a34b7b7111d1160791b6029830152519182603a830161045b92611462565b01906a11161134b6b0b3b2911d1160a91b603a8301525191826045830161048192611462565b016c1116113130b630b731b2911d1160991b6045820152815191828a605284019201916104ad92611462565b016911161139b637ba111d1160b11b60528201528151918289605c84019201916104d692611462565b01906e111611383937b832b93a34b2b9911d60891b605c830152519182606b830161050092611462565b01606b8101607d60f81b905203604c81018252606c0161052090826114e3565b61052990611631565b81517f646174613a6170706c69636174696f6e2f6a736f6e3b6261736536342c00000084820152815190938492610567918391603d86019101611462565b810103601d81018352603d0161057d90836114e3565b5161010a819282611485565b928092508391503d83116105bb575b6105a281836114e3565b810103126105b7578b61034d8e925190610343565b8680fd5b503d610598565b8c513d89823e3d90fd5b508c81813d83116105f4575b6105e281836114e3565b810103126105b757610316905161030c565b503d6105d8565b8592508752818720908888925b82841061061e5750505082010161025482610241565b80548487018601528794909301928a9101610608565b60ff1916875292151560051b850190920192506102549150839050610241565b6106719194503d8085833e61066981836114e3565b8101906115a0565b92386101af565b85513d85823e3d90fd5b80fd5b508290346107bd576106963661156d565b939083526020916006835283209184519167ffffffffffffffff83116107aa57506106c183546118e1565b601f8111610767575b5080601f831160011461070557508394829394926106fa575b50508160011b916000199060031b1c191617905580f35b0151905084806106e3565b90601f198316958486528286209286905b88821061074f57505083600195969710610736575b505050811b01905580f35b015160001960f88460031b161c1916905584808061072b565b80600185968294968601518155019501930190610716565b838552818520601f840160051c8101918385106107a0575b601f0160051c01905b81811061079557506106ca565b858155600101610788565b909150819061077f565b634e487b7160e01b855260419052602484fd5b5080fd5b508290346107bd576107d23661156d565b939083526020916007835283209184519167ffffffffffffffff83116107aa57506107fd83546118e1565b601f811161087d575b5080601f831160011461083557508394829394926106fa5750508160011b916000199060031b1c191617905580f35b90601f198316958486528286209286905b8882106108655750508360019596971061073657505050811b01905580f35b80600185968294968601518155019501930190610846565b838552818520601f840160051c8101918385106108b6575b601f0160051c01905b8181106108ab5750610806565b85815560010161089e565b9091508190610895565b50913461068257806003193601126106825782516306fdde0360e01b815281818481335afa908115610c71578291610c57575b508351829060025492610905846118e1565b9586835260209683888101956001978a8982169182600014610c3c575050600114610be1575b610937925003846114e3565b61094033611a1a565b9588519586898101986109528a61191b565b68636f6e74726163742f60b81b81526109758c8351938491600985019101611462565b01602f60f81b600982015283906003549361098f856118e1565b94818116908115610bc05750600114610b61575b50506109b8925003601f1981018852876114e3565b8789518093633e7e866960e01b825281335afa918215610b55578192610b17575b5050610ac9605a888a61010a9b9961010099610a7f603d9a610b079e9a610a5c610ace9b610a0c60ff610a329d1661179e565b97519b8c99683d913730b6b2911d1160b91b818c0152825192839160298d019101611462565b880191701116113232b9b1b934b83a34b7b7111d1160791b6029840152518093603a840190611462565b01916a11161134b6b0b3b2911d1160a91b603a8401525180936045840190611462565b01721116113b30b63ab2a232b1b4b6b0b639911d1160691b6045820152610aaf825180938a605885019101611462565b0161227d60f01b605882015203603a8101845201826114e3565b611631565b845195827f646174613a6170706c69636174696f6e2f6a736f6e3b6261736536342c000000889485015282519283918686019101611462565b810103601d8101855201836114e3565b9091508781813d8311610b4e575b610b2f81836114e3565b810103126107bd57519060ff821682036106825750610ac9605a6109d9565b503d610b25565b508851903d90823e3d90fd5b6003865290915084908c7fc2575a0e9e593c00f959f8c92f12db2869c3395a3b0502d05e2516446f71f85b5b868410610ba857505050506109b892600a91010138806109a3565b8054858501600a01528c95509201918d908201610b8d565b9050600a93506109b895915060ff19168383015280151502010138806109a3565b505060028752838888887f405787fa12a823e0f2b7631cc41b3ba8828b3321ca811111fa75cd3aa3bb5ace5b858310610c23575050610937935082010161092b565b80919294505483858a0101520191018990888793610c0d565b60ff1916895261093794151560051b840101915061092b9050565b610c6b91503d8084833e61066981836114e3565b386108f3565b84513d84823e3d90fd5b5034610171576020918260031936011261016d57358352600582528083209181519284815490610caa826118e1565b808752926001928084169081156101495750600114610cd45761010a8787610100828c03836114e3565b9080949750528583205b828410610cfc575050508261010a94610100928201019438806100ef565b8054868501880152928601928101610cde565b5090346101715760209283600319360112610682578054835163ec327a2160e01b815283358185018190529092916001600160a01b0316908284602481855afa938415610fc3578394610fa7575b50855163bc74ebb960e01b8152858101829052948386602481865afa958615610f9d578496610f81575b5086516309c3dd8760e01b80825282820184905290938585602481845afa948515610f7757918a9594939187938496610f56575b5090602491610dfb60268d518a652f696d61676560d01b81610de7849e85019d8e815193849201611462565b83019182015203600681018b5201896114e3565b8b51958694859384528301525afa938415610f4b578094610f2e575b50508551918288808201868197519283910191610e3392611462565b81018981016f17b83937b832b93a34b2b9973539b7b760811b905203601081018452603001610e6290846114e3565b8651958695683d913730b6b2911d1160b91b8a880152805190818b60298a01920191610e8d92611462565b8601701116113232b9b1b934b83a34b7b7111d1160791b6029820152815191828b603a8401920191610ebe92611462565b01906a11161134b6b0b3b2911d1160a91b603a83015251918260458301610ee492611462565b01906e111611383937b832b93a34b2b9911d60891b604583015251918260548301610f0e92611462565b0160548101607d60f81b90520360358101825260550161052090826114e3565b610f439294503d8091833e61066981836114e3565b913880610e17565b8751903d90823e3d90fd5b602492919650610f6f903d8087833e61066981836114e3565b959091610dbb565b89513d88823e3d90fd5b610f969196503d8086833e61066981836114e3565b9438610d87565b87513d86823e3d90fd5b610fbc9194503d8085833e61066981836114e3565b9238610d5d565b86513d85823e3d90fd5b8382346107bd57816003193601126107bd57805190826001805491610ff1836118e1565b80865292828116908115611064575060011461101a575b5050506101008261010a9403836114e3565b9450808552600080516020611b3e8339815191525b82861061104c5750505061010082602061010a9582010194611008565b8054602087870181019190915290950194810161102f565b61010a97508693506020925061010094915060ff191682840152151560051b82010194611008565b508290346107bd5761109d3661156d565b939083526020916005835283209184519167ffffffffffffffff83116107aa57506110c883546118e1565b601f8111611148575b5080601f831160011461110057508394829394926106fa5750508160011b916000199060031b1c191617905580f35b90601f198316958486528286209286905b8882106111305750508360019596971061073657505050811b01905580f35b80600185968294968601518155019501930190611111565b838552818520601f840160051c810191838510611181575b601f0160051c01905b81811061117657506110d1565b858155600101611169565b9091508190611160565b828434610682576020806003193601126107bd5767ffffffffffffffff833581811161016d576111be9036908601611521565b9384519182116112bc57506001916111d683546118e1565b601f811161126a575b5080601f8311600114611219575083948293949261120e575b5050600019600383901b1c191690821b17905580f35b0151905084806111f8565b838552601f19831695600080516020611b3e833981519152929186905b888210611253575050838596971061073657505050811b01905580f35b808785968294968601518155019501930190611236565b838552600080516020611b3e833981519152601f840160051c8101918385106112b2575b601f0160051c019084905b8281106112a75750506111df565b868155018490611299565b909150819061128e565b634e487b7160e01b845260419052602483fd5b508290346107bd576112e03661156d565b9390835260209181835283209184519167ffffffffffffffff83116107aa575061130a83546118e1565b601f811161138a575b5080601f831160011461134257508394829394926106fa5750508160011b916000199060031b1c191617905580f35b90601f198316958486528286209286905b8882106113725750508360019596971061073657505050811b01905580f35b80600185968294968601518155019501930190611353565b838552818520601f840160051c8101918385106113c3575b601f0160051c01905b8181106113b85750611313565b8581556001016113ab565b90915081906113a2565b9290503461016d576020908160031936011261145e57358452600681528184208054856113f9826118e1565b8087529260019280841690811561014957506001146114235761010a8787610100828c03836114e3565b9080949750528583205b82841061144b575050508261010a94610100928201019438806100ef565b805486850188015292860192810161142d565b8480fd5b60005b8381106114755750506000910152565b8181015183820152602001611465565b604091602082526114a58151809281602086015260208686019101611462565b601f01601f1916010190565b6060810190811067ffffffffffffffff8211176114cd57604052565b634e487b7160e01b600052604160045260246000fd5b90601f8019910116810190811067ffffffffffffffff8211176114cd57604052565b67ffffffffffffffff81116114cd57601f01601f191660200190565b81601f820112156115685780359061153882611505565b9261154660405194856114e3565b8284526020838301011161156857816000926020809301838601378301015290565b600080fd5b90604060031983011261156857600435916024359067ffffffffffffffff82116115685761159d91600401611521565b90565b6020818303126115685780519067ffffffffffffffff8211611568570181601f820112156115685780516115d381611505565b926115e160405194856114e3565b818452602082840101116115685761159d9160208085019101611462565b9061160982611505565b61161660405191826114e3565b8281528092611627601f1991611505565b0190602036910137565b80511561177957604051611644816114b1565b604081527f4142434445464748494a4b4c4d4e4f505152535455565758595a61626364656660208201527f6768696a6b6c6d6e6f707172737475767778797a303132333435363738392b2f60408201528151600292838201809211611763576003918290046001600160fe1b0381168103611763576116c6908594951b6115ff565b936020850193829183518401925b83811061171257505050505106806001146116ff576002146116f4575090565b603d90600019015390565b50603d9081600019820153600119015390565b85600491979293949701918251600190603f9082828260121c16880101518453828282600c1c16880101518385015382828260061c16880101518885015316850101518782015301959291906116d4565b634e487b7160e01b600052601160045260246000fd5b506040516020810181811067ffffffffffffffff8211176114cd576040526000815290565b806000917a184f03e93ff9f4daa797ed6e38ed64bf6a1f010000000000000000808210156118d3575b506d04ee2d6d415b85acef8100000000808310156118c4575b50662386f26fc10000808310156118b5575b506305f5e100808310156118a6575b5061271080831015611897575b506064821015611887575b600a8092101561187d575b6001908160216118358287016115ff565b95860101905b611847575b5050505090565b600019019083906f181899199a1a9b1b9c1cb0b131b232b360811b8282061a8353049182156118785791908261183b565b611840565b9160010191611824565b9190606460029104910191611819565b6004919392049101913861180e565b60089193920491019138611801565b601091939204910191386117f2565b602091939204910191386117e0565b6040935081049150386117c7565b90600182811c92168015611911575b60208310146118fb57565b634e487b7160e01b600052602260045260246000fd5b91607f16916118f0565b9060009160019081549161192e836118e1565b92818116908115611984575060011461194657505050565b809192939450600052600080516020611b3e833981519152906000915b848310611971575050500190565b8181602092548587015201920191611963565b60ff191683525050811515909102019150565b6000929181546119a6816118e1565b926001918083169081156119ff57506001146119c3575b50505050565b90919293945060005260209081600020906000915b8583106119ee57505050500190388080806119bd565b8054858401529183019181016119d8565b60ff19168452505050811515909102019150388080806119bd565b604051906001600160a01b0316611a30826114b1565b602a82526020908183016040368237835115611b2757603090538251600190811015611b2757607860218501536029905b808211611ab5575050611a72575090565b6064906040519062461bcd60e51b825280600483015260248201527f537472696e67733a20686578206c656e67746820696e73756666696369656e746044820152fd5b9091600f81166010811015611b12578551841015611b12576f181899199a1a9b1b9c1cb0b131b232b360811b901a85840185015360041c918015611afd576000190190611a61565b60246000634e487b7160e01b81526011600452fd5b60246000634e487b7160e01b81526032600452fd5b634e487b7160e01b600052603260045260246000fdfeb10e2d527612073b26eecdfd717e6a320cf44b4afac2b0732d9fcbe2b7fa0cf6a2646970667358221220075d961bac45a8455e8b8f4260cef222c6c6880276b6f448f391c8c0a2b708f264736f6c634300081100332f8788117e7eff1d82e926ec794901d17c78024a50270940304540a733656f0db10e2d527612073b26eecdfd717e6a320cf44b4afac2b0732d9fcbe2b7fa0cf6",
  "linkReferences": {},
  "deployedLinkReferences": {}
}