{
  "_format": "hh-sol-artifact-1",
  "contractName": "CountsCredit",
  "sourceName": "contracts/CountsCredit.sol",
  "abi": [
    {
      "inputs": [
        {
          "internalType": "address",
          "name": "revenueAcct_",
          "type": "address"
        },
        {
          "internalType": "address",
          "name": "slotRegistryContract_",
          "type": "address"
        },
        {
          "internalType": "address",
          "name": "poolContract_",
          "type": "address"
        },
        {
          "internalType": "address",
          "name": "USDContract_",
          "type": "address"
        },
        {
          "internalType": "address",
          "name": "mktAdmin_",
          "type": "address"
        },
        {
          "internalType": "uint256",
          "name": "defaultSlot_",
          "type": "uint256"
        },
        {
          "internalType": "string",
          "name": "name_",
          "type": "string"
        },
        {
          "internalType": "string",
          "name": "symbol_",
          "type": "string"
        },
        {
          "internalType": "string",
          "name": "baseuri_",
          "type": "string"
        },
        {
          "internalType": "string",
          "name": "contractDescription_",
          "type": "string"
        },
        {
          "internalType": "string",
          "name": "contractImage_",
          "type": "string"
        },
        {
          "internalType": "uint8",
          "name": "decimals_",
          "type": "uint8"
        }
      ],
      "stateMutability": "nonpayable",
      "type": "constructor"
    },
    {
      "anonymous": false,
      "inputs": [
        {
          "indexed": true,
          "internalType": "address",
          "name": "_owner",
          "type": "address"
        },
        {
          "indexed": true,
          "internalType": "address",
          "name": "_approved",
          "type": "address"
        },
        {
          "indexed": true,
          "internalType": "uint256",
          "name": "_tokenId",
          "type": "uint256"
        }
      ],
      "name": "Approval",
      "type": "event"
    },
    {
      "anonymous": false,
      "inputs": [
        {
          "indexed": true,
          "internalType": "address",
          "name": "_owner",
          "type": "address"
        },
        {
          "indexed": true,
          "internalType": "address",
          "name": "_operator",
          "type": "address"
        },
        {
          "indexed": false,
          "internalType": "bool",
          "name": "_approved",
          "type": "bool"
        }
      ],
      "name": "ApprovalForAll",
      "type": "event"
    },
    {
      "anonymous": false,
      "inputs": [
        {
          "indexed": true,
          "internalType": "uint256",
          "name": "_tokenId",
          "type": "uint256"
        },
        {
          "indexed": true,
          "internalType": "address",
          "name": "_operator",
          "type": "address"
        },
        {
          "indexed": false,
          "internalType": "uint256",
          "name": "_value",
          "type": "uint256"
        }
      ],
      "name": "ApprovalValue",
      "type": "event"
    },
    {
      "anonymous": false,
      "inputs": [
        {
          "indexed": true,
          "internalType": "uint256",
          "name": "tokenId",
          "type": "uint256"
        },
        {
          "indexed": false,
          "internalType": "uint256",
          "name": "consumedValue",
          "type": "uint256"
        },
        {
          "indexed": false,
          "internalType": "uint256",
          "name": "underlyingBurntValue",
          "type": "uint256"
        }
      ],
      "name": "CreditsConsumed",
      "type": "event"
    },
    {
      "anonymous": false,
      "inputs": [
        {
          "indexed": false,
          "internalType": "uint256",
          "name": "offeringId",
          "type": "uint256"
        },
        {
          "indexed": false,
          "internalType": "uint256",
          "name": "value",
          "type": "uint256"
        }
      ],
      "name": "ListOffer",
      "type": "event"
    },
    {
      "anonymous": false,
      "inputs": [
        {
          "indexed": false,
          "internalType": "address",
          "name": "contractAddress",
          "type": "address"
        }
      ],
      "name": "MetadataDescriptor",
      "type": "event"
    },
    {
      "anonymous": false,
      "inputs": [
        {
          "indexed": false,
          "internalType": "uint256",
          "name": "tokenId",
          "type": "uint256"
        },
        {
          "indexed": false,
          "internalType": "uint256",
          "name": "slot",
          "type": "uint256"
        },
        {
          "indexed": false,
          "internalType": "uint256",
          "name": "value",
          "type": "uint256"
        }
      ],
      "name": "MintAssetToken",
      "type": "event"
    },
    {
      "anonymous": false,
      "inputs": [
        {
          "indexed": false,
          "internalType": "uint256",
          "name": "tokenId",
          "type": "uint256"
        },
        {
          "indexed": false,
          "internalType": "uint256",
          "name": "slot",
          "type": "uint256"
        },
        {
          "indexed": false,
          "internalType": "uint256",
          "name": "value",
          "type": "uint256"
        }
      ],
      "name": "MintCountsToken",
      "type": "event"
    },
    {
      "anonymous": false,
      "inputs": [
        {
          "indexed": false,
          "internalType": "uint256",
          "name": "tokenId",
          "type": "uint256"
        },
        {
          "indexed": false,
          "internalType": "uint256",
          "name": "slot",
          "type": "uint256"
        },
        {
          "indexed": false,
          "internalType": "uint256",
          "name": "value",
          "type": "uint256"
        }
      ],
      "name": "MintNetworkServiceToken",
      "type": "event"
    },
    {
      "anonymous": false,
      "inputs": [
        {
          "indexed": false,
          "internalType": "uint256",
          "name": "tokenId",
          "type": "uint256"
        },
        {
          "indexed": false,
          "internalType": "uint256",
          "name": "slot",
          "type": "uint256"
        },
        {
          "indexed": false,
          "internalType": "uint256",
          "name": "value",
          "type": "uint256"
        }
      ],
      "name": "MintServiceToken",
      "type": "event"
    },
    {
      "anonymous": false,
      "inputs": [
        {
          "indexed": false,
          "internalType": "uint256",
          "name": "newTokenId",
          "type": "uint256"
        },
        {
          "indexed": false,
          "internalType": "uint256",
          "name": "slot",
          "type": "uint256"
        },
        {
          "indexed": false,
          "internalType": "uint256",
          "name": "value",
          "type": "uint256"
        }
      ],
      "name": "MintServiceTokenToAddress",
      "type": "event"
    },
    {
      "anonymous": false,
      "inputs": [
        {
          "indexed": true,
          "internalType": "bytes32",
          "name": "role",
          "type": "bytes32"
        },
        {
          "indexed": true,
          "internalType": "bytes32",
          "name": "previousAdminRole",
          "type": "bytes32"
        },
        {
          "indexed": true,
          "internalType": "bytes32",
          "name": "newAdminRole",
          "type": "bytes32"
        }
      ],
      "name": "RoleAdminChanged",
      "type": "event"
    },
    {
      "anonymous": false,
      "inputs": [
        {
          "indexed": true,
          "internalType": "bytes32",
          "name": "role",
          "type": "bytes32"
        },
        {
          "indexed": true,
          "internalType": "address",
          "name": "account",
          "type": "address"
        },
        {
          "indexed": true,
          "internalType": "address",
          "name": "sender",
          "type": "address"
        }
      ],
      "name": "RoleGranted",
      "type": "event"
    },
    {
      "anonymous": false,
      "inputs": [
        {
          "indexed": true,
          "internalType": "bytes32",
          "name": "role",
          "type": "bytes32"
        },
        {
          "indexed": true,
          "internalType": "address",
          "name": "account",
          "type": "address"
        },
        {
          "indexed": true,
          "internalType": "address",
          "name": "sender",
          "type": "address"
        }
      ],
      "name": "RoleRevoked",
      "type": "event"
    },
    {
      "anonymous": false,
      "inputs": [
        {
          "indexed": true,
          "internalType": "address",
          "name": "metadataDescriptor",
          "type": "address"
        }
      ],
      "name": "SetMetadataDescriptor",
      "type": "event"
    },
    {
      "anonymous": false,
      "inputs": [
        {
          "indexed": true,
          "internalType": "uint256",
          "name": "_tokenId",
          "type": "uint256"
        },
        {
          "indexed": true,
          "internalType": "uint256",
          "name": "_oldSlot",
          "type": "uint256"
        },
        {
          "indexed": true,
          "internalType": "uint256",
          "name": "_newSlot",
          "type": "uint256"
        }
      ],
      "name": "SlotChanged",
      "type": "event"
    },
    {
      "anonymous": false,
      "inputs": [
        {
          "indexed": true,
          "internalType": "address",
          "name": "_from",
          "type": "address"
        },
        {
          "indexed": true,
          "internalType": "address",
          "name": "_to",
          "type": "address"
        },
        {
          "indexed": true,
          "internalType": "uint256",
          "name": "_tokenId",
          "type": "uint256"
        }
      ],
      "name": "Transfer",
      "type": "event"
    },
    {
      "anonymous": false,
      "inputs": [
        {
          "indexed": true,
          "internalType": "uint256",
          "name": "_fromTokenId",
          "type": "uint256"
        },
        {
          "indexed": true,
          "internalType": "uint256",
          "name": "_toTokenId",
          "type": "uint256"
        },
        {
          "indexed": false,
          "internalType": "uint256",
          "name": "_value",
          "type": "uint256"
        }
      ],
      "name": "TransferValue",
      "type": "event"
    },
    {
      "anonymous": false,
      "inputs": [
        {
          "indexed": false,
          "internalType": "uint256",
          "name": "fromTokenId",
          "type": "uint256"
        },
        {
          "indexed": false,
          "internalType": "uint256",
          "name": "toTokenId",
          "type": "uint256"
        },
        {
          "indexed": false,
          "internalType": "uint256",
          "name": "value",
          "type": "uint256"
        }
      ],
      "name": "ValueTransfer",
      "type": "event"
    },
    {
      "inputs": [],
      "name": "DEFAULT_ADMIN_ROLE",
      "outputs": [
        {
          "internalType": "bytes32",
          "name": "",
          "type": "bytes32"
        }
      ],
      "stateMutability": "view",
      "type": "function"
    },
    {
      "inputs": [],
      "name": "MKT_ARBITRATOR_ROLE",
      "outputs": [
        {
          "internalType": "bytes32",
          "name": "",
          "type": "bytes32"
        }
      ],
      "stateMutability": "view",
      "type": "function"
    },
    {
      "inputs": [],
      "name": "SERVICE_ADMIN_ROLE",
      "outputs": [
        {
          "internalType": "bytes32",
          "name": "",
          "type": "bytes32"
        }
      ],
      "stateMutability": "view",
      "type": "function"
    },
    {
      "inputs": [
        {
          "internalType": "string",
          "name": "uri_",
          "type": "string"
        }
      ],
      "name": "_setBaseURI",
      "outputs": [],
      "stateMutability": "nonpayable",
      "type": "function"
    },
    {
      "inputs": [
        {
          "internalType": "uint256",
          "name": "slotId",
          "type": "uint256"
        },
        {
          "internalType": "uint256",
          "name": "amount",
          "type": "uint256"
        }
      ],
      "name": "addSlotLiquidity",
      "outputs": [],
      "stateMutability": "nonpayable",
      "type": "function"
    },
    {
      "inputs": [
        {
          "internalType": "uint256",
          "name": "tokenId_",
          "type": "uint256"
        },
        {
          "internalType": "address",
          "name": "operator_",
          "type": "address"
        }
      ],
      "name": "allowance",
      "outputs": [
        {
          "internalType": "uint256",
          "name": "",
          "type": "uint256"
        }
      ],
      "stateMutability": "view",
      "type": "function"
    },
    {
      "inputs": [
        {
          "internalType": "address",
          "name": "to_",
          "type": "address"
        },
        {
          "internalType": "uint256",
          "name": "tokenId_",
          "type": "uint256"
        }
      ],
      "name": "approve",
      "outputs": [],
      "stateMutability": "payable",
      "type": "function"
    },
    {
      "inputs": [
        {
          "internalType": "uint256",
          "name": "tokenId_",
          "type": "uint256"
        },
        {
          "internalType": "address",
          "name": "to_",
          "type": "address"
        },
        {
          "internalType": "uint256",
          "name": "value_",
          "type": "uint256"
        }
      ],
      "name": "approve",
      "outputs": [],
      "stateMutability": "payable",
      "type": "function"
    },
    {
      "inputs": [
        {
          "internalType": "address",
          "name": "owner_",
          "type": "address"
        }
      ],
      "name": "balanceOf",
      "outputs": [
        {
          "internalType": "uint256",
          "name": "balance",
          "type": "uint256"
        }
      ],
      "stateMutability": "view",
      "type": "function"
    },
    {
      "inputs": [
        {
          "internalType": "uint256",
          "name": "tokenId_",
          "type": "uint256"
        }
      ],
      "name": "balanceOf",
      "outputs": [
        {
          "internalType": "uint256",
          "name": "",
          "type": "uint256"
        }
      ],
      "stateMutability": "view",
      "type": "function"
    },
    {
      "inputs": [
        {
          "internalType": "uint256",
          "name": "tokenId_",
          "type": "uint256"
        },
        {
          "internalType": "uint256",
          "name": "value_",
          "type": "uint256"
        }
      ],
      "name": "consumeCredits",
      "outputs": [],
      "stateMutability": "nonpayable",
      "type": "function"
    },
    {
      "inputs": [],
      "name": "contractAdmin",
      "outputs": [
        {
          "internalType": "address",
          "name": "",
          "type": "address"
        }
      ],
      "stateMutability": "view",
      "type": "function"
    },
    {
      "inputs": [],
      "name": "contractURI",
      "outputs": [
        {
          "internalType": "string",
          "name": "",
          "type": "string"
        }
      ],
      "stateMutability": "view",
      "type": "function"
    },
    {
      "inputs": [],
      "name": "creditType",
      "outputs": [
        {
          "internalType": "string",
          "name": "",
          "type": "string"
        }
      ],
      "stateMutability": "view",
      "type": "function"
    },
    {
      "inputs": [],
      "name": "defaultSlot",
      "outputs": [
        {
          "internalType": "uint256",
          "name": "",
          "type": "uint256"
        }
      ],
      "stateMutability": "view",
      "type": "function"
    },
    {
      "inputs": [
        {
          "internalType": "uint256",
          "name": "tokenId_",
          "type": "uint256"
        }
      ],
      "name": "getApproved",
      "outputs": [
        {
          "internalType": "address",
          "name": "",
          "type": "address"
        }
      ],
      "stateMutability": "view",
      "type": "function"
    },
    {
      "inputs": [
        {
          "internalType": "bytes32",
          "name": "role",
          "type": "bytes32"
        }
      ],
      "name": "getRoleAdmin",
      "outputs": [
        {
          "internalType": "bytes32",
          "name": "",
          "type": "bytes32"
        }
      ],
      "stateMutability": "view",
      "type": "function"
    },
    {
      "inputs": [
        {
          "internalType": "uint256",
          "name": "tokenId",
          "type": "uint256"
        }
      ],
      "name": "getTokenDescription",
      "outputs": [
        {
          "internalType": "string",
          "name": "",
          "type": "string"
        }
      ],
      "stateMutability": "view",
      "type": "function"
    },
    {
      "inputs": [
        {
          "internalType": "uint256",
          "name": "tokenId",
          "type": "uint256"
        }
      ],
      "name": "getTokenImage",
      "outputs": [
        {
          "internalType": "string",
          "name": "",
          "type": "string"
        }
      ],
      "stateMutability": "view",
      "type": "function"
    },
    {
      "inputs": [
        {
          "internalType": "uint256",
          "name": "tokenId",
          "type": "uint256"
        }
      ],
      "name": "getTokenUUID",
      "outputs": [
        {
          "internalType": "string",
          "name": "",
          "type": "string"
        }
      ],
      "stateMutability": "view",
      "type": "function"
    },
    {
      "inputs": [
        {
          "internalType": "bytes32",
          "name": "role",
          "type": "bytes32"
        },
        {
          "internalType": "address",
          "name": "account",
          "type": "address"
        }
      ],
      "name": "grantRole",
      "outputs": [],
      "stateMutability": "nonpayable",
      "type": "function"
    },
    {
      "inputs": [
        {
          "internalType": "bytes32",
          "name": "role",
          "type": "bytes32"
        },
        {
          "internalType": "address",
          "name": "account",
          "type": "address"
        }
      ],
      "name": "hasRole",
      "outputs": [
        {
          "internalType": "bool",
          "name": "",
          "type": "bool"
        }
      ],
      "stateMutability": "view",
      "type": "function"
    },
    {
      "inputs": [
        {
          "internalType": "address",
          "name": "owner_",
          "type": "address"
        },
        {
          "internalType": "address",
          "name": "operator_",
          "type": "address"
        }
      ],
      "name": "isApprovedForAll",
      "outputs": [
        {
          "internalType": "bool",
          "name": "",
          "type": "bool"
        }
      ],
      "stateMutability": "view",
      "type": "function"
    },
    {
      "inputs": [
        {
          "internalType": "uint256",
          "name": "expiration_",
          "type": "uint256"
        },
        {
          "internalType": "uint256",
          "name": "tokenId_",
          "type": "uint256"
        },
        {
          "internalType": "uint256",
          "name": "price_",
          "type": "uint256"
        },
        {
          "internalType": "string",
          "name": "assetId_",
          "type": "string"
        },
        {
          "internalType": "string",
          "name": "side_",
          "type": "string"
        }
      ],
      "name": "listOffer",
      "outputs": [],
      "stateMutability": "nonpayable",
      "type": "function"
    },
    {
      "inputs": [],
      "name": "metadataDescriptor",
      "outputs": [
        {
          "internalType": "contract IERC3525MetadataDescriptor",
          "name": "",
          "type": "address"
        }
      ],
      "stateMutability": "view",
      "type": "function"
    },
    {
      "inputs": [
        {
          "internalType": "address",
          "name": "owner_",
          "type": "address"
        },
        {
          "internalType": "uint256",
          "name": "slot_",
          "type": "uint256"
        },
        {
          "internalType": "uint256",
          "name": "value_",
          "type": "uint256"
        },
        {
          "internalType": "string",
          "name": "uuid_",
          "type": "string"
        },
        {
          "internalType": "string",
          "name": "tokenDescription_",
          "type": "string"
        },
        {
          "internalType": "string",
          "name": "tokenImage_",
          "type": "string"
        },
        {
          "internalType": "string",
          "name": "property_",
          "type": "string"
        }
      ],
      "name": "mint",
      "outputs": [
        {
          "internalType": "uint256",
          "name": "",
          "type": "uint256"
        }
      ],
      "stateMutability": "nonpayable",
      "type": "function"
    },
    {
      "inputs": [
        {
          "internalType": "address",
          "name": "owner_",
          "type": "address"
        },
        {
          "internalType": "uint256",
          "name": "slot_",
          "type": "uint256"
        },
        {
          "internalType": "uint256",
          "name": "countValue_",
          "type": "uint256"
        },
        {
          "internalType": "uint256",
          "name": "paidValue_",
          "type": "uint256"
        },
        {
          "internalType": "string",
          "name": "uuid_",
          "type": "string"
        },
        {
          "internalType": "string",
          "name": "tokenDescription_",
          "type": "string"
        },
        {
          "internalType": "string",
          "name": "tokenImage_",
          "type": "string"
        },
        {
          "internalType": "string",
          "name": "property_",
          "type": "string"
        }
      ],
      "name": "mintCounts",
      "outputs": [
        {
          "internalType": "uint256",
          "name": "",
          "type": "uint256"
        }
      ],
      "stateMutability": "nonpayable",
      "type": "function"
    },
    {
      "inputs": [
        {
          "internalType": "address",
          "name": "owner_",
          "type": "address"
        },
        {
          "internalType": "uint256",
          "name": "expiration_",
          "type": "uint256"
        },
        {
          "internalType": "uint256",
          "name": "tokenId_",
          "type": "uint256"
        },
        {
          "internalType": "uint256",
          "name": "price_",
          "type": "uint256"
        },
        {
          "internalType": "string",
          "name": "assetId_",
          "type": "string"
        },
        {
          "internalType": "string",
          "name": "side_",
          "type": "string"
        }
      ],
      "name": "mktListOffer",
      "outputs": [],
      "stateMutability": "nonpayable",
      "type": "function"
    },
    {
      "inputs": [],
      "name": "name",
      "outputs": [
        {
          "internalType": "string",
          "name": "",
          "type": "string"
        }
      ],
      "stateMutability": "view",
      "type": "function"
    },
    {
      "inputs": [
        {
          "internalType": "uint256",
          "name": "tokenId_",
          "type": "uint256"
        }
      ],
      "name": "networkId",
      "outputs": [
        {
          "internalType": "uint256",
          "name": "",
          "type": "uint256"
        }
      ],
      "stateMutability": "view",
      "type": "function"
    },
    {
      "inputs": [
        {
          "internalType": "address",
          "name": "owner_",
          "type": "address"
        },
        {
          "internalType": "uint256",
          "name": "slot_",
          "type": "uint256"
        },
        {
          "internalType": "uint256",
          "name": "value_",
          "type": "uint256"
        },
        {
          "internalType": "uint256",
          "name": "discountBasisPts_",
          "type": "uint256"
        },
        {
          "internalType": "string",
          "name": "uuid_",
          "type": "string"
        },
        {
          "internalType": "string",
          "name": "tokenDescription_",
          "type": "string"
        },
        {
          "internalType": "string",
          "name": "tokenImage_",
          "type": "string"
        },
        {
          "internalType": "string",
          "name": "property_",
          "type": "string"
        }
      ],
      "name": "networkMintWithDiscount",
      "outputs": [
        {
          "internalType": "uint256",
          "name": "",
          "type": "uint256"
        }
      ],
      "stateMutability": "nonpayable",
      "type": "function"
    },
    {
      "inputs": [
        {
          "internalType": "address",
          "name": "owner_",
          "type": "address"
        },
        {
          "internalType": "uint256",
          "name": "slot_",
          "type": "uint256"
        },
        {
          "internalType": "uint256",
          "name": "value_",
          "type": "uint256"
        },
        {
          "internalType": "uint256",
          "name": "valueRate_",
          "type": "uint256"
        },
        {
          "internalType": "string",
          "name": "uuid_",
          "type": "string"
        },
        {
          "internalType": "string",
          "name": "tokenDescription_",
          "type": "string"
        },
        {
          "internalType": "string",
          "name": "tokenImage_",
          "type": "string"
        },
        {
          "internalType": "string",
          "name": "property_",
          "type": "string"
        }
      ],
      "name": "networkMintWithValueRate",
      "outputs": [
        {
          "internalType": "uint256",
          "name": "",
          "type": "uint256"
        }
      ],
      "stateMutability": "nonpayable",
      "type": "function"
    },
    {
      "inputs": [
        {
          "internalType": "uint256",
          "name": "tokenId_",
          "type": "uint256"
        }
      ],
      "name": "ownerOf",
      "outputs": [
        {
          "internalType": "address",
          "name": "owner_",
          "type": "address"
        }
      ],
      "stateMutability": "view",
      "type": "function"
    },
    {
      "inputs": [
        {
          "internalType": "uint256",
          "name": "tokenId_",
          "type": "uint256"
        },
        {
          "internalType": "uint256",
          "name": "slotId_",
          "type": "uint256"
        },
        {
          "internalType": "uint256",
          "name": "value_",
          "type": "uint256"
        }
      ],
      "name": "redeem",
      "outputs": [],
      "stateMutability": "nonpayable",
      "type": "function"
    },
    {
      "inputs": [
        {
          "internalType": "uint256",
          "name": "slotId_",
          "type": "uint256"
        }
      ],
      "name": "registerOnSlot",
      "outputs": [],
      "stateMutability": "nonpayable",
      "type": "function"
    },
    {
      "inputs": [
        {
          "internalType": "bytes32",
          "name": "role",
          "type": "bytes32"
        },
        {
          "internalType": "address",
          "name": "account",
          "type": "address"
        }
      ],
      "name": "renounceRole",
      "outputs": [],
      "stateMutability": "nonpayable",
      "type": "function"
    },
    {
      "inputs": [
        {
          "internalType": "bytes32",
          "name": "role",
          "type": "bytes32"
        },
        {
          "internalType": "address",
          "name": "account",
          "type": "address"
        }
      ],
      "name": "revokeRole",
      "outputs": [],
      "stateMutability": "nonpayable",
      "type": "function"
    },
    {
      "inputs": [
        {
          "internalType": "address",
          "name": "from_",
          "type": "address"
        },
        {
          "internalType": "address",
          "name": "to_",
          "type": "address"
        },
        {
          "internalType": "uint256",
          "name": "tokenId_",
          "type": "uint256"
        }
      ],
      "name": "safeTransferFrom",
      "outputs": [],
      "stateMutability": "payable",
      "type": "function"
    },
    {
      "inputs": [
        {
          "internalType": "address",
          "name": "from_",
          "type": "address"
        },
        {
          "internalType": "address",
          "name": "to_",
          "type": "address"
        },
        {
          "internalType": "uint256",
          "name": "tokenId_",
          "type": "uint256"
        },
        {
          "internalType": "bytes",
          "name": "data_",
          "type": "bytes"
        }
      ],
      "name": "safeTransferFrom",
      "outputs": [],
      "stateMutability": "payable",
      "type": "function"
    },
    {
      "inputs": [
        {
          "internalType": "address",
          "name": "operator_",
          "type": "address"
        },
        {
          "internalType": "bool",
          "name": "approved_",
          "type": "bool"
        }
      ],
      "name": "setApprovalForAll",
      "outputs": [],
      "stateMutability": "nonpayable",
      "type": "function"
    },
    {
      "inputs": [
        {
          "internalType": "uint256",
          "name": "tokenId_",
          "type": "uint256"
        }
      ],
      "name": "slotOf",
      "outputs": [
        {
          "internalType": "uint256",
          "name": "",
          "type": "uint256"
        }
      ],
      "stateMutability": "view",
      "type": "function"
    },
    {
      "inputs": [
        {
          "internalType": "uint256",
          "name": "slot_",
          "type": "uint256"
        }
      ],
      "name": "slotURI",
      "outputs": [
        {
          "internalType": "string",
          "name": "",
          "type": "string"
        }
      ],
      "stateMutability": "view",
      "type": "function"
    },
    {
      "inputs": [
        {
          "internalType": "bytes4",
          "name": "interfaceId",
          "type": "bytes4"
        }
      ],
      "name": "supportsInterface",
      "outputs": [
        {
          "internalType": "bool",
          "name": "",
          "type": "bool"
        }
      ],
      "stateMutability": "view",
      "type": "function"
    },
    {
      "inputs": [],
      "name": "symbol",
      "outputs": [
        {
          "internalType": "string",
          "name": "",
          "type": "string"
        }
      ],
      "stateMutability": "view",
      "type": "function"
    },
    {
      "inputs": [
        {
          "internalType": "uint256",
          "name": "index_",
          "type": "uint256"
        }
      ],
      "name": "tokenByIndex",
      "outputs": [
        {
          "internalType": "uint256",
          "name": "",
          "type": "uint256"
        }
      ],
      "stateMutability": "view",
      "type": "function"
    },
    {
      "inputs": [
        {
          "internalType": "address",
          "name": "owner_",
          "type": "address"
        },
        {
          "internalType": "uint256",
          "name": "index_",
          "type": "uint256"
        }
      ],
      "name": "tokenOfOwnerByIndex",
      "outputs": [
        {
          "internalType": "uint256",
          "name": "",
          "type": "uint256"
        }
      ],
      "stateMutability": "view",
      "type": "function"
    },
    {
      "inputs": [
        {
          "internalType": "uint256",
          "name": "tokenId_",
          "type": "uint256"
        }
      ],
      "name": "tokenURI",
      "outputs": [
        {
          "internalType": "string",
          "name": "",
          "type": "string"
        }
      ],
      "stateMutability": "view",
      "type": "function"
    },
    {
      "inputs": [],
      "name": "totalBalance",
      "outputs": [
        {
          "internalType": "uint256",
          "name": "",
          "type": "uint256"
        }
      ],
      "stateMutability": "view",
      "type": "function"
    },
    {
      "inputs": [],
      "name": "totalSupply",
      "outputs": [
        {
          "internalType": "uint256",
          "name": "",
          "type": "uint256"
        }
      ],
      "stateMutability": "view",
      "type": "function"
    },
    {
      "inputs": [
        {
          "internalType": "uint256",
          "name": "fromTokenId_",
          "type": "uint256"
        },
        {
          "internalType": "address",
          "name": "to_",
          "type": "address"
        },
        {
          "internalType": "uint256",
          "name": "value_",
          "type": "uint256"
        }
      ],
      "name": "transferFrom",
      "outputs": [
        {
          "internalType": "uint256",
          "name": "",
          "type": "uint256"
        }
      ],
      "stateMutability": "payable",
      "type": "function"
    },
    {
      "inputs": [
        {
          "internalType": "address",
          "name": "from_",
          "type": "address"
        },
        {
          "internalType": "address",
          "name": "to_",
          "type": "address"
        },
        {
          "internalType": "uint256",
          "name": "tokenId_",
          "type": "uint256"
        }
      ],
      "name": "transferFrom",
      "outputs": [],
      "stateMutability": "payable",
      "type": "function"
    },
    {
      "inputs": [
        {
          "internalType": "uint256",
          "name": "fromTokenId_",
          "type": "uint256"
        },
        {
          "internalType": "uint256",
          "name": "toTokenId_",
          "type": "uint256"
        },
        {
          "internalType": "uint256",
          "name": "value_",
          "type": "uint256"
        }
      ],
      "name": "transferFrom",
      "outputs": [],
      "stateMutability": "payable",
      "type": "function"
    },
    {
      "inputs": [
        {
          "internalType": "string",
          "name": "assetId_",
          "type": "string"
        },
        {
          "internalType": "string",
          "name": "side_",
          "type": "string"
        }
      ],
      "name": "validOffers",
      "outputs": [
        {
          "components": [
            {
              "internalType": "uint256",
              "name": "offerId",
              "type": "uint256"
            },
            {
              "internalType": "address",
              "name": "owner",
              "type": "address"
            },
            {
              "internalType": "string",
              "name": "side",
              "type": "string"
            },
            {
              "internalType": "uint256",
              "name": "price",
              "type": "uint256"
            },
            {
              "internalType": "uint256",
              "name": "tokenId",
              "type": "uint256"
            },
            {
              "internalType": "uint256",
              "name": "expiration",
              "type": "uint256"
            }
          ],
          "internalType": "struct Service.Offer[]",
          "name": "",
          "type": "tuple[]"
        }
      ],
      "stateMutability": "view",
      "type": "function"
    },
    {
      "inputs": [],
      "name": "valueDecimals",
      "outputs": [
        {
          "internalType": "uint8",
          "name": "",
          "type": "uint8"
        }
      ],
      "stateMutability": "view",
      "type": "function"
    }
  ],
  "bytecode": "0x60e08060405234620009a557600060a052620088588038038091620000258285620009dc565b8339810161018082820312620006cd57620000408262000a00565b916200004f6020820162000a00565b906200005e6040820162000a00565b6080526200006f6060820162000a00565b926200007e6080830162000a00565b60a083015160c08401519193916001600160401b038111620006cd5783620000a891840162000a3a565b60e08301516001600160401b038111620006cd5784620000ca91850162000a3a565b6101008401519095906001600160401b038111620006cd5785620000f091860162000a3a565b6101208501519096906001600160401b038111620006cd57866200011691870162000a3a565b6101408601519096906001600160401b038111620006cd57610160916200013f91880162000a3a565b9501518060c05260ff811603620006cd57604051926200015f84620009aa565b6006845265636f756e747360d01b6020850152600160035580516001600160401b038111620006775760a051805490600182811c921680156200099a575b6020831014620008b05750601f81116200094e575b5060a05191602092601f8311600114620008de575060a05192839183620008d2575b50508160011b916000199060031b1c19161790555b8051906001600160401b038211620006775760015460a051600182811c92168015620008c7575b6020831014620008b057509081601f84931162000856575b5060a05190602091601f8411600114620007e3575060a05192620007d7575b50508160011b916000199060031b1c1916176001555b60ff60c0511660ff19600254161760025560a0518052600960205260a051604081209060018060a01b038316905260205260a05160ff6040822054161562000788575b50600b80546001600160a01b03199081166001600160a01b0393841617909155600c849055600a805482168b8416179055600d80548216898416179055608051600e80549092169216919091179055604051815160208083019291620003209190839062000312818789860162000a15565b8101038084520182620009dc565b51902060405160208101906374696d6560e01b8252600481526200034481620009aa565b51902003620006d3575060a0515b6004811015620006b5576010805460ff191660ff83161790556001600160a01b0386163b15620006cd57604051916394b39b0960e01b835260018060a01b03891660048401526024830152600460ff82161015620006b55760ff16604482015260a05181606481836001600160a01b038a165af18015620006a8576200068f575b50604051926001600160401b036120c5850190811190851117620006775762000448926200041a62000431926120c562006773883960806120c58801818152019062000a95565b906120c58601820360206120c58801015262000a95565b906120c58401820360406120c58601015262000a95565b6001600160a01b039092166120c582016060015260a051918190039082f09081156200066b5750600880546001600160a01b0319166001600160a01b03928316179055600b541660008181527f3d62299d961dc9bf64f24e2e5b7d5a2b17ee5fc8163a3ddca90e52de8744675560205260409020547f1cd6d520d98babae1045eb69c31ecab800996aa332094cb55c0ac10362e9b0c9919060ff161562000628575b50506001600160a01b03821660009081527ff0bca53ec534e170e0b4115320ce2b072ee8e3338cc6b0c7b13351839d628e0a60205260409020547f9a95e87c5af084bf5db8491c3a6515da9dd6da39b24b0eb0af08d7b9cd808d919060ff1615620005dd575b507f9ac4f8025631594629895b778dc5ee88d01673a254a2291f6b6b174ad25230ca602060018060a01b0360085416604051908152a1601780546001600160a01b03199081166001600160a01b03938416179091556018805482169383169390931790925560c05160ff16601655608051601b80549093169116179055604051615cb6908162000abd8239f35b60008181526009602090815260408083206001600160a01b03871680855292528220805460ff1916600117905533929091600080516020620088388339815191529080a43862000550565b8160005260096020526040600020816000526020526040600020600160ff19825416179055339160008051602062008838833981519152600080a43880620004ea565b604051903d90823e3d90fd5b634e487b7160e01b60a051526041600452602460a051fd5b6001600160401b038111620006775760405238620003d3565b6040513d60a051823e3d90fd5b634e487b7160e01b60a051526021600452602460a051fd5b60a05180fd5b6040516020810190620006f36020828551620003128187858a0162000a15565b5190206040516020810190630c6c2e6d60e31b8252600481526200071781620009aa565b51902003620007295750600162000352565b604051620007496020828162000312818301968781519384920162000a15565b519020604051602081019065636f756e747360d01b8252600681526200076f81620009aa565b519020036200078057600262000352565b600362000352565b80526009602090815260a0805160408082206001600160a01b038616928390529093529051918220805460ff191660011790553391600080516020620088388339815191528180a438620002a0565b01519050388062000247565b60019194505260a051906020822091935b601f19841685106200083a576001945083601f1981161062000820575b505050811b016001556200025d565b015160001960f88460031b161c1916905538808062000811565b81810151835560209485019460019093019290910190620007f4565b909150600160a0515260a05160208120601f850160051c810160208610620008a8575b9085949392915b601f840160051c82018110620008995750505062000228565b82815586955060010162000880565b508062000879565b634e487b7160e01b9052602260045260a051602490fd5b91607f169162000210565b015190503880620001d4565b805260a0516020812090938493925b601f198416851062000932576001945083601f1981161062000918575b505050811b019055620001e9565b015160001960f88460031b161c191690553880806200090a565b81810151835560209485019460019093019290910190620008ed565b60a051805260a05160208120601f840160051c81016020851062000992575b601f840160051c820181106200098657505050620001b2565b8281556001016200096d565b50806200096d565b91607f16916200019d565b600080fd5b604081019081106001600160401b03821117620009c657604052565b634e487b7160e01b600052604160045260246000fd5b601f909101601f19168101906001600160401b03821190821017620009c657604052565b51906001600160a01b0382168203620009a557565b60005b83811062000a295750506000910152565b818101518382015260200162000a18565b81601f82011215620009a55780516001600160401b038111620009c6576040519262000a71601f8301601f191660200185620009dc565b81845260208284010111620009a55762000a92916020808501910162000a15565b90565b9060209162000ab08151809281855285808601910162000a15565b601f01601f191601019056fe608080604052600436101561001357600080fd5b600090813560e01c90816301ffc9a7146131cf5750806303e20953146131ac57806306fdde03146130dd578063081812fc146130be578063095ea7b314612f8857806309c3dd8714612cb65780630f485c0214612ca25780631375d84314612c3c5780631429fb5714612ba157806318160ddd14612b8357806323b872dd14612b5e5780632425eeaf14612807578063248a9ca3146127da578063263f3e7e146127bb5780632caa55a0146125365780632f2ff15d146124875780632f745c59146123de578063310ed7f014611e1857806331b5b90714611d8e57806336568abe14611cfb5780633e7e866914611cda5780633f5d706714611ab157806341815ee4146119b957806342842e0e146119965780634c1de213146119635780634f6ccce7146118de578063505a3853146118c05780636352211e1461188f57806370a082311461186b57806371f0442e1461180557806377955245146117dc578063840f7113146117b3578063865112ce146115a95780638cb0a5111461146757806391d148541461141b57806395d89b411461133c5780639cc7f7081461131d578063a217fddf14611301578063a22cb4651461122c578063a7c9f2d6146111f1578063aa20ce5514610f68578063ad7a672f14610f4a578063b3154c0814610ee4578063b819220514610993578063b88d4fde14610934578063be950a62146107ee578063c87b56dd14610759578063cf2d6fe6146104ea578063d09445c2146104af578063d547741f1461046e578063e14bd3601461038b578063e345e0bc1461035c578063e8a3d485146102cc5763e985e9c51461027357600080fd5b346102c95760403660031901126102c95761028c613224565b6002604061029861323a565b9360018060a01b038094168152600760205220019116600052602052602060ff604060002054166040519015158152f35b80fd5b50346102c957806003193601126102c957600854604051631c97e82760e21b8152908290829060049082906001600160a01b03165afa908115610351578261032a939261032e575b5050604051918291602083526020830190613412565b0390f35b61034a92503d8091833e61034281836132ca565b810190613a10565b3880610314565b6040513d84823e3d90fd5b50346102c95760403660031901126102c957602061038361037b61323a565b600435615b95565b604051908152f35b50346102c95761039a36613496565b600d5460405163f1052af560e01b815233600482015291929190602090829060249082906001600160a01b03165afa908115610463578491610435575b50156103f8578252601c6020526103f36040832091825461389a565b905580f35b60405162461bcd60e51b815260206004820152601560248201527410d85b1b195c881b9bdd08185d5d1a1bdc9a5e9959605a1b6044820152606490fd5b610456915060203d811161045c575b61044e81836132ca565b8101906143f3565b386103d7565b503d610444565b6040513d86823e3d90fd5b50346102c95760403660031901126102c9576104ac60043561048e61323a565b9080845260096020526104a760016040862001546134c6565b6137fb565b80f35b50346102c957806003193601126102c95760206040517f9a95e87c5af084bf5db8491c3a6515da9dd6da39b24b0eb0af08d7b9cd808d918152f35b50346102c95760c03660031901126102c957610504613224565b6064356001600160401b036084358181116107555761052790369060040161333d565b9060a4358181116107515761054090369060040161333d565b93600f549461054e86614120565b600f5583516020809501209283885260139283865260408920888a5286526001908160408b20019060018060a01b03166001600160601b0360a01b82541617905584895283865260408920888a5286528760408a205584895283865260408920888a528652600260408a200192805192831161073d576105ce84546138ce565b601f8111610704575b5086908a601f851160011461068a579360409997959381938293600080516020615c618339815191529d9b99979461067f575b50501b916000199060031b1c19161790555b81885280835285882085895283526024356005878a20015581885280835285882085895283526044356004878a20015581885282528487208488528252826003868920015586526014815261067383858820614089565b8351928352820152a180f35b01519250388061060a565b50848b52878b209293929190601f1984168c5b8181106106ef575091600080516020615c618339815191529b99979593918560409c9a989694106106d6575b505050811b01905561061c565b015160001960f88460031b161c191690553880806106c9565b82840151855593860193928a01928a0161069d565b61072d90858c52888c20601f860160051c8101918a8710610733575b601f0160051c019061412f565b386105d7565b9091508190610720565b634e487b7160e01b8a52604160045260248afd5b8580fd5b8480fd5b50346102c95760203660031901126102c9576004356107778161594f565b80156107da575b61078790613c45565b6008546040516344a5a61760e11b815260048101929092528290829060249082906001600160a01b03165afa908115610351578261032a939261032e575050604051918291602083526020830190613412565b506107876107e78261597d565b905061077e565b50346102c95760203660031901126102c9577f9a95e87c5af084bf5db8491c3a6515da9dd6da39b24b0eb0af08d7b9cd808d9181526009602052604081203360005260205260ff60406000205416156108c95760018060a01b039081600d541691600a541660ff60105416833b156108c557604051916394b39b0960e01b83526004830152600435602483015260048110156108b15781606481858097819560448401525af18015610351576108a15750f35b6108aa90613281565b6102c95780f35b634e487b7160e01b83526021600452602483fd5b8280fd5b60405162461bcd60e51b815260206004820152603760248201527f53656e646572206e6f7420617574686f72697a656420746f207265676973746560448201527f7220636f6e747261637420746f207468697320736c6f740000000000000000006064820152608490fd5b5060803660031901126102c957610949613224565b61095161323a565b606435916001600160401b03831161098f573660238401121561098f576109856104ac933690602481600401359101613306565b9160443591613b6e565b8380fd5b50346102c9576109a2366134ac565b90506109ad82613c91565b6001600160a01b039290831633148015610ea2575b15610e515733836109d283613c91565b1603610e0c576109ec826109e583614068565b10156142f1565b6109f58161594f565b80610df9575b15610d2c57808452601a602052610a2a610a19836040872054613871565b610a2460165461433d565b90613a6e565b610a338261594f565b80610d19575b15610bb8575080610a7b918552601a602052610a73610a5f610a19856040892054613871565b935b610a6b818461434b565b601954614113565b6019556139e9565b91828452602092601c845282604086205410610b615784928492610ae2928552601c845260408520610aae838254614113565b905560175460405163a9059cbb60e01b81523360048201526024810193909352919485939190921691839182906044820190565b03925af1908115610b56578391610b39575b5015610afe575080f35b6064906040519062461bcd60e51b8252600482015260146024820152731554d110c8151c985b9cd9995c8819985a5b195960621b6044820152fd5b610b509150823d841161045c5761044e81836132ca565b38610af4565b6040513d85823e3d90fd5b60405162461bcd60e51b815260048101859052602960248201527f437269746963616c3a20536c6f7420696e73756666696369656e74206261636b604482015268696e672066756e647360b81b6064820152608490fd5b91610bd0826000526011602052604060002054151590565b610be2575b90610a73610a7b92610a61565b9150808452602090601182526040852054801515600014610c95578285601b541691602460405180948193633e1feff960e21b835260048301525afa908115610c8a5784938792610c4e575b5050610c43610a19610a7b94610a7393613871565b935b91925050610bd5565b8194508092503d8311610c83575b610c6681836132ca565b81010312610c7e579051829190610c43610a19610c2e565b600080fd5b503d610c5c565b6040513d88823e3d90fd5b5060248285601b541660405192838092633e1feff960e21b82528660048301525afa908115610c8a5784938792610ce2575b5050610cdc610a19610a7b94610a7393613871565b93610c45565b8194508092503d8311610d12575b610cfa81836132ca565b81010312610c7e579051829190610cdc610a19610cc7565b503d610cf0565b50610d23826139e9565b600c5414610a39565b8084526011602090815260408520548015610db9578185601b541691602460405180948193633e1feff960e21b835260048301525afa908115610c8a5784928792610d86575b5050610d8191610a1991613871565b610a2a565b8193508092503d8311610db2575b610d9e81836132ca565b81010312610c7e5751829081610a19610d72565b503d610d94565b5060248185601b541660405192838092633e1feff960e21b82528760048301525afa908115610c8a5784928792610d86575050610d8191610a1991613871565b50610e03816139e9565b600c54146109fb565b60405162461bcd60e51b815260206004820152601960248201527f4f6e6c7920746865206f776e65722063616e2072656465656d000000000000006044820152606490fd5b60405162461bcd60e51b815260206004820152602360248201527f53656e646572206973206e6f7420617574686f72697a656420746f207265646560448201526232b69760e91b6064820152608490fd5b507f1cd6d520d98babae1045eb69c31ecab800996aa332094cb55c0ac10362e9b0c984526009602052604084203360005260205260ff604060002054166109c2565b50346102c95760203660031901126102c957600854604051631662a98160e31b81526004803590820152908290829060249082906001600160a01b03165afa908115610351578261032a939261032e575050604051918291602083526020830190613412565b50346102c957806003193601126102c9576020601954604051908152f35b50346102c957602081610f7a3661335b565b9660039992959196999493945499610f918b614120565b600355600e54604051630151086360e31b81526001600160a01b039384166004820152602481019290925260448201939093526064810194909452839160849183918b91165af1908115610c8a5786916111bc575b50868652601160205260408620556008546001600160a01b0316803b15610751576110398692918392604051948580948193632108947560e21b83528d6004840152604060248401526044830190613412565b03925af19081156111b157859161119d575b50506008546001600160a01b0316803b1561075557611092859291839260405194858094819363246a908b60e01b83528c6004840152604060248401526044830190613412565b03925af1908115610463578491611189575b50506008546001600160a01b0316803b1561098f576110eb8492918392604051948580948193630190503b60e61b83528b6004840152604060248401526044830190613412565b03925af1908115610b56578391611175575b50506008546001600160a01b031690813b156108c557829161114391604051948580948193637e468a5160e01b8352896004840152604060248401526044830190613412565b03925af18015610b565761115d575b602082604051908152f35b6111678391613281565b6111715781611152565b5080fd5b61117e90613281565b6111715781386110fd565b61119290613281565b6108c55782386110a4565b6111a690613281565b61098f57833861104b565b6040513d87823e3d90fd5b9550506020853d6020116111e9575b816111d8602093836132ca565b81010312610c7e5786945138610fe6565b3d91506111cb565b50346102c957806003193601126102c95760206040517f1cd6d520d98babae1045eb69c31ecab800996aa332094cb55c0ac10362e9b0c98152f35b50346102c95760403660031901126102c957611246613224565b602435908115158092036108c5576001600160a01b0316903382146112bc5733835260076020526002604084200182600052602052604060002060ff1981541660ff83161790556040519081527f17307eab39ab6107e8899845ad3d59bd9653f200f220920489ca2b5937696c3160203392a380f35b60405162461bcd60e51b815260206004820152601a60248201527f455243333532353a20617070726f766520746f2063616c6c65720000000000006044820152606490fd5b50346102c957806003193601126102c957602090604051908152f35b50346102c95760203660031901126102c9576020610383600435615a36565b50346102c957806003193601126102c95760405160006001805490611360826138ce565b808552918181169081156113f4575060011461139b575b61032a84611387818603826132ca565b604051918291602083526020830190613412565b600081815292507fb10e2d527612073b26eecdfd717e6a320cf44b4afac2b0732d9fcbe2b7fa0cf65b8284106113dc57505050810160200161138782611377565b805460208587018101919091529093019281016113c4565b60ff191660208087019190915292151560051b850190920192506113879150839050611377565b50346102c95760403660031901126102c957604061143761323a565b9160043581526009602052209060018060a01b0316600052602052602060ff604060002054166040519015158152f35b5061147136613437565b9061147b836159f3565b836114858461594f565b80611596575b1561152857506114b16001600160a01b03806114a686613c91565b169083161415613bee565b6114bb8333613d12565b156114c9576104ac926151ea565b60405162461bcd60e51b815260206004820152603160248201527f455243333532353a20617070726f76652063616c6c6572206973206e6f74206f6044820152701ddb995c881b9bdc88185c1c1c9bdd9959607a1b6064820152608490fd5b600e54938152601160205260408120549093919290916001600160a01b0316803b1561075557604051638cb0a51160e01b815260048101939093526001600160a01b0393909316602483015260448201529082908290606490829084905af18015610351576108a157505080f35b506115a0846139e9565b600c541461148b565b50346102c9576115b83661335b565b9288602060018060a09b989a9b9695961b03601754166064604051809481936323b872dd60e01b83523360048401523060248401528d60448401525af180156117a8579489946116eb9489948561163660209f9a9c6116318f6116fd9f9960409f9a61178a575b5061162b60165461433d565b90613871565b613a6e565b9d8e600c54821460001461172b575061164e9661442a565b9761165889614068565b6116628382614113565b8a81151580611718575b1561170757926116986116916116319361169e968b528f601a90528b8b205490613871565b9186613871565b9061389a565b888552601a8a52858520555b845188815260208101849052604081018290527faece14be49e112217fca958e740bc3cd03a735e7b72fc6449aa1961c5942966b90606090a160195461389a565b6019558152601c86522091825461389a565b9055604051908152f35b87525050601a8a52858520556116aa565b508752601a8c528a88882054151561166c565b919061173697614a4c565b808552601a8a52858520989098556011895284842054855190815260208101849052604081018290527f36fba2e6d0870905dade4201d8b7ff8b54c52b9e7de8df1400244d22e0d2384690606090a16116aa565b6117a19060203d811161045c5761044e81836132ca565b503861161f565b6040513d8c823e3d90fd5b50346102c957806003193601126102c9576008546040516001600160a01b039091168152602090f35b50346102c957806003193601126102c957600a546040516001600160a01b039091168152602090f35b50346102c95760203660031901126102c9576008546040516338f8221760e11b81526004803590820152908290829060249082906001600160a01b03165afa908115610351578261032a939261032e575050604051918291602083526020830190613412565b50346102c95760203660031901126102c957602061038361188a613224565b613a8e565b50346102c95760203660031901126102c95760206118ae600435615ae8565b6040516001600160a01b039091168152f35b50346102c957806003193601126102c9576020600c54604051908152f35b50346102c95760203660031901126102c957600435600554811015611912576119086020916139ae565b5054604051908152f35b60405162461bcd60e51b815260206004820152602360248201527f455243333532353a20676c6f62616c20696e646578206f7574206f6620626f756044820152626e647360e81b6064820152608490fd5b50346102c95760203660031901126102c9576040602091600435611986816159f3565b8152601183522054604051908152f35b506104ac6119a336613461565b90604051926119b1846132af565b858452613b6e565b50346102c957806003193601126102c95760ff601054166004811015611a9d5760038103611a1b57505061032a6040516119f281613294565b60088152677072696f7269747960c01b6020820152604051918291602083526020830190613412565b80611a4757505061032a604051611a3181613294565b600481526374696d6560e01b6020820152611387565b600214159050611a785761032a604051611a6081613294565b6006815265636f756e747360d01b6020820152611387565b61032a604051611a8781613294565b60048152630c6c2e6d60e31b6020820152611387565b634e487b7160e01b82526021600452602482fd5b50346102c95760a03660031901126102c9576001600160401b0360443560643582811161098f57611ae690369060040161333d565b60843583811161075557611afe90369060040161333d565b600f5493611b0b85614120565b600f5582516020809401209182875260139182855260408820878952855260018060408a2001336001600160601b0360a01b82541617905584895283865260408920888a5286528760408a205584895283865260408920888a528652600260408a200192805192831161073d57611b8284546138ce565b601f8111611cac575b5086908a601f8511600114611c32579360409997959381938293600080516020615c618339815191529d9b999794611c27575b50501b916000199060031b1c19161790555b81885280835285882085895283526004356005878a20015581885280835285882085895283526024356004878a20015581885282528487208488528252826003868920015586526014815261067383858820614089565b015192503880611bbe565b50848b52878b209293929190601f1984168c5b818110611c97575091600080516020615c618339815191529b99979593918560409c9a98969410611c7e575b505050811b019055611bd0565b015160001960f88460031b161c19169055388080611c71565b82840151855593860193928a01928a01611c45565b611cd490858c52888c20601f860160051c8101918a871061073357601f0160051c019061412f565b38611b8b565b50346102c957806003193601126102c957602060ff60025416604051908152f35b50346102c95760403660031901126102c957611d1561323a565b336001600160a01b03821603611d31576104ac906004356137fb565b60405162461bcd60e51b815260206004820152602f60248201527f416363657373436f6e74726f6c3a2063616e206f6e6c792072656e6f756e636560448201526e103937b632b9903337b91039b2b63360891b6064820152608490fd5b50346102c95760203660031901126102c957806004356001600160401b038111611e1557611dc090369060040161333d565b6008546001600160a01b0316803b15611e11576040516355f804b360e01b8152602060048201529183918391829084908290611e00906024830190613412565b03925af18015610351576108a15750f35b5050fd5b50fd5b50611e22366134ac565b90611e2c8361594f565b806123cb575b806123a8575b15611f7657828452601a6020526040842054818552604085205403611e61575b6104ac92615790565b611e78836000526011602052604060002054151590565b80611f59575b15611ee0576104ac92611ecc611e9383614068565b828752601a602052610a24611ec5611eaf8760408b2054613871565b868a52601a6020526116988460408c2054613871565b918661389a565b828652601a60205260408620559250611e58565b60405162461bcd60e51b815260206004820152604560248201527f436f756e74734372656469743a2063616c6320636f6e747261637420636f756e60448201527f742d76616c7565207261746520726571756972657320636f6e747261637420746064820152646f6b656e7360d81b608482015260a490fd5b50611f71816000526011602052604060002054151590565b611e7e565b909291611f828161594f565b80612395575b158061236c575b156123025780835260206011815260408420549081156122b257611fb4868585615790565b601b54604051639448bddb60e01b815260048101869052916001600160a01b039182168184602481845afa9384156121ec578894612283575b5082841694308603612049575b5050505050506120437fdf7a601a0a201ccd4b4bfcfd610913188d931867997223d226f85f2f2673988a9394604051938493846040919493926060820195825260208201520152565b0390a180f35b8290602460405180948193633e1feff960e21b835260048301525afa9081156121ec57908991899161224c575b5061208491610a1991613871565b9261208e866139e9565b92838952601c83528460408a2054106121f75784612106928492868c52601c845260408c206120be848254614113565b90556120cc8d601954614113565b60195560175416908b60405180968195829463a9059cbb60e01b84526004840160209093929193604081019460018060a01b031681520152565b03925af19081156121ec5788916121cf575b50156121945750823b1561075157906044869283604051958694859363070a5e9b60e51b8552600485015260248401525af180156104635761215f575b8080808080611ffa565b7fdf7a601a0a201ccd4b4bfcfd610913188d931867997223d226f85f2f2673988a9361218d61204392613281565b9350612155565b6064906040519062461bcd60e51b8252600482015260146024820152731554d110c81d1c985b9cd9995c8819985a5b195960621b6044820152fd5b6121e69150823d841161045c5761044e81836132ca565b38612118565b6040513d8a823e3d90fd5b60405162461bcd60e51b815260048101849052602760248201527f496e73756666696369656e74206261636b696e672066756e647320666f7220746044820152663930b739b332b960c91b6064820152608490fd5b809250838092503d831161227c575b61226581836132ca565b8101031261227857518890612084612076565b8780fd5b503d61225b565b6122a4919450823d84116122ab575b61229c81836132ca565b81019061440b565b9238611fed565b503d612292565b6084906040519062461bcd60e51b825260048201526024808201527f436f756e7473546f6b656e3a20696e76616c69642073656e64657220746f6b656044820152631b88125160e21b6064820152fd5b608460405162461bcd60e51b815260206004820152604060248201527f436f756e74734372656469743a207472616e73666572206d69736d617463682060448201527f6265747765656e206c6f63616c20616e64206e6574776f726b20746f6b656e736064820152fd5b506123768261594f565b80612382575b15611f8f565b5061238c826139e9565b600c541461237c565b5061239f816139e9565b600c5414611f88565b506123b28161594f565b8015611e3857506123c2816139e9565b600c5414611e38565b506123d5836139e9565b600c5414611e32565b50346102c95760403660031901126102c9576123f8613224565b9060243561240583613a8e565b8110156124375760406124299260209460018060a01b031681526007855220613cfa565b90546040519160031b1c8152f35b60405162461bcd60e51b815260206004820152602260248201527f455243333532353a206f776e657220696e646578206f7574206f6620626f756e604482015261647360f01b6064820152608490fd5b50346102c95760403660031901126102c9576004356124a461323a565b81835260096020526124bc60016040852001546134c6565b8183526009602052604083209060018060a01b03169081845260205260ff604084205416156124e9578280f35b81835260096020526040832081845260205260408320600160ff1982541617905533917f2f8788117e7eff1d82e926ec794901d17c78024a50270940304540a733656f0d8480a438808280f35b50346102c95761254536613496565b7f9a95e87c5af084bf5db8491c3a6515da9dd6da39b24b0eb0af08d7b9cd808d9183526020906009825260408420338552825260ff6040852054161561277657612592816109e585615a36565b61259b8361594f565b80612763575b156125f757604090600080516020615c2183398151915292848652601a81526125d0610a198385892054613871565b905b6125dc838761434b565b6125e883601954614113565b6019558351928352820152a280f35b61260e836000526011602052604060002054151590565b1561271e5782845260118252604084205480156126c357601b54604051633e1feff960e21b815260048101929092528390829060249082906001600160a01b03165afa9081156111b1578591612686575b5090600080516020615c2183398151915292612680610a1983604095613871565b906125d2565b9190508282813d83116126bc575b61269e81836132ca565b81010312610755579051600080516020615c2183398151915261265f565b503d612694565b50601b54604051633e1feff960e21b815260048101859052908390829060249082906001600160a01b03165afa9081156111b1578591612686575090600080516020615c2183398151915292612680610a1983604095613871565b60405162461bcd60e51b815260048101839052601760248201527f546f6b656e206973206e6f74207265636f676e697a65640000000000000000006044820152606490fd5b5061276d836139e9565b600c54146125a1565b60405162461bcd60e51b815260048101839052601d60248201527f43616c6c6572206973206e6f74206120736572766963652061646d696e0000006044820152606490fd5b50346102c95760203660031901126102c95760206103836004356139e9565b50346102c95760203660031901126102c95760016040602092600435815260098452200154604051908152f35b50346102c95760403660031901126102c9576001600160401b036004358181116108c55761283990369060040161333d565b906024359081116108c55761285290369060040161333d565b9080516020809201209182845260148252604084206040519081848254918281520191875284872090875b818110612b4a57505050816128939103826132ca565b849282810191845b81518110156129595786885260138352604088206128b98284615b81565b518952835260a0604089206040516128d081613250565b81548152600180841b036001830154168682015260056128f260028401613908565b928360408401526003810154606084015260048101546080840152015492839101528481519101208651862014908161294f575b5061293a575b61293590614120565b61289b565b9461294761293591614120565b95905061292c565b9050421038612926565b509293919361296783614a35565b9261297560405194856132ca565b808452612984601f1991614a35565b0182885b828110612b10575050508693875b8151811015612a6f5787895260138452604089206129b48284615b81565b518a52845260408920604051906129ca82613250565b8054825260018101546001600160a01b03168683015260056129ee60028301613908565b9182604085015260038101546060850152600481015460808501520154908160a084015286815191012085518a20149081612a65575b50612a39575b50612a3490614120565b612996565b9590612a5e82612a4c612a349491614120565b98612a57828a615b81565b5287615b81565b5090612a2a565b9050421038612a24565b83898660405191838301848452825180915260408401948060408360051b870101940192955b828710612aa25785850386f35b909192938280600192603f1989820301855287519081518152848060a01b03838301511683820152612ae2604083015160c0806040850152830190613412565b91606080820151908301526080808201519083015260a0809101519101529601920196019592919092612a95565b604051612b1c81613250565b8a81528a838201528a60608060408401528201528a60808201528a60a0820152828288010152018390612988565b82548452928601926001928301920161287d565b506104ac612b6b36613461565b91612b7e612b798433613d12565b613b07565b613d83565b50346102c957806003193601126102c9576020600554604051908152f35b50346102c95760e03660031901126102c957612bbb613224565b906001600160401b036064358181116108c557612bdc90369060040161333d565b60843582811161098f57612bf490369060040161333d565b9160a43581811161075557612c0d90369060040161333d565b9360c4359182116102c957602061038387878787612c2e3660048a0161333d565b93604435906024359061442a565b50346102c95760203660031901126102c957600854604051631375d84360e01b81526004803590820152908290829060249082906001600160a01b03165afa908115610351578261032a939261032e575050604051918291602083526020830190613412565b6020610383612cb036613437565b91614ccb565b50346102c957602090816003193601126102c95760043560018060a01b036008541690604051636c0360eb60e01b81528381600481865afa908115610463578491612f6e575b508215612d6d57508290602460405180948193633601bfc560e11b835260048301525afa918215612d61578092612d46575b5050905b61032a604051928284938452830190613412565b612d5a92503d8091833e61034281836132ca565b3880612d2e565b604051903d90823e3d90fd5b80519093925015612f35578190807a184f03e93ff9f4daa797ed6e38ed64bf6a1f0100000000000000008181811015612f27575b5050856d04ee2d6d415b85acef810000000080841015612f19575b5050662386f26fc1000080831015612f0a575b506305f5e10080831015612efb575b5061271080831015612eec575b506064821015612edc575b600a80921015612ed2575b60019081602181860195612e2d612e17886132eb565b97612e25604051998a6132ca565b8089526132eb565b878b019890601f1901368a3750860101905b612e9c575b50505050612e8792612e96926025926040519583612e6b88955180928b80890191016133ef565b84019164736c6f742f60d81b89840152518093868401906133ef565b010360058101845201826132ca565b90612d32565b600019019083906f181899199a1a9b1b9c1cb0b131b232b360811b8282061a835304918215612ecd57919082612e3f565b612e44565b9160010191612e01565b9190606460029104910191612df6565b60049193920491019138612deb565b60089193920491019138612dde565b60109193920491019138612dcf565b930192909104908538612dbc565b604094500491503880612da1565b5060405191508282016001600160401b03811183821017612f5a576040528152612e96565b634e487b7160e01b82526041600452602482fd5b612f8291503d8086833e61034281836132ca565b38612cfc565b5060403660031901126102c957612f9d613224565b602435906001600160a01b038080612fb485613c91565b16921691612fc481841415613bee565b80331490811561309a575b501561302f5782845260066020526004612fec60408620546139ae565b500180546001600160a01b0319168317905561300783613c91565b167f8c5be1e5ebec7d5bd14f71427d1e84f3dd0314c0f7b2291e5b200ac8c7c3b9258480a480f35b60405162461bcd60e51b815260206004820152603960248201527f455243333532353a20617070726f76652063616c6c6572206973206e6f74206f60448201527f776e6572206e6f7220617070726f76656420666f7220616c6c000000000000006064820152608490fd5b9050845260076020526002604085200133855260205260ff60408520541638612fcf565b50346102c95760203660031901126102c95760206118ae600435613cca565b50346102c957806003193601126102c957604051908080546130fe816138ce565b808552916001918083169081156131825750600114613128575b61032a85611387818703826132ca565b80809450527f290decd9548b62a8d60345a988386fc84ba6bc95484008f6362f93160ef3e5635b82841061316a5750505081016020016113878261032a613118565b8054602085870181019190915290930192810161314f565b86955061032a9693506020925061138794915060ff191682840152151560051b8201019293613118565b50346102c95760206103836131c03661335b565b96959095949194939293614a4c565b9050346111715760203660031901126111715760043563ffffffff60e01b81168091036108c55760209250637965db0b60e01b8114908115613213575b5015158152f35b6301ffc9a760e01b1490503861320c565b600435906001600160a01b0382168203610c7e57565b602435906001600160a01b0382168203610c7e57565b60c081019081106001600160401b0382111761326b57604052565b634e487b7160e01b600052604160045260246000fd5b6001600160401b03811161326b57604052565b604081019081106001600160401b0382111761326b57604052565b602081019081106001600160401b0382111761326b57604052565b90601f801991011681019081106001600160401b0382111761326b57604052565b6001600160401b03811161326b57601f01601f191660200190565b929192613312826132eb565b9161332060405193846132ca565b829481845281830111610c7e578281602093846000960137010152565b9080601f83011215610c7e5781602061335893359101613306565b90565b610100600319820112610c7e576004356001600160a01b0381168103610c7e57916024359160443591606435916001600160401b0390608435828111610c7e57816133a89160040161333d565b9260a435838111610c7e57826133c09160040161333d565b9260c435818111610c7e57836133d89160040161333d565b9260e435918211610c7e576133589160040161333d565b60005b8381106134025750506000910152565b81810151838201526020016133f2565b9060209161342b815180928185528580860191016133ef565b601f01601f1916010190565b6060906003190112610c7e57600435906024356001600160a01b0381168103610c7e579060443590565b6060906003190112610c7e576001600160a01b03906004358281168103610c7e57916024359081168103610c7e579060443590565b6040906003190112610c7e576004359060243590565b6060906003190112610c7e57600435906024359060443590565b60009080825260209060098252604092838120338252835260ff8482205416156134f05750505050565b8351916001600160401b03903360608501838111868210176137e7578752602a855285850191873684378551156137d357603083538551916001928310156137bf576078602188015360295b838111613755575061371357908751936080850190858210908211176136ff578852604284528684019460603687378451156136eb576030865384518210156136eb5790607860218601536041915b81831161367d5750505061363b5761363793869361361b9361360c6048946135e39a519a8b957f416363657373436f6e74726f6c3a206163636f756e74200000000000000000008c88015251809260378801906133ef565b8401917001034b99036b4b9b9b4b733903937b6329607d1b6037840152518093868401906133ef565b010360288101875201856132ca565b5192839262461bcd60e51b845260048401526024830190613412565b0390fd5b60648587519062461bcd60e51b825280600483015260248201527f537472696e67733a20686578206c656e67746820696e73756666696369656e746044820152fd5b909192600f811660108110156136d7576f181899199a1a9b1b9c1cb0b131b232b360811b901a6136ad85886138a7565b5360041c9280156136c35760001901919061358b565b634e487b7160e01b82526011600452602482fd5b634e487b7160e01b83526032600452602483fd5b634e487b7160e01b81526032600452602490fd5b634e487b7160e01b86526041600452602486fd5b60648789519062461bcd60e51b825280600483015260248201527f537472696e67733a20686578206c656e67746820696e73756666696369656e746044820152fd5b90600f811660108110156137ab576f181899199a1a9b1b9c1cb0b131b232b360811b901a613783838a6138a7565b5360041c908015613797576000190161353c565b634e487b7160e01b87526011600452602487fd5b634e487b7160e01b88526032600452602488fd5b634e487b7160e01b86526032600452602486fd5b634e487b7160e01b85526032600452602485fd5b634e487b7160e01b85526041600452602485fd5b906000918083526009602052604083209160018060a01b03169182845260205260ff60408420541661382c57505050565b8083526009602052604083208284526020526040832060ff1981541690557ff6391f5c32d9c69d2a47ea670b442974b53935d1edc7fd64eb21e047a839171b339380a4565b8181029291811591840414171561388457565b634e487b7160e01b600052601160045260246000fd5b9190820180921161388457565b9081518110156138b8570160200190565b634e487b7160e01b600052603260045260246000fd5b90600182811c921680156138fe575b60208310146138e857565b634e487b7160e01b600052602260045260246000fd5b91607f16916138dd565b906040519182600082549261391c846138ce565b90818452600194858116908160001461398b5750600114613948575b5050613946925003836132ca565b565b9093915060005260209081600020936000915b81831061397357505061394693508201013880613938565b8554888401850152948501948794509183019161395b565b91505061394694506020925060ff191682840152151560051b8201013880613938565b6005548110156138b8576006906005600052027f036b6384b5eca791c62761152d0c79bb0604c104a5fb6f4eb0703f3154bb3db00190600090565b6139f2816159f3565b60005260066020526001613a0a6040600020546139ae565b50015490565b602081830312610c7e578051906001600160401b038211610c7e570181601f82011215610c7e578051613a42816132eb565b92613a5060405194856132ca565b81845260208284010111610c7e5761335891602080850191016133ef565b8115613a78570490565b634e487b7160e01b600052601260045260246000fd5b6001600160a01b03168015613aae57600052600760205260406000205490565b60405162461bcd60e51b815260206004820152602b60248201527f455243333532353a2062616c616e636520717565727920666f7220746865207a60448201526a65726f206164647265737360a81b6064820152608490fd5b15613b0e57565b60405162461bcd60e51b815260206004820152603260248201527f455243333532353a207472616e736665722063616c6c6572206973206e6f74206044820152711bdddb995c881b9bdc88185c1c1c9bdd995960721b6064820152608490fd5b90613b92939291613b82612b798433613d12565b613b8d838383613d83565b6141ca565b15613b9957565b60405162461bcd60e51b815260206004820152602760248201527f455243333532353a207472616e7366657220746f206e6f6e204552433732315260448201526632b1b2b4bb32b960c91b6064820152608490fd5b15613bf557565b60405162461bcd60e51b815260206004820152602260248201527f455243333532353a20617070726f76616c20746f2063757272656e74206f776e60448201526132b960f11b6064820152608490fd5b15613c4c57565b60405162461bcd60e51b815260206004820152601960248201527f455243333532353a20696e76616c696420746f6b656e204944000000000000006044820152606490fd5b613c9a816159f3565b6000526006602052613cb06040600020546139ae565b50600301546001600160a01b031690613946821515613c45565b613cd3816159f3565b6000526006602052613ce96040600020546139ae565b50600401546001600160a01b031690565b80548210156138b85760005260206000200190600090565b906001600160a01b038080613d2684613c91565b16931691838314938415613d59575b508315613d43575b50505090565b613d4f91929350613cca565b1614388080613d3d565b909350600052600760205260026040600020018260005260205260ff604060002054169238613d35565b613d8c83613c91565b6001600160a01b039182169190811682900361401757808316928315613fc457613db5856139e9565b50613dbf85614068565b5060009185835260209060068252604090613ddc828620546139ae565b50600490810180546001600160a01b03199081169091559091898782613e0183613c91565b167f8c5be1e5ebec7d5bd14f71427d1e84f3dd0314c0f7b2291e5b200ac8c7c3b9258280a4898752600685526005613e3b858920546139ae565b500180549091858988818f5b868410613f8d5750505050505050805487825580613f74575b5050888652600684526003613e77848820546139ae565b5001908154169055858552600783528185209182549360001994858101908111613f615790613ea888939286613cfa565b90549060031b1c9060018601908c85528181528385205492613ee981613ece868b613cfa565b90919082549060031b600019811b9283911b16911916179055565b855252818320558982528120558154908115613f4e575092828892613f4a947fddf252ad1be2c89b69c2b068fc378daa952ba7f163c4a11628f55a4df523b3ef97960191613f378383613cfa565b909182549160031b1b19169055556140ac565b80a4565b634e487b7160e01b865260319052602485fd5b634e487b7160e01b885260118452602488fd5b613f869188528588209081019061412f565b3880613e60565b613fba9486928b613f9e878c613cfa565b96905494835252209260031b1c168c5289528a88812055614120565b8690888b8f613e47565b60405162461bcd60e51b815260206004820152602560248201527f455243333532353a207472616e7366657220746f20746865207a65726f206164604482015264647265737360d81b6064820152608490fd5b60405162461bcd60e51b8152602060048201526024808201527f455243333532353a207472616e736665722066726f6d20696e76616c6964206f6044820152633bb732b960e11b6064820152608490fd5b614071816159f3565b60005260066020526002613a0a6040600020546139ae565b90815491600160401b83101561326b5782613ece91600161394695018155613cfa565b90604061394692600090838252600660205260036140cc848420546139ae565b500180546001600160a01b0319166001600160a01b039092169182179055808252600760208181528484208054878652600191909101825285852055918352905220614089565b9190820391821161388457565b60001981146138845760010190565b81811061413a575050565b6000815560010161412f565b90600160401b811161326b5781549080835581811061416457505050565b613946926000526020600020918201910161412f565b90816020910312610c7e57516001600160e01b031981168103610c7e5790565b3d156141c5573d906141ab826132eb565b916141b960405193846132ca565b82523d6000602084013e565b606090565b9192813b63ffffffff16156142e857602091614222916000604051958680958194630a85bd0160e11b9a8b845233600485015260018060a01b0380951660248501526044840152608060648401526084830190613412565b0393165af1600091816142b8575b506142aa5761423d61419a565b805190816142a55760405162461bcd60e51b815260206004820152603260248201527f4552433732313a207472616e7366657220746f206e6f6e20455243373231526560448201527131b2b4bb32b91034b6b83632b6b2b73a32b960711b6064820152608490fd5b602001fd5b6001600160e01b0319161490565b6142da91925060203d81116142e1575b6142d281836132ca565b81019061417a565b9038614230565b503d6142c8565b50505050600190565b156142f857565b60405162461bcd60e51b815260206004820152601b60248201527f496e73756666696369656e74206372656469742062616c616e636500000000006044820152606490fd5b604d811161388457600a0a90565b614354816159f3565b806000526006602052600261436d6040600020546139ae565b500180548381106143a25783600080516020615c4183398151915292614397600096602094614113565b9055604051908152a3565b60405162461bcd60e51b815260206004820152602360248201527f455243333532353a206275726e2076616c756520657863656564732062616c616044820152626e636560e81b6064820152608490fd5b90816020910312610c7e57518015158103610c7e5790565b90816020910312610c7e57516001600160a01b0381168103610c7e5790565b95909394919460009260018060a01b03918289169586865260156020526040968787208988526020528787205487811515806149df575b614995575b61492b57506003549a6144788c614120565b60035581156148dd578b1561488f576144908c61594f565b8015614880575b61483c5788516144a6816132af565b88815289518a8e6144b683613250565b8083528d60208401908152828401908d82528d6060860193898552608087019582875260a08801988952600554928392815260066020522055600160401b8110156148285780600161450b92016005556139ae565b9590956148145751855551600185015551600284015551600383018054918b166001600160a01b03199283161790559051600483018054918b16919092161790559051805191600501906001600160401b038311614800579060208f959493926145758484614146565b01908b5260208b208b5b8381106147dd575050505082614594916140ac565b877fddf252ad1be2c89b69c2b068fc378daa952ba7f163c4a11628f55a4df523b3ef8180a487868b7fe4f48c240d3b994948aa54f3e2f5fca59263dfe1d52b6e4cf39a5d249b5ccb658280a46145ea898b6149fd565b8360085416803b156147d95761462691879189838e825196879586948593632108947560e21b8552600485015260248401526044830190613412565b03925af180156147cf576147bc575b508260085416803b15610751576146719186918b838a5180968195829463246a908b60e01b845260048401528d60248401526044830190613412565b03925af180156147b25790859161479e575b50508160085416803b15610755576146c09185918a838951809681958294630190503b60e61b845260048401528c60248401526044830190613412565b03925af1801561479457908491614780575b50506008541690813b156108c55761470f839283928651948580948193637e468a5160e01b83528d60048401528a60248401526044830190613412565b03925af1801561477657614762575b505051838152602081019190915260408101919091527f84eeb48eca46cea54afc9753345f6038981672ea565f32885420829dfd88aea69080606081015b0390a190565b61476c8291613281565b6102c9578061471e565b83513d84823e3d90fd5b61478990613281565b6108c55782386146d2565b85513d86823e3d90fd5b6147a790613281565b61098f578338614683565b86513d87823e3d90fd5b6147c890959195613281565b9338614635565b87513d88823e3d90fd5b8680fd5b82939495965060208b6001939451169401938184015501908f959493929161457f565b634e487b7160e01b8b52604160045260248bfd5b634e487b7160e01b8f5260048f905260248ffd5b634e487b7160e01b8f52604160045260248ffd5b885162461bcd60e51b815260206004820152601d60248201527f455243333532353a20746f6b656e20616c7265616479206d696e7465640000006044820152606490fd5b5061488a8c61597d565b614497565b885162461bcd60e51b815260206004820152602160248201527f455243333532353a2063616e6e6f74206d696e74207a65726f20746f6b656e496044820152601960fa1b6064820152608490fd5b885162461bcd60e51b815260206004820152602160248201527f455243333532353a206d696e7420746f20746865207a65726f206164647265736044820152607360f81b6064820152608490fd5b9a50505050505050509061475c7f84eeb48eca46cea54afc9753345f6038981672ea565f32885420829dfd88aea6939261496486613c91565b5061496e866139e9565b5061497984876149fd565b5192839286846040919493926060820195825260208201520152565b82876149a084615ae8565b1614806149ce575b806149bb575b1561446657506001614466565b50818952601160205289892054156149ae565b508a6149d9836139e9565b146149a8565b506149e98261594f565b8061446157506149f88261597d565b614461565b90600080516020615c418339815191526020600092848452600682526002614a2860408620546139ae565b500161439782825461389a565b6001600160401b03811161326b5760051b60200190565b94909693959195602060025497600098614a7860018060a01b0397610a2460ff8a600e5416941661433d565b60408051630bbed13160e21b81526001600160a01b039b909b1660048c015260248b019c909c5260448a01929092526064890191909152969896899060849082908b905af1978815614c8e578798614c98575b5060035497614ad989614120565b6003558888526011602052868820558360085416803b1561227857614b239188918a838a51809681958294632108947560e21b845260048401528d60248401526044830190613412565b03925af18015614c8e57614c7b575b508260085416803b156147d957614b6e9187918983895180968195829463246a908b60e01b845260048401528c60248401526044830190613412565b03925af18015614c7157908691614c5d575b5050816008541690813b1561075157614bbe869283928751948580948193630190503b60e61b83528d60048401528b60248401526044830190613412565b03925af18015614c5357908591614c3f575b50506008541690813b1561098f57614c0f8392859492859351958680948193637e468a5160e01b83528b60048401528860248401526044830190613412565b03925af1908115614c365750614c2457505090565b614c2e8291613281565b6102c9575090565b513d84823e3d90fd5b614c4890613281565b61098f578338614bd0565b84513d87823e3d90fd5b614c6690613281565b610755578438614b80565b85513d88823e3d90fd5b614c8790969196613281565b9438614b32565b86513d89823e3d90fd5b9097506020813d8211614cc3575b81614cb3602093836132ca565b810103126147d957519638614acb565b3d9150614ca6565b91909160009080825260209160118352604092838220541560001461503f57614cf5858433615122565b60035495614d0287614120565b600355614d0e846139e9565b906001600160a01b0380821691908215614ff1578915614fa357614d318a61594f565b8015614f94575b614f505784908851614d49816132af565b8781528951888b8e614d5a84613250565b8084528684018a81528285019184835260608601938b8552608087019580875260a0880198895260066005549b8c948352522055600160401b881015614f3c57614dab6001988981016005556139ae565b959095614f2857906005959493929151855551888501555160028401558560038401915116906001600160601b0360a01b9182825416179055856004840192511690825416179055019051918251926001600160401b03841161073d57908883928f9b9a99989796959485614e1f91614146565b0191895287892090895b848110614f12575050505050507f6d811e6a20ae5461a4ef22a6998c1d958defe727f1cc522b6eb792bc8e6f726698979693869384614ef59794614e7f61475c9a600080516020615c41833981519152966140ac565b857fddf252ad1be2c89b69c2b068fc378daa952ba7f163c4a11628f55a4df523b3ef8180a483857fe4f48c240d3b994948aa54f3e2f5fca59263dfe1d52b6e4cf39a5d249b5ccb658280a483835260068152614edd888420546139ae565b50508751838152a3614ef08588836153bc565b6139e9565b915192839286846040919493926060820195825260208201520152565b83518216818401558f9b50928901928501614e29565b634e487b7160e01b8e5260048e905260248efd5b634e487b7160e01b8d52604160045260248dfd5b875162461bcd60e51b815260048101869052601d60248201527f455243333532353a20746f6b656e20616c7265616479206d696e7465640000006044820152606490fd5b50614f9e8a61597d565b614d38565b875162461bcd60e51b815260048101869052602160248201527f455243333532353a2063616e6e6f74206d696e74207a65726f20746f6b656e496044820152601960fa1b6064820152608490fd5b875162461bcd60e51b815260048101869052602160248201527f455243333532353a206d696e7420746f20746865207a65726f206164647265736044820152607360f81b6064820152608490fd5b600e5484516307a42e0160e11b8152600481018590526001600160a01b0397881660248201526044810187905291969192918791849160649183918691165af19586156151165781966150bf575b5050509061475c614ef57f6d811e6a20ae5461a4ef22a6998c1d958defe727f1cc522b6eb792bc8e6f726694936139e9565b909180939650813d831161510f575b6150d881836132ca565b810103126102c95750519261475c614ef57f6d811e6a20ae5461a4ef22a6998c1d958defe727f1cc522b6eb792bc8e6f726661508d565b503d6150ce565b508351903d90823e3d90fd5b61512c81836151bc565b6151368383613d12565b15806151b0575b615148575b50505050565b83811061516b576151629361515c91614113565b916151ea565b38808080615142565b60405162461bcd60e51b815260206004820152601f60248201527f455243333532353a20696e73756666696369656e7420616c6c6f77616e6365006044820152606490fd5b5060001981141561513d565b6151c5816159f3565b600052600460205260406000209060018060a01b031660005260205260406000205490565b6001600160a01b0380831693919284156152d357836152089161532b565b15615256575b5060207f621b050de0ad08b51d19b48b3e6df75348c4de6bdd93e81b252ca62e28265b1b918360005260048252604060002085600052825280604060002055604051908152a3565b9082600052600660205260056152706040600020546139ae565b500190815492600160401b84101561326b57856152b68560209560017f621b050de0ad08b51d19b48b3e6df75348c4de6bdd93e81b252ca62e28265b1b98018155613cfa565b909283549160031b90811b9283911b16911916179055915061520e565b60405162461bcd60e51b815260206004820152602a60248201527f455243333532353a20617070726f76652076616c756520746f20746865207a65604482015269726f206164647265737360b01b6064820152608490fd5b6000908282526006602090808252604090615348828620546139ae565b509260058094015496865b8881106153665750505050505050905090565b818852838352615384818761537d888c20546139ae565b5001613cfa565b905460039190911b1c6001600160a01b03908116908816146153ae576153a990614120565b615353565b505050505050505050600190565b6153c58161594f565b8015615652575b156155fd576153da8261594f565b80156155ee575b1561559b57806000526020926006845260409261540184600020546139ae565b50816000526006865261541785600020546139ae565b5090600281019081549085821061554457600101546001840154036154e9579160029161544a8661548798979695614113565b90550161545883825461389a565b90558083600080516020615c41833981519152888851868152a384519261547e846132af565b60008452615661565b15615490575050565b60849250519062461bcd60e51b82526004820152602d60248201527f455243333532353a207472616e736665722072656a656374656420627920455260448201526c21999a991aa932b1b2b4bb32b960991b6064820152fd5b865162461bcd60e51b815260048101899052602e60248201527f455243333532353a207472616e7366657220746f20746f6b656e20776974682060448201526d191a5999995c995b9d081cdb1bdd60921b6064820152608490fd5b875162461bcd60e51b8152600481018a9052602a60248201527f455243333532353a20696e73756666696369656e742062616c616e636520666f60448201526939103a3930b739b332b960b11b6064820152608490fd5b60405162461bcd60e51b815260206004820152602560248201527f455243333532353a207472616e7366657220746f20696e76616c696420746f6b604482015264195b88125160da1b6064820152608490fd5b506155f88261597d565b6153e1565b60405162461bcd60e51b815260206004820152602760248201527f455243333532353a207472616e736665722066726f6d20696e76616c696420746044820152661bdad95b88125160ca1b6064820152608490fd5b5061565c8161597d565b6153cc565b92909261566d84613c91565b803b63ffffffff1615615786576040516301ffc9a760e01b8152629ce20b60e01b6004820181905295602095926001600160a01b0316918681602481865afa60009181615767575b506156d05750505050505050506156ca61419a565b50600190565b1561575b576000869461570f604051978896879586948d865233600487015260248601526044850152606484015260a0608484015260a4830190613412565b03925af191821561574f57600092615732575b50506001600160e01b0319161490565b6157489250803d106142e1576142d281836132ca565b3880615722565b6040513d6000823e3d90fd5b50505050505050600190565b61577f919250883d8a1161045c5761044e81836132ca565b90386156b5565b5050505050600190565b909161579b8361594f565b8061593c575b801561592d575b156158b6576157b68261594f565b806158a3575b80615880575b156158265790615821826157f97fdf7a601a0a201ccd4b4bfcfd610913188d931867997223d226f85f2f2673988a95948433615122565b6158048185856153bc565b604051938493846040919493926060820195825260208201520152565b0390a1565b600e546001600160a01b0316803b15610c7e57604051630310ed7f60e41b8152600481019390935260248301939093526044820152906000908290606490829084905af1801561574f576158775750565b61394690613281565b5061588a8361594f565b80156157c2575061589a836139e9565b600c54146157c2565b506158ad826139e9565b600c54146157bc565b60a460405162461bcd60e51b815260206004820152604460248201527f546f6b656e204944206f66207265636569766572206e6f74207265636f676e6960448201527f7a6564206279207468697320636f6e7472616374206f722074686520726567696064820152637374727960e01b6084820152fd5b506159378361597d565b6157a8565b50615946836139e9565b600c54146157a1565b6005541515908161595e575090565b80915060005260066020526159776040600020546139ae565b50541490565b8060005260116020526040600020541590811591615999575090565b600e546040516341ce4b3f60e01b81526004810192909252909150602090829060249082906001600160a01b03165afa90811561574f576000916159db575090565b613358915060203d811161045c5761044e81836132ca565b61394690615a008161594f565b908115615a25575b8115615a15575b50613c45565b615a1f915061597d565b38615a0f565b9050615a308161597d565b90615a08565b615a3f816159f3565b615a488161594f565b80615ad5575b15615a5c5761335890614068565b600090815260116020526040812054602060018060a01b03600e541691602460405180948193631398fee160e31b835260048301525afa918215612d61578092615aa557505090565b9091506020823d8211615acd575b81615ac0602093836132ca565b810103126102c957505190565b3d9150615ab3565b50615adf816139e9565b600c5414615a4e565b615af1816159f3565b615afa8161594f565b80615b6e575b15615b0e5761335890613c91565b60018060a01b03600e541690600052601160205260206040600020546024604051809481936331a9108f60e11b835260048301525afa90811561574f57600091615b56575090565b613358915060203d81116122ab5761229c81836132ca565b50615b78816139e9565b600c5414615b00565b80518210156138b85760209160051b010190565b90615b9f826159f3565b615ba88261594f565b80615c0d575b15615bbc57613358916151bc565b602060018060a01b0391604483600e541660009586526011845260408620549060405195869485936338d1782f60e21b855260048501521660248301525afa918215612d61578092615aa557505090565b50615c17826139e9565b600c5414615bae56fe4a293c533ddd236b4b0b10cb9468f82d2bcc41ce5dbf4c774a732774320d29360b2aac84f3ec956911fd78eae5311062972ff949f38412e8da39069d9f068cc6519b8a896d3cf44bd2d0545987d41a13bfb2ba37ce6ce401c753218178535608a2646970667358221220d511f0e1c520aac42ce36ec6de831f25654abae02e0206a60eaefaf39ff41c6f64736f6c634300081100336080604052346200048657620020c5803803806200001d816200048b565b9283398101608082820312620004865781516001600160401b0391908281116200048657816200004f918501620004b1565b91602092838501518281116200048657836200006d918701620004b1565b92604086015183811162000486576060916200008b918801620004b1565b9501516001600160a01b03811695908690036200048657815193838511620002c3576001948554938685811c951680156200047b575b88861014620002a2578190601f9586811162000425575b508890868311600114620003bd57600092620003b1575b5050600019600383901b1c191690861b1785555b805190848211620002c357600254908682811c92168015620003a6575b88831014620002a25781858493116200034f575b508790858311600114620002e557600092620002d9575b5050600019600383901b1c191690851b176002555b8051928311620002c35760039485548581811c91168015620002b8575b82821014620002a25783811162000257575b5080928411600114620001ed5750928293918392600094620001e1575b50501b9160001990841b1c19161790555b600080546001600160a01b031916919091179055604051611ba19081620005248239f35b015192503880620001ac565b919083601f1981168760005284600020946000905b888383106200023c575050501062000223575b505050811b019055620001bd565b015160001983861b60f8161c1916905538808062000215565b85870151885590960195948501948793509081019062000202565b86600052816000208480870160051c82019284881062000298575b0160051c019086905b8281106200028b5750506200018f565b600081550186906200027b565b9250819262000272565b634e487b7160e01b600052602260045260246000fd5b90607f16906200017d565b634e487b7160e01b600052604160045260246000fd5b0151905038806200014b565b90879350601f198316916002600052896000209260005b8b8282106200033857505084116200031e575b505050811b0160025562000160565b015160001960f88460031b161c191690553880806200030f565b8385015186558b97909501949384019301620002fc565b9091506002600052876000208580850160051c8201928a86106200039c575b918991869594930160051c01915b8281106200038c57505062000134565b600081558594508991016200037c565b925081926200036e565b91607f169162000120565b015190503880620000ef565b90889350601f19831691846000528a6000209260005b8c8282106200040e5750508411620003f4575b505050811b01855562000103565b015160001960f88460031b161c19169055388080620003e6565b8385015186558c97909501949384019301620003d3565b90915087600052886000208680850160051c8201928b861062000471575b918a91869594930160051c01915b82811062000461575050620000d8565b600081558594508a910162000451565b9250819262000443565b94607f1694620000c1565b600080fd5b6040519190601f01601f191682016001600160401b03811183821017620002c357604052565b919080601f84011215620004865782516001600160401b038111620002c357602090620004e7601f8201601f191683016200048b565b92818452828287010111620004865760005b8181106200050f57508260009394955001015290565b8581018301518482018401528201620004f956fe608060408181526004908136101561001657600080fd5b600092833560e01c9081631375d843146113cd57508063246a908b146112cf57806355f804b31461118b57806364140ec01461108c5780636c0360eb14610fcd5780636c037f8a14610d0f57806371f0442e14610c7b578063725fa09c146108c05780637e468a51146107c1578063842251d414610685578063894b4c2e146101755763b3154c08146100a857600080fd5b34610171576020918260031936011261016d5780358452825280832091815192848154906100d5826118ef565b80875292600192808416908115610149575060011461010e575b61010a8787610100828c03836114e3565b5191829182611485565b0390f35b9080949750528583205b828410610136575050508261010a94610100928201019438806100ef565b8054868501880152928601928101610118565b60ff19168887015250505050151560051b83010192506101008261010a38806100ef565b8380fd5b8280fd5b50903461017157602092836003193601126106825782516306fdde0360e01b81529180359082848281335afa938415610678578394610654575b506101b9826117ac565b926102056022875180968a6101d78184019a8b815193849201611462565b820161202360f01b8c8201526101f68c83519384918785019101611462565b010360028101875201856114e3565b828152818752858120865181549391899184610220876118ef565b80835284830193600198868a821691826000146106345750506001146105fb575b505090610254816102c9949303826114e3565b6102e561026030611a28565b898852600686526102d78d808a209a60058952818b2091519788948a86019a6102ac61028b8d611929565b91692f636f6e74726163742f60b01b83528351938491600a85019101611462565b019c6011662f746f6b656e2f60c81b9e8f600a82015201906119a5565b602f60f81b815201906119a5565b03601f1981018552846114e3565b8a51631398fee160e31b81528581018990528c81602481335afa80156105c25787906105cc575b61031691506117ac565b8b5163131f9f3f60e11b8152958601899052948c81602481335afa9081156105c2578d918d918991610589575b5061034d906117ac565b9761035733611a28565b9a815260068352208c51713d91383937b832b93a34b2b9afbab934911d60711b818401908152601160f91b60328301529a90998a93909161039a60338601611929565b9068636f6e74726163742f60b81b825280518093600984019201916103be92611462565b019060098201526010016103d1916119a5565b6f17b83937b832b93a34b2b9973539b7b760811b815261227d60f01b601082015203600d198101885260120161040790886114e3565b8a51998a998d683d913730b6b2911d1160b91b908c015251908160298c0161042e92611462565b890190701116113232b9b1b934b83a34b7b7111d1160791b6029830152519182603a830161045b92611462565b01906a11161134b6b0b3b2911d1160a91b603a8301525191826045830161048192611462565b016c1116113130b630b731b2911d1160991b6045820152815191828a605284019201916104ad92611462565b016911161139b637ba111d1160b11b60528201528151918289605c84019201916104d692611462565b01906e111611383937b832b93a34b2b9911d60891b605c830152519182606b830161050092611462565b01606b8101607d60f81b905203604c81018252606c0161052090826114e3565b61052990611631565b81517f646174613a6170706c69636174696f6e2f6a736f6e3b6261736536342c00000084820152815190938492610567918391603d86019101611462565b810103601d81018352603d0161057d90836114e3565b5161010a819282611485565b928092508391503d83116105bb575b6105a281836114e3565b810103126105b7578b61034d8e925190610343565b8680fd5b503d610598565b8c513d89823e3d90fd5b508c81813d83116105f4575b6105e281836114e3565b810103126105b757610316905161030c565b503d6105d8565b8592508752818720908888925b82841061061e5750505082010161025482610241565b80548487018601528794909301928a9101610608565b60ff1916875292151560051b850190920192506102549150839050610241565b6106719194503d8085833e61066981836114e3565b8101906115a0565b92386101af565b85513d85823e3d90fd5b80fd5b508290346107bd576106963661156d565b939083526020916006835283209184519167ffffffffffffffff83116107aa57506106c183546118ef565b601f8111610767575b5080601f831160011461070557508394829394926106fa575b50508160011b916000199060031b1c191617905580f35b0151905084806106e3565b90601f198316958486528286209286905b88821061074f57505083600195969710610736575b505050811b01905580f35b015160001960f88460031b161c1916905584808061072b565b80600185968294968601518155019501930190610716565b838552818520601f840160051c8101918385106107a0575b601f0160051c01905b81811061079557506106ca565b858155600101610788565b909150819061077f565b634e487b7160e01b855260419052602484fd5b5080fd5b508290346107bd576107d23661156d565b939083526020916007835283209184519167ffffffffffffffff83116107aa57506107fd83546118ef565b601f811161087d575b5080601f831160011461083557508394829394926106fa5750508160011b916000199060031b1c191617905580f35b90601f198316958486528286209286905b8882106108655750508360019596971061073657505050811b01905580f35b80600185968294968601518155019501930190610846565b838552818520601f840160051c8101918385106108b6575b601f0160051c01905b8181106108ab5750610806565b85815560010161089e565b9091508190610895565b50913461068257806003193601126106825782516306fdde0360e01b815281818481335afa908115610c71578291610c57575b508351829060025492610905846118ef565b9586835260209683888101956001978a8982169182600014610c3c575050600114610be1575b610937925003846114e3565b61094033611a28565b9588519586898101986109528a611929565b68636f6e74726163742f60b81b81526109758c8351938491600985019101611462565b01602f60f81b600982015283906003549361098f856118ef565b94818116908115610bc05750600114610b61575b50506109b8925003601f1981018852876114e3565b8789518093633e7e866960e01b825281335afa918215610b55578192610b17575b5050610ac9605a888a61010a9b9961010099610a7f603d9a610b079e9a610a5c610ace9b610a0c60ff610a329d166117ac565b97519b8c99683d913730b6b2911d1160b91b818c0152825192839160298d019101611462565b880191701116113232b9b1b934b83a34b7b7111d1160791b6029840152518093603a840190611462565b01916a11161134b6b0b3b2911d1160a91b603a8401525180936045840190611462565b01721116113b30b63ab2a232b1b4b6b0b639911d1160691b6045820152610aaf825180938a605885019101611462565b0161227d60f01b605882015203603a8101845201826114e3565b611631565b845195827f646174613a6170706c69636174696f6e2f6a736f6e3b6261736536342c000000889485015282519283918686019101611462565b810103601d8101855201836114e3565b9091508781813d8311610b4e575b610b2f81836114e3565b810103126107bd57519060ff821682036106825750610ac9605a6109d9565b503d610b25565b508851903d90823e3d90fd5b6003865290915084908c7fc2575a0e9e593c00f959f8c92f12db2869c3395a3b0502d05e2516446f71f85b5b868410610ba857505050506109b892600a91010138806109a3565b8054858501600a01528c95509201918d908201610b8d565b9050600a93506109b895915060ff19168383015280151502010138806109a3565b505060028752838888887f405787fa12a823e0f2b7631cc41b3ba8828b3321ca811111fa75cd3aa3bb5ace5b858310610c23575050610937935082010161092b565b80919294505483858a0101520191018990888793610c0d565b60ff1916895261093794151560051b840101915061092b9050565b610c6b91503d8084833e61066981836114e3565b386108f3565b84513d84823e3d90fd5b5034610171576020918260031936011261016d57358352600582528083209181519284815490610caa826118ef565b808752926001928084169081156101495750600114610cd45761010a8787610100828c03836114e3565b9080949750528583205b828410610cfc575050508261010a94610100928201019438806100ef565b8054868501880152928601928101610cde565b5090346101715760209283600319360112610682578054835163ec327a2160e01b815283358185018190529092916001600160a01b0316908284602481855afa938415610fc3578394610fa7575b50855163bc74ebb960e01b8152858101829052948386602481865afa958615610f9d578496610f81575b5086516309c3dd8760e01b80825282820184905290938585602481845afa948515610f7757918a9594939187938496610f56575b5090602491610dfb60268d518a652f696d61676560d01b81610de7849e85019d8e815193849201611462565b83019182015203600681018b5201896114e3565b8b51958694859384528301525afa938415610f4b578094610f2e575b50508551918288808201868197519283910191610e3392611462565b81018981016f17b83937b832b93a34b2b9973539b7b760811b905203601081018452603001610e6290846114e3565b8651958695683d913730b6b2911d1160b91b8a880152805190818b60298a01920191610e8d92611462565b8601701116113232b9b1b934b83a34b7b7111d1160791b6029820152815191828b603a8401920191610ebe92611462565b01906a11161134b6b0b3b2911d1160a91b603a83015251918260458301610ee492611462565b01906e111611383937b832b93a34b2b9911d60891b604583015251918260548301610f0e92611462565b0160548101607d60f81b90520360358101825260550161052090826114e3565b610f439294503d8091833e61066981836114e3565b913880610e17565b8751903d90823e3d90fd5b602492919650610f6f903d8087833e61066981836114e3565b959091610dbb565b89513d88823e3d90fd5b610f969196503d8086833e61066981836114e3565b9438610d87565b87513d86823e3d90fd5b610fbc9194503d8085833e61066981836114e3565b9238610d5d565b86513d85823e3d90fd5b8382346107bd57816003193601126107bd57805190826001805491610ff1836118ef565b80865292828116908115611064575060011461101a575b5050506101008261010a9403836114e3565b9450808552600080516020611b4c8339815191525b82861061104c5750505061010082602061010a9582010194611008565b8054602087870181019190915290950194810161102f565b61010a97508693506020925061010094915060ff191682840152151560051b82010194611008565b508290346107bd5761109d3661156d565b939083526020916005835283209184519167ffffffffffffffff83116107aa57506110c883546118ef565b601f8111611148575b5080601f831160011461110057508394829394926106fa5750508160011b916000199060031b1c191617905580f35b90601f198316958486528286209286905b8882106111305750508360019596971061073657505050811b01905580f35b80600185968294968601518155019501930190611111565b838552818520601f840160051c810191838510611181575b601f0160051c01905b81811061117657506110d1565b858155600101611169565b9091508190611160565b828434610682576020806003193601126107bd5767ffffffffffffffff833581811161016d576111be9036908601611521565b9384519182116112bc57506001916111d683546118ef565b601f811161126a575b5080601f8311600114611219575083948293949261120e575b5050600019600383901b1c191690821b17905580f35b0151905084806111f8565b838552601f19831695600080516020611b4c833981519152929186905b888210611253575050838596971061073657505050811b01905580f35b808785968294968601518155019501930190611236565b838552600080516020611b4c833981519152601f840160051c8101918385106112b2575b601f0160051c019084905b8281106112a75750506111df565b868155018490611299565b909150819061128e565b634e487b7160e01b845260419052602483fd5b508290346107bd576112e03661156d565b9390835260209181835283209184519167ffffffffffffffff83116107aa575061130a83546118ef565b601f811161138a575b5080601f831160011461134257508394829394926106fa5750508160011b916000199060031b1c191617905580f35b90601f198316958486528286209286905b8882106113725750508360019596971061073657505050811b01905580f35b80600185968294968601518155019501930190611353565b838552818520601f840160051c8101918385106113c3575b601f0160051c01905b8181106113b85750611313565b8581556001016113ab565b90915081906113a2565b9290503461016d576020908160031936011261145e57358452600681528184208054856113f9826118ef565b8087529260019280841690811561014957506001146114235761010a8787610100828c03836114e3565b9080949750528583205b82841061144b575050508261010a94610100928201019438806100ef565b805486850188015292860192810161142d565b8480fd5b60005b8381106114755750506000910152565b8181015183820152602001611465565b604091602082526114a58151809281602086015260208686019101611462565b601f01601f1916010190565b6060810190811067ffffffffffffffff8211176114cd57604052565b634e487b7160e01b600052604160045260246000fd5b90601f8019910116810190811067ffffffffffffffff8211176114cd57604052565b67ffffffffffffffff81116114cd57601f01601f191660200190565b81601f820112156115685780359061153882611505565b9261154660405194856114e3565b8284526020838301011161156857816000926020809301838601378301015290565b600080fd5b90604060031983011261156857600435916024359067ffffffffffffffff82116115685761159d91600401611521565b90565b6020818303126115685780519067ffffffffffffffff8211611568570181601f820112156115685780516115d381611505565b926115e160405194856114e3565b818452602082840101116115685761159d9160208085019101611462565b9061160982611505565b61161660405191826114e3565b8281528092611627601f1991611505565b0190602036910137565b8051156117875760405190611645826114b1565b604082527f4142434445464748494a4b4c4d4e4f505152535455565758595a61626364656660208301527f6768696a6b6c6d6e6f707172737475767778797a303132333435363738392b2f60408301528051600291828201809211611771576003918290046001600160fe1b0381168103611771576116c7908495941b6115ff565b936020850193829183518401906020820192835194600085525b83811061172057505050505251068060011461170d57600214611702575090565b603d90600019015390565b50603d9081600019820153600119015390565b87600491999293949901918251600190603f9082828260121c16880101518453828282600c1c16880101518385015382828260061c16880101518885015316850101518982015301979291906116e1565b634e487b7160e01b600052601160045260246000fd5b506040516020810181811067ffffffffffffffff8211176114cd576040526000815290565b806000917a184f03e93ff9f4daa797ed6e38ed64bf6a1f010000000000000000808210156118e1575b506d04ee2d6d415b85acef8100000000808310156118d2575b50662386f26fc10000808310156118c3575b506305f5e100808310156118b4575b50612710808310156118a5575b506064821015611895575b600a8092101561188b575b6001908160216118438287016115ff565b95860101905b611855575b5050505090565b600019019083906f181899199a1a9b1b9c1cb0b131b232b360811b8282061a83530491821561188657919082611849565b61184e565b9160010191611832565b9190606460029104910191611827565b6004919392049101913861181c565b6008919392049101913861180f565b60109193920491019138611800565b602091939204910191386117ee565b6040935081049150386117d5565b90600182811c9216801561191f575b602083101461190957565b634e487b7160e01b600052602260045260246000fd5b91607f16916118fe565b9060009160019081549161193c836118ef565b92818116908115611992575060011461195457505050565b809192939450600052600080516020611b4c833981519152906000915b84831061197f575050500190565b8181602092548587015201920191611971565b60ff191683525050811515909102019150565b6000929181546119b4816118ef565b92600191808316908115611a0d57506001146119d1575b50505050565b90919293945060005260209081600020906000915b8583106119fc57505050500190388080806119cb565b8054858401529183019181016119e6565b60ff19168452505050811515909102019150388080806119cb565b604051906001600160a01b0316611a3e826114b1565b602a82526020908183016040368237835115611b3557603090538251600190811015611b3557607860218501536029905b808211611ac3575050611a80575090565b6064906040519062461bcd60e51b825280600483015260248201527f537472696e67733a20686578206c656e67746820696e73756666696369656e746044820152fd5b9091600f81166010811015611b20578551841015611b20576f181899199a1a9b1b9c1cb0b131b232b360811b901a85840185015360041c918015611b0b576000190190611a6f565b60246000634e487b7160e01b81526011600452fd5b60246000634e487b7160e01b81526032600452fd5b634e487b7160e01b600052603260045260246000fdfeb10e2d527612073b26eecdfd717e6a320cf44b4afac2b0732d9fcbe2b7fa0cf6a264697066735822122061ff1a13aed041bfa23394cc44d48966f9ae8be5bf078d1de33aa23665105e1b64736f6c634300081100332f8788117e7eff1d82e926ec794901d17c78024a50270940304540a733656f0d",
  "linkReferences": {},
  "deployedLinkReferences": {}
}