{
  "_format": "hh-sol-artifact-1",
  "contractName": "SlotRegistry",
  "sourceName": "contracts/SlotRegistry.sol",
  "abi": [
    {
      "inputs": [
        {
          "internalType": "string",
          "name": "name_",
          "type": "string"
        },
        {
          "internalType": "string",
          "name": "symbol_",
          "type": "string"
        },
        {
          "internalType": "string",
          "name": "baseuri_",
          "type": "string"
        },
        {
          "internalType": "string",
          "name": "contractDescription_",
          "type": "string"
        },
        {
          "internalType": "string",
          "name": "contractImage_",
          "type": "string"
        },
        {
          "internalType": "uint8",
          "name": "decimals_",
          "type": "uint8"
        }
      ],
      "stateMutability": "nonpayable",
      "type": "constructor"
    },
    {
      "anonymous": false,
      "inputs": [
        {
          "indexed": true,
          "internalType": "address",
          "name": "_owner",
          "type": "address"
        },
        {
          "indexed": true,
          "internalType": "address",
          "name": "_approved",
          "type": "address"
        },
        {
          "indexed": true,
          "internalType": "uint256",
          "name": "_tokenId",
          "type": "uint256"
        }
      ],
      "name": "Approval",
      "type": "event"
    },
    {
      "anonymous": false,
      "inputs": [
        {
          "indexed": true,
          "internalType": "address",
          "name": "_owner",
          "type": "address"
        },
        {
          "indexed": true,
          "internalType": "address",
          "name": "_operator",
          "type": "address"
        },
        {
          "indexed": false,
          "internalType": "bool",
          "name": "_approved",
          "type": "bool"
        }
      ],
      "name": "ApprovalForAll",
      "type": "event"
    },
    {
      "anonymous": false,
      "inputs": [
        {
          "indexed": true,
          "internalType": "uint256",
          "name": "_tokenId",
          "type": "uint256"
        },
        {
          "indexed": true,
          "internalType": "address",
          "name": "_operator",
          "type": "address"
        },
        {
          "indexed": false,
          "internalType": "uint256",
          "name": "_value",
          "type": "uint256"
        }
      ],
      "name": "ApprovalValue",
      "type": "event"
    },
    {
      "anonymous": false,
      "inputs": [
        {
          "indexed": false,
          "internalType": "address",
          "name": "contractAddress",
          "type": "address"
        }
      ],
      "name": "MetadataDescriptor",
      "type": "event"
    },
    {
      "anonymous": false,
      "inputs": [
        {
          "indexed": false,
          "internalType": "uint256",
          "name": "slotId",
          "type": "uint256"
        },
        {
          "indexed": false,
          "internalType": "string",
          "name": "slotName",
          "type": "string"
        }
      ],
      "name": "NewSlot",
      "type": "event"
    },
    {
      "anonymous": false,
      "inputs": [
        {
          "indexed": true,
          "internalType": "address",
          "name": "metadataDescriptor",
          "type": "address"
        }
      ],
      "name": "SetMetadataDescriptor",
      "type": "event"
    },
    {
      "anonymous": false,
      "inputs": [
        {
          "indexed": true,
          "internalType": "uint256",
          "name": "_tokenId",
          "type": "uint256"
        },
        {
          "indexed": true,
          "internalType": "uint256",
          "name": "_oldSlot",
          "type": "uint256"
        },
        {
          "indexed": true,
          "internalType": "uint256",
          "name": "_newSlot",
          "type": "uint256"
        }
      ],
      "name": "SlotChanged",
      "type": "event"
    },
    {
      "anonymous": false,
      "inputs": [
        {
          "indexed": true,
          "internalType": "address",
          "name": "_from",
          "type": "address"
        },
        {
          "indexed": true,
          "internalType": "address",
          "name": "_to",
          "type": "address"
        },
        {
          "indexed": true,
          "internalType": "uint256",
          "name": "_tokenId",
          "type": "uint256"
        }
      ],
      "name": "Transfer",
      "type": "event"
    },
    {
      "anonymous": false,
      "inputs": [
        {
          "indexed": true,
          "internalType": "uint256",
          "name": "_fromTokenId",
          "type": "uint256"
        },
        {
          "indexed": true,
          "internalType": "uint256",
          "name": "_toTokenId",
          "type": "uint256"
        },
        {
          "indexed": false,
          "internalType": "uint256",
          "name": "_value",
          "type": "uint256"
        }
      ],
      "name": "TransferValue",
      "type": "event"
    },
    {
      "inputs": [
        {
          "internalType": "uint256",
          "name": "tokenId_",
          "type": "uint256"
        },
        {
          "internalType": "address",
          "name": "operator_",
          "type": "address"
        }
      ],
      "name": "allowance",
      "outputs": [
        {
          "internalType": "uint256",
          "name": "",
          "type": "uint256"
        }
      ],
      "stateMutability": "view",
      "type": "function"
    },
    {
      "inputs": [
        {
          "internalType": "address",
          "name": "to_",
          "type": "address"
        },
        {
          "internalType": "uint256",
          "name": "tokenId_",
          "type": "uint256"
        }
      ],
      "name": "approve",
      "outputs": [],
      "stateMutability": "payable",
      "type": "function"
    },
    {
      "inputs": [
        {
          "internalType": "uint256",
          "name": "tokenId_",
          "type": "uint256"
        },
        {
          "internalType": "address",
          "name": "to_",
          "type": "address"
        },
        {
          "internalType": "uint256",
          "name": "value_",
          "type": "uint256"
        }
      ],
      "name": "approve",
      "outputs": [],
      "stateMutability": "payable",
      "type": "function"
    },
    {
      "inputs": [
        {
          "internalType": "address",
          "name": "contract_",
          "type": "address"
        },
        {
          "internalType": "uint256",
          "name": "slotId_",
          "type": "uint256"
        }
      ],
      "name": "approveContractForSlot",
      "outputs": [],
      "stateMutability": "nonpayable",
      "type": "function"
    },
    {
      "inputs": [
        {
          "internalType": "address",
          "name": "owner_",
          "type": "address"
        }
      ],
      "name": "balanceOf",
      "outputs": [
        {
          "internalType": "uint256",
          "name": "balance",
          "type": "uint256"
        }
      ],
      "stateMutability": "view",
      "type": "function"
    },
    {
      "inputs": [
        {
          "internalType": "uint256",
          "name": "tokenId_",
          "type": "uint256"
        }
      ],
      "name": "balanceOf",
      "outputs": [
        {
          "internalType": "uint256",
          "name": "",
          "type": "uint256"
        }
      ],
      "stateMutability": "view",
      "type": "function"
    },
    {
      "inputs": [
        {
          "internalType": "uint256",
          "name": "networkTokenId_",
          "type": "uint256"
        }
      ],
      "name": "contractOf",
      "outputs": [
        {
          "internalType": "address",
          "name": "",
          "type": "address"
        }
      ],
      "stateMutability": "view",
      "type": "function"
    },
    {
      "inputs": [],
      "name": "contractURI",
      "outputs": [
        {
          "internalType": "string",
          "name": "",
          "type": "string"
        }
      ],
      "stateMutability": "view",
      "type": "function"
    },
    {
      "inputs": [
        {
          "internalType": "uint256",
          "name": "slotId",
          "type": "uint256"
        }
      ],
      "name": "exists",
      "outputs": [
        {
          "internalType": "bool",
          "name": "",
          "type": "bool"
        }
      ],
      "stateMutability": "view",
      "type": "function"
    },
    {
      "inputs": [
        {
          "internalType": "uint256",
          "name": "tokenId_",
          "type": "uint256"
        }
      ],
      "name": "getApproved",
      "outputs": [
        {
          "internalType": "address",
          "name": "",
          "type": "address"
        }
      ],
      "stateMutability": "view",
      "type": "function"
    },
    {
      "inputs": [
        {
          "internalType": "address",
          "name": "owner_",
          "type": "address"
        },
        {
          "internalType": "address",
          "name": "operator_",
          "type": "address"
        }
      ],
      "name": "isApprovedForAll",
      "outputs": [
        {
          "internalType": "bool",
          "name": "",
          "type": "bool"
        }
      ],
      "stateMutability": "view",
      "type": "function"
    },
    {
      "inputs": [
        {
          "internalType": "uint256",
          "name": "tokenId_",
          "type": "uint256"
        }
      ],
      "name": "isNetworkToken",
      "outputs": [
        {
          "internalType": "bool",
          "name": "",
          "type": "bool"
        }
      ],
      "stateMutability": "view",
      "type": "function"
    },
    {
      "inputs": [],
      "name": "metadataDescriptor",
      "outputs": [
        {
          "internalType": "contract IERC3525MetadataDescriptor",
          "name": "",
          "type": "address"
        }
      ],
      "stateMutability": "view",
      "type": "function"
    },
    {
      "inputs": [
        {
          "internalType": "address",
          "name": "owner_",
          "type": "address"
        },
        {
          "internalType": "uint256",
          "name": "slot_",
          "type": "uint256"
        },
        {
          "internalType": "uint256",
          "name": "value_",
          "type": "uint256"
        }
      ],
      "name": "mint",
      "outputs": [
        {
          "internalType": "uint256",
          "name": "",
          "type": "uint256"
        }
      ],
      "stateMutability": "nonpayable",
      "type": "function"
    },
    {
      "inputs": [
        {
          "internalType": "address",
          "name": "owner_",
          "type": "address"
        },
        {
          "internalType": "uint256",
          "name": "slot_",
          "type": "uint256"
        },
        {
          "internalType": "uint256",
          "name": "value_",
          "type": "uint256"
        },
        {
          "internalType": "uint256",
          "name": "adjDiscountBasisPts_",
          "type": "uint256"
        }
      ],
      "name": "mintWithDiscount",
      "outputs": [
        {
          "internalType": "uint256",
          "name": "",
          "type": "uint256"
        }
      ],
      "stateMutability": "nonpayable",
      "type": "function"
    },
    {
      "inputs": [
        {
          "internalType": "address",
          "name": "owner_",
          "type": "address"
        },
        {
          "internalType": "uint256",
          "name": "slot_",
          "type": "uint256"
        },
        {
          "internalType": "uint256",
          "name": "value_",
          "type": "uint256"
        },
        {
          "internalType": "uint256",
          "name": "adjTVRate_",
          "type": "uint256"
        }
      ],
      "name": "mintWithTVRate",
      "outputs": [
        {
          "internalType": "uint256",
          "name": "",
          "type": "uint256"
        }
      ],
      "stateMutability": "nonpayable",
      "type": "function"
    },
    {
      "inputs": [],
      "name": "name",
      "outputs": [
        {
          "internalType": "string",
          "name": "",
          "type": "string"
        }
      ],
      "stateMutability": "view",
      "type": "function"
    },
    {
      "inputs": [
        {
          "internalType": "uint256",
          "name": "tokenId_",
          "type": "uint256"
        }
      ],
      "name": "ownerOf",
      "outputs": [
        {
          "internalType": "address",
          "name": "owner_",
          "type": "address"
        }
      ],
      "stateMutability": "view",
      "type": "function"
    },
    {
      "inputs": [
        {
          "internalType": "address",
          "name": "adminAddress_",
          "type": "address"
        },
        {
          "internalType": "uint256",
          "name": "slot_",
          "type": "uint256"
        },
        {
          "internalType": "enum SlotRegistry.CreditType",
          "name": "type_",
          "type": "uint8"
        }
      ],
      "name": "registerContract",
      "outputs": [],
      "stateMutability": "nonpayable",
      "type": "function"
    },
    {
      "inputs": [
        {
          "internalType": "uint256",
          "name": "slotId_",
          "type": "uint256"
        },
        {
          "internalType": "string",
          "name": "slotName_",
          "type": "string"
        },
        {
          "internalType": "string",
          "name": "slotURI_",
          "type": "string"
        },
        {
          "internalType": "string",
          "name": "description_",
          "type": "string"
        },
        {
          "internalType": "enum SlotRegistry.SlotType",
          "name": "type_",
          "type": "uint8"
        }
      ],
      "name": "registerSlot",
      "outputs": [
        {
          "internalType": "bool",
          "name": "",
          "type": "bool"
        }
      ],
      "stateMutability": "nonpayable",
      "type": "function"
    },
    {
      "inputs": [
        {
          "internalType": "address",
          "name": "from_",
          "type": "address"
        },
        {
          "internalType": "address",
          "name": "to_",
          "type": "address"
        },
        {
          "internalType": "uint256",
          "name": "tokenId_",
          "type": "uint256"
        }
      ],
      "name": "safeTransferFrom",
      "outputs": [],
      "stateMutability": "payable",
      "type": "function"
    },
    {
      "inputs": [
        {
          "internalType": "address",
          "name": "from_",
          "type": "address"
        },
        {
          "internalType": "address",
          "name": "to_",
          "type": "address"
        },
        {
          "internalType": "uint256",
          "name": "tokenId_",
          "type": "uint256"
        },
        {
          "internalType": "bytes",
          "name": "data_",
          "type": "bytes"
        }
      ],
      "name": "safeTransferFrom",
      "outputs": [],
      "stateMutability": "payable",
      "type": "function"
    },
    {
      "inputs": [
        {
          "internalType": "address",
          "name": "operator_",
          "type": "address"
        },
        {
          "internalType": "bool",
          "name": "approved_",
          "type": "bool"
        }
      ],
      "name": "setApprovalForAll",
      "outputs": [],
      "stateMutability": "nonpayable",
      "type": "function"
    },
    {
      "inputs": [
        {
          "internalType": "uint256",
          "name": "slotId_",
          "type": "uint256"
        }
      ],
      "name": "slotDescription",
      "outputs": [
        {
          "internalType": "string",
          "name": "",
          "type": "string"
        }
      ],
      "stateMutability": "view",
      "type": "function"
    },
    {
      "inputs": [
        {
          "internalType": "uint256",
          "name": "slotId_",
          "type": "uint256"
        }
      ],
      "name": "slotName",
      "outputs": [
        {
          "internalType": "string",
          "name": "",
          "type": "string"
        }
      ],
      "stateMutability": "view",
      "type": "function"
    },
    {
      "inputs": [
        {
          "internalType": "uint256",
          "name": "tokenId_",
          "type": "uint256"
        }
      ],
      "name": "slotOf",
      "outputs": [
        {
          "internalType": "uint256",
          "name": "",
          "type": "uint256"
        }
      ],
      "stateMutability": "view",
      "type": "function"
    },
    {
      "inputs": [
        {
          "internalType": "uint256",
          "name": "slotId_",
          "type": "uint256"
        }
      ],
      "name": "slotURI",
      "outputs": [
        {
          "internalType": "string",
          "name": "",
          "type": "string"
        }
      ],
      "stateMutability": "view",
      "type": "function"
    },
    {
      "inputs": [
        {
          "internalType": "bytes4",
          "name": "interfaceId",
          "type": "bytes4"
        }
      ],
      "name": "supportsInterface",
      "outputs": [
        {
          "internalType": "bool",
          "name": "",
          "type": "bool"
        }
      ],
      "stateMutability": "view",
      "type": "function"
    },
    {
      "inputs": [],
      "name": "symbol",
      "outputs": [
        {
          "internalType": "string",
          "name": "",
          "type": "string"
        }
      ],
      "stateMutability": "view",
      "type": "function"
    },
    {
      "inputs": [
        {
          "internalType": "uint256",
          "name": "toTokenId_",
          "type": "uint256"
        }
      ],
      "name": "timeValueRate",
      "outputs": [
        {
          "internalType": "uint256",
          "name": "",
          "type": "uint256"
        }
      ],
      "stateMutability": "view",
      "type": "function"
    },
    {
      "inputs": [
        {
          "internalType": "uint256",
          "name": "index_",
          "type": "uint256"
        }
      ],
      "name": "tokenByIndex",
      "outputs": [
        {
          "internalType": "uint256",
          "name": "",
          "type": "uint256"
        }
      ],
      "stateMutability": "view",
      "type": "function"
    },
    {
      "inputs": [
        {
          "internalType": "uint256",
          "name": "toTokenId_",
          "type": "uint256"
        }
      ],
      "name": "tokenDiscount",
      "outputs": [
        {
          "internalType": "uint256",
          "name": "",
          "type": "uint256"
        }
      ],
      "stateMutability": "view",
      "type": "function"
    },
    {
      "inputs": [
        {
          "internalType": "address",
          "name": "owner_",
          "type": "address"
        },
        {
          "internalType": "uint256",
          "name": "index_",
          "type": "uint256"
        }
      ],
      "name": "tokenOfOwnerByIndex",
      "outputs": [
        {
          "internalType": "uint256",
          "name": "",
          "type": "uint256"
        }
      ],
      "stateMutability": "view",
      "type": "function"
    },
    {
      "inputs": [
        {
          "internalType": "uint256",
          "name": "tokenId_",
          "type": "uint256"
        }
      ],
      "name": "tokenURI",
      "outputs": [
        {
          "internalType": "string",
          "name": "",
          "type": "string"
        }
      ],
      "stateMutability": "view",
      "type": "function"
    },
    {
      "inputs": [],
      "name": "totalSupply",
      "outputs": [
        {
          "internalType": "uint256",
          "name": "",
          "type": "uint256"
        }
      ],
      "stateMutability": "view",
      "type": "function"
    },
    {
      "inputs": [
        {
          "internalType": "uint256",
          "name": "fromTokenId_",
          "type": "uint256"
        },
        {
          "internalType": "address",
          "name": "to_",
          "type": "address"
        },
        {
          "internalType": "uint256",
          "name": "value_",
          "type": "uint256"
        }
      ],
      "name": "transferFrom",
      "outputs": [
        {
          "internalType": "uint256",
          "name": "",
          "type": "uint256"
        }
      ],
      "stateMutability": "payable",
      "type": "function"
    },
    {
      "inputs": [
        {
          "internalType": "address",
          "name": "from_",
          "type": "address"
        },
        {
          "internalType": "address",
          "name": "to_",
          "type": "address"
        },
        {
          "internalType": "uint256",
          "name": "tokenId_",
          "type": "uint256"
        }
      ],
      "name": "transferFrom",
      "outputs": [],
      "stateMutability": "payable",
      "type": "function"
    },
    {
      "inputs": [
        {
          "internalType": "uint256",
          "name": "fromTokenId_",
          "type": "uint256"
        },
        {
          "internalType": "uint256",
          "name": "toTokenId_",
          "type": "uint256"
        },
        {
          "internalType": "uint256",
          "name": "value_",
          "type": "uint256"
        }
      ],
      "name": "transferFrom",
      "outputs": [],
      "stateMutability": "payable",
      "type": "function"
    },
    {
      "inputs": [],
      "name": "valueDecimals",
      "outputs": [
        {
          "internalType": "uint8",
          "name": "",
          "type": "uint8"
        }
      ],
      "stateMutability": "view",
      "type": "function"
    }
  ],
  "bytecode": "0x608060405234620006485762005f42803803806200001d816200064d565b92833981019060c081830312620006485780516001600160401b0381116200064857826200004d91830162000698565b60208201519092906001600160401b0381116200064857816200007291840162000698565b60408301519093906001600160401b0381116200064857826200009791850162000698565b60608401519094906001600160401b038111620006485783620000bc91860162000698565b60808501519093906001600160401b038111620006485760a091620000e391870162000698565b9401519160ff8316830362000648578051906001600160401b0382116200038357819062000113600054620006ef565b601f8111620005e5575b50602090601f83116001146200056d5760009262000561575b50508160011b916000199060031b1c1916176000555b8051906001600160401b03821162000383576200016b600154620006ef565b601f8111620004f7575b50602090601f8311600114620004835760ff9392916000918362000477575b50508160011b916000199060031b1c1916176001555b1660ff1960025416176002556012601155825160018060401b0381116200038357620001d8601054620006ef565b601f81116200041e575b506020601f8211600114620003a5578192939460009262000399575b50508160011b916000199060031b1c1916176010555b604051906124ae80830191906001600160401b03831184841017620003835762003a548439608082526000906010546200024e81620006ef565b908160808601526001811690816000146200035d575060011462000310575b5093620002888285968562000297950360208701526200072c565b9083820360408501526200072c565b9060603091015203906000f080156200030457600880546001600160a01b0319166001600160a01b0390921691821790556040519081527f9ac4f8025631594629895b778dc5ee88d01673a254a2291f6b6b174ad25230ca90602090a16040516133009081620007548239f35b6040513d6000823e3d90fd5b6010600090815291925060008051602062005f228339815191525b81831062000345575050820160a00190620002886200026d565b805460a084870101526020909201916001016200032b565b60ff191660a08681019190915291151560051b850190910192506200028890506200026d565b634e487b7160e01b600052604160045260246000fd5b015190503880620001fe565b6010600090815260008051602062005f228339815191529190601f198416905b8181106200040557509583600195969710620003eb575b505050811b0160105562000214565b015160001960f88460031b161c19169055388080620003dc565b9192602060018192868b015181550194019201620003c5565b601060005260008051602062005f22833981519152601f830160051c810191602084106200046c575b601f0160051c01905b8181106200045f5750620001e2565b6000815560010162000450565b909150819062000447565b01519050388062000194565b90600160005260206000209160005b601f1985168110620004de575091839160019360ff9695601f19811610620004c4575b505050811b01600155620001aa565b015160001960f88460031b161c19169055388080620004b5565b9192602060018192868501518155019401920162000492565b60016000527fb10e2d527612073b26eecdfd717e6a320cf44b4afac2b0732d9fcbe2b7fa0cf6601f840160051c8101916020851062000556575b601f0160051c01905b81811062000549575062000175565b600081556001016200053a565b909150819062000531565b01519050388062000136565b600080805260008051602062005f028339815191529350601f198516905b818110620005cc5750908460019594939210620005b2575b505050811b016000556200014c565b015160001960f88460031b161c19169055388080620005a3565b929360206001819287860151815501950193016200058b565b6000805290915060008051602062005f02833981519152601f840160051c810191602085106200063d575b90601f859493920160051c01905b8181106200062d57506200011d565b600081558493506001016200061e565b909150819062000610565b600080fd5b6040519190601f01601f191682016001600160401b038111838210176200038357604052565b60005b838110620006875750506000910152565b818101518382015260200162000676565b81601f82011215620006485780516001600160401b0381116200038357620006ca601f8201601f19166020016200064d565b92818452602082840101116200064857620006ec916020808501910162000673565b90565b90600182811c9216801562000721575b60208310146200070b57565b634e487b7160e01b600052602260045260246000fd5b91607f1691620006ff565b90602091620007478151809281855285808601910162000673565b601f01601f191601019056fe608080604052600436101561001357600080fd5b60003560e01c90816301ffc9a714611ca75750806306fdde0314611c04578063081812fc14611be6578063095ea7b314611aab57806309c3dd8714611a665780630a884318146119ea5780630f485c02146116d9578063156e29f61461165757806318160ddd1461163957806323b872dd14611615578063263f3e7e146115f75780632d2a2465146115ba5780632f745c591461150f578063310ed7f01461119557806339ace21f1461115d5780633e7e86691461113c57806341ce4b3f1461111e57806342842e0e146110fb57806349e8629414610fcc5780634f558e7914610fa45780634f6ccce714610f205780636352211e14610ef057806370a0823114610ecd578063840f711314610ea45780638cb0a51114610df75780639448bddb14610db757806394b39b0914610c9c57806395d89b4114610bd15780639cc7f70814610bb3578063a22cb46514610ad5578063b88d4fde14610a79578063bc74ebb914610a34578063c87b56dd14610999578063cd5a2c391461096d578063e345e0bc1461093f578063e42568f31461034c578063e8a3d48514610293578063e985e9c51461023a5763ec327a21146101cc57600080fd5b34610235576020366003190112610235576004356101f16101ec82612a56565b612a11565b600052600a60205261023161021661021d600260406000200160405192838092611f5c565b0382611e91565b604051918291602083526020830190611d7d565b0390f35b600080fd5b3461023557604036600319011261023557610253611da2565b61025b611db8565b9060018060a01b03809116600052600760205260026040600020019116600052602052602060ff604060002054166040519015158152f35b346102355760003660031901126102355760006040516102b281611e76565b526008546001600160a01b0316801561033357600060049160405192838092631c97e82760e21b82525afa80156103275761023191600091610304575b50604051918291602083526020830190611d7d565b61032191503d806000833e6103198183611e91565b81019061211b565b826102ef565b6040513d6000823e3d90fd5b5061023160405161034381611e76565b6000815261021d565b346102355760a0366003190112610235576024356001600160401b0381116102355761037c903690600401611f04565b6044356001600160401b0381116102355761039b903690600401611f04565b6064356001600160401b038111610235576103ba903690600401611f04565b9160036084351015610235576103d1600435612a56565b6108fa576040516103e181611e76565b600081526040519260e084018481106001600160401b038211176106b95760405233845260208401946004358652604085019384526060850152608084015260843560a084015260c0830152600435600052600a60205260406000209260018060a01b038351166001600160601b0360a01b855416178455516001840155519182516001600160401b0381116106b95761047e6002830154611f22565b601f81116108c5575b506020601f8211600114610857578192939460009261084c575b50508160011b916000199060031b1c19161760028201555b60608201519182516001600160401b0381116106b9576104dc6003840154611f22565b601f8111610817575b506020601f82116001146107a9578192939460009261079e575b50508160011b916000199060031b1c19161760038301555b60808101519182516001600160401b0381116106b95761053a6004830154611f22565b601f811161075e575b506020601f82116001146106f057819293946000926106e5575b50508160011b916000199060031b1c19161760048201555b60a0820151600582019160038210156106cf5760c09260069260ff80198354169116179055019101518051906001600160401b0382116106b9576020906105bc838561282f565b019160005260206000209160005b82811061069c57600435600052600a60205261061360043560016040600020015414600f60205260406000203360005260205260406000209060ff801983541691151516179055565b600435600052600a6020527f293112f57e1499e465d2297b938e4b29a3ab8fe5e214951585a56e3d4397671660016040600020015460026040600020019061066d6040519283928352604060208401526040830190611f5c565b0390a1600435600052600f602052604060002033600052602052602060ff604060002054166040519015158152f35b81516001600160a01b0316818501556020909101906001016105ca565b634e487b7160e01b600052604160045260246000fd5b634e487b7160e01b600052602160045260246000fd5b01519050848061055d565b6004830160005260206000209060005b601f19841681106107465750600193949583601f1981161061072d575b505050811b016004820155610575565b015160001960f88460031b161c1916905584808061071d565b9091602060018192858a015181550193019101610700565b61078e90600484016000526020600020601f840160051c81019160208510610794575b601f0160051c0190612818565b84610543565b9091508190610781565b0151905084806104ff565b6003840160005260206000209060005b601f19841681106107ff5750600193949583601f198116106107e6575b505050811b016003830155610517565b015160001960f88460031b161c191690558480806107d6565b9091602060018192858a0151815501930191016107b9565b61084690600385016000526020600020601f840160051c8101916020851061079457601f0160051c0190612818565b846104e5565b0151905084806104a1565b6002830160005260206000209060005b601f19841681106108ad5750600193949583601f19811610610894575b505050811b0160028201556104b9565b015160001960f88460031b161c19169055848080610884565b9091602060018192858a015181550193019101610867565b6108f490600284016000526020600020601f840160051c8101916020851061079457601f0160051c0190612818565b84610487565b60405162461bcd60e51b815260206004820152601760248201527f536c6f7420616c726561647920726567697374657265640000000000000000006044820152606490fd5b3461023557604036600319011261023557602061096561095d611db8565b6004356121af565b604051908152f35b3461023557602036600319011261023557600435600052600d6020526020604060002054604051908152f35b34610235576020366003190112610235576004356109be6109b982612453565b61206d565b60006040516109cc81611e76565b526008546001600160a01b0316908115610a23576000906024604051809481936344a5a61760e11b835260048301525afa801561032757610231916000916103045750604051918291602083526020830190611d7d565b505061023160405161034381611e76565b3461023557602036600319011261023557600435610a546101ec82612a56565b600052600a60205261023161021661021d600360406000200160405192838092611f5c565b608036600319011261023557610a8d611da2565b610a95611db8565b606435916001600160401b038311610235573660238401121561023557610ac9610ad3933690602481600401359101611ecd565b91604435916122c0565b005b3461023557604036600319011261023557610aee611da2565b6024359081151590818303610235576001600160a01b031691338314610b6e57610b409033600052600760205260026040600020018460005260205260406000209060ff801983541691151516179055565b6040519081527f17307eab39ab6107e8899845ad3d59bd9653f200f220920489ca2b5937696c3160203392a3005b60405162461bcd60e51b815260206004820152601a60248201527f455243333532353a20617070726f766520746f2063616c6c65720000000000006044820152606490fd5b34610235576020366003190112610235576020610965600435612043565b346102355760003660031901126102355760405160006001805490610bf582611f22565b80855291818116908115610c755750600114610c1c575b6102318461021d81860382611e91565b600081815292507fb10e2d527612073b26eecdfd717e6a320cf44b4afac2b0732d9fcbe2b7fa0cf65b828410610c5d57505050810160200161021d82610c0c565b80546020858701810191909152909301928101610c45565b60ff191660208087019190915292151560051b8501909201925061021d9150839050610c0c565b3461023557606036600319011261023557610cb5611da2565b6044359060243560048310156102355780600052602091600f835260406000209060018060a01b0316600052825260ff6040600020541615610d4c5780600052600a8252610d0b600660406000200133906129d1565b3360005260098252604060002060ff199360ff858354169116179055600052600e815260406000209033600052526001604060002091825416179055600080f35b60405162461bcd60e51b815260048101839052603960248201527f436f6e74726163742061646d696e206973206e6f7420617574686f72697a656460448201527f20746f20726567697374657220746f207468697320736c6f74000000000000006064820152608490fd5b3461023557602036600319011261023557600435610dd76109b982612453565b600052600b602052602060018060a01b0360406000205416604051908152f35b610e0036611dfc565b90610e0d6109b984612453565b610e2d6001600160a01b0380610e22866120b9565b169083161415612340565b610e3783336123e2565b15610e4557610ad392612ce8565b60405162461bcd60e51b815260206004820152603160248201527f455243333532353a20617070726f76652063616c6c6572206973206e6f74206f6044820152701ddb995c881b9bdc88185c1c1c9bdd9959607a1b6064820152608490fd5b34610235576000366003190112610235576008546040516001600160a01b039091168152602090f35b34610235576020366003190112610235576020610965610eeb611da2565b6121e0565b34610235576020366003190112610235576020610f0e6004356120b9565b6040516001600160a01b039091168152f35b3461023557602036600319011261023557600435600554811015610f5357610f49602091611ff2565b5054604051908152f35b60405162461bcd60e51b815260206004820152602360248201527f455243333532353a20676c6f62616c20696e646578206f7574206f6620626f756044820152626e647360e81b6064820152608490fd5b34610235576020366003190112610235576020610fc2600435612a56565b6040519015158152f35b3461023557604036600319011261023557610fe5611da2565b6024359081600052602090600f8252604060002033600052825260ff60406000205416156110a057604051637795524560e01b8152926001600160a01b039183908590600490829086165afa93841561032757600094611068575b50600052600f825260406000209216600052526040600020600160ff19825416179055600080f35b9093508281813d8311611099575b6110808183611e91565b8101031261023557518181168103610235579284611040565b503d611076565b60405162461bcd60e51b815260048101839052602d60248201527f53656e646572206e6f7420617574686f72697a656420746f20617070726f766560448201526c081bdb881d1a1a5cc81cdb1bdd609a1b6064820152608490fd5b610ad361110736611e26565b906040519261111584611e76565b600084526122c0565b34610235576020366003190112610235576020610fc2600435612453565b3461023557600036600319011261023557602060ff60025416604051908152f35b346102355760203660031901126102355760043561117d6109b982612453565b600052600c6020526020604060002054604051908152f35b606036600319011261023557602460443581356004356111b76109b982612453565b6111c36109b983612453565b6111cc816120f7565b6111d5836120f7565b036114ae573360005260206009815260ff6040600020541683600052600b825260018060a01b03604060002054166000526009825260ff6040600020541660048110156114995760048210156114995781036114175780156113a15760018103611385575061124383612043565b9482600052600c82526040600020548460005260406000205414156000146113715760115495611272876132bc565b9661271088810298818a04036113475761128b826132bc565b808202908282040361135c576112bb896112b66112c1938a600052600c8a52604060002054906127fc565b612179565b926132bc565b80820291820403611347576112fc916112ef846112b66112f5948b600052600c8a52604060002054906127fc565b906121a2565b91876121a2565b9182156113335750610ad396600c926113169204906127fc565b915b846000525260406000205561132e838233612e66565b612eff565b634e487b7160e01b60009081526012600452fd5b83634e487b7160e01b60005260116004526000fd5b84634e487b7160e01b60005260116004526000fd5b50610ad39450600c60406000205491611318565b9194505060021461139257005b8261132e83610ad39533612e66565b60a4826044886040519262461bcd60e51b845260048401528201527f536c6f7452656769737472793a204e6574776f726b2076616c7565207472616e60448201527f73666572206e6f7420616c6c6f77656420666f72207072696f7269747920746f6064820152636b656e7360e01b6084820152fd5b60405162461bcd60e51b815260048101839052604f818801527f536c6f7452656769737472793a2043616e6e6f74207472616e7366657220626560448201527f747765656e20746f6b656e7320686f6c64696e6720646966666572656e74207460648201526e3cb832b99037b31031b932b234ba1760891b608482015260a490fd5b86634e487b7160e01b60005260216004526000fd5b60405162461bcd60e51b8152602060048201526034818601527f536c6f7452656769737472793a207472616e7366657220746f20746f6b656e206044820152733bb4ba34103234b33332b932b73a1039b637ba1760611b6064820152608490fd5b3461023557604036600319011261023557611528611da2565b60243590611535816121e0565b82101561156a5760209161155c9160018060a01b03166000526007835260406000206123ca565b90546040519160031b1c8152f35b60405162461bcd60e51b815260206004820152602260248201527f455243333532353a206f776e657220696e646578206f7574206f6620626f756e604482015261647360f01b6064820152608490fd5b346102355760206115e16115cd36611dce565b929391600160035401809581600355612ace565b81600052600d8352604060002055604051908152f35b346102355760203660031901126102355760206109656004356120f7565b610ad361162136611e26565b9161163461162f84336123e2565b612259565b612481565b34610235576000366003190112610235576020600554604051908152f35b34610235576060366003190112610235576020611672611da2565b6116b26024359182600052600e8452604060002033600052845261169d60ff60406000205416612a74565b60016003540192836003558360443592612ace565b80600052600b82526040600020336001600160601b0360a01b825416179055604051908152f35b6116e236611dfc565b6116f06109b9849394612453565b6116fb818333612e66565b600160035401918260035561170f816120f7565b6001600160a01b039480861690811561199b57851561194c5761173186612453565b611907576040519661174288611e76565b600088526040519761175389611e5b565b8789526020988981018681528a604083016000815260608401908882528c600660808701946000865260a08801988952600554926000525280604060002055600160401b8110156106b9578060016117ae9201600555611ff2565b9490946118f1576005955185555160018501555160028401558560038401915116906001600160601b0360a01b9182825416179055856004840192511690825416179055019051918251926001600160401b0384116106b957908a839261181c868d9a989c9b99979661282f565b01916000528a6000209060005b8481106118da57505050505083906118448261096598612766565b60007fddf252ad1be2c89b69c2b068fc378daa952ba7f163c4a11628f55a4df523b3ef8180a46000837fe4f48c240d3b994948aa54f3e2f5fca59263dfe1d52b6e4cf39a5d249b5ccb658280a481600052600686526118a7604060002054611ff2565b50508160007f0b2aac84f3ec956911fd78eae5311062972ff949f38412e8da39069d9f068cc688604051838152a3612eff565b83518216818401558b9850928c0192600101611829565b634e487b7160e01b600052600060045260246000fd5b60405162461bcd60e51b815260206004820152601d60248201527f455243333532353a20746f6b656e20616c7265616479206d696e7465640000006044820152606490fd5b60405162461bcd60e51b815260206004820152602160248201527f455243333532353a2063616e6e6f74206d696e74207a65726f20746f6b656e496044820152601960fa1b6064820152608490fd5b60405162461bcd60e51b815260206004820152602160248201527f455243333532353a206d696e7420746f20746865207a65726f206164647265736044820152607360f81b6064820152608490fd5b34610235576020611a356119fd36611dce565b92939180600052600e86526040600020336000528652611a2460ff60406000205416612a74565b600160035401809581600355612ace565b81600052600b83526040600020336001600160601b0360a01b825416179055600c8352604060002055604051908152f35b3461023557602036600319011261023557600435611a866101ec82612a56565b600052600a60205261023161021661021d600460406000200160405192838092611f5c565b604036600319011261023557611abf611da2565b602435906001600160a01b038080611ad6856120b9565b16921691611ae681841415612340565b803314908115611bbe575b5015611b53578260005260066020526004611b10604060002054611ff2565b500180546001600160a01b03191683179055611b2b836120b9565b167f8c5be1e5ebec7d5bd14f71427d1e84f3dd0314c0f7b2291e5b200ac8c7c3b925600080a4005b60405162461bcd60e51b815260206004820152603960248201527f455243333532353a20617070726f76652063616c6c6572206973206e6f74206f60448201527f776e6572206e6f7220617070726f76656420666f7220616c6c000000000000006064820152608490fd5b9050600052600760205260026040600020013360005260205260ff6040600020541684611af1565b34610235576020366003190112610235576020610f0e600435612397565b346102355760003660031901126102355760405160008054611c2581611f22565b80845290600190818116908115610c755750600114611c4e576102318461021d81860382611e91565b600080805292507f290decd9548b62a8d60345a988386fc84ba6bc95484008f6362f93160ef3e5635b828410611c8f57505050810160200161021d82610c0c565b80546020858701810191909152909301928101611c77565b34610235576020366003190112610235576004359063ffffffff60e01b8216809203610235576020916301ffc9a760e01b8114908115611d49575b8115611d38575b8115611d27575b8115611d16575b8115611d05575b5015158152f35b635b5e139f60e01b14905083611cfe565b63780e9d6360e01b81149150611cf7565b6370b0048160e11b81149150611cf0565b6380ac58cd60e01b81149150611ce9565b630354d60560e61b81149150611ce2565b60005b838110611d6d5750506000910152565b8181015183820152602001611d5d565b90602091611d9681518092818552858086019101611d5a565b601f01601f1916010190565b600435906001600160a01b038216820361023557565b602435906001600160a01b038216820361023557565b6080906003190112610235576004356001600160a01b03811681036102355790602435906044359060643590565b606090600319011261023557600435906024356001600160a01b0381168103610235579060443590565b6060906003190112610235576001600160a01b0390600435828116810361023557916024359081168103610235579060443590565b60c081019081106001600160401b038211176106b957604052565b602081019081106001600160401b038211176106b957604052565b90601f801991011681019081106001600160401b038211176106b957604052565b6001600160401b0381116106b957601f01601f191660200190565b929192611ed982611eb2565b91611ee76040519384611e91565b829481845281830111610235578281602093846000960137010152565b9080601f8301121561023557816020611f1f93359101611ecd565b90565b90600182811c92168015611f52575b6020831014611f3c57565b634e487b7160e01b600052602260045260246000fd5b91607f1691611f31565b9060009291805491611f6d83611f22565b918282526001938481169081600014611fcf5750600114611f8f575b50505050565b90919394506000526020928360002092846000945b838610611fbb575050505001019038808080611f89565b805485870183015294019385908201611fa4565b9294505050602093945060ff191683830152151560051b01019038808080611f89565b60055481101561202d576006906005600052027f036b6384b5eca791c62761152d0c79bb0604c104a5fb6f4eb0703f3154bb3db00190600090565b634e487b7160e01b600052603260045260246000fd5b61204f6109b982612453565b60005260066020526002612067604060002054611ff2565b50015490565b1561207457565b60405162461bcd60e51b815260206004820152601960248201527f455243333532353a20696e76616c696420746f6b656e204944000000000000006044820152606490fd5b6120c56109b982612453565b60005260066020526120db604060002054611ff2565b50600301546001600160a01b0316906120f582151561206d565b565b6121036109b982612453565b60005260066020526001612067604060002054611ff2565b602081830312610235578051906001600160401b038211610235570181601f8201121561023557805161214d81611eb2565b9261215b6040519485611e91565b8184526020828401011161023557611f1f9160208085019101611d5a565b8181029291811591840414171561218c57565b634e487b7160e01b600052601160045260246000fd5b9190820180921161218c57565b6121bb6109b982612453565b600052600460205260406000209060018060a01b031660005260205260406000205490565b6001600160a01b0316801561220057600052600760205260406000205490565b60405162461bcd60e51b815260206004820152602b60248201527f455243333532353a2062616c616e636520717565727920666f7220746865207a60448201526a65726f206164647265737360a81b6064820152608490fd5b1561226057565b60405162461bcd60e51b815260206004820152603260248201527f455243333532353a207472616e736665722063616c6c6572206973206e6f74206044820152711bdddb995c881b9bdc88185c1c1c9bdd995960721b6064820152608490fd5b906122e49392916122d461162f84336123e2565b6122df838383612481565b612883565b156122eb57565b60405162461bcd60e51b815260206004820152602760248201527f455243333532353a207472616e7366657220746f206e6f6e204552433732315260448201526632b1b2b4bb32b960c91b6064820152608490fd5b1561234757565b60405162461bcd60e51b815260206004820152602260248201527f455243333532353a20617070726f76616c20746f2063757272656e74206f776e60448201526132b960f11b6064820152608490fd5b6123a36109b982612453565b60005260066020526123b9604060002054611ff2565b50600401546001600160a01b031690565b805482101561202d5760005260206000200190600090565b906001600160a01b0380806123f6846120b9565b16931691838314938415612429575b508315612413575b50505090565b61241f91929350612397565b161438808061240d565b909350600052600760205260026040600020018260005260205260ff604060002054169238612405565b60055415159081612462575090565b809150600052600660205261247b604060002054611ff2565b50541490565b61248a836120b9565b6001600160a01b0391821691908116829003612715578083169283156126c2576124b3856120f7565b506124bd85612043565b50600091858352602090600682526040906124da82862054611ff2565b50600490810180546001600160a01b031990811690915590918987826124ff836120b9565b167f8c5be1e5ebec7d5bd14f71427d1e84f3dd0314c0f7b2291e5b200ac8c7c3b9258280a489875260068552600561253985892054611ff2565b500180549091858988818f5b86841061268b5750505050505050805487825580612672575b505088865260068452600361257584882054611ff2565b500190815416905585855260078352818520918254936000199485810190811161265f57906125a6889392866123ca565b90549060031b1c9060018601908c855281815283852054926125e7816125cc868b6123ca565b90919082549060031b600019811b9283911b16911916179055565b85525281832055898252812055815490811561264c575092828892612648947fddf252ad1be2c89b69c2b068fc378daa952ba7f163c4a11628f55a4df523b3ef9796019161263583836123ca565b909182549160031b1b1916905555612766565b80a4565b634e487b7160e01b865260319052602485fd5b634e487b7160e01b885260118452602488fd5b61268491885285882090810190612818565b388061255e565b6126b89486928b61269c878c6123ca565b96905494835252209260031b1c168c5289528a88812055612809565b8690888b8f612545565b60405162461bcd60e51b815260206004820152602560248201527f455243333532353a207472616e7366657220746f20746865207a65726f206164604482015264647265737360d81b6064820152608490fd5b60405162461bcd60e51b8152602060048201526024808201527f455243333532353a207472616e736665722066726f6d20696e76616c6964206f6044820152633bb732b960e11b6064820152608490fd5b600090828252600660205260036127806040842054611ff2565b500180546001600160a01b0319166001600160a01b0390921691821790558082526007602081815260408085208054878752600191909101835281862055928452528120805491600160401b8310156127e85750816125cc9160016120f595940181556123ca565b634e487b7160e01b81526041600452602490fd5b9190820391821161218c57565b600019811461218c5760010190565b818110612823575050565b60008155600101612818565b90600160401b81116106b95781549080835581811061284d57505050565b6120f59260005260206000209182019101612818565b9081602091031261023557516001600160e01b0319811681036102355790565b92939290803b156129c857936000916128da9560405180948193630a85bd0160e11b9788845233600485015260018060a01b0380921660248501526044840152608060648401528260209a8b976084830190611d7d565b0393165af160009181612999575b5061298a57833d15612982573d906128ff82611eb2565b9161290d6040519384611e91565b82523d60008284013e5b8151918261297f5760405162461bcd60e51b815260048101839052603260248201527f4552433732313a207472616e7366657220746f206e6f6e20455243373231526560448201527131b2b4bb32b91034b6b83632b6b2b73a32b960711b6064820152608490fd5b01fd5b606090612917565b6001600160e01b031916149150565b6129ba919250853d87116129c1575b6129b28183611e91565b810190612863565b90386128e8565b503d6129a8565b50600193505050565b8054600160401b8110156106b9576129ee916001820181556123ca565b819291549060031b9160018060a01b039283811b93849216901b16911916179055565b15612a1857565b60405162461bcd60e51b815260206004820152601660248201527514db1bdd081a5cc81b9bdd081c9959da5cdd195c995960521b6044820152606490fd5b600052600a602052612a6f600260406000200154611f22565b151590565b15612a7b57565b60405162461bcd60e51b815260206004820152602560248201527f53656e646572206e6f7420617574686f72697a656420746f206d696e7420746f604482015264081cdb1bdd60da1b6064820152608490fd5b6001600160a01b0380821695949293909290861561199b57841561194c57612af585612453565b61190757604090815193612b0885611e76565b600095868652835190612b1a82611e5b565b88825260209682898d8c8b8097018981528a850191848352606086019384528b608087019580875260a0880198895260066005549b8c948352522055600160401b881015612cd457612b73600198898101600555611ff2565b959095612cc057906005959493929151855551888501555160028401558560038401915116906001600160601b0360a01b9182825416179055856004840192511690825416179055019051918251926001600160401b038411612cac578990612bdc858561282f565b01918a52888a20908a5b848110612c995750505050505095809798612c23827f0b2aac84f3ec956911fd78eae5311062972ff949f38412e8da39069d9f068cc69899612766565b877fddf252ad1be2c89b69c2b068fc378daa952ba7f163c4a11628f55a4df523b3ef8180a485877fe4f48c240d3b994948aa54f3e2f5fca59263dfe1d52b6e4cf39a5d249b5ccb658280a4858552600683526002612c8382872054611ff2565b5001612c908382546121a2565b905551908152a3565b8351821683820155928a01928501612be6565b634e487b7160e01b8b52604160045260248bfd5b634e487b7160e01b8f5260048f905260248ffd5b634e487b7160e01b8e52604160045260248efd5b6001600160a01b0382169290918315612d7d577f621b050de0ad08b51d19b48b3e6df75348c4de6bdd93e81b252ca62e28265b1b9181612d2a85602094612dd5565b15612d54575b508360005260048252604060002085600052825280604060002055604051908152a3565b612d779085600052600684526005612d70604060002054611ff2565b50016129d1565b38612d30565b60405162461bcd60e51b815260206004820152602a60248201527f455243333532353a20617070726f76652076616c756520746f20746865207a65604482015269726f206164647265737360b01b6064820152608490fd5b6000908282526006602090808252604090612df282862054611ff2565b509260058094015496865b888110612e105750505050505050905090565b818852838352612e2e8187612e27888c2054611ff2565b50016123ca565b905460039190911b1c6001600160a01b0390811690881614612e5857612e5390612809565b612dfd565b505050505050505050600190565b612e7081836121af565b612e7a83836123e2565b1580612ef3575b612e8b5750505050565b838110612eae57612ea593612e9f916127fc565b91612ce8565b38808080611f89565b60405162461bcd60e51b815260206004820152601f60248201527f455243333532353a20696e73756666696369656e7420616c6c6f77616e6365006044820152606490fd5b50600019811415612e81565b612f0881612453565b1561313557612f1682612453565b156130e2578060005260209260068452604092612f368460002054611ff2565b508160005260068652612f4c8560002054611ff2565b5090600281019081549085821061308b57600101546001840154036130305791600291612f7f86612fce989796956127fc565b905501612f8d8382546121a2565b905580837f0b2aac84f3ec956911fd78eae5311062972ff949f38412e8da39069d9f068cc6888851868152a3845192612fc584611e76565b6000845261318a565b15612fd7575050565b60849250519062461bcd60e51b82526004820152602d60248201527f455243333532353a207472616e736665722072656a656374656420627920455260448201526c21999a991aa932b1b2b4bb32b960991b6064820152fd5b865162461bcd60e51b815260048101899052602e60248201527f455243333532353a207472616e7366657220746f20746f6b656e20776974682060448201526d191a5999995c995b9d081cdb1bdd60921b6064820152608490fd5b875162461bcd60e51b8152600481018a9052602a60248201527f455243333532353a20696e73756666696369656e742062616c616e636520666f60448201526939103a3930b739b332b960b11b6064820152608490fd5b60405162461bcd60e51b815260206004820152602560248201527f455243333532353a207472616e7366657220746f20696e76616c696420746f6b604482015264195b88125160da1b6064820152608490fd5b60405162461bcd60e51b815260206004820152602760248201527f455243333532353a207472616e736665722066726f6d20696e76616c696420746044820152661bdad95b88125160ca1b6064820152608490fd5b92613194826120b9565b803b15158061323a575b15613230576131e793600060209460405196879586948593629ce20b60e01b9b8c865233600487015260248601526044850152606484015260a0608484015260a4830190611d7d565b03926001600160a01b03165af190811561032757600091613212575b506001600160e01b0319161490565b61322a915060203d81116129c1576129b28183611e91565b38613203565b5050505050600190565b506040516301ffc9a760e01b8152629ce20b60e01b60048201526020816024816001600160a01b0386165afa9081156103275760009161327b575b5061319e565b6020813d82116132b4575b8161329360209383611e91565b810103126132b057519081151582036132ad575038613275565b80fd5b5080fd5b3d9150613286565b604d811161218c57600a0a9056fea2646970667358221220b9dad95398932806947d83f10f2e96b15a7ca45993471786d1cef3481bb7590764736f6c634300081100336080604052346200048657620024ae803803806200001d816200048b565b9283398101608082820312620004865781516001600160401b0391908281116200048657816200004f918501620004b1565b91602092838501518281116200048657836200006d918701620004b1565b92604086015183811162000486576060916200008b918801620004b1565b9501516001600160a01b03811695908690036200048657815193838511620002c3576001948554938685811c951680156200047b575b88861014620002a2578190601f9586811162000425575b508890868311600114620003bd57600092620003b1575b5050600019600383901b1c191690861b1785555b805190848211620002c357600254908682811c92168015620003a6575b88831014620002a25781858493116200034f575b508790858311600114620002e557600092620002d9575b5050600019600383901b1c191690851b176002555b8051928311620002c35760039485548581811c91168015620002b8575b82821014620002a25783811162000257575b5080928411600114620001ed5750928293918392600094620001e1575b50501b9160001990841b1c19161790555b600080546001600160a01b031916919091179055604051611f8a9081620005248239f35b015192503880620001ac565b919083601f1981168760005284600020946000905b888383106200023c575050501062000223575b505050811b019055620001bd565b015160001983861b60f8161c1916905538808062000215565b85870151885590960195948501948793509081019062000202565b86600052816000208480870160051c82019284881062000298575b0160051c019086905b8281106200028b5750506200018f565b600081550186906200027b565b9250819262000272565b634e487b7160e01b600052602260045260246000fd5b90607f16906200017d565b634e487b7160e01b600052604160045260246000fd5b0151905038806200014b565b90879350601f198316916002600052896000209260005b8b8282106200033857505084116200031e575b505050811b0160025562000160565b015160001960f88460031b161c191690553880806200030f565b8385015186558b97909501949384019301620002fc565b9091506002600052876000208580850160051c8201928a86106200039c575b918991869594930160051c01915b8281106200038c57505062000134565b600081558594508991016200037c565b925081926200036e565b91607f169162000120565b015190503880620000ef565b90889350601f19831691846000528a6000209260005b8c8282106200040e5750508411620003f4575b505050811b01855562000103565b015160001960f88460031b161c19169055388080620003e6565b8385015186558c97909501949384019301620003d3565b90915087600052886000208680850160051c8201928b861062000471575b918a91869594930160051c01915b82811062000461575050620000d8565b600081558594508a910162000451565b9250819262000443565b94607f1694620000c1565b600080fd5b6040519190601f01601f191682016001600160401b03811183821017620002c357604052565b919080601f84011215620004865782516001600160401b038111620002c357602090620004e7601f8201601f191683016200048b565b92818452828287010111620004865760005b8181106200050f57508260009394955001015290565b8581018301518482018401528201620004f956fe608060408181526004908136101561001657600080fd5b600092833560e01c9081631375d843146114a057508063246a908b146113a257806331264fc11461119057806355f804b31461104c57806364140ec014610f4d5780636c0360eb14610e8e5780636c037f8a14610b7257806371f0442e14610ade578063725fa09c14610866578063842251d41461072e578063894b4c2e146104025780639cdeaae0146101805763b3154c08146100b357600080fd5b3461017c57602091826003193601126101785780358452825280832091815192848154906100e082611a7d565b808752926001928084169081156101545750600114610119575b610115878761010b828c03836115b6565b5191829182611558565b0390f35b9080949750528583205b82841061014157505050826101159461010b928201019438806100fa565b8054868501880152928601928101610123565b60ff19168887015250505050151560051b830101925061010b8261011538806100fa565b8380fd5b8280fd5b50913461039057826003193601126103905781359161019e836119cd565b928083526020918083528584209386519481868254916101bd83611a7d565b92838352888301946001918a83821691826000146103e25750506001146103a5575b50506101ed925003876115b6565b6101f684611de4565b9161020260243561188a565b895163131f9f3f60e11b8152948501869052938681602481335afa91821561039a578092610365575b61011561027f8c61010b606c8e8e8e61034c8f8f8f8f8f61024e6102549161188a565b94611e7e565b966102a960298d519e8f809c683d913730b6b2911d1160b91b8c8301528b8151948593019101611535565b8a0191701116113232b9b1b934b83a34b7b7111d1160791b6029840152518093603a840190611535565b016a11161134b6b0b3b2911d1160a91b603a8201526102d18251809388604585019101611535565b016c1116113130b630b731b2911d1160991b60458201526102fb8251809387605285019101611535565b016911161139b637ba111d1160b11b60528201526103228251809386605c85019101611535565b01916e111611383937b832b93a34b2b9911d60891b605c8401528351938491606b85019101611535565b01607d60f81b606b82015203604c8101855201836115b6565b9091508682813d8311610393575b61037d81836115b6565b810103126103905750518461027f61022b565b80fd5b503d610373565b8a51903d90823e3d90fd5b89925086528186209086915b8583106103c95750506101ed935082010138806101df565b81948484839695965492010152019101899289926103b1565b92509350506101ed94915060ff19168552151560051b82010138806101df565b50913461039057602091826003193601126106bd57803591610423836119cd565b83825282855285822090865190838284549161043e83611a7d565b928383528a8301966001918c838216918260001461070e5750506001146106d2575b505061046e925003836115b6565b61047786611de4565b938851631398fee160e31b815287878201528881602481335afa80156106c8578290610695575b6104a8915061188a565b895163131f9f3f60e11b8152968701889052958881602481335afa91821561039a578092610664575b5050606c888a6101159b9961010b99603d996106549d9961061b9961055861052e9a6105086105026106169c61188a565b97611e7e565b97519b8c99683d913730b6b2911d1160b91b818c0152825192839160298d019101611535565b880191701116113232b9b1b934b83a34b7b7111d1160791b6029840152518093603a840190611535565b016a11161134b6b0b3b2911d1160a91b603a820152610580825180938d604585019101611535565b016c1116113130b630b731b2911d1160991b60458201526105aa825180938c605285019101611535565b016911161139b637ba111d1160b11b60528201526105d1825180938b605c85019101611535565b016e111611383937b832b93a34b2b9911d60891b605c8201526105fd825180938a606b85019101611535565b01607d60f81b606b82015203604c8101845201826115b6565b61171d565b845195827f646174613a6170706c69636174696f6e2f6a736f6e3b6261736536342c000000889485015282519283918686019101611535565b810103601d8101855201836115b6565b9091508882813d831161068e575b61067c81836115b6565b81010312610390575051606c886104d1565b503d610672565b508881813d83116106c1575b6106ab81836115b6565b810103126106bd576104a8905161049e565b5080fd5b503d6106a1565b8a513d84823e3d90fd5b8b925088528188209088915b8583106106f657505061046e93508201013880610460565b80548389018501528794508c939092019181016106de565b925093505061046e94915060ff19168752151560051b8201013880610460565b508290346106bd5761073f36611640565b939083526020916006835283209184519167ffffffffffffffff8311610853575061076a8354611a7d565b601f8111610810575b5080601f83116001146107ae57508394829394926107a3575b50508160011b916000199060031b1c191617905580f35b01519050848061078c565b90601f198316958486528286209286905b8882106107f8575050836001959697106107df575b505050811b01905580f35b015160001960f88460031b161c191690558480806107d4565b806001859682949686015181550195019301906107bf565b838552818520601f840160051c810191838510610849575b601f0160051c01905b81811061083e5750610773565b858155600101610831565b9091508190610828565b634e487b7160e01b855260419052602484fd5b50903461017c578260031936011261017c5781516306fdde0360e01b81529083828281335afa918215610ad1578492610aad575b5082519084600254906108ac82611a7d565b808552846020988992838301956001908181169081600014610a8e5750600114610a32575b50506108df925003856115b6565b6108e7611bb6565b928787518092633e7e866960e01b825281335afa918215610a2757605a610654989761010b97603d976101159c9761093360ff61061b996109889961061699916109fa575b501661188a565b928c51978895683d913730b6b2911d1160b91b8c88015261095e8c825192839160298b019101611535565b860191701116113232b9b1b934b83a34b7b7111d1160791b6029840152518093603a840190611535565b016a11161134b6b0b3b2911d1160a91b603a8201526109b0825180938b604585019101611535565b01721116113b30b63ab2a232b1b4b6b0b639911d1160691b60458201526109e0825180938a605885019101611535565b0161227d60f01b605882015203603a8101845201826115b6565b610a1a91508c8d3d10610a20575b610a1281836115b6565b8101906116d2565b3861092c565b503d610a08565b8751903d90823e3d90fd5b600286527f405787fa12a823e0f2b7631cc41b3ba8828b3321ca811111fa75cd3aa3bb5ace9492508591905b818310610a7657508b9450508201016108df386108d1565b85548a84018501529485019489945091830191610a5e565b9150506108df94925060ff19168652151560051b8201018992386108d1565b610aca9192503d8086833e610ac281836115b6565b810190611673565b903861089a565b50505051903d90823e3d90fd5b503461017c576020918260031936011261017857358352600582528083209181519284815490610b0d82611a7d565b808752926001928084169081156101545750600114610b3757610115878761010b828c03836115b6565b9080949750528583205b828410610b5f57505050826101159461010b928201019438806100fa565b8054868501880152928601928101610b41565b50903461017c5760209283600319360112610390578054835163ec327a2160e01b815283358185018190529092916001600160a01b0316908284602481855afa938415610e84578394610e68575b50855163bc74ebb960e01b8152858101829052948386602481865afa958615610e5e578496610e42575b5086516309c3dd8760e01b80825282820184905290938585602481845afa948515610e3857918a9594939187938496610e17575b5090602491610c5e60268d518a652f696d61676560d01b81610c4a849e85019d8e815193849201611535565b83019182015203600681018b5201896115b6565b8b51958694859384528301525afa938415610a27578094610dfa575b50508551918288808201868197519283910191610c9692611535565b81018981016f17b83937b832b93a34b2b9973539b7b760811b905203601081018452603001610cc590846115b6565b8651958695683d913730b6b2911d1160b91b8a880152805190818b60298a01920191610cf092611535565b8601701116113232b9b1b934b83a34b7b7111d1160791b6029820152815191828b603a8401920191610d2192611535565b01906a11161134b6b0b3b2911d1160a91b603a83015251918260458301610d4792611535565b01906e111611383937b832b93a34b2b9911d60891b604583015251918260548301610d7192611535565b0160548101607d60f81b905203603581018252605501610d9190826115b6565b610d9a9061171d565b81517f646174613a6170706c69636174696f6e2f6a736f6e3b6261736536342c00000084820152815190938492610dd8918391603d86019101611535565b810103601d81018352603d01610dee90836115b6565b51610115819282611558565b610e0f9294503d8091833e610ac281836115b6565b913880610c7a565b602492919650610e30903d8087833e610ac281836115b6565b959091610c1e565b89513d88823e3d90fd5b610e579196503d8086833e610ac281836115b6565b9438610bea565b87513d86823e3d90fd5b610e7d9194503d8085833e610ac281836115b6565b9238610bc0565b86513d85823e3d90fd5b8382346106bd57816003193601126106bd57805190826001805491610eb283611a7d565b80865292828116908115610f255750600114610edb575b50505061010b826101159403836115b6565b9450808552600080516020611f358339815191525b828610610f0d5750505061010b8260206101159582010194610ec9565b80546020878701810191909152909501948101610ef0565b61011597508693506020925061010b94915060ff191682840152151560051b82010194610ec9565b508290346106bd57610f5e36611640565b939083526020916005835283209184519167ffffffffffffffff83116108535750610f898354611a7d565b601f8111611009575b5080601f8311600114610fc157508394829394926107a35750508160011b916000199060031b1c191617905580f35b90601f198316958486528286209286905b888210610ff1575050836001959697106107df57505050811b01905580f35b80600185968294968601518155019501930190610fd2565b838552818520601f840160051c810191838510611042575b601f0160051c01905b8181106110375750610f92565b85815560010161102a565b9091508190611021565b828434610390576020806003193601126106bd5767ffffffffffffffff83358181116101785761107f90369086016115f4565b93845191821161117d57506001916110978354611a7d565b601f811161112b575b5080601f83116001146110da57508394829394926110cf575b5050600019600383901b1c191690821b17905580f35b0151905084806110b9565b838552601f19831695600080516020611f35833981519152929186905b88821061111457505083859697106107df57505050811b01905580f35b8087859682949686015181550195019301906110f7565b838552600080516020611f35833981519152601f840160051c810191838510611173575b601f0160051c019084905b8281106111685750506110a0565b86815501849061115a565b909150819061114f565b634e487b7160e01b845260419052602483fd5b50903461017c578260031936011261017c5781516306fdde0360e01b81529083828281335afa918215610ad1578492611386575b5082519084906002546111d681611a7d565b808552846020948582019360019087828216918260001461136857505060011461130e575b50611208925003856115b6565b611210611bb6565b918387518092633e7e866960e01b825281335afa9081156113045761127d97969361010b969361125360ff605a98956112d3956101159e916112ed57501661188a565b9489519a8b97683d913730b6b2911d1160b91b878a015261052e815180928960298d019101611535565b016a11161134b6b0b3b2911d1160a91b603a8201526112a58251809386604585019101611535565b0191721116113b30b63ab2a232b1b4b6b0b639911d1160691b60458401528351938491605885019101611535565b0161227d60f01b605882015203603a8101855201836115b6565b610a1a9150873d8911610a2057610a1281836115b6565b87513d8a823e3d90fd5b60028b528691508a907f405787fa12a823e0f2b7631cc41b3ba8828b3321ca811111fa75cd3aa3bb5ace5b8583106113505750506112089350820101386111fb565b8054838b018501528994508893909201918101611339565b60ff1916875261120895151560051b85010192503891506111fb9050565b61139b9192503d8086833e610ac281836115b6565b90386111c4565b508290346106bd576113b336611640565b9390835260209181835283209184519167ffffffffffffffff831161085357506113dd8354611a7d565b601f811161145d575b5080601f831160011461141557508394829394926107a35750508160011b916000199060031b1c191617905580f35b90601f198316958486528286209286905b888210611445575050836001959697106107df57505050811b01905580f35b80600185968294968601518155019501930190611426565b838552818520601f840160051c810191838510611496575b601f0160051c01905b81811061148b57506113e6565b85815560010161147e565b9091508190611475565b92905034610178576020908160031936011261153157358452600681528184208054856114cc82611a7d565b8087529260019280841690811561015457506001146114f657610115878761010b828c03836115b6565b9080949750528583205b82841061151e57505050826101159461010b928201019438806100fa565b8054868501880152928601928101611500565b8480fd5b60005b8381106115485750506000910152565b8181015183820152602001611538565b604091602082526115788151809281602086015260208686019101611535565b601f01601f1916010190565b6060810190811067ffffffffffffffff8211176115a057604052565b634e487b7160e01b600052604160045260246000fd5b90601f8019910116810190811067ffffffffffffffff8211176115a057604052565b67ffffffffffffffff81116115a057601f01601f191660200190565b81601f8201121561163b5780359061160b826115d8565b9261161960405194856115b6565b8284526020838301011161163b57816000926020809301838601378301015290565b600080fd5b90604060031983011261163b57600435916024359067ffffffffffffffff821161163b57611670916004016115f4565b90565b60208183031261163b5780519067ffffffffffffffff821161163b570181601f8201121561163b5780516116a6816115d8565b926116b460405194856115b6565b8184526020828401011161163b576116709160208085019101611535565b9081602091031261163b575160ff8116810361163b5790565b906116f5826115d8565b61170260405191826115b6565b8281528092611713601f19916115d8565b0190602036910137565b8051156118655760405161173081611584565b604081527f4142434445464748494a4b4c4d4e4f505152535455565758595a61626364656660208201527f6768696a6b6c6d6e6f707172737475767778797a303132333435363738392b2f6040820152815160029283820180921161184f576003918290046001600160fe1b038116810361184f576117b2908594951b6116eb565b936020850193829183518401925b8381106117fe57505050505106806001146117eb576002146117e0575090565b603d90600019015390565b50603d9081600019820153600119015390565b85600491979293949701918251600190603f9082828260121c16880101518453828282600c1c16880101518385015382828260061c16880101518885015316850101518782015301959291906117c0565b634e487b7160e01b600052601160045260246000fd5b506040516020810181811067ffffffffffffffff8211176115a0576040526000815290565b806000917a184f03e93ff9f4daa797ed6e38ed64bf6a1f010000000000000000808210156119bf575b506d04ee2d6d415b85acef8100000000808310156119b0575b50662386f26fc10000808310156119a1575b506305f5e10080831015611992575b5061271080831015611983575b506064821015611973575b600a80921015611969575b6001908160216119218287016116eb565b95860101905b611933575b5050505090565b600019019083906f181899199a1a9b1b9c1cb0b131b232b360811b8282061a83530491821561196457919082611927565b61192c565b9160010191611910565b9190606460029104910191611905565b600491939204910191386118fa565b600891939204910191386118ed565b601091939204910191386118de565b602091939204910191386118cc565b6040935081049150386118b3565b6040516306fdde0360e01b815290600082600481335afa918215611a7157600092611a4b575b506022611a026116709261188a565b926040519381611a1c869351809260208087019101611535565b820161202360f01b6020820152611a3c8251809360208785019101611535565b010360028101845201826115b6565b611a02611a6860229261167094953d8091833e610ac281836115b6565b939250506119f3565b6040513d6000823e3d90fd5b90600182811c92168015611aad575b6020831014611a9757565b634e487b7160e01b600052602260045260246000fd5b91607f1691611a8c565b90600091600190815491611aca83611a7d565b92818116908115611b205750600114611ae257505050565b809192939450600052600080516020611f35833981519152906000915b848310611b0d575050500190565b8181602092548587015201920191611aff565b60ff191683525050811515909102019150565b600092918154611b4281611a7d565b92600191808316908115611b9b5750600114611b5f575b50505050565b90919293945060005260209081600020906000915b858310611b8a5750505050019038808080611b59565b805485840152918301918101611b74565b60ff1916845250505081151590910201915038808080611b59565b611bbf33611cc1565b6040519081602091611bd2838301611ab7565b68636f6e74726163742f60b81b8152611bf48251809386600985019101611535565b01602f60f81b600982015260009060035493611c0f85611a7d565b94600190818116908115611c9e5750600114611c3c575b505050611670925003601f1981018352826115b6565b9091925060036000527fc2575a0e9e593c00f959f8c92f12db2869c3395a3b0502d05e2516446f71f85b906000915b868310611c87575050505061167092600a910101388080611c26565b8054838601600a0152879550918301918101611c6b565b915050600a935061167095915060ff191683830152801515020101388080611c26565b604051906001600160a01b0316611cd782611584565b602a82526020908183016040368237835115611dce57603090538251600190811015611dce57607860218501536029905b808211611d5c575050611d19575090565b6064906040519062461bcd60e51b825280600483015260248201527f537472696e67733a20686578206c656e67746820696e73756666696369656e746044820152fd5b9091600f81166010811015611db9578551841015611db9576f181899199a1a9b1b9c1cb0b131b232b360811b901a85840185015360041c918015611da4576000190190611d08565b60246000634e487b7160e01b81526011600452fd5b60246000634e487b7160e01b81526032600452fd5b634e487b7160e01b600052603260045260246000fd5b611670601191611df330611cc1565b906000526006602052611e70604060002060056020526001611e62604060002092604051978896611e2660208901611ab7565b692f636f6e74726163742f60b01b8152611e4a825180936020600a85019101611535565b01662f746f6b656e2f60c81b600a8201520190611b33565b602f60f81b81520190611b33565b03601f1981018352826115b6565b6116706011601092611e8f33611cc1565b906000526006602052611f0560406000206040519586936e7b70726f706572746965735f75726960881b6020860152611eca602f8601611ab7565b68636f6e74726163742f60b81b8152611eed825180936020600985019101611535565b01662f746f6b656e2f60c81b60098201520190611b33565b6f17b83937b832b93a34b2b9973539b7b760811b8152607d60f81b601082015203600e198101845201826115b656feb10e2d527612073b26eecdfd717e6a320cf44b4afac2b0732d9fcbe2b7fa0cf6a26469706673582212204acf999d970adc8d8fc934244bb0b1eeca1d242ed83b1a407b04f51749a4b83064736f6c63430008110033290decd9548b62a8d60345a988386fc84ba6bc95484008f6362f93160ef3e5631b6847dc741a1b0cd08d278845f9d819d87b734759afb55fe2de5cb82a9ae672",
  "linkReferences": {},
  "deployedLinkReferences": {}
}