{
  "_format": "hh-sol-artifact-1",
  "contractName": "SlotRegistry",
  "sourceName": "contracts/SlotRegistry.sol",
  "abi": [
    {
      "inputs": [
        {
          "internalType": "address",
          "name": "mktAdmin_",
          "type": "address"
        },
        {
          "internalType": "string",
          "name": "name_",
          "type": "string"
        },
        {
          "internalType": "string",
          "name": "symbol_",
          "type": "string"
        },
        {
          "internalType": "string",
          "name": "baseuri_",
          "type": "string"
        },
        {
          "internalType": "string",
          "name": "contractDescription_",
          "type": "string"
        },
        {
          "internalType": "string",
          "name": "contractImage_",
          "type": "string"
        },
        {
          "internalType": "uint8",
          "name": "decimals_",
          "type": "uint8"
        }
      ],
      "stateMutability": "nonpayable",
      "type": "constructor"
    },
    {
      "anonymous": false,
      "inputs": [
        {
          "indexed": true,
          "internalType": "address",
          "name": "_owner",
          "type": "address"
        },
        {
          "indexed": true,
          "internalType": "address",
          "name": "_approved",
          "type": "address"
        },
        {
          "indexed": true,
          "internalType": "uint256",
          "name": "_tokenId",
          "type": "uint256"
        }
      ],
      "name": "Approval",
      "type": "event"
    },
    {
      "anonymous": false,
      "inputs": [
        {
          "indexed": true,
          "internalType": "address",
          "name": "_owner",
          "type": "address"
        },
        {
          "indexed": true,
          "internalType": "address",
          "name": "_operator",
          "type": "address"
        },
        {
          "indexed": false,
          "internalType": "bool",
          "name": "_approved",
          "type": "bool"
        }
      ],
      "name": "ApprovalForAll",
      "type": "event"
    },
    {
      "anonymous": false,
      "inputs": [
        {
          "indexed": true,
          "internalType": "uint256",
          "name": "_tokenId",
          "type": "uint256"
        },
        {
          "indexed": true,
          "internalType": "address",
          "name": "_operator",
          "type": "address"
        },
        {
          "indexed": false,
          "internalType": "uint256",
          "name": "_value",
          "type": "uint256"
        }
      ],
      "name": "ApprovalValue",
      "type": "event"
    },
    {
      "anonymous": false,
      "inputs": [
        {
          "indexed": false,
          "internalType": "address",
          "name": "contractAddress",
          "type": "address"
        }
      ],
      "name": "MetadataDescriptor",
      "type": "event"
    },
    {
      "anonymous": false,
      "inputs": [
        {
          "indexed": false,
          "internalType": "uint256",
          "name": "slotId",
          "type": "uint256"
        },
        {
          "indexed": false,
          "internalType": "string",
          "name": "slotName",
          "type": "string"
        }
      ],
      "name": "NewSlot",
      "type": "event"
    },
    {
      "anonymous": false,
      "inputs": [
        {
          "indexed": true,
          "internalType": "bytes32",
          "name": "role",
          "type": "bytes32"
        },
        {
          "indexed": true,
          "internalType": "bytes32",
          "name": "previousAdminRole",
          "type": "bytes32"
        },
        {
          "indexed": true,
          "internalType": "bytes32",
          "name": "newAdminRole",
          "type": "bytes32"
        }
      ],
      "name": "RoleAdminChanged",
      "type": "event"
    },
    {
      "anonymous": false,
      "inputs": [
        {
          "indexed": true,
          "internalType": "bytes32",
          "name": "role",
          "type": "bytes32"
        },
        {
          "indexed": true,
          "internalType": "address",
          "name": "account",
          "type": "address"
        },
        {
          "indexed": true,
          "internalType": "address",
          "name": "sender",
          "type": "address"
        }
      ],
      "name": "RoleGranted",
      "type": "event"
    },
    {
      "anonymous": false,
      "inputs": [
        {
          "indexed": true,
          "internalType": "bytes32",
          "name": "role",
          "type": "bytes32"
        },
        {
          "indexed": true,
          "internalType": "address",
          "name": "account",
          "type": "address"
        },
        {
          "indexed": true,
          "internalType": "address",
          "name": "sender",
          "type": "address"
        }
      ],
      "name": "RoleRevoked",
      "type": "event"
    },
    {
      "anonymous": false,
      "inputs": [
        {
          "indexed": true,
          "internalType": "address",
          "name": "metadataDescriptor",
          "type": "address"
        }
      ],
      "name": "SetMetadataDescriptor",
      "type": "event"
    },
    {
      "anonymous": false,
      "inputs": [
        {
          "indexed": true,
          "internalType": "uint256",
          "name": "_tokenId",
          "type": "uint256"
        },
        {
          "indexed": true,
          "internalType": "uint256",
          "name": "_oldSlot",
          "type": "uint256"
        },
        {
          "indexed": true,
          "internalType": "uint256",
          "name": "_newSlot",
          "type": "uint256"
        }
      ],
      "name": "SlotChanged",
      "type": "event"
    },
    {
      "anonymous": false,
      "inputs": [
        {
          "indexed": true,
          "internalType": "address",
          "name": "_from",
          "type": "address"
        },
        {
          "indexed": true,
          "internalType": "address",
          "name": "_to",
          "type": "address"
        },
        {
          "indexed": true,
          "internalType": "uint256",
          "name": "_tokenId",
          "type": "uint256"
        }
      ],
      "name": "Transfer",
      "type": "event"
    },
    {
      "anonymous": false,
      "inputs": [
        {
          "indexed": true,
          "internalType": "uint256",
          "name": "_fromTokenId",
          "type": "uint256"
        },
        {
          "indexed": true,
          "internalType": "uint256",
          "name": "_toTokenId",
          "type": "uint256"
        },
        {
          "indexed": false,
          "internalType": "uint256",
          "name": "_value",
          "type": "uint256"
        }
      ],
      "name": "TransferValue",
      "type": "event"
    },
    {
      "inputs": [],
      "name": "DEFAULT_ADMIN_ROLE",
      "outputs": [
        {
          "internalType": "bytes32",
          "name": "",
          "type": "bytes32"
        }
      ],
      "stateMutability": "view",
      "type": "function"
    },
    {
      "inputs": [],
      "name": "MKT_ARBITRATOR_ROLE",
      "outputs": [
        {
          "internalType": "bytes32",
          "name": "",
          "type": "bytes32"
        }
      ],
      "stateMutability": "view",
      "type": "function"
    },
    {
      "inputs": [
        {
          "internalType": "uint256",
          "name": "tokenId_",
          "type": "uint256"
        },
        {
          "internalType": "address",
          "name": "operator_",
          "type": "address"
        }
      ],
      "name": "allowance",
      "outputs": [
        {
          "internalType": "uint256",
          "name": "",
          "type": "uint256"
        }
      ],
      "stateMutability": "view",
      "type": "function"
    },
    {
      "inputs": [
        {
          "internalType": "address",
          "name": "to_",
          "type": "address"
        },
        {
          "internalType": "uint256",
          "name": "tokenId_",
          "type": "uint256"
        }
      ],
      "name": "approve",
      "outputs": [],
      "stateMutability": "payable",
      "type": "function"
    },
    {
      "inputs": [
        {
          "internalType": "uint256",
          "name": "tokenId_",
          "type": "uint256"
        },
        {
          "internalType": "address",
          "name": "to_",
          "type": "address"
        },
        {
          "internalType": "uint256",
          "name": "value_",
          "type": "uint256"
        }
      ],
      "name": "approve",
      "outputs": [],
      "stateMutability": "payable",
      "type": "function"
    },
    {
      "inputs": [
        {
          "internalType": "address",
          "name": "contract_",
          "type": "address"
        },
        {
          "internalType": "uint256",
          "name": "slotId_",
          "type": "uint256"
        }
      ],
      "name": "approveContractForSlot",
      "outputs": [],
      "stateMutability": "nonpayable",
      "type": "function"
    },
    {
      "inputs": [
        {
          "internalType": "address",
          "name": "owner_",
          "type": "address"
        }
      ],
      "name": "balanceOf",
      "outputs": [
        {
          "internalType": "uint256",
          "name": "balance",
          "type": "uint256"
        }
      ],
      "stateMutability": "view",
      "type": "function"
    },
    {
      "inputs": [
        {
          "internalType": "uint256",
          "name": "tokenId_",
          "type": "uint256"
        }
      ],
      "name": "balanceOf",
      "outputs": [
        {
          "internalType": "uint256",
          "name": "",
          "type": "uint256"
        }
      ],
      "stateMutability": "view",
      "type": "function"
    },
    {
      "inputs": [
        {
          "internalType": "uint256",
          "name": "networkTokenId_",
          "type": "uint256"
        }
      ],
      "name": "contractOf",
      "outputs": [
        {
          "internalType": "address",
          "name": "",
          "type": "address"
        }
      ],
      "stateMutability": "view",
      "type": "function"
    },
    {
      "inputs": [],
      "name": "contractURI",
      "outputs": [
        {
          "internalType": "string",
          "name": "",
          "type": "string"
        }
      ],
      "stateMutability": "view",
      "type": "function"
    },
    {
      "inputs": [
        {
          "internalType": "uint256",
          "name": "slotId",
          "type": "uint256"
        }
      ],
      "name": "exists",
      "outputs": [
        {
          "internalType": "bool",
          "name": "",
          "type": "bool"
        }
      ],
      "stateMutability": "view",
      "type": "function"
    },
    {
      "inputs": [
        {
          "internalType": "uint256",
          "name": "tokenId_",
          "type": "uint256"
        }
      ],
      "name": "getApproved",
      "outputs": [
        {
          "internalType": "address",
          "name": "",
          "type": "address"
        }
      ],
      "stateMutability": "view",
      "type": "function"
    },
    {
      "inputs": [
        {
          "internalType": "bytes32",
          "name": "role",
          "type": "bytes32"
        }
      ],
      "name": "getRoleAdmin",
      "outputs": [
        {
          "internalType": "bytes32",
          "name": "",
          "type": "bytes32"
        }
      ],
      "stateMutability": "view",
      "type": "function"
    },
    {
      "inputs": [
        {
          "internalType": "bytes32",
          "name": "role",
          "type": "bytes32"
        },
        {
          "internalType": "address",
          "name": "account",
          "type": "address"
        }
      ],
      "name": "grantRole",
      "outputs": [],
      "stateMutability": "nonpayable",
      "type": "function"
    },
    {
      "inputs": [
        {
          "internalType": "bytes32",
          "name": "role",
          "type": "bytes32"
        },
        {
          "internalType": "address",
          "name": "account",
          "type": "address"
        }
      ],
      "name": "hasRole",
      "outputs": [
        {
          "internalType": "bool",
          "name": "",
          "type": "bool"
        }
      ],
      "stateMutability": "view",
      "type": "function"
    },
    {
      "inputs": [
        {
          "internalType": "address",
          "name": "owner_",
          "type": "address"
        },
        {
          "internalType": "address",
          "name": "operator_",
          "type": "address"
        }
      ],
      "name": "isApprovedForAll",
      "outputs": [
        {
          "internalType": "bool",
          "name": "",
          "type": "bool"
        }
      ],
      "stateMutability": "view",
      "type": "function"
    },
    {
      "inputs": [
        {
          "internalType": "uint256",
          "name": "tokenId_",
          "type": "uint256"
        }
      ],
      "name": "isNetworkToken",
      "outputs": [
        {
          "internalType": "bool",
          "name": "",
          "type": "bool"
        }
      ],
      "stateMutability": "view",
      "type": "function"
    },
    {
      "inputs": [],
      "name": "metadataDescriptor",
      "outputs": [
        {
          "internalType": "contract IERC3525MetadataDescriptor",
          "name": "",
          "type": "address"
        }
      ],
      "stateMutability": "view",
      "type": "function"
    },
    {
      "inputs": [
        {
          "internalType": "address",
          "name": "owner_",
          "type": "address"
        },
        {
          "internalType": "uint256",
          "name": "slot_",
          "type": "uint256"
        },
        {
          "internalType": "uint256",
          "name": "value_",
          "type": "uint256"
        }
      ],
      "name": "mint",
      "outputs": [
        {
          "internalType": "uint256",
          "name": "",
          "type": "uint256"
        }
      ],
      "stateMutability": "nonpayable",
      "type": "function"
    },
    {
      "inputs": [
        {
          "internalType": "address",
          "name": "owner_",
          "type": "address"
        },
        {
          "internalType": "uint256",
          "name": "slot_",
          "type": "uint256"
        },
        {
          "internalType": "uint256",
          "name": "value_",
          "type": "uint256"
        },
        {
          "internalType": "uint256",
          "name": "adjDiscountBasisPts_",
          "type": "uint256"
        }
      ],
      "name": "mintWithDiscount",
      "outputs": [
        {
          "internalType": "uint256",
          "name": "",
          "type": "uint256"
        }
      ],
      "stateMutability": "nonpayable",
      "type": "function"
    },
    {
      "inputs": [
        {
          "internalType": "address",
          "name": "owner_",
          "type": "address"
        },
        {
          "internalType": "uint256",
          "name": "slot_",
          "type": "uint256"
        },
        {
          "internalType": "uint256",
          "name": "value_",
          "type": "uint256"
        },
        {
          "internalType": "uint256",
          "name": "adjTVRate_",
          "type": "uint256"
        }
      ],
      "name": "mintWithTVRate",
      "outputs": [
        {
          "internalType": "uint256",
          "name": "",
          "type": "uint256"
        }
      ],
      "stateMutability": "nonpayable",
      "type": "function"
    },
    {
      "inputs": [],
      "name": "name",
      "outputs": [
        {
          "internalType": "string",
          "name": "",
          "type": "string"
        }
      ],
      "stateMutability": "view",
      "type": "function"
    },
    {
      "inputs": [
        {
          "internalType": "uint256",
          "name": "tokenId_",
          "type": "uint256"
        }
      ],
      "name": "ownerOf",
      "outputs": [
        {
          "internalType": "address",
          "name": "owner_",
          "type": "address"
        }
      ],
      "stateMutability": "view",
      "type": "function"
    },
    {
      "inputs": [
        {
          "internalType": "address",
          "name": "adminAddress_",
          "type": "address"
        },
        {
          "internalType": "uint256",
          "name": "slot_",
          "type": "uint256"
        },
        {
          "internalType": "enum SlotRegistry.CreditType",
          "name": "type_",
          "type": "uint8"
        }
      ],
      "name": "registerContract",
      "outputs": [],
      "stateMutability": "nonpayable",
      "type": "function"
    },
    {
      "inputs": [
        {
          "internalType": "address",
          "name": "ctrctSvcAdminAdress_",
          "type": "address"
        },
        {
          "internalType": "uint256",
          "name": "slotId_",
          "type": "uint256"
        },
        {
          "internalType": "string",
          "name": "slotName_",
          "type": "string"
        },
        {
          "internalType": "string",
          "name": "slotURI_",
          "type": "string"
        },
        {
          "internalType": "string",
          "name": "description_",
          "type": "string"
        },
        {
          "internalType": "uint8",
          "name": "type_",
          "type": "uint8"
        }
      ],
      "name": "registerSlot",
      "outputs": [
        {
          "internalType": "bool",
          "name": "",
          "type": "bool"
        }
      ],
      "stateMutability": "nonpayable",
      "type": "function"
    },
    {
      "inputs": [
        {
          "internalType": "bytes32",
          "name": "role",
          "type": "bytes32"
        },
        {
          "internalType": "address",
          "name": "account",
          "type": "address"
        }
      ],
      "name": "renounceRole",
      "outputs": [],
      "stateMutability": "nonpayable",
      "type": "function"
    },
    {
      "inputs": [
        {
          "internalType": "bytes32",
          "name": "role",
          "type": "bytes32"
        },
        {
          "internalType": "address",
          "name": "account",
          "type": "address"
        }
      ],
      "name": "revokeRole",
      "outputs": [],
      "stateMutability": "nonpayable",
      "type": "function"
    },
    {
      "inputs": [
        {
          "internalType": "address",
          "name": "from_",
          "type": "address"
        },
        {
          "internalType": "address",
          "name": "to_",
          "type": "address"
        },
        {
          "internalType": "uint256",
          "name": "tokenId_",
          "type": "uint256"
        }
      ],
      "name": "safeTransferFrom",
      "outputs": [],
      "stateMutability": "payable",
      "type": "function"
    },
    {
      "inputs": [
        {
          "internalType": "address",
          "name": "from_",
          "type": "address"
        },
        {
          "internalType": "address",
          "name": "to_",
          "type": "address"
        },
        {
          "internalType": "uint256",
          "name": "tokenId_",
          "type": "uint256"
        },
        {
          "internalType": "bytes",
          "name": "data_",
          "type": "bytes"
        }
      ],
      "name": "safeTransferFrom",
      "outputs": [],
      "stateMutability": "payable",
      "type": "function"
    },
    {
      "inputs": [
        {
          "internalType": "address",
          "name": "operator_",
          "type": "address"
        },
        {
          "internalType": "bool",
          "name": "approved_",
          "type": "bool"
        }
      ],
      "name": "setApprovalForAll",
      "outputs": [],
      "stateMutability": "nonpayable",
      "type": "function"
    },
    {
      "inputs": [
        {
          "internalType": "uint256",
          "name": "slotId_",
          "type": "uint256"
        }
      ],
      "name": "slotDescription",
      "outputs": [
        {
          "internalType": "string",
          "name": "",
          "type": "string"
        }
      ],
      "stateMutability": "view",
      "type": "function"
    },
    {
      "inputs": [
        {
          "internalType": "uint256",
          "name": "slotId_",
          "type": "uint256"
        }
      ],
      "name": "slotName",
      "outputs": [
        {
          "internalType": "string",
          "name": "",
          "type": "string"
        }
      ],
      "stateMutability": "view",
      "type": "function"
    },
    {
      "inputs": [
        {
          "internalType": "uint256",
          "name": "tokenId_",
          "type": "uint256"
        }
      ],
      "name": "slotOf",
      "outputs": [
        {
          "internalType": "uint256",
          "name": "",
          "type": "uint256"
        }
      ],
      "stateMutability": "view",
      "type": "function"
    },
    {
      "inputs": [
        {
          "internalType": "uint256",
          "name": "slotId_",
          "type": "uint256"
        }
      ],
      "name": "slotURI",
      "outputs": [
        {
          "internalType": "string",
          "name": "",
          "type": "string"
        }
      ],
      "stateMutability": "view",
      "type": "function"
    },
    {
      "inputs": [
        {
          "internalType": "bytes4",
          "name": "interfaceId",
          "type": "bytes4"
        }
      ],
      "name": "supportsInterface",
      "outputs": [
        {
          "internalType": "bool",
          "name": "",
          "type": "bool"
        }
      ],
      "stateMutability": "view",
      "type": "function"
    },
    {
      "inputs": [],
      "name": "symbol",
      "outputs": [
        {
          "internalType": "string",
          "name": "",
          "type": "string"
        }
      ],
      "stateMutability": "view",
      "type": "function"
    },
    {
      "inputs": [
        {
          "internalType": "uint256",
          "name": "toTokenId_",
          "type": "uint256"
        }
      ],
      "name": "timeValueRate",
      "outputs": [
        {
          "internalType": "uint256",
          "name": "",
          "type": "uint256"
        }
      ],
      "stateMutability": "view",
      "type": "function"
    },
    {
      "inputs": [
        {
          "internalType": "uint256",
          "name": "index_",
          "type": "uint256"
        }
      ],
      "name": "tokenByIndex",
      "outputs": [
        {
          "internalType": "uint256",
          "name": "",
          "type": "uint256"
        }
      ],
      "stateMutability": "view",
      "type": "function"
    },
    {
      "inputs": [
        {
          "internalType": "uint256",
          "name": "toTokenId_",
          "type": "uint256"
        }
      ],
      "name": "tokenDiscount",
      "outputs": [
        {
          "internalType": "uint256",
          "name": "",
          "type": "uint256"
        }
      ],
      "stateMutability": "view",
      "type": "function"
    },
    {
      "inputs": [
        {
          "internalType": "address",
          "name": "owner_",
          "type": "address"
        },
        {
          "internalType": "uint256",
          "name": "index_",
          "type": "uint256"
        }
      ],
      "name": "tokenOfOwnerByIndex",
      "outputs": [
        {
          "internalType": "uint256",
          "name": "",
          "type": "uint256"
        }
      ],
      "stateMutability": "view",
      "type": "function"
    },
    {
      "inputs": [
        {
          "internalType": "uint256",
          "name": "tokenId_",
          "type": "uint256"
        }
      ],
      "name": "tokenURI",
      "outputs": [
        {
          "internalType": "string",
          "name": "",
          "type": "string"
        }
      ],
      "stateMutability": "view",
      "type": "function"
    },
    {
      "inputs": [],
      "name": "totalSupply",
      "outputs": [
        {
          "internalType": "uint256",
          "name": "",
          "type": "uint256"
        }
      ],
      "stateMutability": "view",
      "type": "function"
    },
    {
      "inputs": [
        {
          "internalType": "uint256",
          "name": "fromTokenId_",
          "type": "uint256"
        },
        {
          "internalType": "address",
          "name": "to_",
          "type": "address"
        },
        {
          "internalType": "uint256",
          "name": "value_",
          "type": "uint256"
        }
      ],
      "name": "transferFrom",
      "outputs": [
        {
          "internalType": "uint256",
          "name": "",
          "type": "uint256"
        }
      ],
      "stateMutability": "payable",
      "type": "function"
    },
    {
      "inputs": [
        {
          "internalType": "address",
          "name": "from_",
          "type": "address"
        },
        {
          "internalType": "address",
          "name": "to_",
          "type": "address"
        },
        {
          "internalType": "uint256",
          "name": "tokenId_",
          "type": "uint256"
        }
      ],
      "name": "transferFrom",
      "outputs": [],
      "stateMutability": "payable",
      "type": "function"
    },
    {
      "inputs": [
        {
          "internalType": "uint256",
          "name": "fromTokenId_",
          "type": "uint256"
        },
        {
          "internalType": "uint256",
          "name": "toTokenId_",
          "type": "uint256"
        },
        {
          "internalType": "uint256",
          "name": "value_",
          "type": "uint256"
        }
      ],
      "name": "transferFrom",
      "outputs": [],
      "stateMutability": "payable",
      "type": "function"
    },
    {
      "inputs": [],
      "name": "valueDecimals",
      "outputs": [
        {
          "internalType": "uint8",
          "name": "",
          "type": "uint8"
        }
      ],
      "stateMutability": "view",
      "type": "function"
    }
  ],
  "bytecode": "0x60806040523462000721576200667e803803806200001d8162000726565b92833981019060e08183031262000721578051916001600160a01b0383168303620007215760208201516001600160401b0381116200072157816200006491840162000771565b60408301519093906001600160401b0381116200072157826200008991850162000771565b60608401519094906001600160401b038111620007215783620000ae91860162000771565b60808501519095906001600160401b038111620007215784620000d391870162000771565b60a08601519094906001600160401b038111620007215760c091620000fa91880162000771565b9501519160ff8316830362000721578051906001600160401b038211620004055781906200012a600054620007c8565b601f8111620006be575b50602090601f8311600114620006425760009262000636575b50508160011b916000199060031b1c1916176000555b8051906001600160401b038211620004055762000182600154620007c8565b601f8111620005d0575b50602090601f83116001146200055c5760ff9392916000918362000550575b50508160011b916000199060031b1c1916176001555b600280549190921660ff19909116179055601280556001600160a01b03811660009081527f3d62299d961dc9bf64f24e2e5b7d5a2b17ee5fc8163a3ddca90e52de8744675560205260409020547f1cd6d520d98babae1045eb69c31ecab800996aa332094cb55c0ac10362e9b0c99060ff1615620004ef575b505082516001600160401b03811162000405576200025a601154620007c8565b601f811162000496575b506020601f82116001146200042757819293946000926200041b575b50508160011b916000199060031b1c1916176011555b604051906124ae80830191906001600160401b03831184841017620004055762004190843960808252600090601154620002d081620007c8565b90816080860152600181169081600014620003df575060011462000392575b50936200030a82859685620003199503602087015262000805565b90838203604085015262000805565b9060603091015203906000f080156200038657600880546001600160a01b0319166001600160a01b0390921691821790556040519081527f9ac4f8025631594629895b778dc5ee88d01673a254a2291f6b6b174ad25230ca90602090a160405161396390816200082d8239f35b6040513d6000823e3d90fd5b601160009081529192506000805160206200663e8339815191525b818310620003c7575050820160a001906200030a620002ef565b805460a08487010152602090920191600101620003ad565b60ff191660a08681019190915291151560051b850190910192506200030a9050620002ef565b634e487b7160e01b600052604160045260246000fd5b01519050388062000280565b601160005260206000209060005b601f19841681106200047d5750600193949583601f1981161062000463575b505050811b0160115562000296565b015160001960f88460031b161c1916905538808062000454565b9091602060018192858a01518155019301910162000435565b60116000526000805160206200663e833981519152601f830160051c81019160208410620004e4575b601f0160051c01905b818110620004d7575062000264565b60008155600101620004c8565b9091508190620004bf565b60008181526009602090815260408083206001600160a01b0395909516808452949091528120805460ff19166001179055339291907f2f8788117e7eff1d82e926ec794901d17c78024a50270940304540a733656f0d9080a438806200023a565b015190503880620001ab565b90600160005260206000209160005b601f1985168110620005b7575091839160019360ff9695601f198116106200059d575b505050811b01600155620001c1565b015160001960f88460031b161c191690553880806200058e565b919260206001819286850151815501940192016200056b565b60016000527fb10e2d527612073b26eecdfd717e6a320cf44b4afac2b0732d9fcbe2b7fa0cf6601f840160051c8101602085106200062e575b601f830160051c82018110620006215750506200018c565b6000815560010162000609565b508062000609565b0151905038806200014d565b600080805293506000805160206200665e83398151915291905b601f1984168510620006a2576001945083601f1981161062000688575b505050811b0160005562000163565b015160001960f88460031b161c1916905538808062000679565b818101518355602094850194600190930192909101906200065c565b600080529091506000805160206200665e833981519152601f840160051c8101916020851062000716575b90601f859493920160051c01905b81811062000706575062000134565b60008155849350600101620006f7565b9091508190620006e9565b600080fd5b6040519190601f01601f191682016001600160401b038111838210176200040557604052565b60005b838110620007605750506000910152565b81810151838201526020016200074f565b81601f82011215620007215780516001600160401b0381116200040557620007a3601f8201601f191660200162000726565b92818452602082840101116200072157620007c591602080850191016200074c565b90565b90600182811c92168015620007fa575b6020831014620007e457565b634e487b7160e01b600052602260045260246000fd5b91607f1691620007d8565b9060209162000820815180928185528580860191016200074c565b601f01601f191601019056fe6080604052600436101561001257600080fd5b60003560e01c806301c91ef5146119b857806301ffc9a71461196257806306fdde03146118bf578063081812fc146118a1578063095ea7b31461176657806309c3dd87146117215780630a884318146116a55780630f485c021461137e578063156e29f6146112fc57806318160ddd146112de57806323b872dd146112ba578063248a9ca31461128b578063263f3e7e1461126d5780632d2a2465146112305780632f2ff15d1461117d5780632f745c59146110d2578063310ed7f014610d5857806336568abe14610cc657806339ace21f14610c8e5780633e7e866914610c6d57806341ce4b3f14610c4f57806342842e0e14610c2c57806349e8629414610afd5780634f558e7914610ad55780634f6ccce714610a515780636352211e14610a2157806370a08231146109fe578063840f7113146109d55780638cb0a5111461092857806391d14854146108db5780639448bddb1461089b57806394b39b091461078057806395d89b41146106b55780639cc7f70814610697578063a217fddf1461067b578063a22cb465146105a6578063a7c9f2d61461056b578063b88d4fde14610511578063bc74ebb9146104cc578063c87b56dd14610431578063cd5a2c3914610405578063d547741f146103c4578063e345e0bc14610396578063e8a3d485146102dd578063e985e9c5146102845763ec327a211461021657600080fd5b3461027f57602036600319011261027f5760043561023b610236826130b9565b613074565b600052600b60205261027b61026061026760026040600020016040519283809261260b565b0382612063565b604051918291602083526020830190612117565b0390f35b600080fd5b3461027f57604036600319011261027f5761029d612001565b6102a5612017565b9060018060a01b03809116600052600760205260026040600020019116600052602052602060ff604060002054166040519015158152f35b3461027f57600036600319011261027f5760006040516102fc81612048565b526008546001600160a01b0316801561037d57600060049160405192838092631c97e82760e21b82525afa80156103715761027b9160009161034e575b50604051918291602083526020830190612117565b61036b91503d806000833e6103638183612063565b8101906127b4565b82610339565b6040513d6000823e3d90fd5b5061027b60405161038d81612048565b60008152610267565b3461027f57604036600319011261027f5760206103bc6103b4612017565b600435612812565b604051908152f35b3461027f57604036600319011261027f576104036004356103e3612017565b908060005260096020526103fe6001604060002001546121c9565b6124fe565b005b3461027f57602036600319011261027f57600435600052600e6020526020604060002054604051908152f35b3461027f57602036600319011261027f5760043561045661045182612ab6565b612706565b600060405161046481612048565b526008546001600160a01b03169081156104bb576000906024604051809481936344a5a61760e11b835260048301525afa80156103715761027b9160009161034e5750604051918291602083526020830190612117565b505061027b60405161038d81612048565b3461027f57602036600319011261027f576004356104ec610236826130b9565b600052600b60205261027b61026061026760036040600020016040519283809261260b565b608036600319011261027f57610525612001565b61052d612017565b606435916001600160401b03831161027f573660238401121561027f5761056161040393369060248160040135910161209f565b9160443591612923565b3461027f57600036600319011261027f5760206040517f1cd6d520d98babae1045eb69c31ecab800996aa332094cb55c0ac10362e9b0c98152f35b3461027f57604036600319011261027f576105bf612001565b6024359081151580920361027f576001600160a01b03169033821461063657336000526007602052600260406000200182600052602052604060002060ff1981541660ff83161790556040519081527f17307eab39ab6107e8899845ad3d59bd9653f200f220920489ca2b5937696c3160203392a3005b60405162461bcd60e51b815260206004820152601a60248201527f455243333532353a20617070726f766520746f2063616c6c65720000000000006044820152606490fd5b3461027f57600036600319011261027f57602060405160008152f35b3461027f57602036600319011261027f5760206103bc6004356126dc565b3461027f57600036600319011261027f57604051600060018054906106d9826125d1565b808552918181169081156107595750600114610700575b61027b8461026781860382612063565b600081815292507fb10e2d527612073b26eecdfd717e6a320cf44b4afac2b0732d9fcbe2b7fa0cf65b828410610741575050508101602001610267826106f0565b80546020858701810191909152909301928101610729565b60ff191660208087019190915292151560051b8501909201925061026791508390506106f0565b3461027f57606036600319011261027f57610799612001565b60443590602435600483101561027f57806000526020916010835260406000209060018060a01b0316600052825260ff60406000205416156108305780600052600b82526107ef60066040600020013390613034565b33600052600a8252604060002060ff199360ff858354169116179055600052600f815260406000209033600052526001604060002091825416179055600080f35b60405162461bcd60e51b815260048101839052603960248201527f436f6e74726163742061646d696e206973206e6f7420617574686f72697a656460448201527f20746f20726567697374657220746f207468697320736c6f74000000000000006064820152608490fd5b3461027f57602036600319011261027f576004356108bb61045182612ab6565b600052600c602052602060018060a01b0360406000205416604051908152f35b3461027f57604036600319011261027f576108f4612017565b600435600052600960205260406000209060018060a01b0316600052602052602060ff604060002054166040519015158152f35b6109313661216a565b9061093e61045184612ab6565b61095e6001600160a01b038061095386612752565b1690831614156129a3565b6109688333612a45565b15610976576104039261334b565b60405162461bcd60e51b815260206004820152603160248201527f455243333532353a20617070726f76652063616c6c6572206973206e6f74206f6044820152701ddb995c881b9bdc88185c1c1c9bdd9959607a1b6064820152608490fd5b3461027f57600036600319011261027f576008546040516001600160a01b039091168152602090f35b3461027f57602036600319011261027f5760206103bc610a1c612001565b612843565b3461027f57602036600319011261027f576020610a3f600435612752565b6040516001600160a01b039091168152f35b3461027f57602036600319011261027f57600435600554811015610a8457610a7a6020916126a1565b5054604051908152f35b60405162461bcd60e51b815260206004820152602360248201527f455243333532353a20676c6f62616c20696e646578206f7574206f6620626f756044820152626e647360e81b6064820152608490fd5b3461027f57602036600319011261027f576020610af36004356130b9565b6040519015158152f35b3461027f57604036600319011261027f57610b16612001565b602435908160005260209060108252604060002033600052825260ff6040600020541615610bd157604051637795524560e01b8152926001600160a01b039183908590600490829086165afa93841561037157600094610b99575b506000526010825260406000209216600052526040600020600160ff19825416179055600080f35b9093508281813d8311610bca575b610bb18183612063565b8101031261027f5751818116810361027f579284610b71565b503d610ba7565b60405162461bcd60e51b815260048101839052602d60248201527f53656e646572206e6f7420617574686f72697a656420746f20617070726f766560448201526c081bdb881d1a1a5cc81cdb1bdd609a1b6064820152608490fd5b610403610c3836612194565b9060405192610c4684612048565b60008452612923565b3461027f57602036600319011261027f576020610af3600435612ab6565b3461027f57600036600319011261027f57602060ff60025416604051908152f35b3461027f57602036600319011261027f57600435610cae61045182612ab6565b600052600d6020526020604060002054604051908152f35b3461027f57604036600319011261027f57610cdf612017565b336001600160a01b03821603610cfb57610403906004356124fe565b60405162461bcd60e51b815260206004820152602f60248201527f416363657373436f6e74726f6c3a2063616e206f6e6c792072656e6f756e636560448201526e103937b632b9903337b91039b2b63360891b6064820152608490fd5b606036600319011261027f5760246044358135600435610d7a61045182612ab6565b610d8661045183612ab6565b610d8f81612790565b610d9883612790565b0361107157336000526020600a815260ff6040600020541683600052600c825260018060a01b0360406000205416600052600a825260ff60406000205416600481101561105c57600482101561105c578103610fda578015610f645760018103610f485750610e06836126dc565b9482600052600d8252604060002054846000526040600020541415600014610f345760125495610e358761391f565b9661271088810298818a0403610f0a57610e4e8261391f565b8082029082820403610f1f57610e7e89610e79610e84938a600052600d8a5260406000205490612e5f565b612574565b9261391f565b80820291820403610f0a57610ebf91610eb284610e79610eb8948b600052600d8a5260406000205490612e5f565b9061259d565b918761259d565b918215610ef6575061040396600d92610ed9920490612e5f565b915b8460005252604060002055610ef18382336134c9565b613562565b634e487b7160e01b60009081526012600452fd5b83634e487b7160e01b60005260116004526000fd5b84634e487b7160e01b60005260116004526000fd5b506104039450600d60406000205491610edb565b91945050600214610f5557005b82610ef18361040395336134c9565b60a4826044886040519262461bcd60e51b845260048401528201527f536c6f7452656769737472793a204e6574776f726b2076616c7565207472616e60448201527f73666572206e6f7420616c6c6f77656420666f72207072696f7269747920746f6064820152636b656e7360e01b6084820152fd5b60405162461bcd60e51b815260048101839052604f818801527f536c6f7452656769737472793a2043616e6e6f74207472616e7366657220626560448201527f747765656e20746f6b656e7320686f6c64696e6720646966666572656e74207460648201526e3cb832b99037b31031b932b234ba1760891b608482015260a490fd5b86634e487b7160e01b60005260216004526000fd5b60405162461bcd60e51b8152602060048201526034818601527f536c6f7452656769737472793a207472616e7366657220746f20746f6b656e206044820152733bb4ba34103234b33332b932b73a1039b637ba1760611b6064820152608490fd5b3461027f57604036600319011261027f576110eb612001565b602435906110f881612843565b82101561112d5760209161111f9160018060a01b0316600052600783526040600020612a2d565b90546040519160031b1c8152f35b60405162461bcd60e51b815260206004820152602260248201527f455243333532353a206f776e657220696e646578206f7574206f6620626f756e604482015261647360f01b6064820152608490fd5b3461027f57604036600319011261027f57600435611199612017565b8160005260096020526111b36001604060002001546121c9565b81600052600960205260406000209060018060a01b0316908160005260205260ff60406000205416156111e257005b8160005260096020526040600020816000526020526040600020600160ff1982541617905533917f2f8788117e7eff1d82e926ec794901d17c78024a50270940304540a733656f0d600080a4005b3461027f5760206112576112433661213c565b929391600160035401809581600355613131565b81600052600e8352604060002055604051908152f35b3461027f57602036600319011261027f5760206103bc600435612790565b3461027f57602036600319011261027f5760043560005260096020526020600160406000200154604051908152f35b6104036112c636612194565b916112d96112d48433612a45565b6128bc565b612ae4565b3461027f57600036600319011261027f576020600554604051908152f35b3461027f57606036600319011261027f576020611317612001565b6113576024359182600052600f8452604060002033600052845261134260ff604060002054166130d7565b60016003540192836003558360443592613131565b80600052600c82526040600020336001600160601b0360a01b825416179055604051908152f35b6113873661216a565b611395610451849394612ab6565b6113a08183336134c9565b60016003540191826003556113b481612790565b6001600160a01b0394808616908115611656578515611607576113d686612ab6565b6115c257604051966113e788612048565b60008852604051976113f88961202d565b8789526020988981018681528a604083016000815260608401908882528c600660808701946000865260a08801988952600554926000525280604060002055600160401b8110156115965780600161145392016005556126a1565b9490946115ac576005955185555160018501555160028401558560038401915116906001600160601b0360a01b9182825416179055856004840192511690825416179055019051918251926001600160401b03841161159657908a83926114c1868d9a989c9b999796612e92565b01916000528a6000209060005b84811061157f57505050505083906114e9826103bc98612dc9565b60007fddf252ad1be2c89b69c2b068fc378daa952ba7f163c4a11628f55a4df523b3ef8180a46000837fe4f48c240d3b994948aa54f3e2f5fca59263dfe1d52b6e4cf39a5d249b5ccb658280a4816000526006865261154c6040600020546126a1565b50508160007f0b2aac84f3ec956911fd78eae5311062972ff949f38412e8da39069d9f068cc688604051838152a3613562565b83518216818401558b9850928c01926001016114ce565b634e487b7160e01b600052604160045260246000fd5b634e487b7160e01b600052600060045260246000fd5b60405162461bcd60e51b815260206004820152601d60248201527f455243333532353a20746f6b656e20616c7265616479206d696e7465640000006044820152606490fd5b60405162461bcd60e51b815260206004820152602160248201527f455243333532353a2063616e6e6f74206d696e74207a65726f20746f6b656e496044820152601960fa1b6064820152608490fd5b60405162461bcd60e51b815260206004820152602160248201527f455243333532353a206d696e7420746f20746865207a65726f206164647265736044820152607360f81b6064820152608490fd5b3461027f5760206116f06116b83661213c565b92939180600052600f865260406000203360005286526116df60ff604060002054166130d7565b600160035401809581600355613131565b81600052600c83526040600020336001600160601b0360a01b825416179055600d8352604060002055604051908152f35b3461027f57602036600319011261027f57600435611741610236826130b9565b600052600b60205261027b61026061026760046040600020016040519283809261260b565b604036600319011261027f5761177a612001565b602435906001600160a01b03808061179185612752565b169216916117a1818414156129a3565b803314908115611879575b501561180e5782600052600660205260046117cb6040600020546126a1565b500180546001600160a01b031916831790556117e683612752565b167f8c5be1e5ebec7d5bd14f71427d1e84f3dd0314c0f7b2291e5b200ac8c7c3b925600080a4005b60405162461bcd60e51b815260206004820152603960248201527f455243333532353a20617070726f76652063616c6c6572206973206e6f74206f60448201527f776e6572206e6f7220617070726f76656420666f7220616c6c000000000000006064820152608490fd5b9050600052600760205260026040600020013360005260205260ff60406000205416846117ac565b3461027f57602036600319011261027f576020610a3f6004356129fa565b3461027f57600036600319011261027f57604051600080546118e0816125d1565b8084529060019081811690811561075957506001146119095761027b8461026781860382612063565b600080805292507f290decd9548b62a8d60345a988386fc84ba6bc95484008f6362f93160ef3e5635b82841061194a575050508101602001610267826106f0565b80546020858701810191909152909301928101611932565b3461027f57602036600319011261027f5760043563ffffffff60e01b811680910361027f57602090637965db0b60e01b81149081156119a7575b506040519015158152f35b6301ffc9a760e01b1490508261199c565b3461027f5760c036600319011261027f576119d1612001565b6044356001600160401b03811161027f576119f09036906004016120d6565b6064356001600160401b03811161027f57611a0f9036906004016120d6565b6084356001600160401b03811161027f57611a2e9036906004016120d6565b9060a4359060ff821680920361027f573360009081527f3d62299d961dc9bf64f24e2e5b7d5a2b17ee5fc8163a3ddca90e52de87446755602052604090205460ff1615611fa85760009115611f9f575b60405192611a8b84612048565b600084526040519460e086018681106001600160401b038211176115965760409081526001600160a01b03881687526024356020880152860152606085015260808401526003811015611d715760a083015260c0820152602435600052600b60205260406000209060018060a01b038151166001600160601b0360a01b8354161782556020810151600183015560408101519283516001600160401b03811161159657611b3b60028501546125d1565b601f8111611f6a575b506020601f8211600114611efb578192939495600092611ef0575b50508160011b916000199060031b1c19161760028401555b60608201519283516001600160401b03811161159657611b9a60038301546125d1565b601f8111611ebb575b506020601f8211600114611e4c578192939495600092611e41575b50508160011b916000199060031b1c19161760038201555b60808301519283516001600160401b03811161159657611bf960048401546125d1565b601f8111611e01575b506020601f8211600114611d92578192939495600092611d87575b50508160011b916000199060031b1c19161760048301555b60a081015191600581016003841015611d715760c09160069160ff199560ff87835416911617905501910151908151916001600160401b03831161159657602090611c808484612e92565b0190600052602060002060005b838110611d545785856024356000526010602052604060002060018060a01b0383166000526020526001604060002091825416179055602435600052600b6020527f293112f57e1499e465d2297b938e4b29a3ab8fe5e214951585a56e3d43976716600160406000200154600260406000200190611d1d604051928392835260406020840152604083019061260b565b0390a1602435600052601060205260406000209060018060a01b0316600052602052602060ff604060002054166040519015158152f35b82516001600160a01b031681830155602090920191600101611c8d565b634e487b7160e01b600052602160045260246000fd5b015190508580611c1d565b6004840160005260206000209060005b601f1984168110611de9575060019394959683601f19811610611dd0575b505050811b016004830155611c35565b015160001960f88460031b161c19169055858080611dc0565b9091602060018192858b015181550193019101611da2565b611e3190600485016000526020600020601f840160051c81019160208510611e37575b601f0160051c0190612e7b565b85611c02565b9091508190611e24565b015190508580611bbe565b6003830160005260206000209060005b601f1984168110611ea3575060019394959683601f19811610611e8a575b505050811b016003820155611bd6565b015160001960f88460031b161c19169055858080611e7a565b9091602060018192858b015181550193019101611e5c565b611eea90600384016000526020600020601f840160051c81019160208510611e3757601f0160051c0190612e7b565b85611ba3565b015190508580611b5f565b6002850160005260206000209060005b601f1984168110611f52575060019394959683601f19811610611f39575b505050811b016002840155611b77565b015160001960f88460031b161c19169055858080611f29565b9091602060018192858b015181550193019101611f0b565b611f9990600286016000526020600020601f840160051c81019160208510611e3757601f0160051c0190612e7b565b85611b44565b60009150611a7e565b60405162461bcd60e51b815260206004820152602b60248201527f53656e646572206e6f7420617574686f72697a656420746f207265676973746560448201526a1c881d1a1a5cc81cdb1bdd60aa1b6064820152608490fd5b600435906001600160a01b038216820361027f57565b602435906001600160a01b038216820361027f57565b60c081019081106001600160401b0382111761159657604052565b602081019081106001600160401b0382111761159657604052565b90601f801991011681019081106001600160401b0382111761159657604052565b6001600160401b03811161159657601f01601f191660200190565b9291926120ab82612084565b916120b96040519384612063565b82948184528183011161027f578281602093846000960137010152565b9080601f8301121561027f578160206120f19335910161209f565b90565b60005b8381106121075750506000910152565b81810151838201526020016120f7565b90602091612130815180928185528580860191016120f4565b601f01601f1916010190565b608090600319011261027f576004356001600160a01b038116810361027f5790602435906044359060643590565b606090600319011261027f57600435906024356001600160a01b038116810361027f579060443590565b606090600319011261027f576001600160a01b0390600435828116810361027f5791602435908116810361027f579060443590565b60009080825260209060098252604092838120338252835260ff8482205416156121f35750505050565b8351916001600160401b03903360608501838111868210176124ea578752602a855285850191873684378551156124d657603083538551916001928310156124c2576078602188015360295b83811161245857506124165790875193608085019085821090821117612402578852604284528684019460603687378451156123ee576030865384518210156123ee5790607860218601536041915b8183116123805750505061233e5761233a93869361231e9361230f6048946122e69a519a8b957f416363657373436f6e74726f6c3a206163636f756e74200000000000000000008c88015251809260378801906120f4565b8401917001034b99036b4b9b9b4b733903937b6329607d1b6037840152518093868401906120f4565b01036028810187520185612063565b5192839262461bcd60e51b845260048401526024830190612117565b0390fd5b60648587519062461bcd60e51b825280600483015260248201527f537472696e67733a20686578206c656e67746820696e73756666696369656e746044820152fd5b909192600f811660108110156123da576f181899199a1a9b1b9c1cb0b131b232b360811b901a6123b085886125aa565b5360041c9280156123c65760001901919061228e565b634e487b7160e01b82526011600452602482fd5b634e487b7160e01b83526032600452602483fd5b634e487b7160e01b81526032600452602490fd5b634e487b7160e01b86526041600452602486fd5b60648789519062461bcd60e51b825280600483015260248201527f537472696e67733a20686578206c656e67746820696e73756666696369656e746044820152fd5b90600f811660108110156124ae576f181899199a1a9b1b9c1cb0b131b232b360811b901a612486838a6125aa565b5360041c90801561249a576000190161223f565b634e487b7160e01b87526011600452602487fd5b634e487b7160e01b88526032600452602488fd5b634e487b7160e01b86526032600452602486fd5b634e487b7160e01b85526032600452602485fd5b634e487b7160e01b85526041600452602485fd5b906000918083526009602052604083209160018060a01b03169182845260205260ff60408420541661252f57505050565b8083526009602052604083208284526020526040832060ff1981541690557ff6391f5c32d9c69d2a47ea670b442974b53935d1edc7fd64eb21e047a839171b339380a4565b8181029291811591840414171561258757565b634e487b7160e01b600052601160045260246000fd5b9190820180921161258757565b9081518110156125bb570160200190565b634e487b7160e01b600052603260045260246000fd5b90600182811c92168015612601575b60208310146125eb57565b634e487b7160e01b600052602260045260246000fd5b91607f16916125e0565b906000929180549161261c836125d1565b91828252600193848116908160001461267e575060011461263e575b50505050565b90919394506000526020928360002092846000945b83861061266a575050505001019038808080612638565b805485870183015294019385908201612653565b9294505050602093945060ff191683830152151560051b01019038808080612638565b6005548110156125bb576006906005600052027f036b6384b5eca791c62761152d0c79bb0604c104a5fb6f4eb0703f3154bb3db00190600090565b6126e861045182612ab6565b600052600660205260026127006040600020546126a1565b50015490565b1561270d57565b60405162461bcd60e51b815260206004820152601960248201527f455243333532353a20696e76616c696420746f6b656e204944000000000000006044820152606490fd5b61275e61045182612ab6565b60005260066020526127746040600020546126a1565b50600301546001600160a01b03169061278e821515612706565b565b61279c61045182612ab6565b600052600660205260016127006040600020546126a1565b60208183031261027f578051906001600160401b03821161027f570181601f8201121561027f5780516127e681612084565b926127f46040519485612063565b8184526020828401011161027f576120f191602080850191016120f4565b61281e61045182612ab6565b600052600460205260406000209060018060a01b031660005260205260406000205490565b6001600160a01b0316801561286357600052600760205260406000205490565b60405162461bcd60e51b815260206004820152602b60248201527f455243333532353a2062616c616e636520717565727920666f7220746865207a60448201526a65726f206164647265737360a81b6064820152608490fd5b156128c357565b60405162461bcd60e51b815260206004820152603260248201527f455243333532353a207472616e736665722063616c6c6572206973206e6f74206044820152711bdddb995c881b9bdc88185c1c1c9bdd995960721b6064820152608490fd5b906129479392916129376112d48433612a45565b612942838383612ae4565b612ee6565b1561294e57565b60405162461bcd60e51b815260206004820152602760248201527f455243333532353a207472616e7366657220746f206e6f6e204552433732315260448201526632b1b2b4bb32b960c91b6064820152608490fd5b156129aa57565b60405162461bcd60e51b815260206004820152602260248201527f455243333532353a20617070726f76616c20746f2063757272656e74206f776e60448201526132b960f11b6064820152608490fd5b612a0661045182612ab6565b6000526006602052612a1c6040600020546126a1565b50600401546001600160a01b031690565b80548210156125bb5760005260206000200190600090565b906001600160a01b038080612a5984612752565b16931691838314938415612a8c575b508315612a76575b50505090565b612a82919293506129fa565b1614388080612a70565b909350600052600760205260026040600020018260005260205260ff604060002054169238612a68565b60055415159081612ac5575090565b8091506000526006602052612ade6040600020546126a1565b50541490565b612aed83612752565b6001600160a01b0391821691908116829003612d7857808316928315612d2557612b1685612790565b50612b20856126dc565b5060009185835260209060068252604090612b3d828620546126a1565b50600490810180546001600160a01b03199081169091559091898782612b6283612752565b167f8c5be1e5ebec7d5bd14f71427d1e84f3dd0314c0f7b2291e5b200ac8c7c3b9258280a4898752600685526005612b9c858920546126a1565b500180549091858988818f5b868410612cee5750505050505050805487825580612cd5575b5050888652600684526003612bd8848820546126a1565b5001908154169055858552600783528185209182549360001994858101908111612cc25790612c0988939286612a2d565b90549060031b1c9060018601908c85528181528385205492612c4a81612c2f868b612a2d565b90919082549060031b600019811b9283911b16911916179055565b855252818320558982528120558154908115612caf575092828892612cab947fddf252ad1be2c89b69c2b068fc378daa952ba7f163c4a11628f55a4df523b3ef97960191612c988383612a2d565b909182549160031b1b1916905555612dc9565b80a4565b634e487b7160e01b865260319052602485fd5b634e487b7160e01b885260118452602488fd5b612ce791885285882090810190612e7b565b3880612bc1565b612d1b9486928b612cff878c612a2d565b96905494835252209260031b1c168c5289528a88812055612e6c565b8690888b8f612ba8565b60405162461bcd60e51b815260206004820152602560248201527f455243333532353a207472616e7366657220746f20746865207a65726f206164604482015264647265737360d81b6064820152608490fd5b60405162461bcd60e51b8152602060048201526024808201527f455243333532353a207472616e736665722066726f6d20696e76616c6964206f6044820152633bb732b960e11b6064820152608490fd5b60009082825260066020526003612de360408420546126a1565b500180546001600160a01b0319166001600160a01b0390921691821790558082526007602081815260408085208054878752600191909101835281862055928452528120805491600160401b831015612e4b575081612c2f91600161278e9594018155612a2d565b634e487b7160e01b81526041600452602490fd5b9190820391821161258757565b60001981146125875760010190565b818110612e86575050565b60008155600101612e7b565b90600160401b811161159657815490808355818110612eb057505050565b61278e9260005260206000209182019101612e7b565b9081602091031261027f57516001600160e01b03198116810361027f5790565b92939290803b1561302b5793600091612f3d9560405180948193630a85bd0160e11b9788845233600485015260018060a01b0380921660248501526044840152608060648401528260209a8b976084830190612117565b0393165af160009181612ffc575b50612fed57833d15612fe5573d90612f6282612084565b91612f706040519384612063565b82523d60008284013e5b81519182612fe25760405162461bcd60e51b815260048101839052603260248201527f4552433732313a207472616e7366657220746f206e6f6e20455243373231526560448201527131b2b4bb32b91034b6b83632b6b2b73a32b960711b6064820152608490fd5b01fd5b606090612f7a565b6001600160e01b031916149150565b61301d919250853d8711613024575b6130158183612063565b810190612ec6565b9038612f4b565b503d61300b565b50600193505050565b8054600160401b8110156115965761305191600182018155612a2d565b819291549060031b9160018060a01b039283811b93849216901b16911916179055565b1561307b57565b60405162461bcd60e51b815260206004820152601660248201527514db1bdd081a5cc81b9bdd081c9959da5cdd195c995960521b6044820152606490fd5b600052600b6020526130d26002604060002001546125d1565b151590565b156130de57565b60405162461bcd60e51b815260206004820152602560248201527f53656e646572206e6f7420617574686f72697a656420746f206d696e7420746f604482015264081cdb1bdd60da1b6064820152608490fd5b6001600160a01b038082169594929390929086156116565784156116075761315885612ab6565b6115c25760409081519361316b85612048565b60009586865283519061317d8261202d565b88825260209682898d8c8b8097018981528a850191848352606086019384528b608087019580875260a0880198895260066005549b8c948352522055600160401b881015613337576131d66001988981016005556126a1565b95909561332357906005959493929151855551888501555160028401558560038401915116906001600160601b0360a01b9182825416179055856004840192511690825416179055019051918251926001600160401b03841161330f57899061323f8585612e92565b01918a52888a20908a5b8481106132fc5750505050505095809798613286827f0b2aac84f3ec956911fd78eae5311062972ff949f38412e8da39069d9f068cc69899612dc9565b877fddf252ad1be2c89b69c2b068fc378daa952ba7f163c4a11628f55a4df523b3ef8180a485877fe4f48c240d3b994948aa54f3e2f5fca59263dfe1d52b6e4cf39a5d249b5ccb658280a48585526006835260026132e6828720546126a1565b50016132f383825461259d565b905551908152a3565b8351821683820155928a01928501613249565b634e487b7160e01b8b52604160045260248bfd5b634e487b7160e01b8f5260048f905260248ffd5b634e487b7160e01b8e52604160045260248efd5b6001600160a01b03821692909183156133e0577f621b050de0ad08b51d19b48b3e6df75348c4de6bdd93e81b252ca62e28265b1b918161338d85602094613438565b156133b7575b508360005260048252604060002085600052825280604060002055604051908152a3565b6133da90856000526006845260056133d36040600020546126a1565b5001613034565b38613393565b60405162461bcd60e51b815260206004820152602a60248201527f455243333532353a20617070726f76652076616c756520746f20746865207a65604482015269726f206164647265737360b01b6064820152608490fd5b6000908282526006602090808252604090613455828620546126a1565b509260058094015496865b8881106134735750505050505050905090565b818852838352613491818761348a888c20546126a1565b5001612a2d565b905460039190911b1c6001600160a01b03908116908816146134bb576134b690612e6c565b613460565b505050505050505050600190565b6134d38183612812565b6134dd8383612a45565b1580613556575b6134ee5750505050565b838110613511576135089361350291612e5f565b9161334b565b38808080612638565b60405162461bcd60e51b815260206004820152601f60248201527f455243333532353a20696e73756666696369656e7420616c6c6f77616e6365006044820152606490fd5b506000198114156134e4565b61356b81612ab6565b156137985761357982612ab6565b1561374557806000526020926006845260409261359984600020546126a1565b5081600052600686526135af85600020546126a1565b509060028101908154908582106136ee576001015460018401540361369357916002916135e28661363198979695612e5f565b9055016135f083825461259d565b905580837f0b2aac84f3ec956911fd78eae5311062972ff949f38412e8da39069d9f068cc6888851868152a384519261362884612048565b600084526137ed565b1561363a575050565b60849250519062461bcd60e51b82526004820152602d60248201527f455243333532353a207472616e736665722072656a656374656420627920455260448201526c21999a991aa932b1b2b4bb32b960991b6064820152fd5b865162461bcd60e51b815260048101899052602e60248201527f455243333532353a207472616e7366657220746f20746f6b656e20776974682060448201526d191a5999995c995b9d081cdb1bdd60921b6064820152608490fd5b875162461bcd60e51b8152600481018a9052602a60248201527f455243333532353a20696e73756666696369656e742062616c616e636520666f60448201526939103a3930b739b332b960b11b6064820152608490fd5b60405162461bcd60e51b815260206004820152602560248201527f455243333532353a207472616e7366657220746f20696e76616c696420746f6b604482015264195b88125160da1b6064820152608490fd5b60405162461bcd60e51b815260206004820152602760248201527f455243333532353a207472616e736665722066726f6d20696e76616c696420746044820152661bdad95b88125160ca1b6064820152608490fd5b926137f782612752565b803b15158061389d575b156138935761384a93600060209460405196879586948593629ce20b60e01b9b8c865233600487015260248601526044850152606484015260a0608484015260a4830190612117565b03926001600160a01b03165af190811561037157600091613875575b506001600160e01b0319161490565b61388d915060203d8111613024576130158183612063565b38613866565b5050505050600190565b506040516301ffc9a760e01b8152629ce20b60e01b60048201526020816024816001600160a01b0386165afa908115610371576000916138de575b50613801565b6020813d8211613917575b816138f660209383612063565b8101031261391357519081151582036139105750386138d8565b80fd5b5080fd5b3d91506138e9565b604d811161258757600a0a9056fea26469706673582212200b18ad899abe50e12b3bad754dbe86e7fe51930d631b31c850605ae7c81bc19f64736f6c634300081100336080604052346200048657620024ae803803806200001d816200048b565b9283398101608082820312620004865781516001600160401b0391908281116200048657816200004f918501620004b1565b91602092838501518281116200048657836200006d918701620004b1565b92604086015183811162000486576060916200008b918801620004b1565b9501516001600160a01b03811695908690036200048657815193838511620002c3576001948554938685811c951680156200047b575b88861014620002a2578190601f9586811162000425575b508890868311600114620003bd57600092620003b1575b5050600019600383901b1c191690861b1785555b805190848211620002c357600254908682811c92168015620003a6575b88831014620002a25781858493116200034f575b508790858311600114620002e557600092620002d9575b5050600019600383901b1c191690851b176002555b8051928311620002c35760039485548581811c91168015620002b8575b82821014620002a25783811162000257575b5080928411600114620001ed5750928293918392600094620001e1575b50501b9160001990841b1c19161790555b600080546001600160a01b031916919091179055604051611f8a9081620005248239f35b015192503880620001ac565b919083601f1981168760005284600020946000905b888383106200023c575050501062000223575b505050811b019055620001bd565b015160001983861b60f8161c1916905538808062000215565b85870151885590960195948501948793509081019062000202565b86600052816000208480870160051c82019284881062000298575b0160051c019086905b8281106200028b5750506200018f565b600081550186906200027b565b9250819262000272565b634e487b7160e01b600052602260045260246000fd5b90607f16906200017d565b634e487b7160e01b600052604160045260246000fd5b0151905038806200014b565b90879350601f198316916002600052896000209260005b8b8282106200033857505084116200031e575b505050811b0160025562000160565b015160001960f88460031b161c191690553880806200030f565b8385015186558b97909501949384019301620002fc565b9091506002600052876000208580850160051c8201928a86106200039c575b918991869594930160051c01915b8281106200038c57505062000134565b600081558594508991016200037c565b925081926200036e565b91607f169162000120565b015190503880620000ef565b90889350601f19831691846000528a6000209260005b8c8282106200040e5750508411620003f4575b505050811b01855562000103565b015160001960f88460031b161c19169055388080620003e6565b8385015186558c97909501949384019301620003d3565b90915087600052886000208680850160051c8201928b861062000471575b918a91869594930160051c01915b82811062000461575050620000d8565b600081558594508a910162000451565b9250819262000443565b94607f1694620000c1565b600080fd5b6040519190601f01601f191682016001600160401b03811183821017620002c357604052565b919080601f84011215620004865782516001600160401b038111620002c357602090620004e7601f8201601f191683016200048b565b92818452828287010111620004865760005b8181106200050f57508260009394955001015290565b8581018301518482018401528201620004f956fe608060408181526004908136101561001657600080fd5b600092833560e01c9081631375d843146114a057508063246a908b146113a257806331264fc11461119057806355f804b31461104c57806364140ec014610f4d5780636c0360eb14610e8e5780636c037f8a14610b7257806371f0442e14610ade578063725fa09c14610866578063842251d41461072e578063894b4c2e146104025780639cdeaae0146101805763b3154c08146100b357600080fd5b3461017c57602091826003193601126101785780358452825280832091815192848154906100e082611a7d565b808752926001928084169081156101545750600114610119575b610115878761010b828c03836115b6565b5191829182611558565b0390f35b9080949750528583205b82841061014157505050826101159461010b928201019438806100fa565b8054868501880152928601928101610123565b60ff19168887015250505050151560051b830101925061010b8261011538806100fa565b8380fd5b8280fd5b50913461039057826003193601126103905781359161019e836119cd565b928083526020918083528584209386519481868254916101bd83611a7d565b92838352888301946001918a83821691826000146103e25750506001146103a5575b50506101ed925003876115b6565b6101f684611de4565b9161020260243561188a565b895163131f9f3f60e11b8152948501869052938681602481335afa91821561039a578092610365575b61011561027f8c61010b606c8e8e8e61034c8f8f8f8f8f61024e6102549161188a565b94611e7e565b966102a960298d519e8f809c683d913730b6b2911d1160b91b8c8301528b8151948593019101611535565b8a0191701116113232b9b1b934b83a34b7b7111d1160791b6029840152518093603a840190611535565b016a11161134b6b0b3b2911d1160a91b603a8201526102d18251809388604585019101611535565b016c1116113130b630b731b2911d1160991b60458201526102fb8251809387605285019101611535565b016911161139b637ba111d1160b11b60528201526103228251809386605c85019101611535565b01916e111611383937b832b93a34b2b9911d60891b605c8401528351938491606b85019101611535565b01607d60f81b606b82015203604c8101855201836115b6565b9091508682813d8311610393575b61037d81836115b6565b810103126103905750518461027f61022b565b80fd5b503d610373565b8a51903d90823e3d90fd5b89925086528186209086915b8583106103c95750506101ed935082010138806101df565b81948484839695965492010152019101899289926103b1565b92509350506101ed94915060ff19168552151560051b82010138806101df565b50913461039057602091826003193601126106bd57803591610423836119cd565b83825282855285822090865190838284549161043e83611a7d565b928383528a8301966001918c838216918260001461070e5750506001146106d2575b505061046e925003836115b6565b61047786611de4565b938851631398fee160e31b815287878201528881602481335afa80156106c8578290610695575b6104a8915061188a565b895163131f9f3f60e11b8152968701889052958881602481335afa91821561039a578092610664575b5050606c888a6101159b9961010b99603d996106549d9961061b9961055861052e9a6105086105026106169c61188a565b97611e7e565b97519b8c99683d913730b6b2911d1160b91b818c0152825192839160298d019101611535565b880191701116113232b9b1b934b83a34b7b7111d1160791b6029840152518093603a840190611535565b016a11161134b6b0b3b2911d1160a91b603a820152610580825180938d604585019101611535565b016c1116113130b630b731b2911d1160991b60458201526105aa825180938c605285019101611535565b016911161139b637ba111d1160b11b60528201526105d1825180938b605c85019101611535565b016e111611383937b832b93a34b2b9911d60891b605c8201526105fd825180938a606b85019101611535565b01607d60f81b606b82015203604c8101845201826115b6565b61171d565b845195827f646174613a6170706c69636174696f6e2f6a736f6e3b6261736536342c000000889485015282519283918686019101611535565b810103601d8101855201836115b6565b9091508882813d831161068e575b61067c81836115b6565b81010312610390575051606c886104d1565b503d610672565b508881813d83116106c1575b6106ab81836115b6565b810103126106bd576104a8905161049e565b5080fd5b503d6106a1565b8a513d84823e3d90fd5b8b925088528188209088915b8583106106f657505061046e93508201013880610460565b80548389018501528794508c939092019181016106de565b925093505061046e94915060ff19168752151560051b8201013880610460565b508290346106bd5761073f36611640565b939083526020916006835283209184519167ffffffffffffffff8311610853575061076a8354611a7d565b601f8111610810575b5080601f83116001146107ae57508394829394926107a3575b50508160011b916000199060031b1c191617905580f35b01519050848061078c565b90601f198316958486528286209286905b8882106107f8575050836001959697106107df575b505050811b01905580f35b015160001960f88460031b161c191690558480806107d4565b806001859682949686015181550195019301906107bf565b838552818520601f840160051c810191838510610849575b601f0160051c01905b81811061083e5750610773565b858155600101610831565b9091508190610828565b634e487b7160e01b855260419052602484fd5b50903461017c578260031936011261017c5781516306fdde0360e01b81529083828281335afa918215610ad1578492610aad575b5082519084600254906108ac82611a7d565b808552846020988992838301956001908181169081600014610a8e5750600114610a32575b50506108df925003856115b6565b6108e7611bb6565b928787518092633e7e866960e01b825281335afa918215610a2757605a610654989761010b97603d976101159c9761093360ff61061b996109889961061699916109fa575b501661188a565b928c51978895683d913730b6b2911d1160b91b8c88015261095e8c825192839160298b019101611535565b860191701116113232b9b1b934b83a34b7b7111d1160791b6029840152518093603a840190611535565b016a11161134b6b0b3b2911d1160a91b603a8201526109b0825180938b604585019101611535565b01721116113b30b63ab2a232b1b4b6b0b639911d1160691b60458201526109e0825180938a605885019101611535565b0161227d60f01b605882015203603a8101845201826115b6565b610a1a91508c8d3d10610a20575b610a1281836115b6565b8101906116d2565b3861092c565b503d610a08565b8751903d90823e3d90fd5b600286527f405787fa12a823e0f2b7631cc41b3ba8828b3321ca811111fa75cd3aa3bb5ace9492508591905b818310610a7657508b9450508201016108df386108d1565b85548a84018501529485019489945091830191610a5e565b9150506108df94925060ff19168652151560051b8201018992386108d1565b610aca9192503d8086833e610ac281836115b6565b810190611673565b903861089a565b50505051903d90823e3d90fd5b503461017c576020918260031936011261017857358352600582528083209181519284815490610b0d82611a7d565b808752926001928084169081156101545750600114610b3757610115878761010b828c03836115b6565b9080949750528583205b828410610b5f57505050826101159461010b928201019438806100fa565b8054868501880152928601928101610b41565b50903461017c5760209283600319360112610390578054835163ec327a2160e01b815283358185018190529092916001600160a01b0316908284602481855afa938415610e84578394610e68575b50855163bc74ebb960e01b8152858101829052948386602481865afa958615610e5e578496610e42575b5086516309c3dd8760e01b80825282820184905290938585602481845afa948515610e3857918a9594939187938496610e17575b5090602491610c5e60268d518a652f696d61676560d01b81610c4a849e85019d8e815193849201611535565b83019182015203600681018b5201896115b6565b8b51958694859384528301525afa938415610a27578094610dfa575b50508551918288808201868197519283910191610c9692611535565b81018981016f17b83937b832b93a34b2b9973539b7b760811b905203601081018452603001610cc590846115b6565b8651958695683d913730b6b2911d1160b91b8a880152805190818b60298a01920191610cf092611535565b8601701116113232b9b1b934b83a34b7b7111d1160791b6029820152815191828b603a8401920191610d2192611535565b01906a11161134b6b0b3b2911d1160a91b603a83015251918260458301610d4792611535565b01906e111611383937b832b93a34b2b9911d60891b604583015251918260548301610d7192611535565b0160548101607d60f81b905203603581018252605501610d9190826115b6565b610d9a9061171d565b81517f646174613a6170706c69636174696f6e2f6a736f6e3b6261736536342c00000084820152815190938492610dd8918391603d86019101611535565b810103601d81018352603d01610dee90836115b6565b51610115819282611558565b610e0f9294503d8091833e610ac281836115b6565b913880610c7a565b602492919650610e30903d8087833e610ac281836115b6565b959091610c1e565b89513d88823e3d90fd5b610e579196503d8086833e610ac281836115b6565b9438610bea565b87513d86823e3d90fd5b610e7d9194503d8085833e610ac281836115b6565b9238610bc0565b86513d85823e3d90fd5b8382346106bd57816003193601126106bd57805190826001805491610eb283611a7d565b80865292828116908115610f255750600114610edb575b50505061010b826101159403836115b6565b9450808552600080516020611f358339815191525b828610610f0d5750505061010b8260206101159582010194610ec9565b80546020878701810191909152909501948101610ef0565b61011597508693506020925061010b94915060ff191682840152151560051b82010194610ec9565b508290346106bd57610f5e36611640565b939083526020916005835283209184519167ffffffffffffffff83116108535750610f898354611a7d565b601f8111611009575b5080601f8311600114610fc157508394829394926107a35750508160011b916000199060031b1c191617905580f35b90601f198316958486528286209286905b888210610ff1575050836001959697106107df57505050811b01905580f35b80600185968294968601518155019501930190610fd2565b838552818520601f840160051c810191838510611042575b601f0160051c01905b8181106110375750610f92565b85815560010161102a565b9091508190611021565b828434610390576020806003193601126106bd5767ffffffffffffffff83358181116101785761107f90369086016115f4565b93845191821161117d57506001916110978354611a7d565b601f811161112b575b5080601f83116001146110da57508394829394926110cf575b5050600019600383901b1c191690821b17905580f35b0151905084806110b9565b838552601f19831695600080516020611f35833981519152929186905b88821061111457505083859697106107df57505050811b01905580f35b8087859682949686015181550195019301906110f7565b838552600080516020611f35833981519152601f840160051c810191838510611173575b601f0160051c019084905b8281106111685750506110a0565b86815501849061115a565b909150819061114f565b634e487b7160e01b845260419052602483fd5b50903461017c578260031936011261017c5781516306fdde0360e01b81529083828281335afa918215610ad1578492611386575b5082519084906002546111d681611a7d565b808552846020948582019360019087828216918260001461136857505060011461130e575b50611208925003856115b6565b611210611bb6565b918387518092633e7e866960e01b825281335afa9081156113045761127d97969361010b969361125360ff605a98956112d3956101159e916112ed57501661188a565b9489519a8b97683d913730b6b2911d1160b91b878a015261052e815180928960298d019101611535565b016a11161134b6b0b3b2911d1160a91b603a8201526112a58251809386604585019101611535565b0191721116113b30b63ab2a232b1b4b6b0b639911d1160691b60458401528351938491605885019101611535565b0161227d60f01b605882015203603a8101855201836115b6565b610a1a9150873d8911610a2057610a1281836115b6565b87513d8a823e3d90fd5b60028b528691508a907f405787fa12a823e0f2b7631cc41b3ba8828b3321ca811111fa75cd3aa3bb5ace5b8583106113505750506112089350820101386111fb565b8054838b018501528994508893909201918101611339565b60ff1916875261120895151560051b85010192503891506111fb9050565b61139b9192503d8086833e610ac281836115b6565b90386111c4565b508290346106bd576113b336611640565b9390835260209181835283209184519167ffffffffffffffff831161085357506113dd8354611a7d565b601f811161145d575b5080601f831160011461141557508394829394926107a35750508160011b916000199060031b1c191617905580f35b90601f198316958486528286209286905b888210611445575050836001959697106107df57505050811b01905580f35b80600185968294968601518155019501930190611426565b838552818520601f840160051c810191838510611496575b601f0160051c01905b81811061148b57506113e6565b85815560010161147e565b9091508190611475565b92905034610178576020908160031936011261153157358452600681528184208054856114cc82611a7d565b8087529260019280841690811561015457506001146114f657610115878761010b828c03836115b6565b9080949750528583205b82841061151e57505050826101159461010b928201019438806100fa565b8054868501880152928601928101611500565b8480fd5b60005b8381106115485750506000910152565b8181015183820152602001611538565b604091602082526115788151809281602086015260208686019101611535565b601f01601f1916010190565b6060810190811067ffffffffffffffff8211176115a057604052565b634e487b7160e01b600052604160045260246000fd5b90601f8019910116810190811067ffffffffffffffff8211176115a057604052565b67ffffffffffffffff81116115a057601f01601f191660200190565b81601f8201121561163b5780359061160b826115d8565b9261161960405194856115b6565b8284526020838301011161163b57816000926020809301838601378301015290565b600080fd5b90604060031983011261163b57600435916024359067ffffffffffffffff821161163b57611670916004016115f4565b90565b60208183031261163b5780519067ffffffffffffffff821161163b570181601f8201121561163b5780516116a6816115d8565b926116b460405194856115b6565b8184526020828401011161163b576116709160208085019101611535565b9081602091031261163b575160ff8116810361163b5790565b906116f5826115d8565b61170260405191826115b6565b8281528092611713601f19916115d8565b0190602036910137565b8051156118655760405161173081611584565b604081527f4142434445464748494a4b4c4d4e4f505152535455565758595a61626364656660208201527f6768696a6b6c6d6e6f707172737475767778797a303132333435363738392b2f6040820152815160029283820180921161184f576003918290046001600160fe1b038116810361184f576117b2908594951b6116eb565b936020850193829183518401925b8381106117fe57505050505106806001146117eb576002146117e0575090565b603d90600019015390565b50603d9081600019820153600119015390565b85600491979293949701918251600190603f9082828260121c16880101518453828282600c1c16880101518385015382828260061c16880101518885015316850101518782015301959291906117c0565b634e487b7160e01b600052601160045260246000fd5b506040516020810181811067ffffffffffffffff8211176115a0576040526000815290565b806000917a184f03e93ff9f4daa797ed6e38ed64bf6a1f010000000000000000808210156119bf575b506d04ee2d6d415b85acef8100000000808310156119b0575b50662386f26fc10000808310156119a1575b506305f5e10080831015611992575b5061271080831015611983575b506064821015611973575b600a80921015611969575b6001908160216119218287016116eb565b95860101905b611933575b5050505090565b600019019083906f181899199a1a9b1b9c1cb0b131b232b360811b8282061a83530491821561196457919082611927565b61192c565b9160010191611910565b9190606460029104910191611905565b600491939204910191386118fa565b600891939204910191386118ed565b601091939204910191386118de565b602091939204910191386118cc565b6040935081049150386118b3565b6040516306fdde0360e01b815290600082600481335afa918215611a7157600092611a4b575b506022611a026116709261188a565b926040519381611a1c869351809260208087019101611535565b820161202360f01b6020820152611a3c8251809360208785019101611535565b010360028101845201826115b6565b611a02611a6860229261167094953d8091833e610ac281836115b6565b939250506119f3565b6040513d6000823e3d90fd5b90600182811c92168015611aad575b6020831014611a9757565b634e487b7160e01b600052602260045260246000fd5b91607f1691611a8c565b90600091600190815491611aca83611a7d565b92818116908115611b205750600114611ae257505050565b809192939450600052600080516020611f35833981519152906000915b848310611b0d575050500190565b8181602092548587015201920191611aff565b60ff191683525050811515909102019150565b600092918154611b4281611a7d565b92600191808316908115611b9b5750600114611b5f575b50505050565b90919293945060005260209081600020906000915b858310611b8a5750505050019038808080611b59565b805485840152918301918101611b74565b60ff1916845250505081151590910201915038808080611b59565b611bbf33611cc1565b6040519081602091611bd2838301611ab7565b68636f6e74726163742f60b81b8152611bf48251809386600985019101611535565b01602f60f81b600982015260009060035493611c0f85611a7d565b94600190818116908115611c9e5750600114611c3c575b505050611670925003601f1981018352826115b6565b9091925060036000527fc2575a0e9e593c00f959f8c92f12db2869c3395a3b0502d05e2516446f71f85b906000915b868310611c87575050505061167092600a910101388080611c26565b8054838601600a0152879550918301918101611c6b565b915050600a935061167095915060ff191683830152801515020101388080611c26565b604051906001600160a01b0316611cd782611584565b602a82526020908183016040368237835115611dce57603090538251600190811015611dce57607860218501536029905b808211611d5c575050611d19575090565b6064906040519062461bcd60e51b825280600483015260248201527f537472696e67733a20686578206c656e67746820696e73756666696369656e746044820152fd5b9091600f81166010811015611db9578551841015611db9576f181899199a1a9b1b9c1cb0b131b232b360811b901a85840185015360041c918015611da4576000190190611d08565b60246000634e487b7160e01b81526011600452fd5b60246000634e487b7160e01b81526032600452fd5b634e487b7160e01b600052603260045260246000fd5b611670601191611df330611cc1565b906000526006602052611e70604060002060056020526001611e62604060002092604051978896611e2660208901611ab7565b692f636f6e74726163742f60b01b8152611e4a825180936020600a85019101611535565b01662f746f6b656e2f60c81b600a8201520190611b33565b602f60f81b81520190611b33565b03601f1981018352826115b6565b6116706011601092611e8f33611cc1565b906000526006602052611f0560406000206040519586936e7b70726f706572746965735f75726960881b6020860152611eca602f8601611ab7565b68636f6e74726163742f60b81b8152611eed825180936020600985019101611535565b01662f746f6b656e2f60c81b60098201520190611b33565b6f17b83937b832b93a34b2b9973539b7b760811b8152607d60f81b601082015203600e198101845201826115b656feb10e2d527612073b26eecdfd717e6a320cf44b4afac2b0732d9fcbe2b7fa0cf6a2646970667358221220858bb69ac04bb5074359a26628f245f76338de2d0cd50f6c125c5c3cffd0edf964736f6c6343000811003331ecc21a745e3968a04e9570e4425bc18fa8019c68028196b546d1669c200c68290decd9548b62a8d60345a988386fc84ba6bc95484008f6362f93160ef3e563",
  "linkReferences": {},
  "deployedLinkReferences": {}
}