{
  "_format": "hh-sol-artifact-1",
  "contractName": "SlotRegistry",
  "sourceName": "contracts/SlotRegistry.sol",
  "abi": [
    {
      "inputs": [
        {
          "internalType": "address",
          "name": "mktAdmin_",
          "type": "address"
        },
        {
          "internalType": "string",
          "name": "name_",
          "type": "string"
        },
        {
          "internalType": "string",
          "name": "symbol_",
          "type": "string"
        },
        {
          "internalType": "string",
          "name": "baseuri_",
          "type": "string"
        },
        {
          "internalType": "string",
          "name": "contractDescription_",
          "type": "string"
        },
        {
          "internalType": "string",
          "name": "contractImage_",
          "type": "string"
        },
        {
          "internalType": "uint8",
          "name": "decimals_",
          "type": "uint8"
        }
      ],
      "stateMutability": "nonpayable",
      "type": "constructor"
    },
    {
      "anonymous": false,
      "inputs": [
        {
          "indexed": true,
          "internalType": "address",
          "name": "_owner",
          "type": "address"
        },
        {
          "indexed": true,
          "internalType": "address",
          "name": "_approved",
          "type": "address"
        },
        {
          "indexed": true,
          "internalType": "uint256",
          "name": "_tokenId",
          "type": "uint256"
        }
      ],
      "name": "Approval",
      "type": "event"
    },
    {
      "anonymous": false,
      "inputs": [
        {
          "indexed": true,
          "internalType": "address",
          "name": "_owner",
          "type": "address"
        },
        {
          "indexed": true,
          "internalType": "address",
          "name": "_operator",
          "type": "address"
        },
        {
          "indexed": false,
          "internalType": "bool",
          "name": "_approved",
          "type": "bool"
        }
      ],
      "name": "ApprovalForAll",
      "type": "event"
    },
    {
      "anonymous": false,
      "inputs": [
        {
          "indexed": true,
          "internalType": "uint256",
          "name": "_tokenId",
          "type": "uint256"
        },
        {
          "indexed": true,
          "internalType": "address",
          "name": "_operator",
          "type": "address"
        },
        {
          "indexed": false,
          "internalType": "uint256",
          "name": "_value",
          "type": "uint256"
        }
      ],
      "name": "ApprovalValue",
      "type": "event"
    },
    {
      "anonymous": false,
      "inputs": [
        {
          "indexed": false,
          "internalType": "address",
          "name": "contractAddress",
          "type": "address"
        }
      ],
      "name": "MetadataDescriptor",
      "type": "event"
    },
    {
      "anonymous": false,
      "inputs": [
        {
          "indexed": false,
          "internalType": "uint256",
          "name": "slotId",
          "type": "uint256"
        },
        {
          "indexed": false,
          "internalType": "string",
          "name": "slotName",
          "type": "string"
        }
      ],
      "name": "NewSlot",
      "type": "event"
    },
    {
      "anonymous": false,
      "inputs": [
        {
          "indexed": true,
          "internalType": "bytes32",
          "name": "role",
          "type": "bytes32"
        },
        {
          "indexed": true,
          "internalType": "bytes32",
          "name": "previousAdminRole",
          "type": "bytes32"
        },
        {
          "indexed": true,
          "internalType": "bytes32",
          "name": "newAdminRole",
          "type": "bytes32"
        }
      ],
      "name": "RoleAdminChanged",
      "type": "event"
    },
    {
      "anonymous": false,
      "inputs": [
        {
          "indexed": true,
          "internalType": "bytes32",
          "name": "role",
          "type": "bytes32"
        },
        {
          "indexed": true,
          "internalType": "address",
          "name": "account",
          "type": "address"
        },
        {
          "indexed": true,
          "internalType": "address",
          "name": "sender",
          "type": "address"
        }
      ],
      "name": "RoleGranted",
      "type": "event"
    },
    {
      "anonymous": false,
      "inputs": [
        {
          "indexed": true,
          "internalType": "bytes32",
          "name": "role",
          "type": "bytes32"
        },
        {
          "indexed": true,
          "internalType": "address",
          "name": "account",
          "type": "address"
        },
        {
          "indexed": true,
          "internalType": "address",
          "name": "sender",
          "type": "address"
        }
      ],
      "name": "RoleRevoked",
      "type": "event"
    },
    {
      "anonymous": false,
      "inputs": [
        {
          "indexed": true,
          "internalType": "address",
          "name": "metadataDescriptor",
          "type": "address"
        }
      ],
      "name": "SetMetadataDescriptor",
      "type": "event"
    },
    {
      "anonymous": false,
      "inputs": [
        {
          "indexed": true,
          "internalType": "uint256",
          "name": "_tokenId",
          "type": "uint256"
        },
        {
          "indexed": true,
          "internalType": "uint256",
          "name": "_oldSlot",
          "type": "uint256"
        },
        {
          "indexed": true,
          "internalType": "uint256",
          "name": "_newSlot",
          "type": "uint256"
        }
      ],
      "name": "SlotChanged",
      "type": "event"
    },
    {
      "anonymous": false,
      "inputs": [
        {
          "indexed": true,
          "internalType": "address",
          "name": "_from",
          "type": "address"
        },
        {
          "indexed": true,
          "internalType": "address",
          "name": "_to",
          "type": "address"
        },
        {
          "indexed": true,
          "internalType": "uint256",
          "name": "_tokenId",
          "type": "uint256"
        }
      ],
      "name": "Transfer",
      "type": "event"
    },
    {
      "anonymous": false,
      "inputs": [
        {
          "indexed": true,
          "internalType": "uint256",
          "name": "_fromTokenId",
          "type": "uint256"
        },
        {
          "indexed": true,
          "internalType": "uint256",
          "name": "_toTokenId",
          "type": "uint256"
        },
        {
          "indexed": false,
          "internalType": "uint256",
          "name": "_value",
          "type": "uint256"
        }
      ],
      "name": "TransferValue",
      "type": "event"
    },
    {
      "inputs": [],
      "name": "DEFAULT_ADMIN_ROLE",
      "outputs": [
        {
          "internalType": "bytes32",
          "name": "",
          "type": "bytes32"
        }
      ],
      "stateMutability": "view",
      "type": "function"
    },
    {
      "inputs": [],
      "name": "MKT_ARBITRATOR_ROLE",
      "outputs": [
        {
          "internalType": "bytes32",
          "name": "",
          "type": "bytes32"
        }
      ],
      "stateMutability": "view",
      "type": "function"
    },
    {
      "inputs": [
        {
          "internalType": "uint256",
          "name": "tokenId_",
          "type": "uint256"
        },
        {
          "internalType": "address",
          "name": "operator_",
          "type": "address"
        }
      ],
      "name": "allowance",
      "outputs": [
        {
          "internalType": "uint256",
          "name": "",
          "type": "uint256"
        }
      ],
      "stateMutability": "view",
      "type": "function"
    },
    {
      "inputs": [
        {
          "internalType": "address",
          "name": "to_",
          "type": "address"
        },
        {
          "internalType": "uint256",
          "name": "tokenId_",
          "type": "uint256"
        }
      ],
      "name": "approve",
      "outputs": [],
      "stateMutability": "payable",
      "type": "function"
    },
    {
      "inputs": [
        {
          "internalType": "uint256",
          "name": "tokenId_",
          "type": "uint256"
        },
        {
          "internalType": "address",
          "name": "to_",
          "type": "address"
        },
        {
          "internalType": "uint256",
          "name": "value_",
          "type": "uint256"
        }
      ],
      "name": "approve",
      "outputs": [],
      "stateMutability": "payable",
      "type": "function"
    },
    {
      "inputs": [
        {
          "internalType": "address",
          "name": "contract_",
          "type": "address"
        },
        {
          "internalType": "uint256",
          "name": "slotId_",
          "type": "uint256"
        }
      ],
      "name": "approveContractForSlot",
      "outputs": [],
      "stateMutability": "nonpayable",
      "type": "function"
    },
    {
      "inputs": [
        {
          "internalType": "address",
          "name": "owner_",
          "type": "address"
        }
      ],
      "name": "balanceOf",
      "outputs": [
        {
          "internalType": "uint256",
          "name": "balance",
          "type": "uint256"
        }
      ],
      "stateMutability": "view",
      "type": "function"
    },
    {
      "inputs": [
        {
          "internalType": "uint256",
          "name": "tokenId_",
          "type": "uint256"
        }
      ],
      "name": "balanceOf",
      "outputs": [
        {
          "internalType": "uint256",
          "name": "",
          "type": "uint256"
        }
      ],
      "stateMutability": "view",
      "type": "function"
    },
    {
      "inputs": [
        {
          "internalType": "uint256",
          "name": "networkTokenId_",
          "type": "uint256"
        }
      ],
      "name": "contractOf",
      "outputs": [
        {
          "internalType": "address",
          "name": "",
          "type": "address"
        }
      ],
      "stateMutability": "view",
      "type": "function"
    },
    {
      "inputs": [],
      "name": "contractURI",
      "outputs": [
        {
          "internalType": "string",
          "name": "",
          "type": "string"
        }
      ],
      "stateMutability": "view",
      "type": "function"
    },
    {
      "inputs": [
        {
          "internalType": "uint256",
          "name": "slotId",
          "type": "uint256"
        }
      ],
      "name": "exists",
      "outputs": [
        {
          "internalType": "bool",
          "name": "",
          "type": "bool"
        }
      ],
      "stateMutability": "view",
      "type": "function"
    },
    {
      "inputs": [
        {
          "internalType": "uint256",
          "name": "tokenId_",
          "type": "uint256"
        }
      ],
      "name": "getApproved",
      "outputs": [
        {
          "internalType": "address",
          "name": "",
          "type": "address"
        }
      ],
      "stateMutability": "view",
      "type": "function"
    },
    {
      "inputs": [
        {
          "internalType": "bytes32",
          "name": "role",
          "type": "bytes32"
        }
      ],
      "name": "getRoleAdmin",
      "outputs": [
        {
          "internalType": "bytes32",
          "name": "",
          "type": "bytes32"
        }
      ],
      "stateMutability": "view",
      "type": "function"
    },
    {
      "inputs": [
        {
          "internalType": "bytes32",
          "name": "role",
          "type": "bytes32"
        },
        {
          "internalType": "address",
          "name": "account",
          "type": "address"
        }
      ],
      "name": "grantRole",
      "outputs": [],
      "stateMutability": "nonpayable",
      "type": "function"
    },
    {
      "inputs": [
        {
          "internalType": "bytes32",
          "name": "role",
          "type": "bytes32"
        },
        {
          "internalType": "address",
          "name": "account",
          "type": "address"
        }
      ],
      "name": "hasRole",
      "outputs": [
        {
          "internalType": "bool",
          "name": "",
          "type": "bool"
        }
      ],
      "stateMutability": "view",
      "type": "function"
    },
    {
      "inputs": [
        {
          "internalType": "address",
          "name": "owner_",
          "type": "address"
        },
        {
          "internalType": "address",
          "name": "operator_",
          "type": "address"
        }
      ],
      "name": "isApprovedForAll",
      "outputs": [
        {
          "internalType": "bool",
          "name": "",
          "type": "bool"
        }
      ],
      "stateMutability": "view",
      "type": "function"
    },
    {
      "inputs": [
        {
          "internalType": "uint256",
          "name": "tokenId_",
          "type": "uint256"
        }
      ],
      "name": "isNetworkToken",
      "outputs": [
        {
          "internalType": "bool",
          "name": "",
          "type": "bool"
        }
      ],
      "stateMutability": "view",
      "type": "function"
    },
    {
      "inputs": [
        {
          "internalType": "uint256",
          "name": "slotId_",
          "type": "uint256"
        },
        {
          "internalType": "address",
          "name": "adminAdress_",
          "type": "address"
        }
      ],
      "name": "isSlotAdmin",
      "outputs": [
        {
          "internalType": "bool",
          "name": "",
          "type": "bool"
        }
      ],
      "stateMutability": "view",
      "type": "function"
    },
    {
      "inputs": [
        {
          "internalType": "uint256",
          "name": "slot_",
          "type": "uint256"
        }
      ],
      "name": "joinSlot",
      "outputs": [],
      "stateMutability": "nonpayable",
      "type": "function"
    },
    {
      "inputs": [
        {
          "internalType": "uint256",
          "name": "slot_",
          "type": "uint256"
        },
        {
          "internalType": "address",
          "name": "invitee_",
          "type": "address"
        }
      ],
      "name": "joinSlot",
      "outputs": [],
      "stateMutability": "nonpayable",
      "type": "function"
    },
    {
      "inputs": [],
      "name": "metadataDescriptor",
      "outputs": [
        {
          "internalType": "contract IERC3525MetadataDescriptor",
          "name": "",
          "type": "address"
        }
      ],
      "stateMutability": "view",
      "type": "function"
    },
    {
      "inputs": [
        {
          "internalType": "address",
          "name": "owner_",
          "type": "address"
        },
        {
          "internalType": "uint256",
          "name": "slot_",
          "type": "uint256"
        },
        {
          "internalType": "uint256",
          "name": "value_",
          "type": "uint256"
        }
      ],
      "name": "mint",
      "outputs": [
        {
          "internalType": "uint256",
          "name": "",
          "type": "uint256"
        }
      ],
      "stateMutability": "nonpayable",
      "type": "function"
    },
    {
      "inputs": [
        {
          "internalType": "address",
          "name": "owner_",
          "type": "address"
        },
        {
          "internalType": "uint256",
          "name": "slot_",
          "type": "uint256"
        },
        {
          "internalType": "uint256",
          "name": "value_",
          "type": "uint256"
        },
        {
          "internalType": "uint256",
          "name": "adjDiscountBasisPts_",
          "type": "uint256"
        }
      ],
      "name": "mintWithDiscount",
      "outputs": [
        {
          "internalType": "uint256",
          "name": "",
          "type": "uint256"
        }
      ],
      "stateMutability": "nonpayable",
      "type": "function"
    },
    {
      "inputs": [
        {
          "internalType": "address",
          "name": "owner_",
          "type": "address"
        },
        {
          "internalType": "uint256",
          "name": "slot_",
          "type": "uint256"
        },
        {
          "internalType": "uint256",
          "name": "value_",
          "type": "uint256"
        },
        {
          "internalType": "uint256",
          "name": "adjTVRate_",
          "type": "uint256"
        }
      ],
      "name": "mintWithTVRate",
      "outputs": [
        {
          "internalType": "uint256",
          "name": "",
          "type": "uint256"
        }
      ],
      "stateMutability": "nonpayable",
      "type": "function"
    },
    {
      "inputs": [],
      "name": "name",
      "outputs": [
        {
          "internalType": "string",
          "name": "",
          "type": "string"
        }
      ],
      "stateMutability": "view",
      "type": "function"
    },
    {
      "inputs": [
        {
          "internalType": "uint256",
          "name": "tokenId_",
          "type": "uint256"
        }
      ],
      "name": "ownerOf",
      "outputs": [
        {
          "internalType": "address",
          "name": "owner_",
          "type": "address"
        }
      ],
      "stateMutability": "view",
      "type": "function"
    },
    {
      "inputs": [
        {
          "internalType": "address",
          "name": "adminAddress_",
          "type": "address"
        },
        {
          "internalType": "uint256",
          "name": "slot_",
          "type": "uint256"
        },
        {
          "internalType": "enum SlotRegistry.CreditType",
          "name": "type_",
          "type": "uint8"
        }
      ],
      "name": "registerContract",
      "outputs": [],
      "stateMutability": "nonpayable",
      "type": "function"
    },
    {
      "inputs": [
        {
          "internalType": "address",
          "name": "ctrctSvcAdminAdress_",
          "type": "address"
        },
        {
          "internalType": "uint256",
          "name": "slotId_",
          "type": "uint256"
        },
        {
          "internalType": "string",
          "name": "slotName_",
          "type": "string"
        },
        {
          "internalType": "string",
          "name": "slotURI_",
          "type": "string"
        },
        {
          "internalType": "string",
          "name": "description_",
          "type": "string"
        },
        {
          "internalType": "uint8",
          "name": "type_",
          "type": "uint8"
        },
        {
          "internalType": "bool",
          "name": "joinByInviteOnly_",
          "type": "bool"
        }
      ],
      "name": "registerSlot",
      "outputs": [
        {
          "internalType": "bool",
          "name": "",
          "type": "bool"
        }
      ],
      "stateMutability": "nonpayable",
      "type": "function"
    },
    {
      "inputs": [
        {
          "internalType": "bytes32",
          "name": "role",
          "type": "bytes32"
        },
        {
          "internalType": "address",
          "name": "account",
          "type": "address"
        }
      ],
      "name": "renounceRole",
      "outputs": [],
      "stateMutability": "nonpayable",
      "type": "function"
    },
    {
      "inputs": [
        {
          "internalType": "bytes32",
          "name": "role",
          "type": "bytes32"
        },
        {
          "internalType": "address",
          "name": "account",
          "type": "address"
        }
      ],
      "name": "revokeRole",
      "outputs": [],
      "stateMutability": "nonpayable",
      "type": "function"
    },
    {
      "inputs": [
        {
          "internalType": "address",
          "name": "from_",
          "type": "address"
        },
        {
          "internalType": "address",
          "name": "to_",
          "type": "address"
        },
        {
          "internalType": "uint256",
          "name": "tokenId_",
          "type": "uint256"
        }
      ],
      "name": "safeTransferFrom",
      "outputs": [],
      "stateMutability": "payable",
      "type": "function"
    },
    {
      "inputs": [
        {
          "internalType": "address",
          "name": "from_",
          "type": "address"
        },
        {
          "internalType": "address",
          "name": "to_",
          "type": "address"
        },
        {
          "internalType": "uint256",
          "name": "tokenId_",
          "type": "uint256"
        },
        {
          "internalType": "bytes",
          "name": "data_",
          "type": "bytes"
        }
      ],
      "name": "safeTransferFrom",
      "outputs": [],
      "stateMutability": "payable",
      "type": "function"
    },
    {
      "inputs": [
        {
          "internalType": "address",
          "name": "operator_",
          "type": "address"
        },
        {
          "internalType": "bool",
          "name": "approved_",
          "type": "bool"
        }
      ],
      "name": "setApprovalForAll",
      "outputs": [],
      "stateMutability": "nonpayable",
      "type": "function"
    },
    {
      "inputs": [
        {
          "internalType": "uint256",
          "name": "slotId_",
          "type": "uint256"
        }
      ],
      "name": "slotDescription",
      "outputs": [
        {
          "internalType": "string",
          "name": "",
          "type": "string"
        }
      ],
      "stateMutability": "view",
      "type": "function"
    },
    {
      "inputs": [
        {
          "internalType": "uint256",
          "name": "slot_",
          "type": "uint256"
        },
        {
          "internalType": "address",
          "name": "invitee_",
          "type": "address"
        }
      ],
      "name": "slotInvite",
      "outputs": [],
      "stateMutability": "nonpayable",
      "type": "function"
    },
    {
      "inputs": [
        {
          "internalType": "uint256",
          "name": "slotId_",
          "type": "uint256"
        }
      ],
      "name": "slotName",
      "outputs": [
        {
          "internalType": "string",
          "name": "",
          "type": "string"
        }
      ],
      "stateMutability": "view",
      "type": "function"
    },
    {
      "inputs": [
        {
          "internalType": "uint256",
          "name": "tokenId_",
          "type": "uint256"
        }
      ],
      "name": "slotOf",
      "outputs": [
        {
          "internalType": "uint256",
          "name": "",
          "type": "uint256"
        }
      ],
      "stateMutability": "view",
      "type": "function"
    },
    {
      "inputs": [
        {
          "internalType": "uint256",
          "name": "slotId_",
          "type": "uint256"
        }
      ],
      "name": "slotURI",
      "outputs": [
        {
          "internalType": "string",
          "name": "",
          "type": "string"
        }
      ],
      "stateMutability": "view",
      "type": "function"
    },
    {
      "inputs": [
        {
          "internalType": "bytes4",
          "name": "interfaceId",
          "type": "bytes4"
        }
      ],
      "name": "supportsInterface",
      "outputs": [
        {
          "internalType": "bool",
          "name": "",
          "type": "bool"
        }
      ],
      "stateMutability": "view",
      "type": "function"
    },
    {
      "inputs": [],
      "name": "symbol",
      "outputs": [
        {
          "internalType": "string",
          "name": "",
          "type": "string"
        }
      ],
      "stateMutability": "view",
      "type": "function"
    },
    {
      "inputs": [
        {
          "internalType": "uint256",
          "name": "toTokenId_",
          "type": "uint256"
        }
      ],
      "name": "timeValueRate",
      "outputs": [
        {
          "internalType": "uint256",
          "name": "",
          "type": "uint256"
        }
      ],
      "stateMutability": "view",
      "type": "function"
    },
    {
      "inputs": [
        {
          "internalType": "uint256",
          "name": "index_",
          "type": "uint256"
        }
      ],
      "name": "tokenByIndex",
      "outputs": [
        {
          "internalType": "uint256",
          "name": "",
          "type": "uint256"
        }
      ],
      "stateMutability": "view",
      "type": "function"
    },
    {
      "inputs": [
        {
          "internalType": "uint256",
          "name": "toTokenId_",
          "type": "uint256"
        }
      ],
      "name": "tokenDiscount",
      "outputs": [
        {
          "internalType": "uint256",
          "name": "",
          "type": "uint256"
        }
      ],
      "stateMutability": "view",
      "type": "function"
    },
    {
      "inputs": [
        {
          "internalType": "address",
          "name": "owner_",
          "type": "address"
        },
        {
          "internalType": "uint256",
          "name": "index_",
          "type": "uint256"
        }
      ],
      "name": "tokenOfOwnerByIndex",
      "outputs": [
        {
          "internalType": "uint256",
          "name": "",
          "type": "uint256"
        }
      ],
      "stateMutability": "view",
      "type": "function"
    },
    {
      "inputs": [
        {
          "internalType": "uint256",
          "name": "tokenId_",
          "type": "uint256"
        }
      ],
      "name": "tokenURI",
      "outputs": [
        {
          "internalType": "string",
          "name": "",
          "type": "string"
        }
      ],
      "stateMutability": "view",
      "type": "function"
    },
    {
      "inputs": [],
      "name": "totalSupply",
      "outputs": [
        {
          "internalType": "uint256",
          "name": "",
          "type": "uint256"
        }
      ],
      "stateMutability": "view",
      "type": "function"
    },
    {
      "inputs": [
        {
          "internalType": "uint256",
          "name": "fromTokenId_",
          "type": "uint256"
        },
        {
          "internalType": "address",
          "name": "to_",
          "type": "address"
        },
        {
          "internalType": "uint256",
          "name": "value_",
          "type": "uint256"
        }
      ],
      "name": "transferFrom",
      "outputs": [
        {
          "internalType": "uint256",
          "name": "",
          "type": "uint256"
        }
      ],
      "stateMutability": "payable",
      "type": "function"
    },
    {
      "inputs": [
        {
          "internalType": "address",
          "name": "from_",
          "type": "address"
        },
        {
          "internalType": "address",
          "name": "to_",
          "type": "address"
        },
        {
          "internalType": "uint256",
          "name": "tokenId_",
          "type": "uint256"
        }
      ],
      "name": "transferFrom",
      "outputs": [],
      "stateMutability": "payable",
      "type": "function"
    },
    {
      "inputs": [
        {
          "internalType": "uint256",
          "name": "fromTokenId_",
          "type": "uint256"
        },
        {
          "internalType": "uint256",
          "name": "toTokenId_",
          "type": "uint256"
        },
        {
          "internalType": "uint256",
          "name": "value_",
          "type": "uint256"
        }
      ],
      "name": "transferFrom",
      "outputs": [],
      "stateMutability": "payable",
      "type": "function"
    },
    {
      "inputs": [],
      "name": "valueDecimals",
      "outputs": [
        {
          "internalType": "uint8",
          "name": "",
          "type": "uint8"
        }
      ],
      "stateMutability": "view",
      "type": "function"
    }
  ],
  "bytecode": "0x608060405234620007225762006acd803803806200001d8162000727565b92833981019060e08183031262000722578051916001600160a01b0383168303620007225760208201516001600160401b0381116200072257816200006491840162000772565b60408301519093906001600160401b0381116200072257826200008991850162000772565b60608401519094906001600160401b038111620007225783620000ae91860162000772565b60808501519095906001600160401b038111620007225784620000d391870162000772565b60a08601519094906001600160401b038111620007225760c091620000fa91880162000772565b9501519160ff8316830362000722578051906001600160401b038211620004065781906200012a600054620007c9565b601f8111620006bf575b50602090601f8311600114620006435760009262000637575b50508160011b916000199060031b1c1916176000555b8051906001600160401b038211620004065762000182600154620007c9565b601f8111620005d1575b50602090601f83116001146200055d5760ff9392916000918362000551575b50508160011b916000199060031b1c1916176001555b600280549190921660ff1990911617905560126013556001600160a01b03811660009081527f3d62299d961dc9bf64f24e2e5b7d5a2b17ee5fc8163a3ddca90e52de8744675560205260409020547f1cd6d520d98babae1045eb69c31ecab800996aa332094cb55c0ac10362e9b0c99060ff1615620004f0575b505082516001600160401b03811162000406576200025b601254620007c9565b601f811162000497575b506020601f82116001146200042857819293946000926200041c575b50508160011b916000199060031b1c1916176012555b604051906124ae80830191906001600160401b038311848410176200040657620045df843960808252600090601254620002d181620007c9565b90816080860152600181169081600014620003e0575060011462000393575b50936200030b828596856200031a9503602087015262000806565b90838203604085015262000806565b9060603091015203906000f080156200038757600880546001600160a01b0319166001600160a01b0390921691821790556040519081527f9ac4f8025631594629895b778dc5ee88d01673a254a2291f6b6b174ad25230ca90602090a1604051613db190816200082e8239f35b6040513d6000823e3d90fd5b6012600090815291925060008051602062006a8d8339815191525b818310620003c8575050820160a001906200030b620002f0565b805460a08487010152602090920191600101620003ae565b60ff191660a08681019190915291151560051b850190910192506200030b9050620002f0565b634e487b7160e01b600052604160045260246000fd5b01519050388062000281565b601260005260206000209060005b601f19841681106200047e5750600193949583601f1981161062000464575b505050811b0160125562000297565b015160001960f88460031b161c1916905538808062000455565b9091602060018192858a01518155019301910162000436565b601260005260008051602062006a8d833981519152601f830160051c81019160208410620004e5575b601f0160051c01905b818110620004d8575062000265565b60008155600101620004c9565b9091508190620004c0565b60008181526009602090815260408083206001600160a01b0395909516808452949091528120805460ff19166001179055339291907f2f8788117e7eff1d82e926ec794901d17c78024a50270940304540a733656f0d9080a438806200023b565b015190503880620001ab565b90600160005260206000209160005b601f1985168110620005b8575091839160019360ff9695601f198116106200059e575b505050811b01600155620001c1565b015160001960f88460031b161c191690553880806200058f565b919260206001819286850151815501940192016200056c565b60016000527fb10e2d527612073b26eecdfd717e6a320cf44b4afac2b0732d9fcbe2b7fa0cf6601f840160051c8101602085106200062f575b601f830160051c82018110620006225750506200018c565b600081556001016200060a565b50806200060a565b0151905038806200014d565b6000808052935060008051602062006aad83398151915291905b601f1984168510620006a3576001945083601f1981161062000689575b505050811b0160005562000163565b015160001960f88460031b161c191690553880806200067a565b818101518355602094850194600190930192909101906200065d565b6000805290915060008051602062006aad833981519152601f840160051c8101916020851062000717575b90601f859493920160051c01905b81811062000707575062000134565b60008155849350600101620006f8565b9091508190620006ea565b600080fd5b6040519190601f01601f191682016001600160401b038111838210176200040657604052565b60005b838110620007615750506000910152565b818101518382015260200162000750565b81601f82011215620007225780516001600160401b0381116200040657620007a4601f8201601f191660200162000727565b92818452602082840101116200072257620007c691602080850191016200074d565b90565b90600182811c92168015620007fb575b6020831014620007e557565b634e487b7160e01b600052602260045260246000fd5b91607f1691620007d9565b9060209162000821815180928185528580860191016200074d565b601f01601f191601019056fe608080604052600436101561001357600080fd5b60003560e01c90816301ffc9a7146123645750806306fdde03146122c1578063081812fc146122a3578063095ea7b31461216857806309c3dd87146121235780630a884318146120a75780630f485c0214611d96578063156e29f614611d1457806318160ddd14611cf657806323b872dd14611cd2578063248a9ca314611ca3578063263f3e7e14611c855780632d2a246514611c485780632f2ff15d14611b955780632f745c5914611aea578063310ed7f01461177057806336568abe146116de57806339ace21f146116a65780633e7e86691461168557806341ce4b3f1461166757806342842e0e1461164457806349e86294146115155780634f558e79146114ed5780634f6ccce7146114695780636352211e1461143957806370a08231146114165780638270431c14611326578063840f7113146112fd5780638cb0a5111461125057806391d14854146112035780639448bddb146111c357806394b39b09146110a857806395d89b4114610fdd5780639cc7f70814610fbf578063a137e64514610909578063a217fddf146108ed578063a22cb4651461080f578063a7c9f2d6146107d4578063a8bf563814610787578063b336dee0146106ed578063b88d4fde14610693578063bc74ebb91461064e578063c87b56dd146105b3578063cd5a2c3914610587578063d547741f14610546578063d962232c146103f3578063e345e0bc146103c5578063e8a3d4851461030c578063e985e9c5146102b35763ec327a211461024557600080fd5b346102ae5760203660031901126102ae5760043561026a61026582613507565b6134c2565b600052600b6020526102aa61028f6102966002604060002001604051928380926129c1565b03826124ee565b6040519182916020835260208301906123da565b0390f35b600080fd5b346102ae5760403660031901126102ae576102cc6123ff565b6102d4612415565b9060018060a01b03809116600052600760205260026040600020019116600052602052602060ff604060002054166040519015158152f35b346102ae5760003660031901126102ae57600060405161032b816124d3565b526008546001600160a01b031680156103ac57600060049160405192838092631c97e82760e21b82525afa80156103a0576102aa9160009161037d575b506040519182916020835260208301906123da565b61039a91503d806000833e61039281836124ee565b810190612b6a565b82610368565b6040513d6000823e3d90fd5b506102aa6040516103bc816124d3565b60008152610296565b346102ae5760403660031901126102ae5760206103eb6103e3612415565b600435612bc8565b604051908152f35b346102ae5760403660031901126102ae5760043561040f612415565b9080600052602090600b825261043260ff60076040600020015460081c1661342a565b7f1cd6d520d98babae1045eb69c31ecab800996aa332094cb55c0ac10362e9b0c960005260098252604060002033600052825260ff60406000205416156104e95780600052600b825260ff600760406000200154166104b9575b60009081526010825260408082206001600160a01b0390941682529290915220805460ff19166001179055005b60118252604060008181206001600160a01b038681168352908552919020546104e49116151561346c565b61048c565b60405162461bcd60e51b815260048101839052602f60248201527f53656e646572206e6f7420617574686f72697a656420746f206a6f696e20616460448201526e191c995cdcc81d1bc818481cdb1bdd608a1b6064820152608490fd5b346102ae5760403660031901126102ae57610585600435610565612415565b9080600052600960205261058060016040600020015461257f565b6128b4565b005b346102ae5760203660031901126102ae57600435600052600e6020526020604060002054604051908152f35b346102ae5760203660031901126102ae576004356105d86105d382612e6c565b612abc565b60006040516105e6816124d3565b526008546001600160a01b031690811561063d576000906024604051809481936344a5a61760e11b835260048301525afa80156103a0576102aa9160009161037d57506040519182916020835260208301906123da565b50506102aa6040516103bc816124d3565b346102ae5760203660031901126102ae5760043561066e61026582613507565b600052600b6020526102aa61028f6102966003604060002001604051928380926129c1565b60803660031901126102ae576106a76123ff565b6106af612415565b606435916001600160401b0383116102ae57366023840112156102ae576106e361058593369060248160040135910161252a565b9160443591612cd9565b346102ae576020806003193601126102ae5760043580600052600b825261072160ff60076040600020015460081c1661342a565b80600052600b825260ff6007604060002001541661075c575b600090815260108252604080822033835290925220805460ff19166001179055005b601182526040600081812033825284522054610782906001600160a01b0316151561346c565b61073a565b346102ae5760403660031901126102ae576107a0612415565b600435600052601060205260406000209060018060a01b0316600052602052602060ff604060002054166040519015158152f35b346102ae5760003660031901126102ae5760206040517f1cd6d520d98babae1045eb69c31ecab800996aa332094cb55c0ac10362e9b0c98152f35b346102ae5760403660031901126102ae576108286123ff565b60243590811515908183036102ae576001600160a01b0316913383146108a85761087a9033600052600760205260026040600020018460005260205260406000209060ff801983541691151516179055565b6040519081527f17307eab39ab6107e8899845ad3d59bd9653f200f220920489ca2b5937696c3160203392a3005b60405162461bcd60e51b815260206004820152601a60248201527f455243333532353a20617070726f766520746f2063616c6c65720000000000006044820152606490fd5b346102ae5760003660031901126102ae57602060405160008152f35b346102ae5760e03660031901126102ae576109226123ff565b6044356001600160401b0381116102ae57610941903690600401612561565b6064356001600160401b0381116102ae57610960903690600401612561565b6084356001600160401b0381116102ae5761097f903690600401612561565b60a43560ff81168091036102ae5760c4359283151584036102ae573360009081527f3d62299d961dc9bf64f24e2e5b7d5a2b17ee5fc8163a3ddca90e52de87446755602052604090205460ff1615610f665760009115610f5d575b604051926109e7846124d3565b600084526040519561012087018781106001600160401b03821117610d195760409081526001600160a01b03891688526024356020890152870152606086015260808501526003811015610d2f5760a084015260c0830152151560e08201526001610100820152602435600052600b60205260406000209060018060a01b038151166001600160601b0360a01b8354161782556020810151600183015560408101519283516001600160401b038111610d1957610aa76002850154612987565b601f8111610f28575b506020601f8211600114610eb9578192939495600092610eae575b50508160011b916000199060031b1c19161760028401555b60608201519283516001600160401b038111610d1957610b066003830154612987565b601f8111610e79575b506020601f8211600114610e0a578192939495600092610dff575b50508160011b916000199060031b1c19161760038201555b60808301519283516001600160401b038111610d1957610b656004840154612987565b601f8111610dbf575b506020601f8211600114610d50578192939495600092610d45575b50508160011b916000199060031b1c19161760048301555b60a081015191600581016003841015610d2f5760ff199360ff8583541691161790556006810160c0830151908151916001600160401b038311610d1957602090610beb8484613248565b0190600052602060002060005b838110610cfc57505050506007610100910191610c2760e08201511515849060ff801983541691151516179055565b0151151561ff0082549160081b169061ff0019161790556024356000526010602052604060002060018060a01b0383166000526020526001604060002091825416179055602435600052600b6020527f293112f57e1499e465d2297b938e4b29a3ab8fe5e214951585a56e3d43976716600160406000200154600260406000200190610cc560405192839283526040602084015260408301906129c1565b0390a1602435600052601060205260406000209060018060a01b0316600052602052602060ff604060002054166040519015158152f35b82516001600160a01b031681830155602090920191600101610bf8565b634e487b7160e01b600052604160045260246000fd5b634e487b7160e01b600052602160045260246000fd5b015190508580610b89565b6004840160005260206000209060005b601f1984168110610da7575060019394959683601f19811610610d8e575b505050811b016004830155610ba1565b015160001960f88460031b161c19169055858080610d7e565b9091602060018192858b015181550193019101610d60565b610def90600485016000526020600020601f840160051c81019160208510610df5575b601f0160051c0190613231565b85610b6e565b9091508190610de2565b015190508580610b2a565b6003830160005260206000209060005b601f1984168110610e61575060019394959683601f19811610610e48575b505050811b016003820155610b42565b015160001960f88460031b161c19169055858080610e38565b9091602060018192858b015181550193019101610e1a565b610ea890600384016000526020600020601f840160051c81019160208510610df557601f0160051c0190613231565b85610b0f565b015190508580610acb565b6002850160005260206000209060005b601f1984168110610f10575060019394959683601f19811610610ef7575b505050811b016002840155610ae3565b015160001960f88460031b161c19169055858080610ee7565b9091602060018192858b015181550193019101610ec9565b610f5790600286016000526020600020601f840160051c81019160208510610df557601f0160051c0190613231565b85610ab0565b600091506109da565b60405162461bcd60e51b815260206004820152602b60248201527f53656e646572206e6f7420617574686f72697a656420746f207265676973746560448201526a1c881d1a1a5cc81cdb1bdd60aa1b6064820152608490fd5b346102ae5760203660031901126102ae5760206103eb600435612a92565b346102ae5760003660031901126102ae576040516000600180549061100182612987565b808552918181169081156110815750600114611028575b6102aa84610296818603826124ee565b600081815292507fb10e2d527612073b26eecdfd717e6a320cf44b4afac2b0732d9fcbe2b7fa0cf65b82841061106957505050810160200161029682611018565b80546020858701810191909152909301928101611051565b60ff191660208087019190915292151560051b850190920192506102969150839050611018565b346102ae5760603660031901126102ae576110c16123ff565b6044359060243560048310156102ae57806000526020916010835260406000209060018060a01b0316600052825260ff60406000205416156111585780600052600b8252611117600660406000200133906133ea565b33600052600a8252604060002060ff199360ff858354169116179055600052600f815260406000209033600052526001604060002091825416179055600080f35b60405162461bcd60e51b815260048101839052603960248201527f436f6e74726163742061646d696e206973206e6f7420617574686f72697a656460448201527f20746f20726567697374657220746f207468697320736c6f74000000000000006064820152608490fd5b346102ae5760203660031901126102ae576004356111e36105d382612e6c565b600052600c602052602060018060a01b0360406000205416604051908152f35b346102ae5760403660031901126102ae5761121c612415565b600435600052600960205260406000209060018060a01b0316600052602052602060ff604060002054166040519015158152f35b61125936612459565b906112666105d384612e6c565b6112866001600160a01b038061127b86612b08565b169083161415612d59565b6112908333612dfb565b1561129e5761058592613799565b60405162461bcd60e51b815260206004820152603160248201527f455243333532353a20617070726f76652063616c6c6572206973206e6f74206f6044820152701ddb995c881b9bdc88185c1c1c9bdd9959607a1b6064820152608490fd5b346102ae5760003660031901126102ae576008546040516001600160a01b039091168152602090f35b346102ae5760403660031901126102ae57600435611342612415565b9080600052602090600b825261136560ff60076040600020015460081c1661342a565b8060005260108252604060002033600052825260ff60406000205416156113b85760009081526011825260408082206001600160a01b039094168252929091522080546001600160a01b03191633179055005b60405162461bcd60e51b815260048101839052603060248201527f4d73672073656e646572206e6f7420617574686f72697a656420746f20696e7660448201526f1a5d19481d1bc81d1a1a5cc81cdb1bdd60821b6064820152608490fd5b346102ae5760203660031901126102ae5760206103eb6114346123ff565b612bf9565b346102ae5760203660031901126102ae576020611457600435612b08565b6040516001600160a01b039091168152f35b346102ae5760203660031901126102ae5760043560055481101561149c57611492602091612a57565b5054604051908152f35b60405162461bcd60e51b815260206004820152602360248201527f455243333532353a20676c6f62616c20696e646578206f7574206f6620626f756044820152626e647360e81b6064820152608490fd5b346102ae5760203660031901126102ae57602061150b600435613507565b6040519015158152f35b346102ae5760403660031901126102ae5761152e6123ff565b602435908160005260209060108252604060002033600052825260ff60406000205416156115e957604051637795524560e01b8152926001600160a01b039183908590600490829086165afa9384156103a0576000946115b1575b506000526010825260406000209216600052526040600020600160ff19825416179055600080f35b9093508281813d83116115e2575b6115c981836124ee565b810103126102ae575181811681036102ae579284611589565b503d6115bf565b60405162461bcd60e51b815260048101839052602d60248201527f53656e646572206e6f7420617574686f72697a656420746f20617070726f766560448201526c081bdb881d1a1a5cc81cdb1bdd609a1b6064820152608490fd5b61058561165036612483565b906040519261165e846124d3565b60008452612cd9565b346102ae5760203660031901126102ae57602061150b600435612e6c565b346102ae5760003660031901126102ae57602060ff60025416604051908152f35b346102ae5760203660031901126102ae576004356116c66105d382612e6c565b600052600d6020526020604060002054604051908152f35b346102ae5760403660031901126102ae576116f7612415565b336001600160a01b0382160361171357610585906004356128b4565b60405162461bcd60e51b815260206004820152602f60248201527f416363657373436f6e74726f6c3a2063616e206f6e6c792072656e6f756e636560448201526e103937b632b9903337b91039b2b63360891b6064820152608490fd5b60603660031901126102ae57602460443581356004356117926105d382612e6c565b61179e6105d383612e6c565b6117a781612b46565b6117b083612b46565b03611a8957336000526020600a815260ff6040600020541683600052600c825260018060a01b0360406000205416600052600a825260ff604060002054166004811015611a74576004821015611a745781036119f257801561197c5760018103611960575061181e83612a92565b9482600052600d825260406000205484600052604060002054141560001461194c576013549561184d87613d6d565b9661271088810298818a04036119225761186682613d6d565b8082029082820403611937576118968961189161189c938a600052600d8a5260406000205490613215565b61292a565b92613d6d565b80820291820403611922576118d7916118ca846118916118d0948b600052600d8a5260406000205490613215565b90612953565b9187612953565b91821561190e575061058596600d926118f1920490613215565b915b8460005252604060002055611909838233613917565b6139b0565b634e487b7160e01b60009081526012600452fd5b83634e487b7160e01b60005260116004526000fd5b84634e487b7160e01b60005260116004526000fd5b506105859450600d604060002054916118f3565b9194505060021461196d57005b82611909836105859533613917565b60a4826044886040519262461bcd60e51b845260048401528201527f536c6f7452656769737472793a204e6574776f726b2076616c7565207472616e60448201527f73666572206e6f7420616c6c6f77656420666f72207072696f7269747920746f6064820152636b656e7360e01b6084820152fd5b60405162461bcd60e51b815260048101839052604f818801527f536c6f7452656769737472793a2043616e6e6f74207472616e7366657220626560448201527f747765656e20746f6b656e7320686f6c64696e6720646966666572656e74207460648201526e3cb832b99037b31031b932b234ba1760891b608482015260a490fd5b86634e487b7160e01b60005260216004526000fd5b60405162461bcd60e51b8152602060048201526034818601527f536c6f7452656769737472793a207472616e7366657220746f20746f6b656e206044820152733bb4ba34103234b33332b932b73a1039b637ba1760611b6064820152608490fd5b346102ae5760403660031901126102ae57611b036123ff565b60243590611b1081612bf9565b821015611b4557602091611b379160018060a01b0316600052600783526040600020612de3565b90546040519160031b1c8152f35b60405162461bcd60e51b815260206004820152602260248201527f455243333532353a206f776e657220696e646578206f7574206f6620626f756e604482015261647360f01b6064820152608490fd5b346102ae5760403660031901126102ae57600435611bb1612415565b816000526009602052611bcb60016040600020015461257f565b81600052600960205260406000209060018060a01b0316908160005260205260ff6040600020541615611bfa57005b8160005260096020526040600020816000526020526040600020600160ff1982541617905533917f2f8788117e7eff1d82e926ec794901d17c78024a50270940304540a733656f0d600080a4005b346102ae576020611c6f611c5b3661242b565b92939160016003540180958160035561357f565b81600052600e8352604060002055604051908152f35b346102ae5760203660031901126102ae5760206103eb600435612b46565b346102ae5760203660031901126102ae5760043560005260096020526020600160406000200154604051908152f35b610585611cde36612483565b91611cf1611cec8433612dfb565b612c72565b612e9a565b346102ae5760003660031901126102ae576020600554604051908152f35b346102ae5760603660031901126102ae576020611d2f6123ff565b611d6f6024359182600052600f84526040600020336000528452611d5a60ff60406000205416613525565b6001600354019283600355836044359261357f565b80600052600c82526040600020336001600160601b0360a01b825416179055604051908152f35b611d9f36612459565b611dad6105d3849394612e6c565b611db8818333613917565b6001600354019182600355611dcc81612b46565b6001600160a01b039480861690811561205857851561200957611dee86612e6c565b611fc45760405196611dff886124d3565b6000885260405197611e10896124b8565b8789526020988981018681528a604083016000815260608401908882528c600660808701946000865260a08801988952600554926000525280604060002055600160401b811015610d1957806001611e6b9201600555612a57565b949094611fae576005955185555160018501555160028401558560038401915116906001600160601b0360a01b9182825416179055856004840192511690825416179055019051918251926001600160401b038411610d1957908a8392611ed9868d9a989c9b999796613248565b01916000528a6000209060005b848110611f975750505050508390611f01826103eb9861317f565b60007fddf252ad1be2c89b69c2b068fc378daa952ba7f163c4a11628f55a4df523b3ef8180a46000837fe4f48c240d3b994948aa54f3e2f5fca59263dfe1d52b6e4cf39a5d249b5ccb658280a48160005260068652611f64604060002054612a57565b50508160007f0b2aac84f3ec956911fd78eae5311062972ff949f38412e8da39069d9f068cc688604051838152a36139b0565b83518216818401558b9850928c0192600101611ee6565b634e487b7160e01b600052600060045260246000fd5b60405162461bcd60e51b815260206004820152601d60248201527f455243333532353a20746f6b656e20616c7265616479206d696e7465640000006044820152606490fd5b60405162461bcd60e51b815260206004820152602160248201527f455243333532353a2063616e6e6f74206d696e74207a65726f20746f6b656e496044820152601960fa1b6064820152608490fd5b60405162461bcd60e51b815260206004820152602160248201527f455243333532353a206d696e7420746f20746865207a65726f206164647265736044820152607360f81b6064820152608490fd5b346102ae5760206120f26120ba3661242b565b92939180600052600f865260406000203360005286526120e160ff60406000205416613525565b60016003540180958160035561357f565b81600052600c83526040600020336001600160601b0360a01b825416179055600d8352604060002055604051908152f35b346102ae5760203660031901126102ae5760043561214361026582613507565b600052600b6020526102aa61028f6102966004604060002001604051928380926129c1565b60403660031901126102ae5761217c6123ff565b602435906001600160a01b03808061219385612b08565b169216916121a381841415612d59565b80331490811561227b575b50156122105782600052600660205260046121cd604060002054612a57565b500180546001600160a01b031916831790556121e883612b08565b167f8c5be1e5ebec7d5bd14f71427d1e84f3dd0314c0f7b2291e5b200ac8c7c3b925600080a4005b60405162461bcd60e51b815260206004820152603960248201527f455243333532353a20617070726f76652063616c6c6572206973206e6f74206f60448201527f776e6572206e6f7220617070726f76656420666f7220616c6c000000000000006064820152608490fd5b9050600052600760205260026040600020013360005260205260ff60406000205416846121ae565b346102ae5760203660031901126102ae576020611457600435612db0565b346102ae5760003660031901126102ae57604051600080546122e281612987565b80845290600190818116908115611081575060011461230b576102aa84610296818603826124ee565b600080805292507f290decd9548b62a8d60345a988386fc84ba6bc95484008f6362f93160ef3e5635b82841061234c57505050810160200161029682611018565b80546020858701810191909152909301928101612334565b346102ae5760203660031901126102ae576004359063ffffffff60e01b82168092036102ae57602091637965db0b60e01b81149081156123a6575b5015158152f35b6301ffc9a760e01b1490508361239f565b60005b8381106123ca5750506000910152565b81810151838201526020016123ba565b906020916123f3815180928185528580860191016123b7565b601f01601f1916010190565b600435906001600160a01b03821682036102ae57565b602435906001600160a01b03821682036102ae57565b60809060031901126102ae576004356001600160a01b03811681036102ae5790602435906044359060643590565b60609060031901126102ae57600435906024356001600160a01b03811681036102ae579060443590565b60609060031901126102ae576001600160a01b039060043582811681036102ae579160243590811681036102ae579060443590565b60c081019081106001600160401b03821117610d1957604052565b602081019081106001600160401b03821117610d1957604052565b90601f801991011681019081106001600160401b03821117610d1957604052565b6001600160401b038111610d1957601f01601f191660200190565b9291926125368261250f565b9161254460405193846124ee565b8294818452818301116102ae578281602093846000960137010152565b9080601f830112156102ae5781602061257c9335910161252a565b90565b60009080825260209060098252604092838120338252835260ff8482205416156125a95750505050565b8351916001600160401b03903360608501838111868210176128a0578752602a8552858501918736843785511561288c5760308353855191600192831015612878576078602188015360295b83811161280e57506127cc57908751936080850190858210908211176127b8578852604284528684019460603687378451156127a4576030865384518210156127a45790607860218601536041915b818311612736575050506126f4576126f09386936126d4936126c560489461269c9a519a8b957f416363657373436f6e74726f6c3a206163636f756e74200000000000000000008c88015251809260378801906123b7565b8401917001034b99036b4b9b9b4b733903937b6329607d1b6037840152518093868401906123b7565b010360288101875201856124ee565b5192839262461bcd60e51b8452600484015260248301906123da565b0390fd5b60648587519062461bcd60e51b825280600483015260248201527f537472696e67733a20686578206c656e67746820696e73756666696369656e746044820152fd5b909192600f81166010811015612790576f181899199a1a9b1b9c1cb0b131b232b360811b901a6127668588612960565b5360041c92801561277c57600019019190612644565b634e487b7160e01b82526011600452602482fd5b634e487b7160e01b83526032600452602483fd5b634e487b7160e01b81526032600452602490fd5b634e487b7160e01b86526041600452602486fd5b60648789519062461bcd60e51b825280600483015260248201527f537472696e67733a20686578206c656e67746820696e73756666696369656e746044820152fd5b90600f81166010811015612864576f181899199a1a9b1b9c1cb0b131b232b360811b901a61283c838a612960565b5360041c90801561285057600019016125f5565b634e487b7160e01b87526011600452602487fd5b634e487b7160e01b88526032600452602488fd5b634e487b7160e01b86526032600452602486fd5b634e487b7160e01b85526032600452602485fd5b634e487b7160e01b85526041600452602485fd5b906000918083526009602052604083209160018060a01b03169182845260205260ff6040842054166128e557505050565b8083526009602052604083208284526020526040832060ff1981541690557ff6391f5c32d9c69d2a47ea670b442974b53935d1edc7fd64eb21e047a839171b339380a4565b8181029291811591840414171561293d57565b634e487b7160e01b600052601160045260246000fd5b9190820180921161293d57565b908151811015612971570160200190565b634e487b7160e01b600052603260045260246000fd5b90600182811c921680156129b7575b60208310146129a157565b634e487b7160e01b600052602260045260246000fd5b91607f1691612996565b90600092918054916129d283612987565b918282526001938481169081600014612a3457506001146129f4575b50505050565b90919394506000526020928360002092846000945b838610612a205750505050010190388080806129ee565b805485870183015294019385908201612a09565b9294505050602093945060ff191683830152151560051b010190388080806129ee565b600554811015612971576006906005600052027f036b6384b5eca791c62761152d0c79bb0604c104a5fb6f4eb0703f3154bb3db00190600090565b612a9e6105d382612e6c565b60005260066020526002612ab6604060002054612a57565b50015490565b15612ac357565b60405162461bcd60e51b815260206004820152601960248201527f455243333532353a20696e76616c696420746f6b656e204944000000000000006044820152606490fd5b612b146105d382612e6c565b6000526006602052612b2a604060002054612a57565b50600301546001600160a01b031690612b44821515612abc565b565b612b526105d382612e6c565b60005260066020526001612ab6604060002054612a57565b6020818303126102ae578051906001600160401b0382116102ae570181601f820112156102ae578051612b9c8161250f565b92612baa60405194856124ee565b818452602082840101116102ae5761257c91602080850191016123b7565b612bd46105d382612e6c565b600052600460205260406000209060018060a01b031660005260205260406000205490565b6001600160a01b03168015612c1957600052600760205260406000205490565b60405162461bcd60e51b815260206004820152602b60248201527f455243333532353a2062616c616e636520717565727920666f7220746865207a60448201526a65726f206164647265737360a81b6064820152608490fd5b15612c7957565b60405162461bcd60e51b815260206004820152603260248201527f455243333532353a207472616e736665722063616c6c6572206973206e6f74206044820152711bdddb995c881b9bdc88185c1c1c9bdd995960721b6064820152608490fd5b90612cfd939291612ced611cec8433612dfb565b612cf8838383612e9a565b61329c565b15612d0457565b60405162461bcd60e51b815260206004820152602760248201527f455243333532353a207472616e7366657220746f206e6f6e204552433732315260448201526632b1b2b4bb32b960c91b6064820152608490fd5b15612d6057565b60405162461bcd60e51b815260206004820152602260248201527f455243333532353a20617070726f76616c20746f2063757272656e74206f776e60448201526132b960f11b6064820152608490fd5b612dbc6105d382612e6c565b6000526006602052612dd2604060002054612a57565b50600401546001600160a01b031690565b80548210156129715760005260206000200190600090565b906001600160a01b038080612e0f84612b08565b16931691838314938415612e42575b508315612e2c575b50505090565b612e3891929350612db0565b1614388080612e26565b909350600052600760205260026040600020018260005260205260ff604060002054169238612e1e565b60055415159081612e7b575090565b8091506000526006602052612e94604060002054612a57565b50541490565b612ea383612b08565b6001600160a01b039182169190811682900361312e578083169283156130db57612ecc85612b46565b50612ed685612a92565b5060009185835260209060068252604090612ef382862054612a57565b50600490810180546001600160a01b03199081169091559091898782612f1883612b08565b167f8c5be1e5ebec7d5bd14f71427d1e84f3dd0314c0f7b2291e5b200ac8c7c3b9258280a4898752600685526005612f5285892054612a57565b500180549091858988818f5b8684106130a4575050505050505080548782558061308b575b5050888652600684526003612f8e84882054612a57565b50019081541690558585526007835281852091825493600019948581019081116130785790612fbf88939286612de3565b90549060031b1c9060018601908c8552818152838520549261300081612fe5868b612de3565b90919082549060031b600019811b9283911b16911916179055565b855252818320558982528120558154908115613065575092828892613061947fddf252ad1be2c89b69c2b068fc378daa952ba7f163c4a11628f55a4df523b3ef9796019161304e8383612de3565b909182549160031b1b191690555561317f565b80a4565b634e487b7160e01b865260319052602485fd5b634e487b7160e01b885260118452602488fd5b61309d91885285882090810190613231565b3880612f77565b6130d19486928b6130b5878c612de3565b96905494835252209260031b1c168c5289528a88812055613222565b8690888b8f612f5e565b60405162461bcd60e51b815260206004820152602560248201527f455243333532353a207472616e7366657220746f20746865207a65726f206164604482015264647265737360d81b6064820152608490fd5b60405162461bcd60e51b8152602060048201526024808201527f455243333532353a207472616e736665722066726f6d20696e76616c6964206f6044820152633bb732b960e11b6064820152608490fd5b600090828252600660205260036131996040842054612a57565b500180546001600160a01b0319166001600160a01b0390921691821790558082526007602081815260408085208054878752600191909101835281862055928452528120805491600160401b831015613201575081612fe5916001612b449594018155612de3565b634e487b7160e01b81526041600452602490fd5b9190820391821161293d57565b600019811461293d5760010190565b81811061323c575050565b60008155600101613231565b90600160401b8111610d195781549080835581811061326657505050565b612b449260005260206000209182019101613231565b908160209103126102ae57516001600160e01b0319811681036102ae5790565b92939290803b156133e157936000916132f39560405180948193630a85bd0160e11b9788845233600485015260018060a01b0380921660248501526044840152608060648401528260209a8b9760848301906123da565b0393165af1600091816133b2575b506133a357833d1561339b573d906133188261250f565b9161332660405193846124ee565b82523d60008284013e5b815191826133985760405162461bcd60e51b815260048101839052603260248201527f4552433732313a207472616e7366657220746f206e6f6e20455243373231526560448201527131b2b4bb32b91034b6b83632b6b2b73a32b960711b6064820152608490fd5b01fd5b606090613330565b6001600160e01b031916149150565b6133d3919250853d87116133da575b6133cb81836124ee565b81019061327c565b9038613301565b503d6133c1565b50600193505050565b8054600160401b811015610d195761340791600182018155612de3565b819291549060031b9160018060a01b039283811b93849216901b16911916179055565b1561343157565b60405162461bcd60e51b815260206004820152601360248201527214db1bdd08191bd95cc81b9bdd08195e1a5cdd606a1b6044820152606490fd5b1561347357565b60405162461bcd60e51b815260206004820152602160248201527f596f752068617665206e6f74206265656e20696e766974656420746f206a6f696044820152603760f91b6064820152608490fd5b156134c957565b60405162461bcd60e51b815260206004820152601660248201527514db1bdd081a5cc81b9bdd081c9959da5cdd195c995960521b6044820152606490fd5b600052600b602052613520600260406000200154612987565b151590565b1561352c57565b60405162461bcd60e51b815260206004820152602560248201527f53656e646572206e6f7420617574686f72697a656420746f206d696e7420746f604482015264081cdb1bdd60da1b6064820152608490fd5b6001600160a01b03808216959492939092908615612058578415612009576135a685612e6c565b611fc4576040908151936135b9856124d3565b6000958686528351906135cb826124b8565b88825260209682898d8c8b8097018981528a850191848352606086019384528b608087019580875260a0880198895260066005549b8c948352522055600160401b88101561378557613624600198898101600555612a57565b95909561377157906005959493929151855551888501555160028401558560038401915116906001600160601b0360a01b9182825416179055856004840192511690825416179055019051918251926001600160401b03841161375d57899061368d8585613248565b01918a52888a20908a5b84811061374a57505050505050958097986136d4827f0b2aac84f3ec956911fd78eae5311062972ff949f38412e8da39069d9f068cc6989961317f565b877fddf252ad1be2c89b69c2b068fc378daa952ba7f163c4a11628f55a4df523b3ef8180a485877fe4f48c240d3b994948aa54f3e2f5fca59263dfe1d52b6e4cf39a5d249b5ccb658280a485855260068352600261373482872054612a57565b5001613741838254612953565b905551908152a3565b8351821683820155928a01928501613697565b634e487b7160e01b8b52604160045260248bfd5b634e487b7160e01b8f5260048f905260248ffd5b634e487b7160e01b8e52604160045260248efd5b6001600160a01b038216929091831561382e577f621b050de0ad08b51d19b48b3e6df75348c4de6bdd93e81b252ca62e28265b1b91816137db85602094613886565b15613805575b508360005260048252604060002085600052825280604060002055604051908152a3565b6138289085600052600684526005613821604060002054612a57565b50016133ea565b386137e1565b60405162461bcd60e51b815260206004820152602a60248201527f455243333532353a20617070726f76652076616c756520746f20746865207a65604482015269726f206164647265737360b01b6064820152608490fd5b60009082825260066020908082526040906138a382862054612a57565b509260058094015496865b8881106138c15750505050505050905090565b8188528383526138df81876138d8888c2054612a57565b5001612de3565b905460039190911b1c6001600160a01b03908116908816146139095761390490613222565b6138ae565b505050505050505050600190565b6139218183612bc8565b61392b8383612dfb565b15806139a4575b61393c5750505050565b83811061395f576139569361395091613215565b91613799565b388080806129ee565b60405162461bcd60e51b815260206004820152601f60248201527f455243333532353a20696e73756666696369656e7420616c6c6f77616e6365006044820152606490fd5b50600019811415613932565b6139b981612e6c565b15613be6576139c782612e6c565b15613b935780600052602092600684526040926139e78460002054612a57565b5081600052600686526139fd8560002054612a57565b50906002810190815490858210613b3c5760010154600184015403613ae15791600291613a3086613a7f98979695613215565b905501613a3e838254612953565b905580837f0b2aac84f3ec956911fd78eae5311062972ff949f38412e8da39069d9f068cc6888851868152a3845192613a76846124d3565b60008452613c3b565b15613a88575050565b60849250519062461bcd60e51b82526004820152602d60248201527f455243333532353a207472616e736665722072656a656374656420627920455260448201526c21999a991aa932b1b2b4bb32b960991b6064820152fd5b865162461bcd60e51b815260048101899052602e60248201527f455243333532353a207472616e7366657220746f20746f6b656e20776974682060448201526d191a5999995c995b9d081cdb1bdd60921b6064820152608490fd5b875162461bcd60e51b8152600481018a9052602a60248201527f455243333532353a20696e73756666696369656e742062616c616e636520666f60448201526939103a3930b739b332b960b11b6064820152608490fd5b60405162461bcd60e51b815260206004820152602560248201527f455243333532353a207472616e7366657220746f20696e76616c696420746f6b604482015264195b88125160da1b6064820152608490fd5b60405162461bcd60e51b815260206004820152602760248201527f455243333532353a207472616e736665722066726f6d20696e76616c696420746044820152661bdad95b88125160ca1b6064820152608490fd5b92613c4582612b08565b803b151580613ceb575b15613ce157613c9893600060209460405196879586948593629ce20b60e01b9b8c865233600487015260248601526044850152606484015260a0608484015260a48301906123da565b03926001600160a01b03165af19081156103a057600091613cc3575b506001600160e01b0319161490565b613cdb915060203d81116133da576133cb81836124ee565b38613cb4565b5050505050600190565b506040516301ffc9a760e01b8152629ce20b60e01b60048201526020816024816001600160a01b0386165afa9081156103a057600091613d2c575b50613c4f565b6020813d8211613d65575b81613d44602093836124ee565b81010312613d615751908115158203613d5e575038613d26565b80fd5b5080fd5b3d9150613d37565b604d811161293d57600a0a9056fea26469706673582212204ccbc5ee1cdead8c5422e8ee8fcddd4b73ad817b3865dabd3306732e0cd5417c64736f6c634300081100336080604052346200048657620024ae803803806200001d816200048b565b9283398101608082820312620004865781516001600160401b0391908281116200048657816200004f918501620004b1565b91602092838501518281116200048657836200006d918701620004b1565b92604086015183811162000486576060916200008b918801620004b1565b9501516001600160a01b03811695908690036200048657815193838511620002c3576001948554938685811c951680156200047b575b88861014620002a2578190601f9586811162000425575b508890868311600114620003bd57600092620003b1575b5050600019600383901b1c191690861b1785555b805190848211620002c357600254908682811c92168015620003a6575b88831014620002a25781858493116200034f575b508790858311600114620002e557600092620002d9575b5050600019600383901b1c191690851b176002555b8051928311620002c35760039485548581811c91168015620002b8575b82821014620002a25783811162000257575b5080928411600114620001ed5750928293918392600094620001e1575b50501b9160001990841b1c19161790555b600080546001600160a01b031916919091179055604051611f8a9081620005248239f35b015192503880620001ac565b919083601f1981168760005284600020946000905b888383106200023c575050501062000223575b505050811b019055620001bd565b015160001983861b60f8161c1916905538808062000215565b85870151885590960195948501948793509081019062000202565b86600052816000208480870160051c82019284881062000298575b0160051c019086905b8281106200028b5750506200018f565b600081550186906200027b565b9250819262000272565b634e487b7160e01b600052602260045260246000fd5b90607f16906200017d565b634e487b7160e01b600052604160045260246000fd5b0151905038806200014b565b90879350601f198316916002600052896000209260005b8b8282106200033857505084116200031e575b505050811b0160025562000160565b015160001960f88460031b161c191690553880806200030f565b8385015186558b97909501949384019301620002fc565b9091506002600052876000208580850160051c8201928a86106200039c575b918991869594930160051c01915b8281106200038c57505062000134565b600081558594508991016200037c565b925081926200036e565b91607f169162000120565b015190503880620000ef565b90889350601f19831691846000528a6000209260005b8c8282106200040e5750508411620003f4575b505050811b01855562000103565b015160001960f88460031b161c19169055388080620003e6565b8385015186558c97909501949384019301620003d3565b90915087600052886000208680850160051c8201928b861062000471575b918a91869594930160051c01915b82811062000461575050620000d8565b600081558594508a910162000451565b9250819262000443565b94607f1694620000c1565b600080fd5b6040519190601f01601f191682016001600160401b03811183821017620002c357604052565b919080601f84011215620004865782516001600160401b038111620002c357602090620004e7601f8201601f191683016200048b565b92818452828287010111620004865760005b8181106200050f57508260009394955001015290565b8581018301518482018401528201620004f956fe608060408181526004908136101561001657600080fd5b600092833560e01c9081631375d843146114a057508063246a908b146113a257806331264fc11461119057806355f804b31461104c57806364140ec014610f4d5780636c0360eb14610e8e5780636c037f8a14610b7257806371f0442e14610ade578063725fa09c14610866578063842251d41461072e578063894b4c2e146104025780639cdeaae0146101805763b3154c08146100b357600080fd5b3461017c57602091826003193601126101785780358452825280832091815192848154906100e082611a7d565b808752926001928084169081156101545750600114610119575b610115878761010b828c03836115b6565b5191829182611558565b0390f35b9080949750528583205b82841061014157505050826101159461010b928201019438806100fa565b8054868501880152928601928101610123565b60ff19168887015250505050151560051b830101925061010b8261011538806100fa565b8380fd5b8280fd5b50913461039057826003193601126103905781359161019e836119cd565b928083526020918083528584209386519481868254916101bd83611a7d565b92838352888301946001918a83821691826000146103e25750506001146103a5575b50506101ed925003876115b6565b6101f684611de4565b9161020260243561188a565b895163131f9f3f60e11b8152948501869052938681602481335afa91821561039a578092610365575b61011561027f8c61010b606c8e8e8e61034c8f8f8f8f8f61024e6102549161188a565b94611e7e565b966102a960298d519e8f809c683d913730b6b2911d1160b91b8c8301528b8151948593019101611535565b8a0191701116113232b9b1b934b83a34b7b7111d1160791b6029840152518093603a840190611535565b016a11161134b6b0b3b2911d1160a91b603a8201526102d18251809388604585019101611535565b016c1116113130b630b731b2911d1160991b60458201526102fb8251809387605285019101611535565b016911161139b637ba111d1160b11b60528201526103228251809386605c85019101611535565b01916e111611383937b832b93a34b2b9911d60891b605c8401528351938491606b85019101611535565b01607d60f81b606b82015203604c8101855201836115b6565b9091508682813d8311610393575b61037d81836115b6565b810103126103905750518461027f61022b565b80fd5b503d610373565b8a51903d90823e3d90fd5b89925086528186209086915b8583106103c95750506101ed935082010138806101df565b81948484839695965492010152019101899289926103b1565b92509350506101ed94915060ff19168552151560051b82010138806101df565b50913461039057602091826003193601126106bd57803591610423836119cd565b83825282855285822090865190838284549161043e83611a7d565b928383528a8301966001918c838216918260001461070e5750506001146106d2575b505061046e925003836115b6565b61047786611de4565b938851631398fee160e31b815287878201528881602481335afa80156106c8578290610695575b6104a8915061188a565b895163131f9f3f60e11b8152968701889052958881602481335afa91821561039a578092610664575b5050606c888a6101159b9961010b99603d996106549d9961061b9961055861052e9a6105086105026106169c61188a565b97611e7e565b97519b8c99683d913730b6b2911d1160b91b818c0152825192839160298d019101611535565b880191701116113232b9b1b934b83a34b7b7111d1160791b6029840152518093603a840190611535565b016a11161134b6b0b3b2911d1160a91b603a820152610580825180938d604585019101611535565b016c1116113130b630b731b2911d1160991b60458201526105aa825180938c605285019101611535565b016911161139b637ba111d1160b11b60528201526105d1825180938b605c85019101611535565b016e111611383937b832b93a34b2b9911d60891b605c8201526105fd825180938a606b85019101611535565b01607d60f81b606b82015203604c8101845201826115b6565b61171d565b845195827f646174613a6170706c69636174696f6e2f6a736f6e3b6261736536342c000000889485015282519283918686019101611535565b810103601d8101855201836115b6565b9091508882813d831161068e575b61067c81836115b6565b81010312610390575051606c886104d1565b503d610672565b508881813d83116106c1575b6106ab81836115b6565b810103126106bd576104a8905161049e565b5080fd5b503d6106a1565b8a513d84823e3d90fd5b8b925088528188209088915b8583106106f657505061046e93508201013880610460565b80548389018501528794508c939092019181016106de565b925093505061046e94915060ff19168752151560051b8201013880610460565b508290346106bd5761073f36611640565b939083526020916006835283209184519167ffffffffffffffff8311610853575061076a8354611a7d565b601f8111610810575b5080601f83116001146107ae57508394829394926107a3575b50508160011b916000199060031b1c191617905580f35b01519050848061078c565b90601f198316958486528286209286905b8882106107f8575050836001959697106107df575b505050811b01905580f35b015160001960f88460031b161c191690558480806107d4565b806001859682949686015181550195019301906107bf565b838552818520601f840160051c810191838510610849575b601f0160051c01905b81811061083e5750610773565b858155600101610831565b9091508190610828565b634e487b7160e01b855260419052602484fd5b50903461017c578260031936011261017c5781516306fdde0360e01b81529083828281335afa918215610ad1578492610aad575b5082519084600254906108ac82611a7d565b808552846020988992838301956001908181169081600014610a8e5750600114610a32575b50506108df925003856115b6565b6108e7611bb6565b928787518092633e7e866960e01b825281335afa918215610a2757605a610654989761010b97603d976101159c9761093360ff61061b996109889961061699916109fa575b501661188a565b928c51978895683d913730b6b2911d1160b91b8c88015261095e8c825192839160298b019101611535565b860191701116113232b9b1b934b83a34b7b7111d1160791b6029840152518093603a840190611535565b016a11161134b6b0b3b2911d1160a91b603a8201526109b0825180938b604585019101611535565b01721116113b30b63ab2a232b1b4b6b0b639911d1160691b60458201526109e0825180938a605885019101611535565b0161227d60f01b605882015203603a8101845201826115b6565b610a1a91508c8d3d10610a20575b610a1281836115b6565b8101906116d2565b3861092c565b503d610a08565b8751903d90823e3d90fd5b600286527f405787fa12a823e0f2b7631cc41b3ba8828b3321ca811111fa75cd3aa3bb5ace9492508591905b818310610a7657508b9450508201016108df386108d1565b85548a84018501529485019489945091830191610a5e565b9150506108df94925060ff19168652151560051b8201018992386108d1565b610aca9192503d8086833e610ac281836115b6565b810190611673565b903861089a565b50505051903d90823e3d90fd5b503461017c576020918260031936011261017857358352600582528083209181519284815490610b0d82611a7d565b808752926001928084169081156101545750600114610b3757610115878761010b828c03836115b6565b9080949750528583205b828410610b5f57505050826101159461010b928201019438806100fa565b8054868501880152928601928101610b41565b50903461017c5760209283600319360112610390578054835163ec327a2160e01b815283358185018190529092916001600160a01b0316908284602481855afa938415610e84578394610e68575b50855163bc74ebb960e01b8152858101829052948386602481865afa958615610e5e578496610e42575b5086516309c3dd8760e01b80825282820184905290938585602481845afa948515610e3857918a9594939187938496610e17575b5090602491610c5e60268d518a652f696d61676560d01b81610c4a849e85019d8e815193849201611535565b83019182015203600681018b5201896115b6565b8b51958694859384528301525afa938415610a27578094610dfa575b50508551918288808201868197519283910191610c9692611535565b81018981016f17b83937b832b93a34b2b9973539b7b760811b905203601081018452603001610cc590846115b6565b8651958695683d913730b6b2911d1160b91b8a880152805190818b60298a01920191610cf092611535565b8601701116113232b9b1b934b83a34b7b7111d1160791b6029820152815191828b603a8401920191610d2192611535565b01906a11161134b6b0b3b2911d1160a91b603a83015251918260458301610d4792611535565b01906e111611383937b832b93a34b2b9911d60891b604583015251918260548301610d7192611535565b0160548101607d60f81b905203603581018252605501610d9190826115b6565b610d9a9061171d565b81517f646174613a6170706c69636174696f6e2f6a736f6e3b6261736536342c00000084820152815190938492610dd8918391603d86019101611535565b810103601d81018352603d01610dee90836115b6565b51610115819282611558565b610e0f9294503d8091833e610ac281836115b6565b913880610c7a565b602492919650610e30903d8087833e610ac281836115b6565b959091610c1e565b89513d88823e3d90fd5b610e579196503d8086833e610ac281836115b6565b9438610bea565b87513d86823e3d90fd5b610e7d9194503d8085833e610ac281836115b6565b9238610bc0565b86513d85823e3d90fd5b8382346106bd57816003193601126106bd57805190826001805491610eb283611a7d565b80865292828116908115610f255750600114610edb575b50505061010b826101159403836115b6565b9450808552600080516020611f358339815191525b828610610f0d5750505061010b8260206101159582010194610ec9565b80546020878701810191909152909501948101610ef0565b61011597508693506020925061010b94915060ff191682840152151560051b82010194610ec9565b508290346106bd57610f5e36611640565b939083526020916005835283209184519167ffffffffffffffff83116108535750610f898354611a7d565b601f8111611009575b5080601f8311600114610fc157508394829394926107a35750508160011b916000199060031b1c191617905580f35b90601f198316958486528286209286905b888210610ff1575050836001959697106107df57505050811b01905580f35b80600185968294968601518155019501930190610fd2565b838552818520601f840160051c810191838510611042575b601f0160051c01905b8181106110375750610f92565b85815560010161102a565b9091508190611021565b828434610390576020806003193601126106bd5767ffffffffffffffff83358181116101785761107f90369086016115f4565b93845191821161117d57506001916110978354611a7d565b601f811161112b575b5080601f83116001146110da57508394829394926110cf575b5050600019600383901b1c191690821b17905580f35b0151905084806110b9565b838552601f19831695600080516020611f35833981519152929186905b88821061111457505083859697106107df57505050811b01905580f35b8087859682949686015181550195019301906110f7565b838552600080516020611f35833981519152601f840160051c810191838510611173575b601f0160051c019084905b8281106111685750506110a0565b86815501849061115a565b909150819061114f565b634e487b7160e01b845260419052602483fd5b50903461017c578260031936011261017c5781516306fdde0360e01b81529083828281335afa918215610ad1578492611386575b5082519084906002546111d681611a7d565b808552846020948582019360019087828216918260001461136857505060011461130e575b50611208925003856115b6565b611210611bb6565b918387518092633e7e866960e01b825281335afa9081156113045761127d97969361010b969361125360ff605a98956112d3956101159e916112ed57501661188a565b9489519a8b97683d913730b6b2911d1160b91b878a015261052e815180928960298d019101611535565b016a11161134b6b0b3b2911d1160a91b603a8201526112a58251809386604585019101611535565b0191721116113b30b63ab2a232b1b4b6b0b639911d1160691b60458401528351938491605885019101611535565b0161227d60f01b605882015203603a8101855201836115b6565b610a1a9150873d8911610a2057610a1281836115b6565b87513d8a823e3d90fd5b60028b528691508a907f405787fa12a823e0f2b7631cc41b3ba8828b3321ca811111fa75cd3aa3bb5ace5b8583106113505750506112089350820101386111fb565b8054838b018501528994508893909201918101611339565b60ff1916875261120895151560051b85010192503891506111fb9050565b61139b9192503d8086833e610ac281836115b6565b90386111c4565b508290346106bd576113b336611640565b9390835260209181835283209184519167ffffffffffffffff831161085357506113dd8354611a7d565b601f811161145d575b5080601f831160011461141557508394829394926107a35750508160011b916000199060031b1c191617905580f35b90601f198316958486528286209286905b888210611445575050836001959697106107df57505050811b01905580f35b80600185968294968601518155019501930190611426565b838552818520601f840160051c810191838510611496575b601f0160051c01905b81811061148b57506113e6565b85815560010161147e565b9091508190611475565b92905034610178576020908160031936011261153157358452600681528184208054856114cc82611a7d565b8087529260019280841690811561015457506001146114f657610115878761010b828c03836115b6565b9080949750528583205b82841061151e57505050826101159461010b928201019438806100fa565b8054868501880152928601928101611500565b8480fd5b60005b8381106115485750506000910152565b8181015183820152602001611538565b604091602082526115788151809281602086015260208686019101611535565b601f01601f1916010190565b6060810190811067ffffffffffffffff8211176115a057604052565b634e487b7160e01b600052604160045260246000fd5b90601f8019910116810190811067ffffffffffffffff8211176115a057604052565b67ffffffffffffffff81116115a057601f01601f191660200190565b81601f8201121561163b5780359061160b826115d8565b9261161960405194856115b6565b8284526020838301011161163b57816000926020809301838601378301015290565b600080fd5b90604060031983011261163b57600435916024359067ffffffffffffffff821161163b57611670916004016115f4565b90565b60208183031261163b5780519067ffffffffffffffff821161163b570181601f8201121561163b5780516116a6816115d8565b926116b460405194856115b6565b8184526020828401011161163b576116709160208085019101611535565b9081602091031261163b575160ff8116810361163b5790565b906116f5826115d8565b61170260405191826115b6565b8281528092611713601f19916115d8565b0190602036910137565b8051156118655760405161173081611584565b604081527f4142434445464748494a4b4c4d4e4f505152535455565758595a61626364656660208201527f6768696a6b6c6d6e6f707172737475767778797a303132333435363738392b2f6040820152815160029283820180921161184f576003918290046001600160fe1b038116810361184f576117b2908594951b6116eb565b936020850193829183518401925b8381106117fe57505050505106806001146117eb576002146117e0575090565b603d90600019015390565b50603d9081600019820153600119015390565b85600491979293949701918251600190603f9082828260121c16880101518453828282600c1c16880101518385015382828260061c16880101518885015316850101518782015301959291906117c0565b634e487b7160e01b600052601160045260246000fd5b506040516020810181811067ffffffffffffffff8211176115a0576040526000815290565b806000917a184f03e93ff9f4daa797ed6e38ed64bf6a1f010000000000000000808210156119bf575b506d04ee2d6d415b85acef8100000000808310156119b0575b50662386f26fc10000808310156119a1575b506305f5e10080831015611992575b5061271080831015611983575b506064821015611973575b600a80921015611969575b6001908160216119218287016116eb565b95860101905b611933575b5050505090565b600019019083906f181899199a1a9b1b9c1cb0b131b232b360811b8282061a83530491821561196457919082611927565b61192c565b9160010191611910565b9190606460029104910191611905565b600491939204910191386118fa565b600891939204910191386118ed565b601091939204910191386118de565b602091939204910191386118cc565b6040935081049150386118b3565b6040516306fdde0360e01b815290600082600481335afa918215611a7157600092611a4b575b506022611a026116709261188a565b926040519381611a1c869351809260208087019101611535565b820161202360f01b6020820152611a3c8251809360208785019101611535565b010360028101845201826115b6565b611a02611a6860229261167094953d8091833e610ac281836115b6565b939250506119f3565b6040513d6000823e3d90fd5b90600182811c92168015611aad575b6020831014611a9757565b634e487b7160e01b600052602260045260246000fd5b91607f1691611a8c565b90600091600190815491611aca83611a7d565b92818116908115611b205750600114611ae257505050565b809192939450600052600080516020611f35833981519152906000915b848310611b0d575050500190565b8181602092548587015201920191611aff565b60ff191683525050811515909102019150565b600092918154611b4281611a7d565b92600191808316908115611b9b5750600114611b5f575b50505050565b90919293945060005260209081600020906000915b858310611b8a5750505050019038808080611b59565b805485840152918301918101611b74565b60ff1916845250505081151590910201915038808080611b59565b611bbf33611cc1565b6040519081602091611bd2838301611ab7565b68636f6e74726163742f60b81b8152611bf48251809386600985019101611535565b01602f60f81b600982015260009060035493611c0f85611a7d565b94600190818116908115611c9e5750600114611c3c575b505050611670925003601f1981018352826115b6565b9091925060036000527fc2575a0e9e593c00f959f8c92f12db2869c3395a3b0502d05e2516446f71f85b906000915b868310611c87575050505061167092600a910101388080611c26565b8054838601600a0152879550918301918101611c6b565b915050600a935061167095915060ff191683830152801515020101388080611c26565b604051906001600160a01b0316611cd782611584565b602a82526020908183016040368237835115611dce57603090538251600190811015611dce57607860218501536029905b808211611d5c575050611d19575090565b6064906040519062461bcd60e51b825280600483015260248201527f537472696e67733a20686578206c656e67746820696e73756666696369656e746044820152fd5b9091600f81166010811015611db9578551841015611db9576f181899199a1a9b1b9c1cb0b131b232b360811b901a85840185015360041c918015611da4576000190190611d08565b60246000634e487b7160e01b81526011600452fd5b60246000634e487b7160e01b81526032600452fd5b634e487b7160e01b600052603260045260246000fd5b611670601191611df330611cc1565b906000526006602052611e70604060002060056020526001611e62604060002092604051978896611e2660208901611ab7565b692f636f6e74726163742f60b01b8152611e4a825180936020600a85019101611535565b01662f746f6b656e2f60c81b600a8201520190611b33565b602f60f81b81520190611b33565b03601f1981018352826115b6565b6116706011601092611e8f33611cc1565b906000526006602052611f0560406000206040519586936e7b70726f706572746965735f75726960881b6020860152611eca602f8601611ab7565b68636f6e74726163742f60b81b8152611eed825180936020600985019101611535565b01662f746f6b656e2f60c81b60098201520190611b33565b6f17b83937b832b93a34b2b9973539b7b760811b8152607d60f81b601082015203600e198101845201826115b656feb10e2d527612073b26eecdfd717e6a320cf44b4afac2b0732d9fcbe2b7fa0cf6a26469706673582212202c467a4a676d76e370970da3ab744733f2ec2a4e8cd3718f3dd576d976390f8864736f6c63430008110033bb8a6a4669ba250d26cd7a459eca9d215f8307e33aebe50379bc5a3617ec3444290decd9548b62a8d60345a988386fc84ba6bc95484008f6362f93160ef3e563",
  "linkReferences": {},
  "deployedLinkReferences": {}
}