{
  "_format": "hh-sol-artifact-1",
  "contractName": "SlotRegistry",
  "sourceName": "contracts/SlotRegistry.sol",
  "abi": [
    {
      "inputs": [
        {
          "internalType": "uint256",
          "name": "slotId",
          "type": "uint256"
        },
        {
          "internalType": "string",
          "name": "slotName_",
          "type": "string"
        },
        {
          "internalType": "string",
          "name": "slotURI_",
          "type": "string"
        },
        {
          "internalType": "string",
          "name": "description_",
          "type": "string"
        }
      ],
      "name": "addSlot",
      "outputs": [
        {
          "internalType": "bool",
          "name": "",
          "type": "bool"
        }
      ],
      "stateMutability": "nonpayable",
      "type": "function"
    },
    {
      "inputs": [
        {
          "internalType": "uint256",
          "name": "slotId",
          "type": "uint256"
        }
      ],
      "name": "exists",
      "outputs": [
        {
          "internalType": "bool",
          "name": "",
          "type": "bool"
        }
      ],
      "stateMutability": "view",
      "type": "function"
    },
    {
      "inputs": [
        {
          "internalType": "uint256",
          "name": "slotId_",
          "type": "uint256"
        }
      ],
      "name": "slotDescription",
      "outputs": [
        {
          "internalType": "string",
          "name": "",
          "type": "string"
        }
      ],
      "stateMutability": "view",
      "type": "function"
    },
    {
      "inputs": [
        {
          "internalType": "uint256",
          "name": "slotId_",
          "type": "uint256"
        }
      ],
      "name": "slotName",
      "outputs": [
        {
          "internalType": "string",
          "name": "",
          "type": "string"
        }
      ],
      "stateMutability": "view",
      "type": "function"
    },
    {
      "inputs": [
        {
          "internalType": "uint256",
          "name": "slotId_",
          "type": "uint256"
        }
      ],
      "name": "slotURI",
      "outputs": [
        {
          "internalType": "string",
          "name": "",
          "type": "string"
        }
      ],
      "stateMutability": "view",
      "type": "function"
    }
  ],
  "bytecode": "0x608060405234801561001057600080fd5b5061064e806100206000396000f3fe608060405234801561001057600080fd5b50600436106100575760003560e01c806309c3dd871461005c57806312f4e06d146100855780634f558e79146100a8578063bc74ebb9146100bb578063ec327a21146100ce575b600080fd5b61006f61006a366004610303565b6100e1565b60405161007c919061031c565b60405180910390f35b61009861009336600461040d565b6101af565b604051901515815260200161007c565b6100986100b6366004610303565b61025d565b61006f6100c9366004610303565b610283565b61006f6100dc366004610303565b6102c3565b60606100ec8261025d565b6101115760405162461bcd60e51b81526004016101089061049f565b60405180910390fd5b6000828152602081905260409020805461012a906104cf565b80601f0160208091040260200160405190810160405280929190818152602001828054610156906104cf565b80156101a35780601f10610178576101008083540402835291602001916101a3565b820191906000526020600020905b81548152906001019060200180831161018657829003601f168201915b50505050509050919050565b60006101ba8561025d565b156102075760405162461bcd60e51b815260206004820152601760248201527f536c6f7420616c726561647920726567697374657265640000000000000000006044820152606401610108565b600085815260208190526040902061021f8482610558565b5060008581526002602052604090206102388382610558565b5060008581526001602052604090206102518582610558565b50600195945050505050565b60008181526020819052604081208054829190610279906104cf565b9050119050919050565b606061028e8261025d565b6102aa5760405162461bcd60e51b81526004016101089061049f565b6000828152600260205260409020805461012a906104cf565b60606102ce8261025d565b6102ea5760405162461bcd60e51b81526004016101089061049f565b6000828152600160205260409020805461012a906104cf565b60006020828403121561031557600080fd5b5035919050565b600060208083528351808285015260005b818110156103495785810183015185820160400152820161032d565b506000604082860101526040601f19601f8301168501019250505092915050565b634e487b7160e01b600052604160045260246000fd5b600082601f83011261039157600080fd5b813567ffffffffffffffff808211156103ac576103ac61036a565b604051601f8301601f19908116603f011681019082821181831017156103d4576103d461036a565b816040528381528660208588010111156103ed57600080fd5b836020870160208301376000602085830101528094505050505092915050565b6000806000806080858703121561042357600080fd5b84359350602085013567ffffffffffffffff8082111561044257600080fd5b61044e88838901610380565b9450604087013591508082111561046457600080fd5b61047088838901610380565b9350606087013591508082111561048657600080fd5b5061049387828801610380565b91505092959194509250565b60208082526016908201527514db1bdd081a5cc81b9bdd081c9959da5cdd195c995960521b604082015260600190565b600181811c908216806104e357607f821691505b60208210810361050357634e487b7160e01b600052602260045260246000fd5b50919050565b601f82111561055357600081815260208120601f850160051c810160208610156105305750805b601f850160051c820191505b8181101561054f5782815560010161053c565b5050505b505050565b815167ffffffffffffffff8111156105725761057261036a565b6105868161058084546104cf565b84610509565b602080601f8311600181146105bb57600084156105a35750858301515b600019600386901b1c1916600185901b17855561054f565b600085815260208120601f198616915b828110156105ea578886015182559484019460019091019084016105cb565b50858210156106085787850151600019600388901b60f8161c191681555b5050505050600190811b0190555056fea2646970667358221220cdbebcdda4a3b86e6fdc6b02ed23e04c8d784e269d6b29b3ac0c0341341b529f64736f6c63430008110033",
  "linkReferences": {},
  "deployedLinkReferences": {}
}