{
  "_format": "hh-sol-artifact-1",
  "contractName": "SlotRegistry",
  "sourceName": "contracts/SlotRegistry.sol",
  "abi": [
    {
      "inputs": [
        {
          "internalType": "string",
          "name": "name_",
          "type": "string"
        },
        {
          "internalType": "string",
          "name": "symbol_",
          "type": "string"
        },
        {
          "internalType": "string",
          "name": "baseuri_",
          "type": "string"
        },
        {
          "internalType": "string",
          "name": "contractDescription_",
          "type": "string"
        },
        {
          "internalType": "string",
          "name": "contractImage_",
          "type": "string"
        },
        {
          "internalType": "uint8",
          "name": "decimals_",
          "type": "uint8"
        }
      ],
      "stateMutability": "nonpayable",
      "type": "constructor"
    },
    {
      "anonymous": false,
      "inputs": [
        {
          "indexed": true,
          "internalType": "address",
          "name": "_owner",
          "type": "address"
        },
        {
          "indexed": true,
          "internalType": "address",
          "name": "_approved",
          "type": "address"
        },
        {
          "indexed": true,
          "internalType": "uint256",
          "name": "_tokenId",
          "type": "uint256"
        }
      ],
      "name": "Approval",
      "type": "event"
    },
    {
      "anonymous": false,
      "inputs": [
        {
          "indexed": true,
          "internalType": "address",
          "name": "_owner",
          "type": "address"
        },
        {
          "indexed": true,
          "internalType": "address",
          "name": "_operator",
          "type": "address"
        },
        {
          "indexed": false,
          "internalType": "bool",
          "name": "_approved",
          "type": "bool"
        }
      ],
      "name": "ApprovalForAll",
      "type": "event"
    },
    {
      "anonymous": false,
      "inputs": [
        {
          "indexed": true,
          "internalType": "uint256",
          "name": "_tokenId",
          "type": "uint256"
        },
        {
          "indexed": true,
          "internalType": "address",
          "name": "_operator",
          "type": "address"
        },
        {
          "indexed": false,
          "internalType": "uint256",
          "name": "_value",
          "type": "uint256"
        }
      ],
      "name": "ApprovalValue",
      "type": "event"
    },
    {
      "anonymous": false,
      "inputs": [
        {
          "indexed": false,
          "internalType": "address",
          "name": "contractAddress",
          "type": "address"
        }
      ],
      "name": "MetadataDescriptor",
      "type": "event"
    },
    {
      "anonymous": false,
      "inputs": [
        {
          "indexed": false,
          "internalType": "uint256",
          "name": "slotId",
          "type": "uint256"
        },
        {
          "indexed": false,
          "internalType": "string",
          "name": "slotName",
          "type": "string"
        }
      ],
      "name": "NewSlot",
      "type": "event"
    },
    {
      "anonymous": false,
      "inputs": [
        {
          "indexed": true,
          "internalType": "address",
          "name": "metadataDescriptor",
          "type": "address"
        }
      ],
      "name": "SetMetadataDescriptor",
      "type": "event"
    },
    {
      "anonymous": false,
      "inputs": [
        {
          "indexed": true,
          "internalType": "uint256",
          "name": "_tokenId",
          "type": "uint256"
        },
        {
          "indexed": true,
          "internalType": "uint256",
          "name": "_oldSlot",
          "type": "uint256"
        },
        {
          "indexed": true,
          "internalType": "uint256",
          "name": "_newSlot",
          "type": "uint256"
        }
      ],
      "name": "SlotChanged",
      "type": "event"
    },
    {
      "anonymous": false,
      "inputs": [
        {
          "indexed": true,
          "internalType": "address",
          "name": "_from",
          "type": "address"
        },
        {
          "indexed": true,
          "internalType": "address",
          "name": "_to",
          "type": "address"
        },
        {
          "indexed": true,
          "internalType": "uint256",
          "name": "_tokenId",
          "type": "uint256"
        }
      ],
      "name": "Transfer",
      "type": "event"
    },
    {
      "anonymous": false,
      "inputs": [
        {
          "indexed": true,
          "internalType": "uint256",
          "name": "_fromTokenId",
          "type": "uint256"
        },
        {
          "indexed": true,
          "internalType": "uint256",
          "name": "_toTokenId",
          "type": "uint256"
        },
        {
          "indexed": false,
          "internalType": "uint256",
          "name": "_value",
          "type": "uint256"
        }
      ],
      "name": "TransferValue",
      "type": "event"
    },
    {
      "inputs": [
        {
          "internalType": "uint256",
          "name": "tokenId_",
          "type": "uint256"
        },
        {
          "internalType": "address",
          "name": "operator_",
          "type": "address"
        }
      ],
      "name": "allowance",
      "outputs": [
        {
          "internalType": "uint256",
          "name": "",
          "type": "uint256"
        }
      ],
      "stateMutability": "view",
      "type": "function"
    },
    {
      "inputs": [
        {
          "internalType": "address",
          "name": "to_",
          "type": "address"
        },
        {
          "internalType": "uint256",
          "name": "tokenId_",
          "type": "uint256"
        }
      ],
      "name": "approve",
      "outputs": [],
      "stateMutability": "payable",
      "type": "function"
    },
    {
      "inputs": [
        {
          "internalType": "uint256",
          "name": "tokenId_",
          "type": "uint256"
        },
        {
          "internalType": "address",
          "name": "to_",
          "type": "address"
        },
        {
          "internalType": "uint256",
          "name": "value_",
          "type": "uint256"
        }
      ],
      "name": "approve",
      "outputs": [],
      "stateMutability": "payable",
      "type": "function"
    },
    {
      "inputs": [
        {
          "internalType": "address",
          "name": "contract_",
          "type": "address"
        },
        {
          "internalType": "uint256",
          "name": "slotId_",
          "type": "uint256"
        }
      ],
      "name": "approveContractForSlot",
      "outputs": [],
      "stateMutability": "nonpayable",
      "type": "function"
    },
    {
      "inputs": [
        {
          "internalType": "address",
          "name": "owner_",
          "type": "address"
        }
      ],
      "name": "balanceOf",
      "outputs": [
        {
          "internalType": "uint256",
          "name": "balance",
          "type": "uint256"
        }
      ],
      "stateMutability": "view",
      "type": "function"
    },
    {
      "inputs": [
        {
          "internalType": "uint256",
          "name": "tokenId_",
          "type": "uint256"
        }
      ],
      "name": "balanceOf",
      "outputs": [
        {
          "internalType": "uint256",
          "name": "",
          "type": "uint256"
        }
      ],
      "stateMutability": "view",
      "type": "function"
    },
    {
      "inputs": [
        {
          "internalType": "uint256",
          "name": "networkTokenId_",
          "type": "uint256"
        }
      ],
      "name": "contractOf",
      "outputs": [
        {
          "internalType": "address",
          "name": "",
          "type": "address"
        }
      ],
      "stateMutability": "view",
      "type": "function"
    },
    {
      "inputs": [],
      "name": "contractURI",
      "outputs": [
        {
          "internalType": "string",
          "name": "",
          "type": "string"
        }
      ],
      "stateMutability": "view",
      "type": "function"
    },
    {
      "inputs": [
        {
          "internalType": "uint256",
          "name": "slotId",
          "type": "uint256"
        }
      ],
      "name": "exists",
      "outputs": [
        {
          "internalType": "bool",
          "name": "",
          "type": "bool"
        }
      ],
      "stateMutability": "view",
      "type": "function"
    },
    {
      "inputs": [
        {
          "internalType": "uint256",
          "name": "tokenId_",
          "type": "uint256"
        }
      ],
      "name": "getApproved",
      "outputs": [
        {
          "internalType": "address",
          "name": "",
          "type": "address"
        }
      ],
      "stateMutability": "view",
      "type": "function"
    },
    {
      "inputs": [
        {
          "internalType": "address",
          "name": "owner_",
          "type": "address"
        },
        {
          "internalType": "address",
          "name": "operator_",
          "type": "address"
        }
      ],
      "name": "isApprovedForAll",
      "outputs": [
        {
          "internalType": "bool",
          "name": "",
          "type": "bool"
        }
      ],
      "stateMutability": "view",
      "type": "function"
    },
    {
      "inputs": [],
      "name": "metadataDescriptor",
      "outputs": [
        {
          "internalType": "contract IERC3525MetadataDescriptor",
          "name": "",
          "type": "address"
        }
      ],
      "stateMutability": "view",
      "type": "function"
    },
    {
      "inputs": [
        {
          "internalType": "address",
          "name": "owner_",
          "type": "address"
        },
        {
          "internalType": "uint256",
          "name": "slot_",
          "type": "uint256"
        },
        {
          "internalType": "uint256",
          "name": "value_",
          "type": "uint256"
        }
      ],
      "name": "mint",
      "outputs": [
        {
          "internalType": "uint256",
          "name": "",
          "type": "uint256"
        }
      ],
      "stateMutability": "nonpayable",
      "type": "function"
    },
    {
      "inputs": [
        {
          "internalType": "address",
          "name": "owner_",
          "type": "address"
        },
        {
          "internalType": "uint256",
          "name": "slot_",
          "type": "uint256"
        },
        {
          "internalType": "uint256",
          "name": "value_",
          "type": "uint256"
        },
        {
          "internalType": "uint256",
          "name": "adjDiscountBasisPts_",
          "type": "uint256"
        }
      ],
      "name": "mintWithDiscount",
      "outputs": [
        {
          "internalType": "uint256",
          "name": "",
          "type": "uint256"
        }
      ],
      "stateMutability": "nonpayable",
      "type": "function"
    },
    {
      "inputs": [
        {
          "internalType": "address",
          "name": "owner_",
          "type": "address"
        },
        {
          "internalType": "uint256",
          "name": "slot_",
          "type": "uint256"
        },
        {
          "internalType": "uint256",
          "name": "value_",
          "type": "uint256"
        },
        {
          "internalType": "uint256",
          "name": "adjTVRate_",
          "type": "uint256"
        }
      ],
      "name": "mintWithTVRate",
      "outputs": [
        {
          "internalType": "uint256",
          "name": "",
          "type": "uint256"
        }
      ],
      "stateMutability": "nonpayable",
      "type": "function"
    },
    {
      "inputs": [],
      "name": "name",
      "outputs": [
        {
          "internalType": "string",
          "name": "",
          "type": "string"
        }
      ],
      "stateMutability": "view",
      "type": "function"
    },
    {
      "inputs": [
        {
          "internalType": "uint256",
          "name": "tokenId_",
          "type": "uint256"
        }
      ],
      "name": "ownerOf",
      "outputs": [
        {
          "internalType": "address",
          "name": "owner_",
          "type": "address"
        }
      ],
      "stateMutability": "view",
      "type": "function"
    },
    {
      "inputs": [
        {
          "internalType": "address",
          "name": "adminAddress_",
          "type": "address"
        },
        {
          "internalType": "uint256",
          "name": "slot_",
          "type": "uint256"
        }
      ],
      "name": "registerContract",
      "outputs": [],
      "stateMutability": "nonpayable",
      "type": "function"
    },
    {
      "inputs": [
        {
          "internalType": "uint256",
          "name": "slotId_",
          "type": "uint256"
        },
        {
          "internalType": "string",
          "name": "slotName_",
          "type": "string"
        },
        {
          "internalType": "string",
          "name": "slotURI_",
          "type": "string"
        },
        {
          "internalType": "string",
          "name": "description_",
          "type": "string"
        },
        {
          "internalType": "enum SlotRegistry.SlotType",
          "name": "type_",
          "type": "uint8"
        }
      ],
      "name": "registerSlot",
      "outputs": [
        {
          "internalType": "bool",
          "name": "",
          "type": "bool"
        }
      ],
      "stateMutability": "nonpayable",
      "type": "function"
    },
    {
      "inputs": [
        {
          "internalType": "address",
          "name": "from_",
          "type": "address"
        },
        {
          "internalType": "address",
          "name": "to_",
          "type": "address"
        },
        {
          "internalType": "uint256",
          "name": "tokenId_",
          "type": "uint256"
        }
      ],
      "name": "safeTransferFrom",
      "outputs": [],
      "stateMutability": "payable",
      "type": "function"
    },
    {
      "inputs": [
        {
          "internalType": "address",
          "name": "from_",
          "type": "address"
        },
        {
          "internalType": "address",
          "name": "to_",
          "type": "address"
        },
        {
          "internalType": "uint256",
          "name": "tokenId_",
          "type": "uint256"
        },
        {
          "internalType": "bytes",
          "name": "data_",
          "type": "bytes"
        }
      ],
      "name": "safeTransferFrom",
      "outputs": [],
      "stateMutability": "payable",
      "type": "function"
    },
    {
      "inputs": [
        {
          "internalType": "address",
          "name": "operator_",
          "type": "address"
        },
        {
          "internalType": "bool",
          "name": "approved_",
          "type": "bool"
        }
      ],
      "name": "setApprovalForAll",
      "outputs": [],
      "stateMutability": "nonpayable",
      "type": "function"
    },
    {
      "inputs": [
        {
          "internalType": "uint256",
          "name": "slotId_",
          "type": "uint256"
        }
      ],
      "name": "slotDescription",
      "outputs": [
        {
          "internalType": "string",
          "name": "",
          "type": "string"
        }
      ],
      "stateMutability": "view",
      "type": "function"
    },
    {
      "inputs": [
        {
          "internalType": "uint256",
          "name": "slotId_",
          "type": "uint256"
        }
      ],
      "name": "slotName",
      "outputs": [
        {
          "internalType": "string",
          "name": "",
          "type": "string"
        }
      ],
      "stateMutability": "view",
      "type": "function"
    },
    {
      "inputs": [
        {
          "internalType": "uint256",
          "name": "tokenId_",
          "type": "uint256"
        }
      ],
      "name": "slotOf",
      "outputs": [
        {
          "internalType": "uint256",
          "name": "",
          "type": "uint256"
        }
      ],
      "stateMutability": "view",
      "type": "function"
    },
    {
      "inputs": [
        {
          "internalType": "uint256",
          "name": "tokenId_",
          "type": "uint256"
        }
      ],
      "name": "slotOfToken",
      "outputs": [
        {
          "internalType": "uint256",
          "name": "",
          "type": "uint256"
        }
      ],
      "stateMutability": "view",
      "type": "function"
    },
    {
      "inputs": [
        {
          "internalType": "uint256",
          "name": "slotId_",
          "type": "uint256"
        }
      ],
      "name": "slotURI",
      "outputs": [
        {
          "internalType": "string",
          "name": "",
          "type": "string"
        }
      ],
      "stateMutability": "view",
      "type": "function"
    },
    {
      "inputs": [
        {
          "internalType": "bytes4",
          "name": "interfaceId",
          "type": "bytes4"
        }
      ],
      "name": "supportsInterface",
      "outputs": [
        {
          "internalType": "bool",
          "name": "",
          "type": "bool"
        }
      ],
      "stateMutability": "view",
      "type": "function"
    },
    {
      "inputs": [],
      "name": "symbol",
      "outputs": [
        {
          "internalType": "string",
          "name": "",
          "type": "string"
        }
      ],
      "stateMutability": "view",
      "type": "function"
    },
    {
      "inputs": [
        {
          "internalType": "uint256",
          "name": "toTokenId_",
          "type": "uint256"
        }
      ],
      "name": "timeValueRate",
      "outputs": [
        {
          "internalType": "uint256",
          "name": "",
          "type": "uint256"
        }
      ],
      "stateMutability": "view",
      "type": "function"
    },
    {
      "inputs": [
        {
          "internalType": "uint256",
          "name": "index_",
          "type": "uint256"
        }
      ],
      "name": "tokenByIndex",
      "outputs": [
        {
          "internalType": "uint256",
          "name": "",
          "type": "uint256"
        }
      ],
      "stateMutability": "view",
      "type": "function"
    },
    {
      "inputs": [
        {
          "internalType": "uint256",
          "name": "toTokenId_",
          "type": "uint256"
        }
      ],
      "name": "tokenDiscount",
      "outputs": [
        {
          "internalType": "uint256",
          "name": "",
          "type": "uint256"
        }
      ],
      "stateMutability": "view",
      "type": "function"
    },
    {
      "inputs": [
        {
          "internalType": "address",
          "name": "owner_",
          "type": "address"
        },
        {
          "internalType": "uint256",
          "name": "index_",
          "type": "uint256"
        }
      ],
      "name": "tokenOfOwnerByIndex",
      "outputs": [
        {
          "internalType": "uint256",
          "name": "",
          "type": "uint256"
        }
      ],
      "stateMutability": "view",
      "type": "function"
    },
    {
      "inputs": [
        {
          "internalType": "uint256",
          "name": "tokenId_",
          "type": "uint256"
        }
      ],
      "name": "tokenURI",
      "outputs": [
        {
          "internalType": "string",
          "name": "",
          "type": "string"
        }
      ],
      "stateMutability": "view",
      "type": "function"
    },
    {
      "inputs": [],
      "name": "totalSupply",
      "outputs": [
        {
          "internalType": "uint256",
          "name": "",
          "type": "uint256"
        }
      ],
      "stateMutability": "view",
      "type": "function"
    },
    {
      "inputs": [
        {
          "internalType": "uint256",
          "name": "fromTokenId_",
          "type": "uint256"
        },
        {
          "internalType": "address",
          "name": "to_",
          "type": "address"
        },
        {
          "internalType": "uint256",
          "name": "value_",
          "type": "uint256"
        }
      ],
      "name": "transferFrom",
      "outputs": [
        {
          "internalType": "uint256",
          "name": "",
          "type": "uint256"
        }
      ],
      "stateMutability": "payable",
      "type": "function"
    },
    {
      "inputs": [
        {
          "internalType": "address",
          "name": "from_",
          "type": "address"
        },
        {
          "internalType": "address",
          "name": "to_",
          "type": "address"
        },
        {
          "internalType": "uint256",
          "name": "tokenId_",
          "type": "uint256"
        }
      ],
      "name": "transferFrom",
      "outputs": [],
      "stateMutability": "payable",
      "type": "function"
    },
    {
      "inputs": [
        {
          "internalType": "uint256",
          "name": "fromTokenId_",
          "type": "uint256"
        },
        {
          "internalType": "uint256",
          "name": "toTokenId_",
          "type": "uint256"
        },
        {
          "internalType": "uint256",
          "name": "value_",
          "type": "uint256"
        }
      ],
      "name": "transferFrom",
      "outputs": [],
      "stateMutability": "payable",
      "type": "function"
    },
    {
      "inputs": [],
      "name": "valueDecimals",
      "outputs": [
        {
          "internalType": "uint8",
          "name": "",
          "type": "uint8"
        }
      ],
      "stateMutability": "view",
      "type": "function"
    }
  ],
  "bytecode": "0x608060405234620006435762005c67803803806200001d8162000648565b92833981019060c081830312620006435780516001600160401b0381116200064357826200004d91830162000693565b60208201519092906001600160401b0381116200064357816200007291840162000693565b60408301519093906001600160401b0381116200064357826200009791850162000693565b60608401519094906001600160401b038111620006435783620000bc91860162000693565b60808501519093906001600160401b038111620006435760a091620000e391870162000693565b9401519160ff8316830362000643578051906001600160401b0382116200037e57819062000113600054620006ea565b601f8111620005e0575b50602090601f831160011462000568576000926200055c575b50508160011b916000199060031b1c1916176000555b8051906001600160401b0382116200037e576200016b600154620006ea565b601f8111620004f2575b50602090601f83116001146200047e5760ff9392916000918362000472575b50508160011b916000199060031b1c1916176001555b1660ff196002541617600255825160018060401b0381116200037e57620001d3601154620006ea565b601f811162000419575b506020601f8211600114620003a0578192939460009262000394575b50508160011b916000199060031b1c1916176011555b604051906124ae80830191906001600160401b038311848410176200037e57620037798439608082526000906011546200024981620006ea565b908160808601526001811690816000146200035857506001146200030b575b50936200028382859685620002929503602087015262000727565b90838203604085015262000727565b9060603091015203906000f08015620002ff57600880546001600160a01b0319166001600160a01b0390921691821790556040519081527f9ac4f8025631594629895b778dc5ee88d01673a254a2291f6b6b174ad25230ca90602090a160405161302a90816200074f8239f35b6040513d6000823e3d90fd5b6011600090815291925060008051602062005c278339815191525b81831062000340575050820160a001906200028362000268565b805460a0848701015260209092019160010162000326565b60ff191660a08681019190915291151560051b8501909101925062000283905062000268565b634e487b7160e01b600052604160045260246000fd5b015190503880620001f9565b6011600090815260008051602062005c278339815191529190601f198416905b8181106200040057509583600195969710620003e6575b505050811b016011556200020f565b015160001960f88460031b161c19169055388080620003d7565b9192602060018192868b015181550194019201620003c0565b601160005260008051602062005c27833981519152601f830160051c8101916020841062000467575b601f0160051c01905b8181106200045a5750620001dd565b600081556001016200044b565b909150819062000442565b01519050388062000194565b90600160005260206000209160005b601f1985168110620004d9575091839160019360ff9695601f19811610620004bf575b505050811b01600155620001aa565b015160001960f88460031b161c19169055388080620004b0565b919260206001819286850151815501940192016200048d565b60016000527fb10e2d527612073b26eecdfd717e6a320cf44b4afac2b0732d9fcbe2b7fa0cf6601f840160051c8101916020851062000551575b601f0160051c01905b81811062000544575062000175565b6000815560010162000535565b90915081906200052c565b01519050388062000136565b600080805260008051602062005c478339815191529350601f198516905b818110620005c75750908460019594939210620005ad575b505050811b016000556200014c565b015160001960f88460031b161c191690553880806200059e565b9293602060018192878601518155019501930162000586565b6000805290915060008051602062005c47833981519152601f840160051c8101916020851062000638575b90601f859493920160051c01905b8181106200062857506200011d565b6000815584935060010162000619565b90915081906200060b565b600080fd5b6040519190601f01601f191682016001600160401b038111838210176200037e57604052565b60005b838110620006825750506000910152565b818101518382015260200162000671565b81601f82011215620006435780516001600160401b0381116200037e57620006c5601f8201601f191660200162000648565b92818452602082840101116200064357620006e791602080850191016200066e565b90565b90600182811c921680156200071c575b60208310146200070657565b634e487b7160e01b600052602260045260246000fd5b91607f1691620006fa565b9060209162000742815180928185528580860191016200066e565b601f01601f191601019056fe608080604052600436101561001357600080fd5b60003560e01c90816301ffc9a714611a4f5750806306fdde03146119ac578063081812fc1461198e578063095ea7b31461185357806309c3dd871461180e5780630a884318146117e55780630f485c02146114d4578063152f0eb5146113d0578063156e29f6146112f257806318160ddd146112d457806323b872dd146112b0578063263f3e7e146112925780632d2a2465146112555780632f745c59146111aa578063310ed7f01461108857806339ace21f1461105c5780633e7e86691461103b57806342842e0e1461101857806349e8629414610ee95780634f558e7914610ec15780634f6ccce714610e3d57806356293c4914610e055780636352211e14610dd557806370a0823114610db2578063840f711314610d895780638cb0a51114610cdc5780639448bddb14610c9c57806395d89b4114610bd15780639cc7f70814610bb3578063a22cb46514610ad5578063b88d4fde14610a79578063bc74ebb914610a34578063c87b56dd14610999578063cd5a2c391461096d578063e345e0bc1461093f578063e42568f31461034c578063e8a3d48514610293578063e985e9c51461023a5763ec327a21146101cc57600080fd5b34610235576020366003190112610235576004356101f16101ec826127e8565b6127a3565b600052600960205261023161021661021d600260406000200160405192838092611d04565b0382611c39565b604051918291602083526020830190611b25565b0390f35b600080fd5b3461023557604036600319011261023557610253611b4a565b61025b611b60565b9060018060a01b03809116600052600760205260026040600020019116600052602052602060ff604060002054166040519015158152f35b346102355760003660031901126102355760006040516102b281611c1e565b526008546001600160a01b0316801561033357600060049160405192838092631c97e82760e21b82525afa80156103275761023191600091610304575b50604051918291602083526020830190611b25565b61032191503d806000833e6103198183611c39565b810190611ec3565b826102ef565b6040513d6000823e3d90fd5b5061023160405161034381611c1e565b6000815261021d565b346102355760a0366003190112610235576024356001600160401b0381116102355761037c903690600401611cac565b6044356001600160401b0381116102355761039b903690600401611cac565b6064356001600160401b038111610235576103ba903690600401611cac565b9160036084351015610235576103d16004356127e8565b6108fa576040516103e181611c1e565b600081526040519260e084018481106001600160401b038211176106b95760405233845260208401946004358652604085019384526060850152608084015260843560a084015260c0830152600435600052600960205260406000209260018060a01b038351166001600160601b0360a01b855416178455516001840155519182516001600160401b0381116106b95761047e6002830154611cca565b601f81116108c5575b506020601f8211600114610857578192939460009261084c575b50508160011b916000199060031b1c19161760028201555b60608201519182516001600160401b0381116106b9576104dc6003840154611cca565b601f8111610817575b506020601f82116001146107a9578192939460009261079e575b50508160011b916000199060031b1c19161760038301555b60808101519182516001600160401b0381116106b95761053a6004830154611cca565b601f811161075e575b506020601f82116001146106f057819293946000926106e5575b50508160011b916000199060031b1c19161760048201555b60a0820151600582019160038210156106cf5760c09260069260ff80198354169116179055019101518051906001600160401b0382116106b9576020906105bc83856125c1565b019160005260206000209160005b82811061069c57600435600052600960205261061360043560016040600020015414601060205260406000203360005260205260406000209060ff801983541691151516179055565b60043560005260096020527f293112f57e1499e465d2297b938e4b29a3ab8fe5e214951585a56e3d4397671660016040600020015460026040600020019061066d6040519283928352604060208401526040830190611d04565b0390a16004356000526010602052604060002033600052602052602060ff604060002054166040519015158152f35b81516001600160a01b0316818501556020909101906001016105ca565b634e487b7160e01b600052604160045260246000fd5b634e487b7160e01b600052602160045260246000fd5b01519050848061055d565b6004830160005260206000209060005b601f19841681106107465750600193949583601f1981161061072d575b505050811b016004820155610575565b015160001960f88460031b161c1916905584808061071d565b9091602060018192858a015181550193019101610700565b61078e90600484016000526020600020601f840160051c81019160208510610794575b601f0160051c01906125aa565b84610543565b9091508190610781565b0151905084806104ff565b6003840160005260206000209060005b601f19841681106107ff5750600193949583601f198116106107e6575b505050811b016003830155610517565b015160001960f88460031b161c191690558480806107d6565b9091602060018192858a0151815501930191016107b9565b61084690600385016000526020600020601f840160051c8101916020851061079457601f0160051c01906125aa565b846104e5565b0151905084806104a1565b6002830160005260206000209060005b601f19841681106108ad5750600193949583601f19811610610894575b505050811b0160028201556104b9565b015160001960f88460031b161c19169055848080610884565b9091602060018192858a015181550193019101610867565b6108f490600284016000526020600020601f840160051c8101916020851061079457601f0160051c01906125aa565b84610487565b60405162461bcd60e51b815260206004820152601760248201527f536c6f7420616c726561647920726567697374657265640000000000000000006044820152606490fd5b3461023557604036600319011261023557602061096561095d611b60565b600435611f41565b604051908152f35b3461023557602036600319011261023557600435600052600e6020526020604060002054604051908152f35b34610235576020366003190112610235576004356109be6109b9826121e5565b611e15565b60006040516109cc81611c1e565b526008546001600160a01b0316908115610a23576000906024604051809481936344a5a61760e11b835260048301525afa801561032757610231916000916103045750604051918291602083526020830190611b25565b505061023160405161034381611c1e565b3461023557602036600319011261023557600435610a546101ec826127e8565b600052600960205261023161021661021d600360406000200160405192838092611d04565b608036600319011261023557610a8d611b4a565b610a95611b60565b606435916001600160401b038311610235573660238401121561023557610ac9610ad3933690602481600401359101611c75565b9160443591612052565b005b3461023557604036600319011261023557610aee611b4a565b6024359081151590818303610235576001600160a01b031691338314610b6e57610b409033600052600760205260026040600020018460005260205260406000209060ff801983541691151516179055565b6040519081527f17307eab39ab6107e8899845ad3d59bd9653f200f220920489ca2b5937696c3160203392a3005b60405162461bcd60e51b815260206004820152601a60248201527f455243333532353a20617070726f766520746f2063616c6c65720000000000006044820152606490fd5b34610235576020366003190112610235576020610965600435611deb565b346102355760003660031901126102355760405160006001805490610bf582611cca565b80855291818116908115610c755750600114610c1c575b6102318461021d81860382611c39565b600081815292507fb10e2d527612073b26eecdfd717e6a320cf44b4afac2b0732d9fcbe2b7fa0cf65b828410610c5d57505050810160200161021d82610c0c565b80546020858701810191909152909301928101610c45565b60ff191660208087019190915292151560051b8501909201925061021d9150839050610c0c565b3461023557602036600319011261023557600435610cbc6109b9826121e5565b600052600b602052602060018060a01b0360406000205416604051908152f35b610ce536611ba4565b90610cf26109b9846121e5565b610d126001600160a01b0380610d0786611e61565b1690831614156120d2565b610d1c8333612174565b15610d2a57610ad392612a20565b60405162461bcd60e51b815260206004820152603160248201527f455243333532353a20617070726f76652063616c6c6572206973206e6f74206f6044820152701ddb995c881b9bdc88185c1c1c9bdd9959607a1b6064820152608490fd5b34610235576000366003190112610235576008546040516001600160a01b039091168152602090f35b34610235576020366003190112610235576020610965610dd0611b4a565b611f72565b34610235576020366003190112610235576020610df3600435611e61565b6040516001600160a01b039091168152f35b3461023557602036600319011261023557600435610e256109b9826121e5565b600052600a6020526020604060002054604051908152f35b3461023557602036600319011261023557600435600554811015610e7057610e66602091611d9a565b5054604051908152f35b60405162461bcd60e51b815260206004820152602360248201527f455243333532353a20676c6f62616c20696e646578206f7574206f6620626f756044820152626e647360e81b6064820152608490fd5b34610235576020366003190112610235576020610edf6004356127e8565b6040519015158152f35b3461023557604036600319011261023557610f02611b4a565b602435908160005260209060108252604060002033600052825260ff6040600020541615610fbd57604051637795524560e01b8152926001600160a01b039183908590600490829086165afa93841561032757600094610f85575b506000526010825260406000209216600052526040600020600160ff19825416179055600080f35b9093508281813d8311610fb6575b610f9d8183611c39565b8101031261023557518181168103610235579284610f5d565b503d610f93565b60405162461bcd60e51b815260048101839052602d60248201527f53656e646572206e6f7420617574686f72697a656420746f20617070726f766560448201526c081bdb881d1a1a5cc81cdb1bdd609a1b6064820152608490fd5b610ad361102436611bce565b906040519261103284611c1e565b60008452612052565b3461023557600036600319011261023557602060ff60025416604051908152f35b3461023557602036600319011261023557600435600052600d6020526020604060002054604051908152f35b6060366003190112610235576004356044356024356110a96109b9846121e5565b6110b56109b9826121e5565b6110be81611deb565b9280600052600d60205260406000205482600052604060002054141560001461119a57806000526040600020549361271094850385811161116e578461110391611f21565b83600052600d602052604060002054860386811161116e576111399161112c8461113293611f21565b90611f34565b9185611f34565b9081156111845704840393841161116e57610ad3935b82600052600d602052604060002055611169838233612b9e565b612c37565b634e487b7160e01b600052601160045260246000fd5b634e487b7160e01b600052601260045260246000fd5b610ad3935060406000205461114f565b34610235576040366003190112610235576111c3611b4a565b602435906111d081611f72565b821015611205576020916111f79160018060a01b031660005260078352604060002061215c565b90546040519160031b1c8152f35b60405162461bcd60e51b815260206004820152602260248201527f455243333532353a206f776e657220696e646578206f7574206f6620626f756e604482015261647360f01b6064820152608490fd5b3461023557602061127c61126836611b76565b929391600160035401809581600355612806565b81600052600e8352604060002055604051908152f35b34610235576020366003190112610235576020610965600435611e9f565b610ad36112bc36611bce565b916112cf6112ca8433612174565b611feb565b612213565b34610235576000366003190112610235576020600554604051908152f35b346102355760603660031901126102355761130b611b4a565b6024359081600052602091600f8352604060002033600052835260ff604060002054161561137d5761134c6001600354019283600355828460443592612806565b81600052600a8352604060002055600b82526040600020336001600160601b0360a01b825416179055604051908152f35b60405162461bcd60e51b815260048101849052602560248201527f53656e646572206e6f7420617574686f72697a656420746f206d696e7420746f604482015264081cdb1bdd60da1b6064820152608490fd5b34610235576040366003190112610235576113e9611b4a565b60243590816000526020906010825260406000209060018060a01b0316600052815260ff604060002054161561146a57816000526009815261143360066040600020013390612763565b816000526009815260ff6005604060002001541660038110156106cf571561145757005b600c903360005252604060002055600080f35b6084906040519062461bcd60e51b82526004820152603960248201527f436f6e74726163742061646d696e206973206e6f7420617574686f72697a656460448201527f20746f20726567697374657220746f207468697320736c6f74000000000000006064820152fd5b6114dd36611ba4565b6114eb6109b98493946121e5565b6114f6818333612b9e565b600160035401918260035561150a81611e9f565b6001600160a01b03948086169081156117965785156117475761152c866121e5565b611702576040519661153d88611c1e565b600088526040519761154e89611c03565b8789526020988981018681528a604083016000815260608401908882528c600660808701946000865260a08801988952600554926000525280604060002055600160401b8110156106b9578060016115a99201600555611d9a565b9490946116ec576005955185555160018501555160028401558560038401915116906001600160601b0360a01b9182825416179055856004840192511690825416179055019051918251926001600160401b0384116106b957908a8392611617868d9a989c9b9997966125c1565b01916000528a6000209060005b8481106116d5575050505050839061163f82610965986124f8565b60007fddf252ad1be2c89b69c2b068fc378daa952ba7f163c4a11628f55a4df523b3ef8180a46000837fe4f48c240d3b994948aa54f3e2f5fca59263dfe1d52b6e4cf39a5d249b5ccb658280a481600052600686526116a2604060002054611d9a565b50508160007f0b2aac84f3ec956911fd78eae5311062972ff949f38412e8da39069d9f068cc688604051838152a3612c37565b83518216818401558b9850928c0192600101611624565b634e487b7160e01b600052600060045260246000fd5b60405162461bcd60e51b815260206004820152601d60248201527f455243333532353a20746f6b656e20616c7265616479206d696e7465640000006044820152606490fd5b60405162461bcd60e51b815260206004820152602160248201527f455243333532353a2063616e6e6f74206d696e74207a65726f20746f6b656e496044820152601960fa1b6064820152608490fd5b60405162461bcd60e51b815260206004820152602160248201527f455243333532353a206d696e7420746f20746865207a65726f206164647265736044820152607360f81b6064820152608490fd5b346102355760206117f861126836611b76565b81600052600d8352604060002055604051908152f35b346102355760203660031901126102355760043561182e6101ec826127e8565b600052600960205261023161021661021d600460406000200160405192838092611d04565b604036600319011261023557611867611b4a565b602435906001600160a01b03808061187e85611e61565b1692169161188e818414156120d2565b803314908115611966575b50156118fb5782600052600660205260046118b8604060002054611d9a565b500180546001600160a01b031916831790556118d383611e61565b167f8c5be1e5ebec7d5bd14f71427d1e84f3dd0314c0f7b2291e5b200ac8c7c3b925600080a4005b60405162461bcd60e51b815260206004820152603960248201527f455243333532353a20617070726f76652063616c6c6572206973206e6f74206f60448201527f776e6572206e6f7220617070726f76656420666f7220616c6c000000000000006064820152608490fd5b9050600052600760205260026040600020013360005260205260ff6040600020541684611899565b34610235576020366003190112610235576020610df3600435612129565b3461023557600036600319011261023557604051600080546119cd81611cca565b80845290600190818116908115610c7557506001146119f6576102318461021d81860382611c39565b600080805292507f290decd9548b62a8d60345a988386fc84ba6bc95484008f6362f93160ef3e5635b828410611a3757505050810160200161021d82610c0c565b80546020858701810191909152909301928101611a1f565b34610235576020366003190112610235576004359063ffffffff60e01b8216809203610235576020916301ffc9a760e01b8114908115611af1575b8115611ae0575b8115611acf575b8115611abe575b8115611aad575b5015158152f35b635b5e139f60e01b14905083611aa6565b63780e9d6360e01b81149150611a9f565b6370b0048160e11b81149150611a98565b6380ac58cd60e01b81149150611a91565b630354d60560e61b81149150611a8a565b60005b838110611b155750506000910152565b8181015183820152602001611b05565b90602091611b3e81518092818552858086019101611b02565b601f01601f1916010190565b600435906001600160a01b038216820361023557565b602435906001600160a01b038216820361023557565b6080906003190112610235576004356001600160a01b03811681036102355790602435906044359060643590565b606090600319011261023557600435906024356001600160a01b0381168103610235579060443590565b6060906003190112610235576001600160a01b0390600435828116810361023557916024359081168103610235579060443590565b60c081019081106001600160401b038211176106b957604052565b602081019081106001600160401b038211176106b957604052565b90601f801991011681019081106001600160401b038211176106b957604052565b6001600160401b0381116106b957601f01601f191660200190565b929192611c8182611c5a565b91611c8f6040519384611c39565b829481845281830111610235578281602093846000960137010152565b9080601f8301121561023557816020611cc793359101611c75565b90565b90600182811c92168015611cfa575b6020831014611ce457565b634e487b7160e01b600052602260045260246000fd5b91607f1691611cd9565b9060009291805491611d1583611cca565b918282526001938481169081600014611d775750600114611d37575b50505050565b90919394506000526020928360002092846000945b838610611d63575050505001019038808080611d31565b805485870183015294019385908201611d4c565b9294505050602093945060ff191683830152151560051b01019038808080611d31565b600554811015611dd5576006906005600052027f036b6384b5eca791c62761152d0c79bb0604c104a5fb6f4eb0703f3154bb3db00190600090565b634e487b7160e01b600052603260045260246000fd5b611df76109b9826121e5565b60005260066020526002611e0f604060002054611d9a565b50015490565b15611e1c57565b60405162461bcd60e51b815260206004820152601960248201527f455243333532353a20696e76616c696420746f6b656e204944000000000000006044820152606490fd5b611e6d6109b9826121e5565b6000526006602052611e83604060002054611d9a565b50600301546001600160a01b031690611e9d821515611e15565b565b611eab6109b9826121e5565b60005260066020526001611e0f604060002054611d9a565b602081830312610235578051906001600160401b038211610235570181601f82011215610235578051611ef581611c5a565b92611f036040519485611c39565b8184526020828401011161023557611cc79160208085019101611b02565b8181029291811591840414171561116e57565b9190820180921161116e57565b611f4d6109b9826121e5565b600052600460205260406000209060018060a01b031660005260205260406000205490565b6001600160a01b03168015611f9257600052600760205260406000205490565b60405162461bcd60e51b815260206004820152602b60248201527f455243333532353a2062616c616e636520717565727920666f7220746865207a60448201526a65726f206164647265737360a81b6064820152608490fd5b15611ff257565b60405162461bcd60e51b815260206004820152603260248201527f455243333532353a207472616e736665722063616c6c6572206973206e6f74206044820152711bdddb995c881b9bdc88185c1c1c9bdd995960721b6064820152608490fd5b906120769392916120666112ca8433612174565b612071838383612213565b612615565b1561207d57565b60405162461bcd60e51b815260206004820152602760248201527f455243333532353a207472616e7366657220746f206e6f6e204552433732315260448201526632b1b2b4bb32b960c91b6064820152608490fd5b156120d957565b60405162461bcd60e51b815260206004820152602260248201527f455243333532353a20617070726f76616c20746f2063757272656e74206f776e60448201526132b960f11b6064820152608490fd5b6121356109b9826121e5565b600052600660205261214b604060002054611d9a565b50600401546001600160a01b031690565b8054821015611dd55760005260206000200190600090565b906001600160a01b03808061218884611e61565b169316918383149384156121bb575b5083156121a5575b50505090565b6121b191929350612129565b161438808061219f565b909350600052600760205260026040600020018260005260205260ff604060002054169238612197565b600554151590816121f4575090565b809150600052600660205261220d604060002054611d9a565b50541490565b61221c83611e61565b6001600160a01b03918216919081168290036124a7578083169283156124545761224585611e9f565b5061224f85611deb565b506000918583526020906006825260409061226c82862054611d9a565b50600490810180546001600160a01b0319908116909155909189878261229183611e61565b167f8c5be1e5ebec7d5bd14f71427d1e84f3dd0314c0f7b2291e5b200ac8c7c3b9258280a48987526006855260056122cb85892054611d9a565b500180549091858988818f5b86841061241d5750505050505050805487825580612404575b505088865260068452600361230784882054611d9a565b50019081541690558585526007835281852091825493600019948581019081116123f157906123388893928661215c565b90549060031b1c9060018601908c855281815283852054926123798161235e868b61215c565b90919082549060031b600019811b9283911b16911916179055565b8552528183205589825281205581549081156123de5750928288926123da947fddf252ad1be2c89b69c2b068fc378daa952ba7f163c4a11628f55a4df523b3ef979601916123c7838361215c565b909182549160031b1b19169055556124f8565b80a4565b634e487b7160e01b865260319052602485fd5b634e487b7160e01b885260118452602488fd5b612416918852858820908101906125aa565b38806122f0565b61244a9486928b61242e878c61215c565b96905494835252209260031b1c168c5289528a8881205561259b565b8690888b8f6122d7565b60405162461bcd60e51b815260206004820152602560248201527f455243333532353a207472616e7366657220746f20746865207a65726f206164604482015264647265737360d81b6064820152608490fd5b60405162461bcd60e51b8152602060048201526024808201527f455243333532353a207472616e736665722066726f6d20696e76616c6964206f6044820152633bb732b960e11b6064820152608490fd5b600090828252600660205260036125126040842054611d9a565b500180546001600160a01b0319166001600160a01b0390921691821790558082526007602081815260408085208054878752600191909101835281862055928452528120805491600160401b83101561257a57508161235e916001611e9d959401815561215c565b634e487b7160e01b81526041600452602490fd5b9190820391821161116e57565b600019811461116e5760010190565b8181106125b5575050565b600081556001016125aa565b90600160401b81116106b9578154908083558181106125df57505050565b611e9d92600052602060002091820191016125aa565b9081602091031261023557516001600160e01b0319811681036102355790565b92939290803b1561275a579360009161266c9560405180948193630a85bd0160e11b9788845233600485015260018060a01b0380921660248501526044840152608060648401528260209a8b976084830190611b25565b0393165af16000918161272b575b5061271c57833d15612714573d9061269182611c5a565b9161269f6040519384611c39565b82523d60008284013e5b815191826127115760405162461bcd60e51b815260048101839052603260248201527f4552433732313a207472616e7366657220746f206e6f6e20455243373231526560448201527131b2b4bb32b91034b6b83632b6b2b73a32b960711b6064820152608490fd5b01fd5b6060906126a9565b6001600160e01b031916149150565b61274c919250853d8711612753575b6127448183611c39565b8101906125f5565b903861267a565b503d61273a565b50600193505050565b8054600160401b8110156106b9576127809160018201815561215c565b819291549060031b9160018060a01b039283811b93849216901b16911916179055565b156127aa57565b60405162461bcd60e51b815260206004820152601660248201527514db1bdd081a5cc81b9bdd081c9959da5cdd195c995960521b6044820152606490fd5b6000526009602052612801600260406000200154611cca565b151590565b6001600160a01b038082169594929390929086156117965784156117475761282d856121e5565b6117025760409081519361284085611c1e565b60009586865283519061285282611c03565b88825260209682898d8c8b8097018981528a850191848352606086019384528b608087019580875260a0880198895260066005549b8c948352522055600160401b881015612a0c576128ab600198898101600555611d9a565b9590956129f857906005959493929151855551888501555160028401558560038401915116906001600160601b0360a01b9182825416179055856004840192511690825416179055019051918251926001600160401b0384116129e457899061291485856125c1565b01918a52888a20908a5b8481106129d1575050505050509580979861295b827f0b2aac84f3ec956911fd78eae5311062972ff949f38412e8da39069d9f068cc698996124f8565b877fddf252ad1be2c89b69c2b068fc378daa952ba7f163c4a11628f55a4df523b3ef8180a485877fe4f48c240d3b994948aa54f3e2f5fca59263dfe1d52b6e4cf39a5d249b5ccb658280a48585526006835260026129bb82872054611d9a565b50016129c8838254611f34565b905551908152a3565b8351821683820155928a0192850161291e565b634e487b7160e01b8b52604160045260248bfd5b634e487b7160e01b8f5260048f905260248ffd5b634e487b7160e01b8e52604160045260248efd5b6001600160a01b0382169290918315612ab5577f621b050de0ad08b51d19b48b3e6df75348c4de6bdd93e81b252ca62e28265b1b9181612a6285602094612b0d565b15612a8c575b508360005260048252604060002085600052825280604060002055604051908152a3565b612aaf9085600052600684526005612aa8604060002054611d9a565b5001612763565b38612a68565b60405162461bcd60e51b815260206004820152602a60248201527f455243333532353a20617070726f76652076616c756520746f20746865207a65604482015269726f206164647265737360b01b6064820152608490fd5b6000908282526006602090808252604090612b2a82862054611d9a565b509260058094015496865b888110612b485750505050505050905090565b818852838352612b668187612b5f888c2054611d9a565b500161215c565b905460039190911b1c6001600160a01b0390811690881614612b9057612b8b9061259b565b612b35565b505050505050505050600190565b612ba88183611f41565b612bb28383612174565b1580612c2b575b612bc35750505050565b838110612be657612bdd93612bd79161258e565b91612a20565b38808080611d31565b60405162461bcd60e51b815260206004820152601f60248201527f455243333532353a20696e73756666696369656e7420616c6c6f77616e6365006044820152606490fd5b50600019811415612bb9565b612c40816121e5565b15612e6d57612c4e826121e5565b15612e1a578060005260209260068452604092612c6e8460002054611d9a565b508160005260068652612c848560002054611d9a565b50906002810190815490858210612dc35760010154600184015403612d685791600291612cb786612d069897969561258e565b905501612cc5838254611f34565b905580837f0b2aac84f3ec956911fd78eae5311062972ff949f38412e8da39069d9f068cc6888851868152a3845192612cfd84611c1e565b60008452612ec2565b15612d0f575050565b60849250519062461bcd60e51b82526004820152602d60248201527f455243333532353a207472616e736665722072656a656374656420627920455260448201526c21999a991aa932b1b2b4bb32b960991b6064820152fd5b865162461bcd60e51b815260048101899052602e60248201527f455243333532353a207472616e7366657220746f20746f6b656e20776974682060448201526d191a5999995c995b9d081cdb1bdd60921b6064820152608490fd5b875162461bcd60e51b8152600481018a9052602a60248201527f455243333532353a20696e73756666696369656e742062616c616e636520666f60448201526939103a3930b739b332b960b11b6064820152608490fd5b60405162461bcd60e51b815260206004820152602560248201527f455243333532353a207472616e7366657220746f20696e76616c696420746f6b604482015264195b88125160da1b6064820152608490fd5b60405162461bcd60e51b815260206004820152602760248201527f455243333532353a207472616e736665722066726f6d20696e76616c696420746044820152661bdad95b88125160ca1b6064820152608490fd5b92612ecc82611e61565b803b151580612f72575b15612f6857612f1f93600060209460405196879586948593629ce20b60e01b9b8c865233600487015260248601526044850152606484015260a0608484015260a4830190611b25565b03926001600160a01b03165af190811561032757600091612f4a575b506001600160e01b0319161490565b612f62915060203d8111612753576127448183611c39565b38612f3b565b5050505050600190565b506040516301ffc9a760e01b8152629ce20b60e01b60048201526020816024816001600160a01b0386165afa90811561032757600091612fb3575b50612ed6565b6020813d8211612fec575b81612fcb60209383611c39565b81010312612fe85751908115158203612fe5575038612fad565b80fd5b5080fd5b3d9150612fbe56fea2646970667358221220f9eb34348ef2ecbaaf501fc43ab4c8ca2a9f193cb6977d3e57d0283ad9df0bcb64736f6c634300081100336080604052346200048657620024ae803803806200001d816200048b565b9283398101608082820312620004865781516001600160401b0391908281116200048657816200004f918501620004b1565b91602092838501518281116200048657836200006d918701620004b1565b92604086015183811162000486576060916200008b918801620004b1565b9501516001600160a01b03811695908690036200048657815193838511620002c3576001948554938685811c951680156200047b575b88861014620002a2578190601f9586811162000425575b508890868311600114620003bd57600092620003b1575b5050600019600383901b1c191690861b1785555b805190848211620002c357600254908682811c92168015620003a6575b88831014620002a25781858493116200034f575b508790858311600114620002e557600092620002d9575b5050600019600383901b1c191690851b176002555b8051928311620002c35760039485548581811c91168015620002b8575b82821014620002a25783811162000257575b5080928411600114620001ed5750928293918392600094620001e1575b50501b9160001990841b1c19161790555b600080546001600160a01b031916919091179055604051611f8a9081620005248239f35b015192503880620001ac565b919083601f1981168760005284600020946000905b888383106200023c575050501062000223575b505050811b019055620001bd565b015160001983861b60f8161c1916905538808062000215565b85870151885590960195948501948793509081019062000202565b86600052816000208480870160051c82019284881062000298575b0160051c019086905b8281106200028b5750506200018f565b600081550186906200027b565b9250819262000272565b634e487b7160e01b600052602260045260246000fd5b90607f16906200017d565b634e487b7160e01b600052604160045260246000fd5b0151905038806200014b565b90879350601f198316916002600052896000209260005b8b8282106200033857505084116200031e575b505050811b0160025562000160565b015160001960f88460031b161c191690553880806200030f565b8385015186558b97909501949384019301620002fc565b9091506002600052876000208580850160051c8201928a86106200039c575b918991869594930160051c01915b8281106200038c57505062000134565b600081558594508991016200037c565b925081926200036e565b91607f169162000120565b015190503880620000ef565b90889350601f19831691846000528a6000209260005b8c8282106200040e5750508411620003f4575b505050811b01855562000103565b015160001960f88460031b161c19169055388080620003e6565b8385015186558c97909501949384019301620003d3565b90915087600052886000208680850160051c8201928b861062000471575b918a91869594930160051c01915b82811062000461575050620000d8565b600081558594508a910162000451565b9250819262000443565b94607f1694620000c1565b600080fd5b6040519190601f01601f191682016001600160401b03811183821017620002c357604052565b919080601f84011215620004865782516001600160401b038111620002c357602090620004e7601f8201601f191683016200048b565b92818452828287010111620004865760005b8181106200050f57508260009394955001015290565b8581018301518482018401528201620004f956fe608060408181526004908136101561001657600080fd5b600092833560e01c9081631375d843146114a057508063246a908b146113a257806331264fc11461119057806355f804b31461104c57806364140ec014610f4d5780636c0360eb14610e8e5780636c037f8a14610b7257806371f0442e14610ade578063725fa09c14610866578063842251d41461072e578063894b4c2e146104025780639cdeaae0146101805763b3154c08146100b357600080fd5b3461017c57602091826003193601126101785780358452825280832091815192848154906100e082611a7d565b808752926001928084169081156101545750600114610119575b610115878761010b828c03836115b6565b5191829182611558565b0390f35b9080949750528583205b82841061014157505050826101159461010b928201019438806100fa565b8054868501880152928601928101610123565b60ff19168887015250505050151560051b830101925061010b8261011538806100fa565b8380fd5b8280fd5b50913461039057826003193601126103905781359161019e836119cd565b928083526020918083528584209386519481868254916101bd83611a7d565b92838352888301946001918a83821691826000146103e25750506001146103a5575b50506101ed925003876115b6565b6101f684611de4565b9161020260243561188a565b895163131f9f3f60e11b8152948501869052938681602481335afa91821561039a578092610365575b61011561027f8c61010b606c8e8e8e61034c8f8f8f8f8f61024e6102549161188a565b94611e7e565b966102a960298d519e8f809c683d913730b6b2911d1160b91b8c8301528b8151948593019101611535565b8a0191701116113232b9b1b934b83a34b7b7111d1160791b6029840152518093603a840190611535565b016a11161134b6b0b3b2911d1160a91b603a8201526102d18251809388604585019101611535565b016c1116113130b630b731b2911d1160991b60458201526102fb8251809387605285019101611535565b016911161139b637ba111d1160b11b60528201526103228251809386605c85019101611535565b01916e111611383937b832b93a34b2b9911d60891b605c8401528351938491606b85019101611535565b01607d60f81b606b82015203604c8101855201836115b6565b9091508682813d8311610393575b61037d81836115b6565b810103126103905750518461027f61022b565b80fd5b503d610373565b8a51903d90823e3d90fd5b89925086528186209086915b8583106103c95750506101ed935082010138806101df565b81948484839695965492010152019101899289926103b1565b92509350506101ed94915060ff19168552151560051b82010138806101df565b50913461039057602091826003193601126106bd57803591610423836119cd565b83825282855285822090865190838284549161043e83611a7d565b928383528a8301966001918c838216918260001461070e5750506001146106d2575b505061046e925003836115b6565b61047786611de4565b938851631398fee160e31b815287878201528881602481335afa80156106c8578290610695575b6104a8915061188a565b895163131f9f3f60e11b8152968701889052958881602481335afa91821561039a578092610664575b5050606c888a6101159b9961010b99603d996106549d9961061b9961055861052e9a6105086105026106169c61188a565b97611e7e565b97519b8c99683d913730b6b2911d1160b91b818c0152825192839160298d019101611535565b880191701116113232b9b1b934b83a34b7b7111d1160791b6029840152518093603a840190611535565b016a11161134b6b0b3b2911d1160a91b603a820152610580825180938d604585019101611535565b016c1116113130b630b731b2911d1160991b60458201526105aa825180938c605285019101611535565b016911161139b637ba111d1160b11b60528201526105d1825180938b605c85019101611535565b016e111611383937b832b93a34b2b9911d60891b605c8201526105fd825180938a606b85019101611535565b01607d60f81b606b82015203604c8101845201826115b6565b61171d565b845195827f646174613a6170706c69636174696f6e2f6a736f6e3b6261736536342c000000889485015282519283918686019101611535565b810103601d8101855201836115b6565b9091508882813d831161068e575b61067c81836115b6565b81010312610390575051606c886104d1565b503d610672565b508881813d83116106c1575b6106ab81836115b6565b810103126106bd576104a8905161049e565b5080fd5b503d6106a1565b8a513d84823e3d90fd5b8b925088528188209088915b8583106106f657505061046e93508201013880610460565b80548389018501528794508c939092019181016106de565b925093505061046e94915060ff19168752151560051b8201013880610460565b508290346106bd5761073f36611640565b939083526020916006835283209184519167ffffffffffffffff8311610853575061076a8354611a7d565b601f8111610810575b5080601f83116001146107ae57508394829394926107a3575b50508160011b916000199060031b1c191617905580f35b01519050848061078c565b90601f198316958486528286209286905b8882106107f8575050836001959697106107df575b505050811b01905580f35b015160001960f88460031b161c191690558480806107d4565b806001859682949686015181550195019301906107bf565b838552818520601f840160051c810191838510610849575b601f0160051c01905b81811061083e5750610773565b858155600101610831565b9091508190610828565b634e487b7160e01b855260419052602484fd5b50903461017c578260031936011261017c5781516306fdde0360e01b81529083828281335afa918215610ad1578492610aad575b5082519084600254906108ac82611a7d565b808552846020988992838301956001908181169081600014610a8e5750600114610a32575b50506108df925003856115b6565b6108e7611bb6565b928787518092633e7e866960e01b825281335afa918215610a2757605a610654989761010b97603d976101159c9761093360ff61061b996109889961061699916109fa575b501661188a565b928c51978895683d913730b6b2911d1160b91b8c88015261095e8c825192839160298b019101611535565b860191701116113232b9b1b934b83a34b7b7111d1160791b6029840152518093603a840190611535565b016a11161134b6b0b3b2911d1160a91b603a8201526109b0825180938b604585019101611535565b01721116113b30b63ab2a232b1b4b6b0b639911d1160691b60458201526109e0825180938a605885019101611535565b0161227d60f01b605882015203603a8101845201826115b6565b610a1a91508c8d3d10610a20575b610a1281836115b6565b8101906116d2565b3861092c565b503d610a08565b8751903d90823e3d90fd5b600286527f405787fa12a823e0f2b7631cc41b3ba8828b3321ca811111fa75cd3aa3bb5ace9492508591905b818310610a7657508b9450508201016108df386108d1565b85548a84018501529485019489945091830191610a5e565b9150506108df94925060ff19168652151560051b8201018992386108d1565b610aca9192503d8086833e610ac281836115b6565b810190611673565b903861089a565b50505051903d90823e3d90fd5b503461017c576020918260031936011261017857358352600582528083209181519284815490610b0d82611a7d565b808752926001928084169081156101545750600114610b3757610115878761010b828c03836115b6565b9080949750528583205b828410610b5f57505050826101159461010b928201019438806100fa565b8054868501880152928601928101610b41565b50903461017c5760209283600319360112610390578054835163ec327a2160e01b815283358185018190529092916001600160a01b0316908284602481855afa938415610e84578394610e68575b50855163bc74ebb960e01b8152858101829052948386602481865afa958615610e5e578496610e42575b5086516309c3dd8760e01b80825282820184905290938585602481845afa948515610e3857918a9594939187938496610e17575b5090602491610c5e60268d518a652f696d61676560d01b81610c4a849e85019d8e815193849201611535565b83019182015203600681018b5201896115b6565b8b51958694859384528301525afa938415610a27578094610dfa575b50508551918288808201868197519283910191610c9692611535565b81018981016f17b83937b832b93a34b2b9973539b7b760811b905203601081018452603001610cc590846115b6565b8651958695683d913730b6b2911d1160b91b8a880152805190818b60298a01920191610cf092611535565b8601701116113232b9b1b934b83a34b7b7111d1160791b6029820152815191828b603a8401920191610d2192611535565b01906a11161134b6b0b3b2911d1160a91b603a83015251918260458301610d4792611535565b01906e111611383937b832b93a34b2b9911d60891b604583015251918260548301610d7192611535565b0160548101607d60f81b905203603581018252605501610d9190826115b6565b610d9a9061171d565b81517f646174613a6170706c69636174696f6e2f6a736f6e3b6261736536342c00000084820152815190938492610dd8918391603d86019101611535565b810103601d81018352603d01610dee90836115b6565b51610115819282611558565b610e0f9294503d8091833e610ac281836115b6565b913880610c7a565b602492919650610e30903d8087833e610ac281836115b6565b959091610c1e565b89513d88823e3d90fd5b610e579196503d8086833e610ac281836115b6565b9438610bea565b87513d86823e3d90fd5b610e7d9194503d8085833e610ac281836115b6565b9238610bc0565b86513d85823e3d90fd5b8382346106bd57816003193601126106bd57805190826001805491610eb283611a7d565b80865292828116908115610f255750600114610edb575b50505061010b826101159403836115b6565b9450808552600080516020611f358339815191525b828610610f0d5750505061010b8260206101159582010194610ec9565b80546020878701810191909152909501948101610ef0565b61011597508693506020925061010b94915060ff191682840152151560051b82010194610ec9565b508290346106bd57610f5e36611640565b939083526020916005835283209184519167ffffffffffffffff83116108535750610f898354611a7d565b601f8111611009575b5080601f8311600114610fc157508394829394926107a35750508160011b916000199060031b1c191617905580f35b90601f198316958486528286209286905b888210610ff1575050836001959697106107df57505050811b01905580f35b80600185968294968601518155019501930190610fd2565b838552818520601f840160051c810191838510611042575b601f0160051c01905b8181106110375750610f92565b85815560010161102a565b9091508190611021565b828434610390576020806003193601126106bd5767ffffffffffffffff83358181116101785761107f90369086016115f4565b93845191821161117d57506001916110978354611a7d565b601f811161112b575b5080601f83116001146110da57508394829394926110cf575b5050600019600383901b1c191690821b17905580f35b0151905084806110b9565b838552601f19831695600080516020611f35833981519152929186905b88821061111457505083859697106107df57505050811b01905580f35b8087859682949686015181550195019301906110f7565b838552600080516020611f35833981519152601f840160051c810191838510611173575b601f0160051c019084905b8281106111685750506110a0565b86815501849061115a565b909150819061114f565b634e487b7160e01b845260419052602483fd5b50903461017c578260031936011261017c5781516306fdde0360e01b81529083828281335afa918215610ad1578492611386575b5082519084906002546111d681611a7d565b808552846020948582019360019087828216918260001461136857505060011461130e575b50611208925003856115b6565b611210611bb6565b918387518092633e7e866960e01b825281335afa9081156113045761127d97969361010b969361125360ff605a98956112d3956101159e916112ed57501661188a565b9489519a8b97683d913730b6b2911d1160b91b878a015261052e815180928960298d019101611535565b016a11161134b6b0b3b2911d1160a91b603a8201526112a58251809386604585019101611535565b0191721116113b30b63ab2a232b1b4b6b0b639911d1160691b60458401528351938491605885019101611535565b0161227d60f01b605882015203603a8101855201836115b6565b610a1a9150873d8911610a2057610a1281836115b6565b87513d8a823e3d90fd5b60028b528691508a907f405787fa12a823e0f2b7631cc41b3ba8828b3321ca811111fa75cd3aa3bb5ace5b8583106113505750506112089350820101386111fb565b8054838b018501528994508893909201918101611339565b60ff1916875261120895151560051b85010192503891506111fb9050565b61139b9192503d8086833e610ac281836115b6565b90386111c4565b508290346106bd576113b336611640565b9390835260209181835283209184519167ffffffffffffffff831161085357506113dd8354611a7d565b601f811161145d575b5080601f831160011461141557508394829394926107a35750508160011b916000199060031b1c191617905580f35b90601f198316958486528286209286905b888210611445575050836001959697106107df57505050811b01905580f35b80600185968294968601518155019501930190611426565b838552818520601f840160051c810191838510611496575b601f0160051c01905b81811061148b57506113e6565b85815560010161147e565b9091508190611475565b92905034610178576020908160031936011261153157358452600681528184208054856114cc82611a7d565b8087529260019280841690811561015457506001146114f657610115878761010b828c03836115b6565b9080949750528583205b82841061151e57505050826101159461010b928201019438806100fa565b8054868501880152928601928101611500565b8480fd5b60005b8381106115485750506000910152565b8181015183820152602001611538565b604091602082526115788151809281602086015260208686019101611535565b601f01601f1916010190565b6060810190811067ffffffffffffffff8211176115a057604052565b634e487b7160e01b600052604160045260246000fd5b90601f8019910116810190811067ffffffffffffffff8211176115a057604052565b67ffffffffffffffff81116115a057601f01601f191660200190565b81601f8201121561163b5780359061160b826115d8565b9261161960405194856115b6565b8284526020838301011161163b57816000926020809301838601378301015290565b600080fd5b90604060031983011261163b57600435916024359067ffffffffffffffff821161163b57611670916004016115f4565b90565b60208183031261163b5780519067ffffffffffffffff821161163b570181601f8201121561163b5780516116a6816115d8565b926116b460405194856115b6565b8184526020828401011161163b576116709160208085019101611535565b9081602091031261163b575160ff8116810361163b5790565b906116f5826115d8565b61170260405191826115b6565b8281528092611713601f19916115d8565b0190602036910137565b8051156118655760405161173081611584565b604081527f4142434445464748494a4b4c4d4e4f505152535455565758595a61626364656660208201527f6768696a6b6c6d6e6f707172737475767778797a303132333435363738392b2f6040820152815160029283820180921161184f576003918290046001600160fe1b038116810361184f576117b2908594951b6116eb565b936020850193829183518401925b8381106117fe57505050505106806001146117eb576002146117e0575090565b603d90600019015390565b50603d9081600019820153600119015390565b85600491979293949701918251600190603f9082828260121c16880101518453828282600c1c16880101518385015382828260061c16880101518885015316850101518782015301959291906117c0565b634e487b7160e01b600052601160045260246000fd5b506040516020810181811067ffffffffffffffff8211176115a0576040526000815290565b806000917a184f03e93ff9f4daa797ed6e38ed64bf6a1f010000000000000000808210156119bf575b506d04ee2d6d415b85acef8100000000808310156119b0575b50662386f26fc10000808310156119a1575b506305f5e10080831015611992575b5061271080831015611983575b506064821015611973575b600a80921015611969575b6001908160216119218287016116eb565b95860101905b611933575b5050505090565b600019019083906f181899199a1a9b1b9c1cb0b131b232b360811b8282061a83530491821561196457919082611927565b61192c565b9160010191611910565b9190606460029104910191611905565b600491939204910191386118fa565b600891939204910191386118ed565b601091939204910191386118de565b602091939204910191386118cc565b6040935081049150386118b3565b6040516306fdde0360e01b815290600082600481335afa918215611a7157600092611a4b575b506022611a026116709261188a565b926040519381611a1c869351809260208087019101611535565b820161202360f01b6020820152611a3c8251809360208785019101611535565b010360028101845201826115b6565b611a02611a6860229261167094953d8091833e610ac281836115b6565b939250506119f3565b6040513d6000823e3d90fd5b90600182811c92168015611aad575b6020831014611a9757565b634e487b7160e01b600052602260045260246000fd5b91607f1691611a8c565b90600091600190815491611aca83611a7d565b92818116908115611b205750600114611ae257505050565b809192939450600052600080516020611f35833981519152906000915b848310611b0d575050500190565b8181602092548587015201920191611aff565b60ff191683525050811515909102019150565b600092918154611b4281611a7d565b92600191808316908115611b9b5750600114611b5f575b50505050565b90919293945060005260209081600020906000915b858310611b8a5750505050019038808080611b59565b805485840152918301918101611b74565b60ff1916845250505081151590910201915038808080611b59565b611bbf33611cc1565b6040519081602091611bd2838301611ab7565b68636f6e74726163742f60b81b8152611bf48251809386600985019101611535565b01602f60f81b600982015260009060035493611c0f85611a7d565b94600190818116908115611c9e5750600114611c3c575b505050611670925003601f1981018352826115b6565b9091925060036000527fc2575a0e9e593c00f959f8c92f12db2869c3395a3b0502d05e2516446f71f85b906000915b868310611c87575050505061167092600a910101388080611c26565b8054838601600a0152879550918301918101611c6b565b915050600a935061167095915060ff191683830152801515020101388080611c26565b604051906001600160a01b0316611cd782611584565b602a82526020908183016040368237835115611dce57603090538251600190811015611dce57607860218501536029905b808211611d5c575050611d19575090565b6064906040519062461bcd60e51b825280600483015260248201527f537472696e67733a20686578206c656e67746820696e73756666696369656e746044820152fd5b9091600f81166010811015611db9578551841015611db9576f181899199a1a9b1b9c1cb0b131b232b360811b901a85840185015360041c918015611da4576000190190611d08565b60246000634e487b7160e01b81526011600452fd5b60246000634e487b7160e01b81526032600452fd5b634e487b7160e01b600052603260045260246000fd5b611670601191611df330611cc1565b906000526006602052611e70604060002060056020526001611e62604060002092604051978896611e2660208901611ab7565b692f636f6e74726163742f60b01b8152611e4a825180936020600a85019101611535565b01662f746f6b656e2f60c81b600a8201520190611b33565b602f60f81b81520190611b33565b03601f1981018352826115b6565b6116706011601092611e8f33611cc1565b906000526006602052611f0560406000206040519586936e7b70726f706572746965735f75726960881b6020860152611eca602f8601611ab7565b68636f6e74726163742f60b81b8152611eed825180936020600985019101611535565b01662f746f6b656e2f60c81b60098201520190611b33565b6f17b83937b832b93a34b2b9973539b7b760811b8152607d60f81b601082015203600e198101845201826115b656feb10e2d527612073b26eecdfd717e6a320cf44b4afac2b0732d9fcbe2b7fa0cf6a2646970667358221220fa9bbfb92b0f6f72b9d999777e92a3ffd53d3bf53c621e79c11779229b4eba9764736f6c6343000811003331ecc21a745e3968a04e9570e4425bc18fa8019c68028196b546d1669c200c68290decd9548b62a8d60345a988386fc84ba6bc95484008f6362f93160ef3e563",
  "linkReferences": {},
  "deployedLinkReferences": {}
}