{
  "_format": "hh-sol-artifact-1",
  "contractName": "SlotRegistry",
  "sourceName": "contracts/SlotRegistry.sol",
  "abi": [
    {
      "inputs": [
        {
          "internalType": "address",
          "name": "mktAdmin_",
          "type": "address"
        },
        {
          "internalType": "string",
          "name": "name_",
          "type": "string"
        },
        {
          "internalType": "string",
          "name": "symbol_",
          "type": "string"
        },
        {
          "internalType": "string",
          "name": "baseuri_",
          "type": "string"
        },
        {
          "internalType": "string",
          "name": "contractDescription_",
          "type": "string"
        },
        {
          "internalType": "string",
          "name": "contractImage_",
          "type": "string"
        },
        {
          "internalType": "uint8",
          "name": "decimals_",
          "type": "uint8"
        }
      ],
      "stateMutability": "nonpayable",
      "type": "constructor"
    },
    {
      "anonymous": false,
      "inputs": [
        {
          "indexed": true,
          "internalType": "address",
          "name": "_owner",
          "type": "address"
        },
        {
          "indexed": true,
          "internalType": "address",
          "name": "_approved",
          "type": "address"
        },
        {
          "indexed": true,
          "internalType": "uint256",
          "name": "_tokenId",
          "type": "uint256"
        }
      ],
      "name": "Approval",
      "type": "event"
    },
    {
      "anonymous": false,
      "inputs": [
        {
          "indexed": true,
          "internalType": "address",
          "name": "_owner",
          "type": "address"
        },
        {
          "indexed": true,
          "internalType": "address",
          "name": "_operator",
          "type": "address"
        },
        {
          "indexed": false,
          "internalType": "bool",
          "name": "_approved",
          "type": "bool"
        }
      ],
      "name": "ApprovalForAll",
      "type": "event"
    },
    {
      "anonymous": false,
      "inputs": [
        {
          "indexed": true,
          "internalType": "uint256",
          "name": "_tokenId",
          "type": "uint256"
        },
        {
          "indexed": true,
          "internalType": "address",
          "name": "_operator",
          "type": "address"
        },
        {
          "indexed": false,
          "internalType": "uint256",
          "name": "_value",
          "type": "uint256"
        }
      ],
      "name": "ApprovalValue",
      "type": "event"
    },
    {
      "anonymous": false,
      "inputs": [
        {
          "indexed": false,
          "internalType": "address",
          "name": "contractAddress",
          "type": "address"
        }
      ],
      "name": "MetadataDescriptor",
      "type": "event"
    },
    {
      "anonymous": false,
      "inputs": [
        {
          "indexed": false,
          "internalType": "uint256",
          "name": "slotId",
          "type": "uint256"
        },
        {
          "indexed": false,
          "internalType": "string",
          "name": "slotName",
          "type": "string"
        }
      ],
      "name": "NewSlot",
      "type": "event"
    },
    {
      "anonymous": false,
      "inputs": [
        {
          "indexed": true,
          "internalType": "bytes32",
          "name": "role",
          "type": "bytes32"
        },
        {
          "indexed": true,
          "internalType": "bytes32",
          "name": "previousAdminRole",
          "type": "bytes32"
        },
        {
          "indexed": true,
          "internalType": "bytes32",
          "name": "newAdminRole",
          "type": "bytes32"
        }
      ],
      "name": "RoleAdminChanged",
      "type": "event"
    },
    {
      "anonymous": false,
      "inputs": [
        {
          "indexed": true,
          "internalType": "bytes32",
          "name": "role",
          "type": "bytes32"
        },
        {
          "indexed": true,
          "internalType": "address",
          "name": "account",
          "type": "address"
        },
        {
          "indexed": true,
          "internalType": "address",
          "name": "sender",
          "type": "address"
        }
      ],
      "name": "RoleGranted",
      "type": "event"
    },
    {
      "anonymous": false,
      "inputs": [
        {
          "indexed": true,
          "internalType": "bytes32",
          "name": "role",
          "type": "bytes32"
        },
        {
          "indexed": true,
          "internalType": "address",
          "name": "account",
          "type": "address"
        },
        {
          "indexed": true,
          "internalType": "address",
          "name": "sender",
          "type": "address"
        }
      ],
      "name": "RoleRevoked",
      "type": "event"
    },
    {
      "anonymous": false,
      "inputs": [
        {
          "indexed": true,
          "internalType": "address",
          "name": "metadataDescriptor",
          "type": "address"
        }
      ],
      "name": "SetMetadataDescriptor",
      "type": "event"
    },
    {
      "anonymous": false,
      "inputs": [
        {
          "indexed": true,
          "internalType": "uint256",
          "name": "_tokenId",
          "type": "uint256"
        },
        {
          "indexed": true,
          "internalType": "uint256",
          "name": "_oldSlot",
          "type": "uint256"
        },
        {
          "indexed": true,
          "internalType": "uint256",
          "name": "_newSlot",
          "type": "uint256"
        }
      ],
      "name": "SlotChanged",
      "type": "event"
    },
    {
      "anonymous": false,
      "inputs": [
        {
          "indexed": true,
          "internalType": "address",
          "name": "_from",
          "type": "address"
        },
        {
          "indexed": true,
          "internalType": "address",
          "name": "_to",
          "type": "address"
        },
        {
          "indexed": true,
          "internalType": "uint256",
          "name": "_tokenId",
          "type": "uint256"
        }
      ],
      "name": "Transfer",
      "type": "event"
    },
    {
      "anonymous": false,
      "inputs": [
        {
          "indexed": true,
          "internalType": "uint256",
          "name": "_fromTokenId",
          "type": "uint256"
        },
        {
          "indexed": true,
          "internalType": "uint256",
          "name": "_toTokenId",
          "type": "uint256"
        },
        {
          "indexed": false,
          "internalType": "uint256",
          "name": "_value",
          "type": "uint256"
        }
      ],
      "name": "TransferValue",
      "type": "event"
    },
    {
      "inputs": [],
      "name": "DEFAULT_ADMIN_ROLE",
      "outputs": [
        {
          "internalType": "bytes32",
          "name": "",
          "type": "bytes32"
        }
      ],
      "stateMutability": "view",
      "type": "function"
    },
    {
      "inputs": [],
      "name": "MKT_ARBITRATOR_ROLE",
      "outputs": [
        {
          "internalType": "bytes32",
          "name": "",
          "type": "bytes32"
        }
      ],
      "stateMutability": "view",
      "type": "function"
    },
    {
      "inputs": [
        {
          "internalType": "uint256",
          "name": "slot_",
          "type": "uint256"
        },
        {
          "internalType": "address",
          "name": "invitee_",
          "type": "address"
        }
      ],
      "name": "adminJoinSlot",
      "outputs": [],
      "stateMutability": "nonpayable",
      "type": "function"
    },
    {
      "inputs": [
        {
          "internalType": "uint256",
          "name": "tokenId_",
          "type": "uint256"
        },
        {
          "internalType": "address",
          "name": "operator_",
          "type": "address"
        }
      ],
      "name": "allowance",
      "outputs": [
        {
          "internalType": "uint256",
          "name": "",
          "type": "uint256"
        }
      ],
      "stateMutability": "view",
      "type": "function"
    },
    {
      "inputs": [
        {
          "internalType": "address",
          "name": "to_",
          "type": "address"
        },
        {
          "internalType": "uint256",
          "name": "tokenId_",
          "type": "uint256"
        }
      ],
      "name": "approve",
      "outputs": [],
      "stateMutability": "payable",
      "type": "function"
    },
    {
      "inputs": [
        {
          "internalType": "uint256",
          "name": "tokenId_",
          "type": "uint256"
        },
        {
          "internalType": "address",
          "name": "to_",
          "type": "address"
        },
        {
          "internalType": "uint256",
          "name": "value_",
          "type": "uint256"
        }
      ],
      "name": "approve",
      "outputs": [],
      "stateMutability": "payable",
      "type": "function"
    },
    {
      "inputs": [
        {
          "internalType": "address",
          "name": "contract_",
          "type": "address"
        },
        {
          "internalType": "uint256",
          "name": "slotId_",
          "type": "uint256"
        }
      ],
      "name": "approveContractForSlot",
      "outputs": [],
      "stateMutability": "nonpayable",
      "type": "function"
    },
    {
      "inputs": [
        {
          "internalType": "address",
          "name": "owner_",
          "type": "address"
        }
      ],
      "name": "balanceOf",
      "outputs": [
        {
          "internalType": "uint256",
          "name": "balance",
          "type": "uint256"
        }
      ],
      "stateMutability": "view",
      "type": "function"
    },
    {
      "inputs": [
        {
          "internalType": "uint256",
          "name": "tokenId_",
          "type": "uint256"
        }
      ],
      "name": "balanceOf",
      "outputs": [
        {
          "internalType": "uint256",
          "name": "",
          "type": "uint256"
        }
      ],
      "stateMutability": "view",
      "type": "function"
    },
    {
      "inputs": [
        {
          "internalType": "uint256",
          "name": "networkTokenId_",
          "type": "uint256"
        }
      ],
      "name": "contractOf",
      "outputs": [
        {
          "internalType": "address",
          "name": "",
          "type": "address"
        }
      ],
      "stateMutability": "view",
      "type": "function"
    },
    {
      "inputs": [],
      "name": "contractURI",
      "outputs": [
        {
          "internalType": "string",
          "name": "",
          "type": "string"
        }
      ],
      "stateMutability": "view",
      "type": "function"
    },
    {
      "inputs": [
        {
          "internalType": "uint256",
          "name": "slotId",
          "type": "uint256"
        }
      ],
      "name": "exists",
      "outputs": [
        {
          "internalType": "bool",
          "name": "",
          "type": "bool"
        }
      ],
      "stateMutability": "view",
      "type": "function"
    },
    {
      "inputs": [
        {
          "internalType": "uint256",
          "name": "tokenId_",
          "type": "uint256"
        }
      ],
      "name": "getApproved",
      "outputs": [
        {
          "internalType": "address",
          "name": "",
          "type": "address"
        }
      ],
      "stateMutability": "view",
      "type": "function"
    },
    {
      "inputs": [
        {
          "internalType": "bytes32",
          "name": "role",
          "type": "bytes32"
        }
      ],
      "name": "getRoleAdmin",
      "outputs": [
        {
          "internalType": "bytes32",
          "name": "",
          "type": "bytes32"
        }
      ],
      "stateMutability": "view",
      "type": "function"
    },
    {
      "inputs": [
        {
          "internalType": "bytes32",
          "name": "role",
          "type": "bytes32"
        },
        {
          "internalType": "address",
          "name": "account",
          "type": "address"
        }
      ],
      "name": "grantRole",
      "outputs": [],
      "stateMutability": "nonpayable",
      "type": "function"
    },
    {
      "inputs": [
        {
          "internalType": "bytes32",
          "name": "role",
          "type": "bytes32"
        },
        {
          "internalType": "address",
          "name": "account",
          "type": "address"
        }
      ],
      "name": "hasRole",
      "outputs": [
        {
          "internalType": "bool",
          "name": "",
          "type": "bool"
        }
      ],
      "stateMutability": "view",
      "type": "function"
    },
    {
      "inputs": [
        {
          "internalType": "address",
          "name": "owner_",
          "type": "address"
        },
        {
          "internalType": "address",
          "name": "operator_",
          "type": "address"
        }
      ],
      "name": "isApprovedForAll",
      "outputs": [
        {
          "internalType": "bool",
          "name": "",
          "type": "bool"
        }
      ],
      "stateMutability": "view",
      "type": "function"
    },
    {
      "inputs": [
        {
          "internalType": "uint256",
          "name": "tokenId_",
          "type": "uint256"
        }
      ],
      "name": "isNetworkToken",
      "outputs": [
        {
          "internalType": "bool",
          "name": "",
          "type": "bool"
        }
      ],
      "stateMutability": "view",
      "type": "function"
    },
    {
      "inputs": [
        {
          "internalType": "uint256",
          "name": "slotId_",
          "type": "uint256"
        },
        {
          "internalType": "address",
          "name": "adminAdress_",
          "type": "address"
        }
      ],
      "name": "isSlotAdmin",
      "outputs": [
        {
          "internalType": "bool",
          "name": "",
          "type": "bool"
        }
      ],
      "stateMutability": "view",
      "type": "function"
    },
    {
      "inputs": [
        {
          "internalType": "uint256",
          "name": "slot_",
          "type": "uint256"
        }
      ],
      "name": "joinSlot",
      "outputs": [],
      "stateMutability": "nonpayable",
      "type": "function"
    },
    {
      "inputs": [],
      "name": "metadataDescriptor",
      "outputs": [
        {
          "internalType": "contract IERC3525MetadataDescriptor",
          "name": "",
          "type": "address"
        }
      ],
      "stateMutability": "view",
      "type": "function"
    },
    {
      "inputs": [
        {
          "internalType": "address",
          "name": "owner_",
          "type": "address"
        },
        {
          "internalType": "uint256",
          "name": "slot_",
          "type": "uint256"
        },
        {
          "internalType": "uint256",
          "name": "value_",
          "type": "uint256"
        }
      ],
      "name": "mint",
      "outputs": [
        {
          "internalType": "uint256",
          "name": "",
          "type": "uint256"
        }
      ],
      "stateMutability": "nonpayable",
      "type": "function"
    },
    {
      "inputs": [
        {
          "internalType": "address",
          "name": "owner_",
          "type": "address"
        },
        {
          "internalType": "uint256",
          "name": "slot_",
          "type": "uint256"
        },
        {
          "internalType": "uint256",
          "name": "value_",
          "type": "uint256"
        },
        {
          "internalType": "uint256",
          "name": "adjDiscountBasisPts_",
          "type": "uint256"
        }
      ],
      "name": "mintWithDiscount",
      "outputs": [
        {
          "internalType": "uint256",
          "name": "",
          "type": "uint256"
        }
      ],
      "stateMutability": "nonpayable",
      "type": "function"
    },
    {
      "inputs": [
        {
          "internalType": "address",
          "name": "owner_",
          "type": "address"
        },
        {
          "internalType": "uint256",
          "name": "slot_",
          "type": "uint256"
        },
        {
          "internalType": "uint256",
          "name": "value_",
          "type": "uint256"
        },
        {
          "internalType": "uint256",
          "name": "adjTVRate_",
          "type": "uint256"
        }
      ],
      "name": "mintWithValueRate",
      "outputs": [
        {
          "internalType": "uint256",
          "name": "",
          "type": "uint256"
        }
      ],
      "stateMutability": "nonpayable",
      "type": "function"
    },
    {
      "inputs": [],
      "name": "name",
      "outputs": [
        {
          "internalType": "string",
          "name": "",
          "type": "string"
        }
      ],
      "stateMutability": "view",
      "type": "function"
    },
    {
      "inputs": [
        {
          "internalType": "uint256",
          "name": "tokenId_",
          "type": "uint256"
        }
      ],
      "name": "ownerOf",
      "outputs": [
        {
          "internalType": "address",
          "name": "owner_",
          "type": "address"
        }
      ],
      "stateMutability": "view",
      "type": "function"
    },
    {
      "inputs": [
        {
          "internalType": "address",
          "name": "adminAddress_",
          "type": "address"
        },
        {
          "internalType": "uint256",
          "name": "slot_",
          "type": "uint256"
        },
        {
          "internalType": "enum SlotRegistry.CreditType",
          "name": "type_",
          "type": "uint8"
        }
      ],
      "name": "registerContract",
      "outputs": [],
      "stateMutability": "nonpayable",
      "type": "function"
    },
    {
      "inputs": [
        {
          "internalType": "address",
          "name": "ctrctSvcAdminAdress_",
          "type": "address"
        },
        {
          "internalType": "uint256",
          "name": "slotId_",
          "type": "uint256"
        },
        {
          "internalType": "string",
          "name": "slotName_",
          "type": "string"
        },
        {
          "internalType": "string",
          "name": "slotURI_",
          "type": "string"
        },
        {
          "internalType": "string",
          "name": "description_",
          "type": "string"
        },
        {
          "internalType": "uint8",
          "name": "type_",
          "type": "uint8"
        },
        {
          "internalType": "bool",
          "name": "joinByInviteOnly_",
          "type": "bool"
        }
      ],
      "name": "registerSlot",
      "outputs": [
        {
          "internalType": "bool",
          "name": "",
          "type": "bool"
        }
      ],
      "stateMutability": "nonpayable",
      "type": "function"
    },
    {
      "inputs": [
        {
          "internalType": "bytes32",
          "name": "role",
          "type": "bytes32"
        },
        {
          "internalType": "address",
          "name": "account",
          "type": "address"
        }
      ],
      "name": "renounceRole",
      "outputs": [],
      "stateMutability": "nonpayable",
      "type": "function"
    },
    {
      "inputs": [
        {
          "internalType": "bytes32",
          "name": "role",
          "type": "bytes32"
        },
        {
          "internalType": "address",
          "name": "account",
          "type": "address"
        }
      ],
      "name": "revokeRole",
      "outputs": [],
      "stateMutability": "nonpayable",
      "type": "function"
    },
    {
      "inputs": [
        {
          "internalType": "address",
          "name": "from_",
          "type": "address"
        },
        {
          "internalType": "address",
          "name": "to_",
          "type": "address"
        },
        {
          "internalType": "uint256",
          "name": "tokenId_",
          "type": "uint256"
        }
      ],
      "name": "safeTransferFrom",
      "outputs": [],
      "stateMutability": "payable",
      "type": "function"
    },
    {
      "inputs": [
        {
          "internalType": "address",
          "name": "from_",
          "type": "address"
        },
        {
          "internalType": "address",
          "name": "to_",
          "type": "address"
        },
        {
          "internalType": "uint256",
          "name": "tokenId_",
          "type": "uint256"
        },
        {
          "internalType": "bytes",
          "name": "data_",
          "type": "bytes"
        }
      ],
      "name": "safeTransferFrom",
      "outputs": [],
      "stateMutability": "payable",
      "type": "function"
    },
    {
      "inputs": [
        {
          "internalType": "address",
          "name": "operator_",
          "type": "address"
        },
        {
          "internalType": "bool",
          "name": "approved_",
          "type": "bool"
        }
      ],
      "name": "setApprovalForAll",
      "outputs": [],
      "stateMutability": "nonpayable",
      "type": "function"
    },
    {
      "inputs": [
        {
          "internalType": "uint256",
          "name": "slotId_",
          "type": "uint256"
        }
      ],
      "name": "slotDescription",
      "outputs": [
        {
          "internalType": "string",
          "name": "",
          "type": "string"
        }
      ],
      "stateMutability": "view",
      "type": "function"
    },
    {
      "inputs": [
        {
          "internalType": "uint256",
          "name": "slot_",
          "type": "uint256"
        },
        {
          "internalType": "address",
          "name": "invitee_",
          "type": "address"
        }
      ],
      "name": "slotInvite",
      "outputs": [],
      "stateMutability": "nonpayable",
      "type": "function"
    },
    {
      "inputs": [
        {
          "internalType": "uint256",
          "name": "slotId_",
          "type": "uint256"
        }
      ],
      "name": "slotName",
      "outputs": [
        {
          "internalType": "string",
          "name": "",
          "type": "string"
        }
      ],
      "stateMutability": "view",
      "type": "function"
    },
    {
      "inputs": [
        {
          "internalType": "uint256",
          "name": "tokenId_",
          "type": "uint256"
        }
      ],
      "name": "slotOf",
      "outputs": [
        {
          "internalType": "uint256",
          "name": "",
          "type": "uint256"
        }
      ],
      "stateMutability": "view",
      "type": "function"
    },
    {
      "inputs": [
        {
          "internalType": "uint256",
          "name": "slotId_",
          "type": "uint256"
        }
      ],
      "name": "slotURI",
      "outputs": [
        {
          "internalType": "string",
          "name": "",
          "type": "string"
        }
      ],
      "stateMutability": "view",
      "type": "function"
    },
    {
      "inputs": [
        {
          "internalType": "bytes4",
          "name": "interfaceId",
          "type": "bytes4"
        }
      ],
      "name": "supportsInterface",
      "outputs": [
        {
          "internalType": "bool",
          "name": "",
          "type": "bool"
        }
      ],
      "stateMutability": "view",
      "type": "function"
    },
    {
      "inputs": [],
      "name": "symbol",
      "outputs": [
        {
          "internalType": "string",
          "name": "",
          "type": "string"
        }
      ],
      "stateMutability": "view",
      "type": "function"
    },
    {
      "inputs": [
        {
          "internalType": "uint256",
          "name": "index_",
          "type": "uint256"
        }
      ],
      "name": "tokenByIndex",
      "outputs": [
        {
          "internalType": "uint256",
          "name": "",
          "type": "uint256"
        }
      ],
      "stateMutability": "view",
      "type": "function"
    },
    {
      "inputs": [
        {
          "internalType": "uint256",
          "name": "toTokenId_",
          "type": "uint256"
        }
      ],
      "name": "tokenDiscount",
      "outputs": [
        {
          "internalType": "uint256",
          "name": "",
          "type": "uint256"
        }
      ],
      "stateMutability": "view",
      "type": "function"
    },
    {
      "inputs": [
        {
          "internalType": "address",
          "name": "owner_",
          "type": "address"
        },
        {
          "internalType": "uint256",
          "name": "index_",
          "type": "uint256"
        }
      ],
      "name": "tokenOfOwnerByIndex",
      "outputs": [
        {
          "internalType": "uint256",
          "name": "",
          "type": "uint256"
        }
      ],
      "stateMutability": "view",
      "type": "function"
    },
    {
      "inputs": [
        {
          "internalType": "uint256",
          "name": "tokenId_",
          "type": "uint256"
        }
      ],
      "name": "tokenURI",
      "outputs": [
        {
          "internalType": "string",
          "name": "",
          "type": "string"
        }
      ],
      "stateMutability": "view",
      "type": "function"
    },
    {
      "inputs": [
        {
          "internalType": "uint256",
          "name": "toTokenId_",
          "type": "uint256"
        }
      ],
      "name": "tokenValueRate",
      "outputs": [
        {
          "internalType": "uint256",
          "name": "",
          "type": "uint256"
        }
      ],
      "stateMutability": "view",
      "type": "function"
    },
    {
      "inputs": [],
      "name": "totalSupply",
      "outputs": [
        {
          "internalType": "uint256",
          "name": "",
          "type": "uint256"
        }
      ],
      "stateMutability": "view",
      "type": "function"
    },
    {
      "inputs": [
        {
          "internalType": "uint256",
          "name": "fromTokenId_",
          "type": "uint256"
        },
        {
          "internalType": "address",
          "name": "to_",
          "type": "address"
        },
        {
          "internalType": "uint256",
          "name": "value_",
          "type": "uint256"
        }
      ],
      "name": "transferFrom",
      "outputs": [
        {
          "internalType": "uint256",
          "name": "",
          "type": "uint256"
        }
      ],
      "stateMutability": "payable",
      "type": "function"
    },
    {
      "inputs": [
        {
          "internalType": "address",
          "name": "from_",
          "type": "address"
        },
        {
          "internalType": "address",
          "name": "to_",
          "type": "address"
        },
        {
          "internalType": "uint256",
          "name": "tokenId_",
          "type": "uint256"
        }
      ],
      "name": "transferFrom",
      "outputs": [],
      "stateMutability": "payable",
      "type": "function"
    },
    {
      "inputs": [
        {
          "internalType": "uint256",
          "name": "fromTokenId_",
          "type": "uint256"
        },
        {
          "internalType": "uint256",
          "name": "toTokenId_",
          "type": "uint256"
        },
        {
          "internalType": "uint256",
          "name": "value_",
          "type": "uint256"
        }
      ],
      "name": "transferFrom",
      "outputs": [],
      "stateMutability": "payable",
      "type": "function"
    },
    {
      "inputs": [],
      "name": "valueDecimals",
      "outputs": [
        {
          "internalType": "uint8",
          "name": "",
          "type": "uint8"
        }
      ],
      "stateMutability": "view",
      "type": "function"
    }
  ],
  "bytecode": "0x6080604052346200072257620066e4803803806200001d8162000727565b92833981019060e08183031262000722578051916001600160a01b0383168303620007225760208201516001600160401b0381116200072257816200006491840162000772565b60408301519093906001600160401b0381116200072257826200008991850162000772565b60608401519094906001600160401b038111620007225783620000ae91860162000772565b60808501519095906001600160401b038111620007225784620000d391870162000772565b60a08601519094906001600160401b038111620007225760c091620000fa91880162000772565b9501519160ff8316830362000722578051906001600160401b038211620004065781906200012a600054620007c9565b601f8111620006bf575b50602090601f8311600114620006435760009262000637575b50508160011b916000199060031b1c1916176000555b8051906001600160401b038211620004065762000182600154620007c9565b601f8111620005d1575b50602090601f83116001146200055d5760ff9392916000918362000551575b50508160011b916000199060031b1c1916176001555b600280549190921660ff1990911617905560126013556001600160a01b03811660009081527f3d62299d961dc9bf64f24e2e5b7d5a2b17ee5fc8163a3ddca90e52de8744675560205260409020547f1cd6d520d98babae1045eb69c31ecab800996aa332094cb55c0ac10362e9b0c99060ff1615620004f0575b505082516001600160401b03811162000406576200025b601254620007c9565b601f811162000497575b506020601f82116001146200042857819293946000926200041c575b50508160011b916000199060031b1c1916176012555b604051906120b780830191906001600160401b038311848410176200040657620045ed843960808252600090601254620002d181620007c9565b90816080860152600181169081600014620003e0575060011462000393575b50936200030b828596856200031a9503602087015262000806565b90838203604085015262000806565b9060603091015203906000f080156200038757600880546001600160a01b0319166001600160a01b0390921691821790556040519081527f9ac4f8025631594629895b778dc5ee88d01673a254a2291f6b6b174ad25230ca90602090a1604051613dbf90816200082e8239f35b6040513d6000823e3d90fd5b60126000908152919250600080516020620066a48339815191525b818310620003c8575050820160a001906200030b620002f0565b805460a08487010152602090920191600101620003ae565b60ff191660a08681019190915291151560051b850190910192506200030b9050620002f0565b634e487b7160e01b600052604160045260246000fd5b01519050388062000281565b601260005260206000209060005b601f19841681106200047e5750600193949583601f1981161062000464575b505050811b0160125562000297565b015160001960f88460031b161c1916905538808062000455565b9091602060018192858a01518155019301910162000436565b6012600052600080516020620066a4833981519152601f830160051c81019160208410620004e5575b601f0160051c01905b818110620004d8575062000265565b60008155600101620004c9565b9091508190620004c0565b60008181526009602090815260408083206001600160a01b0395909516808452949091528120805460ff19166001179055339291907f2f8788117e7eff1d82e926ec794901d17c78024a50270940304540a733656f0d9080a438806200023b565b015190503880620001ab565b90600160005260206000209160005b601f1985168110620005b8575091839160019360ff9695601f198116106200059e575b505050811b01600155620001c1565b015160001960f88460031b161c191690553880806200058f565b919260206001819286850151815501940192016200056c565b60016000527fb10e2d527612073b26eecdfd717e6a320cf44b4afac2b0732d9fcbe2b7fa0cf6601f840160051c8101602085106200062f575b601f830160051c82018110620006225750506200018c565b600081556001016200060a565b50806200060a565b0151905038806200014d565b60008080529350600080516020620066c483398151915291905b601f1984168510620006a3576001945083601f1981161062000689575b505050811b0160005562000163565b015160001960f88460031b161c191690553880806200067a565b818101518355602094850194600190930192909101906200065d565b60008052909150600080516020620066c4833981519152601f840160051c8101916020851062000717575b90601f859493920160051c01905b81811062000707575062000134565b60008155849350600101620006f8565b9091508190620006ea565b600080fd5b6040519190601f01601f191682016001600160401b038111838210176200040657604052565b60005b838110620007615750506000910152565b818101518382015260200162000750565b81601f82011215620007225780516001600160401b0381116200040657620007a4601f8201601f191660200162000727565b92818452602082840101116200072257620007c691602080850191016200074d565b90565b90600182811c92168015620007fb575b6020831014620007e557565b634e487b7160e01b600052602260045260246000fd5b91607f1691620007d9565b9060209162000821815180928185528580860191016200074d565b601f01601f191601019056fe608080604052600436101561001357600080fd5b60003560e01c90816301ffc9a7146123645750806304e664e21461221157806306fdde031461216e578063081812fc14612150578063095ea7b31461201557806309c3dd8714611fd05780630a88431814611f545780630f485c0214611c43578063156e29f614611bc157806318160ddd14611ba357806323b872dd14611b7f578063248a9ca314611b50578063263f3e7e14611b325780632efb44c414611af55780632f2ff15d14611a425780632f745c5914611997578063310ed7f01461161d57806336568abe1461158b57806339ace21f146115535780633e7e86691461153257806341ce4b3f1461151457806342842e0e146114f157806349e86294146113c25780634f558e791461139a5780634f6ccce7146113165780636352211e146112e657806370a08231146112c35780638270431c146111d3578063840f7113146111aa5780638cb0a511146110fd57806391d14854146110b05780639448bddb1461107057806394b39b0914610f5557806395d89b4114610e8a5780639cc7f70814610e6c578063a137e645146107b6578063a217fddf1461079a578063a22cb465146106bc578063a7c9f2d614610681578063a8bf563814610634578063b336dee01461059a578063b88d4fde14610540578063bc74ebb9146104fb578063c87b56dd14610460578063d547741f1461041f578063e345e0bc146103f1578063e8a3d48514610338578063e985e9c5146102df578063ec327a21146102765763f87fbfe41461024557600080fd5b3461027157602036600319011261027157600435600052600e6020526020604060002054604051908152f35b600080fd5b346102715760203660031901126102715760043561029b6102968261350a565b6134c5565b600052600b6020526102db6102c06102c76002604060002001604051928380926129c1565b03826124ee565b604051918291602083526020830190612406565b0390f35b34610271576040366003190112610271576102f86123cd565b6103006123b7565b9060018060a01b03809116600052600760205260026040600020019116600052602052602060ff604060002054166040519015158152f35b34610271576000366003190112610271576000604051610357816124d3565b526008546001600160a01b031680156103d857600060049160405192838092631c97e82760e21b82525afa80156103cc576102db916000916103a9575b50604051918291602083526020830190612406565b6103c691503d806000833e6103be81836124ee565b810190612b6a565b82610394565b6040513d6000823e3d90fd5b506102db6040516103e8816124d3565b600081526102c7565b3461027157604036600319011261027157602061041761040f6123b7565b600435612bc8565b604051908152f35b346102715760403660031901126102715761045e60043561043e6123b7565b9080600052600960205261045960016040600020015461257f565b6128b4565b005b346102715760203660031901126102715760043561048561048082612e6c565b612abc565b6000604051610493816124d3565b526008546001600160a01b03169081156104ea576000906024604051809481936344a5a61760e11b835260048301525afa80156103cc576102db916000916103a95750604051918291602083526020830190612406565b50506102db6040516103e8816124d3565b346102715760203660031901126102715760043561051b6102968261350a565b600052600b6020526102db6102c06102c76003604060002001604051928380926129c1565b6080366003190112610271576105546123cd565b61055c6123b7565b606435916001600160401b03831161027157366023840112156102715761059061045e93369060248160040135910161252a565b9160443591612cd9565b34610271576020806003193601126102715760043580600052600b82526105ce60ff60076040600020015460081c1661342d565b80600052600b825260ff60076040600020015416610609575b600090815260108252604080822033835290925220805460ff19166001179055005b60118252604060008181203382528452205461062f906001600160a01b0316151561346f565b6105e7565b346102715760403660031901126102715761064d6123b7565b600435600052601060205260406000209060018060a01b0316600052602052602060ff604060002054166040519015158152f35b346102715760003660031901126102715760206040517f1cd6d520d98babae1045eb69c31ecab800996aa332094cb55c0ac10362e9b0c98152f35b34610271576040366003190112610271576106d56123cd565b6024359081151590818303610271576001600160a01b031691338314610755576107279033600052600760205260026040600020018460005260205260406000209060ff801983541691151516179055565b6040519081527f17307eab39ab6107e8899845ad3d59bd9653f200f220920489ca2b5937696c3160203392a3005b60405162461bcd60e51b815260206004820152601a60248201527f455243333532353a20617070726f766520746f2063616c6c65720000000000006044820152606490fd5b3461027157600036600319011261027157602060405160008152f35b346102715760e0366003190112610271576107cf6123cd565b6044356001600160401b038111610271576107ee903690600401612561565b6064356001600160401b0381116102715761080d903690600401612561565b6084356001600160401b0381116102715761082c903690600401612561565b60a43560ff81168091036102715760c435928315158403610271573360009081527f3d62299d961dc9bf64f24e2e5b7d5a2b17ee5fc8163a3ddca90e52de87446755602052604090205460ff1615610e135760009115610e0a575b60405192610894846124d3565b600084526040519561012087018781106001600160401b03821117610bc65760409081526001600160a01b03891688526024356020890152870152606086015260808501526003811015610bdc5760a084015260c0830152151560e08201526001610100820152602435600052600b60205260406000209060018060a01b038151166001600160601b0360a01b8354161782556020810151600183015560408101519283516001600160401b038111610bc6576109546002850154612987565b601f8111610dd5575b506020601f8211600114610d66578192939495600092610d5b575b50508160011b916000199060031b1c19161760028401555b60608201519283516001600160401b038111610bc6576109b36003830154612987565b601f8111610d26575b506020601f8211600114610cb7578192939495600092610cac575b50508160011b916000199060031b1c19161760038201555b60808301519283516001600160401b038111610bc657610a126004840154612987565b601f8111610c6c575b506020601f8211600114610bfd578192939495600092610bf2575b50508160011b916000199060031b1c19161760048301555b60a081015191600581016003841015610bdc5760ff199360ff8583541691161790556006810160c0830151908151916001600160401b038311610bc657602090610a988484613248565b0190600052602060002060005b838110610ba957505050506007610100910191610ad460e08201511515849060ff801983541691151516179055565b0151151561ff0082549160081b169061ff0019161790556024356000526010602052604060002060018060a01b0383166000526020526001604060002091825416179055602435600052600b6020527f293112f57e1499e465d2297b938e4b29a3ab8fe5e214951585a56e3d43976716600160406000200154600260406000200190610b7260405192839283526040602084015260408301906129c1565b0390a1602435600052601060205260406000209060018060a01b0316600052602052602060ff604060002054166040519015158152f35b82516001600160a01b031681830155602090920191600101610aa5565b634e487b7160e01b600052604160045260246000fd5b634e487b7160e01b600052602160045260246000fd5b015190508580610a36565b6004840160005260206000209060005b601f1984168110610c54575060019394959683601f19811610610c3b575b505050811b016004830155610a4e565b015160001960f88460031b161c19169055858080610c2b565b9091602060018192858b015181550193019101610c0d565b610c9c90600485016000526020600020601f840160051c81019160208510610ca2575b601f0160051c0190613231565b85610a1b565b9091508190610c8f565b0151905085806109d7565b6003830160005260206000209060005b601f1984168110610d0e575060019394959683601f19811610610cf5575b505050811b0160038201556109ef565b015160001960f88460031b161c19169055858080610ce5565b9091602060018192858b015181550193019101610cc7565b610d5590600384016000526020600020601f840160051c81019160208510610ca257601f0160051c0190613231565b856109bc565b015190508580610978565b6002850160005260206000209060005b601f1984168110610dbd575060019394959683601f19811610610da4575b505050811b016002840155610990565b015160001960f88460031b161c19169055858080610d94565b9091602060018192858b015181550193019101610d76565b610e0490600286016000526020600020601f840160051c81019160208510610ca257601f0160051c0190613231565b8561095d565b60009150610887565b60405162461bcd60e51b815260206004820152602b60248201527f53656e646572206e6f7420617574686f72697a656420746f207265676973746560448201526a1c881d1a1a5cc81cdb1bdd60aa1b6064820152608490fd5b34610271576020366003190112610271576020610417600435612a92565b346102715760003660031901126102715760405160006001805490610eae82612987565b80855291818116908115610f2e5750600114610ed5575b6102db846102c7818603826124ee565b600081815292507fb10e2d527612073b26eecdfd717e6a320cf44b4afac2b0732d9fcbe2b7fa0cf65b828410610f165750505081016020016102c782610ec5565b80546020858701810191909152909301928101610efe565b60ff191660208087019190915292151560051b850190920192506102c79150839050610ec5565b3461027157606036600319011261027157610f6e6123cd565b60443590602435600483101561027157806000526020916010835260406000209060018060a01b0316600052825260ff60406000205416156110055780600052600b8252610fc4600660406000200133906133ed565b33600052600a8252604060002060ff199360ff858354169116179055600052600f815260406000209033600052526001604060002091825416179055600080f35b60405162461bcd60e51b815260048101839052603960248201527f436f6e74726163742061646d696e206973206e6f7420617574686f72697a656460448201527f20746f20726567697374657220746f207468697320736c6f74000000000000006064820152608490fd5b346102715760203660031901126102715760043561109061048082612e6c565b600052600c602052602060018060a01b0360406000205416604051908152f35b34610271576040366003190112610271576110c96123b7565b600435600052600960205260406000209060018060a01b0316600052602052602060ff604060002054166040519015158152f35b61110636612459565b9061111361048084612e6c565b6111336001600160a01b038061112886612b08565b169083161415612d59565b61113d8333612dfb565b1561114b5761045e9261379c565b60405162461bcd60e51b815260206004820152603160248201527f455243333532353a20617070726f76652063616c6c6572206973206e6f74206f6044820152701ddb995c881b9bdc88185c1c1c9bdd9959607a1b6064820152608490fd5b34610271576000366003190112610271576008546040516001600160a01b039091168152602090f35b34610271576040366003190112610271576004356111ef6123b7565b9080600052602090600b825261121260ff60076040600020015460081c1661342d565b8060005260108252604060002033600052825260ff60406000205416156112655760009081526011825260408082206001600160a01b039094168252929091522080546001600160a01b03191633179055005b60405162461bcd60e51b815260048101839052603060248201527f4d73672073656e646572206e6f7420617574686f72697a656420746f20696e7660448201526f1a5d19481d1bc81d1a1a5cc81cdb1bdd60821b6064820152608490fd5b346102715760203660031901126102715760206104176112e16123cd565b612bf9565b34610271576020366003190112610271576020611304600435612b08565b6040516001600160a01b039091168152f35b34610271576020366003190112610271576004356005548110156113495761133f602091612a57565b5054604051908152f35b60405162461bcd60e51b815260206004820152602360248201527f455243333532353a20676c6f62616c20696e646578206f7574206f6620626f756044820152626e647360e81b6064820152608490fd5b346102715760203660031901126102715760206113b860043561350a565b6040519015158152f35b34610271576040366003190112610271576113db6123cd565b602435908160005260209060108252604060002033600052825260ff604060002054161561149657604051637795524560e01b8152926001600160a01b039183908590600490829086165afa9384156103cc5760009461145e575b506000526010825260406000209216600052526040600020600160ff19825416179055600080f35b9093508281813d831161148f575b61147681836124ee565b8101031261027157518181168103610271579284611436565b503d61146c565b60405162461bcd60e51b815260048101839052602d60248201527f53656e646572206e6f7420617574686f72697a656420746f20617070726f766560448201526c081bdb881d1a1a5cc81cdb1bdd609a1b6064820152608490fd5b61045e6114fd36612483565b906040519261150b846124d3565b60008452612cd9565b346102715760203660031901126102715760206113b8600435612e6c565b3461027157600036600319011261027157602060ff60025416604051908152f35b346102715760203660031901126102715760043561157361048082612e6c565b600052600d6020526020604060002054604051908152f35b34610271576040366003190112610271576115a46123b7565b336001600160a01b038216036115c05761045e906004356128b4565b60405162461bcd60e51b815260206004820152602f60248201527f416363657373436f6e74726f6c3a2063616e206f6e6c792072656e6f756e636560448201526e103937b632b9903337b91039b2b63360891b6064820152608490fd5b6060366003190112610271576024604435813560043561163f61048082612e6c565b61164b61048083612e6c565b61165481612b46565b61165d83612b46565b0361193657336000526020600a815260ff6040600020541683600052600c825260018060a01b0360406000205416600052600a825260ff60406000205416600481101561192157600482101561192157810361189f578015611829576001810361180d57506116cb83612a92565b9482600052600d82526040600020548460005260406000205414156000146117f957601354956116fa87613d7b565b9661271088810298818a04036117cf5761171382613d7b565b80820290828204036117e4576117438961173e611749938a600052600d8a5260406000205490613215565b61292a565b92613d7b565b808202918204036117cf57611784916117778461173e61177d948b600052600d8a5260406000205490613215565b90612953565b9187612953565b9182156117bb575061045e96600d9261179e920490613215565b915b84600052526040600020556117b683823361391a565b6139b3565b634e487b7160e01b60009081526012600452fd5b83634e487b7160e01b60005260116004526000fd5b84634e487b7160e01b60005260116004526000fd5b5061045e9450600d604060002054916117a0565b9194505060021461181a57005b826117b68361045e953361391a565b60a4826044886040519262461bcd60e51b845260048401528201527f536c6f7452656769737472793a204e6574776f726b2076616c7565207472616e60448201527f73666572206e6f7420616c6c6f77656420666f72207072696f7269747920746f6064820152636b656e7360e01b6084820152fd5b60405162461bcd60e51b815260048101839052604f818801527f536c6f7452656769737472793a2043616e6e6f74207472616e7366657220626560448201527f747765656e20746f6b656e7320686f6c64696e6720646966666572656e74207460648201526e3cb832b99037b31031b932b234ba1760891b608482015260a490fd5b86634e487b7160e01b60005260216004526000fd5b60405162461bcd60e51b8152602060048201526034818601527f536c6f7452656769737472793a207472616e7366657220746f20746f6b656e206044820152733bb4ba34103234b33332b932b73a1039b637ba1760611b6064820152608490fd5b34610271576040366003190112610271576119b06123cd565b602435906119bd81612bf9565b8210156119f2576020916119e49160018060a01b0316600052600783526040600020612de3565b90546040519160031b1c8152f35b60405162461bcd60e51b815260206004820152602260248201527f455243333532353a206f776e657220696e646578206f7574206f6620626f756e604482015261647360f01b6064820152608490fd5b3461027157604036600319011261027157600435611a5e6123b7565b816000526009602052611a7860016040600020015461257f565b81600052600960205260406000209060018060a01b0316908160005260205260ff6040600020541615611aa757005b8160005260096020526040600020816000526020526040600020600160ff1982541617905533917f2f8788117e7eff1d82e926ec794901d17c78024a50270940304540a733656f0d600080a4005b34610271576020611b1c611b083661242b565b929391600160035401809581600355613582565b81600052600e8352604060002055604051908152f35b34610271576020366003190112610271576020610417600435612b46565b346102715760203660031901126102715760043560005260096020526020600160406000200154604051908152f35b61045e611b8b36612483565b91611b9e611b998433612dfb565b612c72565b612e9a565b34610271576000366003190112610271576020600554604051908152f35b34610271576060366003190112610271576020611bdc6123cd565b611c1c6024359182600052600f84526040600020336000528452611c0760ff60406000205416613528565b60016003540192836003558360443592613582565b80600052600c82526040600020336001600160601b0360a01b825416179055604051908152f35b611c4c36612459565b611c5a610480849394612e6c565b611c6581833361391a565b6001600354019182600355611c7981612b46565b6001600160a01b0394808616908115611f05578515611eb657611c9b86612e6c565b611e715760405196611cac886124d3565b6000885260405197611cbd896124b8565b8789526020988981018681528a604083016000815260608401908882528c600660808701946000865260a08801988952600554926000525280604060002055600160401b811015610bc657806001611d189201600555612a57565b949094611e5b576005955185555160018501555160028401558560038401915116906001600160601b0360a01b9182825416179055856004840192511690825416179055019051918251926001600160401b038411610bc657908a8392611d86868d9a989c9b999796613248565b01916000528a6000209060005b848110611e445750505050508390611dae826104179861317f565b60007fddf252ad1be2c89b69c2b068fc378daa952ba7f163c4a11628f55a4df523b3ef8180a46000837fe4f48c240d3b994948aa54f3e2f5fca59263dfe1d52b6e4cf39a5d249b5ccb658280a48160005260068652611e11604060002054612a57565b50508160007f0b2aac84f3ec956911fd78eae5311062972ff949f38412e8da39069d9f068cc688604051838152a36139b3565b83518216818401558b9850928c0192600101611d93565b634e487b7160e01b600052600060045260246000fd5b60405162461bcd60e51b815260206004820152601d60248201527f455243333532353a20746f6b656e20616c7265616479206d696e7465640000006044820152606490fd5b60405162461bcd60e51b815260206004820152602160248201527f455243333532353a2063616e6e6f74206d696e74207a65726f20746f6b656e496044820152601960fa1b6064820152608490fd5b60405162461bcd60e51b815260206004820152602160248201527f455243333532353a206d696e7420746f20746865207a65726f206164647265736044820152607360f81b6064820152608490fd5b34610271576020611f9f611f673661242b565b92939180600052600f86526040600020336000528652611f8e60ff60406000205416613528565b600160035401809581600355613582565b81600052600c83526040600020336001600160601b0360a01b825416179055600d8352604060002055604051908152f35b3461027157602036600319011261027157600435611ff06102968261350a565b600052600b6020526102db6102c06102c76004604060002001604051928380926129c1565b6040366003190112610271576120296123cd565b602435906001600160a01b03808061204085612b08565b1692169161205081841415612d59565b803314908115612128575b50156120bd57826000526006602052600461207a604060002054612a57565b500180546001600160a01b0319168317905561209583612b08565b167f8c5be1e5ebec7d5bd14f71427d1e84f3dd0314c0f7b2291e5b200ac8c7c3b925600080a4005b60405162461bcd60e51b815260206004820152603960248201527f455243333532353a20617070726f76652063616c6c6572206973206e6f74206f60448201527f776e6572206e6f7220617070726f76656420666f7220616c6c000000000000006064820152608490fd5b9050600052600760205260026040600020013360005260205260ff604060002054168461205b565b34610271576020366003190112610271576020611304600435612db0565b34610271576000366003190112610271576040516000805461218f81612987565b80845290600190818116908115610f2e57506001146121b8576102db846102c7818603826124ee565b600080805292507f290decd9548b62a8d60345a988386fc84ba6bc95484008f6362f93160ef3e5635b8284106121f95750505081016020016102c782610ec5565b805460208587018101919091529093019281016121e1565b346102715760403660031901126102715760043561222d6123b7565b9080600052602090600b825261225060ff60076040600020015460081c1661342d565b7f1cd6d520d98babae1045eb69c31ecab800996aa332094cb55c0ac10362e9b0c960005260098252604060002033600052825260ff60406000205416156123075780600052600b825260ff600760406000200154166122d7575b60009081526010825260408082206001600160a01b0390941682529290915220805460ff19166001179055005b60118252604060008181206001600160a01b038681168352908552919020546123029116151561346f565b6122aa565b60405162461bcd60e51b815260048101839052602f60248201527f53656e646572206e6f7420617574686f72697a656420746f206a6f696e20616460448201526e191c995cdcc81d1bc818481cdb1bdd608a1b6064820152608490fd5b34610271576020366003190112610271576004359063ffffffff60e01b821680920361027157602091637965db0b60e01b81149081156123a6575b5015158152f35b6301ffc9a760e01b1490508361239f565b602435906001600160a01b038216820361027157565b600435906001600160a01b038216820361027157565b60005b8381106123f65750506000910152565b81810151838201526020016123e6565b9060209161241f815180928185528580860191016123e3565b601f01601f1916010190565b6080906003190112610271576004356001600160a01b03811681036102715790602435906044359060643590565b606090600319011261027157600435906024356001600160a01b0381168103610271579060443590565b6060906003190112610271576001600160a01b0390600435828116810361027157916024359081168103610271579060443590565b60c081019081106001600160401b03821117610bc657604052565b602081019081106001600160401b03821117610bc657604052565b90601f801991011681019081106001600160401b03821117610bc657604052565b6001600160401b038111610bc657601f01601f191660200190565b9291926125368261250f565b9161254460405193846124ee565b829481845281830111610271578281602093846000960137010152565b9080601f830112156102715781602061257c9335910161252a565b90565b60009080825260209060098252604092838120338252835260ff8482205416156125a95750505050565b8351916001600160401b03903360608501838111868210176128a0578752602a8552858501918736843785511561288c5760308353855191600192831015612878576078602188015360295b83811161280e57506127cc57908751936080850190858210908211176127b8578852604284528684019460603687378451156127a4576030865384518210156127a45790607860218601536041915b818311612736575050506126f4576126f09386936126d4936126c560489461269c9a519a8b957f416363657373436f6e74726f6c3a206163636f756e74200000000000000000008c88015251809260378801906123e3565b8401917001034b99036b4b9b9b4b733903937b6329607d1b6037840152518093868401906123e3565b010360288101875201856124ee565b5192839262461bcd60e51b845260048401526024830190612406565b0390fd5b60648587519062461bcd60e51b825280600483015260248201527f537472696e67733a20686578206c656e67746820696e73756666696369656e746044820152fd5b909192600f81166010811015612790576f181899199a1a9b1b9c1cb0b131b232b360811b901a6127668588612960565b5360041c92801561277c57600019019190612644565b634e487b7160e01b82526011600452602482fd5b634e487b7160e01b83526032600452602483fd5b634e487b7160e01b81526032600452602490fd5b634e487b7160e01b86526041600452602486fd5b60648789519062461bcd60e51b825280600483015260248201527f537472696e67733a20686578206c656e67746820696e73756666696369656e746044820152fd5b90600f81166010811015612864576f181899199a1a9b1b9c1cb0b131b232b360811b901a61283c838a612960565b5360041c90801561285057600019016125f5565b634e487b7160e01b87526011600452602487fd5b634e487b7160e01b88526032600452602488fd5b634e487b7160e01b86526032600452602486fd5b634e487b7160e01b85526032600452602485fd5b634e487b7160e01b85526041600452602485fd5b906000918083526009602052604083209160018060a01b03169182845260205260ff6040842054166128e557505050565b8083526009602052604083208284526020526040832060ff1981541690557ff6391f5c32d9c69d2a47ea670b442974b53935d1edc7fd64eb21e047a839171b339380a4565b8181029291811591840414171561293d57565b634e487b7160e01b600052601160045260246000fd5b9190820180921161293d57565b908151811015612971570160200190565b634e487b7160e01b600052603260045260246000fd5b90600182811c921680156129b7575b60208310146129a157565b634e487b7160e01b600052602260045260246000fd5b91607f1691612996565b90600092918054916129d283612987565b918282526001938481169081600014612a3457506001146129f4575b50505050565b90919394506000526020928360002092846000945b838610612a205750505050010190388080806129ee565b805485870183015294019385908201612a09565b9294505050602093945060ff191683830152151560051b010190388080806129ee565b600554811015612971576006906005600052027f036b6384b5eca791c62761152d0c79bb0604c104a5fb6f4eb0703f3154bb3db00190600090565b612a9e61048082612e6c565b60005260066020526002612ab6604060002054612a57565b50015490565b15612ac357565b60405162461bcd60e51b815260206004820152601960248201527f455243333532353a20696e76616c696420746f6b656e204944000000000000006044820152606490fd5b612b1461048082612e6c565b6000526006602052612b2a604060002054612a57565b50600301546001600160a01b031690612b44821515612abc565b565b612b5261048082612e6c565b60005260066020526001612ab6604060002054612a57565b602081830312610271578051906001600160401b038211610271570181601f82011215610271578051612b9c8161250f565b92612baa60405194856124ee565b818452602082840101116102715761257c91602080850191016123e3565b612bd461048082612e6c565b600052600460205260406000209060018060a01b031660005260205260406000205490565b6001600160a01b03168015612c1957600052600760205260406000205490565b60405162461bcd60e51b815260206004820152602b60248201527f455243333532353a2062616c616e636520717565727920666f7220746865207a60448201526a65726f206164647265737360a81b6064820152608490fd5b15612c7957565b60405162461bcd60e51b815260206004820152603260248201527f455243333532353a207472616e736665722063616c6c6572206973206e6f74206044820152711bdddb995c881b9bdc88185c1c1c9bdd995960721b6064820152608490fd5b90612cfd939291612ced611b998433612dfb565b612cf8838383612e9a565b6132cc565b15612d0457565b60405162461bcd60e51b815260206004820152602760248201527f455243333532353a207472616e7366657220746f206e6f6e204552433732315260448201526632b1b2b4bb32b960c91b6064820152608490fd5b15612d6057565b60405162461bcd60e51b815260206004820152602260248201527f455243333532353a20617070726f76616c20746f2063757272656e74206f776e60448201526132b960f11b6064820152608490fd5b612dbc61048082612e6c565b6000526006602052612dd2604060002054612a57565b50600401546001600160a01b031690565b80548210156129715760005260206000200190600090565b906001600160a01b038080612e0f84612b08565b16931691838314938415612e42575b508315612e2c575b50505090565b612e3891929350612db0565b1614388080612e26565b909350600052600760205260026040600020018260005260205260ff604060002054169238612e1e565b60055415159081612e7b575090565b8091506000526006602052612e94604060002054612a57565b50541490565b612ea383612b08565b6001600160a01b039182169190811682900361312e578083169283156130db57612ecc85612b46565b50612ed685612a92565b5060009185835260209060068252604090612ef382862054612a57565b50600490810180546001600160a01b03199081169091559091898782612f1883612b08565b167f8c5be1e5ebec7d5bd14f71427d1e84f3dd0314c0f7b2291e5b200ac8c7c3b9258280a4898752600685526005612f5285892054612a57565b500180549091858988818f5b8684106130a4575050505050505080548782558061308b575b5050888652600684526003612f8e84882054612a57565b50019081541690558585526007835281852091825493600019948581019081116130785790612fbf88939286612de3565b90549060031b1c9060018601908c8552818152838520549261300081612fe5868b612de3565b90919082549060031b600019811b9283911b16911916179055565b855252818320558982528120558154908115613065575092828892613061947fddf252ad1be2c89b69c2b068fc378daa952ba7f163c4a11628f55a4df523b3ef9796019161304e8383612de3565b909182549160031b1b191690555561317f565b80a4565b634e487b7160e01b865260319052602485fd5b634e487b7160e01b885260118452602488fd5b61309d91885285882090810190613231565b3880612f77565b6130d19486928b6130b5878c612de3565b96905494835252209260031b1c168c5289528a88812055613222565b8690888b8f612f5e565b60405162461bcd60e51b815260206004820152602560248201527f455243333532353a207472616e7366657220746f20746865207a65726f206164604482015264647265737360d81b6064820152608490fd5b60405162461bcd60e51b8152602060048201526024808201527f455243333532353a207472616e736665722066726f6d20696e76616c6964206f6044820152633bb732b960e11b6064820152608490fd5b600090828252600660205260036131996040842054612a57565b500180546001600160a01b0319166001600160a01b0390921691821790558082526007602081815260408085208054878752600191909101835281862055928452528120805491600160401b831015613201575081612fe5916001612b449594018155612de3565b634e487b7160e01b81526041600452602490fd5b9190820391821161293d57565b600019811461293d5760010190565b81811061323c575050565b60008155600101613231565b90600160401b8111610bc65781549080835581811061326657505050565b612b449260005260206000209182019101613231565b9081602091031261027157516001600160e01b0319811681036102715790565b3d156132c7573d906132ad8261250f565b916132bb60405193846124ee565b82523d6000602084013e565b606090565b9192813b156133e45760209161331e916000604051958680958194630a85bd0160e11b9a8b845233600485015260018060a01b0380951660248501526044840152608060648401526084830190612406565b0393165af1600091816133b4575b506133a65761333961329c565b805190816133a15760405162461bcd60e51b815260206004820152603260248201527f4552433732313a207472616e7366657220746f206e6f6e20455243373231526560448201527131b2b4bb32b91034b6b83632b6b2b73a32b960711b6064820152608490fd5b602001fd5b6001600160e01b0319161490565b6133d691925060203d81116133dd575b6133ce81836124ee565b81019061327c565b903861332c565b503d6133c4565b50505050600190565b8054600160401b811015610bc65761340a91600182018155612de3565b819291549060031b9160018060a01b039283811b93849216901b16911916179055565b1561343457565b60405162461bcd60e51b815260206004820152601360248201527214db1bdd08191bd95cc81b9bdd08195e1a5cdd606a1b6044820152606490fd5b1561347657565b60405162461bcd60e51b815260206004820152602160248201527f596f752068617665206e6f74206265656e20696e766974656420746f206a6f696044820152603760f91b6064820152608490fd5b156134cc57565b60405162461bcd60e51b815260206004820152601660248201527514db1bdd081a5cc81b9bdd081c9959da5cdd195c995960521b6044820152606490fd5b600052600b602052613523600260406000200154612987565b151590565b1561352f57565b60405162461bcd60e51b815260206004820152602560248201527f53656e646572206e6f7420617574686f72697a656420746f206d696e7420746f604482015264081cdb1bdd60da1b6064820152608490fd5b6001600160a01b03808216959492939092908615611f05578415611eb6576135a985612e6c565b611e71576040908151936135bc856124d3565b6000958686528351906135ce826124b8565b88825260209682898d8c8b8097018981528a850191848352606086019384528b608087019580875260a0880198895260066005549b8c948352522055600160401b88101561378857613627600198898101600555612a57565b95909561377457906005959493929151855551888501555160028401558560038401915116906001600160601b0360a01b9182825416179055856004840192511690825416179055019051918251926001600160401b0384116137605789906136908585613248565b01918a52888a20908a5b84811061374d57505050505050958097986136d7827f0b2aac84f3ec956911fd78eae5311062972ff949f38412e8da39069d9f068cc6989961317f565b877fddf252ad1be2c89b69c2b068fc378daa952ba7f163c4a11628f55a4df523b3ef8180a485877fe4f48c240d3b994948aa54f3e2f5fca59263dfe1d52b6e4cf39a5d249b5ccb658280a485855260068352600261373782872054612a57565b5001613744838254612953565b905551908152a3565b8351821683820155928a0192850161369a565b634e487b7160e01b8b52604160045260248bfd5b634e487b7160e01b8f5260048f905260248ffd5b634e487b7160e01b8e52604160045260248efd5b6001600160a01b0382169290918315613831577f621b050de0ad08b51d19b48b3e6df75348c4de6bdd93e81b252ca62e28265b1b91816137de85602094613889565b15613808575b508360005260048252604060002085600052825280604060002055604051908152a3565b61382b9085600052600684526005613824604060002054612a57565b50016133ed565b386137e4565b60405162461bcd60e51b815260206004820152602a60248201527f455243333532353a20617070726f76652076616c756520746f20746865207a65604482015269726f206164647265737360b01b6064820152608490fd5b60009082825260066020908082526040906138a682862054612a57565b509260058094015496865b8881106138c45750505050505050905090565b8188528383526138e281876138db888c2054612a57565b5001612de3565b905460039190911b1c6001600160a01b039081169088161461390c5761390790613222565b6138b1565b505050505050505050600190565b6139248183612bc8565b61392e8383612dfb565b15806139a7575b61393f5750505050565b838110613962576139599361395391613215565b9161379c565b388080806129ee565b60405162461bcd60e51b815260206004820152601f60248201527f455243333532353a20696e73756666696369656e7420616c6c6f77616e6365006044820152606490fd5b50600019811415613935565b6139bc81612e6c565b15613be9576139ca82612e6c565b15613b965780600052602092600684526040926139ea8460002054612a57565b508160005260068652613a008560002054612a57565b50906002810190815490858210613b3f5760010154600184015403613ae45791600291613a3386613a8298979695613215565b905501613a41838254612953565b905580837f0b2aac84f3ec956911fd78eae5311062972ff949f38412e8da39069d9f068cc6888851868152a3845192613a79846124d3565b60008452613c3e565b15613a8b575050565b60849250519062461bcd60e51b82526004820152602d60248201527f455243333532353a207472616e736665722072656a656374656420627920455260448201526c21999a991aa932b1b2b4bb32b960991b6064820152fd5b865162461bcd60e51b815260048101899052602e60248201527f455243333532353a207472616e7366657220746f20746f6b656e20776974682060448201526d191a5999995c995b9d081cdb1bdd60921b6064820152608490fd5b875162461bcd60e51b8152600481018a9052602a60248201527f455243333532353a20696e73756666696369656e742062616c616e636520666f60448201526939103a3930b739b332b960b11b6064820152608490fd5b60405162461bcd60e51b815260206004820152602560248201527f455243333532353a207472616e7366657220746f20696e76616c696420746f6b604482015264195b88125160da1b6064820152608490fd5b60405162461bcd60e51b815260206004820152602760248201527f455243333532353a207472616e736665722066726f6d20696e76616c696420746044820152661bdad95b88125160ca1b6064820152608490fd5b929092613c4a84612b08565b803b15613d71576040516301ffc9a760e01b8152629ce20b60e01b6004820181905295602095926001600160a01b0316918681602481865afa8091600091613d34575b5090613ca9575050505050505050613ca361329c565b50600190565b15613d285760008694613ce8604051978896879586948d865233600487015260248601526044850152606484015260a0608484015260a4830190612406565b03925af19182156103cc57600092613d0b575b50506001600160e01b0319161490565b613d219250803d106133dd576133ce81836124ee565b3880613cfb565b50505050505050600190565b8881813d8311613d6a575b613d4981836124ee565b81010312613d665751908115158203613d63575038613c8d565b80fd5b5080fd5b503d613d3f565b5050505050600190565b604d811161293d57600a0a9056fea2646970667358221220da6a18ed2d9f09f3b06825682951f6374655a292a6e3f38cedfa4063bc7e4dab64736f6c634300081100336080604052346200048657620020b7803803806200001d816200048b565b9283398101608082820312620004865781516001600160401b0391908281116200048657816200004f918501620004b1565b91602092838501518281116200048657836200006d918701620004b1565b92604086015183811162000486576060916200008b918801620004b1565b9501516001600160a01b03811695908690036200048657815193838511620002c3576001948554938685811c951680156200047b575b88861014620002a2578190601f9586811162000425575b508890868311600114620003bd57600092620003b1575b5050600019600383901b1c191690861b1785555b805190848211620002c357600254908682811c92168015620003a6575b88831014620002a25781858493116200034f575b508790858311600114620002e557600092620002d9575b5050600019600383901b1c191690851b176002555b8051928311620002c35760039485548581811c91168015620002b8575b82821014620002a25783811162000257575b5080928411600114620001ed5750928293918392600094620001e1575b50501b9160001990841b1c19161790555b600080546001600160a01b031916919091179055604051611b939081620005248239f35b015192503880620001ac565b919083601f1981168760005284600020946000905b888383106200023c575050501062000223575b505050811b019055620001bd565b015160001983861b60f8161c1916905538808062000215565b85870151885590960195948501948793509081019062000202565b86600052816000208480870160051c82019284881062000298575b0160051c019086905b8281106200028b5750506200018f565b600081550186906200027b565b9250819262000272565b634e487b7160e01b600052602260045260246000fd5b90607f16906200017d565b634e487b7160e01b600052604160045260246000fd5b0151905038806200014b565b90879350601f198316916002600052896000209260005b8b8282106200033857505084116200031e575b505050811b0160025562000160565b015160001960f88460031b161c191690553880806200030f565b8385015186558b97909501949384019301620002fc565b9091506002600052876000208580850160051c8201928a86106200039c575b918991869594930160051c01915b8281106200038c57505062000134565b600081558594508991016200037c565b925081926200036e565b91607f169162000120565b015190503880620000ef565b90889350601f19831691846000528a6000209260005b8c8282106200040e5750508411620003f4575b505050811b01855562000103565b015160001960f88460031b161c19169055388080620003e6565b8385015186558c97909501949384019301620003d3565b90915087600052886000208680850160051c8201928b861062000471575b918a91869594930160051c01915b82811062000461575050620000d8565b600081558594508a910162000451565b9250819262000443565b94607f1694620000c1565b600080fd5b6040519190601f01601f191682016001600160401b03811183821017620002c357604052565b919080601f84011215620004865782516001600160401b038111620002c357602090620004e7601f8201601f191683016200048b565b92818452828287010111620004865760005b8181106200050f57508260009394955001015290565b8581018301518482018401528201620004f956fe608060408181526004908136101561001657600080fd5b600092833560e01c9081631375d843146113cd57508063246a908b146112cf57806355f804b31461118b57806364140ec01461108c5780636c0360eb14610fcd5780636c037f8a14610d0f57806371f0442e14610c7b578063725fa09c146108c05780637e468a51146107c1578063842251d414610685578063894b4c2e146101755763b3154c08146100a857600080fd5b34610171576020918260031936011261016d5780358452825280832091815192848154906100d5826118e1565b80875292600192808416908115610149575060011461010e575b61010a8787610100828c03836114e3565b5191829182611485565b0390f35b9080949750528583205b828410610136575050508261010a94610100928201019438806100ef565b8054868501880152928601928101610118565b60ff19168887015250505050151560051b83010192506101008261010a38806100ef565b8380fd5b8280fd5b50903461017157602092836003193601126106825782516306fdde0360e01b81529180359082848281335afa938415610678578394610654575b506101b98261179e565b926102056022875180968a6101d78184019a8b815193849201611462565b820161202360f01b8c8201526101f68c83519384918785019101611462565b010360028101875201856114e3565b828152818752858120865181549391899184610220876118e1565b80835284830193600198868a821691826000146106345750506001146105fb575b505090610254816102c9949303826114e3565b6102e561026030611a1a565b898852600686526102d78d808a209a60058952818b2091519788948a86019a6102ac61028b8d61191b565b91692f636f6e74726163742f60b01b83528351938491600a85019101611462565b019c6011662f746f6b656e2f60c81b9e8f600a8201520190611997565b602f60f81b81520190611997565b03601f1981018552846114e3565b8a51631398fee160e31b81528581018990528c81602481335afa80156105c25787906105cc575b610316915061179e565b8b5163131f9f3f60e11b8152958601899052948c81602481335afa9081156105c2578d918d918991610589575b5061034d9061179e565b9761035733611a1a565b9a815260068352208c51713d91383937b832b93a34b2b9afbab934911d60711b818401908152601160f91b60328301529a90998a93909161039a6033860161191b565b9068636f6e74726163742f60b81b825280518093600984019201916103be92611462565b019060098201526010016103d191611997565b6f17b83937b832b93a34b2b9973539b7b760811b815261227d60f01b601082015203600d198101885260120161040790886114e3565b8a51998a998d683d913730b6b2911d1160b91b908c015251908160298c0161042e92611462565b890190701116113232b9b1b934b83a34b7b7111d1160791b6029830152519182603a830161045b92611462565b01906a11161134b6b0b3b2911d1160a91b603a8301525191826045830161048192611462565b016c1116113130b630b731b2911d1160991b6045820152815191828a605284019201916104ad92611462565b016911161139b637ba111d1160b11b60528201528151918289605c84019201916104d692611462565b01906e111611383937b832b93a34b2b9911d60891b605c830152519182606b830161050092611462565b01606b8101607d60f81b905203604c81018252606c0161052090826114e3565b61052990611631565b81517f646174613a6170706c69636174696f6e2f6a736f6e3b6261736536342c00000084820152815190938492610567918391603d86019101611462565b810103601d81018352603d0161057d90836114e3565b5161010a819282611485565b928092508391503d83116105bb575b6105a281836114e3565b810103126105b7578b61034d8e925190610343565b8680fd5b503d610598565b8c513d89823e3d90fd5b508c81813d83116105f4575b6105e281836114e3565b810103126105b757610316905161030c565b503d6105d8565b8592508752818720908888925b82841061061e5750505082010161025482610241565b80548487018601528794909301928a9101610608565b60ff1916875292151560051b850190920192506102549150839050610241565b6106719194503d8085833e61066981836114e3565b8101906115a0565b92386101af565b85513d85823e3d90fd5b80fd5b508290346107bd576106963661156d565b939083526020916006835283209184519167ffffffffffffffff83116107aa57506106c183546118e1565b601f8111610767575b5080601f831160011461070557508394829394926106fa575b50508160011b916000199060031b1c191617905580f35b0151905084806106e3565b90601f198316958486528286209286905b88821061074f57505083600195969710610736575b505050811b01905580f35b015160001960f88460031b161c1916905584808061072b565b80600185968294968601518155019501930190610716565b838552818520601f840160051c8101918385106107a0575b601f0160051c01905b81811061079557506106ca565b858155600101610788565b909150819061077f565b634e487b7160e01b855260419052602484fd5b5080fd5b508290346107bd576107d23661156d565b939083526020916007835283209184519167ffffffffffffffff83116107aa57506107fd83546118e1565b601f811161087d575b5080601f831160011461083557508394829394926106fa5750508160011b916000199060031b1c191617905580f35b90601f198316958486528286209286905b8882106108655750508360019596971061073657505050811b01905580f35b80600185968294968601518155019501930190610846565b838552818520601f840160051c8101918385106108b6575b601f0160051c01905b8181106108ab5750610806565b85815560010161089e565b9091508190610895565b50913461068257806003193601126106825782516306fdde0360e01b815281818481335afa908115610c71578291610c57575b508351829060025492610905846118e1565b9586835260209683888101956001978a8982169182600014610c3c575050600114610be1575b610937925003846114e3565b61094033611a1a565b9588519586898101986109528a61191b565b68636f6e74726163742f60b81b81526109758c8351938491600985019101611462565b01602f60f81b600982015283906003549361098f856118e1565b94818116908115610bc05750600114610b61575b50506109b8925003601f1981018852876114e3565b8789518093633e7e866960e01b825281335afa918215610b55578192610b17575b5050610ac9605a888a61010a9b9961010099610a7f603d9a610b079e9a610a5c610ace9b610a0c60ff610a329d1661179e565b97519b8c99683d913730b6b2911d1160b91b818c0152825192839160298d019101611462565b880191701116113232b9b1b934b83a34b7b7111d1160791b6029840152518093603a840190611462565b01916a11161134b6b0b3b2911d1160a91b603a8401525180936045840190611462565b01721116113b30b63ab2a232b1b4b6b0b639911d1160691b6045820152610aaf825180938a605885019101611462565b0161227d60f01b605882015203603a8101845201826114e3565b611631565b845195827f646174613a6170706c69636174696f6e2f6a736f6e3b6261736536342c000000889485015282519283918686019101611462565b810103601d8101855201836114e3565b9091508781813d8311610b4e575b610b2f81836114e3565b810103126107bd57519060ff821682036106825750610ac9605a6109d9565b503d610b25565b508851903d90823e3d90fd5b6003865290915084908c7fc2575a0e9e593c00f959f8c92f12db2869c3395a3b0502d05e2516446f71f85b5b868410610ba857505050506109b892600a91010138806109a3565b8054858501600a01528c95509201918d908201610b8d565b9050600a93506109b895915060ff19168383015280151502010138806109a3565b505060028752838888887f405787fa12a823e0f2b7631cc41b3ba8828b3321ca811111fa75cd3aa3bb5ace5b858310610c23575050610937935082010161092b565b80919294505483858a0101520191018990888793610c0d565b60ff1916895261093794151560051b840101915061092b9050565b610c6b91503d8084833e61066981836114e3565b386108f3565b84513d84823e3d90fd5b5034610171576020918260031936011261016d57358352600582528083209181519284815490610caa826118e1565b808752926001928084169081156101495750600114610cd45761010a8787610100828c03836114e3565b9080949750528583205b828410610cfc575050508261010a94610100928201019438806100ef565b8054868501880152928601928101610cde565b5090346101715760209283600319360112610682578054835163ec327a2160e01b815283358185018190529092916001600160a01b0316908284602481855afa938415610fc3578394610fa7575b50855163bc74ebb960e01b8152858101829052948386602481865afa958615610f9d578496610f81575b5086516309c3dd8760e01b80825282820184905290938585602481845afa948515610f7757918a9594939187938496610f56575b5090602491610dfb60268d518a652f696d61676560d01b81610de7849e85019d8e815193849201611462565b83019182015203600681018b5201896114e3565b8b51958694859384528301525afa938415610f4b578094610f2e575b50508551918288808201868197519283910191610e3392611462565b81018981016f17b83937b832b93a34b2b9973539b7b760811b905203601081018452603001610e6290846114e3565b8651958695683d913730b6b2911d1160b91b8a880152805190818b60298a01920191610e8d92611462565b8601701116113232b9b1b934b83a34b7b7111d1160791b6029820152815191828b603a8401920191610ebe92611462565b01906a11161134b6b0b3b2911d1160a91b603a83015251918260458301610ee492611462565b01906e111611383937b832b93a34b2b9911d60891b604583015251918260548301610f0e92611462565b0160548101607d60f81b90520360358101825260550161052090826114e3565b610f439294503d8091833e61066981836114e3565b913880610e17565b8751903d90823e3d90fd5b602492919650610f6f903d8087833e61066981836114e3565b959091610dbb565b89513d88823e3d90fd5b610f969196503d8086833e61066981836114e3565b9438610d87565b87513d86823e3d90fd5b610fbc9194503d8085833e61066981836114e3565b9238610d5d565b86513d85823e3d90fd5b8382346107bd57816003193601126107bd57805190826001805491610ff1836118e1565b80865292828116908115611064575060011461101a575b5050506101008261010a9403836114e3565b9450808552600080516020611b3e8339815191525b82861061104c5750505061010082602061010a9582010194611008565b8054602087870181019190915290950194810161102f565b61010a97508693506020925061010094915060ff191682840152151560051b82010194611008565b508290346107bd5761109d3661156d565b939083526020916005835283209184519167ffffffffffffffff83116107aa57506110c883546118e1565b601f8111611148575b5080601f831160011461110057508394829394926106fa5750508160011b916000199060031b1c191617905580f35b90601f198316958486528286209286905b8882106111305750508360019596971061073657505050811b01905580f35b80600185968294968601518155019501930190611111565b838552818520601f840160051c810191838510611181575b601f0160051c01905b81811061117657506110d1565b858155600101611169565b9091508190611160565b828434610682576020806003193601126107bd5767ffffffffffffffff833581811161016d576111be9036908601611521565b9384519182116112bc57506001916111d683546118e1565b601f811161126a575b5080601f8311600114611219575083948293949261120e575b5050600019600383901b1c191690821b17905580f35b0151905084806111f8565b838552601f19831695600080516020611b3e833981519152929186905b888210611253575050838596971061073657505050811b01905580f35b808785968294968601518155019501930190611236565b838552600080516020611b3e833981519152601f840160051c8101918385106112b2575b601f0160051c019084905b8281106112a75750506111df565b868155018490611299565b909150819061128e565b634e487b7160e01b845260419052602483fd5b508290346107bd576112e03661156d565b9390835260209181835283209184519167ffffffffffffffff83116107aa575061130a83546118e1565b601f811161138a575b5080601f831160011461134257508394829394926106fa5750508160011b916000199060031b1c191617905580f35b90601f198316958486528286209286905b8882106113725750508360019596971061073657505050811b01905580f35b80600185968294968601518155019501930190611353565b838552818520601f840160051c8101918385106113c3575b601f0160051c01905b8181106113b85750611313565b8581556001016113ab565b90915081906113a2565b9290503461016d576020908160031936011261145e57358452600681528184208054856113f9826118e1565b8087529260019280841690811561014957506001146114235761010a8787610100828c03836114e3565b9080949750528583205b82841061144b575050508261010a94610100928201019438806100ef565b805486850188015292860192810161142d565b8480fd5b60005b8381106114755750506000910152565b8181015183820152602001611465565b604091602082526114a58151809281602086015260208686019101611462565b601f01601f1916010190565b6060810190811067ffffffffffffffff8211176114cd57604052565b634e487b7160e01b600052604160045260246000fd5b90601f8019910116810190811067ffffffffffffffff8211176114cd57604052565b67ffffffffffffffff81116114cd57601f01601f191660200190565b81601f820112156115685780359061153882611505565b9261154660405194856114e3565b8284526020838301011161156857816000926020809301838601378301015290565b600080fd5b90604060031983011261156857600435916024359067ffffffffffffffff82116115685761159d91600401611521565b90565b6020818303126115685780519067ffffffffffffffff8211611568570181601f820112156115685780516115d381611505565b926115e160405194856114e3565b818452602082840101116115685761159d9160208085019101611462565b9061160982611505565b61161660405191826114e3565b8281528092611627601f1991611505565b0190602036910137565b80511561177957604051611644816114b1565b604081527f4142434445464748494a4b4c4d4e4f505152535455565758595a61626364656660208201527f6768696a6b6c6d6e6f707172737475767778797a303132333435363738392b2f60408201528151600292838201809211611763576003918290046001600160fe1b0381168103611763576116c6908594951b6115ff565b936020850193829183518401925b83811061171257505050505106806001146116ff576002146116f4575090565b603d90600019015390565b50603d9081600019820153600119015390565b85600491979293949701918251600190603f9082828260121c16880101518453828282600c1c16880101518385015382828260061c16880101518885015316850101518782015301959291906116d4565b634e487b7160e01b600052601160045260246000fd5b506040516020810181811067ffffffffffffffff8211176114cd576040526000815290565b806000917a184f03e93ff9f4daa797ed6e38ed64bf6a1f010000000000000000808210156118d3575b506d04ee2d6d415b85acef8100000000808310156118c4575b50662386f26fc10000808310156118b5575b506305f5e100808310156118a6575b5061271080831015611897575b506064821015611887575b600a8092101561187d575b6001908160216118358287016115ff565b95860101905b611847575b5050505090565b600019019083906f181899199a1a9b1b9c1cb0b131b232b360811b8282061a8353049182156118785791908261183b565b611840565b9160010191611824565b9190606460029104910191611819565b6004919392049101913861180e565b60089193920491019138611801565b601091939204910191386117f2565b602091939204910191386117e0565b6040935081049150386117c7565b90600182811c92168015611911575b60208310146118fb57565b634e487b7160e01b600052602260045260246000fd5b91607f16916118f0565b9060009160019081549161192e836118e1565b92818116908115611984575060011461194657505050565b809192939450600052600080516020611b3e833981519152906000915b848310611971575050500190565b8181602092548587015201920191611963565b60ff191683525050811515909102019150565b6000929181546119a6816118e1565b926001918083169081156119ff57506001146119c3575b50505050565b90919293945060005260209081600020906000915b8583106119ee57505050500190388080806119bd565b8054858401529183019181016119d8565b60ff19168452505050811515909102019150388080806119bd565b604051906001600160a01b0316611a30826114b1565b602a82526020908183016040368237835115611b2757603090538251600190811015611b2757607860218501536029905b808211611ab5575050611a72575090565b6064906040519062461bcd60e51b825280600483015260248201527f537472696e67733a20686578206c656e67746820696e73756666696369656e746044820152fd5b9091600f81166010811015611b12578551841015611b12576f181899199a1a9b1b9c1cb0b131b232b360811b901a85840185015360041c918015611afd576000190190611a61565b60246000634e487b7160e01b81526011600452fd5b60246000634e487b7160e01b81526032600452fd5b634e487b7160e01b600052603260045260246000fdfeb10e2d527612073b26eecdfd717e6a320cf44b4afac2b0732d9fcbe2b7fa0cf6a2646970667358221220075d961bac45a8455e8b8f4260cef222c6c6880276b6f448f391c8c0a2b708f264736f6c63430008110033bb8a6a4669ba250d26cd7a459eca9d215f8307e33aebe50379bc5a3617ec3444290decd9548b62a8d60345a988386fc84ba6bc95484008f6362f93160ef3e563",
  "linkReferences": {},
  "deployedLinkReferences": {}
}