{
  "_format": "hh-sol-artifact-1",
  "contractName": "TimeCredit",
  "sourceName": "contracts/TimeCredit.sol",
  "abi": [
    {
      "inputs": [
        {
          "internalType": "address",
          "name": "revenueAcct_",
          "type": "address"
        },
        {
          "internalType": "address",
          "name": "serviceAdmin_",
          "type": "address"
        },
        {
          "internalType": "address",
          "name": "slotRegistry_",
          "type": "address"
        },
        {
          "internalType": "address",
          "name": "poolContract_",
          "type": "address"
        },
        {
          "internalType": "address",
          "name": "underlyingContract_",
          "type": "address"
        },
        {
          "internalType": "address",
          "name": "mktAdmin_",
          "type": "address"
        },
        {
          "internalType": "uint256",
          "name": "defaultSlot_",
          "type": "uint256"
        },
        {
          "internalType": "string",
          "name": "name_",
          "type": "string"
        },
        {
          "internalType": "string",
          "name": "symbol_",
          "type": "string"
        },
        {
          "internalType": "string",
          "name": "baseUri_",
          "type": "string"
        },
        {
          "internalType": "string",
          "name": "contractDescription_",
          "type": "string"
        },
        {
          "internalType": "string",
          "name": "contractImage_",
          "type": "string"
        },
        {
          "internalType": "string",
          "name": "dispTimeUnit_",
          "type": "string"
        },
        {
          "internalType": "string",
          "name": "valueToken_",
          "type": "string"
        },
        {
          "internalType": "uint8",
          "name": "decimals_",
          "type": "uint8"
        }
      ],
      "stateMutability": "nonpayable",
      "type": "constructor"
    },
    {
      "anonymous": false,
      "inputs": [
        {
          "indexed": true,
          "internalType": "address",
          "name": "_owner",
          "type": "address"
        },
        {
          "indexed": true,
          "internalType": "address",
          "name": "_approved",
          "type": "address"
        },
        {
          "indexed": true,
          "internalType": "uint256",
          "name": "_tokenId",
          "type": "uint256"
        }
      ],
      "name": "Approval",
      "type": "event"
    },
    {
      "anonymous": false,
      "inputs": [
        {
          "indexed": true,
          "internalType": "address",
          "name": "_owner",
          "type": "address"
        },
        {
          "indexed": true,
          "internalType": "address",
          "name": "_operator",
          "type": "address"
        },
        {
          "indexed": false,
          "internalType": "bool",
          "name": "_approved",
          "type": "bool"
        }
      ],
      "name": "ApprovalForAll",
      "type": "event"
    },
    {
      "anonymous": false,
      "inputs": [
        {
          "indexed": true,
          "internalType": "uint256",
          "name": "_tokenId",
          "type": "uint256"
        },
        {
          "indexed": true,
          "internalType": "address",
          "name": "_operator",
          "type": "address"
        },
        {
          "indexed": false,
          "internalType": "uint256",
          "name": "_value",
          "type": "uint256"
        }
      ],
      "name": "ApprovalValue",
      "type": "event"
    },
    {
      "anonymous": false,
      "inputs": [
        {
          "indexed": false,
          "internalType": "uint256",
          "name": "offeringId",
          "type": "uint256"
        },
        {
          "indexed": false,
          "internalType": "uint256",
          "name": "value",
          "type": "uint256"
        }
      ],
      "name": "ListOffer",
      "type": "event"
    },
    {
      "anonymous": false,
      "inputs": [
        {
          "indexed": false,
          "internalType": "address",
          "name": "contractAddress",
          "type": "address"
        }
      ],
      "name": "MetadataDescriptor",
      "type": "event"
    },
    {
      "anonymous": false,
      "inputs": [
        {
          "indexed": false,
          "internalType": "uint256",
          "name": "tokenId",
          "type": "uint256"
        },
        {
          "indexed": false,
          "internalType": "uint256",
          "name": "slot",
          "type": "uint256"
        },
        {
          "indexed": false,
          "internalType": "uint256",
          "name": "value",
          "type": "uint256"
        }
      ],
      "name": "MintAssetToken",
      "type": "event"
    },
    {
      "anonymous": false,
      "inputs": [
        {
          "indexed": false,
          "internalType": "uint256",
          "name": "tokenId",
          "type": "uint256"
        },
        {
          "indexed": false,
          "internalType": "uint256",
          "name": "slot",
          "type": "uint256"
        },
        {
          "indexed": false,
          "internalType": "uint256",
          "name": "value",
          "type": "uint256"
        }
      ],
      "name": "MintServiceToken",
      "type": "event"
    },
    {
      "anonymous": false,
      "inputs": [
        {
          "indexed": false,
          "internalType": "uint256",
          "name": "newTokenId",
          "type": "uint256"
        },
        {
          "indexed": false,
          "internalType": "uint256",
          "name": "slot",
          "type": "uint256"
        },
        {
          "indexed": false,
          "internalType": "uint256",
          "name": "value",
          "type": "uint256"
        }
      ],
      "name": "MintServiceTokenToAddress",
      "type": "event"
    },
    {
      "anonymous": false,
      "inputs": [
        {
          "indexed": false,
          "internalType": "uint256",
          "name": "tokenId",
          "type": "uint256"
        },
        {
          "indexed": false,
          "internalType": "uint256",
          "name": "valueSeconds",
          "type": "uint256"
        },
        {
          "indexed": false,
          "internalType": "uint256",
          "name": "valueUnit",
          "type": "uint256"
        }
      ],
      "name": "MintTimeToken",
      "type": "event"
    },
    {
      "anonymous": false,
      "inputs": [
        {
          "indexed": true,
          "internalType": "bytes32",
          "name": "role",
          "type": "bytes32"
        },
        {
          "indexed": true,
          "internalType": "bytes32",
          "name": "previousAdminRole",
          "type": "bytes32"
        },
        {
          "indexed": true,
          "internalType": "bytes32",
          "name": "newAdminRole",
          "type": "bytes32"
        }
      ],
      "name": "RoleAdminChanged",
      "type": "event"
    },
    {
      "anonymous": false,
      "inputs": [
        {
          "indexed": true,
          "internalType": "bytes32",
          "name": "role",
          "type": "bytes32"
        },
        {
          "indexed": true,
          "internalType": "address",
          "name": "account",
          "type": "address"
        },
        {
          "indexed": true,
          "internalType": "address",
          "name": "sender",
          "type": "address"
        }
      ],
      "name": "RoleGranted",
      "type": "event"
    },
    {
      "anonymous": false,
      "inputs": [
        {
          "indexed": true,
          "internalType": "bytes32",
          "name": "role",
          "type": "bytes32"
        },
        {
          "indexed": true,
          "internalType": "address",
          "name": "account",
          "type": "address"
        },
        {
          "indexed": true,
          "internalType": "address",
          "name": "sender",
          "type": "address"
        }
      ],
      "name": "RoleRevoked",
      "type": "event"
    },
    {
      "anonymous": false,
      "inputs": [
        {
          "indexed": true,
          "internalType": "address",
          "name": "metadataDescriptor",
          "type": "address"
        }
      ],
      "name": "SetMetadataDescriptor",
      "type": "event"
    },
    {
      "anonymous": false,
      "inputs": [
        {
          "indexed": true,
          "internalType": "uint256",
          "name": "_tokenId",
          "type": "uint256"
        },
        {
          "indexed": true,
          "internalType": "uint256",
          "name": "_oldSlot",
          "type": "uint256"
        },
        {
          "indexed": true,
          "internalType": "uint256",
          "name": "_newSlot",
          "type": "uint256"
        }
      ],
      "name": "SlotChanged",
      "type": "event"
    },
    {
      "anonymous": false,
      "inputs": [
        {
          "indexed": true,
          "internalType": "address",
          "name": "_from",
          "type": "address"
        },
        {
          "indexed": true,
          "internalType": "address",
          "name": "_to",
          "type": "address"
        },
        {
          "indexed": true,
          "internalType": "uint256",
          "name": "_tokenId",
          "type": "uint256"
        }
      ],
      "name": "Transfer",
      "type": "event"
    },
    {
      "anonymous": false,
      "inputs": [
        {
          "indexed": true,
          "internalType": "uint256",
          "name": "_fromTokenId",
          "type": "uint256"
        },
        {
          "indexed": true,
          "internalType": "uint256",
          "name": "_toTokenId",
          "type": "uint256"
        },
        {
          "indexed": false,
          "internalType": "uint256",
          "name": "_value",
          "type": "uint256"
        }
      ],
      "name": "TransferValue",
      "type": "event"
    },
    {
      "anonymous": false,
      "inputs": [
        {
          "indexed": false,
          "internalType": "uint256",
          "name": "fromTokenId",
          "type": "uint256"
        },
        {
          "indexed": false,
          "internalType": "uint256",
          "name": "toTokenId",
          "type": "uint256"
        },
        {
          "indexed": false,
          "internalType": "uint256",
          "name": "value",
          "type": "uint256"
        }
      ],
      "name": "ValueTransfer",
      "type": "event"
    },
    {
      "inputs": [],
      "name": "DEFAULT_ADMIN_ROLE",
      "outputs": [
        {
          "internalType": "bytes32",
          "name": "",
          "type": "bytes32"
        }
      ],
      "stateMutability": "view",
      "type": "function"
    },
    {
      "inputs": [],
      "name": "MKT_ARBITRATOR_ROLE",
      "outputs": [
        {
          "internalType": "bytes32",
          "name": "",
          "type": "bytes32"
        }
      ],
      "stateMutability": "view",
      "type": "function"
    },
    {
      "inputs": [],
      "name": "SERVICE_ADMIN_ROLE",
      "outputs": [
        {
          "internalType": "bytes32",
          "name": "",
          "type": "bytes32"
        }
      ],
      "stateMutability": "view",
      "type": "function"
    },
    {
      "inputs": [
        {
          "internalType": "string",
          "name": "uri_",
          "type": "string"
        }
      ],
      "name": "_setBaseURI",
      "outputs": [],
      "stateMutability": "nonpayable",
      "type": "function"
    },
    {
      "inputs": [
        {
          "internalType": "uint256",
          "name": "tokenId_",
          "type": "uint256"
        },
        {
          "internalType": "uint256",
          "name": "valueSeconds_",
          "type": "uint256"
        }
      ],
      "name": "addTime",
      "outputs": [],
      "stateMutability": "nonpayable",
      "type": "function"
    },
    {
      "inputs": [
        {
          "internalType": "uint256",
          "name": "tokenId_",
          "type": "uint256"
        },
        {
          "internalType": "address",
          "name": "operator_",
          "type": "address"
        }
      ],
      "name": "allowance",
      "outputs": [
        {
          "internalType": "uint256",
          "name": "",
          "type": "uint256"
        }
      ],
      "stateMutability": "view",
      "type": "function"
    },
    {
      "inputs": [
        {
          "internalType": "address",
          "name": "to_",
          "type": "address"
        },
        {
          "internalType": "uint256",
          "name": "tokenId_",
          "type": "uint256"
        }
      ],
      "name": "approve",
      "outputs": [],
      "stateMutability": "payable",
      "type": "function"
    },
    {
      "inputs": [
        {
          "internalType": "uint256",
          "name": "tokenId_",
          "type": "uint256"
        },
        {
          "internalType": "address",
          "name": "to_",
          "type": "address"
        },
        {
          "internalType": "uint256",
          "name": "value_",
          "type": "uint256"
        }
      ],
      "name": "approve",
      "outputs": [],
      "stateMutability": "payable",
      "type": "function"
    },
    {
      "inputs": [
        {
          "internalType": "address",
          "name": "owner_",
          "type": "address"
        }
      ],
      "name": "balanceOf",
      "outputs": [
        {
          "internalType": "uint256",
          "name": "balance",
          "type": "uint256"
        }
      ],
      "stateMutability": "view",
      "type": "function"
    },
    {
      "inputs": [
        {
          "internalType": "uint256",
          "name": "tokenId_",
          "type": "uint256"
        }
      ],
      "name": "balanceOf",
      "outputs": [
        {
          "internalType": "uint256",
          "name": "",
          "type": "uint256"
        }
      ],
      "stateMutability": "view",
      "type": "function"
    },
    {
      "inputs": [],
      "name": "contractAdmin",
      "outputs": [
        {
          "internalType": "address",
          "name": "",
          "type": "address"
        }
      ],
      "stateMutability": "view",
      "type": "function"
    },
    {
      "inputs": [],
      "name": "contractURI",
      "outputs": [
        {
          "internalType": "string",
          "name": "",
          "type": "string"
        }
      ],
      "stateMutability": "view",
      "type": "function"
    },
    {
      "inputs": [],
      "name": "creditType",
      "outputs": [
        {
          "internalType": "string",
          "name": "",
          "type": "string"
        }
      ],
      "stateMutability": "view",
      "type": "function"
    },
    {
      "inputs": [],
      "name": "defaultSlot",
      "outputs": [
        {
          "internalType": "uint256",
          "name": "",
          "type": "uint256"
        }
      ],
      "stateMutability": "view",
      "type": "function"
    },
    {
      "inputs": [
        {
          "internalType": "uint256",
          "name": "tokenId_",
          "type": "uint256"
        }
      ],
      "name": "getApproved",
      "outputs": [
        {
          "internalType": "address",
          "name": "",
          "type": "address"
        }
      ],
      "stateMutability": "view",
      "type": "function"
    },
    {
      "inputs": [
        {
          "internalType": "bytes32",
          "name": "role",
          "type": "bytes32"
        }
      ],
      "name": "getRoleAdmin",
      "outputs": [
        {
          "internalType": "bytes32",
          "name": "",
          "type": "bytes32"
        }
      ],
      "stateMutability": "view",
      "type": "function"
    },
    {
      "inputs": [
        {
          "internalType": "uint256",
          "name": "tokenId",
          "type": "uint256"
        }
      ],
      "name": "getTokenDescription",
      "outputs": [
        {
          "internalType": "string",
          "name": "",
          "type": "string"
        }
      ],
      "stateMutability": "view",
      "type": "function"
    },
    {
      "inputs": [
        {
          "internalType": "uint256",
          "name": "tokenId",
          "type": "uint256"
        }
      ],
      "name": "getTokenImage",
      "outputs": [
        {
          "internalType": "string",
          "name": "",
          "type": "string"
        }
      ],
      "stateMutability": "view",
      "type": "function"
    },
    {
      "inputs": [
        {
          "internalType": "uint256",
          "name": "tokenId",
          "type": "uint256"
        }
      ],
      "name": "getTokenUUID",
      "outputs": [
        {
          "internalType": "string",
          "name": "",
          "type": "string"
        }
      ],
      "stateMutability": "view",
      "type": "function"
    },
    {
      "inputs": [
        {
          "internalType": "bytes32",
          "name": "role",
          "type": "bytes32"
        },
        {
          "internalType": "address",
          "name": "account",
          "type": "address"
        }
      ],
      "name": "grantRole",
      "outputs": [],
      "stateMutability": "nonpayable",
      "type": "function"
    },
    {
      "inputs": [
        {
          "internalType": "bytes32",
          "name": "role",
          "type": "bytes32"
        },
        {
          "internalType": "address",
          "name": "account",
          "type": "address"
        }
      ],
      "name": "hasRole",
      "outputs": [
        {
          "internalType": "bool",
          "name": "",
          "type": "bool"
        }
      ],
      "stateMutability": "view",
      "type": "function"
    },
    {
      "inputs": [
        {
          "internalType": "address",
          "name": "owner_",
          "type": "address"
        },
        {
          "internalType": "address",
          "name": "operator_",
          "type": "address"
        }
      ],
      "name": "isApprovedForAll",
      "outputs": [
        {
          "internalType": "bool",
          "name": "",
          "type": "bool"
        }
      ],
      "stateMutability": "view",
      "type": "function"
    },
    {
      "inputs": [
        {
          "internalType": "uint256",
          "name": "tokenId_",
          "type": "uint256"
        }
      ],
      "name": "isValid",
      "outputs": [
        {
          "internalType": "bool",
          "name": "",
          "type": "bool"
        }
      ],
      "stateMutability": "view",
      "type": "function"
    },
    {
      "inputs": [
        {
          "internalType": "uint256",
          "name": "expiration_",
          "type": "uint256"
        },
        {
          "internalType": "uint256",
          "name": "tokenId_",
          "type": "uint256"
        },
        {
          "internalType": "uint256",
          "name": "price_",
          "type": "uint256"
        },
        {
          "internalType": "string",
          "name": "assetId_",
          "type": "string"
        },
        {
          "internalType": "string",
          "name": "side_",
          "type": "string"
        }
      ],
      "name": "listOffer",
      "outputs": [],
      "stateMutability": "nonpayable",
      "type": "function"
    },
    {
      "inputs": [],
      "name": "metadataDescriptor",
      "outputs": [
        {
          "internalType": "contract IERC3525MetadataDescriptor",
          "name": "",
          "type": "address"
        }
      ],
      "stateMutability": "view",
      "type": "function"
    },
    {
      "inputs": [
        {
          "internalType": "address",
          "name": "owner_",
          "type": "address"
        },
        {
          "internalType": "uint256",
          "name": "slot_",
          "type": "uint256"
        },
        {
          "internalType": "uint256",
          "name": "value_",
          "type": "uint256"
        },
        {
          "internalType": "string",
          "name": "uuid_",
          "type": "string"
        },
        {
          "internalType": "string",
          "name": "tokenDescription_",
          "type": "string"
        },
        {
          "internalType": "string",
          "name": "tokenImage_",
          "type": "string"
        },
        {
          "internalType": "string",
          "name": "property_",
          "type": "string"
        }
      ],
      "name": "mint",
      "outputs": [
        {
          "internalType": "uint256",
          "name": "",
          "type": "uint256"
        }
      ],
      "stateMutability": "nonpayable",
      "type": "function"
    },
    {
      "inputs": [
        {
          "internalType": "address",
          "name": "owner_",
          "type": "address"
        },
        {
          "internalType": "uint256",
          "name": "slotId_",
          "type": "uint256"
        },
        {
          "internalType": "uint256",
          "name": "timeValue_",
          "type": "uint256"
        },
        {
          "internalType": "uint256",
          "name": "paidValue_",
          "type": "uint256"
        },
        {
          "internalType": "uint256",
          "name": "validStart_",
          "type": "uint256"
        },
        {
          "internalType": "uint256",
          "name": "validExpiration_",
          "type": "uint256"
        },
        {
          "internalType": "string",
          "name": "uuid_",
          "type": "string"
        },
        {
          "internalType": "string",
          "name": "tokenDescription_",
          "type": "string"
        },
        {
          "internalType": "string",
          "name": "tokenImage_",
          "type": "string"
        },
        {
          "internalType": "string",
          "name": "property_",
          "type": "string"
        },
        {
          "internalType": "bool",
          "name": "transfersAllowed_",
          "type": "bool"
        },
        {
          "internalType": "uint256",
          "name": "minAllowedValueTransfer_",
          "type": "uint256"
        }
      ],
      "name": "mintTime",
      "outputs": [
        {
          "internalType": "uint256",
          "name": "",
          "type": "uint256"
        }
      ],
      "stateMutability": "nonpayable",
      "type": "function"
    },
    {
      "inputs": [
        {
          "internalType": "address",
          "name": "owner_",
          "type": "address"
        },
        {
          "internalType": "uint256",
          "name": "expiration_",
          "type": "uint256"
        },
        {
          "internalType": "uint256",
          "name": "tokenId_",
          "type": "uint256"
        },
        {
          "internalType": "uint256",
          "name": "price_",
          "type": "uint256"
        },
        {
          "internalType": "string",
          "name": "assetId_",
          "type": "string"
        },
        {
          "internalType": "string",
          "name": "side_",
          "type": "string"
        }
      ],
      "name": "mktListOffer",
      "outputs": [],
      "stateMutability": "nonpayable",
      "type": "function"
    },
    {
      "inputs": [],
      "name": "name",
      "outputs": [
        {
          "internalType": "string",
          "name": "",
          "type": "string"
        }
      ],
      "stateMutability": "view",
      "type": "function"
    },
    {
      "inputs": [
        {
          "internalType": "address",
          "name": "owner_",
          "type": "address"
        },
        {
          "internalType": "uint256",
          "name": "slot_",
          "type": "uint256"
        },
        {
          "internalType": "uint256",
          "name": "value_",
          "type": "uint256"
        },
        {
          "internalType": "uint256",
          "name": "discountBasisPts_",
          "type": "uint256"
        },
        {
          "internalType": "string",
          "name": "uuid_",
          "type": "string"
        },
        {
          "internalType": "string",
          "name": "tokenDescription_",
          "type": "string"
        },
        {
          "internalType": "string",
          "name": "tokenImage_",
          "type": "string"
        },
        {
          "internalType": "string",
          "name": "property_",
          "type": "string"
        }
      ],
      "name": "networkMintWithDiscount",
      "outputs": [
        {
          "internalType": "uint256",
          "name": "",
          "type": "uint256"
        }
      ],
      "stateMutability": "nonpayable",
      "type": "function"
    },
    {
      "inputs": [
        {
          "internalType": "address",
          "name": "owner_",
          "type": "address"
        },
        {
          "internalType": "uint256",
          "name": "slot_",
          "type": "uint256"
        },
        {
          "internalType": "uint256",
          "name": "value_",
          "type": "uint256"
        },
        {
          "internalType": "uint256",
          "name": "valueRate_",
          "type": "uint256"
        },
        {
          "internalType": "string",
          "name": "uuid_",
          "type": "string"
        },
        {
          "internalType": "string",
          "name": "tokenDescription_",
          "type": "string"
        },
        {
          "internalType": "string",
          "name": "tokenImage_",
          "type": "string"
        },
        {
          "internalType": "string",
          "name": "property_",
          "type": "string"
        }
      ],
      "name": "networkMintWithValueRate",
      "outputs": [
        {
          "internalType": "uint256",
          "name": "",
          "type": "uint256"
        }
      ],
      "stateMutability": "nonpayable",
      "type": "function"
    },
    {
      "inputs": [
        {
          "internalType": "uint256",
          "name": "tokenId_",
          "type": "uint256"
        }
      ],
      "name": "ownerOf",
      "outputs": [
        {
          "internalType": "address",
          "name": "owner_",
          "type": "address"
        }
      ],
      "stateMutability": "view",
      "type": "function"
    },
    {
      "inputs": [
        {
          "internalType": "uint256",
          "name": "tokenId_",
          "type": "uint256"
        },
        {
          "internalType": "uint256",
          "name": "slotId_",
          "type": "uint256"
        },
        {
          "internalType": "uint256",
          "name": "valueSeconds_",
          "type": "uint256"
        }
      ],
      "name": "redeem",
      "outputs": [],
      "stateMutability": "nonpayable",
      "type": "function"
    },
    {
      "inputs": [
        {
          "internalType": "uint256",
          "name": "slotId_",
          "type": "uint256"
        }
      ],
      "name": "registerOnSlot",
      "outputs": [],
      "stateMutability": "nonpayable",
      "type": "function"
    },
    {
      "inputs": [
        {
          "internalType": "bytes32",
          "name": "role",
          "type": "bytes32"
        },
        {
          "internalType": "address",
          "name": "account",
          "type": "address"
        }
      ],
      "name": "renounceRole",
      "outputs": [],
      "stateMutability": "nonpayable",
      "type": "function"
    },
    {
      "inputs": [
        {
          "internalType": "bytes32",
          "name": "role",
          "type": "bytes32"
        },
        {
          "internalType": "address",
          "name": "account",
          "type": "address"
        }
      ],
      "name": "revokeRole",
      "outputs": [],
      "stateMutability": "nonpayable",
      "type": "function"
    },
    {
      "inputs": [
        {
          "internalType": "address",
          "name": "from_",
          "type": "address"
        },
        {
          "internalType": "address",
          "name": "to_",
          "type": "address"
        },
        {
          "internalType": "uint256",
          "name": "tokenId_",
          "type": "uint256"
        }
      ],
      "name": "safeTransferFrom",
      "outputs": [],
      "stateMutability": "payable",
      "type": "function"
    },
    {
      "inputs": [
        {
          "internalType": "address",
          "name": "from_",
          "type": "address"
        },
        {
          "internalType": "address",
          "name": "to_",
          "type": "address"
        },
        {
          "internalType": "uint256",
          "name": "tokenId_",
          "type": "uint256"
        },
        {
          "internalType": "bytes",
          "name": "data_",
          "type": "bytes"
        }
      ],
      "name": "safeTransferFrom",
      "outputs": [],
      "stateMutability": "payable",
      "type": "function"
    },
    {
      "inputs": [
        {
          "internalType": "address",
          "name": "operator_",
          "type": "address"
        },
        {
          "internalType": "bool",
          "name": "approved_",
          "type": "bool"
        }
      ],
      "name": "setApprovalForAll",
      "outputs": [],
      "stateMutability": "nonpayable",
      "type": "function"
    },
    {
      "inputs": [
        {
          "internalType": "uint256",
          "name": "tokenId_",
          "type": "uint256"
        }
      ],
      "name": "slotOf",
      "outputs": [
        {
          "internalType": "uint256",
          "name": "",
          "type": "uint256"
        }
      ],
      "stateMutability": "view",
      "type": "function"
    },
    {
      "inputs": [
        {
          "internalType": "uint256",
          "name": "slot_",
          "type": "uint256"
        }
      ],
      "name": "slotURI",
      "outputs": [
        {
          "internalType": "string",
          "name": "",
          "type": "string"
        }
      ],
      "stateMutability": "view",
      "type": "function"
    },
    {
      "inputs": [
        {
          "internalType": "bytes4",
          "name": "interfaceId",
          "type": "bytes4"
        }
      ],
      "name": "supportsInterface",
      "outputs": [
        {
          "internalType": "bool",
          "name": "",
          "type": "bool"
        }
      ],
      "stateMutability": "view",
      "type": "function"
    },
    {
      "inputs": [],
      "name": "symbol",
      "outputs": [
        {
          "internalType": "string",
          "name": "",
          "type": "string"
        }
      ],
      "stateMutability": "view",
      "type": "function"
    },
    {
      "inputs": [
        {
          "internalType": "uint256",
          "name": "index_",
          "type": "uint256"
        }
      ],
      "name": "tokenByIndex",
      "outputs": [
        {
          "internalType": "uint256",
          "name": "",
          "type": "uint256"
        }
      ],
      "stateMutability": "view",
      "type": "function"
    },
    {
      "inputs": [
        {
          "internalType": "address",
          "name": "owner_",
          "type": "address"
        },
        {
          "internalType": "uint256",
          "name": "index_",
          "type": "uint256"
        }
      ],
      "name": "tokenOfOwnerByIndex",
      "outputs": [
        {
          "internalType": "uint256",
          "name": "",
          "type": "uint256"
        }
      ],
      "stateMutability": "view",
      "type": "function"
    },
    {
      "inputs": [
        {
          "internalType": "uint256",
          "name": "tokenId_",
          "type": "uint256"
        }
      ],
      "name": "tokenURI",
      "outputs": [
        {
          "internalType": "string",
          "name": "",
          "type": "string"
        }
      ],
      "stateMutability": "view",
      "type": "function"
    },
    {
      "inputs": [],
      "name": "totalSupply",
      "outputs": [
        {
          "internalType": "uint256",
          "name": "",
          "type": "uint256"
        }
      ],
      "stateMutability": "view",
      "type": "function"
    },
    {
      "inputs": [
        {
          "internalType": "uint256",
          "name": "fromTokenId_",
          "type": "uint256"
        },
        {
          "internalType": "address",
          "name": "to_",
          "type": "address"
        },
        {
          "internalType": "uint256",
          "name": "value_",
          "type": "uint256"
        }
      ],
      "name": "transferFrom",
      "outputs": [
        {
          "internalType": "uint256",
          "name": "",
          "type": "uint256"
        }
      ],
      "stateMutability": "payable",
      "type": "function"
    },
    {
      "inputs": [
        {
          "internalType": "address",
          "name": "from_",
          "type": "address"
        },
        {
          "internalType": "address",
          "name": "to_",
          "type": "address"
        },
        {
          "internalType": "uint256",
          "name": "tokenId_",
          "type": "uint256"
        }
      ],
      "name": "transferFrom",
      "outputs": [],
      "stateMutability": "payable",
      "type": "function"
    },
    {
      "inputs": [
        {
          "internalType": "uint256",
          "name": "fromTokenId_",
          "type": "uint256"
        },
        {
          "internalType": "uint256",
          "name": "toTokenId_",
          "type": "uint256"
        },
        {
          "internalType": "uint256",
          "name": "value_",
          "type": "uint256"
        }
      ],
      "name": "transferFrom",
      "outputs": [],
      "stateMutability": "payable",
      "type": "function"
    },
    {
      "inputs": [
        {
          "internalType": "string",
          "name": "assetId_",
          "type": "string"
        },
        {
          "internalType": "string",
          "name": "side_",
          "type": "string"
        }
      ],
      "name": "validOffers",
      "outputs": [
        {
          "components": [
            {
              "internalType": "uint256",
              "name": "offerId",
              "type": "uint256"
            },
            {
              "internalType": "address",
              "name": "owner",
              "type": "address"
            },
            {
              "internalType": "string",
              "name": "side",
              "type": "string"
            },
            {
              "internalType": "uint256",
              "name": "price",
              "type": "uint256"
            },
            {
              "internalType": "uint256",
              "name": "tokenId",
              "type": "uint256"
            },
            {
              "internalType": "uint256",
              "name": "expiration",
              "type": "uint256"
            }
          ],
          "internalType": "struct Service.Offer[]",
          "name": "",
          "type": "tuple[]"
        }
      ],
      "stateMutability": "view",
      "type": "function"
    },
    {
      "inputs": [],
      "name": "valueDecimals",
      "outputs": [
        {
          "internalType": "uint8",
          "name": "",
          "type": "uint8"
        }
      ],
      "stateMutability": "view",
      "type": "function"
    }
  ],
  "bytecode": "0x60e0806040523462000c7257600060c052620090d8803803809162000025828562000ca9565b83398101906101e081830312620009b157620000418162000ccd565b60a052620000526020820162000ccd565b620000606040830162000ccd565b916200006f6060820162000ccd565b926200007e6080830162000ccd565b6080526200008f60a0830162000ccd565b9260c08301519160e084015160018060401b038111620009b15787620000b791860162000d07565b6101008501519095906001600160401b038111620009b15788620000dd91870162000d07565b6101208601519096906001600160401b038111620009b157896200010391880162000d07565b6101408701519092906001600160401b038111620009b1578a6200012991890162000d07565b6101608801519092906001600160401b038111620009b1578b6200014f918a0162000d07565b6101808901519092906001600160401b038111620009b1578c62000175918b0162000d07565b6101a08a0151909c906001600160401b038111620009b1576101c0916200019e918c0162000d07565b9901519960ff8b168b03620009b1576200020d602e8e966040519781620001d08a935180926020808701910162000ce2565b82016c5102a34b6b2903ab734ba399d160951b6020820152620001fd825180936020878501910162000ce2565b0103600e81018852018662000ca9565b604051926200021c8462000c77565b600484526374696d6560e01b6020850152600160035580516001600160401b038111620008515760c051805490600182811c9216801562000c67575b60208310146200082f5750601f811162000c1b575b5060c05191602092601f831160011462000bab575060c0519283918362000b9f575b50508160011b916000199060031b1c19161790555b8051906001600160401b038211620008515760015460c051600182811c9216801562000b94575b60208310146200082f57509081601f84931162000b3a575b5060c05190602091601f841160011462000ac7575060c0519262000abb575b50508160011b916000199060031b1c1916176001555b60ff8a1660ff19600254161760025560c0518052600960205260c051604081209060018060a01b038316905260205260c05160ff6040822054161562000a6c575b50600b80546001600160a01b03199081166001600160a01b0393841617909155600c899055600a80548216898416179055600d80548216888416179055600e8054909116918c16919091179055604051815160208083019291620003d791908390620003c9818789860162000ce2565b810103808452018262000ca9565b51902060405160208101906374696d6560e01b825260048152620003fb8162000c77565b51902003620009b7575060c0515b600481101562000999576010805460ff191660ff83161790556001600160a01b0385163b15620009b157604051906394b39b0960e01b825260018060a01b0387166004830152876024830152600460ff82161015620009995760ff16604482015260c05181606481836001600160a01b038a165af180156200098c5762000973575b50604051926001600160401b036120c585019081119085111762000851576200050092620004d2620004e9926120c562006ff3883960806120c58801818152019062000d62565b906120c58601820360206120c58801015262000d62565b906120c58401820360406120c58601015262000d62565b6001600160a01b039092166120c582016060015260c051918190039082f0908115620009675750600880546001600160a01b0319166001600160a01b03928316179055600b541660008181527f3d62299d961dc9bf64f24e2e5b7d5a2b17ee5fc8163a3ddca90e52de8744675560205260409020547f1cd6d520d98babae1045eb69c31ecab800996aa332094cb55c0ac10362e9b0c9919060ff161562000924575b50506001600160a01b03811660009081527ff0bca53ec534e170e0b4115320ce2b072ee8e3338cc6b0c7b13351839d628e0a60205260409020547f9a95e87c5af084bf5db8491c3a6515da9dd6da39b24b0eb0af08d7b9cd808d919060ff1615620008d4575b50507f9ac4f8025631594629895b778dc5ee88d01673a254a2291f6b6b174ad25230ca602060018060a01b0360085416604051908152a1600c5560208151910120600460206040516200065b8162000c77565b82815201635553444360e01b815220146000146200086957608051601c80546001600160a01b039283166001600160a01b03199182161790915560a051601b805491909316911617905582516001600160401b0381116200085157601d5460c051600182811c9216801562000846575b60208310146200082f5750601f8111620007de575b5060c051602090601f83116001146200077157508192939460c0519262000765575b50508160011b916000199060031b1c191617601d555b601c805460ff60a01b191660a09290921b60ff60a01b16919091179055601a80546001600160a01b0319166001600160a01b0392909216919091179055604051616269908162000d8a8239f35b01519050388062000702565b601d905260c051602081209190601f198416905b818110620007c557509583600195969710620007ab575b505050811b01601d5562000718565b015160001960f88460031b161c191690553880806200079c565b9192602060018192868b01518155019401920162000785565b601d60c0515260c05160208120601f840160051c8101926020851062000824575b601f0160051c01915b82811062000818575050620006e0565b81815560010162000808565b9092508290620007ff565b634e487b7160e01b9052602260045260c051602490fd5b91607f1691620006cb565b634e487b7160e01b60c051526041600452602460c051fd5b60405162461bcd60e51b815260206004820152603760248201527f5370656e644372656469743a204f6e6c79205553444320756e6465726c79696e60448201527f6720616363657074656420617420746869732074696d650000000000000000006064820152608490fd5b60008181526009602090815260408083206001600160a01b0395909516808452949091528120805460ff1916600117905533929190600080516020620090b88339815191529080a4388062000608565b8160005260096020526040600020816000526020526040600020600160ff198254161790553391600080516020620090b8833981519152600080a43880620005a2565b604051903d90823e3d90fd5b6001600160401b0381116200085157604052386200048b565b6040513d60c051823e3d90fd5b634e487b7160e01b60c051526021600452602460c051fd5b60c05180fd5b6040516020810190620009d76020828551620003c98187858a0162000ce2565b5190206040516020810190630c6c2e6d60e31b825260048152620009fb8162000c77565b5190200362000a0d5750600162000409565b60405162000a2d60208281620003c9818301968781519384920162000ce2565b519020604051602081019065636f756e747360d01b82526006815262000a538162000c77565b5190200362000a6457600262000409565b600362000409565b80526009602090815260c0805160408082206001600160a01b038616928390529093529051918220805460ff191660011790553391600080516020620090b88339815191528180a43862000359565b01519050388062000302565b60019194505260c051906020822091935b601f198416851062000b1e576001945083601f1981161062000b04575b505050811b0160015562000318565b015160001960f88460031b161c1916905538808062000af5565b8181015183556020948501946001909301929091019062000ad8565b909150600160c0515260c05160208120601f850160051c81016020861062000b8c575b9085949392915b601f840160051c8201811062000b7d57505050620002e3565b82815586955060010162000b64565b508062000b5d565b91607f1691620002cb565b0151905038806200028f565b805260c0516020812090938493925b601f198416851062000bff576001945083601f1981161062000be5575b505050811b019055620002a4565b015160001960f88460031b161c1916905538808062000bd7565b8181015183556020948501946001909301929091019062000bba565b60c051805260c05160208120601f840160051c81016020851062000c5f575b601f840160051c8201811062000c53575050506200026d565b82815560010162000c3a565b508062000c3a565b91607f169162000258565b600080fd5b604081019081106001600160401b0382111762000c9357604052565b634e487b7160e01b600052604160045260246000fd5b601f909101601f19168101906001600160401b0382119082101762000c9357604052565b51906001600160a01b038216820362000c7257565b60005b83811062000cf65750506000910152565b818101518382015260200162000ce5565b81601f8201121562000c725780516001600160401b03811162000c93576040519262000d3e601f8301601f19166020018562000ca9565b8184526020828401011162000c725762000d5f916020808501910162000ce2565b90565b9060209162000d7d8151809281855285808601910162000ce2565b601f01601f191601019056fe608080604052600436101561001357600080fd5b600090813560e01c90816301ffc9a7146130b15750806303e209531461308e57806306fdde0314612fbf578063081812fc14612fa0578063095ea7b314612e6a57806309c3dd8714612b985780630f485c0214612ad15780631375d84314612a6b5780631429fb57146129d057806318160ddd146129b257806323b872dd146128ee5780632425eeaf14612578578063248a9ca31461254b578063263f3e7e1461252c5780632f2ff15d1461247d5780632f745c59146123d4578063310ed7f014611e0657806331b5b90714611d7457806336568abe14611ce15780633e7e866914611cc05780633f5d706714611a9757806341815ee41461199f57806342842e0e1461197c5780634f6ccce7146118f7578063505a3853146118d95780636352211e146118a857806370a082311461188457806371f0442e1461181e57806377955245146117f5578063791581c6146116f6578063840f7113146116cd5780638cb0a5111461158b57806391d148541461153f57806395d89b41146114605780639cc7f70814611441578063a217fddf14611425578063a22cb46514611347578063a7c9f2d61461130c578063aa20ce551461106d578063b3154c0814611007578063b819220514610cda578063b88d4fde14610c7b578063be950a6214610b35578063c87b56dd14610aa0578063cf2d6fe614610831578063d09445c2146107f6578063d547741f146107b5578063e345e0bc14610786578063e8a3d485146106f6578063e985e9c51461069f578063f577a500146106555763f5a3fb741461025d57600080fd5b346106525761018036600319011261065257610277613106565b906064359060843560a4356001600160401b0360243560443560c43583811161064e576102a8903690600401613209565b9760e43584811161064a576102c1903690600401613209565b61010435858111610646576102da903690600401613209565b61012435868111610642576102f3903690600401613209565b91610144359b8c15158d0361063d5761030b86615073565b9b898b116105d25789421161057c578a421180159081610567575b8115610537575b50156104d857601c546001600160a01b0316803b156104d457604051630ab714fb60e11b8152306004820152602481018a905260448101839052908d908290606490829084905af180156104c9578e92918e916104ac575b5050906103d3816103ce7f587b01aaccba851d54042ea2fefb109eae607c6c847e4310ae6da1baf06aa8bd9a9998979695946103c860ff601c5460a01c16614f98565b90613727565b6139b8565b9889600c54821460001461049b57506103eb9661423d565b975b604080518a81526020810192909252810191909152606090a185855261042860209760188952604087209060ff801983541691151516179055565b61043461016435615073565b86865260198852604086205560178752604085205560405193604085019185831090831117610485576001936040928352855286850192835285815260168752209251835551910155604051908152f35b634e487b7160e01b600052604160045260246000fd5b91906104a697614866565b976103ed565b6104b89192935061314d565b6104c5578c908c38610385565b8b80fd5b6040513d8f823e3d90fd5b8c80fd5b60405162461bcd60e51b815260206004820152603160248201527f54696d654372656469743a2074696d652076616c75652063616e6e6f7420657860448201527018d95959081d985b1a59081c195c9a5bd9607a1b6064820152608490fd5b90508061055e575b8061054b575b3861032d565b50610556428b61405f565b8d1115610545565b5089421061053f565b90508d6105748d8d61405f565b101590610326565b60405162461bcd60e51b815260206004820152602860248201527f54696d654372656469743a2063616e6e6f74206d696e7420616e20657870697260448201526732b2103a37b5b2b760c11b6064820152608490fd5b60405162461bcd60e51b815260206004820152603e60248201527f54696d654372656469743a2076616c69642073746172742074696d65206d757360448201527f74206265206c657373207468616e2065787069726174696f6e2074696d6500006064820152608490fd5b600080fd5b8980fd5b8880fd5b8780fd5b8680fd5b80fd5b5034610652576020366003190112610652576020906004358152601682526040812054421015908161068d575b506040519015158152f35b60019150604090200154421038610682565b5034610652576040366003190112610652576106b9613106565b600260406106c561311c565b9360018060a01b038094168152600760205220019116600052602052602060ff604060002054166040519015158152f35b5034610652578060031936011261065257600854604051631c97e82760e21b8152908290829060049082906001600160a01b03165afa90811561077b57826107549392610758575b50506040519182916020835260208301906132de565b0390f35b61077492503d8091833e61076c8183613196565b81019061395a565b388061073e565b6040513d84823e3d90fd5b50346106525760403660031901126106525760206107ad6107a561311c565b600435614eaf565b604051908152f35b5034610652576040366003190112610652576107f36004356107d561311c565b9080845260096020526107ee600160408620015461337c565b6136b1565b80f35b503461065257806003193601126106525760206040517f9a95e87c5af084bf5db8491c3a6515da9dd6da39b24b0eb0af08d7b9cd808d918152f35b50346106525760c03660031901126106525761084b613106565b6064356001600160401b03608435818111610a9c5761086e903690600401613209565b9060a435818111610a9857610887903690600401613209565b93600f54946108958661406c565b600f5583516020809501209283885260139283865260408920888a5286526001908160408b20019060018060a01b03166001600160601b0360a01b82541617905584895283865260408920888a5286528760408a205584895283865260408920888a528652600260408a2001928051928311610a84576109158454613784565b601f8111610a4b575b5086908a601f85116001146109d15793604099979593819382936000805160206162148339815191529d9b9997946109c6575b50501b916000199060031b1c19161790555b81885280835285882085895283526024356005878a20015581885280835285882085895283526044356004878a2001558188528252848720848852825282600386892001558652601481526109ba83858820613fd5565b8351928352820152a180f35b015192503880610951565b50848b52878b209293929190601f1984168c5b818110610a365750916000805160206162148339815191529b99979593918560409c9a98969410610a1d575b505050811b019055610963565b015160001960f88460031b161c19169055388080610a10565b82840151855593860193928a01928a016109e4565b610a7490858c52888c20601f860160051c8101918a8710610a7a575b601f0160051c019061407b565b3861091e565b9091508190610a67565b634e487b7160e01b8a52604160045260248afd5b8580fd5b8480fd5b503461065257602036600319011261065257600435610abe81614b06565b8015610b21575b610ace90613b8f565b6008546040516344a5a61760e11b815260048101929092528290829060249082906001600160a01b03165afa90811561077b578261075493926107585750506040519182916020835260208301906132de565b50610ace610b2e82614b4c565b9050610ac5565b5034610652576020366003190112610652577f9a95e87c5af084bf5db8491c3a6515da9dd6da39b24b0eb0af08d7b9cd808d9181526009602052604081203360005260205260ff6040600020541615610c105760018060a01b039081600d541691600a541660ff60105416833b15610c0c57604051916394b39b0960e01b8352600483015260043560248301526004811015610bf85781606481858097819560448401525af1801561077b57610be85750f35b610bf19061314d565b6106525780f35b634e487b7160e01b83526021600452602483fd5b8280fd5b60405162461bcd60e51b815260206004820152603760248201527f53656e646572206e6f7420617574686f72697a656420746f207265676973746560448201527f7220636f6e747261637420746f207468697320736c6f740000000000000000006064820152608490fd5b50608036600319011261065257610c90613106565b610c9861311c565b606435916001600160401b038311610cd65736602384011215610cd657610ccc6107f39336906024816004013591016131d2565b9160443591613ab8565b8380fd5b503461065257610ce936613362565b9190610cf482613bdb565b6001600160a01b039190821633148015610fc5575b15610f7457849182610d1a85614b06565b80610f61575b15610e6757508383526017602052610d56610d3f866040862054613727565b610d5060ff601c5460a01c16614f98565b906139b8565b601c54601b5483169216803b15610a9c57604051637a94c56560e11b81526001600160a01b03939093166004840152602483019390935260448201529082908290606490829084905af1801561077b57610e53575b5050610db681614bce565b80835260066020526002610dcd60408520546138f8565b50018054838110610e0257836000805160206161f483398151915292610df6879660209461405f565b9055604051908152a380f35b60405162461bcd60e51b815260206004820152602360248201527f455243333532353a206275726e2076616c756520657863656564732062616c616044820152626e636560e81b6064820152608490fd5b610e5c9061314d565b610c0c578238610dab565b610e7e856000526011602052604060002054151590565b610e88575b610d56565b508383526011602090815260408420548015610f21578183601a541691602460405180948193633e1feff960e21b835260048301525afa908115610f165787928692610ede575b5050610e8391610d3f91613727565b925094505083813d8311610f0f575b610ef78183613196565b8101031261063d579151859290859081610d3f610ecf565b503d610eed565b6040513d87823e3d90fd5b5060248183601a541660405192838092633e1feff960e21b82528a60048301525afa908115610f165787928692610ede575050610e8391610d3f91613727565b50610f6b85613933565b600c5414610d20565b60405162461bcd60e51b815260206004820152602360248201527f53656e646572206973206e6f7420617574686f72697a656420746f207265646560448201526232b69760e91b6064820152608490fd5b507f1cd6d520d98babae1045eb69c31ecab800996aa332094cb55c0ac10362e9b0c985526009602052604085203360005260205260ff60406000205416610d09565b503461065257602036600319011261065257600854604051631662a98160e31b81526004803590820152908290829060249082906001600160a01b03165afa90811561077b578261075493926107585750506040519182916020835260208301906132de565b50346106525760208161107f36613227565b96600399929591969994939454996110968b61406c565b600355600e54604051630151086360e31b81526001600160a01b039384166004820152602481019290925260448201939093526064810194909452839160849183918b91165af19081156113015786916112cc575b50868652601160205260408620556008546001600160a01b0316803b15610a985761113e8692918392604051948580948193632108947560e21b83528d60048401526040602484015260448301906132de565b03925af1908115610f165785916112b8575b50506008546001600160a01b0316803b15610a9c57611197859291839260405194858094819363246a908b60e01b83528c60048401526040602484015260448301906132de565b03925af19081156112ad578491611299575b50506008546001600160a01b0316803b15610cd6576111f08492918392604051948580948193630190503b60e61b83528b60048401526040602484015260448301906132de565b03925af190811561127a578391611285575b50506008546001600160a01b031690813b15610c0c57829161124891604051948580948193637e468a5160e01b83528960048401526040602484015260448301906132de565b03925af1801561127a57611262575b602082604051908152f35b61126c839161314d565b6112765781611257565b5080fd5b6040513d85823e3d90fd5b61128e9061314d565b611276578138611202565b6112a29061314d565b610c0c5782386111a9565b6040513d86823e3d90fd5b6112c19061314d565b610cd6578338611150565b9550506020853d6020116112f9575b816112e860209383613196565b8101031261063d57869451386110eb565b3d91506112db565b6040513d88823e3d90fd5b503461065257806003193601126106525760206040517f1cd6d520d98babae1045eb69c31ecab800996aa332094cb55c0ac10362e9b0c98152f35b503461065257604036600319011261065257611361613106565b602435908115159081830361063d576001600160a01b0316913383146113e0576113b1903385526007602052600260408620018460005260205260406000209060ff801983541691151516179055565b6040519081527f17307eab39ab6107e8899845ad3d59bd9653f200f220920489ca2b5937696c3160203392a380f35b60405162461bcd60e51b815260206004820152601a60248201527f455243333532353a20617070726f766520746f2063616c6c65720000000000006044820152606490fd5b5034610652578060031936011261065257602090604051908152f35b50346106525760203660031901126106525760206107ad600435615fb1565b50346106525780600319360112610652576040516000600180549061148482613784565b8085529181811690811561151857506001146114bf575b610754846114ab81860382613196565b6040519182916020835260208301906132de565b600081815292507fb10e2d527612073b26eecdfd717e6a320cf44b4afac2b0732d9fcbe2b7fa0cf65b8284106115005750505081016020016114ab8261149b565b805460208587018101919091529093019281016114e8565b60ff191660208087019190915292151560051b850190920192506114ab915083905061149b565b503461065257604036600319011261065257604061155b61311c565b9160043581526009602052209060018060a01b0316600052602052602060ff604060002054166040519015158152f35b5061159536613303565b9061159f83614bce565b836115a984614b06565b806116ba575b1561164c57506115d56001600160a01b03806115ca86613bdb565b169083161415613b38565b6115df8333613c5e565b156115ed576107f392614cdd565b60405162461bcd60e51b815260206004820152603160248201527f455243333532353a20617070726f76652063616c6c6572206973206e6f74206f6044820152701ddb995c881b9bdc88185c1c1c9bdd9959607a1b6064820152608490fd5b600e54938152601160205260408120549093919290916001600160a01b0316803b15610a9c57604051638cb0a51160e01b815260048101939093526001600160a01b0393909316602483015260448201529082908290606490829084905af1801561077b57610be857505080f35b506116c484613933565b600c54146115af565b50346106525780600319360112610652576008546040516001600160a01b039091168152602090f35b5034610652576040366003190112610652576004356024358183526016602052600160408420015442101561179857816117448261173f6117396107f396615fb1565b42613750565b613750565b8185526016602052600160408620015410611773575b61176381613bdb565b5061176d81613933565b5061480c565b6117838261173f61173984615fb1565b8185526016602052600160408620015561175a565b60405162461bcd60e51b815260206004820152602f60248201527f54696d654372656469743a2063616e6e6f74206164642074696d6520746f206160448201526e371032bc3834b932b2103a37b5b2b760891b6064820152608490fd5b5034610652578060031936011261065257600a546040516001600160a01b039091168152602090f35b5034610652576020366003190112610652576008546040516338f8221760e11b81526004803590820152908290829060249082906001600160a01b03165afa90811561077b578261075493926107585750506040519182916020835260208301906132de565b50346106525760203660031901126106525760206107ad6118a3613106565b6139d8565b50346106525760203660031901126106525760206118c7600435614c30565b6040516001600160a01b039091168152f35b50346106525780600319360112610652576020600c54604051908152f35b50346106525760203660031901126106525760043560055481101561192b576119216020916138f8565b5054604051908152f35b60405162461bcd60e51b815260206004820152602360248201527f455243333532353a20676c6f62616c20696e646578206f7574206f6620626f756044820152626e647360e81b6064820152608490fd5b506107f36119893661332d565b90604051926119978461317b565b858452613ab8565b503461065257806003193601126106525760ff601054166004811015611a835760038103611a015750506107546040516119d881613160565b60088152677072696f7269747960c01b60208201526040519182916020835260208301906132de565b80611a2d575050610754604051611a1781613160565b600481526374696d6560e01b60208201526114ab565b600214159050611a5e57610754604051611a4681613160565b6006815265636f756e747360d01b60208201526114ab565b610754604051611a6d81613160565b60048152630c6c2e6d60e31b60208201526114ab565b634e487b7160e01b82526021600452602482fd5b50346106525760a0366003190112610652576001600160401b03604435606435828111610cd657611acc903690600401613209565b608435838111610a9c57611ae4903690600401613209565b600f5493611af18561406c565b600f5582516020809401209182875260139182855260408820878952855260018060408a2001336001600160601b0360a01b82541617905584895283865260408920888a5286528760408a205584895283865260408920888a528652600260408a2001928051928311610a8457611b688454613784565b601f8111611c92575b5086908a601f8511600114611c185793604099979593819382936000805160206162148339815191529d9b999794611c0d575b50501b916000199060031b1c19161790555b81885280835285882085895283526004356005878a20015581885280835285882085895283526024356004878a2001558188528252848720848852825282600386892001558652601481526109ba83858820613fd5565b015192503880611ba4565b50848b52878b209293929190601f1984168c5b818110611c7d5750916000805160206162148339815191529b99979593918560409c9a98969410611c64575b505050811b019055611bb6565b015160001960f88460031b161c19169055388080611c57565b82840151855593860193928a01928a01611c2b565b611cba90858c52888c20601f860160051c8101918a8710610a7a57601f0160051c019061407b565b38611b71565b5034610652578060031936011261065257602060ff60025416604051908152f35b503461065257604036600319011261065257611cfb61311c565b336001600160a01b03821603611d17576107f3906004356136b1565b60405162461bcd60e51b815260206004820152602f60248201527f416363657373436f6e74726f6c3a2063616e206f6e6c792072656e6f756e636560448201526e103937b632b9903337b91039b2b63360891b6064820152608490fd5b503461065257602036600319011261065257806004356001600160401b038111611e0357611da6903690600401613209565b6008546001600160a01b031690813b15611dff578291611de4916040519485809481936355f804b360e01b83526020600484015260248301906132de565b03925af1801561077b57611df6575080f35b6107f39061314d565b5050fd5b50fd5b611e1c82611e1336613362565b93909193615073565b9083835260209360188552611e3760ff60408620541661545a565b80845260198552611e4e60408520548410156154b4565b8084526016855260016040852001544210156123705781845260168552600160408520015442101561230c57611e8661173983613fb4565b8285526016865260016040862001541061228957611ea381614b06565b80612276575b80612253575b15611fee57808452601785526040842054828552604085205403611ed9575b6107f3939450615df2565b611ef0816000526011602052604060002054151590565b80611fd1575b15611f5b576107f393946017611f49611f0e85613fb4565b848952828452610d50611f428a611f3c846040611f2e8d82862054613727565b938c8152898b522054613727565b90613750565b9188613750565b91848852526040862055849350611ece565b60405162461bcd60e51b815260048101869052604260248201527f54696d654372656469743a2063616c6320636f6e74726163742074696d652d7660448201527f616c7565207261746520726571756972657320636f6e747261637420746f6b656064820152616e7360f01b608482015260a490fd5b50611fe9826000526011602052604060002054151590565b611ef6565b91611ffb83959495614b06565b80612240575b1580612217575b156121b857612018818385615df2565b601a54604051639448bddb60e01b815260048101939093526001600160a01b03908116929091908581602481875afa9485156121ad578691889661217e575b508088526011825260408820549081156121475750602460405180968193633e1feff960e21b835260048301525afa80156113015785938791612115575b506044916120a291613727565b9386836120bb601c5497610d5060ff8a60a01c16614f98565b96604051978896879563a9059cbb60e01b87521660048601526024850152165af1801561127a576120eb57505080f35b8161210a92903d1061210e575b6121028183613196565b810190614b34565b5080f35b503d6120f8565b84819592503d8311612140575b61212c8183613196565b81010312610a985791518492906044612095565b503d612122565b9050602460405180968193633e1feff960e21b835260048301525afa8015611301578593879161211557506044916120a291613727565b61219f919650823d84116121a6575b6121978183613196565b810190614c11565b9488612057565b503d61218d565b6040513d89823e3d90fd5b60405162461bcd60e51b815260048101859052603160248201527f54696d654372656469743a207472616e7366657220746f20746f6b656e2077696044820152701d1a08191a5999995c995b9d081cdb1bdd607a1b6064820152608490fd5b5061222182614b06565b8061222d575b15612008565b5061223782613933565b600c5414612227565b5061224a83613933565b600c5414612001565b5061225d82614b06565b8015611eaf575061226d82613933565b600c5414611eaf565b5061228081613933565b600c5414611ea9565b60405162461bcd60e51b815260048101869052604f60248201527f54696d654372656469743a2074696d652076616c7565206f6620746f6b656e2060448201527f726563656976696e67207472616e7366657220657863656564732074696d652060648201526e3a34b6361032bc3834b930ba34b7b760891b608482015260a490fd5b60405162461bcd60e51b815260048101869052603660248201527f54696d654372656469743a2063616e6e6f74207472616e736665722074696d656044820152751034b73a379030b71032bc3834b932b2103a37b5b2b760511b6064820152608490fd5b60405162461bcd60e51b815260048101869052603660248201527f54696d654372656469743a2063616e6e6f74207472616e736665722074696d6560448201527510333937b69030b71032bc3834b932b2103a37b5b2b760511b6064820152608490fd5b5034610652576040366003190112610652576123ee613106565b906024356123fb836139d8565b81101561242d57604061241f9260209460018060a01b031681526007855220613c46565b90546040519160031b1c8152f35b60405162461bcd60e51b815260206004820152602260248201527f455243333532353a206f776e657220696e646578206f7574206f6620626f756e604482015261647360f01b6064820152608490fd5b50346106525760403660031901126106525760043561249a61311c565b81835260096020526124b2600160408520015461337c565b8183526009602052604083209060018060a01b03169081845260205260ff604084205416156124df578280f35b81835260096020526040832081845260205260408320600160ff1982541617905533917f2f8788117e7eff1d82e926ec794901d17c78024a50270940304540a733656f0d8480a438808280f35b50346106525760203660031901126106525760206107ad600435613933565b50346106525760203660031901126106525760016040602092600435815260098452200154604051908152f35b5034610652576040366003190112610652576001600160401b03600435818111610c0c576125aa903690600401613209565b90602435908111610c0c576125c3903690600401613209565b9080516020809201209182845260148252604084206040519081848254918281520191875284872090875b8181106128da5750505081612604910382613196565b849282810191845b81518110156126d957868852601383526040882061262a8284614cc9565b518952835260a06040892060405161264181613132565b81548152600180841b03600183015416868201526005604051926126738461266c8160028501613862565b0385613196565b836040840152600381015460608401526004810154608084015201549283910152848151910120865186201490816126cf575b506126ba575b6126b59061406c565b61260c565b946126c76126b59161406c565b9590506126ac565b90504210386126a6565b50929391936126e78361484f565b926126f56040519485613196565b808452612704601f199161484f565b0182885b8281106128a0575050508693875b81518110156127ff5787895260138452604089206127348284614cc9565b518a528452604089206040519061274a82613132565b8054825260018101546001600160a01b0316868301526040519060059061277f836127788160028501613862565b0384613196565b82604085015260038101546060850152600481015460808501520154908160a084015286815191012085518a201490816127f5575b506127c9575b506127c49061406c565b612716565b95906127ee826127dc6127c4949161406c565b986127e7828a614cc9565b5287614cc9565b50906127ba565b90504210386127b4565b83898660405191838301848452825180915260408401948060408360051b870101940192955b8287106128325785850386f35b909192938280600192603f1989820301855287519081518152848060a01b03838301511683820152612872604083015160c08060408501528301906132de565b91606080820151908301526080808201519083015260a0809101519101529601920196019592919092612825565b6040516128ac81613132565b8a81528a838201528a60608060408401528201528a60808201528a60a0820152828288010152018390612708565b8254845292860192600192830192016125ee565b506128f83661332d565b90818452601860205261291160ff60408620541661545a565b61291a82615fb1565b8285526019602052604085205411612947576107f39261294261293d8433613c5e565b613a51565b613ccf565b60405162461bcd60e51b815260206004820152603f60248201527f54696d654372656469743a20746f6b656e2076616c7565206973206c6573732060448201527f7468616e206d696e696d756d207472616e7366657261626c652076616c7565006064820152608490fd5b50346106525780600319360112610652576020600554604051908152f35b50346106525760e0366003190112610652576129ea613106565b906001600160401b03606435818111610c0c57612a0b903690600401613209565b608435828111610cd657612a23903690600401613209565b9160a435818111610a9c57612a3c903690600401613209565b9360c4359182116106525760206107ad87878787612a5d3660048a01613209565b93604435906024359061423d565b503461065257602036600319011261065257600854604051631375d84360e01b81526004803590820152908290829060249082906001600160a01b03165afa90811561077b578261075493926107585750506040519182916020835260208301906132de565b6040612aec836001612ae236613303565b9591949095615073565b928481526018602052612b0460ff838320541661545a565b8481526019602052612b1b828220548510156154b4565b8481526016602052200154421015612b39576020926107ad9261553a565b60405162461bcd60e51b815260206004820152603160248201527f54696d654372656469743a2063616e6e6f74207472616e736665722066726f6d6044820152701030b71032bc3834b932b2103a37b5b2b760791b6064820152608490fd5b503461065257602090816003193601126106525760043560018060a01b036008541690604051636c0360eb60e01b81528381600481865afa9081156112ad578491612e50575b508215612c4f57508290602460405180948193633601bfc560e11b835260048301525afa918215612c43578092612c28575b5050905b6107546040519282849384528301906132de565b612c3c92503d8091833e61076c8183613196565b3880612c10565b604051903d90823e3d90fd5b80519093925015612e17578190807a184f03e93ff9f4daa797ed6e38ed64bf6a1f0100000000000000008181811015612e09575b5050856d04ee2d6d415b85acef810000000080841015612dfb575b5050662386f26fc1000080831015612dec575b506305f5e10080831015612ddd575b5061271080831015612dce575b506064821015612dbe575b600a80921015612db4575b60019081602181860195612d0f612cf9886131b7565b97612d07604051998a613196565b8089526131b7565b878b019890601f1901368a3750860101905b612d7e575b50505050612d6992612d78926025926040519583612d4d88955180928b80890191016132bb565b84019164736c6f742f60d81b89840152518093868401906132bb565b01036005810184520182613196565b90612c14565b600019019083906f181899199a1a9b1b9c1cb0b131b232b360811b8282061a835304918215612daf57919082612d21565b612d26565b9160010191612ce3565b9190606460029104910191612cd8565b60049193920491019138612ccd565b60089193920491019138612cc0565b60109193920491019138612cb1565b930192909104908538612c9e565b604094500491503880612c83565b5060405191508282016001600160401b03811183821017612e3c576040528152612d78565b634e487b7160e01b82526041600452602482fd5b612e6491503d8086833e61076c8183613196565b38612bde565b50604036600319011261065257612e7f613106565b602435906001600160a01b038080612e9685613bdb565b16921691612ea681841415613b38565b803314908115612f7c575b5015612f115782845260066020526004612ece60408620546138f8565b500180546001600160a01b03191683179055612ee983613bdb565b167f8c5be1e5ebec7d5bd14f71427d1e84f3dd0314c0f7b2291e5b200ac8c7c3b9258480a480f35b60405162461bcd60e51b815260206004820152603960248201527f455243333532353a20617070726f76652063616c6c6572206973206e6f74206f60448201527f776e6572206e6f7220617070726f76656420666f7220616c6c000000000000006064820152608490fd5b9050845260076020526002604085200133855260205260ff60408520541638612eb1565b50346106525760203660031901126106525760206118c7600435613c16565b503461065257806003193601126106525760405190808054612fe081613784565b80855291600191808316908115613064575060011461300a575b610754856114ab81870382613196565b80809450527f290decd9548b62a8d60345a988386fc84ba6bc95484008f6362f93160ef3e5635b82841061304c5750505081016020016114ab82610754612ffa565b80546020858701810191909152909301928101613031565b869550610754969350602092506114ab94915060ff191682840152151560051b8201019293612ffa565b50346106525760206107ad6130a236613227565b96959095949194939293614866565b9050346112765760203660031901126112765760043563ffffffff60e01b8116809103610c0c5760209250637965db0b60e01b81149081156130f5575b5015158152f35b6301ffc9a760e01b149050386130ee565b600435906001600160a01b038216820361063d57565b602435906001600160a01b038216820361063d57565b60c081019081106001600160401b0382111761048557604052565b6001600160401b03811161048557604052565b604081019081106001600160401b0382111761048557604052565b602081019081106001600160401b0382111761048557604052565b90601f801991011681019081106001600160401b0382111761048557604052565b6001600160401b03811161048557601f01601f191660200190565b9291926131de826131b7565b916131ec6040519384613196565b82948184528183011161063d578281602093846000960137010152565b9080601f8301121561063d57816020613224933591016131d2565b90565b61010060031982011261063d576004356001600160a01b038116810361063d57916024359160443591606435916001600160401b039060843582811161063d578161327491600401613209565b9260a43583811161063d578261328c91600401613209565b9260c43581811161063d57836132a491600401613209565b9260e43591821161063d5761322491600401613209565b60005b8381106132ce5750506000910152565b81810151838201526020016132be565b906020916132f7815180928185528580860191016132bb565b601f01601f1916010190565b606090600319011261063d57600435906024356001600160a01b038116810361063d579060443590565b606090600319011261063d576001600160a01b0390600435828116810361063d5791602435908116810361063d579060443590565b606090600319011261063d57600435906024359060443590565b60009080825260209060098252604092838120338252835260ff8482205416156133a65750505050565b8351916001600160401b039033606085018381118682101761369d578752602a855285850191873684378551156136895760308353855191600192831015613675576078602188015360295b83811161360b57506135c957908751936080850190858210908211176135b5578852604284528684019460603687378451156135a1576030865384518210156135a15790607860218601536041915b818311613533575050506134f1576134ed9386936134d1936134c26048946134999a519a8b957f416363657373436f6e74726f6c3a206163636f756e74200000000000000000008c88015251809260378801906132bb565b8401917001034b99036b4b9b9b4b733903937b6329607d1b6037840152518093868401906132bb565b01036028810187520185613196565b5192839262461bcd60e51b8452600484015260248301906132de565b0390fd5b60648587519062461bcd60e51b825280600483015260248201527f537472696e67733a20686578206c656e67746820696e73756666696369656e746044820152fd5b909192600f8116601081101561358d576f181899199a1a9b1b9c1cb0b131b232b360811b901a613563858861375d565b5360041c92801561357957600019019190613441565b634e487b7160e01b82526011600452602482fd5b634e487b7160e01b83526032600452602483fd5b634e487b7160e01b81526032600452602490fd5b634e487b7160e01b86526041600452602486fd5b60648789519062461bcd60e51b825280600483015260248201527f537472696e67733a20686578206c656e67746820696e73756666696369656e746044820152fd5b90600f81166010811015613661576f181899199a1a9b1b9c1cb0b131b232b360811b901a613639838a61375d565b5360041c90801561364d57600019016133f2565b634e487b7160e01b87526011600452602487fd5b634e487b7160e01b88526032600452602488fd5b634e487b7160e01b86526032600452602486fd5b634e487b7160e01b85526032600452602485fd5b634e487b7160e01b85526041600452602485fd5b906000918083526009602052604083209160018060a01b03169182845260205260ff6040842054166136e257505050565b8083526009602052604083208284526020526040832060ff1981541690557ff6391f5c32d9c69d2a47ea670b442974b53935d1edc7fd64eb21e047a839171b339380a4565b8181029291811591840414171561373a57565b634e487b7160e01b600052601160045260246000fd5b9190820180921161373a57565b90815181101561376e570160200190565b634e487b7160e01b600052603260045260246000fd5b90600182811c921680156137b4575b602083101461379e57565b634e487b7160e01b600052602260045260246000fd5b91607f1691613793565b601d54600092916137ce82613784565b8082529160019081811690811561384557506001146137ec57505050565b91929350601d6000527f6d4407e7be21f808e6509aa9fa9143369579dd7d760fe20a2c09680fc146134f916000925b84841061382d57505060209250010190565b8054602085850181019190915290930192810161381b565b915050602093945060ff929192191683830152151560051b010190565b906000929180549161387383613784565b9182825260019384811690816000146138d55750600114613895575b50505050565b90919394506000526020928360002092846000945b8386106138c157505050500101903880808061388f565b8054858701830152940193859082016138aa565b9294505050602093945060ff191683830152151560051b0101903880808061388f565b60055481101561376e576006906005600052027f036b6384b5eca791c62761152d0c79bb0604c104a5fb6f4eb0703f3154bb3db00190600090565b61393c81614bce565b600052600660205260016139546040600020546138f8565b50015490565b60208183031261063d578051906001600160401b03821161063d570181601f8201121561063d57805161398c816131b7565b9261399a6040519485613196565b8184526020828401011161063d5761322491602080850191016132bb565b81156139c2570490565b634e487b7160e01b600052601260045260246000fd5b6001600160a01b031680156139f857600052600760205260406000205490565b60405162461bcd60e51b815260206004820152602b60248201527f455243333532353a2062616c616e636520717565727920666f7220746865207a60448201526a65726f206164647265737360a81b6064820152608490fd5b15613a5857565b60405162461bcd60e51b815260206004820152603260248201527f455243333532353a207472616e736665722063616c6c6572206973206e6f74206044820152711bdddb995c881b9bdc88185c1c1c9bdd995960721b6064820152608490fd5b90613adc939291613acc61293d8433613c5e565b613ad7838383613ccf565b614116565b15613ae357565b60405162461bcd60e51b815260206004820152602760248201527f455243333532353a207472616e7366657220746f206e6f6e204552433732315260448201526632b1b2b4bb32b960c91b6064820152608490fd5b15613b3f57565b60405162461bcd60e51b815260206004820152602260248201527f455243333532353a20617070726f76616c20746f2063757272656e74206f776e60448201526132b960f11b6064820152608490fd5b15613b9657565b60405162461bcd60e51b815260206004820152601960248201527f455243333532353a20696e76616c696420746f6b656e204944000000000000006044820152606490fd5b613be481614bce565b6000526006602052613bfa6040600020546138f8565b50600301546001600160a01b031690613c14821515613b8f565b565b613c1f81614bce565b6000526006602052613c356040600020546138f8565b50600401546001600160a01b031690565b805482101561376e5760005260206000200190600090565b906001600160a01b038080613c7284613bdb565b16931691838314938415613ca5575b508315613c8f575b50505090565b613c9b91929350613c16565b1614388080613c89565b909350600052600760205260026040600020018260005260205260ff604060002054169238613c81565b613cd883613bdb565b6001600160a01b0391821691908116829003613f6357808316928315613f1057613d0185613933565b50613d0b85613fb4565b5060009185835260209060068252604090613d28828620546138f8565b50600490810180546001600160a01b03199081169091559091898782613d4d83613bdb565b167f8c5be1e5ebec7d5bd14f71427d1e84f3dd0314c0f7b2291e5b200ac8c7c3b9258280a4898752600685526005613d87858920546138f8565b500180549091858988818f5b868410613ed95750505050505050805487825580613ec0575b5050888652600684526003613dc3848820546138f8565b5001908154169055858552600783528185209182549360001994858101908111613ead5790613df488939286613c46565b90549060031b1c9060018601908c85528181528385205492613e3581613e1a868b613c46565b90919082549060031b600019811b9283911b16911916179055565b855252818320558982528120558154908115613e9a575092828892613e96947fddf252ad1be2c89b69c2b068fc378daa952ba7f163c4a11628f55a4df523b3ef97960191613e838383613c46565b909182549160031b1b1916905555613ff8565b80a4565b634e487b7160e01b865260319052602485fd5b634e487b7160e01b885260118452602488fd5b613ed29188528588209081019061407b565b3880613dac565b613f069486928b613eea878c613c46565b96905494835252209260031b1c168c5289528a8881205561406c565b8690888b8f613d93565b60405162461bcd60e51b815260206004820152602560248201527f455243333532353a207472616e7366657220746f20746865207a65726f206164604482015264647265737360d81b6064820152608490fd5b60405162461bcd60e51b8152602060048201526024808201527f455243333532353a207472616e736665722066726f6d20696e76616c6964206f6044820152633bb732b960e11b6064820152608490fd5b613fbd81614bce565b600052600660205260026139546040600020546138f8565b90815491600160401b8310156104855782613e1a916001613c1495018155613c46565b906040613c149260009083825260066020526003614018848420546138f8565b500180546001600160a01b0319166001600160a01b039092169182179055808252600760208181528484208054878652600191909101825285852055918352905220613fd5565b9190820391821161373a57565b600019811461373a5760010190565b818110614086575050565b6000815560010161407b565b90600160401b8111610485578154908083558181106140b057505050565b613c14926000526020600020918201910161407b565b9081602091031261063d57516001600160e01b03198116810361063d5790565b3d15614111573d906140f7826131b7565b916141056040519384613196565b82523d6000602084013e565b606090565b9192813b63ffffffff16156142345760209161416e916000604051958680958194630a85bd0160e11b9a8b845233600485015260018060a01b03809516602485015260448401526080606484015260848301906132de565b0393165af160009181614204575b506141f6576141896140e6565b805190816141f15760405162461bcd60e51b815260206004820152603260248201527f4552433732313a207472616e7366657220746f206e6f6e20455243373231526560448201527131b2b4bb32b91034b6b83632b6b2b73a32b960711b6064820152608490fd5b602001fd5b6001600160e01b0319161490565b61422691925060203d811161422d575b61421e8183613196565b8101906140c6565b903861417c565b503d614214565b50505050600190565b95909394919460009260018060a01b03918289169586865260156020526040968787208988526020528787205487811515806147ee575b6147a4575b61473a57506003549a61428b8c61406c565b60035581156146ec578b1561469e576142a38c614b06565b801561468f575b61464b5788516142b98161317b565b88815289518a8e6142c983613132565b8083528d60208401908152828401908d82528d6060860193898552608087019582875260a08801988952600554928392815260066020522055600160401b8110156146375780600161431e92016005556138f8565b9590956146235751855551600185015551600284015551600383018054918b166001600160a01b03199283161790559051600483018054918b16919092161790559051805191600501906001600160401b03831161460f579060208f959493926143888484614092565b01908b5260208b208b5b8381106145ec5750505050826143a791613ff8565b877fddf252ad1be2c89b69c2b068fc378daa952ba7f163c4a11628f55a4df523b3ef8180a487868b7fe4f48c240d3b994948aa54f3e2f5fca59263dfe1d52b6e4cf39a5d249b5ccb658280a46143fd898b61480c565b8360085416803b1561064e5761443991879189838e825196879586948593632108947560e21b85526004850152602484015260448301906132de565b03925af180156145e2576145cf575b508260085416803b15610a98576144849186918b838a5180968195829463246a908b60e01b845260048401528d602484015260448301906132de565b03925af180156145c5579085916145b1575b50508160085416803b15610a9c576144d39185918a838951809681958294630190503b60e61b845260048401528c602484015260448301906132de565b03925af180156145a757908491614593575b50506008541690813b15610c0c57614522839283928651948580948193637e468a5160e01b83528d60048401528a602484015260448301906132de565b03925af1801561458957614575575b505051838152602081019190915260408101919091527f84eeb48eca46cea54afc9753345f6038981672ea565f32885420829dfd88aea69080606081015b0390a190565b61457f829161314d565b6106525780614531565b83513d84823e3d90fd5b61459c9061314d565b610c0c5782386144e5565b85513d86823e3d90fd5b6145ba9061314d565b610cd6578338614496565b86513d87823e3d90fd5b6145db9095919561314d565b9338614448565b87513d88823e3d90fd5b82939495965060208b6001939451169401938184015501908f9594939291614392565b634e487b7160e01b8b52604160045260248bfd5b634e487b7160e01b8f5260048f905260248ffd5b634e487b7160e01b8f52604160045260248ffd5b885162461bcd60e51b815260206004820152601d60248201527f455243333532353a20746f6b656e20616c7265616479206d696e7465640000006044820152606490fd5b506146998c614b4c565b6142aa565b885162461bcd60e51b815260206004820152602160248201527f455243333532353a2063616e6e6f74206d696e74207a65726f20746f6b656e496044820152601960fa1b6064820152608490fd5b885162461bcd60e51b815260206004820152602160248201527f455243333532353a206d696e7420746f20746865207a65726f206164647265736044820152607360f81b6064820152608490fd5b9a50505050505050509061456f7f84eeb48eca46cea54afc9753345f6038981672ea565f32885420829dfd88aea6939261477386613bdb565b5061477d86613933565b50614788848761480c565b5192839286846040919493926060820195825260208201520152565b82876147af84614c30565b1614806147dd575b806147ca575b1561427957506001614279565b50818952601160205289892054156147bd565b508a6147e883613933565b146147b7565b506147f882614b06565b80614274575061480782614b4c565b614274565b906000805160206161f4833981519152602060009284845260068252600261483760408620546138f8565b5001614844828254613750565b9055604051908152a3565b6001600160401b0381116104855760051b60200190565b949096939591956002549660ff6000981660018060a01b039586600e541691604d8111614af257602093929161489f91600a0a906139b8565b60408051630bbed13160e21b81526001600160a01b039b909b1660048c015260248b019c909c5260448a01929092526064890191909152969896899060849082908b905af1978815614ab5578798614abf575b50600354976149008961406c565b6003558888526011602052868820558360085416803b1561064a5761494a9188918a838a51809681958294632108947560e21b845260048401528d602484015260448301906132de565b03925af18015614ab557614aa2575b508260085416803b1561064e576149959187918983895180968195829463246a908b60e01b845260048401528c602484015260448301906132de565b03925af18015614a9857908691614a84575b5050816008541690813b15610a98576149e5869283928751948580948193630190503b60e61b83528d60048401528b602484015260448301906132de565b03925af18015614a7a57908591614a66575b50506008541690813b15610cd657614a368392859492859351958680948193637e468a5160e01b83528b600484015288602484015260448301906132de565b03925af1908115614a5d5750614a4b57505090565b614a55829161314d565b610652575090565b513d84823e3d90fd5b614a6f9061314d565b610cd65783386149f7565b84513d87823e3d90fd5b614a8d9061314d565b610a9c5784386149a7565b85513d88823e3d90fd5b614aae9096919661314d565b9438614959565b86513d89823e3d90fd5b9097506020813d8211614aea575b81614ada60209383613196565b8101031261064e575196386148f2565b3d9150614acd565b634e487b7160e01b8b52601160045260248bfd5b60055415159081614b15575090565b8091506000526006602052614b2e6040600020546138f8565b50541490565b9081602091031261063d5751801515810361063d5790565b8060005260116020526040600020541590811591614b68575090565b600e546040516341ce4b3f60e01b81526004810192909252909150602090829060249082906001600160a01b03165afa908115614bc257600091614baa575090565b613224915060203d811161210e576121028183613196565b6040513d6000823e3d90fd5b613c1490614bdb81614b06565b908115614c00575b8115614bf0575b50613b8f565b614bfa9150614b4c565b38614bea565b9050614c0b81614b4c565b90614be3565b9081602091031261063d57516001600160a01b038116810361063d5790565b614c3981614bce565b614c4281614b06565b80614cb6575b15614c565761322490613bdb565b60018060a01b03600e541690600052601160205260206040600020546024604051809481936331a9108f60e11b835260048301525afa908115614bc257600091614c9e575090565b613224915060203d81116121a6576121978183613196565b50614cc081613933565b600c5414614c48565b805182101561376e5760209160051b010190565b6001600160a01b038083169391928415614dc65783614cfb91614e1e565b15614d49575b5060207f621b050de0ad08b51d19b48b3e6df75348c4de6bdd93e81b252ca62e28265b1b918360005260048252604060002085600052825280604060002055604051908152a3565b908260005260066020526005614d636040600020546138f8565b500190815492600160401b8410156104855785614da98560209560017f621b050de0ad08b51d19b48b3e6df75348c4de6bdd93e81b252ca62e28265b1b98018155613c46565b909283549160031b90811b9283911b169119161790559150614d01565b60405162461bcd60e51b815260206004820152602a60248201527f455243333532353a20617070726f76652076616c756520746f20746865207a65604482015269726f206164647265737360b01b6064820152608490fd5b6000908282526006602090808252604090614e3b828620546138f8565b509260058094015496865b888110614e595750505050505050905090565b818852838352614e778187614e70888c20546138f8565b5001613c46565b905460039190911b1c6001600160a01b0390811690881614614ea157614e9c9061406c565b614e46565b505050505050505050600190565b90614eb982614bce565b614ec282614b06565b80614f57575b15614ed65761322491614f6a565b602060018060a01b0391604483600e541660009586526011845260408620549060405195869485936338d1782f60e21b855260048501521660248301525afa918215612c43578092614f2757505090565b9091506020823d8211614f4f575b81614f4260209383613196565b8101031261065257505190565b3d9150614f35565b50614f6182613933565b600c5414614ec8565b614f7381614bce565b600052600460205260406000209060018060a01b031660005260205260406000205490565b60ff16604d811161373a57600a0a90565b60405190614fb682613160565b60078252667365636f6e647360c81b6020830152565b60405190614fd982613160565b60078252666d696e7574657360c81b6020830152565b60405190614ffc82613160565b6005825264686f75727360d81b6020830152565b6040519061501d82613160565b60048252636461797360e01b6020830152565b6040519061503d82613160565b60068252656d6f6e74687360d01b6020830152565b6040519061505f82613160565b6005825264796561727360d81b6020830152565b60009060408051908391601d549061508a82613784565b808252816020958682019460019088828216918260001461543c5750506001146153e2575b506150bc92500382613196565b5190206150c7614fa9565b805190840120036150ea5750506132249150610d5060ff601c5460a01c16614f98565b8051615100816150f9816137be565b0382613196565b82815191012061510e614fcc565b80519084012003615143575050603c8082029250811591830414171561373a5761322490610d5060ff601c5460a01c16614f98565b8051615152816150f9816137be565b828151910120615160614fef565b805190840120036151ac5750506151839150610d5060ff601c5460a01c16614f98565b603c810290808204603c148115171561373a57610e100290808204603c149015171561373a5790565b80516151bb816150f9816137be565b8281519101206151c9615010565b80519084012003615228575050905060188102908082046018148115171561373a576105a0810291808304603c149015171561373a57620151800290808204603c149015171561373a5761322490610d5060ff601c5460a01c16614f98565b7f8be27e132b8285429e5647023e835848842eefd3c91595a90151c438482c3a368151615258816150f9816137be565b838151910120647765656b7360d81b84845161527381613160565b600581520152036152e5575050905060078102908082046007148115171561373a5760a88102918083046018149015171561373a57612760810291808304603c149015171561373a5762093a800290808204603c149015171561373a5761322490610d5060ff601c5460a01c16614f98565b80516152f4816150f9816137be565b828151910120615302615030565b805190840120036153765750509050603c810290808204603c148115171561373a57610e10810291808304603c149015171561373a57620151808102918083046018149015171561373a5762278d000290808204601e149015171561373a5761322490610d5060ff601c5460a01c16614f98565b51615384816150f9816137be565b81815191012090615393615052565b8051910120146153a1575090565b906301da9c00918281029281840414901517156153ce575061322490610d5060ff601c5460a01c16614f98565b634e487b7160e01b81526011600452602490fd5b601d8a5287915089907f6d4407e7be21f808e6509aa9fa9143369579dd7d760fe20a2c09680fc146134f5b8583106154245750506150bc9350820101386150af565b8054838801850152869450899390920191810161540d565b60ff191688526150bc95151560051b85010192503891506150af9050565b1561546157565b60405162461bcd60e51b815260206004820152602560248201527f54696d654372656469743a207472616e736665727320617265206e6f7420616c6044820152641b1bddd95960da1b6064820152608490fd5b156154bb57565b60405162461bcd60e51b815260206004820152604b60248201527f54696d654372656469743a20616d6f756e74206265696e67207472616e73666560448201527f726564206973206c657373207468616e206d696e696d756d207472616e73666560648201526a7261626c652076616c756560a81b608482015260a490fd5b9190916000908082526020916011835260409283822054156000146158ae57615564858433615991565b600354956155718761406c565b60035561557d84613933565b906001600160a01b0380821691908215615860578915615812576155a08a614b06565b8015615803575b6157bf57849088516155b88161317b565b8781528951888b8e6155c984613132565b8084528684018a81528285019184835260608601938b8552608087019580875260a0880198895260066005549b8c948352522055600160401b8810156157ab5761561a6001988981016005556138f8565b95909561579757906005959493929151855551888501555160028401558560038401915116906001600160601b0360a01b9182825416179055856004840192511690825416179055019051918251926001600160401b038411610a8457908883928f9b9a9998979695948561568e91614092565b0191895287892090895b848110615781575050505050507f6d811e6a20ae5461a4ef22a6998c1d958defe727f1cc522b6eb792bc8e6f72669897969386938461576497946156ee61456f9a6000805160206161f483398151915296613ff8565b857fddf252ad1be2c89b69c2b068fc378daa952ba7f163c4a11628f55a4df523b3ef8180a483857fe4f48c240d3b994948aa54f3e2f5fca59263dfe1d52b6e4cf39a5d249b5ccb658280a48383526006815261574c888420546138f8565b50508751838152a361575f858883615a2a565b613933565b915192839286846040919493926060820195825260208201520152565b83518216818401558f9b50928901928501615698565b634e487b7160e01b8e5260048e905260248efd5b634e487b7160e01b8d52604160045260248dfd5b875162461bcd60e51b815260048101869052601d60248201527f455243333532353a20746f6b656e20616c7265616479206d696e7465640000006044820152606490fd5b5061580d8a614b4c565b6155a7565b875162461bcd60e51b815260048101869052602160248201527f455243333532353a2063616e6e6f74206d696e74207a65726f20746f6b656e496044820152601960fa1b6064820152608490fd5b875162461bcd60e51b815260048101869052602160248201527f455243333532353a206d696e7420746f20746865207a65726f206164647265736044820152607360f81b6064820152608490fd5b600e5484516307a42e0160e11b8152600481018590526001600160a01b0397881660248201526044810187905291969192918791849160649183918691165af195861561598557819661592e575b5050509061456f6157647f6d811e6a20ae5461a4ef22a6998c1d958defe727f1cc522b6eb792bc8e6f72669493613933565b909180939650813d831161597e575b6159478183613196565b810103126106525750519261456f6157647f6d811e6a20ae5461a4ef22a6998c1d958defe727f1cc522b6eb792bc8e6f72666158fc565b503d61593d565b508351903d90823e3d90fd5b61599b8183614f6a565b6159a58383613c5e565b1580615a1e575b6159b65750505050565b8381106159d9576159d0936159ca9161405f565b91614cdd565b3880808061388f565b60405162461bcd60e51b815260206004820152601f60248201527f455243333532353a20696e73756666696369656e7420616c6c6f77616e6365006044820152606490fd5b506000198114156159ac565b615a3381614b06565b8015615cc0575b15615c6b57615a4882614b06565b8015615c5c575b15615c09578060005260209260068452604092615a6f84600020546138f8565b508160005260068652615a8585600020546138f8565b50906002810190815490858210615bb25760010154600184015403615b575791600291615ab886615af59897969561405f565b905501615ac6838254613750565b905580836000805160206161f4833981519152888851868152a3845192615aec8461317b565b60008452615ccf565b15615afe575050565b60849250519062461bcd60e51b82526004820152602d60248201527f455243333532353a207472616e736665722072656a656374656420627920455260448201526c21999a991aa932b1b2b4bb32b960991b6064820152fd5b865162461bcd60e51b815260048101899052602e60248201527f455243333532353a207472616e7366657220746f20746f6b656e20776974682060448201526d191a5999995c995b9d081cdb1bdd60921b6064820152608490fd5b875162461bcd60e51b8152600481018a9052602a60248201527f455243333532353a20696e73756666696369656e742062616c616e636520666f60448201526939103a3930b739b332b960b11b6064820152608490fd5b60405162461bcd60e51b815260206004820152602560248201527f455243333532353a207472616e7366657220746f20696e76616c696420746f6b604482015264195b88125160da1b6064820152608490fd5b50615c6682614b4c565b615a4f565b60405162461bcd60e51b815260206004820152602760248201527f455243333532353a207472616e736665722066726f6d20696e76616c696420746044820152661bdad95b88125160ca1b6064820152608490fd5b50615cca81614b4c565b615a3a565b929092615cdb84613bdb565b803b63ffffffff1615615de8576040516301ffc9a760e01b8152629ce20b60e01b6004820181905295602095926001600160a01b0316918681602481865afa60009181615dc9575b50615d3e575050505050505050615d386140e6565b50600190565b15615dbd5760008694615d7d604051978896879586948d865233600487015260248601526044850152606484015260a0608484015260a48301906132de565b03925af1918215614bc257600092615da0575b50506001600160e01b0319161490565b615db69250803d1061422d5761421e8183613196565b3880615d90565b50505050505050600190565b615de1919250883d8a1161210e576121028183613196565b9038615d23565b5050505050600190565b9091615dfd83614b06565b80615f9e575b8015615f8f575b15615f1857615e1882614b06565b80615f05575b80615ee2575b15615e885790615e8382615e5b7fdf7a601a0a201ccd4b4bfcfd610913188d931867997223d226f85f2f2673988a95948433615991565b615e66818585615a2a565b604051938493846040919493926060820195825260208201520152565b0390a1565b600e546001600160a01b0316803b1561063d57604051630310ed7f60e41b8152600481019390935260248301939093526044820152906000908290606490829084905af18015614bc257615ed95750565b613c149061314d565b50615eec83614b06565b8015615e245750615efc83613933565b600c5414615e24565b50615f0f82613933565b600c5414615e1e565b60a460405162461bcd60e51b815260206004820152604460248201527f546f6b656e204944206f66207265636569766572206e6f74207265636f676e6960448201527f7a6564206279207468697320636f6e7472616374206f722074686520726567696064820152637374727960e01b6084820152fd5b50615f9983614b4c565b615e0a565b50615fa883613933565b600c5414615e03565b615fc390615fbe81614bce565b616171565b6040805190615fdc82615fd5816137be565b0383613196565b8151602080930120615fec614fa9565b8051908401200361600e575050613224906103c860ff601c5460a01c16614f98565b805161601d816150f9816137be565b82815191012061602b614fcc565b8051908401200361605357505061604f603c916103c860ff601c5460a01c16614f98565b0490565b8051616062816150f9816137be565b828151910120616070614fef565b8051908401200361609557505061604f610e10916103c860ff601c5460a01c16614f98565b80516160a4816150f9816137be565b8281519101206160b2615010565b805190840120036160d857505061604f62015180916103c860ff601c5460a01c16614f98565b80516160e7816150f9816137be565b8281519101206160f5615030565b8051908401200361611b57505061604f62278d00916103c860ff601c5460a01c16614f98565b51616129816150f9816137be565b81815191012090616138615052565b80519101200361615c5761604f6301da9c00916103c860ff601c5460a01c16614f98565b613224906103c860ff601c5460a01c16614f98565b61617a81614bce565b61618381614b06565b806161e0575b156161975761322490613fb4565b600090815260116020526040812054602060018060a01b03600e541691602460405180948193631398fee160e31b835260048301525afa918215612c43578092614f2757505090565b506161ea81613933565b600c541461618956fe0b2aac84f3ec956911fd78eae5311062972ff949f38412e8da39069d9f068cc6519b8a896d3cf44bd2d0545987d41a13bfb2ba37ce6ce401c753218178535608a26469706673582212201f2528b8e953f068809c3b0b83aaa2e1c8839b2f4ddc448838c74e3716c164c164736f6c634300081100336080604052346200048657620020c5803803806200001d816200048b565b9283398101608082820312620004865781516001600160401b0391908281116200048657816200004f918501620004b1565b91602092838501518281116200048657836200006d918701620004b1565b92604086015183811162000486576060916200008b918801620004b1565b9501516001600160a01b03811695908690036200048657815193838511620002c3576001948554938685811c951680156200047b575b88861014620002a2578190601f9586811162000425575b508890868311600114620003bd57600092620003b1575b5050600019600383901b1c191690861b1785555b805190848211620002c357600254908682811c92168015620003a6575b88831014620002a25781858493116200034f575b508790858311600114620002e557600092620002d9575b5050600019600383901b1c191690851b176002555b8051928311620002c35760039485548581811c91168015620002b8575b82821014620002a25783811162000257575b5080928411600114620001ed5750928293918392600094620001e1575b50501b9160001990841b1c19161790555b600080546001600160a01b031916919091179055604051611ba19081620005248239f35b015192503880620001ac565b919083601f1981168760005284600020946000905b888383106200023c575050501062000223575b505050811b019055620001bd565b015160001983861b60f8161c1916905538808062000215565b85870151885590960195948501948793509081019062000202565b86600052816000208480870160051c82019284881062000298575b0160051c019086905b8281106200028b5750506200018f565b600081550186906200027b565b9250819262000272565b634e487b7160e01b600052602260045260246000fd5b90607f16906200017d565b634e487b7160e01b600052604160045260246000fd5b0151905038806200014b565b90879350601f198316916002600052896000209260005b8b8282106200033857505084116200031e575b505050811b0160025562000160565b015160001960f88460031b161c191690553880806200030f565b8385015186558b97909501949384019301620002fc565b9091506002600052876000208580850160051c8201928a86106200039c575b918991869594930160051c01915b8281106200038c57505062000134565b600081558594508991016200037c565b925081926200036e565b91607f169162000120565b015190503880620000ef565b90889350601f19831691846000528a6000209260005b8c8282106200040e5750508411620003f4575b505050811b01855562000103565b015160001960f88460031b161c19169055388080620003e6565b8385015186558c97909501949384019301620003d3565b90915087600052886000208680850160051c8201928b861062000471575b918a91869594930160051c01915b82811062000461575050620000d8565b600081558594508a910162000451565b9250819262000443565b94607f1694620000c1565b600080fd5b6040519190601f01601f191682016001600160401b03811183821017620002c357604052565b919080601f84011215620004865782516001600160401b038111620002c357602090620004e7601f8201601f191683016200048b565b92818452828287010111620004865760005b8181106200050f57508260009394955001015290565b8581018301518482018401528201620004f956fe608060408181526004908136101561001657600080fd5b600092833560e01c9081631375d843146113cd57508063246a908b146112cf57806355f804b31461118b57806364140ec01461108c5780636c0360eb14610fcd5780636c037f8a14610d0f57806371f0442e14610c7b578063725fa09c146108c05780637e468a51146107c1578063842251d414610685578063894b4c2e146101755763b3154c08146100a857600080fd5b34610171576020918260031936011261016d5780358452825280832091815192848154906100d5826118ef565b80875292600192808416908115610149575060011461010e575b61010a8787610100828c03836114e3565b5191829182611485565b0390f35b9080949750528583205b828410610136575050508261010a94610100928201019438806100ef565b8054868501880152928601928101610118565b60ff19168887015250505050151560051b83010192506101008261010a38806100ef565b8380fd5b8280fd5b50903461017157602092836003193601126106825782516306fdde0360e01b81529180359082848281335afa938415610678578394610654575b506101b9826117ac565b926102056022875180968a6101d78184019a8b815193849201611462565b820161202360f01b8c8201526101f68c83519384918785019101611462565b010360028101875201856114e3565b828152818752858120865181549391899184610220876118ef565b80835284830193600198868a821691826000146106345750506001146105fb575b505090610254816102c9949303826114e3565b6102e561026030611a28565b898852600686526102d78d808a209a60058952818b2091519788948a86019a6102ac61028b8d611929565b91692f636f6e74726163742f60b01b83528351938491600a85019101611462565b019c6011662f746f6b656e2f60c81b9e8f600a82015201906119a5565b602f60f81b815201906119a5565b03601f1981018552846114e3565b8a51631398fee160e31b81528581018990528c81602481335afa80156105c25787906105cc575b61031691506117ac565b8b5163131f9f3f60e11b8152958601899052948c81602481335afa9081156105c2578d918d918991610589575b5061034d906117ac565b9761035733611a28565b9a815260068352208c51713d91383937b832b93a34b2b9afbab934911d60711b818401908152601160f91b60328301529a90998a93909161039a60338601611929565b9068636f6e74726163742f60b81b825280518093600984019201916103be92611462565b019060098201526010016103d1916119a5565b6f17b83937b832b93a34b2b9973539b7b760811b815261227d60f01b601082015203600d198101885260120161040790886114e3565b8a51998a998d683d913730b6b2911d1160b91b908c015251908160298c0161042e92611462565b890190701116113232b9b1b934b83a34b7b7111d1160791b6029830152519182603a830161045b92611462565b01906a11161134b6b0b3b2911d1160a91b603a8301525191826045830161048192611462565b016c1116113130b630b731b2911d1160991b6045820152815191828a605284019201916104ad92611462565b016911161139b637ba111d1160b11b60528201528151918289605c84019201916104d692611462565b01906e111611383937b832b93a34b2b9911d60891b605c830152519182606b830161050092611462565b01606b8101607d60f81b905203604c81018252606c0161052090826114e3565b61052990611631565b81517f646174613a6170706c69636174696f6e2f6a736f6e3b6261736536342c00000084820152815190938492610567918391603d86019101611462565b810103601d81018352603d0161057d90836114e3565b5161010a819282611485565b928092508391503d83116105bb575b6105a281836114e3565b810103126105b7578b61034d8e925190610343565b8680fd5b503d610598565b8c513d89823e3d90fd5b508c81813d83116105f4575b6105e281836114e3565b810103126105b757610316905161030c565b503d6105d8565b8592508752818720908888925b82841061061e5750505082010161025482610241565b80548487018601528794909301928a9101610608565b60ff1916875292151560051b850190920192506102549150839050610241565b6106719194503d8085833e61066981836114e3565b8101906115a0565b92386101af565b85513d85823e3d90fd5b80fd5b508290346107bd576106963661156d565b939083526020916006835283209184519167ffffffffffffffff83116107aa57506106c183546118ef565b601f8111610767575b5080601f831160011461070557508394829394926106fa575b50508160011b916000199060031b1c191617905580f35b0151905084806106e3565b90601f198316958486528286209286905b88821061074f57505083600195969710610736575b505050811b01905580f35b015160001960f88460031b161c1916905584808061072b565b80600185968294968601518155019501930190610716565b838552818520601f840160051c8101918385106107a0575b601f0160051c01905b81811061079557506106ca565b858155600101610788565b909150819061077f565b634e487b7160e01b855260419052602484fd5b5080fd5b508290346107bd576107d23661156d565b939083526020916007835283209184519167ffffffffffffffff83116107aa57506107fd83546118ef565b601f811161087d575b5080601f831160011461083557508394829394926106fa5750508160011b916000199060031b1c191617905580f35b90601f198316958486528286209286905b8882106108655750508360019596971061073657505050811b01905580f35b80600185968294968601518155019501930190610846565b838552818520601f840160051c8101918385106108b6575b601f0160051c01905b8181106108ab5750610806565b85815560010161089e565b9091508190610895565b50913461068257806003193601126106825782516306fdde0360e01b815281818481335afa908115610c71578291610c57575b508351829060025492610905846118ef565b9586835260209683888101956001978a8982169182600014610c3c575050600114610be1575b610937925003846114e3565b61094033611a28565b9588519586898101986109528a611929565b68636f6e74726163742f60b81b81526109758c8351938491600985019101611462565b01602f60f81b600982015283906003549361098f856118ef565b94818116908115610bc05750600114610b61575b50506109b8925003601f1981018852876114e3565b8789518093633e7e866960e01b825281335afa918215610b55578192610b17575b5050610ac9605a888a61010a9b9961010099610a7f603d9a610b079e9a610a5c610ace9b610a0c60ff610a329d166117ac565b97519b8c99683d913730b6b2911d1160b91b818c0152825192839160298d019101611462565b880191701116113232b9b1b934b83a34b7b7111d1160791b6029840152518093603a840190611462565b01916a11161134b6b0b3b2911d1160a91b603a8401525180936045840190611462565b01721116113b30b63ab2a232b1b4b6b0b639911d1160691b6045820152610aaf825180938a605885019101611462565b0161227d60f01b605882015203603a8101845201826114e3565b611631565b845195827f646174613a6170706c69636174696f6e2f6a736f6e3b6261736536342c000000889485015282519283918686019101611462565b810103601d8101855201836114e3565b9091508781813d8311610b4e575b610b2f81836114e3565b810103126107bd57519060ff821682036106825750610ac9605a6109d9565b503d610b25565b508851903d90823e3d90fd5b6003865290915084908c7fc2575a0e9e593c00f959f8c92f12db2869c3395a3b0502d05e2516446f71f85b5b868410610ba857505050506109b892600a91010138806109a3565b8054858501600a01528c95509201918d908201610b8d565b9050600a93506109b895915060ff19168383015280151502010138806109a3565b505060028752838888887f405787fa12a823e0f2b7631cc41b3ba8828b3321ca811111fa75cd3aa3bb5ace5b858310610c23575050610937935082010161092b565b80919294505483858a0101520191018990888793610c0d565b60ff1916895261093794151560051b840101915061092b9050565b610c6b91503d8084833e61066981836114e3565b386108f3565b84513d84823e3d90fd5b5034610171576020918260031936011261016d57358352600582528083209181519284815490610caa826118ef565b808752926001928084169081156101495750600114610cd45761010a8787610100828c03836114e3565b9080949750528583205b828410610cfc575050508261010a94610100928201019438806100ef565b8054868501880152928601928101610cde565b5090346101715760209283600319360112610682578054835163ec327a2160e01b815283358185018190529092916001600160a01b0316908284602481855afa938415610fc3578394610fa7575b50855163bc74ebb960e01b8152858101829052948386602481865afa958615610f9d578496610f81575b5086516309c3dd8760e01b80825282820184905290938585602481845afa948515610f7757918a9594939187938496610f56575b5090602491610dfb60268d518a652f696d61676560d01b81610de7849e85019d8e815193849201611462565b83019182015203600681018b5201896114e3565b8b51958694859384528301525afa938415610f4b578094610f2e575b50508551918288808201868197519283910191610e3392611462565b81018981016f17b83937b832b93a34b2b9973539b7b760811b905203601081018452603001610e6290846114e3565b8651958695683d913730b6b2911d1160b91b8a880152805190818b60298a01920191610e8d92611462565b8601701116113232b9b1b934b83a34b7b7111d1160791b6029820152815191828b603a8401920191610ebe92611462565b01906a11161134b6b0b3b2911d1160a91b603a83015251918260458301610ee492611462565b01906e111611383937b832b93a34b2b9911d60891b604583015251918260548301610f0e92611462565b0160548101607d60f81b90520360358101825260550161052090826114e3565b610f439294503d8091833e61066981836114e3565b913880610e17565b8751903d90823e3d90fd5b602492919650610f6f903d8087833e61066981836114e3565b959091610dbb565b89513d88823e3d90fd5b610f969196503d8086833e61066981836114e3565b9438610d87565b87513d86823e3d90fd5b610fbc9194503d8085833e61066981836114e3565b9238610d5d565b86513d85823e3d90fd5b8382346107bd57816003193601126107bd57805190826001805491610ff1836118ef565b80865292828116908115611064575060011461101a575b5050506101008261010a9403836114e3565b9450808552600080516020611b4c8339815191525b82861061104c5750505061010082602061010a9582010194611008565b8054602087870181019190915290950194810161102f565b61010a97508693506020925061010094915060ff191682840152151560051b82010194611008565b508290346107bd5761109d3661156d565b939083526020916005835283209184519167ffffffffffffffff83116107aa57506110c883546118ef565b601f8111611148575b5080601f831160011461110057508394829394926106fa5750508160011b916000199060031b1c191617905580f35b90601f198316958486528286209286905b8882106111305750508360019596971061073657505050811b01905580f35b80600185968294968601518155019501930190611111565b838552818520601f840160051c810191838510611181575b601f0160051c01905b81811061117657506110d1565b858155600101611169565b9091508190611160565b828434610682576020806003193601126107bd5767ffffffffffffffff833581811161016d576111be9036908601611521565b9384519182116112bc57506001916111d683546118ef565b601f811161126a575b5080601f8311600114611219575083948293949261120e575b5050600019600383901b1c191690821b17905580f35b0151905084806111f8565b838552601f19831695600080516020611b4c833981519152929186905b888210611253575050838596971061073657505050811b01905580f35b808785968294968601518155019501930190611236565b838552600080516020611b4c833981519152601f840160051c8101918385106112b2575b601f0160051c019084905b8281106112a75750506111df565b868155018490611299565b909150819061128e565b634e487b7160e01b845260419052602483fd5b508290346107bd576112e03661156d565b9390835260209181835283209184519167ffffffffffffffff83116107aa575061130a83546118ef565b601f811161138a575b5080601f831160011461134257508394829394926106fa5750508160011b916000199060031b1c191617905580f35b90601f198316958486528286209286905b8882106113725750508360019596971061073657505050811b01905580f35b80600185968294968601518155019501930190611353565b838552818520601f840160051c8101918385106113c3575b601f0160051c01905b8181106113b85750611313565b8581556001016113ab565b90915081906113a2565b9290503461016d576020908160031936011261145e57358452600681528184208054856113f9826118ef565b8087529260019280841690811561014957506001146114235761010a8787610100828c03836114e3565b9080949750528583205b82841061144b575050508261010a94610100928201019438806100ef565b805486850188015292860192810161142d565b8480fd5b60005b8381106114755750506000910152565b8181015183820152602001611465565b604091602082526114a58151809281602086015260208686019101611462565b601f01601f1916010190565b6060810190811067ffffffffffffffff8211176114cd57604052565b634e487b7160e01b600052604160045260246000fd5b90601f8019910116810190811067ffffffffffffffff8211176114cd57604052565b67ffffffffffffffff81116114cd57601f01601f191660200190565b81601f820112156115685780359061153882611505565b9261154660405194856114e3565b8284526020838301011161156857816000926020809301838601378301015290565b600080fd5b90604060031983011261156857600435916024359067ffffffffffffffff82116115685761159d91600401611521565b90565b6020818303126115685780519067ffffffffffffffff8211611568570181601f820112156115685780516115d381611505565b926115e160405194856114e3565b818452602082840101116115685761159d9160208085019101611462565b9061160982611505565b61161660405191826114e3565b8281528092611627601f1991611505565b0190602036910137565b8051156117875760405190611645826114b1565b604082527f4142434445464748494a4b4c4d4e4f505152535455565758595a61626364656660208301527f6768696a6b6c6d6e6f707172737475767778797a303132333435363738392b2f60408301528051600291828201809211611771576003918290046001600160fe1b0381168103611771576116c7908495941b6115ff565b936020850193829183518401906020820192835194600085525b83811061172057505050505251068060011461170d57600214611702575090565b603d90600019015390565b50603d9081600019820153600119015390565b87600491999293949901918251600190603f9082828260121c16880101518453828282600c1c16880101518385015382828260061c16880101518885015316850101518982015301979291906116e1565b634e487b7160e01b600052601160045260246000fd5b506040516020810181811067ffffffffffffffff8211176114cd576040526000815290565b806000917a184f03e93ff9f4daa797ed6e38ed64bf6a1f010000000000000000808210156118e1575b506d04ee2d6d415b85acef8100000000808310156118d2575b50662386f26fc10000808310156118c3575b506305f5e100808310156118b4575b50612710808310156118a5575b506064821015611895575b600a8092101561188b575b6001908160216118438287016115ff565b95860101905b611855575b5050505090565b600019019083906f181899199a1a9b1b9c1cb0b131b232b360811b8282061a83530491821561188657919082611849565b61184e565b9160010191611832565b9190606460029104910191611827565b6004919392049101913861181c565b6008919392049101913861180f565b60109193920491019138611800565b602091939204910191386117ee565b6040935081049150386117d5565b90600182811c9216801561191f575b602083101461190957565b634e487b7160e01b600052602260045260246000fd5b91607f16916118fe565b9060009160019081549161193c836118ef565b92818116908115611992575060011461195457505050565b809192939450600052600080516020611b4c833981519152906000915b84831061197f575050500190565b8181602092548587015201920191611971565b60ff191683525050811515909102019150565b6000929181546119b4816118ef565b92600191808316908115611a0d57506001146119d1575b50505050565b90919293945060005260209081600020906000915b8583106119fc57505050500190388080806119cb565b8054858401529183019181016119e6565b60ff19168452505050811515909102019150388080806119cb565b604051906001600160a01b0316611a3e826114b1565b602a82526020908183016040368237835115611b3557603090538251600190811015611b3557607860218501536029905b808211611ac3575050611a80575090565b6064906040519062461bcd60e51b825280600483015260248201527f537472696e67733a20686578206c656e67746820696e73756666696369656e746044820152fd5b9091600f81166010811015611b20578551841015611b20576f181899199a1a9b1b9c1cb0b131b232b360811b901a85840185015360041c918015611b0b576000190190611a6f565b60246000634e487b7160e01b81526011600452fd5b60246000634e487b7160e01b81526032600452fd5b634e487b7160e01b600052603260045260246000fdfeb10e2d527612073b26eecdfd717e6a320cf44b4afac2b0732d9fcbe2b7fa0cf6a2646970667358221220e45901ebff168b9fc95318643b8b280449c5ea8b868eb1c402b785fef4c22e0a64736f6c634300081100332f8788117e7eff1d82e926ec794901d17c78024a50270940304540a733656f0d",
  "linkReferences": {},
  "deployedLinkReferences": {}
}