{
  "_format": "hh-sol-artifact-1",
  "contractName": "TimeCredit",
  "sourceName": "contracts/TimeCredit.sol",
  "abi": [
    {
      "inputs": [
        {
          "internalType": "address",
          "name": "revenueAcct_",
          "type": "address"
        },
        {
          "internalType": "address",
          "name": "serviceAdmin_",
          "type": "address"
        },
        {
          "internalType": "address",
          "name": "slotRegistry_",
          "type": "address"
        },
        {
          "internalType": "address",
          "name": "underlyingContract_",
          "type": "address"
        },
        {
          "internalType": "address",
          "name": "mktAdmin_",
          "type": "address"
        },
        {
          "internalType": "uint256",
          "name": "defaultSlot_",
          "type": "uint256"
        },
        {
          "internalType": "string",
          "name": "name_",
          "type": "string"
        },
        {
          "internalType": "string",
          "name": "symbol_",
          "type": "string"
        },
        {
          "internalType": "string",
          "name": "baseUri_",
          "type": "string"
        },
        {
          "internalType": "string",
          "name": "contractDescription_",
          "type": "string"
        },
        {
          "internalType": "string",
          "name": "contractImage_",
          "type": "string"
        },
        {
          "internalType": "string",
          "name": "dispTimeUnit_",
          "type": "string"
        },
        {
          "internalType": "string",
          "name": "valueToken_",
          "type": "string"
        },
        {
          "internalType": "uint8",
          "name": "decimals_",
          "type": "uint8"
        }
      ],
      "stateMutability": "nonpayable",
      "type": "constructor"
    },
    {
      "anonymous": false,
      "inputs": [
        {
          "indexed": true,
          "internalType": "address",
          "name": "_owner",
          "type": "address"
        },
        {
          "indexed": true,
          "internalType": "address",
          "name": "_approved",
          "type": "address"
        },
        {
          "indexed": true,
          "internalType": "uint256",
          "name": "_tokenId",
          "type": "uint256"
        }
      ],
      "name": "Approval",
      "type": "event"
    },
    {
      "anonymous": false,
      "inputs": [
        {
          "indexed": true,
          "internalType": "address",
          "name": "_owner",
          "type": "address"
        },
        {
          "indexed": true,
          "internalType": "address",
          "name": "_operator",
          "type": "address"
        },
        {
          "indexed": false,
          "internalType": "bool",
          "name": "_approved",
          "type": "bool"
        }
      ],
      "name": "ApprovalForAll",
      "type": "event"
    },
    {
      "anonymous": false,
      "inputs": [
        {
          "indexed": true,
          "internalType": "uint256",
          "name": "_tokenId",
          "type": "uint256"
        },
        {
          "indexed": true,
          "internalType": "address",
          "name": "_operator",
          "type": "address"
        },
        {
          "indexed": false,
          "internalType": "uint256",
          "name": "_value",
          "type": "uint256"
        }
      ],
      "name": "ApprovalValue",
      "type": "event"
    },
    {
      "anonymous": false,
      "inputs": [
        {
          "indexed": false,
          "internalType": "address",
          "name": "contractAddress",
          "type": "address"
        }
      ],
      "name": "MetadataDescriptor",
      "type": "event"
    },
    {
      "anonymous": false,
      "inputs": [
        {
          "indexed": false,
          "internalType": "uint256",
          "name": "tokenId",
          "type": "uint256"
        },
        {
          "indexed": false,
          "internalType": "uint256",
          "name": "slot",
          "type": "uint256"
        },
        {
          "indexed": false,
          "internalType": "uint256",
          "name": "value",
          "type": "uint256"
        }
      ],
      "name": "MintServiceToken",
      "type": "event"
    },
    {
      "anonymous": false,
      "inputs": [
        {
          "indexed": false,
          "internalType": "uint256",
          "name": "newTokenId",
          "type": "uint256"
        },
        {
          "indexed": false,
          "internalType": "uint256",
          "name": "slot",
          "type": "uint256"
        },
        {
          "indexed": false,
          "internalType": "uint256",
          "name": "value",
          "type": "uint256"
        }
      ],
      "name": "MintServiceTokenToAddress",
      "type": "event"
    },
    {
      "anonymous": false,
      "inputs": [
        {
          "indexed": false,
          "internalType": "uint256",
          "name": "tokenId",
          "type": "uint256"
        },
        {
          "indexed": false,
          "internalType": "uint256",
          "name": "valueSeconds",
          "type": "uint256"
        },
        {
          "indexed": false,
          "internalType": "uint256",
          "name": "valueUnit",
          "type": "uint256"
        }
      ],
      "name": "MintTimeToken",
      "type": "event"
    },
    {
      "anonymous": false,
      "inputs": [
        {
          "indexed": true,
          "internalType": "bytes32",
          "name": "role",
          "type": "bytes32"
        },
        {
          "indexed": true,
          "internalType": "bytes32",
          "name": "previousAdminRole",
          "type": "bytes32"
        },
        {
          "indexed": true,
          "internalType": "bytes32",
          "name": "newAdminRole",
          "type": "bytes32"
        }
      ],
      "name": "RoleAdminChanged",
      "type": "event"
    },
    {
      "anonymous": false,
      "inputs": [
        {
          "indexed": true,
          "internalType": "bytes32",
          "name": "role",
          "type": "bytes32"
        },
        {
          "indexed": true,
          "internalType": "address",
          "name": "account",
          "type": "address"
        },
        {
          "indexed": true,
          "internalType": "address",
          "name": "sender",
          "type": "address"
        }
      ],
      "name": "RoleGranted",
      "type": "event"
    },
    {
      "anonymous": false,
      "inputs": [
        {
          "indexed": true,
          "internalType": "bytes32",
          "name": "role",
          "type": "bytes32"
        },
        {
          "indexed": true,
          "internalType": "address",
          "name": "account",
          "type": "address"
        },
        {
          "indexed": true,
          "internalType": "address",
          "name": "sender",
          "type": "address"
        }
      ],
      "name": "RoleRevoked",
      "type": "event"
    },
    {
      "anonymous": false,
      "inputs": [
        {
          "indexed": true,
          "internalType": "address",
          "name": "metadataDescriptor",
          "type": "address"
        }
      ],
      "name": "SetMetadataDescriptor",
      "type": "event"
    },
    {
      "anonymous": false,
      "inputs": [
        {
          "indexed": true,
          "internalType": "uint256",
          "name": "_tokenId",
          "type": "uint256"
        },
        {
          "indexed": true,
          "internalType": "uint256",
          "name": "_oldSlot",
          "type": "uint256"
        },
        {
          "indexed": true,
          "internalType": "uint256",
          "name": "_newSlot",
          "type": "uint256"
        }
      ],
      "name": "SlotChanged",
      "type": "event"
    },
    {
      "anonymous": false,
      "inputs": [
        {
          "indexed": true,
          "internalType": "address",
          "name": "_from",
          "type": "address"
        },
        {
          "indexed": true,
          "internalType": "address",
          "name": "_to",
          "type": "address"
        },
        {
          "indexed": true,
          "internalType": "uint256",
          "name": "_tokenId",
          "type": "uint256"
        }
      ],
      "name": "Transfer",
      "type": "event"
    },
    {
      "anonymous": false,
      "inputs": [
        {
          "indexed": true,
          "internalType": "uint256",
          "name": "_fromTokenId",
          "type": "uint256"
        },
        {
          "indexed": true,
          "internalType": "uint256",
          "name": "_toTokenId",
          "type": "uint256"
        },
        {
          "indexed": false,
          "internalType": "uint256",
          "name": "_value",
          "type": "uint256"
        }
      ],
      "name": "TransferValue",
      "type": "event"
    },
    {
      "anonymous": false,
      "inputs": [
        {
          "indexed": false,
          "internalType": "uint256",
          "name": "fromTokenId",
          "type": "uint256"
        },
        {
          "indexed": false,
          "internalType": "uint256",
          "name": "toTokenId",
          "type": "uint256"
        },
        {
          "indexed": false,
          "internalType": "uint256",
          "name": "value",
          "type": "uint256"
        }
      ],
      "name": "ValueTransfer",
      "type": "event"
    },
    {
      "inputs": [],
      "name": "DEFAULT_ADMIN_ROLE",
      "outputs": [
        {
          "internalType": "bytes32",
          "name": "",
          "type": "bytes32"
        }
      ],
      "stateMutability": "view",
      "type": "function"
    },
    {
      "inputs": [],
      "name": "MKT_ARBITRATOR_ROLE",
      "outputs": [
        {
          "internalType": "bytes32",
          "name": "",
          "type": "bytes32"
        }
      ],
      "stateMutability": "view",
      "type": "function"
    },
    {
      "inputs": [],
      "name": "SERVICE_ADMIN_ROLE",
      "outputs": [
        {
          "internalType": "bytes32",
          "name": "",
          "type": "bytes32"
        }
      ],
      "stateMutability": "view",
      "type": "function"
    },
    {
      "inputs": [
        {
          "internalType": "string",
          "name": "uri_",
          "type": "string"
        }
      ],
      "name": "_setBaseURI",
      "outputs": [],
      "stateMutability": "nonpayable",
      "type": "function"
    },
    {
      "inputs": [
        {
          "internalType": "uint256",
          "name": "tokenId_",
          "type": "uint256"
        },
        {
          "internalType": "uint256",
          "name": "valueSeconds_",
          "type": "uint256"
        }
      ],
      "name": "addTime",
      "outputs": [],
      "stateMutability": "nonpayable",
      "type": "function"
    },
    {
      "inputs": [
        {
          "internalType": "uint256",
          "name": "tokenId_",
          "type": "uint256"
        },
        {
          "internalType": "address",
          "name": "operator_",
          "type": "address"
        }
      ],
      "name": "allowance",
      "outputs": [
        {
          "internalType": "uint256",
          "name": "",
          "type": "uint256"
        }
      ],
      "stateMutability": "view",
      "type": "function"
    },
    {
      "inputs": [
        {
          "internalType": "address",
          "name": "to_",
          "type": "address"
        },
        {
          "internalType": "uint256",
          "name": "tokenId_",
          "type": "uint256"
        }
      ],
      "name": "approve",
      "outputs": [],
      "stateMutability": "payable",
      "type": "function"
    },
    {
      "inputs": [
        {
          "internalType": "uint256",
          "name": "tokenId_",
          "type": "uint256"
        },
        {
          "internalType": "address",
          "name": "to_",
          "type": "address"
        },
        {
          "internalType": "uint256",
          "name": "value_",
          "type": "uint256"
        }
      ],
      "name": "approve",
      "outputs": [],
      "stateMutability": "payable",
      "type": "function"
    },
    {
      "inputs": [
        {
          "internalType": "address",
          "name": "owner_",
          "type": "address"
        }
      ],
      "name": "balanceOf",
      "outputs": [
        {
          "internalType": "uint256",
          "name": "balance",
          "type": "uint256"
        }
      ],
      "stateMutability": "view",
      "type": "function"
    },
    {
      "inputs": [
        {
          "internalType": "uint256",
          "name": "tokenId_",
          "type": "uint256"
        }
      ],
      "name": "balanceOf",
      "outputs": [
        {
          "internalType": "uint256",
          "name": "",
          "type": "uint256"
        }
      ],
      "stateMutability": "view",
      "type": "function"
    },
    {
      "inputs": [],
      "name": "contractAdmin",
      "outputs": [
        {
          "internalType": "address",
          "name": "",
          "type": "address"
        }
      ],
      "stateMutability": "view",
      "type": "function"
    },
    {
      "inputs": [],
      "name": "contractURI",
      "outputs": [
        {
          "internalType": "string",
          "name": "",
          "type": "string"
        }
      ],
      "stateMutability": "view",
      "type": "function"
    },
    {
      "inputs": [],
      "name": "creditType",
      "outputs": [
        {
          "internalType": "string",
          "name": "",
          "type": "string"
        }
      ],
      "stateMutability": "view",
      "type": "function"
    },
    {
      "inputs": [],
      "name": "defaultSlot",
      "outputs": [
        {
          "internalType": "uint256",
          "name": "",
          "type": "uint256"
        }
      ],
      "stateMutability": "view",
      "type": "function"
    },
    {
      "inputs": [
        {
          "internalType": "uint256",
          "name": "tokenId_",
          "type": "uint256"
        }
      ],
      "name": "getApproved",
      "outputs": [
        {
          "internalType": "address",
          "name": "",
          "type": "address"
        }
      ],
      "stateMutability": "view",
      "type": "function"
    },
    {
      "inputs": [
        {
          "internalType": "bytes32",
          "name": "role",
          "type": "bytes32"
        }
      ],
      "name": "getRoleAdmin",
      "outputs": [
        {
          "internalType": "bytes32",
          "name": "",
          "type": "bytes32"
        }
      ],
      "stateMutability": "view",
      "type": "function"
    },
    {
      "inputs": [
        {
          "internalType": "uint256",
          "name": "tokenId",
          "type": "uint256"
        }
      ],
      "name": "getTokenDescription",
      "outputs": [
        {
          "internalType": "string",
          "name": "",
          "type": "string"
        }
      ],
      "stateMutability": "view",
      "type": "function"
    },
    {
      "inputs": [
        {
          "internalType": "uint256",
          "name": "tokenId",
          "type": "uint256"
        }
      ],
      "name": "getTokenImage",
      "outputs": [
        {
          "internalType": "string",
          "name": "",
          "type": "string"
        }
      ],
      "stateMutability": "view",
      "type": "function"
    },
    {
      "inputs": [
        {
          "internalType": "uint256",
          "name": "tokenId",
          "type": "uint256"
        }
      ],
      "name": "getTokenUUID",
      "outputs": [
        {
          "internalType": "string",
          "name": "",
          "type": "string"
        }
      ],
      "stateMutability": "view",
      "type": "function"
    },
    {
      "inputs": [
        {
          "internalType": "bytes32",
          "name": "role",
          "type": "bytes32"
        },
        {
          "internalType": "address",
          "name": "account",
          "type": "address"
        }
      ],
      "name": "grantRole",
      "outputs": [],
      "stateMutability": "nonpayable",
      "type": "function"
    },
    {
      "inputs": [
        {
          "internalType": "bytes32",
          "name": "role",
          "type": "bytes32"
        },
        {
          "internalType": "address",
          "name": "account",
          "type": "address"
        }
      ],
      "name": "hasRole",
      "outputs": [
        {
          "internalType": "bool",
          "name": "",
          "type": "bool"
        }
      ],
      "stateMutability": "view",
      "type": "function"
    },
    {
      "inputs": [
        {
          "internalType": "address",
          "name": "owner_",
          "type": "address"
        },
        {
          "internalType": "address",
          "name": "operator_",
          "type": "address"
        }
      ],
      "name": "isApprovedForAll",
      "outputs": [
        {
          "internalType": "bool",
          "name": "",
          "type": "bool"
        }
      ],
      "stateMutability": "view",
      "type": "function"
    },
    {
      "inputs": [
        {
          "internalType": "uint256",
          "name": "tokenId_",
          "type": "uint256"
        }
      ],
      "name": "isValid",
      "outputs": [
        {
          "internalType": "bool",
          "name": "",
          "type": "bool"
        }
      ],
      "stateMutability": "view",
      "type": "function"
    },
    {
      "inputs": [],
      "name": "metadataDescriptor",
      "outputs": [
        {
          "internalType": "contract IERC3525MetadataDescriptor",
          "name": "",
          "type": "address"
        }
      ],
      "stateMutability": "view",
      "type": "function"
    },
    {
      "inputs": [
        {
          "internalType": "address",
          "name": "owner_",
          "type": "address"
        },
        {
          "internalType": "uint256",
          "name": "slot_",
          "type": "uint256"
        },
        {
          "internalType": "uint256",
          "name": "value_",
          "type": "uint256"
        },
        {
          "internalType": "string",
          "name": "uuid_",
          "type": "string"
        },
        {
          "internalType": "string",
          "name": "tokenDescription_",
          "type": "string"
        },
        {
          "internalType": "string",
          "name": "tokenImage_",
          "type": "string"
        },
        {
          "internalType": "string",
          "name": "property_",
          "type": "string"
        }
      ],
      "name": "mint",
      "outputs": [
        {
          "internalType": "uint256",
          "name": "",
          "type": "uint256"
        }
      ],
      "stateMutability": "nonpayable",
      "type": "function"
    },
    {
      "inputs": [
        {
          "internalType": "address",
          "name": "owner_",
          "type": "address"
        },
        {
          "internalType": "uint256",
          "name": "slotId_",
          "type": "uint256"
        },
        {
          "internalType": "uint256",
          "name": "timeValue_",
          "type": "uint256"
        },
        {
          "internalType": "uint256",
          "name": "paidValue_",
          "type": "uint256"
        },
        {
          "internalType": "uint256",
          "name": "validStart_",
          "type": "uint256"
        },
        {
          "internalType": "uint256",
          "name": "validExpiration_",
          "type": "uint256"
        },
        {
          "internalType": "string",
          "name": "uuid_",
          "type": "string"
        },
        {
          "internalType": "string",
          "name": "tokenDescription_",
          "type": "string"
        },
        {
          "internalType": "string",
          "name": "tokenImage_",
          "type": "string"
        },
        {
          "internalType": "string",
          "name": "property_",
          "type": "string"
        },
        {
          "internalType": "bool",
          "name": "transfersAllowed_",
          "type": "bool"
        },
        {
          "internalType": "uint256",
          "name": "minAllowedValueTransfer_",
          "type": "uint256"
        }
      ],
      "name": "mintTime",
      "outputs": [
        {
          "internalType": "uint256",
          "name": "",
          "type": "uint256"
        }
      ],
      "stateMutability": "nonpayable",
      "type": "function"
    },
    {
      "inputs": [],
      "name": "name",
      "outputs": [
        {
          "internalType": "string",
          "name": "",
          "type": "string"
        }
      ],
      "stateMutability": "view",
      "type": "function"
    },
    {
      "inputs": [
        {
          "internalType": "address",
          "name": "owner_",
          "type": "address"
        },
        {
          "internalType": "uint256",
          "name": "slot_",
          "type": "uint256"
        },
        {
          "internalType": "uint256",
          "name": "value_",
          "type": "uint256"
        },
        {
          "internalType": "uint256",
          "name": "discountBasisPts_",
          "type": "uint256"
        },
        {
          "internalType": "string",
          "name": "uuid_",
          "type": "string"
        },
        {
          "internalType": "string",
          "name": "tokenDescription_",
          "type": "string"
        },
        {
          "internalType": "string",
          "name": "tokenImage_",
          "type": "string"
        },
        {
          "internalType": "string",
          "name": "property_",
          "type": "string"
        }
      ],
      "name": "networkMintWithDiscount",
      "outputs": [
        {
          "internalType": "uint256",
          "name": "",
          "type": "uint256"
        }
      ],
      "stateMutability": "nonpayable",
      "type": "function"
    },
    {
      "inputs": [
        {
          "internalType": "address",
          "name": "owner_",
          "type": "address"
        },
        {
          "internalType": "uint256",
          "name": "slot_",
          "type": "uint256"
        },
        {
          "internalType": "uint256",
          "name": "value_",
          "type": "uint256"
        },
        {
          "internalType": "uint256",
          "name": "tVRate_",
          "type": "uint256"
        },
        {
          "internalType": "string",
          "name": "uuid_",
          "type": "string"
        },
        {
          "internalType": "string",
          "name": "tokenDescription_",
          "type": "string"
        },
        {
          "internalType": "string",
          "name": "tokenImage_",
          "type": "string"
        },
        {
          "internalType": "string",
          "name": "property_",
          "type": "string"
        }
      ],
      "name": "networkMintWithTVRate",
      "outputs": [
        {
          "internalType": "uint256",
          "name": "",
          "type": "uint256"
        }
      ],
      "stateMutability": "nonpayable",
      "type": "function"
    },
    {
      "inputs": [
        {
          "internalType": "uint256",
          "name": "tokenId_",
          "type": "uint256"
        }
      ],
      "name": "ownerOf",
      "outputs": [
        {
          "internalType": "address",
          "name": "owner_",
          "type": "address"
        }
      ],
      "stateMutability": "view",
      "type": "function"
    },
    {
      "inputs": [
        {
          "internalType": "uint256",
          "name": "tokenId_",
          "type": "uint256"
        },
        {
          "internalType": "uint256",
          "name": "slotId_",
          "type": "uint256"
        },
        {
          "internalType": "uint256",
          "name": "valueSeconds_",
          "type": "uint256"
        }
      ],
      "name": "redeem",
      "outputs": [],
      "stateMutability": "nonpayable",
      "type": "function"
    },
    {
      "inputs": [
        {
          "internalType": "uint256",
          "name": "slotId_",
          "type": "uint256"
        }
      ],
      "name": "registerOnSlot",
      "outputs": [],
      "stateMutability": "nonpayable",
      "type": "function"
    },
    {
      "inputs": [
        {
          "internalType": "bytes32",
          "name": "role",
          "type": "bytes32"
        },
        {
          "internalType": "address",
          "name": "account",
          "type": "address"
        }
      ],
      "name": "renounceRole",
      "outputs": [],
      "stateMutability": "nonpayable",
      "type": "function"
    },
    {
      "inputs": [
        {
          "internalType": "bytes32",
          "name": "role",
          "type": "bytes32"
        },
        {
          "internalType": "address",
          "name": "account",
          "type": "address"
        }
      ],
      "name": "revokeRole",
      "outputs": [],
      "stateMutability": "nonpayable",
      "type": "function"
    },
    {
      "inputs": [
        {
          "internalType": "address",
          "name": "from_",
          "type": "address"
        },
        {
          "internalType": "address",
          "name": "to_",
          "type": "address"
        },
        {
          "internalType": "uint256",
          "name": "tokenId_",
          "type": "uint256"
        }
      ],
      "name": "safeTransferFrom",
      "outputs": [],
      "stateMutability": "payable",
      "type": "function"
    },
    {
      "inputs": [
        {
          "internalType": "address",
          "name": "from_",
          "type": "address"
        },
        {
          "internalType": "address",
          "name": "to_",
          "type": "address"
        },
        {
          "internalType": "uint256",
          "name": "tokenId_",
          "type": "uint256"
        },
        {
          "internalType": "bytes",
          "name": "data_",
          "type": "bytes"
        }
      ],
      "name": "safeTransferFrom",
      "outputs": [],
      "stateMutability": "payable",
      "type": "function"
    },
    {
      "inputs": [
        {
          "internalType": "address",
          "name": "operator_",
          "type": "address"
        },
        {
          "internalType": "bool",
          "name": "approved_",
          "type": "bool"
        }
      ],
      "name": "setApprovalForAll",
      "outputs": [],
      "stateMutability": "nonpayable",
      "type": "function"
    },
    {
      "inputs": [
        {
          "internalType": "uint256",
          "name": "tokenId_",
          "type": "uint256"
        }
      ],
      "name": "slotOf",
      "outputs": [
        {
          "internalType": "uint256",
          "name": "",
          "type": "uint256"
        }
      ],
      "stateMutability": "view",
      "type": "function"
    },
    {
      "inputs": [
        {
          "internalType": "uint256",
          "name": "slot_",
          "type": "uint256"
        }
      ],
      "name": "slotURI",
      "outputs": [
        {
          "internalType": "string",
          "name": "",
          "type": "string"
        }
      ],
      "stateMutability": "view",
      "type": "function"
    },
    {
      "inputs": [
        {
          "internalType": "bytes4",
          "name": "interfaceId",
          "type": "bytes4"
        }
      ],
      "name": "supportsInterface",
      "outputs": [
        {
          "internalType": "bool",
          "name": "",
          "type": "bool"
        }
      ],
      "stateMutability": "view",
      "type": "function"
    },
    {
      "inputs": [],
      "name": "symbol",
      "outputs": [
        {
          "internalType": "string",
          "name": "",
          "type": "string"
        }
      ],
      "stateMutability": "view",
      "type": "function"
    },
    {
      "inputs": [
        {
          "internalType": "uint256",
          "name": "index_",
          "type": "uint256"
        }
      ],
      "name": "tokenByIndex",
      "outputs": [
        {
          "internalType": "uint256",
          "name": "",
          "type": "uint256"
        }
      ],
      "stateMutability": "view",
      "type": "function"
    },
    {
      "inputs": [
        {
          "internalType": "address",
          "name": "owner_",
          "type": "address"
        },
        {
          "internalType": "uint256",
          "name": "index_",
          "type": "uint256"
        }
      ],
      "name": "tokenOfOwnerByIndex",
      "outputs": [
        {
          "internalType": "uint256",
          "name": "",
          "type": "uint256"
        }
      ],
      "stateMutability": "view",
      "type": "function"
    },
    {
      "inputs": [
        {
          "internalType": "uint256",
          "name": "tokenId_",
          "type": "uint256"
        }
      ],
      "name": "tokenURI",
      "outputs": [
        {
          "internalType": "string",
          "name": "",
          "type": "string"
        }
      ],
      "stateMutability": "view",
      "type": "function"
    },
    {
      "inputs": [],
      "name": "totalSupply",
      "outputs": [
        {
          "internalType": "uint256",
          "name": "",
          "type": "uint256"
        }
      ],
      "stateMutability": "view",
      "type": "function"
    },
    {
      "inputs": [
        {
          "internalType": "uint256",
          "name": "fromTokenId_",
          "type": "uint256"
        },
        {
          "internalType": "address",
          "name": "to_",
          "type": "address"
        },
        {
          "internalType": "uint256",
          "name": "value_",
          "type": "uint256"
        }
      ],
      "name": "transferFrom",
      "outputs": [
        {
          "internalType": "uint256",
          "name": "",
          "type": "uint256"
        }
      ],
      "stateMutability": "payable",
      "type": "function"
    },
    {
      "inputs": [
        {
          "internalType": "address",
          "name": "from_",
          "type": "address"
        },
        {
          "internalType": "address",
          "name": "to_",
          "type": "address"
        },
        {
          "internalType": "uint256",
          "name": "tokenId_",
          "type": "uint256"
        }
      ],
      "name": "transferFrom",
      "outputs": [],
      "stateMutability": "payable",
      "type": "function"
    },
    {
      "inputs": [
        {
          "internalType": "uint256",
          "name": "fromTokenId_",
          "type": "uint256"
        },
        {
          "internalType": "uint256",
          "name": "toTokenId_",
          "type": "uint256"
        },
        {
          "internalType": "uint256",
          "name": "value_",
          "type": "uint256"
        }
      ],
      "name": "transferFrom",
      "outputs": [],
      "stateMutability": "payable",
      "type": "function"
    },
    {
      "inputs": [],
      "name": "valueDecimals",
      "outputs": [
        {
          "internalType": "uint8",
          "name": "",
          "type": "uint8"
        }
      ],
      "stateMutability": "view",
      "type": "function"
    }
  ],
  "bytecode": "0x60e0806040523462000bd257600060c05262008580803803809162000025828562000c09565b83398101906101c0818303126200096157620000418162000c2d565b608052620000526020820162000c2d565b90620000616040820162000c2d565b91620000706060830162000c2d565b60a052620000816080830162000c2d565b60a083015160c0840151909291906001600160401b038111620009615786620000ac91860162000c67565b60e08501519095906001600160401b038111620009615787620000d191870162000c67565b6101008601519096906001600160401b038111620009615788620000f791880162000c67565b6101208701519091906001600160401b0381116200096157896200011d91890162000c67565b6101408801519091906001600160401b03811162000961578a62000143918a0162000c67565b6101608901519091906001600160401b03811162000961578b62000169918b0162000c67565b6101808a0151909b906001600160401b03811162000961576101a09162000192918c0162000c67565b9901519960ff8b168b03620009615762000201602e8d956040519681620001c489935180926020808701910162000c42565b82016c5102a34b6b2903ab734ba399d160951b6020820152620001f1825180936020878501910162000c42565b0103600e81018752018562000c09565b60405191620002108362000bd7565b600483526374696d6560e01b602084015280516001600160401b038111620007fb5760c051805490600182811c9216801562000bc7575b6020831014620007d95750601f811162000b7b575b5060c05191602092601f831160011462000b0b575060c0519283918362000aff575b50508160011b916000199060031b1c19161790555b8051906001600160401b038211620007fb5760015460c051600182811c9216801562000af4575b6020831014620007d957509081601f84931162000a9a575b5060c05190602091601f841160011462000a27575060c0519262000a1b575b50508160011b916000199060031b1c1916176001555b6002805460ff19166006179055600b889055600c54600a80546001600160a01b0319166001600160a01b038a161790556040518251919291602080830192916200036b919083906200035d8187858a0162000c42565b810103808452018262000c09565b51902060405160208101906374696d6560e01b8252600481526200038f8162000bd7565b5190200362000967575060c0515b600481101562000949576001600160a81b031982166001600160a01b03871690811760a083901b60ff60a01b1617600c553b1562000961576040516394b39b0960e01b81526001600160a01b03898116600480840191909152602483018c90529193916001600160a81b031983169189169190911760a084811b60ff60a01b1691909117901c60ff16101562000949576001600160a81b0319166001600160a01b03871690811760a092831b60ff60a01b161790911c60ff16604483015260c051908290606490829084905af180156200093c5762000923575b50604051926001600160401b036120b7850190811190851117620007fb57620004ec92620004be620004d5926120b7620064a9883960806120b78801818152019062000cc2565b906120b78601820360206120b78801015262000cc2565b906120b78401820360406120b78601015262000cc2565b6001600160a01b039092166120b782016060015260c051918190039082f090811562000917575060018060a01b031660018060a01b031960085416176008557f1cd6d520d98babae1045eb69c31ecab800996aa332094cb55c0ac10362e9b0c9908160c05152600960205260c051604081209160018060a01b0316918260005260205260ff6040600020541615620008d3575b5050507f9a95e87c5af084bf5db8491c3a6515da9dd6da39b24b0eb0af08d7b9cd808d918060c05152600960205260c0516040812060018060a01b03841660005260205260ff60406000205416156200087e575b5050507f9ac4f8025631594629895b778dc5ee88d01673a254a2291f6b6b174ad25230ca602060018060a01b0360085416604051908152a1600b556020815191012060046020604051620006278162000bd7565b82815201635553444360e01b81522014600014620008135760a051601380546001600160a01b039283166001600160a01b0319918216179091556080516012805491909316911617905581516001600160401b038111620007fb5760145460c051600182811c92168015620007f0575b6020831014620007d95750601f811162000788575b5060c05192602090601f83116001146200071d578293945060c0519262000711575b50508160011b916000199060031b1c1916176014555b6013805460ff60a01b191660a09290921b60ff60a01b169190911790556040516157bf908162000cea8239f35b015190503880620006ce565b906014601f198416955260c0519160208320925b8681106200076f575083600195961062000755575b505050811b01601455620006e4565b015160001960f88460031b161c1916905538808062000746565b9192602060018192868501518155019401920162000731565b601460c0515260c05160208120601f840160051c81019260208510620007ce575b601f0160051c01915b828110620007c2575050620006ac565b818155600101620007b2565b9092508290620007a9565b634e487b7160e01b9052602260045260c051602490fd5b91607f169162000697565b634e487b7160e01b60c051526041600452602460c051fd5b60405162461bcd60e51b815260206004820152603760248201527f5370656e644372656469743a204f6e6c79205553444320756e6465726c79696e60448201527f6720616363657074656420617420746869732074696d650000000000000000006064820152608490fd5b819052600960205260c051906040822060018060a01b0384166000526020526040600020600160ff1982541617905560008051602062008560833981519152339360018060a01b03169280a4388080620005d3565b829052600960205260c0519160408320826000526020526040600020600160ff1982541617905560008051602062008560833981519152339380a43880806200057f565b604051903d90823e3d90fd5b6001600160401b038111620007fb576040523862000477565b6040513d60c051823e3d90fd5b634e487b7160e01b60c051526021600452602460c051fd5b60c05180fd5b60405160208101906200098760208285516200035d8187858a0162000c42565b5190206040516020810190630c6c2e6d60e31b825260048152620009ab8162000bd7565b51902003620009bd575060016200039d565b604051620009dd602082816200035d818301968781519384920162000c42565b5190206040516020810190646974656d7360d81b82526005815262000a028162000bd7565b5190200362000a135760026200039d565b60036200039d565b015190503880620002f1565b60019194505260c051906020822091935b601f198416851062000a7e576001945083601f1981161062000a64575b505050811b0160015562000307565b015160001960f88460031b161c1916905538808062000a55565b8181015183556020948501946001909301929091019062000a38565b909150600160c0515260c05160208120601f850160051c81016020861062000aec575b9085949392915b601f840160051c8201811062000add57505050620002d2565b82815586955060010162000ac4565b508062000abd565b91607f1691620002ba565b0151905038806200027e565b805260c0516020812090938493925b601f198416851062000b5f576001945083601f1981161062000b45575b505050811b01905562000293565b015160001960f88460031b161c1916905538808062000b37565b8181015183556020948501946001909301929091019062000b1a565b60c051805260c05160208120601f840160051c81016020851062000bbf575b601f840160051c8201811062000bb3575050506200025c565b82815560010162000b9a565b508062000b9a565b91607f169162000247565b600080fd5b604081019081106001600160401b0382111762000bf357604052565b634e487b7160e01b600052604160045260246000fd5b601f909101601f19168101906001600160401b0382119082101762000bf357604052565b51906001600160a01b038216820362000bd257565b60005b83811062000c565750506000910152565b818101518382015260200162000c45565b81601f8201121562000bd25780516001600160401b03811162000bf3576040519262000c9e601f8301601f19166020018562000c09565b8184526020828401011162000bd25762000cbf916020808501910162000c42565b90565b9060209162000cdd8151809281855285808601910162000c42565b601f01601f191601019056fe608080604052600436101561001357600080fd5b600090813560e01c90816301ffc9a71461288d5750806306fdde03146127be578063081812fc1461279f578063095ea7b31461266957806309c3dd87146123975780630f485c02146122d05780631375d8431461226a5780631429fb57146121cf57806318160ddd146121b157806323b872dd146120ed578063248a9ca3146120c0578063263f3e7e146120a15780632f2ff15d14611ff25780632f745c5914611f49578063310ed7f01461197b57806331b5b907146118e957806336568abe146118565780633e7e86691461183557806341815ee41461173b57806342842e0e146117185780634f6ccce714611693578063505a3853146116755780636352211e1461164457806370a082311461162057806371f0442e146115ba5780637795524514611591578063791581c614611492578063840f71131461146957806389e29204146114465780638cb0a5111461130457806391d14854146112b857806395d89b41146111d95780639cc7f708146111ba578063a217fddf1461119e578063a22cb465146110c0578063a7c9f2d614611085578063aa20ce5514610de5578063b3154c0814610d7f578063b819220514610a4e578063b88d4fde146109ef578063be950a62146108a5578063c87b56dd14610810578063d09445c2146107d5578063d547741f14610794578063e345e0bc14610765578063e8a3d485146106d5578063e985e9c51461067e578063f577a500146106345763f5a3fb741461023c57600080fd5b34610631576101803660031901126106315761025661292a565b906064359060843560a4356001600160401b0360243560443560c43583811161062d57610287903690600401612a57565b9760e435848111610629576102a0903690600401612a57565b61010435858111610625576102b9903690600401612a57565b61012435868111610621576102d2903690600401612a57565b91610144359b8c15158d0361061c576102ea86614690565b9b898b116105b15789421161055b578a421180159081610546575b8115610516575b50156104b7576013546001600160a01b0316803b156104b357604051630ab714fb60e11b8152306004820152602481018a905260448101839052908d908290606490829084905af180156104a8578e92918e9161048b575b5050906103b2816103ad7f587b01aaccba851d54042ea2fefb109eae607c6c847e4310ae6da1baf06aa8bd9a9998979695946103a760ff60135460a01c166145b5565b90612f03565b6130fe565b9889600b54821460001461047a57506103ca96613983565b975b604080518a81526020810192909252810191909152606090a185855261040760209760108952604087209060ff801983541691151516179055565b61041361016435614690565b868652601188526040862055600f87526040852055604051936040850191858310908311176104645760019360409283528552868501928352858152600e8752209251835551910155604051908152f35b634e487b7160e01b600052604160045260246000fd5b919061048597613e9c565b976103cc565b61049791929350612980565b6104a4578c908c38610364565b8b80fd5b6040513d8f823e3d90fd5b8c80fd5b60405162461bcd60e51b815260206004820152603160248201527f54696d654372656469743a2074696d652076616c75652063616e6e6f7420657860448201527018d95959081d985b1a59081c195c9a5bd9607a1b6064820152608490fd5b90508061053d575b8061052a575b3861030c565b50610535428b6137b6565b8d1115610524565b5089421061051e565b90508d6105538d8d6137b6565b101590610305565b60405162461bcd60e51b815260206004820152602860248201527f54696d654372656469743a2063616e6e6f74206d696e7420616e20657870697260448201526732b2103a37b5b2b760c11b6064820152608490fd5b60405162461bcd60e51b815260206004820152603e60248201527f54696d654372656469743a2076616c69642073746172742074696d65206d757360448201527f74206265206c657373207468616e2065787069726174696f6e2074696d6500006064820152608490fd5b600080fd5b8980fd5b8880fd5b8780fd5b8680fd5b80fd5b5034610631576020366003190112610631576020906004358152600e82526040812054421015908161066c575b506040519015158152f35b60019150604090200154421038610661565b50346106315760403660031901126106315761069861292a565b600260406106a4612940565b9360018060a01b038094168152600760205220019116600052602052602060ff604060002054166040519015158152f35b5034610631578060031936011261063157600854604051631c97e82760e21b8152908290829060049082906001600160a01b03165afa90811561075a57826107339392610737575b5050604051918291602083526020830190612905565b0390f35b61075392503d8091833e61074b81836129e4565b8101906130a0565b388061071d565b6040513d84823e3d90fd5b503461063157604036600319011261063157602061078c610784612940565b6004356144cc565b604051908152f35b5034610631576040366003190112610631576107d26004356107b4612940565b9080845260096020526107cd6001604086200154612b58565b612e8d565b80f35b503461063157806003193601126106315760206040517f9a95e87c5af084bf5db8491c3a6515da9dd6da39b24b0eb0af08d7b9cd808d918152f35b50346106315760203660031901126106315760043561082e81614137565b8015610891575b61083e906132d5565b6008546040516344a5a61760e11b815260048101929092528290829060249082906001600160a01b03165afa90811561075a57826107339392610737575050604051918291602083526020830190612905565b5061083e61089e8261417d565b9050610835565b5034610631576020366003190112610631577f9a95e87c5af084bf5db8491c3a6515da9dd6da39b24b0eb0af08d7b9cd808d9181526009602052604081203360005260205260ff604060002054161561098457600c54600a546001600160a01b03808316939291169060a01c60ff16833b1561098057604051916394b39b0960e01b835260048301526004356024830152600481101561096c5781606481858097819560448401525af1801561075a5761095c5750f35b61096590612980565b6106315780f35b634e487b7160e01b83526021600452602483fd5b8280fd5b60405162461bcd60e51b815260206004820152603760248201527f53656e646572206e6f7420617574686f72697a656420746f207265676973746560448201527f7220636f6e747261637420746f207468697320736c6f740000000000000000006064820152608490fd5b50608036600319011261063157610a0461292a565b610a0c612940565b606435916001600160401b038311610a4a5736602384011215610a4a57610a406107d2933690602481600401359101612a20565b91604435916131fe565b8380fd5b503461063157610a5d36612aaa565b9190610a6882613321565b6001600160a01b039190821633148015610d3d575b15610cec57849182610a8e85614137565b80610cd9575b15610bdf5750838352600f602052610aca610ab3866040862054612f03565b610ac460ff60135460a01c166145b5565b906130fe565b60135460125483169216803b15610bdb57604051632b83cccd60e01b81526001600160a01b03939093166004840152602483019390935260448201529082908290606490829084905af1801561075a57610bc7575b5050610b2a816141ff565b80835260066020526002610b41604085205461303e565b50018054838110610b76578360008051602061576a83398151915292610b6a87966020946137b6565b9055604051908152a380f35b60405162461bcd60e51b815260206004820152602360248201527f455243333532353a206275726e2076616c756520657863656564732062616c616044820152626e636560e81b6064820152608490fd5b610bd090612980565b610980578238610b1f565b8480fd5b610bf685600052600d602052604060002054151590565b610c00575b610aca565b50838352600d602090815260408420548015610c99578183600c54169160246040518094819363cd5a2c3960e01b835260048301525afa908115610c8e5787928692610c56575b5050610bfb91610ab391612f03565b925094505083813d8311610c87575b610c6f81836129e4565b8101031261061c579151859290859081610ab3610c47565b503d610c65565b6040513d87823e3d90fd5b5060248183600c54166040519283809263cd5a2c3960e01b82528a60048301525afa908115610c8e5787928692610c56575050610bfb91610ab391612f03565b50610ce385613079565b600b5414610a94565b60405162461bcd60e51b815260206004820152602360248201527f53656e646572206973206e6f7420617574686f72697a656420746f207265646560448201526232b69760e91b6064820152608490fd5b507f1cd6d520d98babae1045eb69c31ecab800996aa332094cb55c0ac10362e9b0c985526009602052604085203360005260205260ff60406000205416610a7d565b503461063157602036600319011261063157600854604051631662a98160e31b81526004803590820152908290829060249082906001600160a01b03165afa90811561075a57826107339392610737575050604051918291602083526020830190612905565b503461063157602081610df736612ac4565b6003805460010190819055600c54604051630151086360e31b81526001600160a01b039a8b166004820152602481019990995260448901979097526064880195909552939893969095919492939192839160849183918b91165af190811561107a578691611045575b50868652600d60205260408620556008546001600160a01b0316803b1561104157610eb38692918392604051948580948193632108947560e21b83528d6004840152604060248401526044830190612905565b03925af1908115610c8e57859161102d575b50506008546001600160a01b0316803b15610bdb57610f0c859291839260405194858094819363246a908b60e01b83528c6004840152604060248401526044830190612905565b03925af190811561102257849161100e575b50506008546001600160a01b0316803b15610a4a57610f658492918392604051948580948193630190503b60e61b83528b6004840152604060248401526044830190612905565b03925af1908115610fef578391610ffa575b50506008546001600160a01b031690813b15610980578291610fbd91604051948580948193637e468a5160e01b8352896004840152604060248401526044830190612905565b03925af18015610fef57610fd7575b602082604051908152f35b610fe18391612980565b610feb5781610fcc565b5080fd5b6040513d85823e3d90fd5b61100390612980565b610feb578138610f77565b61101790612980565b610980578238610f1e565b6040513d86823e3d90fd5b61103690612980565b610a4a578338610ec5565b8580fd5b9550506020853d602011611072575b81611061602093836129e4565b8101031261061c5786945138610e60565b3d9150611054565b6040513d88823e3d90fd5b503461063157806003193601126106315760206040517f1cd6d520d98babae1045eb69c31ecab800996aa332094cb55c0ac10362e9b0c98152f35b5034610631576040366003190112610631576110da61292a565b602435908115159081830361061c576001600160a01b0316913383146111595761112a903385526007602052600260408620018460005260205260406000209060ff801983541691151516179055565b6040519081527f17307eab39ab6107e8899845ad3d59bd9653f200f220920489ca2b5937696c3160203392a380f35b60405162461bcd60e51b815260206004820152601a60248201527f455243333532353a20617070726f766520746f2063616c6c65720000000000006044820152606490fd5b5034610631578060031936011261063157602090604051908152f35b503461063157602036600319011261063157602061078c60043561552e565b5034610631578060031936011261063157604051600060018054906111fd82612f60565b808552918181169081156112915750600114611238575b61073384611224818603826129e4565b604051918291602083526020830190612905565b600081815292507fb10e2d527612073b26eecdfd717e6a320cf44b4afac2b0732d9fcbe2b7fa0cf65b82841061127957505050810160200161122482611214565b80546020858701810191909152909301928101611261565b60ff191660208087019190915292151560051b850190920192506112249150839050611214565b50346106315760403660031901126106315760406112d4612940565b9160043581526009602052209060018060a01b0316600052602052602060ff604060002054166040519015158152f35b5061130e36612956565b90611318836141ff565b8361132284614137565b80611433575b156113c5575061134e6001600160a01b038061134386613321565b16908316141561327e565b61135883336133a4565b15611366576107d2926142fa565b60405162461bcd60e51b815260206004820152603160248201527f455243333532353a20617070726f76652063616c6c6572206973206e6f74206f6044820152701ddb995c881b9bdc88185c1c1c9bdd9959607a1b6064820152608490fd5b600c54938152600d60205260408120549093919290916001600160a01b0316803b15610bdb57604051638cb0a51160e01b815260048101939093526001600160a01b0393909316602483015260448201529082908290606490829084905af1801561075a5761095c57505080f35b5061143d84613079565b600b5414611328565b503461063157602061078c61145a36612ac4565b96959095949194939293613e9c565b50346106315780600319360112610631576008546040516001600160a01b039091168152602090f35b503461063157604036600319011261063157600435602435818352600e602052600160408420015442101561153457816114e0826114db6114d56107d29661552e565b42612f2c565b612f2c565b818552600e60205260016040862001541061150f575b6114ff81613321565b5061150981613079565b50613e59565b61151f826114db6114d58461552e565b818552600e60205260016040862001556114f6565b60405162461bcd60e51b815260206004820152602f60248201527f54696d654372656469743a2063616e6e6f74206164642074696d6520746f206160448201526e371032bc3834b932b2103a37b5b2b760891b6064820152608490fd5b5034610631578060031936011261063157600a546040516001600160a01b039091168152602090f35b5034610631576020366003190112610631576008546040516338f8221760e11b81526004803590820152908290829060249082906001600160a01b03165afa90811561075a57826107339392610737575050604051918291602083526020830190612905565b503461063157602036600319011261063157602061078c61163f61292a565b61311e565b5034610631576020366003190112610631576020611663600435614261565b6040516001600160a01b039091168152f35b50346106315780600319360112610631576020600b54604051908152f35b5034610631576020366003190112610631576004356005548110156116c7576116bd60209161303e565b5054604051908152f35b60405162461bcd60e51b815260206004820152602360248201527f455243333532353a20676c6f62616c20696e646578206f7574206f6620626f756044820152626e647360e81b6064820152608490fd5b506107d261172536612a75565b9060405192611733846129c9565b8584526131fe565b503461063157806003193601126106315760ff600c5460a01c16600481101561182157600381036117a0575050610733604051611777816129ae565b60088152677072696f7269747960c01b6020820152604051918291602083526020830190612905565b806117cc5750506107336040516117b6816129ae565b600481526374696d6560e01b6020820152611224565b6002141590506117fc576107336040516117e5816129ae565b60058152646974656d7360d81b6020820152611224565b61073360405161180b816129ae565b60048152630c6c2e6d60e31b6020820152611224565b634e487b7160e01b82526021600452602482fd5b5034610631578060031936011261063157602060ff60025416604051908152f35b503461063157604036600319011261063157611870612940565b336001600160a01b0382160361188c576107d290600435612e8d565b60405162461bcd60e51b815260206004820152602f60248201527f416363657373436f6e74726f6c3a2063616e206f6e6c792072656e6f756e636560448201526e103937b632b9903337b91039b2b63360891b6064820152608490fd5b503461063157602036600319011261063157806004356001600160401b0381116119785761191b903690600401612a57565b6008546001600160a01b031690813b15611974578291611959916040519485809481936355f804b360e01b8352602060048401526024830190612905565b03925af1801561075a5761196b575080f35b6107d290612980565b5050fd5b50fd5b6119918261198836612aaa565b93909193614690565b90838352602093601085526119ac60ff6040862054166149d7565b808452601185526119c36040852054841015614a31565b808452600e85526001604085200154421015611ee557818452600e85526001604085200154421015611e81576119fb6114d5836136ff565b828552600e8652600160408620015410611dfe57611a1881614137565b80611deb575b80611dc8575b15611b6357808452600f85526040842054828552604085205403611a4e575b6107d293945061536f565b611a6581600052600d602052604060002054151590565b80611b46575b15611ad0576107d29394600f611abe611a83856136ff565b848952828452610ac4611ab78a611ab1846040611aa38d82862054612f03565b938c8152898b522054612f03565b90612f2c565b9188612f2c565b91848852526040862055849350611a43565b60405162461bcd60e51b815260048101869052604260248201527f54696d654372656469743a2063616c6320636f6e74726163742074696d652d7660448201527f616c7565207261746520726571756972657320636f6e747261637420746f6b656064820152616e7360f01b608482015260a490fd5b50611b5e82600052600d602052604060002054151590565b611a6b565b91611b7083959495614137565b80611db5575b1580611d8c575b15611d2d57611b8d81838561536f565b600c54604051639448bddb60e01b815260048101939093526001600160a01b03908116929091908581602481875afa948515611d225786918896611cf3575b50808852600d82526040882054908115611cbc575060246040518096819363cd5a2c3960e01b835260048301525afa801561107a5785938791611c8a575b50604491611c1791612f03565b938683611c3060135497610ac460ff8a60a01c166145b5565b96604051978896879563a9059cbb60e01b87521660048601526024850152165af18015610fef57611c6057505080f35b81611c7f92903d10611c83575b611c7781836129e4565b810190614165565b5080f35b503d611c6d565b84819592503d8311611cb5575b611ca181836129e4565b810103126110415791518492906044611c0a565b503d611c97565b905060246040518096819363cd5a2c3960e01b835260048301525afa801561107a5785938791611c8a5750604491611c1791612f03565b611d14919650823d8411611d1b575b611d0c81836129e4565b810190614242565b9488611bcc565b503d611d02565b6040513d89823e3d90fd5b60405162461bcd60e51b815260048101859052603160248201527f54696d654372656469743a207472616e7366657220746f20746f6b656e2077696044820152701d1a08191a5999995c995b9d081cdb1bdd607a1b6064820152608490fd5b50611d9682614137565b80611da2575b15611b7d565b50611dac82613079565b600b5414611d9c565b50611dbf83613079565b600b5414611b76565b50611dd282614137565b8015611a245750611de282613079565b600b5414611a24565b50611df581613079565b600b5414611a1e565b60405162461bcd60e51b815260048101869052604f60248201527f54696d654372656469743a2074696d652076616c7565206f6620746f6b656e2060448201527f726563656976696e67207472616e7366657220657863656564732074696d652060648201526e3a34b6361032bc3834b930ba34b7b760891b608482015260a490fd5b60405162461bcd60e51b815260048101869052603660248201527f54696d654372656469743a2063616e6e6f74207472616e736665722074696d656044820152751034b73a379030b71032bc3834b932b2103a37b5b2b760511b6064820152608490fd5b60405162461bcd60e51b815260048101869052603660248201527f54696d654372656469743a2063616e6e6f74207472616e736665722074696d6560448201527510333937b69030b71032bc3834b932b2103a37b5b2b760511b6064820152608490fd5b503461063157604036600319011261063157611f6361292a565b90602435611f708361311e565b811015611fa2576040611f949260209460018060a01b03168152600785522061338c565b90546040519160031b1c8152f35b60405162461bcd60e51b815260206004820152602260248201527f455243333532353a206f776e657220696e646578206f7574206f6620626f756e604482015261647360f01b6064820152608490fd5b50346106315760403660031901126106315760043561200f612940565b81835260096020526120276001604085200154612b58565b8183526009602052604083209060018060a01b03169081845260205260ff60408420541615612054578280f35b81835260096020526040832081845260205260408320600160ff1982541617905533917f2f8788117e7eff1d82e926ec794901d17c78024a50270940304540a733656f0d8480a438808280f35b503461063157602036600319011261063157602061078c600435613079565b50346106315760203660031901126106315760016040602092600435815260098452200154604051908152f35b506120f736612a75565b90818452601060205261211060ff6040862054166149d7565b6121198261552e565b8285526011602052604085205411612146576107d29261214161213c84336133a4565b613197565b613415565b60405162461bcd60e51b815260206004820152603f60248201527f54696d654372656469743a20746f6b656e2076616c7565206973206c6573732060448201527f7468616e206d696e696d756d207472616e7366657261626c652076616c7565006064820152608490fd5b50346106315780600319360112610631576020600554604051908152f35b50346106315760e0366003190112610631576121e961292a565b906001600160401b036064358181116109805761220a903690600401612a57565b608435828111610a4a57612222903690600401612a57565b9160a435818111610bdb5761223b903690600401612a57565b9360c43591821161063157602061078c8787878761225c3660048a01612a57565b936044359060243590613983565b503461063157602036600319011261063157600854604051631375d84360e01b81526004803590820152908290829060249082906001600160a01b03165afa90811561075a57826107339392610737575050604051918291602083526020830190612905565b60406122eb8360016122e136612956565b9591949095614690565b92848152601060205261230360ff83832054166149d7565b848152601160205261231a82822054851015614a31565b848152600e6020522001544210156123385760209261078c92614ab7565b60405162461bcd60e51b815260206004820152603160248201527f54696d654372656469743a2063616e6e6f74207472616e736665722066726f6d6044820152701030b71032bc3834b932b2103a37b5b2b760791b6064820152608490fd5b503461063157602090816003193601126106315760043560018060a01b036008541690604051636c0360eb60e01b81528381600481865afa90811561102257849161264f575b50821561244e57508290602460405180948193633601bfc560e11b835260048301525afa918215612442578092612427575b5050905b610733604051928284938452830190612905565b61243b92503d8091833e61074b81836129e4565b388061240f565b604051903d90823e3d90fd5b80519093925015612616578190807a184f03e93ff9f4daa797ed6e38ed64bf6a1f0100000000000000008181811015612608575b5050856d04ee2d6d415b85acef8100000000808410156125fa575b5050662386f26fc10000808310156125eb575b506305f5e100808310156125dc575b50612710808310156125cd575b5060648210156125bd575b600a809210156125b3575b6001908160218186019561250e6124f888612a05565b97612506604051998a6129e4565b808952612a05565b878b019890601f1901368a3750860101905b61257d575b505050506125689261257792602592604051958361254c88955180928b80890191016128e2565b84019164736c6f742f60d81b89840152518093868401906128e2565b010360058101845201826129e4565b90612413565b600019019083906f181899199a1a9b1b9c1cb0b131b232b360811b8282061a8353049182156125ae57919082612520565b612525565b91600101916124e2565b91906064600291049101916124d7565b600491939204910191386124cc565b600891939204910191386124bf565b601091939204910191386124b0565b93019290910490853861249d565b604094500491503880612482565b5060405191508282016001600160401b0381118382101761263b576040528152612577565b634e487b7160e01b82526041600452602482fd5b61266391503d8086833e61074b81836129e4565b386123dd565b5060403660031901126106315761267e61292a565b602435906001600160a01b03808061269585613321565b169216916126a58184141561327e565b80331490811561277b575b501561271057828452600660205260046126cd604086205461303e565b500180546001600160a01b031916831790556126e883613321565b167f8c5be1e5ebec7d5bd14f71427d1e84f3dd0314c0f7b2291e5b200ac8c7c3b9258480a480f35b60405162461bcd60e51b815260206004820152603960248201527f455243333532353a20617070726f76652063616c6c6572206973206e6f74206f60448201527f776e6572206e6f7220617070726f76656420666f7220616c6c000000000000006064820152608490fd5b9050845260076020526002604085200133855260205260ff604085205416386126b0565b503461063157602036600319011261063157602061166360043561335c565b5034610631578060031936011261063157604051908080546127df81612f60565b808552916001918083169081156128635750600114612809575b61073385611224818703826129e4565b80809450527f290decd9548b62a8d60345a988386fc84ba6bc95484008f6362f93160ef3e5635b82841061284b575050508101602001611224826107336127f9565b80546020858701810191909152909301928101612830565b8695506107339693506020925061122494915060ff191682840152151560051b82010192936127f9565b905034610feb576020366003190112610feb5760043563ffffffff60e01b81168091036109805760209250637965db0b60e01b81149081156128d1575b5015158152f35b6301ffc9a760e01b149050386128ca565b60005b8381106128f55750506000910152565b81810151838201526020016128e5565b9060209161291e815180928185528580860191016128e2565b601f01601f1916010190565b600435906001600160a01b038216820361061c57565b602435906001600160a01b038216820361061c57565b606090600319011261061c57600435906024356001600160a01b038116810361061c579060443590565b6001600160401b03811161046457604052565b60c081019081106001600160401b0382111761046457604052565b604081019081106001600160401b0382111761046457604052565b602081019081106001600160401b0382111761046457604052565b90601f801991011681019081106001600160401b0382111761046457604052565b6001600160401b03811161046457601f01601f191660200190565b929192612a2c82612a05565b91612a3a60405193846129e4565b82948184528183011161061c578281602093846000960137010152565b9080601f8301121561061c57816020612a7293359101612a20565b90565b606090600319011261061c576001600160a01b0390600435828116810361061c5791602435908116810361061c579060443590565b606090600319011261061c57600435906024359060443590565b61010060031982011261061c576004356001600160a01b038116810361061c57916024359160443591606435916001600160401b039060843582811161061c5781612b1191600401612a57565b9260a43583811161061c5782612b2991600401612a57565b9260c43581811161061c5783612b4191600401612a57565b9260e43591821161061c57612a7291600401612a57565b60009080825260209060098252604092838120338252835260ff848220541615612b825750505050565b8351916001600160401b0390336060850183811186821017612e79578752602a85528585019187368437855115612e655760308353855191600192831015612e51576078602188015360295b838111612de75750612da55790875193608085019085821090821117612d9157885260428452868401946060368737845115612d7d57603086538451821015612d7d5790607860218601536041915b818311612d0f57505050612ccd57612cc9938693612cad93612c9e604894612c759a519a8b957f416363657373436f6e74726f6c3a206163636f756e74200000000000000000008c88015251809260378801906128e2565b8401917001034b99036b4b9b9b4b733903937b6329607d1b6037840152518093868401906128e2565b010360288101875201856129e4565b5192839262461bcd60e51b845260048401526024830190612905565b0390fd5b60648587519062461bcd60e51b825280600483015260248201527f537472696e67733a20686578206c656e67746820696e73756666696369656e746044820152fd5b909192600f81166010811015612d69576f181899199a1a9b1b9c1cb0b131b232b360811b901a612d3f8588612f39565b5360041c928015612d5557600019019190612c1d565b634e487b7160e01b82526011600452602482fd5b634e487b7160e01b83526032600452602483fd5b634e487b7160e01b81526032600452602490fd5b634e487b7160e01b86526041600452602486fd5b60648789519062461bcd60e51b825280600483015260248201527f537472696e67733a20686578206c656e67746820696e73756666696369656e746044820152fd5b90600f81166010811015612e3d576f181899199a1a9b1b9c1cb0b131b232b360811b901a612e15838a612f39565b5360041c908015612e295760001901612bce565b634e487b7160e01b87526011600452602487fd5b634e487b7160e01b88526032600452602488fd5b634e487b7160e01b86526032600452602486fd5b634e487b7160e01b85526032600452602485fd5b634e487b7160e01b85526041600452602485fd5b906000918083526009602052604083209160018060a01b03169182845260205260ff604084205416612ebe57505050565b8083526009602052604083208284526020526040832060ff1981541690557ff6391f5c32d9c69d2a47ea670b442974b53935d1edc7fd64eb21e047a839171b339380a4565b81810292918115918404141715612f1657565b634e487b7160e01b600052601160045260246000fd5b91908201809211612f1657565b908151811015612f4a570160200190565b634e487b7160e01b600052603260045260246000fd5b90600182811c92168015612f90575b6020831014612f7a57565b634e487b7160e01b600052602260045260246000fd5b91607f1691612f6f565b60145460009291612faa82612f60565b808252916001908181169081156130215750600114612fc857505050565b9192935060146000527fce6d7b5282bd9a3661ae061feed1dbda4e52ab073b1f9285be6e155d9c38d4ec916000925b84841061300957505060209250010190565b80546020858501810191909152909301928101612ff7565b915050602093945060ff929192191683830152151560051b010190565b600554811015612f4a576006906005600052027f036b6384b5eca791c62761152d0c79bb0604c104a5fb6f4eb0703f3154bb3db00190600090565b613082816141ff565b6000526006602052600161309a60406000205461303e565b50015490565b60208183031261061c578051906001600160401b03821161061c570181601f8201121561061c5780516130d281612a05565b926130e060405194856129e4565b8184526020828401011161061c57612a7291602080850191016128e2565b8115613108570490565b634e487b7160e01b600052601260045260246000fd5b6001600160a01b0316801561313e57600052600760205260406000205490565b60405162461bcd60e51b815260206004820152602b60248201527f455243333532353a2062616c616e636520717565727920666f7220746865207a60448201526a65726f206164647265737360a81b6064820152608490fd5b1561319e57565b60405162461bcd60e51b815260206004820152603260248201527f455243333532353a207472616e736665722063616c6c6572206973206e6f74206044820152711bdddb995c881b9bdc88185c1c1c9bdd995960721b6064820152608490fd5b9061322293929161321261213c84336133a4565b61321d838383613415565b613835565b1561322957565b60405162461bcd60e51b815260206004820152602760248201527f455243333532353a207472616e7366657220746f206e6f6e204552433732315260448201526632b1b2b4bb32b960c91b6064820152608490fd5b1561328557565b60405162461bcd60e51b815260206004820152602260248201527f455243333532353a20617070726f76616c20746f2063757272656e74206f776e60448201526132b960f11b6064820152608490fd5b156132dc57565b60405162461bcd60e51b815260206004820152601960248201527f455243333532353a20696e76616c696420746f6b656e204944000000000000006044820152606490fd5b61332a816141ff565b600052600660205261334060406000205461303e565b50600301546001600160a01b03169061335a8215156132d5565b565b613365816141ff565b600052600660205261337b60406000205461303e565b50600401546001600160a01b031690565b8054821015612f4a5760005260206000200190600090565b906001600160a01b0380806133b884613321565b169316918383149384156133eb575b5083156133d5575b50505090565b6133e19192935061335c565b16143880806133cf565b909350600052600760205260026040600020018260005260205260ff6040600020541692386133c7565b61341e83613321565b6001600160a01b03918216919081168290036136ae5780831692831561365b5761344785613079565b50613451856136ff565b506000918583526020906006825260409061346e8286205461303e565b50600490810180546001600160a01b0319908116909155909189878261349383613321565b167f8c5be1e5ebec7d5bd14f71427d1e84f3dd0314c0f7b2291e5b200ac8c7c3b9258280a48987526006855260056134cd8589205461303e565b500180549091858988818f5b868410613624575050505050505080549087815581613607575b505088865260068452600361350a8488205461303e565b50019081541690558585526007835281852091825493600019948581019081116135f4579061353b8893928661338c565b90549060031b1c9060018601908c8552818152838520549261357c81613561868b61338c565b90919082549060031b600019811b9283911b16911916179055565b8552528183205589825281205581549081156135e15750928288926135dd947fddf252ad1be2c89b69c2b068fc378daa952ba7f163c4a11628f55a4df523b3ef979601916135ca838361338c565b909182549160031b1b1916905555613720565b80a4565b634e487b7160e01b865260319052602485fd5b634e487b7160e01b885260118452602488fd5b8752848720908101905b818110156134f357878155600101613611565b6136519486928b613635878c61338c565b96905494835252209260031b1c168c5289528a888120556137c3565b8690888b8f6134d9565b60405162461bcd60e51b815260206004820152602560248201527f455243333532353a207472616e7366657220746f20746865207a65726f206164604482015264647265737360d81b6064820152608490fd5b60405162461bcd60e51b8152602060048201526024808201527f455243333532353a207472616e736665722066726f6d20696e76616c6964206f6044820152633bb732b960e11b6064820152608490fd5b613708816141ff565b6000526006602052600261309a60406000205461303e565b6000908282526006602052600361373a604084205461303e565b500180546001600160a01b0319166001600160a01b0390921691821790558082526007602081815260408085208054878752600191909101835281862055928452528120805491600160401b8310156137a257508161356191600161335a959401815561338c565b634e487b7160e01b81526041600452602490fd5b91908203918211612f1657565b6000198114612f165760010190565b600160401b8211610464578054918082558281106137ef57505050565b60009182526020822092830192015b82811061380a57505050565b8181556001016137fe565b9081602091031261061c57516001600160e01b03198116810361061c5790565b92939290803b1561397a579360009161388c9560405180948193630a85bd0160e11b9788845233600485015260018060a01b0380921660248501526044840152608060648401528260209a8b976084830190612905565b0393165af16000918161394b575b5061393c57833d15613934573d906138b182612a05565b916138bf60405193846129e4565b82523d60008284013e5b815191826139315760405162461bcd60e51b815260048101839052603260248201527f4552433732313a207472616e7366657220746f206e6f6e20455243373231526560448201527131b2b4bb32b91034b6b83632b6b2b73a32b960711b6064820152608490fd5b01fd5b6060906138c9565b6001600160e01b031916149150565b61396c919250853d8711613973575b61396481836129e4565b810190613815565b903861389a565b503d61395a565b50600193505050565b600380546001019081905596929591949093600093926001600160a01b039290918387168015613e0a578a15613dbb576139bc8b614137565b8015613dac575b613d675760409788516139d5816129c9565b88815289518a8e6139e583612993565b8083528d60208401908152828401908d82528d6060860193898552608087019582875260a08801988952600554928392815260066020522055600160401b811015613d5357806001613a3a920160055561303e565b959095613d3f5751855551600185015551600284015551600383018054918b166001600160a01b03199283161790559051600483018054918b16919092161790559051805191600501906001600160401b038311613d2b579060208f95949392613aa484846137d2565b01908b5260208b208b5b838110613d08575050505082613ac391613720565b877fddf252ad1be2c89b69c2b068fc378daa952ba7f163c4a11628f55a4df523b3ef8180a487868b7fe4f48c240d3b994948aa54f3e2f5fca59263dfe1d52b6e4cf39a5d249b5ccb658280a4613b19898b613e59565b8360085416803b1561062d57613b5591879189838e825196879586948593632108947560e21b8552600485015260248401526044830190612905565b03925af18015613cfe57613ceb575b508260085416803b1561104157613ba09186918b838a5180968195829463246a908b60e01b845260048401528d60248401526044830190612905565b03925af18015613ce157908591613ccd575b50508160085416803b15610bdb57613bef9185918a838951809681958294630190503b60e61b845260048401528c60248401526044830190612905565b03925af18015613cc357908491613caf575b50506008541690813b1561098057613c3e839283928651948580948193637e468a5160e01b83528d60048401528a60248401526044830190612905565b03925af18015613ca557613c91575b505051838152602081019190915260408101919091527f84eeb48eca46cea54afc9753345f6038981672ea565f32885420829dfd88aea69080606081015b0390a190565b613c9b8291612980565b6106315780613c4d565b83513d84823e3d90fd5b613cb890612980565b610980578238613c01565b85513d86823e3d90fd5b613cd690612980565b610a4a578338613bb2565b86513d87823e3d90fd5b613cf790959195612980565b9338613b64565b87513d88823e3d90fd5b82939495965060208b6001939451169401938184015501908f9594939291613aae565b634e487b7160e01b8b52604160045260248bfd5b634e487b7160e01b8f5260048f905260248ffd5b634e487b7160e01b8f52604160045260248ffd5b60405162461bcd60e51b815260206004820152601d60248201527f455243333532353a20746f6b656e20616c7265616479206d696e7465640000006044820152606490fd5b50613db68b61417d565b6139c3565b60405162461bcd60e51b815260206004820152602160248201527f455243333532353a2063616e6e6f74206d696e74207a65726f20746f6b656e496044820152601960fa1b6064820152608490fd5b60405162461bcd60e51b815260206004820152602160248201527f455243333532353a206d696e7420746f20746865207a65726f206164647265736044820152607360f81b6064820152608490fd5b9060008051602061576a8339815191526020600092848452600682526002613e84604086205461303e565b5001613e91828254612f2c565b9055604051908152a3565b949096939591956002549660ff6000981660018060a01b039586600c541691604d8111614123576020939291613ed591600a0a906130fe565b60408051632d2a246560e01b81526001600160a01b039b909b1660048c015260248b019c909c5260448a01929092526064890191909152969896899060849082908b905af19788156140e65787986140f0575b506001600354019788600355888852600d602052868820558360085416803b1561062957613f7b9188918a838a51809681958294632108947560e21b845260048401528d60248401526044830190612905565b03925af180156140e6576140d3575b508260085416803b1561062d57613fc69187918983895180968195829463246a908b60e01b845260048401528c60248401526044830190612905565b03925af180156140c9579086916140b5575b5050816008541690813b1561104157614016869283928751948580948193630190503b60e61b83528d60048401528b60248401526044830190612905565b03925af180156140ab57908591614097575b50506008541690813b15610a4a576140678392859492859351958680948193637e468a5160e01b83528b60048401528860248401526044830190612905565b03925af190811561408e575061407c57505090565b6140868291612980565b610631575090565b513d84823e3d90fd5b6140a090612980565b610a4a578338614028565b84513d87823e3d90fd5b6140be90612980565b610bdb578438613fd8565b85513d88823e3d90fd5b6140df90969196612980565b9438613f8a565b86513d89823e3d90fd5b9097506020813d821161411b575b8161410b602093836129e4565b8101031261062d57519638613f28565b3d91506140fe565b634e487b7160e01b8b52601160045260248bfd5b60055415159081614146575090565b809150600052600660205261415f60406000205461303e565b50541490565b9081602091031261061c5751801515810361061c5790565b80600052600d6020526040600020541590811591614199575090565b600c546040516341ce4b3f60e01b81526004810192909252909150602090829060249082906001600160a01b03165afa9081156141f3576000916141db575090565b612a72915060203d8111611c8357611c7781836129e4565b6040513d6000823e3d90fd5b61335a9061420c81614137565b908115614231575b8115614221575b506132d5565b61422b915061417d565b3861421b565b905061423c8161417d565b90614214565b9081602091031261061c57516001600160a01b038116810361061c5790565b61426a816141ff565b61427381614137565b806142e7575b1561428757612a7290613321565b60018060a01b03600c541690600052600d60205260206040600020546024604051809481936331a9108f60e11b835260048301525afa9081156141f3576000916142cf575090565b612a72915060203d8111611d1b57611d0c81836129e4565b506142f181613079565b600b5414614279565b6001600160a01b0380831693919284156143e357836143189161443b565b15614366575b5060207f621b050de0ad08b51d19b48b3e6df75348c4de6bdd93e81b252ca62e28265b1b918360005260048252604060002085600052825280604060002055604051908152a3565b90826000526006602052600561438060406000205461303e565b500190815492600160401b84101561046457856143c68560209560017f621b050de0ad08b51d19b48b3e6df75348c4de6bdd93e81b252ca62e28265b1b9801815561338c565b909283549160031b90811b9283911b16911916179055915061431e565b60405162461bcd60e51b815260206004820152602a60248201527f455243333532353a20617070726f76652076616c756520746f20746865207a65604482015269726f206164647265737360b01b6064820152608490fd5b60009082825260066020908082526040906144588286205461303e565b509260058094015496865b8881106144765750505050505050905090565b818852838352614494818761448d888c205461303e565b500161338c565b905460039190911b1c6001600160a01b03908116908816146144be576144b9906137c3565b614463565b505050505050505050600190565b906144d6826141ff565b6144df82614137565b80614574575b156144f357612a7291614587565b602060018060a01b0391604483600c54166000958652600d845260408620549060405195869485936338d1782f60e21b855260048501521660248301525afa91821561244257809261454457505090565b9091506020823d821161456c575b8161455f602093836129e4565b8101031261063157505190565b3d9150614552565b5061457e82613079565b600b54146144e5565b614590816141ff565b600052600460205260406000209060018060a01b031660005260205260406000205490565b60ff16604d8111612f1657600a0a90565b604051906145d3826129ae565b60078252667365636f6e647360c81b6020830152565b604051906145f6826129ae565b60078252666d696e7574657360c81b6020830152565b60405190614619826129ae565b6005825264686f75727360d81b6020830152565b6040519061463a826129ae565b60048252636461797360e01b6020830152565b6040519061465a826129ae565b60068252656d6f6e74687360d01b6020830152565b6040519061467c826129ae565b6005825264796561727360d81b6020830152565b60009060408051906146ac826146a581612f9a565b03836129e4565b81516020809301206146bc6145c6565b805190840120036146df575050612a729150610ac460ff60135460a01c166145b5565b80516146f5816146ee81612f9a565b03826129e4565b8281519101206147036145e9565b80519084012003614738575050603c80820292508115918304141715612f1657612a7290610ac460ff60135460a01c166145b5565b8051614747816146ee81612f9a565b82815191012061475561460c565b805190840120036147a15750506147789150610ac460ff60135460a01c166145b5565b603c810290808204603c1481151715612f1657610e100290808204603c1490151715612f165790565b80516147b0816146ee81612f9a565b8281519101206147be61462d565b8051908401200361481d5750509050601881029080820460181481151715612f16576105a0810291808304603c1490151715612f1657620151800290808204603c1490151715612f1657612a7290610ac460ff60135460a01c166145b5565b7f8be27e132b8285429e5647023e835848842eefd3c91595a90151c438482c3a36815161484d816146ee81612f9a565b838151910120647765656b7360d81b848451614868816129ae565b600581520152036148da5750509050600781029080820460071481151715612f165760a881029180830460181490151715612f1657612760810291808304603c1490151715612f165762093a800290808204603c1490151715612f1657612a7290610ac460ff60135460a01c166145b5565b80516148e9816146ee81612f9a565b8281519101206148f761464d565b8051908401200361496b5750509050603c810290808204603c1481151715612f1657610e10810291808304603c1490151715612f16576201518081029180830460181490151715612f165762278d000290808204601e1490151715612f1657612a7290610ac460ff60135460a01c166145b5565b51614979816146ee81612f9a565b8181519101209061498861466f565b805191012014614996575090565b906301da9c00918281029281840414901517156149c35750612a7290610ac460ff60135460a01c166145b5565b634e487b7160e01b81526011600452602490fd5b156149de57565b60405162461bcd60e51b815260206004820152602560248201527f54696d654372656469743a207472616e736665727320617265206e6f7420616c6044820152641b1bddd95960da1b6064820152608490fd5b15614a3857565b60405162461bcd60e51b815260206004820152604b60248201527f54696d654372656469743a20616d6f756e74206265696e67207472616e73666560448201527f726564206973206c657373207468616e206d696e696d756d207472616e73666560648201526a7261626c652076616c756560a81b608482015260a490fd5b919091600090808252602091600d83526040928382205415600014614e3e57614ae1858433614f21565b60019586600354019687600355614af785613079565b916001600160a01b0380821692908315614df0578a15614da257614b1a8b614137565b8015614d93575b614d4f578851614b30816129c9565b8781528951888b8e614b4184612993565b8084528a84018a81528b8386019285845260608701948c8652608088019680885260a08901998a5260066005549485948352522055600160401b811015614d3b578089614b91920160055561303e565b959095614d2757906005959493929151855551888501555160028401558560038401915116906bffffffffffffffffffffffff60a01b9182825416179055856004840192511690825416179055019051918251926001600160401b038411614d1357908883928f9b9a99989796959485614c0a916137d2565b0191895287892090895b848110614cfd575050505050507f6d811e6a20ae5461a4ef22a6998c1d958defe727f1cc522b6eb792bc8e6f726698979693869384614ce09794614c6a613c8b9a60008051602061576a83398151915296613720565b857fddf252ad1be2c89b69c2b068fc378daa952ba7f163c4a11628f55a4df523b3ef8180a483857fe4f48c240d3b994948aa54f3e2f5fca59263dfe1d52b6e4cf39a5d249b5ccb658280a483835260068152614cc88884205461303e565b50508751838152a3614cdb858883614fbb565b613079565b915192839286846040919493926060820195825260208201520152565b83518216818401558f9b50928901928501614c14565b634e487b7160e01b8a52604160045260248afd5b634e487b7160e01b8e5260048e905260248efd5b634e487b7160e01b8e52604160045260248efd5b885162461bcd60e51b815260048101879052601d60248201527f455243333532353a20746f6b656e20616c7265616479206d696e7465640000006044820152606490fd5b50614d9d8b61417d565b614b21565b885162461bcd60e51b815260048101879052602160248201527f455243333532353a2063616e6e6f74206d696e74207a65726f20746f6b656e496044820152601960fa1b6064820152608490fd5b885162461bcd60e51b815260048101879052602160248201527f455243333532353a206d696e7420746f20746865207a65726f206164647265736044820152607360f81b6064820152608490fd5b600c5484516307a42e0160e11b8152600481018590526001600160a01b0397881660248201526044810187905291969192918791849160649183918691165af1958615614f15578196614ebe575b50505090613c8b614ce07f6d811e6a20ae5461a4ef22a6998c1d958defe727f1cc522b6eb792bc8e6f72669493613079565b909180939650813d8311614f0e575b614ed781836129e4565b8101031261063157505192613c8b614ce07f6d811e6a20ae5461a4ef22a6998c1d958defe727f1cc522b6eb792bc8e6f7266614e8c565b503d614ecd565b508351903d90823e3d90fd5b614f2b8183614587565b614f3583836133a4565b1580614faf575b614f47575b50505050565b838110614f6a57614f6193614f5b916137b6565b916142fa565b38808080614f41565b60405162461bcd60e51b815260206004820152601f60248201527f455243333532353a20696e73756666696369656e7420616c6c6f77616e6365006044820152606490fd5b50600019811415614f3c565b614fc481614137565b8015615251575b156151fc57614fd982614137565b80156151ed575b1561519a578060005260209260068452604092615000846000205461303e565b508160005260068652615016856000205461303e565b5090600281019081549085821061514357600101546001840154036150e8579160029161504986615086989796956137b6565b905501615057838254612f2c565b9055808360008051602061576a833981519152888851868152a384519261507d846129c9565b60008452615260565b1561508f575050565b60849250519062461bcd60e51b82526004820152602d60248201527f455243333532353a207472616e736665722072656a656374656420627920455260448201526c21999a991aa932b1b2b4bb32b960991b6064820152fd5b865162461bcd60e51b815260048101899052602e60248201527f455243333532353a207472616e7366657220746f20746f6b656e20776974682060448201526d191a5999995c995b9d081cdb1bdd60921b6064820152608490fd5b875162461bcd60e51b8152600481018a9052602a60248201527f455243333532353a20696e73756666696369656e742062616c616e636520666f60448201526939103a3930b739b332b960b11b6064820152608490fd5b60405162461bcd60e51b815260206004820152602560248201527f455243333532353a207472616e7366657220746f20696e76616c696420746f6b604482015264195b88125160da1b6064820152608490fd5b506151f78261417d565b614fe0565b60405162461bcd60e51b815260206004820152602760248201527f455243333532353a207472616e736665722066726f6d20696e76616c696420746044820152661bdad95b88125160ca1b6064820152608490fd5b5061525b8161417d565b614fcb565b9261526a82613321565b803b151580615310575b15615306576152bd93600060209460405196879586948593629ce20b60e01b9b8c865233600487015260248601526044850152606484015260a0608484015260a4830190612905565b03926001600160a01b03165af19081156141f3576000916152e8575b506001600160e01b0319161490565b615300915060203d81116139735761396481836129e4565b386152d9565b5050505050600190565b506040516301ffc9a760e01b8152629ce20b60e01b60048201526020816024816001600160a01b0386165afa9081156141f357600091615351575b50615274565b615369915060203d8111611c8357611c7781836129e4565b3861534b565b909161537a83614137565b8061551b575b801561550c575b156154955761539582614137565b80615482575b8061545f575b156154055790615400826153d87fdf7a601a0a201ccd4b4bfcfd610913188d931867997223d226f85f2f2673988a95948433614f21565b6153e3818585614fbb565b604051938493846040919493926060820195825260208201520152565b0390a1565b600c546001600160a01b0316803b1561061c57604051630310ed7f60e41b8152600481019390935260248301939093526044820152906000908290606490829084905af180156141f3576154565750565b61335a90612980565b5061546983614137565b80156153a1575061547983613079565b600b54146153a1565b5061548c82613079565b600b541461539b565b60a460405162461bcd60e51b815260206004820152604460248201527f546f6b656e204944206f66207265636569766572206e6f74207265636f676e6960448201527f7a6564206279207468697320636f6e7472616374206f722074686520726567696064820152637374727960e01b6084820152fd5b506155168361417d565b615387565b5061552583613079565b600b5414615380565b6155409061553b816141ff565b6156e7565b6040805190615552826146a581612f9a565b81516020809301206155626145c6565b80519084012003615584575050612a72906103a760ff60135460a01c166145b5565b8051615593816146ee81612f9a565b8281519101206155a16145e9565b805190840120036155c95750506155c5603c916103a760ff60135460a01c166145b5565b0490565b80516155d8816146ee81612f9a565b8281519101206155e661460c565b8051908401200361560b5750506155c5610e10916103a760ff60135460a01c166145b5565b805161561a816146ee81612f9a565b82815191012061562861462d565b8051908401200361564e5750506155c562015180916103a760ff60135460a01c166145b5565b805161565d816146ee81612f9a565b82815191012061566b61464d565b805190840120036156915750506155c562278d00916103a760ff60135460a01c166145b5565b5161569f816146ee81612f9a565b818151910120906156ae61466f565b8051910120036156d2576155c56301da9c00916103a760ff60135460a01c166145b5565b612a72906103a760ff60135460a01c166145b5565b6156f0816141ff565b6156f981614137565b80615756575b1561570d57612a72906136ff565b6000908152600d6020526040812054602060018060a01b03600c541691602460405180948193631398fee160e31b835260048301525afa91821561244257809261454457505090565b5061576081613079565b600b54146156ff56fe0b2aac84f3ec956911fd78eae5311062972ff949f38412e8da39069d9f068cc6a264697066735822122054283b3e84c5ece4ee4220a844a29f110cac6c35b71cc8b8340c6234dc72653a64736f6c634300081100336080604052346200048657620020b7803803806200001d816200048b565b9283398101608082820312620004865781516001600160401b0391908281116200048657816200004f918501620004b1565b91602092838501518281116200048657836200006d918701620004b1565b92604086015183811162000486576060916200008b918801620004b1565b9501516001600160a01b03811695908690036200048657815193838511620002c3576001948554938685811c951680156200047b575b88861014620002a2578190601f9586811162000425575b508890868311600114620003bd57600092620003b1575b5050600019600383901b1c191690861b1785555b805190848211620002c357600254908682811c92168015620003a6575b88831014620002a25781858493116200034f575b508790858311600114620002e557600092620002d9575b5050600019600383901b1c191690851b176002555b8051928311620002c35760039485548581811c91168015620002b8575b82821014620002a25783811162000257575b5080928411600114620001ed5750928293918392600094620001e1575b50501b9160001990841b1c19161790555b600080546001600160a01b031916919091179055604051611b939081620005248239f35b015192503880620001ac565b919083601f1981168760005284600020946000905b888383106200023c575050501062000223575b505050811b019055620001bd565b015160001983861b60f8161c1916905538808062000215565b85870151885590960195948501948793509081019062000202565b86600052816000208480870160051c82019284881062000298575b0160051c019086905b8281106200028b5750506200018f565b600081550186906200027b565b9250819262000272565b634e487b7160e01b600052602260045260246000fd5b90607f16906200017d565b634e487b7160e01b600052604160045260246000fd5b0151905038806200014b565b90879350601f198316916002600052896000209260005b8b8282106200033857505084116200031e575b505050811b0160025562000160565b015160001960f88460031b161c191690553880806200030f565b8385015186558b97909501949384019301620002fc565b9091506002600052876000208580850160051c8201928a86106200039c575b918991869594930160051c01915b8281106200038c57505062000134565b600081558594508991016200037c565b925081926200036e565b91607f169162000120565b015190503880620000ef565b90889350601f19831691846000528a6000209260005b8c8282106200040e5750508411620003f4575b505050811b01855562000103565b015160001960f88460031b161c19169055388080620003e6565b8385015186558c97909501949384019301620003d3565b90915087600052886000208680850160051c8201928b861062000471575b918a91869594930160051c01915b82811062000461575050620000d8565b600081558594508a910162000451565b9250819262000443565b94607f1694620000c1565b600080fd5b6040519190601f01601f191682016001600160401b03811183821017620002c357604052565b919080601f84011215620004865782516001600160401b038111620002c357602090620004e7601f8201601f191683016200048b565b92818452828287010111620004865760005b8181106200050f57508260009394955001015290565b8581018301518482018401528201620004f956fe608060408181526004908136101561001657600080fd5b600092833560e01c9081631375d843146113cd57508063246a908b146112cf57806355f804b31461118b57806364140ec01461108c5780636c0360eb14610fcd5780636c037f8a14610d0f57806371f0442e14610c7b578063725fa09c146108c05780637e468a51146107c1578063842251d414610685578063894b4c2e146101755763b3154c08146100a857600080fd5b34610171576020918260031936011261016d5780358452825280832091815192848154906100d5826118e1565b80875292600192808416908115610149575060011461010e575b61010a8787610100828c03836114e3565b5191829182611485565b0390f35b9080949750528583205b828410610136575050508261010a94610100928201019438806100ef565b8054868501880152928601928101610118565b60ff19168887015250505050151560051b83010192506101008261010a38806100ef565b8380fd5b8280fd5b50903461017157602092836003193601126106825782516306fdde0360e01b81529180359082848281335afa938415610678578394610654575b506101b98261179e565b926102056022875180968a6101d78184019a8b815193849201611462565b820161202360f01b8c8201526101f68c83519384918785019101611462565b010360028101875201856114e3565b828152818752858120865181549391899184610220876118e1565b80835284830193600198868a821691826000146106345750506001146105fb575b505090610254816102c9949303826114e3565b6102e561026030611a1a565b898852600686526102d78d808a209a60058952818b2091519788948a86019a6102ac61028b8d61191b565b91692f636f6e74726163742f60b01b83528351938491600a85019101611462565b019c6011662f746f6b656e2f60c81b9e8f600a8201520190611997565b602f60f81b81520190611997565b03601f1981018552846114e3565b8a51631398fee160e31b81528581018990528c81602481335afa80156105c25787906105cc575b610316915061179e565b8b5163131f9f3f60e11b8152958601899052948c81602481335afa9081156105c2578d918d918991610589575b5061034d9061179e565b9761035733611a1a565b9a815260068352208c51713d91383937b832b93a34b2b9afbab934911d60711b818401908152601160f91b60328301529a90998a93909161039a6033860161191b565b9068636f6e74726163742f60b81b825280518093600984019201916103be92611462565b019060098201526010016103d191611997565b6f17b83937b832b93a34b2b9973539b7b760811b815261227d60f01b601082015203600d198101885260120161040790886114e3565b8a51998a998d683d913730b6b2911d1160b91b908c015251908160298c0161042e92611462565b890190701116113232b9b1b934b83a34b7b7111d1160791b6029830152519182603a830161045b92611462565b01906a11161134b6b0b3b2911d1160a91b603a8301525191826045830161048192611462565b016c1116113130b630b731b2911d1160991b6045820152815191828a605284019201916104ad92611462565b016911161139b637ba111d1160b11b60528201528151918289605c84019201916104d692611462565b01906e111611383937b832b93a34b2b9911d60891b605c830152519182606b830161050092611462565b01606b8101607d60f81b905203604c81018252606c0161052090826114e3565b61052990611631565b81517f646174613a6170706c69636174696f6e2f6a736f6e3b6261736536342c00000084820152815190938492610567918391603d86019101611462565b810103601d81018352603d0161057d90836114e3565b5161010a819282611485565b928092508391503d83116105bb575b6105a281836114e3565b810103126105b7578b61034d8e925190610343565b8680fd5b503d610598565b8c513d89823e3d90fd5b508c81813d83116105f4575b6105e281836114e3565b810103126105b757610316905161030c565b503d6105d8565b8592508752818720908888925b82841061061e5750505082010161025482610241565b80548487018601528794909301928a9101610608565b60ff1916875292151560051b850190920192506102549150839050610241565b6106719194503d8085833e61066981836114e3565b8101906115a0565b92386101af565b85513d85823e3d90fd5b80fd5b508290346107bd576106963661156d565b939083526020916006835283209184519167ffffffffffffffff83116107aa57506106c183546118e1565b601f8111610767575b5080601f831160011461070557508394829394926106fa575b50508160011b916000199060031b1c191617905580f35b0151905084806106e3565b90601f198316958486528286209286905b88821061074f57505083600195969710610736575b505050811b01905580f35b015160001960f88460031b161c1916905584808061072b565b80600185968294968601518155019501930190610716565b838552818520601f840160051c8101918385106107a0575b601f0160051c01905b81811061079557506106ca565b858155600101610788565b909150819061077f565b634e487b7160e01b855260419052602484fd5b5080fd5b508290346107bd576107d23661156d565b939083526020916007835283209184519167ffffffffffffffff83116107aa57506107fd83546118e1565b601f811161087d575b5080601f831160011461083557508394829394926106fa5750508160011b916000199060031b1c191617905580f35b90601f198316958486528286209286905b8882106108655750508360019596971061073657505050811b01905580f35b80600185968294968601518155019501930190610846565b838552818520601f840160051c8101918385106108b6575b601f0160051c01905b8181106108ab5750610806565b85815560010161089e565b9091508190610895565b50913461068257806003193601126106825782516306fdde0360e01b815281818481335afa908115610c71578291610c57575b508351829060025492610905846118e1565b9586835260209683888101956001978a8982169182600014610c3c575050600114610be1575b610937925003846114e3565b61094033611a1a565b9588519586898101986109528a61191b565b68636f6e74726163742f60b81b81526109758c8351938491600985019101611462565b01602f60f81b600982015283906003549361098f856118e1565b94818116908115610bc05750600114610b61575b50506109b8925003601f1981018852876114e3565b8789518093633e7e866960e01b825281335afa918215610b55578192610b17575b5050610ac9605a888a61010a9b9961010099610a7f603d9a610b079e9a610a5c610ace9b610a0c60ff610a329d1661179e565b97519b8c99683d913730b6b2911d1160b91b818c0152825192839160298d019101611462565b880191701116113232b9b1b934b83a34b7b7111d1160791b6029840152518093603a840190611462565b01916a11161134b6b0b3b2911d1160a91b603a8401525180936045840190611462565b01721116113b30b63ab2a232b1b4b6b0b639911d1160691b6045820152610aaf825180938a605885019101611462565b0161227d60f01b605882015203603a8101845201826114e3565b611631565b845195827f646174613a6170706c69636174696f6e2f6a736f6e3b6261736536342c000000889485015282519283918686019101611462565b810103601d8101855201836114e3565b9091508781813d8311610b4e575b610b2f81836114e3565b810103126107bd57519060ff821682036106825750610ac9605a6109d9565b503d610b25565b508851903d90823e3d90fd5b6003865290915084908c7fc2575a0e9e593c00f959f8c92f12db2869c3395a3b0502d05e2516446f71f85b5b868410610ba857505050506109b892600a91010138806109a3565b8054858501600a01528c95509201918d908201610b8d565b9050600a93506109b895915060ff19168383015280151502010138806109a3565b505060028752838888887f405787fa12a823e0f2b7631cc41b3ba8828b3321ca811111fa75cd3aa3bb5ace5b858310610c23575050610937935082010161092b565b80919294505483858a0101520191018990888793610c0d565b60ff1916895261093794151560051b840101915061092b9050565b610c6b91503d8084833e61066981836114e3565b386108f3565b84513d84823e3d90fd5b5034610171576020918260031936011261016d57358352600582528083209181519284815490610caa826118e1565b808752926001928084169081156101495750600114610cd45761010a8787610100828c03836114e3565b9080949750528583205b828410610cfc575050508261010a94610100928201019438806100ef565b8054868501880152928601928101610cde565b5090346101715760209283600319360112610682578054835163ec327a2160e01b815283358185018190529092916001600160a01b0316908284602481855afa938415610fc3578394610fa7575b50855163bc74ebb960e01b8152858101829052948386602481865afa958615610f9d578496610f81575b5086516309c3dd8760e01b80825282820184905290938585602481845afa948515610f7757918a9594939187938496610f56575b5090602491610dfb60268d518a652f696d61676560d01b81610de7849e85019d8e815193849201611462565b83019182015203600681018b5201896114e3565b8b51958694859384528301525afa938415610f4b578094610f2e575b50508551918288808201868197519283910191610e3392611462565b81018981016f17b83937b832b93a34b2b9973539b7b760811b905203601081018452603001610e6290846114e3565b8651958695683d913730b6b2911d1160b91b8a880152805190818b60298a01920191610e8d92611462565b8601701116113232b9b1b934b83a34b7b7111d1160791b6029820152815191828b603a8401920191610ebe92611462565b01906a11161134b6b0b3b2911d1160a91b603a83015251918260458301610ee492611462565b01906e111611383937b832b93a34b2b9911d60891b604583015251918260548301610f0e92611462565b0160548101607d60f81b90520360358101825260550161052090826114e3565b610f439294503d8091833e61066981836114e3565b913880610e17565b8751903d90823e3d90fd5b602492919650610f6f903d8087833e61066981836114e3565b959091610dbb565b89513d88823e3d90fd5b610f969196503d8086833e61066981836114e3565b9438610d87565b87513d86823e3d90fd5b610fbc9194503d8085833e61066981836114e3565b9238610d5d565b86513d85823e3d90fd5b8382346107bd57816003193601126107bd57805190826001805491610ff1836118e1565b80865292828116908115611064575060011461101a575b5050506101008261010a9403836114e3565b9450808552600080516020611b3e8339815191525b82861061104c5750505061010082602061010a9582010194611008565b8054602087870181019190915290950194810161102f565b61010a97508693506020925061010094915060ff191682840152151560051b82010194611008565b508290346107bd5761109d3661156d565b939083526020916005835283209184519167ffffffffffffffff83116107aa57506110c883546118e1565b601f8111611148575b5080601f831160011461110057508394829394926106fa5750508160011b916000199060031b1c191617905580f35b90601f198316958486528286209286905b8882106111305750508360019596971061073657505050811b01905580f35b80600185968294968601518155019501930190611111565b838552818520601f840160051c810191838510611181575b601f0160051c01905b81811061117657506110d1565b858155600101611169565b9091508190611160565b828434610682576020806003193601126107bd5767ffffffffffffffff833581811161016d576111be9036908601611521565b9384519182116112bc57506001916111d683546118e1565b601f811161126a575b5080601f8311600114611219575083948293949261120e575b5050600019600383901b1c191690821b17905580f35b0151905084806111f8565b838552601f19831695600080516020611b3e833981519152929186905b888210611253575050838596971061073657505050811b01905580f35b808785968294968601518155019501930190611236565b838552600080516020611b3e833981519152601f840160051c8101918385106112b2575b601f0160051c019084905b8281106112a75750506111df565b868155018490611299565b909150819061128e565b634e487b7160e01b845260419052602483fd5b508290346107bd576112e03661156d565b9390835260209181835283209184519167ffffffffffffffff83116107aa575061130a83546118e1565b601f811161138a575b5080601f831160011461134257508394829394926106fa5750508160011b916000199060031b1c191617905580f35b90601f198316958486528286209286905b8882106113725750508360019596971061073657505050811b01905580f35b80600185968294968601518155019501930190611353565b838552818520601f840160051c8101918385106113c3575b601f0160051c01905b8181106113b85750611313565b8581556001016113ab565b90915081906113a2565b9290503461016d576020908160031936011261145e57358452600681528184208054856113f9826118e1565b8087529260019280841690811561014957506001146114235761010a8787610100828c03836114e3565b9080949750528583205b82841061144b575050508261010a94610100928201019438806100ef565b805486850188015292860192810161142d565b8480fd5b60005b8381106114755750506000910152565b8181015183820152602001611465565b604091602082526114a58151809281602086015260208686019101611462565b601f01601f1916010190565b6060810190811067ffffffffffffffff8211176114cd57604052565b634e487b7160e01b600052604160045260246000fd5b90601f8019910116810190811067ffffffffffffffff8211176114cd57604052565b67ffffffffffffffff81116114cd57601f01601f191660200190565b81601f820112156115685780359061153882611505565b9261154660405194856114e3565b8284526020838301011161156857816000926020809301838601378301015290565b600080fd5b90604060031983011261156857600435916024359067ffffffffffffffff82116115685761159d91600401611521565b90565b6020818303126115685780519067ffffffffffffffff8211611568570181601f820112156115685780516115d381611505565b926115e160405194856114e3565b818452602082840101116115685761159d9160208085019101611462565b9061160982611505565b61161660405191826114e3565b8281528092611627601f1991611505565b0190602036910137565b80511561177957604051611644816114b1565b604081527f4142434445464748494a4b4c4d4e4f505152535455565758595a61626364656660208201527f6768696a6b6c6d6e6f707172737475767778797a303132333435363738392b2f60408201528151600292838201809211611763576003918290046001600160fe1b0381168103611763576116c6908594951b6115ff565b936020850193829183518401925b83811061171257505050505106806001146116ff576002146116f4575090565b603d90600019015390565b50603d9081600019820153600119015390565b85600491979293949701918251600190603f9082828260121c16880101518453828282600c1c16880101518385015382828260061c16880101518885015316850101518782015301959291906116d4565b634e487b7160e01b600052601160045260246000fd5b506040516020810181811067ffffffffffffffff8211176114cd576040526000815290565b806000917a184f03e93ff9f4daa797ed6e38ed64bf6a1f010000000000000000808210156118d3575b506d04ee2d6d415b85acef8100000000808310156118c4575b50662386f26fc10000808310156118b5575b506305f5e100808310156118a6575b5061271080831015611897575b506064821015611887575b600a8092101561187d575b6001908160216118358287016115ff565b95860101905b611847575b5050505090565b600019019083906f181899199a1a9b1b9c1cb0b131b232b360811b8282061a8353049182156118785791908261183b565b611840565b9160010191611824565b9190606460029104910191611819565b6004919392049101913861180e565b60089193920491019138611801565b601091939204910191386117f2565b602091939204910191386117e0565b6040935081049150386117c7565b90600182811c92168015611911575b60208310146118fb57565b634e487b7160e01b600052602260045260246000fd5b91607f16916118f0565b9060009160019081549161192e836118e1565b92818116908115611984575060011461194657505050565b809192939450600052600080516020611b3e833981519152906000915b848310611971575050500190565b8181602092548587015201920191611963565b60ff191683525050811515909102019150565b6000929181546119a6816118e1565b926001918083169081156119ff57506001146119c3575b50505050565b90919293945060005260209081600020906000915b8583106119ee57505050500190388080806119bd565b8054858401529183019181016119d8565b60ff19168452505050811515909102019150388080806119bd565b604051906001600160a01b0316611a30826114b1565b602a82526020908183016040368237835115611b2757603090538251600190811015611b2757607860218501536029905b808211611ab5575050611a72575090565b6064906040519062461bcd60e51b825280600483015260248201527f537472696e67733a20686578206c656e67746820696e73756666696369656e746044820152fd5b9091600f81166010811015611b12578551841015611b12576f181899199a1a9b1b9c1cb0b131b232b360811b901a85840185015360041c918015611afd576000190190611a61565b60246000634e487b7160e01b81526011600452fd5b60246000634e487b7160e01b81526032600452fd5b634e487b7160e01b600052603260045260246000fdfeb10e2d527612073b26eecdfd717e6a320cf44b4afac2b0732d9fcbe2b7fa0cf6a26469706673582212208ca4f65294610ecd78a777bb408e8725ee425416006ed9fc7c5c58d006126bd564736f6c634300081100332f8788117e7eff1d82e926ec794901d17c78024a50270940304540a733656f0d",
  "linkReferences": {},
  "deployedLinkReferences": {}
}