{
  "_format": "hh-sol-artifact-1",
  "contractName": "TimeCredit",
  "sourceName": "contracts/TimeCredit.sol",
  "abi": [
    {
      "inputs": [
        {
          "internalType": "address",
          "name": "revenueAcct_",
          "type": "address"
        },
        {
          "internalType": "address",
          "name": "serviceAdmin_",
          "type": "address"
        },
        {
          "internalType": "address",
          "name": "slotRegistry_",
          "type": "address"
        },
        {
          "internalType": "address",
          "name": "underlyingContract_",
          "type": "address"
        },
        {
          "internalType": "address",
          "name": "mktAdmin_",
          "type": "address"
        },
        {
          "internalType": "uint256",
          "name": "defaultSlot_",
          "type": "uint256"
        },
        {
          "internalType": "string",
          "name": "name_",
          "type": "string"
        },
        {
          "internalType": "string",
          "name": "symbol_",
          "type": "string"
        },
        {
          "internalType": "string",
          "name": "baseuri_",
          "type": "string"
        },
        {
          "internalType": "string",
          "name": "contractDescription_",
          "type": "string"
        },
        {
          "internalType": "string",
          "name": "contractImage_",
          "type": "string"
        },
        {
          "internalType": "string",
          "name": "dispTimeUnit_",
          "type": "string"
        },
        {
          "internalType": "string",
          "name": "valueToken_",
          "type": "string"
        },
        {
          "internalType": "uint8",
          "name": "decimals_",
          "type": "uint8"
        }
      ],
      "stateMutability": "nonpayable",
      "type": "constructor"
    },
    {
      "anonymous": false,
      "inputs": [
        {
          "indexed": true,
          "internalType": "address",
          "name": "_owner",
          "type": "address"
        },
        {
          "indexed": true,
          "internalType": "address",
          "name": "_approved",
          "type": "address"
        },
        {
          "indexed": true,
          "internalType": "uint256",
          "name": "_tokenId",
          "type": "uint256"
        }
      ],
      "name": "Approval",
      "type": "event"
    },
    {
      "anonymous": false,
      "inputs": [
        {
          "indexed": true,
          "internalType": "address",
          "name": "_owner",
          "type": "address"
        },
        {
          "indexed": true,
          "internalType": "address",
          "name": "_operator",
          "type": "address"
        },
        {
          "indexed": false,
          "internalType": "bool",
          "name": "_approved",
          "type": "bool"
        }
      ],
      "name": "ApprovalForAll",
      "type": "event"
    },
    {
      "anonymous": false,
      "inputs": [
        {
          "indexed": true,
          "internalType": "uint256",
          "name": "_tokenId",
          "type": "uint256"
        },
        {
          "indexed": true,
          "internalType": "address",
          "name": "_operator",
          "type": "address"
        },
        {
          "indexed": false,
          "internalType": "uint256",
          "name": "_value",
          "type": "uint256"
        }
      ],
      "name": "ApprovalValue",
      "type": "event"
    },
    {
      "anonymous": false,
      "inputs": [
        {
          "indexed": false,
          "internalType": "address",
          "name": "contractAddress",
          "type": "address"
        }
      ],
      "name": "MetadataDescriptor",
      "type": "event"
    },
    {
      "anonymous": false,
      "inputs": [
        {
          "indexed": false,
          "internalType": "uint256",
          "name": "tokenId",
          "type": "uint256"
        },
        {
          "indexed": false,
          "internalType": "uint256",
          "name": "slot",
          "type": "uint256"
        },
        {
          "indexed": false,
          "internalType": "uint256",
          "name": "value",
          "type": "uint256"
        }
      ],
      "name": "MintServiceToken",
      "type": "event"
    },
    {
      "anonymous": false,
      "inputs": [
        {
          "indexed": false,
          "internalType": "uint256",
          "name": "newTokenId",
          "type": "uint256"
        },
        {
          "indexed": false,
          "internalType": "uint256",
          "name": "slot",
          "type": "uint256"
        },
        {
          "indexed": false,
          "internalType": "uint256",
          "name": "value",
          "type": "uint256"
        }
      ],
      "name": "MintServiceTokenToAddress",
      "type": "event"
    },
    {
      "anonymous": false,
      "inputs": [
        {
          "indexed": false,
          "internalType": "uint256",
          "name": "value_seconds",
          "type": "uint256"
        },
        {
          "indexed": false,
          "internalType": "uint256",
          "name": "value_unit",
          "type": "uint256"
        }
      ],
      "name": "MintTimeToken",
      "type": "event"
    },
    {
      "anonymous": false,
      "inputs": [
        {
          "indexed": true,
          "internalType": "bytes32",
          "name": "role",
          "type": "bytes32"
        },
        {
          "indexed": true,
          "internalType": "bytes32",
          "name": "previousAdminRole",
          "type": "bytes32"
        },
        {
          "indexed": true,
          "internalType": "bytes32",
          "name": "newAdminRole",
          "type": "bytes32"
        }
      ],
      "name": "RoleAdminChanged",
      "type": "event"
    },
    {
      "anonymous": false,
      "inputs": [
        {
          "indexed": true,
          "internalType": "bytes32",
          "name": "role",
          "type": "bytes32"
        },
        {
          "indexed": true,
          "internalType": "address",
          "name": "account",
          "type": "address"
        },
        {
          "indexed": true,
          "internalType": "address",
          "name": "sender",
          "type": "address"
        }
      ],
      "name": "RoleGranted",
      "type": "event"
    },
    {
      "anonymous": false,
      "inputs": [
        {
          "indexed": true,
          "internalType": "bytes32",
          "name": "role",
          "type": "bytes32"
        },
        {
          "indexed": true,
          "internalType": "address",
          "name": "account",
          "type": "address"
        },
        {
          "indexed": true,
          "internalType": "address",
          "name": "sender",
          "type": "address"
        }
      ],
      "name": "RoleRevoked",
      "type": "event"
    },
    {
      "anonymous": false,
      "inputs": [
        {
          "indexed": true,
          "internalType": "address",
          "name": "metadataDescriptor",
          "type": "address"
        }
      ],
      "name": "SetMetadataDescriptor",
      "type": "event"
    },
    {
      "anonymous": false,
      "inputs": [
        {
          "indexed": true,
          "internalType": "uint256",
          "name": "_tokenId",
          "type": "uint256"
        },
        {
          "indexed": true,
          "internalType": "uint256",
          "name": "_oldSlot",
          "type": "uint256"
        },
        {
          "indexed": true,
          "internalType": "uint256",
          "name": "_newSlot",
          "type": "uint256"
        }
      ],
      "name": "SlotChanged",
      "type": "event"
    },
    {
      "anonymous": false,
      "inputs": [
        {
          "indexed": true,
          "internalType": "address",
          "name": "_from",
          "type": "address"
        },
        {
          "indexed": true,
          "internalType": "address",
          "name": "_to",
          "type": "address"
        },
        {
          "indexed": true,
          "internalType": "uint256",
          "name": "_tokenId",
          "type": "uint256"
        }
      ],
      "name": "Transfer",
      "type": "event"
    },
    {
      "anonymous": false,
      "inputs": [
        {
          "indexed": true,
          "internalType": "uint256",
          "name": "_fromTokenId",
          "type": "uint256"
        },
        {
          "indexed": true,
          "internalType": "uint256",
          "name": "_toTokenId",
          "type": "uint256"
        },
        {
          "indexed": false,
          "internalType": "uint256",
          "name": "_value",
          "type": "uint256"
        }
      ],
      "name": "TransferValue",
      "type": "event"
    },
    {
      "anonymous": false,
      "inputs": [
        {
          "indexed": false,
          "internalType": "uint256",
          "name": "fromTokenId",
          "type": "uint256"
        },
        {
          "indexed": false,
          "internalType": "uint256",
          "name": "toTokenId",
          "type": "uint256"
        },
        {
          "indexed": false,
          "internalType": "uint256",
          "name": "value",
          "type": "uint256"
        }
      ],
      "name": "ValueTransfer",
      "type": "event"
    },
    {
      "inputs": [],
      "name": "DEFAULT_ADMIN_ROLE",
      "outputs": [
        {
          "internalType": "bytes32",
          "name": "",
          "type": "bytes32"
        }
      ],
      "stateMutability": "view",
      "type": "function"
    },
    {
      "inputs": [],
      "name": "MKT_ARBITRATOR_ROLE",
      "outputs": [
        {
          "internalType": "bytes32",
          "name": "",
          "type": "bytes32"
        }
      ],
      "stateMutability": "view",
      "type": "function"
    },
    {
      "inputs": [],
      "name": "SERVICE_ADMIN_ROLE",
      "outputs": [
        {
          "internalType": "bytes32",
          "name": "",
          "type": "bytes32"
        }
      ],
      "stateMutability": "view",
      "type": "function"
    },
    {
      "inputs": [
        {
          "internalType": "string",
          "name": "uri_",
          "type": "string"
        }
      ],
      "name": "_setBaseURI",
      "outputs": [],
      "stateMutability": "nonpayable",
      "type": "function"
    },
    {
      "inputs": [
        {
          "internalType": "uint256",
          "name": "tokenId_",
          "type": "uint256"
        },
        {
          "internalType": "uint256",
          "name": "valueSeconds_",
          "type": "uint256"
        }
      ],
      "name": "addTime",
      "outputs": [],
      "stateMutability": "nonpayable",
      "type": "function"
    },
    {
      "inputs": [
        {
          "internalType": "uint256",
          "name": "tokenId_",
          "type": "uint256"
        },
        {
          "internalType": "address",
          "name": "operator_",
          "type": "address"
        }
      ],
      "name": "allowance",
      "outputs": [
        {
          "internalType": "uint256",
          "name": "",
          "type": "uint256"
        }
      ],
      "stateMutability": "view",
      "type": "function"
    },
    {
      "inputs": [
        {
          "internalType": "address",
          "name": "to_",
          "type": "address"
        },
        {
          "internalType": "uint256",
          "name": "tokenId_",
          "type": "uint256"
        }
      ],
      "name": "approve",
      "outputs": [],
      "stateMutability": "payable",
      "type": "function"
    },
    {
      "inputs": [
        {
          "internalType": "uint256",
          "name": "tokenId_",
          "type": "uint256"
        },
        {
          "internalType": "address",
          "name": "to_",
          "type": "address"
        },
        {
          "internalType": "uint256",
          "name": "value_",
          "type": "uint256"
        }
      ],
      "name": "approve",
      "outputs": [],
      "stateMutability": "payable",
      "type": "function"
    },
    {
      "inputs": [
        {
          "internalType": "address",
          "name": "owner_",
          "type": "address"
        }
      ],
      "name": "balanceOf",
      "outputs": [
        {
          "internalType": "uint256",
          "name": "balance",
          "type": "uint256"
        }
      ],
      "stateMutability": "view",
      "type": "function"
    },
    {
      "inputs": [
        {
          "internalType": "uint256",
          "name": "tokenId_",
          "type": "uint256"
        }
      ],
      "name": "balanceOf",
      "outputs": [
        {
          "internalType": "uint256",
          "name": "",
          "type": "uint256"
        }
      ],
      "stateMutability": "view",
      "type": "function"
    },
    {
      "inputs": [],
      "name": "contractAdmin",
      "outputs": [
        {
          "internalType": "address",
          "name": "",
          "type": "address"
        }
      ],
      "stateMutability": "view",
      "type": "function"
    },
    {
      "inputs": [],
      "name": "contractURI",
      "outputs": [
        {
          "internalType": "string",
          "name": "",
          "type": "string"
        }
      ],
      "stateMutability": "view",
      "type": "function"
    },
    {
      "inputs": [],
      "name": "creditType",
      "outputs": [
        {
          "internalType": "string",
          "name": "",
          "type": "string"
        }
      ],
      "stateMutability": "view",
      "type": "function"
    },
    {
      "inputs": [
        {
          "internalType": "uint256",
          "name": "tokenId_",
          "type": "uint256"
        }
      ],
      "name": "getApproved",
      "outputs": [
        {
          "internalType": "address",
          "name": "",
          "type": "address"
        }
      ],
      "stateMutability": "view",
      "type": "function"
    },
    {
      "inputs": [
        {
          "internalType": "bytes32",
          "name": "role",
          "type": "bytes32"
        }
      ],
      "name": "getRoleAdmin",
      "outputs": [
        {
          "internalType": "bytes32",
          "name": "",
          "type": "bytes32"
        }
      ],
      "stateMutability": "view",
      "type": "function"
    },
    {
      "inputs": [
        {
          "internalType": "uint256",
          "name": "tokenId",
          "type": "uint256"
        }
      ],
      "name": "getTokenDescription",
      "outputs": [
        {
          "internalType": "string",
          "name": "",
          "type": "string"
        }
      ],
      "stateMutability": "view",
      "type": "function"
    },
    {
      "inputs": [
        {
          "internalType": "uint256",
          "name": "tokenId",
          "type": "uint256"
        }
      ],
      "name": "getTokenImage",
      "outputs": [
        {
          "internalType": "string",
          "name": "",
          "type": "string"
        }
      ],
      "stateMutability": "view",
      "type": "function"
    },
    {
      "inputs": [
        {
          "internalType": "uint256",
          "name": "tokenId",
          "type": "uint256"
        }
      ],
      "name": "getTokenUUID",
      "outputs": [
        {
          "internalType": "string",
          "name": "",
          "type": "string"
        }
      ],
      "stateMutability": "view",
      "type": "function"
    },
    {
      "inputs": [
        {
          "internalType": "bytes32",
          "name": "role",
          "type": "bytes32"
        },
        {
          "internalType": "address",
          "name": "account",
          "type": "address"
        }
      ],
      "name": "grantRole",
      "outputs": [],
      "stateMutability": "nonpayable",
      "type": "function"
    },
    {
      "inputs": [
        {
          "internalType": "bytes32",
          "name": "role",
          "type": "bytes32"
        },
        {
          "internalType": "address",
          "name": "account",
          "type": "address"
        }
      ],
      "name": "hasRole",
      "outputs": [
        {
          "internalType": "bool",
          "name": "",
          "type": "bool"
        }
      ],
      "stateMutability": "view",
      "type": "function"
    },
    {
      "inputs": [
        {
          "internalType": "address",
          "name": "owner_",
          "type": "address"
        },
        {
          "internalType": "address",
          "name": "operator_",
          "type": "address"
        }
      ],
      "name": "isApprovedForAll",
      "outputs": [
        {
          "internalType": "bool",
          "name": "",
          "type": "bool"
        }
      ],
      "stateMutability": "view",
      "type": "function"
    },
    {
      "inputs": [
        {
          "internalType": "uint256",
          "name": "tokenId_",
          "type": "uint256"
        }
      ],
      "name": "isValid",
      "outputs": [
        {
          "internalType": "bool",
          "name": "",
          "type": "bool"
        }
      ],
      "stateMutability": "view",
      "type": "function"
    },
    {
      "inputs": [],
      "name": "metadataDescriptor",
      "outputs": [
        {
          "internalType": "contract IERC3525MetadataDescriptor",
          "name": "",
          "type": "address"
        }
      ],
      "stateMutability": "view",
      "type": "function"
    },
    {
      "inputs": [
        {
          "internalType": "address",
          "name": "owner_",
          "type": "address"
        },
        {
          "internalType": "uint256",
          "name": "slot_",
          "type": "uint256"
        },
        {
          "internalType": "uint256",
          "name": "value_",
          "type": "uint256"
        },
        {
          "internalType": "string",
          "name": "uuid_",
          "type": "string"
        },
        {
          "internalType": "string",
          "name": "token_description_",
          "type": "string"
        },
        {
          "internalType": "string",
          "name": "token_image_",
          "type": "string"
        }
      ],
      "name": "mint",
      "outputs": [
        {
          "internalType": "uint256",
          "name": "",
          "type": "uint256"
        }
      ],
      "stateMutability": "nonpayable",
      "type": "function"
    },
    {
      "inputs": [
        {
          "internalType": "address",
          "name": "owner_",
          "type": "address"
        },
        {
          "internalType": "uint256",
          "name": "slotId_",
          "type": "uint256"
        },
        {
          "internalType": "uint256",
          "name": "timeValue_",
          "type": "uint256"
        },
        {
          "internalType": "uint256",
          "name": "paidValue_",
          "type": "uint256"
        },
        {
          "internalType": "uint256",
          "name": "validStart_",
          "type": "uint256"
        },
        {
          "internalType": "uint256",
          "name": "validExpiration_",
          "type": "uint256"
        },
        {
          "internalType": "string",
          "name": "uuid_",
          "type": "string"
        },
        {
          "internalType": "string",
          "name": "tokenDescription_",
          "type": "string"
        },
        {
          "internalType": "string",
          "name": "tokenImage_",
          "type": "string"
        },
        {
          "internalType": "bool",
          "name": "transfersAllowed_",
          "type": "bool"
        },
        {
          "internalType": "uint256",
          "name": "minAllowedValueTransfer_",
          "type": "uint256"
        }
      ],
      "name": "mintTime",
      "outputs": [
        {
          "internalType": "uint256",
          "name": "",
          "type": "uint256"
        }
      ],
      "stateMutability": "nonpayable",
      "type": "function"
    },
    {
      "inputs": [],
      "name": "name",
      "outputs": [
        {
          "internalType": "string",
          "name": "",
          "type": "string"
        }
      ],
      "stateMutability": "view",
      "type": "function"
    },
    {
      "inputs": [
        {
          "internalType": "address",
          "name": "owner_",
          "type": "address"
        },
        {
          "internalType": "uint256",
          "name": "slot_",
          "type": "uint256"
        },
        {
          "internalType": "uint256",
          "name": "value_",
          "type": "uint256"
        },
        {
          "internalType": "uint256",
          "name": "discountBasisPts_",
          "type": "uint256"
        },
        {
          "internalType": "string",
          "name": "uuid_",
          "type": "string"
        },
        {
          "internalType": "string",
          "name": "tokenDescription_",
          "type": "string"
        },
        {
          "internalType": "string",
          "name": "tokenImage_",
          "type": "string"
        }
      ],
      "name": "networkMintWithDiscount",
      "outputs": [
        {
          "internalType": "uint256",
          "name": "",
          "type": "uint256"
        }
      ],
      "stateMutability": "nonpayable",
      "type": "function"
    },
    {
      "inputs": [
        {
          "internalType": "address",
          "name": "owner_",
          "type": "address"
        },
        {
          "internalType": "uint256",
          "name": "slot_",
          "type": "uint256"
        },
        {
          "internalType": "uint256",
          "name": "value_",
          "type": "uint256"
        },
        {
          "internalType": "uint256",
          "name": "tVRate_",
          "type": "uint256"
        },
        {
          "internalType": "string",
          "name": "uuid_",
          "type": "string"
        },
        {
          "internalType": "string",
          "name": "token_description_",
          "type": "string"
        },
        {
          "internalType": "string",
          "name": "token_image_",
          "type": "string"
        }
      ],
      "name": "networkMintWithTVRate",
      "outputs": [
        {
          "internalType": "uint256",
          "name": "",
          "type": "uint256"
        }
      ],
      "stateMutability": "nonpayable",
      "type": "function"
    },
    {
      "inputs": [
        {
          "internalType": "uint256",
          "name": "tokenId_",
          "type": "uint256"
        }
      ],
      "name": "ownerOf",
      "outputs": [
        {
          "internalType": "address",
          "name": "owner_",
          "type": "address"
        }
      ],
      "stateMutability": "view",
      "type": "function"
    },
    {
      "inputs": [
        {
          "internalType": "uint256",
          "name": "tokenId_",
          "type": "uint256"
        },
        {
          "internalType": "uint256",
          "name": "slotId_",
          "type": "uint256"
        },
        {
          "internalType": "uint256",
          "name": "valueSeconds_",
          "type": "uint256"
        }
      ],
      "name": "redeem",
      "outputs": [],
      "stateMutability": "nonpayable",
      "type": "function"
    },
    {
      "inputs": [
        {
          "internalType": "uint256",
          "name": "slotId_",
          "type": "uint256"
        }
      ],
      "name": "registerOnSlot",
      "outputs": [],
      "stateMutability": "nonpayable",
      "type": "function"
    },
    {
      "inputs": [
        {
          "internalType": "bytes32",
          "name": "role",
          "type": "bytes32"
        },
        {
          "internalType": "address",
          "name": "account",
          "type": "address"
        }
      ],
      "name": "renounceRole",
      "outputs": [],
      "stateMutability": "nonpayable",
      "type": "function"
    },
    {
      "inputs": [
        {
          "internalType": "bytes32",
          "name": "role",
          "type": "bytes32"
        },
        {
          "internalType": "address",
          "name": "account",
          "type": "address"
        }
      ],
      "name": "revokeRole",
      "outputs": [],
      "stateMutability": "nonpayable",
      "type": "function"
    },
    {
      "inputs": [
        {
          "internalType": "address",
          "name": "from_",
          "type": "address"
        },
        {
          "internalType": "address",
          "name": "to_",
          "type": "address"
        },
        {
          "internalType": "uint256",
          "name": "tokenId_",
          "type": "uint256"
        }
      ],
      "name": "safeTransferFrom",
      "outputs": [],
      "stateMutability": "payable",
      "type": "function"
    },
    {
      "inputs": [
        {
          "internalType": "address",
          "name": "from_",
          "type": "address"
        },
        {
          "internalType": "address",
          "name": "to_",
          "type": "address"
        },
        {
          "internalType": "uint256",
          "name": "tokenId_",
          "type": "uint256"
        },
        {
          "internalType": "bytes",
          "name": "data_",
          "type": "bytes"
        }
      ],
      "name": "safeTransferFrom",
      "outputs": [],
      "stateMutability": "payable",
      "type": "function"
    },
    {
      "inputs": [
        {
          "internalType": "address",
          "name": "operator_",
          "type": "address"
        },
        {
          "internalType": "bool",
          "name": "approved_",
          "type": "bool"
        }
      ],
      "name": "setApprovalForAll",
      "outputs": [],
      "stateMutability": "nonpayable",
      "type": "function"
    },
    {
      "inputs": [
        {
          "internalType": "uint256",
          "name": "tokenId_",
          "type": "uint256"
        }
      ],
      "name": "slotOf",
      "outputs": [
        {
          "internalType": "uint256",
          "name": "",
          "type": "uint256"
        }
      ],
      "stateMutability": "view",
      "type": "function"
    },
    {
      "inputs": [
        {
          "internalType": "uint256",
          "name": "slot_",
          "type": "uint256"
        }
      ],
      "name": "slotURI",
      "outputs": [
        {
          "internalType": "string",
          "name": "",
          "type": "string"
        }
      ],
      "stateMutability": "view",
      "type": "function"
    },
    {
      "inputs": [
        {
          "internalType": "bytes4",
          "name": "interfaceId",
          "type": "bytes4"
        }
      ],
      "name": "supportsInterface",
      "outputs": [
        {
          "internalType": "bool",
          "name": "",
          "type": "bool"
        }
      ],
      "stateMutability": "view",
      "type": "function"
    },
    {
      "inputs": [],
      "name": "symbol",
      "outputs": [
        {
          "internalType": "string",
          "name": "",
          "type": "string"
        }
      ],
      "stateMutability": "view",
      "type": "function"
    },
    {
      "inputs": [
        {
          "internalType": "uint256",
          "name": "index_",
          "type": "uint256"
        }
      ],
      "name": "tokenByIndex",
      "outputs": [
        {
          "internalType": "uint256",
          "name": "",
          "type": "uint256"
        }
      ],
      "stateMutability": "view",
      "type": "function"
    },
    {
      "inputs": [
        {
          "internalType": "address",
          "name": "owner_",
          "type": "address"
        },
        {
          "internalType": "uint256",
          "name": "index_",
          "type": "uint256"
        }
      ],
      "name": "tokenOfOwnerByIndex",
      "outputs": [
        {
          "internalType": "uint256",
          "name": "",
          "type": "uint256"
        }
      ],
      "stateMutability": "view",
      "type": "function"
    },
    {
      "inputs": [
        {
          "internalType": "uint256",
          "name": "tokenId_",
          "type": "uint256"
        }
      ],
      "name": "tokenURI",
      "outputs": [
        {
          "internalType": "string",
          "name": "",
          "type": "string"
        }
      ],
      "stateMutability": "view",
      "type": "function"
    },
    {
      "inputs": [],
      "name": "totalSupply",
      "outputs": [
        {
          "internalType": "uint256",
          "name": "",
          "type": "uint256"
        }
      ],
      "stateMutability": "view",
      "type": "function"
    },
    {
      "inputs": [
        {
          "internalType": "uint256",
          "name": "fromTokenId_",
          "type": "uint256"
        },
        {
          "internalType": "address",
          "name": "to_",
          "type": "address"
        },
        {
          "internalType": "uint256",
          "name": "value_",
          "type": "uint256"
        }
      ],
      "name": "transferFrom",
      "outputs": [
        {
          "internalType": "uint256",
          "name": "",
          "type": "uint256"
        }
      ],
      "stateMutability": "payable",
      "type": "function"
    },
    {
      "inputs": [
        {
          "internalType": "address",
          "name": "from_",
          "type": "address"
        },
        {
          "internalType": "address",
          "name": "to_",
          "type": "address"
        },
        {
          "internalType": "uint256",
          "name": "tokenId_",
          "type": "uint256"
        }
      ],
      "name": "transferFrom",
      "outputs": [],
      "stateMutability": "payable",
      "type": "function"
    },
    {
      "inputs": [
        {
          "internalType": "uint256",
          "name": "fromTokenId_",
          "type": "uint256"
        },
        {
          "internalType": "uint256",
          "name": "toTokenId_",
          "type": "uint256"
        },
        {
          "internalType": "uint256",
          "name": "value_",
          "type": "uint256"
        }
      ],
      "name": "transferFrom",
      "outputs": [],
      "stateMutability": "payable",
      "type": "function"
    },
    {
      "inputs": [],
      "name": "valueDecimals",
      "outputs": [
        {
          "internalType": "uint8",
          "name": "",
          "type": "uint8"
        }
      ],
      "stateMutability": "view",
      "type": "function"
    }
  ],
  "bytecode": "0x60e0806040523462000b8157600060c05262008784803803809162000025828562000bb8565b83398101906101c0818303126200091057620000418162000bdc565b60a052620000526020820162000bdc565b90620000616040820162000bdc565b91620000706060830162000bdc565b608052620000816080830162000bdc565b60a083015160c0840151909291906001600160401b038111620009105786620000ac91860162000c16565b60e08501519095906001600160401b038111620009105787620000d191870162000c16565b6101008601519096906001600160401b038111620009105788620000f791880162000c16565b6101208701519091906001600160401b0381116200091057896200011d91890162000c16565b6101408801519091906001600160401b03811162000910578a62000143918a0162000c16565b6101608901519091906001600160401b03811162000910578b62000169918b0162000c16565b6101808a0151909b906001600160401b03811162000910576101a09162000192918c0162000c16565b9901519960ff8b168b03620009105762000201602e8d956040519681620001c489935180926020808701910162000bf1565b82016c5102a34b6b2903ab734ba399d160951b6020820152620001f1825180936020878501910162000bf1565b0103600e81018752018562000bb8565b60405191620002108362000b86565b600483526374696d6560e01b602084015280516001600160401b038111620007ec5760c051805490600182811c9216801562000b76575b6020831014620007ca5750601f811162000b2a575b5060c05191602092601f831160011462000aba575060c0519283918362000aae575b50508160011b916000199060031b1c19161790555b8051906001600160401b038211620007ec5760015460c051600182811c9216801562000aa3575b6020831014620007ca57509081601f84931162000a49575b5060c05190602091601f8411600114620009d6575060c05192620009ca575b50508160011b916000199060031b1c1916176001555b6002805460ff191660ff8c16179055600b889055600c54600a80546001600160a01b0319166001600160a01b038a161790556040518251919291602080830192916200036d919083906200035f8187858a0162000bf1565b810103808452018262000bb8565b51902060405160208101906374696d6560e01b825260048152620003918162000b86565b5190200362000916575060c0515b6004811015620008f8576001600160a81b031982166001600160a01b03871690811760a083901b60ff60a01b1617600c553b1562000910576040516394b39b0960e01b81526001600160a01b03898116600480840191909152602483018c90529193916001600160a81b031983169189169190911760a084811b60ff60a01b1691909117901c60ff161015620008f8576001600160a81b0319166001600160a01b03871690811760a092831b60ff60a01b161790911c60ff16604483015260c051908290606490829084905af18015620008eb57620008d2575b50604051926001600160401b036124ae850190811190851117620007ec57620004ee92620004c0620004d7926124ae620062b6883960806124ae8801818152019062000c71565b906124ae8601820360206124ae8801015262000c71565b906124ae8401820360406124ae8601015262000c71565b6001600160a01b039092166124ae82016060015260c051918190039082f0908115620008c6575060018060a01b031660018060a01b031960085416176008557f1cd6d520d98babae1045eb69c31ecab800996aa332094cb55c0ac10362e9b0c9908160c05152600960205260c051604081209160018060a01b0316918260005260205260ff604060002054161562000882575b5050507f9a95e87c5af084bf5db8491c3a6515da9dd6da39b24b0eb0af08d7b9cd808d918060c05152600960205260c0516040812060018060a01b03841660005260205260ff60406000205416156200082d575b5050507f9ac4f8025631594629895b778dc5ee88d01673a254a2291f6b6b174ad25230ca602060018060a01b0360085416604051908152a1600b556020815191012060046020604051620006298162000b86565b82815201635553444360e01b8152201462000804575b60a051601280546001600160a01b0319166001600160a01b039290921691909117905581516001600160401b038111620007ec5760145460c051600182811c92168015620007e1575b6020831014620007ca5750601f811162000779575b5060c05192602090601f83116001146200070e578293945060c0519262000702575b50508160011b916000199060031b1c1916176014555b6013805460ff60a01b191660a09290921b60ff60a01b1691909117905560405161561d908162000c998239f35b015190503880620006bf565b906014601f198416955260c0519160208320925b86811062000760575083600195961062000746575b505050811b01601455620006d5565b015160001960f88460031b161c1916905538808062000737565b9192602060018192868501518155019401920162000722565b601460c0515260c05160208120601f840160051c81019260208510620007bf575b601f0160051c01915b828110620007b35750506200069d565b818155600101620007a3565b90925082906200079a565b634e487b7160e01b9052602260045260c051602490fd5b91607f169162000688565b634e487b7160e01b60c051526041600452602460c051fd5b608051601380546001600160a01b0319166001600160a01b03929092169190911790556200063f565b819052600960205260c051906040822060018060a01b0384166000526020526040600020600160ff1982541617905560008051602062008764833981519152339360018060a01b03169280a4388080620005d5565b829052600960205260c0519160408320826000526020526040600020600160ff1982541617905560008051602062008764833981519152339380a438808062000581565b604051903d90823e3d90fd5b6001600160401b038111620007ec576040523862000479565b6040513d60c051823e3d90fd5b634e487b7160e01b60c051526021600452602460c051fd5b60c05180fd5b60405160208101906200093660208285516200035f8187858a0162000bf1565b5190206040516020810190630c6c2e6d60e31b8252600481526200095a8162000b86565b519020036200096c575060016200039f565b6040516200098c602082816200035f818301968781519384920162000bf1565b5190206040516020810190646974656d7360d81b825260058152620009b18162000b86565b51902003620009c25760026200039f565b60036200039f565b015190503880620002f1565b60019194505260c051906020822091935b601f198416851062000a2d576001945083601f1981161062000a13575b505050811b0160015562000307565b015160001960f88460031b161c1916905538808062000a04565b81810151835560209485019460019093019290910190620009e7565b909150600160c0515260c05160208120601f850160051c81016020861062000a9b575b9085949392915b601f840160051c8201811062000a8c57505050620002d2565b82815586955060010162000a73565b508062000a6c565b91607f1691620002ba565b0151905038806200027e565b805260c0516020812090938493925b601f198416851062000b0e576001945083601f1981161062000af4575b505050811b01905562000293565b015160001960f88460031b161c1916905538808062000ae6565b8181015183556020948501946001909301929091019062000ac9565b60c051805260c05160208120601f840160051c81016020851062000b6e575b601f840160051c8201811062000b62575050506200025c565b82815560010162000b49565b508062000b49565b91607f169162000247565b600080fd5b604081019081106001600160401b0382111762000ba257604052565b634e487b7160e01b600052604160045260246000fd5b601f909101601f19168101906001600160401b0382119082101762000ba257604052565b51906001600160a01b038216820362000b8157565b60005b83811062000c055750506000910152565b818101518382015260200162000bf4565b81601f8201121562000b815780516001600160401b03811162000ba2576040519262000c4d601f8301601f19166020018562000bb8565b8184526020828401011162000b815762000c6e916020808501910162000bf1565b90565b9060209162000c8c8151809281855285808601910162000bf1565b601f01601f191601019056fe60806040908082526004918236101561001757600080fd5b600091823560e01c90816301ffc9a7146127df5750806306fdde031461270f578063081812fc146126ef578063095ea7b3146125bb57806309c3dd87146122cb5780630f485c02146122045780631375d8431461219f57806318160ddd1461218157806323b872dd146120ba578063248a9ca31461208f578063263f3e7e1461206f578063268cb20b14611c635780632f2ff15d14611bb55780632f745c5914611b0c578063310ed7f01461153457806331b5b907146114ac57806336568abe1461141b5780633e7e8669146113fa57806341815ee41461130c57806342842e0e146112e9578063476de4a8146112665780634f6ccce7146111e05780636352211e146111af57806370a082311461118a57806371f0442e1461112557806377955245146110fd578063791581c614610fff5780638005f5db14610e09578063840f711314610de15780638cb0a51114610c9557806391d1485414610c4f57806395d89b4114610b6c5780639cc7f70814610b4c578063a217fddf14610b32578063a22cb46514610a58578063a7c9f2d614610a1e578063b3154c08146109b9578063b819220514610673578063b88d4fde14610618578063bd8c6507146105f7578063be950a62146104a9578063c87b56dd1461040b578063d09445c2146103d1578063d547741f14610392578063e345e0bc14610360578063e8a3d485146102ce578063e985e9c51461027c5763f577a5001461023557600080fd5b3461027857602036600319011261027857602092358252600e8352808220544210159182610267575b50519015158152f35b81902060010154421091503861025e565b5080fd5b503461027857806003193601126102785760209161029861287b565b6002836102a3612891565b9360018060a01b0380941681526007875220019116600052825260ff81600020541690519015158152f35b5082903461035c578260031936011261035c5760085481516331264fc160e01b815292849184919082906001600160a01b03165afa9182156103525783610329949361032d575b505051918291602083526020830190612856565b0390f35b61034a9293503d8091833e6103428183612980565b810190612fee565b908380610315565b81513d85823e3d90fd5b8280fd5b50903461038f578160031936011261038f5750610388602092610381612891565b903561431e565b9051908152f35b80fd5b5082903461035c578060031936011261035c576103ce91356103c960016103b7612891565b93838752600960205286200154612aa6565b612ddb565b80f35b5034610278578160031936011261027857602090517f9a95e87c5af084bf5db8491c3a6515da9dd6da39b24b0eb0af08d7b9cd808d918152f35b5082903461035c57602036600319011261035c5782823561042b81613f89565b8015610495575b61043b90613223565b6008546001600160a01b0316936044906104548361538c565b95855196879485936304e6f55760e51b855284015260248301525afa9182156103525783610329949361032d57505051918291602083526020830190612856565b5061043b6104a282613fcf565b9050610432565b5034610278576020366003190112610278577f9a95e87c5af084bf5db8491c3a6515da9dd6da39b24b0eb0af08d7b9cd808d91825260096020528082203360005260205260ff8160002054161561058f57600c54600a546001600160a01b0390811692919081169060a01c60ff16813b1561058b578251936394b39b0960e01b855286850152853560248501528581101561057857849550606484868094829460448401525af190811561056f575061055f5750f35b61056890612906565b61038f5780f35b513d84823e3d90fd5b634e487b7160e01b855260218652602485fd5b8480fd5b5162461bcd60e51b8152602081840152603760248201527f53656e646572206e6f7420617574686f72697a656420746f207265676973746560448201527f7220636f6e747261637420746f207468697320736c6f740000000000000000006064820152608490fd5b50346102785760209061038861060c36612a2b565b95949094939193613d7b565b828460803660031901126102785761062e61287b565b610636612891565b906064356001600160401b03811161058b573660238201121561058b576103ce93816024610669933693013591016129bc565b916044359161314c565b5091346102785761068336612a11565b91929061068f8461326f565b6001600160a01b0390811633148015610979575b1561092a57856106b286613f89565b80610917575b156108195750848652600f6020526106ed6106d68589892054612e51565b6106e760ff60135460a01c16614413565b9061304c565b915b81601354169160125416823b15610815578851632b83cccd60e01b81526001600160a01b03909116858201908152602081019290925260408201939093528691839182908490829060600103925af1801561080b579085916107f3575b505061075783614051565b8284526006602052600261076d86862054612f8c565b5001908154908382106107a4575091849560209261079a836000805160206155c883398151915296613704565b905551908152a380f35b608490602088519162461bcd60e51b8352820152602360248201527f455243333532353a206275726e2076616c756520657863656564732062616c616044820152626e636560e81b6064820152fd5b6107fc90612906565b61080757833861074c565b8380fd5b86513d87823e3d90fd5b8780fd5b9161083186600052600d602052604060002054151590565b156106ef5791508486526020600d8152878720548015156000146108d7578183600c54169160248b518094819363cd5a2c3960e01b83528a8301525afa9182156108cd57908692918992610895575b505061088f916106d691612e51565b916106ef565b8193508092503d83116108c6575b6108ad8183612980565b810103126108c157518490816106d6610880565b600080fd5b503d6108a3565b89513d8a823e3d90fd5b5060248183600c54168a519283809263cd5a2c3960e01b82528b8a8301525afa9182156108cd5790869291899261089557505061088f916106d691612e51565b5061092186612fc7565b600b54146106b8565b865162461bcd60e51b8152602081850152602360248201527f53656e646572206973206e6f7420617574686f72697a656420746f207265646560448201526232b69760e91b6064820152608490fd5b507f1cd6d520d98babae1045eb69c31ecab800996aa332094cb55c0ac10362e9b0c9865260096020528686203360005260205260ff8760002054166106a3565b5082903461035c57602036600319011261035c576008548151631662a98160e31b81528335938101939093528390839060249082906001600160a01b03165afa9182156103525783610329949361032d57505051918291602083526020830190612856565b5034610278578160031936011261027857602090517f1cd6d520d98babae1045eb69c31ecab800996aa332094cb55c0ac10362e9b0c98152f35b5082903461035c578060031936011261035c57610a7361287b565b90602435801515928382036108c1576001600160a01b031693338514610aef5750610ac290338652600760205260028387200185600052602052826000209060ff801983541691151516179055565b519081527f17307eab39ab6107e8899845ad3d59bd9653f200f220920489ca2b5937696c3160203392a380f35b606490602084519162461bcd60e51b8352820152601a60248201527f455243333532353a20617070726f766520746f2063616c6c65720000000000006044820152fd5b503461027857816003193601126102785751908152602090f35b50903461038f57602036600319011261038f57506103886020923561538c565b50903461038f578060031936011261038f575080516000916001805490610b9282612eae565b80855291818116908115610c275750600114610bcc575b5050610bba82610329940383612980565b51918291602083526020830190612856565b600081815294507fb10e2d527612073b26eecdfd717e6a320cf44b4afac2b0732d9fcbe2b7fa0cf65b828610610c0f5750505091810160200191610bba82610ba9565b80546020878701810191909152909501948101610bf5565b61032996508592506020915092610bba9360ff191682840152151560051b8201019450610ba9565b50823461035c578160031936011261035c5781602093610c6d612891565b9235815260098552209060018060a01b0316600052825260ff81600020541690519015158152f35b5091610ca0366128a7565b92610cac839293614051565b610cb582613f89565b80610dce575b15610d5857610ce06001600160a01b0380610cd58561326f565b1690851614156131cc565b610cea82336132f2565b15610cfb57506103ce93945061414c565b608490602087519162461bcd60e51b8352820152603160248201527f455243333532353a20617070726f76652063616c6c6572206973206e6f74206f6044820152701ddb995c881b9bdc88185c1c1c9bdd9959607a1b6064820152fd5b909184959260018060a01b03600c5416908652600d60205283862054813b15610dca578451638cb0a51160e01b81529384019081526001600160a01b03909216602083015260408201949094529092849184919082908490829060600103925af190811561056f575061055f57505080f35b8680fd5b50610dd882612fc7565b600b5414610cbb565b503461027857816003193601126102785760085490516001600160a01b039091168152602090f35b50819234610ffb57610e1a36612a2b565b600c548951630151086360e31b81526001600160a01b039889168a820190815260208101989098526040880196909652606087019490945293989593949092841690899081906080010381885a94602095f1978815610fb7578598610fc5575b508260085416803b15610fc1578786918a838a610eb5855197889687958694632108947560e21b865285015260248401526044830190612856565b03925af18015610fb757908591610fa3575b50508160085416803b1561058b57610f0391859189838a5180968195829463246a908b60e01b84528d8401528d60248401526044830190612856565b03925af18015610f9957908491610f85575b505060085416803b1561035c578583610f4e95875196879586948593630190503b60e61b85528401528960248401526044830190612856565b03925af18015610f7b57610f67575b6020838351908152f35b610f718491612906565b61035c5782610f5d565b82513d86823e3d90fd5b610f8e90612906565b61035c578238610f15565b86513d86823e3d90fd5b610fac90612906565b610807578338610ec7565b87513d87823e3d90fd5b8580fd5b945096506020843d8211610ff3575b81610fe160209383612980565b810103126108c1578793519638610e7a565b3d9150610fd4565b5050fd5b509134610278578260031936011261027857803560243591818452600e602052600185852001544210156110a257506103ce929361104e836110496110438561538c565b42612e7a565b612e7a565b828652600e602052600182872001541061107d575b5061106d8161326f565b5061107781612fc7565b50613d38565b600161108f846110496110438661538c565b91838752600e6020528620015538611063565b608490602086519162461bcd60e51b8352820152602f60248201527f54696d654372656469743a2063616e6e6f74206164642074696d6520746f206160448201526e371032bc3834b932b2103a37b5b2b760891b6064820152fd5b5034610278578160031936011261027857600a5490516001600160a01b039091168152602090f35b5082903461035c57602036600319011261035c5760085481516338f8221760e11b81528335938101939093528390839060249082906001600160a01b03165afa9182156103525783610329949361032d57505051918291602083526020830190612856565b5034610278576020366003190112610278576020906103886111aa61287b565b61306c565b50903461038f57602036600319011261038f57506111cf602092356140b3565b90516001600160a01b039091168152f35b5091903461038f57602036600319011261038f57508035906005548210156112175760208361120e84612f8c565b50549051908152f35b608490602084519162461bcd60e51b8352820152602360248201527f455243333532353a20676c6f62616c20696e646578206f7574206f6620626f756044820152626e647360e81b6064820152fd5b50903461038f5760c036600319011261038f5761128161287b565b926001600160401b0390606435828111610807576112a290369083016129f3565b9160843581811161058b576112ba90369084016129f3565b9360a43591821161038f5750916112db6103889492602097943691016129f3565b9260443590602435906138d1565b506103ce906112f7366128d1565b9192519261130484612965565b85845261314c565b50823461035c578260031936011261035c5760ff600c5460a01c1692818410156113e857610329936003810361137257505050805161134a8161294a565b60088152677072696f7269747960c01b60208201529051918291602083526020830190612856565b8061139b5750508151906113858261294a565b81526374696d6560e01b60208201525b90610bba565b6002141590506113c8575080516113b18161294a565b60058152646974656d7360d81b6020820152611395565b8151906113d48261294a565b8152630c6c2e6d60e31b6020820152611395565b6021602492634e487b7160e01b835252fd5b503461027857816003193601126102785760209060ff600254169051908152f35b509134610278578260031936011261027857611435612891565b90336001600160a01b0383160361145157906103ce9135612ddb565b608490602085519162461bcd60e51b8352820152602f60248201527f416363657373436f6e74726f6c3a2063616e206f6e6c792072656e6f756e636560448201526e103937b632b9903337b91039b2b63360891b6064820152fd5b5091819234610ffb576020366003190112610ffb5781356001600160401b03811161152f576114de90369084016129f3565b6008546001600160a01b03169290833b1561058b5761151c9360208680948651978895869485936355f804b360e01b85528401526024830190612856565b03925af190811561056f575061055f5750f35b505050fd5b509161154a61154236612a11565b9290926144ee565b928185526020906010825261156460ff8888205416614835565b8286526011825261157a8787205486101561488f565b828652600e825260018787200154421015611aac57838652600e825260018787200154421015611a4c576115b06110438561364d565b848752600e835260018888200154106119cd576115cc83613f89565b806119ba575b80611997575b1561171357828652600f8252868620548487528787205403611602575b50506103ce9394506151cd565b61161983600052600d602052604060002054151590565b806116f6575b15611684575085600f6116746116596106e761166d8a6116678b6103ce9d9e6116478d61364d565b9687928d86528a8d5282862054612e51565b938d8152898c522054612e51565b90612e7a565b9189612e7a565b92858952528620558493386115f5565b60a49187519162461bcd60e51b8352820152604260248201527f54696d654372656469743a2063616c6320636f6e74726163742074696d652d7660448201527f616c7565207261746520726571756972657320636f6e747261637420746f6b656064820152616e7360f01b6084820152fd5b5061170e84600052600d602052604060002054151590565b61161f565b9261172383969793959295613f89565b80611984575b158061195b575b156118fe576117408282886151cd565b600c548351639448bddb60e01b8152858101929092526001600160a01b03908116969092889187846024818c5afa9384156118f45790889184956118c5575b50808452600d825286842054908115611889575060248751809b819363cd5a2c3960e01b83528b8301525afa801561187f578798839896979891611846575b506117ce60449493928692612e51565b6117e4601354916106e760ff8460a01c16614413565b8851998a97889663a9059cbb60e01b885216908601526024850152165af190811561183d575061181357505080f35b8161183292903d10611836575b61182a8183612980565b810190613fb7565b5080f35b503d611820565b513d85823e3d90fd5b9580929493508691503d8311611878575b6118618183612980565b810103126108c157925186939188916117ce6117be565b503d611857565b85513d84823e3d90fd5b905060248751809b819363cd5a2c3960e01b83528b8301525afa801561187f57879883989697989161184657506117ce60449493928692612e51565b6118e6919550823d84116118ed575b6118de8183612980565b810190614094565b933861177f565b503d6118d4565b86513d85823e3d90fd5b825162461bcd60e51b8152808501869052603160248201527f54696d654372656469743a207472616e7366657220746f20746f6b656e2077696044820152701d1a08191a5999995c995b9d081cdb1bdd607a1b6064820152608490fd5b5061196581613f89565b80611971575b15611730565b5061197b81612fc7565b600b541461196b565b5061198e86612fc7565b600b5414611729565b506119a184613f89565b80156115d857506119b184612fc7565b600b54146115d8565b506119c483612fc7565b600b54146115d2565b60a49187519162461bcd60e51b8352820152604f60248201527f54696d654372656469743a2074696d652076616c7565206f6620746f6b656e2060448201527f726563656976696e67207472616e7366657220657863656564732074696d652060648201526e3a34b6361032bc3834b930ba34b7b760891b6084820152fd5b60849187519162461bcd60e51b8352820152603660248201527f54696d654372656469743a2063616e6e6f74207472616e736665722074696d656044820152751034b73a379030b71032bc3834b932b2103a37b5b2b760511b6064820152fd5b60849187519162461bcd60e51b8352820152603660248201527f54696d654372656469743a2063616e6e6f74207472616e736665722074696d6560448201527510333937b69030b71032bc3834b932b2103a37b5b2b760511b6064820152fd5b5091903461038f578260031936011261038f57611b2761287b565b60243592611b348261306c565b841015611b6757602085611b598682878760018060a01b0316815260078652206132da565b91905490519160031b1c8152f35b608490602086519162461bcd60e51b8352820152602260248201527f455243333532353a206f776e657220696e646578206f7574206f6620626f756e604482015261647360f01b6064820152fd5b50823461035c578160031936011261035c573590611bd1612891565b908284526009602052611be960018286200154612aa6565b82845260096020528084209160018060a01b0316918260005260205260ff81600020541615611c16578380f35b828452600960205280842082600052602052600020600160ff1982541617905533917f2f8788117e7eff1d82e926ec794901d17c78024a50270940304540a733656f0d8480a48180808380f35b5082903461035c5761016036600319011261035c57611c8061287b565b9160243560443594606435946084359060a4359360c435916001600160401b0392838111610fc157611cb590369089016129f3565b9060e435848111610dca57611ccd9036908a016129f3565b6101043585811161081557611ce59036908b016129f3565b906101243593841515850361206b57611cfd8e6144ee565b9c8a8911612002578a4211611fae578a8e8a4211908b82159384611f97575b5050508115611f67575b5015611f0a576013546001600160a01b0316803b15611f06578d51630ab714fb60e11b815230818f01908152602081018a90526040810184905290918c9183919082908490829060600103925af18015611efc57918f918f9796959493611ead575b509181611dd87f404638021ef9ab6e71dfdc91f4ec2c814e6982dfc99f7ce4dea6800de6d467da979593611dd3611e1a9b9a9896611dcd60ff60135460a01c16614413565b90612e51565b61304c565b998a600b548214600014611e855750611df0956138d1565b9b5b815190815260209d8e820152a189865260108b528886209060ff801983541691151516179055565b611e26610144356144ee565b88855260118a5287852055600f89528684205585519485870191821186831017611e70575085528352858301918252848152600e8652839020915182555160019091015551908152f35b604190634e487b7160e01b6000525260246000fd5b9190611e9096613d7b565b9b6001600354019c8d6003558d8a52600d602052828a2055611df2565b91611dd881611dd3611e1a9b9a9896949f611eea7f404638021ef9ab6e71dfdc91f4ec2c814e6982dfc99f7ce4dea6800de6d467da9b9997612906565b9f9496989a9b50509395975050611d88565b8e513d8d823e3d90fd5b8a80fd5b8c5162461bcd60e51b81526020818e0152603160248201527f54696d654372656469743a2074696d652076616c75652063616e6e6f7420657860448201527018d95959081d985b1a59081c195c9a5bd9607a1b6064820152608490fd5b905080611f8e575b80611f7b575b38611d26565b508d611f87428d613704565b1015611f75565b508a4210611f6f565b611fa392939450613704565b1015908f8b8e611d1c565b8c5162461bcd60e51b81526020818e0152602860248201527f54696d654372656469743a2063616e6e6f74206d696e7420616e20657870697260448201526732b2103a37b5b2b760c11b6064820152608490fd5b8c5162461bcd60e51b81526020818e0152603e60248201527f54696d654372656469743a2076616c69642073746172742074696d65206d757360448201527f74206265206c657373207468616e2065787069726174696f6e2074696d6500006064820152608490fd5b8880fd5b50903461038f57602036600319011261038f575061038860209235612fc7565b50823461035c57602036600319011261035c5781602093600192358152600985522001549051908152f35b50916120c5366128d1565b9283859392935260106020526120e060ff8787205416614835565b6120e98461538c565b8486526011602052868620541161211857506103ce93945061211361210e84336132f2565b6130e5565b613363565b608490602087519162461bcd60e51b8352820152603f60248201527f54696d654372656469743a20746f6b656e2076616c7565206973206c6573732060448201527f7468616e206d696e696d756d207472616e7366657261626c652076616c7565006064820152fd5b50346102785781600319360112610278576020906005549051908152f35b5082903461035c57602036600319011261035c576008548151631375d84360e01b81528335938101939093528390839060249082906001600160a01b03165afa9182156103525783610329949361032d57505051918291602083526020830190612856565b5061221f81936001612215366128a7565b95919490956144ee565b95848152601060205261223760ff8383205416614835565b848152601160205261224e8282205488101561488f565b848152600e60205220015442101561226e57602085610388868686614915565b608490602086519162461bcd60e51b8352820152603160248201527f54696d654372656469743a2063616e6e6f74207472616e736665722066726f6d6044820152701030b71032bc3834b932b2103a37b5b2b760791b6064820152fd5b50823461035c5760209081600319360112610807576008548351636c0360eb60e01b81526001600160a01b039091169180359186818381875afa9081156125b1578791612597575b5083156123855750906024869286519485938492633601bfc560e11b84528301525afa90811561237857846103299394959261235d575b5050925b51928284938452830190612856565b61237192503d8091833e6103428183612980565b848061234a565b50505051903d90823e3d90fd5b80935095919394955115156000146125565783849183957a184f03e93ff9f4daa797ed6e38ed64bf6a1f0100000000000000009081811015612549575b5050866d04ee2d6d415b85acef81000000008085101561253b575b5050662386f26fc100008084101561252c575b506305f5e1008084101561251d575b506127108084101561250f575b505060648210156124ff575b600a809210156124f5575b6001908160218188019761244e6124398a6129a1565b996124468d519b8c612980565b808b526129a1565b898b019790601f190136893750880101905b6124bf575b5050505060256124aa926124b992610329958851958361248e88955180928c8089019101612833565b84019164736c6f742f60d81b8a84015251809386840190612833565b01036005810184520182612980565b9261234e565b600019019083906f181899199a1a9b1b9c1cb0b131b232b360811b8282061a8353049182156124f057919082612460565b612465565b9360010193612423565b9390606460029104910193612418565b95019490910490878061240c565b600891969304920194886123ff565b601091969304920194886123f0565b9601959092049186896123dd565b89975004925088806123c2565b9493925090508251908282018281106001600160401b038211176125845784610329949596505281526124b9565b634e487b7160e01b825260418652602482fd5b6125ab91503d8089833e6103428183612980565b87612313565b86513d89823e3d90fd5b5080839160031936011261035c576125d161287b565b6024359290916001600160a01b03919082806125ec8761326f565b169416936125fc818614156131cc565b8033149081156126cd575b501561266457612621908587526006602052862054612f8c565b500180546001600160a01b0319168317905561263c8361326f565b167f8c5be1e5ebec7d5bd14f71427d1e84f3dd0314c0f7b2291e5b200ac8c7c3b9258480a480f35b906020608492519162461bcd60e51b8352820152603960248201527f455243333532353a20617070726f76652063616c6c6572206973206e6f74206f60448201527f776e6572206e6f7220617070726f76656420666f7220616c6c000000000000006064820152fd5b90508652600760205260028187200133875260205260ff818720541687612607565b50903461038f57602036600319011261038f57506111cf602092356132aa565b503461027857816003193601126102785780519082805461272f81612eae565b808552916001918083169081156127b7575060011461275b575b505050610bba82610329940383612980565b80809650527f290decd9548b62a8d60345a988386fc84ba6bc95484008f6362f93160ef3e5635b82861061279f57505050610bba8260206103299582010194612749565b80546020878701810191909152909501948101612782565b610329975086935060209250610bba94915060ff191682840152151560051b82010194612749565b8390853461035c57602036600319011261035c573563ffffffff60e01b811680910361035c5760209250637965db0b60e01b8114908115612822575b5015158152f35b6301ffc9a760e01b1490508361281b565b60005b8381106128465750506000910152565b8181015183820152602001612836565b9060209161286f81518092818552858086019101612833565b601f01601f1916010190565b600435906001600160a01b03821682036108c157565b602435906001600160a01b03821682036108c157565b60609060031901126108c157600435906024356001600160a01b03811681036108c1579060443590565b60609060031901126108c1576001600160a01b039060043582811681036108c1579160243590811681036108c1579060443590565b6001600160401b03811161291957604052565b634e487b7160e01b600052604160045260246000fd5b60c081019081106001600160401b0382111761291957604052565b604081019081106001600160401b0382111761291957604052565b602081019081106001600160401b0382111761291957604052565b90601f801991011681019081106001600160401b0382111761291957604052565b6001600160401b03811161291957601f01601f191660200190565b9291926129c8826129a1565b916129d66040519384612980565b8294818452818301116108c1578281602093846000960137010152565b9080601f830112156108c157816020612a0e933591016129bc565b90565b60609060031901126108c157600435906024359060443590565b60e06003198201126108c1576004356001600160a01b03811681036108c157916024359160443591606435916001600160401b03916084358381116108c15782612a77916004016129f3565b9260a4358181116108c15783612a8f916004016129f3565b9260c4359182116108c157612a0e916004016129f3565b60009080825260209060098252604092838120338252835260ff848220541615612ad05750505050565b8351916001600160401b0390336060850183811186821017612dc7578752602a85528585019187368437855115612db35760308353855191600192831015612d9f576078602188015360295b838111612d355750612cf35790875193608085019085821090821117612cdf57885260428452868401946060368737845115612ccb57603086538451821015612ccb5790607860218601536041915b818311612c5d57505050612c1b57612c17938693612bfb93612bec604894612bc39a519a8b957f416363657373436f6e74726f6c3a206163636f756e74200000000000000000008c8801525180926037880190612833565b8401917001034b99036b4b9b9b4b733903937b6329607d1b603784015251809386840190612833565b01036028810187520185612980565b5192839262461bcd60e51b845260048401526024830190612856565b0390fd5b60648587519062461bcd60e51b825280600483015260248201527f537472696e67733a20686578206c656e67746820696e73756666696369656e746044820152fd5b909192600f81166010811015612cb7576f181899199a1a9b1b9c1cb0b131b232b360811b901a612c8d8588612e87565b5360041c928015612ca357600019019190612b6b565b634e487b7160e01b82526011600452602482fd5b634e487b7160e01b83526032600452602483fd5b634e487b7160e01b81526032600452602490fd5b634e487b7160e01b86526041600452602486fd5b60648789519062461bcd60e51b825280600483015260248201527f537472696e67733a20686578206c656e67746820696e73756666696369656e746044820152fd5b90600f81166010811015612d8b576f181899199a1a9b1b9c1cb0b131b232b360811b901a612d63838a612e87565b5360041c908015612d775760001901612b1c565b634e487b7160e01b87526011600452602487fd5b634e487b7160e01b88526032600452602488fd5b634e487b7160e01b86526032600452602486fd5b634e487b7160e01b85526032600452602485fd5b634e487b7160e01b85526041600452602485fd5b906000918083526009602052604083209160018060a01b03169182845260205260ff604084205416612e0c57505050565b8083526009602052604083208284526020526040832060ff1981541690557ff6391f5c32d9c69d2a47ea670b442974b53935d1edc7fd64eb21e047a839171b339380a4565b81810292918115918404141715612e6457565b634e487b7160e01b600052601160045260246000fd5b91908201809211612e6457565b908151811015612e98570160200190565b634e487b7160e01b600052603260045260246000fd5b90600182811c92168015612ede575b6020831014612ec857565b634e487b7160e01b600052602260045260246000fd5b91607f1691612ebd565b60145460009291612ef882612eae565b80825291600190818116908115612f6f5750600114612f1657505050565b9192935060146000527fce6d7b5282bd9a3661ae061feed1dbda4e52ab073b1f9285be6e155d9c38d4ec916000925b848410612f5757505060209250010190565b80546020858501810191909152909301928101612f45565b915050602093945060ff929192191683830152151560051b010190565b600554811015612e98576006906005600052027f036b6384b5eca791c62761152d0c79bb0604c104a5fb6f4eb0703f3154bb3db00190600090565b612fd081614051565b60005260066020526001612fe8604060002054612f8c565b50015490565b6020818303126108c1578051906001600160401b0382116108c1570181601f820112156108c1578051613020816129a1565b9261302e6040519485612980565b818452602082840101116108c157612a0e9160208085019101612833565b8115613056570490565b634e487b7160e01b600052601260045260246000fd5b6001600160a01b0316801561308c57600052600760205260406000205490565b60405162461bcd60e51b815260206004820152602b60248201527f455243333532353a2062616c616e636520717565727920666f7220746865207a60448201526a65726f206164647265737360a81b6064820152608490fd5b156130ec57565b60405162461bcd60e51b815260206004820152603260248201527f455243333532353a207472616e736665722063616c6c6572206973206e6f74206044820152711bdddb995c881b9bdc88185c1c1c9bdd995960721b6064820152608490fd5b9061317093929161316061210e84336132f2565b61316b838383613363565b613783565b1561317757565b60405162461bcd60e51b815260206004820152602760248201527f455243333532353a207472616e7366657220746f206e6f6e204552433732315260448201526632b1b2b4bb32b960c91b6064820152608490fd5b156131d357565b60405162461bcd60e51b815260206004820152602260248201527f455243333532353a20617070726f76616c20746f2063757272656e74206f776e60448201526132b960f11b6064820152608490fd5b1561322a57565b60405162461bcd60e51b815260206004820152601960248201527f455243333532353a20696e76616c696420746f6b656e204944000000000000006044820152606490fd5b61327881614051565b600052600660205261328e604060002054612f8c565b50600301546001600160a01b0316906132a8821515613223565b565b6132b381614051565b60005260066020526132c9604060002054612f8c565b50600401546001600160a01b031690565b8054821015612e985760005260206000200190600090565b906001600160a01b0380806133068461326f565b16931691838314938415613339575b508315613323575b50505090565b61332f919293506132aa565b161438808061331d565b909350600052600760205260026040600020018260005260205260ff604060002054169238613315565b61336c8361326f565b6001600160a01b03918216919081168290036135fc578083169283156135a95761339585612fc7565b5061339f8561364d565b50600091858352602090600682526040906133bc82862054612f8c565b50600490810180546001600160a01b031990811690915590918987826133e18361326f565b167f8c5be1e5ebec7d5bd14f71427d1e84f3dd0314c0f7b2291e5b200ac8c7c3b9258280a489875260068552600561341b85892054612f8c565b500180549091858988818f5b868410613572575050505050505080549087815581613555575b505088865260068452600361345884882054612f8c565b50019081541690558585526007835281852091825493600019948581019081116135425790613489889392866132da565b90549060031b1c9060018601908c855281815283852054926134ca816134af868b6132da565b90919082549060031b600019811b9283911b16911916179055565b85525281832055898252812055815490811561352f57509282889261352b947fddf252ad1be2c89b69c2b068fc378daa952ba7f163c4a11628f55a4df523b3ef9796019161351883836132da565b909182549160031b1b191690555561366e565b80a4565b634e487b7160e01b865260319052602485fd5b634e487b7160e01b885260118452602488fd5b8752848720908101905b818110156134415787815560010161355f565b61359f9486928b613583878c6132da565b96905494835252209260031b1c168c5289528a88812055613711565b8690888b8f613427565b60405162461bcd60e51b815260206004820152602560248201527f455243333532353a207472616e7366657220746f20746865207a65726f206164604482015264647265737360d81b6064820152608490fd5b60405162461bcd60e51b8152602060048201526024808201527f455243333532353a207472616e736665722066726f6d20696e76616c6964206f6044820152633bb732b960e11b6064820152608490fd5b61365681614051565b60005260066020526002612fe8604060002054612f8c565b600090828252600660205260036136886040842054612f8c565b500180546001600160a01b0319166001600160a01b0390921691821790558082526007602081815260408085208054878752600191909101835281862055928452528120805491600160401b8310156136f05750816134af9160016132a895940181556132da565b634e487b7160e01b81526041600452602490fd5b91908203918211612e6457565b6000198114612e645760010190565b600160401b82116129195780549180825582811061373d57505050565b60009182526020822092830192015b82811061375857505050565b81815560010161374c565b908160209103126108c157516001600160e01b0319811681036108c15790565b92939290803b156138c857936000916137da9560405180948193630a85bd0160e11b9788845233600485015260018060a01b0380921660248501526044840152608060648401528260209a8b976084830190612856565b0393165af160009181613899575b5061388a57833d15613882573d906137ff826129a1565b9161380d6040519384612980565b82523d60008284013e5b8151918261387f5760405162461bcd60e51b815260048101839052603260248201527f4552433732313a207472616e7366657220746f206e6f6e20455243373231526560448201527131b2b4bb32b91034b6b83632b6b2b73a32b960711b6064820152608490fd5b01fd5b606090613817565b6001600160e01b031916149150565b6138ba919250853d87116138c1575b6138b28183612980565b810190613763565b90386137e8565b503d6138a8565b50600193505050565b919394929092600091600160035401968760035560018060a01b03918286168015613ce9578915613c9a576139058a613f89565b8015613c8b575b613c46576040968a885161391f81612965565b888152895161392d8161292f565b8281528a6020938d858401908152828401908d82528d60608601938a8552608087019582875260a08801988952600554928392815260068b522055600160401b811015613c32578060016139849201600555612f8c565b959095613c1e5790600595949392915185555160018501555160028401558a60038401915116906bffffffffffffffffffffffff60a01b91828254161790558a6004840192511690825416179055019051918251926001600160401b038411613c0a5790808f96959493926139f98585613720565b01918b52808b20908b5b848110613be657505050505082613a199161366e565b867fddf252ad1be2c89b69c2b068fc378daa952ba7f163c4a11628f55a4df523b3ef8180a486858a7fe4f48c240d3b994948aa54f3e2f5fca59263dfe1d52b6e4cf39a5d249b5ccb658280a4613a6f888a613d38565b8260085416803b15610fc157613aaa9186918b838a51809681958294632108947560e21b845260048401528d60248401526044830190612856565b03925af1801561080b57613bd3575b508160085416803b1561058b57613af59185918a83895180968195829463246a908b60e01b845260048401528c60248401526044830190612856565b03925af18015613bc957908491613bb5575b50506008541690813b1561035c57613b44839283928651948580948193630190503b60e61b83528d60048401528a60248401526044830190612856565b03925af18015613bab57613b97575b505051838152602081019190915260408101919091527f84eeb48eca46cea54afc9753345f6038981672ea565f32885420829dfd88aea69080606081015b0390a190565b613ba18291612906565b61038f5780613b53565b83513d84823e3d90fd5b613bbe90612906565b61035c578238613b07565b85513d86823e3d90fd5b613bdf90949194612906565b9238613ab9565b839495969750818b600193949551169501948185015501908f969594939291613a03565b634e487b7160e01b8b52604160045260248bfd5b634e487b7160e01b8f5260048f905260248ffd5b634e487b7160e01b8f52604160045260248ffd5b60405162461bcd60e51b815260206004820152601d60248201527f455243333532353a20746f6b656e20616c7265616479206d696e7465640000006044820152606490fd5b50613c958a613fcf565b61390c565b60405162461bcd60e51b815260206004820152602160248201527f455243333532353a2063616e6e6f74206d696e74207a65726f20746f6b656e496044820152601960fa1b6064820152608490fd5b60405162461bcd60e51b815260206004820152602160248201527f455243333532353a206d696e7420746f20746865207a65726f206164647265736044820152607360f81b6064820152608490fd5b906000805160206155c88339815191526020600092848452600682526002613d636040862054612f8c565b5001613d70828254612e7a565b9055604051908152a3565b939592919490956002549560ff6000971660018060a01b039485600c541691604d8111613f75576020939291613db491600a0a9061304c565b60408051632d2a246560e01b81526001600160a01b039a909a1660048b015260248a019b909b5260448901929092526064880191909152959795889060849082908a905af1968715613f38578697613f42575b508260085416803b15610dca57613e4391879189838951809681958294632108947560e21b845260048401528c60248401526044830190612856565b03925af18015613f3857613f25575b50816008541690813b15610fc157613e8f86928392875194858094819363246a908b60e01b83528d60048401528b60248401526044830190612856565b03925af18015613f1b57908591613f07575b50506008541690813b1561080757613ee08392859492859351958680948193630190503b60e61b83528b60048401528860248401526044830190612856565b03925af190811561056f5750613ef557505090565b613eff8291612906565b61038f575090565b613f1090612906565b610807578338613ea1565b84513d87823e3d90fd5b613f3190959195612906565b9338613e52565b85513d88823e3d90fd5b9096506020813d8211613f6d575b81613f5d60209383612980565b81010312610fc157519538613e07565b3d9150613f50565b634e487b7160e01b8a52601160045260248afd5b60055415159081613f98575090565b8091506000526006602052613fb1604060002054612f8c565b50541490565b908160209103126108c1575180151581036108c15790565b80600052600d6020526040600020541590811591613feb575090565b600c546040516341ce4b3f60e01b81526004810192909252909150602090829060249082906001600160a01b03165afa9081156140455760009161402d575090565b612a0e915060203d81116118365761182a8183612980565b6040513d6000823e3d90fd5b6132a89061405e81613f89565b908115614083575b8115614073575b50613223565b61407d9150613fcf565b3861406d565b905061408e81613fcf565b90614066565b908160209103126108c157516001600160a01b03811681036108c15790565b6140bc81614051565b6140c581613f89565b80614139575b156140d957612a0e9061326f565b60018060a01b03600c541690600052600d60205260206040600020546024604051809481936331a9108f60e11b835260048301525afa90811561404557600091614121575090565b612a0e915060203d81116118ed576118de8183612980565b5061414381612fc7565b600b54146140cb565b6001600160a01b038083169391928415614235578361416a9161428d565b156141b8575b5060207f621b050de0ad08b51d19b48b3e6df75348c4de6bdd93e81b252ca62e28265b1b918360005260048252604060002085600052825280604060002055604051908152a3565b9082600052600660205260056141d2604060002054612f8c565b500190815492600160401b84101561291957856142188560209560017f621b050de0ad08b51d19b48b3e6df75348c4de6bdd93e81b252ca62e28265b1b980181556132da565b909283549160031b90811b9283911b169119161790559150614170565b60405162461bcd60e51b815260206004820152602a60248201527f455243333532353a20617070726f76652076616c756520746f20746865207a65604482015269726f206164647265737360b01b6064820152608490fd5b60009082825260066020908082526040906142aa82862054612f8c565b509260058094015496865b8881106142c85750505050505050905090565b8188528383526142e681876142df888c2054612f8c565b50016132da565b905460039190911b1c6001600160a01b03908116908816146143105761430b90613711565b6142b5565b505050505050505050600190565b9061432882614051565b61433182613f89565b806143d2575b1561434557612a0e916143e5565b602060018060a01b0391604483600c54166000958652600d845260408620549060405195869485936338d1782f60e21b855260048501521660248301525afa9182156143c657809261439657505090565b9091506020823d82116143be575b816143b160209383612980565b8101031261038f57505190565b3d91506143a4565b604051903d90823e3d90fd5b506143dc82612fc7565b600b5414614337565b6143ee81614051565b600052600460205260406000209060018060a01b031660005260205260406000205490565b60ff16604d8111612e6457600a0a90565b604051906144318261294a565b60078252667365636f6e647360c81b6020830152565b604051906144548261294a565b60078252666d696e7574657360c81b6020830152565b604051906144778261294a565b6005825264686f75727360d81b6020830152565b604051906144988261294a565b60048252636461797360e01b6020830152565b604051906144b88261294a565b60068252656d6f6e74687360d01b6020830152565b604051906144da8261294a565b6005825264796561727360d81b6020830152565b600090604080519061450a8261450381612ee8565b0383612980565b815160208093012061451a614424565b8051908401200361453d575050612a0e91506106e760ff60135460a01c16614413565b80516145538161454c81612ee8565b0382612980565b828151910120614561614447565b80519084012003614596575050603c80820292508115918304141715612e6457612a0e906106e760ff60135460a01c16614413565b80516145a58161454c81612ee8565b8281519101206145b361446a565b805190840120036145ff5750506145d691506106e760ff60135460a01c16614413565b603c810290808204603c1481151715612e6457610e100290808204603c1490151715612e645790565b805161460e8161454c81612ee8565b82815191012061461c61448b565b8051908401200361467b5750509050601881029080820460181481151715612e64576105a0810291808304603c1490151715612e6457620151800290808204603c1490151715612e6457612a0e906106e760ff60135460a01c16614413565b7f8be27e132b8285429e5647023e835848842eefd3c91595a90151c438482c3a3681516146ab8161454c81612ee8565b838151910120647765656b7360d81b8484516146c68161294a565b600581520152036147385750509050600781029080820460071481151715612e645760a881029180830460181490151715612e6457612760810291808304603c1490151715612e645762093a800290808204603c1490151715612e6457612a0e906106e760ff60135460a01c16614413565b80516147478161454c81612ee8565b8281519101206147556144ab565b805190840120036147c95750509050603c810290808204603c1481151715612e6457610e10810291808304603c1490151715612e64576201518081029180830460181490151715612e645762278d000290808204601e1490151715612e6457612a0e906106e760ff60135460a01c16614413565b516147d78161454c81612ee8565b818151910120906147e66144cd565b8051910120146147f4575090565b906301da9c00918281029281840414901517156148215750612a0e906106e760ff60135460a01c16614413565b634e487b7160e01b81526011600452602490fd5b1561483c57565b60405162461bcd60e51b815260206004820152602560248201527f54696d654372656469743a207472616e736665727320617265206e6f7420616c6044820152641b1bddd95960da1b6064820152608490fd5b1561489657565b60405162461bcd60e51b815260206004820152604b60248201527f54696d654372656469743a20616d6f756e74206265696e67207472616e73666560448201527f726564206973206c657373207468616e206d696e696d756d207472616e73666560648201526a7261626c652076616c756560a81b608482015260a490fd5b919091600090808252602091600d83526040928382205415600014614c9c5761493f858433614d7f565b6001958660035401968760035561495585612fc7565b916001600160a01b0380821692908315614c4e578a15614c00576149788b613f89565b8015614bf1575b614bad57885161498e81612965565b8781528951888b8e61499f8461292f565b8084528a84018a81528b8386019285845260608701948c8652608088019680885260a08901998a5260066005549485948352522055600160401b811015614b995780896149ef9201600555612f8c565b959095614b8557906005959493929151855551888501555160028401558560038401915116906bffffffffffffffffffffffff60a01b9182825416179055856004840192511690825416179055019051918251926001600160401b038411614b7157908883928f9b9a99989796959485614a6891613720565b0191895287892090895b848110614b5b575050505050507f6d811e6a20ae5461a4ef22a6998c1d958defe727f1cc522b6eb792bc8e6f726698979693869384614b3e9794614ac8613b919a6000805160206155c88339815191529661366e565b857fddf252ad1be2c89b69c2b068fc378daa952ba7f163c4a11628f55a4df523b3ef8180a483857fe4f48c240d3b994948aa54f3e2f5fca59263dfe1d52b6e4cf39a5d249b5ccb658280a483835260068152614b2688842054612f8c565b50508751838152a3614b39858883614e19565b612fc7565b915192839286846040919493926060820195825260208201520152565b83518216818401558f9b50928901928501614a72565b634e487b7160e01b8a52604160045260248afd5b634e487b7160e01b8e5260048e905260248efd5b634e487b7160e01b8e52604160045260248efd5b885162461bcd60e51b815260048101879052601d60248201527f455243333532353a20746f6b656e20616c7265616479206d696e7465640000006044820152606490fd5b50614bfb8b613fcf565b61497f565b885162461bcd60e51b815260048101879052602160248201527f455243333532353a2063616e6e6f74206d696e74207a65726f20746f6b656e496044820152601960fa1b6064820152608490fd5b885162461bcd60e51b815260048101879052602160248201527f455243333532353a206d696e7420746f20746865207a65726f206164647265736044820152607360f81b6064820152608490fd5b600c5484516307a42e0160e11b8152600481018590526001600160a01b0397881660248201526044810187905291969192918791849160649183918691165af1958615614d73578196614d1c575b50505090613b91614b3e7f6d811e6a20ae5461a4ef22a6998c1d958defe727f1cc522b6eb792bc8e6f72669493612fc7565b909180939650813d8311614d6c575b614d358183612980565b8101031261038f57505192613b91614b3e7f6d811e6a20ae5461a4ef22a6998c1d958defe727f1cc522b6eb792bc8e6f7266614cea565b503d614d2b565b508351903d90823e3d90fd5b614d8981836143e5565b614d9383836132f2565b1580614e0d575b614da5575b50505050565b838110614dc857614dbf93614db991613704565b9161414c565b38808080614d9f565b60405162461bcd60e51b815260206004820152601f60248201527f455243333532353a20696e73756666696369656e7420616c6c6f77616e6365006044820152606490fd5b50600019811415614d9a565b614e2281613f89565b80156150af575b1561505a57614e3782613f89565b801561504b575b15614ff8578060005260209260068452604092614e5e8460002054612f8c565b508160005260068652614e748560002054612f8c565b50906002810190815490858210614fa15760010154600184015403614f465791600291614ea786614ee498979695613704565b905501614eb5838254612e7a565b905580836000805160206155c8833981519152888851868152a3845192614edb84612965565b600084526150be565b15614eed575050565b60849250519062461bcd60e51b82526004820152602d60248201527f455243333532353a207472616e736665722072656a656374656420627920455260448201526c21999a991aa932b1b2b4bb32b960991b6064820152fd5b865162461bcd60e51b815260048101899052602e60248201527f455243333532353a207472616e7366657220746f20746f6b656e20776974682060448201526d191a5999995c995b9d081cdb1bdd60921b6064820152608490fd5b875162461bcd60e51b8152600481018a9052602a60248201527f455243333532353a20696e73756666696369656e742062616c616e636520666f60448201526939103a3930b739b332b960b11b6064820152608490fd5b60405162461bcd60e51b815260206004820152602560248201527f455243333532353a207472616e7366657220746f20696e76616c696420746f6b604482015264195b88125160da1b6064820152608490fd5b5061505582613fcf565b614e3e565b60405162461bcd60e51b815260206004820152602760248201527f455243333532353a207472616e736665722066726f6d20696e76616c696420746044820152661bdad95b88125160ca1b6064820152608490fd5b506150b981613fcf565b614e29565b926150c88261326f565b803b15158061516e575b156151645761511b93600060209460405196879586948593629ce20b60e01b9b8c865233600487015260248601526044850152606484015260a0608484015260a4830190612856565b03926001600160a01b03165af190811561404557600091615146575b506001600160e01b0319161490565b61515e915060203d81116138c1576138b28183612980565b38615137565b5050505050600190565b506040516301ffc9a760e01b8152629ce20b60e01b60048201526020816024816001600160a01b0386165afa908115614045576000916151af575b506150d2565b6151c7915060203d81116118365761182a8183612980565b386151a9565b90916151d883613f89565b80615379575b801561536a575b156152f3576151f382613f89565b806152e0575b806152bd575b15615263579061525e826152367fdf7a601a0a201ccd4b4bfcfd610913188d931867997223d226f85f2f2673988a95948433614d7f565b615241818585614e19565b604051938493846040919493926060820195825260208201520152565b0390a1565b600c546001600160a01b0316803b156108c157604051630310ed7f60e41b8152600481019390935260248301939093526044820152906000908290606490829084905af18015614045576152b45750565b6132a890612906565b506152c783613f89565b80156151ff57506152d783612fc7565b600b54146151ff565b506152ea82612fc7565b600b54146151f9565b60a460405162461bcd60e51b815260206004820152604460248201527f546f6b656e204944206f66207265636569766572206e6f74207265636f676e6960448201527f7a6564206279207468697320636f6e7472616374206f722074686520726567696064820152637374727960e01b6084820152fd5b5061537483613fcf565b6151e5565b5061538383612fc7565b600b54146151de565b61539e9061539981614051565b615545565b60408051906153b08261450381612ee8565b81516020809301206153c0614424565b805190840120036153e2575050612a0e90611dcd60ff60135460a01c16614413565b80516153f18161454c81612ee8565b8281519101206153ff614447565b80519084012003615427575050615423603c91611dcd60ff60135460a01c16614413565b0490565b80516154368161454c81612ee8565b82815191012061544461446a565b80519084012003615469575050615423610e1091611dcd60ff60135460a01c16614413565b80516154788161454c81612ee8565b82815191012061548661448b565b805190840120036154ac5750506154236201518091611dcd60ff60135460a01c16614413565b80516154bb8161454c81612ee8565b8281519101206154c96144ab565b805190840120036154ef57505061542362278d0091611dcd60ff60135460a01c16614413565b516154fd8161454c81612ee8565b8181519101209061550c6144cd565b805191012003615530576154236301da9c0091611dcd60ff60135460a01c16614413565b612a0e90611dcd60ff60135460a01c16614413565b61554e81614051565b61555781613f89565b806155b4575b1561556b57612a0e9061364d565b6000908152600d6020526040812054602060018060a01b03600c541691602460405180948193631398fee160e31b835260048301525afa9182156143c657809261439657505090565b506155be81612fc7565b600b541461555d56fe0b2aac84f3ec956911fd78eae5311062972ff949f38412e8da39069d9f068cc6a2646970667358221220ee3e09e556a704e2fbf517147b11678c483404a097e141ed1b88691361649d7f64736f6c634300081100336080604052346200048657620024ae803803806200001d816200048b565b9283398101608082820312620004865781516001600160401b0391908281116200048657816200004f918501620004b1565b91602092838501518281116200048657836200006d918701620004b1565b92604086015183811162000486576060916200008b918801620004b1565b9501516001600160a01b03811695908690036200048657815193838511620002c3576001948554938685811c951680156200047b575b88861014620002a2578190601f9586811162000425575b508890868311600114620003bd57600092620003b1575b5050600019600383901b1c191690861b1785555b805190848211620002c357600254908682811c92168015620003a6575b88831014620002a25781858493116200034f575b508790858311600114620002e557600092620002d9575b5050600019600383901b1c191690851b176002555b8051928311620002c35760039485548581811c91168015620002b8575b82821014620002a25783811162000257575b5080928411600114620001ed5750928293918392600094620001e1575b50501b9160001990841b1c19161790555b600080546001600160a01b031916919091179055604051611f8a9081620005248239f35b015192503880620001ac565b919083601f1981168760005284600020946000905b888383106200023c575050501062000223575b505050811b019055620001bd565b015160001983861b60f8161c1916905538808062000215565b85870151885590960195948501948793509081019062000202565b86600052816000208480870160051c82019284881062000298575b0160051c019086905b8281106200028b5750506200018f565b600081550186906200027b565b9250819262000272565b634e487b7160e01b600052602260045260246000fd5b90607f16906200017d565b634e487b7160e01b600052604160045260246000fd5b0151905038806200014b565b90879350601f198316916002600052896000209260005b8b8282106200033857505084116200031e575b505050811b0160025562000160565b015160001960f88460031b161c191690553880806200030f565b8385015186558b97909501949384019301620002fc565b9091506002600052876000208580850160051c8201928a86106200039c575b918991869594930160051c01915b8281106200038c57505062000134565b600081558594508991016200037c565b925081926200036e565b91607f169162000120565b015190503880620000ef565b90889350601f19831691846000528a6000209260005b8c8282106200040e5750508411620003f4575b505050811b01855562000103565b015160001960f88460031b161c19169055388080620003e6565b8385015186558c97909501949384019301620003d3565b90915087600052886000208680850160051c8201928b861062000471575b918a91869594930160051c01915b82811062000461575050620000d8565b600081558594508a910162000451565b9250819262000443565b94607f1694620000c1565b600080fd5b6040519190601f01601f191682016001600160401b03811183821017620002c357604052565b919080601f84011215620004865782516001600160401b038111620002c357602090620004e7601f8201601f191683016200048b565b92818452828287010111620004865760005b8181106200050f57508260009394955001015290565b8581018301518482018401528201620004f956fe608060408181526004908136101561001657600080fd5b600092833560e01c9081631375d843146114a057508063246a908b146113a257806331264fc11461119057806355f804b31461104c57806364140ec014610f4d5780636c0360eb14610e8e5780636c037f8a14610b7257806371f0442e14610ade578063725fa09c14610866578063842251d41461072e578063894b4c2e146104025780639cdeaae0146101805763b3154c08146100b357600080fd5b3461017c57602091826003193601126101785780358452825280832091815192848154906100e082611a7d565b808752926001928084169081156101545750600114610119575b610115878761010b828c03836115b6565b5191829182611558565b0390f35b9080949750528583205b82841061014157505050826101159461010b928201019438806100fa565b8054868501880152928601928101610123565b60ff19168887015250505050151560051b830101925061010b8261011538806100fa565b8380fd5b8280fd5b50913461039057826003193601126103905781359161019e836119cd565b928083526020918083528584209386519481868254916101bd83611a7d565b92838352888301946001918a83821691826000146103e25750506001146103a5575b50506101ed925003876115b6565b6101f684611de4565b9161020260243561188a565b895163131f9f3f60e11b8152948501869052938681602481335afa91821561039a578092610365575b61011561027f8c61010b606c8e8e8e61034c8f8f8f8f8f61024e6102549161188a565b94611e7e565b966102a960298d519e8f809c683d913730b6b2911d1160b91b8c8301528b8151948593019101611535565b8a0191701116113232b9b1b934b83a34b7b7111d1160791b6029840152518093603a840190611535565b016a11161134b6b0b3b2911d1160a91b603a8201526102d18251809388604585019101611535565b016c1116113130b630b731b2911d1160991b60458201526102fb8251809387605285019101611535565b016911161139b637ba111d1160b11b60528201526103228251809386605c85019101611535565b01916e111611383937b832b93a34b2b9911d60891b605c8401528351938491606b85019101611535565b01607d60f81b606b82015203604c8101855201836115b6565b9091508682813d8311610393575b61037d81836115b6565b810103126103905750518461027f61022b565b80fd5b503d610373565b8a51903d90823e3d90fd5b89925086528186209086915b8583106103c95750506101ed935082010138806101df565b81948484839695965492010152019101899289926103b1565b92509350506101ed94915060ff19168552151560051b82010138806101df565b50913461039057602091826003193601126106bd57803591610423836119cd565b83825282855285822090865190838284549161043e83611a7d565b928383528a8301966001918c838216918260001461070e5750506001146106d2575b505061046e925003836115b6565b61047786611de4565b938851631398fee160e31b815287878201528881602481335afa80156106c8578290610695575b6104a8915061188a565b895163131f9f3f60e11b8152968701889052958881602481335afa91821561039a578092610664575b5050606c888a6101159b9961010b99603d996106549d9961061b9961055861052e9a6105086105026106169c61188a565b97611e7e565b97519b8c99683d913730b6b2911d1160b91b818c0152825192839160298d019101611535565b880191701116113232b9b1b934b83a34b7b7111d1160791b6029840152518093603a840190611535565b016a11161134b6b0b3b2911d1160a91b603a820152610580825180938d604585019101611535565b016c1116113130b630b731b2911d1160991b60458201526105aa825180938c605285019101611535565b016911161139b637ba111d1160b11b60528201526105d1825180938b605c85019101611535565b016e111611383937b832b93a34b2b9911d60891b605c8201526105fd825180938a606b85019101611535565b01607d60f81b606b82015203604c8101845201826115b6565b61171d565b845195827f646174613a6170706c69636174696f6e2f6a736f6e3b6261736536342c000000889485015282519283918686019101611535565b810103601d8101855201836115b6565b9091508882813d831161068e575b61067c81836115b6565b81010312610390575051606c886104d1565b503d610672565b508881813d83116106c1575b6106ab81836115b6565b810103126106bd576104a8905161049e565b5080fd5b503d6106a1565b8a513d84823e3d90fd5b8b925088528188209088915b8583106106f657505061046e93508201013880610460565b80548389018501528794508c939092019181016106de565b925093505061046e94915060ff19168752151560051b8201013880610460565b508290346106bd5761073f36611640565b939083526020916006835283209184519167ffffffffffffffff8311610853575061076a8354611a7d565b601f8111610810575b5080601f83116001146107ae57508394829394926107a3575b50508160011b916000199060031b1c191617905580f35b01519050848061078c565b90601f198316958486528286209286905b8882106107f8575050836001959697106107df575b505050811b01905580f35b015160001960f88460031b161c191690558480806107d4565b806001859682949686015181550195019301906107bf565b838552818520601f840160051c810191838510610849575b601f0160051c01905b81811061083e5750610773565b858155600101610831565b9091508190610828565b634e487b7160e01b855260419052602484fd5b50903461017c578260031936011261017c5781516306fdde0360e01b81529083828281335afa918215610ad1578492610aad575b5082519084600254906108ac82611a7d565b808552846020988992838301956001908181169081600014610a8e5750600114610a32575b50506108df925003856115b6565b6108e7611bb6565b928787518092633e7e866960e01b825281335afa918215610a2757605a610654989761010b97603d976101159c9761093360ff61061b996109889961061699916109fa575b501661188a565b928c51978895683d913730b6b2911d1160b91b8c88015261095e8c825192839160298b019101611535565b860191701116113232b9b1b934b83a34b7b7111d1160791b6029840152518093603a840190611535565b016a11161134b6b0b3b2911d1160a91b603a8201526109b0825180938b604585019101611535565b01721116113b30b63ab2a232b1b4b6b0b639911d1160691b60458201526109e0825180938a605885019101611535565b0161227d60f01b605882015203603a8101845201826115b6565b610a1a91508c8d3d10610a20575b610a1281836115b6565b8101906116d2565b3861092c565b503d610a08565b8751903d90823e3d90fd5b600286527f405787fa12a823e0f2b7631cc41b3ba8828b3321ca811111fa75cd3aa3bb5ace9492508591905b818310610a7657508b9450508201016108df386108d1565b85548a84018501529485019489945091830191610a5e565b9150506108df94925060ff19168652151560051b8201018992386108d1565b610aca9192503d8086833e610ac281836115b6565b810190611673565b903861089a565b50505051903d90823e3d90fd5b503461017c576020918260031936011261017857358352600582528083209181519284815490610b0d82611a7d565b808752926001928084169081156101545750600114610b3757610115878761010b828c03836115b6565b9080949750528583205b828410610b5f57505050826101159461010b928201019438806100fa565b8054868501880152928601928101610b41565b50903461017c5760209283600319360112610390578054835163ec327a2160e01b815283358185018190529092916001600160a01b0316908284602481855afa938415610e84578394610e68575b50855163bc74ebb960e01b8152858101829052948386602481865afa958615610e5e578496610e42575b5086516309c3dd8760e01b80825282820184905290938585602481845afa948515610e3857918a9594939187938496610e17575b5090602491610c5e60268d518a652f696d61676560d01b81610c4a849e85019d8e815193849201611535565b83019182015203600681018b5201896115b6565b8b51958694859384528301525afa938415610a27578094610dfa575b50508551918288808201868197519283910191610c9692611535565b81018981016f17b83937b832b93a34b2b9973539b7b760811b905203601081018452603001610cc590846115b6565b8651958695683d913730b6b2911d1160b91b8a880152805190818b60298a01920191610cf092611535565b8601701116113232b9b1b934b83a34b7b7111d1160791b6029820152815191828b603a8401920191610d2192611535565b01906a11161134b6b0b3b2911d1160a91b603a83015251918260458301610d4792611535565b01906e111611383937b832b93a34b2b9911d60891b604583015251918260548301610d7192611535565b0160548101607d60f81b905203603581018252605501610d9190826115b6565b610d9a9061171d565b81517f646174613a6170706c69636174696f6e2f6a736f6e3b6261736536342c00000084820152815190938492610dd8918391603d86019101611535565b810103601d81018352603d01610dee90836115b6565b51610115819282611558565b610e0f9294503d8091833e610ac281836115b6565b913880610c7a565b602492919650610e30903d8087833e610ac281836115b6565b959091610c1e565b89513d88823e3d90fd5b610e579196503d8086833e610ac281836115b6565b9438610bea565b87513d86823e3d90fd5b610e7d9194503d8085833e610ac281836115b6565b9238610bc0565b86513d85823e3d90fd5b8382346106bd57816003193601126106bd57805190826001805491610eb283611a7d565b80865292828116908115610f255750600114610edb575b50505061010b826101159403836115b6565b9450808552600080516020611f358339815191525b828610610f0d5750505061010b8260206101159582010194610ec9565b80546020878701810191909152909501948101610ef0565b61011597508693506020925061010b94915060ff191682840152151560051b82010194610ec9565b508290346106bd57610f5e36611640565b939083526020916005835283209184519167ffffffffffffffff83116108535750610f898354611a7d565b601f8111611009575b5080601f8311600114610fc157508394829394926107a35750508160011b916000199060031b1c191617905580f35b90601f198316958486528286209286905b888210610ff1575050836001959697106107df57505050811b01905580f35b80600185968294968601518155019501930190610fd2565b838552818520601f840160051c810191838510611042575b601f0160051c01905b8181106110375750610f92565b85815560010161102a565b9091508190611021565b828434610390576020806003193601126106bd5767ffffffffffffffff83358181116101785761107f90369086016115f4565b93845191821161117d57506001916110978354611a7d565b601f811161112b575b5080601f83116001146110da57508394829394926110cf575b5050600019600383901b1c191690821b17905580f35b0151905084806110b9565b838552601f19831695600080516020611f35833981519152929186905b88821061111457505083859697106107df57505050811b01905580f35b8087859682949686015181550195019301906110f7565b838552600080516020611f35833981519152601f840160051c810191838510611173575b601f0160051c019084905b8281106111685750506110a0565b86815501849061115a565b909150819061114f565b634e487b7160e01b845260419052602483fd5b50903461017c578260031936011261017c5781516306fdde0360e01b81529083828281335afa918215610ad1578492611386575b5082519084906002546111d681611a7d565b808552846020948582019360019087828216918260001461136857505060011461130e575b50611208925003856115b6565b611210611bb6565b918387518092633e7e866960e01b825281335afa9081156113045761127d97969361010b969361125360ff605a98956112d3956101159e916112ed57501661188a565b9489519a8b97683d913730b6b2911d1160b91b878a015261052e815180928960298d019101611535565b016a11161134b6b0b3b2911d1160a91b603a8201526112a58251809386604585019101611535565b0191721116113b30b63ab2a232b1b4b6b0b639911d1160691b60458401528351938491605885019101611535565b0161227d60f01b605882015203603a8101855201836115b6565b610a1a9150873d8911610a2057610a1281836115b6565b87513d8a823e3d90fd5b60028b528691508a907f405787fa12a823e0f2b7631cc41b3ba8828b3321ca811111fa75cd3aa3bb5ace5b8583106113505750506112089350820101386111fb565b8054838b018501528994508893909201918101611339565b60ff1916875261120895151560051b85010192503891506111fb9050565b61139b9192503d8086833e610ac281836115b6565b90386111c4565b508290346106bd576113b336611640565b9390835260209181835283209184519167ffffffffffffffff831161085357506113dd8354611a7d565b601f811161145d575b5080601f831160011461141557508394829394926107a35750508160011b916000199060031b1c191617905580f35b90601f198316958486528286209286905b888210611445575050836001959697106107df57505050811b01905580f35b80600185968294968601518155019501930190611426565b838552818520601f840160051c810191838510611496575b601f0160051c01905b81811061148b57506113e6565b85815560010161147e565b9091508190611475565b92905034610178576020908160031936011261153157358452600681528184208054856114cc82611a7d565b8087529260019280841690811561015457506001146114f657610115878761010b828c03836115b6565b9080949750528583205b82841061151e57505050826101159461010b928201019438806100fa565b8054868501880152928601928101611500565b8480fd5b60005b8381106115485750506000910152565b8181015183820152602001611538565b604091602082526115788151809281602086015260208686019101611535565b601f01601f1916010190565b6060810190811067ffffffffffffffff8211176115a057604052565b634e487b7160e01b600052604160045260246000fd5b90601f8019910116810190811067ffffffffffffffff8211176115a057604052565b67ffffffffffffffff81116115a057601f01601f191660200190565b81601f8201121561163b5780359061160b826115d8565b9261161960405194856115b6565b8284526020838301011161163b57816000926020809301838601378301015290565b600080fd5b90604060031983011261163b57600435916024359067ffffffffffffffff821161163b57611670916004016115f4565b90565b60208183031261163b5780519067ffffffffffffffff821161163b570181601f8201121561163b5780516116a6816115d8565b926116b460405194856115b6565b8184526020828401011161163b576116709160208085019101611535565b9081602091031261163b575160ff8116810361163b5790565b906116f5826115d8565b61170260405191826115b6565b8281528092611713601f19916115d8565b0190602036910137565b8051156118655760405161173081611584565b604081527f4142434445464748494a4b4c4d4e4f505152535455565758595a61626364656660208201527f6768696a6b6c6d6e6f707172737475767778797a303132333435363738392b2f6040820152815160029283820180921161184f576003918290046001600160fe1b038116810361184f576117b2908594951b6116eb565b936020850193829183518401925b8381106117fe57505050505106806001146117eb576002146117e0575090565b603d90600019015390565b50603d9081600019820153600119015390565b85600491979293949701918251600190603f9082828260121c16880101518453828282600c1c16880101518385015382828260061c16880101518885015316850101518782015301959291906117c0565b634e487b7160e01b600052601160045260246000fd5b506040516020810181811067ffffffffffffffff8211176115a0576040526000815290565b806000917a184f03e93ff9f4daa797ed6e38ed64bf6a1f010000000000000000808210156119bf575b506d04ee2d6d415b85acef8100000000808310156119b0575b50662386f26fc10000808310156119a1575b506305f5e10080831015611992575b5061271080831015611983575b506064821015611973575b600a80921015611969575b6001908160216119218287016116eb565b95860101905b611933575b5050505090565b600019019083906f181899199a1a9b1b9c1cb0b131b232b360811b8282061a83530491821561196457919082611927565b61192c565b9160010191611910565b9190606460029104910191611905565b600491939204910191386118fa565b600891939204910191386118ed565b601091939204910191386118de565b602091939204910191386118cc565b6040935081049150386118b3565b6040516306fdde0360e01b815290600082600481335afa918215611a7157600092611a4b575b506022611a026116709261188a565b926040519381611a1c869351809260208087019101611535565b820161202360f01b6020820152611a3c8251809360208785019101611535565b010360028101845201826115b6565b611a02611a6860229261167094953d8091833e610ac281836115b6565b939250506119f3565b6040513d6000823e3d90fd5b90600182811c92168015611aad575b6020831014611a9757565b634e487b7160e01b600052602260045260246000fd5b91607f1691611a8c565b90600091600190815491611aca83611a7d565b92818116908115611b205750600114611ae257505050565b809192939450600052600080516020611f35833981519152906000915b848310611b0d575050500190565b8181602092548587015201920191611aff565b60ff191683525050811515909102019150565b600092918154611b4281611a7d565b92600191808316908115611b9b5750600114611b5f575b50505050565b90919293945060005260209081600020906000915b858310611b8a5750505050019038808080611b59565b805485840152918301918101611b74565b60ff1916845250505081151590910201915038808080611b59565b611bbf33611cc1565b6040519081602091611bd2838301611ab7565b68636f6e74726163742f60b81b8152611bf48251809386600985019101611535565b01602f60f81b600982015260009060035493611c0f85611a7d565b94600190818116908115611c9e5750600114611c3c575b505050611670925003601f1981018352826115b6565b9091925060036000527fc2575a0e9e593c00f959f8c92f12db2869c3395a3b0502d05e2516446f71f85b906000915b868310611c87575050505061167092600a910101388080611c26565b8054838601600a0152879550918301918101611c6b565b915050600a935061167095915060ff191683830152801515020101388080611c26565b604051906001600160a01b0316611cd782611584565b602a82526020908183016040368237835115611dce57603090538251600190811015611dce57607860218501536029905b808211611d5c575050611d19575090565b6064906040519062461bcd60e51b825280600483015260248201527f537472696e67733a20686578206c656e67746820696e73756666696369656e746044820152fd5b9091600f81166010811015611db9578551841015611db9576f181899199a1a9b1b9c1cb0b131b232b360811b901a85840185015360041c918015611da4576000190190611d08565b60246000634e487b7160e01b81526011600452fd5b60246000634e487b7160e01b81526032600452fd5b634e487b7160e01b600052603260045260246000fd5b611670601191611df330611cc1565b906000526006602052611e70604060002060056020526001611e62604060002092604051978896611e2660208901611ab7565b692f636f6e74726163742f60b01b8152611e4a825180936020600a85019101611535565b01662f746f6b656e2f60c81b600a8201520190611b33565b602f60f81b81520190611b33565b03601f1981018352826115b6565b6116706011601092611e8f33611cc1565b906000526006602052611f0560406000206040519586936e7b70726f706572746965735f75726960881b6020860152611eca602f8601611ab7565b68636f6e74726163742f60b81b8152611eed825180936020600985019101611535565b01662f746f6b656e2f60c81b60098201520190611b33565b6f17b83937b832b93a34b2b9973539b7b760811b8152607d60f81b601082015203600e198101845201826115b656feb10e2d527612073b26eecdfd717e6a320cf44b4afac2b0732d9fcbe2b7fa0cf6a26469706673582212204acf999d970adc8d8fc934244bb0b1eeca1d242ed83b1a407b04f51749a4b83064736f6c634300081100332f8788117e7eff1d82e926ec794901d17c78024a50270940304540a733656f0d",
  "linkReferences": {},
  "deployedLinkReferences": {}
}