{
  "_format": "hh-sol-artifact-1",
  "contractName": "TimeCredit",
  "sourceName": "contracts/TimeCredit.sol",
  "abi": [
    {
      "inputs": [
        {
          "internalType": "address",
          "name": "serviceAddress_",
          "type": "address"
        },
        {
          "internalType": "address",
          "name": "slotRegistry_",
          "type": "address"
        },
        {
          "internalType": "string",
          "name": "name_",
          "type": "string"
        },
        {
          "internalType": "string",
          "name": "symbol_",
          "type": "string"
        },
        {
          "internalType": "string",
          "name": "baseuri_",
          "type": "string"
        },
        {
          "internalType": "string",
          "name": "contractDescription_",
          "type": "string"
        },
        {
          "internalType": "string",
          "name": "contractImage_",
          "type": "string"
        },
        {
          "internalType": "bool",
          "name": "transfersAllowed_",
          "type": "bool"
        },
        {
          "internalType": "uint256",
          "name": "minAllowedValueTransfer_",
          "type": "uint256"
        },
        {
          "internalType": "string",
          "name": "dispTimeUnit_",
          "type": "string"
        }
      ],
      "stateMutability": "nonpayable",
      "type": "constructor"
    },
    {
      "anonymous": false,
      "inputs": [
        {
          "indexed": true,
          "internalType": "address",
          "name": "_owner",
          "type": "address"
        },
        {
          "indexed": true,
          "internalType": "address",
          "name": "_approved",
          "type": "address"
        },
        {
          "indexed": true,
          "internalType": "uint256",
          "name": "_tokenId",
          "type": "uint256"
        }
      ],
      "name": "Approval",
      "type": "event"
    },
    {
      "anonymous": false,
      "inputs": [
        {
          "indexed": true,
          "internalType": "address",
          "name": "_owner",
          "type": "address"
        },
        {
          "indexed": true,
          "internalType": "address",
          "name": "_operator",
          "type": "address"
        },
        {
          "indexed": false,
          "internalType": "bool",
          "name": "_approved",
          "type": "bool"
        }
      ],
      "name": "ApprovalForAll",
      "type": "event"
    },
    {
      "anonymous": false,
      "inputs": [
        {
          "indexed": true,
          "internalType": "uint256",
          "name": "_tokenId",
          "type": "uint256"
        },
        {
          "indexed": true,
          "internalType": "address",
          "name": "_operator",
          "type": "address"
        },
        {
          "indexed": false,
          "internalType": "uint256",
          "name": "_value",
          "type": "uint256"
        }
      ],
      "name": "ApprovalValue",
      "type": "event"
    },
    {
      "anonymous": false,
      "inputs": [
        {
          "indexed": false,
          "internalType": "address",
          "name": "contractAddress",
          "type": "address"
        }
      ],
      "name": "MetadataDescriptor",
      "type": "event"
    },
    {
      "anonymous": false,
      "inputs": [
        {
          "indexed": false,
          "internalType": "uint256",
          "name": "tokenId",
          "type": "uint256"
        },
        {
          "indexed": false,
          "internalType": "uint256",
          "name": "slot",
          "type": "uint256"
        },
        {
          "indexed": false,
          "internalType": "uint256",
          "name": "value",
          "type": "uint256"
        }
      ],
      "name": "MintServiceToken",
      "type": "event"
    },
    {
      "anonymous": false,
      "inputs": [
        {
          "indexed": true,
          "internalType": "address",
          "name": "previousOwner",
          "type": "address"
        },
        {
          "indexed": true,
          "internalType": "address",
          "name": "newOwner",
          "type": "address"
        }
      ],
      "name": "OwnershipTransferred",
      "type": "event"
    },
    {
      "anonymous": false,
      "inputs": [
        {
          "indexed": true,
          "internalType": "address",
          "name": "metadataDescriptor",
          "type": "address"
        }
      ],
      "name": "SetMetadataDescriptor",
      "type": "event"
    },
    {
      "anonymous": false,
      "inputs": [
        {
          "indexed": true,
          "internalType": "uint256",
          "name": "_tokenId",
          "type": "uint256"
        },
        {
          "indexed": true,
          "internalType": "uint256",
          "name": "_oldSlot",
          "type": "uint256"
        },
        {
          "indexed": true,
          "internalType": "uint256",
          "name": "_newSlot",
          "type": "uint256"
        }
      ],
      "name": "SlotChanged",
      "type": "event"
    },
    {
      "anonymous": false,
      "inputs": [
        {
          "indexed": true,
          "internalType": "address",
          "name": "_from",
          "type": "address"
        },
        {
          "indexed": true,
          "internalType": "address",
          "name": "_to",
          "type": "address"
        },
        {
          "indexed": true,
          "internalType": "uint256",
          "name": "_tokenId",
          "type": "uint256"
        }
      ],
      "name": "Transfer",
      "type": "event"
    },
    {
      "anonymous": false,
      "inputs": [
        {
          "indexed": true,
          "internalType": "uint256",
          "name": "_fromTokenId",
          "type": "uint256"
        },
        {
          "indexed": true,
          "internalType": "uint256",
          "name": "_toTokenId",
          "type": "uint256"
        },
        {
          "indexed": false,
          "internalType": "uint256",
          "name": "_value",
          "type": "uint256"
        }
      ],
      "name": "TransferValue",
      "type": "event"
    },
    {
      "inputs": [
        {
          "internalType": "string",
          "name": "uri_",
          "type": "string"
        }
      ],
      "name": "_setBaseURI",
      "outputs": [],
      "stateMutability": "nonpayable",
      "type": "function"
    },
    {
      "inputs": [
        {
          "internalType": "uint256",
          "name": "tokenId_",
          "type": "uint256"
        },
        {
          "internalType": "uint256",
          "name": "valueSeconds_",
          "type": "uint256"
        }
      ],
      "name": "addTime",
      "outputs": [],
      "stateMutability": "nonpayable",
      "type": "function"
    },
    {
      "inputs": [
        {
          "internalType": "uint256",
          "name": "tokenId_",
          "type": "uint256"
        },
        {
          "internalType": "address",
          "name": "operator_",
          "type": "address"
        }
      ],
      "name": "allowance",
      "outputs": [
        {
          "internalType": "uint256",
          "name": "",
          "type": "uint256"
        }
      ],
      "stateMutability": "view",
      "type": "function"
    },
    {
      "inputs": [
        {
          "internalType": "address",
          "name": "to_",
          "type": "address"
        },
        {
          "internalType": "uint256",
          "name": "tokenId_",
          "type": "uint256"
        }
      ],
      "name": "approve",
      "outputs": [],
      "stateMutability": "payable",
      "type": "function"
    },
    {
      "inputs": [
        {
          "internalType": "uint256",
          "name": "tokenId_",
          "type": "uint256"
        },
        {
          "internalType": "address",
          "name": "to_",
          "type": "address"
        },
        {
          "internalType": "uint256",
          "name": "value_",
          "type": "uint256"
        }
      ],
      "name": "approve",
      "outputs": [],
      "stateMutability": "payable",
      "type": "function"
    },
    {
      "inputs": [
        {
          "internalType": "address",
          "name": "owner_",
          "type": "address"
        }
      ],
      "name": "balanceOf",
      "outputs": [
        {
          "internalType": "uint256",
          "name": "balance",
          "type": "uint256"
        }
      ],
      "stateMutability": "view",
      "type": "function"
    },
    {
      "inputs": [
        {
          "internalType": "uint256",
          "name": "tokenId_",
          "type": "uint256"
        }
      ],
      "name": "balanceOf",
      "outputs": [
        {
          "internalType": "uint256",
          "name": "",
          "type": "uint256"
        }
      ],
      "stateMutability": "view",
      "type": "function"
    },
    {
      "inputs": [],
      "name": "contractURI",
      "outputs": [
        {
          "internalType": "string",
          "name": "",
          "type": "string"
        }
      ],
      "stateMutability": "view",
      "type": "function"
    },
    {
      "inputs": [
        {
          "internalType": "uint256",
          "name": "tokenId_",
          "type": "uint256"
        },
        {
          "internalType": "uint256",
          "name": "value_seconds_",
          "type": "uint256"
        }
      ],
      "name": "deductTime",
      "outputs": [],
      "stateMutability": "nonpayable",
      "type": "function"
    },
    {
      "inputs": [
        {
          "internalType": "uint256",
          "name": "tokenId_",
          "type": "uint256"
        }
      ],
      "name": "getApproved",
      "outputs": [
        {
          "internalType": "address",
          "name": "",
          "type": "address"
        }
      ],
      "stateMutability": "view",
      "type": "function"
    },
    {
      "inputs": [
        {
          "internalType": "address",
          "name": "owner_",
          "type": "address"
        },
        {
          "internalType": "address",
          "name": "operator_",
          "type": "address"
        }
      ],
      "name": "isApprovedForAll",
      "outputs": [
        {
          "internalType": "bool",
          "name": "",
          "type": "bool"
        }
      ],
      "stateMutability": "view",
      "type": "function"
    },
    {
      "inputs": [
        {
          "internalType": "uint256",
          "name": "tokenId_",
          "type": "uint256"
        }
      ],
      "name": "isValid",
      "outputs": [
        {
          "internalType": "bool",
          "name": "",
          "type": "bool"
        }
      ],
      "stateMutability": "view",
      "type": "function"
    },
    {
      "inputs": [],
      "name": "metadataDescriptor",
      "outputs": [
        {
          "internalType": "contract IERC3525MetadataDescriptor",
          "name": "",
          "type": "address"
        }
      ],
      "stateMutability": "view",
      "type": "function"
    },
    {
      "inputs": [
        {
          "internalType": "address",
          "name": "owner_",
          "type": "address"
        },
        {
          "internalType": "uint256",
          "name": "slot_",
          "type": "uint256"
        },
        {
          "internalType": "uint256",
          "name": "value_seconds_",
          "type": "uint256"
        },
        {
          "internalType": "uint256",
          "name": "valid_start",
          "type": "uint256"
        },
        {
          "internalType": "uint256",
          "name": "valid_expiration",
          "type": "uint256"
        },
        {
          "internalType": "string",
          "name": "uuid_",
          "type": "string"
        },
        {
          "internalType": "string",
          "name": "token_description_",
          "type": "string"
        },
        {
          "internalType": "string",
          "name": "token_image_",
          "type": "string"
        }
      ],
      "name": "mint",
      "outputs": [
        {
          "internalType": "uint256",
          "name": "",
          "type": "uint256"
        }
      ],
      "stateMutability": "nonpayable",
      "type": "function"
    },
    {
      "inputs": [
        {
          "internalType": "address",
          "name": "owner_",
          "type": "address"
        },
        {
          "internalType": "uint256",
          "name": "slot_",
          "type": "uint256"
        },
        {
          "internalType": "uint256",
          "name": "value_",
          "type": "uint256"
        },
        {
          "internalType": "string",
          "name": "uuid_",
          "type": "string"
        },
        {
          "internalType": "string",
          "name": "token_description_",
          "type": "string"
        },
        {
          "internalType": "string",
          "name": "token_image_",
          "type": "string"
        }
      ],
      "name": "mint",
      "outputs": [
        {
          "internalType": "uint256",
          "name": "",
          "type": "uint256"
        }
      ],
      "stateMutability": "nonpayable",
      "type": "function"
    },
    {
      "inputs": [],
      "name": "name",
      "outputs": [
        {
          "internalType": "string",
          "name": "",
          "type": "string"
        }
      ],
      "stateMutability": "view",
      "type": "function"
    },
    {
      "inputs": [],
      "name": "owner",
      "outputs": [
        {
          "internalType": "address",
          "name": "",
          "type": "address"
        }
      ],
      "stateMutability": "view",
      "type": "function"
    },
    {
      "inputs": [
        {
          "internalType": "uint256",
          "name": "tokenId_",
          "type": "uint256"
        }
      ],
      "name": "ownerOf",
      "outputs": [
        {
          "internalType": "address",
          "name": "owner_",
          "type": "address"
        }
      ],
      "stateMutability": "view",
      "type": "function"
    },
    {
      "inputs": [],
      "name": "renounceOwnership",
      "outputs": [],
      "stateMutability": "nonpayable",
      "type": "function"
    },
    {
      "inputs": [
        {
          "internalType": "address",
          "name": "from_",
          "type": "address"
        },
        {
          "internalType": "address",
          "name": "to_",
          "type": "address"
        },
        {
          "internalType": "uint256",
          "name": "tokenId_",
          "type": "uint256"
        }
      ],
      "name": "safeTransferFrom",
      "outputs": [],
      "stateMutability": "payable",
      "type": "function"
    },
    {
      "inputs": [
        {
          "internalType": "address",
          "name": "from_",
          "type": "address"
        },
        {
          "internalType": "address",
          "name": "to_",
          "type": "address"
        },
        {
          "internalType": "uint256",
          "name": "tokenId_",
          "type": "uint256"
        },
        {
          "internalType": "bytes",
          "name": "data_",
          "type": "bytes"
        }
      ],
      "name": "safeTransferFrom",
      "outputs": [],
      "stateMutability": "payable",
      "type": "function"
    },
    {
      "inputs": [
        {
          "internalType": "address",
          "name": "operator_",
          "type": "address"
        },
        {
          "internalType": "bool",
          "name": "approved_",
          "type": "bool"
        }
      ],
      "name": "setApprovalForAll",
      "outputs": [],
      "stateMutability": "nonpayable",
      "type": "function"
    },
    {
      "inputs": [
        {
          "internalType": "uint256",
          "name": "tokenId_",
          "type": "uint256"
        }
      ],
      "name": "slotOf",
      "outputs": [
        {
          "internalType": "uint256",
          "name": "",
          "type": "uint256"
        }
      ],
      "stateMutability": "view",
      "type": "function"
    },
    {
      "inputs": [
        {
          "internalType": "uint256",
          "name": "slot_",
          "type": "uint256"
        }
      ],
      "name": "slotURI",
      "outputs": [
        {
          "internalType": "string",
          "name": "",
          "type": "string"
        }
      ],
      "stateMutability": "view",
      "type": "function"
    },
    {
      "inputs": [
        {
          "internalType": "bytes4",
          "name": "interfaceId",
          "type": "bytes4"
        }
      ],
      "name": "supportsInterface",
      "outputs": [
        {
          "internalType": "bool",
          "name": "",
          "type": "bool"
        }
      ],
      "stateMutability": "view",
      "type": "function"
    },
    {
      "inputs": [],
      "name": "symbol",
      "outputs": [
        {
          "internalType": "string",
          "name": "",
          "type": "string"
        }
      ],
      "stateMutability": "view",
      "type": "function"
    },
    {
      "inputs": [
        {
          "internalType": "uint256",
          "name": "index_",
          "type": "uint256"
        }
      ],
      "name": "tokenByIndex",
      "outputs": [
        {
          "internalType": "uint256",
          "name": "",
          "type": "uint256"
        }
      ],
      "stateMutability": "view",
      "type": "function"
    },
    {
      "inputs": [
        {
          "internalType": "address",
          "name": "owner_",
          "type": "address"
        },
        {
          "internalType": "uint256",
          "name": "index_",
          "type": "uint256"
        }
      ],
      "name": "tokenOfOwnerByIndex",
      "outputs": [
        {
          "internalType": "uint256",
          "name": "",
          "type": "uint256"
        }
      ],
      "stateMutability": "view",
      "type": "function"
    },
    {
      "inputs": [
        {
          "internalType": "uint256",
          "name": "tokenId_",
          "type": "uint256"
        }
      ],
      "name": "tokenURI",
      "outputs": [
        {
          "internalType": "string",
          "name": "",
          "type": "string"
        }
      ],
      "stateMutability": "view",
      "type": "function"
    },
    {
      "inputs": [],
      "name": "totalSupply",
      "outputs": [
        {
          "internalType": "uint256",
          "name": "",
          "type": "uint256"
        }
      ],
      "stateMutability": "view",
      "type": "function"
    },
    {
      "inputs": [
        {
          "internalType": "uint256",
          "name": "fromTokenId_",
          "type": "uint256"
        },
        {
          "internalType": "address",
          "name": "to_",
          "type": "address"
        },
        {
          "internalType": "uint256",
          "name": "value_",
          "type": "uint256"
        }
      ],
      "name": "transferFrom",
      "outputs": [
        {
          "internalType": "uint256",
          "name": "",
          "type": "uint256"
        }
      ],
      "stateMutability": "payable",
      "type": "function"
    },
    {
      "inputs": [
        {
          "internalType": "address",
          "name": "from_",
          "type": "address"
        },
        {
          "internalType": "address",
          "name": "to_",
          "type": "address"
        },
        {
          "internalType": "uint256",
          "name": "tokenId_",
          "type": "uint256"
        }
      ],
      "name": "transferFrom",
      "outputs": [],
      "stateMutability": "payable",
      "type": "function"
    },
    {
      "inputs": [
        {
          "internalType": "uint256",
          "name": "fromTokenId_",
          "type": "uint256"
        },
        {
          "internalType": "uint256",
          "name": "toTokenId_",
          "type": "uint256"
        },
        {
          "internalType": "uint256",
          "name": "value_",
          "type": "uint256"
        }
      ],
      "name": "transferFrom",
      "outputs": [],
      "stateMutability": "payable",
      "type": "function"
    },
    {
      "inputs": [
        {
          "internalType": "address",
          "name": "newOwner",
          "type": "address"
        }
      ],
      "name": "transferOwnership",
      "outputs": [],
      "stateMutability": "nonpayable",
      "type": "function"
    },
    {
      "inputs": [],
      "name": "valueDecimals",
      "outputs": [
        {
          "internalType": "uint8",
          "name": "",
          "type": "uint8"
        }
      ],
      "stateMutability": "view",
      "type": "function"
    }
  ],
  "bytecode": "0x60806040523480156200001157600080fd5b506040516200635c3803806200635c8339810160408190526200003491620002eb565b89898989898989601285858260006200004e8482620004c7565b5060016200005d8382620004c7565b506002805460ff191660ff9290921691909117905550620000879050620000813390565b62000190565b600a80546001600160a01b0319166001600160a01b038a16179055600b620000b08582620004c7565b50600b838389604051620000c490620001e2565b620000d39493929190620005c1565b604051809103906000f080158015620000f0573d6000803e3d6000fd5b50600880546001600160a01b0319166001600160a01b039290921691821790556040519081527f9ac4f8025631594629895b778dc5ee88d01673a254a2291f6b6b174ad25230ca9060200160405180910390a15050601080548a151560ff19918216179091556011899055601280549091168117905550601394506200017f9350859250849150620004c79050565b505050505050505050505062000699565b600980546001600160a01b038381166001600160a01b0319831681179093556040519116919082907f8be0079c531659141344cd1fd0a4f28419497f9722a3daafe3b4186f6b6457e090600090a35050565b611a46806200491683390190565b80516001600160a01b03811681146200020857600080fd5b919050565b634e487b7160e01b600052604160045260246000fd5b60005b838110156200024057818101518382015260200162000226565b50506000910152565b600082601f8301126200025b57600080fd5b81516001600160401b03808211156200027857620002786200020d565b604051601f8301601f19908116603f01168101908282118183101715620002a357620002a36200020d565b81604052838152866020858801011115620002bd57600080fd5b620002d084602083016020890162000223565b9695505050505050565b805180151581146200020857600080fd5b6000806000806000806000806000806101408b8d0312156200030c57600080fd5b620003178b620001f0565b99506200032760208c01620001f0565b60408c01519099506001600160401b03808211156200034557600080fd5b620003538e838f0162000249565b995060608d01519150808211156200036a57600080fd5b620003788e838f0162000249565b985060808d01519150808211156200038f57600080fd5b6200039d8e838f0162000249565b975060a08d0151915080821115620003b457600080fd5b620003c28e838f0162000249565b965060c08d0151915080821115620003d957600080fd5b620003e78e838f0162000249565b9550620003f760e08e01620002da565b94506101008d015193506101208d01519150808211156200041757600080fd5b50620004268d828e0162000249565b9150509295989b9194979a5092959850565b600181811c908216806200044d57607f821691505b6020821081036200046e57634e487b7160e01b600052602260045260246000fd5b50919050565b601f821115620004c257600081815260208120601f850160051c810160208610156200049d5750805b601f850160051c820191505b81811015620004be57828155600101620004a9565b5050505b505050565b81516001600160401b03811115620004e357620004e36200020d565b620004fb81620004f4845462000438565b8462000474565b602080601f8311600181146200053357600084156200051a5750858301515b600019600386901b1c1916600185901b178555620004be565b600085815260208120601f198616915b82811015620005645788860151825594840194600190910190840162000543565b5085821015620005835787850151600019600388901b60f8161c191681555b5050505050600190811b01905550565b60008151808452620005ad81602086016020860162000223565b601f01601f19169290920160200192915050565b608081526000808654620005d58162000438565b80608086015260a0600180841660008114620005fa5760018114620006155762000648565b60ff1985168884015283151560051b88018301955062000648565b8b60005260208060002060005b868110156200063f5781548b820187015290840190820162000622565b8a018501975050505b5050505050828103602084015262000661818762000593565b9050828103604084015262000677818662000593565b9150506200069060608301846001600160a01b03169052565b95945050505050565b61426d80620006a96000396000f3fe6080604052600436106102045760003560e01c80634f6ccce7116101185780639cc7f708116100a0578063e345e0bc1161006f578063e345e0bc1461058c578063e8a3d485146105ac578063e985e9c5146105c1578063f2fde38b1461060e578063f577a5001461062e57600080fd5b80639cc7f70814610519578063a22cb46514610539578063b88d4fde14610559578063c87b56dd1461056c57600080fd5b8063791581c6116100e7578063791581c614610493578063840f7113146104b35780638cb0a511146104d35780638da5cb5b146104e657806395d89b411461050457600080fd5b80634f6ccce71461041e5780636352211e1461043e57806370a082311461045e578063715018a61461047e57600080fd5b806323b872dd1161019b57806331b5b9071161016a57806331b5b90714610389578063395433b6146103a95780633e7e8669146103c957806342842e0e146103eb578063476de4a8146103fe57600080fd5b806323b872dd14610323578063263f3e7e146103365780632f745c5914610356578063310ed7f01461037657600080fd5b8063095ea7b3116101d7578063095ea7b3146102c657806309c3dd87146102db5780630f485c02146102fb57806318160ddd1461030e57600080fd5b806301ffc9a71461020957806306fdde031461023e57806307ce4c4e14610260578063081812fc1461028e575b600080fd5b34801561021557600080fd5b506102296102243660046136c4565b61064e565b60405190151581526020015b60405180910390f35b34801561024a57600080fd5b506102536106f1565b6040516102359190613731565b34801561026c57600080fd5b5061028061027b366004613828565b610783565b604051908152602001610235565b34801561029a57600080fd5b506102ae6102a93660046138e8565b6107cf565b6040516001600160a01b039091168152602001610235565b6102d96102d4366004613901565b610821565b005b3480156102e757600080fd5b506102536102f63660046138e8565b610905565b61028061030936600461392b565b6109ea565b34801561031a57600080fd5b50600554610280565b6102d9610331366004613960565b610aeb565b34801561034257600080fd5b506102806103513660046138e8565b610b98565b34801561036257600080fd5b50610280610371366004613901565b610be0565b6102d961038436600461398c565b610c81565b34801561039557600080fd5b506102d96103a43660046139b8565b610ef7565b3480156103b557600080fd5b506102d96103c43660046139ed565b610f69565b3480156103d557600080fd5b5060025460405160ff9091168152602001610235565b6102d96103f9366004613960565b610f77565b34801561040a57600080fd5b50610280610419366004613a0f565b610f92565b34801561042a57600080fd5b506102806104393660046138e8565b611186565b34801561044a57600080fd5b506102ae6104593660046138e8565b611217565b34801561046a57600080fd5b50610280610479366004613aba565b6112b3565b34801561048a57600080fd5b506102d961133b565b34801561049f57600080fd5b506102d96104ae3660046139ed565b61134f565b3480156104bf57600080fd5b506008546102ae906001600160a01b031681565b6102d96104e136600461392b565b611438565b3480156104f257600080fd5b506009546001600160a01b03166102ae565b34801561051057600080fd5b506102536114f7565b34801561052557600080fd5b506102806105343660046138e8565b611506565b34801561054557600080fd5b506102d9610554366004613ae3565b6118e8565b6102d9610567366004613b1a565b61192e565b34801561057857600080fd5b506102536105873660046138e8565b611960565b34801561059857600080fd5b506102806105a7366004613b96565b6119f2565b3480156105b857600080fd5b50610253611a26565b3480156105cd57600080fd5b506102296105dc366004613bc2565b6001600160a01b0391821660009081526007602090815260408083209390941682526002909201909152205460ff1690565b34801561061a57600080fd5b506102d9610629366004613aba565b611b13565b34801561063a57600080fd5b506102296106493660046138e8565b611b8c565b60006001600160e01b031982166301ffc9a760e01b148061067f57506001600160e01b03198216630354d60560e61b145b8061069a57506001600160e01b031982166380ac58cd60e01b145b806106b557506001600160e01b031982166370b0048160e11b145b806106d057506001600160e01b0319821663780e9d6360e01b145b806106eb57506001600160e01b03198216635b5e139f60e01b145b92915050565b60606000805461070090613bec565b80601f016020809104026020016040519081016040528092919081815260200182805461072c90613bec565b80156107795780601f1061074e57610100808354040283529160200191610779565b820191906000526020600020905b81548152906001019060200180831161075c57829003601f168201915b5050505050905090565b6000806107948a8a8a888888610f92565b6040805180820182529889526020808a019889526000838152600f909152209751885595516001909701969096555092979650505050505050565b60006107da82611bbd565b6000828152600660205260409020546005805490919081106107fe576107fe613c26565b60009182526020909120600460069092020101546001600160a01b031692915050565b600061082c82611217565b9050806001600160a01b0316836001600160a01b0316036108685760405162461bcd60e51b815260040161085f90613c3c565b60405180910390fd5b336001600160a01b0382161480610884575061088481336105dc565b6108f65760405162461bcd60e51b815260206004820152603960248201527f455243333532353a20617070726f76652063616c6c6572206973206e6f74206f60448201527f776e6572206e6f7220617070726f76656420666f7220616c6c00000000000000606482015260840161085f565b6109008383611c0e565b505050565b60606000610911611ca5565b6008549091506001600160a01b031661097157600081511161094257604051806020016040528060008152506109e3565b8061094c84611cb4565b60405160200161095d929190613c7e565b6040516020818303038152906040526109e3565b600854604051633601bfc560e11b8152600481018590526001600160a01b0390911690636c037f8a906024015b600060405180830381865afa1580156109bb573d6000803e3d6000fd5b505050506040513d6000823e601f3d908101601f191682016040526109e39190810190613cbe565b9392505050565b60105460009060ff168015610a0157506011548210155b610a5e5760405162461bcd60e51b815260206004820152602860248201527f54696d654372656469743a2074686973207472616e73666572206973206e6f7460448201526708185b1b1bddd95960c21b606482015260840161085f565b6000848152600f60205260409020600101544210610ad85760405162461bcd60e51b815260206004820152603160248201527f54696d654372656469743a2063616e6e6f74207472616e736665722066726f6d6044820152701030b71032bc3834b932b2103a37b5b2b760791b606482015260840161085f565b610ae3848484611d47565b949350505050565b60105460ff16610b0d5760405162461bcd60e51b815260040161085f90613d35565b601154610b1982611506565b1015610b8d5760405162461bcd60e51b815260206004820152603f60248201527f54696d654372656469743a20746f6b656e2076616c7565206973206c6573732060448201527f7468616e206d696e696d756d207472616e7366657261626c652076616c756500606482015260840161085f565b610900838383611d54565b6000610ba382611bbd565b600082815260066020526040902054600580549091908110610bc757610bc7613c26565b9060005260206000209060060201600101549050919050565b6000610beb836112b3565b8210610c445760405162461bcd60e51b815260206004820152602260248201527f455243333532353a206f776e657220696e646578206f7574206f6620626f756e604482015261647360f01b606482015260840161085f565b6001600160a01b0383166000908152600760205260409020805483908110610c6e57610c6e613c26565b9060005260206000200154905092915050565b60105460ff16610ca35760405162461bcd60e51b815260040161085f90613d35565b601154811015610d2f5760405162461bcd60e51b815260206004820152604b60248201527f54696d654372656469743a20616d6f756e74206265696e67207472616e73666560448201527f726564206973206c657373207468616e206d696e696d756d207472616e73666560648201526a7261626c652076616c756560a81b608482015260a40161085f565b6000838152600f60205260409020600101544210610dae5760405162461bcd60e51b815260206004820152603660248201527f54696d654372656469743a2063616e6e6f74207472616e736665722074696d6560448201527510333937b69030b71032bc3834b932b2103a37b5b2b760511b606482015260840161085f565b6000828152600f60205260409020600101544210610e2d5760405162461bcd60e51b815260206004820152603660248201527f54696d654372656469743a2063616e6e6f74207472616e736665722074696d656044820152751034b73a379030b71032bc3834b932b2103a37b5b2b760511b606482015260840161085f565b6000828152600f6020526040902060010154610e4883611506565b610e529042613d90565b1115610eec5760405162461bcd60e51b815260206004820152605760248201527f54696d654372656469743a2074696d652076616c7565206f6620746f6b656e2060448201527f726563656976696e67207472616e7366657220616c726561647920657863656560648201527f64732074696d652074696c6c2065787069726174696f6e000000000000000000608482015260a40161085f565b610900838383611d5f565b600b610f038282613de9565b506008546040516355f804b360e01b81526001600160a01b03909116906355f804b390610f34908490600401613731565b600060405180830381600087803b158015610f4e57600080fd5b505af1158015610f62573d6000803e3d6000fd5b5050505050565b610f738282611d6a565b5050565b6109008383836040518060200160405280600081525061192e565b6000610f9c611e7b565b6000610fa6611ed5565b9050610fb488828989611eec565b6040805160c08101825282815260208082018a90528183018990526001600160a01b038b166060830152600060808301819052835181815291820190935260a0820152905061100281612016565b61100c8983612168565b600854604051632108947560e21b81526001600160a01b039091169063842251d49061103e9085908a90600401613ea9565b600060405180830381600087803b15801561105857600080fd5b505af115801561106c573d6000803e3d6000fd5b505060085460405163246a908b60e01b81526001600160a01b03909116925063246a908b91506110a29085908990600401613ea9565b600060405180830381600087803b1580156110bc57600080fd5b505af11580156110d0573d6000803e3d6000fd5b5050600854604051630190503b60e61b81526001600160a01b0390911692506364140ec091506111069085908890600401613ea9565b600060405180830381600087803b15801561112057600080fd5b505af1158015611134573d6000803e3d6000fd5b505060408051858152602081018c90529081018a90527f84eeb48eca46cea54afc9753345f6038981672ea565f32885420829dfd88aea69250606001905060405180910390a150979650505050505050565b600061119160055490565b82106111eb5760405162461bcd60e51b815260206004820152602360248201527f455243333532353a20676c6f62616c20696e646578206f7574206f6620626f756044820152626e647360e81b606482015260840161085f565b600582815481106111fe576111fe613c26565b9060005260206000209060060201600001549050919050565b600061122282611bbd565b60008281526006602052604090205460058054909190811061124657611246613c26565b60009182526020909120600360069092020101546001600160a01b03169050806112ae5760405162461bcd60e51b8152602060048201526019602482015278115490cccd4c8d4e881a5b9d985b1a59081d1bdad95b881251603a1b604482015260640161085f565b919050565b60006001600160a01b03821661131f5760405162461bcd60e51b815260206004820152602b60248201527f455243333532353a2062616c616e636520717565727920666f7220746865207a60448201526a65726f206164647265737360a81b606482015260840161085f565b506001600160a01b031660009081526007602052604090205490565b611343611e7b565b61134d60006121f1565b565b6000828152600f602052604090206001015442106113c75760405162461bcd60e51b815260206004820152602f60248201527f54696d654372656469743a2063616e6e6f74206164642074696d6520746f206160448201526e371032bc3834b932b2103a37b5b2b760891b606482015260840161085f565b6000828152600f6020526040902060010154816113e384611506565b6113ed9042613d90565b6113f79190613d90565b111561142e578061140783611506565b6114119042613d90565b61141b9190613d90565b6000838152600f60205260409020600101555b610f738282612243565b600061144384611217565b9050806001600160a01b0316836001600160a01b0316036114765760405162461bcd60e51b815260040161085f90613c3c565b6114803385612267565b6114e65760405162461bcd60e51b815260206004820152603160248201527f455243333532353a20617070726f76652063616c6c6572206973206e6f74206f6044820152701ddb995c881b9bdc88185c1c1c9bdd9959607a1b606482015260840161085f565b6114f18484846122e9565b50505050565b60606001805461070090613bec565b600061151182611bbd565b60408051808201825260078152667365636f6e647360c81b602090910152517fe1130af6d7c17bab477e8229ba4562e6c6de1a24d5f06f81ba647253be54326f9061155e90601390613ec2565b6040518091039020036115a8576000828152600d6020526040902054600c8054909190811061158f5761158f613c26565b9060005260206000209060060201600201549050919050565b60408051808201825260078152666d696e7574657360c81b602090910152517f48afcfd715a54c0f2b115d49c5dab7260911d987f1dd4bd23ff450d97c876b1a906115f590601390613ec2565b60405180910390200361167b576012546116139060ff16600a61401c565b601254603c906116279060ff16600a61401c565b6000858152600d6020526040902054600c8054909190811061164b5761164b613c26565b906000526020600020906006020160020154611667919061402b565b611671919061402b565b6106eb919061404d565b6040805180820182526005815264686f75727360d81b602090910152517fbe80a06a2d1f01b7dcd22cdbaefb6c34d08c1fcb16516b93fd2cdd4fa90dcbc4906116c690601390613ec2565b6040518091039020036116f9576012546116e49060ff16600a61401c565b601254610e10906116279060ff16600a61401c565b60408051808201825260048152636461797360e01b602090910152517f4d9d0ff0b8b410f30a02267bbb4e02119e41039b2d547535c650519ae1368ba09061174390601390613ec2565b604051809103902003611777576012546117619060ff16600a61401c565b60125462015180906116279060ff16600a61401c565b60408051808201825260068152656d6f6e74687360d01b602090910152517f6230d1e353eb51d0f8d0672d8392cb57da0b75f347b5850b6a8367e1f83a68ff906117c390601390613ec2565b60405180910390200361185b57601254612710906117e59060ff16600a61401c565b60125464061e696a80906117fd9060ff16600a61401c565b6000868152600d6020526040902054600c8054909190811061182157611821613c26565b90600052602060002090600602016002015461183d919061402b565b611847919061402b565b611851919061404d565b6106eb919061402b565b6040805180820182526005815264796561727360d81b602090910152517f7e64f70c957efb95084444d5bbe643bce80158d390e3449c95ae9ba11db630ba906118a690601390613ec2565b6040518091039020036118e057601254612710906118c89060ff16600a61401c565b60125464496cf0fe00906117fd9060ff16600a61401c565b506000919050565b6118f28282612421565b336000908152600e602090815260408083206001600160a01b039590951683526002909401905291909120805460ff1916911515919091179055565b6119383383612267565b6119545760405162461bcd60e51b815260040161085f90614064565b6114f18484848461242c565b606061196b82611bbd565b6000611975611ca5565b6008549091506001600160a01b03166119c15760008151116119a657604051806020016040528060008152506109e3565b806119b084611cb4565b60405160200161095d9291906140b6565b6008546040516344a5a61760e11b8152600481018590526001600160a01b039091169063894b4c2e9060240161099e565b60006119fd83611bbd565b5060009182526004602090815260408084206001600160a01b0393909316845291905290205490565b60606000611a32611ca5565b6008549091506001600160a01b0316611a92576000815111611a635760405180602001604052806000815250611b0d565b80611a6d3061249f565b604051602001611a7e9291906140e5565b604051602081830303815290604052611b0d565b600860009054906101000a90046001600160a01b03166001600160a01b031663725fa09c6040518163ffffffff1660e01b8152600401600060405180830381865afa158015611ae5573d6000803e3d6000fd5b505050506040513d6000823e601f3d908101601f19168201604052611b0d9190810190613cbe565b91505090565b611b1b611e7b565b6001600160a01b038116611b805760405162461bcd60e51b815260206004820152602660248201527f4f776e61626c653a206e6577206f776e657220697320746865207a65726f206160448201526564647265737360d01b606482015260840161085f565b611b89816121f1565b50565b6000818152600f602052604081205442108015906106eb5750506000908152600f6020526040902060010154421090565b611bc6816124b5565b611b895760405162461bcd60e51b8152602060048201526019602482015278115490cccd4c8d4e881a5b9d985b1a59081d1bdad95b881251603a1b604482015260640161085f565b600081815260066020526040902054600580548492908110611c3257611c32613c26565b6000918252602090912060069091020160040180546001600160a01b0319166001600160a01b0392831617905581908316611c6c82611217565b6001600160a01b03167f8c5be1e5ebec7d5bd14f71427d1e84f3dd0314c0f7b2291e5b200ac8c7c3b92560405160405180910390a45050565b6060600b805461070090613bec565b60606000611cc183612501565b600101905060008167ffffffffffffffff811115611ce157611ce161375b565b6040519080825280601f01601f191660200182016040528015611d0b576020820181803683370190505b5090508181016020015b600019016f181899199a1a9b1b9c1cb0b131b232b360811b600a86061a8153600a8504945084611d1557509392505050565b6000610ae38484846125d9565b610900838383612611565b610900838383612642565b611d7382611bbd565b600082815260066020526040812054600580549091908110611d9757611d97613c26565b600091825260209091206006909102016003810154600182015460028301549293506001600160a01b039091169184811015611e215760405162461bcd60e51b815260206004820152602360248201527f455243333532353a206275726e2076616c756520657863656564732062616c616044820152626e636560e81b606482015260840161085f565b84846002016000828254611e359190614129565b909155505060405185815260009087907f0b2aac84f3ec956911fd78eae5311062972ff949f38412e8da39069d9f068cc69060200160405180910390a35b505050505050565b6009546001600160a01b0316331461134d5760405162461bcd60e51b815260206004820181905260248201527f4f776e61626c653a2063616c6c6572206973206e6f7420746865206f776e6572604482015260640161085f565b6000611ee5600380546001019055565b5060035490565b6001600160a01b038416611f4c5760405162461bcd60e51b815260206004820152602160248201527f455243333532353a206d696e7420746f20746865207a65726f206164647265736044820152607360f81b606482015260840161085f565b82600003611fa65760405162461bcd60e51b815260206004820152602160248201527f455243333532353a2063616e6e6f74206d696e74207a65726f20746f6b656e496044820152601960fa1b606482015260840161085f565b611faf836124b5565b15611ffc5760405162461bcd60e51b815260206004820152601d60248201527f455243333532353a20746f6b656e20616c7265616479206d696e746564000000604482015260640161085f565b612007848484612658565b612011838261271e565b6114f1565b600c805482516000908152600d6020908152604080832084905560018401855593909152835160069092027fdf6966c971051c3d54ec59162606531493a51404a002842f56009d7e5cf4a8c78101928355818501517fdf6966c971051c3d54ec59162606531493a51404a002842f56009d7e5cf4a8c8820155928401517fdf6966c971051c3d54ec59162606531493a51404a002842f56009d7e5cf4a8c984015560608401517fdf6966c971051c3d54ec59162606531493a51404a002842f56009d7e5cf4a8ca840180546001600160a01b039283166001600160a01b03199182161790915560808601517fdf6966c971051c3d54ec59162606531493a51404a002842f56009d7e5cf4a8cb8601805491909316911617905560a0840151805185946114f1937fdf6966c971051c3d54ec59162606531493a51404a002842f56009d7e5cf4a8cc90910192019061361a565b6000818152600d6020526040902054600c8054849290811061218c5761218c613c26565b6000918252602080832060069290920290910160030180546001600160a01b0319166001600160a01b03948516179055939091168152600e80845260408083208054858552600182810188529285208190559286529082018155825292902090910155565b600980546001600160a01b038381166001600160a01b0319831681179093556040519116919082907f8be0079c531659141344cd1fd0a4f28419497f9722a3daafe3b4186f6b6457e090600090a35050565b600061224e83611217565b9050600061225b84610b98565b9050612011848461271e565b60008061227383611217565b9050806001600160a01b0316846001600160a01b031614806122be57506001600160a01b038082166000908152600760209081526040808320938816835260029093019052205460ff165b80610ae35750836001600160a01b03166122d7846107cf565b6001600160a01b031614949350505050565b6001600160a01b0382166123525760405162461bcd60e51b815260206004820152602a60248201527f455243333532353a20617070726f76652076616c756520746f20746865207a65604482015269726f206164647265737360b01b606482015260840161085f565b61235c82846127a3565b6123c25760008381526006602052604090205460058054909190811061238457612384613c26565b60009182526020808320600692909202909101600501805460018101825590835291200180546001600160a01b0319166001600160a01b0384161790555b60008381526004602090815260408083206001600160a01b038616808552908352928190208490555183815285917f621b050de0ad08b51d19b48b3e6df75348c4de6bdd93e81b252ca62e28265b1b91015b60405180910390a3505050565b610f73338383612876565b612437848484612940565b61244384848484612aa1565b6114f15760405162461bcd60e51b815260206004820152602760248201527f455243333532353a207472616e7366657220746f206e6f6e204552433732315260448201526632b1b2b4bb32b960c91b606482015260840161085f565b60606106eb6001600160a01b0383166014612bed565b600554600090158015906106eb57506000828152600660205260409020546005805484929081106124e8576124e8613c26565b9060005260206000209060060201600001541492915050565b60008072184f03e93ff9f4daa797ed6e38ed64bf6a1f0160401b83106125405772184f03e93ff9f4daa797ed6e38ed64bf6a1f0160401b830492506040015b6d04ee2d6d415b85acef8100000000831061256c576d04ee2d6d415b85acef8100000000830492506020015b662386f26fc10000831061258a57662386f26fc10000830492506010015b6305f5e10083106125a2576305f5e100830492506008015b61271083106125b657612710830492506004015b606483106125c8576064830492506002015b600a83106106eb5760010192915050565b60006125e6338584612d89565b6125ef84612e19565b905061260683826125ff87610b98565b6000611eec565b6109e3848284612e23565b61261b3382612267565b6126375760405162461bcd60e51b815260040161085f90614064565b610900838383612940565b61264d338483612d89565b610900838383612e23565b6040805160c081018252838152602080820184905260008284018190526001600160a01b038716606084015260808301819052835181815291820190935260a082015290506126a681613114565b6126b08484613263565b60405183906001600160a01b038616906000907fddf252ad1be2c89b69c2b068fc378daa952ba7f163c4a11628f55a4df523b3ef908290a4816000847fe4f48c240d3b994948aa54f3e2f5fca59263dfe1d52b6e4cf39a5d249b5ccb6560405160405180910390a450505050565b60008281526006602052604090205460058054839290811061274257612742613c26565b906000526020600020906006020160020160008282546127629190613d90565b909155505060405181815282906000907f0b2aac84f3ec956911fd78eae5311062972ff949f38412e8da39069d9f068cc69060200160405180910390a35050565b6000818152600660205260408120546005805483929081106127c7576127c7613c26565b6000918252602082206005600690920201015491505b8181101561286b57600084815260066020526040902054600580546001600160a01b0388169290811061281257612812613c26565b9060005260206000209060060201600501828154811061283457612834613c26565b6000918252602090912001546001600160a01b031603612859576001925050506106eb565b806128638161413c565b9150506127dd565b506000949350505050565b816001600160a01b0316836001600160a01b0316036128d75760405162461bcd60e51b815260206004820152601a60248201527f455243333532353a20617070726f766520746f2063616c6c6572000000000000604482015260640161085f565b6001600160a01b0383811660008181526007602090815260408083209487168084526002909501825291829020805460ff191686151590811790915591519182527f17307eab39ab6107e8899845ad3d59bd9653f200f220920489ca2b5937696c319101612414565b826001600160a01b031661295382611217565b6001600160a01b0316146129b55760405162461bcd60e51b8152602060048201526024808201527f455243333532353a207472616e736665722066726f6d20696e76616c6964206f6044820152633bb732b960e11b606482015260840161085f565b6001600160a01b038216612a195760405162461bcd60e51b815260206004820152602560248201527f455243333532353a207472616e7366657220746f20746865207a65726f206164604482015264647265737360d81b606482015260840161085f565b6000612a2482610b98565b90506000612a31836132ec565b9050612a3e600084611c0e565b612a478361331b565b612a5185846133c6565b612a5b8484613263565b82846001600160a01b0316866001600160a01b03167fddf252ad1be2c89b69c2b068fc378daa952ba7f163c4a11628f55a4df523b3ef60405160405180910390a4610f62565b60006001600160a01b0384163b15612be257604051630a85bd0160e11b81526001600160a01b0385169063150b7a0290612ae5903390899088908890600401614155565b6020604051808303816000875af1925050508015612b20575060408051601f3d908101601f19168201909252612b1d91810190614192565b60015b612bc8573d808015612b4e576040519150601f19603f3d011682016040523d82523d6000602084013e612b53565b606091505b508051600003612bc05760405162461bcd60e51b815260206004820152603260248201527f4552433732313a207472616e7366657220746f206e6f6e20455243373231526560448201527131b2b4bb32b91034b6b83632b6b2b73a32b960711b606482015260840161085f565b805181602001fd5b6001600160e01b031916630a85bd0160e11b149050610ae3565b506001949350505050565b60606000612bfc83600261404d565b612c07906002613d90565b67ffffffffffffffff811115612c1f57612c1f61375b565b6040519080825280601f01601f191660200182016040528015612c49576020820181803683370190505b509050600360fc1b81600081518110612c6457612c64613c26565b60200101906001600160f81b031916908160001a905350600f60fb1b81600181518110612c9357612c93613c26565b60200101906001600160f81b031916908160001a9053506000612cb784600261404d565b612cc2906001613d90565b90505b6001811115612d3a576f181899199a1a9b1b9c1cb0b131b232b360811b85600f1660108110612cf657612cf6613c26565b1a60f81b828281518110612d0c57612d0c613c26565b60200101906001600160f81b031916908160001a90535060049490941c93612d33816141af565b9050612cc5565b5083156109e35760405162461bcd60e51b815260206004820181905260248201527f537472696e67733a20686578206c656e67746820696e73756666696369656e74604482015260640161085f565b6000612d9583856119f2565b9050612da18484612267565b158015612db057506000198114155b156114f15781811015612e055760405162461bcd60e51b815260206004820152601f60248201527f455243333532353a20696e73756666696369656e7420616c6c6f77616e636500604482015260640161085f565b6114f18385612e148585614129565b6122e9565b60006106eb611ed5565b612e2c836124b5565b612e885760405162461bcd60e51b815260206004820152602760248201527f455243333532353a207472616e736665722066726f6d20696e76616c696420746044820152661bdad95b88125160ca1b606482015260840161085f565b612e91826124b5565b612eeb5760405162461bcd60e51b815260206004820152602560248201527f455243333532353a207472616e7366657220746f20696e76616c696420746f6b604482015264195b88125160da1b606482015260840161085f565b600083815260066020526040812054600580549091908110612f0f57612f0f613c26565b9060005260206000209060060201905060006005600660008681526020019081526020016000205481548110612f4757612f47613c26565b906000526020600020906006020190508282600201541015612fbe5760405162461bcd60e51b815260206004820152602a60248201527f455243333532353a20696e73756666696369656e742062616c616e636520666f60448201526939103a3930b739b332b960b11b606482015260840161085f565b806001015482600101541461302c5760405162461bcd60e51b815260206004820152602e60248201527f455243333532353a207472616e7366657220746f20746f6b656e20776974682060448201526d191a5999995c995b9d081cdb1bdd60921b606482015260840161085f565b828260020160008282546130409190614129565b925050819055508281600201600082825461305b9190613d90565b9091555050604051838152849086907f0b2aac84f3ec956911fd78eae5311062972ff949f38412e8da39069d9f068cc69060200160405180910390a36130b2858585604051806020016040528060008152506134e7565b610f625760405162461bcd60e51b815260206004820152602d60248201527f455243333532353a207472616e736665722072656a656374656420627920455260448201526c21999a991aa932b1b2b4bb32b960991b606482015260840161085f565b600580548251600090815260066020818152604080842085905560018501865594909252845192027f036b6384b5eca791c62761152d0c79bb0604c104a5fb6f4eb0703f3154bb3db08101928355818501517f036b6384b5eca791c62761152d0c79bb0604c104a5fb6f4eb0703f3154bb3db1820155928401517f036b6384b5eca791c62761152d0c79bb0604c104a5fb6f4eb0703f3154bb3db284015560608401517f036b6384b5eca791c62761152d0c79bb0604c104a5fb6f4eb0703f3154bb3db3840180546001600160a01b039283166001600160a01b03199182161790915560808601517f036b6384b5eca791c62761152d0c79bb0604c104a5fb6f4eb0703f3154bb3db48601805491909316911617905560a0840151805185946114f1937f036b6384b5eca791c62761152d0c79bb0604c104a5fb6f4eb0703f3154bb3db590910192019061361a565b60008181526006602052604090205460058054849290811061328757613287613c26565b6000918252602080832060069290920290910160030180546001600160a01b0319166001600160a01b03948516179055939091168152600780845260408083208054858552600182810188529285208190559286529082018155825292902090910155565b60006132f782611bbd565b60008281526006602052604090205460058054909190811061158f5761158f613c26565b60008181526006602052604081205460058054909190811061333f5761333f613c26565b600091825260208220600560069092020190810154909250905b818110156133b757600083600501828154811061337857613378613c26565b60009182526020808320909101548783526004825260408084206001600160a01b039092168452915281205550806133af8161413c565b915050613359565b5061090060058301600061367f565b6000818152600660205260408120546005805490919081106133ea576133ea613c26565b6000918252602080832060069290920290910160030180546001600160a01b0319166001600160a01b039485161790559184168152600790915260408120805490919061343990600190614129565b9050600082600001828154811061345257613452613c26565b9060005260206000200154905060008360010160008681526020019081526020016000205490508184600001828154811061348f5761348f613c26565b600091825260208083209091019290925583815260018601909152604080822083905586825281205583548490806134c9576134c96141c6565b60019003818190600052602060002001600090559055505050505050565b6000806134f385611217565b90506001600160a01b0381163b1515801561357757506040516301ffc9a760e01b8152629ce20b60e01b60048201526001600160a01b038216906301ffc9a790602401602060405180830381865afa158015613553573d6000803e3d6000fd5b505050506040513d601f19601f8201168201806040525081019061357791906141dc565b1561361057604051629ce20b60e01b81526000906001600160a01b03831690629ce20b906135b19033908b908b908b908b906004016141f9565b6020604051808303816000875af11580156135d0573d6000803e3d6000fd5b505050506040513d601f19601f820116820180604052508101906135f49190614192565b6001600160e01b031916629ce20b60e01b149250610ae3915050565b6001915050610ae3565b82805482825590600052602060002090810192821561366f579160200282015b8281111561366f57825182546001600160a01b0319166001600160a01b0390911617825560209092019160019091019061363a565b5061367b929150613699565b5090565b5080546000825590600052602060002090810190611b8991905b5b8082111561367b576000815560010161369a565b6001600160e01b031981168114611b8957600080fd5b6000602082840312156136d657600080fd5b81356109e3816136ae565b60005b838110156136fc5781810151838201526020016136e4565b50506000910152565b6000815180845261371d8160208601602086016136e1565b601f01601f19169290920160200192915050565b6020815260006109e36020830184613705565b80356001600160a01b03811681146112ae57600080fd5b634e487b7160e01b600052604160045260246000fd5b604051601f8201601f1916810167ffffffffffffffff8111828210171561379a5761379a61375b565b604052919050565b600067ffffffffffffffff8211156137bc576137bc61375b565b50601f01601f191660200190565b60006137dd6137d8846137a2565b613771565b90508281528383830111156137f157600080fd5b828260208301376000602084830101529392505050565b600082601f83011261381957600080fd5b6109e3838335602085016137ca565b600080600080600080600080610100898b03121561384557600080fd5b61384e89613744565b97506020890135965060408901359550606089013594506080890135935060a089013567ffffffffffffffff8082111561388757600080fd5b6138938c838d01613808565b945060c08b01359150808211156138a957600080fd5b6138b58c838d01613808565b935060e08b01359150808211156138cb57600080fd5b506138d88b828c01613808565b9150509295985092959890939650565b6000602082840312156138fa57600080fd5b5035919050565b6000806040838503121561391457600080fd5b61391d83613744565b946020939093013593505050565b60008060006060848603121561394057600080fd5b8335925061395060208501613744565b9150604084013590509250925092565b60008060006060848603121561397557600080fd5b61397e84613744565b925061395060208501613744565b6000806000606084860312156139a157600080fd5b505081359360208301359350604090920135919050565b6000602082840312156139ca57600080fd5b813567ffffffffffffffff8111156139e157600080fd5b610ae384828501613808565b60008060408385031215613a0057600080fd5b50508035926020909101359150565b60008060008060008060c08789031215613a2857600080fd5b613a3187613744565b95506020870135945060408701359350606087013567ffffffffffffffff80821115613a5c57600080fd5b613a688a838b01613808565b94506080890135915080821115613a7e57600080fd5b613a8a8a838b01613808565b935060a0890135915080821115613aa057600080fd5b50613aad89828a01613808565b9150509295509295509295565b600060208284031215613acc57600080fd5b6109e382613744565b8015158114611b8957600080fd5b60008060408385031215613af657600080fd5b613aff83613744565b91506020830135613b0f81613ad5565b809150509250929050565b60008060008060808587031215613b3057600080fd5b613b3985613744565b9350613b4760208601613744565b925060408501359150606085013567ffffffffffffffff811115613b6a57600080fd5b8501601f81018713613b7b57600080fd5b613b8a878235602084016137ca565b91505092959194509250565b60008060408385031215613ba957600080fd5b82359150613bb960208401613744565b90509250929050565b60008060408385031215613bd557600080fd5b613bde83613744565b9150613bb960208401613744565b600181811c90821680613c0057607f821691505b602082108103613c2057634e487b7160e01b600052602260045260246000fd5b50919050565b634e487b7160e01b600052603260045260246000fd5b60208082526022908201527f455243333532353a20617070726f76616c20746f2063757272656e74206f776e60408201526132b960f11b606082015260800190565b60008351613c908184602088016136e1565b64736c6f742f60d81b9083019081528351613cb28160058401602088016136e1565b01600501949350505050565b600060208284031215613cd057600080fd5b815167ffffffffffffffff811115613ce757600080fd5b8201601f81018413613cf857600080fd5b8051613d066137d8826137a2565b818152856020838501011115613d1b57600080fd5b613d2c8260208301602086016136e1565b95945050505050565b60208082526025908201527f54696d654372656469743a207472616e736665727320617265206e6f7420616c6040820152641b1bddd95960da1b606082015260800190565b634e487b7160e01b600052601160045260246000fd5b808201808211156106eb576106eb613d7a565b601f82111561090057600081815260208120601f850160051c81016020861015613dca5750805b601f850160051c820191505b81811015611e7357828155600101613dd6565b815167ffffffffffffffff811115613e0357613e0361375b565b613e1781613e118454613bec565b84613da3565b602080601f831160018114613e4c5760008415613e345750858301515b600019600386901b1c1916600185901b178555611e73565b600085815260208120601f198616915b82811015613e7b57888601518255948401946001909101908401613e5c565b5085821015613e995787850151600019600388901b60f8161c191681555b5050505050600190811b01905550565b828152604060208201526000610ae36040830184613705565b6000808354613ed081613bec565b60018281168015613ee85760018114613efd57613f2c565b60ff1984168752821515830287019450613f2c565b8760005260208060002060005b85811015613f235781548a820152908401908201613f0a565b50505082870194505b50929695505050505050565b600181815b80851115613f73578160001904821115613f5957613f59613d7a565b80851615613f6657918102915b93841c9390800290613f3d565b509250929050565b600082613f8a575060016106eb565b81613f97575060006106eb565b8160018114613fad5760028114613fb757613fd3565b60019150506106eb565b60ff841115613fc857613fc8613d7a565b50506001821b6106eb565b5060208310610133831016604e8410600b8410161715613ff6575081810a6106eb565b6140008383613f38565b806000190482111561401457614014613d7a565b029392505050565b60006109e360ff841683613f7b565b60008261404857634e487b7160e01b600052601260045260246000fd5b500490565b80820281158282048414176106eb576106eb613d7a565b60208082526032908201527f455243333532353a207472616e736665722063616c6c6572206973206e6f74206040820152711bdddb995c881b9bdc88185c1c1c9bdd995960721b606082015260800190565b600083516140c88184602088016136e1565b8351908301906140dc8183602088016136e1565b01949350505050565b600083516140f78184602088016136e1565b68636f6e74726163742f60b81b908301908152835161411d8160098401602088016136e1565b01600901949350505050565b818103818111156106eb576106eb613d7a565b60006001820161414e5761414e613d7a565b5060010190565b6001600160a01b038581168252841660208201526040810183905260806060820181905260009061418890830184613705565b9695505050505050565b6000602082840312156141a457600080fd5b81516109e3816136ae565b6000816141be576141be613d7a565b506000190190565b634e487b7160e01b600052603160045260246000fd5b6000602082840312156141ee57600080fd5b81516109e381613ad5565b60018060a01b038616815284602082015283604082015282606082015260a06080820152600061422c60a0830184613705565b97965050505050505056fea2646970667358221220ab64b7f1ae7e7b277f0ed93de76ce31314c132d2ec96b965deabb6711439a24e64736f6c6343000811003360806040523480156200001157600080fd5b5060405162001a4638038062001a46833981016040819052620000349162000150565b600162000042858262000292565b50600262000051848262000292565b50600362000060838262000292565b50600080546001600160a01b0319166001600160a01b0392909216919091179055506200035e915050565b634e487b7160e01b600052604160045260246000fd5b600082601f830112620000b357600080fd5b81516001600160401b0380821115620000d057620000d06200008b565b604051601f8301601f19908116603f01168101908282118183101715620000fb57620000fb6200008b565b816040528381526020925086838588010111156200011857600080fd5b600091505b838210156200013c57858201830151818301840152908201906200011d565b600093810190920192909252949350505050565b600080600080608085870312156200016757600080fd5b84516001600160401b03808211156200017f57600080fd5b6200018d88838901620000a1565b95506020870151915080821115620001a457600080fd5b620001b288838901620000a1565b94506040870151915080821115620001c957600080fd5b50620001d887828801620000a1565b606087015190935090506001600160a01b0381168114620001f857600080fd5b939692955090935050565b600181811c908216806200021857607f821691505b6020821081036200023957634e487b7160e01b600052602260045260246000fd5b50919050565b601f8211156200028d57600081815260208120601f850160051c81016020861015620002685750805b601f850160051c820191505b81811015620002895782815560010162000274565b5050505b505050565b81516001600160401b03811115620002ae57620002ae6200008b565b620002c681620002bf845462000203565b846200023f565b602080601f831160018114620002fe5760008415620002e55750858301515b600019600386901b1c1916600185901b17855562000289565b600085815260208120601f198616915b828110156200032f578886015182559484019460019091019084016200030e565b50858210156200034e5787850151600019600388901b60f8161c191681555b5050505050600190811b01905550565b6116d8806200036e6000396000f3fe608060405234801561001057600080fd5b506004361061007d5760003560e01c80636c037f8a1161005b5780636c037f8a146100bd578063725fa09c146100e6578063842251d4146100ee578063894b4c2e1461010157600080fd5b8063246a908b1461008257806355f804b31461009757806364140ec0146100aa575b600080fd5b610095610090366004610d53565b610114565b005b6100956100a5366004610d9a565b610131565b6100956100b8366004610d53565b610141565b6100d06100cb366004610dd7565b610159565b6040516100dd9190610e14565b60405180910390f35b6100d06101cf565b6100956100fc366004610d53565b6102f4565b6100d061010f366004610dd7565b61030c565b600082815260046020526040902061012c8282610ecf565b505050565b600161013d8282610ecf565b5050565b600082815260056020526040902061012c8282610ecf565b60606101a961016783610416565b6101708461048f565b610179856104c1565b61018286610543565b6040516020016101959493929190610fab565b6040516020818303038152906040526105c5565b6040516020016101b99190611079565b6040516020818303038152906040529050919050565b606060003390506102cf816001600160a01b03166306fdde036040518163ffffffff1660e01b8152600401600060405180830381865afa158015610217573d6000803e3d6000fd5b505050506040513d6000823e601f3d908101601f1916820160405261023f91908101906110be565b610247610718565b61024f6107aa565b6102bc856001600160a01b0316633e7e86696040518163ffffffff1660e01b8152600401602060405180830381865afa158015610290573d6000803e3d6000fd5b505050506040513d601f19601f820116820180604052508101906102b49190611135565b60ff166107df565b6040516020016101959493929190611158565b6040516020016102df9190611079565b60405160208183030381529060405291505090565b600082815260066020526040902061012c8282610ecf565b6060336103ef61031b84610872565b610324856108f4565b61032d86610996565b604051631398fee160e31b8152600481018890526103a0906001600160a01b03871690639cc7f708906024015b602060405180830381865afa158015610377573d6000803e3d6000fd5b505050506040513d601f19601f8201168201806040525081019061039b919061122b565b6107df565b60405163131f9f3f60e11b8152600481018990526103d1906001600160a01b0388169063263f3e7e9060240161035a565b6103da896109cb565b60405160200161019596959493929190611244565b6040516020016103ff9190611079565b604051602081830303815290604052915050919050565b60005460405163ec327a2160e01b8152600481018390526060916001600160a01b03169063ec327a21906024015b600060405180830381865afa158015610461573d6000803e3d6000fd5b505050506040513d6000823e601f3d908101601f1916820160405261048991908101906110be565b92915050565b60005460405163bc74ebb960e01b8152600481018390526060916001600160a01b03169063bc74ebb990602401610444565b6000546040516309c3dd8760e01b8152600481018390526060916001600160a01b0316906309c3dd8790602401600060405180830381865afa15801561050b573d6000803e3d6000fd5b505050506040513d6000823e601f3d908101601f1916820160405261053391908101906110be565b6040516020016101b9919061136a565b6000546040516309c3dd8760e01b8152600481018390526060916001600160a01b0316906309c3dd8790602401600060405180830381865afa15801561058d573d6000803e3d6000fd5b505050506040513d6000823e601f3d908101601f191682016040526105b591908101906110be565b6040516020016101b99190611394565b606081516000036105e457505060408051602081019091526000815290565b6000604051806060016040528060408152602001611663604091399050600060038451600261061391906113de565b61061d91906113f1565b610628906004611413565b67ffffffffffffffff81111561064057610640610c8e565b6040519080825280601f01601f19166020018201604052801561066a576020820181803683370190505b509050600182016020820185865187015b808210156106d6576003820191508151603f8160121c168501518453600184019350603f81600c1c168501518453600184019350603f8160061c168501518453600184019350603f811685015184535060018301925061067b565b50506003865106600181146106f257600281146107055761070d565b603d6001830353603d600283035361070d565b603d60018303535b509195945050505050565b60606002805461072790610e47565b80601f016020809104026020016040519081016040528092919081815260200182805461075390610e47565b80156107a05780601f10610775576101008083540402835291602001916107a0565b820191906000526020600020905b81548152906001019060200180831161078357829003601f168201915b5050505050905090565b606060016107b7336109f9565b60036040516020016107cb9392919061149d565b604051602081830303815290604052905090565b606060006107ec83610a0f565b600101905060008167ffffffffffffffff81111561080c5761080c610c8e565b6040519080825280601f01601f191660200182016040528015610836576020820181803683370190505b5090508181016020015b600019016f181899199a1a9b1b9c1cb0b131b232b360811b600a86061a8153600a850494508461084057509392505050565b6060336001600160a01b03166306fdde036040518163ffffffff1660e01b8152600401600060405180830381865afa1580156108b2573d6000803e3d6000fd5b505050506040513d6000823e601f3d908101601f191682016040526108da91908101906110be565b6108e3836107df565b6040516020016101b99291906114f1565b600081815260046020526040902080546060919061091190610e47565b80601f016020809104026020016040519081016040528092919081815260200182805461093d90610e47565b801561098a5780601f1061095f5761010080835404028352916020019161098a565b820191906000526020600020905b81548152906001019060200180831161096d57829003601f168201915b50505050509050919050565b606060016109a3306109f9565b6000848152600660209081526040808320600583529281902090516101b9959493920161152e565b606060016109d8336109f9565b60008481526006602090815260409182902091516101b994939291016115a0565b60606104896001600160a01b0383166014610ae7565b60008072184f03e93ff9f4daa797ed6e38ed64bf6a1f0160401b8310610a4e5772184f03e93ff9f4daa797ed6e38ed64bf6a1f0160401b830492506040015b6d04ee2d6d415b85acef81000000008310610a7a576d04ee2d6d415b85acef8100000000830492506020015b662386f26fc100008310610a9857662386f26fc10000830492506010015b6305f5e1008310610ab0576305f5e100830492506008015b6127108310610ac457612710830492506004015b60648310610ad6576064830492506002015b600a83106104895760010192915050565b60606000610af6836002611413565b610b019060026113de565b67ffffffffffffffff811115610b1957610b19610c8e565b6040519080825280601f01601f191660200182016040528015610b43576020820181803683370190505b509050600360fc1b81600081518110610b5e57610b5e611635565b60200101906001600160f81b031916908160001a905350600f60fb1b81600181518110610b8d57610b8d611635565b60200101906001600160f81b031916908160001a9053506000610bb1846002611413565b610bbc9060016113de565b90505b6001811115610c34576f181899199a1a9b1b9c1cb0b131b232b360811b85600f1660108110610bf057610bf0611635565b1a60f81b828281518110610c0657610c06611635565b60200101906001600160f81b031916908160001a90535060049490941c93610c2d8161164b565b9050610bbf565b508315610c875760405162461bcd60e51b815260206004820181905260248201527f537472696e67733a20686578206c656e67746820696e73756666696369656e74604482015260640160405180910390fd5b9392505050565b634e487b7160e01b600052604160045260246000fd5b604051601f8201601f1916810167ffffffffffffffff81118282101715610ccd57610ccd610c8e565b604052919050565b600067ffffffffffffffff821115610cef57610cef610c8e565b50601f01601f191660200190565b600082601f830112610d0e57600080fd5b8135610d21610d1c82610cd5565b610ca4565b818152846020838601011115610d3657600080fd5b816020850160208301376000918101602001919091529392505050565b60008060408385031215610d6657600080fd5b82359150602083013567ffffffffffffffff811115610d8457600080fd5b610d9085828601610cfd565b9150509250929050565b600060208284031215610dac57600080fd5b813567ffffffffffffffff811115610dc357600080fd5b610dcf84828501610cfd565b949350505050565b600060208284031215610de957600080fd5b5035919050565b60005b83811015610e0b578181015183820152602001610df3565b50506000910152565b6020815260008251806020840152610e33816040850160208701610df0565b601f01601f19169190910160400192915050565b600181811c90821680610e5b57607f821691505b602082108103610e7b57634e487b7160e01b600052602260045260246000fd5b50919050565b601f82111561012c57600081815260208120601f850160051c81016020861015610ea85750805b601f850160051c820191505b81811015610ec757828155600101610eb4565b505050505050565b815167ffffffffffffffff811115610ee957610ee9610c8e565b610efd81610ef78454610e47565b84610e81565b602080601f831160018114610f325760008415610f1a5750858301515b600019600386901b1c1916600185901b178555610ec7565b600085815260208120601f198616915b82811015610f6157888601518255948401946001909101908401610f42565b5085821015610f7f5787850151600019600388901b60f8161c191681555b5050505050600190811b01905550565b60008151610fa1818560208601610df0565b9290920192915050565b683d913730b6b2911d1160b91b81528451600090610fd0816009850160208a01610df0565b701116113232b9b1b934b83a34b7b7111d1160791b600991840191820152855161100181601a840160208a01610df0565b6a11161134b6b0b3b2911d1160a91b601a9290910191820152845161102d816025840160208901610df0565b6e111611383937b832b93a34b2b9911d60891b60259290910191820152835161105d816034840160208801610df0565b607d60f81b603492909101918201526035019695505050505050565b7f646174613a6170706c69636174696f6e2f6a736f6e3b6261736536342c0000008152600082516110b181601d850160208701610df0565b91909101601d0192915050565b6000602082840312156110d057600080fd5b815167ffffffffffffffff8111156110e757600080fd5b8201601f810184136110f857600080fd5b8051611106610d1c82610cd5565b81815285602083850101111561111b57600080fd5b61112c826020830160208601610df0565b95945050505050565b60006020828403121561114757600080fd5b815160ff81168114610c8757600080fd5b683d913730b6b2911d1160b91b8152845160009061117d816009850160208a01610df0565b701116113232b9b1b934b83a34b7b7111d1160791b60099184019182015285516111ae81601a840160208a01610df0565b6a11161134b6b0b3b2911d1160a91b601a929091019182015284516111da816025840160208901610df0565b721116113b30b63ab2a232b1b4b6b0b639911d1160691b60259290910191820152835161120e816038840160208801610df0565b61227d60f01b60389290910191820152603a019695505050505050565b60006020828403121561123d57600080fd5b5051919050565b683d913730b6b2911d1160b91b81528651600090611269816009850160208c01610df0565b701116113232b9b1b934b83a34b7b7111d1160791b600991840191820152875161129a81601a840160208c01610df0565b6a11161134b6b0b3b2911d1160a91b601a929091019182015286516112c6816025840160208b01610df0565b6c1116113130b630b731b2911d1160991b6025929091019182015285516112f4816032840160208a01610df0565b6911161139b637ba111d1160b11b60329290910191820152845161131f81603c840160208901610df0565b61135c61134f611349603c848601016e111611383937b832b93a34b2b9911d60891b8152600f0190565b87610f8f565b607d60f81b815260010190565b9a9950505050505050505050565b6000825161137c818460208701610df0565b652f696d61676560d01b920191825250600601919050565b600082516113a6818460208701610df0565b6f17b83937b832b93a34b2b9973539b7b760811b920191825250601001919050565b634e487b7160e01b600052601160045260246000fd5b80820180821115610489576104896113c8565b60008261140e57634e487b7160e01b600052601260045260246000fd5b500490565b8082028115828204841417610489576104896113c8565b6000815461143781610e47565b6001828116801561144f576001811461146457611493565b60ff1984168752821515830287019450611493565b8560005260208060002060005b8581101561148a5781548a820152908401908201611471565b50505082870194505b5050505092915050565b60006114a9828661142a565b68636f6e74726163742f60b81b815284516114cb816009840160208901610df0565b602f60f81b600992909101918201526114e7600a82018561142a565b9695505050505050565b60008351611503818460208801610df0565b61202360f01b9083019081528351611522816002840160208801610df0565b01600201949350505050565b600061153a828761142a565b692f636f6e74726163742f60b01b8152855161155d81600a840160208a01610df0565b662f746f6b656e2f60c81b600a929091019182015261157f601182018661142a565b9050602f60f81b8152611595600182018561142a565b979650505050505050565b6e7b70726f706572746965735f75726960881b815260006115c4600f83018661142a565b68636f6e74726163742f60b81b815284516115e6816009840160208901610df0565b662f746f6b656e2f60c81b60099290910191820152611608601082018561142a565b6f17b83937b832b93a34b2b9973539b7b760811b8152607d60f81b60108201526011019695505050505050565b634e487b7160e01b600052603260045260246000fd5b60008161165a5761165a6113c8565b50600019019056fe4142434445464748494a4b4c4d4e4f505152535455565758595a6162636465666768696a6b6c6d6e6f707172737475767778797a303132333435363738392b2fa2646970667358221220f622a95ca579ad3e624f36a75282d2e2e7eb7abc812f4a74518e120350c886ff64736f6c63430008110033",
  "linkReferences": {},
  "deployedLinkReferences": {}
}