{
  "_format": "hh-sol-artifact-1",
  "contractName": "TimeCredit",
  "sourceName": "contracts/TimeCredit.sol",
  "abi": [
    {
      "inputs": [
        {
          "internalType": "address",
          "name": "revenueAcct_",
          "type": "address"
        },
        {
          "internalType": "address",
          "name": "serviceAdmin_",
          "type": "address"
        },
        {
          "internalType": "address",
          "name": "slotRegistry_",
          "type": "address"
        },
        {
          "internalType": "address",
          "name": "underlyingContract_",
          "type": "address"
        },
        {
          "internalType": "address",
          "name": "mktAdmin_",
          "type": "address"
        },
        {
          "internalType": "uint256",
          "name": "defaultSlot_",
          "type": "uint256"
        },
        {
          "internalType": "string",
          "name": "name_",
          "type": "string"
        },
        {
          "internalType": "string",
          "name": "symbol_",
          "type": "string"
        },
        {
          "internalType": "string",
          "name": "baseuri_",
          "type": "string"
        },
        {
          "internalType": "string",
          "name": "contractDescription_",
          "type": "string"
        },
        {
          "internalType": "string",
          "name": "contractImage_",
          "type": "string"
        },
        {
          "internalType": "string",
          "name": "dispTimeUnit_",
          "type": "string"
        },
        {
          "internalType": "string",
          "name": "valueToken_",
          "type": "string"
        },
        {
          "internalType": "uint8",
          "name": "decimals_",
          "type": "uint8"
        }
      ],
      "stateMutability": "nonpayable",
      "type": "constructor"
    },
    {
      "anonymous": false,
      "inputs": [
        {
          "indexed": true,
          "internalType": "address",
          "name": "_owner",
          "type": "address"
        },
        {
          "indexed": true,
          "internalType": "address",
          "name": "_approved",
          "type": "address"
        },
        {
          "indexed": true,
          "internalType": "uint256",
          "name": "_tokenId",
          "type": "uint256"
        }
      ],
      "name": "Approval",
      "type": "event"
    },
    {
      "anonymous": false,
      "inputs": [
        {
          "indexed": true,
          "internalType": "address",
          "name": "_owner",
          "type": "address"
        },
        {
          "indexed": true,
          "internalType": "address",
          "name": "_operator",
          "type": "address"
        },
        {
          "indexed": false,
          "internalType": "bool",
          "name": "_approved",
          "type": "bool"
        }
      ],
      "name": "ApprovalForAll",
      "type": "event"
    },
    {
      "anonymous": false,
      "inputs": [
        {
          "indexed": true,
          "internalType": "uint256",
          "name": "_tokenId",
          "type": "uint256"
        },
        {
          "indexed": true,
          "internalType": "address",
          "name": "_operator",
          "type": "address"
        },
        {
          "indexed": false,
          "internalType": "uint256",
          "name": "_value",
          "type": "uint256"
        }
      ],
      "name": "ApprovalValue",
      "type": "event"
    },
    {
      "anonymous": false,
      "inputs": [
        {
          "indexed": false,
          "internalType": "address",
          "name": "contractAddress",
          "type": "address"
        }
      ],
      "name": "MetadataDescriptor",
      "type": "event"
    },
    {
      "anonymous": false,
      "inputs": [
        {
          "indexed": false,
          "internalType": "uint256",
          "name": "tokenId",
          "type": "uint256"
        },
        {
          "indexed": false,
          "internalType": "uint256",
          "name": "slot",
          "type": "uint256"
        },
        {
          "indexed": false,
          "internalType": "uint256",
          "name": "value",
          "type": "uint256"
        }
      ],
      "name": "MintServiceToken",
      "type": "event"
    },
    {
      "anonymous": false,
      "inputs": [
        {
          "indexed": false,
          "internalType": "uint256",
          "name": "newTokenId",
          "type": "uint256"
        },
        {
          "indexed": false,
          "internalType": "uint256",
          "name": "slot",
          "type": "uint256"
        },
        {
          "indexed": false,
          "internalType": "uint256",
          "name": "value",
          "type": "uint256"
        }
      ],
      "name": "MintServiceTokenToAddress",
      "type": "event"
    },
    {
      "anonymous": false,
      "inputs": [
        {
          "indexed": false,
          "internalType": "uint256",
          "name": "value_seconds",
          "type": "uint256"
        },
        {
          "indexed": false,
          "internalType": "uint256",
          "name": "value_unit",
          "type": "uint256"
        }
      ],
      "name": "MintTimeToken",
      "type": "event"
    },
    {
      "anonymous": false,
      "inputs": [
        {
          "indexed": true,
          "internalType": "bytes32",
          "name": "role",
          "type": "bytes32"
        },
        {
          "indexed": true,
          "internalType": "bytes32",
          "name": "previousAdminRole",
          "type": "bytes32"
        },
        {
          "indexed": true,
          "internalType": "bytes32",
          "name": "newAdminRole",
          "type": "bytes32"
        }
      ],
      "name": "RoleAdminChanged",
      "type": "event"
    },
    {
      "anonymous": false,
      "inputs": [
        {
          "indexed": true,
          "internalType": "bytes32",
          "name": "role",
          "type": "bytes32"
        },
        {
          "indexed": true,
          "internalType": "address",
          "name": "account",
          "type": "address"
        },
        {
          "indexed": true,
          "internalType": "address",
          "name": "sender",
          "type": "address"
        }
      ],
      "name": "RoleGranted",
      "type": "event"
    },
    {
      "anonymous": false,
      "inputs": [
        {
          "indexed": true,
          "internalType": "bytes32",
          "name": "role",
          "type": "bytes32"
        },
        {
          "indexed": true,
          "internalType": "address",
          "name": "account",
          "type": "address"
        },
        {
          "indexed": true,
          "internalType": "address",
          "name": "sender",
          "type": "address"
        }
      ],
      "name": "RoleRevoked",
      "type": "event"
    },
    {
      "anonymous": false,
      "inputs": [
        {
          "indexed": true,
          "internalType": "address",
          "name": "metadataDescriptor",
          "type": "address"
        }
      ],
      "name": "SetMetadataDescriptor",
      "type": "event"
    },
    {
      "anonymous": false,
      "inputs": [
        {
          "indexed": true,
          "internalType": "uint256",
          "name": "_tokenId",
          "type": "uint256"
        },
        {
          "indexed": true,
          "internalType": "uint256",
          "name": "_oldSlot",
          "type": "uint256"
        },
        {
          "indexed": true,
          "internalType": "uint256",
          "name": "_newSlot",
          "type": "uint256"
        }
      ],
      "name": "SlotChanged",
      "type": "event"
    },
    {
      "anonymous": false,
      "inputs": [
        {
          "indexed": true,
          "internalType": "address",
          "name": "_from",
          "type": "address"
        },
        {
          "indexed": true,
          "internalType": "address",
          "name": "_to",
          "type": "address"
        },
        {
          "indexed": true,
          "internalType": "uint256",
          "name": "_tokenId",
          "type": "uint256"
        }
      ],
      "name": "Transfer",
      "type": "event"
    },
    {
      "anonymous": false,
      "inputs": [
        {
          "indexed": true,
          "internalType": "uint256",
          "name": "_fromTokenId",
          "type": "uint256"
        },
        {
          "indexed": true,
          "internalType": "uint256",
          "name": "_toTokenId",
          "type": "uint256"
        },
        {
          "indexed": false,
          "internalType": "uint256",
          "name": "_value",
          "type": "uint256"
        }
      ],
      "name": "TransferValue",
      "type": "event"
    },
    {
      "anonymous": false,
      "inputs": [
        {
          "indexed": false,
          "internalType": "uint256",
          "name": "fromTokenId",
          "type": "uint256"
        },
        {
          "indexed": false,
          "internalType": "uint256",
          "name": "toTokenId",
          "type": "uint256"
        },
        {
          "indexed": false,
          "internalType": "uint256",
          "name": "value",
          "type": "uint256"
        }
      ],
      "name": "ValueTransfer",
      "type": "event"
    },
    {
      "inputs": [],
      "name": "DEFAULT_ADMIN_ROLE",
      "outputs": [
        {
          "internalType": "bytes32",
          "name": "",
          "type": "bytes32"
        }
      ],
      "stateMutability": "view",
      "type": "function"
    },
    {
      "inputs": [],
      "name": "MKT_ARBITRATOR_ROLE",
      "outputs": [
        {
          "internalType": "bytes32",
          "name": "",
          "type": "bytes32"
        }
      ],
      "stateMutability": "view",
      "type": "function"
    },
    {
      "inputs": [
        {
          "internalType": "string",
          "name": "uri_",
          "type": "string"
        }
      ],
      "name": "_setBaseURI",
      "outputs": [],
      "stateMutability": "nonpayable",
      "type": "function"
    },
    {
      "inputs": [
        {
          "internalType": "uint256",
          "name": "tokenId_",
          "type": "uint256"
        },
        {
          "internalType": "uint256",
          "name": "valueSeconds_",
          "type": "uint256"
        }
      ],
      "name": "addTime",
      "outputs": [],
      "stateMutability": "nonpayable",
      "type": "function"
    },
    {
      "inputs": [
        {
          "internalType": "uint256",
          "name": "tokenId_",
          "type": "uint256"
        },
        {
          "internalType": "address",
          "name": "operator_",
          "type": "address"
        }
      ],
      "name": "allowance",
      "outputs": [
        {
          "internalType": "uint256",
          "name": "",
          "type": "uint256"
        }
      ],
      "stateMutability": "view",
      "type": "function"
    },
    {
      "inputs": [
        {
          "internalType": "address",
          "name": "to_",
          "type": "address"
        },
        {
          "internalType": "uint256",
          "name": "tokenId_",
          "type": "uint256"
        }
      ],
      "name": "approve",
      "outputs": [],
      "stateMutability": "payable",
      "type": "function"
    },
    {
      "inputs": [
        {
          "internalType": "uint256",
          "name": "tokenId_",
          "type": "uint256"
        },
        {
          "internalType": "address",
          "name": "to_",
          "type": "address"
        },
        {
          "internalType": "uint256",
          "name": "value_",
          "type": "uint256"
        }
      ],
      "name": "approve",
      "outputs": [],
      "stateMutability": "payable",
      "type": "function"
    },
    {
      "inputs": [
        {
          "internalType": "address",
          "name": "owner_",
          "type": "address"
        }
      ],
      "name": "balanceOf",
      "outputs": [
        {
          "internalType": "uint256",
          "name": "balance",
          "type": "uint256"
        }
      ],
      "stateMutability": "view",
      "type": "function"
    },
    {
      "inputs": [
        {
          "internalType": "uint256",
          "name": "tokenId_",
          "type": "uint256"
        }
      ],
      "name": "balanceOf",
      "outputs": [
        {
          "internalType": "uint256",
          "name": "",
          "type": "uint256"
        }
      ],
      "stateMutability": "view",
      "type": "function"
    },
    {
      "inputs": [],
      "name": "contractAdmin",
      "outputs": [
        {
          "internalType": "address",
          "name": "",
          "type": "address"
        }
      ],
      "stateMutability": "view",
      "type": "function"
    },
    {
      "inputs": [],
      "name": "contractURI",
      "outputs": [
        {
          "internalType": "string",
          "name": "",
          "type": "string"
        }
      ],
      "stateMutability": "view",
      "type": "function"
    },
    {
      "inputs": [],
      "name": "creditType",
      "outputs": [
        {
          "internalType": "string",
          "name": "",
          "type": "string"
        }
      ],
      "stateMutability": "view",
      "type": "function"
    },
    {
      "inputs": [
        {
          "internalType": "uint256",
          "name": "tokenId_",
          "type": "uint256"
        }
      ],
      "name": "getApproved",
      "outputs": [
        {
          "internalType": "address",
          "name": "",
          "type": "address"
        }
      ],
      "stateMutability": "view",
      "type": "function"
    },
    {
      "inputs": [
        {
          "internalType": "bytes32",
          "name": "role",
          "type": "bytes32"
        }
      ],
      "name": "getRoleAdmin",
      "outputs": [
        {
          "internalType": "bytes32",
          "name": "",
          "type": "bytes32"
        }
      ],
      "stateMutability": "view",
      "type": "function"
    },
    {
      "inputs": [
        {
          "internalType": "uint256",
          "name": "tokenId",
          "type": "uint256"
        }
      ],
      "name": "getTokenDescription",
      "outputs": [
        {
          "internalType": "string",
          "name": "",
          "type": "string"
        }
      ],
      "stateMutability": "view",
      "type": "function"
    },
    {
      "inputs": [
        {
          "internalType": "uint256",
          "name": "tokenId",
          "type": "uint256"
        }
      ],
      "name": "getTokenImage",
      "outputs": [
        {
          "internalType": "string",
          "name": "",
          "type": "string"
        }
      ],
      "stateMutability": "view",
      "type": "function"
    },
    {
      "inputs": [
        {
          "internalType": "uint256",
          "name": "tokenId",
          "type": "uint256"
        }
      ],
      "name": "getTokenUUID",
      "outputs": [
        {
          "internalType": "string",
          "name": "",
          "type": "string"
        }
      ],
      "stateMutability": "view",
      "type": "function"
    },
    {
      "inputs": [
        {
          "internalType": "bytes32",
          "name": "role",
          "type": "bytes32"
        },
        {
          "internalType": "address",
          "name": "account",
          "type": "address"
        }
      ],
      "name": "grantRole",
      "outputs": [],
      "stateMutability": "nonpayable",
      "type": "function"
    },
    {
      "inputs": [
        {
          "internalType": "bytes32",
          "name": "role",
          "type": "bytes32"
        },
        {
          "internalType": "address",
          "name": "account",
          "type": "address"
        }
      ],
      "name": "hasRole",
      "outputs": [
        {
          "internalType": "bool",
          "name": "",
          "type": "bool"
        }
      ],
      "stateMutability": "view",
      "type": "function"
    },
    {
      "inputs": [
        {
          "internalType": "address",
          "name": "owner_",
          "type": "address"
        },
        {
          "internalType": "address",
          "name": "operator_",
          "type": "address"
        }
      ],
      "name": "isApprovedForAll",
      "outputs": [
        {
          "internalType": "bool",
          "name": "",
          "type": "bool"
        }
      ],
      "stateMutability": "view",
      "type": "function"
    },
    {
      "inputs": [
        {
          "internalType": "uint256",
          "name": "tokenId_",
          "type": "uint256"
        }
      ],
      "name": "isValid",
      "outputs": [
        {
          "internalType": "bool",
          "name": "",
          "type": "bool"
        }
      ],
      "stateMutability": "view",
      "type": "function"
    },
    {
      "inputs": [],
      "name": "metadataDescriptor",
      "outputs": [
        {
          "internalType": "contract IERC3525MetadataDescriptor",
          "name": "",
          "type": "address"
        }
      ],
      "stateMutability": "view",
      "type": "function"
    },
    {
      "inputs": [
        {
          "internalType": "address",
          "name": "owner_",
          "type": "address"
        },
        {
          "internalType": "uint256",
          "name": "slot_",
          "type": "uint256"
        },
        {
          "internalType": "uint256",
          "name": "value_",
          "type": "uint256"
        },
        {
          "internalType": "string",
          "name": "uuid_",
          "type": "string"
        },
        {
          "internalType": "string",
          "name": "token_description_",
          "type": "string"
        },
        {
          "internalType": "string",
          "name": "token_image_",
          "type": "string"
        }
      ],
      "name": "mint",
      "outputs": [
        {
          "internalType": "uint256",
          "name": "",
          "type": "uint256"
        }
      ],
      "stateMutability": "nonpayable",
      "type": "function"
    },
    {
      "inputs": [
        {
          "internalType": "address",
          "name": "owner_",
          "type": "address"
        },
        {
          "internalType": "uint256",
          "name": "slot_",
          "type": "uint256"
        },
        {
          "internalType": "uint256",
          "name": "time_value_",
          "type": "uint256"
        },
        {
          "internalType": "uint256",
          "name": "paid_value",
          "type": "uint256"
        },
        {
          "internalType": "uint256",
          "name": "valid_start",
          "type": "uint256"
        },
        {
          "internalType": "uint256",
          "name": "valid_expiration",
          "type": "uint256"
        },
        {
          "internalType": "string",
          "name": "uuid_",
          "type": "string"
        },
        {
          "internalType": "string",
          "name": "token_description_",
          "type": "string"
        },
        {
          "internalType": "string",
          "name": "token_image_",
          "type": "string"
        },
        {
          "internalType": "bool",
          "name": "transfersAllowed_",
          "type": "bool"
        },
        {
          "internalType": "uint256",
          "name": "minAllowedValueTransfer_",
          "type": "uint256"
        }
      ],
      "name": "mintTime",
      "outputs": [
        {
          "internalType": "uint256",
          "name": "",
          "type": "uint256"
        }
      ],
      "stateMutability": "nonpayable",
      "type": "function"
    },
    {
      "inputs": [],
      "name": "name",
      "outputs": [
        {
          "internalType": "string",
          "name": "",
          "type": "string"
        }
      ],
      "stateMutability": "view",
      "type": "function"
    },
    {
      "inputs": [
        {
          "internalType": "address",
          "name": "owner_",
          "type": "address"
        },
        {
          "internalType": "uint256",
          "name": "slot_",
          "type": "uint256"
        },
        {
          "internalType": "uint256",
          "name": "value_",
          "type": "uint256"
        },
        {
          "internalType": "uint256",
          "name": "discountBasisPts_",
          "type": "uint256"
        },
        {
          "internalType": "string",
          "name": "uuid_",
          "type": "string"
        },
        {
          "internalType": "string",
          "name": "token_description_",
          "type": "string"
        },
        {
          "internalType": "string",
          "name": "token_image_",
          "type": "string"
        }
      ],
      "name": "networkMintWithDiscount",
      "outputs": [
        {
          "internalType": "uint256",
          "name": "",
          "type": "uint256"
        }
      ],
      "stateMutability": "nonpayable",
      "type": "function"
    },
    {
      "inputs": [
        {
          "internalType": "address",
          "name": "owner_",
          "type": "address"
        },
        {
          "internalType": "uint256",
          "name": "slot_",
          "type": "uint256"
        },
        {
          "internalType": "uint256",
          "name": "value_",
          "type": "uint256"
        },
        {
          "internalType": "uint256",
          "name": "tVRate_",
          "type": "uint256"
        },
        {
          "internalType": "string",
          "name": "uuid_",
          "type": "string"
        },
        {
          "internalType": "string",
          "name": "token_description_",
          "type": "string"
        },
        {
          "internalType": "string",
          "name": "token_image_",
          "type": "string"
        }
      ],
      "name": "networkMintWithTVRate",
      "outputs": [
        {
          "internalType": "uint256",
          "name": "",
          "type": "uint256"
        }
      ],
      "stateMutability": "nonpayable",
      "type": "function"
    },
    {
      "inputs": [
        {
          "internalType": "uint256",
          "name": "tokenId_",
          "type": "uint256"
        }
      ],
      "name": "ownerOf",
      "outputs": [
        {
          "internalType": "address",
          "name": "owner_",
          "type": "address"
        }
      ],
      "stateMutability": "view",
      "type": "function"
    },
    {
      "inputs": [
        {
          "internalType": "uint256",
          "name": "tokenId_",
          "type": "uint256"
        },
        {
          "internalType": "uint256",
          "name": "valueSeconds_",
          "type": "uint256"
        }
      ],
      "name": "redeem",
      "outputs": [],
      "stateMutability": "nonpayable",
      "type": "function"
    },
    {
      "inputs": [
        {
          "internalType": "bytes32",
          "name": "role",
          "type": "bytes32"
        },
        {
          "internalType": "address",
          "name": "account",
          "type": "address"
        }
      ],
      "name": "renounceRole",
      "outputs": [],
      "stateMutability": "nonpayable",
      "type": "function"
    },
    {
      "inputs": [
        {
          "internalType": "bytes32",
          "name": "role",
          "type": "bytes32"
        },
        {
          "internalType": "address",
          "name": "account",
          "type": "address"
        }
      ],
      "name": "revokeRole",
      "outputs": [],
      "stateMutability": "nonpayable",
      "type": "function"
    },
    {
      "inputs": [
        {
          "internalType": "address",
          "name": "from_",
          "type": "address"
        },
        {
          "internalType": "address",
          "name": "to_",
          "type": "address"
        },
        {
          "internalType": "uint256",
          "name": "tokenId_",
          "type": "uint256"
        }
      ],
      "name": "safeTransferFrom",
      "outputs": [],
      "stateMutability": "payable",
      "type": "function"
    },
    {
      "inputs": [
        {
          "internalType": "address",
          "name": "from_",
          "type": "address"
        },
        {
          "internalType": "address",
          "name": "to_",
          "type": "address"
        },
        {
          "internalType": "uint256",
          "name": "tokenId_",
          "type": "uint256"
        },
        {
          "internalType": "bytes",
          "name": "data_",
          "type": "bytes"
        }
      ],
      "name": "safeTransferFrom",
      "outputs": [],
      "stateMutability": "payable",
      "type": "function"
    },
    {
      "inputs": [
        {
          "internalType": "address",
          "name": "operator_",
          "type": "address"
        },
        {
          "internalType": "bool",
          "name": "approved_",
          "type": "bool"
        }
      ],
      "name": "setApprovalForAll",
      "outputs": [],
      "stateMutability": "nonpayable",
      "type": "function"
    },
    {
      "inputs": [
        {
          "internalType": "uint256",
          "name": "tokenId_",
          "type": "uint256"
        }
      ],
      "name": "slotOf",
      "outputs": [
        {
          "internalType": "uint256",
          "name": "",
          "type": "uint256"
        }
      ],
      "stateMutability": "view",
      "type": "function"
    },
    {
      "inputs": [
        {
          "internalType": "uint256",
          "name": "slot_",
          "type": "uint256"
        }
      ],
      "name": "slotURI",
      "outputs": [
        {
          "internalType": "string",
          "name": "",
          "type": "string"
        }
      ],
      "stateMutability": "view",
      "type": "function"
    },
    {
      "inputs": [
        {
          "internalType": "bytes4",
          "name": "interfaceId",
          "type": "bytes4"
        }
      ],
      "name": "supportsInterface",
      "outputs": [
        {
          "internalType": "bool",
          "name": "",
          "type": "bool"
        }
      ],
      "stateMutability": "view",
      "type": "function"
    },
    {
      "inputs": [],
      "name": "symbol",
      "outputs": [
        {
          "internalType": "string",
          "name": "",
          "type": "string"
        }
      ],
      "stateMutability": "view",
      "type": "function"
    },
    {
      "inputs": [
        {
          "internalType": "uint256",
          "name": "index_",
          "type": "uint256"
        }
      ],
      "name": "tokenByIndex",
      "outputs": [
        {
          "internalType": "uint256",
          "name": "",
          "type": "uint256"
        }
      ],
      "stateMutability": "view",
      "type": "function"
    },
    {
      "inputs": [
        {
          "internalType": "address",
          "name": "owner_",
          "type": "address"
        },
        {
          "internalType": "uint256",
          "name": "index_",
          "type": "uint256"
        }
      ],
      "name": "tokenOfOwnerByIndex",
      "outputs": [
        {
          "internalType": "uint256",
          "name": "",
          "type": "uint256"
        }
      ],
      "stateMutability": "view",
      "type": "function"
    },
    {
      "inputs": [
        {
          "internalType": "uint256",
          "name": "tokenId_",
          "type": "uint256"
        }
      ],
      "name": "tokenURI",
      "outputs": [
        {
          "internalType": "string",
          "name": "",
          "type": "string"
        }
      ],
      "stateMutability": "view",
      "type": "function"
    },
    {
      "inputs": [],
      "name": "totalSupply",
      "outputs": [
        {
          "internalType": "uint256",
          "name": "",
          "type": "uint256"
        }
      ],
      "stateMutability": "view",
      "type": "function"
    },
    {
      "inputs": [
        {
          "internalType": "uint256",
          "name": "fromTokenId_",
          "type": "uint256"
        },
        {
          "internalType": "address",
          "name": "to_",
          "type": "address"
        },
        {
          "internalType": "uint256",
          "name": "value_",
          "type": "uint256"
        }
      ],
      "name": "transferFrom",
      "outputs": [
        {
          "internalType": "uint256",
          "name": "",
          "type": "uint256"
        }
      ],
      "stateMutability": "payable",
      "type": "function"
    },
    {
      "inputs": [
        {
          "internalType": "address",
          "name": "from_",
          "type": "address"
        },
        {
          "internalType": "address",
          "name": "to_",
          "type": "address"
        },
        {
          "internalType": "uint256",
          "name": "tokenId_",
          "type": "uint256"
        }
      ],
      "name": "transferFrom",
      "outputs": [],
      "stateMutability": "payable",
      "type": "function"
    },
    {
      "inputs": [
        {
          "internalType": "uint256",
          "name": "fromTokenId_",
          "type": "uint256"
        },
        {
          "internalType": "uint256",
          "name": "toTokenId_",
          "type": "uint256"
        },
        {
          "internalType": "uint256",
          "name": "value_",
          "type": "uint256"
        }
      ],
      "name": "transferFrom",
      "outputs": [],
      "stateMutability": "payable",
      "type": "function"
    },
    {
      "inputs": [],
      "name": "valueDecimals",
      "outputs": [
        {
          "internalType": "uint8",
          "name": "",
          "type": "uint8"
        }
      ],
      "stateMutability": "view",
      "type": "function"
    }
  ],
  "bytecode": "0x60e0806040523462000a9157600060a052620089f5803803809162000025828562000ac8565b83398101906101c081830312620007f057620000418162000aec565b60c052620000526020820162000aec565b90620000616040820162000aec565b6200006f6060830162000aec565b608052620000806080830162000aec565b60a083015160c08401519092906001600160401b038111620007f05786620000aa91860162000b26565b60e08501516001600160401b038111620007f05787620000cc91870162000b26565b6101008601519096906001600160401b038111620007f05788620000f291880162000b26565b6101208701519092906001600160401b038111620007f057896200011891890162000b26565b6101408801519092906001600160401b038111620007f0578a6200013e918a0162000b26565b6101608901519092906001600160401b038111620007f0578b62000164918b0162000b26565b6101808a0151909b906001600160401b038111620007f0576101a0916200018d918c0162000b26565b9901519960ff8b168b03620007f057620001fc602e8d966040519781620001bf8a935180926020808701910162000b01565b82016c5102a34b6b2903ab734ba399d160951b6020820152620001ec825180936020878501910162000b01565b0103600e81018852018662000ac8565b604051916200020b8362000a96565b600483526374696d6560e01b602084015280516001600160401b038111620007285760a051805490600182811c9216801562000a86575b6020831014620007065750601f811162000a3a575b5060a05191602092601f8311600114620009ca575060a05192839183620009be575b50508160011b916000199060031b1c19161790555b8051906001600160401b038211620007285760015460a051600182811c92168015620009b3575b60208310146200070657509081601f84931162000959575b5060a05190602091601f8411600114620008e6575060a05192620008da575b50508160011b916000199060031b1c1916176001555b6002805460ff191660ff8c16179055600b889055600c80546001600160a01b03199081166001600160a01b0389811691909117909255600a80549091169184169190911790558051906001600160401b0382116200072857600d5460a051600182811c92168015620008cf575b60208310146200070657509081601f84931162000875575b5060a05190602091601f841160011462000802575060a05192620007f6575b50508160011b916000199060031b1c191617600d555b600c546001600160a01b0316803b15620007f0576040519163152f0eb560e01b835260018060a01b031660048301528760248301528160448160a05180945af18015620007e357620007ca575b50604051926001600160401b0361242385019081119085111762000728576200047e92620004506200046792612423620065d2883960806124238801818152019062000b81565b906124238601820360206124238801015262000b81565b906124238401820360406124238601015262000b81565b6001600160a01b0390921661242382016060015260a051918190039082f0908115620007be575060018060a01b031660018060a01b031960085416176008557f1cd6d520d98babae1045eb69c31ecab800996aa332094cb55c0ac10362e9b0c9908160a05152600960205260a051604081209160018060a01b0316918260005260205260ff604060002054161562000769575b5050507f9ac4f8025631594629895b778dc5ee88d01673a254a2291f6b6b174ad25230ca602060018060a01b0360085416604051908152a1600b556020815191012060046020604051620005658162000a96565b82815201635553444360e01b8152201462000740575b60c051601380546001600160a01b0319166001600160a01b039290921691909117905581516001600160401b038111620007285760155460a051600182811c921680156200071d575b6020831014620007065750601f8111620006b5575b5060a05192602090601f83116001146200064a578293945060a051926200063e575b50508160011b916000199060031b1c1916176015555b6014805460ff60a01b191660a09290921b60ff60a01b16919091179055604051615a29908162000ba98239f35b015190503880620005fb565b906015601f198416955260a0519160208320925b8681106200069c575083600195961062000682575b505050811b0160155562000611565b015160001960f88460031b161c1916905538808062000673565b919260206001819286850151815501940192016200065e565b601560a0515260a05160208120601f840160051c81019260208510620006fb575b601f0160051c01915b828110620006ef575050620005d9565b818155600101620006df565b9092508290620006d6565b634e487b7160e01b9052602260045260a051602490fd5b91607f1691620005c4565b634e487b7160e01b60a051526041600452602460a051fd5b608051601480546001600160a01b0319166001600160a01b03929092169190911790556200057b565b829052600960205260a0519160408320826000526020526040600020600160ff198254161790557f2f8788117e7eff1d82e926ec794901d17c78024a50270940304540a733656f0d339380a438808062000511565b604051903d90823e3d90fd5b6001600160401b03811162000728576040523862000409565b6040513d60a051823e3d90fd5b60a05180fd5b015190503880620003a6565b600d9194505260a051906020822091935b601f198416851062000859576001945083601f198116106200083f575b505050811b01600d55620003bc565b015160001960f88460031b161c1916905538808062000830565b8181015183556020948501946001909301929091019062000813565b909150600d60a0515260a05160208120601f850160051c810160208610620008c7575b9085949392915b601f840160051c82018110620008b85750505062000387565b8281558695506001016200089f565b508062000898565b91607f16916200036f565b015190503880620002ec565b60019194505260a051906020822091935b601f19841685106200093d576001945083601f1981161062000923575b505050811b0160015562000302565b015160001960f88460031b161c1916905538808062000914565b81810151835560209485019460019093019290910190620008f7565b909150600160a0515260a05160208120601f850160051c810160208610620009ab575b9085949392915b601f840160051c820181106200099c57505050620002cd565b82815586955060010162000983565b50806200097c565b91607f1691620002b5565b01519050388062000279565b805260a0516020812090938493925b601f198416851062000a1e576001945083601f1981161062000a04575b505050811b0190556200028e565b015160001960f88460031b161c19169055388080620009f6565b81810151835560209485019460019093019290910190620009d9565b60a051805260a05160208120601f840160051c81016020851062000a7e575b601f840160051c8201811062000a725750505062000257565b82815560010162000a59565b508062000a59565b91607f169162000242565b600080fd5b604081019081106001600160401b0382111762000ab257604052565b634e487b7160e01b600052604160045260246000fd5b601f909101601f19168101906001600160401b0382119082101762000ab257604052565b51906001600160a01b038216820362000a9157565b60005b83811062000b155750506000910152565b818101518382015260200162000b04565b81601f8201121562000a915780516001600160401b03811162000ab2576040519262000b5d601f8301601f19166020018562000ac8565b8184526020828401011162000a915762000b7e916020808501910162000b01565b90565b9060209162000b9c8151809281855285808601910162000b01565b601f01601f191601019056fe60806040908082526004918236101561001757600080fd5b600091823560e01c90816301ffc9a71461265b5750806306fdde031461258b578063081812fc1461256b578063095ea7b31461243757806309c3dd87146121475780630f485c02146120805780631375d8431461201b57806318160ddd14611ffd57806323b872dd14611f36578063248a9ca314611f0b578063263f3e7e14611eeb578063268cb20b14611ae25780632f2ff15d14611a345780632f745c591461198b578063310ed7f01461134a57806331b5b907146112c257806336568abe146112315780633e7e86691461121057806341815ee4146111e557806342842e0e146111c2578063476de4a81461113f5780634f6ccce7146110b95780636352211e1461108857806370a082311461106357806371f0442e14610ffe5780637795524514610fd6578063791581c614610edf5780637cbc237314610b7c5780638005f5db1461095d578063840f7113146109355780638cb0a5111461079e57806391d148541461075857806395d89b41146106755780639cc7f70814610655578063a217fddf1461063b578063a22cb4651461055c578063a7c9f2d614610522578063b3154c08146104bd578063b88d4fde1461045e578063bd8c65071461043d578063c87b56dd146103bb578063d547741f1461037c578063e345e0bc1461034a578063e8a3d485146102b8578063e985e9c5146102665763f577a5001461021f57600080fd5b3461026257602036600319011261026257602092358252600f8352808220544210159182610251575b50519015158152f35b819020600101544210915038610248565b5080fd5b50346102625780600319360112610262576020916102826126f7565b60028361028d61270d565b9360018060a01b0380941681526007875220019116600052825260ff81600020541690519015158152f35b5082903461034657826003193601126103465760085481516331264fc160e01b815292849184919082906001600160a01b03165afa91821561033c57836103139493610317575b5050519182916020835260208301906126d2565b0390f35b6103349293503d8091833e61032c81836127fc565b810190612f1f565b9083806102ff565b81513d85823e3d90fd5b8280fd5b5090346103795781600319360112610379575061037260209261036b61270d565b903561421d565b9051908152f35b80fd5b508290346103465780600319360112610346576103b891356103b360016103a161270d565b9383875260096020528620015461291e565b612c53565b80f35b50829034610346576020366003190112610346578282356103e36103de82613898565b613154565b6008546001600160a01b0316936044906103fc83615734565b95855196879485936304e6f55760e51b855284015260248301525afa91821561033c57836103139493610317575050519182916020835260208301906126d2565b503461026257602090610372610452366128a3565b95949094939193613d68565b82846080366003190112610262576104746126f7565b61047c61270d565b906064356001600160401b0381116104b957366023820112156104b9576103b8938160246104af93369301359101612838565b916044359161307d565b8480fd5b50829034610346576020366003190112610346576008548151631662a98160e31b81528335938101939093528390839060249082906001600160a01b03165afa91821561033c57836103139493610317575050519182916020835260208301906126d2565b5034610262578160031936011261026257602090517f1cd6d520d98babae1045eb69c31ecab800996aa332094cb55c0ac10362e9b0c98152f35b508290346103465780600319360112610346576105776126f7565b9060243580151592838203610636576001600160a01b0316933385146105f357506105c690338652600760205260028387200185600052602052826000209060ff801983541691151516179055565b519081527f17307eab39ab6107e8899845ad3d59bd9653f200f220920489ca2b5937696c3160203392a380f35b606490602084519162461bcd60e51b8352820152601a60248201527f455243333532353a20617070726f766520746f2063616c6c65720000000000006044820152fd5b600080fd5b503461026257816003193601126102625751908152602090f35b509034610379576020366003190112610379575061037260209235615734565b509034610379578060031936011261037957508051600091600180549061069b82612d26565b8085529181811690811561073057506001146106d5575b50506106c3826103139403836127fc565b519182916020835260208301906126d2565b600081815294507fb10e2d527612073b26eecdfd717e6a320cf44b4afac2b0732d9fcbe2b7fa0cf65b82861061071857505050918101602001916106c3826106b2565b805460208787018101919091529095019481016106fe565b610313965085925060209150926106c39360ff191682840152151560051b82010194506106b2565b5082346103465781600319360112610346578160209361077661270d565b9235815260098552209060018060a01b0316600052825260ff81600020541690519015158152f35b50916107a936612723565b926107b5839293613898565b8015610913575b6107c590613154565b6107ce82613898565b80610900575b15610871576107f96001600160a01b03806107ee856131a0565b1690851614156130fd565b6108038233613287565b1561081457506103b893945061404b565b608490602087519162461bcd60e51b8352820152603160248201527f455243333532353a20617070726f76652063616c6c6572206973206e6f74206f6044820152701ddb995c881b9bdc88185c1c1c9bdd9959607a1b6064820152fd5b909184959260018060a01b03600c5416908652600e60205283862054813b156108fc578451638cb0a51160e01b81529384019081526001600160a01b03909216602083015260408201949094529092849184919082908490829060600103925af19081156108f357506108e357505080f35b6108ec90612782565b6103795780f35b513d84823e3d90fd5b8680fd5b5061090a82612ec6565b600b54146107d4565b506107c561092e83600052600e602052604060002054151590565b90506107bc565b503461026257816003193601126102625760085490516001600160a01b039091168152602090f35b50819234610b785761096e366128a3565b600254600c54979a9791966001600160a01b03969395928716939290916109979060ff16613d5a565b6109a091612f7d565b8a51630151086360e31b81526001600160a01b03909c168a8d01908152602081019290925260408201929092526060810191909152899081906080010381885a94602095f1978815610b34578598610b42575b508260085416803b15610b3e578786918a838a610a2e855197889687958694632108947560e21b8652850152602484015260448301906126d2565b03925af18015610b3457908591610b1c575b50508160085416803b156104b957610a7c91859189838a5180968195829463246a908b60e01b84528d8401528d602484015260448301906126d2565b03925af18015610b1257908491610afe575b505060085416803b15610346578583610ac795875196879586948593630190503b60e61b855284015289602484015260448301906126d2565b03925af18015610af457610ae0575b6020838351908152f35b610aea8491612782565b6103465782610ad6565b82513d86823e3d90fd5b610b0790612782565b610346578238610a8e565b86513d86823e3d90fd5b610b2590612782565b610b30578338610a40565b8380fd5b87513d87823e3d90fd5b8580fd5b945096506020843d8211610b70575b81610b5e602093836127fc565b810103126106365787935196386109f3565b3d9150610b51565b5050fd5b50913461026257610b8c3661288d565b9091610b97836131a0565b6001600160a01b0390811633148015610e9f575b15610e505784610bba85613898565b80610e3d575b15610d4457508385526010602052610bf5610bde8488882054612cc9565b610bef60ff60145460a01c16614376565b90612f7d565b905b80601454169060135416813b156108fc5787516301e9a69560e41b81526001600160a01b039091168482019081526020810193909352918691839182908490829060400103925af18015610d3a57908591610d26575b5050610c5883613898565b8015610d04575b610c6890613154565b82845260066020526002610c7e86862054612e8b565b500190815490838210610cb55750918495602092610cab836000805160206159d4833981519152966136cb565b905551908152a380f35b608490602088519162461bcd60e51b8352820152602360248201527f455243333532353a206275726e2076616c756520657863656564732062616c616044820152626e636560e81b6064820152fd5b50610c68610d1f84600052600e602052604060002054151590565b9050610c5f565b610d2f90612782565b610b30578338610c4d565b86513d87823e3d90fd5b90610d5c85600052600e602052604060002054151590565b15610bf75790508385526020600e815286862054801515600014610dfd578183600c54169160248a518094819363cd5a2c3960e01b8352898301525afa918215610df357908592918892610dc0575b5050610dba91610bde91612cc9565b90610bf7565b8193508092503d8311610dec575b610dd881836127fc565b810103126106365751839081610bde610dab565b503d610dce565b88513d89823e3d90fd5b5060248183600c541689519283809263cd5a2c3960e01b82528a898301525afa918215610df357908592918892610dc0575050610dba91610bde91612cc9565b50610e4785612ec6565b600b5414610bc0565b855162461bcd60e51b8152602081840152602360248201527f53656e646572206973206e6f7420617574686f72697a656420746f207265646560448201526232b69760e91b6064820152608490fd5b507f1cd6d520d98babae1045eb69c31ecab800996aa332094cb55c0ac10362e9b0c9855260096020528585203360005260205260ff866000205416610bab565b50913461026257610eef3661288d565b91818452600f60205260018585200154421015610f7b57506103b89293610f2783610f22610f1c85615734565b42612cf2565b612cf2565b828652600f6020526001828720015410610f56575b50610f46816131a0565b50610f5081612ec6565b50613d17565b6001610f6884610f22610f1c86615734565b91838752600f6020528620015538610f3c565b608490602086519162461bcd60e51b8352820152602f60248201527f54696d654372656469743a2063616e6e6f74206164642074696d6520746f206160448201526e371032bc3834b932b2103a37b5b2b760891b6064820152fd5b5034610262578160031936011261026257600a5490516001600160a01b039091168152602090f35b508290346103465760203660031901126103465760085481516338f8221760e11b81528335938101939093528390839060249082906001600160a01b03165afa91821561033c57836103139493610317575050519182916020835260208301906126d2565b5034610262576020366003190112610262576020906103726110836126f7565b612f9d565b50903461037957602036600319011261037957506110a860209235613f74565b90516001600160a01b039091168152f35b5091903461037957602036600319011261037957508035906005548210156110f0576020836110e784612e8b565b50549051908152f35b608490602084519162461bcd60e51b8352820152602360248201527f455243333532353a20676c6f62616c20696e646578206f7574206f6620626f756044820152626e647360e81b6064820152fd5b5090346103795760c03660031901126103795761115a6126f7565b926001600160401b0390606435828111610b305761117b903690830161286f565b916084358181116104b957611193903690840161286f565b9360a4359182116103795750916111b461037294926020979436910161286f565b9260443590602435906138c6565b506103b8906111d03661274d565b919251926111dd846127c6565b85845261307d565b50346102625781600319360112610262578051610313916106c38261120981612d60565b03836127fc565b503461026257816003193601126102625760209060ff600254169051908152f35b50913461026257826003193601126102625761124b61270d565b90336001600160a01b0383160361126757906103b89135612c53565b608490602085519162461bcd60e51b8352820152602f60248201527f416363657373436f6e74726f6c3a2063616e206f6e6c792072656e6f756e636560448201526e103937b632b9903337b91039b2b63360891b6064820152fd5b5091819234610b78576020366003190112610b785781356001600160401b038111611345576112f4903690840161286f565b6008546001600160a01b03169290833b156104b9576113329360208680948651978895869485936355f804b360e01b855284015260248301906126d2565b03925af19081156108f357506108e35750f35b505050fd5b5091606036600319011261026257803560249081359161136b604435614451565b938286526020916011835261138560ff8989205416614791565b8387526012835261139b888820548710156147eb565b838752600f83526001888820015442101561192c57848752600f8352600188882001544210156118cd576113d1610f1c866135e2565b858852600f8452600189892001541061184f576113ed84613898565b8061183c575b80611819575b156115365783875260108352878720548588528888205403611424575b5050506103b89394506150ff565b61143b84600052600e602052604060002054151590565b80611519575b156114a857505085601061149761147c610bef6114908a61148a8b6103b89d9e61146a8d6135e2565b9687928d86528a8d5282862054612cc9565b938d8152898c522054612cc9565b90612cf2565b9189612cf2565b928589525286205584933880611416565b60429060a49389519362461bcd60e51b85528401528201527f54696d654372656469743a2063616c6320636f6e74726163742074696d652d7660448201527f616c7565207261746520726571756972657320636f6e747261637420746f6b656064820152616e7360f01b6084820152fd5b5061153185600052600e602052604060002054151590565b611441565b95969061154284613898565b80611806575b806117dd575b1561155e575b5050505050505080f35b61157584600052600e602052604060002054151590565b806117c0575b156115995750505061158d93506150ff565b38808080808080611554565b9194936115b5849294600052600e602052604060002054151590565b806117a2575b1561179657600c548451639448bddb60e01b8152848101929092526001600160a01b039081169790928991888482818d5afa93841561178c5790899291849561175d575b50818452600e83528784205491821561172557508751809b819363cd5a2c3960e01b8352898301525afa80156117195787988298969798916116e2575b506116929761164a91612cc9565b9261166160145494610bef60ff8760a01c16614376565b875163a9059cbb60e01b81526001600160a01b03909416958401958652602086015291968794859391849160400190565b0393165af19081156116d957506116ab575b505061158d565b816116ca92903d106116d2575b6116c281836127fc565b810190614fd8565b5038806116a4565b503d6116b8565b513d85823e3d90fd5b958092508691503d8311611712575b6116fb81836127fc565b81010312610636579251869390889061169261163c565b503d6116f1565b508451903d90823e3d90fd5b91508751809b819363cd5a2c3960e01b8352898301525afa80156117195787988298969798916116e257506116929761164a91612cc9565b61177e919550833d8511611785575b61177681836127fc565b810190613f55565b93386115ff565b503d61176c565b87513d85823e3d90fd5b5050505050505061158d565b506117ba81600052600e602052604060002054151590565b156115bb565b506117d885600052600e602052604060002054151590565b61157b565b506117e785613898565b806117f3575b1561154e565b506117fd85612ec6565b600b54146117ed565b5061181084612ec6565b600b5414611548565b5061182385613898565b80156113f9575061183385612ec6565b600b54146113f9565b5061184684612ec6565b600b54146113f3565b604f9060a49389519362461bcd60e51b85528401528201527f54696d654372656469743a2074696d652076616c7565206f6620746f6b656e2060448201527f726563656976696e67207472616e7366657220657863656564732074696d652060648201526e3a34b6361032bc3834b930ba34b7b760891b6084820152fd5b60369060849389519362461bcd60e51b85528401528201527f54696d654372656469743a2063616e6e6f74207472616e736665722074696d656044820152751034b73a379030b71032bc3834b932b2103a37b5b2b760511b6064820152fd5b60369060849389519362461bcd60e51b85528401528201527f54696d654372656469743a2063616e6e6f74207472616e736665722074696d6560448201527510333937b69030b71032bc3834b932b2103a37b5b2b760511b6064820152fd5b509190346103795782600319360112610379576119a66126f7565b602435926119b382612f9d565b8410156119e6576020856119d88682878760018060a01b03168152600786522061326f565b91905490519160031b1c8152f35b608490602086519162461bcd60e51b8352820152602260248201527f455243333532353a206f776e657220696e646578206f7574206f6620626f756e604482015261647360f01b6064820152fd5b5082346103465781600319360112610346573590611a5061270d565b908284526009602052611a686001828620015461291e565b82845260096020528084209160018060a01b0316918260005260205260ff81600020541615611a95578380f35b828452600960205280842082600052602052600020600160ff1982541617905533917f2f8788117e7eff1d82e926ec794901d17c78024a50270940304540a733656f0d8480a48180808380f35b508290346103465761016036600319011261034657611aff6126f7565b9160243560443594606435946084359060a4359360c435916001600160401b0392838111610b3e57611b34903690890161286f565b9060e4358481116108fc57611b4c9036908a0161286f565b61010435858111611ee757611b649036908b0161286f565b9061012435938415158503611ee357611b7c8e614451565b9c8a8911611e7a578a4211611e26578a8e8a4211908b82159384611e0f575b5050508115611ddf575b5015611d82576014546001600160a01b0316803b15611d7e578d516340c10f1960e01b815230818f019081526020810184905290918c9183919082908490829060400103925af18015611d7457918f918f9796959493611d25575b509181611c507f404638021ef9ab6e71dfdc91f4ec2c814e6982dfc99f7ce4dea6800de6d467da979593611c4b611c929b9a9896611c4560ff60145460a01c16614376565b90612cc9565b612f7d565b998a600b548214600014611cfd5750611c68956138c6565b9b5b815190815260209d8e820152a189865260118b528886209060ff801983541691151516179055565b611c9e61014435614451565b88855260128a5287852055601089528684205585519485870191821186831017611ce8575085528352858301918252848152600f8652839020915182555160019091015551908152f35b604190634e487b7160e01b6000525260246000fd5b9190611d0896613d68565b9b6001600354019c8d6003558d8a52600e602052828a2055611c6a565b91611c5081611c4b611c929b9a9896949f611d627f404638021ef9ab6e71dfdc91f4ec2c814e6982dfc99f7ce4dea6800de6d467da9b9997612782565b9f9496989a9b50509395975050611c00565b8e513d8d823e3d90fd5b8a80fd5b8c5162461bcd60e51b81526020818e0152603160248201527f54696d654372656469743a2074696d652076616c75652063616e6e6f7420657860448201527018d95959081d985b1a59081c195c9a5bd9607a1b6064820152608490fd5b905080611e06575b80611df3575b38611ba5565b508d611dff428d6136cb565b1015611ded565b508a4210611de7565b611e1b929394506136cb565b1015908f8b8e611b9b565b8c5162461bcd60e51b81526020818e0152602860248201527f54696d654372656469743a2063616e6e6f74206d696e7420616e20657870697260448201526732b2103a37b5b2b760c11b6064820152608490fd5b8c5162461bcd60e51b81526020818e0152603e60248201527f54696d654372656469743a2076616c69642073746172742074696d65206d757360448201527f74206265206c657373207468616e2065787069726174696f6e2074696d6500006064820152608490fd5b8880fd5b8780fd5b509034610379576020366003190112610379575061037260209235612ec6565b5082346103465760203660031901126103465781602093600192358152600985522001549051908152f35b5091611f413661274d565b928385939293526011602052611f5c60ff8787205416614791565b611f6584615734565b84865260126020528686205411611f9457506103b8939450611f8f611f8a8433613287565b613016565b6132f8565b608490602087519162461bcd60e51b8352820152603f60248201527f54696d654372656469743a20746f6b656e2076616c7565206973206c6573732060448201527f7468616e206d696e696d756d207472616e7366657261626c652076616c7565006064820152fd5b50346102625781600319360112610262576020906005549051908152f35b50829034610346576020366003190112610346576008548151631375d84360e01b81528335938101939093528390839060249082906001600160a01b03165afa91821561033c57836103139493610317575050519182916020835260208301906126d2565b5061209b8193600161209136612723565b9591949095614451565b9584815260116020526120b360ff8383205416614791565b84815260126020526120ca828220548810156147eb565b848152600f6020522001544210156120ea57602085610372868686614871565b608490602086519162461bcd60e51b8352820152603160248201527f54696d654372656469743a2063616e6e6f74207472616e736665722066726f6d6044820152701030b71032bc3834b932b2103a37b5b2b760791b6064820152fd5b5082346103465760209081600319360112610b30576008548351636c0360eb60e01b81526001600160a01b039091169180359186818381875afa90811561242d578791612413575b5083156122015750906024869286519485938492633601bfc560e11b84528301525afa9081156121f45784610313939495926121d9575b5050925b519282849384528301906126d2565b6121ed92503d8091833e61032c81836127fc565b84806121c6565b50505051903d90823e3d90fd5b80935095919394955115156000146123d25783849183957a184f03e93ff9f4daa797ed6e38ed64bf6a1f01000000000000000090818110156123c5575b5050866d04ee2d6d415b85acef8100000000808510156123b7575b5050662386f26fc10000808410156123a8575b506305f5e10080841015612399575b506127108084101561238b575b5050606482101561237b575b600a80921015612371575b600190816021818801976122ca6122b58a61281d565b996122c28d519b8c6127fc565b808b5261281d565b898b019790601f190136893750880101905b61233b575b5050505060256123269261233592610313958851958361230a88955180928c80890191016126af565b84019164736c6f742f60d81b8a840152518093868401906126af565b010360058101845201826127fc565b926121ca565b600019019083906f181899199a1a9b1b9c1cb0b131b232b360811b8282061a83530491821561236c579190826122dc565b6122e1565b936001019361229f565b9390606460029104910193612294565b950194909104908780612288565b6008919693049201948861227b565b6010919693049201948861226c565b960195909204918689612259565b899750049250888061223e565b9493925090508251908282018281106001600160401b03821117612400578461031394959650528152612335565b634e487b7160e01b825260418652602482fd5b61242791503d8089833e61032c81836127fc565b8761218f565b86513d89823e3d90fd5b508083916003193601126103465761244d6126f7565b6024359290916001600160a01b0391908280612468876131a0565b16941693612478818614156130fd565b803314908115612549575b50156124e05761249d908587526006602052862054612e8b565b500180546001600160a01b031916831790556124b8836131a0565b167f8c5be1e5ebec7d5bd14f71427d1e84f3dd0314c0f7b2291e5b200ac8c7c3b9258480a480f35b906020608492519162461bcd60e51b8352820152603960248201527f455243333532353a20617070726f76652063616c6c6572206973206e6f74206f60448201527f776e6572206e6f7220617070726f76656420666f7220616c6c000000000000006064820152fd5b90508652600760205260028187200133875260205260ff818720541687612483565b50903461037957602036600319011261037957506110a86020923561320d565b50346102625781600319360112610262578051908280546125ab81612d26565b8085529160019180831690811561263357506001146125d7575b5050506106c3826103139403836127fc565b80809650527f290decd9548b62a8d60345a988386fc84ba6bc95484008f6362f93160ef3e5635b82861061261b575050506106c382602061031395820101946125c5565b805460208787018101919091529095019481016125fe565b6103139750869350602092506106c394915060ff191682840152151560051b820101946125c5565b83908534610346576020366003190112610346573563ffffffff60e01b81168091036103465760209250637965db0b60e01b811490811561269e575b5015158152f35b6301ffc9a760e01b14905083612697565b60005b8381106126c25750506000910152565b81810151838201526020016126b2565b906020916126eb815180928185528580860191016126af565b601f01601f1916010190565b600435906001600160a01b038216820361063657565b602435906001600160a01b038216820361063657565b606090600319011261063657600435906024356001600160a01b0381168103610636579060443590565b6060906003190112610636576001600160a01b0390600435828116810361063657916024359081168103610636579060443590565b6001600160401b03811161279557604052565b634e487b7160e01b600052604160045260246000fd5b60c081019081106001600160401b0382111761279557604052565b602081019081106001600160401b0382111761279557604052565b604081019081106001600160401b0382111761279557604052565b90601f801991011681019081106001600160401b0382111761279557604052565b6001600160401b03811161279557601f01601f191660200190565b9291926128448261281d565b9161285260405193846127fc565b829481845281830111610636578281602093846000960137010152565b9080601f830112156106365781602061288a93359101612838565b90565b6040906003190112610636576004359060243590565b60e0600319820112610636576004356001600160a01b038116810361063657916024359160443591606435916001600160401b039160843583811161063657826128ef9160040161286f565b9260a43581811161063657836129079160040161286f565b9260c4359182116106365761288a9160040161286f565b60009080825260209060098252604092838120338252835260ff8482205416156129485750505050565b8351916001600160401b0390336060850183811186821017612c3f578752602a85528585019187368437855115612c2b5760308353855191600192831015612c17576078602188015360295b838111612bad5750612b6b5790875193608085019085821090821117612b5757885260428452868401946060368737845115612b4357603086538451821015612b435790607860218601536041915b818311612ad557505050612a9357612a8f938693612a7393612a64604894612a3b9a519a8b957f416363657373436f6e74726f6c3a206163636f756e74200000000000000000008c88015251809260378801906126af565b8401917001034b99036b4b9b9b4b733903937b6329607d1b6037840152518093868401906126af565b010360288101875201856127fc565b5192839262461bcd60e51b8452600484015260248301906126d2565b0390fd5b60648587519062461bcd60e51b825280600483015260248201527f537472696e67733a20686578206c656e67746820696e73756666696369656e746044820152fd5b909192600f81166010811015612b2f576f181899199a1a9b1b9c1cb0b131b232b360811b901a612b058588612cff565b5360041c928015612b1b576000190191906129e3565b634e487b7160e01b82526011600452602482fd5b634e487b7160e01b83526032600452602483fd5b634e487b7160e01b81526032600452602490fd5b634e487b7160e01b86526041600452602486fd5b60648789519062461bcd60e51b825280600483015260248201527f537472696e67733a20686578206c656e67746820696e73756666696369656e746044820152fd5b90600f81166010811015612c03576f181899199a1a9b1b9c1cb0b131b232b360811b901a612bdb838a612cff565b5360041c908015612bef5760001901612994565b634e487b7160e01b87526011600452602487fd5b634e487b7160e01b88526032600452602488fd5b634e487b7160e01b86526032600452602486fd5b634e487b7160e01b85526032600452602485fd5b634e487b7160e01b85526041600452602485fd5b906000918083526009602052604083209160018060a01b03169182845260205260ff604084205416612c8457505050565b8083526009602052604083208284526020526040832060ff1981541690557ff6391f5c32d9c69d2a47ea670b442974b53935d1edc7fd64eb21e047a839171b339380a4565b81810292918115918404141715612cdc57565b634e487b7160e01b600052601160045260246000fd5b91908201809211612cdc57565b908151811015612d10570160200190565b634e487b7160e01b600052603260045260246000fd5b90600182811c92168015612d56575b6020831014612d4057565b634e487b7160e01b600052602260045260246000fd5b91607f1691612d35565b600d5460009291612d7082612d26565b80825291600190818116908115612de75750600114612d8e57505050565b91929350600d6000527fd7b6990105719101dabeb77144f2a3385c8033acd3af97e9423a695e81ad1eb5916000925b848410612dcf57505060209250010190565b80546020858501810191909152909301928101612dbd565b915050602093945060ff929192191683830152151560051b010190565b60155460009291612e1482612d26565b80825291600190818116908115612de75750600114612e3257505050565b9192935060156000527f55f448fdea98c4d29eb340757ef0a66cd03dbb9538908a6a81d96026b71ec475916000925b848410612e7357505060209250010190565b80546020858501810191909152909301928101612e61565b600554811015612d10576006906005600052027f036b6384b5eca791c62761152d0c79bb0604c104a5fb6f4eb0703f3154bb3db00190600090565b612ecf81613898565b8015612efd575b612edf90613154565b60005260066020526001612ef7604060002054612e8b565b50015490565b50612edf612f1882600052600e602052604060002054151590565b9050612ed6565b602081830312610636578051906001600160401b038211610636570181601f82011215610636578051612f518161281d565b92612f5f60405194856127fc565b818452602082840101116106365761288a91602080850191016126af565b8115612f87570490565b634e487b7160e01b600052601260045260246000fd5b6001600160a01b03168015612fbd57600052600760205260406000205490565b60405162461bcd60e51b815260206004820152602b60248201527f455243333532353a2062616c616e636520717565727920666f7220746865207a60448201526a65726f206164647265737360a81b6064820152608490fd5b1561301d57565b60405162461bcd60e51b815260206004820152603260248201527f455243333532353a207472616e736665722063616c6c6572206973206e6f74206044820152711bdddb995c881b9bdc88185c1c1c9bdd995960721b6064820152608490fd5b906130a1939291613091611f8a8433613287565b61309c8383836132f8565b61374a565b156130a857565b60405162461bcd60e51b815260206004820152602760248201527f455243333532353a207472616e7366657220746f206e6f6e204552433732315260448201526632b1b2b4bb32b960c91b6064820152608490fd5b1561310457565b60405162461bcd60e51b815260206004820152602260248201527f455243333532353a20617070726f76616c20746f2063757272656e74206f776e60448201526132b960f11b6064820152608490fd5b1561315b57565b60405162461bcd60e51b815260206004820152601960248201527f455243333532353a20696e76616c696420746f6b656e204944000000000000006044820152606490fd5b6131a981613898565b80156131eb575b6131b990613154565b60005260066020526131cf604060002054612e8b565b50600301546001600160a01b0316906131e9821515613154565b565b506131b961320682600052600e602052604060002054151590565b90506131b0565b61321681613898565b801561324d575b61322690613154565b600052600660205261323c604060002054612e8b565b50600401546001600160a01b031690565b5061322661326882600052600e602052604060002054151590565b905061321d565b8054821015612d105760005260206000200190600090565b906001600160a01b03808061329b846131a0565b169316918383149384156132ce575b5083156132b8575b50505090565b6132c49192935061320d565b16143880806132b2565b909350600052600760205260026040600020018260005260205260ff6040600020541692386132aa565b613301836131a0565b6001600160a01b03918216919081168290036135915780831692831561353e5761332a85612ec6565b50613334856135e2565b506000918583526020906006825260409061335182862054612e8b565b50600490810180546001600160a01b03199081169091559091898782613376836131a0565b167f8c5be1e5ebec7d5bd14f71427d1e84f3dd0314c0f7b2291e5b200ac8c7c3b9258280a48987526006855260056133b085892054612e8b565b500180549091858988818f5b8684106135075750505050505050805490878155816134ea575b50508886526006845260036133ed84882054612e8b565b50019081541690558585526007835281852091825493600019948581019081116134d7579061341e8893928661326f565b90549060031b1c9060018601908c8552818152838520549261345f81613444868b61326f565b90919082549060031b600019811b9283911b16911916179055565b8552528183205589825281205581549081156134c45750928288926134c0947fddf252ad1be2c89b69c2b068fc378daa952ba7f163c4a11628f55a4df523b3ef979601916134ad838361326f565b909182549160031b1b1916905555613635565b80a4565b634e487b7160e01b865260319052602485fd5b634e487b7160e01b885260118452602488fd5b8752848720908101905b818110156133d6578781556001016134f4565b6135349486928b613518878c61326f565b96905494835252209260031b1c168c5289528a888120556136d8565b8690888b8f6133bc565b60405162461bcd60e51b815260206004820152602560248201527f455243333532353a207472616e7366657220746f20746865207a65726f206164604482015264647265737360d81b6064820152608490fd5b60405162461bcd60e51b8152602060048201526024808201527f455243333532353a207472616e736665722066726f6d20696e76616c6964206f6044820152633bb732b960e11b6064820152608490fd5b6135eb81613898565b8015613613575b6135fb90613154565b60005260066020526002612ef7604060002054612e8b565b506135fb61362e82600052600e602052604060002054151590565b90506135f2565b6000908282526006602052600361364f6040842054612e8b565b500180546001600160a01b0319166001600160a01b0390921691821790558082526007602081815260408085208054878752600191909101835281862055928452528120805491600160401b8310156136b75750816134449160016131e9959401815561326f565b634e487b7160e01b81526041600452602490fd5b91908203918211612cdc57565b6000198114612cdc5760010190565b600160401b82116127955780549180825582811061370457505050565b60009182526020822092830192015b82811061371f57505050565b818155600101613713565b9081602091031261063657516001600160e01b0319811681036106365790565b92939290803b1561388f57936000916137a19560405180948193630a85bd0160e11b9788845233600485015260018060a01b0380921660248501526044840152608060648401528260209a8b9760848301906126d2565b0393165af160009181613860575b5061385157833d15613849573d906137c68261281d565b916137d460405193846127fc565b82523d60008284013e5b815191826138465760405162461bcd60e51b815260048101839052603260248201527f4552433732313a207472616e7366657220746f206e6f6e20455243373231526560448201527131b2b4bb32b91034b6b83632b6b2b73a32b960711b6064820152608490fd5b01fd5b6060906137de565b6001600160e01b031916149150565b613881919250853d8711613888575b61387981836127fc565b81019061372a565b90386137af565b503d61386f565b50600193505050565b600554151590816138a7575090565b80915060005260066020526138c0604060002054612e8b565b50541490565b919394929092600091600160035401968760035560018060a01b03918286168015613cc8578915613c79576138fa8a613898565b613c34576040968a885161390d816127c6565b888152895161391b816127ab565b8281528a6020938d858401908152828401908d82528d60608601938a8552608087019582875260a08801988952600554928392815260068b522055600160401b811015613c20578060016139729201600555612e8b565b959095613c0c5790600595949392915185555160018501555160028401558a60038401915116906bffffffffffffffffffffffff60a01b91828254161790558a6004840192511690825416179055019051918251926001600160401b038411613bf85790808f96959493926139e785856136e7565b01918b52808b20908b5b848110613bd457505050505082613a0791613635565b867fddf252ad1be2c89b69c2b068fc378daa952ba7f163c4a11628f55a4df523b3ef8180a486858a7fe4f48c240d3b994948aa54f3e2f5fca59263dfe1d52b6e4cf39a5d249b5ccb658280a4613a5d888a613d17565b8260085416803b15610b3e57613a989186918b838a51809681958294632108947560e21b845260048401528d602484015260448301906126d2565b03925af18015610d3a57613bc1575b508160085416803b156104b957613ae39185918a83895180968195829463246a908b60e01b845260048401528c602484015260448301906126d2565b03925af18015613bb757908491613ba3575b50506008541690813b1561034657613b32839283928651948580948193630190503b60e61b83528d60048401528a602484015260448301906126d2565b03925af18015613b9957613b85575b505051838152602081019190915260408101919091527f84eeb48eca46cea54afc9753345f6038981672ea565f32885420829dfd88aea69080606081015b0390a190565b613b8f8291612782565b6103795780613b41565b83513d84823e3d90fd5b613bac90612782565b610346578238613af5565b85513d86823e3d90fd5b613bcd90949194612782565b9238613aa7565b839495969750818b600193949551169501948185015501908f9695949392916139f1565b634e487b7160e01b8b52604160045260248bfd5b634e487b7160e01b8f5260048f905260248ffd5b634e487b7160e01b8f52604160045260248ffd5b60405162461bcd60e51b815260206004820152601d60248201527f455243333532353a20746f6b656e20616c7265616479206d696e7465640000006044820152606490fd5b60405162461bcd60e51b815260206004820152602160248201527f455243333532353a2063616e6e6f74206d696e74207a65726f20746f6b656e496044820152601960fa1b6064820152608490fd5b60405162461bcd60e51b815260206004820152602160248201527f455243333532353a206d696e7420746f20746865207a65726f206164647265736044820152607360f81b6064820152608490fd5b906000805160206159d48339815191526020600092848452600682526002613d426040862054612e8b565b5001613d4f828254612cf2565b9055604051908152a3565b604d8111612cdc57600a0a90565b93959291949095602060025496600097613d9460018060a01b0396610bef60ff89600c54169416613d5a565b60408051632d2a246560e01b81526001600160a01b039a909a1660048b015260248a019b909b5260448901929092526064880191909152959795889060849082908a905af1968715613f18578697613f22575b508260085416803b156108fc57613e2391879189838951809681958294632108947560e21b845260048401528c602484015260448301906126d2565b03925af18015613f1857613f05575b50816008541690813b15610b3e57613e6f86928392875194858094819363246a908b60e01b83528d60048401528b602484015260448301906126d2565b03925af18015613efb57908591613ee7575b50506008541690813b15610b3057613ec08392859492859351958680948193630190503b60e61b83528b600484015288602484015260448301906126d2565b03925af19081156108f35750613ed557505090565b613edf8291612782565b610379575090565b613ef090612782565b610b30578338613e81565b84513d87823e3d90fd5b613f1190959195612782565b9338613e32565b85513d88823e3d90fd5b9096506020813d8211613f4d575b81613f3d602093836127fc565b81010312610b3e57519538613de7565b3d9150613f30565b9081602091031261063657516001600160a01b03811681036106365790565b613f7d81613898565b8015614029575b613f8d90613154565b613f9681613898565b80614016575b15613faa5761288a906131a0565b60018060a01b03600c541690600052600e60205260206040600020546024604051809481936331a9108f60e11b835260048301525afa90811561400a57600091613ff2575090565b61288a915060203d81116117855761177681836127fc565b6040513d6000823e3d90fd5b5061402081612ec6565b600b5414613f9c565b50613f8d61404482600052600e602052604060002054151590565b9050613f84565b6001600160a01b03808316939192841561413457836140699161418c565b156140b7575b5060207f621b050de0ad08b51d19b48b3e6df75348c4de6bdd93e81b252ca62e28265b1b918360005260048252604060002085600052825280604060002055604051908152a3565b9082600052600660205260056140d1604060002054612e8b565b500190815492600160401b84101561279557856141178560209560017f621b050de0ad08b51d19b48b3e6df75348c4de6bdd93e81b252ca62e28265b1b9801815561326f565b909283549160031b90811b9283911b16911916179055915061406f565b60405162461bcd60e51b815260206004820152602a60248201527f455243333532353a20617070726f76652076616c756520746f20746865207a65604482015269726f206164647265737360b01b6064820152608490fd5b60009082825260066020908082526040906141a982862054612e8b565b509260058094015496865b8881106141c75750505050505050905090565b8188528383526141e581876141de888c2054612e8b565b500161326f565b905460039190911b1c6001600160a01b039081169088161461420f5761420a906136d8565b6141b4565b505050505050505050600190565b9061422782613898565b80156142f4575b61423790613154565b61424082613898565b806142e1575b156142545761288a91614316565b602060018060a01b0391604483600c54166000958652600e845260408620549060405195869485936338d1782f60e21b855260048501521660248301525afa9182156142d55780926142a557505090565b9091506020823d82116142cd575b816142c0602093836127fc565b8101031261037957505190565b3d91506142b3565b604051903d90823e3d90fd5b506142eb82612ec6565b600b5414614246565b5061423761430f83600052600e602052604060002054151590565b905061422e565b61431f81613898565b8015614354575b61432f90613154565b600052600460205260406000209060018060a01b031660005260205260406000205490565b5061432f61436f82600052600e602052604060002054151590565b9050614326565b60ff16604d8111612cdc57600a0a90565b60405190614394826127e1565b60078252667365636f6e647360c81b6020830152565b604051906143b7826127e1565b60078252666d696e7574657360c81b6020830152565b604051906143da826127e1565b6005825264686f75727360d81b6020830152565b604051906143fb826127e1565b60048252636461797360e01b6020830152565b6040519061441b826127e1565b60068252656d6f6e74687360d01b6020830152565b6040519061443d826127e1565b6005825264796561727360d81b6020830152565b60009060408051906144668261120981612e04565b8151602080930120614476614387565b8051908401200361449957505061288a9150610bef60ff60145460a01c16614376565b80516144af816144a881612e04565b03826127fc565b8281519101206144bd6143aa565b805190840120036144f2575050603c80820292508115918304141715612cdc5761288a90610bef60ff60145460a01c16614376565b8051614501816144a881612e04565b82815191012061450f6143cd565b8051908401200361455b5750506145329150610bef60ff60145460a01c16614376565b603c810290808204603c1481151715612cdc57610e100290808204603c1490151715612cdc5790565b805161456a816144a881612e04565b8281519101206145786143ee565b805190840120036145d75750509050601881029080820460181481151715612cdc576105a0810291808304603c1490151715612cdc57620151800290808204603c1490151715612cdc5761288a90610bef60ff60145460a01c16614376565b7f8be27e132b8285429e5647023e835848842eefd3c91595a90151c438482c3a368151614607816144a881612e04565b838151910120647765656b7360d81b848451614622816127e1565b600581520152036146945750509050600781029080820460071481151715612cdc5760a881029180830460181490151715612cdc57612760810291808304603c1490151715612cdc5762093a800290808204603c1490151715612cdc5761288a90610bef60ff60145460a01c16614376565b80516146a3816144a881612e04565b8281519101206146b161440e565b805190840120036147255750509050603c810290808204603c1481151715612cdc57610e10810291808304603c1490151715612cdc576201518081029180830460181490151715612cdc5762278d000290808204601e1490151715612cdc5761288a90610bef60ff60145460a01c16614376565b51614733816144a881612e04565b81815191012090614742614430565b805191012014614750575090565b906301da9c009182810292818404149015171561477d575061288a90610bef60ff60145460a01c16614376565b634e487b7160e01b81526011600452602490fd5b1561479857565b60405162461bcd60e51b815260206004820152602560248201527f54696d654372656469743a207472616e736665727320617265206e6f7420616c6044820152641b1bddd95960da1b6064820152608490fd5b156147f257565b60405162461bcd60e51b815260206004820152604b60248201527f54696d654372656469743a20616d6f756e74206265696e67207472616e73666560448201527f726564206973206c657373207468616e206d696e696d756d207472616e73666560648201526a7261626c652076616c756560a81b608482015260a490fd5b919091600090808252602091600e83526040928382205415600014614be25761489b858433614cc5565b600195866003540196876003556148b185612ec6565b916001600160a01b0380821692908315614b94578a15614b46576148d48b613898565b614b025788516148e3816127c6565b8781528951888b8e6148f4846127ab565b8084528a84018a81528b8386019285845260608701948c8652608088019680885260a08901998a5260066005549485948352522055600160401b811015614aee5780896149449201600555612e8b565b959095614ada57906005959493929151855551888501555160028401558560038401915116906bffffffffffffffffffffffff60a01b9182825416179055856004840192511690825416179055019051918251926001600160401b038411614ac657908883928f9b9a999897969594856149bd916136e7565b0191895287892090895b848110614ab0575050505050507f6d811e6a20ae5461a4ef22a6998c1d958defe727f1cc522b6eb792bc8e6f726698979693869384614a939794614a1d613b7f9a6000805160206159d483398151915296613635565b857fddf252ad1be2c89b69c2b068fc378daa952ba7f163c4a11628f55a4df523b3ef8180a483857fe4f48c240d3b994948aa54f3e2f5fca59263dfe1d52b6e4cf39a5d249b5ccb658280a483835260068152614a7b88842054612e8b565b50508751838152a3614a8e858883614d5f565b612ec6565b915192839286846040919493926060820195825260208201520152565b83518216818401558f9b509289019285016149c7565b634e487b7160e01b8a52604160045260248afd5b634e487b7160e01b8e5260048e905260248efd5b634e487b7160e01b8e52604160045260248efd5b885162461bcd60e51b815260048101879052601d60248201527f455243333532353a20746f6b656e20616c7265616479206d696e7465640000006044820152606490fd5b885162461bcd60e51b815260048101879052602160248201527f455243333532353a2063616e6e6f74206d696e74207a65726f20746f6b656e496044820152601960fa1b6064820152608490fd5b885162461bcd60e51b815260048101879052602160248201527f455243333532353a206d696e7420746f20746865207a65726f206164647265736044820152607360f81b6064820152608490fd5b600c5484516307a42e0160e11b8152600481018590526001600160a01b0397881660248201526044810187905291969192918791849160649183918691165af1958615614cb9578196614c62575b50505090613b7f614a937f6d811e6a20ae5461a4ef22a6998c1d958defe727f1cc522b6eb792bc8e6f72669493612ec6565b909180939650813d8311614cb2575b614c7b81836127fc565b8101031261037957505192613b7f614a937f6d811e6a20ae5461a4ef22a6998c1d958defe727f1cc522b6eb792bc8e6f7266614c30565b503d614c71565b508351903d90823e3d90fd5b614ccf8183614316565b614cd98383613287565b1580614d53575b614ceb575b50505050565b838110614d0e57614d0593614cff916136cb565b9161404b565b38808080614ce5565b60405162461bcd60e51b815260206004820152601f60248201527f455243333532353a20696e73756666696369656e7420616c6c6f77616e6365006044820152606490fd5b50600019811415614ce0565b614d6881613898565b15614f8357614d7682613898565b15614f30578060005260209260068452604092614d968460002054612e8b565b508160005260068652614dac8560002054612e8b565b50906002810190815490858210614ed95760010154600184015403614e7e5791600291614ddf86614e1c989796956136cb565b905501614ded838254612cf2565b905580836000805160206159d4833981519152888851868152a3845192614e13846127c6565b60008452614ff0565b15614e25575050565b60849250519062461bcd60e51b82526004820152602d60248201527f455243333532353a207472616e736665722072656a656374656420627920455260448201526c21999a991aa932b1b2b4bb32b960991b6064820152fd5b865162461bcd60e51b815260048101899052602e60248201527f455243333532353a207472616e7366657220746f20746f6b656e20776974682060448201526d191a5999995c995b9d081cdb1bdd60921b6064820152608490fd5b875162461bcd60e51b8152600481018a9052602a60248201527f455243333532353a20696e73756666696369656e742062616c616e636520666f60448201526939103a3930b739b332b960b11b6064820152608490fd5b60405162461bcd60e51b815260206004820152602560248201527f455243333532353a207472616e7366657220746f20696e76616c696420746f6b604482015264195b88125160da1b6064820152608490fd5b60405162461bcd60e51b815260206004820152602760248201527f455243333532353a207472616e736665722066726f6d20696e76616c696420746044820152661bdad95b88125160ca1b6064820152608490fd5b90816020910312610636575180151581036106365790565b92614ffa826131a0565b803b1515806150a0575b156150965761504d93600060209460405196879586948593629ce20b60e01b9b8c865233600487015260248601526044850152606484015260a0608484015260a48301906126d2565b03926001600160a01b03165af190811561400a57600091615078575b506001600160e01b0319161490565b615090915060203d81116138885761387981836127fc565b38615069565b5050505050600190565b506040516301ffc9a760e01b8152629ce20b60e01b60048201526020816024816001600160a01b0386165afa90811561400a576000916150e1575b50615004565b6150f9915060203d81116116d2576116c281836127fc565b386150db565b90929161510b82613898565b80615721575b806156fe575b1561517c57906151778261514f7fdf7a601a0a201ccd4b4bfcfd610913188d931867997223d226f85f2f2673988a9596948433614cc5565b61515a818585614d5f565b604051938493846040919493926060820195825260208201520152565b0390a1565b61519382600052600e602052604060002054151590565b806156e1575b156153b257600093828552600e60205260409283862054918087528487205491831580158080916153a9575b1561523e575050600c546001600160a01b031693915050823b156108fc578451630310ed7f60e41b81526004810191909152602481019190915260448101929092529293909281908490818381606481015b03925af191821561523457505061522b5750565b6131e990612782565b51903d90823e3d90fd5b92939192806153a1575b156152aa575050600c546001600160a01b0316929050823b156108fc578451630310ed7f60e41b81526004810191909152602481019190915260448101929092529293909281908490606490829084905af191821561523457505061522b5750565b91935091908080615398575b15615309575050600c546001600160a01b031691823b156108fc578451630310ed7f60e41b8152600481019190915260248101919091526044810192909252929390928190849081838160648101615217565b90918161538f575b5061531f575b505050509050565b600c546001600160a01b031691823b156108fc578451630310ed7f60e41b81526004810191909152602481019190915260448101929092529293909281908490606490829084905af1918215615234575050615380575b8080808493615317565b61538990612782565b38615376565b90501538615311565b508215156152b6565b508115615248565b508415156151c5565b6153cc82949394600052600e602052604060002054151590565b806155c3575b156155be57600c5460408051639448bddb60e01b81526004810186905290936001600160a01b039283169392916020908181602481895afa9081156155b357600091615596575b50836000885161542c816144a881612d60565b8481519101209260048a518094819363106057b960e21b8352165afa90811561558b57600091615572575b5082815191012003615518576000828152600e909152859020549384156154ce575050600c5416803b15610636578351630310ed7f60e41b8152600481019390935260248301949094526044820152916000908390606490829084905af19081156154c4575061522b5750565b513d6000823e3d90fd5b91509250803b15610636578351630310ed7f60e41b8152600481019390935260248301949094526044820152916000908390606490829084905af19081156154c4575061522b5750565b60849086519062461bcd60e51b82526004820152602e60248201527f43616e6e6f74207472616e73666572206265747765656e20646966666572656e60448201526d742063726564697420747970657360901b6064820152fd5b615585913d8091833e61032c81836127fc565b38615457565b88513d6000823e3d90fd5b6155ad9150823d84116117855761177681836127fc565b38615419565b87513d6000823e3d90fd5b505050565b506000838152602090600e825260408082205415928361567a575b83156155ed575b5050506153d2565b868352600e8152818320541515935090918361560f575b5050503880806155e5565b9091925060018060a01b039182600c54169181858220546024875180968193639448bddb60e01b835260048301525afa94851561523457509361565b575b505016301415388080615604565b615672929350803d106117855761177681836127fc565b90388061564d565b600c548251639448bddb60e01b8152600481018990529194506001600160a01b039085908390602490829085165afa9182156121f45784926156c2575b5016301415926155de565b6156da919250853d87116117855761177681836127fc565b90386156b7565b506156f984600052600e602052604060002054151590565b615199565b5061570884613898565b8015615117575061571884612ec6565b600b5414615117565b5061572b82612ec6565b600b5414615111565b6157569061574181613898565b80156158fd575b61575190613154565b61591f565b60408051906157688261120981612e04565b8151602080930120615778614387565b8051908401200361579a57505061288a90611c4560ff60145460a01c16614376565b80516157a9816144a881612e04565b8281519101206157b76143aa565b805190840120036157df5750506157db603c91611c4560ff60145460a01c16614376565b0490565b80516157ee816144a881612e04565b8281519101206157fc6143cd565b805190840120036158215750506157db610e1091611c4560ff60145460a01c16614376565b8051615830816144a881612e04565b82815191012061583e6143ee565b805190840120036158645750506157db6201518091611c4560ff60145460a01c16614376565b8051615873816144a881612e04565b82815191012061588161440e565b805190840120036158a75750506157db62278d0091611c4560ff60145460a01c16614376565b516158b5816144a881612e04565b818151910120906158c4614430565b8051910120036158e8576157db6301da9c0091611c4560ff60145460a01c16614376565b61288a90611c4560ff60145460a01c16614376565b5061575161591882600052600e602052604060002054151590565b9050615748565b61592881613898565b80156159b1575b61593890613154565b61594181613898565b8061599e575b156159555761288a906135e2565b6000908152600e6020526040812054602060018060a01b03600c541691602460405180948193631398fee160e31b835260048301525afa9182156142d55780926142a557505090565b506159a881612ec6565b600b5414615947565b506159386159cc82600052600e602052604060002054151590565b905061592f56fe0b2aac84f3ec956911fd78eae5311062972ff949f38412e8da39069d9f068cc6a2646970667358221220fc35c82674aeb24a380d7ed0c1bacd4cad2d23b4778a90a3eff58c4b6512e5a864736f6c63430008110033608060405234620004865762002423803803806200001d816200048b565b9283398101608082820312620004865781516001600160401b0391908281116200048657816200004f918501620004b1565b91602092838501518281116200048657836200006d918701620004b1565b92604086015183811162000486576060916200008b918801620004b1565b9501516001600160a01b03811695908690036200048657815193838511620002c3576001948554938685811c951680156200047b575b88861014620002a2578190601f9586811162000425575b508890868311600114620003bd57600092620003b1575b5050600019600383901b1c191690861b1785555b805190848211620002c357600254908682811c92168015620003a6575b88831014620002a25781858493116200034f575b508790858311600114620002e557600092620002d9575b5050600019600383901b1c191690851b176002555b8051928311620002c35760039485548581811c91168015620002b8575b82821014620002a25783811162000257575b5080928411600114620001ed5750928293918392600094620001e1575b50501b9160001990841b1c19161790555b600080546001600160a01b031916919091179055604051611eff9081620005248239f35b015192503880620001ac565b919083601f1981168760005284600020946000905b888383106200023c575050501062000223575b505050811b019055620001bd565b015160001983861b60f8161c1916905538808062000215565b85870151885590960195948501948793509081019062000202565b86600052816000208480870160051c82019284881062000298575b0160051c019086905b8281106200028b5750506200018f565b600081550186906200027b565b9250819262000272565b634e487b7160e01b600052602260045260246000fd5b90607f16906200017d565b634e487b7160e01b600052604160045260246000fd5b0151905038806200014b565b90879350601f198316916002600052896000209260005b8b8282106200033857505084116200031e575b505050811b0160025562000160565b015160001960f88460031b161c191690553880806200030f565b8385015186558b97909501949384019301620002fc565b9091506002600052876000208580850160051c8201928a86106200039c575b918991869594930160051c01915b8281106200038c57505062000134565b600081558594508991016200037c565b925081926200036e565b91607f169162000120565b015190503880620000ef565b90889350601f19831691846000528a6000209260005b8c8282106200040e5750508411620003f4575b505050811b01855562000103565b015160001960f88460031b161c19169055388080620003e6565b8385015186558c97909501949384019301620003d3565b90915087600052886000208680850160051c8201928b861062000471575b918a91869594930160051c01915b82811062000461575050620000d8565b600081558594508a910162000451565b9250819262000443565b94607f1694620000c1565b600080fd5b6040519190601f01601f191682016001600160401b03811183821017620002c357604052565b919080601f84011215620004865782516001600160401b038111620002c357602090620004e7601f8201601f191683016200048b565b92818452828287010111620004865760005b8181106200050f57508260009394955001015290565b8581018301518482018401528201620004f956fe608060408181526004908136101561001657600080fd5b600092833560e01c9081631375d8431461149c57508063246a908b1461139e57806331264fc11461118c57806355f804b31461104857806364140ec014610f495780636c0360eb14610e8a5780636c037f8a14610b6e57806371f0442e14610ada578063725fa09c14610862578063842251d41461072a578063894b4c2e146103fe5780639cdeaae0146101805763b3154c08146100b357600080fd5b3461017c57602091826003193601126101785780358452825280832091815192848154906100e082611a79565b808752926001928084169081156101545750600114610119575b610115878761010b828c03836115b2565b5191829182611554565b0390f35b9080949750528583205b82841061014157505050826101159461010b928201019438806100fa565b8054868501880152928601928101610123565b60ff19168887015250505050151560051b830101925061010b8261011538806100fa565b8380fd5b8280fd5b50913461038c578260031936011261038c57813561019d816119c9565b928183526020918183528584209186519480868554916101bc83611a79565b92838352888301976001918a83821691826000146103de5750506001146103a1575b50506101ec925003876115b2565b6101f583611de0565b91610201602435611886565b9389519163131f9f3f60e11b83528201528581602481335afa918215610396578092610360575b61011561027a8b61010b606c8d8d8d6103478e8e8e6102468f611886565b9261024f611e7a565b966102a460298d519e8f809c683d913730b6b2911d1160b91b8c8301528b8151948593019101611531565b8a0191701116113232b9b1b934b83a34b7b7111d1160791b6029840152518093603a840190611531565b016a11161134b6b0b3b2911d1160a91b603a8201526102cc8251809388604585019101611531565b016c1116113130b630b731b2911d1160991b60458201526102f68251809387605285019101611531565b016911161139b637ba111d1160b11b605282015261031d8251809386605c85019101611531565b01916e111611383937b832b93a34b2b9911d60891b605c8401528351938491606b85019101611531565b01607d60f81b606b82015203604c8101855201836115b2565b9091508582813d831161038f575b61037881836115b2565b8101031261038c575051610347606c610228565b80fd5b503d61036e565b8951903d90823e3d90fd5b89925085528185209085915b8583106103c55750506101ec935082010138806101de565b81948484839695965492010152019101899289926103ad565b92509350506101ec94915060ff19168852151560051b82010138806101de565b50913461038c57602091826003193601126107265780359061041f826119c9565b9282815281855285812090865190808284549161043b83611a79565b928383528a8301966001918c83821691826000146107065750506001146106ca575b505061046b925003836115b2565b61047485611de0565b938851631398fee160e31b815286828201528881602481335afa80156106c0578390610691575b6104a59150611886565b9589519163131f9f3f60e11b83528201528781602481335afa91821561039657809261065e575b5050610610606c888a6101159b9961010b99603d9961064e9d99610615996105526104f96105289b611886565b95610502611e7a565b97519b8c99683d913730b6b2911d1160b91b818c0152825192839160298d019101611531565b880191701116113232b9b1b934b83a34b7b7111d1160791b6029840152518093603a840190611531565b016a11161134b6b0b3b2911d1160a91b603a82015261057a825180938d604585019101611531565b016c1116113130b630b731b2911d1160991b60458201526105a4825180938c605285019101611531565b016911161139b637ba111d1160b11b60528201526105cb825180938b605c85019101611531565b016e111611383937b832b93a34b2b9911d60891b605c8201526105f7825180938a606b85019101611531565b01607d60f81b606b82015203604c8101845201826115b2565b611719565b845195827f646174613a6170706c69636174696f6e2f6a736f6e3b6261736536342c000000889485015282519283918686019101611531565b810103601d8101855201836115b2565b9091508782813d831161068a575b61067681836115b2565b8101031261038c575051610610606c6104cc565b503d61066c565b508881813d83116106b9575b6106a781836115b2565b8101031261017c576104a5905161049b565b503d61069d565b8a513d85823e3d90fd5b8b925085528185209085915b8583106106ee57505061046b9350820101388061045d565b80548389018501528794508c939092019181016106d6565b925093505061046b94915060ff19168752151560051b820101388061045d565b5080fd5b508290346107265761073b3661163c565b939083526020916006835283209184519167ffffffffffffffff831161084f57506107668354611a79565b601f811161080c575b5080601f83116001146107aa575083948293949261079f575b50508160011b916000199060031b1c191617905580f35b015190508480610788565b90601f198316958486528286209286905b8882106107f4575050836001959697106107db575b505050811b01905580f35b015160001960f88460031b161c191690558480806107d0565b806001859682949686015181550195019301906107bb565b838552818520601f840160051c810191838510610845575b601f0160051c01905b81811061083a575061076f565b85815560010161082d565b9091508190610824565b634e487b7160e01b855260419052602484fd5b50903461017c578260031936011261017c5781516306fdde0360e01b81529083828281335afa918215610acd578492610aa9575b5082519084600254906108a882611a79565b808552846020988992838301956001908181169081600014610a8a5750600114610a2e575b50506108db925003856115b2565b6108e3611bb2565b928787518092633e7e866960e01b825281335afa918215610a2357605a61064e989761010b97603d976101159c9761092f60ff610615996109849961061099916109f6575b5016611886565b928c51978895683d913730b6b2911d1160b91b8c88015261095a8c825192839160298b019101611531565b860191701116113232b9b1b934b83a34b7b7111d1160791b6029840152518093603a840190611531565b016a11161134b6b0b3b2911d1160a91b603a8201526109ac825180938b604585019101611531565b01721116113b30b63ab2a232b1b4b6b0b639911d1160691b60458201526109dc825180938a605885019101611531565b0161227d60f01b605882015203603a8101845201826115b2565b610a1691508c8d3d10610a1c575b610a0e81836115b2565b8101906116ce565b38610928565b503d610a04565b8751903d90823e3d90fd5b600286527f405787fa12a823e0f2b7631cc41b3ba8828b3321ca811111fa75cd3aa3bb5ace9492508591905b818310610a7257508b9450508201016108db386108cd565b85548a84018501529485019489945091830191610a5a565b9150506108db94925060ff19168652151560051b8201018992386108cd565b610ac69192503d8086833e610abe81836115b2565b81019061166f565b9038610896565b50505051903d90823e3d90fd5b503461017c576020918260031936011261017857358352600582528083209181519284815490610b0982611a79565b808752926001928084169081156101545750600114610b3357610115878761010b828c03836115b2565b9080949750528583205b828410610b5b57505050826101159461010b928201019438806100fa565b8054868501880152928601928101610b3d565b50903461017c576020928360031936011261038c578054835163ec327a2160e01b815283358185018190529092916001600160a01b0316908284602481855afa938415610e80578394610e64575b50855163bc74ebb960e01b8152858101829052948386602481865afa958615610e5a578496610e3e575b5086516309c3dd8760e01b80825282820184905290938585602481845afa948515610e3457918a9594939187938496610e13575b5090602491610c5a60268d518a652f696d61676560d01b81610c46849e85019d8e815193849201611531565b83019182015203600681018b5201896115b2565b8b51958694859384528301525afa938415610a23578094610df6575b50508551918288808201868197519283910191610c9292611531565b81018981016f17b83937b832b93a34b2b9973539b7b760811b905203601081018452603001610cc190846115b2565b8651958695683d913730b6b2911d1160b91b8a880152805190818b60298a01920191610cec92611531565b8601701116113232b9b1b934b83a34b7b7111d1160791b6029820152815191828b603a8401920191610d1d92611531565b01906a11161134b6b0b3b2911d1160a91b603a83015251918260458301610d4392611531565b01906e111611383937b832b93a34b2b9911d60891b604583015251918260548301610d6d92611531565b0160548101607d60f81b905203603581018252605501610d8d90826115b2565b610d9690611719565b81517f646174613a6170706c69636174696f6e2f6a736f6e3b6261736536342c00000084820152815190938492610dd4918391603d86019101611531565b810103601d81018352603d01610dea90836115b2565b51610115819282611554565b610e0b9294503d8091833e610abe81836115b2565b913880610c76565b602492919650610e2c903d8087833e610abe81836115b2565b959091610c1a565b89513d88823e3d90fd5b610e539196503d8086833e610abe81836115b2565b9438610be6565b87513d86823e3d90fd5b610e799194503d8085833e610abe81836115b2565b9238610bbc565b86513d85823e3d90fd5b838234610726578160031936011261072657805190826001805491610eae83611a79565b80865292828116908115610f215750600114610ed7575b50505061010b826101159403836115b2565b9450808552600080516020611eaa8339815191525b828610610f095750505061010b8260206101159582010194610ec5565b80546020878701810191909152909501948101610eec565b61011597508693506020925061010b94915060ff191682840152151560051b82010194610ec5565b5082903461072657610f5a3661163c565b939083526020916005835283209184519167ffffffffffffffff831161084f5750610f858354611a79565b601f8111611005575b5080601f8311600114610fbd575083948293949261079f5750508160011b916000199060031b1c191617905580f35b90601f198316958486528286209286905b888210610fed575050836001959697106107db57505050811b01905580f35b80600185968294968601518155019501930190610fce565b838552818520601f840160051c81019183851061103e575b601f0160051c01905b8181106110335750610f8e565b858155600101611026565b909150819061101d565b82843461038c576020806003193601126107265767ffffffffffffffff83358181116101785761107b90369086016115f0565b93845191821161117957506001916110938354611a79565b601f8111611127575b5080601f83116001146110d657508394829394926110cb575b5050600019600383901b1c191690821b17905580f35b0151905084806110b5565b838552601f19831695600080516020611eaa833981519152929186905b88821061111057505083859697106107db57505050811b01905580f35b8087859682949686015181550195019301906110f3565b838552600080516020611eaa833981519152601f840160051c81019183851061116f575b601f0160051c019084905b82811061116457505061109c565b868155018490611156565b909150819061114b565b634e487b7160e01b845260419052602483fd5b50903461017c578260031936011261017c5781516306fdde0360e01b81529083828281335afa918215610acd578492611382575b5082519084906002546111d281611a79565b808552846020948582019360019087828216918260001461136457505060011461130a575b50611204925003856115b2565b61120c611bb2565b918387518092633e7e866960e01b825281335afa9081156113005761127997969361010b969361124f60ff605a98956112cf956101159e916112e9575016611886565b9489519a8b97683d913730b6b2911d1160b91b878a0152610528815180928960298d019101611531565b016a11161134b6b0b3b2911d1160a91b603a8201526112a18251809386604585019101611531565b0191721116113b30b63ab2a232b1b4b6b0b639911d1160691b60458401528351938491605885019101611531565b0161227d60f01b605882015203603a8101855201836115b2565b610a169150873d8911610a1c57610a0e81836115b2565b87513d8a823e3d90fd5b60028b528691508a907f405787fa12a823e0f2b7631cc41b3ba8828b3321ca811111fa75cd3aa3bb5ace5b85831061134c5750506112049350820101386111f7565b8054838b018501528994508893909201918101611335565b60ff1916875261120495151560051b85010192503891506111f79050565b6113979192503d8086833e610abe81836115b2565b90386111c0565b50829034610726576113af3661163c565b9390835260209181835283209184519167ffffffffffffffff831161084f57506113d98354611a79565b601f8111611459575b5080601f8311600114611411575083948293949261079f5750508160011b916000199060031b1c191617905580f35b90601f198316958486528286209286905b888210611441575050836001959697106107db57505050811b01905580f35b80600185968294968601518155019501930190611422565b838552818520601f840160051c810191838510611492575b601f0160051c01905b81811061148757506113e2565b85815560010161147a565b9091508190611471565b92905034610178576020908160031936011261152d57358452600681528184208054856114c882611a79565b8087529260019280841690811561015457506001146114f257610115878761010b828c03836115b2565b9080949750528583205b82841061151a57505050826101159461010b928201019438806100fa565b80548685018801529286019281016114fc565b8480fd5b60005b8381106115445750506000910152565b8181015183820152602001611534565b604091602082526115748151809281602086015260208686019101611531565b601f01601f1916010190565b6060810190811067ffffffffffffffff82111761159c57604052565b634e487b7160e01b600052604160045260246000fd5b90601f8019910116810190811067ffffffffffffffff82111761159c57604052565b67ffffffffffffffff811161159c57601f01601f191660200190565b81601f8201121561163757803590611607826115d4565b9261161560405194856115b2565b8284526020838301011161163757816000926020809301838601378301015290565b600080fd5b90604060031983011261163757600435916024359067ffffffffffffffff82116116375761166c916004016115f0565b90565b6020818303126116375780519067ffffffffffffffff8211611637570181601f820112156116375780516116a2816115d4565b926116b060405194856115b2565b818452602082840101116116375761166c9160208085019101611531565b90816020910312611637575160ff811681036116375790565b906116f1826115d4565b6116fe60405191826115b2565b828152809261170f601f19916115d4565b0190602036910137565b8051156118615760405161172c81611580565b604081527f4142434445464748494a4b4c4d4e4f505152535455565758595a61626364656660208201527f6768696a6b6c6d6e6f707172737475767778797a303132333435363738392b2f6040820152815160029283820180921161184b576003918290046001600160fe1b038116810361184b576117ae908594951b6116e7565b936020850193829183518401925b8381106117fa57505050505106806001146117e7576002146117dc575090565b603d90600019015390565b50603d9081600019820153600119015390565b85600491979293949701918251600190603f9082828260121c16880101518453828282600c1c16880101518385015382828260061c16880101518885015316850101518782015301959291906117bc565b634e487b7160e01b600052601160045260246000fd5b506040516020810181811067ffffffffffffffff82111761159c576040526000815290565b806000917a184f03e93ff9f4daa797ed6e38ed64bf6a1f010000000000000000808210156119bb575b506d04ee2d6d415b85acef8100000000808310156119ac575b50662386f26fc100008083101561199d575b506305f5e1008083101561198e575b506127108083101561197f575b50606482101561196f575b600a80921015611965575b60019081602161191d8287016116e7565b95860101905b61192f575b5050505090565b600019019083906f181899199a1a9b1b9c1cb0b131b232b360811b8282061a83530491821561196057919082611923565b611928565b916001019161190c565b9190606460029104910191611901565b600491939204910191386118f6565b600891939204910191386118e9565b601091939204910191386118da565b602091939204910191386118c8565b6040935081049150386118af565b6040516306fdde0360e01b815290600082600481335afa918215611a6d57600092611a47575b5060226119fe61166c92611886565b926040519381611a18869351809260208087019101611531565b820161202360f01b6020820152611a388251809360208785019101611531565b010360028101845201826115b2565b6119fe611a6460229261166c94953d8091833e610abe81836115b2565b939250506119ef565b6040513d6000823e3d90fd5b90600182811c92168015611aa9575b6020831014611a9357565b634e487b7160e01b600052602260045260246000fd5b91607f1691611a88565b90600091600190815491611ac683611a79565b92818116908115611b1c5750600114611ade57505050565b809192939450600052600080516020611eaa833981519152906000915b848310611b09575050500190565b8181602092548587015201920191611afb565b60ff191683525050811515909102019150565b600092918154611b3e81611a79565b92600191808316908115611b975750600114611b5b575b50505050565b90919293945060005260209081600020906000915b858310611b865750505050019038808080611b55565b805485840152918301918101611b70565b60ff1916845250505081151590910201915038808080611b55565b611bbb33611cbd565b6040519081602091611bce838301611ab3565b68636f6e74726163742f60b81b8152611bf08251809386600985019101611531565b01602f60f81b600982015260009060035493611c0b85611a79565b94600190818116908115611c9a5750600114611c38575b50505061166c925003601f1981018352826115b2565b9091925060036000527fc2575a0e9e593c00f959f8c92f12db2869c3395a3b0502d05e2516446f71f85b906000915b868310611c83575050505061166c92600a910101388080611c22565b8054838601600a0152879550918301918101611c67565b915050600a935061166c95915060ff191683830152801515020101388080611c22565b604051906001600160a01b0316611cd382611580565b602a82526020908183016040368237835115611dca57603090538251600190811015611dca57607860218501536029905b808211611d58575050611d15575090565b6064906040519062461bcd60e51b825280600483015260248201527f537472696e67733a20686578206c656e67746820696e73756666696369656e746044820152fd5b9091600f81166010811015611db5578551841015611db5576f181899199a1a9b1b9c1cb0b131b232b360811b901a85840185015360041c918015611da0576000190190611d04565b60246000634e487b7160e01b81526011600452fd5b60246000634e487b7160e01b81526032600452fd5b634e487b7160e01b600052603260045260246000fd5b61166c601191611def30611cbd565b906000526006602052611e6c604060002060056020526001611e5e604060002092604051978896611e2260208901611ab3565b692f636f6e74726163742f60b01b8152611e46825180936020600a85019101611531565b01662f746f6b656e2f60c81b600a8201520190611b2f565b602f60f81b81520190611b2f565b03601f1981018352826115b2565b604051617b7d60f01b6020820152600281526040810181811067ffffffffffffffff82111761159c576040529056feb10e2d527612073b26eecdfd717e6a320cf44b4afac2b0732d9fcbe2b7fa0cf6a26469706673582212203dabc739771c8e6f68eb2ab2ac8412ac3a180aba7847d36163cef424177ca31d64736f6c63430008110033",
  "linkReferences": {},
  "deployedLinkReferences": {}
}