{
  "_format": "hh-sol-artifact-1",
  "contractName": "TimeCredit",
  "sourceName": "contracts/TimeCredit.sol",
  "abi": [
    {
      "inputs": [
        {
          "internalType": "address",
          "name": "revenueAcct_",
          "type": "address"
        },
        {
          "internalType": "address",
          "name": "serviceAdmin_",
          "type": "address"
        },
        {
          "internalType": "address",
          "name": "slotRegistry_",
          "type": "address"
        },
        {
          "internalType": "address",
          "name": "underlyingContract_",
          "type": "address"
        },
        {
          "internalType": "address",
          "name": "mktAdmin_",
          "type": "address"
        },
        {
          "internalType": "uint256",
          "name": "defaultSlot_",
          "type": "uint256"
        },
        {
          "internalType": "string",
          "name": "name_",
          "type": "string"
        },
        {
          "internalType": "string",
          "name": "symbol_",
          "type": "string"
        },
        {
          "internalType": "string",
          "name": "baseUri_",
          "type": "string"
        },
        {
          "internalType": "string",
          "name": "contractDescription_",
          "type": "string"
        },
        {
          "internalType": "string",
          "name": "contractImage_",
          "type": "string"
        },
        {
          "internalType": "string",
          "name": "dispTimeUnit_",
          "type": "string"
        },
        {
          "internalType": "string",
          "name": "valueToken_",
          "type": "string"
        },
        {
          "internalType": "uint8",
          "name": "decimals_",
          "type": "uint8"
        }
      ],
      "stateMutability": "nonpayable",
      "type": "constructor"
    },
    {
      "anonymous": false,
      "inputs": [
        {
          "indexed": true,
          "internalType": "address",
          "name": "_owner",
          "type": "address"
        },
        {
          "indexed": true,
          "internalType": "address",
          "name": "_approved",
          "type": "address"
        },
        {
          "indexed": true,
          "internalType": "uint256",
          "name": "_tokenId",
          "type": "uint256"
        }
      ],
      "name": "Approval",
      "type": "event"
    },
    {
      "anonymous": false,
      "inputs": [
        {
          "indexed": true,
          "internalType": "address",
          "name": "_owner",
          "type": "address"
        },
        {
          "indexed": true,
          "internalType": "address",
          "name": "_operator",
          "type": "address"
        },
        {
          "indexed": false,
          "internalType": "bool",
          "name": "_approved",
          "type": "bool"
        }
      ],
      "name": "ApprovalForAll",
      "type": "event"
    },
    {
      "anonymous": false,
      "inputs": [
        {
          "indexed": true,
          "internalType": "uint256",
          "name": "_tokenId",
          "type": "uint256"
        },
        {
          "indexed": true,
          "internalType": "address",
          "name": "_operator",
          "type": "address"
        },
        {
          "indexed": false,
          "internalType": "uint256",
          "name": "_value",
          "type": "uint256"
        }
      ],
      "name": "ApprovalValue",
      "type": "event"
    },
    {
      "anonymous": false,
      "inputs": [
        {
          "indexed": false,
          "internalType": "address",
          "name": "contractAddress",
          "type": "address"
        }
      ],
      "name": "MetadataDescriptor",
      "type": "event"
    },
    {
      "anonymous": false,
      "inputs": [
        {
          "indexed": false,
          "internalType": "uint256",
          "name": "tokenId",
          "type": "uint256"
        },
        {
          "indexed": false,
          "internalType": "uint256",
          "name": "slot",
          "type": "uint256"
        },
        {
          "indexed": false,
          "internalType": "uint256",
          "name": "value",
          "type": "uint256"
        }
      ],
      "name": "MintServiceToken",
      "type": "event"
    },
    {
      "anonymous": false,
      "inputs": [
        {
          "indexed": false,
          "internalType": "uint256",
          "name": "newTokenId",
          "type": "uint256"
        },
        {
          "indexed": false,
          "internalType": "uint256",
          "name": "slot",
          "type": "uint256"
        },
        {
          "indexed": false,
          "internalType": "uint256",
          "name": "value",
          "type": "uint256"
        }
      ],
      "name": "MintServiceTokenToAddress",
      "type": "event"
    },
    {
      "anonymous": false,
      "inputs": [
        {
          "indexed": false,
          "internalType": "uint256",
          "name": "tokenId",
          "type": "uint256"
        },
        {
          "indexed": false,
          "internalType": "uint256",
          "name": "valueSeconds",
          "type": "uint256"
        },
        {
          "indexed": false,
          "internalType": "uint256",
          "name": "valueUnit",
          "type": "uint256"
        }
      ],
      "name": "MintTimeToken",
      "type": "event"
    },
    {
      "anonymous": false,
      "inputs": [
        {
          "indexed": true,
          "internalType": "bytes32",
          "name": "role",
          "type": "bytes32"
        },
        {
          "indexed": true,
          "internalType": "bytes32",
          "name": "previousAdminRole",
          "type": "bytes32"
        },
        {
          "indexed": true,
          "internalType": "bytes32",
          "name": "newAdminRole",
          "type": "bytes32"
        }
      ],
      "name": "RoleAdminChanged",
      "type": "event"
    },
    {
      "anonymous": false,
      "inputs": [
        {
          "indexed": true,
          "internalType": "bytes32",
          "name": "role",
          "type": "bytes32"
        },
        {
          "indexed": true,
          "internalType": "address",
          "name": "account",
          "type": "address"
        },
        {
          "indexed": true,
          "internalType": "address",
          "name": "sender",
          "type": "address"
        }
      ],
      "name": "RoleGranted",
      "type": "event"
    },
    {
      "anonymous": false,
      "inputs": [
        {
          "indexed": true,
          "internalType": "bytes32",
          "name": "role",
          "type": "bytes32"
        },
        {
          "indexed": true,
          "internalType": "address",
          "name": "account",
          "type": "address"
        },
        {
          "indexed": true,
          "internalType": "address",
          "name": "sender",
          "type": "address"
        }
      ],
      "name": "RoleRevoked",
      "type": "event"
    },
    {
      "anonymous": false,
      "inputs": [
        {
          "indexed": true,
          "internalType": "address",
          "name": "metadataDescriptor",
          "type": "address"
        }
      ],
      "name": "SetMetadataDescriptor",
      "type": "event"
    },
    {
      "anonymous": false,
      "inputs": [
        {
          "indexed": true,
          "internalType": "uint256",
          "name": "_tokenId",
          "type": "uint256"
        },
        {
          "indexed": true,
          "internalType": "uint256",
          "name": "_oldSlot",
          "type": "uint256"
        },
        {
          "indexed": true,
          "internalType": "uint256",
          "name": "_newSlot",
          "type": "uint256"
        }
      ],
      "name": "SlotChanged",
      "type": "event"
    },
    {
      "anonymous": false,
      "inputs": [
        {
          "indexed": true,
          "internalType": "address",
          "name": "_from",
          "type": "address"
        },
        {
          "indexed": true,
          "internalType": "address",
          "name": "_to",
          "type": "address"
        },
        {
          "indexed": true,
          "internalType": "uint256",
          "name": "_tokenId",
          "type": "uint256"
        }
      ],
      "name": "Transfer",
      "type": "event"
    },
    {
      "anonymous": false,
      "inputs": [
        {
          "indexed": true,
          "internalType": "uint256",
          "name": "_fromTokenId",
          "type": "uint256"
        },
        {
          "indexed": true,
          "internalType": "uint256",
          "name": "_toTokenId",
          "type": "uint256"
        },
        {
          "indexed": false,
          "internalType": "uint256",
          "name": "_value",
          "type": "uint256"
        }
      ],
      "name": "TransferValue",
      "type": "event"
    },
    {
      "anonymous": false,
      "inputs": [
        {
          "indexed": false,
          "internalType": "uint256",
          "name": "fromTokenId",
          "type": "uint256"
        },
        {
          "indexed": false,
          "internalType": "uint256",
          "name": "toTokenId",
          "type": "uint256"
        },
        {
          "indexed": false,
          "internalType": "uint256",
          "name": "value",
          "type": "uint256"
        }
      ],
      "name": "ValueTransfer",
      "type": "event"
    },
    {
      "inputs": [],
      "name": "DEFAULT_ADMIN_ROLE",
      "outputs": [
        {
          "internalType": "bytes32",
          "name": "",
          "type": "bytes32"
        }
      ],
      "stateMutability": "view",
      "type": "function"
    },
    {
      "inputs": [],
      "name": "MKT_ARBITRATOR_ROLE",
      "outputs": [
        {
          "internalType": "bytes32",
          "name": "",
          "type": "bytes32"
        }
      ],
      "stateMutability": "view",
      "type": "function"
    },
    {
      "inputs": [],
      "name": "SERVICE_ADMIN_ROLE",
      "outputs": [
        {
          "internalType": "bytes32",
          "name": "",
          "type": "bytes32"
        }
      ],
      "stateMutability": "view",
      "type": "function"
    },
    {
      "inputs": [
        {
          "internalType": "string",
          "name": "uri_",
          "type": "string"
        }
      ],
      "name": "_setBaseURI",
      "outputs": [],
      "stateMutability": "nonpayable",
      "type": "function"
    },
    {
      "inputs": [
        {
          "internalType": "uint256",
          "name": "tokenId_",
          "type": "uint256"
        },
        {
          "internalType": "uint256",
          "name": "valueSeconds_",
          "type": "uint256"
        }
      ],
      "name": "addTime",
      "outputs": [],
      "stateMutability": "nonpayable",
      "type": "function"
    },
    {
      "inputs": [
        {
          "internalType": "uint256",
          "name": "tokenId_",
          "type": "uint256"
        },
        {
          "internalType": "address",
          "name": "operator_",
          "type": "address"
        }
      ],
      "name": "allowance",
      "outputs": [
        {
          "internalType": "uint256",
          "name": "",
          "type": "uint256"
        }
      ],
      "stateMutability": "view",
      "type": "function"
    },
    {
      "inputs": [
        {
          "internalType": "address",
          "name": "to_",
          "type": "address"
        },
        {
          "internalType": "uint256",
          "name": "tokenId_",
          "type": "uint256"
        }
      ],
      "name": "approve",
      "outputs": [],
      "stateMutability": "payable",
      "type": "function"
    },
    {
      "inputs": [
        {
          "internalType": "uint256",
          "name": "tokenId_",
          "type": "uint256"
        },
        {
          "internalType": "address",
          "name": "to_",
          "type": "address"
        },
        {
          "internalType": "uint256",
          "name": "value_",
          "type": "uint256"
        }
      ],
      "name": "approve",
      "outputs": [],
      "stateMutability": "payable",
      "type": "function"
    },
    {
      "inputs": [
        {
          "internalType": "address",
          "name": "owner_",
          "type": "address"
        }
      ],
      "name": "balanceOf",
      "outputs": [
        {
          "internalType": "uint256",
          "name": "balance",
          "type": "uint256"
        }
      ],
      "stateMutability": "view",
      "type": "function"
    },
    {
      "inputs": [
        {
          "internalType": "uint256",
          "name": "tokenId_",
          "type": "uint256"
        }
      ],
      "name": "balanceOf",
      "outputs": [
        {
          "internalType": "uint256",
          "name": "",
          "type": "uint256"
        }
      ],
      "stateMutability": "view",
      "type": "function"
    },
    {
      "inputs": [],
      "name": "contractAdmin",
      "outputs": [
        {
          "internalType": "address",
          "name": "",
          "type": "address"
        }
      ],
      "stateMutability": "view",
      "type": "function"
    },
    {
      "inputs": [],
      "name": "contractURI",
      "outputs": [
        {
          "internalType": "string",
          "name": "",
          "type": "string"
        }
      ],
      "stateMutability": "view",
      "type": "function"
    },
    {
      "inputs": [],
      "name": "creditType",
      "outputs": [
        {
          "internalType": "string",
          "name": "",
          "type": "string"
        }
      ],
      "stateMutability": "view",
      "type": "function"
    },
    {
      "inputs": [],
      "name": "defaultSlot",
      "outputs": [
        {
          "internalType": "uint256",
          "name": "",
          "type": "uint256"
        }
      ],
      "stateMutability": "view",
      "type": "function"
    },
    {
      "inputs": [
        {
          "internalType": "uint256",
          "name": "tokenId_",
          "type": "uint256"
        }
      ],
      "name": "getApproved",
      "outputs": [
        {
          "internalType": "address",
          "name": "",
          "type": "address"
        }
      ],
      "stateMutability": "view",
      "type": "function"
    },
    {
      "inputs": [
        {
          "internalType": "bytes32",
          "name": "role",
          "type": "bytes32"
        }
      ],
      "name": "getRoleAdmin",
      "outputs": [
        {
          "internalType": "bytes32",
          "name": "",
          "type": "bytes32"
        }
      ],
      "stateMutability": "view",
      "type": "function"
    },
    {
      "inputs": [
        {
          "internalType": "uint256",
          "name": "tokenId",
          "type": "uint256"
        }
      ],
      "name": "getTokenDescription",
      "outputs": [
        {
          "internalType": "string",
          "name": "",
          "type": "string"
        }
      ],
      "stateMutability": "view",
      "type": "function"
    },
    {
      "inputs": [
        {
          "internalType": "uint256",
          "name": "tokenId",
          "type": "uint256"
        }
      ],
      "name": "getTokenImage",
      "outputs": [
        {
          "internalType": "string",
          "name": "",
          "type": "string"
        }
      ],
      "stateMutability": "view",
      "type": "function"
    },
    {
      "inputs": [
        {
          "internalType": "uint256",
          "name": "tokenId",
          "type": "uint256"
        }
      ],
      "name": "getTokenUUID",
      "outputs": [
        {
          "internalType": "string",
          "name": "",
          "type": "string"
        }
      ],
      "stateMutability": "view",
      "type": "function"
    },
    {
      "inputs": [
        {
          "internalType": "bytes32",
          "name": "role",
          "type": "bytes32"
        },
        {
          "internalType": "address",
          "name": "account",
          "type": "address"
        }
      ],
      "name": "grantRole",
      "outputs": [],
      "stateMutability": "nonpayable",
      "type": "function"
    },
    {
      "inputs": [
        {
          "internalType": "bytes32",
          "name": "role",
          "type": "bytes32"
        },
        {
          "internalType": "address",
          "name": "account",
          "type": "address"
        }
      ],
      "name": "hasRole",
      "outputs": [
        {
          "internalType": "bool",
          "name": "",
          "type": "bool"
        }
      ],
      "stateMutability": "view",
      "type": "function"
    },
    {
      "inputs": [
        {
          "internalType": "address",
          "name": "owner_",
          "type": "address"
        },
        {
          "internalType": "address",
          "name": "operator_",
          "type": "address"
        }
      ],
      "name": "isApprovedForAll",
      "outputs": [
        {
          "internalType": "bool",
          "name": "",
          "type": "bool"
        }
      ],
      "stateMutability": "view",
      "type": "function"
    },
    {
      "inputs": [
        {
          "internalType": "uint256",
          "name": "tokenId_",
          "type": "uint256"
        }
      ],
      "name": "isValid",
      "outputs": [
        {
          "internalType": "bool",
          "name": "",
          "type": "bool"
        }
      ],
      "stateMutability": "view",
      "type": "function"
    },
    {
      "inputs": [],
      "name": "metadataDescriptor",
      "outputs": [
        {
          "internalType": "contract IERC3525MetadataDescriptor",
          "name": "",
          "type": "address"
        }
      ],
      "stateMutability": "view",
      "type": "function"
    },
    {
      "inputs": [
        {
          "internalType": "address",
          "name": "owner_",
          "type": "address"
        },
        {
          "internalType": "uint256",
          "name": "slot_",
          "type": "uint256"
        },
        {
          "internalType": "uint256",
          "name": "value_",
          "type": "uint256"
        },
        {
          "internalType": "string",
          "name": "uuid_",
          "type": "string"
        },
        {
          "internalType": "string",
          "name": "token_description_",
          "type": "string"
        },
        {
          "internalType": "string",
          "name": "token_image_",
          "type": "string"
        }
      ],
      "name": "mint",
      "outputs": [
        {
          "internalType": "uint256",
          "name": "",
          "type": "uint256"
        }
      ],
      "stateMutability": "nonpayable",
      "type": "function"
    },
    {
      "inputs": [
        {
          "internalType": "address",
          "name": "owner_",
          "type": "address"
        },
        {
          "internalType": "uint256",
          "name": "slotId_",
          "type": "uint256"
        },
        {
          "internalType": "uint256",
          "name": "timeValue_",
          "type": "uint256"
        },
        {
          "internalType": "uint256",
          "name": "paidValue_",
          "type": "uint256"
        },
        {
          "internalType": "uint256",
          "name": "validStart_",
          "type": "uint256"
        },
        {
          "internalType": "uint256",
          "name": "validExpiration_",
          "type": "uint256"
        },
        {
          "internalType": "string",
          "name": "uuid_",
          "type": "string"
        },
        {
          "internalType": "string",
          "name": "tokenDescription_",
          "type": "string"
        },
        {
          "internalType": "string",
          "name": "tokenImage_",
          "type": "string"
        },
        {
          "internalType": "bool",
          "name": "transfersAllowed_",
          "type": "bool"
        },
        {
          "internalType": "uint256",
          "name": "minAllowedValueTransfer_",
          "type": "uint256"
        }
      ],
      "name": "mintTime",
      "outputs": [
        {
          "internalType": "uint256",
          "name": "",
          "type": "uint256"
        }
      ],
      "stateMutability": "nonpayable",
      "type": "function"
    },
    {
      "inputs": [],
      "name": "name",
      "outputs": [
        {
          "internalType": "string",
          "name": "",
          "type": "string"
        }
      ],
      "stateMutability": "view",
      "type": "function"
    },
    {
      "inputs": [
        {
          "internalType": "address",
          "name": "owner_",
          "type": "address"
        },
        {
          "internalType": "uint256",
          "name": "slot_",
          "type": "uint256"
        },
        {
          "internalType": "uint256",
          "name": "value_",
          "type": "uint256"
        },
        {
          "internalType": "uint256",
          "name": "discountBasisPts_",
          "type": "uint256"
        },
        {
          "internalType": "string",
          "name": "uuid_",
          "type": "string"
        },
        {
          "internalType": "string",
          "name": "tokenDescription_",
          "type": "string"
        },
        {
          "internalType": "string",
          "name": "tokenImage_",
          "type": "string"
        }
      ],
      "name": "networkMintWithDiscount",
      "outputs": [
        {
          "internalType": "uint256",
          "name": "",
          "type": "uint256"
        }
      ],
      "stateMutability": "nonpayable",
      "type": "function"
    },
    {
      "inputs": [
        {
          "internalType": "address",
          "name": "owner_",
          "type": "address"
        },
        {
          "internalType": "uint256",
          "name": "slot_",
          "type": "uint256"
        },
        {
          "internalType": "uint256",
          "name": "value_",
          "type": "uint256"
        },
        {
          "internalType": "uint256",
          "name": "tVRate_",
          "type": "uint256"
        },
        {
          "internalType": "string",
          "name": "uuid_",
          "type": "string"
        },
        {
          "internalType": "string",
          "name": "token_description_",
          "type": "string"
        },
        {
          "internalType": "string",
          "name": "token_image_",
          "type": "string"
        }
      ],
      "name": "networkMintWithTVRate",
      "outputs": [
        {
          "internalType": "uint256",
          "name": "",
          "type": "uint256"
        }
      ],
      "stateMutability": "nonpayable",
      "type": "function"
    },
    {
      "inputs": [
        {
          "internalType": "uint256",
          "name": "tokenId_",
          "type": "uint256"
        }
      ],
      "name": "ownerOf",
      "outputs": [
        {
          "internalType": "address",
          "name": "owner_",
          "type": "address"
        }
      ],
      "stateMutability": "view",
      "type": "function"
    },
    {
      "inputs": [
        {
          "internalType": "uint256",
          "name": "tokenId_",
          "type": "uint256"
        },
        {
          "internalType": "uint256",
          "name": "slotId_",
          "type": "uint256"
        },
        {
          "internalType": "uint256",
          "name": "valueSeconds_",
          "type": "uint256"
        }
      ],
      "name": "redeem",
      "outputs": [],
      "stateMutability": "nonpayable",
      "type": "function"
    },
    {
      "inputs": [
        {
          "internalType": "uint256",
          "name": "slotId_",
          "type": "uint256"
        }
      ],
      "name": "registerOnSlot",
      "outputs": [],
      "stateMutability": "nonpayable",
      "type": "function"
    },
    {
      "inputs": [
        {
          "internalType": "bytes32",
          "name": "role",
          "type": "bytes32"
        },
        {
          "internalType": "address",
          "name": "account",
          "type": "address"
        }
      ],
      "name": "renounceRole",
      "outputs": [],
      "stateMutability": "nonpayable",
      "type": "function"
    },
    {
      "inputs": [
        {
          "internalType": "bytes32",
          "name": "role",
          "type": "bytes32"
        },
        {
          "internalType": "address",
          "name": "account",
          "type": "address"
        }
      ],
      "name": "revokeRole",
      "outputs": [],
      "stateMutability": "nonpayable",
      "type": "function"
    },
    {
      "inputs": [
        {
          "internalType": "address",
          "name": "from_",
          "type": "address"
        },
        {
          "internalType": "address",
          "name": "to_",
          "type": "address"
        },
        {
          "internalType": "uint256",
          "name": "tokenId_",
          "type": "uint256"
        }
      ],
      "name": "safeTransferFrom",
      "outputs": [],
      "stateMutability": "payable",
      "type": "function"
    },
    {
      "inputs": [
        {
          "internalType": "address",
          "name": "from_",
          "type": "address"
        },
        {
          "internalType": "address",
          "name": "to_",
          "type": "address"
        },
        {
          "internalType": "uint256",
          "name": "tokenId_",
          "type": "uint256"
        },
        {
          "internalType": "bytes",
          "name": "data_",
          "type": "bytes"
        }
      ],
      "name": "safeTransferFrom",
      "outputs": [],
      "stateMutability": "payable",
      "type": "function"
    },
    {
      "inputs": [
        {
          "internalType": "address",
          "name": "operator_",
          "type": "address"
        },
        {
          "internalType": "bool",
          "name": "approved_",
          "type": "bool"
        }
      ],
      "name": "setApprovalForAll",
      "outputs": [],
      "stateMutability": "nonpayable",
      "type": "function"
    },
    {
      "inputs": [
        {
          "internalType": "uint256",
          "name": "tokenId_",
          "type": "uint256"
        }
      ],
      "name": "slotOf",
      "outputs": [
        {
          "internalType": "uint256",
          "name": "",
          "type": "uint256"
        }
      ],
      "stateMutability": "view",
      "type": "function"
    },
    {
      "inputs": [
        {
          "internalType": "uint256",
          "name": "slot_",
          "type": "uint256"
        }
      ],
      "name": "slotURI",
      "outputs": [
        {
          "internalType": "string",
          "name": "",
          "type": "string"
        }
      ],
      "stateMutability": "view",
      "type": "function"
    },
    {
      "inputs": [
        {
          "internalType": "bytes4",
          "name": "interfaceId",
          "type": "bytes4"
        }
      ],
      "name": "supportsInterface",
      "outputs": [
        {
          "internalType": "bool",
          "name": "",
          "type": "bool"
        }
      ],
      "stateMutability": "view",
      "type": "function"
    },
    {
      "inputs": [],
      "name": "symbol",
      "outputs": [
        {
          "internalType": "string",
          "name": "",
          "type": "string"
        }
      ],
      "stateMutability": "view",
      "type": "function"
    },
    {
      "inputs": [
        {
          "internalType": "uint256",
          "name": "index_",
          "type": "uint256"
        }
      ],
      "name": "tokenByIndex",
      "outputs": [
        {
          "internalType": "uint256",
          "name": "",
          "type": "uint256"
        }
      ],
      "stateMutability": "view",
      "type": "function"
    },
    {
      "inputs": [
        {
          "internalType": "address",
          "name": "owner_",
          "type": "address"
        },
        {
          "internalType": "uint256",
          "name": "index_",
          "type": "uint256"
        }
      ],
      "name": "tokenOfOwnerByIndex",
      "outputs": [
        {
          "internalType": "uint256",
          "name": "",
          "type": "uint256"
        }
      ],
      "stateMutability": "view",
      "type": "function"
    },
    {
      "inputs": [
        {
          "internalType": "uint256",
          "name": "tokenId_",
          "type": "uint256"
        }
      ],
      "name": "tokenURI",
      "outputs": [
        {
          "internalType": "string",
          "name": "",
          "type": "string"
        }
      ],
      "stateMutability": "view",
      "type": "function"
    },
    {
      "inputs": [],
      "name": "totalSupply",
      "outputs": [
        {
          "internalType": "uint256",
          "name": "",
          "type": "uint256"
        }
      ],
      "stateMutability": "view",
      "type": "function"
    },
    {
      "inputs": [
        {
          "internalType": "uint256",
          "name": "fromTokenId_",
          "type": "uint256"
        },
        {
          "internalType": "address",
          "name": "to_",
          "type": "address"
        },
        {
          "internalType": "uint256",
          "name": "value_",
          "type": "uint256"
        }
      ],
      "name": "transferFrom",
      "outputs": [
        {
          "internalType": "uint256",
          "name": "",
          "type": "uint256"
        }
      ],
      "stateMutability": "payable",
      "type": "function"
    },
    {
      "inputs": [
        {
          "internalType": "address",
          "name": "from_",
          "type": "address"
        },
        {
          "internalType": "address",
          "name": "to_",
          "type": "address"
        },
        {
          "internalType": "uint256",
          "name": "tokenId_",
          "type": "uint256"
        }
      ],
      "name": "transferFrom",
      "outputs": [],
      "stateMutability": "payable",
      "type": "function"
    },
    {
      "inputs": [
        {
          "internalType": "uint256",
          "name": "fromTokenId_",
          "type": "uint256"
        },
        {
          "internalType": "uint256",
          "name": "toTokenId_",
          "type": "uint256"
        },
        {
          "internalType": "uint256",
          "name": "value_",
          "type": "uint256"
        }
      ],
      "name": "transferFrom",
      "outputs": [],
      "stateMutability": "payable",
      "type": "function"
    },
    {
      "inputs": [],
      "name": "valueDecimals",
      "outputs": [
        {
          "internalType": "uint8",
          "name": "",
          "type": "uint8"
        }
      ],
      "stateMutability": "view",
      "type": "function"
    }
  ],
  "bytecode": "0x60e0806040523462000bd257600060c052620087ed803803809162000025828562000c09565b83398101906101c0818303126200096157620000418162000c2d565b608052620000526020820162000c2d565b90620000616040820162000c2d565b91620000706060830162000c2d565b60a052620000816080830162000c2d565b60a083015160c0840151909291906001600160401b038111620009615786620000ac91860162000c67565b60e08501519095906001600160401b038111620009615787620000d191870162000c67565b6101008601519096906001600160401b038111620009615788620000f791880162000c67565b6101208701519091906001600160401b0381116200096157896200011d91890162000c67565b6101408801519091906001600160401b03811162000961578a62000143918a0162000c67565b6101608901519091906001600160401b03811162000961578b62000169918b0162000c67565b6101808a0151909b906001600160401b03811162000961576101a09162000192918c0162000c67565b9901519960ff8b168b03620009615762000201602e8d956040519681620001c489935180926020808701910162000c42565b82016c5102a34b6b2903ab734ba399d160951b6020820152620001f1825180936020878501910162000c42565b0103600e81018752018562000c09565b60405191620002108362000bd7565b600483526374696d6560e01b602084015280516001600160401b038111620007fb5760c051805490600182811c9216801562000bc7575b6020831014620007d95750601f811162000b7b575b5060c05191602092601f831160011462000b0b575060c0519283918362000aff575b50508160011b916000199060031b1c19161790555b8051906001600160401b038211620007fb5760015460c051600182811c9216801562000af4575b6020831014620007d957509081601f84931162000a9a575b5060c05190602091601f841160011462000a27575060c0519262000a1b575b50508160011b916000199060031b1c1916176001555b6002805460ff19166006179055600b889055600c54600a80546001600160a01b0319166001600160a01b038a161790556040518251919291602080830192916200036b919083906200035d8187858a0162000c42565b810103808452018262000c09565b51902060405160208101906374696d6560e01b8252600481526200038f8162000bd7565b5190200362000967575060c0515b600481101562000949576001600160a81b031982166001600160a01b03871690811760a083901b60ff60a01b1617600c553b1562000961576040516394b39b0960e01b81526001600160a01b03898116600480840191909152602483018c90529193916001600160a81b031983169189169190911760a084811b60ff60a01b1691909117901c60ff16101562000949576001600160a81b0319166001600160a01b03871690811760a092831b60ff60a01b161790911c60ff16604483015260c051908290606490829084905af180156200093c5762000923575b50604051926001600160401b036124ae850190811190851117620007fb57620004ec92620004be620004d5926124ae6200631f883960806124ae8801818152019062000cc2565b906124ae8601820360206124ae8801015262000cc2565b906124ae8401820360406124ae8601015262000cc2565b6001600160a01b039092166124ae82016060015260c051918190039082f090811562000917575060018060a01b031660018060a01b031960085416176008557f1cd6d520d98babae1045eb69c31ecab800996aa332094cb55c0ac10362e9b0c9908160c05152600960205260c051604081209160018060a01b0316918260005260205260ff6040600020541615620008d3575b5050507f9a95e87c5af084bf5db8491c3a6515da9dd6da39b24b0eb0af08d7b9cd808d918060c05152600960205260c0516040812060018060a01b03841660005260205260ff60406000205416156200087e575b5050507f9ac4f8025631594629895b778dc5ee88d01673a254a2291f6b6b174ad25230ca602060018060a01b0360085416604051908152a1600b556020815191012060046020604051620006278162000bd7565b82815201635553444360e01b81522014600014620008135760a051601380546001600160a01b039283166001600160a01b0319918216179091556080516012805491909316911617905581516001600160401b038111620007fb5760145460c051600182811c92168015620007f0575b6020831014620007d95750601f811162000788575b5060c05192602090601f83116001146200071d578293945060c0519262000711575b50508160011b916000199060031b1c1916176014555b6013805460ff60a01b191660a09290921b60ff60a01b16919091179055604051615635908162000cea8239f35b015190503880620006ce565b906014601f198416955260c0519160208320925b8681106200076f575083600195961062000755575b505050811b01601455620006e4565b015160001960f88460031b161c1916905538808062000746565b9192602060018192868501518155019401920162000731565b601460c0515260c05160208120601f840160051c81019260208510620007ce575b601f0160051c01915b828110620007c2575050620006ac565b818155600101620007b2565b9092508290620007a9565b634e487b7160e01b9052602260045260c051602490fd5b91607f169162000697565b634e487b7160e01b60c051526041600452602460c051fd5b60405162461bcd60e51b815260206004820152603760248201527f5370656e644372656469743a204f6e6c79205553444320756e6465726c79696e60448201527f6720616363657074656420617420746869732074696d650000000000000000006064820152608490fd5b819052600960205260c051906040822060018060a01b0384166000526020526040600020600160ff19825416179055600080516020620087cd833981519152339360018060a01b03169280a4388080620005d3565b829052600960205260c0519160408320826000526020526040600020600160ff19825416179055600080516020620087cd833981519152339380a43880806200057f565b604051903d90823e3d90fd5b6001600160401b038111620007fb576040523862000477565b6040513d60c051823e3d90fd5b634e487b7160e01b60c051526021600452602460c051fd5b60c05180fd5b60405160208101906200098760208285516200035d8187858a0162000c42565b5190206040516020810190630c6c2e6d60e31b825260048152620009ab8162000bd7565b51902003620009bd575060016200039d565b604051620009dd602082816200035d818301968781519384920162000c42565b5190206040516020810190646974656d7360d81b82526005815262000a028162000bd7565b5190200362000a135760026200039d565b60036200039d565b015190503880620002f1565b60019194505260c051906020822091935b601f198416851062000a7e576001945083601f1981161062000a64575b505050811b0160015562000307565b015160001960f88460031b161c1916905538808062000a55565b8181015183556020948501946001909301929091019062000a38565b909150600160c0515260c05160208120601f850160051c81016020861062000aec575b9085949392915b601f840160051c8201811062000add57505050620002d2565b82815586955060010162000ac4565b508062000abd565b91607f1691620002ba565b0151905038806200027e565b805260c0516020812090938493925b601f198416851062000b5f576001945083601f1981161062000b45575b505050811b01905562000293565b015160001960f88460031b161c1916905538808062000b37565b8181015183556020948501946001909301929091019062000b1a565b60c051805260c05160208120601f840160051c81016020851062000bbf575b601f840160051c8201811062000bb3575050506200025c565b82815560010162000b9a565b508062000b9a565b91607f169162000247565b600080fd5b604081019081106001600160401b0382111762000bf357604052565b634e487b7160e01b600052604160045260246000fd5b601f909101601f19168101906001600160401b0382119082101762000bf357604052565b51906001600160a01b038216820362000bd257565b60005b83811062000c565750506000910152565b818101518382015260200162000c45565b81601f8201121562000bd25780516001600160401b03811162000bf3576040519262000c9e601f8301601f19166020018562000c09565b8184526020828401011162000bd25762000cbf916020808501910162000c42565b90565b9060209162000cdd8151809281855285808601910162000c42565b601f01601f191601019056fe60806040908082526004918236101561001757600080fd5b600091823560e01c90816301ffc9a7146127f75750806306fdde0314612727578063081812fc14612707578063095ea7b3146125d357806309c3dd87146122e35780630f485c021461221c5780631375d843146121b757806318160ddd1461219957806323b872dd146120d2578063248a9ca3146120a7578063263f3e7e14612087578063268cb20b14611c8c5780632f2ff15d14611bde5780632f745c5914611b35578063310ed7f01461155d57806331b5b907146114d557806336568abe146114445780633e7e86691461142357806341815ee41461133557806342842e0e14611312578063476de4a81461128f5780634f6ccce714611209578063505a3853146111eb5780636352211e146111ba57806370a082311461119557806371f0442e146111305780637795524514611108578063791581c61461100a5780638005f5db14610e14578063840f711314610dec5780638cb0a51114610ca057806391d1485414610c5a57806395d89b4114610b775780639cc7f70814610b57578063a217fddf14610b3d578063a22cb46514610a63578063a7c9f2d614610a29578063b3154c08146109c4578063b81922051461067e578063b88d4fde14610623578063bd8c650714610602578063be950a62146104b4578063c87b56dd14610416578063d09445c2146103dc578063d547741f1461039d578063e345e0bc1461036b578063e8a3d485146102d9578063e985e9c5146102875763f577a5001461024057600080fd5b3461028357602036600319011261028357602092358252600e8352808220544210159182610272575b50519015158152f35b819020600101544210915038610269565b5080fd5b50346102835780600319360112610283576020916102a3612893565b6002836102ae6128a9565b9360018060a01b0380941681526007875220019116600052825260ff81600020541690519015158152f35b5082903461036757826003193601126103675760085481516331264fc160e01b815292849184919082906001600160a01b03165afa91821561035d57836103349493610338575b50505191829160208352602083019061286e565b0390f35b6103559293503d8091833e61034d8183612998565b810190613006565b908380610320565b81513d85823e3d90fd5b8280fd5b50903461039a578160031936011261039a575061039360209261038c6128a9565b9035614336565b9051908152f35b80fd5b508290346103675780600319360112610367576103d991356103d460016103c26128a9565b93838752600960205286200154612abe565b612df3565b80f35b5034610283578160031936011261028357602090517f9a95e87c5af084bf5db8491c3a6515da9dd6da39b24b0eb0af08d7b9cd808d918152f35b508290346103675760203660031901126103675782823561043681613fa1565b80156104a0575b6104469061323b565b6008546001600160a01b03169360449061045f836153a4565b95855196879485936304e6f55760e51b855284015260248301525afa91821561035d578361033494936103385750505191829160208352602083019061286e565b506104466104ad82613fe7565b905061043d565b5034610283576020366003190112610283577f9a95e87c5af084bf5db8491c3a6515da9dd6da39b24b0eb0af08d7b9cd808d91825260096020528082203360005260205260ff8160002054161561059a57600c54600a546001600160a01b0390811692919081169060a01c60ff16813b15610596578251936394b39b0960e01b855286850152853560248501528581101561058357849550606484868094829460448401525af190811561057a575061056a5750f35b6105739061291e565b61039a5780f35b513d84823e3d90fd5b634e487b7160e01b855260218652602485fd5b8480fd5b5162461bcd60e51b8152602081840152603760248201527f53656e646572206e6f7420617574686f72697a656420746f207265676973746560448201527f7220636f6e747261637420746f207468697320736c6f740000000000000000006064820152608490fd5b50346102835760209061039361061736612a43565b95949094939193613d93565b8284608036600319011261028357610639612893565b6106416128a9565b906064356001600160401b0381116105965736602382011215610596576103d993816024610674933693013591016129d4565b9160443591613164565b5091346102835761068e36612a29565b91929061069a84613287565b6001600160a01b0390811633148015610984575b1561093557856106bd86613fa1565b80610922575b156108245750848652600f6020526106f86106e18589892054612e69565b6106f260ff60135460a01c1661442b565b90613064565b915b81601354169160125416823b15610820578851632b83cccd60e01b81526001600160a01b03909116858201908152602081019290925260408201939093528691839182908490829060600103925af18015610816579085916107fe575b505061076283614069565b8284526006602052600261077886862054612fa4565b5001908154908382106107af57509184956020926107a5836000805160206155e08339815191529661371c565b905551908152a380f35b608490602088519162461bcd60e51b8352820152602360248201527f455243333532353a206275726e2076616c756520657863656564732062616c616044820152626e636560e81b6064820152fd5b6108079061291e565b610812578338610757565b8380fd5b86513d87823e3d90fd5b8780fd5b9161083c86600052600d602052604060002054151590565b156106fa5791508486526020600d8152878720548015156000146108e2578183600c54169160248b518094819363cd5a2c3960e01b83528a8301525afa9182156108d8579086929189926108a0575b505061089a916106e191612e69565b916106fa565b8193508092503d83116108d1575b6108b88183612998565b810103126108cc57518490816106e161088b565b600080fd5b503d6108ae565b89513d8a823e3d90fd5b5060248183600c54168a519283809263cd5a2c3960e01b82528b8a8301525afa9182156108d8579086929189926108a057505061089a916106e191612e69565b5061092c86612fdf565b600b54146106c3565b865162461bcd60e51b8152602081850152602360248201527f53656e646572206973206e6f7420617574686f72697a656420746f207265646560448201526232b69760e91b6064820152608490fd5b507f1cd6d520d98babae1045eb69c31ecab800996aa332094cb55c0ac10362e9b0c9865260096020528686203360005260205260ff8760002054166106ae565b50829034610367576020366003190112610367576008548151631662a98160e31b81528335938101939093528390839060249082906001600160a01b03165afa91821561035d578361033494936103385750505191829160208352602083019061286e565b5034610283578160031936011261028357602090517f1cd6d520d98babae1045eb69c31ecab800996aa332094cb55c0ac10362e9b0c98152f35b50829034610367578060031936011261036757610a7e612893565b90602435801515928382036108cc576001600160a01b031693338514610afa5750610acd90338652600760205260028387200185600052602052826000209060ff801983541691151516179055565b519081527f17307eab39ab6107e8899845ad3d59bd9653f200f220920489ca2b5937696c3160203392a380f35b606490602084519162461bcd60e51b8352820152601a60248201527f455243333532353a20617070726f766520746f2063616c6c65720000000000006044820152fd5b503461028357816003193601126102835751908152602090f35b50903461039a57602036600319011261039a5750610393602092356153a4565b50903461039a578060031936011261039a575080516000916001805490610b9d82612ec6565b80855291818116908115610c325750600114610bd7575b5050610bc582610334940383612998565b5191829160208352602083019061286e565b600081815294507fb10e2d527612073b26eecdfd717e6a320cf44b4afac2b0732d9fcbe2b7fa0cf65b828610610c1a5750505091810160200191610bc582610bb4565b80546020878701810191909152909501948101610c00565b61033496508592506020915092610bc59360ff191682840152151560051b8201019450610bb4565b50823461036757816003193601126103675781602093610c786128a9565b9235815260098552209060018060a01b0316600052825260ff81600020541690519015158152f35b5091610cab366128bf565b92610cb7839293614069565b610cc082613fa1565b80610dd9575b15610d6357610ceb6001600160a01b0380610ce085613287565b1690851614156131e4565b610cf5823361330a565b15610d0657506103d9939450614164565b608490602087519162461bcd60e51b8352820152603160248201527f455243333532353a20617070726f76652063616c6c6572206973206e6f74206f6044820152701ddb995c881b9bdc88185c1c1c9bdd9959607a1b6064820152fd5b909184959260018060a01b03600c5416908652600d60205283862054813b15610dd5578451638cb0a51160e01b81529384019081526001600160a01b03909216602083015260408201949094529092849184919082908490829060600103925af190811561057a575061056a57505080f35b8680fd5b50610de382612fdf565b600b5414610cc6565b503461028357816003193601126102835760085490516001600160a01b039091168152602090f35b5081923461100657610e2536612a43565b600c548951630151086360e31b81526001600160a01b039889168a820190815260208101989098526040880196909652606087019490945293989593949092841690899081906080010381885a94602095f1978815610fc2578598610fd0575b508260085416803b15610fcc578786918a838a610ec0855197889687958694632108947560e21b86528501526024840152604483019061286e565b03925af18015610fc257908591610fae575b50508160085416803b1561059657610f0e91859189838a5180968195829463246a908b60e01b84528d8401528d6024840152604483019061286e565b03925af18015610fa457908491610f90575b505060085416803b15610367578583610f5995875196879586948593630190503b60e61b8552840152896024840152604483019061286e565b03925af18015610f8657610f72575b6020838351908152f35b610f7c849161291e565b6103675782610f68565b82513d86823e3d90fd5b610f999061291e565b610367578238610f20565b86513d86823e3d90fd5b610fb79061291e565b610812578338610ed2565b87513d87823e3d90fd5b8580fd5b945096506020843d8211610ffe575b81610fec60209383612998565b810103126108cc578793519638610e85565b3d9150610fdf565b5050fd5b509134610283578260031936011261028357803560243591818452600e602052600185852001544210156110ad57506103d992936110598361105461104e856153a4565b42612e92565b612e92565b828652600e6020526001828720015410611088575b5061107881613287565b5061108281612fdf565b50613d50565b600161109a8461105461104e866153a4565b91838752600e602052862001553861106e565b608490602086519162461bcd60e51b8352820152602f60248201527f54696d654372656469743a2063616e6e6f74206164642074696d6520746f206160448201526e371032bc3834b932b2103a37b5b2b760891b6064820152fd5b5034610283578160031936011261028357600a5490516001600160a01b039091168152602090f35b508290346103675760203660031901126103675760085481516338f8221760e11b81528335938101939093528390839060249082906001600160a01b03165afa91821561035d578361033494936103385750505191829160208352602083019061286e565b5034610283576020366003190112610283576020906103936111b5612893565b613084565b50903461039a57602036600319011261039a57506111da602092356140cb565b90516001600160a01b039091168152f35b5034610283578160031936011261028357602090600b549051908152f35b5091903461039a57602036600319011261039a57508035906005548210156112405760208361123784612fa4565b50549051908152f35b608490602084519162461bcd60e51b8352820152602360248201527f455243333532353a20676c6f62616c20696e646578206f7574206f6620626f756044820152626e647360e81b6064820152fd5b50903461039a5760c036600319011261039a576112aa612893565b926001600160401b0390606435828111610812576112cb9036908301612a0b565b91608435818111610596576112e39036908401612a0b565b9360a43591821161039a575091611304610393949260209794369101612a0b565b9260443590602435906138e9565b506103d990611320366128e9565b9192519261132d8461297d565b858452613164565b50823461036757826003193601126103675760ff600c5460a01c16928184101561141157610334936003810361139b57505050805161137381612962565b60088152677072696f7269747960c01b6020820152905191829160208352602083019061286e565b806113c45750508151906113ae82612962565b81526374696d6560e01b60208201525b90610bc5565b6002141590506113f1575080516113da81612962565b60058152646974656d7360d81b60208201526113be565b8151906113fd82612962565b8152630c6c2e6d60e31b60208201526113be565b6021602492634e487b7160e01b835252fd5b503461028357816003193601126102835760209060ff600254169051908152f35b50913461028357826003193601126102835761145e6128a9565b90336001600160a01b0383160361147a57906103d99135612df3565b608490602085519162461bcd60e51b8352820152602f60248201527f416363657373436f6e74726f6c3a2063616e206f6e6c792072656e6f756e636560448201526e103937b632b9903337b91039b2b63360891b6064820152fd5b50918192346110065760203660031901126110065781356001600160401b038111611558576115079036908401612a0b565b6008546001600160a01b03169290833b15610596576115459360208680948651978895869485936355f804b360e01b8552840152602483019061286e565b03925af190811561057a575061056a5750f35b505050fd5b509161157361156b36612a29565b929092614506565b928185526020906010825261158d60ff888820541661484d565b828652601182526115a3878720548610156148a7565b828652600e825260018787200154421015611ad557838652600e825260018787200154421015611a75576115d961104e85613665565b848752600e835260018888200154106119f6576115f583613fa1565b806119e3575b806119c0575b1561173c57828652600f825286862054848752878720540361162b575b50506103d99394506151e5565b61164283600052600d602052604060002054151590565b8061171f575b156116ad575085600f61169d6116826106f26116968a6116908b6103d99d9e6116708d613665565b9687928d86528a8d5282862054612e69565b938d8152898c522054612e69565b90612e92565b9189612e92565b928589525286205584933861161e565b60a49187519162461bcd60e51b8352820152604260248201527f54696d654372656469743a2063616c6320636f6e74726163742074696d652d7660448201527f616c7565207261746520726571756972657320636f6e747261637420746f6b656064820152616e7360f01b6084820152fd5b5061173784600052600d602052604060002054151590565b611648565b9261174c83969793959295613fa1565b806119ad575b1580611984575b15611927576117698282886151e5565b600c548351639448bddb60e01b8152858101929092526001600160a01b03908116969092889187846024818c5afa93841561191d5790889184956118ee575b50808452600d8252868420549081156118b2575060248751809b819363cd5a2c3960e01b83528b8301525afa80156118a857879883989697989161186f575b506117f760449493928692612e69565b61180d601354916106f260ff8460a01c1661442b565b8851998a97889663a9059cbb60e01b885216908601526024850152165af1908115611866575061183c57505080f35b8161185b92903d1061185f575b6118538183612998565b810190613fcf565b5080f35b503d611849565b513d85823e3d90fd5b9580929493508691503d83116118a1575b61188a8183612998565b810103126108cc57925186939188916117f76117e7565b503d611880565b85513d84823e3d90fd5b905060248751809b819363cd5a2c3960e01b83528b8301525afa80156118a857879883989697989161186f57506117f760449493928692612e69565b61190f919550823d8411611916575b6119078183612998565b8101906140ac565b93386117a8565b503d6118fd565b86513d85823e3d90fd5b825162461bcd60e51b8152808501869052603160248201527f54696d654372656469743a207472616e7366657220746f20746f6b656e2077696044820152701d1a08191a5999995c995b9d081cdb1bdd607a1b6064820152608490fd5b5061198e81613fa1565b8061199a575b15611759565b506119a481612fdf565b600b5414611994565b506119b786612fdf565b600b5414611752565b506119ca84613fa1565b801561160157506119da84612fdf565b600b5414611601565b506119ed83612fdf565b600b54146115fb565b60a49187519162461bcd60e51b8352820152604f60248201527f54696d654372656469743a2074696d652076616c7565206f6620746f6b656e2060448201527f726563656976696e67207472616e7366657220657863656564732074696d652060648201526e3a34b6361032bc3834b930ba34b7b760891b6084820152fd5b60849187519162461bcd60e51b8352820152603660248201527f54696d654372656469743a2063616e6e6f74207472616e736665722074696d656044820152751034b73a379030b71032bc3834b932b2103a37b5b2b760511b6064820152fd5b60849187519162461bcd60e51b8352820152603660248201527f54696d654372656469743a2063616e6e6f74207472616e736665722074696d6560448201527510333937b69030b71032bc3834b932b2103a37b5b2b760511b6064820152fd5b5091903461039a578260031936011261039a57611b50612893565b60243592611b5d82613084565b841015611b9057602085611b828682878760018060a01b0316815260078652206132f2565b91905490519160031b1c8152f35b608490602086519162461bcd60e51b8352820152602260248201527f455243333532353a206f776e657220696e646578206f7574206f6620626f756e604482015261647360f01b6064820152fd5b5082346103675781600319360112610367573590611bfa6128a9565b908284526009602052611c1260018286200154612abe565b82845260096020528084209160018060a01b0316918260005260205260ff81600020541615611c3f578380f35b828452600960205280842082600052602052600020600160ff1982541617905533917f2f8788117e7eff1d82e926ec794901d17c78024a50270940304540a733656f0d8480a48180808380f35b50346102835761016036600319011261028357611ca7612893565b926044359260a43590606435906084356001600160401b0360243560c43582811161059657611cd99036908901612a0b565b9860e435838111610fcc57611cf19036908a01612a0b565b9a61010435848111610dd557611d0a9036908b01612a0b565b610124359c8d8015150361082057611d2184614506565b9c8a881161201e578a4211611fca578a8e894211908a82159384611fb3575b5050508115611f83575b5015611f26576013546001600160a01b0316803b15611f22578d51630ab714fb60e11b815230818f0190815260208101899052604081018d905290918b9183919082908490829060600103925af18015611f1857908f91611ed7575b50611df081611deb7f587b01aaccba851d54042ea2fefb109eae607c6c847e4310ae6da1baf06aa8bd999a9b9c9d611de560ff60135460a01c1661442b565b90612e69565b613064565b9788600b548214600014611eaf5750611e08956138e9565b995b89518b815260208101919091526040810191909152606090a1878452611e4460209960108b528886209060ff801983541691151516179055565b611e5061014435614506565b88855260118a5287852055600f89528684205585519485870191821186831017611e9a575085528352858301918252848152600e8652839020915182555160019091015551908152f35b604190634e487b7160e01b6000525260246000fd5b9190611eba96613d93565b996001600354019a8b6003558b8852600d6020528a882055611e0a565b81611deb7f587b01aaccba851d54042ea2fefb109eae607c6c847e4310ae6da1baf06aa8bd999a9b9c611f0c611df09461291e565b9c9b9a99505050611da6565b8e513d8c823e3d90fd5b8980fd5b8c5162461bcd60e51b81526020818e0152603160248201527f54696d654372656469743a2074696d652076616c75652063616e6e6f7420657860448201527018d95959081d985b1a59081c195c9a5bd9607a1b6064820152608490fd5b905080611faa575b80611f97575b38611d4a565b508d611fa3428d61371c565b1015611f91565b508a4210611f8b565b611fbf9293945061371c565b1015908f8a8e611d40565b8c5162461bcd60e51b81526020818e0152602860248201527f54696d654372656469743a2063616e6e6f74206d696e7420616e20657870697260448201526732b2103a37b5b2b760c11b6064820152608490fd5b8c5162461bcd60e51b81526020818e0152603e60248201527f54696d654372656469743a2076616c69642073746172742074696d65206d757360448201527f74206265206c657373207468616e2065787069726174696f6e2074696d6500006064820152608490fd5b50903461039a57602036600319011261039a575061039360209235612fdf565b5082346103675760203660031901126103675781602093600192358152600985522001549051908152f35b50916120dd366128e9565b9283859392935260106020526120f860ff878720541661484d565b612101846153a4565b8486526011602052868620541161213057506103d993945061212b612126843361330a565b6130fd565b61337b565b608490602087519162461bcd60e51b8352820152603f60248201527f54696d654372656469743a20746f6b656e2076616c7565206973206c6573732060448201527f7468616e206d696e696d756d207472616e7366657261626c652076616c7565006064820152fd5b50346102835781600319360112610283576020906005549051908152f35b50829034610367576020366003190112610367576008548151631375d84360e01b81528335938101939093528390839060249082906001600160a01b03165afa91821561035d578361033494936103385750505191829160208352602083019061286e565b506122378193600161222d366128bf565b9591949095614506565b95848152601060205261224f60ff838320541661484d565b8481526011602052612266828220548810156148a7565b848152600e6020522001544210156122865760208561039386868661492d565b608490602086519162461bcd60e51b8352820152603160248201527f54696d654372656469743a2063616e6e6f74207472616e736665722066726f6d6044820152701030b71032bc3834b932b2103a37b5b2b760791b6064820152fd5b5082346103675760209081600319360112610812576008548351636c0360eb60e01b81526001600160a01b039091169180359186818381875afa9081156125c95787916125af575b50831561239d5750906024869286519485938492633601bfc560e11b84528301525afa908115612390578461033493949592612375575b5050925b5192828493845283019061286e565b61238992503d8091833e61034d8183612998565b8480612362565b50505051903d90823e3d90fd5b809350959193949551151560001461256e5783849183957a184f03e93ff9f4daa797ed6e38ed64bf6a1f0100000000000000009081811015612561575b5050866d04ee2d6d415b85acef810000000080851015612553575b5050662386f26fc1000080841015612544575b506305f5e10080841015612535575b5061271080841015612527575b50506064821015612517575b600a8092101561250d575b600190816021818801976124666124518a6129b9565b9961245e8d519b8c612998565b808b526129b9565b898b019790601f190136893750880101905b6124d7575b5050505060256124c2926124d19261033495885195836124a688955180928c808901910161284b565b84019164736c6f742f60d81b8a8401525180938684019061284b565b01036005810184520182612998565b92612366565b600019019083906f181899199a1a9b1b9c1cb0b131b232b360811b8282061a83530491821561250857919082612478565b61247d565b936001019361243b565b9390606460029104910193612430565b950194909104908780612424565b60089196930492019488612417565b60109196930492019488612408565b9601959092049186896123f5565b89975004925088806123da565b9493925090508251908282018281106001600160401b0382111761259c5784610334949596505281526124d1565b634e487b7160e01b825260418652602482fd5b6125c391503d8089833e61034d8183612998565b8761232b565b86513d89823e3d90fd5b50808391600319360112610367576125e9612893565b6024359290916001600160a01b039190828061260487613287565b16941693612614818614156131e4565b8033149081156126e5575b501561267c57612639908587526006602052862054612fa4565b500180546001600160a01b0319168317905561265483613287565b167f8c5be1e5ebec7d5bd14f71427d1e84f3dd0314c0f7b2291e5b200ac8c7c3b9258480a480f35b906020608492519162461bcd60e51b8352820152603960248201527f455243333532353a20617070726f76652063616c6c6572206973206e6f74206f60448201527f776e6572206e6f7220617070726f76656420666f7220616c6c000000000000006064820152fd5b90508652600760205260028187200133875260205260ff81872054168761261f565b50903461039a57602036600319011261039a57506111da602092356132c2565b503461028357816003193601126102835780519082805461274781612ec6565b808552916001918083169081156127cf5750600114612773575b505050610bc582610334940383612998565b80809650527f290decd9548b62a8d60345a988386fc84ba6bc95484008f6362f93160ef3e5635b8286106127b757505050610bc58260206103349582010194612761565b8054602087870181019190915290950194810161279a565b610334975086935060209250610bc594915060ff191682840152151560051b82010194612761565b83908534610367576020366003190112610367573563ffffffff60e01b81168091036103675760209250637965db0b60e01b811490811561283a575b5015158152f35b6301ffc9a760e01b14905083612833565b60005b83811061285e5750506000910152565b818101518382015260200161284e565b906020916128878151809281855285808601910161284b565b601f01601f1916010190565b600435906001600160a01b03821682036108cc57565b602435906001600160a01b03821682036108cc57565b60609060031901126108cc57600435906024356001600160a01b03811681036108cc579060443590565b60609060031901126108cc576001600160a01b039060043582811681036108cc579160243590811681036108cc579060443590565b6001600160401b03811161293157604052565b634e487b7160e01b600052604160045260246000fd5b60c081019081106001600160401b0382111761293157604052565b604081019081106001600160401b0382111761293157604052565b602081019081106001600160401b0382111761293157604052565b90601f801991011681019081106001600160401b0382111761293157604052565b6001600160401b03811161293157601f01601f191660200190565b9291926129e0826129b9565b916129ee6040519384612998565b8294818452818301116108cc578281602093846000960137010152565b9080601f830112156108cc57816020612a26933591016129d4565b90565b60609060031901126108cc57600435906024359060443590565b60e06003198201126108cc576004356001600160a01b03811681036108cc57916024359160443591606435916001600160401b03916084358381116108cc5782612a8f91600401612a0b565b9260a4358181116108cc5783612aa791600401612a0b565b9260c4359182116108cc57612a2691600401612a0b565b60009080825260209060098252604092838120338252835260ff848220541615612ae85750505050565b8351916001600160401b0390336060850183811186821017612ddf578752602a85528585019187368437855115612dcb5760308353855191600192831015612db7576078602188015360295b838111612d4d5750612d0b5790875193608085019085821090821117612cf757885260428452868401946060368737845115612ce357603086538451821015612ce35790607860218601536041915b818311612c7557505050612c3357612c2f938693612c1393612c04604894612bdb9a519a8b957f416363657373436f6e74726f6c3a206163636f756e74200000000000000000008c880152518092603788019061284b565b8401917001034b99036b4b9b9b4b733903937b6329607d1b60378401525180938684019061284b565b01036028810187520185612998565b5192839262461bcd60e51b84526004840152602483019061286e565b0390fd5b60648587519062461bcd60e51b825280600483015260248201527f537472696e67733a20686578206c656e67746820696e73756666696369656e746044820152fd5b909192600f81166010811015612ccf576f181899199a1a9b1b9c1cb0b131b232b360811b901a612ca58588612e9f565b5360041c928015612cbb57600019019190612b83565b634e487b7160e01b82526011600452602482fd5b634e487b7160e01b83526032600452602483fd5b634e487b7160e01b81526032600452602490fd5b634e487b7160e01b86526041600452602486fd5b60648789519062461bcd60e51b825280600483015260248201527f537472696e67733a20686578206c656e67746820696e73756666696369656e746044820152fd5b90600f81166010811015612da3576f181899199a1a9b1b9c1cb0b131b232b360811b901a612d7b838a612e9f565b5360041c908015612d8f5760001901612b34565b634e487b7160e01b87526011600452602487fd5b634e487b7160e01b88526032600452602488fd5b634e487b7160e01b86526032600452602486fd5b634e487b7160e01b85526032600452602485fd5b634e487b7160e01b85526041600452602485fd5b906000918083526009602052604083209160018060a01b03169182845260205260ff604084205416612e2457505050565b8083526009602052604083208284526020526040832060ff1981541690557ff6391f5c32d9c69d2a47ea670b442974b53935d1edc7fd64eb21e047a839171b339380a4565b81810292918115918404141715612e7c57565b634e487b7160e01b600052601160045260246000fd5b91908201809211612e7c57565b908151811015612eb0570160200190565b634e487b7160e01b600052603260045260246000fd5b90600182811c92168015612ef6575b6020831014612ee057565b634e487b7160e01b600052602260045260246000fd5b91607f1691612ed5565b60145460009291612f1082612ec6565b80825291600190818116908115612f875750600114612f2e57505050565b9192935060146000527fce6d7b5282bd9a3661ae061feed1dbda4e52ab073b1f9285be6e155d9c38d4ec916000925b848410612f6f57505060209250010190565b80546020858501810191909152909301928101612f5d565b915050602093945060ff929192191683830152151560051b010190565b600554811015612eb0576006906005600052027f036b6384b5eca791c62761152d0c79bb0604c104a5fb6f4eb0703f3154bb3db00190600090565b612fe881614069565b60005260066020526001613000604060002054612fa4565b50015490565b6020818303126108cc578051906001600160401b0382116108cc570181601f820112156108cc578051613038816129b9565b926130466040519485612998565b818452602082840101116108cc57612a26916020808501910161284b565b811561306e570490565b634e487b7160e01b600052601260045260246000fd5b6001600160a01b031680156130a457600052600760205260406000205490565b60405162461bcd60e51b815260206004820152602b60248201527f455243333532353a2062616c616e636520717565727920666f7220746865207a60448201526a65726f206164647265737360a81b6064820152608490fd5b1561310457565b60405162461bcd60e51b815260206004820152603260248201527f455243333532353a207472616e736665722063616c6c6572206973206e6f74206044820152711bdddb995c881b9bdc88185c1c1c9bdd995960721b6064820152608490fd5b90613188939291613178612126843361330a565b61318383838361337b565b61379b565b1561318f57565b60405162461bcd60e51b815260206004820152602760248201527f455243333532353a207472616e7366657220746f206e6f6e204552433732315260448201526632b1b2b4bb32b960c91b6064820152608490fd5b156131eb57565b60405162461bcd60e51b815260206004820152602260248201527f455243333532353a20617070726f76616c20746f2063757272656e74206f776e60448201526132b960f11b6064820152608490fd5b1561324257565b60405162461bcd60e51b815260206004820152601960248201527f455243333532353a20696e76616c696420746f6b656e204944000000000000006044820152606490fd5b61329081614069565b60005260066020526132a6604060002054612fa4565b50600301546001600160a01b0316906132c082151561323b565b565b6132cb81614069565b60005260066020526132e1604060002054612fa4565b50600401546001600160a01b031690565b8054821015612eb05760005260206000200190600090565b906001600160a01b03808061331e84613287565b16931691838314938415613351575b50831561333b575b50505090565b613347919293506132c2565b1614388080613335565b909350600052600760205260026040600020018260005260205260ff60406000205416923861332d565b61338483613287565b6001600160a01b0391821691908116829003613614578083169283156135c1576133ad85612fdf565b506133b785613665565b50600091858352602090600682526040906133d482862054612fa4565b50600490810180546001600160a01b031990811690915590918987826133f983613287565b167f8c5be1e5ebec7d5bd14f71427d1e84f3dd0314c0f7b2291e5b200ac8c7c3b9258280a489875260068552600561343385892054612fa4565b500180549091858988818f5b86841061358a57505050505050508054908781558161356d575b505088865260068452600361347084882054612fa4565b500190815416905585855260078352818520918254936000199485810190811161355a57906134a1889392866132f2565b90549060031b1c9060018601908c855281815283852054926134e2816134c7868b6132f2565b90919082549060031b600019811b9283911b16911916179055565b855252818320558982528120558154908115613547575092828892613543947fddf252ad1be2c89b69c2b068fc378daa952ba7f163c4a11628f55a4df523b3ef9796019161353083836132f2565b909182549160031b1b1916905555613686565b80a4565b634e487b7160e01b865260319052602485fd5b634e487b7160e01b885260118452602488fd5b8752848720908101905b8181101561345957878155600101613577565b6135b79486928b61359b878c6132f2565b96905494835252209260031b1c168c5289528a88812055613729565b8690888b8f61343f565b60405162461bcd60e51b815260206004820152602560248201527f455243333532353a207472616e7366657220746f20746865207a65726f206164604482015264647265737360d81b6064820152608490fd5b60405162461bcd60e51b8152602060048201526024808201527f455243333532353a207472616e736665722066726f6d20696e76616c6964206f6044820152633bb732b960e11b6064820152608490fd5b61366e81614069565b60005260066020526002613000604060002054612fa4565b600090828252600660205260036136a06040842054612fa4565b500180546001600160a01b0319166001600160a01b0390921691821790558082526007602081815260408085208054878752600191909101835281862055928452528120805491600160401b8310156137085750816134c79160016132c095940181556132f2565b634e487b7160e01b81526041600452602490fd5b91908203918211612e7c57565b6000198114612e7c5760010190565b600160401b82116129315780549180825582811061375557505050565b60009182526020822092830192015b82811061377057505050565b818155600101613764565b908160209103126108cc57516001600160e01b0319811681036108cc5790565b92939290803b156138e057936000916137f29560405180948193630a85bd0160e11b9788845233600485015260018060a01b0380921660248501526044840152608060648401528260209a8b97608483019061286e565b0393165af1600091816138b1575b506138a257833d1561389a573d90613817826129b9565b916138256040519384612998565b82523d60008284013e5b815191826138975760405162461bcd60e51b815260048101839052603260248201527f4552433732313a207472616e7366657220746f206e6f6e20455243373231526560448201527131b2b4bb32b91034b6b83632b6b2b73a32b960711b6064820152608490fd5b01fd5b60609061382f565b6001600160e01b031916149150565b6138d2919250853d87116138d9575b6138ca8183612998565b81019061377b565b9038613800565b503d6138c0565b50600193505050565b919394929092600091600160035401968760035560018060a01b03918286168015613d01578915613cb25761391d8a613fa1565b8015613ca3575b613c5e576040968a88516139378161297d565b888152895161394581612947565b8281528a6020938d858401908152828401908d82528d60608601938a8552608087019582875260a08801988952600554928392815260068b522055600160401b811015613c4a5780600161399c9201600555612fa4565b959095613c365790600595949392915185555160018501555160028401558a60038401915116906bffffffffffffffffffffffff60a01b91828254161790558a6004840192511690825416179055019051918251926001600160401b038411613c225790808f9695949392613a118585613738565b01918b52808b20908b5b848110613bfe57505050505082613a3191613686565b867fddf252ad1be2c89b69c2b068fc378daa952ba7f163c4a11628f55a4df523b3ef8180a486858a7fe4f48c240d3b994948aa54f3e2f5fca59263dfe1d52b6e4cf39a5d249b5ccb658280a4613a87888a613d50565b8260085416803b15610fcc57613ac29186918b838a51809681958294632108947560e21b845260048401528d6024840152604483019061286e565b03925af1801561081657613beb575b508160085416803b1561059657613b0d9185918a83895180968195829463246a908b60e01b845260048401528c6024840152604483019061286e565b03925af18015613be157908491613bcd575b50506008541690813b1561036757613b5c839283928651948580948193630190503b60e61b83528d60048401528a6024840152604483019061286e565b03925af18015613bc357613baf575b505051838152602081019190915260408101919091527f84eeb48eca46cea54afc9753345f6038981672ea565f32885420829dfd88aea69080606081015b0390a190565b613bb9829161291e565b61039a5780613b6b565b83513d84823e3d90fd5b613bd69061291e565b610367578238613b1f565b85513d86823e3d90fd5b613bf79094919461291e565b9238613ad1565b839495969750818b600193949551169501948185015501908f969594939291613a1b565b634e487b7160e01b8b52604160045260248bfd5b634e487b7160e01b8f5260048f905260248ffd5b634e487b7160e01b8f52604160045260248ffd5b60405162461bcd60e51b815260206004820152601d60248201527f455243333532353a20746f6b656e20616c7265616479206d696e7465640000006044820152606490fd5b50613cad8a613fe7565b613924565b60405162461bcd60e51b815260206004820152602160248201527f455243333532353a2063616e6e6f74206d696e74207a65726f20746f6b656e496044820152601960fa1b6064820152608490fd5b60405162461bcd60e51b815260206004820152602160248201527f455243333532353a206d696e7420746f20746865207a65726f206164647265736044820152607360f81b6064820152608490fd5b906000805160206155e08339815191526020600092848452600682526002613d7b6040862054612fa4565b5001613d88828254612e92565b9055604051908152a3565b939592919490956002549560ff6000971660018060a01b039485600c541691604d8111613f8d576020939291613dcc91600a0a90613064565b60408051632d2a246560e01b81526001600160a01b039a909a1660048b015260248a019b909b5260448901929092526064880191909152959795889060849082908a905af1968715613f50578697613f5a575b508260085416803b15610dd557613e5b91879189838951809681958294632108947560e21b845260048401528c6024840152604483019061286e565b03925af18015613f5057613f3d575b50816008541690813b15610fcc57613ea786928392875194858094819363246a908b60e01b83528d60048401528b6024840152604483019061286e565b03925af18015613f3357908591613f1f575b50506008541690813b1561081257613ef88392859492859351958680948193630190503b60e61b83528b6004840152886024840152604483019061286e565b03925af190811561057a5750613f0d57505090565b613f17829161291e565b61039a575090565b613f289061291e565b610812578338613eb9565b84513d87823e3d90fd5b613f499095919561291e565b9338613e6a565b85513d88823e3d90fd5b9096506020813d8211613f85575b81613f7560209383612998565b81010312610fcc57519538613e1f565b3d9150613f68565b634e487b7160e01b8a52601160045260248afd5b60055415159081613fb0575090565b8091506000526006602052613fc9604060002054612fa4565b50541490565b908160209103126108cc575180151581036108cc5790565b80600052600d6020526040600020541590811591614003575090565b600c546040516341ce4b3f60e01b81526004810192909252909150602090829060249082906001600160a01b03165afa90811561405d57600091614045575090565b612a26915060203d811161185f576118538183612998565b6040513d6000823e3d90fd5b6132c09061407681613fa1565b90811561409b575b811561408b575b5061323b565b6140959150613fe7565b38614085565b90506140a681613fe7565b9061407e565b908160209103126108cc57516001600160a01b03811681036108cc5790565b6140d481614069565b6140dd81613fa1565b80614151575b156140f157612a2690613287565b60018060a01b03600c541690600052600d60205260206040600020546024604051809481936331a9108f60e11b835260048301525afa90811561405d57600091614139575090565b612a26915060203d8111611916576119078183612998565b5061415b81612fdf565b600b54146140e3565b6001600160a01b03808316939192841561424d5783614182916142a5565b156141d0575b5060207f621b050de0ad08b51d19b48b3e6df75348c4de6bdd93e81b252ca62e28265b1b918360005260048252604060002085600052825280604060002055604051908152a3565b9082600052600660205260056141ea604060002054612fa4565b500190815492600160401b84101561293157856142308560209560017f621b050de0ad08b51d19b48b3e6df75348c4de6bdd93e81b252ca62e28265b1b980181556132f2565b909283549160031b90811b9283911b169119161790559150614188565b60405162461bcd60e51b815260206004820152602a60248201527f455243333532353a20617070726f76652076616c756520746f20746865207a65604482015269726f206164647265737360b01b6064820152608490fd5b60009082825260066020908082526040906142c282862054612fa4565b509260058094015496865b8881106142e05750505050505050905090565b8188528383526142fe81876142f7888c2054612fa4565b50016132f2565b905460039190911b1c6001600160a01b03908116908816146143285761432390613729565b6142cd565b505050505050505050600190565b9061434082614069565b61434982613fa1565b806143ea575b1561435d57612a26916143fd565b602060018060a01b0391604483600c54166000958652600d845260408620549060405195869485936338d1782f60e21b855260048501521660248301525afa9182156143de5780926143ae57505090565b9091506020823d82116143d6575b816143c960209383612998565b8101031261039a57505190565b3d91506143bc565b604051903d90823e3d90fd5b506143f482612fdf565b600b541461434f565b61440681614069565b600052600460205260406000209060018060a01b031660005260205260406000205490565b60ff16604d8111612e7c57600a0a90565b6040519061444982612962565b60078252667365636f6e647360c81b6020830152565b6040519061446c82612962565b60078252666d696e7574657360c81b6020830152565b6040519061448f82612962565b6005825264686f75727360d81b6020830152565b604051906144b082612962565b60048252636461797360e01b6020830152565b604051906144d082612962565b60068252656d6f6e74687360d01b6020830152565b604051906144f282612962565b6005825264796561727360d81b6020830152565b60009060408051906145228261451b81612f00565b0383612998565b815160208093012061453261443c565b80519084012003614555575050612a2691506106f260ff60135460a01c1661442b565b805161456b8161456481612f00565b0382612998565b82815191012061457961445f565b805190840120036145ae575050603c80820292508115918304141715612e7c57612a26906106f260ff60135460a01c1661442b565b80516145bd8161456481612f00565b8281519101206145cb614482565b805190840120036146175750506145ee91506106f260ff60135460a01c1661442b565b603c810290808204603c1481151715612e7c57610e100290808204603c1490151715612e7c5790565b80516146268161456481612f00565b8281519101206146346144a3565b805190840120036146935750509050601881029080820460181481151715612e7c576105a0810291808304603c1490151715612e7c57620151800290808204603c1490151715612e7c57612a26906106f260ff60135460a01c1661442b565b7f8be27e132b8285429e5647023e835848842eefd3c91595a90151c438482c3a3681516146c38161456481612f00565b838151910120647765656b7360d81b8484516146de81612962565b600581520152036147505750509050600781029080820460071481151715612e7c5760a881029180830460181490151715612e7c57612760810291808304603c1490151715612e7c5762093a800290808204603c1490151715612e7c57612a26906106f260ff60135460a01c1661442b565b805161475f8161456481612f00565b82815191012061476d6144c3565b805190840120036147e15750509050603c810290808204603c1481151715612e7c57610e10810291808304603c1490151715612e7c576201518081029180830460181490151715612e7c5762278d000290808204601e1490151715612e7c57612a26906106f260ff60135460a01c1661442b565b516147ef8161456481612f00565b818151910120906147fe6144e5565b80519101201461480c575090565b906301da9c00918281029281840414901517156148395750612a26906106f260ff60135460a01c1661442b565b634e487b7160e01b81526011600452602490fd5b1561485457565b60405162461bcd60e51b815260206004820152602560248201527f54696d654372656469743a207472616e736665727320617265206e6f7420616c6044820152641b1bddd95960da1b6064820152608490fd5b156148ae57565b60405162461bcd60e51b815260206004820152604b60248201527f54696d654372656469743a20616d6f756e74206265696e67207472616e73666560448201527f726564206973206c657373207468616e206d696e696d756d207472616e73666560648201526a7261626c652076616c756560a81b608482015260a490fd5b919091600090808252602091600d83526040928382205415600014614cb457614957858433614d97565b6001958660035401968760035561496d85612fdf565b916001600160a01b0380821692908315614c66578a15614c18576149908b613fa1565b8015614c09575b614bc55788516149a68161297d565b8781528951888b8e6149b784612947565b8084528a84018a81528b8386019285845260608701948c8652608088019680885260a08901998a5260066005549485948352522055600160401b811015614bb1578089614a079201600555612fa4565b959095614b9d57906005959493929151855551888501555160028401558560038401915116906bffffffffffffffffffffffff60a01b9182825416179055856004840192511690825416179055019051918251926001600160401b038411614b8957908883928f9b9a99989796959485614a8091613738565b0191895287892090895b848110614b73575050505050507f6d811e6a20ae5461a4ef22a6998c1d958defe727f1cc522b6eb792bc8e6f726698979693869384614b569794614ae0613ba99a6000805160206155e083398151915296613686565b857fddf252ad1be2c89b69c2b068fc378daa952ba7f163c4a11628f55a4df523b3ef8180a483857fe4f48c240d3b994948aa54f3e2f5fca59263dfe1d52b6e4cf39a5d249b5ccb658280a483835260068152614b3e88842054612fa4565b50508751838152a3614b51858883614e31565b612fdf565b915192839286846040919493926060820195825260208201520152565b83518216818401558f9b50928901928501614a8a565b634e487b7160e01b8a52604160045260248afd5b634e487b7160e01b8e5260048e905260248efd5b634e487b7160e01b8e52604160045260248efd5b885162461bcd60e51b815260048101879052601d60248201527f455243333532353a20746f6b656e20616c7265616479206d696e7465640000006044820152606490fd5b50614c138b613fe7565b614997565b885162461bcd60e51b815260048101879052602160248201527f455243333532353a2063616e6e6f74206d696e74207a65726f20746f6b656e496044820152601960fa1b6064820152608490fd5b885162461bcd60e51b815260048101879052602160248201527f455243333532353a206d696e7420746f20746865207a65726f206164647265736044820152607360f81b6064820152608490fd5b600c5484516307a42e0160e11b8152600481018590526001600160a01b0397881660248201526044810187905291969192918791849160649183918691165af1958615614d8b578196614d34575b50505090613ba9614b567f6d811e6a20ae5461a4ef22a6998c1d958defe727f1cc522b6eb792bc8e6f72669493612fdf565b909180939650813d8311614d84575b614d4d8183612998565b8101031261039a57505192613ba9614b567f6d811e6a20ae5461a4ef22a6998c1d958defe727f1cc522b6eb792bc8e6f7266614d02565b503d614d43565b508351903d90823e3d90fd5b614da181836143fd565b614dab838361330a565b1580614e25575b614dbd575b50505050565b838110614de057614dd793614dd19161371c565b91614164565b38808080614db7565b60405162461bcd60e51b815260206004820152601f60248201527f455243333532353a20696e73756666696369656e7420616c6c6f77616e6365006044820152606490fd5b50600019811415614db2565b614e3a81613fa1565b80156150c7575b1561507257614e4f82613fa1565b8015615063575b15615010578060005260209260068452604092614e768460002054612fa4565b508160005260068652614e8c8560002054612fa4565b50906002810190815490858210614fb95760010154600184015403614f5e5791600291614ebf86614efc9897969561371c565b905501614ecd838254612e92565b905580836000805160206155e0833981519152888851868152a3845192614ef38461297d565b600084526150d6565b15614f05575050565b60849250519062461bcd60e51b82526004820152602d60248201527f455243333532353a207472616e736665722072656a656374656420627920455260448201526c21999a991aa932b1b2b4bb32b960991b6064820152fd5b865162461bcd60e51b815260048101899052602e60248201527f455243333532353a207472616e7366657220746f20746f6b656e20776974682060448201526d191a5999995c995b9d081cdb1bdd60921b6064820152608490fd5b875162461bcd60e51b8152600481018a9052602a60248201527f455243333532353a20696e73756666696369656e742062616c616e636520666f60448201526939103a3930b739b332b960b11b6064820152608490fd5b60405162461bcd60e51b815260206004820152602560248201527f455243333532353a207472616e7366657220746f20696e76616c696420746f6b604482015264195b88125160da1b6064820152608490fd5b5061506d82613fe7565b614e56565b60405162461bcd60e51b815260206004820152602760248201527f455243333532353a207472616e736665722066726f6d20696e76616c696420746044820152661bdad95b88125160ca1b6064820152608490fd5b506150d181613fe7565b614e41565b926150e082613287565b803b151580615186575b1561517c5761513393600060209460405196879586948593629ce20b60e01b9b8c865233600487015260248601526044850152606484015260a0608484015260a483019061286e565b03926001600160a01b03165af190811561405d5760009161515e575b506001600160e01b0319161490565b615176915060203d81116138d9576138ca8183612998565b3861514f565b5050505050600190565b506040516301ffc9a760e01b8152629ce20b60e01b60048201526020816024816001600160a01b0386165afa90811561405d576000916151c7575b506150ea565b6151df915060203d811161185f576118538183612998565b386151c1565b90916151f083613fa1565b80615391575b8015615382575b1561530b5761520b82613fa1565b806152f8575b806152d5575b1561527b57906152768261524e7fdf7a601a0a201ccd4b4bfcfd610913188d931867997223d226f85f2f2673988a95948433614d97565b615259818585614e31565b604051938493846040919493926060820195825260208201520152565b0390a1565b600c546001600160a01b0316803b156108cc57604051630310ed7f60e41b8152600481019390935260248301939093526044820152906000908290606490829084905af1801561405d576152cc5750565b6132c09061291e565b506152df83613fa1565b801561521757506152ef83612fdf565b600b5414615217565b5061530282612fdf565b600b5414615211565b60a460405162461bcd60e51b815260206004820152604460248201527f546f6b656e204944206f66207265636569766572206e6f74207265636f676e6960448201527f7a6564206279207468697320636f6e7472616374206f722074686520726567696064820152637374727960e01b6084820152fd5b5061538c83613fe7565b6151fd565b5061539b83612fdf565b600b54146151f6565b6153b6906153b181614069565b61555d565b60408051906153c88261451b81612f00565b81516020809301206153d861443c565b805190840120036153fa575050612a2690611de560ff60135460a01c1661442b565b80516154098161456481612f00565b82815191012061541761445f565b8051908401200361543f57505061543b603c91611de560ff60135460a01c1661442b565b0490565b805161544e8161456481612f00565b82815191012061545c614482565b8051908401200361548157505061543b610e1091611de560ff60135460a01c1661442b565b80516154908161456481612f00565b82815191012061549e6144a3565b805190840120036154c457505061543b6201518091611de560ff60135460a01c1661442b565b80516154d38161456481612f00565b8281519101206154e16144c3565b8051908401200361550757505061543b62278d0091611de560ff60135460a01c1661442b565b516155158161456481612f00565b818151910120906155246144e5565b8051910120036155485761543b6301da9c0091611de560ff60135460a01c1661442b565b612a2690611de560ff60135460a01c1661442b565b61556681614069565b61556f81613fa1565b806155cc575b1561558357612a2690613665565b6000908152600d6020526040812054602060018060a01b03600c541691602460405180948193631398fee160e31b835260048301525afa9182156143de5780926143ae57505090565b506155d681612fdf565b600b541461557556fe0b2aac84f3ec956911fd78eae5311062972ff949f38412e8da39069d9f068cc6a264697066735822122090de8d86b411333e80d92a2f3ffca718a9bbf603f040640c3d38c51f8ef79a0364736f6c634300081100336080604052346200048657620024ae803803806200001d816200048b565b9283398101608082820312620004865781516001600160401b0391908281116200048657816200004f918501620004b1565b91602092838501518281116200048657836200006d918701620004b1565b92604086015183811162000486576060916200008b918801620004b1565b9501516001600160a01b03811695908690036200048657815193838511620002c3576001948554938685811c951680156200047b575b88861014620002a2578190601f9586811162000425575b508890868311600114620003bd57600092620003b1575b5050600019600383901b1c191690861b1785555b805190848211620002c357600254908682811c92168015620003a6575b88831014620002a25781858493116200034f575b508790858311600114620002e557600092620002d9575b5050600019600383901b1c191690851b176002555b8051928311620002c35760039485548581811c91168015620002b8575b82821014620002a25783811162000257575b5080928411600114620001ed5750928293918392600094620001e1575b50501b9160001990841b1c19161790555b600080546001600160a01b031916919091179055604051611f8a9081620005248239f35b015192503880620001ac565b919083601f1981168760005284600020946000905b888383106200023c575050501062000223575b505050811b019055620001bd565b015160001983861b60f8161c1916905538808062000215565b85870151885590960195948501948793509081019062000202565b86600052816000208480870160051c82019284881062000298575b0160051c019086905b8281106200028b5750506200018f565b600081550186906200027b565b9250819262000272565b634e487b7160e01b600052602260045260246000fd5b90607f16906200017d565b634e487b7160e01b600052604160045260246000fd5b0151905038806200014b565b90879350601f198316916002600052896000209260005b8b8282106200033857505084116200031e575b505050811b0160025562000160565b015160001960f88460031b161c191690553880806200030f565b8385015186558b97909501949384019301620002fc565b9091506002600052876000208580850160051c8201928a86106200039c575b918991869594930160051c01915b8281106200038c57505062000134565b600081558594508991016200037c565b925081926200036e565b91607f169162000120565b015190503880620000ef565b90889350601f19831691846000528a6000209260005b8c8282106200040e5750508411620003f4575b505050811b01855562000103565b015160001960f88460031b161c19169055388080620003e6565b8385015186558c97909501949384019301620003d3565b90915087600052886000208680850160051c8201928b861062000471575b918a91869594930160051c01915b82811062000461575050620000d8565b600081558594508a910162000451565b9250819262000443565b94607f1694620000c1565b600080fd5b6040519190601f01601f191682016001600160401b03811183821017620002c357604052565b919080601f84011215620004865782516001600160401b038111620002c357602090620004e7601f8201601f191683016200048b565b92818452828287010111620004865760005b8181106200050f57508260009394955001015290565b8581018301518482018401528201620004f956fe608060408181526004908136101561001657600080fd5b600092833560e01c9081631375d843146114a057508063246a908b146113a257806331264fc11461119057806355f804b31461104c57806364140ec014610f4d5780636c0360eb14610e8e5780636c037f8a14610b7257806371f0442e14610ade578063725fa09c14610866578063842251d41461072e578063894b4c2e146104025780639cdeaae0146101805763b3154c08146100b357600080fd5b3461017c57602091826003193601126101785780358452825280832091815192848154906100e082611a7d565b808752926001928084169081156101545750600114610119575b610115878761010b828c03836115b6565b5191829182611558565b0390f35b9080949750528583205b82841061014157505050826101159461010b928201019438806100fa565b8054868501880152928601928101610123565b60ff19168887015250505050151560051b830101925061010b8261011538806100fa565b8380fd5b8280fd5b50913461039057826003193601126103905781359161019e836119cd565b928083526020918083528584209386519481868254916101bd83611a7d565b92838352888301946001918a83821691826000146103e25750506001146103a5575b50506101ed925003876115b6565b6101f684611de4565b9161020260243561188a565b895163131f9f3f60e11b8152948501869052938681602481335afa91821561039a578092610365575b61011561027f8c61010b606c8e8e8e61034c8f8f8f8f8f61024e6102549161188a565b94611e7e565b966102a960298d519e8f809c683d913730b6b2911d1160b91b8c8301528b8151948593019101611535565b8a0191701116113232b9b1b934b83a34b7b7111d1160791b6029840152518093603a840190611535565b016a11161134b6b0b3b2911d1160a91b603a8201526102d18251809388604585019101611535565b016c1116113130b630b731b2911d1160991b60458201526102fb8251809387605285019101611535565b016911161139b637ba111d1160b11b60528201526103228251809386605c85019101611535565b01916e111611383937b832b93a34b2b9911d60891b605c8401528351938491606b85019101611535565b01607d60f81b606b82015203604c8101855201836115b6565b9091508682813d8311610393575b61037d81836115b6565b810103126103905750518461027f61022b565b80fd5b503d610373565b8a51903d90823e3d90fd5b89925086528186209086915b8583106103c95750506101ed935082010138806101df565b81948484839695965492010152019101899289926103b1565b92509350506101ed94915060ff19168552151560051b82010138806101df565b50913461039057602091826003193601126106bd57803591610423836119cd565b83825282855285822090865190838284549161043e83611a7d565b928383528a8301966001918c838216918260001461070e5750506001146106d2575b505061046e925003836115b6565b61047786611de4565b938851631398fee160e31b815287878201528881602481335afa80156106c8578290610695575b6104a8915061188a565b895163131f9f3f60e11b8152968701889052958881602481335afa91821561039a578092610664575b5050606c888a6101159b9961010b99603d996106549d9961061b9961055861052e9a6105086105026106169c61188a565b97611e7e565b97519b8c99683d913730b6b2911d1160b91b818c0152825192839160298d019101611535565b880191701116113232b9b1b934b83a34b7b7111d1160791b6029840152518093603a840190611535565b016a11161134b6b0b3b2911d1160a91b603a820152610580825180938d604585019101611535565b016c1116113130b630b731b2911d1160991b60458201526105aa825180938c605285019101611535565b016911161139b637ba111d1160b11b60528201526105d1825180938b605c85019101611535565b016e111611383937b832b93a34b2b9911d60891b605c8201526105fd825180938a606b85019101611535565b01607d60f81b606b82015203604c8101845201826115b6565b61171d565b845195827f646174613a6170706c69636174696f6e2f6a736f6e3b6261736536342c000000889485015282519283918686019101611535565b810103601d8101855201836115b6565b9091508882813d831161068e575b61067c81836115b6565b81010312610390575051606c886104d1565b503d610672565b508881813d83116106c1575b6106ab81836115b6565b810103126106bd576104a8905161049e565b5080fd5b503d6106a1565b8a513d84823e3d90fd5b8b925088528188209088915b8583106106f657505061046e93508201013880610460565b80548389018501528794508c939092019181016106de565b925093505061046e94915060ff19168752151560051b8201013880610460565b508290346106bd5761073f36611640565b939083526020916006835283209184519167ffffffffffffffff8311610853575061076a8354611a7d565b601f8111610810575b5080601f83116001146107ae57508394829394926107a3575b50508160011b916000199060031b1c191617905580f35b01519050848061078c565b90601f198316958486528286209286905b8882106107f8575050836001959697106107df575b505050811b01905580f35b015160001960f88460031b161c191690558480806107d4565b806001859682949686015181550195019301906107bf565b838552818520601f840160051c810191838510610849575b601f0160051c01905b81811061083e5750610773565b858155600101610831565b9091508190610828565b634e487b7160e01b855260419052602484fd5b50903461017c578260031936011261017c5781516306fdde0360e01b81529083828281335afa918215610ad1578492610aad575b5082519084600254906108ac82611a7d565b808552846020988992838301956001908181169081600014610a8e5750600114610a32575b50506108df925003856115b6565b6108e7611bb6565b928787518092633e7e866960e01b825281335afa918215610a2757605a610654989761010b97603d976101159c9761093360ff61061b996109889961061699916109fa575b501661188a565b928c51978895683d913730b6b2911d1160b91b8c88015261095e8c825192839160298b019101611535565b860191701116113232b9b1b934b83a34b7b7111d1160791b6029840152518093603a840190611535565b016a11161134b6b0b3b2911d1160a91b603a8201526109b0825180938b604585019101611535565b01721116113b30b63ab2a232b1b4b6b0b639911d1160691b60458201526109e0825180938a605885019101611535565b0161227d60f01b605882015203603a8101845201826115b6565b610a1a91508c8d3d10610a20575b610a1281836115b6565b8101906116d2565b3861092c565b503d610a08565b8751903d90823e3d90fd5b600286527f405787fa12a823e0f2b7631cc41b3ba8828b3321ca811111fa75cd3aa3bb5ace9492508591905b818310610a7657508b9450508201016108df386108d1565b85548a84018501529485019489945091830191610a5e565b9150506108df94925060ff19168652151560051b8201018992386108d1565b610aca9192503d8086833e610ac281836115b6565b810190611673565b903861089a565b50505051903d90823e3d90fd5b503461017c576020918260031936011261017857358352600582528083209181519284815490610b0d82611a7d565b808752926001928084169081156101545750600114610b3757610115878761010b828c03836115b6565b9080949750528583205b828410610b5f57505050826101159461010b928201019438806100fa565b8054868501880152928601928101610b41565b50903461017c5760209283600319360112610390578054835163ec327a2160e01b815283358185018190529092916001600160a01b0316908284602481855afa938415610e84578394610e68575b50855163bc74ebb960e01b8152858101829052948386602481865afa958615610e5e578496610e42575b5086516309c3dd8760e01b80825282820184905290938585602481845afa948515610e3857918a9594939187938496610e17575b5090602491610c5e60268d518a652f696d61676560d01b81610c4a849e85019d8e815193849201611535565b83019182015203600681018b5201896115b6565b8b51958694859384528301525afa938415610a27578094610dfa575b50508551918288808201868197519283910191610c9692611535565b81018981016f17b83937b832b93a34b2b9973539b7b760811b905203601081018452603001610cc590846115b6565b8651958695683d913730b6b2911d1160b91b8a880152805190818b60298a01920191610cf092611535565b8601701116113232b9b1b934b83a34b7b7111d1160791b6029820152815191828b603a8401920191610d2192611535565b01906a11161134b6b0b3b2911d1160a91b603a83015251918260458301610d4792611535565b01906e111611383937b832b93a34b2b9911d60891b604583015251918260548301610d7192611535565b0160548101607d60f81b905203603581018252605501610d9190826115b6565b610d9a9061171d565b81517f646174613a6170706c69636174696f6e2f6a736f6e3b6261736536342c00000084820152815190938492610dd8918391603d86019101611535565b810103601d81018352603d01610dee90836115b6565b51610115819282611558565b610e0f9294503d8091833e610ac281836115b6565b913880610c7a565b602492919650610e30903d8087833e610ac281836115b6565b959091610c1e565b89513d88823e3d90fd5b610e579196503d8086833e610ac281836115b6565b9438610bea565b87513d86823e3d90fd5b610e7d9194503d8085833e610ac281836115b6565b9238610bc0565b86513d85823e3d90fd5b8382346106bd57816003193601126106bd57805190826001805491610eb283611a7d565b80865292828116908115610f255750600114610edb575b50505061010b826101159403836115b6565b9450808552600080516020611f358339815191525b828610610f0d5750505061010b8260206101159582010194610ec9565b80546020878701810191909152909501948101610ef0565b61011597508693506020925061010b94915060ff191682840152151560051b82010194610ec9565b508290346106bd57610f5e36611640565b939083526020916005835283209184519167ffffffffffffffff83116108535750610f898354611a7d565b601f8111611009575b5080601f8311600114610fc157508394829394926107a35750508160011b916000199060031b1c191617905580f35b90601f198316958486528286209286905b888210610ff1575050836001959697106107df57505050811b01905580f35b80600185968294968601518155019501930190610fd2565b838552818520601f840160051c810191838510611042575b601f0160051c01905b8181106110375750610f92565b85815560010161102a565b9091508190611021565b828434610390576020806003193601126106bd5767ffffffffffffffff83358181116101785761107f90369086016115f4565b93845191821161117d57506001916110978354611a7d565b601f811161112b575b5080601f83116001146110da57508394829394926110cf575b5050600019600383901b1c191690821b17905580f35b0151905084806110b9565b838552601f19831695600080516020611f35833981519152929186905b88821061111457505083859697106107df57505050811b01905580f35b8087859682949686015181550195019301906110f7565b838552600080516020611f35833981519152601f840160051c810191838510611173575b601f0160051c019084905b8281106111685750506110a0565b86815501849061115a565b909150819061114f565b634e487b7160e01b845260419052602483fd5b50903461017c578260031936011261017c5781516306fdde0360e01b81529083828281335afa918215610ad1578492611386575b5082519084906002546111d681611a7d565b808552846020948582019360019087828216918260001461136857505060011461130e575b50611208925003856115b6565b611210611bb6565b918387518092633e7e866960e01b825281335afa9081156113045761127d97969361010b969361125360ff605a98956112d3956101159e916112ed57501661188a565b9489519a8b97683d913730b6b2911d1160b91b878a015261052e815180928960298d019101611535565b016a11161134b6b0b3b2911d1160a91b603a8201526112a58251809386604585019101611535565b0191721116113b30b63ab2a232b1b4b6b0b639911d1160691b60458401528351938491605885019101611535565b0161227d60f01b605882015203603a8101855201836115b6565b610a1a9150873d8911610a2057610a1281836115b6565b87513d8a823e3d90fd5b60028b528691508a907f405787fa12a823e0f2b7631cc41b3ba8828b3321ca811111fa75cd3aa3bb5ace5b8583106113505750506112089350820101386111fb565b8054838b018501528994508893909201918101611339565b60ff1916875261120895151560051b85010192503891506111fb9050565b61139b9192503d8086833e610ac281836115b6565b90386111c4565b508290346106bd576113b336611640565b9390835260209181835283209184519167ffffffffffffffff831161085357506113dd8354611a7d565b601f811161145d575b5080601f831160011461141557508394829394926107a35750508160011b916000199060031b1c191617905580f35b90601f198316958486528286209286905b888210611445575050836001959697106107df57505050811b01905580f35b80600185968294968601518155019501930190611426565b838552818520601f840160051c810191838510611496575b601f0160051c01905b81811061148b57506113e6565b85815560010161147e565b9091508190611475565b92905034610178576020908160031936011261153157358452600681528184208054856114cc82611a7d565b8087529260019280841690811561015457506001146114f657610115878761010b828c03836115b6565b9080949750528583205b82841061151e57505050826101159461010b928201019438806100fa565b8054868501880152928601928101611500565b8480fd5b60005b8381106115485750506000910152565b8181015183820152602001611538565b604091602082526115788151809281602086015260208686019101611535565b601f01601f1916010190565b6060810190811067ffffffffffffffff8211176115a057604052565b634e487b7160e01b600052604160045260246000fd5b90601f8019910116810190811067ffffffffffffffff8211176115a057604052565b67ffffffffffffffff81116115a057601f01601f191660200190565b81601f8201121561163b5780359061160b826115d8565b9261161960405194856115b6565b8284526020838301011161163b57816000926020809301838601378301015290565b600080fd5b90604060031983011261163b57600435916024359067ffffffffffffffff821161163b57611670916004016115f4565b90565b60208183031261163b5780519067ffffffffffffffff821161163b570181601f8201121561163b5780516116a6816115d8565b926116b460405194856115b6565b8184526020828401011161163b576116709160208085019101611535565b9081602091031261163b575160ff8116810361163b5790565b906116f5826115d8565b61170260405191826115b6565b8281528092611713601f19916115d8565b0190602036910137565b8051156118655760405161173081611584565b604081527f4142434445464748494a4b4c4d4e4f505152535455565758595a61626364656660208201527f6768696a6b6c6d6e6f707172737475767778797a303132333435363738392b2f6040820152815160029283820180921161184f576003918290046001600160fe1b038116810361184f576117b2908594951b6116eb565b936020850193829183518401925b8381106117fe57505050505106806001146117eb576002146117e0575090565b603d90600019015390565b50603d9081600019820153600119015390565b85600491979293949701918251600190603f9082828260121c16880101518453828282600c1c16880101518385015382828260061c16880101518885015316850101518782015301959291906117c0565b634e487b7160e01b600052601160045260246000fd5b506040516020810181811067ffffffffffffffff8211176115a0576040526000815290565b806000917a184f03e93ff9f4daa797ed6e38ed64bf6a1f010000000000000000808210156119bf575b506d04ee2d6d415b85acef8100000000808310156119b0575b50662386f26fc10000808310156119a1575b506305f5e10080831015611992575b5061271080831015611983575b506064821015611973575b600a80921015611969575b6001908160216119218287016116eb565b95860101905b611933575b5050505090565b600019019083906f181899199a1a9b1b9c1cb0b131b232b360811b8282061a83530491821561196457919082611927565b61192c565b9160010191611910565b9190606460029104910191611905565b600491939204910191386118fa565b600891939204910191386118ed565b601091939204910191386118de565b602091939204910191386118cc565b6040935081049150386118b3565b6040516306fdde0360e01b815290600082600481335afa918215611a7157600092611a4b575b506022611a026116709261188a565b926040519381611a1c869351809260208087019101611535565b820161202360f01b6020820152611a3c8251809360208785019101611535565b010360028101845201826115b6565b611a02611a6860229261167094953d8091833e610ac281836115b6565b939250506119f3565b6040513d6000823e3d90fd5b90600182811c92168015611aad575b6020831014611a9757565b634e487b7160e01b600052602260045260246000fd5b91607f1691611a8c565b90600091600190815491611aca83611a7d565b92818116908115611b205750600114611ae257505050565b809192939450600052600080516020611f35833981519152906000915b848310611b0d575050500190565b8181602092548587015201920191611aff565b60ff191683525050811515909102019150565b600092918154611b4281611a7d565b92600191808316908115611b9b5750600114611b5f575b50505050565b90919293945060005260209081600020906000915b858310611b8a5750505050019038808080611b59565b805485840152918301918101611b74565b60ff1916845250505081151590910201915038808080611b59565b611bbf33611cc1565b6040519081602091611bd2838301611ab7565b68636f6e74726163742f60b81b8152611bf48251809386600985019101611535565b01602f60f81b600982015260009060035493611c0f85611a7d565b94600190818116908115611c9e5750600114611c3c575b505050611670925003601f1981018352826115b6565b9091925060036000527fc2575a0e9e593c00f959f8c92f12db2869c3395a3b0502d05e2516446f71f85b906000915b868310611c87575050505061167092600a910101388080611c26565b8054838601600a0152879550918301918101611c6b565b915050600a935061167095915060ff191683830152801515020101388080611c26565b604051906001600160a01b0316611cd782611584565b602a82526020908183016040368237835115611dce57603090538251600190811015611dce57607860218501536029905b808211611d5c575050611d19575090565b6064906040519062461bcd60e51b825280600483015260248201527f537472696e67733a20686578206c656e67746820696e73756666696369656e746044820152fd5b9091600f81166010811015611db9578551841015611db9576f181899199a1a9b1b9c1cb0b131b232b360811b901a85840185015360041c918015611da4576000190190611d08565b60246000634e487b7160e01b81526011600452fd5b60246000634e487b7160e01b81526032600452fd5b634e487b7160e01b600052603260045260246000fd5b611670601191611df330611cc1565b906000526006602052611e70604060002060056020526001611e62604060002092604051978896611e2660208901611ab7565b692f636f6e74726163742f60b01b8152611e4a825180936020600a85019101611535565b01662f746f6b656e2f60c81b600a8201520190611b33565b602f60f81b81520190611b33565b03601f1981018352826115b6565b6116706011601092611e8f33611cc1565b906000526006602052611f0560406000206040519586936e7b70726f706572746965735f75726960881b6020860152611eca602f8601611ab7565b68636f6e74726163742f60b81b8152611eed825180936020600985019101611535565b01662f746f6b656e2f60c81b60098201520190611b33565b6f17b83937b832b93a34b2b9973539b7b760811b8152607d60f81b601082015203600e198101845201826115b656feb10e2d527612073b26eecdfd717e6a320cf44b4afac2b0732d9fcbe2b7fa0cf6a26469706673582212202c467a4a676d76e370970da3ab744733f2ec2a4e8cd3718f3dd576d976390f8864736f6c634300081100332f8788117e7eff1d82e926ec794901d17c78024a50270940304540a733656f0d",
  "linkReferences": {},
  "deployedLinkReferences": {}
}