{
  "_format": "hh-sol-artifact-1",
  "contractName": "TimeCredit",
  "sourceName": "contracts/TimeCredit.sol",
  "abi": [
    {
      "inputs": [
        {
          "internalType": "address",
          "name": "revenueAcct_",
          "type": "address"
        },
        {
          "internalType": "address",
          "name": "serviceAdmin_",
          "type": "address"
        },
        {
          "internalType": "address",
          "name": "slotRegistry_",
          "type": "address"
        },
        {
          "internalType": "address",
          "name": "poolContract_",
          "type": "address"
        },
        {
          "internalType": "address",
          "name": "underlyingContract_",
          "type": "address"
        },
        {
          "internalType": "address",
          "name": "mktAdmin_",
          "type": "address"
        },
        {
          "internalType": "uint256",
          "name": "defaultSlot_",
          "type": "uint256"
        },
        {
          "internalType": "string",
          "name": "name_",
          "type": "string"
        },
        {
          "internalType": "string",
          "name": "symbol_",
          "type": "string"
        },
        {
          "internalType": "string",
          "name": "baseUri_",
          "type": "string"
        },
        {
          "internalType": "string",
          "name": "contractDescription_",
          "type": "string"
        },
        {
          "internalType": "string",
          "name": "contractImage_",
          "type": "string"
        },
        {
          "internalType": "string",
          "name": "dispTimeUnit_",
          "type": "string"
        },
        {
          "internalType": "string",
          "name": "valueToken_",
          "type": "string"
        },
        {
          "internalType": "uint8",
          "name": "decimals_",
          "type": "uint8"
        }
      ],
      "stateMutability": "nonpayable",
      "type": "constructor"
    },
    {
      "anonymous": false,
      "inputs": [
        {
          "indexed": true,
          "internalType": "address",
          "name": "_owner",
          "type": "address"
        },
        {
          "indexed": true,
          "internalType": "address",
          "name": "_approved",
          "type": "address"
        },
        {
          "indexed": true,
          "internalType": "uint256",
          "name": "_tokenId",
          "type": "uint256"
        }
      ],
      "name": "Approval",
      "type": "event"
    },
    {
      "anonymous": false,
      "inputs": [
        {
          "indexed": true,
          "internalType": "address",
          "name": "_owner",
          "type": "address"
        },
        {
          "indexed": true,
          "internalType": "address",
          "name": "_operator",
          "type": "address"
        },
        {
          "indexed": false,
          "internalType": "bool",
          "name": "_approved",
          "type": "bool"
        }
      ],
      "name": "ApprovalForAll",
      "type": "event"
    },
    {
      "anonymous": false,
      "inputs": [
        {
          "indexed": true,
          "internalType": "uint256",
          "name": "_tokenId",
          "type": "uint256"
        },
        {
          "indexed": true,
          "internalType": "address",
          "name": "_operator",
          "type": "address"
        },
        {
          "indexed": false,
          "internalType": "uint256",
          "name": "_value",
          "type": "uint256"
        }
      ],
      "name": "ApprovalValue",
      "type": "event"
    },
    {
      "anonymous": false,
      "inputs": [
        {
          "indexed": false,
          "internalType": "uint256",
          "name": "offeringId",
          "type": "uint256"
        },
        {
          "indexed": false,
          "internalType": "uint256",
          "name": "value",
          "type": "uint256"
        }
      ],
      "name": "ListOffer",
      "type": "event"
    },
    {
      "anonymous": false,
      "inputs": [
        {
          "indexed": false,
          "internalType": "address",
          "name": "contractAddress",
          "type": "address"
        }
      ],
      "name": "MetadataDescriptor",
      "type": "event"
    },
    {
      "anonymous": false,
      "inputs": [
        {
          "indexed": false,
          "internalType": "uint256",
          "name": "tokenId",
          "type": "uint256"
        },
        {
          "indexed": false,
          "internalType": "uint256",
          "name": "slot",
          "type": "uint256"
        },
        {
          "indexed": false,
          "internalType": "uint256",
          "name": "value",
          "type": "uint256"
        }
      ],
      "name": "MintAssetToken",
      "type": "event"
    },
    {
      "anonymous": false,
      "inputs": [
        {
          "indexed": false,
          "internalType": "uint256",
          "name": "tokenId",
          "type": "uint256"
        },
        {
          "indexed": false,
          "internalType": "uint256",
          "name": "slot",
          "type": "uint256"
        },
        {
          "indexed": false,
          "internalType": "uint256",
          "name": "value",
          "type": "uint256"
        }
      ],
      "name": "MintServiceToken",
      "type": "event"
    },
    {
      "anonymous": false,
      "inputs": [
        {
          "indexed": false,
          "internalType": "uint256",
          "name": "newTokenId",
          "type": "uint256"
        },
        {
          "indexed": false,
          "internalType": "uint256",
          "name": "slot",
          "type": "uint256"
        },
        {
          "indexed": false,
          "internalType": "uint256",
          "name": "value",
          "type": "uint256"
        }
      ],
      "name": "MintServiceTokenToAddress",
      "type": "event"
    },
    {
      "anonymous": false,
      "inputs": [
        {
          "indexed": false,
          "internalType": "uint256",
          "name": "tokenId",
          "type": "uint256"
        },
        {
          "indexed": false,
          "internalType": "uint256",
          "name": "valueSeconds",
          "type": "uint256"
        },
        {
          "indexed": false,
          "internalType": "uint256",
          "name": "valueUnit",
          "type": "uint256"
        }
      ],
      "name": "MintTimeToken",
      "type": "event"
    },
    {
      "anonymous": false,
      "inputs": [
        {
          "indexed": true,
          "internalType": "bytes32",
          "name": "role",
          "type": "bytes32"
        },
        {
          "indexed": true,
          "internalType": "bytes32",
          "name": "previousAdminRole",
          "type": "bytes32"
        },
        {
          "indexed": true,
          "internalType": "bytes32",
          "name": "newAdminRole",
          "type": "bytes32"
        }
      ],
      "name": "RoleAdminChanged",
      "type": "event"
    },
    {
      "anonymous": false,
      "inputs": [
        {
          "indexed": true,
          "internalType": "bytes32",
          "name": "role",
          "type": "bytes32"
        },
        {
          "indexed": true,
          "internalType": "address",
          "name": "account",
          "type": "address"
        },
        {
          "indexed": true,
          "internalType": "address",
          "name": "sender",
          "type": "address"
        }
      ],
      "name": "RoleGranted",
      "type": "event"
    },
    {
      "anonymous": false,
      "inputs": [
        {
          "indexed": true,
          "internalType": "bytes32",
          "name": "role",
          "type": "bytes32"
        },
        {
          "indexed": true,
          "internalType": "address",
          "name": "account",
          "type": "address"
        },
        {
          "indexed": true,
          "internalType": "address",
          "name": "sender",
          "type": "address"
        }
      ],
      "name": "RoleRevoked",
      "type": "event"
    },
    {
      "anonymous": false,
      "inputs": [
        {
          "indexed": true,
          "internalType": "address",
          "name": "metadataDescriptor",
          "type": "address"
        }
      ],
      "name": "SetMetadataDescriptor",
      "type": "event"
    },
    {
      "anonymous": false,
      "inputs": [
        {
          "indexed": true,
          "internalType": "uint256",
          "name": "_tokenId",
          "type": "uint256"
        },
        {
          "indexed": true,
          "internalType": "uint256",
          "name": "_oldSlot",
          "type": "uint256"
        },
        {
          "indexed": true,
          "internalType": "uint256",
          "name": "_newSlot",
          "type": "uint256"
        }
      ],
      "name": "SlotChanged",
      "type": "event"
    },
    {
      "anonymous": false,
      "inputs": [
        {
          "indexed": true,
          "internalType": "address",
          "name": "_from",
          "type": "address"
        },
        {
          "indexed": true,
          "internalType": "address",
          "name": "_to",
          "type": "address"
        },
        {
          "indexed": true,
          "internalType": "uint256",
          "name": "_tokenId",
          "type": "uint256"
        }
      ],
      "name": "Transfer",
      "type": "event"
    },
    {
      "anonymous": false,
      "inputs": [
        {
          "indexed": true,
          "internalType": "uint256",
          "name": "_fromTokenId",
          "type": "uint256"
        },
        {
          "indexed": true,
          "internalType": "uint256",
          "name": "_toTokenId",
          "type": "uint256"
        },
        {
          "indexed": false,
          "internalType": "uint256",
          "name": "_value",
          "type": "uint256"
        }
      ],
      "name": "TransferValue",
      "type": "event"
    },
    {
      "anonymous": false,
      "inputs": [
        {
          "indexed": false,
          "internalType": "uint256",
          "name": "fromTokenId",
          "type": "uint256"
        },
        {
          "indexed": false,
          "internalType": "uint256",
          "name": "toTokenId",
          "type": "uint256"
        },
        {
          "indexed": false,
          "internalType": "uint256",
          "name": "value",
          "type": "uint256"
        }
      ],
      "name": "ValueTransfer",
      "type": "event"
    },
    {
      "inputs": [],
      "name": "DEFAULT_ADMIN_ROLE",
      "outputs": [
        {
          "internalType": "bytes32",
          "name": "",
          "type": "bytes32"
        }
      ],
      "stateMutability": "view",
      "type": "function"
    },
    {
      "inputs": [],
      "name": "MKT_ARBITRATOR_ROLE",
      "outputs": [
        {
          "internalType": "bytes32",
          "name": "",
          "type": "bytes32"
        }
      ],
      "stateMutability": "view",
      "type": "function"
    },
    {
      "inputs": [],
      "name": "SERVICE_ADMIN_ROLE",
      "outputs": [
        {
          "internalType": "bytes32",
          "name": "",
          "type": "bytes32"
        }
      ],
      "stateMutability": "view",
      "type": "function"
    },
    {
      "inputs": [
        {
          "internalType": "string",
          "name": "uri_",
          "type": "string"
        }
      ],
      "name": "_setBaseURI",
      "outputs": [],
      "stateMutability": "nonpayable",
      "type": "function"
    },
    {
      "inputs": [
        {
          "internalType": "uint256",
          "name": "tokenId_",
          "type": "uint256"
        },
        {
          "internalType": "uint256",
          "name": "valueSeconds_",
          "type": "uint256"
        }
      ],
      "name": "addTime",
      "outputs": [],
      "stateMutability": "nonpayable",
      "type": "function"
    },
    {
      "inputs": [
        {
          "internalType": "uint256",
          "name": "tokenId_",
          "type": "uint256"
        },
        {
          "internalType": "address",
          "name": "operator_",
          "type": "address"
        }
      ],
      "name": "allowance",
      "outputs": [
        {
          "internalType": "uint256",
          "name": "",
          "type": "uint256"
        }
      ],
      "stateMutability": "view",
      "type": "function"
    },
    {
      "inputs": [
        {
          "internalType": "address",
          "name": "to_",
          "type": "address"
        },
        {
          "internalType": "uint256",
          "name": "tokenId_",
          "type": "uint256"
        }
      ],
      "name": "approve",
      "outputs": [],
      "stateMutability": "payable",
      "type": "function"
    },
    {
      "inputs": [
        {
          "internalType": "uint256",
          "name": "tokenId_",
          "type": "uint256"
        },
        {
          "internalType": "address",
          "name": "to_",
          "type": "address"
        },
        {
          "internalType": "uint256",
          "name": "value_",
          "type": "uint256"
        }
      ],
      "name": "approve",
      "outputs": [],
      "stateMutability": "payable",
      "type": "function"
    },
    {
      "inputs": [
        {
          "internalType": "address",
          "name": "owner_",
          "type": "address"
        }
      ],
      "name": "balanceOf",
      "outputs": [
        {
          "internalType": "uint256",
          "name": "balance",
          "type": "uint256"
        }
      ],
      "stateMutability": "view",
      "type": "function"
    },
    {
      "inputs": [
        {
          "internalType": "uint256",
          "name": "tokenId_",
          "type": "uint256"
        }
      ],
      "name": "balanceOf",
      "outputs": [
        {
          "internalType": "uint256",
          "name": "",
          "type": "uint256"
        }
      ],
      "stateMutability": "view",
      "type": "function"
    },
    {
      "inputs": [],
      "name": "contractAdmin",
      "outputs": [
        {
          "internalType": "address",
          "name": "",
          "type": "address"
        }
      ],
      "stateMutability": "view",
      "type": "function"
    },
    {
      "inputs": [],
      "name": "contractURI",
      "outputs": [
        {
          "internalType": "string",
          "name": "",
          "type": "string"
        }
      ],
      "stateMutability": "view",
      "type": "function"
    },
    {
      "inputs": [],
      "name": "creditType",
      "outputs": [
        {
          "internalType": "string",
          "name": "",
          "type": "string"
        }
      ],
      "stateMutability": "view",
      "type": "function"
    },
    {
      "inputs": [],
      "name": "defaultSlot",
      "outputs": [
        {
          "internalType": "uint256",
          "name": "",
          "type": "uint256"
        }
      ],
      "stateMutability": "view",
      "type": "function"
    },
    {
      "inputs": [
        {
          "internalType": "uint256",
          "name": "tokenId_",
          "type": "uint256"
        }
      ],
      "name": "getApproved",
      "outputs": [
        {
          "internalType": "address",
          "name": "",
          "type": "address"
        }
      ],
      "stateMutability": "view",
      "type": "function"
    },
    {
      "inputs": [
        {
          "internalType": "bytes32",
          "name": "role",
          "type": "bytes32"
        }
      ],
      "name": "getRoleAdmin",
      "outputs": [
        {
          "internalType": "bytes32",
          "name": "",
          "type": "bytes32"
        }
      ],
      "stateMutability": "view",
      "type": "function"
    },
    {
      "inputs": [
        {
          "internalType": "uint256",
          "name": "tokenId",
          "type": "uint256"
        }
      ],
      "name": "getTokenDescription",
      "outputs": [
        {
          "internalType": "string",
          "name": "",
          "type": "string"
        }
      ],
      "stateMutability": "view",
      "type": "function"
    },
    {
      "inputs": [
        {
          "internalType": "uint256",
          "name": "tokenId",
          "type": "uint256"
        }
      ],
      "name": "getTokenImage",
      "outputs": [
        {
          "internalType": "string",
          "name": "",
          "type": "string"
        }
      ],
      "stateMutability": "view",
      "type": "function"
    },
    {
      "inputs": [
        {
          "internalType": "uint256",
          "name": "tokenId",
          "type": "uint256"
        }
      ],
      "name": "getTokenUUID",
      "outputs": [
        {
          "internalType": "string",
          "name": "",
          "type": "string"
        }
      ],
      "stateMutability": "view",
      "type": "function"
    },
    {
      "inputs": [
        {
          "internalType": "bytes32",
          "name": "role",
          "type": "bytes32"
        },
        {
          "internalType": "address",
          "name": "account",
          "type": "address"
        }
      ],
      "name": "grantRole",
      "outputs": [],
      "stateMutability": "nonpayable",
      "type": "function"
    },
    {
      "inputs": [
        {
          "internalType": "bytes32",
          "name": "role",
          "type": "bytes32"
        },
        {
          "internalType": "address",
          "name": "account",
          "type": "address"
        }
      ],
      "name": "hasRole",
      "outputs": [
        {
          "internalType": "bool",
          "name": "",
          "type": "bool"
        }
      ],
      "stateMutability": "view",
      "type": "function"
    },
    {
      "inputs": [
        {
          "internalType": "address",
          "name": "owner_",
          "type": "address"
        },
        {
          "internalType": "address",
          "name": "operator_",
          "type": "address"
        }
      ],
      "name": "isApprovedForAll",
      "outputs": [
        {
          "internalType": "bool",
          "name": "",
          "type": "bool"
        }
      ],
      "stateMutability": "view",
      "type": "function"
    },
    {
      "inputs": [
        {
          "internalType": "uint256",
          "name": "tokenId_",
          "type": "uint256"
        }
      ],
      "name": "isValid",
      "outputs": [
        {
          "internalType": "bool",
          "name": "",
          "type": "bool"
        }
      ],
      "stateMutability": "view",
      "type": "function"
    },
    {
      "inputs": [
        {
          "internalType": "uint256",
          "name": "expiration_",
          "type": "uint256"
        },
        {
          "internalType": "uint256",
          "name": "tokenId_",
          "type": "uint256"
        },
        {
          "internalType": "uint256",
          "name": "price_",
          "type": "uint256"
        },
        {
          "internalType": "string",
          "name": "assetId_",
          "type": "string"
        },
        {
          "internalType": "string",
          "name": "side_",
          "type": "string"
        }
      ],
      "name": "listOffer",
      "outputs": [],
      "stateMutability": "nonpayable",
      "type": "function"
    },
    {
      "inputs": [],
      "name": "metadataDescriptor",
      "outputs": [
        {
          "internalType": "contract IERC3525MetadataDescriptor",
          "name": "",
          "type": "address"
        }
      ],
      "stateMutability": "view",
      "type": "function"
    },
    {
      "inputs": [
        {
          "internalType": "address",
          "name": "owner_",
          "type": "address"
        },
        {
          "internalType": "uint256",
          "name": "slot_",
          "type": "uint256"
        },
        {
          "internalType": "uint256",
          "name": "value_",
          "type": "uint256"
        },
        {
          "internalType": "string",
          "name": "uuid_",
          "type": "string"
        },
        {
          "internalType": "string",
          "name": "tokenDescription_",
          "type": "string"
        },
        {
          "internalType": "string",
          "name": "tokenImage_",
          "type": "string"
        },
        {
          "internalType": "string",
          "name": "property_",
          "type": "string"
        }
      ],
      "name": "mint",
      "outputs": [
        {
          "internalType": "uint256",
          "name": "",
          "type": "uint256"
        }
      ],
      "stateMutability": "nonpayable",
      "type": "function"
    },
    {
      "inputs": [
        {
          "internalType": "address",
          "name": "owner_",
          "type": "address"
        },
        {
          "internalType": "uint256",
          "name": "slotId_",
          "type": "uint256"
        },
        {
          "internalType": "uint256",
          "name": "timeValue_",
          "type": "uint256"
        },
        {
          "internalType": "uint256",
          "name": "paidValue_",
          "type": "uint256"
        },
        {
          "internalType": "uint256",
          "name": "validStart_",
          "type": "uint256"
        },
        {
          "internalType": "uint256",
          "name": "validExpiration_",
          "type": "uint256"
        },
        {
          "internalType": "string",
          "name": "uuid_",
          "type": "string"
        },
        {
          "internalType": "string",
          "name": "tokenDescription_",
          "type": "string"
        },
        {
          "internalType": "string",
          "name": "tokenImage_",
          "type": "string"
        },
        {
          "internalType": "string",
          "name": "property_",
          "type": "string"
        },
        {
          "internalType": "bool",
          "name": "transfersAllowed_",
          "type": "bool"
        },
        {
          "internalType": "uint256",
          "name": "minAllowedValueTransfer_",
          "type": "uint256"
        }
      ],
      "name": "mintTime",
      "outputs": [
        {
          "internalType": "uint256",
          "name": "",
          "type": "uint256"
        }
      ],
      "stateMutability": "nonpayable",
      "type": "function"
    },
    {
      "inputs": [
        {
          "internalType": "address",
          "name": "owner_",
          "type": "address"
        },
        {
          "internalType": "uint256",
          "name": "expiration_",
          "type": "uint256"
        },
        {
          "internalType": "uint256",
          "name": "tokenId_",
          "type": "uint256"
        },
        {
          "internalType": "uint256",
          "name": "price_",
          "type": "uint256"
        },
        {
          "internalType": "string",
          "name": "assetId_",
          "type": "string"
        },
        {
          "internalType": "string",
          "name": "side_",
          "type": "string"
        }
      ],
      "name": "mktListOffer",
      "outputs": [],
      "stateMutability": "nonpayable",
      "type": "function"
    },
    {
      "inputs": [],
      "name": "name",
      "outputs": [
        {
          "internalType": "string",
          "name": "",
          "type": "string"
        }
      ],
      "stateMutability": "view",
      "type": "function"
    },
    {
      "inputs": [
        {
          "internalType": "address",
          "name": "owner_",
          "type": "address"
        },
        {
          "internalType": "uint256",
          "name": "slot_",
          "type": "uint256"
        },
        {
          "internalType": "uint256",
          "name": "value_",
          "type": "uint256"
        },
        {
          "internalType": "uint256",
          "name": "discountBasisPts_",
          "type": "uint256"
        },
        {
          "internalType": "string",
          "name": "uuid_",
          "type": "string"
        },
        {
          "internalType": "string",
          "name": "tokenDescription_",
          "type": "string"
        },
        {
          "internalType": "string",
          "name": "tokenImage_",
          "type": "string"
        },
        {
          "internalType": "string",
          "name": "property_",
          "type": "string"
        }
      ],
      "name": "networkMintWithDiscount",
      "outputs": [
        {
          "internalType": "uint256",
          "name": "",
          "type": "uint256"
        }
      ],
      "stateMutability": "nonpayable",
      "type": "function"
    },
    {
      "inputs": [
        {
          "internalType": "address",
          "name": "owner_",
          "type": "address"
        },
        {
          "internalType": "uint256",
          "name": "slot_",
          "type": "uint256"
        },
        {
          "internalType": "uint256",
          "name": "value_",
          "type": "uint256"
        },
        {
          "internalType": "uint256",
          "name": "valueRate_",
          "type": "uint256"
        },
        {
          "internalType": "string",
          "name": "uuid_",
          "type": "string"
        },
        {
          "internalType": "string",
          "name": "tokenDescription_",
          "type": "string"
        },
        {
          "internalType": "string",
          "name": "tokenImage_",
          "type": "string"
        },
        {
          "internalType": "string",
          "name": "property_",
          "type": "string"
        }
      ],
      "name": "networkMintWithValueRate",
      "outputs": [
        {
          "internalType": "uint256",
          "name": "",
          "type": "uint256"
        }
      ],
      "stateMutability": "nonpayable",
      "type": "function"
    },
    {
      "inputs": [
        {
          "internalType": "uint256",
          "name": "tokenId_",
          "type": "uint256"
        }
      ],
      "name": "ownerOf",
      "outputs": [
        {
          "internalType": "address",
          "name": "owner_",
          "type": "address"
        }
      ],
      "stateMutability": "view",
      "type": "function"
    },
    {
      "inputs": [
        {
          "internalType": "uint256",
          "name": "tokenId_",
          "type": "uint256"
        },
        {
          "internalType": "uint256",
          "name": "slotId_",
          "type": "uint256"
        },
        {
          "internalType": "uint256",
          "name": "valueSeconds_",
          "type": "uint256"
        }
      ],
      "name": "redeem",
      "outputs": [],
      "stateMutability": "nonpayable",
      "type": "function"
    },
    {
      "inputs": [
        {
          "internalType": "uint256",
          "name": "slotId_",
          "type": "uint256"
        }
      ],
      "name": "registerOnSlot",
      "outputs": [],
      "stateMutability": "nonpayable",
      "type": "function"
    },
    {
      "inputs": [
        {
          "internalType": "bytes32",
          "name": "role",
          "type": "bytes32"
        },
        {
          "internalType": "address",
          "name": "account",
          "type": "address"
        }
      ],
      "name": "renounceRole",
      "outputs": [],
      "stateMutability": "nonpayable",
      "type": "function"
    },
    {
      "inputs": [
        {
          "internalType": "bytes32",
          "name": "role",
          "type": "bytes32"
        },
        {
          "internalType": "address",
          "name": "account",
          "type": "address"
        }
      ],
      "name": "revokeRole",
      "outputs": [],
      "stateMutability": "nonpayable",
      "type": "function"
    },
    {
      "inputs": [
        {
          "internalType": "address",
          "name": "from_",
          "type": "address"
        },
        {
          "internalType": "address",
          "name": "to_",
          "type": "address"
        },
        {
          "internalType": "uint256",
          "name": "tokenId_",
          "type": "uint256"
        }
      ],
      "name": "safeTransferFrom",
      "outputs": [],
      "stateMutability": "payable",
      "type": "function"
    },
    {
      "inputs": [
        {
          "internalType": "address",
          "name": "from_",
          "type": "address"
        },
        {
          "internalType": "address",
          "name": "to_",
          "type": "address"
        },
        {
          "internalType": "uint256",
          "name": "tokenId_",
          "type": "uint256"
        },
        {
          "internalType": "bytes",
          "name": "data_",
          "type": "bytes"
        }
      ],
      "name": "safeTransferFrom",
      "outputs": [],
      "stateMutability": "payable",
      "type": "function"
    },
    {
      "inputs": [
        {
          "internalType": "address",
          "name": "operator_",
          "type": "address"
        },
        {
          "internalType": "bool",
          "name": "approved_",
          "type": "bool"
        }
      ],
      "name": "setApprovalForAll",
      "outputs": [],
      "stateMutability": "nonpayable",
      "type": "function"
    },
    {
      "inputs": [
        {
          "internalType": "uint256",
          "name": "tokenId_",
          "type": "uint256"
        }
      ],
      "name": "slotOf",
      "outputs": [
        {
          "internalType": "uint256",
          "name": "",
          "type": "uint256"
        }
      ],
      "stateMutability": "view",
      "type": "function"
    },
    {
      "inputs": [
        {
          "internalType": "uint256",
          "name": "slot_",
          "type": "uint256"
        }
      ],
      "name": "slotURI",
      "outputs": [
        {
          "internalType": "string",
          "name": "",
          "type": "string"
        }
      ],
      "stateMutability": "view",
      "type": "function"
    },
    {
      "inputs": [
        {
          "internalType": "bytes4",
          "name": "interfaceId",
          "type": "bytes4"
        }
      ],
      "name": "supportsInterface",
      "outputs": [
        {
          "internalType": "bool",
          "name": "",
          "type": "bool"
        }
      ],
      "stateMutability": "view",
      "type": "function"
    },
    {
      "inputs": [],
      "name": "symbol",
      "outputs": [
        {
          "internalType": "string",
          "name": "",
          "type": "string"
        }
      ],
      "stateMutability": "view",
      "type": "function"
    },
    {
      "inputs": [
        {
          "internalType": "uint256",
          "name": "index_",
          "type": "uint256"
        }
      ],
      "name": "tokenByIndex",
      "outputs": [
        {
          "internalType": "uint256",
          "name": "",
          "type": "uint256"
        }
      ],
      "stateMutability": "view",
      "type": "function"
    },
    {
      "inputs": [
        {
          "internalType": "address",
          "name": "owner_",
          "type": "address"
        },
        {
          "internalType": "uint256",
          "name": "index_",
          "type": "uint256"
        }
      ],
      "name": "tokenOfOwnerByIndex",
      "outputs": [
        {
          "internalType": "uint256",
          "name": "",
          "type": "uint256"
        }
      ],
      "stateMutability": "view",
      "type": "function"
    },
    {
      "inputs": [
        {
          "internalType": "uint256",
          "name": "tokenId_",
          "type": "uint256"
        }
      ],
      "name": "tokenURI",
      "outputs": [
        {
          "internalType": "string",
          "name": "",
          "type": "string"
        }
      ],
      "stateMutability": "view",
      "type": "function"
    },
    {
      "inputs": [],
      "name": "totalSupply",
      "outputs": [
        {
          "internalType": "uint256",
          "name": "",
          "type": "uint256"
        }
      ],
      "stateMutability": "view",
      "type": "function"
    },
    {
      "inputs": [
        {
          "internalType": "uint256",
          "name": "fromTokenId_",
          "type": "uint256"
        },
        {
          "internalType": "address",
          "name": "to_",
          "type": "address"
        },
        {
          "internalType": "uint256",
          "name": "value_",
          "type": "uint256"
        }
      ],
      "name": "transferFrom",
      "outputs": [
        {
          "internalType": "uint256",
          "name": "",
          "type": "uint256"
        }
      ],
      "stateMutability": "payable",
      "type": "function"
    },
    {
      "inputs": [
        {
          "internalType": "address",
          "name": "from_",
          "type": "address"
        },
        {
          "internalType": "address",
          "name": "to_",
          "type": "address"
        },
        {
          "internalType": "uint256",
          "name": "tokenId_",
          "type": "uint256"
        }
      ],
      "name": "transferFrom",
      "outputs": [],
      "stateMutability": "payable",
      "type": "function"
    },
    {
      "inputs": [
        {
          "internalType": "uint256",
          "name": "fromTokenId_",
          "type": "uint256"
        },
        {
          "internalType": "uint256",
          "name": "toTokenId_",
          "type": "uint256"
        },
        {
          "internalType": "uint256",
          "name": "value_",
          "type": "uint256"
        }
      ],
      "name": "transferFrom",
      "outputs": [],
      "stateMutability": "payable",
      "type": "function"
    },
    {
      "inputs": [
        {
          "internalType": "string",
          "name": "assetId_",
          "type": "string"
        },
        {
          "internalType": "string",
          "name": "side_",
          "type": "string"
        }
      ],
      "name": "validOffers",
      "outputs": [
        {
          "components": [
            {
              "internalType": "uint256",
              "name": "offerId",
              "type": "uint256"
            },
            {
              "internalType": "address",
              "name": "owner",
              "type": "address"
            },
            {
              "internalType": "string",
              "name": "side",
              "type": "string"
            },
            {
              "internalType": "uint256",
              "name": "price",
              "type": "uint256"
            },
            {
              "internalType": "uint256",
              "name": "tokenId",
              "type": "uint256"
            },
            {
              "internalType": "uint256",
              "name": "expiration",
              "type": "uint256"
            }
          ],
          "internalType": "struct Service.Offer[]",
          "name": "",
          "type": "tuple[]"
        }
      ],
      "stateMutability": "view",
      "type": "function"
    },
    {
      "inputs": [],
      "name": "valueContractAddress",
      "outputs": [
        {
          "internalType": "address",
          "name": "",
          "type": "address"
        }
      ],
      "stateMutability": "view",
      "type": "function"
    },
    {
      "inputs": [],
      "name": "valueDecimals",
      "outputs": [
        {
          "internalType": "uint8",
          "name": "",
          "type": "uint8"
        }
      ],
      "stateMutability": "view",
      "type": "function"
    }
  ],
  "bytecode": "0x60e0806040523462000c2a57600060a05262008f02803803809162000025828562000c61565b83398101906101e081830312620009b857620000418162000c85565b608052620000526020820162000c85565b620000606040830162000c85565b916200006f6060820162000c85565b926200007e6080830162000c85565b60c0526200008f60a0830162000c85565b9260c08301519160e084015160018060401b038111620009b85787620000b791860162000cbf565b6101008501519095906001600160401b038111620009b85788620000dd91870162000cbf565b6101208601519096906001600160401b038111620009b857896200010391880162000cbf565b6101408701519092906001600160401b038111620009b8578a6200012991890162000cbf565b6101608801519092906001600160401b038111620009b8578b6200014f918a0162000cbf565b6101808901519092906001600160401b038111620009b8578c62000175918b0162000cbf565b6101a08a0151909c906001600160401b038111620009b8576101c0916200019e918c0162000cbf565b9901519960ff8b168b03620009b8576200020d602e8e966040519781620001d08a935180926020808701910162000c9a565b82016c5102a34b6b2903ab734ba399d160951b6020820152620001fd825180936020878501910162000c9a565b0103600e81018852018662000c61565b604051926200021c8462000c2f565b600484526374696d6560e01b602085015280516001600160401b038111620008525760a051805490600182811c9216801562000c1f575b6020831014620008305750601f811162000bd3575b5060a05191602092601f831160011462000b63575060a0519283918362000b57575b50508160011b916000199060031b1c19161790555b8051906001600160401b038211620008525760015460a051600182811c9216801562000b4c575b60208310146200083057509081601f84931162000af2575b5060a05190602091601f841160011462000a7f575060a0519262000a73575b50508160011b916000199060031b1c1916176001555b6002805460ff191660ff8c16179055600b80546001600160a01b03199081166001600160a01b0393841617909155600c899055600a80548216898416179055600d80548216888416179055600e8054909116918c16919091179055601054604051825191929160208083019291620003a591908390620003978187858a0162000c9a565b810103808452018262000c61565b51902060405160208101906374696d6560e01b825260048152620003c98162000c2f565b51902003620009be575060a0515b6004811015620009a05760c0516001600160a81b031983166001600160a01b0391821690811760a084901b60ff60a01b1617601055929087163b15620009b8576040516394b39b0960e01b81526001600160a01b038916600480830191909152602482018b90529093906001600160a81b03198316821760a085811b60ff60a01b1691909117901c60ff161015620009a0576001600160a81b03199091161760a091821b60ff60a01b1617811c60ff1660448301525181606481836001600160a01b038a165af1801562000993576200097a575b50604051926001600160401b036120b785019081119085111762000852576200052092620004f262000509926120b762006e2b883960806120b78801818152019062000d1a565b906120b78601820360206120b78801015262000d1a565b906120b78401820360406120b78601015262000d1a565b6001600160a01b039092166120b782016060015260a051918190039082f09081156200096e575060018060a01b031660018060a01b0319600854161760085560018060a01b03600b54167f1cd6d520d98babae1045eb69c31ecab800996aa332094cb55c0ac10362e9b0c9908160a05152600960205260a051604081208260005260205260ff60406000205416156200092a575b5050507f9a95e87c5af084bf5db8491c3a6515da9dd6da39b24b0eb0af08d7b9cd808d918060a05152600960205260a0516040812060018060a01b03841660005260205260ff6040600020541615620008d5575b5050507f9ac4f8025631594629895b778dc5ee88d01673a254a2291f6b6b174ad25230ca602060018060a01b0360085416604051908152a1600c5560208151910120600460206040516200065c8162000c2f565b82815201635553444360e01b815220146000146200086a5760c051601b80546001600160a01b039283166001600160a01b031991821617909155608051601a805491909316911617905582516001600160401b0381116200085257601c5460a051600182811c9216801562000847575b6020831014620008305750601f8111620007df575b5060a051602090601f83116001146200077257508192939460a0519262000766575b50508160011b916000199060031b1c191617601c555b601b805460ff60a01b191660a09290921b60ff60a01b16919091179055601980546001600160a01b0319166001600160a01b03929092169190911790556040516160e9908162000d428239f35b01519050388062000703565b601c905260a051602081209190601f198416905b818110620007c657509583600195969710620007ac575b505050811b01601c5562000719565b015160001960f88460031b161c191690553880806200079d565b9192602060018192868b01518155019401920162000786565b601c60a0515260a05160208120601f840160051c8101926020851062000825575b601f0160051c01915b82811062000819575050620006e1565b81815560010162000809565b909250829062000800565b634e487b7160e01b9052602260045260a051602490fd5b91607f1691620006cc565b634e487b7160e01b60a051526041600452602460a051fd5b60405162461bcd60e51b815260206004820152603760248201527f5370656e644372656469743a204f6e6c79205553444320756e6465726c79696e60448201527f6720616363657074656420617420746869732074696d650000000000000000006064820152608490fd5b819052600960205260a051906040822060018060a01b0384166000526020526040600020600160ff1982541617905560008051602062008ee2833981519152339360018060a01b03169280a438808062000608565b829052600960205260a0519160408320826000526020526040600020600160ff1982541617905560008051602062008ee2833981519152339380a4388080620005b4565b604051903d90823e3d90fd5b6001600160401b038111620008525760405238620004ab565b6040513d60a051823e3d90fd5b634e487b7160e01b60a051526021600452602460a051fd5b60a05180fd5b6040516020810190620009de6020828551620003978187858a0162000c9a565b5190206040516020810190630c6c2e6d60e31b82526004815262000a028162000c2f565b5190200362000a1457506001620003d7565b60405162000a346020828162000397818301968781519384920162000c9a565b519020604051602081019065636f756e747360d01b82526006815262000a5a8162000c2f565b5190200362000a6b576002620003d7565b6003620003d7565b015190503880620002fd565b60019194505260a051906020822091935b601f198416851062000ad6576001945083601f1981161062000abc575b505050811b0160015562000313565b015160001960f88460031b161c1916905538808062000aad565b8181015183556020948501946001909301929091019062000a90565b909150600160a0515260a05160208120601f850160051c81016020861062000b44575b9085949392915b601f840160051c8201811062000b3557505050620002de565b82815586955060010162000b1c565b508062000b15565b91607f1691620002c6565b0151905038806200028a565b805260a0516020812090938493925b601f198416851062000bb7576001945083601f1981161062000b9d575b505050811b0190556200029f565b015160001960f88460031b161c1916905538808062000b8f565b8181015183556020948501946001909301929091019062000b72565b60a051805260a05160208120601f840160051c81016020851062000c17575b601f840160051c8201811062000c0b5750505062000268565b82815560010162000bf2565b508062000bf2565b91607f169162000253565b600080fd5b604081019081106001600160401b0382111762000c4b57604052565b634e487b7160e01b600052604160045260246000fd5b601f909101601f19168101906001600160401b0382119082101762000c4b57604052565b51906001600160a01b038216820362000c2a57565b60005b83811062000cae5750506000910152565b818101518382015260200162000c9d565b81601f8201121562000c2a5780516001600160401b03811162000c4b576040519262000cf6601f8301601f19166020018562000c61565b8184526020828401011162000c2a5762000d17916020808501910162000c9a565b90565b9060209162000d358151809281855285808601910162000c9a565b601f01601f191601019056fe608080604052600436101561001357600080fd5b600090813560e01c90816301ffc9a7146130e85750806303e20953146130c557806306fdde0314612ff6578063081812fc14612fd7578063095ea7b314612ea157806309c3dd8714612bcf5780630f485c0214612b085780631375d84314612aa25780631429fb5714612a0757806318160ddd146129e957806323b872dd146129255780632425eeaf146125af578063248a9ca314612582578063263f3e7e146125635780632f2ff15d146124b45780632f745c591461240b578063310ed7f014611e3d57806331b5b90714611dab57806336568abe14611d185780633e7e866914611cf75780633f5d706714611ace57806341815ee4146119d357806342842e0e146119b05780634f6ccce71461192b578063505a38531461190d5780636352211e146118dc57806370a08231146118b857806371f0442e146118525780637795524514611829578063791581c61461172a578063840f7113146117015780638cb0a511146115bf57806391d148541461157357806395d89b41146114945780639cc7f70814611475578063a217fddf14611459578063a22cb4651461137b578063a7c9f2d614611340578063aa20ce55146110a4578063b198fc541461107b578063b3154c0814611015578063b819220514610ce8578063b88d4fde14610c89578063be950a6214610b40578063c87b56dd14610aab578063cf2d6fe61461083c578063d09445c214610801578063d547741f146107c0578063e345e0bc14610791578063e8a3d48514610701578063e985e9c5146106aa578063f577a500146106605763f5a3fb741461026857600080fd5b3461065d5761018036600319011261065d5761028261313d565b906064359060843560a4356001600160401b0360243560443560c435838111610659576102b3903690600401613240565b9760e435848111610655576102cc903690600401613240565b61010435858111610651576102e5903690600401613240565b6101243586811161064d576102fe903690600401613240565b91610144359b8c15158d036106485761031686614fa6565b9b898b116105dd57894211610587578a421180159081610572575b8115610542575b50156104e357601b546001600160a01b0316803b156104df57604051630ab714fb60e11b8152306004820152602481018a905260448101839052908d908290606490829084905af180156104d4578e92918e916104b7575b5050906103de816103d97f587b01aaccba851d54042ea2fefb109eae607c6c847e4310ae6da1baf06aa8bd9a9998979695946103d360ff601b5460a01c16614ecb565b9061375e565b6139ef565b9889600c5482146000146104a657506103f69661426e565b975b604080518a81526020810192909252810191909152606090a185855261043360209760178952604087209060ff801983541691151516179055565b61043f61016435614fa6565b86865260188852604086205560168752604085205560405193604085019185831090831117610490576001936040928352855286850192835285815260158752209251835551910155604051908152f35b634e487b7160e01b600052604160045260246000fd5b91906104b19761479e565b976103f8565b6104c391929350613184565b6104d0578c908c38610390565b8b80fd5b6040513d8f823e3d90fd5b8c80fd5b60405162461bcd60e51b815260206004820152603160248201527f54696d654372656469743a2074696d652076616c75652063616e6e6f7420657860448201527018d95959081d985b1a59081c195c9a5bd9607a1b6064820152608490fd5b905080610569575b80610556575b38610338565b50610561428b614096565b8d1115610550565b5089421061054a565b90508d61057f8d8d614096565b101590610331565b60405162461bcd60e51b815260206004820152602860248201527f54696d654372656469743a2063616e6e6f74206d696e7420616e20657870697260448201526732b2103a37b5b2b760c11b6064820152608490fd5b60405162461bcd60e51b815260206004820152603e60248201527f54696d654372656469743a2076616c69642073746172742074696d65206d757360448201527f74206265206c657373207468616e2065787069726174696f6e2074696d6500006064820152608490fd5b600080fd5b8980fd5b8880fd5b8780fd5b8680fd5b80fd5b503461065d57602036600319011261065d5760209060043581526015825260408120544210159081610698575b506040519015158152f35b6001915060409020015442103861068d565b503461065d57604036600319011261065d576106c461313d565b600260406106d0613153565b9360018060a01b038094168152600760205220019116600052602052602060ff604060002054166040519015158152f35b503461065d578060031936011261065d57600854604051631c97e82760e21b8152908290829060049082906001600160a01b03165afa908115610786578261075f9392610763575b5050604051918291602083526020830190613315565b0390f35b61077f92503d8091833e61077781836131cd565b810190613991565b3880610749565b6040513d84823e3d90fd5b503461065d57604036600319011261065d5760206107b86107b0613153565b600435614de2565b604051908152f35b503461065d57604036600319011261065d576107fe6004356107e0613153565b9080845260096020526107f960016040862001546133b3565b6136e8565b80f35b503461065d578060031936011261065d5760206040517f9a95e87c5af084bf5db8491c3a6515da9dd6da39b24b0eb0af08d7b9cd808d918152f35b503461065d5760c036600319011261065d5761085661313d565b6064356001600160401b03608435818111610aa757610879903690600401613240565b9060a435818111610aa357610892903690600401613240565b93600f54946108a0866140a3565b600f5583516020809501209283885260139283865260408920888a5286526001908160408b20019060018060a01b03166001600160601b0360a01b82541617905584895283865260408920888a5286528760408a205584895283865260408920888a528652600260408a2001928051928311610a8f5761092084546137bb565b601f8111610a56575b5086908a601f85116001146109dc5793604099979593819382936000805160206160948339815191529d9b9997946109d1575b50501b916000199060031b1c19161790555b81885280835285882085895283526024356005878a20015581885280835285882085895283526044356004878a2001558188528252848720848852825282600386892001558652601481526109c58385882061400c565b8351928352820152a180f35b01519250388061095c565b50848b52878b209293929190601f1984168c5b818110610a415750916000805160206160948339815191529b99979593918560409c9a98969410610a28575b505050811b01905561096e565b015160001960f88460031b161c19169055388080610a1b565b82840151855593860193928a01928a016109ef565b610a7f90858c52888c20601f860160051c8101918a8710610a85575b601f0160051c01906140b2565b38610929565b9091508190610a72565b634e487b7160e01b8a52604160045260248afd5b8580fd5b8480fd5b503461065d57602036600319011261065d57600435610ac981614a39565b8015610b2c575b610ad990613bc6565b6008546040516344a5a61760e11b815260048101929092528290829060249082906001600160a01b03165afa908115610786578261075f9392610763575050604051918291602083526020830190613315565b50610ad9610b3982614a7f565b9050610ad0565b503461065d57602036600319011261065d577f9a95e87c5af084bf5db8491c3a6515da9dd6da39b24b0eb0af08d7b9cd808d9181526009602052604081203360005260205260ff6040600020541615610c1e5760018060a01b039081600d541691600a541660ff60105460a01c16833b15610c1a57604051916394b39b0960e01b8352600483015260043560248301526004811015610c065781606481858097819560448401525af1801561078657610bf65750f35b610bff90613184565b61065d5780f35b634e487b7160e01b83526021600452602483fd5b8280fd5b60405162461bcd60e51b815260206004820152603760248201527f53656e646572206e6f7420617574686f72697a656420746f207265676973746560448201527f7220636f6e747261637420746f207468697320736c6f740000000000000000006064820152608490fd5b50608036600319011261065d57610c9e61313d565b610ca6613153565b606435916001600160401b038311610ce45736602384011215610ce457610cda6107fe933690602481600401359101613209565b9160443591613aef565b8380fd5b503461065d57610cf736613399565b9190610d0282613c12565b6001600160a01b039190821633148015610fd3575b15610f8257849182610d2885614a39565b80610f6f575b15610e7557508383526016602052610d64610d4d86604086205461375e565b610d5e60ff601b5460a01c16614ecb565b906139ef565b601b54601a5483169216803b15610aa757604051632b83cccd60e01b81526001600160a01b03939093166004840152602483019390935260448201529082908290606490829084905af1801561078657610e61575b5050610dc481614b01565b80835260066020526002610ddb604085205461392f565b50018054838110610e10578360008051602061607483398151915292610e048796602094614096565b9055604051908152a380f35b60405162461bcd60e51b815260206004820152602360248201527f455243333532353a206275726e2076616c756520657863656564732062616c616044820152626e636560e81b6064820152608490fd5b610e6a90613184565b610c1a578238610db9565b610e8c856000526011602052604060002054151590565b610e96575b610d64565b508383526011602090815260408420548015610f2f5781836019541691602460405180948193633e1feff960e21b835260048301525afa908115610f245787928692610eec575b5050610e9191610d4d9161375e565b925094505083813d8311610f1d575b610f0581836131cd565b81010312610648579151859290859081610d4d610edd565b503d610efb565b6040513d87823e3d90fd5b50602481836019541660405192838092633e1feff960e21b82528a60048301525afa908115610f245787928692610eec575050610e9191610d4d9161375e565b50610f798561396a565b600c5414610d2e565b60405162461bcd60e51b815260206004820152602360248201527f53656e646572206973206e6f7420617574686f72697a656420746f207265646560448201526232b69760e91b6064820152608490fd5b507f1cd6d520d98babae1045eb69c31ecab800996aa332094cb55c0ac10362e9b0c985526009602052604085203360005260205260ff60406000205416610d17565b503461065d57602036600319011261065d57600854604051631662a98160e31b81526004803590820152908290829060249082906001600160a01b03165afa908115610786578261075f9392610763575050604051918291602083526020830190613315565b503461065d578060031936011261065d576010546040516001600160a01b039091168152602090f35b503461065d576020816110b63661325e565b6003805460010190819055600e54604051630151086360e31b81526001600160a01b039a8b166004820152602481019990995260448901979097526064880195909552939893969095919492939192839160849183918b91165af1908115611335578691611300575b50868652601160205260408620556008546001600160a01b0316803b15610aa3576111728692918392604051948580948193632108947560e21b83528d6004840152604060248401526044830190613315565b03925af1908115610f245785916112ec575b50506008546001600160a01b0316803b15610aa7576111cb859291839260405194858094819363246a908b60e01b83528c6004840152604060248401526044830190613315565b03925af19081156112e15784916112cd575b50506008546001600160a01b0316803b15610ce4576112248492918392604051948580948193630190503b60e61b83528b6004840152604060248401526044830190613315565b03925af19081156112ae5783916112b9575b50506008546001600160a01b031690813b15610c1a57829161127c91604051948580948193637e468a5160e01b8352896004840152604060248401526044830190613315565b03925af180156112ae57611296575b602082604051908152f35b6112a08391613184565b6112aa578161128b565b5080fd5b6040513d85823e3d90fd5b6112c290613184565b6112aa578138611236565b6112d690613184565b610c1a5782386111dd565b6040513d86823e3d90fd5b6112f590613184565b610ce4578338611184565b9550506020853d60201161132d575b8161131c602093836131cd565b81010312610648578694513861111f565b3d915061130f565b6040513d88823e3d90fd5b503461065d578060031936011261065d5760206040517f1cd6d520d98babae1045eb69c31ecab800996aa332094cb55c0ac10362e9b0c98152f35b503461065d57604036600319011261065d5761139561313d565b6024359081151590818303610648576001600160a01b031691338314611414576113e5903385526007602052600260408620018460005260205260406000209060ff801983541691151516179055565b6040519081527f17307eab39ab6107e8899845ad3d59bd9653f200f220920489ca2b5937696c3160203392a380f35b60405162461bcd60e51b815260206004820152601a60248201527f455243333532353a20617070726f766520746f2063616c6c65720000000000006044820152606490fd5b503461065d578060031936011261065d57602090604051908152f35b503461065d57602036600319011261065d5760206107b8600435615e38565b503461065d578060031936011261065d57604051600060018054906114b8826137bb565b8085529181811690811561154c57506001146114f3575b61075f846114df818603826131cd565b604051918291602083526020830190613315565b600081815292507fb10e2d527612073b26eecdfd717e6a320cf44b4afac2b0732d9fcbe2b7fa0cf65b8284106115345750505081016020016114df826114cf565b8054602085870181019190915290930192810161151c565b60ff191660208087019190915292151560051b850190920192506114df91508390506114cf565b503461065d57604036600319011261065d57604061158f613153565b9160043581526009602052209060018060a01b0316600052602052602060ff604060002054166040519015158152f35b506115c93661333a565b906115d383614b01565b836115dd84614a39565b806116ee575b1561168057506116096001600160a01b03806115fe86613c12565b169083161415613b6f565b6116138333613c95565b15611621576107fe92614c10565b60405162461bcd60e51b815260206004820152603160248201527f455243333532353a20617070726f76652063616c6c6572206973206e6f74206f6044820152701ddb995c881b9bdc88185c1c1c9bdd9959607a1b6064820152608490fd5b600e54938152601160205260408120549093919290916001600160a01b0316803b15610aa757604051638cb0a51160e01b815260048101939093526001600160a01b0393909316602483015260448201529082908290606490829084905af1801561078657610bf657505080f35b506116f88461396a565b600c54146115e3565b503461065d578060031936011261065d576008546040516001600160a01b039091168152602090f35b503461065d57604036600319011261065d57600435602435818352601560205260016040842001544210156117cc57816117788261177361176d6107fe96615e38565b42613787565b613787565b81855260156020526001604086200154106117a7575b61179781613c12565b506117a18161396a565b50614744565b6117b78261177361176d84615e38565b8185526015602052600160408620015561178e565b60405162461bcd60e51b815260206004820152602f60248201527f54696d654372656469743a2063616e6e6f74206164642074696d6520746f206160448201526e371032bc3834b932b2103a37b5b2b760891b6064820152608490fd5b503461065d578060031936011261065d57600a546040516001600160a01b039091168152602090f35b503461065d57602036600319011261065d576008546040516338f8221760e11b81526004803590820152908290829060249082906001600160a01b03165afa908115610786578261075f9392610763575050604051918291602083526020830190613315565b503461065d57602036600319011261065d5760206107b86118d761313d565b613a0f565b503461065d57602036600319011261065d5760206118fb600435614b63565b6040516001600160a01b039091168152f35b503461065d578060031936011261065d576020600c54604051908152f35b503461065d57602036600319011261065d5760043560055481101561195f5761195560209161392f565b5054604051908152f35b60405162461bcd60e51b815260206004820152602360248201527f455243333532353a20676c6f62616c20696e646578206f7574206f6620626f756044820152626e647360e81b6064820152608490fd5b506107fe6119bd36613364565b90604051926119cb846131b2565b858452613aef565b503461065d578060031936011261065d5760ff60105460a01c166004811015611aba5760038103611a3857505061075f604051611a0f81613197565b60088152677072696f7269747960c01b6020820152604051918291602083526020830190613315565b80611a6457505061075f604051611a4e81613197565b600481526374696d6560e01b60208201526114df565b600214159050611a955761075f604051611a7d81613197565b6006815265636f756e747360d01b60208201526114df565b61075f604051611aa481613197565b60048152630c6c2e6d60e31b60208201526114df565b634e487b7160e01b82526021600452602482fd5b503461065d5760a036600319011261065d576001600160401b03604435606435828111610ce457611b03903690600401613240565b608435838111610aa757611b1b903690600401613240565b600f5493611b28856140a3565b600f5582516020809401209182875260139182855260408820878952855260018060408a2001336001600160601b0360a01b82541617905584895283865260408920888a5286528760408a205584895283865260408920888a528652600260408a2001928051928311610a8f57611b9f84546137bb565b601f8111611cc9575b5086908a601f8511600114611c4f5793604099979593819382936000805160206160948339815191529d9b999794611c44575b50501b916000199060031b1c19161790555b81885280835285882085895283526004356005878a20015581885280835285882085895283526024356004878a2001558188528252848720848852825282600386892001558652601481526109c58385882061400c565b015192503880611bdb565b50848b52878b209293929190601f1984168c5b818110611cb45750916000805160206160948339815191529b99979593918560409c9a98969410611c9b575b505050811b019055611bed565b015160001960f88460031b161c19169055388080611c8e565b82840151855593860193928a01928a01611c62565b611cf190858c52888c20601f860160051c8101918a8710610a8557601f0160051c01906140b2565b38611ba8565b503461065d578060031936011261065d57602060ff60025416604051908152f35b503461065d57604036600319011261065d57611d32613153565b336001600160a01b03821603611d4e576107fe906004356136e8565b60405162461bcd60e51b815260206004820152602f60248201527f416363657373436f6e74726f6c3a2063616e206f6e6c792072656e6f756e636560448201526e103937b632b9903337b91039b2b63360891b6064820152608490fd5b503461065d57602036600319011261065d57806004356001600160401b038111611e3a57611ddd903690600401613240565b6008546001600160a01b031690813b15611e36578291611e1b916040519485809481936355f804b360e01b8352602060048401526024830190613315565b03925af1801561078657611e2d575080f35b6107fe90613184565b5050fd5b50fd5b611e5382611e4a36613399565b93909193614fa6565b9083835260209360178552611e6e60ff6040862054166152ed565b80845260188552611e856040852054841015615347565b8084526015855260016040852001544210156123a75781845260158552600160408520015442101561234357611ebd61176d83613feb565b828552601586526001604086200154106122c057611eda81614a39565b806122ad575b8061228a575b1561202557808452601685526040842054828552604085205403611f10575b6107fe939450615c79565b611f27816000526011602052604060002054151590565b80612008575b15611f92576107fe93946016611f80611f4585613feb565b848952828452610d5e611f798a611f73846040611f658d8286205461375e565b938c8152898b52205461375e565b90613787565b9188613787565b91848852526040862055849350611f05565b60405162461bcd60e51b815260048101869052604260248201527f54696d654372656469743a2063616c6320636f6e74726163742074696d652d7660448201527f616c7565207261746520726571756972657320636f6e747261637420746f6b656064820152616e7360f01b608482015260a490fd5b50612020826000526011602052604060002054151590565b611f2d565b9161203283959495614a39565b80612277575b158061224e575b156121ef5761204f818385615c79565b601954604051639448bddb60e01b815260048101939093526001600160a01b03908116929091908581602481875afa9485156121e457869188966121b5575b5080885260118252604088205490811561217e5750602460405180968193633e1feff960e21b835260048301525afa8015611335578593879161214c575b506044916120d99161375e565b9386836120f2601b5497610d5e60ff8a60a01c16614ecb565b96604051978896879563a9059cbb60e01b87521660048601526024850152165af180156112ae5761212257505080f35b8161214192903d10612145575b61213981836131cd565b810190614a67565b5080f35b503d61212f565b84819592503d8311612177575b61216381836131cd565b81010312610aa357915184929060446120cc565b503d612159565b9050602460405180968193633e1feff960e21b835260048301525afa8015611335578593879161214c57506044916120d99161375e565b6121d6919650823d84116121dd575b6121ce81836131cd565b810190614b44565b948861208e565b503d6121c4565b6040513d89823e3d90fd5b60405162461bcd60e51b815260048101859052603160248201527f54696d654372656469743a207472616e7366657220746f20746f6b656e2077696044820152701d1a08191a5999995c995b9d081cdb1bdd607a1b6064820152608490fd5b5061225882614a39565b80612264575b1561203f565b5061226e8261396a565b600c541461225e565b506122818361396a565b600c5414612038565b5061229482614a39565b8015611ee657506122a48261396a565b600c5414611ee6565b506122b78161396a565b600c5414611ee0565b60405162461bcd60e51b815260048101869052604f60248201527f54696d654372656469743a2074696d652076616c7565206f6620746f6b656e2060448201527f726563656976696e67207472616e7366657220657863656564732074696d652060648201526e3a34b6361032bc3834b930ba34b7b760891b608482015260a490fd5b60405162461bcd60e51b815260048101869052603660248201527f54696d654372656469743a2063616e6e6f74207472616e736665722074696d656044820152751034b73a379030b71032bc3834b932b2103a37b5b2b760511b6064820152608490fd5b60405162461bcd60e51b815260048101869052603660248201527f54696d654372656469743a2063616e6e6f74207472616e736665722074696d6560448201527510333937b69030b71032bc3834b932b2103a37b5b2b760511b6064820152608490fd5b503461065d57604036600319011261065d5761242561313d565b9060243561243283613a0f565b8110156124645760406124569260209460018060a01b031681526007855220613c7d565b90546040519160031b1c8152f35b60405162461bcd60e51b815260206004820152602260248201527f455243333532353a206f776e657220696e646578206f7574206f6620626f756e604482015261647360f01b6064820152608490fd5b503461065d57604036600319011261065d576004356124d1613153565b81835260096020526124e960016040852001546133b3565b8183526009602052604083209060018060a01b03169081845260205260ff60408420541615612516578280f35b81835260096020526040832081845260205260408320600160ff1982541617905533917f2f8788117e7eff1d82e926ec794901d17c78024a50270940304540a733656f0d8480a438808280f35b503461065d57602036600319011261065d5760206107b860043561396a565b503461065d57602036600319011261065d5760016040602092600435815260098452200154604051908152f35b503461065d57604036600319011261065d576001600160401b03600435818111610c1a576125e1903690600401613240565b90602435908111610c1a576125fa903690600401613240565b9080516020809201209182845260148252604084206040519081848254918281520191875284872090875b818110612911575050508161263b9103826131cd565b849282810191845b81518110156127105786885260138352604088206126618284614bfc565b518952835260a06040892060405161267881613169565b81548152600180841b03600183015416868201526005604051926126aa846126a38160028501613899565b03856131cd565b83604084015260038101546060840152600481015460808401520154928391015284815191012086518620149081612706575b506126f1575b6126ec906140a3565b612643565b946126fe6126ec916140a3565b9590506126e3565b90504210386126dd565b509293919361271e83614787565b9261272c60405194856131cd565b80845261273b601f1991614787565b0182885b8281106128d7575050508693875b815181101561283657878952601384526040892061276b8284614bfc565b518a528452604089206040519061278182613169565b8054825260018101546001600160a01b031686830152604051906005906127b6836127af8160028501613899565b03846131cd565b82604085015260038101546060850152600481015460808501520154908160a084015286815191012085518a2014908161282c575b50612800575b506127fb906140a3565b61274d565b9590612825826128136127fb94916140a3565b9861281e828a614bfc565b5287614bfc565b50906127f1565b90504210386127eb565b83898660405191838301848452825180915260408401948060408360051b870101940192955b8287106128695785850386f35b909192938280600192603f1989820301855287519081518152848060a01b038383015116838201526128a9604083015160c0806040850152830190613315565b91606080820151908301526080808201519083015260a080910151910152960192019601959291909261285c565b6040516128e381613169565b8a81528a838201528a60608060408401528201528a60808201528a60a082015282828801015201839061273f565b825484529286019260019283019201612625565b5061292f36613364565b90818452601760205261294860ff6040862054166152ed565b61295182615e38565b828552601860205260408520541161297e576107fe926129796129748433613c95565b613a88565b613d06565b60405162461bcd60e51b815260206004820152603f60248201527f54696d654372656469743a20746f6b656e2076616c7565206973206c6573732060448201527f7468616e206d696e696d756d207472616e7366657261626c652076616c7565006064820152608490fd5b503461065d578060031936011261065d576020600554604051908152f35b503461065d5760e036600319011261065d57612a2161313d565b906001600160401b03606435818111610c1a57612a42903690600401613240565b608435828111610ce457612a5a903690600401613240565b9160a435818111610aa757612a73903690600401613240565b9360c43591821161065d5760206107b887878787612a943660048a01613240565b93604435906024359061426e565b503461065d57602036600319011261065d57600854604051631375d84360e01b81526004803590820152908290829060249082906001600160a01b03165afa908115610786578261075f9392610763575050604051918291602083526020830190613315565b6040612b23836001612b193661333a565b9591949095614fa6565b928481526017602052612b3b60ff83832054166152ed565b8481526018602052612b5282822054851015615347565b8481526015602052200154421015612b70576020926107b8926153cd565b60405162461bcd60e51b815260206004820152603160248201527f54696d654372656469743a2063616e6e6f74207472616e736665722066726f6d6044820152701030b71032bc3834b932b2103a37b5b2b760791b6064820152608490fd5b503461065d576020908160031936011261065d5760043560018060a01b036008541690604051636c0360eb60e01b81528381600481865afa9081156112e1578491612e87575b508215612c8657508290602460405180948193633601bfc560e11b835260048301525afa918215612c7a578092612c5f575b5050905b61075f604051928284938452830190613315565b612c7392503d8091833e61077781836131cd565b3880612c47565b604051903d90823e3d90fd5b80519093925015612e4e578190807a184f03e93ff9f4daa797ed6e38ed64bf6a1f0100000000000000008181811015612e40575b5050856d04ee2d6d415b85acef810000000080841015612e32575b5050662386f26fc1000080831015612e23575b506305f5e10080831015612e14575b5061271080831015612e05575b506064821015612df5575b600a80921015612deb575b60019081602181860195612d46612d30886131ee565b97612d3e604051998a6131cd565b8089526131ee565b878b019890601f1901368a3750860101905b612db5575b50505050612da092612daf926025926040519583612d8488955180928b80890191016132f2565b84019164736c6f742f60d81b89840152518093868401906132f2565b010360058101845201826131cd565b90612c4b565b600019019083906f181899199a1a9b1b9c1cb0b131b232b360811b8282061a835304918215612de657919082612d58565b612d5d565b9160010191612d1a565b9190606460029104910191612d0f565b60049193920491019138612d04565b60089193920491019138612cf7565b60109193920491019138612ce8565b930192909104908538612cd5565b604094500491503880612cba565b5060405191508282016001600160401b03811183821017612e73576040528152612daf565b634e487b7160e01b82526041600452602482fd5b612e9b91503d8086833e61077781836131cd565b38612c15565b50604036600319011261065d57612eb661313d565b602435906001600160a01b038080612ecd85613c12565b16921691612edd81841415613b6f565b803314908115612fb3575b5015612f485782845260066020526004612f05604086205461392f565b500180546001600160a01b03191683179055612f2083613c12565b167f8c5be1e5ebec7d5bd14f71427d1e84f3dd0314c0f7b2291e5b200ac8c7c3b9258480a480f35b60405162461bcd60e51b815260206004820152603960248201527f455243333532353a20617070726f76652063616c6c6572206973206e6f74206f60448201527f776e6572206e6f7220617070726f76656420666f7220616c6c000000000000006064820152608490fd5b9050845260076020526002604085200133855260205260ff60408520541638612ee8565b503461065d57602036600319011261065d5760206118fb600435613c4d565b503461065d578060031936011261065d5760405190808054613017816137bb565b8085529160019180831690811561309b5750600114613041575b61075f856114df818703826131cd565b80809450527f290decd9548b62a8d60345a988386fc84ba6bc95484008f6362f93160ef3e5635b8284106130835750505081016020016114df8261075f613031565b80546020858701810191909152909301928101613068565b86955061075f969350602092506114df94915060ff191682840152151560051b8201019293613031565b503461065d5760206107b86130d93661325e565b9695909594919493929361479e565b9050346112aa5760203660031901126112aa5760043563ffffffff60e01b8116809103610c1a5760209250637965db0b60e01b811490811561312c575b5015158152f35b6301ffc9a760e01b14905038613125565b600435906001600160a01b038216820361064857565b602435906001600160a01b038216820361064857565b60c081019081106001600160401b0382111761049057604052565b6001600160401b03811161049057604052565b604081019081106001600160401b0382111761049057604052565b602081019081106001600160401b0382111761049057604052565b90601f801991011681019081106001600160401b0382111761049057604052565b6001600160401b03811161049057601f01601f191660200190565b929192613215826131ee565b9161322360405193846131cd565b829481845281830111610648578281602093846000960137010152565b9080601f830112156106485781602061325b93359101613209565b90565b610100600319820112610648576004356001600160a01b038116810361064857916024359160443591606435916001600160401b039060843582811161064857816132ab91600401613240565b9260a43583811161064857826132c391600401613240565b9260c43581811161064857836132db91600401613240565b9260e4359182116106485761325b91600401613240565b60005b8381106133055750506000910152565b81810151838201526020016132f5565b9060209161332e815180928185528580860191016132f2565b601f01601f1916010190565b606090600319011261064857600435906024356001600160a01b0381168103610648579060443590565b6060906003190112610648576001600160a01b0390600435828116810361064857916024359081168103610648579060443590565b606090600319011261064857600435906024359060443590565b60009080825260209060098252604092838120338252835260ff8482205416156133dd5750505050565b8351916001600160401b03903360608501838111868210176136d4578752602a855285850191873684378551156136c057603083538551916001928310156136ac576078602188015360295b838111613642575061360057908751936080850190858210908211176135ec578852604284528684019460603687378451156135d8576030865384518210156135d85790607860218601536041915b81831161356a5750505061352857613524938693613508936134f96048946134d09a519a8b957f416363657373436f6e74726f6c3a206163636f756e74200000000000000000008c88015251809260378801906132f2565b8401917001034b99036b4b9b9b4b733903937b6329607d1b6037840152518093868401906132f2565b010360288101875201856131cd565b5192839262461bcd60e51b845260048401526024830190613315565b0390fd5b60648587519062461bcd60e51b825280600483015260248201527f537472696e67733a20686578206c656e67746820696e73756666696369656e746044820152fd5b909192600f811660108110156135c4576f181899199a1a9b1b9c1cb0b131b232b360811b901a61359a8588613794565b5360041c9280156135b057600019019190613478565b634e487b7160e01b82526011600452602482fd5b634e487b7160e01b83526032600452602483fd5b634e487b7160e01b81526032600452602490fd5b634e487b7160e01b86526041600452602486fd5b60648789519062461bcd60e51b825280600483015260248201527f537472696e67733a20686578206c656e67746820696e73756666696369656e746044820152fd5b90600f81166010811015613698576f181899199a1a9b1b9c1cb0b131b232b360811b901a613670838a613794565b5360041c9080156136845760001901613429565b634e487b7160e01b87526011600452602487fd5b634e487b7160e01b88526032600452602488fd5b634e487b7160e01b86526032600452602486fd5b634e487b7160e01b85526032600452602485fd5b634e487b7160e01b85526041600452602485fd5b906000918083526009602052604083209160018060a01b03169182845260205260ff60408420541661371957505050565b8083526009602052604083208284526020526040832060ff1981541690557ff6391f5c32d9c69d2a47ea670b442974b53935d1edc7fd64eb21e047a839171b339380a4565b8181029291811591840414171561377157565b634e487b7160e01b600052601160045260246000fd5b9190820180921161377157565b9081518110156137a5570160200190565b634e487b7160e01b600052603260045260246000fd5b90600182811c921680156137eb575b60208310146137d557565b634e487b7160e01b600052602260045260246000fd5b91607f16916137ca565b601c5460009291613805826137bb565b8082529160019081811690811561387c575060011461382357505050565b91929350601c6000527f0e4562a10381dec21b205ed72637e6b1b523bdd0e4d4d50af5cd23dd4500a211916000925b84841061386457505060209250010190565b80546020858501810191909152909301928101613852565b915050602093945060ff929192191683830152151560051b010190565b90600092918054916138aa836137bb565b91828252600193848116908160001461390c57506001146138cc575b50505050565b90919394506000526020928360002092846000945b8386106138f85750505050010190388080806138c6565b8054858701830152940193859082016138e1565b9294505050602093945060ff191683830152151560051b010190388080806138c6565b6005548110156137a5576006906005600052027f036b6384b5eca791c62761152d0c79bb0604c104a5fb6f4eb0703f3154bb3db00190600090565b61397381614b01565b6000526006602052600161398b60406000205461392f565b50015490565b602081830312610648578051906001600160401b038211610648570181601f820112156106485780516139c3816131ee565b926139d160405194856131cd565b818452602082840101116106485761325b91602080850191016132f2565b81156139f9570490565b634e487b7160e01b600052601260045260246000fd5b6001600160a01b03168015613a2f57600052600760205260406000205490565b60405162461bcd60e51b815260206004820152602b60248201527f455243333532353a2062616c616e636520717565727920666f7220746865207a60448201526a65726f206164647265737360a81b6064820152608490fd5b15613a8f57565b60405162461bcd60e51b815260206004820152603260248201527f455243333532353a207472616e736665722063616c6c6572206973206e6f74206044820152711bdddb995c881b9bdc88185c1c1c9bdd995960721b6064820152608490fd5b90613b13939291613b036129748433613c95565b613b0e838383613d06565b61414d565b15613b1a57565b60405162461bcd60e51b815260206004820152602760248201527f455243333532353a207472616e7366657220746f206e6f6e204552433732315260448201526632b1b2b4bb32b960c91b6064820152608490fd5b15613b7657565b60405162461bcd60e51b815260206004820152602260248201527f455243333532353a20617070726f76616c20746f2063757272656e74206f776e60448201526132b960f11b6064820152608490fd5b15613bcd57565b60405162461bcd60e51b815260206004820152601960248201527f455243333532353a20696e76616c696420746f6b656e204944000000000000006044820152606490fd5b613c1b81614b01565b6000526006602052613c3160406000205461392f565b50600301546001600160a01b031690613c4b821515613bc6565b565b613c5681614b01565b6000526006602052613c6c60406000205461392f565b50600401546001600160a01b031690565b80548210156137a55760005260206000200190600090565b906001600160a01b038080613ca984613c12565b16931691838314938415613cdc575b508315613cc6575b50505090565b613cd291929350613c4d565b1614388080613cc0565b909350600052600760205260026040600020018260005260205260ff604060002054169238613cb8565b613d0f83613c12565b6001600160a01b0391821691908116829003613f9a57808316928315613f4757613d388561396a565b50613d4285613feb565b5060009185835260209060068252604090613d5f8286205461392f565b50600490810180546001600160a01b03199081169091559091898782613d8483613c12565b167f8c5be1e5ebec7d5bd14f71427d1e84f3dd0314c0f7b2291e5b200ac8c7c3b9258280a4898752600685526005613dbe8589205461392f565b500180549091858988818f5b868410613f105750505050505050805487825580613ef7575b5050888652600684526003613dfa8488205461392f565b5001908154169055858552600783528185209182549360001994858101908111613ee45790613e2b88939286613c7d565b90549060031b1c9060018601908c85528181528385205492613e6c81613e51868b613c7d565b90919082549060031b600019811b9283911b16911916179055565b855252818320558982528120558154908115613ed1575092828892613ecd947fddf252ad1be2c89b69c2b068fc378daa952ba7f163c4a11628f55a4df523b3ef97960191613eba8383613c7d565b909182549160031b1b191690555561402f565b80a4565b634e487b7160e01b865260319052602485fd5b634e487b7160e01b885260118452602488fd5b613f09918852858820908101906140b2565b3880613de3565b613f3d9486928b613f21878c613c7d565b96905494835252209260031b1c168c5289528a888120556140a3565b8690888b8f613dca565b60405162461bcd60e51b815260206004820152602560248201527f455243333532353a207472616e7366657220746f20746865207a65726f206164604482015264647265737360d81b6064820152608490fd5b60405162461bcd60e51b8152602060048201526024808201527f455243333532353a207472616e736665722066726f6d20696e76616c6964206f6044820152633bb732b960e11b6064820152608490fd5b613ff481614b01565b6000526006602052600261398b60406000205461392f565b90815491600160401b8310156104905782613e51916001613c4b95018155613c7d565b906040613c4b926000908382526006602052600361404f8484205461392f565b500180546001600160a01b0319166001600160a01b03909216918217905580825260076020818152848420805487865260019190910182528585205591835290522061400c565b9190820391821161377157565b60001981146137715760010190565b8181106140bd575050565b600081556001016140b2565b90600160401b8111610490578154908083558181106140e757505050565b613c4b92600052602060002091820191016140b2565b9081602091031261064857516001600160e01b0319811681036106485790565b3d15614148573d9061412e826131ee565b9161413c60405193846131cd565b82523d6000602084013e565b606090565b9192813b156142655760209161419f916000604051958680958194630a85bd0160e11b9a8b845233600485015260018060a01b0380951660248501526044840152608060648401526084830190613315565b0393165af160009181614235575b50614227576141ba61411d565b805190816142225760405162461bcd60e51b815260206004820152603260248201527f4552433732313a207472616e7366657220746f206e6f6e20455243373231526560448201527131b2b4bb32b91034b6b83632b6b2b73a32b960711b6064820152608490fd5b602001fd5b6001600160e01b0319161490565b61425791925060203d811161425e575b61424f81836131cd565b8101906140fd565b90386141ad565b503d614245565b50505050600190565b600380546001019081905596929591949093600093926001600160a01b0392909183871680156146f5578a156146a6576142a78b614a39565b8015614697575b6146525760409788516142c0816131b2565b88815289518a8e6142d083613169565b8083528d60208401908152828401908d82528d6060860193898552608087019582875260a08801988952600554928392815260066020522055600160401b81101561463e57806001614325920160055561392f565b95909561462a5751855551600185015551600284015551600383018054918b166001600160a01b03199283161790559051600483018054918b16919092161790559051805191600501906001600160401b038311614616579060208f9594939261438f84846140c9565b01908b5260208b208b5b8381106145f35750505050826143ae9161402f565b877fddf252ad1be2c89b69c2b068fc378daa952ba7f163c4a11628f55a4df523b3ef8180a487868b7fe4f48c240d3b994948aa54f3e2f5fca59263dfe1d52b6e4cf39a5d249b5ccb658280a4614404898b614744565b8360085416803b156106595761444091879189838e825196879586948593632108947560e21b8552600485015260248401526044830190613315565b03925af180156145e9576145d6575b508260085416803b15610aa35761448b9186918b838a5180968195829463246a908b60e01b845260048401528d60248401526044830190613315565b03925af180156145cc579085916145b8575b50508160085416803b15610aa7576144da9185918a838951809681958294630190503b60e61b845260048401528c60248401526044830190613315565b03925af180156145ae5790849161459a575b50506008541690813b15610c1a57614529839283928651948580948193637e468a5160e01b83528d60048401528a60248401526044830190613315565b03925af180156145905761457c575b505051838152602081019190915260408101919091527f84eeb48eca46cea54afc9753345f6038981672ea565f32885420829dfd88aea69080606081015b0390a190565b6145868291613184565b61065d5780614538565b83513d84823e3d90fd5b6145a390613184565b610c1a5782386144ec565b85513d86823e3d90fd5b6145c190613184565b610ce457833861449d565b86513d87823e3d90fd5b6145e290959195613184565b933861444f565b87513d88823e3d90fd5b82939495965060208b6001939451169401938184015501908f9594939291614399565b634e487b7160e01b8b52604160045260248bfd5b634e487b7160e01b8f5260048f905260248ffd5b634e487b7160e01b8f52604160045260248ffd5b60405162461bcd60e51b815260206004820152601d60248201527f455243333532353a20746f6b656e20616c7265616479206d696e7465640000006044820152606490fd5b506146a18b614a7f565b6142ae565b60405162461bcd60e51b815260206004820152602160248201527f455243333532353a2063616e6e6f74206d696e74207a65726f20746f6b656e496044820152601960fa1b6064820152608490fd5b60405162461bcd60e51b815260206004820152602160248201527f455243333532353a206d696e7420746f20746865207a65726f206164647265736044820152607360f81b6064820152608490fd5b90600080516020616074833981519152602060009284845260068252600261476f604086205461392f565b500161477c828254613787565b9055604051908152a3565b6001600160401b0381116104905760051b60200190565b949096939591956002549660ff6000981660018060a01b039586600e541691604d8111614a255760209392916147d791600a0a906139ef565b60408051630bbed13160e21b81526001600160a01b039b909b1660048c015260248b019c909c5260448a01929092526064890191909152969896899060849082908b905af19788156149e85787986149f2575b5060016003540197886003558888526011602052868820558360085416803b156106555761487d9188918a838a51809681958294632108947560e21b845260048401528d60248401526044830190613315565b03925af180156149e8576149d5575b508260085416803b15610659576148c89187918983895180968195829463246a908b60e01b845260048401528c60248401526044830190613315565b03925af180156149cb579086916149b7575b5050816008541690813b15610aa357614918869283928751948580948193630190503b60e61b83528d60048401528b60248401526044830190613315565b03925af180156149ad57908591614999575b50506008541690813b15610ce4576149698392859492859351958680948193637e468a5160e01b83528b60048401528860248401526044830190613315565b03925af1908115614990575061497e57505090565b6149888291613184565b61065d575090565b513d84823e3d90fd5b6149a290613184565b610ce457833861492a565b84513d87823e3d90fd5b6149c090613184565b610aa75784386148da565b85513d88823e3d90fd5b6149e190969196613184565b943861488c565b86513d89823e3d90fd5b9097506020813d8211614a1d575b81614a0d602093836131cd565b810103126106595751963861482a565b3d9150614a00565b634e487b7160e01b8b52601160045260248bfd5b60055415159081614a48575090565b8091506000526006602052614a6160406000205461392f565b50541490565b90816020910312610648575180151581036106485790565b8060005260116020526040600020541590811591614a9b575090565b600e546040516341ce4b3f60e01b81526004810192909252909150602090829060249082906001600160a01b03165afa908115614af557600091614add575090565b61325b915060203d81116121455761213981836131cd565b6040513d6000823e3d90fd5b613c4b90614b0e81614a39565b908115614b33575b8115614b23575b50613bc6565b614b2d9150614a7f565b38614b1d565b9050614b3e81614a7f565b90614b16565b9081602091031261064857516001600160a01b03811681036106485790565b614b6c81614b01565b614b7581614a39565b80614be9575b15614b895761325b90613c12565b60018060a01b03600e541690600052601160205260206040600020546024604051809481936331a9108f60e11b835260048301525afa908115614af557600091614bd1575090565b61325b915060203d81116121dd576121ce81836131cd565b50614bf38161396a565b600c5414614b7b565b80518210156137a55760209160051b010190565b6001600160a01b038083169391928415614cf95783614c2e91614d51565b15614c7c575b5060207f621b050de0ad08b51d19b48b3e6df75348c4de6bdd93e81b252ca62e28265b1b918360005260048252604060002085600052825280604060002055604051908152a3565b908260005260066020526005614c9660406000205461392f565b500190815492600160401b8410156104905785614cdc8560209560017f621b050de0ad08b51d19b48b3e6df75348c4de6bdd93e81b252ca62e28265b1b98018155613c7d565b909283549160031b90811b9283911b169119161790559150614c34565b60405162461bcd60e51b815260206004820152602a60248201527f455243333532353a20617070726f76652076616c756520746f20746865207a65604482015269726f206164647265737360b01b6064820152608490fd5b6000908282526006602090808252604090614d6e8286205461392f565b509260058094015496865b888110614d8c5750505050505050905090565b818852838352614daa8187614da3888c205461392f565b5001613c7d565b905460039190911b1c6001600160a01b0390811690881614614dd457614dcf906140a3565b614d79565b505050505050505050600190565b90614dec82614b01565b614df582614a39565b80614e8a575b15614e095761325b91614e9d565b602060018060a01b0391604483600e541660009586526011845260408620549060405195869485936338d1782f60e21b855260048501521660248301525afa918215612c7a578092614e5a57505090565b9091506020823d8211614e82575b81614e75602093836131cd565b8101031261065d57505190565b3d9150614e68565b50614e948261396a565b600c5414614dfb565b614ea681614b01565b600052600460205260406000209060018060a01b031660005260205260406000205490565b60ff16604d811161377157600a0a90565b60405190614ee982613197565b60078252667365636f6e647360c81b6020830152565b60405190614f0c82613197565b60078252666d696e7574657360c81b6020830152565b60405190614f2f82613197565b6005825264686f75727360d81b6020830152565b60405190614f5082613197565b60048252636461797360e01b6020830152565b60405190614f7082613197565b60068252656d6f6e74687360d01b6020830152565b60405190614f9282613197565b6005825264796561727360d81b6020830152565b6000906040805190614fc282614fbb816137f5565b03836131cd565b8151602080930120614fd2614edc565b80519084012003614ff557505061325b9150610d5e60ff601b5460a01c16614ecb565b805161500b81615004816137f5565b03826131cd565b828151910120615019614eff565b8051908401200361504e575050603c808202925081159183041417156137715761325b90610d5e60ff601b5460a01c16614ecb565b805161505d81615004816137f5565b82815191012061506b614f22565b805190840120036150b757505061508e9150610d5e60ff601b5460a01c16614ecb565b603c810290808204603c148115171561377157610e100290808204603c14901517156137715790565b80516150c681615004816137f5565b8281519101206150d4614f43565b805190840120036151335750509050601881029080820460181481151715613771576105a0810291808304603c149015171561377157620151800290808204603c14901517156137715761325b90610d5e60ff601b5460a01c16614ecb565b7f8be27e132b8285429e5647023e835848842eefd3c91595a90151c438482c3a36815161516381615004816137f5565b838151910120647765656b7360d81b84845161517e81613197565b600581520152036151f057505090506007810290808204600714811517156137715760a88102918083046018149015171561377157612760810291808304603c14901517156137715762093a800290808204603c14901517156137715761325b90610d5e60ff601b5460a01c16614ecb565b80516151ff81615004816137f5565b82815191012061520d614f63565b805190840120036152815750509050603c810290808204603c148115171561377157610e10810291808304603c14901517156137715762015180810291808304601814901517156137715762278d000290808204601e14901517156137715761325b90610d5e60ff601b5460a01c16614ecb565b5161528f81615004816137f5565b8181519101209061529e614f85565b8051910120146152ac575090565b906301da9c00918281029281840414901517156152d9575061325b90610d5e60ff601b5460a01c16614ecb565b634e487b7160e01b81526011600452602490fd5b156152f457565b60405162461bcd60e51b815260206004820152602560248201527f54696d654372656469743a207472616e736665727320617265206e6f7420616c6044820152641b1bddd95960da1b6064820152608490fd5b1561534e57565b60405162461bcd60e51b815260206004820152604b60248201527f54696d654372656469743a20616d6f756e74206265696e67207472616e73666560448201527f726564206973206c657373207468616e206d696e696d756d207472616e73666560648201526a7261626c652076616c756560a81b608482015260a490fd5b91909160009080825260209160118352604092838220541560001461573b576153f785843361581e565b6001958660035401968760035561540d8561396a565b916001600160a01b03808216929083156156ed578a1561569f576154308b614a39565b8015615690575b61564c578851615446816131b2565b8781528951888b8e61545784613169565b8084528a84018a81528b8386019285845260608701948c8652608088019680885260a08901998a5260066005549485948352522055600160401b8110156156385780896154a7920160055561392f565b95909561562457906005959493929151855551888501555160028401558560038401915116906001600160601b0360a01b9182825416179055856004840192511690825416179055019051918251926001600160401b038411610a8f57908883928f9b9a9998979695948561551b916140c9565b0191895287892090895b84811061560e575050505050507f6d811e6a20ae5461a4ef22a6998c1d958defe727f1cc522b6eb792bc8e6f7266989796938693846155f1979461557b6145769a6000805160206160748339815191529661402f565b857fddf252ad1be2c89b69c2b068fc378daa952ba7f163c4a11628f55a4df523b3ef8180a483857fe4f48c240d3b994948aa54f3e2f5fca59263dfe1d52b6e4cf39a5d249b5ccb658280a4838352600681526155d98884205461392f565b50508751838152a36155ec8588836158b7565b61396a565b915192839286846040919493926060820195825260208201520152565b83518216818401558f9b50928901928501615525565b634e487b7160e01b8e5260048e905260248efd5b634e487b7160e01b8e52604160045260248efd5b885162461bcd60e51b815260048101879052601d60248201527f455243333532353a20746f6b656e20616c7265616479206d696e7465640000006044820152606490fd5b5061569a8b614a7f565b615437565b885162461bcd60e51b815260048101879052602160248201527f455243333532353a2063616e6e6f74206d696e74207a65726f20746f6b656e496044820152601960fa1b6064820152608490fd5b885162461bcd60e51b815260048101879052602160248201527f455243333532353a206d696e7420746f20746865207a65726f206164647265736044820152607360f81b6064820152608490fd5b600e5484516307a42e0160e11b8152600481018590526001600160a01b0397881660248201526044810187905291969192918791849160649183918691165af19586156158125781966157bb575b505050906145766155f17f6d811e6a20ae5461a4ef22a6998c1d958defe727f1cc522b6eb792bc8e6f7266949361396a565b909180939650813d831161580b575b6157d481836131cd565b8101031261065d575051926145766155f17f6d811e6a20ae5461a4ef22a6998c1d958defe727f1cc522b6eb792bc8e6f7266615789565b503d6157ca565b508351903d90823e3d90fd5b6158288183614e9d565b6158328383613c95565b15806158ab575b6158435750505050565b8381106158665761585d9361585791614096565b91614c10565b388080806138c6565b60405162461bcd60e51b815260206004820152601f60248201527f455243333532353a20696e73756666696369656e7420616c6c6f77616e6365006044820152606490fd5b50600019811415615839565b6158c081614a39565b8015615b4d575b15615af8576158d582614a39565b8015615ae9575b15615a965780600052602092600684526040926158fc846000205461392f565b508160005260068652615912856000205461392f565b50906002810190815490858210615a3f57600101546001840154036159e457916002916159458661598298979695614096565b905501615953838254613787565b90558083600080516020616074833981519152888851868152a3845192615979846131b2565b60008452615b5c565b1561598b575050565b60849250519062461bcd60e51b82526004820152602d60248201527f455243333532353a207472616e736665722072656a656374656420627920455260448201526c21999a991aa932b1b2b4bb32b960991b6064820152fd5b865162461bcd60e51b815260048101899052602e60248201527f455243333532353a207472616e7366657220746f20746f6b656e20776974682060448201526d191a5999995c995b9d081cdb1bdd60921b6064820152608490fd5b875162461bcd60e51b8152600481018a9052602a60248201527f455243333532353a20696e73756666696369656e742062616c616e636520666f60448201526939103a3930b739b332b960b11b6064820152608490fd5b60405162461bcd60e51b815260206004820152602560248201527f455243333532353a207472616e7366657220746f20696e76616c696420746f6b604482015264195b88125160da1b6064820152608490fd5b50615af382614a7f565b6158dc565b60405162461bcd60e51b815260206004820152602760248201527f455243333532353a207472616e736665722066726f6d20696e76616c696420746044820152661bdad95b88125160ca1b6064820152608490fd5b50615b5781614a7f565b6158c7565b929092615b6884613c12565b803b15615c6f576040516301ffc9a760e01b8152629ce20b60e01b6004820181905295602095926001600160a01b0316918681602481865afa60009181615c50575b50615bc5575050505050505050615bbf61411d565b50600190565b15615c445760008694615c04604051978896879586948d865233600487015260248601526044850152606484015260a0608484015260a4830190613315565b03925af1918215614af557600092615c27575b50506001600160e01b0319161490565b615c3d9250803d1061425e5761424f81836131cd565b3880615c17565b50505050505050600190565b615c68919250883d8a116121455761213981836131cd565b9038615baa565b5050505050600190565b9091615c8483614a39565b80615e25575b8015615e16575b15615d9f57615c9f82614a39565b80615d8c575b80615d69575b15615d0f5790615d0a82615ce27fdf7a601a0a201ccd4b4bfcfd610913188d931867997223d226f85f2f2673988a9594843361581e565b615ced8185856158b7565b604051938493846040919493926060820195825260208201520152565b0390a1565b600e546001600160a01b0316803b1561064857604051630310ed7f60e41b8152600481019390935260248301939093526044820152906000908290606490829084905af18015614af557615d605750565b613c4b90613184565b50615d7383614a39565b8015615cab5750615d838361396a565b600c5414615cab565b50615d968261396a565b600c5414615ca5565b60a460405162461bcd60e51b815260206004820152604460248201527f546f6b656e204944206f66207265636569766572206e6f74207265636f676e6960448201527f7a6564206279207468697320636f6e7472616374206f722074686520726567696064820152637374727960e01b6084820152fd5b50615e2083614a7f565b615c91565b50615e2f8361396a565b600c5414615c8a565b615e4a90615e4581614b01565b615ff1565b6040805190615e5c82614fbb816137f5565b8151602080930120615e6c614edc565b80519084012003615e8e57505061325b906103d360ff601b5460a01c16614ecb565b8051615e9d81615004816137f5565b828151910120615eab614eff565b80519084012003615ed3575050615ecf603c916103d360ff601b5460a01c16614ecb565b0490565b8051615ee281615004816137f5565b828151910120615ef0614f22565b80519084012003615f15575050615ecf610e10916103d360ff601b5460a01c16614ecb565b8051615f2481615004816137f5565b828151910120615f32614f43565b80519084012003615f58575050615ecf62015180916103d360ff601b5460a01c16614ecb565b8051615f6781615004816137f5565b828151910120615f75614f63565b80519084012003615f9b575050615ecf62278d00916103d360ff601b5460a01c16614ecb565b51615fa981615004816137f5565b81815191012090615fb8614f85565b805191012003615fdc57615ecf6301da9c00916103d360ff601b5460a01c16614ecb565b61325b906103d360ff601b5460a01c16614ecb565b615ffa81614b01565b61600381614a39565b80616060575b156160175761325b90613feb565b600090815260116020526040812054602060018060a01b03600e541691602460405180948193631398fee160e31b835260048301525afa918215612c7a578092614e5a57505090565b5061606a8161396a565b600c541461600956fe0b2aac84f3ec956911fd78eae5311062972ff949f38412e8da39069d9f068cc6519b8a896d3cf44bd2d0545987d41a13bfb2ba37ce6ce401c753218178535608a2646970667358221220050283f37dc54f559fa7d5d9a7b99e60ec1d3b4ace44e663747288b55c30bdf564736f6c634300081100336080604052346200048657620020b7803803806200001d816200048b565b9283398101608082820312620004865781516001600160401b0391908281116200048657816200004f918501620004b1565b91602092838501518281116200048657836200006d918701620004b1565b92604086015183811162000486576060916200008b918801620004b1565b9501516001600160a01b03811695908690036200048657815193838511620002c3576001948554938685811c951680156200047b575b88861014620002a2578190601f9586811162000425575b508890868311600114620003bd57600092620003b1575b5050600019600383901b1c191690861b1785555b805190848211620002c357600254908682811c92168015620003a6575b88831014620002a25781858493116200034f575b508790858311600114620002e557600092620002d9575b5050600019600383901b1c191690851b176002555b8051928311620002c35760039485548581811c91168015620002b8575b82821014620002a25783811162000257575b5080928411600114620001ed5750928293918392600094620001e1575b50501b9160001990841b1c19161790555b600080546001600160a01b031916919091179055604051611b939081620005248239f35b015192503880620001ac565b919083601f1981168760005284600020946000905b888383106200023c575050501062000223575b505050811b019055620001bd565b015160001983861b60f8161c1916905538808062000215565b85870151885590960195948501948793509081019062000202565b86600052816000208480870160051c82019284881062000298575b0160051c019086905b8281106200028b5750506200018f565b600081550186906200027b565b9250819262000272565b634e487b7160e01b600052602260045260246000fd5b90607f16906200017d565b634e487b7160e01b600052604160045260246000fd5b0151905038806200014b565b90879350601f198316916002600052896000209260005b8b8282106200033857505084116200031e575b505050811b0160025562000160565b015160001960f88460031b161c191690553880806200030f565b8385015186558b97909501949384019301620002fc565b9091506002600052876000208580850160051c8201928a86106200039c575b918991869594930160051c01915b8281106200038c57505062000134565b600081558594508991016200037c565b925081926200036e565b91607f169162000120565b015190503880620000ef565b90889350601f19831691846000528a6000209260005b8c8282106200040e5750508411620003f4575b505050811b01855562000103565b015160001960f88460031b161c19169055388080620003e6565b8385015186558c97909501949384019301620003d3565b90915087600052886000208680850160051c8201928b861062000471575b918a91869594930160051c01915b82811062000461575050620000d8565b600081558594508a910162000451565b9250819262000443565b94607f1694620000c1565b600080fd5b6040519190601f01601f191682016001600160401b03811183821017620002c357604052565b919080601f84011215620004865782516001600160401b038111620002c357602090620004e7601f8201601f191683016200048b565b92818452828287010111620004865760005b8181106200050f57508260009394955001015290565b8581018301518482018401528201620004f956fe608060408181526004908136101561001657600080fd5b600092833560e01c9081631375d843146113cd57508063246a908b146112cf57806355f804b31461118b57806364140ec01461108c5780636c0360eb14610fcd5780636c037f8a14610d0f57806371f0442e14610c7b578063725fa09c146108c05780637e468a51146107c1578063842251d414610685578063894b4c2e146101755763b3154c08146100a857600080fd5b34610171576020918260031936011261016d5780358452825280832091815192848154906100d5826118e1565b80875292600192808416908115610149575060011461010e575b61010a8787610100828c03836114e3565b5191829182611485565b0390f35b9080949750528583205b828410610136575050508261010a94610100928201019438806100ef565b8054868501880152928601928101610118565b60ff19168887015250505050151560051b83010192506101008261010a38806100ef565b8380fd5b8280fd5b50903461017157602092836003193601126106825782516306fdde0360e01b81529180359082848281335afa938415610678578394610654575b506101b98261179e565b926102056022875180968a6101d78184019a8b815193849201611462565b820161202360f01b8c8201526101f68c83519384918785019101611462565b010360028101875201856114e3565b828152818752858120865181549391899184610220876118e1565b80835284830193600198868a821691826000146106345750506001146105fb575b505090610254816102c9949303826114e3565b6102e561026030611a1a565b898852600686526102d78d808a209a60058952818b2091519788948a86019a6102ac61028b8d61191b565b91692f636f6e74726163742f60b01b83528351938491600a85019101611462565b019c6011662f746f6b656e2f60c81b9e8f600a8201520190611997565b602f60f81b81520190611997565b03601f1981018552846114e3565b8a51631398fee160e31b81528581018990528c81602481335afa80156105c25787906105cc575b610316915061179e565b8b5163131f9f3f60e11b8152958601899052948c81602481335afa9081156105c2578d918d918991610589575b5061034d9061179e565b9761035733611a1a565b9a815260068352208c51713d91383937b832b93a34b2b9afbab934911d60711b818401908152601160f91b60328301529a90998a93909161039a6033860161191b565b9068636f6e74726163742f60b81b825280518093600984019201916103be92611462565b019060098201526010016103d191611997565b6f17b83937b832b93a34b2b9973539b7b760811b815261227d60f01b601082015203600d198101885260120161040790886114e3565b8a51998a998d683d913730b6b2911d1160b91b908c015251908160298c0161042e92611462565b890190701116113232b9b1b934b83a34b7b7111d1160791b6029830152519182603a830161045b92611462565b01906a11161134b6b0b3b2911d1160a91b603a8301525191826045830161048192611462565b016c1116113130b630b731b2911d1160991b6045820152815191828a605284019201916104ad92611462565b016911161139b637ba111d1160b11b60528201528151918289605c84019201916104d692611462565b01906e111611383937b832b93a34b2b9911d60891b605c830152519182606b830161050092611462565b01606b8101607d60f81b905203604c81018252606c0161052090826114e3565b61052990611631565b81517f646174613a6170706c69636174696f6e2f6a736f6e3b6261736536342c00000084820152815190938492610567918391603d86019101611462565b810103601d81018352603d0161057d90836114e3565b5161010a819282611485565b928092508391503d83116105bb575b6105a281836114e3565b810103126105b7578b61034d8e925190610343565b8680fd5b503d610598565b8c513d89823e3d90fd5b508c81813d83116105f4575b6105e281836114e3565b810103126105b757610316905161030c565b503d6105d8565b8592508752818720908888925b82841061061e5750505082010161025482610241565b80548487018601528794909301928a9101610608565b60ff1916875292151560051b850190920192506102549150839050610241565b6106719194503d8085833e61066981836114e3565b8101906115a0565b92386101af565b85513d85823e3d90fd5b80fd5b508290346107bd576106963661156d565b939083526020916006835283209184519167ffffffffffffffff83116107aa57506106c183546118e1565b601f8111610767575b5080601f831160011461070557508394829394926106fa575b50508160011b916000199060031b1c191617905580f35b0151905084806106e3565b90601f198316958486528286209286905b88821061074f57505083600195969710610736575b505050811b01905580f35b015160001960f88460031b161c1916905584808061072b565b80600185968294968601518155019501930190610716565b838552818520601f840160051c8101918385106107a0575b601f0160051c01905b81811061079557506106ca565b858155600101610788565b909150819061077f565b634e487b7160e01b855260419052602484fd5b5080fd5b508290346107bd576107d23661156d565b939083526020916007835283209184519167ffffffffffffffff83116107aa57506107fd83546118e1565b601f811161087d575b5080601f831160011461083557508394829394926106fa5750508160011b916000199060031b1c191617905580f35b90601f198316958486528286209286905b8882106108655750508360019596971061073657505050811b01905580f35b80600185968294968601518155019501930190610846565b838552818520601f840160051c8101918385106108b6575b601f0160051c01905b8181106108ab5750610806565b85815560010161089e565b9091508190610895565b50913461068257806003193601126106825782516306fdde0360e01b815281818481335afa908115610c71578291610c57575b508351829060025492610905846118e1565b9586835260209683888101956001978a8982169182600014610c3c575050600114610be1575b610937925003846114e3565b61094033611a1a565b9588519586898101986109528a61191b565b68636f6e74726163742f60b81b81526109758c8351938491600985019101611462565b01602f60f81b600982015283906003549361098f856118e1565b94818116908115610bc05750600114610b61575b50506109b8925003601f1981018852876114e3565b8789518093633e7e866960e01b825281335afa918215610b55578192610b17575b5050610ac9605a888a61010a9b9961010099610a7f603d9a610b079e9a610a5c610ace9b610a0c60ff610a329d1661179e565b97519b8c99683d913730b6b2911d1160b91b818c0152825192839160298d019101611462565b880191701116113232b9b1b934b83a34b7b7111d1160791b6029840152518093603a840190611462565b01916a11161134b6b0b3b2911d1160a91b603a8401525180936045840190611462565b01721116113b30b63ab2a232b1b4b6b0b639911d1160691b6045820152610aaf825180938a605885019101611462565b0161227d60f01b605882015203603a8101845201826114e3565b611631565b845195827f646174613a6170706c69636174696f6e2f6a736f6e3b6261736536342c000000889485015282519283918686019101611462565b810103601d8101855201836114e3565b9091508781813d8311610b4e575b610b2f81836114e3565b810103126107bd57519060ff821682036106825750610ac9605a6109d9565b503d610b25565b508851903d90823e3d90fd5b6003865290915084908c7fc2575a0e9e593c00f959f8c92f12db2869c3395a3b0502d05e2516446f71f85b5b868410610ba857505050506109b892600a91010138806109a3565b8054858501600a01528c95509201918d908201610b8d565b9050600a93506109b895915060ff19168383015280151502010138806109a3565b505060028752838888887f405787fa12a823e0f2b7631cc41b3ba8828b3321ca811111fa75cd3aa3bb5ace5b858310610c23575050610937935082010161092b565b80919294505483858a0101520191018990888793610c0d565b60ff1916895261093794151560051b840101915061092b9050565b610c6b91503d8084833e61066981836114e3565b386108f3565b84513d84823e3d90fd5b5034610171576020918260031936011261016d57358352600582528083209181519284815490610caa826118e1565b808752926001928084169081156101495750600114610cd45761010a8787610100828c03836114e3565b9080949750528583205b828410610cfc575050508261010a94610100928201019438806100ef565b8054868501880152928601928101610cde565b5090346101715760209283600319360112610682578054835163ec327a2160e01b815283358185018190529092916001600160a01b0316908284602481855afa938415610fc3578394610fa7575b50855163bc74ebb960e01b8152858101829052948386602481865afa958615610f9d578496610f81575b5086516309c3dd8760e01b80825282820184905290938585602481845afa948515610f7757918a9594939187938496610f56575b5090602491610dfb60268d518a652f696d61676560d01b81610de7849e85019d8e815193849201611462565b83019182015203600681018b5201896114e3565b8b51958694859384528301525afa938415610f4b578094610f2e575b50508551918288808201868197519283910191610e3392611462565b81018981016f17b83937b832b93a34b2b9973539b7b760811b905203601081018452603001610e6290846114e3565b8651958695683d913730b6b2911d1160b91b8a880152805190818b60298a01920191610e8d92611462565b8601701116113232b9b1b934b83a34b7b7111d1160791b6029820152815191828b603a8401920191610ebe92611462565b01906a11161134b6b0b3b2911d1160a91b603a83015251918260458301610ee492611462565b01906e111611383937b832b93a34b2b9911d60891b604583015251918260548301610f0e92611462565b0160548101607d60f81b90520360358101825260550161052090826114e3565b610f439294503d8091833e61066981836114e3565b913880610e17565b8751903d90823e3d90fd5b602492919650610f6f903d8087833e61066981836114e3565b959091610dbb565b89513d88823e3d90fd5b610f969196503d8086833e61066981836114e3565b9438610d87565b87513d86823e3d90fd5b610fbc9194503d8085833e61066981836114e3565b9238610d5d565b86513d85823e3d90fd5b8382346107bd57816003193601126107bd57805190826001805491610ff1836118e1565b80865292828116908115611064575060011461101a575b5050506101008261010a9403836114e3565b9450808552600080516020611b3e8339815191525b82861061104c5750505061010082602061010a9582010194611008565b8054602087870181019190915290950194810161102f565b61010a97508693506020925061010094915060ff191682840152151560051b82010194611008565b508290346107bd5761109d3661156d565b939083526020916005835283209184519167ffffffffffffffff83116107aa57506110c883546118e1565b601f8111611148575b5080601f831160011461110057508394829394926106fa5750508160011b916000199060031b1c191617905580f35b90601f198316958486528286209286905b8882106111305750508360019596971061073657505050811b01905580f35b80600185968294968601518155019501930190611111565b838552818520601f840160051c810191838510611181575b601f0160051c01905b81811061117657506110d1565b858155600101611169565b9091508190611160565b828434610682576020806003193601126107bd5767ffffffffffffffff833581811161016d576111be9036908601611521565b9384519182116112bc57506001916111d683546118e1565b601f811161126a575b5080601f8311600114611219575083948293949261120e575b5050600019600383901b1c191690821b17905580f35b0151905084806111f8565b838552601f19831695600080516020611b3e833981519152929186905b888210611253575050838596971061073657505050811b01905580f35b808785968294968601518155019501930190611236565b838552600080516020611b3e833981519152601f840160051c8101918385106112b2575b601f0160051c019084905b8281106112a75750506111df565b868155018490611299565b909150819061128e565b634e487b7160e01b845260419052602483fd5b508290346107bd576112e03661156d565b9390835260209181835283209184519167ffffffffffffffff83116107aa575061130a83546118e1565b601f811161138a575b5080601f831160011461134257508394829394926106fa5750508160011b916000199060031b1c191617905580f35b90601f198316958486528286209286905b8882106113725750508360019596971061073657505050811b01905580f35b80600185968294968601518155019501930190611353565b838552818520601f840160051c8101918385106113c3575b601f0160051c01905b8181106113b85750611313565b8581556001016113ab565b90915081906113a2565b9290503461016d576020908160031936011261145e57358452600681528184208054856113f9826118e1565b8087529260019280841690811561014957506001146114235761010a8787610100828c03836114e3565b9080949750528583205b82841061144b575050508261010a94610100928201019438806100ef565b805486850188015292860192810161142d565b8480fd5b60005b8381106114755750506000910152565b8181015183820152602001611465565b604091602082526114a58151809281602086015260208686019101611462565b601f01601f1916010190565b6060810190811067ffffffffffffffff8211176114cd57604052565b634e487b7160e01b600052604160045260246000fd5b90601f8019910116810190811067ffffffffffffffff8211176114cd57604052565b67ffffffffffffffff81116114cd57601f01601f191660200190565b81601f820112156115685780359061153882611505565b9261154660405194856114e3565b8284526020838301011161156857816000926020809301838601378301015290565b600080fd5b90604060031983011261156857600435916024359067ffffffffffffffff82116115685761159d91600401611521565b90565b6020818303126115685780519067ffffffffffffffff8211611568570181601f820112156115685780516115d381611505565b926115e160405194856114e3565b818452602082840101116115685761159d9160208085019101611462565b9061160982611505565b61161660405191826114e3565b8281528092611627601f1991611505565b0190602036910137565b80511561177957604051611644816114b1565b604081527f4142434445464748494a4b4c4d4e4f505152535455565758595a61626364656660208201527f6768696a6b6c6d6e6f707172737475767778797a303132333435363738392b2f60408201528151600292838201809211611763576003918290046001600160fe1b0381168103611763576116c6908594951b6115ff565b936020850193829183518401925b83811061171257505050505106806001146116ff576002146116f4575090565b603d90600019015390565b50603d9081600019820153600119015390565b85600491979293949701918251600190603f9082828260121c16880101518453828282600c1c16880101518385015382828260061c16880101518885015316850101518782015301959291906116d4565b634e487b7160e01b600052601160045260246000fd5b506040516020810181811067ffffffffffffffff8211176114cd576040526000815290565b806000917a184f03e93ff9f4daa797ed6e38ed64bf6a1f010000000000000000808210156118d3575b506d04ee2d6d415b85acef8100000000808310156118c4575b50662386f26fc10000808310156118b5575b506305f5e100808310156118a6575b5061271080831015611897575b506064821015611887575b600a8092101561187d575b6001908160216118358287016115ff565b95860101905b611847575b5050505090565b600019019083906f181899199a1a9b1b9c1cb0b131b232b360811b8282061a8353049182156118785791908261183b565b611840565b9160010191611824565b9190606460029104910191611819565b6004919392049101913861180e565b60089193920491019138611801565b601091939204910191386117f2565b602091939204910191386117e0565b6040935081049150386117c7565b90600182811c92168015611911575b60208310146118fb57565b634e487b7160e01b600052602260045260246000fd5b91607f16916118f0565b9060009160019081549161192e836118e1565b92818116908115611984575060011461194657505050565b809192939450600052600080516020611b3e833981519152906000915b848310611971575050500190565b8181602092548587015201920191611963565b60ff191683525050811515909102019150565b6000929181546119a6816118e1565b926001918083169081156119ff57506001146119c3575b50505050565b90919293945060005260209081600020906000915b8583106119ee57505050500190388080806119bd565b8054858401529183019181016119d8565b60ff19168452505050811515909102019150388080806119bd565b604051906001600160a01b0316611a30826114b1565b602a82526020908183016040368237835115611b2757603090538251600190811015611b2757607860218501536029905b808211611ab5575050611a72575090565b6064906040519062461bcd60e51b825280600483015260248201527f537472696e67733a20686578206c656e67746820696e73756666696369656e746044820152fd5b9091600f81166010811015611b12578551841015611b12576f181899199a1a9b1b9c1cb0b131b232b360811b901a85840185015360041c918015611afd576000190190611a61565b60246000634e487b7160e01b81526011600452fd5b60246000634e487b7160e01b81526032600452fd5b634e487b7160e01b600052603260045260246000fdfeb10e2d527612073b26eecdfd717e6a320cf44b4afac2b0732d9fcbe2b7fa0cf6a2646970667358221220075d961bac45a8455e8b8f4260cef222c6c6880276b6f448f391c8c0a2b708f264736f6c634300081100332f8788117e7eff1d82e926ec794901d17c78024a50270940304540a733656f0d",
  "linkReferences": {},
  "deployedLinkReferences": {}
}