{
  "_format": "hh-sol-artifact-1",
  "contractName": "TimeCredit",
  "sourceName": "contracts/TimeCredit.sol",
  "abi": [
    {
      "inputs": [
        {
          "internalType": "address",
          "name": "serviceAddress_",
          "type": "address"
        },
        {
          "internalType": "address",
          "name": "slotRegistry_",
          "type": "address"
        },
        {
          "internalType": "string",
          "name": "name_",
          "type": "string"
        },
        {
          "internalType": "string",
          "name": "symbol_",
          "type": "string"
        },
        {
          "internalType": "string",
          "name": "baseuri_",
          "type": "string"
        },
        {
          "internalType": "string",
          "name": "contractDescription_",
          "type": "string"
        },
        {
          "internalType": "string",
          "name": "contractImage_",
          "type": "string"
        },
        {
          "internalType": "bool",
          "name": "transfersAllowed_",
          "type": "bool"
        },
        {
          "internalType": "uint256",
          "name": "minAllowedValueTransfer_",
          "type": "uint256"
        },
        {
          "internalType": "string",
          "name": "dispTimeUnit_",
          "type": "string"
        }
      ],
      "stateMutability": "nonpayable",
      "type": "constructor"
    },
    {
      "anonymous": false,
      "inputs": [
        {
          "indexed": true,
          "internalType": "address",
          "name": "_owner",
          "type": "address"
        },
        {
          "indexed": true,
          "internalType": "address",
          "name": "_approved",
          "type": "address"
        },
        {
          "indexed": true,
          "internalType": "uint256",
          "name": "_tokenId",
          "type": "uint256"
        }
      ],
      "name": "Approval",
      "type": "event"
    },
    {
      "anonymous": false,
      "inputs": [
        {
          "indexed": true,
          "internalType": "address",
          "name": "_owner",
          "type": "address"
        },
        {
          "indexed": true,
          "internalType": "address",
          "name": "_operator",
          "type": "address"
        },
        {
          "indexed": false,
          "internalType": "bool",
          "name": "_approved",
          "type": "bool"
        }
      ],
      "name": "ApprovalForAll",
      "type": "event"
    },
    {
      "anonymous": false,
      "inputs": [
        {
          "indexed": true,
          "internalType": "uint256",
          "name": "_tokenId",
          "type": "uint256"
        },
        {
          "indexed": true,
          "internalType": "address",
          "name": "_operator",
          "type": "address"
        },
        {
          "indexed": false,
          "internalType": "uint256",
          "name": "_value",
          "type": "uint256"
        }
      ],
      "name": "ApprovalValue",
      "type": "event"
    },
    {
      "anonymous": false,
      "inputs": [
        {
          "indexed": false,
          "internalType": "address",
          "name": "contractAddress",
          "type": "address"
        }
      ],
      "name": "MetadataDescriptor",
      "type": "event"
    },
    {
      "anonymous": false,
      "inputs": [
        {
          "indexed": false,
          "internalType": "uint256",
          "name": "tokenId",
          "type": "uint256"
        },
        {
          "indexed": false,
          "internalType": "uint256",
          "name": "slot",
          "type": "uint256"
        },
        {
          "indexed": false,
          "internalType": "uint256",
          "name": "value",
          "type": "uint256"
        }
      ],
      "name": "MintServiceToken",
      "type": "event"
    },
    {
      "anonymous": false,
      "inputs": [
        {
          "indexed": false,
          "internalType": "uint256",
          "name": "newTokenId",
          "type": "uint256"
        },
        {
          "indexed": false,
          "internalType": "uint256",
          "name": "slot",
          "type": "uint256"
        },
        {
          "indexed": false,
          "internalType": "uint256",
          "name": "value",
          "type": "uint256"
        }
      ],
      "name": "MintServiceTokenToAddress",
      "type": "event"
    },
    {
      "anonymous": false,
      "inputs": [
        {
          "indexed": true,
          "internalType": "address",
          "name": "previousOwner",
          "type": "address"
        },
        {
          "indexed": true,
          "internalType": "address",
          "name": "newOwner",
          "type": "address"
        }
      ],
      "name": "OwnershipTransferred",
      "type": "event"
    },
    {
      "anonymous": false,
      "inputs": [
        {
          "indexed": true,
          "internalType": "address",
          "name": "metadataDescriptor",
          "type": "address"
        }
      ],
      "name": "SetMetadataDescriptor",
      "type": "event"
    },
    {
      "anonymous": false,
      "inputs": [
        {
          "indexed": true,
          "internalType": "uint256",
          "name": "_tokenId",
          "type": "uint256"
        },
        {
          "indexed": true,
          "internalType": "uint256",
          "name": "_oldSlot",
          "type": "uint256"
        },
        {
          "indexed": true,
          "internalType": "uint256",
          "name": "_newSlot",
          "type": "uint256"
        }
      ],
      "name": "SlotChanged",
      "type": "event"
    },
    {
      "anonymous": false,
      "inputs": [
        {
          "indexed": true,
          "internalType": "address",
          "name": "_from",
          "type": "address"
        },
        {
          "indexed": true,
          "internalType": "address",
          "name": "_to",
          "type": "address"
        },
        {
          "indexed": true,
          "internalType": "uint256",
          "name": "_tokenId",
          "type": "uint256"
        }
      ],
      "name": "Transfer",
      "type": "event"
    },
    {
      "anonymous": false,
      "inputs": [
        {
          "indexed": true,
          "internalType": "uint256",
          "name": "_fromTokenId",
          "type": "uint256"
        },
        {
          "indexed": true,
          "internalType": "uint256",
          "name": "_toTokenId",
          "type": "uint256"
        },
        {
          "indexed": false,
          "internalType": "uint256",
          "name": "_value",
          "type": "uint256"
        }
      ],
      "name": "TransferValue",
      "type": "event"
    },
    {
      "anonymous": false,
      "inputs": [
        {
          "indexed": false,
          "internalType": "uint256",
          "name": "fromTokenId",
          "type": "uint256"
        },
        {
          "indexed": false,
          "internalType": "uint256",
          "name": "toTokenId",
          "type": "uint256"
        },
        {
          "indexed": false,
          "internalType": "uint256",
          "name": "value",
          "type": "uint256"
        }
      ],
      "name": "ValueTransfer",
      "type": "event"
    },
    {
      "inputs": [
        {
          "internalType": "string",
          "name": "uri_",
          "type": "string"
        }
      ],
      "name": "_setBaseURI",
      "outputs": [],
      "stateMutability": "nonpayable",
      "type": "function"
    },
    {
      "inputs": [
        {
          "internalType": "uint256",
          "name": "tokenId_",
          "type": "uint256"
        },
        {
          "internalType": "uint256",
          "name": "valueSeconds_",
          "type": "uint256"
        }
      ],
      "name": "addTime",
      "outputs": [],
      "stateMutability": "nonpayable",
      "type": "function"
    },
    {
      "inputs": [
        {
          "internalType": "uint256",
          "name": "tokenId_",
          "type": "uint256"
        },
        {
          "internalType": "address",
          "name": "operator_",
          "type": "address"
        }
      ],
      "name": "allowance",
      "outputs": [
        {
          "internalType": "uint256",
          "name": "",
          "type": "uint256"
        }
      ],
      "stateMutability": "view",
      "type": "function"
    },
    {
      "inputs": [
        {
          "internalType": "address",
          "name": "to_",
          "type": "address"
        },
        {
          "internalType": "uint256",
          "name": "tokenId_",
          "type": "uint256"
        }
      ],
      "name": "approve",
      "outputs": [],
      "stateMutability": "payable",
      "type": "function"
    },
    {
      "inputs": [
        {
          "internalType": "uint256",
          "name": "tokenId_",
          "type": "uint256"
        },
        {
          "internalType": "address",
          "name": "to_",
          "type": "address"
        },
        {
          "internalType": "uint256",
          "name": "value_",
          "type": "uint256"
        }
      ],
      "name": "approve",
      "outputs": [],
      "stateMutability": "payable",
      "type": "function"
    },
    {
      "inputs": [
        {
          "internalType": "address",
          "name": "owner_",
          "type": "address"
        }
      ],
      "name": "balanceOf",
      "outputs": [
        {
          "internalType": "uint256",
          "name": "balance",
          "type": "uint256"
        }
      ],
      "stateMutability": "view",
      "type": "function"
    },
    {
      "inputs": [
        {
          "internalType": "uint256",
          "name": "tokenId_",
          "type": "uint256"
        }
      ],
      "name": "balanceOf",
      "outputs": [
        {
          "internalType": "uint256",
          "name": "",
          "type": "uint256"
        }
      ],
      "stateMutability": "view",
      "type": "function"
    },
    {
      "inputs": [],
      "name": "contractURI",
      "outputs": [
        {
          "internalType": "string",
          "name": "",
          "type": "string"
        }
      ],
      "stateMutability": "view",
      "type": "function"
    },
    {
      "inputs": [
        {
          "internalType": "uint256",
          "name": "tokenId_",
          "type": "uint256"
        },
        {
          "internalType": "uint256",
          "name": "value_seconds_",
          "type": "uint256"
        }
      ],
      "name": "deductTime",
      "outputs": [],
      "stateMutability": "nonpayable",
      "type": "function"
    },
    {
      "inputs": [
        {
          "internalType": "uint256",
          "name": "tokenId_",
          "type": "uint256"
        }
      ],
      "name": "getApproved",
      "outputs": [
        {
          "internalType": "address",
          "name": "",
          "type": "address"
        }
      ],
      "stateMutability": "view",
      "type": "function"
    },
    {
      "inputs": [
        {
          "internalType": "uint256",
          "name": "tokenId",
          "type": "uint256"
        }
      ],
      "name": "getTokenDescription",
      "outputs": [
        {
          "internalType": "string",
          "name": "",
          "type": "string"
        }
      ],
      "stateMutability": "view",
      "type": "function"
    },
    {
      "inputs": [
        {
          "internalType": "uint256",
          "name": "tokenId",
          "type": "uint256"
        }
      ],
      "name": "getTokenImage",
      "outputs": [
        {
          "internalType": "string",
          "name": "",
          "type": "string"
        }
      ],
      "stateMutability": "view",
      "type": "function"
    },
    {
      "inputs": [
        {
          "internalType": "uint256",
          "name": "tokenId",
          "type": "uint256"
        }
      ],
      "name": "getTokenUUID",
      "outputs": [
        {
          "internalType": "string",
          "name": "",
          "type": "string"
        }
      ],
      "stateMutability": "view",
      "type": "function"
    },
    {
      "inputs": [
        {
          "internalType": "address",
          "name": "owner_",
          "type": "address"
        },
        {
          "internalType": "address",
          "name": "operator_",
          "type": "address"
        }
      ],
      "name": "isApprovedForAll",
      "outputs": [
        {
          "internalType": "bool",
          "name": "",
          "type": "bool"
        }
      ],
      "stateMutability": "view",
      "type": "function"
    },
    {
      "inputs": [
        {
          "internalType": "uint256",
          "name": "tokenId_",
          "type": "uint256"
        }
      ],
      "name": "isValid",
      "outputs": [
        {
          "internalType": "bool",
          "name": "",
          "type": "bool"
        }
      ],
      "stateMutability": "view",
      "type": "function"
    },
    {
      "inputs": [],
      "name": "metadataDescriptor",
      "outputs": [
        {
          "internalType": "contract IERC3525MetadataDescriptor",
          "name": "",
          "type": "address"
        }
      ],
      "stateMutability": "view",
      "type": "function"
    },
    {
      "inputs": [
        {
          "internalType": "address",
          "name": "owner_",
          "type": "address"
        },
        {
          "internalType": "uint256",
          "name": "slot_",
          "type": "uint256"
        },
        {
          "internalType": "uint256",
          "name": "value_seconds_",
          "type": "uint256"
        },
        {
          "internalType": "uint256",
          "name": "valid_start",
          "type": "uint256"
        },
        {
          "internalType": "uint256",
          "name": "valid_expiration",
          "type": "uint256"
        },
        {
          "internalType": "string",
          "name": "uuid_",
          "type": "string"
        },
        {
          "internalType": "string",
          "name": "token_description_",
          "type": "string"
        },
        {
          "internalType": "string",
          "name": "token_image_",
          "type": "string"
        }
      ],
      "name": "mint",
      "outputs": [
        {
          "internalType": "uint256",
          "name": "",
          "type": "uint256"
        }
      ],
      "stateMutability": "nonpayable",
      "type": "function"
    },
    {
      "inputs": [
        {
          "internalType": "address",
          "name": "owner_",
          "type": "address"
        },
        {
          "internalType": "uint256",
          "name": "slot_",
          "type": "uint256"
        },
        {
          "internalType": "uint256",
          "name": "value_",
          "type": "uint256"
        },
        {
          "internalType": "string",
          "name": "uuid_",
          "type": "string"
        },
        {
          "internalType": "string",
          "name": "token_description_",
          "type": "string"
        },
        {
          "internalType": "string",
          "name": "token_image_",
          "type": "string"
        }
      ],
      "name": "mint",
      "outputs": [
        {
          "internalType": "uint256",
          "name": "",
          "type": "uint256"
        }
      ],
      "stateMutability": "nonpayable",
      "type": "function"
    },
    {
      "inputs": [],
      "name": "name",
      "outputs": [
        {
          "internalType": "string",
          "name": "",
          "type": "string"
        }
      ],
      "stateMutability": "view",
      "type": "function"
    },
    {
      "inputs": [],
      "name": "owner",
      "outputs": [
        {
          "internalType": "address",
          "name": "",
          "type": "address"
        }
      ],
      "stateMutability": "view",
      "type": "function"
    },
    {
      "inputs": [
        {
          "internalType": "uint256",
          "name": "tokenId_",
          "type": "uint256"
        }
      ],
      "name": "ownerOf",
      "outputs": [
        {
          "internalType": "address",
          "name": "owner_",
          "type": "address"
        }
      ],
      "stateMutability": "view",
      "type": "function"
    },
    {
      "inputs": [],
      "name": "renounceOwnership",
      "outputs": [],
      "stateMutability": "nonpayable",
      "type": "function"
    },
    {
      "inputs": [
        {
          "internalType": "address",
          "name": "from_",
          "type": "address"
        },
        {
          "internalType": "address",
          "name": "to_",
          "type": "address"
        },
        {
          "internalType": "uint256",
          "name": "tokenId_",
          "type": "uint256"
        }
      ],
      "name": "safeTransferFrom",
      "outputs": [],
      "stateMutability": "payable",
      "type": "function"
    },
    {
      "inputs": [
        {
          "internalType": "address",
          "name": "from_",
          "type": "address"
        },
        {
          "internalType": "address",
          "name": "to_",
          "type": "address"
        },
        {
          "internalType": "uint256",
          "name": "tokenId_",
          "type": "uint256"
        },
        {
          "internalType": "bytes",
          "name": "data_",
          "type": "bytes"
        }
      ],
      "name": "safeTransferFrom",
      "outputs": [],
      "stateMutability": "payable",
      "type": "function"
    },
    {
      "inputs": [
        {
          "internalType": "address",
          "name": "operator_",
          "type": "address"
        },
        {
          "internalType": "bool",
          "name": "approved_",
          "type": "bool"
        }
      ],
      "name": "setApprovalForAll",
      "outputs": [],
      "stateMutability": "nonpayable",
      "type": "function"
    },
    {
      "inputs": [
        {
          "internalType": "uint256",
          "name": "tokenId_",
          "type": "uint256"
        }
      ],
      "name": "slotOf",
      "outputs": [
        {
          "internalType": "uint256",
          "name": "",
          "type": "uint256"
        }
      ],
      "stateMutability": "view",
      "type": "function"
    },
    {
      "inputs": [
        {
          "internalType": "uint256",
          "name": "slot_",
          "type": "uint256"
        }
      ],
      "name": "slotURI",
      "outputs": [
        {
          "internalType": "string",
          "name": "",
          "type": "string"
        }
      ],
      "stateMutability": "view",
      "type": "function"
    },
    {
      "inputs": [
        {
          "internalType": "bytes4",
          "name": "interfaceId",
          "type": "bytes4"
        }
      ],
      "name": "supportsInterface",
      "outputs": [
        {
          "internalType": "bool",
          "name": "",
          "type": "bool"
        }
      ],
      "stateMutability": "view",
      "type": "function"
    },
    {
      "inputs": [],
      "name": "symbol",
      "outputs": [
        {
          "internalType": "string",
          "name": "",
          "type": "string"
        }
      ],
      "stateMutability": "view",
      "type": "function"
    },
    {
      "inputs": [
        {
          "internalType": "uint256",
          "name": "index_",
          "type": "uint256"
        }
      ],
      "name": "tokenByIndex",
      "outputs": [
        {
          "internalType": "uint256",
          "name": "",
          "type": "uint256"
        }
      ],
      "stateMutability": "view",
      "type": "function"
    },
    {
      "inputs": [
        {
          "internalType": "address",
          "name": "owner_",
          "type": "address"
        },
        {
          "internalType": "uint256",
          "name": "index_",
          "type": "uint256"
        }
      ],
      "name": "tokenOfOwnerByIndex",
      "outputs": [
        {
          "internalType": "uint256",
          "name": "",
          "type": "uint256"
        }
      ],
      "stateMutability": "view",
      "type": "function"
    },
    {
      "inputs": [
        {
          "internalType": "uint256",
          "name": "tokenId_",
          "type": "uint256"
        }
      ],
      "name": "tokenURI",
      "outputs": [
        {
          "internalType": "string",
          "name": "",
          "type": "string"
        }
      ],
      "stateMutability": "view",
      "type": "function"
    },
    {
      "inputs": [],
      "name": "totalSupply",
      "outputs": [
        {
          "internalType": "uint256",
          "name": "",
          "type": "uint256"
        }
      ],
      "stateMutability": "view",
      "type": "function"
    },
    {
      "inputs": [
        {
          "internalType": "uint256",
          "name": "fromTokenId_",
          "type": "uint256"
        },
        {
          "internalType": "address",
          "name": "to_",
          "type": "address"
        },
        {
          "internalType": "uint256",
          "name": "value_",
          "type": "uint256"
        }
      ],
      "name": "transferFrom",
      "outputs": [
        {
          "internalType": "uint256",
          "name": "",
          "type": "uint256"
        }
      ],
      "stateMutability": "payable",
      "type": "function"
    },
    {
      "inputs": [
        {
          "internalType": "address",
          "name": "from_",
          "type": "address"
        },
        {
          "internalType": "address",
          "name": "to_",
          "type": "address"
        },
        {
          "internalType": "uint256",
          "name": "tokenId_",
          "type": "uint256"
        }
      ],
      "name": "transferFrom",
      "outputs": [],
      "stateMutability": "payable",
      "type": "function"
    },
    {
      "inputs": [
        {
          "internalType": "uint256",
          "name": "fromTokenId_",
          "type": "uint256"
        },
        {
          "internalType": "uint256",
          "name": "toTokenId_",
          "type": "uint256"
        },
        {
          "internalType": "uint256",
          "name": "value_",
          "type": "uint256"
        }
      ],
      "name": "transferFrom",
      "outputs": [],
      "stateMutability": "payable",
      "type": "function"
    },
    {
      "inputs": [
        {
          "internalType": "address",
          "name": "newOwner",
          "type": "address"
        }
      ],
      "name": "transferOwnership",
      "outputs": [],
      "stateMutability": "nonpayable",
      "type": "function"
    },
    {
      "inputs": [],
      "name": "valueDecimals",
      "outputs": [
        {
          "internalType": "uint8",
          "name": "",
          "type": "uint8"
        }
      ],
      "stateMutability": "view",
      "type": "function"
    }
  ],
  "bytecode": "0x60806040523480156200001157600080fd5b50604051620062fa380380620062fa8339810160408190526200003491620002ec565b89898989898989601285858260006200004e8482620004c8565b5060016200005d8382620004c8565b506002805460ff191660ff9290921691909117905550620000879050620000813390565b62000191565b600a80546001600160a01b0319166001600160a01b038a16179055600b620000b08582620004c8565b50600b838389604051620000c490620001e3565b620000d39493929190620005c2565b604051809103906000f080158015620000f0573d6000803e3d6000fd5b50600880546001600160a01b0319166001600160a01b039290921691821790556040519081527f9ac4f8025631594629895b778dc5ee88d01673a254a2291f6b6b174ad25230ca9060200160405180910390a15050600d80548a151560ff1991821617909155600e899055600f805490911660121790555060109450620001809350859250849150620004c89050565b50505050505050505050506200069a565b600980546001600160a01b038381166001600160a01b0319831681179093556040519116919082907f8be0079c531659141344cd1fd0a4f28419497f9722a3daafe3b4186f6b6457e090600090a35050565b611ada806200482083390190565b80516001600160a01b03811681146200020957600080fd5b919050565b634e487b7160e01b600052604160045260246000fd5b60005b838110156200024157818101518382015260200162000227565b50506000910152565b600082601f8301126200025c57600080fd5b81516001600160401b03808211156200027957620002796200020e565b604051601f8301601f19908116603f01168101908282118183101715620002a457620002a46200020e565b81604052838152866020858801011115620002be57600080fd5b620002d184602083016020890162000224565b9695505050505050565b805180151581146200020957600080fd5b6000806000806000806000806000806101408b8d0312156200030d57600080fd5b620003188b620001f1565b99506200032860208c01620001f1565b60408c01519099506001600160401b03808211156200034657600080fd5b620003548e838f016200024a565b995060608d01519150808211156200036b57600080fd5b620003798e838f016200024a565b985060808d01519150808211156200039057600080fd5b6200039e8e838f016200024a565b975060a08d0151915080821115620003b557600080fd5b620003c38e838f016200024a565b965060c08d0151915080821115620003da57600080fd5b620003e88e838f016200024a565b9550620003f860e08e01620002db565b94506101008d015193506101208d01519150808211156200041857600080fd5b50620004278d828e016200024a565b9150509295989b9194979a5092959850565b600181811c908216806200044e57607f821691505b6020821081036200046f57634e487b7160e01b600052602260045260246000fd5b50919050565b601f821115620004c357600081815260208120601f850160051c810160208610156200049e5750805b601f850160051c820191505b81811015620004bf57828155600101620004aa565b5050505b505050565b81516001600160401b03811115620004e457620004e46200020e565b620004fc81620004f5845462000439565b8462000475565b602080601f8311600181146200053457600084156200051b5750858301515b600019600386901b1c1916600185901b178555620004bf565b600085815260208120601f198616915b82811015620005655788860151825594840194600190910190840162000544565b5085821015620005845787850151600019600388901b60f8161c191681555b5050505050600190811b01905550565b60008151808452620005ae81602086016020860162000224565b601f01601f19169290920160200192915050565b608081526000808654620005d68162000439565b80608086015260a0600180841660008114620005fb5760018114620006165762000649565b60ff1985168884015283151560051b88018301955062000649565b8b60005260208060002060005b86811015620006405781548b820187015290840190820162000623565b8a018501975050505b5050505050828103602084015262000662818762000594565b9050828103604084015262000678818662000594565b9150506200069160608301846001600160a01b03169052565b95945050505050565b61417680620006aa6000396000f3fe6080604052600436106102255760003560e01c80636352211e116101235780639cc7f708116100ab578063e345e0bc1161006f578063e345e0bc1461060d578063e8a3d4851461062d578063e985e9c514610642578063f2fde38b1461068f578063f577a500146106af57600080fd5b80639cc7f7081461057a578063a22cb4651461059a578063b3154c08146105ba578063b88d4fde146105da578063c87b56dd146105ed57600080fd5b8063791581c6116100f2578063791581c6146104f4578063840f7113146105145780638cb0a511146105345780638da5cb5b1461054757806395d89b411461056557600080fd5b80636352211e1461047f57806370a082311461049f578063715018a6146104bf57806371f0442e146104d457600080fd5b806323b872dd116101b1578063395433b611610175578063395433b6146103ea5780633e7e86691461040a57806342842e0e1461042c578063476de4a81461043f5780634f6ccce71461045f57600080fd5b806323b872dd14610364578063263f3e7e146103775780632f745c5914610397578063310ed7f0146103b757806331b5b907146103ca57600080fd5b8063095ea7b3116101f8578063095ea7b3146102e757806309c3dd87146102fc5780630f485c021461031c5780631375d8431461032f57806318160ddd1461034f57600080fd5b806301ffc9a71461022a57806306fdde031461025f57806307ce4c4e14610281578063081812fc146102af575b600080fd5b34801561023657600080fd5b5061024a6102453660046135d3565b6106cf565b60405190151581526020015b60405180910390f35b34801561026b57600080fd5b50610274610772565b6040516102569190613640565b34801561028d57600080fd5b506102a161029c366004613737565b610804565b604051908152602001610256565b3480156102bb57600080fd5b506102cf6102ca3660046137f7565b610850565b6040516001600160a01b039091168152602001610256565b6102fa6102f5366004613810565b6108a2565b005b34801561030857600080fd5b506102746103173660046137f7565b610986565b6102a161032a36600461383a565b610a6b565b34801561033b57600080fd5b5061027461034a3660046137f7565b610b6c565b34801561035b57600080fd5b506005546102a1565b6102fa61037236600461386f565b610bdf565b34801561038357600080fd5b506102a16103923660046137f7565b610c8c565b3480156103a357600080fd5b506102a16103b2366004613810565b610cd4565b6102fa6103c536600461389b565b610d75565b3480156103d657600080fd5b506102fa6103e53660046138c7565b610feb565b3480156103f657600080fd5b506102fa6104053660046138fc565b61105d565b34801561041657600080fd5b5060025460405160ff9091168152602001610256565b6102fa61043a36600461386f565b61106b565b34801561044b57600080fd5b506102a161045a36600461391e565b611086565b34801561046b57600080fd5b506102a161047a3660046137f7565b611221565b34801561048b57600080fd5b506102cf61049a3660046137f7565b6112b2565b3480156104ab57600080fd5b506102a16104ba3660046139c9565b61134e565b3480156104cb57600080fd5b506102fa6113d6565b3480156104e057600080fd5b506102746104ef3660046137f7565b6113ea565b34801561050057600080fd5b506102fa61050f3660046138fc565b61141c565b34801561052057600080fd5b506008546102cf906001600160a01b031681565b6102fa61054236600461383a565b611505565b34801561055357600080fd5b506009546001600160a01b03166102cf565b34801561057157600080fd5b50610274611510565b34801561058657600080fd5b506102a16105953660046137f7565b61151f565b3480156105a657600080fd5b506102fa6105b53660046139f2565b611873565b3480156105c657600080fd5b506102746105d53660046137f7565b61187e565b6102fa6105e8366004613a29565b6118b0565b3480156105f957600080fd5b506102746106083660046137f7565b6118e8565b34801561061957600080fd5b506102a1610628366004613aa5565b61197a565b34801561063957600080fd5b506102746119ae565b34801561064e57600080fd5b5061024a61065d366004613ad1565b6001600160a01b0391821660009081526007602090815260408083209390941682526002909201909152205460ff1690565b34801561069b57600080fd5b506102fa6106aa3660046139c9565b611a9b565b3480156106bb57600080fd5b5061024a6106ca3660046137f7565b611b14565b60006001600160e01b031982166301ffc9a760e01b148061070057506001600160e01b03198216630354d60560e61b145b8061071b57506001600160e01b031982166380ac58cd60e01b145b8061073657506001600160e01b031982166370b0048160e11b145b8061075157506001600160e01b0319821663780e9d6360e01b145b8061076c57506001600160e01b03198216635b5e139f60e01b145b92915050565b60606000805461078190613afb565b80601f01602080910402602001604051908101604052809291908181526020018280546107ad90613afb565b80156107fa5780601f106107cf576101008083540402835291602001916107fa565b820191906000526020600020905b8154815290600101906020018083116107dd57829003601f168201915b5050505050905090565b6000806108158a8a8a888888611086565b6040805180820182529889526020808a019889526000838152600c909152209751885595516001909701969096555092979650505050505050565b600061085b82611b45565b60008281526006602052604090205460058054909190811061087f5761087f613b2f565b60009182526020909120600460069092020101546001600160a01b031692915050565b60006108ad826112b2565b9050806001600160a01b0316836001600160a01b0316036108e95760405162461bcd60e51b81526004016108e090613b45565b60405180910390fd5b336001600160a01b03821614806109055750610905813361065d565b6109775760405162461bcd60e51b815260206004820152603960248201527f455243333532353a20617070726f76652063616c6c6572206973206e6f74206f60448201527f776e6572206e6f7220617070726f76656420666f7220616c6c0000000000000060648201526084016108e0565b6109818383611b96565b505050565b60606000610992611c2d565b6008549091506001600160a01b03166109f25760008151116109c35760405180602001604052806000815250610a64565b806109cd84611c3c565b6040516020016109de929190613b87565b604051602081830303815290604052610a64565b600854604051633601bfc560e11b8152600481018590526001600160a01b0390911690636c037f8a906024015b600060405180830381865afa158015610a3c573d6000803e3d6000fd5b505050506040513d6000823e601f3d908101601f19168201604052610a649190810190613bc7565b9392505050565b600d5460009060ff168015610a825750600e548210155b610adf5760405162461bcd60e51b815260206004820152602860248201527f54696d654372656469743a2074686973207472616e73666572206973206e6f7460448201526708185b1b1bddd95960c21b60648201526084016108e0565b6000848152600c60205260409020600101544210610b595760405162461bcd60e51b815260206004820152603160248201527f54696d654372656469743a2063616e6e6f74207472616e736665722066726f6d6044820152701030b71032bc3834b932b2103a37b5b2b760791b60648201526084016108e0565b610b64848484611ccf565b949350505050565b600854604051631375d84360e01b8152600481018390526060916001600160a01b031690631375d843906024015b600060405180830381865afa158015610bb7573d6000803e3d6000fd5b505050506040513d6000823e601f3d908101601f1916820160405261076c9190810190613bc7565b600d5460ff16610c015760405162461bcd60e51b81526004016108e090613c3e565b600e54610c0d8261151f565b1015610c815760405162461bcd60e51b815260206004820152603f60248201527f54696d654372656469743a20746f6b656e2076616c7565206973206c6573732060448201527f7468616e206d696e696d756d207472616e7366657261626c652076616c75650060648201526084016108e0565b610981838383611d31565b6000610c9782611b45565b600082815260066020526040902054600580549091908110610cbb57610cbb613b2f565b9060005260206000209060060201600101549050919050565b6000610cdf8361134e565b8210610d385760405162461bcd60e51b815260206004820152602260248201527f455243333532353a206f776e657220696e646578206f7574206f6620626f756e604482015261647360f01b60648201526084016108e0565b6001600160a01b0383166000908152600760205260409020805483908110610d6257610d62613b2f565b9060005260206000200154905092915050565b600d5460ff16610d975760405162461bcd60e51b81526004016108e090613c3e565b600e54811015610e235760405162461bcd60e51b815260206004820152604b60248201527f54696d654372656469743a20616d6f756e74206265696e67207472616e73666560448201527f726564206973206c657373207468616e206d696e696d756d207472616e73666560648201526a7261626c652076616c756560a81b608482015260a4016108e0565b6000838152600c60205260409020600101544210610ea25760405162461bcd60e51b815260206004820152603660248201527f54696d654372656469743a2063616e6e6f74207472616e736665722074696d6560448201527510333937b69030b71032bc3834b932b2103a37b5b2b760511b60648201526084016108e0565b6000828152600c60205260409020600101544210610f215760405162461bcd60e51b815260206004820152603660248201527f54696d654372656469743a2063616e6e6f74207472616e736665722074696d656044820152751034b73a379030b71032bc3834b932b2103a37b5b2b760511b60648201526084016108e0565b6000828152600c6020526040902060010154610f3c8361151f565b610f469042613c99565b1115610fe05760405162461bcd60e51b815260206004820152605760248201527f54696d654372656469743a2074696d652076616c7565206f6620746f6b656e2060448201527f726563656976696e67207472616e7366657220616c726561647920657863656560648201527f64732074696d652074696c6c2065787069726174696f6e000000000000000000608482015260a4016108e0565b610981838383611d3c565b600b610ff78282613cf2565b506008546040516355f804b360e01b81526001600160a01b03909116906355f804b390611028908490600401613640565b600060405180830381600087803b15801561104257600080fd5b505af1158015611056573d6000803e3d6000fd5b5050505050565b6110678282611d8d565b5050565b610981838383604051806020016040528060008152506118b0565b6000611090611e9e565b600061109a611ef8565b90506110a888828989611f0f565b600854604051632108947560e21b81526001600160a01b039091169063842251d4906110da9084908990600401613db2565b600060405180830381600087803b1580156110f457600080fd5b505af1158015611108573d6000803e3d6000fd5b505060085460405163246a908b60e01b81526001600160a01b03909116925063246a908b915061113e9084908890600401613db2565b600060405180830381600087803b15801561115857600080fd5b505af115801561116c573d6000803e3d6000fd5b5050600854604051630190503b60e61b81526001600160a01b0390911692506364140ec091506111a29084908790600401613db2565b600060405180830381600087803b1580156111bc57600080fd5b505af11580156111d0573d6000803e3d6000fd5b505060408051848152602081018b90529081018990527f84eeb48eca46cea54afc9753345f6038981672ea565f32885420829dfd88aea69250606001905060405180910390a1979650505050505050565b600061122c60055490565b82106112865760405162461bcd60e51b815260206004820152602360248201527f455243333532353a20676c6f62616c20696e646578206f7574206f6620626f756044820152626e647360e81b60648201526084016108e0565b6005828154811061129957611299613b2f565b9060005260206000209060060201600001549050919050565b60006112bd82611b45565b6000828152600660205260409020546005805490919081106112e1576112e1613b2f565b60009182526020909120600360069092020101546001600160a01b03169050806113495760405162461bcd60e51b8152602060048201526019602482015278115490cccd4c8d4e881a5b9d985b1a59081d1bdad95b881251603a1b60448201526064016108e0565b919050565b60006001600160a01b0382166113ba5760405162461bcd60e51b815260206004820152602b60248201527f455243333532353a2062616c616e636520717565727920666f7220746865207a60448201526a65726f206164647265737360a81b60648201526084016108e0565b506001600160a01b031660009081526007602052604090205490565b6113de611e9e565b6113e86000612039565b565b6008546040516338f8221760e11b8152600481018390526060916001600160a01b0316906371f0442e90602401610b9a565b6000828152600c602052604090206001015442106114945760405162461bcd60e51b815260206004820152602f60248201527f54696d654372656469743a2063616e6e6f74206164642074696d6520746f206160448201526e371032bc3834b932b2103a37b5b2b760891b60648201526084016108e0565b6000828152600c6020526040902060010154816114b08461151f565b6114ba9042613c99565b6114c49190613c99565b11156114fb57806114d48361151f565b6114de9042613c99565b6114e89190613c99565b6000838152600c60205260409020600101555b611067828261208b565b6109818383836120af565b60606001805461078190613afb565b600061152a82611b45565b600061153583612168565b60408051808201825260078152667365636f6e647360c81b602090910152519091507fe1130af6d7c17bab477e8229ba4562e6c6de1a24d5f06f81ba647253be54326f9061158590601090613dcb565b6040518091039020036115985792915050565b60408051808201825260078152666d696e7574657360c81b602090910152517f48afcfd715a54c0f2b115d49c5dab7260911d987f1dd4bd23ff450d97c876b1a906115e590601090613dcb565b60405180910390200361163557600f546116039060ff16600a613f25565b600f54603c906116179060ff16600a613f25565b6116219084613f34565b61162b9190613f34565b610a649190613f56565b6040805180820182526005815264686f75727360d81b602090910152517fbe80a06a2d1f01b7dcd22cdbaefb6c34d08c1fcb16516b93fd2cdd4fa90dcbc49061168090601090613dcb565b6040518091039020036116b357600f5461169e9060ff16600a613f25565b600f54610e10906116179060ff16600a613f25565b60408051808201825260048152636461797360e01b602090910152517f4d9d0ff0b8b410f30a02267bbb4e02119e41039b2d547535c650519ae1368ba0906116fd90601090613dcb565b60405180910390200361173157600f5461171b9060ff16600a613f25565b600f5462015180906116179060ff16600a613f25565b60408051808201825260068152656d6f6e74687360d01b602090910152517f6230d1e353eb51d0f8d0672d8392cb57da0b75f347b5850b6a8367e1f83a68ff9061177d90601090613dcb565b6040518091039020036117df57600f546127109061179f9060ff16600a613f25565b600f5464061e696a80906117b79060ff16600a613f25565b6117c19085613f34565b6117cb9190613f34565b6117d59190613f56565b610a649190613f34565b6040805180820182526005815264796561727360d81b602090910152517f7e64f70c957efb95084444d5bbe643bce80158d390e3449c95ae9ba11db630ba9061182a90601090613dcb565b60405180910390200361186457600f546127109061184c9060ff16600a613f25565b600f5464496cf0fe00906117b79060ff16600a613f25565b50600092915050565b50919050565b6110673383836121b0565b600854604051631662a98160e31b8152600481018390526060916001600160a01b03169063b3154c0890602401610b9a565b6118ba3383612283565b6118d65760405162461bcd60e51b81526004016108e090613f6d565b6118e284848484612305565b50505050565b60606118f382611b45565b60006118fd611c2d565b6008549091506001600160a01b031661194957600081511161192e5760405180602001604052806000815250610a64565b8061193884611c3c565b6040516020016109de929190613fbf565b6008546040516344a5a61760e11b8152600481018590526001600160a01b039091169063894b4c2e90602401610a1f565b600061198583611b45565b5060009182526004602090815260408084206001600160a01b0393909316845291905290205490565b606060006119ba611c2d565b6008549091506001600160a01b0316611a1a5760008151116119eb5760405180602001604052806000815250611a95565b806119f530612378565b604051602001611a06929190613fee565b604051602081830303815290604052611a95565b600860009054906101000a90046001600160a01b03166001600160a01b031663725fa09c6040518163ffffffff1660e01b8152600401600060405180830381865afa158015611a6d573d6000803e3d6000fd5b505050506040513d6000823e601f3d908101601f19168201604052611a959190810190613bc7565b91505090565b611aa3611e9e565b6001600160a01b038116611b085760405162461bcd60e51b815260206004820152602660248201527f4f776e61626c653a206e6577206f776e657220697320746865207a65726f206160448201526564647265737360d01b60648201526084016108e0565b611b1181612039565b50565b6000818152600c6020526040812054421080159061076c5750506000908152600c6020526040902060010154421090565b611b4e8161238e565b611b115760405162461bcd60e51b8152602060048201526019602482015278115490cccd4c8d4e881a5b9d985b1a59081d1bdad95b881251603a1b60448201526064016108e0565b600081815260066020526040902054600580548492908110611bba57611bba613b2f565b6000918252602090912060069091020160040180546001600160a01b0319166001600160a01b0392831617905581908316611bf4826112b2565b6001600160a01b03167f8c5be1e5ebec7d5bd14f71427d1e84f3dd0314c0f7b2291e5b200ac8c7c3b92560405160405180910390a45050565b6060600b805461078190613afb565b60606000611c49836123da565b600101905060008167ffffffffffffffff811115611c6957611c6961366a565b6040519080825280601f01601f191660200182016040528015611c93576020820181803683370190505b5090508181016020015b600019016f181899199a1a9b1b9c1cb0b131b232b360811b600a86061a8153600a8504945084611c9d57509392505050565b600080611cdd8585856124b2565b90507f6d811e6a20ae5461a4ef22a6998c1d958defe727f1cc522b6eb792bc8e6f726681611d0a87610c8c565b604080519283526020830191909152810185905260600160405180910390a1949350505050565b6109818383836124ea565b611d4783838361251b565b60408051848152602081018490529081018290527fdf7a601a0a201ccd4b4bfcfd610913188d931867997223d226f85f2f2673988a9060600160405180910390a1505050565b611d9682611b45565b600082815260066020526040812054600580549091908110611dba57611dba613b2f565b600091825260209091206006909102016003810154600182015460028301549293506001600160a01b039091169184811015611e445760405162461bcd60e51b815260206004820152602360248201527f455243333532353a206275726e2076616c756520657863656564732062616c616044820152626e636560e81b60648201526084016108e0565b84846002016000828254611e589190614032565b909155505060405185815260009087907f0b2aac84f3ec956911fd78eae5311062972ff949f38412e8da39069d9f068cc69060200160405180910390a35b505050505050565b6009546001600160a01b031633146113e85760405162461bcd60e51b815260206004820181905260248201527f4f776e61626c653a2063616c6c6572206973206e6f7420746865206f776e657260448201526064016108e0565b6000611f08600380546001019055565b5060035490565b6001600160a01b038416611f6f5760405162461bcd60e51b815260206004820152602160248201527f455243333532353a206d696e7420746f20746865207a65726f206164647265736044820152607360f81b60648201526084016108e0565b82600003611fc95760405162461bcd60e51b815260206004820152602160248201527f455243333532353a2063616e6e6f74206d696e74207a65726f20746f6b656e496044820152601960fa1b60648201526084016108e0565b611fd28361238e565b1561201f5760405162461bcd60e51b815260206004820152601d60248201527f455243333532353a20746f6b656e20616c7265616479206d696e74656400000060448201526064016108e0565b61202a848484612531565b61203483826125f7565b6118e2565b600980546001600160a01b038381166001600160a01b0319831681179093556040519116919082907f8be0079c531659141344cd1fd0a4f28419497f9722a3daafe3b4186f6b6457e090600090a35050565b6000612096836112b2565b905060006120a384610c8c565b905061203484846125f7565b60006120ba846112b2565b9050806001600160a01b0316836001600160a01b0316036120ed5760405162461bcd60e51b81526004016108e090613b45565b6120f73385612283565b61215d5760405162461bcd60e51b815260206004820152603160248201527f455243333532353a20617070726f76652063616c6c6572206973206e6f74206f6044820152701ddb995c881b9bdc88185c1c1c9bdd9959607a1b60648201526084016108e0565b6118e284848461267c565b600061217382611b45565b60008281526006602052604090205460058054909190811061219757612197613b2f565b9060005260206000209060060201600201549050919050565b816001600160a01b0316836001600160a01b0316036122115760405162461bcd60e51b815260206004820152601a60248201527f455243333532353a20617070726f766520746f2063616c6c657200000000000060448201526064016108e0565b6001600160a01b0383811660008181526007602090815260408083209487168084526002909501825291829020805460ff191686151590811790915591519182527f17307eab39ab6107e8899845ad3d59bd9653f200f220920489ca2b5937696c3191015b60405180910390a3505050565b60008061228f836112b2565b9050806001600160a01b0316846001600160a01b031614806122da57506001600160a01b038082166000908152600760209081526040808320938816835260029093019052205460ff165b80610b645750836001600160a01b03166122f384610850565b6001600160a01b031614949350505050565b6123108484846127ab565b61231c8484848461290c565b6118e25760405162461bcd60e51b815260206004820152602760248201527f455243333532353a207472616e7366657220746f206e6f6e204552433732315260448201526632b1b2b4bb32b960c91b60648201526084016108e0565b606061076c6001600160a01b0383166014612a58565b6005546000901580159061076c57506000828152600660205260409020546005805484929081106123c1576123c1613b2f565b9060005260206000209060060201600001541492915050565b60008072184f03e93ff9f4daa797ed6e38ed64bf6a1f0160401b83106124195772184f03e93ff9f4daa797ed6e38ed64bf6a1f0160401b830492506040015b6d04ee2d6d415b85acef81000000008310612445576d04ee2d6d415b85acef8100000000830492506020015b662386f26fc10000831061246357662386f26fc10000830492506010015b6305f5e100831061247b576305f5e100830492506008015b612710831061248f57612710830492506004015b606483106124a1576064830492506002015b600a831061076c5760010192915050565b60006124bf338584612bf4565b6124c884612c84565b90506124df83826124d887610c8c565b6000611f0f565b610a64848284612c8e565b6124f43382612283565b6125105760405162461bcd60e51b81526004016108e090613f6d565b6109818383836127ab565b612526338483612bf4565b610981838383612c8e565b6040805160c081018252838152602080820184905260008284018190526001600160a01b038716606084015260808301819052835181815291820190935260a0820152905061257f81612f7f565b61258984846130ce565b60405183906001600160a01b038616906000907fddf252ad1be2c89b69c2b068fc378daa952ba7f163c4a11628f55a4df523b3ef908290a4816000847fe4f48c240d3b994948aa54f3e2f5fca59263dfe1d52b6e4cf39a5d249b5ccb6560405160405180910390a450505050565b60008281526006602052604090205460058054839290811061261b5761261b613b2f565b9060005260206000209060060201600201600082825461263b9190613c99565b909155505060405181815282906000907f0b2aac84f3ec956911fd78eae5311062972ff949f38412e8da39069d9f068cc69060200160405180910390a35050565b6001600160a01b0382166126e55760405162461bcd60e51b815260206004820152602a60248201527f455243333532353a20617070726f76652076616c756520746f20746865207a65604482015269726f206164647265737360b01b60648201526084016108e0565b6126ef8284613157565b6127555760008381526006602052604090205460058054909190811061271757612717613b2f565b60009182526020808320600692909202909101600501805460018101825590835291200180546001600160a01b0319166001600160a01b0384161790555b60008381526004602090815260408083206001600160a01b038616808552908352928190208490555183815285917f621b050de0ad08b51d19b48b3e6df75348c4de6bdd93e81b252ca62e28265b1b9101612276565b826001600160a01b03166127be826112b2565b6001600160a01b0316146128205760405162461bcd60e51b8152602060048201526024808201527f455243333532353a207472616e736665722066726f6d20696e76616c6964206f6044820152633bb732b960e11b60648201526084016108e0565b6001600160a01b0382166128845760405162461bcd60e51b815260206004820152602560248201527f455243333532353a207472616e7366657220746f20746865207a65726f206164604482015264647265737360d81b60648201526084016108e0565b600061288f82610c8c565b9050600061289c83612168565b90506128a9600084611b96565b6128b28361322a565b6128bc85846132d5565b6128c684846130ce565b82846001600160a01b0316866001600160a01b03167fddf252ad1be2c89b69c2b068fc378daa952ba7f163c4a11628f55a4df523b3ef60405160405180910390a4611056565b60006001600160a01b0384163b15612a4d57604051630a85bd0160e11b81526001600160a01b0385169063150b7a0290612950903390899088908890600401614045565b6020604051808303816000875af192505050801561298b575060408051601f3d908101601f1916820190925261298891810190614082565b60015b612a33573d8080156129b9576040519150601f19603f3d011682016040523d82523d6000602084013e6129be565b606091505b508051600003612a2b5760405162461bcd60e51b815260206004820152603260248201527f4552433732313a207472616e7366657220746f206e6f6e20455243373231526560448201527131b2b4bb32b91034b6b83632b6b2b73a32b960711b60648201526084016108e0565b805181602001fd5b6001600160e01b031916630a85bd0160e11b149050610b64565b506001949350505050565b60606000612a67836002613f56565b612a72906002613c99565b67ffffffffffffffff811115612a8a57612a8a61366a565b6040519080825280601f01601f191660200182016040528015612ab4576020820181803683370190505b509050600360fc1b81600081518110612acf57612acf613b2f565b60200101906001600160f81b031916908160001a905350600f60fb1b81600181518110612afe57612afe613b2f565b60200101906001600160f81b031916908160001a9053506000612b22846002613f56565b612b2d906001613c99565b90505b6001811115612ba5576f181899199a1a9b1b9c1cb0b131b232b360811b85600f1660108110612b6157612b61613b2f565b1a60f81b828281518110612b7757612b77613b2f565b60200101906001600160f81b031916908160001a90535060049490941c93612b9e8161409f565b9050612b30565b508315610a645760405162461bcd60e51b815260206004820181905260248201527f537472696e67733a20686578206c656e67746820696e73756666696369656e7460448201526064016108e0565b6000612c00838561197a565b9050612c0c8484612283565b158015612c1b57506000198114155b156118e25781811015612c705760405162461bcd60e51b815260206004820152601f60248201527f455243333532353a20696e73756666696369656e7420616c6c6f77616e63650060448201526064016108e0565b6118e28385612c7f8585614032565b61267c565b600061076c611ef8565b612c978361238e565b612cf35760405162461bcd60e51b815260206004820152602760248201527f455243333532353a207472616e736665722066726f6d20696e76616c696420746044820152661bdad95b88125160ca1b60648201526084016108e0565b612cfc8261238e565b612d565760405162461bcd60e51b815260206004820152602560248201527f455243333532353a207472616e7366657220746f20696e76616c696420746f6b604482015264195b88125160da1b60648201526084016108e0565b600083815260066020526040812054600580549091908110612d7a57612d7a613b2f565b9060005260206000209060060201905060006005600660008681526020019081526020016000205481548110612db257612db2613b2f565b906000526020600020906006020190508282600201541015612e295760405162461bcd60e51b815260206004820152602a60248201527f455243333532353a20696e73756666696369656e742062616c616e636520666f60448201526939103a3930b739b332b960b11b60648201526084016108e0565b8060010154826001015414612e975760405162461bcd60e51b815260206004820152602e60248201527f455243333532353a207472616e7366657220746f20746f6b656e20776974682060448201526d191a5999995c995b9d081cdb1bdd60921b60648201526084016108e0565b82826002016000828254612eab9190614032565b9250508190555082816002016000828254612ec69190613c99565b9091555050604051838152849086907f0b2aac84f3ec956911fd78eae5311062972ff949f38412e8da39069d9f068cc69060200160405180910390a3612f1d858585604051806020016040528060008152506133f6565b6110565760405162461bcd60e51b815260206004820152602d60248201527f455243333532353a207472616e736665722072656a656374656420627920455260448201526c21999a991aa932b1b2b4bb32b960991b60648201526084016108e0565b600580548251600090815260066020818152604080842085905560018501865594909252845192027f036b6384b5eca791c62761152d0c79bb0604c104a5fb6f4eb0703f3154bb3db08101928355818501517f036b6384b5eca791c62761152d0c79bb0604c104a5fb6f4eb0703f3154bb3db1820155928401517f036b6384b5eca791c62761152d0c79bb0604c104a5fb6f4eb0703f3154bb3db284015560608401517f036b6384b5eca791c62761152d0c79bb0604c104a5fb6f4eb0703f3154bb3db3840180546001600160a01b039283166001600160a01b03199182161790915560808601517f036b6384b5eca791c62761152d0c79bb0604c104a5fb6f4eb0703f3154bb3db48601805491909316911617905560a0840151805185946118e2937f036b6384b5eca791c62761152d0c79bb0604c104a5fb6f4eb0703f3154bb3db5909101920190613529565b6000818152600660205260409020546005805484929081106130f2576130f2613b2f565b6000918252602080832060069290920290910160030180546001600160a01b0319166001600160a01b03948516179055939091168152600780845260408083208054858552600182810188529285208190559286529082018155825292902090910155565b60008181526006602052604081205460058054839290811061317b5761317b613b2f565b6000918252602082206005600690920201015491505b8181101561321f57600084815260066020526040902054600580546001600160a01b038816929081106131c6576131c6613b2f565b906000526020600020906006020160050182815481106131e8576131e8613b2f565b6000918252602090912001546001600160a01b03160361320d5760019250505061076c565b80613217816140b6565b915050613191565b506000949350505050565b60008181526006602052604081205460058054909190811061324e5761324e613b2f565b600091825260208220600560069092020190810154909250905b818110156132c657600083600501828154811061328757613287613b2f565b60009182526020808320909101548783526004825260408084206001600160a01b039092168452915281205550806132be816140b6565b915050613268565b5061098160058301600061358e565b6000818152600660205260408120546005805490919081106132f9576132f9613b2f565b6000918252602080832060069290920290910160030180546001600160a01b0319166001600160a01b039485161790559184168152600790915260408120805490919061334890600190614032565b9050600082600001828154811061336157613361613b2f565b9060005260206000200154905060008360010160008681526020019081526020016000205490508184600001828154811061339e5761339e613b2f565b600091825260208083209091019290925583815260018601909152604080822083905586825281205583548490806133d8576133d86140cf565b60019003818190600052602060002001600090559055505050505050565b600080613402856112b2565b90506001600160a01b0381163b1515801561348657506040516301ffc9a760e01b8152629ce20b60e01b60048201526001600160a01b038216906301ffc9a790602401602060405180830381865afa158015613462573d6000803e3d6000fd5b505050506040513d601f19601f8201168201806040525081019061348691906140e5565b1561351f57604051629ce20b60e01b81526000906001600160a01b03831690629ce20b906134c09033908b908b908b908b90600401614102565b6020604051808303816000875af11580156134df573d6000803e3d6000fd5b505050506040513d601f19601f820116820180604052508101906135039190614082565b6001600160e01b031916629ce20b60e01b149250610b64915050565b6001915050610b64565b82805482825590600052602060002090810192821561357e579160200282015b8281111561357e57825182546001600160a01b0319166001600160a01b03909116178255602090920191600190910190613549565b5061358a9291506135a8565b5090565b5080546000825590600052602060002090810190611b1191905b5b8082111561358a57600081556001016135a9565b6001600160e01b031981168114611b1157600080fd5b6000602082840312156135e557600080fd5b8135610a64816135bd565b60005b8381101561360b5781810151838201526020016135f3565b50506000910152565b6000815180845261362c8160208601602086016135f0565b601f01601f19169290920160200192915050565b602081526000610a646020830184613614565b80356001600160a01b038116811461134957600080fd5b634e487b7160e01b600052604160045260246000fd5b604051601f8201601f1916810167ffffffffffffffff811182821017156136a9576136a961366a565b604052919050565b600067ffffffffffffffff8211156136cb576136cb61366a565b50601f01601f191660200190565b60006136ec6136e7846136b1565b613680565b905082815283838301111561370057600080fd5b828260208301376000602084830101529392505050565b600082601f83011261372857600080fd5b610a64838335602085016136d9565b600080600080600080600080610100898b03121561375457600080fd5b61375d89613653565b97506020890135965060408901359550606089013594506080890135935060a089013567ffffffffffffffff8082111561379657600080fd5b6137a28c838d01613717565b945060c08b01359150808211156137b857600080fd5b6137c48c838d01613717565b935060e08b01359150808211156137da57600080fd5b506137e78b828c01613717565b9150509295985092959890939650565b60006020828403121561380957600080fd5b5035919050565b6000806040838503121561382357600080fd5b61382c83613653565b946020939093013593505050565b60008060006060848603121561384f57600080fd5b8335925061385f60208501613653565b9150604084013590509250925092565b60008060006060848603121561388457600080fd5b61388d84613653565b925061385f60208501613653565b6000806000606084860312156138b057600080fd5b505081359360208301359350604090920135919050565b6000602082840312156138d957600080fd5b813567ffffffffffffffff8111156138f057600080fd5b610b6484828501613717565b6000806040838503121561390f57600080fd5b50508035926020909101359150565b60008060008060008060c0878903121561393757600080fd5b61394087613653565b95506020870135945060408701359350606087013567ffffffffffffffff8082111561396b57600080fd5b6139778a838b01613717565b9450608089013591508082111561398d57600080fd5b6139998a838b01613717565b935060a08901359150808211156139af57600080fd5b506139bc89828a01613717565b9150509295509295509295565b6000602082840312156139db57600080fd5b610a6482613653565b8015158114611b1157600080fd5b60008060408385031215613a0557600080fd5b613a0e83613653565b91506020830135613a1e816139e4565b809150509250929050565b60008060008060808587031215613a3f57600080fd5b613a4885613653565b9350613a5660208601613653565b925060408501359150606085013567ffffffffffffffff811115613a7957600080fd5b8501601f81018713613a8a57600080fd5b613a99878235602084016136d9565b91505092959194509250565b60008060408385031215613ab857600080fd5b82359150613ac860208401613653565b90509250929050565b60008060408385031215613ae457600080fd5b613aed83613653565b9150613ac860208401613653565b600181811c90821680613b0f57607f821691505b60208210810361186d57634e487b7160e01b600052602260045260246000fd5b634e487b7160e01b600052603260045260246000fd5b60208082526022908201527f455243333532353a20617070726f76616c20746f2063757272656e74206f776e60408201526132b960f11b606082015260800190565b60008351613b998184602088016135f0565b64736c6f742f60d81b9083019081528351613bbb8160058401602088016135f0565b01600501949350505050565b600060208284031215613bd957600080fd5b815167ffffffffffffffff811115613bf057600080fd5b8201601f81018413613c0157600080fd5b8051613c0f6136e7826136b1565b818152856020838501011115613c2457600080fd5b613c358260208301602086016135f0565b95945050505050565b60208082526025908201527f54696d654372656469743a207472616e736665727320617265206e6f7420616c6040820152641b1bddd95960da1b606082015260800190565b634e487b7160e01b600052601160045260246000fd5b8082018082111561076c5761076c613c83565b601f82111561098157600081815260208120601f850160051c81016020861015613cd35750805b601f850160051c820191505b81811015611e9657828155600101613cdf565b815167ffffffffffffffff811115613d0c57613d0c61366a565b613d2081613d1a8454613afb565b84613cac565b602080601f831160018114613d555760008415613d3d5750858301515b600019600386901b1c1916600185901b178555611e96565b600085815260208120601f198616915b82811015613d8457888601518255948401946001909101908401613d65565b5085821015613da25787850151600019600388901b60f8161c191681555b5050505050600190811b01905550565b828152604060208201526000610b646040830184613614565b6000808354613dd981613afb565b60018281168015613df15760018114613e0657613e35565b60ff1984168752821515830287019450613e35565b8760005260208060002060005b85811015613e2c5781548a820152908401908201613e13565b50505082870194505b50929695505050505050565b600181815b80851115613e7c578160001904821115613e6257613e62613c83565b80851615613e6f57918102915b93841c9390800290613e46565b509250929050565b600082613e935750600161076c565b81613ea05750600061076c565b8160018114613eb65760028114613ec057613edc565b600191505061076c565b60ff841115613ed157613ed1613c83565b50506001821b61076c565b5060208310610133831016604e8410600b8410161715613eff575081810a61076c565b613f098383613e41565b8060001904821115613f1d57613f1d613c83565b029392505050565b6000610a6460ff841683613e84565b600082613f5157634e487b7160e01b600052601260045260246000fd5b500490565b808202811582820484141761076c5761076c613c83565b60208082526032908201527f455243333532353a207472616e736665722063616c6c6572206973206e6f74206040820152711bdddb995c881b9bdc88185c1c1c9bdd995960721b606082015260800190565b60008351613fd18184602088016135f0565b835190830190613fe58183602088016135f0565b01949350505050565b600083516140008184602088016135f0565b68636f6e74726163742f60b81b90830190815283516140268160098401602088016135f0565b01600901949350505050565b8181038181111561076c5761076c613c83565b6001600160a01b038581168252841660208201526040810183905260806060820181905260009061407890830184613614565b9695505050505050565b60006020828403121561409457600080fd5b8151610a64816135bd565b6000816140ae576140ae613c83565b506000190190565b6000600182016140c8576140c8613c83565b5060010190565b634e487b7160e01b600052603160045260246000fd5b6000602082840312156140f757600080fd5b8151610a64816139e4565b60018060a01b038616815284602082015283604082015282606082015260a06080820152600061413560a0830184613614565b97965050505050505056fea264697066735822122098981fee9542d33cc9d2f6c81e927993db0140ced094d5bceff8cf9c4b0dec7264736f6c6343000811003360806040523480156200001157600080fd5b5060405162001ada38038062001ada833981016040819052620000349162000150565b600162000042858262000292565b50600262000051848262000292565b50600362000060838262000292565b50600080546001600160a01b0319166001600160a01b0392909216919091179055506200035e915050565b634e487b7160e01b600052604160045260246000fd5b600082601f830112620000b357600080fd5b81516001600160401b0380821115620000d057620000d06200008b565b604051601f8301601f19908116603f01168101908282118183101715620000fb57620000fb6200008b565b816040528381526020925086838588010111156200011857600080fd5b600091505b838210156200013c57858201830151818301840152908201906200011d565b600093810190920192909252949350505050565b600080600080608085870312156200016757600080fd5b84516001600160401b03808211156200017f57600080fd5b6200018d88838901620000a1565b95506020870151915080821115620001a457600080fd5b620001b288838901620000a1565b94506040870151915080821115620001c957600080fd5b50620001d887828801620000a1565b606087015190935090506001600160a01b0381168114620001f857600080fd5b939692955090935050565b600181811c908216806200021857607f821691505b6020821081036200023957634e487b7160e01b600052602260045260246000fd5b50919050565b601f8211156200028d57600081815260208120601f850160051c81016020861015620002685750805b601f850160051c820191505b81811015620002895782815560010162000274565b5050505b505050565b81516001600160401b03811115620002ae57620002ae6200008b565b620002c681620002bf845462000203565b846200023f565b602080601f831160018114620002fe5760008415620002e55750858301515b600019600386901b1c1916600185901b17855562000289565b600085815260208120601f198616915b828110156200032f578886015182559484019460019091019084016200030e565b50858210156200034e5787850151600019600388901b60f8161c191681555b5050505050600190811b01905550565b61176c806200036e6000396000f3fe608060405234801561001057600080fd5b506004361061009e5760003560e01c806371f0442e1161006657806371f0442e1461011a578063725fa09c1461012d578063842251d414610135578063894b4c2e14610148578063b3154c081461015b57600080fd5b80631375d843146100a3578063246a908b146100cc57806355f804b3146100e157806364140ec0146100f45780636c037f8a14610107575b600080fd5b6100b66100b1366004610d22565b61016e565b6040516100c39190610d5f565b60405180910390f35b6100df6100da366004610e57565b610210565b005b6100df6100ef366004610e9e565b61022d565b6100df610102366004610e57565b61023d565b6100b6610115366004610d22565b610255565b6100b6610128366004610d22565b6102cb565b6100b66102e8565b6100df610143366004610e57565b61040d565b6100b6610156366004610d22565b610425565b6100b6610169366004610d22565b61052f565b600081815260066020526040902080546060919061018b90610edb565b80601f01602080910402602001604051908101604052809291908181526020018280546101b790610edb565b80156102045780601f106101d957610100808354040283529160200191610204565b820191906000526020600020905b8154815290600101906020018083116101e757829003601f168201915b50505050509050919050565b60008281526004602052604090206102288282610f63565b505050565b60016102398282610f63565b5050565b60008281526005602052604090206102288282610f63565b60606102a56102638361054c565b61026c846105c5565b610275856105f7565b61027e86610679565b604051602001610291949392919061103f565b6040516020818303038152906040526106fb565b6040516020016102b5919061110d565b6040516020818303038152906040529050919050565b600081815260056020526040902080546060919061018b90610edb565b606060003390506103e8816001600160a01b03166306fdde036040518163ffffffff1660e01b8152600401600060405180830381865afa158015610330573d6000803e3d6000fd5b505050506040513d6000823e601f3d908101601f191682016040526103589190810190611152565b61036061084e565b6103686108e0565b6103d5856001600160a01b0316633e7e86696040518163ffffffff1660e01b8152600401602060405180830381865afa1580156103a9573d6000803e3d6000fd5b505050506040513d601f19601f820116820180604052508101906103cd91906111c9565b60ff16610915565b60405160200161029194939291906111ec565b6040516020016103f8919061110d565b60405160208183030381529060405291505090565b60008281526006602052604090206102288282610f63565b606033610508610434846109a8565b61043d8561052f565b61044686610a2a565b604051631398fee160e31b8152600481018890526104b9906001600160a01b03871690639cc7f708906024015b602060405180830381865afa158015610490573d6000803e3d6000fd5b505050506040513d601f19601f820116820180604052508101906104b491906112bf565b610915565b60405163131f9f3f60e11b8152600481018990526104ea906001600160a01b0388169063263f3e7e90602401610473565b6104f389610a5f565b604051602001610291969594939291906112d8565b604051602001610518919061110d565b604051602081830303815290604052915050919050565b600081815260046020526040902080546060919061018b90610edb565b60005460405163ec327a2160e01b8152600481018390526060916001600160a01b03169063ec327a21906024015b600060405180830381865afa158015610597573d6000803e3d6000fd5b505050506040513d6000823e601f3d908101601f191682016040526105bf9190810190611152565b92915050565b60005460405163bc74ebb960e01b8152600481018390526060916001600160a01b03169063bc74ebb99060240161057a565b6000546040516309c3dd8760e01b8152600481018390526060916001600160a01b0316906309c3dd8790602401600060405180830381865afa158015610641573d6000803e3d6000fd5b505050506040513d6000823e601f3d908101601f191682016040526106699190810190611152565b6040516020016102b591906113fe565b6000546040516309c3dd8760e01b8152600481018390526060916001600160a01b0316906309c3dd8790602401600060405180830381865afa1580156106c3573d6000803e3d6000fd5b505050506040513d6000823e601f3d908101601f191682016040526106eb9190810190611152565b6040516020016102b59190611428565b6060815160000361071a57505060408051602081019091526000815290565b60006040518060600160405280604081526020016116f760409139905060006003845160026107499190611472565b6107539190611485565b61075e9060046114a7565b67ffffffffffffffff81111561077657610776610d92565b6040519080825280601f01601f1916602001820160405280156107a0576020820181803683370190505b509050600182016020820185865187015b8082101561080c576003820191508151603f8160121c168501518453600184019350603f81600c1c168501518453600184019350603f8160061c168501518453600184019350603f81168501518453506001830192506107b1565b5050600386510660018114610828576002811461083b57610843565b603d6001830353603d6002830353610843565b603d60018303535b509195945050505050565b60606002805461085d90610edb565b80601f016020809104026020016040519081016040528092919081815260200182805461088990610edb565b80156108d65780601f106108ab576101008083540402835291602001916108d6565b820191906000526020600020905b8154815290600101906020018083116108b957829003601f168201915b5050505050905090565b606060016108ed33610a8d565b600360405160200161090193929190611531565b604051602081830303815290604052905090565b6060600061092283610aa3565b600101905060008167ffffffffffffffff81111561094257610942610d92565b6040519080825280601f01601f19166020018201604052801561096c576020820181803683370190505b5090508181016020015b600019016f181899199a1a9b1b9c1cb0b131b232b360811b600a86061a8153600a850494508461097657509392505050565b6060336001600160a01b03166306fdde036040518163ffffffff1660e01b8152600401600060405180830381865afa1580156109e8573d6000803e3d6000fd5b505050506040513d6000823e601f3d908101601f19168201604052610a109190810190611152565b610a1983610915565b6040516020016102b5929190611585565b60606001610a3730610a8d565b6000848152600660209081526040808320600583529281902090516102b595949392016115c2565b60606001610a6c33610a8d565b60008481526006602090815260409182902091516102b59493929101611634565b60606105bf6001600160a01b0383166014610b7b565b60008072184f03e93ff9f4daa797ed6e38ed64bf6a1f0160401b8310610ae25772184f03e93ff9f4daa797ed6e38ed64bf6a1f0160401b830492506040015b6d04ee2d6d415b85acef81000000008310610b0e576d04ee2d6d415b85acef8100000000830492506020015b662386f26fc100008310610b2c57662386f26fc10000830492506010015b6305f5e1008310610b44576305f5e100830492506008015b6127108310610b5857612710830492506004015b60648310610b6a576064830492506002015b600a83106105bf5760010192915050565b60606000610b8a8360026114a7565b610b95906002611472565b67ffffffffffffffff811115610bad57610bad610d92565b6040519080825280601f01601f191660200182016040528015610bd7576020820181803683370190505b509050600360fc1b81600081518110610bf257610bf26116c9565b60200101906001600160f81b031916908160001a905350600f60fb1b81600181518110610c2157610c216116c9565b60200101906001600160f81b031916908160001a9053506000610c458460026114a7565b610c50906001611472565b90505b6001811115610cc8576f181899199a1a9b1b9c1cb0b131b232b360811b85600f1660108110610c8457610c846116c9565b1a60f81b828281518110610c9a57610c9a6116c9565b60200101906001600160f81b031916908160001a90535060049490941c93610cc1816116df565b9050610c53565b508315610d1b5760405162461bcd60e51b815260206004820181905260248201527f537472696e67733a20686578206c656e67746820696e73756666696369656e74604482015260640160405180910390fd5b9392505050565b600060208284031215610d3457600080fd5b5035919050565b60005b83811015610d56578181015183820152602001610d3e565b50506000910152565b6020815260008251806020840152610d7e816040850160208701610d3b565b601f01601f19169190910160400192915050565b634e487b7160e01b600052604160045260246000fd5b604051601f8201601f1916810167ffffffffffffffff81118282101715610dd157610dd1610d92565b604052919050565b600067ffffffffffffffff821115610df357610df3610d92565b50601f01601f191660200190565b600082601f830112610e1257600080fd5b8135610e25610e2082610dd9565b610da8565b818152846020838601011115610e3a57600080fd5b816020850160208301376000918101602001919091529392505050565b60008060408385031215610e6a57600080fd5b82359150602083013567ffffffffffffffff811115610e8857600080fd5b610e9485828601610e01565b9150509250929050565b600060208284031215610eb057600080fd5b813567ffffffffffffffff811115610ec757600080fd5b610ed384828501610e01565b949350505050565b600181811c90821680610eef57607f821691505b602082108103610f0f57634e487b7160e01b600052602260045260246000fd5b50919050565b601f82111561022857600081815260208120601f850160051c81016020861015610f3c5750805b601f850160051c820191505b81811015610f5b57828155600101610f48565b505050505050565b815167ffffffffffffffff811115610f7d57610f7d610d92565b610f9181610f8b8454610edb565b84610f15565b602080601f831160018114610fc65760008415610fae5750858301515b600019600386901b1c1916600185901b178555610f5b565b600085815260208120601f198616915b82811015610ff557888601518255948401946001909101908401610fd6565b50858210156110135787850151600019600388901b60f8161c191681555b5050505050600190811b01905550565b60008151611035818560208601610d3b565b9290920192915050565b683d913730b6b2911d1160b91b81528451600090611064816009850160208a01610d3b565b701116113232b9b1b934b83a34b7b7111d1160791b600991840191820152855161109581601a840160208a01610d3b565b6a11161134b6b0b3b2911d1160a91b601a929091019182015284516110c1816025840160208901610d3b565b6e111611383937b832b93a34b2b9911d60891b6025929091019182015283516110f1816034840160208801610d3b565b607d60f81b603492909101918201526035019695505050505050565b7f646174613a6170706c69636174696f6e2f6a736f6e3b6261736536342c00000081526000825161114581601d850160208701610d3b565b91909101601d0192915050565b60006020828403121561116457600080fd5b815167ffffffffffffffff81111561117b57600080fd5b8201601f8101841361118c57600080fd5b805161119a610e2082610dd9565b8181528560208385010111156111af57600080fd5b6111c0826020830160208601610d3b565b95945050505050565b6000602082840312156111db57600080fd5b815160ff81168114610d1b57600080fd5b683d913730b6b2911d1160b91b81528451600090611211816009850160208a01610d3b565b701116113232b9b1b934b83a34b7b7111d1160791b600991840191820152855161124281601a840160208a01610d3b565b6a11161134b6b0b3b2911d1160a91b601a9290910191820152845161126e816025840160208901610d3b565b721116113b30b63ab2a232b1b4b6b0b639911d1160691b6025929091019182015283516112a2816038840160208801610d3b565b61227d60f01b60389290910191820152603a019695505050505050565b6000602082840312156112d157600080fd5b5051919050565b683d913730b6b2911d1160b91b815286516000906112fd816009850160208c01610d3b565b701116113232b9b1b934b83a34b7b7111d1160791b600991840191820152875161132e81601a840160208c01610d3b565b6a11161134b6b0b3b2911d1160a91b601a9290910191820152865161135a816025840160208b01610d3b565b6c1116113130b630b731b2911d1160991b602592909101918201528551611388816032840160208a01610d3b565b6911161139b637ba111d1160b11b6032929091019182015284516113b381603c840160208901610d3b565b6113f06113e36113dd603c848601016e111611383937b832b93a34b2b9911d60891b8152600f0190565b87611023565b607d60f81b815260010190565b9a9950505050505050505050565b60008251611410818460208701610d3b565b652f696d61676560d01b920191825250600601919050565b6000825161143a818460208701610d3b565b6f17b83937b832b93a34b2b9973539b7b760811b920191825250601001919050565b634e487b7160e01b600052601160045260246000fd5b808201808211156105bf576105bf61145c565b6000826114a257634e487b7160e01b600052601260045260246000fd5b500490565b80820281158282048414176105bf576105bf61145c565b600081546114cb81610edb565b600182811680156114e357600181146114f857611527565b60ff1984168752821515830287019450611527565b8560005260208060002060005b8581101561151e5781548a820152908401908201611505565b50505082870194505b5050505092915050565b600061153d82866114be565b68636f6e74726163742f60b81b8152845161155f816009840160208901610d3b565b602f60f81b6009929091019182015261157b600a8201856114be565b9695505050505050565b60008351611597818460208801610d3b565b61202360f01b90830190815283516115b6816002840160208801610d3b565b01600201949350505050565b60006115ce82876114be565b692f636f6e74726163742f60b01b815285516115f181600a840160208a01610d3b565b662f746f6b656e2f60c81b600a929091019182015261161360118201866114be565b9050602f60f81b815261162960018201856114be565b979650505050505050565b6e7b70726f706572746965735f75726960881b81526000611658600f8301866114be565b68636f6e74726163742f60b81b8152845161167a816009840160208901610d3b565b662f746f6b656e2f60c81b6009929091019182015261169c60108201856114be565b6f17b83937b832b93a34b2b9973539b7b760811b8152607d60f81b60108201526011019695505050505050565b634e487b7160e01b600052603260045260246000fd5b6000816116ee576116ee61145c565b50600019019056fe4142434445464748494a4b4c4d4e4f505152535455565758595a6162636465666768696a6b6c6d6e6f707172737475767778797a303132333435363738392b2fa2646970667358221220ff9209fa763cebe143e190fa2f1ad1e413f9b97c45e4f09a1f7a97ba3d94292564736f6c63430008110033",
  "linkReferences": {},
  "deployedLinkReferences": {}
}