{
  "_format": "hh-sol-artifact-1",
  "contractName": "TimeCredit",
  "sourceName": "contracts/TimeCredit.sol",
  "abi": [
    {
      "inputs": [
        {
          "internalType": "address",
          "name": "revenueAcct_",
          "type": "address"
        },
        {
          "internalType": "address",
          "name": "serviceAdmin_",
          "type": "address"
        },
        {
          "internalType": "address",
          "name": "slotRegistry_",
          "type": "address"
        },
        {
          "internalType": "address",
          "name": "underlyingContract_",
          "type": "address"
        },
        {
          "internalType": "address",
          "name": "mktAdmin_",
          "type": "address"
        },
        {
          "internalType": "uint256",
          "name": "defaultSlot_",
          "type": "uint256"
        },
        {
          "internalType": "string",
          "name": "name_",
          "type": "string"
        },
        {
          "internalType": "string",
          "name": "symbol_",
          "type": "string"
        },
        {
          "internalType": "string",
          "name": "baseuri_",
          "type": "string"
        },
        {
          "internalType": "string",
          "name": "contractDescription_",
          "type": "string"
        },
        {
          "internalType": "string",
          "name": "contractImage_",
          "type": "string"
        },
        {
          "internalType": "string",
          "name": "dispTimeUnit_",
          "type": "string"
        },
        {
          "internalType": "string",
          "name": "valueToken_",
          "type": "string"
        },
        {
          "internalType": "uint8",
          "name": "decimals_",
          "type": "uint8"
        }
      ],
      "stateMutability": "nonpayable",
      "type": "constructor"
    },
    {
      "anonymous": false,
      "inputs": [
        {
          "indexed": true,
          "internalType": "address",
          "name": "_owner",
          "type": "address"
        },
        {
          "indexed": true,
          "internalType": "address",
          "name": "_approved",
          "type": "address"
        },
        {
          "indexed": true,
          "internalType": "uint256",
          "name": "_tokenId",
          "type": "uint256"
        }
      ],
      "name": "Approval",
      "type": "event"
    },
    {
      "anonymous": false,
      "inputs": [
        {
          "indexed": true,
          "internalType": "address",
          "name": "_owner",
          "type": "address"
        },
        {
          "indexed": true,
          "internalType": "address",
          "name": "_operator",
          "type": "address"
        },
        {
          "indexed": false,
          "internalType": "bool",
          "name": "_approved",
          "type": "bool"
        }
      ],
      "name": "ApprovalForAll",
      "type": "event"
    },
    {
      "anonymous": false,
      "inputs": [
        {
          "indexed": true,
          "internalType": "uint256",
          "name": "_tokenId",
          "type": "uint256"
        },
        {
          "indexed": true,
          "internalType": "address",
          "name": "_operator",
          "type": "address"
        },
        {
          "indexed": false,
          "internalType": "uint256",
          "name": "_value",
          "type": "uint256"
        }
      ],
      "name": "ApprovalValue",
      "type": "event"
    },
    {
      "anonymous": false,
      "inputs": [
        {
          "indexed": false,
          "internalType": "address",
          "name": "contractAddress",
          "type": "address"
        }
      ],
      "name": "MetadataDescriptor",
      "type": "event"
    },
    {
      "anonymous": false,
      "inputs": [
        {
          "indexed": false,
          "internalType": "uint256",
          "name": "tokenId",
          "type": "uint256"
        },
        {
          "indexed": false,
          "internalType": "uint256",
          "name": "slot",
          "type": "uint256"
        },
        {
          "indexed": false,
          "internalType": "uint256",
          "name": "value",
          "type": "uint256"
        }
      ],
      "name": "MintServiceToken",
      "type": "event"
    },
    {
      "anonymous": false,
      "inputs": [
        {
          "indexed": false,
          "internalType": "uint256",
          "name": "newTokenId",
          "type": "uint256"
        },
        {
          "indexed": false,
          "internalType": "uint256",
          "name": "slot",
          "type": "uint256"
        },
        {
          "indexed": false,
          "internalType": "uint256",
          "name": "value",
          "type": "uint256"
        }
      ],
      "name": "MintServiceTokenToAddress",
      "type": "event"
    },
    {
      "anonymous": false,
      "inputs": [
        {
          "indexed": false,
          "internalType": "uint256",
          "name": "value_seconds",
          "type": "uint256"
        },
        {
          "indexed": false,
          "internalType": "uint256",
          "name": "value_unit",
          "type": "uint256"
        }
      ],
      "name": "MintTimeToken",
      "type": "event"
    },
    {
      "anonymous": false,
      "inputs": [
        {
          "indexed": true,
          "internalType": "bytes32",
          "name": "role",
          "type": "bytes32"
        },
        {
          "indexed": true,
          "internalType": "bytes32",
          "name": "previousAdminRole",
          "type": "bytes32"
        },
        {
          "indexed": true,
          "internalType": "bytes32",
          "name": "newAdminRole",
          "type": "bytes32"
        }
      ],
      "name": "RoleAdminChanged",
      "type": "event"
    },
    {
      "anonymous": false,
      "inputs": [
        {
          "indexed": true,
          "internalType": "bytes32",
          "name": "role",
          "type": "bytes32"
        },
        {
          "indexed": true,
          "internalType": "address",
          "name": "account",
          "type": "address"
        },
        {
          "indexed": true,
          "internalType": "address",
          "name": "sender",
          "type": "address"
        }
      ],
      "name": "RoleGranted",
      "type": "event"
    },
    {
      "anonymous": false,
      "inputs": [
        {
          "indexed": true,
          "internalType": "bytes32",
          "name": "role",
          "type": "bytes32"
        },
        {
          "indexed": true,
          "internalType": "address",
          "name": "account",
          "type": "address"
        },
        {
          "indexed": true,
          "internalType": "address",
          "name": "sender",
          "type": "address"
        }
      ],
      "name": "RoleRevoked",
      "type": "event"
    },
    {
      "anonymous": false,
      "inputs": [
        {
          "indexed": true,
          "internalType": "address",
          "name": "metadataDescriptor",
          "type": "address"
        }
      ],
      "name": "SetMetadataDescriptor",
      "type": "event"
    },
    {
      "anonymous": false,
      "inputs": [
        {
          "indexed": true,
          "internalType": "uint256",
          "name": "_tokenId",
          "type": "uint256"
        },
        {
          "indexed": true,
          "internalType": "uint256",
          "name": "_oldSlot",
          "type": "uint256"
        },
        {
          "indexed": true,
          "internalType": "uint256",
          "name": "_newSlot",
          "type": "uint256"
        }
      ],
      "name": "SlotChanged",
      "type": "event"
    },
    {
      "anonymous": false,
      "inputs": [
        {
          "indexed": true,
          "internalType": "address",
          "name": "_from",
          "type": "address"
        },
        {
          "indexed": true,
          "internalType": "address",
          "name": "_to",
          "type": "address"
        },
        {
          "indexed": true,
          "internalType": "uint256",
          "name": "_tokenId",
          "type": "uint256"
        }
      ],
      "name": "Transfer",
      "type": "event"
    },
    {
      "anonymous": false,
      "inputs": [
        {
          "indexed": true,
          "internalType": "uint256",
          "name": "_fromTokenId",
          "type": "uint256"
        },
        {
          "indexed": true,
          "internalType": "uint256",
          "name": "_toTokenId",
          "type": "uint256"
        },
        {
          "indexed": false,
          "internalType": "uint256",
          "name": "_value",
          "type": "uint256"
        }
      ],
      "name": "TransferValue",
      "type": "event"
    },
    {
      "anonymous": false,
      "inputs": [
        {
          "indexed": false,
          "internalType": "uint256",
          "name": "fromTokenId",
          "type": "uint256"
        },
        {
          "indexed": false,
          "internalType": "uint256",
          "name": "toTokenId",
          "type": "uint256"
        },
        {
          "indexed": false,
          "internalType": "uint256",
          "name": "value",
          "type": "uint256"
        }
      ],
      "name": "ValueTransfer",
      "type": "event"
    },
    {
      "inputs": [],
      "name": "DEFAULT_ADMIN_ROLE",
      "outputs": [
        {
          "internalType": "bytes32",
          "name": "",
          "type": "bytes32"
        }
      ],
      "stateMutability": "view",
      "type": "function"
    },
    {
      "inputs": [],
      "name": "MKT_ARBITRATOR_ROLE",
      "outputs": [
        {
          "internalType": "bytes32",
          "name": "",
          "type": "bytes32"
        }
      ],
      "stateMutability": "view",
      "type": "function"
    },
    {
      "inputs": [
        {
          "internalType": "string",
          "name": "uri_",
          "type": "string"
        }
      ],
      "name": "_setBaseURI",
      "outputs": [],
      "stateMutability": "nonpayable",
      "type": "function"
    },
    {
      "inputs": [
        {
          "internalType": "uint256",
          "name": "tokenId_",
          "type": "uint256"
        },
        {
          "internalType": "uint256",
          "name": "valueSeconds_",
          "type": "uint256"
        }
      ],
      "name": "addTime",
      "outputs": [],
      "stateMutability": "nonpayable",
      "type": "function"
    },
    {
      "inputs": [
        {
          "internalType": "uint256",
          "name": "tokenId_",
          "type": "uint256"
        },
        {
          "internalType": "address",
          "name": "operator_",
          "type": "address"
        }
      ],
      "name": "allowance",
      "outputs": [
        {
          "internalType": "uint256",
          "name": "",
          "type": "uint256"
        }
      ],
      "stateMutability": "view",
      "type": "function"
    },
    {
      "inputs": [
        {
          "internalType": "address",
          "name": "to_",
          "type": "address"
        },
        {
          "internalType": "uint256",
          "name": "tokenId_",
          "type": "uint256"
        }
      ],
      "name": "approve",
      "outputs": [],
      "stateMutability": "payable",
      "type": "function"
    },
    {
      "inputs": [
        {
          "internalType": "uint256",
          "name": "tokenId_",
          "type": "uint256"
        },
        {
          "internalType": "address",
          "name": "to_",
          "type": "address"
        },
        {
          "internalType": "uint256",
          "name": "value_",
          "type": "uint256"
        }
      ],
      "name": "approve",
      "outputs": [],
      "stateMutability": "payable",
      "type": "function"
    },
    {
      "inputs": [
        {
          "internalType": "address",
          "name": "owner_",
          "type": "address"
        }
      ],
      "name": "balanceOf",
      "outputs": [
        {
          "internalType": "uint256",
          "name": "balance",
          "type": "uint256"
        }
      ],
      "stateMutability": "view",
      "type": "function"
    },
    {
      "inputs": [
        {
          "internalType": "uint256",
          "name": "tokenId_",
          "type": "uint256"
        }
      ],
      "name": "balanceOf",
      "outputs": [
        {
          "internalType": "uint256",
          "name": "",
          "type": "uint256"
        }
      ],
      "stateMutability": "view",
      "type": "function"
    },
    {
      "inputs": [],
      "name": "contractAdmin",
      "outputs": [
        {
          "internalType": "address",
          "name": "",
          "type": "address"
        }
      ],
      "stateMutability": "view",
      "type": "function"
    },
    {
      "inputs": [],
      "name": "contractURI",
      "outputs": [
        {
          "internalType": "string",
          "name": "",
          "type": "string"
        }
      ],
      "stateMutability": "view",
      "type": "function"
    },
    {
      "inputs": [],
      "name": "creditType",
      "outputs": [
        {
          "internalType": "string",
          "name": "",
          "type": "string"
        }
      ],
      "stateMutability": "view",
      "type": "function"
    },
    {
      "inputs": [
        {
          "internalType": "uint256",
          "name": "tokenId_",
          "type": "uint256"
        }
      ],
      "name": "getApproved",
      "outputs": [
        {
          "internalType": "address",
          "name": "",
          "type": "address"
        }
      ],
      "stateMutability": "view",
      "type": "function"
    },
    {
      "inputs": [
        {
          "internalType": "bytes32",
          "name": "role",
          "type": "bytes32"
        }
      ],
      "name": "getRoleAdmin",
      "outputs": [
        {
          "internalType": "bytes32",
          "name": "",
          "type": "bytes32"
        }
      ],
      "stateMutability": "view",
      "type": "function"
    },
    {
      "inputs": [
        {
          "internalType": "uint256",
          "name": "tokenId",
          "type": "uint256"
        }
      ],
      "name": "getTokenDescription",
      "outputs": [
        {
          "internalType": "string",
          "name": "",
          "type": "string"
        }
      ],
      "stateMutability": "view",
      "type": "function"
    },
    {
      "inputs": [
        {
          "internalType": "uint256",
          "name": "tokenId",
          "type": "uint256"
        }
      ],
      "name": "getTokenImage",
      "outputs": [
        {
          "internalType": "string",
          "name": "",
          "type": "string"
        }
      ],
      "stateMutability": "view",
      "type": "function"
    },
    {
      "inputs": [
        {
          "internalType": "uint256",
          "name": "tokenId",
          "type": "uint256"
        }
      ],
      "name": "getTokenUUID",
      "outputs": [
        {
          "internalType": "string",
          "name": "",
          "type": "string"
        }
      ],
      "stateMutability": "view",
      "type": "function"
    },
    {
      "inputs": [
        {
          "internalType": "bytes32",
          "name": "role",
          "type": "bytes32"
        },
        {
          "internalType": "address",
          "name": "account",
          "type": "address"
        }
      ],
      "name": "grantRole",
      "outputs": [],
      "stateMutability": "nonpayable",
      "type": "function"
    },
    {
      "inputs": [
        {
          "internalType": "bytes32",
          "name": "role",
          "type": "bytes32"
        },
        {
          "internalType": "address",
          "name": "account",
          "type": "address"
        }
      ],
      "name": "hasRole",
      "outputs": [
        {
          "internalType": "bool",
          "name": "",
          "type": "bool"
        }
      ],
      "stateMutability": "view",
      "type": "function"
    },
    {
      "inputs": [
        {
          "internalType": "address",
          "name": "owner_",
          "type": "address"
        },
        {
          "internalType": "address",
          "name": "operator_",
          "type": "address"
        }
      ],
      "name": "isApprovedForAll",
      "outputs": [
        {
          "internalType": "bool",
          "name": "",
          "type": "bool"
        }
      ],
      "stateMutability": "view",
      "type": "function"
    },
    {
      "inputs": [
        {
          "internalType": "uint256",
          "name": "tokenId_",
          "type": "uint256"
        }
      ],
      "name": "isValid",
      "outputs": [
        {
          "internalType": "bool",
          "name": "",
          "type": "bool"
        }
      ],
      "stateMutability": "view",
      "type": "function"
    },
    {
      "inputs": [],
      "name": "metadataDescriptor",
      "outputs": [
        {
          "internalType": "contract IERC3525MetadataDescriptor",
          "name": "",
          "type": "address"
        }
      ],
      "stateMutability": "view",
      "type": "function"
    },
    {
      "inputs": [
        {
          "internalType": "address",
          "name": "owner_",
          "type": "address"
        },
        {
          "internalType": "uint256",
          "name": "slot_",
          "type": "uint256"
        },
        {
          "internalType": "uint256",
          "name": "value_",
          "type": "uint256"
        },
        {
          "internalType": "string",
          "name": "uuid_",
          "type": "string"
        },
        {
          "internalType": "string",
          "name": "token_description_",
          "type": "string"
        },
        {
          "internalType": "string",
          "name": "token_image_",
          "type": "string"
        }
      ],
      "name": "mint",
      "outputs": [
        {
          "internalType": "uint256",
          "name": "",
          "type": "uint256"
        }
      ],
      "stateMutability": "nonpayable",
      "type": "function"
    },
    {
      "inputs": [
        {
          "internalType": "address",
          "name": "owner_",
          "type": "address"
        },
        {
          "internalType": "uint256",
          "name": "slotId_",
          "type": "uint256"
        },
        {
          "internalType": "uint256",
          "name": "timeValue_",
          "type": "uint256"
        },
        {
          "internalType": "uint256",
          "name": "paidValue_",
          "type": "uint256"
        },
        {
          "internalType": "uint256",
          "name": "validStart_",
          "type": "uint256"
        },
        {
          "internalType": "uint256",
          "name": "validExpiration_",
          "type": "uint256"
        },
        {
          "internalType": "string",
          "name": "uuid_",
          "type": "string"
        },
        {
          "internalType": "string",
          "name": "tokenDescription_",
          "type": "string"
        },
        {
          "internalType": "string",
          "name": "tokenImage_",
          "type": "string"
        },
        {
          "internalType": "bool",
          "name": "transfersAllowed_",
          "type": "bool"
        },
        {
          "internalType": "uint256",
          "name": "minAllowedValueTransfer_",
          "type": "uint256"
        }
      ],
      "name": "mintTime",
      "outputs": [
        {
          "internalType": "uint256",
          "name": "",
          "type": "uint256"
        }
      ],
      "stateMutability": "nonpayable",
      "type": "function"
    },
    {
      "inputs": [],
      "name": "name",
      "outputs": [
        {
          "internalType": "string",
          "name": "",
          "type": "string"
        }
      ],
      "stateMutability": "view",
      "type": "function"
    },
    {
      "inputs": [
        {
          "internalType": "address",
          "name": "owner_",
          "type": "address"
        },
        {
          "internalType": "uint256",
          "name": "slot_",
          "type": "uint256"
        },
        {
          "internalType": "uint256",
          "name": "value_",
          "type": "uint256"
        },
        {
          "internalType": "uint256",
          "name": "discountBasisPts_",
          "type": "uint256"
        },
        {
          "internalType": "string",
          "name": "uuid_",
          "type": "string"
        },
        {
          "internalType": "string",
          "name": "token_description_",
          "type": "string"
        },
        {
          "internalType": "string",
          "name": "token_image_",
          "type": "string"
        }
      ],
      "name": "networkMintWithDiscount",
      "outputs": [
        {
          "internalType": "uint256",
          "name": "",
          "type": "uint256"
        }
      ],
      "stateMutability": "nonpayable",
      "type": "function"
    },
    {
      "inputs": [
        {
          "internalType": "address",
          "name": "owner_",
          "type": "address"
        },
        {
          "internalType": "uint256",
          "name": "slot_",
          "type": "uint256"
        },
        {
          "internalType": "uint256",
          "name": "value_",
          "type": "uint256"
        },
        {
          "internalType": "uint256",
          "name": "tVRate_",
          "type": "uint256"
        },
        {
          "internalType": "string",
          "name": "uuid_",
          "type": "string"
        },
        {
          "internalType": "string",
          "name": "token_description_",
          "type": "string"
        },
        {
          "internalType": "string",
          "name": "token_image_",
          "type": "string"
        }
      ],
      "name": "networkMintWithTVRate",
      "outputs": [
        {
          "internalType": "uint256",
          "name": "",
          "type": "uint256"
        }
      ],
      "stateMutability": "nonpayable",
      "type": "function"
    },
    {
      "inputs": [
        {
          "internalType": "uint256",
          "name": "tokenId_",
          "type": "uint256"
        }
      ],
      "name": "ownerOf",
      "outputs": [
        {
          "internalType": "address",
          "name": "owner_",
          "type": "address"
        }
      ],
      "stateMutability": "view",
      "type": "function"
    },
    {
      "inputs": [
        {
          "internalType": "uint256",
          "name": "tokenId_",
          "type": "uint256"
        },
        {
          "internalType": "uint256",
          "name": "slotId_",
          "type": "uint256"
        },
        {
          "internalType": "uint256",
          "name": "valueSeconds_",
          "type": "uint256"
        }
      ],
      "name": "redeem",
      "outputs": [],
      "stateMutability": "nonpayable",
      "type": "function"
    },
    {
      "inputs": [
        {
          "internalType": "bytes32",
          "name": "role",
          "type": "bytes32"
        },
        {
          "internalType": "address",
          "name": "account",
          "type": "address"
        }
      ],
      "name": "renounceRole",
      "outputs": [],
      "stateMutability": "nonpayable",
      "type": "function"
    },
    {
      "inputs": [
        {
          "internalType": "bytes32",
          "name": "role",
          "type": "bytes32"
        },
        {
          "internalType": "address",
          "name": "account",
          "type": "address"
        }
      ],
      "name": "revokeRole",
      "outputs": [],
      "stateMutability": "nonpayable",
      "type": "function"
    },
    {
      "inputs": [
        {
          "internalType": "address",
          "name": "from_",
          "type": "address"
        },
        {
          "internalType": "address",
          "name": "to_",
          "type": "address"
        },
        {
          "internalType": "uint256",
          "name": "tokenId_",
          "type": "uint256"
        }
      ],
      "name": "safeTransferFrom",
      "outputs": [],
      "stateMutability": "payable",
      "type": "function"
    },
    {
      "inputs": [
        {
          "internalType": "address",
          "name": "from_",
          "type": "address"
        },
        {
          "internalType": "address",
          "name": "to_",
          "type": "address"
        },
        {
          "internalType": "uint256",
          "name": "tokenId_",
          "type": "uint256"
        },
        {
          "internalType": "bytes",
          "name": "data_",
          "type": "bytes"
        }
      ],
      "name": "safeTransferFrom",
      "outputs": [],
      "stateMutability": "payable",
      "type": "function"
    },
    {
      "inputs": [
        {
          "internalType": "address",
          "name": "operator_",
          "type": "address"
        },
        {
          "internalType": "bool",
          "name": "approved_",
          "type": "bool"
        }
      ],
      "name": "setApprovalForAll",
      "outputs": [],
      "stateMutability": "nonpayable",
      "type": "function"
    },
    {
      "inputs": [
        {
          "internalType": "uint256",
          "name": "tokenId_",
          "type": "uint256"
        }
      ],
      "name": "slotOf",
      "outputs": [
        {
          "internalType": "uint256",
          "name": "",
          "type": "uint256"
        }
      ],
      "stateMutability": "view",
      "type": "function"
    },
    {
      "inputs": [
        {
          "internalType": "uint256",
          "name": "slot_",
          "type": "uint256"
        }
      ],
      "name": "slotURI",
      "outputs": [
        {
          "internalType": "string",
          "name": "",
          "type": "string"
        }
      ],
      "stateMutability": "view",
      "type": "function"
    },
    {
      "inputs": [
        {
          "internalType": "bytes4",
          "name": "interfaceId",
          "type": "bytes4"
        }
      ],
      "name": "supportsInterface",
      "outputs": [
        {
          "internalType": "bool",
          "name": "",
          "type": "bool"
        }
      ],
      "stateMutability": "view",
      "type": "function"
    },
    {
      "inputs": [],
      "name": "symbol",
      "outputs": [
        {
          "internalType": "string",
          "name": "",
          "type": "string"
        }
      ],
      "stateMutability": "view",
      "type": "function"
    },
    {
      "inputs": [
        {
          "internalType": "uint256",
          "name": "index_",
          "type": "uint256"
        }
      ],
      "name": "tokenByIndex",
      "outputs": [
        {
          "internalType": "uint256",
          "name": "",
          "type": "uint256"
        }
      ],
      "stateMutability": "view",
      "type": "function"
    },
    {
      "inputs": [
        {
          "internalType": "address",
          "name": "owner_",
          "type": "address"
        },
        {
          "internalType": "uint256",
          "name": "index_",
          "type": "uint256"
        }
      ],
      "name": "tokenOfOwnerByIndex",
      "outputs": [
        {
          "internalType": "uint256",
          "name": "",
          "type": "uint256"
        }
      ],
      "stateMutability": "view",
      "type": "function"
    },
    {
      "inputs": [
        {
          "internalType": "uint256",
          "name": "tokenId_",
          "type": "uint256"
        }
      ],
      "name": "tokenURI",
      "outputs": [
        {
          "internalType": "string",
          "name": "",
          "type": "string"
        }
      ],
      "stateMutability": "view",
      "type": "function"
    },
    {
      "inputs": [],
      "name": "totalSupply",
      "outputs": [
        {
          "internalType": "uint256",
          "name": "",
          "type": "uint256"
        }
      ],
      "stateMutability": "view",
      "type": "function"
    },
    {
      "inputs": [
        {
          "internalType": "uint256",
          "name": "fromTokenId_",
          "type": "uint256"
        },
        {
          "internalType": "address",
          "name": "to_",
          "type": "address"
        },
        {
          "internalType": "uint256",
          "name": "value_",
          "type": "uint256"
        }
      ],
      "name": "transferFrom",
      "outputs": [
        {
          "internalType": "uint256",
          "name": "",
          "type": "uint256"
        }
      ],
      "stateMutability": "payable",
      "type": "function"
    },
    {
      "inputs": [
        {
          "internalType": "address",
          "name": "from_",
          "type": "address"
        },
        {
          "internalType": "address",
          "name": "to_",
          "type": "address"
        },
        {
          "internalType": "uint256",
          "name": "tokenId_",
          "type": "uint256"
        }
      ],
      "name": "transferFrom",
      "outputs": [],
      "stateMutability": "payable",
      "type": "function"
    },
    {
      "inputs": [
        {
          "internalType": "uint256",
          "name": "fromTokenId_",
          "type": "uint256"
        },
        {
          "internalType": "uint256",
          "name": "toTokenId_",
          "type": "uint256"
        },
        {
          "internalType": "uint256",
          "name": "value_",
          "type": "uint256"
        }
      ],
      "name": "transferFrom",
      "outputs": [],
      "stateMutability": "payable",
      "type": "function"
    },
    {
      "inputs": [],
      "name": "valueDecimals",
      "outputs": [
        {
          "internalType": "uint8",
          "name": "",
          "type": "uint8"
        }
      ],
      "stateMutability": "view",
      "type": "function"
    }
  ],
  "bytecode": "0x60e0806040523462000a9157600060a05262008a7b803803809162000025828562000ac8565b83398101906101c081830312620007f057620000418162000aec565b60c052620000526020820162000aec565b90620000616040820162000aec565b6200006f6060830162000aec565b608052620000806080830162000aec565b60a083015160c08401519092906001600160401b038111620007f05786620000aa91860162000b26565b60e08501516001600160401b038111620007f05787620000cc91870162000b26565b6101008601519096906001600160401b038111620007f05788620000f291880162000b26565b6101208701519092906001600160401b038111620007f057896200011891890162000b26565b6101408801519092906001600160401b038111620007f0578a6200013e918a0162000b26565b6101608901519092906001600160401b038111620007f0578b62000164918b0162000b26565b6101808a0151909b906001600160401b038111620007f0576101a0916200018d918c0162000b26565b9901519960ff8b168b03620007f057620001fc602e8d966040519781620001bf8a935180926020808701910162000b01565b82016c5102a34b6b2903ab734ba399d160951b6020820152620001ec825180936020878501910162000b01565b0103600e81018852018662000ac8565b604051916200020b8362000a96565b600483526374696d6560e01b602084015280516001600160401b038111620007285760a051805490600182811c9216801562000a86575b6020831014620007065750601f811162000a3a575b5060a05191602092601f8311600114620009ca575060a05192839183620009be575b50508160011b916000199060031b1c19161790555b8051906001600160401b038211620007285760015460a051600182811c92168015620009b3575b60208310146200070657509081601f84931162000959575b5060a05190602091601f8411600114620008e6575060a05192620008da575b50508160011b916000199060031b1c1916176001555b6002805460ff191660ff8c16179055600b889055600c80546001600160a01b03199081166001600160a01b0389811691909117909255600a80549091169184169190911790558051906001600160401b0382116200072857600d5460a051600182811c92168015620008cf575b60208310146200070657509081601f84931162000875575b5060a05190602091601f841160011462000802575060a05192620007f6575b50508160011b916000199060031b1c191617600d555b600c546001600160a01b0316803b15620007f0576040519163152f0eb560e01b835260018060a01b031660048301528760248301528160448160a05180945af18015620007e357620007ca575b50604051926001600160401b036124ae85019081119085111762000728576200047e926200045062000467926124ae620065cd883960806124ae8801818152019062000b81565b906124ae8601820360206124ae8801015262000b81565b906124ae8401820360406124ae8601015262000b81565b6001600160a01b039092166124ae82016060015260a051918190039082f0908115620007be575060018060a01b031660018060a01b031960085416176008557f1cd6d520d98babae1045eb69c31ecab800996aa332094cb55c0ac10362e9b0c9908160a05152600960205260a051604081209160018060a01b0316918260005260205260ff604060002054161562000769575b5050507f9ac4f8025631594629895b778dc5ee88d01673a254a2291f6b6b174ad25230ca602060018060a01b0360085416604051908152a1600b556020815191012060046020604051620005658162000a96565b82815201635553444360e01b8152201462000740575b60c051601380546001600160a01b0319166001600160a01b039290921691909117905581516001600160401b038111620007285760155460a051600182811c921680156200071d575b6020831014620007065750601f8111620006b5575b5060a05192602090601f83116001146200064a578293945060a051926200063e575b50508160011b916000199060031b1c1916176015555b6014805460ff60a01b191660a09290921b60ff60a01b16919091179055604051615a24908162000ba98239f35b015190503880620005fb565b906015601f198416955260a0519160208320925b8681106200069c575083600195961062000682575b505050811b0160155562000611565b015160001960f88460031b161c1916905538808062000673565b919260206001819286850151815501940192016200065e565b601560a0515260a05160208120601f840160051c81019260208510620006fb575b601f0160051c01915b828110620006ef575050620005d9565b818155600101620006df565b9092508290620006d6565b634e487b7160e01b9052602260045260a051602490fd5b91607f1691620005c4565b634e487b7160e01b60a051526041600452602460a051fd5b608051601480546001600160a01b0319166001600160a01b03929092169190911790556200057b565b829052600960205260a0519160408320826000526020526040600020600160ff198254161790557f2f8788117e7eff1d82e926ec794901d17c78024a50270940304540a733656f0d339380a438808062000511565b604051903d90823e3d90fd5b6001600160401b03811162000728576040523862000409565b6040513d60a051823e3d90fd5b60a05180fd5b015190503880620003a6565b600d9194505260a051906020822091935b601f198416851062000859576001945083601f198116106200083f575b505050811b01600d55620003bc565b015160001960f88460031b161c1916905538808062000830565b8181015183556020948501946001909301929091019062000813565b909150600d60a0515260a05160208120601f850160051c810160208610620008c7575b9085949392915b601f840160051c82018110620008b85750505062000387565b8281558695506001016200089f565b508062000898565b91607f16916200036f565b015190503880620002ec565b60019194505260a051906020822091935b601f19841685106200093d576001945083601f1981161062000923575b505050811b0160015562000302565b015160001960f88460031b161c1916905538808062000914565b81810151835560209485019460019093019290910190620008f7565b909150600160a0515260a05160208120601f850160051c810160208610620009ab575b9085949392915b601f840160051c820181106200099c57505050620002cd565b82815586955060010162000983565b50806200097c565b91607f1691620002b5565b01519050388062000279565b805260a0516020812090938493925b601f198416851062000a1e576001945083601f1981161062000a04575b505050811b0190556200028e565b015160001960f88460031b161c19169055388080620009f6565b81810151835560209485019460019093019290910190620009d9565b60a051805260a05160208120601f840160051c81016020851062000a7e575b601f840160051c8201811062000a725750505062000257565b82815560010162000a59565b508062000a59565b91607f169162000242565b600080fd5b604081019081106001600160401b0382111762000ab257604052565b634e487b7160e01b600052604160045260246000fd5b601f909101601f19168101906001600160401b0382119082101762000ab257604052565b51906001600160a01b038216820362000a9157565b60005b83811062000b155750506000910152565b818101518382015260200162000b04565b81601f8201121562000a915780516001600160401b03811162000ab2576040519262000b5d601f8301601f19166020018562000ac8565b8184526020828401011162000a915762000b7e916020808501910162000b01565b90565b9060209162000b9c8151809281855285808601910162000b01565b601f01601f191601019056fe60806040908082526004918236101561001757600080fd5b600091823560e01c90816301ffc9a7146126525750806306fdde0314612582578063081812fc14612562578063095ea7b31461242e57806309c3dd871461213e5780630f485c02146120775780631375d8431461201257806318160ddd14611ff457806323b872dd14611f2d578063248a9ca314611f02578063263f3e7e14611ee2578063268cb20b14611ad65780632f2ff15d14611a285780632f745c591461197f578063310ed7f01461135d57806331b5b907146112d557806336568abe146112445780633e7e86691461122357806341815ee4146111f857806342842e0e146111d5578063476de4a8146111525780634f6ccce7146110cc5780636352211e1461109b57806370a082311461107657806371f0442e146110115780637795524514610fe9578063791581c614610eeb5780638005f5db14610cd0578063840f711314610ca85780638cb0a51114610b1157806391d1485414610acb57806395d89b41146109e85780639cc7f708146109c8578063a217fddf146109ae578063a22cb465146108d4578063a7c9f2d61461089a578063b3154c0814610835578063b8192205146104bd578063b88d4fde1461045e578063bd8c65071461043d578063c87b56dd146103bb578063d547741f1461037c578063e345e0bc1461034a578063e8a3d485146102b8578063e985e9c5146102665763f577a5001461021f57600080fd5b3461026257602036600319011261026257602092358252600f8352808220544210159182610251575b50519015158152f35b819020600101544210915038610248565b5080fd5b50346102625780600319360112610262576020916102826126ee565b60028361028d612704565b9360018060a01b0380941681526007875220019116600052825260ff81600020541690519015158152f35b5082903461034657826003193601126103465760085481516331264fc160e01b815292849184919082906001600160a01b03165afa91821561033c57836103139493610317575b5050519182916020835260208301906126c9565b0390f35b6103349293503d8091833e61032c81836127f3565b810190612f1a565b9083806102ff565b81513d85823e3d90fd5b8280fd5b5090346103795781600319360112610379575061037260209261036b612704565b9035614218565b9051908152f35b80fd5b508290346103465780600319360112610346576103b891356103b360016103a1612704565b93838752600960205286200154612919565b612c4e565b80f35b50829034610346576020366003190112610346578282356103e36103de82613893565b61314f565b6008546001600160a01b0316936044906103fc8361572f565b95855196879485936304e6f55760e51b855284015260248301525afa91821561033c57836103139493610317575050519182916020835260208301906126c9565b5034610262576020906103726104523661289e565b95949094939193613d63565b82846080366003190112610262576104746126ee565b61047c612704565b906064356001600160401b0381116104b957366023820112156104b9576103b8938160246104af9336930135910161282f565b9160443591613078565b8480fd5b509134610262576104cd36612884565b9192906104d98461319b565b6001600160a01b03908116331480156107f5575b156107a657856104fc86613893565b80610793575b15610695575084865260106020526105376105208589892054612cc4565b61053160ff60145460a01c16614371565b90612f78565b915b81601454169160135416823b15610691578851632b83cccd60e01b81526001600160a01b03909116858201908152602081019290925260408201939093528691839182908490829060600103925af180156106875790859161066f575b50506105a183613893565b801561064d575b6105b19061314f565b828452600660205260026105c786862054612e86565b5001908154908382106105fe57509184956020926105f4836000805160206159cf833981519152966136c6565b905551908152a380f35b608490602088519162461bcd60e51b8352820152602360248201527f455243333532353a206275726e2076616c756520657863656564732062616c616044820152626e636560e81b6064820152fd5b506105b161066884600052600e602052604060002054151590565b90506105a8565b61067890612779565b610683578338610596565b8380fd5b86513d87823e3d90fd5b8780fd5b916106ad86600052600e602052604060002054151590565b156105395791508486526020600e815287872054801515600014610753578183600c54169160248b518094819363cd5a2c3960e01b83528a8301525afa91821561074957908692918992610711575b505061070b9161052091612cc4565b91610539565b8193508092503d8311610742575b61072981836127f3565b8101031261073d57518490816105206106fc565b600080fd5b503d61071f565b89513d8a823e3d90fd5b5060248183600c54168a519283809263cd5a2c3960e01b82528b8a8301525afa9182156107495790869291899261071157505061070b9161052091612cc4565b5061079d86612ec1565b600b5414610502565b865162461bcd60e51b8152602081850152602360248201527f53656e646572206973206e6f7420617574686f72697a656420746f207265646560448201526232b69760e91b6064820152608490fd5b507f1cd6d520d98babae1045eb69c31ecab800996aa332094cb55c0ac10362e9b0c9865260096020528686203360005260205260ff8760002054166104ed565b50829034610346576020366003190112610346576008548151631662a98160e31b81528335938101939093528390839060249082906001600160a01b03165afa91821561033c57836103139493610317575050519182916020835260208301906126c9565b5034610262578160031936011261026257602090517f1cd6d520d98babae1045eb69c31ecab800996aa332094cb55c0ac10362e9b0c98152f35b508290346103465780600319360112610346576108ef6126ee565b906024358015159283820361073d576001600160a01b03169333851461096b575061093e90338652600760205260028387200185600052602052826000209060ff801983541691151516179055565b519081527f17307eab39ab6107e8899845ad3d59bd9653f200f220920489ca2b5937696c3160203392a380f35b606490602084519162461bcd60e51b8352820152601a60248201527f455243333532353a20617070726f766520746f2063616c6c65720000000000006044820152fd5b503461026257816003193601126102625751908152602090f35b50903461037957602036600319011261037957506103726020923561572f565b5090346103795780600319360112610379575080516000916001805490610a0e82612d21565b80855291818116908115610aa35750600114610a48575b5050610a36826103139403836127f3565b519182916020835260208301906126c9565b600081815294507fb10e2d527612073b26eecdfd717e6a320cf44b4afac2b0732d9fcbe2b7fa0cf65b828610610a8b5750505091810160200191610a3682610a25565b80546020878701810191909152909501948101610a71565b61031396508592506020915092610a369360ff191682840152151560051b8201019450610a25565b50823461034657816003193601126103465781602093610ae9612704565b9235815260098552209060018060a01b0316600052825260ff81600020541690519015158152f35b5091610b1c3661271a565b92610b28839293613893565b8015610c86575b610b389061314f565b610b4182613893565b80610c73575b15610be457610b6c6001600160a01b0380610b618561319b565b1690851614156130f8565b610b768233613282565b15610b8757506103b8939450614046565b608490602087519162461bcd60e51b8352820152603160248201527f455243333532353a20617070726f76652063616c6c6572206973206e6f74206f6044820152701ddb995c881b9bdc88185c1c1c9bdd9959607a1b6064820152fd5b909184959260018060a01b03600c5416908652600e60205283862054813b15610c6f578451638cb0a51160e01b81529384019081526001600160a01b03909216602083015260408201949094529092849184919082908490829060600103925af1908115610c665750610c5657505080f35b610c5f90612779565b6103795780f35b513d84823e3d90fd5b8680fd5b50610c7d82612ec1565b600b5414610b47565b50610b38610ca183600052600e602052604060002054151590565b9050610b2f565b503461026257816003193601126102625760085490516001600160a01b039091168152602090f35b50819234610ee757610ce13661289e565b600254600c54979a9791966001600160a01b0396939592871693929091610d0a9060ff16613d55565b610d1391612f78565b8a51630151086360e31b81526001600160a01b03909c168a8d01908152602081019290925260408201929092526060810191909152899081906080010381885a94602095f1978815610ea3578598610eb1575b508260085416803b15610ead578786918a838a610da1855197889687958694632108947560e21b8652850152602484015260448301906126c9565b03925af18015610ea357908591610e8f575b50508160085416803b156104b957610def91859189838a5180968195829463246a908b60e01b84528d8401528d602484015260448301906126c9565b03925af18015610e8557908491610e71575b505060085416803b15610346578583610e3a95875196879586948593630190503b60e61b855284015289602484015260448301906126c9565b03925af18015610e6757610e53575b6020838351908152f35b610e5d8491612779565b6103465782610e49565b82513d86823e3d90fd5b610e7a90612779565b610346578238610e01565b86513d86823e3d90fd5b610e9890612779565b610683578338610db3565b87513d87823e3d90fd5b8580fd5b945096506020843d8211610edf575b81610ecd602093836127f3565b8101031261073d578793519638610d66565b3d9150610ec0565b5050fd5b509134610262578260031936011261026257803560243591818452600f60205260018585200154421015610f8e57506103b89293610f3a83610f35610f2f8561572f565b42612ced565b612ced565b828652600f6020526001828720015410610f69575b50610f598161319b565b50610f6381612ec1565b50613d12565b6001610f7b84610f35610f2f8661572f565b91838752600f6020528620015538610f4f565b608490602086519162461bcd60e51b8352820152602f60248201527f54696d654372656469743a2063616e6e6f74206164642074696d6520746f206160448201526e371032bc3834b932b2103a37b5b2b760891b6064820152fd5b5034610262578160031936011261026257600a5490516001600160a01b039091168152602090f35b508290346103465760203660031901126103465760085481516338f8221760e11b81528335938101939093528390839060249082906001600160a01b03165afa91821561033c57836103139493610317575050519182916020835260208301906126c9565b5034610262576020366003190112610262576020906103726110966126ee565b612f98565b50903461037957602036600319011261037957506110bb60209235613f6f565b90516001600160a01b039091168152f35b509190346103795760203660031901126103795750803590600554821015611103576020836110fa84612e86565b50549051908152f35b608490602084519162461bcd60e51b8352820152602360248201527f455243333532353a20676c6f62616c20696e646578206f7574206f6620626f756044820152626e647360e81b6064820152fd5b5090346103795760c03660031901126103795761116d6126ee565b926001600160401b03906064358281116106835761118e9036908301612866565b916084358181116104b9576111a69036908401612866565b9360a4359182116103795750916111c7610372949260209794369101612866565b9260443590602435906138c1565b506103b8906111e336612744565b919251926111f0846127bd565b858452613078565b5034610262578160031936011261026257805161031391610a368261121c81612d5b565b03836127f3565b503461026257816003193601126102625760209060ff600254169051908152f35b50913461026257826003193601126102625761125e612704565b90336001600160a01b0383160361127a57906103b89135612c4e565b608490602085519162461bcd60e51b8352820152602f60248201527f416363657373436f6e74726f6c3a2063616e206f6e6c792072656e6f756e636560448201526e103937b632b9903337b91039b2b63360891b6064820152fd5b5091819234610ee7576020366003190112610ee75781356001600160401b038111611358576113079036908401612866565b6008546001600160a01b03169290833b156104b9576113459360208680948651978895869485936355f804b360e01b855284015260248301906126c9565b03925af1908115610c665750610c565750f35b505050fd5b509161137361136b36612884565b92909261444c565b928185526020906011825261138d60ff888820541661478c565b828652601282526113a3878720548610156147e6565b828652600f82526001878720015442101561191f57838652600f8252600187872001544210156118bf576113d9610f2f856135dd565b848752600f83526001888820015410611840576113f583613893565b8061182d575b8061180a575b1561153c578286526010825286862054848752878720540361142b575b50506103b89394506150fa565b61144283600052600e602052604060002054151590565b8061151f575b156114ad575085601061149d6114826105316114968a6114908b6103b89d9e6114708d6135dd565b9687928d86528a8d5282862054612cc4565b938d8152898c522054612cc4565b90612ced565b9189612ced565b928589525286205584933861141e565b60a49187519162461bcd60e51b8352820152604260248201527f54696d654372656469743a2063616c6320636f6e74726163742074696d652d7660448201527f616c7565207261746520726571756972657320636f6e747261637420746f6b656064820152616e7360f01b6084820152fd5b5061153784600052600e602052604060002054151590565b611448565b9091949561154986613893565b806117f7575b806117ce575b15611564575b50505050505080f35b61157b86600052600e602052604060002054151590565b806117b1575b1561159d57505050611592926150fa565b38808080808061155b565b919390926115b886600052600e602052604060002054151590565b80611793575b1561178857600c548351639448bddb60e01b8152858101929092526001600160a01b03908116969092889187846024818c5afa93841561177e57908891849561174f575b50808452600e825286842054908115611713575060248751809b819363cd5a2c3960e01b83528b8301525afa80156117095787988398969798916116d0575b5061165160449493928692612cc4565b6116676014549161053160ff8460a01c16614371565b8851998a97889663a9059cbb60e01b885216908601526024850152165af19081156116c75750611699575b5050611592565b816116b892903d106116c0575b6116b081836127f3565b810190614fd3565b503880611692565b503d6116a6565b513d85823e3d90fd5b9580929493508691503d8311611702575b6116eb81836127f3565b8101031261073d5792518693918891611651611641565b503d6116e1565b85513d84823e3d90fd5b905060248751809b819363cd5a2c3960e01b83528b8301525afa80156117095787988398969798916116d0575061165160449493928692612cc4565b611770919550823d8411611777575b61176881836127f3565b810190613f50565b9338611602565b503d61175e565b86513d85823e3d90fd5b505050505050611592565b506117ab81600052600e602052604060002054151590565b156115be565b506117c984600052600e602052604060002054151590565b611581565b506117d884613893565b806117e4575b15611555565b506117ee84612ec1565b600b54146117de565b5061180186612ec1565b600b541461154f565b5061181484613893565b8015611401575061182484612ec1565b600b5414611401565b5061183783612ec1565b600b54146113fb565b60a49187519162461bcd60e51b8352820152604f60248201527f54696d654372656469743a2074696d652076616c7565206f6620746f6b656e2060448201527f726563656976696e67207472616e7366657220657863656564732074696d652060648201526e3a34b6361032bc3834b930ba34b7b760891b6084820152fd5b60849187519162461bcd60e51b8352820152603660248201527f54696d654372656469743a2063616e6e6f74207472616e736665722074696d656044820152751034b73a379030b71032bc3834b932b2103a37b5b2b760511b6064820152fd5b60849187519162461bcd60e51b8352820152603660248201527f54696d654372656469743a2063616e6e6f74207472616e736665722074696d6560448201527510333937b69030b71032bc3834b932b2103a37b5b2b760511b6064820152fd5b5091903461037957826003193601126103795761199a6126ee565b602435926119a782612f98565b8410156119da576020856119cc8682878760018060a01b03168152600786522061326a565b91905490519160031b1c8152f35b608490602086519162461bcd60e51b8352820152602260248201527f455243333532353a206f776e657220696e646578206f7574206f6620626f756e604482015261647360f01b6064820152fd5b5082346103465781600319360112610346573590611a44612704565b908284526009602052611a5c60018286200154612919565b82845260096020528084209160018060a01b0316918260005260205260ff81600020541615611a89578380f35b828452600960205280842082600052602052600020600160ff1982541617905533917f2f8788117e7eff1d82e926ec794901d17c78024a50270940304540a733656f0d8480a48180808380f35b508290346103465761016036600319011261034657611af36126ee565b9160243560443594606435946084359060a4359360c435916001600160401b0392838111610ead57611b289036908901612866565b9060e435848111610c6f57611b409036908a01612866565b6101043585811161069157611b589036908b01612866565b9061012435938415158503611ede57611b708e61444c565b9c8a8911611e75578a4211611e21578a8e8a4211908b82159384611e0a575b5050508115611dda575b5015611d7d576014546001600160a01b0316803b15611d79578d51630ab714fb60e11b815230818f01908152602081018a90526040810184905290918c9183919082908490829060600103925af18015611d6f57918f918f9796959493611d20575b509181611c4b7f404638021ef9ab6e71dfdc91f4ec2c814e6982dfc99f7ce4dea6800de6d467da979593611c46611c8d9b9a9896611c4060ff60145460a01c16614371565b90612cc4565b612f78565b998a600b548214600014611cf85750611c63956138c1565b9b5b815190815260209d8e820152a189865260118b528886209060ff801983541691151516179055565b611c996101443561444c565b88855260128a5287852055601089528684205585519485870191821186831017611ce3575085528352858301918252848152600f8652839020915182555160019091015551908152f35b604190634e487b7160e01b6000525260246000fd5b9190611d0396613d63565b9b6001600354019c8d6003558d8a52600e602052828a2055611c65565b91611c4b81611c46611c8d9b9a9896949f611d5d7f404638021ef9ab6e71dfdc91f4ec2c814e6982dfc99f7ce4dea6800de6d467da9b9997612779565b9f9496989a9b50509395975050611bfb565b8e513d8d823e3d90fd5b8a80fd5b8c5162461bcd60e51b81526020818e0152603160248201527f54696d654372656469743a2074696d652076616c75652063616e6e6f7420657860448201527018d95959081d985b1a59081c195c9a5bd9607a1b6064820152608490fd5b905080611e01575b80611dee575b38611b99565b508d611dfa428d6136c6565b1015611de8565b508a4210611de2565b611e16929394506136c6565b1015908f8b8e611b8f565b8c5162461bcd60e51b81526020818e0152602860248201527f54696d654372656469743a2063616e6e6f74206d696e7420616e20657870697260448201526732b2103a37b5b2b760c11b6064820152608490fd5b8c5162461bcd60e51b81526020818e0152603e60248201527f54696d654372656469743a2076616c69642073746172742074696d65206d757360448201527f74206265206c657373207468616e2065787069726174696f6e2074696d6500006064820152608490fd5b8880fd5b509034610379576020366003190112610379575061037260209235612ec1565b5082346103465760203660031901126103465781602093600192358152600985522001549051908152f35b5091611f3836612744565b928385939293526011602052611f5360ff878720541661478c565b611f5c8461572f565b84865260126020528686205411611f8b57506103b8939450611f86611f818433613282565b613011565b6132f3565b608490602087519162461bcd60e51b8352820152603f60248201527f54696d654372656469743a20746f6b656e2076616c7565206973206c6573732060448201527f7468616e206d696e696d756d207472616e7366657261626c652076616c7565006064820152fd5b50346102625781600319360112610262576020906005549051908152f35b50829034610346576020366003190112610346576008548151631375d84360e01b81528335938101939093528390839060249082906001600160a01b03165afa91821561033c57836103139493610317575050519182916020835260208301906126c9565b50612092819360016120883661271a565b959194909561444c565b9584815260116020526120aa60ff838320541661478c565b84815260126020526120c1828220548810156147e6565b848152600f6020522001544210156120e15760208561037286868661486c565b608490602086519162461bcd60e51b8352820152603160248201527f54696d654372656469743a2063616e6e6f74207472616e736665722066726f6d6044820152701030b71032bc3834b932b2103a37b5b2b760791b6064820152fd5b5082346103465760209081600319360112610683576008548351636c0360eb60e01b81526001600160a01b039091169180359186818381875afa90811561242457879161240a575b5083156121f85750906024869286519485938492633601bfc560e11b84528301525afa9081156121eb5784610313939495926121d0575b5050925b519282849384528301906126c9565b6121e492503d8091833e61032c81836127f3565b84806121bd565b50505051903d90823e3d90fd5b80935095919394955115156000146123c95783849183957a184f03e93ff9f4daa797ed6e38ed64bf6a1f01000000000000000090818110156123bc575b5050866d04ee2d6d415b85acef8100000000808510156123ae575b5050662386f26fc100008084101561239f575b506305f5e10080841015612390575b5061271080841015612382575b50506064821015612372575b600a80921015612368575b600190816021818801976122c16122ac8a612814565b996122b98d519b8c6127f3565b808b52612814565b898b019790601f190136893750880101905b612332575b50505050602561231d9261232c92610313958851958361230188955180928c80890191016126a6565b84019164736c6f742f60d81b8a840152518093868401906126a6565b010360058101845201826127f3565b926121c1565b600019019083906f181899199a1a9b1b9c1cb0b131b232b360811b8282061a835304918215612363579190826122d3565b6122d8565b9360010193612296565b939060646002910491019361228b565b95019490910490878061227f565b60089196930492019488612272565b60109196930492019488612263565b960195909204918689612250565b8997500492508880612235565b9493925090508251908282018281106001600160401b038211176123f757846103139495965052815261232c565b634e487b7160e01b825260418652602482fd5b61241e91503d8089833e61032c81836127f3565b87612186565b86513d89823e3d90fd5b50808391600319360112610346576124446126ee565b6024359290916001600160a01b039190828061245f8761319b565b1694169361246f818614156130f8565b803314908115612540575b50156124d757612494908587526006602052862054612e86565b500180546001600160a01b031916831790556124af8361319b565b167f8c5be1e5ebec7d5bd14f71427d1e84f3dd0314c0f7b2291e5b200ac8c7c3b9258480a480f35b906020608492519162461bcd60e51b8352820152603960248201527f455243333532353a20617070726f76652063616c6c6572206973206e6f74206f60448201527f776e6572206e6f7220617070726f76656420666f7220616c6c000000000000006064820152fd5b90508652600760205260028187200133875260205260ff81872054168761247a565b50903461037957602036600319011261037957506110bb60209235613208565b50346102625781600319360112610262578051908280546125a281612d21565b8085529160019180831690811561262a57506001146125ce575b505050610a36826103139403836127f3565b80809650527f290decd9548b62a8d60345a988386fc84ba6bc95484008f6362f93160ef3e5635b82861061261257505050610a3682602061031395820101946125bc565b805460208787018101919091529095019481016125f5565b610313975086935060209250610a3694915060ff191682840152151560051b820101946125bc565b83908534610346576020366003190112610346573563ffffffff60e01b81168091036103465760209250637965db0b60e01b8114908115612695575b5015158152f35b6301ffc9a760e01b1490508361268e565b60005b8381106126b95750506000910152565b81810151838201526020016126a9565b906020916126e2815180928185528580860191016126a6565b601f01601f1916010190565b600435906001600160a01b038216820361073d57565b602435906001600160a01b038216820361073d57565b606090600319011261073d57600435906024356001600160a01b038116810361073d579060443590565b606090600319011261073d576001600160a01b0390600435828116810361073d5791602435908116810361073d579060443590565b6001600160401b03811161278c57604052565b634e487b7160e01b600052604160045260246000fd5b60c081019081106001600160401b0382111761278c57604052565b602081019081106001600160401b0382111761278c57604052565b604081019081106001600160401b0382111761278c57604052565b90601f801991011681019081106001600160401b0382111761278c57604052565b6001600160401b03811161278c57601f01601f191660200190565b92919261283b82612814565b9161284960405193846127f3565b82948184528183011161073d578281602093846000960137010152565b9080601f8301121561073d578160206128819335910161282f565b90565b606090600319011261073d57600435906024359060443590565b60e060031982011261073d576004356001600160a01b038116810361073d57916024359160443591606435916001600160401b039160843583811161073d57826128ea91600401612866565b9260a43581811161073d578361290291600401612866565b9260c43591821161073d5761288191600401612866565b60009080825260209060098252604092838120338252835260ff8482205416156129435750505050565b8351916001600160401b0390336060850183811186821017612c3a578752602a85528585019187368437855115612c265760308353855191600192831015612c12576078602188015360295b838111612ba85750612b665790875193608085019085821090821117612b5257885260428452868401946060368737845115612b3e57603086538451821015612b3e5790607860218601536041915b818311612ad057505050612a8e57612a8a938693612a6e93612a5f604894612a369a519a8b957f416363657373436f6e74726f6c3a206163636f756e74200000000000000000008c88015251809260378801906126a6565b8401917001034b99036b4b9b9b4b733903937b6329607d1b6037840152518093868401906126a6565b010360288101875201856127f3565b5192839262461bcd60e51b8452600484015260248301906126c9565b0390fd5b60648587519062461bcd60e51b825280600483015260248201527f537472696e67733a20686578206c656e67746820696e73756666696369656e746044820152fd5b909192600f81166010811015612b2a576f181899199a1a9b1b9c1cb0b131b232b360811b901a612b008588612cfa565b5360041c928015612b16576000190191906129de565b634e487b7160e01b82526011600452602482fd5b634e487b7160e01b83526032600452602483fd5b634e487b7160e01b81526032600452602490fd5b634e487b7160e01b86526041600452602486fd5b60648789519062461bcd60e51b825280600483015260248201527f537472696e67733a20686578206c656e67746820696e73756666696369656e746044820152fd5b90600f81166010811015612bfe576f181899199a1a9b1b9c1cb0b131b232b360811b901a612bd6838a612cfa565b5360041c908015612bea576000190161298f565b634e487b7160e01b87526011600452602487fd5b634e487b7160e01b88526032600452602488fd5b634e487b7160e01b86526032600452602486fd5b634e487b7160e01b85526032600452602485fd5b634e487b7160e01b85526041600452602485fd5b906000918083526009602052604083209160018060a01b03169182845260205260ff604084205416612c7f57505050565b8083526009602052604083208284526020526040832060ff1981541690557ff6391f5c32d9c69d2a47ea670b442974b53935d1edc7fd64eb21e047a839171b339380a4565b81810292918115918404141715612cd757565b634e487b7160e01b600052601160045260246000fd5b91908201809211612cd757565b908151811015612d0b570160200190565b634e487b7160e01b600052603260045260246000fd5b90600182811c92168015612d51575b6020831014612d3b57565b634e487b7160e01b600052602260045260246000fd5b91607f1691612d30565b600d5460009291612d6b82612d21565b80825291600190818116908115612de25750600114612d8957505050565b91929350600d6000527fd7b6990105719101dabeb77144f2a3385c8033acd3af97e9423a695e81ad1eb5916000925b848410612dca57505060209250010190565b80546020858501810191909152909301928101612db8565b915050602093945060ff929192191683830152151560051b010190565b60155460009291612e0f82612d21565b80825291600190818116908115612de25750600114612e2d57505050565b9192935060156000527f55f448fdea98c4d29eb340757ef0a66cd03dbb9538908a6a81d96026b71ec475916000925b848410612e6e57505060209250010190565b80546020858501810191909152909301928101612e5c565b600554811015612d0b576006906005600052027f036b6384b5eca791c62761152d0c79bb0604c104a5fb6f4eb0703f3154bb3db00190600090565b612eca81613893565b8015612ef8575b612eda9061314f565b60005260066020526001612ef2604060002054612e86565b50015490565b50612eda612f1382600052600e602052604060002054151590565b9050612ed1565b60208183031261073d578051906001600160401b03821161073d570181601f8201121561073d578051612f4c81612814565b92612f5a60405194856127f3565b8184526020828401011161073d5761288191602080850191016126a6565b8115612f82570490565b634e487b7160e01b600052601260045260246000fd5b6001600160a01b03168015612fb857600052600760205260406000205490565b60405162461bcd60e51b815260206004820152602b60248201527f455243333532353a2062616c616e636520717565727920666f7220746865207a60448201526a65726f206164647265737360a81b6064820152608490fd5b1561301857565b60405162461bcd60e51b815260206004820152603260248201527f455243333532353a207472616e736665722063616c6c6572206973206e6f74206044820152711bdddb995c881b9bdc88185c1c1c9bdd995960721b6064820152608490fd5b9061309c93929161308c611f818433613282565b6130978383836132f3565b613745565b156130a357565b60405162461bcd60e51b815260206004820152602760248201527f455243333532353a207472616e7366657220746f206e6f6e204552433732315260448201526632b1b2b4bb32b960c91b6064820152608490fd5b156130ff57565b60405162461bcd60e51b815260206004820152602260248201527f455243333532353a20617070726f76616c20746f2063757272656e74206f776e60448201526132b960f11b6064820152608490fd5b1561315657565b60405162461bcd60e51b815260206004820152601960248201527f455243333532353a20696e76616c696420746f6b656e204944000000000000006044820152606490fd5b6131a481613893565b80156131e6575b6131b49061314f565b60005260066020526131ca604060002054612e86565b50600301546001600160a01b0316906131e482151561314f565b565b506131b461320182600052600e602052604060002054151590565b90506131ab565b61321181613893565b8015613248575b6132219061314f565b6000526006602052613237604060002054612e86565b50600401546001600160a01b031690565b5061322161326382600052600e602052604060002054151590565b9050613218565b8054821015612d0b5760005260206000200190600090565b906001600160a01b0380806132968461319b565b169316918383149384156132c9575b5083156132b3575b50505090565b6132bf91929350613208565b16143880806132ad565b909350600052600760205260026040600020018260005260205260ff6040600020541692386132a5565b6132fc8361319b565b6001600160a01b039182169190811682900361358c578083169283156135395761332585612ec1565b5061332f856135dd565b506000918583526020906006825260409061334c82862054612e86565b50600490810180546001600160a01b031990811690915590918987826133718361319b565b167f8c5be1e5ebec7d5bd14f71427d1e84f3dd0314c0f7b2291e5b200ac8c7c3b9258280a48987526006855260056133ab85892054612e86565b500180549091858988818f5b8684106135025750505050505050805490878155816134e5575b50508886526006845260036133e884882054612e86565b50019081541690558585526007835281852091825493600019948581019081116134d257906134198893928661326a565b90549060031b1c9060018601908c8552818152838520549261345a8161343f868b61326a565b90919082549060031b600019811b9283911b16911916179055565b8552528183205589825281205581549081156134bf5750928288926134bb947fddf252ad1be2c89b69c2b068fc378daa952ba7f163c4a11628f55a4df523b3ef979601916134a8838361326a565b909182549160031b1b1916905555613630565b80a4565b634e487b7160e01b865260319052602485fd5b634e487b7160e01b885260118452602488fd5b8752848720908101905b818110156133d1578781556001016134ef565b61352f9486928b613513878c61326a565b96905494835252209260031b1c168c5289528a888120556136d3565b8690888b8f6133b7565b60405162461bcd60e51b815260206004820152602560248201527f455243333532353a207472616e7366657220746f20746865207a65726f206164604482015264647265737360d81b6064820152608490fd5b60405162461bcd60e51b8152602060048201526024808201527f455243333532353a207472616e736665722066726f6d20696e76616c6964206f6044820152633bb732b960e11b6064820152608490fd5b6135e681613893565b801561360e575b6135f69061314f565b60005260066020526002612ef2604060002054612e86565b506135f661362982600052600e602052604060002054151590565b90506135ed565b6000908282526006602052600361364a6040842054612e86565b500180546001600160a01b0319166001600160a01b0390921691821790558082526007602081815260408085208054878752600191909101835281862055928452528120805491600160401b8310156136b257508161343f9160016131e4959401815561326a565b634e487b7160e01b81526041600452602490fd5b91908203918211612cd757565b6000198114612cd75760010190565b600160401b821161278c578054918082558281106136ff57505050565b60009182526020822092830192015b82811061371a57505050565b81815560010161370e565b9081602091031261073d57516001600160e01b03198116810361073d5790565b92939290803b1561388a579360009161379c9560405180948193630a85bd0160e11b9788845233600485015260018060a01b0380921660248501526044840152608060648401528260209a8b9760848301906126c9565b0393165af16000918161385b575b5061384c57833d15613844573d906137c182612814565b916137cf60405193846127f3565b82523d60008284013e5b815191826138415760405162461bcd60e51b815260048101839052603260248201527f4552433732313a207472616e7366657220746f206e6f6e20455243373231526560448201527131b2b4bb32b91034b6b83632b6b2b73a32b960711b6064820152608490fd5b01fd5b6060906137d9565b6001600160e01b031916149150565b61387c919250853d8711613883575b61387481836127f3565b810190613725565b90386137aa565b503d61386a565b50600193505050565b600554151590816138a2575090565b80915060005260066020526138bb604060002054612e86565b50541490565b919394929092600091600160035401968760035560018060a01b03918286168015613cc3578915613c74576138f58a613893565b613c2f576040968a8851613908816127bd565b8881528951613916816127a2565b8281528a6020938d858401908152828401908d82528d60608601938a8552608087019582875260a08801988952600554928392815260068b522055600160401b811015613c1b5780600161396d9201600555612e86565b959095613c075790600595949392915185555160018501555160028401558a60038401915116906bffffffffffffffffffffffff60a01b91828254161790558a6004840192511690825416179055019051918251926001600160401b038411613bf35790808f96959493926139e285856136e2565b01918b52808b20908b5b848110613bcf57505050505082613a0291613630565b867fddf252ad1be2c89b69c2b068fc378daa952ba7f163c4a11628f55a4df523b3ef8180a486858a7fe4f48c240d3b994948aa54f3e2f5fca59263dfe1d52b6e4cf39a5d249b5ccb658280a4613a58888a613d12565b8260085416803b15610ead57613a939186918b838a51809681958294632108947560e21b845260048401528d602484015260448301906126c9565b03925af1801561068757613bbc575b508160085416803b156104b957613ade9185918a83895180968195829463246a908b60e01b845260048401528c602484015260448301906126c9565b03925af18015613bb257908491613b9e575b50506008541690813b1561034657613b2d839283928651948580948193630190503b60e61b83528d60048401528a602484015260448301906126c9565b03925af18015613b9457613b80575b505051838152602081019190915260408101919091527f84eeb48eca46cea54afc9753345f6038981672ea565f32885420829dfd88aea69080606081015b0390a190565b613b8a8291612779565b6103795780613b3c565b83513d84823e3d90fd5b613ba790612779565b610346578238613af0565b85513d86823e3d90fd5b613bc890949194612779565b9238613aa2565b839495969750818b600193949551169501948185015501908f9695949392916139ec565b634e487b7160e01b8b52604160045260248bfd5b634e487b7160e01b8f5260048f905260248ffd5b634e487b7160e01b8f52604160045260248ffd5b60405162461bcd60e51b815260206004820152601d60248201527f455243333532353a20746f6b656e20616c7265616479206d696e7465640000006044820152606490fd5b60405162461bcd60e51b815260206004820152602160248201527f455243333532353a2063616e6e6f74206d696e74207a65726f20746f6b656e496044820152601960fa1b6064820152608490fd5b60405162461bcd60e51b815260206004820152602160248201527f455243333532353a206d696e7420746f20746865207a65726f206164647265736044820152607360f81b6064820152608490fd5b906000805160206159cf8339815191526020600092848452600682526002613d3d6040862054612e86565b5001613d4a828254612ced565b9055604051908152a3565b604d8111612cd757600a0a90565b93959291949095602060025496600097613d8f60018060a01b039661053160ff89600c54169416613d55565b60408051632d2a246560e01b81526001600160a01b039a909a1660048b015260248a019b909b5260448901929092526064880191909152959795889060849082908a905af1968715613f13578697613f1d575b508260085416803b15610c6f57613e1e91879189838951809681958294632108947560e21b845260048401528c602484015260448301906126c9565b03925af18015613f1357613f00575b50816008541690813b15610ead57613e6a86928392875194858094819363246a908b60e01b83528d60048401528b602484015260448301906126c9565b03925af18015613ef657908591613ee2575b50506008541690813b1561068357613ebb8392859492859351958680948193630190503b60e61b83528b600484015288602484015260448301906126c9565b03925af1908115610c665750613ed057505090565b613eda8291612779565b610379575090565b613eeb90612779565b610683578338613e7c565b84513d87823e3d90fd5b613f0c90959195612779565b9338613e2d565b85513d88823e3d90fd5b9096506020813d8211613f48575b81613f38602093836127f3565b81010312610ead57519538613de2565b3d9150613f2b565b9081602091031261073d57516001600160a01b038116810361073d5790565b613f7881613893565b8015614024575b613f889061314f565b613f9181613893565b80614011575b15613fa5576128819061319b565b60018060a01b03600c541690600052600e60205260206040600020546024604051809481936331a9108f60e11b835260048301525afa90811561400557600091613fed575090565b612881915060203d81116117775761176881836127f3565b6040513d6000823e3d90fd5b5061401b81612ec1565b600b5414613f97565b50613f8861403f82600052600e602052604060002054151590565b9050613f7f565b6001600160a01b03808316939192841561412f578361406491614187565b156140b2575b5060207f621b050de0ad08b51d19b48b3e6df75348c4de6bdd93e81b252ca62e28265b1b918360005260048252604060002085600052825280604060002055604051908152a3565b9082600052600660205260056140cc604060002054612e86565b500190815492600160401b84101561278c57856141128560209560017f621b050de0ad08b51d19b48b3e6df75348c4de6bdd93e81b252ca62e28265b1b9801815561326a565b909283549160031b90811b9283911b16911916179055915061406a565b60405162461bcd60e51b815260206004820152602a60248201527f455243333532353a20617070726f76652076616c756520746f20746865207a65604482015269726f206164647265737360b01b6064820152608490fd5b60009082825260066020908082526040906141a482862054612e86565b509260058094015496865b8881106141c25750505050505050905090565b8188528383526141e081876141d9888c2054612e86565b500161326a565b905460039190911b1c6001600160a01b039081169088161461420a57614205906136d3565b6141af565b505050505050505050600190565b9061422282613893565b80156142ef575b6142329061314f565b61423b82613893565b806142dc575b1561424f5761288191614311565b602060018060a01b0391604483600c54166000958652600e845260408620549060405195869485936338d1782f60e21b855260048501521660248301525afa9182156142d05780926142a057505090565b9091506020823d82116142c8575b816142bb602093836127f3565b8101031261037957505190565b3d91506142ae565b604051903d90823e3d90fd5b506142e682612ec1565b600b5414614241565b5061423261430a83600052600e602052604060002054151590565b9050614229565b61431a81613893565b801561434f575b61432a9061314f565b600052600460205260406000209060018060a01b031660005260205260406000205490565b5061432a61436a82600052600e602052604060002054151590565b9050614321565b60ff16604d8111612cd757600a0a90565b6040519061438f826127d8565b60078252667365636f6e647360c81b6020830152565b604051906143b2826127d8565b60078252666d696e7574657360c81b6020830152565b604051906143d5826127d8565b6005825264686f75727360d81b6020830152565b604051906143f6826127d8565b60048252636461797360e01b6020830152565b60405190614416826127d8565b60068252656d6f6e74687360d01b6020830152565b60405190614438826127d8565b6005825264796561727360d81b6020830152565b60009060408051906144618261121c81612dff565b8151602080930120614471614382565b80519084012003614494575050612881915061053160ff60145460a01c16614371565b80516144aa816144a381612dff565b03826127f3565b8281519101206144b86143a5565b805190840120036144ed575050603c80820292508115918304141715612cd7576128819061053160ff60145460a01c16614371565b80516144fc816144a381612dff565b82815191012061450a6143c8565b8051908401200361455657505061452d915061053160ff60145460a01c16614371565b603c810290808204603c1481151715612cd757610e100290808204603c1490151715612cd75790565b8051614565816144a381612dff565b8281519101206145736143e9565b805190840120036145d25750509050601881029080820460181481151715612cd7576105a0810291808304603c1490151715612cd757620151800290808204603c1490151715612cd7576128819061053160ff60145460a01c16614371565b7f8be27e132b8285429e5647023e835848842eefd3c91595a90151c438482c3a368151614602816144a381612dff565b838151910120647765656b7360d81b84845161461d816127d8565b6005815201520361468f5750509050600781029080820460071481151715612cd75760a881029180830460181490151715612cd757612760810291808304603c1490151715612cd75762093a800290808204603c1490151715612cd7576128819061053160ff60145460a01c16614371565b805161469e816144a381612dff565b8281519101206146ac614409565b805190840120036147205750509050603c810290808204603c1481151715612cd757610e10810291808304603c1490151715612cd7576201518081029180830460181490151715612cd75762278d000290808204601e1490151715612cd7576128819061053160ff60145460a01c16614371565b5161472e816144a381612dff565b8181519101209061473d61442b565b80519101201461474b575090565b906301da9c009182810292818404149015171561477857506128819061053160ff60145460a01c16614371565b634e487b7160e01b81526011600452602490fd5b1561479357565b60405162461bcd60e51b815260206004820152602560248201527f54696d654372656469743a207472616e736665727320617265206e6f7420616c6044820152641b1bddd95960da1b6064820152608490fd5b156147ed57565b60405162461bcd60e51b815260206004820152604b60248201527f54696d654372656469743a20616d6f756e74206265696e67207472616e73666560448201527f726564206973206c657373207468616e206d696e696d756d207472616e73666560648201526a7261626c652076616c756560a81b608482015260a490fd5b919091600090808252602091600e83526040928382205415600014614bdd57614896858433614cc0565b600195866003540196876003556148ac85612ec1565b916001600160a01b0380821692908315614b8f578a15614b41576148cf8b613893565b614afd5788516148de816127bd565b8781528951888b8e6148ef846127a2565b8084528a84018a81528b8386019285845260608701948c8652608088019680885260a08901998a5260066005549485948352522055600160401b811015614ae957808961493f9201600555612e86565b959095614ad557906005959493929151855551888501555160028401558560038401915116906bffffffffffffffffffffffff60a01b9182825416179055856004840192511690825416179055019051918251926001600160401b038411614ac157908883928f9b9a999897969594856149b8916136e2565b0191895287892090895b848110614aab575050505050507f6d811e6a20ae5461a4ef22a6998c1d958defe727f1cc522b6eb792bc8e6f726698979693869384614a8e9794614a18613b7a9a6000805160206159cf83398151915296613630565b857fddf252ad1be2c89b69c2b068fc378daa952ba7f163c4a11628f55a4df523b3ef8180a483857fe4f48c240d3b994948aa54f3e2f5fca59263dfe1d52b6e4cf39a5d249b5ccb658280a483835260068152614a7688842054612e86565b50508751838152a3614a89858883614d5a565b612ec1565b915192839286846040919493926060820195825260208201520152565b83518216818401558f9b509289019285016149c2565b634e487b7160e01b8a52604160045260248afd5b634e487b7160e01b8e5260048e905260248efd5b634e487b7160e01b8e52604160045260248efd5b885162461bcd60e51b815260048101879052601d60248201527f455243333532353a20746f6b656e20616c7265616479206d696e7465640000006044820152606490fd5b885162461bcd60e51b815260048101879052602160248201527f455243333532353a2063616e6e6f74206d696e74207a65726f20746f6b656e496044820152601960fa1b6064820152608490fd5b885162461bcd60e51b815260048101879052602160248201527f455243333532353a206d696e7420746f20746865207a65726f206164647265736044820152607360f81b6064820152608490fd5b600c5484516307a42e0160e11b8152600481018590526001600160a01b0397881660248201526044810187905291969192918791849160649183918691165af1958615614cb4578196614c5d575b50505090613b7a614a8e7f6d811e6a20ae5461a4ef22a6998c1d958defe727f1cc522b6eb792bc8e6f72669493612ec1565b909180939650813d8311614cad575b614c7681836127f3565b8101031261037957505192613b7a614a8e7f6d811e6a20ae5461a4ef22a6998c1d958defe727f1cc522b6eb792bc8e6f7266614c2b565b503d614c6c565b508351903d90823e3d90fd5b614cca8183614311565b614cd48383613282565b1580614d4e575b614ce6575b50505050565b838110614d0957614d0093614cfa916136c6565b91614046565b38808080614ce0565b60405162461bcd60e51b815260206004820152601f60248201527f455243333532353a20696e73756666696369656e7420616c6c6f77616e6365006044820152606490fd5b50600019811415614cdb565b614d6381613893565b15614f7e57614d7182613893565b15614f2b578060005260209260068452604092614d918460002054612e86565b508160005260068652614da78560002054612e86565b50906002810190815490858210614ed45760010154600184015403614e795791600291614dda86614e17989796956136c6565b905501614de8838254612ced565b905580836000805160206159cf833981519152888851868152a3845192614e0e846127bd565b60008452614feb565b15614e20575050565b60849250519062461bcd60e51b82526004820152602d60248201527f455243333532353a207472616e736665722072656a656374656420627920455260448201526c21999a991aa932b1b2b4bb32b960991b6064820152fd5b865162461bcd60e51b815260048101899052602e60248201527f455243333532353a207472616e7366657220746f20746f6b656e20776974682060448201526d191a5999995c995b9d081cdb1bdd60921b6064820152608490fd5b875162461bcd60e51b8152600481018a9052602a60248201527f455243333532353a20696e73756666696369656e742062616c616e636520666f60448201526939103a3930b739b332b960b11b6064820152608490fd5b60405162461bcd60e51b815260206004820152602560248201527f455243333532353a207472616e7366657220746f20696e76616c696420746f6b604482015264195b88125160da1b6064820152608490fd5b60405162461bcd60e51b815260206004820152602760248201527f455243333532353a207472616e736665722066726f6d20696e76616c696420746044820152661bdad95b88125160ca1b6064820152608490fd5b9081602091031261073d5751801515810361073d5790565b92614ff58261319b565b803b15158061509b575b156150915761504893600060209460405196879586948593629ce20b60e01b9b8c865233600487015260248601526044850152606484015260a0608484015260a48301906126c9565b03926001600160a01b03165af190811561400557600091615073575b506001600160e01b0319161490565b61508b915060203d81116138835761387481836127f3565b38615064565b5050505050600190565b506040516301ffc9a760e01b8152629ce20b60e01b60048201526020816024816001600160a01b0386165afa908115614005576000916150dc575b50614fff565b6150f4915060203d81116116c0576116b081836127f3565b386150d6565b90929161510682613893565b8061571c575b806156f9575b1561517757906151728261514a7fdf7a601a0a201ccd4b4bfcfd610913188d931867997223d226f85f2f2673988a9596948433614cc0565b615155818585614d5a565b604051938493846040919493926060820195825260208201520152565b0390a1565b61518e82600052600e602052604060002054151590565b806156dc575b156153ad57600093828552600e60205260409283862054918087528487205491831580158080916153a4575b15615239575050600c546001600160a01b031693915050823b15610c6f578451630310ed7f60e41b81526004810191909152602481019190915260448101929092529293909281908490818381606481015b03925af191821561522f5750506152265750565b6131e490612779565b51903d90823e3d90fd5b929391928061539c575b156152a5575050600c546001600160a01b0316929050823b15610c6f578451630310ed7f60e41b81526004810191909152602481019190915260448101929092529293909281908490606490829084905af191821561522f5750506152265750565b91935091908080615393575b15615304575050600c546001600160a01b031691823b15610c6f578451630310ed7f60e41b8152600481019190915260248101919091526044810192909252929390928190849081838160648101615212565b90918161538a575b5061531a575b505050509050565b600c546001600160a01b031691823b15610c6f578451630310ed7f60e41b81526004810191909152602481019190915260448101929092529293909281908490606490829084905af191821561522f57505061537b575b8080808493615312565b61538490612779565b38615371565b9050153861530c565b508215156152b1565b508115615243565b508415156151c0565b6153c782949394600052600e602052604060002054151590565b806155be575b156155b957600c5460408051639448bddb60e01b81526004810186905290936001600160a01b039283169392916020908181602481895afa9081156155ae57600091615591575b508360008851615427816144a381612d5b565b8481519101209260048a518094819363106057b960e21b8352165afa9081156155865760009161556d575b5082815191012003615513576000828152600e909152859020549384156154c9575050600c5416803b1561073d578351630310ed7f60e41b8152600481019390935260248301949094526044820152916000908390606490829084905af19081156154bf57506152265750565b513d6000823e3d90fd5b91509250803b1561073d578351630310ed7f60e41b8152600481019390935260248301949094526044820152916000908390606490829084905af19081156154bf57506152265750565b60849086519062461bcd60e51b82526004820152602e60248201527f43616e6e6f74207472616e73666572206265747765656e20646966666572656e60448201526d742063726564697420747970657360901b6064820152fd5b615580913d8091833e61032c81836127f3565b38615452565b88513d6000823e3d90fd5b6155a89150823d84116117775761176881836127f3565b38615414565b87513d6000823e3d90fd5b505050565b506000838152602090600e8252604080822054159283615675575b83156155e8575b5050506153cd565b868352600e8152818320541515935090918361560a575b5050503880806155e0565b9091925060018060a01b039182600c54169181858220546024875180968193639448bddb60e01b835260048301525afa94851561522f575093615656575b5050163014153880806155ff565b61566d929350803d106117775761176881836127f3565b903880615648565b600c548251639448bddb60e01b8152600481018990529194506001600160a01b039085908390602490829085165afa9182156121eb5784926156bd575b5016301415926155d9565b6156d5919250853d87116117775761176881836127f3565b90386156b2565b506156f484600052600e602052604060002054151590565b615194565b5061570384613893565b8015615112575061571384612ec1565b600b5414615112565b5061572682612ec1565b600b541461510c565b6157519061573c81613893565b80156158f8575b61574c9061314f565b61591a565b60408051906157638261121c81612dff565b8151602080930120615773614382565b8051908401200361579557505061288190611c4060ff60145460a01c16614371565b80516157a4816144a381612dff565b8281519101206157b26143a5565b805190840120036157da5750506157d6603c91611c4060ff60145460a01c16614371565b0490565b80516157e9816144a381612dff565b8281519101206157f76143c8565b8051908401200361581c5750506157d6610e1091611c4060ff60145460a01c16614371565b805161582b816144a381612dff565b8281519101206158396143e9565b8051908401200361585f5750506157d66201518091611c4060ff60145460a01c16614371565b805161586e816144a381612dff565b82815191012061587c614409565b805190840120036158a25750506157d662278d0091611c4060ff60145460a01c16614371565b516158b0816144a381612dff565b818151910120906158bf61442b565b8051910120036158e3576157d66301da9c0091611c4060ff60145460a01c16614371565b61288190611c4060ff60145460a01c16614371565b5061574c61591382600052600e602052604060002054151590565b9050615743565b61592381613893565b80156159ac575b6159339061314f565b61593c81613893565b80615999575b1561595057612881906135dd565b6000908152600e6020526040812054602060018060a01b03600c541691602460405180948193631398fee160e31b835260048301525afa9182156142d05780926142a057505090565b506159a381612ec1565b600b5414615942565b506159336159c782600052600e602052604060002054151590565b905061592a56fe0b2aac84f3ec956911fd78eae5311062972ff949f38412e8da39069d9f068cc6a2646970667358221220fcf252083bb72a5b869342e21ee86ebdbc61a6ea1f7e8795b334f2ec1148fbe564736f6c634300081100336080604052346200048657620024ae803803806200001d816200048b565b9283398101608082820312620004865781516001600160401b0391908281116200048657816200004f918501620004b1565b91602092838501518281116200048657836200006d918701620004b1565b92604086015183811162000486576060916200008b918801620004b1565b9501516001600160a01b03811695908690036200048657815193838511620002c3576001948554938685811c951680156200047b575b88861014620002a2578190601f9586811162000425575b508890868311600114620003bd57600092620003b1575b5050600019600383901b1c191690861b1785555b805190848211620002c357600254908682811c92168015620003a6575b88831014620002a25781858493116200034f575b508790858311600114620002e557600092620002d9575b5050600019600383901b1c191690851b176002555b8051928311620002c35760039485548581811c91168015620002b8575b82821014620002a25783811162000257575b5080928411600114620001ed5750928293918392600094620001e1575b50501b9160001990841b1c19161790555b600080546001600160a01b031916919091179055604051611f8a9081620005248239f35b015192503880620001ac565b919083601f1981168760005284600020946000905b888383106200023c575050501062000223575b505050811b019055620001bd565b015160001983861b60f8161c1916905538808062000215565b85870151885590960195948501948793509081019062000202565b86600052816000208480870160051c82019284881062000298575b0160051c019086905b8281106200028b5750506200018f565b600081550186906200027b565b9250819262000272565b634e487b7160e01b600052602260045260246000fd5b90607f16906200017d565b634e487b7160e01b600052604160045260246000fd5b0151905038806200014b565b90879350601f198316916002600052896000209260005b8b8282106200033857505084116200031e575b505050811b0160025562000160565b015160001960f88460031b161c191690553880806200030f565b8385015186558b97909501949384019301620002fc565b9091506002600052876000208580850160051c8201928a86106200039c575b918991869594930160051c01915b8281106200038c57505062000134565b600081558594508991016200037c565b925081926200036e565b91607f169162000120565b015190503880620000ef565b90889350601f19831691846000528a6000209260005b8c8282106200040e5750508411620003f4575b505050811b01855562000103565b015160001960f88460031b161c19169055388080620003e6565b8385015186558c97909501949384019301620003d3565b90915087600052886000208680850160051c8201928b861062000471575b918a91869594930160051c01915b82811062000461575050620000d8565b600081558594508a910162000451565b9250819262000443565b94607f1694620000c1565b600080fd5b6040519190601f01601f191682016001600160401b03811183821017620002c357604052565b919080601f84011215620004865782516001600160401b038111620002c357602090620004e7601f8201601f191683016200048b565b92818452828287010111620004865760005b8181106200050f57508260009394955001015290565b8581018301518482018401528201620004f956fe608060408181526004908136101561001657600080fd5b600092833560e01c9081631375d843146114a057508063246a908b146113a257806331264fc11461119057806355f804b31461104c57806364140ec014610f4d5780636c0360eb14610e8e5780636c037f8a14610b7257806371f0442e14610ade578063725fa09c14610866578063842251d41461072e578063894b4c2e146104025780639cdeaae0146101805763b3154c08146100b357600080fd5b3461017c57602091826003193601126101785780358452825280832091815192848154906100e082611a7d565b808752926001928084169081156101545750600114610119575b610115878761010b828c03836115b6565b5191829182611558565b0390f35b9080949750528583205b82841061014157505050826101159461010b928201019438806100fa565b8054868501880152928601928101610123565b60ff19168887015250505050151560051b830101925061010b8261011538806100fa565b8380fd5b8280fd5b50913461039057826003193601126103905781359161019e836119cd565b928083526020918083528584209386519481868254916101bd83611a7d565b92838352888301946001918a83821691826000146103e25750506001146103a5575b50506101ed925003876115b6565b6101f684611de4565b9161020260243561188a565b895163131f9f3f60e11b8152948501869052938681602481335afa91821561039a578092610365575b61011561027f8c61010b606c8e8e8e61034c8f8f8f8f8f61024e6102549161188a565b94611e7e565b966102a960298d519e8f809c683d913730b6b2911d1160b91b8c8301528b8151948593019101611535565b8a0191701116113232b9b1b934b83a34b7b7111d1160791b6029840152518093603a840190611535565b016a11161134b6b0b3b2911d1160a91b603a8201526102d18251809388604585019101611535565b016c1116113130b630b731b2911d1160991b60458201526102fb8251809387605285019101611535565b016911161139b637ba111d1160b11b60528201526103228251809386605c85019101611535565b01916e111611383937b832b93a34b2b9911d60891b605c8401528351938491606b85019101611535565b01607d60f81b606b82015203604c8101855201836115b6565b9091508682813d8311610393575b61037d81836115b6565b810103126103905750518461027f61022b565b80fd5b503d610373565b8a51903d90823e3d90fd5b89925086528186209086915b8583106103c95750506101ed935082010138806101df565b81948484839695965492010152019101899289926103b1565b92509350506101ed94915060ff19168552151560051b82010138806101df565b50913461039057602091826003193601126106bd57803591610423836119cd565b83825282855285822090865190838284549161043e83611a7d565b928383528a8301966001918c838216918260001461070e5750506001146106d2575b505061046e925003836115b6565b61047786611de4565b938851631398fee160e31b815287878201528881602481335afa80156106c8578290610695575b6104a8915061188a565b895163131f9f3f60e11b8152968701889052958881602481335afa91821561039a578092610664575b5050606c888a6101159b9961010b99603d996106549d9961061b9961055861052e9a6105086105026106169c61188a565b97611e7e565b97519b8c99683d913730b6b2911d1160b91b818c0152825192839160298d019101611535565b880191701116113232b9b1b934b83a34b7b7111d1160791b6029840152518093603a840190611535565b016a11161134b6b0b3b2911d1160a91b603a820152610580825180938d604585019101611535565b016c1116113130b630b731b2911d1160991b60458201526105aa825180938c605285019101611535565b016911161139b637ba111d1160b11b60528201526105d1825180938b605c85019101611535565b016e111611383937b832b93a34b2b9911d60891b605c8201526105fd825180938a606b85019101611535565b01607d60f81b606b82015203604c8101845201826115b6565b61171d565b845195827f646174613a6170706c69636174696f6e2f6a736f6e3b6261736536342c000000889485015282519283918686019101611535565b810103601d8101855201836115b6565b9091508882813d831161068e575b61067c81836115b6565b81010312610390575051606c886104d1565b503d610672565b508881813d83116106c1575b6106ab81836115b6565b810103126106bd576104a8905161049e565b5080fd5b503d6106a1565b8a513d84823e3d90fd5b8b925088528188209088915b8583106106f657505061046e93508201013880610460565b80548389018501528794508c939092019181016106de565b925093505061046e94915060ff19168752151560051b8201013880610460565b508290346106bd5761073f36611640565b939083526020916006835283209184519167ffffffffffffffff8311610853575061076a8354611a7d565b601f8111610810575b5080601f83116001146107ae57508394829394926107a3575b50508160011b916000199060031b1c191617905580f35b01519050848061078c565b90601f198316958486528286209286905b8882106107f8575050836001959697106107df575b505050811b01905580f35b015160001960f88460031b161c191690558480806107d4565b806001859682949686015181550195019301906107bf565b838552818520601f840160051c810191838510610849575b601f0160051c01905b81811061083e5750610773565b858155600101610831565b9091508190610828565b634e487b7160e01b855260419052602484fd5b50903461017c578260031936011261017c5781516306fdde0360e01b81529083828281335afa918215610ad1578492610aad575b5082519084600254906108ac82611a7d565b808552846020988992838301956001908181169081600014610a8e5750600114610a32575b50506108df925003856115b6565b6108e7611bb6565b928787518092633e7e866960e01b825281335afa918215610a2757605a610654989761010b97603d976101159c9761093360ff61061b996109889961061699916109fa575b501661188a565b928c51978895683d913730b6b2911d1160b91b8c88015261095e8c825192839160298b019101611535565b860191701116113232b9b1b934b83a34b7b7111d1160791b6029840152518093603a840190611535565b016a11161134b6b0b3b2911d1160a91b603a8201526109b0825180938b604585019101611535565b01721116113b30b63ab2a232b1b4b6b0b639911d1160691b60458201526109e0825180938a605885019101611535565b0161227d60f01b605882015203603a8101845201826115b6565b610a1a91508c8d3d10610a20575b610a1281836115b6565b8101906116d2565b3861092c565b503d610a08565b8751903d90823e3d90fd5b600286527f405787fa12a823e0f2b7631cc41b3ba8828b3321ca811111fa75cd3aa3bb5ace9492508591905b818310610a7657508b9450508201016108df386108d1565b85548a84018501529485019489945091830191610a5e565b9150506108df94925060ff19168652151560051b8201018992386108d1565b610aca9192503d8086833e610ac281836115b6565b810190611673565b903861089a565b50505051903d90823e3d90fd5b503461017c576020918260031936011261017857358352600582528083209181519284815490610b0d82611a7d565b808752926001928084169081156101545750600114610b3757610115878761010b828c03836115b6565b9080949750528583205b828410610b5f57505050826101159461010b928201019438806100fa565b8054868501880152928601928101610b41565b50903461017c5760209283600319360112610390578054835163ec327a2160e01b815283358185018190529092916001600160a01b0316908284602481855afa938415610e84578394610e68575b50855163bc74ebb960e01b8152858101829052948386602481865afa958615610e5e578496610e42575b5086516309c3dd8760e01b80825282820184905290938585602481845afa948515610e3857918a9594939187938496610e17575b5090602491610c5e60268d518a652f696d61676560d01b81610c4a849e85019d8e815193849201611535565b83019182015203600681018b5201896115b6565b8b51958694859384528301525afa938415610a27578094610dfa575b50508551918288808201868197519283910191610c9692611535565b81018981016f17b83937b832b93a34b2b9973539b7b760811b905203601081018452603001610cc590846115b6565b8651958695683d913730b6b2911d1160b91b8a880152805190818b60298a01920191610cf092611535565b8601701116113232b9b1b934b83a34b7b7111d1160791b6029820152815191828b603a8401920191610d2192611535565b01906a11161134b6b0b3b2911d1160a91b603a83015251918260458301610d4792611535565b01906e111611383937b832b93a34b2b9911d60891b604583015251918260548301610d7192611535565b0160548101607d60f81b905203603581018252605501610d9190826115b6565b610d9a9061171d565b81517f646174613a6170706c69636174696f6e2f6a736f6e3b6261736536342c00000084820152815190938492610dd8918391603d86019101611535565b810103601d81018352603d01610dee90836115b6565b51610115819282611558565b610e0f9294503d8091833e610ac281836115b6565b913880610c7a565b602492919650610e30903d8087833e610ac281836115b6565b959091610c1e565b89513d88823e3d90fd5b610e579196503d8086833e610ac281836115b6565b9438610bea565b87513d86823e3d90fd5b610e7d9194503d8085833e610ac281836115b6565b9238610bc0565b86513d85823e3d90fd5b8382346106bd57816003193601126106bd57805190826001805491610eb283611a7d565b80865292828116908115610f255750600114610edb575b50505061010b826101159403836115b6565b9450808552600080516020611f358339815191525b828610610f0d5750505061010b8260206101159582010194610ec9565b80546020878701810191909152909501948101610ef0565b61011597508693506020925061010b94915060ff191682840152151560051b82010194610ec9565b508290346106bd57610f5e36611640565b939083526020916005835283209184519167ffffffffffffffff83116108535750610f898354611a7d565b601f8111611009575b5080601f8311600114610fc157508394829394926107a35750508160011b916000199060031b1c191617905580f35b90601f198316958486528286209286905b888210610ff1575050836001959697106107df57505050811b01905580f35b80600185968294968601518155019501930190610fd2565b838552818520601f840160051c810191838510611042575b601f0160051c01905b8181106110375750610f92565b85815560010161102a565b9091508190611021565b828434610390576020806003193601126106bd5767ffffffffffffffff83358181116101785761107f90369086016115f4565b93845191821161117d57506001916110978354611a7d565b601f811161112b575b5080601f83116001146110da57508394829394926110cf575b5050600019600383901b1c191690821b17905580f35b0151905084806110b9565b838552601f19831695600080516020611f35833981519152929186905b88821061111457505083859697106107df57505050811b01905580f35b8087859682949686015181550195019301906110f7565b838552600080516020611f35833981519152601f840160051c810191838510611173575b601f0160051c019084905b8281106111685750506110a0565b86815501849061115a565b909150819061114f565b634e487b7160e01b845260419052602483fd5b50903461017c578260031936011261017c5781516306fdde0360e01b81529083828281335afa918215610ad1578492611386575b5082519084906002546111d681611a7d565b808552846020948582019360019087828216918260001461136857505060011461130e575b50611208925003856115b6565b611210611bb6565b918387518092633e7e866960e01b825281335afa9081156113045761127d97969361010b969361125360ff605a98956112d3956101159e916112ed57501661188a565b9489519a8b97683d913730b6b2911d1160b91b878a015261052e815180928960298d019101611535565b016a11161134b6b0b3b2911d1160a91b603a8201526112a58251809386604585019101611535565b0191721116113b30b63ab2a232b1b4b6b0b639911d1160691b60458401528351938491605885019101611535565b0161227d60f01b605882015203603a8101855201836115b6565b610a1a9150873d8911610a2057610a1281836115b6565b87513d8a823e3d90fd5b60028b528691508a907f405787fa12a823e0f2b7631cc41b3ba8828b3321ca811111fa75cd3aa3bb5ace5b8583106113505750506112089350820101386111fb565b8054838b018501528994508893909201918101611339565b60ff1916875261120895151560051b85010192503891506111fb9050565b61139b9192503d8086833e610ac281836115b6565b90386111c4565b508290346106bd576113b336611640565b9390835260209181835283209184519167ffffffffffffffff831161085357506113dd8354611a7d565b601f811161145d575b5080601f831160011461141557508394829394926107a35750508160011b916000199060031b1c191617905580f35b90601f198316958486528286209286905b888210611445575050836001959697106107df57505050811b01905580f35b80600185968294968601518155019501930190611426565b838552818520601f840160051c810191838510611496575b601f0160051c01905b81811061148b57506113e6565b85815560010161147e565b9091508190611475565b92905034610178576020908160031936011261153157358452600681528184208054856114cc82611a7d565b8087529260019280841690811561015457506001146114f657610115878761010b828c03836115b6565b9080949750528583205b82841061151e57505050826101159461010b928201019438806100fa565b8054868501880152928601928101611500565b8480fd5b60005b8381106115485750506000910152565b8181015183820152602001611538565b604091602082526115788151809281602086015260208686019101611535565b601f01601f1916010190565b6060810190811067ffffffffffffffff8211176115a057604052565b634e487b7160e01b600052604160045260246000fd5b90601f8019910116810190811067ffffffffffffffff8211176115a057604052565b67ffffffffffffffff81116115a057601f01601f191660200190565b81601f8201121561163b5780359061160b826115d8565b9261161960405194856115b6565b8284526020838301011161163b57816000926020809301838601378301015290565b600080fd5b90604060031983011261163b57600435916024359067ffffffffffffffff821161163b57611670916004016115f4565b90565b60208183031261163b5780519067ffffffffffffffff821161163b570181601f8201121561163b5780516116a6816115d8565b926116b460405194856115b6565b8184526020828401011161163b576116709160208085019101611535565b9081602091031261163b575160ff8116810361163b5790565b906116f5826115d8565b61170260405191826115b6565b8281528092611713601f19916115d8565b0190602036910137565b8051156118655760405161173081611584565b604081527f4142434445464748494a4b4c4d4e4f505152535455565758595a61626364656660208201527f6768696a6b6c6d6e6f707172737475767778797a303132333435363738392b2f6040820152815160029283820180921161184f576003918290046001600160fe1b038116810361184f576117b2908594951b6116eb565b936020850193829183518401925b8381106117fe57505050505106806001146117eb576002146117e0575090565b603d90600019015390565b50603d9081600019820153600119015390565b85600491979293949701918251600190603f9082828260121c16880101518453828282600c1c16880101518385015382828260061c16880101518885015316850101518782015301959291906117c0565b634e487b7160e01b600052601160045260246000fd5b506040516020810181811067ffffffffffffffff8211176115a0576040526000815290565b806000917a184f03e93ff9f4daa797ed6e38ed64bf6a1f010000000000000000808210156119bf575b506d04ee2d6d415b85acef8100000000808310156119b0575b50662386f26fc10000808310156119a1575b506305f5e10080831015611992575b5061271080831015611983575b506064821015611973575b600a80921015611969575b6001908160216119218287016116eb565b95860101905b611933575b5050505090565b600019019083906f181899199a1a9b1b9c1cb0b131b232b360811b8282061a83530491821561196457919082611927565b61192c565b9160010191611910565b9190606460029104910191611905565b600491939204910191386118fa565b600891939204910191386118ed565b601091939204910191386118de565b602091939204910191386118cc565b6040935081049150386118b3565b6040516306fdde0360e01b815290600082600481335afa918215611a7157600092611a4b575b506022611a026116709261188a565b926040519381611a1c869351809260208087019101611535565b820161202360f01b6020820152611a3c8251809360208785019101611535565b010360028101845201826115b6565b611a02611a6860229261167094953d8091833e610ac281836115b6565b939250506119f3565b6040513d6000823e3d90fd5b90600182811c92168015611aad575b6020831014611a9757565b634e487b7160e01b600052602260045260246000fd5b91607f1691611a8c565b90600091600190815491611aca83611a7d565b92818116908115611b205750600114611ae257505050565b809192939450600052600080516020611f35833981519152906000915b848310611b0d575050500190565b8181602092548587015201920191611aff565b60ff191683525050811515909102019150565b600092918154611b4281611a7d565b92600191808316908115611b9b5750600114611b5f575b50505050565b90919293945060005260209081600020906000915b858310611b8a5750505050019038808080611b59565b805485840152918301918101611b74565b60ff1916845250505081151590910201915038808080611b59565b611bbf33611cc1565b6040519081602091611bd2838301611ab7565b68636f6e74726163742f60b81b8152611bf48251809386600985019101611535565b01602f60f81b600982015260009060035493611c0f85611a7d565b94600190818116908115611c9e5750600114611c3c575b505050611670925003601f1981018352826115b6565b9091925060036000527fc2575a0e9e593c00f959f8c92f12db2869c3395a3b0502d05e2516446f71f85b906000915b868310611c87575050505061167092600a910101388080611c26565b8054838601600a0152879550918301918101611c6b565b915050600a935061167095915060ff191683830152801515020101388080611c26565b604051906001600160a01b0316611cd782611584565b602a82526020908183016040368237835115611dce57603090538251600190811015611dce57607860218501536029905b808211611d5c575050611d19575090565b6064906040519062461bcd60e51b825280600483015260248201527f537472696e67733a20686578206c656e67746820696e73756666696369656e746044820152fd5b9091600f81166010811015611db9578551841015611db9576f181899199a1a9b1b9c1cb0b131b232b360811b901a85840185015360041c918015611da4576000190190611d08565b60246000634e487b7160e01b81526011600452fd5b60246000634e487b7160e01b81526032600452fd5b634e487b7160e01b600052603260045260246000fd5b611670601191611df330611cc1565b906000526006602052611e70604060002060056020526001611e62604060002092604051978896611e2660208901611ab7565b692f636f6e74726163742f60b01b8152611e4a825180936020600a85019101611535565b01662f746f6b656e2f60c81b600a8201520190611b33565b602f60f81b81520190611b33565b03601f1981018352826115b6565b6116706011601092611e8f33611cc1565b906000526006602052611f0560406000206040519586936e7b70726f706572746965735f75726960881b6020860152611eca602f8601611ab7565b68636f6e74726163742f60b81b8152611eed825180936020600985019101611535565b01662f746f6b656e2f60c81b60098201520190611b33565b6f17b83937b832b93a34b2b9973539b7b760811b8152607d60f81b601082015203600e198101845201826115b656feb10e2d527612073b26eecdfd717e6a320cf44b4afac2b0732d9fcbe2b7fa0cf6a2646970667358221220fa9bbfb92b0f6f72b9d999777e92a3ffd53d3bf53c621e79c11779229b4eba9764736f6c63430008110033",
  "linkReferences": {},
  "deployedLinkReferences": {}
}