{
  "_format": "hh-sol-artifact-1",
  "contractName": "Queue",
  "sourceName": "contracts/util/Queue.sol",
  "abi": [
    {
      "inputs": [],
      "name": "dequeue",
      "outputs": [
        {
          "components": [
            {
              "internalType": "uint256",
              "name": "expiry",
              "type": "uint256"
            },
            {
              "internalType": "uint256",
              "name": "msgId",
              "type": "uint256"
            },
            {
              "internalType": "bytes32",
              "name": "next",
              "type": "bytes32"
            }
          ],
          "internalType": "struct Queue.Item",
          "name": "",
          "type": "tuple"
        }
      ],
      "stateMutability": "nonpayable",
      "type": "function"
    },
    {
      "inputs": [
        {
          "internalType": "uint256",
          "name": "msgId",
          "type": "uint256"
        },
        {
          "internalType": "uint256",
          "name": "expiryTime",
          "type": "uint256"
        }
      ],
      "name": "enqueue",
      "outputs": [
        {
          "internalType": "bytes32",
          "name": "",
          "type": "bytes32"
        }
      ],
      "stateMutability": "nonpayable",
      "type": "function"
    },
    {
      "inputs": [],
      "name": "length",
      "outputs": [
        {
          "internalType": "uint256",
          "name": "",
          "type": "uint256"
        }
      ],
      "stateMutability": "view",
      "type": "function"
    }
  ],
  "bytecode": "0x60808060405234610016576105ce908161001c8239f35b600080fdfe60806040818152600436101561001457600080fd5b600091823560e01c9081631f7b6d321461018857508063957908d11461006f5763982d64d41461004357600080fd5b3461006b578060031936011261006b5760209061006460243560043561021d565b9051908152f35b5080fd5b503461006b578160031936011261006b578181805161008d816101a4565b82815282602082015201526001908154156101845780516002546020820190815260035460408301526004546060808401919091528252906100d06080826101d6565b51902091828452836020528184209260028351946100ed866101a4565b8054865283810154602087015201549081848601528552846020528460028482208281558285820155015584528184208060020361016b575b5080548015610157576000190190555181518152602080830151908201526040918201519181019190915260609150f35b634e487b7160e01b85526011600452602485fd5b8060029154825582810154600355015460045538610126565b8280fd5b83903461006b578160031936011261006b576020906001548152f35b6060810190811067ffffffffffffffff8211176101c057604052565b634e487b7160e01b600052604160045260246000fd5b90601f8019910116810190811067ffffffffffffffff8211176101c057604052565b60001981146102075760010190565b634e487b7160e01b600052601160045260246000fd5b908042101561055d576002805490929082116103175760405190602082018261025d82906060820191600254815260035460208201526040600454910152565b0392610271601f19948581018352826101d6565b519020908160408051610283816101a4565b86815283602082015201528385556003556004556040516102d06020820192826102c485906060820191600254815260035460208201526040600454910152565b039081018352826101d6565b519020918260005260006020526040600020918183036102ff575b5050506102f96001546101f8565b60015590565b825560035460018301556004549101553880806102eb565b6005548211156103f45760405190602082018261034b82906060820191600554815260065460208201526040600754910152565b039261035f601f19948581018352826101d6565b519020908160408051610371816101a4565b8681528360208201520152836005556006556007556040516103b36020820192826102c485906060820191600554815260065460208201526040600754910152565b51902091826000526000602052604060002091600583036103dc575050506102f96001546101f8565b825560065460018301556007549101553880806102eb565b90600480549360408051926020908185018561042782906060820191600254815260035460208201526040600454910152565b039561043b601f19978881018352826101d6565b51902094600098801515995b8a80610552575b15610542578160005260008552856000205489106104745761046f906101f8565b610447565b505090919280949596979850600020968451848101895481528760019a8b810154898501520154606090818401528252608082019482861067ffffffffffffffff87111761052d57508493929160c091600097968952815190209b8c936104da876101a4565b865260a08201520152610512855191826102c48682019586919091604080606083019480518452602081015160208501520151910152565b51902094825252600020015561052881546101f8565b905590565b604190634e487b7160e01b6000525260246000fd5b5050505050505050505050600090565b50600154811061044e565b60405162461bcd60e51b815260206004820152601360248201527213595cdcd859d9481a185cc8195e1c1a5c9959606a1b6044820152606490fdfea2646970667358221220804c6b1ce8ccb22cb91154519a76a3f6d9052aca6a2362aea86afd15cc2ea39d64736f6c63430008110033",
  "linkReferences": {},
  "deployedLinkReferences": {}
}