{
  "_format": "hh-sol-artifact-1",
  "contractName": "Service",
  "sourceName": "contracts/Service.sol",
  "abi": [
    {
      "inputs": [
        {
          "internalType": "address",
          "name": "adminAddress_",
          "type": "address"
        },
        {
          "internalType": "address",
          "name": "mktAdmin_",
          "type": "address"
        },
        {
          "internalType": "address",
          "name": "slotRegistry_",
          "type": "address"
        },
        {
          "internalType": "uint256",
          "name": "defaultSlot_",
          "type": "uint256"
        },
        {
          "internalType": "string",
          "name": "name_",
          "type": "string"
        },
        {
          "internalType": "string",
          "name": "symbol_",
          "type": "string"
        },
        {
          "internalType": "string",
          "name": "baseuri_",
          "type": "string"
        },
        {
          "internalType": "string",
          "name": "contractDescription_",
          "type": "string"
        },
        {
          "internalType": "string",
          "name": "contractImage_",
          "type": "string"
        },
        {
          "internalType": "string",
          "name": "contractType_",
          "type": "string"
        },
        {
          "internalType": "uint8",
          "name": "decimals_",
          "type": "uint8"
        }
      ],
      "stateMutability": "nonpayable",
      "type": "constructor"
    },
    {
      "anonymous": false,
      "inputs": [
        {
          "indexed": true,
          "internalType": "address",
          "name": "_owner",
          "type": "address"
        },
        {
          "indexed": true,
          "internalType": "address",
          "name": "_approved",
          "type": "address"
        },
        {
          "indexed": true,
          "internalType": "uint256",
          "name": "_tokenId",
          "type": "uint256"
        }
      ],
      "name": "Approval",
      "type": "event"
    },
    {
      "anonymous": false,
      "inputs": [
        {
          "indexed": true,
          "internalType": "address",
          "name": "_owner",
          "type": "address"
        },
        {
          "indexed": true,
          "internalType": "address",
          "name": "_operator",
          "type": "address"
        },
        {
          "indexed": false,
          "internalType": "bool",
          "name": "_approved",
          "type": "bool"
        }
      ],
      "name": "ApprovalForAll",
      "type": "event"
    },
    {
      "anonymous": false,
      "inputs": [
        {
          "indexed": true,
          "internalType": "uint256",
          "name": "_tokenId",
          "type": "uint256"
        },
        {
          "indexed": true,
          "internalType": "address",
          "name": "_operator",
          "type": "address"
        },
        {
          "indexed": false,
          "internalType": "uint256",
          "name": "_value",
          "type": "uint256"
        }
      ],
      "name": "ApprovalValue",
      "type": "event"
    },
    {
      "anonymous": false,
      "inputs": [
        {
          "indexed": false,
          "internalType": "address",
          "name": "contractAddress",
          "type": "address"
        }
      ],
      "name": "MetadataDescriptor",
      "type": "event"
    },
    {
      "anonymous": false,
      "inputs": [
        {
          "indexed": false,
          "internalType": "uint256",
          "name": "tokenId",
          "type": "uint256"
        },
        {
          "indexed": false,
          "internalType": "uint256",
          "name": "slot",
          "type": "uint256"
        },
        {
          "indexed": false,
          "internalType": "uint256",
          "name": "value",
          "type": "uint256"
        }
      ],
      "name": "MintServiceToken",
      "type": "event"
    },
    {
      "anonymous": false,
      "inputs": [
        {
          "indexed": false,
          "internalType": "uint256",
          "name": "newTokenId",
          "type": "uint256"
        },
        {
          "indexed": false,
          "internalType": "uint256",
          "name": "slot",
          "type": "uint256"
        },
        {
          "indexed": false,
          "internalType": "uint256",
          "name": "value",
          "type": "uint256"
        }
      ],
      "name": "MintServiceTokenToAddress",
      "type": "event"
    },
    {
      "anonymous": false,
      "inputs": [
        {
          "indexed": true,
          "internalType": "bytes32",
          "name": "role",
          "type": "bytes32"
        },
        {
          "indexed": true,
          "internalType": "bytes32",
          "name": "previousAdminRole",
          "type": "bytes32"
        },
        {
          "indexed": true,
          "internalType": "bytes32",
          "name": "newAdminRole",
          "type": "bytes32"
        }
      ],
      "name": "RoleAdminChanged",
      "type": "event"
    },
    {
      "anonymous": false,
      "inputs": [
        {
          "indexed": true,
          "internalType": "bytes32",
          "name": "role",
          "type": "bytes32"
        },
        {
          "indexed": true,
          "internalType": "address",
          "name": "account",
          "type": "address"
        },
        {
          "indexed": true,
          "internalType": "address",
          "name": "sender",
          "type": "address"
        }
      ],
      "name": "RoleGranted",
      "type": "event"
    },
    {
      "anonymous": false,
      "inputs": [
        {
          "indexed": true,
          "internalType": "bytes32",
          "name": "role",
          "type": "bytes32"
        },
        {
          "indexed": true,
          "internalType": "address",
          "name": "account",
          "type": "address"
        },
        {
          "indexed": true,
          "internalType": "address",
          "name": "sender",
          "type": "address"
        }
      ],
      "name": "RoleRevoked",
      "type": "event"
    },
    {
      "anonymous": false,
      "inputs": [
        {
          "indexed": true,
          "internalType": "address",
          "name": "metadataDescriptor",
          "type": "address"
        }
      ],
      "name": "SetMetadataDescriptor",
      "type": "event"
    },
    {
      "anonymous": false,
      "inputs": [
        {
          "indexed": true,
          "internalType": "uint256",
          "name": "_tokenId",
          "type": "uint256"
        },
        {
          "indexed": true,
          "internalType": "uint256",
          "name": "_oldSlot",
          "type": "uint256"
        },
        {
          "indexed": true,
          "internalType": "uint256",
          "name": "_newSlot",
          "type": "uint256"
        }
      ],
      "name": "SlotChanged",
      "type": "event"
    },
    {
      "anonymous": false,
      "inputs": [
        {
          "indexed": true,
          "internalType": "address",
          "name": "_from",
          "type": "address"
        },
        {
          "indexed": true,
          "internalType": "address",
          "name": "_to",
          "type": "address"
        },
        {
          "indexed": true,
          "internalType": "uint256",
          "name": "_tokenId",
          "type": "uint256"
        }
      ],
      "name": "Transfer",
      "type": "event"
    },
    {
      "anonymous": false,
      "inputs": [
        {
          "indexed": true,
          "internalType": "uint256",
          "name": "_fromTokenId",
          "type": "uint256"
        },
        {
          "indexed": true,
          "internalType": "uint256",
          "name": "_toTokenId",
          "type": "uint256"
        },
        {
          "indexed": false,
          "internalType": "uint256",
          "name": "_value",
          "type": "uint256"
        }
      ],
      "name": "TransferValue",
      "type": "event"
    },
    {
      "anonymous": false,
      "inputs": [
        {
          "indexed": false,
          "internalType": "uint256",
          "name": "fromTokenId",
          "type": "uint256"
        },
        {
          "indexed": false,
          "internalType": "uint256",
          "name": "toTokenId",
          "type": "uint256"
        },
        {
          "indexed": false,
          "internalType": "uint256",
          "name": "value",
          "type": "uint256"
        }
      ],
      "name": "ValueTransfer",
      "type": "event"
    },
    {
      "inputs": [],
      "name": "DEFAULT_ADMIN_ROLE",
      "outputs": [
        {
          "internalType": "bytes32",
          "name": "",
          "type": "bytes32"
        }
      ],
      "stateMutability": "view",
      "type": "function"
    },
    {
      "inputs": [],
      "name": "MKT_ARBITRATOR_ROLE",
      "outputs": [
        {
          "internalType": "bytes32",
          "name": "",
          "type": "bytes32"
        }
      ],
      "stateMutability": "view",
      "type": "function"
    },
    {
      "inputs": [
        {
          "internalType": "string",
          "name": "uri_",
          "type": "string"
        }
      ],
      "name": "_setBaseURI",
      "outputs": [],
      "stateMutability": "nonpayable",
      "type": "function"
    },
    {
      "inputs": [
        {
          "internalType": "uint256",
          "name": "tokenId_",
          "type": "uint256"
        },
        {
          "internalType": "address",
          "name": "operator_",
          "type": "address"
        }
      ],
      "name": "allowance",
      "outputs": [
        {
          "internalType": "uint256",
          "name": "",
          "type": "uint256"
        }
      ],
      "stateMutability": "view",
      "type": "function"
    },
    {
      "inputs": [
        {
          "internalType": "address",
          "name": "to_",
          "type": "address"
        },
        {
          "internalType": "uint256",
          "name": "tokenId_",
          "type": "uint256"
        }
      ],
      "name": "approve",
      "outputs": [],
      "stateMutability": "payable",
      "type": "function"
    },
    {
      "inputs": [
        {
          "internalType": "uint256",
          "name": "tokenId_",
          "type": "uint256"
        },
        {
          "internalType": "address",
          "name": "to_",
          "type": "address"
        },
        {
          "internalType": "uint256",
          "name": "value_",
          "type": "uint256"
        }
      ],
      "name": "approve",
      "outputs": [],
      "stateMutability": "payable",
      "type": "function"
    },
    {
      "inputs": [
        {
          "internalType": "address",
          "name": "owner_",
          "type": "address"
        }
      ],
      "name": "balanceOf",
      "outputs": [
        {
          "internalType": "uint256",
          "name": "balance",
          "type": "uint256"
        }
      ],
      "stateMutability": "view",
      "type": "function"
    },
    {
      "inputs": [
        {
          "internalType": "uint256",
          "name": "tokenId_",
          "type": "uint256"
        }
      ],
      "name": "balanceOf",
      "outputs": [
        {
          "internalType": "uint256",
          "name": "",
          "type": "uint256"
        }
      ],
      "stateMutability": "view",
      "type": "function"
    },
    {
      "inputs": [],
      "name": "contractAdmin",
      "outputs": [
        {
          "internalType": "address",
          "name": "",
          "type": "address"
        }
      ],
      "stateMutability": "view",
      "type": "function"
    },
    {
      "inputs": [],
      "name": "contractURI",
      "outputs": [
        {
          "internalType": "string",
          "name": "",
          "type": "string"
        }
      ],
      "stateMutability": "view",
      "type": "function"
    },
    {
      "inputs": [],
      "name": "creditType",
      "outputs": [
        {
          "internalType": "string",
          "name": "",
          "type": "string"
        }
      ],
      "stateMutability": "view",
      "type": "function"
    },
    {
      "inputs": [
        {
          "internalType": "uint256",
          "name": "tokenId_",
          "type": "uint256"
        }
      ],
      "name": "getApproved",
      "outputs": [
        {
          "internalType": "address",
          "name": "",
          "type": "address"
        }
      ],
      "stateMutability": "view",
      "type": "function"
    },
    {
      "inputs": [
        {
          "internalType": "bytes32",
          "name": "role",
          "type": "bytes32"
        }
      ],
      "name": "getRoleAdmin",
      "outputs": [
        {
          "internalType": "bytes32",
          "name": "",
          "type": "bytes32"
        }
      ],
      "stateMutability": "view",
      "type": "function"
    },
    {
      "inputs": [
        {
          "internalType": "uint256",
          "name": "tokenId",
          "type": "uint256"
        }
      ],
      "name": "getTokenDescription",
      "outputs": [
        {
          "internalType": "string",
          "name": "",
          "type": "string"
        }
      ],
      "stateMutability": "view",
      "type": "function"
    },
    {
      "inputs": [
        {
          "internalType": "uint256",
          "name": "tokenId",
          "type": "uint256"
        }
      ],
      "name": "getTokenImage",
      "outputs": [
        {
          "internalType": "string",
          "name": "",
          "type": "string"
        }
      ],
      "stateMutability": "view",
      "type": "function"
    },
    {
      "inputs": [
        {
          "internalType": "uint256",
          "name": "tokenId",
          "type": "uint256"
        }
      ],
      "name": "getTokenUUID",
      "outputs": [
        {
          "internalType": "string",
          "name": "",
          "type": "string"
        }
      ],
      "stateMutability": "view",
      "type": "function"
    },
    {
      "inputs": [
        {
          "internalType": "bytes32",
          "name": "role",
          "type": "bytes32"
        },
        {
          "internalType": "address",
          "name": "account",
          "type": "address"
        }
      ],
      "name": "grantRole",
      "outputs": [],
      "stateMutability": "nonpayable",
      "type": "function"
    },
    {
      "inputs": [
        {
          "internalType": "bytes32",
          "name": "role",
          "type": "bytes32"
        },
        {
          "internalType": "address",
          "name": "account",
          "type": "address"
        }
      ],
      "name": "hasRole",
      "outputs": [
        {
          "internalType": "bool",
          "name": "",
          "type": "bool"
        }
      ],
      "stateMutability": "view",
      "type": "function"
    },
    {
      "inputs": [
        {
          "internalType": "address",
          "name": "owner_",
          "type": "address"
        },
        {
          "internalType": "address",
          "name": "operator_",
          "type": "address"
        }
      ],
      "name": "isApprovedForAll",
      "outputs": [
        {
          "internalType": "bool",
          "name": "",
          "type": "bool"
        }
      ],
      "stateMutability": "view",
      "type": "function"
    },
    {
      "inputs": [],
      "name": "metadataDescriptor",
      "outputs": [
        {
          "internalType": "contract IERC3525MetadataDescriptor",
          "name": "",
          "type": "address"
        }
      ],
      "stateMutability": "view",
      "type": "function"
    },
    {
      "inputs": [
        {
          "internalType": "address",
          "name": "owner_",
          "type": "address"
        },
        {
          "internalType": "uint256",
          "name": "slot_",
          "type": "uint256"
        },
        {
          "internalType": "uint256",
          "name": "value_",
          "type": "uint256"
        },
        {
          "internalType": "string",
          "name": "uuid_",
          "type": "string"
        },
        {
          "internalType": "string",
          "name": "token_description_",
          "type": "string"
        },
        {
          "internalType": "string",
          "name": "token_image_",
          "type": "string"
        }
      ],
      "name": "mint",
      "outputs": [
        {
          "internalType": "uint256",
          "name": "",
          "type": "uint256"
        }
      ],
      "stateMutability": "nonpayable",
      "type": "function"
    },
    {
      "inputs": [],
      "name": "name",
      "outputs": [
        {
          "internalType": "string",
          "name": "",
          "type": "string"
        }
      ],
      "stateMutability": "view",
      "type": "function"
    },
    {
      "inputs": [
        {
          "internalType": "address",
          "name": "owner_",
          "type": "address"
        },
        {
          "internalType": "uint256",
          "name": "slot_",
          "type": "uint256"
        },
        {
          "internalType": "uint256",
          "name": "value_",
          "type": "uint256"
        },
        {
          "internalType": "uint256",
          "name": "discountBasisPts_",
          "type": "uint256"
        },
        {
          "internalType": "string",
          "name": "uuid_",
          "type": "string"
        },
        {
          "internalType": "string",
          "name": "token_description_",
          "type": "string"
        },
        {
          "internalType": "string",
          "name": "token_image_",
          "type": "string"
        }
      ],
      "name": "networkMintWithDiscount",
      "outputs": [
        {
          "internalType": "uint256",
          "name": "",
          "type": "uint256"
        }
      ],
      "stateMutability": "nonpayable",
      "type": "function"
    },
    {
      "inputs": [
        {
          "internalType": "address",
          "name": "owner_",
          "type": "address"
        },
        {
          "internalType": "uint256",
          "name": "slot_",
          "type": "uint256"
        },
        {
          "internalType": "uint256",
          "name": "value_",
          "type": "uint256"
        },
        {
          "internalType": "uint256",
          "name": "tVRate_",
          "type": "uint256"
        },
        {
          "internalType": "string",
          "name": "uuid_",
          "type": "string"
        },
        {
          "internalType": "string",
          "name": "token_description_",
          "type": "string"
        },
        {
          "internalType": "string",
          "name": "token_image_",
          "type": "string"
        }
      ],
      "name": "networkMintWithTVRate",
      "outputs": [
        {
          "internalType": "uint256",
          "name": "",
          "type": "uint256"
        }
      ],
      "stateMutability": "nonpayable",
      "type": "function"
    },
    {
      "inputs": [
        {
          "internalType": "uint256",
          "name": "tokenId_",
          "type": "uint256"
        }
      ],
      "name": "ownerOf",
      "outputs": [
        {
          "internalType": "address",
          "name": "owner_",
          "type": "address"
        }
      ],
      "stateMutability": "view",
      "type": "function"
    },
    {
      "inputs": [
        {
          "internalType": "bytes32",
          "name": "role",
          "type": "bytes32"
        },
        {
          "internalType": "address",
          "name": "account",
          "type": "address"
        }
      ],
      "name": "renounceRole",
      "outputs": [],
      "stateMutability": "nonpayable",
      "type": "function"
    },
    {
      "inputs": [
        {
          "internalType": "bytes32",
          "name": "role",
          "type": "bytes32"
        },
        {
          "internalType": "address",
          "name": "account",
          "type": "address"
        }
      ],
      "name": "revokeRole",
      "outputs": [],
      "stateMutability": "nonpayable",
      "type": "function"
    },
    {
      "inputs": [
        {
          "internalType": "address",
          "name": "from_",
          "type": "address"
        },
        {
          "internalType": "address",
          "name": "to_",
          "type": "address"
        },
        {
          "internalType": "uint256",
          "name": "tokenId_",
          "type": "uint256"
        }
      ],
      "name": "safeTransferFrom",
      "outputs": [],
      "stateMutability": "payable",
      "type": "function"
    },
    {
      "inputs": [
        {
          "internalType": "address",
          "name": "from_",
          "type": "address"
        },
        {
          "internalType": "address",
          "name": "to_",
          "type": "address"
        },
        {
          "internalType": "uint256",
          "name": "tokenId_",
          "type": "uint256"
        },
        {
          "internalType": "bytes",
          "name": "data_",
          "type": "bytes"
        }
      ],
      "name": "safeTransferFrom",
      "outputs": [],
      "stateMutability": "payable",
      "type": "function"
    },
    {
      "inputs": [
        {
          "internalType": "address",
          "name": "operator_",
          "type": "address"
        },
        {
          "internalType": "bool",
          "name": "approved_",
          "type": "bool"
        }
      ],
      "name": "setApprovalForAll",
      "outputs": [],
      "stateMutability": "nonpayable",
      "type": "function"
    },
    {
      "inputs": [
        {
          "internalType": "uint256",
          "name": "tokenId_",
          "type": "uint256"
        }
      ],
      "name": "slotOf",
      "outputs": [
        {
          "internalType": "uint256",
          "name": "",
          "type": "uint256"
        }
      ],
      "stateMutability": "view",
      "type": "function"
    },
    {
      "inputs": [
        {
          "internalType": "uint256",
          "name": "slot_",
          "type": "uint256"
        }
      ],
      "name": "slotURI",
      "outputs": [
        {
          "internalType": "string",
          "name": "",
          "type": "string"
        }
      ],
      "stateMutability": "view",
      "type": "function"
    },
    {
      "inputs": [
        {
          "internalType": "bytes4",
          "name": "interfaceId",
          "type": "bytes4"
        }
      ],
      "name": "supportsInterface",
      "outputs": [
        {
          "internalType": "bool",
          "name": "",
          "type": "bool"
        }
      ],
      "stateMutability": "view",
      "type": "function"
    },
    {
      "inputs": [],
      "name": "symbol",
      "outputs": [
        {
          "internalType": "string",
          "name": "",
          "type": "string"
        }
      ],
      "stateMutability": "view",
      "type": "function"
    },
    {
      "inputs": [
        {
          "internalType": "uint256",
          "name": "index_",
          "type": "uint256"
        }
      ],
      "name": "tokenByIndex",
      "outputs": [
        {
          "internalType": "uint256",
          "name": "",
          "type": "uint256"
        }
      ],
      "stateMutability": "view",
      "type": "function"
    },
    {
      "inputs": [
        {
          "internalType": "address",
          "name": "owner_",
          "type": "address"
        },
        {
          "internalType": "uint256",
          "name": "index_",
          "type": "uint256"
        }
      ],
      "name": "tokenOfOwnerByIndex",
      "outputs": [
        {
          "internalType": "uint256",
          "name": "",
          "type": "uint256"
        }
      ],
      "stateMutability": "view",
      "type": "function"
    },
    {
      "inputs": [
        {
          "internalType": "uint256",
          "name": "tokenId_",
          "type": "uint256"
        }
      ],
      "name": "tokenURI",
      "outputs": [
        {
          "internalType": "string",
          "name": "",
          "type": "string"
        }
      ],
      "stateMutability": "view",
      "type": "function"
    },
    {
      "inputs": [],
      "name": "totalSupply",
      "outputs": [
        {
          "internalType": "uint256",
          "name": "",
          "type": "uint256"
        }
      ],
      "stateMutability": "view",
      "type": "function"
    },
    {
      "inputs": [
        {
          "internalType": "uint256",
          "name": "fromTokenId_",
          "type": "uint256"
        },
        {
          "internalType": "address",
          "name": "to_",
          "type": "address"
        },
        {
          "internalType": "uint256",
          "name": "value_",
          "type": "uint256"
        }
      ],
      "name": "transferFrom",
      "outputs": [
        {
          "internalType": "uint256",
          "name": "",
          "type": "uint256"
        }
      ],
      "stateMutability": "payable",
      "type": "function"
    },
    {
      "inputs": [
        {
          "internalType": "address",
          "name": "from_",
          "type": "address"
        },
        {
          "internalType": "address",
          "name": "to_",
          "type": "address"
        },
        {
          "internalType": "uint256",
          "name": "tokenId_",
          "type": "uint256"
        }
      ],
      "name": "transferFrom",
      "outputs": [],
      "stateMutability": "payable",
      "type": "function"
    },
    {
      "inputs": [
        {
          "internalType": "uint256",
          "name": "fromTokenId_",
          "type": "uint256"
        },
        {
          "internalType": "uint256",
          "name": "toTokenId_",
          "type": "uint256"
        },
        {
          "internalType": "uint256",
          "name": "value_",
          "type": "uint256"
        }
      ],
      "name": "transferFrom",
      "outputs": [],
      "stateMutability": "payable",
      "type": "function"
    },
    {
      "inputs": [],
      "name": "valueDecimals",
      "outputs": [
        {
          "internalType": "uint8",
          "name": "",
          "type": "uint8"
        }
      ],
      "stateMutability": "view",
      "type": "function"
    }
  ],
  "bytecode": "0x60a08060405234620007cf57600060805262006d908038038091620000258285620007d4565b8339810161016082820312620005205762000040826200080e565b906200004f602084016200080e565b926200005e604082016200080e565b60608201516080830151919490916001600160401b0381116200052057846200008991850162000848565b60a08401519092906001600160401b038111620005205785620000ae91860162000848565b60c08501519094906001600160401b038111620005205786620000d391830162000848565b60e08201519095906001600160401b038111620005205787620000f891840162000848565b6101008301519095906001600160401b0381116200052057886200011e91850162000848565b6101208401519098906001600160401b0381116200052057610140916200014791860162000848565b9301519060ff82168203620005205780516001600160401b038111620004e257608051805490600182811c92168015620007c4575b6020831014620005ff5750601f811162000778575b5060805191602092601f831160011462000708575060805192839183620006fc575b50508160011b916000199060031b1c19161790555b81516001600160401b038111620004e257600154608051600182811c92168015620006f1575b6020831014620005ff5750601f8111620006a4575b50608051602090601f83116001146200062d5750819060ff946080519262000621575b50508160011b916000199060031b1c1916176001555b600280549190921660ff19909116179055600b829055600c80546001600160a01b038981166001600160a01b031992831617909255600a8054928616929091169190911790558051906001600160401b038211620004e257600d54608051600182811c9216801562000616575b6020831014620005ff57509081601f849311620005a5575b5060805190602091601f84116001146200053257506080519262000526575b50508160011b916000199060031b1c191617600d555b600c546001600160a01b031690813b15620005205760405163152f0eb560e01b81526001600160a01b0390931660048401526024830152608051908290604490829084905af180156200051357620004fa575b5060405192612423808501939091906001600160401b03851186861017620004e25760609362000391620003a092620003af956200496d8a39608088526080880190620008a3565b908682036020880152620008a3565b908482036040860152620008a3565b6001600160a01b03909416910152608051918190039082f0908115620004d6575060018060a01b031660018060a01b031960085416176008557f1cd6d520d98babae1045eb69c31ecab800996aa332094cb55c0ac10362e9b0c99081608051526009602052608051604081209160018060a01b0316918260005260205260ff604060002054161562000481575b7f9ac4f8025631594629895b778dc5ee88d01673a254a2291f6b6b174ad25230ca602060018060a01b0360085416604051908152a16040516140a29081620008cb8239f35b82905260096020526080519160408320826000526020526040600020600160ff198254161790557f2f8788117e7eff1d82e926ec794901d17c78024a50270940304540a733656f0d339380a43880806200043c565b604051903d90823e3d90fd5b634e487b7160e01b6080515260416004526024608051fd5b6001600160401b038111620004e2576040523862000349565b6040513d608051823e3d90fd5b60805180fd5b015190503880620002e0565b600d91945052608051906020822091935b601f198416851062000589576001945083601f198116106200056f575b505050811b01600d55620002f6565b015160001960f88460031b161c1916905538808062000560565b8181015183556020948501946001909301929091019062000543565b909150600d6080515260805160208120601f850160051c810160208610620005f7575b9085949392915b601f840160051c82018110620005e857505050620002c1565b828155869550600101620005cf565b5080620005c8565b634e487b7160e01b90526022600452608051602490fd5b91607f1691620002a9565b01519050388062000226565b60019094929394526080519160208320925b601f19851681106200068b575091839160019360ff9695601f1981161062000671575b505050811b016001556200023c565b015160001960f88460031b161c1916905538808062000662565b919260206001819286850151815501940192016200063f565b60016080515260805160208120601f840160051c810160208510620006e9575b601f840160051c82018110620006dd5750505062000203565b828155600101620006c4565b5080620006c4565b91607f1691620001ee565b015190503880620001b3565b80526080516020812090938493925b601f19841685106200075c576001945083601f1981161062000742575b505050811b019055620001c8565b015160001960f88460031b161c1916905538808062000734565b8181015183556020948501946001909301929091019062000717565b608051805260805160208120601f840160051c810160208510620007bc575b601f840160051c82018110620007b05750505062000191565b82815560010162000797565b508062000797565b91607f16916200017c565b600080fd5b601f909101601f19168101906001600160401b03821190821017620007f857604052565b634e487b7160e01b600052604160045260246000fd5b51906001600160a01b0382168203620007cf57565b60005b838110620008375750506000910152565b818101518382015260200162000826565b81601f82011215620007cf5780516001600160401b038111620007f857604051926200087f601f8301601f191660200185620007d4565b81845260208284010111620007cf57620008a0916020808501910162000823565b90565b90602091620008be8151809281855285808601910162000823565b601f01601f191601019056fe608080604052600436101561001357600080fd5b600090813560e01c90816301ffc9a7146121435750806306fdde031461204c578063081812fc1461202d578063095ea7b314611ef757806309c3dd8714611c265780630f485c0214611c125780631375d84314611bac57806318160ddd14611b8e57806323b872dd14611b69578063248a9ca314611b3c578063263f3e7e14611b1d5780632f2ff15d14611a6e5780632f745c59146119c5578063310ed7f0146113c257806331b5b9071461133857806336568abe146112a55780633e7e86691461128457806341815ee41461125457806342842e0e14611231578063476de4a814610cf75780634f6ccce714610c725780636352211e14610c4157806370a0823114610c1d57806371f0442e14610bb75780637795524514610b8e5780638005f5db14610b13578063840f711314610aea5780638cb0a5111461096457806391d148541461091857806395d89b41146108105780639cc7f708146107f1578063a217fddf146107d5578063a22cb46514610700578063a7c9f2d6146106c5578063b3154c081461065f578063b88d4fde14610604578063bd8c6507146103ce578063c87b56dd14610348578063d547741f14610307578063e345e0bc146102d8578063e8a3d485146102485763e985e9c5146101ef57600080fd5b34610245576040366003190112610245576102086121e0565b600260406102146121f6565b9360018060a01b038094168152600760205220019116600052602052602060ff604060002054166040519015158152f35b80fd5b50346102455780600319360112610245576008546040516331264fc160e01b8152908290829060049082906001600160a01b03165afa9081156102cd57826102a693926102aa575b50506040519182916020835260208301906121bb565b0390f35b6102c692503d8091833e6102be81836122b4565b810190612934565b3880610290565b6040513d84823e3d90fd5b50346102455760403660031901126102455760206102ff6102f76121f6565b600435613faf565b604051908152f35b5034610245576040366003190112610245576103456004356103276121f6565b90808452600960205261034060016040862001546123c0565b6126f5565b80f35b50346102455760203660031901126102455760043561036e610369826132ab565b612b69565b6008546001600160a01b0316908290604461038882613e00565b9160405194859384926304e6f55760e51b8452600484015260248301525afa9081156102cd57826102a693926102aa5750506040519182916020835260208301906121bb565b5034610245576020816103e036612345565b959791929460ff60029592955416908861040f60018060a01b03986104098a600c5416956132d9565b90612992565b604051632d2a246560e01b81526001600160a01b03909c1660048d015260248c019290925260448b019390935260648a01528891829081608481015b03925af19586156105ba5785966105c9575b508260085416803b156105c55761049c8692918392604051948580948193632108947560e21b83528d60048401526040602484015260448301906121bb565b03925af19081156105ba5785916105a2575b50508160085416803b1561059e576104ee859291839260405194858094819363246a908b60e01b83528c60048401526040602484015260448301906121bb565b03925af190811561059357849161057f575b50506008541690813b1561057b57829161053e91604051948580948193630190503b60e61b83528960048401526040602484015260448301906121bb565b03925af1801561057057610558575b602082604051908152f35b610562839161226b565b61056c578161054d565b5080fd5b6040513d85823e3d90fd5b8280fd5b6105889061226b565b61057b578238610500565b6040513d86823e3d90fd5b8480fd5b6105ab9061226b565b6105b65783386104ae565b8380fd5b6040513d87823e3d90fd5b8580fd5b945094506020843d82116105fc575b816105e5602093836122b4565b810103126105f757859351943861045d565b600080fd5b3d91506105d8565b506080366003190112610245576106196121e0565b6106216121f6565b606435916001600160401b0383116105b657366023840112156105b6576106556103459336906024816004013591016122f0565b9160443591612a92565b503461024557602036600319011261024557600854604051631662a98160e31b81526004803590820152908290829060249082906001600160a01b03165afa9081156102cd57826102a693926102aa5750506040519182916020835260208301906121bb565b503461024557806003193601126102455760206040517f1cd6d520d98babae1045eb69c31ecab800996aa332094cb55c0ac10362e9b0c98152f35b50346102455760403660031901126102455761071a6121e0565b6024359081151580920361057b576001600160a01b0316903382146107905733835260076020526002604084200182600052602052604060002060ff1981541660ff83161790556040519081527f17307eab39ab6107e8899845ad3d59bd9653f200f220920489ca2b5937696c3160203392a380f35b60405162461bcd60e51b815260206004820152601a60248201527f455243333532353a20617070726f766520746f2063616c6c65720000000000006044820152606490fd5b5034610245578060031936011261024557602090604051908152f35b50346102455760203660031901126102455760206102ff600435613e00565b50346102455780600319360112610245576040516000600180549182821c9180841693841561090e575b60209485851081146108fa5784875286939291869082156108da575050600114610880575b5061086c925003836122b4565b6102a66040519282849384528301906121bb565b6000818152859250907fb10e2d527612073b26eecdfd717e6a320cf44b4afac2b0732d9fcbe2b7fa0cf65b8583106108c257505061086c93508201018561085f565b805483890185015287945086939092019181016108ab565b60ff19168582015261086c95151560051b850101925087915061085f9050565b634e487b7160e01b84526022600452602484fd5b92607f169261083a565b50346102455760403660031901126102455760406109346121f6565b9160043581526009602052209060018060a01b0316600052602052602060ff604060002054166040519015158152f35b5061096e3661220c565b90610978836132ab565b8015610ac8575b61098890612b69565b83610992846132ab565b80610ab5575b15610a3557506109be6001600160a01b03806109b386612bb5565b169083161415612b12565b6109c88333612c9a565b156109d6576103459261384d565b60405162461bcd60e51b815260206004820152603160248201527f455243333532353a20617070726f76652063616c6c6572206973206e6f74206f6044820152701ddb995c881b9bdc88185c1c1c9bdd9959607a1b6064820152608490fd5b600c54938152600e60205260408120549093919290916001600160a01b0316803b1561059e57604051638cb0a51160e01b815260048101939093526001600160a01b03909316602483015260448201529082908290818381606481015b03925af180156102cd57610aa557505080f35b610aae9061226b565b6102455780f35b50610abf846128db565b600b5414610998565b50610988610ae384600052600e602052604060002054151590565b905061097f565b50346102455780600319360112610245576008546040516001600160a01b039091168152602090f35b503461024557602081610b2536612345565b959791929460ff600295929554169088610b4e60018060a01b03986104098a600c5416956132d9565b604051630151086360e31b81526001600160a01b03909c1660048d015260248c019290925260448b019390935260648a015288918290816084810161044b565b5034610245578060031936011261024557600a546040516001600160a01b039091168152602090f35b5034610245576020366003190112610245576008546040516338f8221760e11b81526004803590820152908290829060249082906001600160a01b03165afa9081156102cd57826102a693926102aa5750506040519182916020835260208301906121bb565b50346102455760203660031901126102455760206102ff610c3c6121e0565b6129b2565b5034610245576020366003190112610245576020610c60600435613ee4565b6040516001600160a01b039091168152f35b503461024557602036600319011261024557600435600554811015610ca657610c9c6020916128a0565b5054604051908152f35b60405162461bcd60e51b815260206004820152602360248201527f455243333532353a20676c6f62616c20696e646578206f7574206f6620626f756044820152626e647360e81b6064820152608490fd5b50346102455760c036600319011261024557610d116121e0565b6064356001600160401b03811161057b57610d30903690600401612327565b916084356001600160401b03811161056c57610d50903690600401612327565b60a4356001600160401b03811161057b57610d6f903690600401612327565b90600160035401938460035560018060a01b038116156111e257841561119357610d98856132ab565b61114e57604051610da881612299565b6000815260405190610db98261227e565b86825260243560208301526000604083015260018060a01b03831660608301526000608083015260a082015260055486600052600660205280604060002055600160401b81101561112257806001610e1492016005556128a0565b9190916111385780518255602081015160018301556040810151600283015560608101516003830180546001600160a01b039283166001600160a01b031991821617909155608083015160048501805491909316911617905560a001518051916001600160401b038311611122579060206005899594930191610e9784846130fa565b0190600052602060002060005b8381106111025750505050610eb98282613048565b6001600160a01b031660007fddf252ad1be2c89b69c2b068fc378daa952ba7f163c4a11628f55a4df523b3ef8180a46024356000857fe4f48c240d3b994948aa54f3e2f5fca59263dfe1d52b6e4cf39a5d249b5ccb658280a48360005260066020526002610f2b6040600020546128a0565b50019460443595610f3d87825461276b565b90558460007f0b2aac84f3ec956911fd78eae5311062972ff949f38412e8da39069d9f068cc660206040518a8152a36008546001600160a01b031690813b1561059e57610fb185928392604051948580948193632108947560e21b83528c60048401526040602484015260448301906121bb565b03925af18015610593579084916110ee575b50506008546001600160a01b031690813b156105b65761100a8492839260405194858094819363246a908b60e01b83528b60048401526040602484015260448301906121bb565b03925af18015610570579083916110da575b50506008546001600160a01b031690813b1561057b5761106383928392604051948580948193630190503b60e61b83528a60048401526040602484015260448301906121bb565b03925af180156102cd576110c6575b6020837f84eeb48eca46cea54afc9753345f6038981672ea565f32885420829dfd88aea66110bb8760405191829160243586846040919493926060820195825260208201520152565b0390a1604051908152f35b6110d0829161226b565b6102455780611072565b6110e39061226b565b61056c57813861101c565b6110f79061226b565b61057b578238610fc3565b82516001600160a01b031681830155899550602090920191600101610ea4565b634e487b7160e01b600052604160045260246000fd5b634e487b7160e01b600052600060045260246000fd5b60405162461bcd60e51b815260206004820152601d60248201527f455243333532353a20746f6b656e20616c7265616479206d696e7465640000006044820152606490fd5b60405162461bcd60e51b815260206004820152602160248201527f455243333532353a2063616e6e6f74206d696e74207a65726f20746f6b656e496044820152601960fa1b6064820152608490fd5b60405162461bcd60e51b815260206004820152602160248201527f455243333532353a206d696e7420746f20746865207a65726f206164647265736044820152607360f81b6064820152608490fd5b5061034561123e36612236565b906040519261124c84612299565b858452612a92565b50346102455780600319360112610245576102a66112706127b5565b6040519182916020835260208301906121bb565b5034610245578060031936011261024557602060ff60025416604051908152f35b5034610245576040366003190112610245576112bf6121f6565b336001600160a01b038216036112db57610345906004356126f5565b60405162461bcd60e51b815260206004820152602f60248201527f416363657373436f6e74726f6c3a2063616e206f6e6c792072656e6f756e636560448201526e103937b632b9903337b91039b2b63360891b6064820152608490fd5b503461024557602036600319011261024557806004356001600160401b0381116113bf5761136a903690600401612327565b6008546001600160a01b0316803b156113bb576040516355f804b360e01b81526020600482015291839183918290849082906113aa9060248301906121bb565b03925af180156102cd57610aa55750f35b5050fd5b50fd5b50606036600319011261024557600435906024356044356113e2846132ab565b806119b2575b8061198f575b15611453579261144d846114257fdf7a601a0a201ccd4b4bfcfd610913188d931867997223d226f85f2f2673988a95968433613753565b611430818585613a1f565b604051938493846040919493926060820195825260208201520152565b0390a180f35b61146a84600052600e602052604060002054151590565b80611972575b1561164b5790839183948452600e60205260408420549180855260408520549383158015808091611642575b156114ec575050600c546001600160a01b0316915050803b1561059e57604051630310ed7f60e41b8152600481019390935260248301939093526044820152908290829081838160648101610a92565b9295928061163a575b15611550575050600c546001600160a01b03169050803b1561059e57604051630310ed7f60e41b81526004810193909352602483019390935260448201529082908290606490829084905af180156102cd57610aa557505080f35b9194909350908080611631575b156115aa575050600c546001600160a01b0316803b1561059e57604051630310ed7f60e41b8152600481019390935260248301939093526044820152908290829081838160648101610a92565b909381611628575b506115bf575b5050505080f35b600c546001600160a01b0316803b1561059e57604051630310ed7f60e41b81526004810193909352602483019390935260448201529082908290606490829084905af180156102cd57611614575b80806115b8565b61161d9061226b565b61024557803861160d565b905015386115b2565b5084151561155d565b5082156114f5565b5086151561149c565b61166284600052600e602052604060002054151590565b80611857575b1561185057600c54604051639448bddb60e01b8152600481018490526020956001600160a01b039283169392918781602481885afa908115611845578791611818575b5082876116b66127b5565b8a81519101209260046040518094819363106057b960e21b8352165afa90811561180d5788916117f3575b508881519101200361179757600e869782885252604086205493841515600014611745575050600c5416803b1561059e57604051630310ed7f60e41b8152600481019390935260248301939093526044820152908290829081838160648101610a92565b92935094939050813b156105b657604051630310ed7f60e41b81526004810195909552602485015260448401919091528290606490829084905af180156102cd5761178e575080f35b6103459061226b565b60405162461bcd60e51b815260048101889052602e60248201527f43616e6e6f74207472616e73666572206265747765656e20646966666572656e60448201526d742063726564697420747970657360901b6064820152608490fd5b61180791503d808a833e6102be81836122b4565b386116e1565b6040513d8a823e3d90fd5b6118389150883d8a1161183e575b61183081836122b4565b810190613de1565b386116ab565b503d611826565b6040513d89823e3d90fd5b5050905080f35b508183526020600e8152604084205415908161190a575b811561187b575b50611668565b838552600e815260408520541515915081611898575b5038611875565b905060018060a01b0380600c5416826040872054602460405180948193639448bddb60e01b835260048301525afa9283156118ff5786936118e0575b50501630141538611891565b6118f7929350803d1061183e5761183081836122b4565b9038806118d4565b6040513d88823e3d90fd5b600c54604051639448bddb60e01b8152600481018690529192506001600160a01b039083908390602490829085165afa9182156118ff578692611953575b50163014159061186e565b61196b919250833d851161183e5761183081836122b4565b9038611948565b5061198a82600052600e602052604060002054151590565b611470565b50611999826132ab565b80156113ee57506119a9826128db565b600b54146113ee565b506119bc846128db565b600b54146113e8565b5034610245576040366003190112610245576119df6121e0565b906024356119ec836129b2565b811015611a1e576040611a109260209460018060a01b031681526007855220612c82565b90546040519160031b1c8152f35b60405162461bcd60e51b815260206004820152602260248201527f455243333532353a206f776e657220696e646578206f7574206f6620626f756e604482015261647360f01b6064820152608490fd5b503461024557604036600319011261024557600435611a8b6121f6565b8183526009602052611aa360016040852001546123c0565b8183526009602052604083209060018060a01b03169081845260205260ff60408420541615611ad0578280f35b81835260096020526040832081845260205260408320600160ff1982541617905533917f2f8788117e7eff1d82e926ec794901d17c78024a50270940304540a733656f0d8480a438808280f35b50346102455760203660031901126102455760206102ff6004356128db565b50346102455760203660031901126102455760016040602092600435815260098452200154604051908152f35b50610345611b7636612236565b91611b89611b848433612c9a565b612a2b565b612d0b565b50346102455780600319360112610245576020600554604051908152f35b503461024557602036600319011261024557600854604051631375d84360e01b81526004803590820152908290829060249082906001600160a01b03165afa9081156102cd57826102a693926102aa5750506040519182916020835260208301906121bb565b60206102ff611c203661220c565b916132e7565b503461024557602090816003193601126102455760043560018060a01b036008541690604051636c0360eb60e01b81528381600481865afa908115610593578491611edd575b508215611cdc57508290602460405180948193633601bfc560e11b835260048301525afa918215611cd0578092611cb5575b5050906102a66040519282849384528301906121bb565b611cc992503d8091833e6102be81836122b4565b3880611c9e565b604051903d90823e3d90fd5b80519093925015611ea4578190807a184f03e93ff9f4daa797ed6e38ed64bf6a1f0100000000000000008181811015611e96575b5050856d04ee2d6d415b85acef810000000080841015611e88575b5050662386f26fc1000080831015611e79575b506305f5e10080831015611e6a575b5061271080831015611e5b575b506064821015611e4b575b600a80921015611e41575b60019081602181860195611d9c611d86886122d5565b97611d94604051998a6122b4565b8089526122d5565b878b019890601f1901368a3750860101905b611e0b575b50505050611df692611e05926025926040519583611dda88955180928b8089019101612198565b84019164736c6f742f60d81b8984015251809386840190612198565b010360058101845201826122b4565b9061086c565b600019019083906f181899199a1a9b1b9c1cb0b131b232b360811b8282061a835304918215611e3c57919082611dae565b611db3565b9160010191611d70565b9190606460029104910191611d65565b60049193920491019138611d5a565b60089193920491019138611d4d565b60109193920491019138611d3e565b930192909104908538611d2b565b604094500491503880611d10565b5060405191508282016001600160401b03811183821017611ec9576040528152611e05565b634e487b7160e01b82526041600452602482fd5b611ef191503d8086833e6102be81836122b4565b38611c6c565b50604036600319011261024557611f0c6121e0565b602435906001600160a01b038080611f2385612bb5565b16921691611f3381841415612b12565b803314908115612009575b5015611f9e5782845260066020526004611f5b60408620546128a0565b500180546001600160a01b03191683179055611f7683612bb5565b167f8c5be1e5ebec7d5bd14f71427d1e84f3dd0314c0f7b2291e5b200ac8c7c3b9258480a480f35b60405162461bcd60e51b815260206004820152603960248201527f455243333532353a20617070726f76652063616c6c6572206973206e6f74206f60448201527f776e6572206e6f7220617070726f76656420666f7220616c6c000000000000006064820152608490fd5b9050845260076020526002604085200133855260205260ff60408520541638611f3e565b5034610245576020366003190112610245576020610c60600435612c20565b50346102455780600319360112610245576040519080805491600183811c92818516948515612139575b6020958686108114612125578588528794939291879082156121035750506001146120aa575b505061086c925003836122b4565b908592508180527f290decd9548b62a8d60345a988386fc84ba6bc95484008f6362f93160ef3e5635b8583106120eb57505061086c9350820101388061209c565b805483890185015287945086939092019181016120d3565b925093505061086c94915060ff191682840152151560051b820101388061209c565b634e487b7160e01b83526022600452602483fd5b93607f1693612076565b90503461056c57602036600319011261056c5760043563ffffffff60e01b811680910361057b5760209250637965db0b60e01b8114908115612187575b5015158152f35b6301ffc9a760e01b14905038612180565b60005b8381106121ab5750506000910152565b818101518382015260200161219b565b906020916121d481518092818552858086019101612198565b601f01601f1916010190565b600435906001600160a01b03821682036105f757565b602435906001600160a01b03821682036105f757565b60609060031901126105f757600435906024356001600160a01b03811681036105f7579060443590565b60609060031901126105f7576001600160a01b039060043582811681036105f7579160243590811681036105f7579060443590565b6001600160401b03811161112257604052565b60c081019081106001600160401b0382111761112257604052565b602081019081106001600160401b0382111761112257604052565b90601f801991011681019081106001600160401b0382111761112257604052565b6001600160401b03811161112257601f01601f191660200190565b9291926122fc826122d5565b9161230a60405193846122b4565b8294818452818301116105f7578281602093846000960137010152565b9080601f830112156105f757816020612342933591016122f0565b90565b60e06003198201126105f7576004356001600160a01b03811681036105f757916024359160443591606435916001600160401b03916084358381116105f7578261239191600401612327565b9260a4358181116105f757836123a991600401612327565b9260c4359182116105f75761234291600401612327565b60009080825260209060098252604092838120338252835260ff8482205416156123ea5750505050565b8351916001600160401b03903360608501838111868210176126e1578752602a855285850191873684378551156126cd57603083538551916001928310156126b9576078602188015360295b83811161264f575061260d57908751936080850190858210908211176125f9578852604284528684019460603687378451156125e5576030865384518210156125e55790607860218601536041915b8183116125775750505061253557612531938693612515936125066048946124dd9a519a8b957f416363657373436f6e74726f6c3a206163636f756e74200000000000000000008c8801525180926037880190612198565b8401917001034b99036b4b9b9b4b733903937b6329607d1b603784015251809386840190612198565b010360288101875201856122b4565b5192839262461bcd60e51b8452600484015260248301906121bb565b0390fd5b60648587519062461bcd60e51b825280600483015260248201527f537472696e67733a20686578206c656e67746820696e73756666696369656e746044820152fd5b909192600f811660108110156125d1576f181899199a1a9b1b9c1cb0b131b232b360811b901a6125a7858861278e565b5360041c9280156125bd57600019019190612485565b634e487b7160e01b82526011600452602482fd5b634e487b7160e01b83526032600452602483fd5b634e487b7160e01b81526032600452602490fd5b634e487b7160e01b86526041600452602486fd5b60648789519062461bcd60e51b825280600483015260248201527f537472696e67733a20686578206c656e67746820696e73756666696369656e746044820152fd5b90600f811660108110156126a5576f181899199a1a9b1b9c1cb0b131b232b360811b901a61267d838a61278e565b5360041c9080156126915760001901612436565b634e487b7160e01b87526011600452602487fd5b634e487b7160e01b88526032600452602488fd5b634e487b7160e01b86526032600452602486fd5b634e487b7160e01b85526032600452602485fd5b634e487b7160e01b85526041600452602485fd5b906000918083526009602052604083209160018060a01b03169182845260205260ff60408420541661272657505050565b8083526009602052604083208284526020526040832060ff1981541690557ff6391f5c32d9c69d2a47ea670b442974b53935d1edc7fd64eb21e047a839171b339380a4565b9190820180921161277857565b634e487b7160e01b600052601160045260246000fd5b90815181101561279f570160200190565b634e487b7160e01b600052603260045260246000fd5b604051906000600d5490600182811c90808416938415612896575b602094858410811461288257838852879493929181156128625750600114612803575b5050612801925003836122b4565b565b90939150600d6000527fd7b6990105719101dabeb77144f2a3385c8033acd3af97e9423a695e81ad1eb5936000915b81831061284a575050612801935082010138806127f3565b85548884018501529485019487945091830191612832565b91505061280194925060ff191682840152151560051b82010138806127f3565b634e487b7160e01b85526022600452602485fd5b91607f16916127d0565b60055481101561279f576006906005600052027f036b6384b5eca791c62761152d0c79bb0604c104a5fb6f4eb0703f3154bb3db00190600090565b6128e4816132ab565b8015612912575b6128f490612b69565b6000526006602052600161290c6040600020546128a0565b50015490565b506128f461292d82600052600e602052604060002054151590565b90506128eb565b6020818303126105f7578051906001600160401b0382116105f7570181601f820112156105f7578051612966816122d5565b9261297460405194856122b4565b818452602082840101116105f7576123429160208085019101612198565b811561299c570490565b634e487b7160e01b600052601260045260246000fd5b6001600160a01b031680156129d257600052600760205260406000205490565b60405162461bcd60e51b815260206004820152602b60248201527f455243333532353a2062616c616e636520717565727920666f7220746865207a60448201526a65726f206164647265737360a81b6064820152608490fd5b15612a3257565b60405162461bcd60e51b815260206004820152603260248201527f455243333532353a207472616e736665722063616c6c6572206973206e6f74206044820152711bdddb995c881b9bdc88185c1c1c9bdd995960721b6064820152608490fd5b90612ab6939291612aa6611b848433612c9a565b612ab1838383612d0b565b61315d565b15612abd57565b60405162461bcd60e51b815260206004820152602760248201527f455243333532353a207472616e7366657220746f206e6f6e204552433732315260448201526632b1b2b4bb32b960c91b6064820152608490fd5b15612b1957565b60405162461bcd60e51b815260206004820152602260248201527f455243333532353a20617070726f76616c20746f2063757272656e74206f776e60448201526132b960f11b6064820152608490fd5b15612b7057565b60405162461bcd60e51b815260206004820152601960248201527f455243333532353a20696e76616c696420746f6b656e204944000000000000006044820152606490fd5b612bbe816132ab565b8015612bfe575b612bce90612b69565b6000526006602052612be46040600020546128a0565b50600301546001600160a01b031690612801821515612b69565b50612bce612c1982600052600e602052604060002054151590565b9050612bc5565b612c29816132ab565b8015612c60575b612c3990612b69565b6000526006602052612c4f6040600020546128a0565b50600401546001600160a01b031690565b50612c39612c7b82600052600e602052604060002054151590565b9050612c30565b805482101561279f5760005260206000200190600090565b906001600160a01b038080612cae84612bb5565b16931691838314938415612ce1575b508315612ccb575b50505090565b612cd791929350612c20565b1614388080612cc5565b909350600052600760205260026040600020018260005260205260ff604060002054169238612cbd565b612d1483612bb5565b6001600160a01b0391821691908116829003612fa457808316928315612f5157612d3d856128db565b50612d4785612ff5565b5060009185835260209060068252604090612d64828620546128a0565b50600490810180546001600160a01b03199081169091559091898782612d8983612bb5565b167f8c5be1e5ebec7d5bd14f71427d1e84f3dd0314c0f7b2291e5b200ac8c7c3b9258280a4898752600685526005612dc3858920546128a0565b500180549091858988818f5b868410612f1a575050505050505080549087815581612efd575b5050888652600684526003612e00848820546128a0565b5001908154169055858552600783528185209182549360001994858101908111612eea5790612e3188939286612c82565b90549060031b1c9060018601908c85528181528385205492612e7281612e57868b612c82565b90919082549060031b600019811b9283911b16911916179055565b855252818320558982528120558154908115612ed7575092828892612ed3947fddf252ad1be2c89b69c2b068fc378daa952ba7f163c4a11628f55a4df523b3ef97960191612ec08383612c82565b909182549160031b1b1916905555613048565b80a4565b634e487b7160e01b865260319052602485fd5b634e487b7160e01b885260118452602488fd5b8752848720908101905b81811015612de957878155600101612f07565b612f479486928b612f2b878c612c82565b96905494835252209260031b1c168c5289528a888120556130eb565b8690888b8f612dcf565b60405162461bcd60e51b815260206004820152602560248201527f455243333532353a207472616e7366657220746f20746865207a65726f206164604482015264647265737360d81b6064820152608490fd5b60405162461bcd60e51b8152602060048201526024808201527f455243333532353a207472616e736665722066726f6d20696e76616c6964206f6044820152633bb732b960e11b6064820152608490fd5b612ffe816132ab565b8015613026575b61300e90612b69565b6000526006602052600261290c6040600020546128a0565b5061300e61304182600052600e602052604060002054151590565b9050613005565b6000908282526006602052600361306260408420546128a0565b500180546001600160a01b0319166001600160a01b0390921691821790558082526007602081815260408085208054878752600191909101835281862055928452528120805491600160401b8310156130ca575081612e579160016128019594018155612c82565b634e487b7160e01b81526041600452602490fd5b9190820391821161277857565b60001981146127785760010190565b600160401b82116111225780549180825582811061311757505050565b60009182526020822092830192015b82811061313257505050565b818155600101613126565b908160209103126105f757516001600160e01b0319811681036105f75790565b92939290803b156132a257936000916131b49560405180948193630a85bd0160e11b9788845233600485015260018060a01b0380921660248501526044840152608060648401528260209a8b9760848301906121bb565b0393165af160009181613273575b5061326457833d1561325c573d906131d9826122d5565b916131e760405193846122b4565b82523d60008284013e5b815191826132595760405162461bcd60e51b815260048101839052603260248201527f4552433732313a207472616e7366657220746f206e6f6e20455243373231526560448201527131b2b4bb32b91034b6b83632b6b2b73a32b960711b6064820152608490fd5b01fd5b6060906131f1565b6001600160e01b031916149150565b613294919250853d871161329b575b61328c81836122b4565b81019061313d565b90386131c2565b503d613282565b50600193505050565b600554151590816132ba575090565b80915060005260066020526132d36040600020546128a0565b50541490565b604d811161277857600a0a90565b919091600090808252602091600e8352604092838220541560001461367057613311858433613753565b60019586600354019687600355613327856128db565b916001600160a01b0380821692908315613622578a156135d45761334a8b6132ab565b61359057885161335981612299565b8781528951888b8e61336a8461227e565b8084528a84018a81528b8386019285845260608701948c8652608088019680885260a08901998a5260066005549485948352522055600160401b81101561357c5780896133ba92016005556128a0565b95909561356857906005959493929151855551888501555160028401558560038401915116906bffffffffffffffffffffffff60a01b9182825416179055856004840192511690825416179055019051918251926001600160401b03841161355457908883928f9b9a99989796959485613433916130fa565b0191895287892090895b84811061353e575050505050507f6d811e6a20ae5461a4ef22a6998c1d958defe727f1cc522b6eb792bc8e6f72669897969386938461351b97946134a56135389a7f0b2aac84f3ec956911fd78eae5311062972ff949f38412e8da39069d9f068cc696613048565b857fddf252ad1be2c89b69c2b068fc378daa952ba7f163c4a11628f55a4df523b3ef8180a483857fe4f48c240d3b994948aa54f3e2f5fca59263dfe1d52b6e4cf39a5d249b5ccb658280a483835260068152613503888420546128a0565b50508751838152a3613516858883613a1f565b6128db565b915192839286846040919493926060820195825260208201520152565b0390a190565b83518216818401558f9b5092890192850161343d565b634e487b7160e01b8a52604160045260248afd5b634e487b7160e01b8e5260048e905260248efd5b634e487b7160e01b8e52604160045260248efd5b885162461bcd60e51b815260048101879052601d60248201527f455243333532353a20746f6b656e20616c7265616479206d696e7465640000006044820152606490fd5b885162461bcd60e51b815260048101879052602160248201527f455243333532353a2063616e6e6f74206d696e74207a65726f20746f6b656e496044820152601960fa1b6064820152608490fd5b885162461bcd60e51b815260048101879052602160248201527f455243333532353a206d696e7420746f20746865207a65726f206164647265736044820152607360f81b6064820152608490fd5b600c5484516307a42e0160e11b8152600481018590526001600160a01b0397881660248201526044810187905291969192918791849160649183918691165af19586156137475781966136f0575b5050509061353861351b7f6d811e6a20ae5461a4ef22a6998c1d958defe727f1cc522b6eb792bc8e6f726694936128db565b909180939650813d8311613740575b61370981836122b4565b810103126102455750519261353861351b7f6d811e6a20ae5461a4ef22a6998c1d958defe727f1cc522b6eb792bc8e6f72666136be565b503d6136ff565b508351903d90823e3d90fd5b61375d81836137ed565b6137678383612c9a565b15806137e1575b613779575b50505050565b83811061379c576137939361378d916130de565b9161384d565b38808080613773565b60405162461bcd60e51b815260206004820152601f60248201527f455243333532353a20696e73756666696369656e7420616c6c6f77616e6365006044820152606490fd5b5060001981141561376e565b6137f6816132ab565b801561382b575b61380690612b69565b600052600460205260406000209060018060a01b031660005260205260406000205490565b5061380661384682600052600e602052604060002054151590565b90506137fd565b6001600160a01b038083169391928415613936578361386b9161398e565b156138b9575b5060207f621b050de0ad08b51d19b48b3e6df75348c4de6bdd93e81b252ca62e28265b1b918360005260048252604060002085600052825280604060002055604051908152a3565b9082600052600660205260056138d36040600020546128a0565b500190815492600160401b84101561112257856139198560209560017f621b050de0ad08b51d19b48b3e6df75348c4de6bdd93e81b252ca62e28265b1b98018155612c82565b909283549160031b90811b9283911b169119161790559150613871565b60405162461bcd60e51b815260206004820152602a60248201527f455243333532353a20617070726f76652076616c756520746f20746865207a65604482015269726f206164647265737360b01b6064820152608490fd5b60009082825260066020908082526040906139ab828620546128a0565b509260058094015496865b8881106139c95750505050505050905090565b8188528383526139e781876139e0888c20546128a0565b5001612c82565b905460039190911b1c6001600160a01b0390811690881614613a1157613a0c906130eb565b6139b6565b505050505050505050600190565b613a28816132ab565b15613c5557613a36826132ab565b15613c02578060005260209260068452604092613a5684600020546128a0565b508160005260068652613a6c85600020546128a0565b50906002810190815490858210613bab5760010154600184015403613b505791600291613a9f86613aee989796956130de565b905501613aad83825461276b565b905580837f0b2aac84f3ec956911fd78eae5311062972ff949f38412e8da39069d9f068cc6888851868152a3845192613ae584612299565b60008452613caa565b15613af7575050565b60849250519062461bcd60e51b82526004820152602d60248201527f455243333532353a207472616e736665722072656a656374656420627920455260448201526c21999a991aa932b1b2b4bb32b960991b6064820152fd5b865162461bcd60e51b815260048101899052602e60248201527f455243333532353a207472616e7366657220746f20746f6b656e20776974682060448201526d191a5999995c995b9d081cdb1bdd60921b6064820152608490fd5b875162461bcd60e51b8152600481018a9052602a60248201527f455243333532353a20696e73756666696369656e742062616c616e636520666f60448201526939103a3930b739b332b960b11b6064820152608490fd5b60405162461bcd60e51b815260206004820152602560248201527f455243333532353a207472616e7366657220746f20696e76616c696420746f6b604482015264195b88125160da1b6064820152608490fd5b60405162461bcd60e51b815260206004820152602760248201527f455243333532353a207472616e736665722066726f6d20696e76616c696420746044820152661bdad95b88125160ca1b6064820152608490fd5b92613cb482612bb5565b803b151580613d66575b15613d5c57613d0793600060209460405196879586948593629ce20b60e01b9b8c865233600487015260248601526044850152606484015260a0608484015260a48301906121bb565b03926001600160a01b03165af1908115613d5057600091613d32575b506001600160e01b0319161490565b613d4a915060203d811161329b5761328c81836122b4565b38613d23565b6040513d6000823e3d90fd5b5050505050600190565b506040516301ffc9a760e01b8152629ce20b60e01b60048201526020816024816001600160a01b0386165afa908115613d5057600091613da7575b50613cbe565b6020813d8211613dd9575b81613dbf602093836122b4565b8101031261056c5751908115158203610245575038613da1565b3d9150613db2565b908160209103126105f757516001600160a01b03811681036105f75790565b613e09816132ab565b8015613ec2575b613e1990612b69565b613e22816132ab565b80613eaf575b15613e365761234290612ff5565b6000908152600e6020526040812054602060018060a01b03600c541691602460405180948193631398fee160e31b835260048301525afa918215611cd0578092613e7f57505090565b9091506020823d8211613ea7575b81613e9a602093836122b4565b8101031261024557505190565b3d9150613e8d565b50613eb9816128db565b600b5414613e28565b50613e19613edd82600052600e602052604060002054151590565b9050613e10565b613eed816132ab565b8015613f8d575b613efd90612b69565b613f06816132ab565b80613f7a575b15613f1a5761234290612bb5565b60018060a01b03600c541690600052600e60205260206040600020546024604051809481936331a9108f60e11b835260048301525afa908115613d5057600091613f62575090565b612342915060203d811161183e5761183081836122b4565b50613f84816128db565b600b5414613f0c565b50613efd613fa882600052600e602052604060002054151590565b9050613ef4565b90613fb9826132ab565b801561404a575b613fc990612b69565b613fd2826132ab565b80614037575b15613fe657612342916137ed565b602060018060a01b0391604483600c54166000958652600e845260408620549060405195869485936338d1782f60e21b855260048501521660248301525afa918215611cd0578092613e7f57505090565b50614041826128db565b600b5414613fd8565b50613fc961406583600052600e602052604060002054151590565b9050613fc056fea2646970667358221220bff8b0b6d7cd797364e8620738e1381bd285bf2e92f2804703de64429da568fd64736f6c63430008110033608060405234620004865762002423803803806200001d816200048b565b9283398101608082820312620004865781516001600160401b0391908281116200048657816200004f918501620004b1565b91602092838501518281116200048657836200006d918701620004b1565b92604086015183811162000486576060916200008b918801620004b1565b9501516001600160a01b03811695908690036200048657815193838511620002c3576001948554938685811c951680156200047b575b88861014620002a2578190601f9586811162000425575b508890868311600114620003bd57600092620003b1575b5050600019600383901b1c191690861b1785555b805190848211620002c357600254908682811c92168015620003a6575b88831014620002a25781858493116200034f575b508790858311600114620002e557600092620002d9575b5050600019600383901b1c191690851b176002555b8051928311620002c35760039485548581811c91168015620002b8575b82821014620002a25783811162000257575b5080928411600114620001ed5750928293918392600094620001e1575b50501b9160001990841b1c19161790555b600080546001600160a01b031916919091179055604051611eff9081620005248239f35b015192503880620001ac565b919083601f1981168760005284600020946000905b888383106200023c575050501062000223575b505050811b019055620001bd565b015160001983861b60f8161c1916905538808062000215565b85870151885590960195948501948793509081019062000202565b86600052816000208480870160051c82019284881062000298575b0160051c019086905b8281106200028b5750506200018f565b600081550186906200027b565b9250819262000272565b634e487b7160e01b600052602260045260246000fd5b90607f16906200017d565b634e487b7160e01b600052604160045260246000fd5b0151905038806200014b565b90879350601f198316916002600052896000209260005b8b8282106200033857505084116200031e575b505050811b0160025562000160565b015160001960f88460031b161c191690553880806200030f565b8385015186558b97909501949384019301620002fc565b9091506002600052876000208580850160051c8201928a86106200039c575b918991869594930160051c01915b8281106200038c57505062000134565b600081558594508991016200037c565b925081926200036e565b91607f169162000120565b015190503880620000ef565b90889350601f19831691846000528a6000209260005b8c8282106200040e5750508411620003f4575b505050811b01855562000103565b015160001960f88460031b161c19169055388080620003e6565b8385015186558c97909501949384019301620003d3565b90915087600052886000208680850160051c8201928b861062000471575b918a91869594930160051c01915b82811062000461575050620000d8565b600081558594508a910162000451565b9250819262000443565b94607f1694620000c1565b600080fd5b6040519190601f01601f191682016001600160401b03811183821017620002c357604052565b919080601f84011215620004865782516001600160401b038111620002c357602090620004e7601f8201601f191683016200048b565b92818452828287010111620004865760005b8181106200050f57508260009394955001015290565b8581018301518482018401528201620004f956fe608060408181526004908136101561001657600080fd5b600092833560e01c9081631375d8431461149c57508063246a908b1461139e57806331264fc11461118c57806355f804b31461104857806364140ec014610f495780636c0360eb14610e8a5780636c037f8a14610b6e57806371f0442e14610ada578063725fa09c14610862578063842251d41461072a578063894b4c2e146103fe5780639cdeaae0146101805763b3154c08146100b357600080fd5b3461017c57602091826003193601126101785780358452825280832091815192848154906100e082611a79565b808752926001928084169081156101545750600114610119575b610115878761010b828c03836115b2565b5191829182611554565b0390f35b9080949750528583205b82841061014157505050826101159461010b928201019438806100fa565b8054868501880152928601928101610123565b60ff19168887015250505050151560051b830101925061010b8261011538806100fa565b8380fd5b8280fd5b50913461038c578260031936011261038c57813561019d816119c9565b928183526020918183528584209186519480868554916101bc83611a79565b92838352888301976001918a83821691826000146103de5750506001146103a1575b50506101ec925003876115b2565b6101f583611de0565b91610201602435611886565b9389519163131f9f3f60e11b83528201528581602481335afa918215610396578092610360575b61011561027a8b61010b606c8d8d8d6103478e8e8e6102468f611886565b9261024f611e7a565b966102a460298d519e8f809c683d913730b6b2911d1160b91b8c8301528b8151948593019101611531565b8a0191701116113232b9b1b934b83a34b7b7111d1160791b6029840152518093603a840190611531565b016a11161134b6b0b3b2911d1160a91b603a8201526102cc8251809388604585019101611531565b016c1116113130b630b731b2911d1160991b60458201526102f68251809387605285019101611531565b016911161139b637ba111d1160b11b605282015261031d8251809386605c85019101611531565b01916e111611383937b832b93a34b2b9911d60891b605c8401528351938491606b85019101611531565b01607d60f81b606b82015203604c8101855201836115b2565b9091508582813d831161038f575b61037881836115b2565b8101031261038c575051610347606c610228565b80fd5b503d61036e565b8951903d90823e3d90fd5b89925085528185209085915b8583106103c55750506101ec935082010138806101de565b81948484839695965492010152019101899289926103ad565b92509350506101ec94915060ff19168852151560051b82010138806101de565b50913461038c57602091826003193601126107265780359061041f826119c9565b9282815281855285812090865190808284549161043b83611a79565b928383528a8301966001918c83821691826000146107065750506001146106ca575b505061046b925003836115b2565b61047485611de0565b938851631398fee160e31b815286828201528881602481335afa80156106c0578390610691575b6104a59150611886565b9589519163131f9f3f60e11b83528201528781602481335afa91821561039657809261065e575b5050610610606c888a6101159b9961010b99603d9961064e9d99610615996105526104f96105289b611886565b95610502611e7a565b97519b8c99683d913730b6b2911d1160b91b818c0152825192839160298d019101611531565b880191701116113232b9b1b934b83a34b7b7111d1160791b6029840152518093603a840190611531565b016a11161134b6b0b3b2911d1160a91b603a82015261057a825180938d604585019101611531565b016c1116113130b630b731b2911d1160991b60458201526105a4825180938c605285019101611531565b016911161139b637ba111d1160b11b60528201526105cb825180938b605c85019101611531565b016e111611383937b832b93a34b2b9911d60891b605c8201526105f7825180938a606b85019101611531565b01607d60f81b606b82015203604c8101845201826115b2565b611719565b845195827f646174613a6170706c69636174696f6e2f6a736f6e3b6261736536342c000000889485015282519283918686019101611531565b810103601d8101855201836115b2565b9091508782813d831161068a575b61067681836115b2565b8101031261038c575051610610606c6104cc565b503d61066c565b508881813d83116106b9575b6106a781836115b2565b8101031261017c576104a5905161049b565b503d61069d565b8a513d85823e3d90fd5b8b925085528185209085915b8583106106ee57505061046b9350820101388061045d565b80548389018501528794508c939092019181016106d6565b925093505061046b94915060ff19168752151560051b820101388061045d565b5080fd5b508290346107265761073b3661163c565b939083526020916006835283209184519167ffffffffffffffff831161084f57506107668354611a79565b601f811161080c575b5080601f83116001146107aa575083948293949261079f575b50508160011b916000199060031b1c191617905580f35b015190508480610788565b90601f198316958486528286209286905b8882106107f4575050836001959697106107db575b505050811b01905580f35b015160001960f88460031b161c191690558480806107d0565b806001859682949686015181550195019301906107bb565b838552818520601f840160051c810191838510610845575b601f0160051c01905b81811061083a575061076f565b85815560010161082d565b9091508190610824565b634e487b7160e01b855260419052602484fd5b50903461017c578260031936011261017c5781516306fdde0360e01b81529083828281335afa918215610acd578492610aa9575b5082519084600254906108a882611a79565b808552846020988992838301956001908181169081600014610a8a5750600114610a2e575b50506108db925003856115b2565b6108e3611bb2565b928787518092633e7e866960e01b825281335afa918215610a2357605a61064e989761010b97603d976101159c9761092f60ff610615996109849961061099916109f6575b5016611886565b928c51978895683d913730b6b2911d1160b91b8c88015261095a8c825192839160298b019101611531565b860191701116113232b9b1b934b83a34b7b7111d1160791b6029840152518093603a840190611531565b016a11161134b6b0b3b2911d1160a91b603a8201526109ac825180938b604585019101611531565b01721116113b30b63ab2a232b1b4b6b0b639911d1160691b60458201526109dc825180938a605885019101611531565b0161227d60f01b605882015203603a8101845201826115b2565b610a1691508c8d3d10610a1c575b610a0e81836115b2565b8101906116ce565b38610928565b503d610a04565b8751903d90823e3d90fd5b600286527f405787fa12a823e0f2b7631cc41b3ba8828b3321ca811111fa75cd3aa3bb5ace9492508591905b818310610a7257508b9450508201016108db386108cd565b85548a84018501529485019489945091830191610a5a565b9150506108db94925060ff19168652151560051b8201018992386108cd565b610ac69192503d8086833e610abe81836115b2565b81019061166f565b9038610896565b50505051903d90823e3d90fd5b503461017c576020918260031936011261017857358352600582528083209181519284815490610b0982611a79565b808752926001928084169081156101545750600114610b3357610115878761010b828c03836115b2565b9080949750528583205b828410610b5b57505050826101159461010b928201019438806100fa565b8054868501880152928601928101610b3d565b50903461017c576020928360031936011261038c578054835163ec327a2160e01b815283358185018190529092916001600160a01b0316908284602481855afa938415610e80578394610e64575b50855163bc74ebb960e01b8152858101829052948386602481865afa958615610e5a578496610e3e575b5086516309c3dd8760e01b80825282820184905290938585602481845afa948515610e3457918a9594939187938496610e13575b5090602491610c5a60268d518a652f696d61676560d01b81610c46849e85019d8e815193849201611531565b83019182015203600681018b5201896115b2565b8b51958694859384528301525afa938415610a23578094610df6575b50508551918288808201868197519283910191610c9292611531565b81018981016f17b83937b832b93a34b2b9973539b7b760811b905203601081018452603001610cc190846115b2565b8651958695683d913730b6b2911d1160b91b8a880152805190818b60298a01920191610cec92611531565b8601701116113232b9b1b934b83a34b7b7111d1160791b6029820152815191828b603a8401920191610d1d92611531565b01906a11161134b6b0b3b2911d1160a91b603a83015251918260458301610d4392611531565b01906e111611383937b832b93a34b2b9911d60891b604583015251918260548301610d6d92611531565b0160548101607d60f81b905203603581018252605501610d8d90826115b2565b610d9690611719565b81517f646174613a6170706c69636174696f6e2f6a736f6e3b6261736536342c00000084820152815190938492610dd4918391603d86019101611531565b810103601d81018352603d01610dea90836115b2565b51610115819282611554565b610e0b9294503d8091833e610abe81836115b2565b913880610c76565b602492919650610e2c903d8087833e610abe81836115b2565b959091610c1a565b89513d88823e3d90fd5b610e539196503d8086833e610abe81836115b2565b9438610be6565b87513d86823e3d90fd5b610e799194503d8085833e610abe81836115b2565b9238610bbc565b86513d85823e3d90fd5b838234610726578160031936011261072657805190826001805491610eae83611a79565b80865292828116908115610f215750600114610ed7575b50505061010b826101159403836115b2565b9450808552600080516020611eaa8339815191525b828610610f095750505061010b8260206101159582010194610ec5565b80546020878701810191909152909501948101610eec565b61011597508693506020925061010b94915060ff191682840152151560051b82010194610ec5565b5082903461072657610f5a3661163c565b939083526020916005835283209184519167ffffffffffffffff831161084f5750610f858354611a79565b601f8111611005575b5080601f8311600114610fbd575083948293949261079f5750508160011b916000199060031b1c191617905580f35b90601f198316958486528286209286905b888210610fed575050836001959697106107db57505050811b01905580f35b80600185968294968601518155019501930190610fce565b838552818520601f840160051c81019183851061103e575b601f0160051c01905b8181106110335750610f8e565b858155600101611026565b909150819061101d565b82843461038c576020806003193601126107265767ffffffffffffffff83358181116101785761107b90369086016115f0565b93845191821161117957506001916110938354611a79565b601f8111611127575b5080601f83116001146110d657508394829394926110cb575b5050600019600383901b1c191690821b17905580f35b0151905084806110b5565b838552601f19831695600080516020611eaa833981519152929186905b88821061111057505083859697106107db57505050811b01905580f35b8087859682949686015181550195019301906110f3565b838552600080516020611eaa833981519152601f840160051c81019183851061116f575b601f0160051c019084905b82811061116457505061109c565b868155018490611156565b909150819061114b565b634e487b7160e01b845260419052602483fd5b50903461017c578260031936011261017c5781516306fdde0360e01b81529083828281335afa918215610acd578492611382575b5082519084906002546111d281611a79565b808552846020948582019360019087828216918260001461136457505060011461130a575b50611204925003856115b2565b61120c611bb2565b918387518092633e7e866960e01b825281335afa9081156113005761127997969361010b969361124f60ff605a98956112cf956101159e916112e9575016611886565b9489519a8b97683d913730b6b2911d1160b91b878a0152610528815180928960298d019101611531565b016a11161134b6b0b3b2911d1160a91b603a8201526112a18251809386604585019101611531565b0191721116113b30b63ab2a232b1b4b6b0b639911d1160691b60458401528351938491605885019101611531565b0161227d60f01b605882015203603a8101855201836115b2565b610a169150873d8911610a1c57610a0e81836115b2565b87513d8a823e3d90fd5b60028b528691508a907f405787fa12a823e0f2b7631cc41b3ba8828b3321ca811111fa75cd3aa3bb5ace5b85831061134c5750506112049350820101386111f7565b8054838b018501528994508893909201918101611335565b60ff1916875261120495151560051b85010192503891506111f79050565b6113979192503d8086833e610abe81836115b2565b90386111c0565b50829034610726576113af3661163c565b9390835260209181835283209184519167ffffffffffffffff831161084f57506113d98354611a79565b601f8111611459575b5080601f8311600114611411575083948293949261079f5750508160011b916000199060031b1c191617905580f35b90601f198316958486528286209286905b888210611441575050836001959697106107db57505050811b01905580f35b80600185968294968601518155019501930190611422565b838552818520601f840160051c810191838510611492575b601f0160051c01905b81811061148757506113e2565b85815560010161147a565b9091508190611471565b92905034610178576020908160031936011261152d57358452600681528184208054856114c882611a79565b8087529260019280841690811561015457506001146114f257610115878761010b828c03836115b2565b9080949750528583205b82841061151a57505050826101159461010b928201019438806100fa565b80548685018801529286019281016114fc565b8480fd5b60005b8381106115445750506000910152565b8181015183820152602001611534565b604091602082526115748151809281602086015260208686019101611531565b601f01601f1916010190565b6060810190811067ffffffffffffffff82111761159c57604052565b634e487b7160e01b600052604160045260246000fd5b90601f8019910116810190811067ffffffffffffffff82111761159c57604052565b67ffffffffffffffff811161159c57601f01601f191660200190565b81601f8201121561163757803590611607826115d4565b9261161560405194856115b2565b8284526020838301011161163757816000926020809301838601378301015290565b600080fd5b90604060031983011261163757600435916024359067ffffffffffffffff82116116375761166c916004016115f0565b90565b6020818303126116375780519067ffffffffffffffff8211611637570181601f820112156116375780516116a2816115d4565b926116b060405194856115b2565b818452602082840101116116375761166c9160208085019101611531565b90816020910312611637575160ff811681036116375790565b906116f1826115d4565b6116fe60405191826115b2565b828152809261170f601f19916115d4565b0190602036910137565b8051156118615760405161172c81611580565b604081527f4142434445464748494a4b4c4d4e4f505152535455565758595a61626364656660208201527f6768696a6b6c6d6e6f707172737475767778797a303132333435363738392b2f6040820152815160029283820180921161184b576003918290046001600160fe1b038116810361184b576117ae908594951b6116e7565b936020850193829183518401925b8381106117fa57505050505106806001146117e7576002146117dc575090565b603d90600019015390565b50603d9081600019820153600119015390565b85600491979293949701918251600190603f9082828260121c16880101518453828282600c1c16880101518385015382828260061c16880101518885015316850101518782015301959291906117bc565b634e487b7160e01b600052601160045260246000fd5b506040516020810181811067ffffffffffffffff82111761159c576040526000815290565b806000917a184f03e93ff9f4daa797ed6e38ed64bf6a1f010000000000000000808210156119bb575b506d04ee2d6d415b85acef8100000000808310156119ac575b50662386f26fc100008083101561199d575b506305f5e1008083101561198e575b506127108083101561197f575b50606482101561196f575b600a80921015611965575b60019081602161191d8287016116e7565b95860101905b61192f575b5050505090565b600019019083906f181899199a1a9b1b9c1cb0b131b232b360811b8282061a83530491821561196057919082611923565b611928565b916001019161190c565b9190606460029104910191611901565b600491939204910191386118f6565b600891939204910191386118e9565b601091939204910191386118da565b602091939204910191386118c8565b6040935081049150386118af565b6040516306fdde0360e01b815290600082600481335afa918215611a6d57600092611a47575b5060226119fe61166c92611886565b926040519381611a18869351809260208087019101611531565b820161202360f01b6020820152611a388251809360208785019101611531565b010360028101845201826115b2565b6119fe611a6460229261166c94953d8091833e610abe81836115b2565b939250506119ef565b6040513d6000823e3d90fd5b90600182811c92168015611aa9575b6020831014611a9357565b634e487b7160e01b600052602260045260246000fd5b91607f1691611a88565b90600091600190815491611ac683611a79565b92818116908115611b1c5750600114611ade57505050565b809192939450600052600080516020611eaa833981519152906000915b848310611b09575050500190565b8181602092548587015201920191611afb565b60ff191683525050811515909102019150565b600092918154611b3e81611a79565b92600191808316908115611b975750600114611b5b575b50505050565b90919293945060005260209081600020906000915b858310611b865750505050019038808080611b55565b805485840152918301918101611b70565b60ff1916845250505081151590910201915038808080611b55565b611bbb33611cbd565b6040519081602091611bce838301611ab3565b68636f6e74726163742f60b81b8152611bf08251809386600985019101611531565b01602f60f81b600982015260009060035493611c0b85611a79565b94600190818116908115611c9a5750600114611c38575b50505061166c925003601f1981018352826115b2565b9091925060036000527fc2575a0e9e593c00f959f8c92f12db2869c3395a3b0502d05e2516446f71f85b906000915b868310611c83575050505061166c92600a910101388080611c22565b8054838601600a0152879550918301918101611c67565b915050600a935061166c95915060ff191683830152801515020101388080611c22565b604051906001600160a01b0316611cd382611580565b602a82526020908183016040368237835115611dca57603090538251600190811015611dca57607860218501536029905b808211611d58575050611d15575090565b6064906040519062461bcd60e51b825280600483015260248201527f537472696e67733a20686578206c656e67746820696e73756666696369656e746044820152fd5b9091600f81166010811015611db5578551841015611db5576f181899199a1a9b1b9c1cb0b131b232b360811b901a85840185015360041c918015611da0576000190190611d04565b60246000634e487b7160e01b81526011600452fd5b60246000634e487b7160e01b81526032600452fd5b634e487b7160e01b600052603260045260246000fd5b61166c601191611def30611cbd565b906000526006602052611e6c604060002060056020526001611e5e604060002092604051978896611e2260208901611ab3565b692f636f6e74726163742f60b01b8152611e46825180936020600a85019101611531565b01662f746f6b656e2f60c81b600a8201520190611b2f565b602f60f81b81520190611b2f565b03601f1981018352826115b2565b604051617b7d60f01b6020820152600281526040810181811067ffffffffffffffff82111761159c576040529056feb10e2d527612073b26eecdfd717e6a320cf44b4afac2b0732d9fcbe2b7fa0cf6a26469706673582212203dabc739771c8e6f68eb2ab2ac8412ac3a180aba7847d36163cef424177ca31d64736f6c63430008110033",
  "linkReferences": {},
  "deployedLinkReferences": {}
}