{
  "_format": "hh-sol-artifact-1",
  "contractName": "Service",
  "sourceName": "contracts/Service.sol",
  "abi": [
    {
      "inputs": [
        {
          "internalType": "address",
          "name": "adminAddress_",
          "type": "address"
        },
        {
          "internalType": "address",
          "name": "mktAdmin_",
          "type": "address"
        },
        {
          "internalType": "address",
          "name": "slotRegistry_",
          "type": "address"
        },
        {
          "internalType": "address",
          "name": "pool_",
          "type": "address"
        },
        {
          "internalType": "uint256",
          "name": "defaultSlot_",
          "type": "uint256"
        },
        {
          "internalType": "string",
          "name": "name_",
          "type": "string"
        },
        {
          "internalType": "string",
          "name": "symbol_",
          "type": "string"
        },
        {
          "internalType": "string",
          "name": "baseuri_",
          "type": "string"
        },
        {
          "internalType": "string",
          "name": "contractDescription_",
          "type": "string"
        },
        {
          "internalType": "string",
          "name": "contractImage_",
          "type": "string"
        },
        {
          "internalType": "string",
          "name": "contractType_",
          "type": "string"
        },
        {
          "internalType": "uint8",
          "name": "decimals_",
          "type": "uint8"
        }
      ],
      "stateMutability": "nonpayable",
      "type": "constructor"
    },
    {
      "anonymous": false,
      "inputs": [
        {
          "indexed": true,
          "internalType": "address",
          "name": "_owner",
          "type": "address"
        },
        {
          "indexed": true,
          "internalType": "address",
          "name": "_approved",
          "type": "address"
        },
        {
          "indexed": true,
          "internalType": "uint256",
          "name": "_tokenId",
          "type": "uint256"
        }
      ],
      "name": "Approval",
      "type": "event"
    },
    {
      "anonymous": false,
      "inputs": [
        {
          "indexed": true,
          "internalType": "address",
          "name": "_owner",
          "type": "address"
        },
        {
          "indexed": true,
          "internalType": "address",
          "name": "_operator",
          "type": "address"
        },
        {
          "indexed": false,
          "internalType": "bool",
          "name": "_approved",
          "type": "bool"
        }
      ],
      "name": "ApprovalForAll",
      "type": "event"
    },
    {
      "anonymous": false,
      "inputs": [
        {
          "indexed": true,
          "internalType": "uint256",
          "name": "_tokenId",
          "type": "uint256"
        },
        {
          "indexed": true,
          "internalType": "address",
          "name": "_operator",
          "type": "address"
        },
        {
          "indexed": false,
          "internalType": "uint256",
          "name": "_value",
          "type": "uint256"
        }
      ],
      "name": "ApprovalValue",
      "type": "event"
    },
    {
      "anonymous": false,
      "inputs": [
        {
          "indexed": false,
          "internalType": "uint256",
          "name": "offeringId",
          "type": "uint256"
        },
        {
          "indexed": false,
          "internalType": "uint256",
          "name": "value",
          "type": "uint256"
        }
      ],
      "name": "ListOffer",
      "type": "event"
    },
    {
      "anonymous": false,
      "inputs": [
        {
          "indexed": false,
          "internalType": "address",
          "name": "contractAddress",
          "type": "address"
        }
      ],
      "name": "MetadataDescriptor",
      "type": "event"
    },
    {
      "anonymous": false,
      "inputs": [
        {
          "indexed": false,
          "internalType": "uint256",
          "name": "tokenId",
          "type": "uint256"
        },
        {
          "indexed": false,
          "internalType": "uint256",
          "name": "slot",
          "type": "uint256"
        },
        {
          "indexed": false,
          "internalType": "uint256",
          "name": "value",
          "type": "uint256"
        }
      ],
      "name": "MintAssetToken",
      "type": "event"
    },
    {
      "anonymous": false,
      "inputs": [
        {
          "indexed": false,
          "internalType": "uint256",
          "name": "tokenId",
          "type": "uint256"
        },
        {
          "indexed": false,
          "internalType": "uint256",
          "name": "slot",
          "type": "uint256"
        },
        {
          "indexed": false,
          "internalType": "uint256",
          "name": "value",
          "type": "uint256"
        }
      ],
      "name": "MintServiceToken",
      "type": "event"
    },
    {
      "anonymous": false,
      "inputs": [
        {
          "indexed": false,
          "internalType": "uint256",
          "name": "newTokenId",
          "type": "uint256"
        },
        {
          "indexed": false,
          "internalType": "uint256",
          "name": "slot",
          "type": "uint256"
        },
        {
          "indexed": false,
          "internalType": "uint256",
          "name": "value",
          "type": "uint256"
        }
      ],
      "name": "MintServiceTokenToAddress",
      "type": "event"
    },
    {
      "anonymous": false,
      "inputs": [
        {
          "indexed": true,
          "internalType": "bytes32",
          "name": "role",
          "type": "bytes32"
        },
        {
          "indexed": true,
          "internalType": "bytes32",
          "name": "previousAdminRole",
          "type": "bytes32"
        },
        {
          "indexed": true,
          "internalType": "bytes32",
          "name": "newAdminRole",
          "type": "bytes32"
        }
      ],
      "name": "RoleAdminChanged",
      "type": "event"
    },
    {
      "anonymous": false,
      "inputs": [
        {
          "indexed": true,
          "internalType": "bytes32",
          "name": "role",
          "type": "bytes32"
        },
        {
          "indexed": true,
          "internalType": "address",
          "name": "account",
          "type": "address"
        },
        {
          "indexed": true,
          "internalType": "address",
          "name": "sender",
          "type": "address"
        }
      ],
      "name": "RoleGranted",
      "type": "event"
    },
    {
      "anonymous": false,
      "inputs": [
        {
          "indexed": true,
          "internalType": "bytes32",
          "name": "role",
          "type": "bytes32"
        },
        {
          "indexed": true,
          "internalType": "address",
          "name": "account",
          "type": "address"
        },
        {
          "indexed": true,
          "internalType": "address",
          "name": "sender",
          "type": "address"
        }
      ],
      "name": "RoleRevoked",
      "type": "event"
    },
    {
      "anonymous": false,
      "inputs": [
        {
          "indexed": true,
          "internalType": "address",
          "name": "metadataDescriptor",
          "type": "address"
        }
      ],
      "name": "SetMetadataDescriptor",
      "type": "event"
    },
    {
      "anonymous": false,
      "inputs": [
        {
          "indexed": true,
          "internalType": "uint256",
          "name": "_tokenId",
          "type": "uint256"
        },
        {
          "indexed": true,
          "internalType": "uint256",
          "name": "_oldSlot",
          "type": "uint256"
        },
        {
          "indexed": true,
          "internalType": "uint256",
          "name": "_newSlot",
          "type": "uint256"
        }
      ],
      "name": "SlotChanged",
      "type": "event"
    },
    {
      "anonymous": false,
      "inputs": [
        {
          "indexed": true,
          "internalType": "address",
          "name": "_from",
          "type": "address"
        },
        {
          "indexed": true,
          "internalType": "address",
          "name": "_to",
          "type": "address"
        },
        {
          "indexed": true,
          "internalType": "uint256",
          "name": "_tokenId",
          "type": "uint256"
        }
      ],
      "name": "Transfer",
      "type": "event"
    },
    {
      "anonymous": false,
      "inputs": [
        {
          "indexed": true,
          "internalType": "uint256",
          "name": "_fromTokenId",
          "type": "uint256"
        },
        {
          "indexed": true,
          "internalType": "uint256",
          "name": "_toTokenId",
          "type": "uint256"
        },
        {
          "indexed": false,
          "internalType": "uint256",
          "name": "_value",
          "type": "uint256"
        }
      ],
      "name": "TransferValue",
      "type": "event"
    },
    {
      "anonymous": false,
      "inputs": [
        {
          "indexed": false,
          "internalType": "uint256",
          "name": "fromTokenId",
          "type": "uint256"
        },
        {
          "indexed": false,
          "internalType": "uint256",
          "name": "toTokenId",
          "type": "uint256"
        },
        {
          "indexed": false,
          "internalType": "uint256",
          "name": "value",
          "type": "uint256"
        }
      ],
      "name": "ValueTransfer",
      "type": "event"
    },
    {
      "inputs": [],
      "name": "DEFAULT_ADMIN_ROLE",
      "outputs": [
        {
          "internalType": "bytes32",
          "name": "",
          "type": "bytes32"
        }
      ],
      "stateMutability": "view",
      "type": "function"
    },
    {
      "inputs": [],
      "name": "MKT_ARBITRATOR_ROLE",
      "outputs": [
        {
          "internalType": "bytes32",
          "name": "",
          "type": "bytes32"
        }
      ],
      "stateMutability": "view",
      "type": "function"
    },
    {
      "inputs": [],
      "name": "SERVICE_ADMIN_ROLE",
      "outputs": [
        {
          "internalType": "bytes32",
          "name": "",
          "type": "bytes32"
        }
      ],
      "stateMutability": "view",
      "type": "function"
    },
    {
      "inputs": [
        {
          "internalType": "string",
          "name": "uri_",
          "type": "string"
        }
      ],
      "name": "_setBaseURI",
      "outputs": [],
      "stateMutability": "nonpayable",
      "type": "function"
    },
    {
      "inputs": [
        {
          "internalType": "uint256",
          "name": "tokenId_",
          "type": "uint256"
        },
        {
          "internalType": "address",
          "name": "operator_",
          "type": "address"
        }
      ],
      "name": "allowance",
      "outputs": [
        {
          "internalType": "uint256",
          "name": "",
          "type": "uint256"
        }
      ],
      "stateMutability": "view",
      "type": "function"
    },
    {
      "inputs": [
        {
          "internalType": "address",
          "name": "to_",
          "type": "address"
        },
        {
          "internalType": "uint256",
          "name": "tokenId_",
          "type": "uint256"
        }
      ],
      "name": "approve",
      "outputs": [],
      "stateMutability": "payable",
      "type": "function"
    },
    {
      "inputs": [
        {
          "internalType": "uint256",
          "name": "tokenId_",
          "type": "uint256"
        },
        {
          "internalType": "address",
          "name": "to_",
          "type": "address"
        },
        {
          "internalType": "uint256",
          "name": "value_",
          "type": "uint256"
        }
      ],
      "name": "approve",
      "outputs": [],
      "stateMutability": "payable",
      "type": "function"
    },
    {
      "inputs": [
        {
          "internalType": "address",
          "name": "owner_",
          "type": "address"
        }
      ],
      "name": "balanceOf",
      "outputs": [
        {
          "internalType": "uint256",
          "name": "balance",
          "type": "uint256"
        }
      ],
      "stateMutability": "view",
      "type": "function"
    },
    {
      "inputs": [
        {
          "internalType": "uint256",
          "name": "tokenId_",
          "type": "uint256"
        }
      ],
      "name": "balanceOf",
      "outputs": [
        {
          "internalType": "uint256",
          "name": "",
          "type": "uint256"
        }
      ],
      "stateMutability": "view",
      "type": "function"
    },
    {
      "inputs": [],
      "name": "contractAdmin",
      "outputs": [
        {
          "internalType": "address",
          "name": "",
          "type": "address"
        }
      ],
      "stateMutability": "view",
      "type": "function"
    },
    {
      "inputs": [],
      "name": "contractURI",
      "outputs": [
        {
          "internalType": "string",
          "name": "",
          "type": "string"
        }
      ],
      "stateMutability": "view",
      "type": "function"
    },
    {
      "inputs": [],
      "name": "creditType",
      "outputs": [
        {
          "internalType": "string",
          "name": "",
          "type": "string"
        }
      ],
      "stateMutability": "view",
      "type": "function"
    },
    {
      "inputs": [],
      "name": "defaultSlot",
      "outputs": [
        {
          "internalType": "uint256",
          "name": "",
          "type": "uint256"
        }
      ],
      "stateMutability": "view",
      "type": "function"
    },
    {
      "inputs": [
        {
          "internalType": "uint256",
          "name": "tokenId_",
          "type": "uint256"
        }
      ],
      "name": "getApproved",
      "outputs": [
        {
          "internalType": "address",
          "name": "",
          "type": "address"
        }
      ],
      "stateMutability": "view",
      "type": "function"
    },
    {
      "inputs": [
        {
          "internalType": "bytes32",
          "name": "role",
          "type": "bytes32"
        }
      ],
      "name": "getRoleAdmin",
      "outputs": [
        {
          "internalType": "bytes32",
          "name": "",
          "type": "bytes32"
        }
      ],
      "stateMutability": "view",
      "type": "function"
    },
    {
      "inputs": [
        {
          "internalType": "uint256",
          "name": "tokenId",
          "type": "uint256"
        }
      ],
      "name": "getTokenDescription",
      "outputs": [
        {
          "internalType": "string",
          "name": "",
          "type": "string"
        }
      ],
      "stateMutability": "view",
      "type": "function"
    },
    {
      "inputs": [
        {
          "internalType": "uint256",
          "name": "tokenId",
          "type": "uint256"
        }
      ],
      "name": "getTokenImage",
      "outputs": [
        {
          "internalType": "string",
          "name": "",
          "type": "string"
        }
      ],
      "stateMutability": "view",
      "type": "function"
    },
    {
      "inputs": [
        {
          "internalType": "uint256",
          "name": "tokenId",
          "type": "uint256"
        }
      ],
      "name": "getTokenUUID",
      "outputs": [
        {
          "internalType": "string",
          "name": "",
          "type": "string"
        }
      ],
      "stateMutability": "view",
      "type": "function"
    },
    {
      "inputs": [
        {
          "internalType": "bytes32",
          "name": "role",
          "type": "bytes32"
        },
        {
          "internalType": "address",
          "name": "account",
          "type": "address"
        }
      ],
      "name": "grantRole",
      "outputs": [],
      "stateMutability": "nonpayable",
      "type": "function"
    },
    {
      "inputs": [
        {
          "internalType": "bytes32",
          "name": "role",
          "type": "bytes32"
        },
        {
          "internalType": "address",
          "name": "account",
          "type": "address"
        }
      ],
      "name": "hasRole",
      "outputs": [
        {
          "internalType": "bool",
          "name": "",
          "type": "bool"
        }
      ],
      "stateMutability": "view",
      "type": "function"
    },
    {
      "inputs": [
        {
          "internalType": "address",
          "name": "owner_",
          "type": "address"
        },
        {
          "internalType": "address",
          "name": "operator_",
          "type": "address"
        }
      ],
      "name": "isApprovedForAll",
      "outputs": [
        {
          "internalType": "bool",
          "name": "",
          "type": "bool"
        }
      ],
      "stateMutability": "view",
      "type": "function"
    },
    {
      "inputs": [
        {
          "internalType": "uint256",
          "name": "expiration_",
          "type": "uint256"
        },
        {
          "internalType": "uint256",
          "name": "tokenId_",
          "type": "uint256"
        },
        {
          "internalType": "uint256",
          "name": "price_",
          "type": "uint256"
        },
        {
          "internalType": "string",
          "name": "assetId_",
          "type": "string"
        },
        {
          "internalType": "string",
          "name": "side_",
          "type": "string"
        }
      ],
      "name": "listOffer",
      "outputs": [],
      "stateMutability": "nonpayable",
      "type": "function"
    },
    {
      "inputs": [],
      "name": "metadataDescriptor",
      "outputs": [
        {
          "internalType": "contract IERC3525MetadataDescriptor",
          "name": "",
          "type": "address"
        }
      ],
      "stateMutability": "view",
      "type": "function"
    },
    {
      "inputs": [
        {
          "internalType": "address",
          "name": "owner_",
          "type": "address"
        },
        {
          "internalType": "uint256",
          "name": "slot_",
          "type": "uint256"
        },
        {
          "internalType": "uint256",
          "name": "value_",
          "type": "uint256"
        },
        {
          "internalType": "string",
          "name": "uuid_",
          "type": "string"
        },
        {
          "internalType": "string",
          "name": "tokenDescription_",
          "type": "string"
        },
        {
          "internalType": "string",
          "name": "tokenImage_",
          "type": "string"
        },
        {
          "internalType": "string",
          "name": "property_",
          "type": "string"
        }
      ],
      "name": "mint",
      "outputs": [
        {
          "internalType": "uint256",
          "name": "",
          "type": "uint256"
        }
      ],
      "stateMutability": "nonpayable",
      "type": "function"
    },
    {
      "inputs": [
        {
          "internalType": "address",
          "name": "owner_",
          "type": "address"
        },
        {
          "internalType": "uint256",
          "name": "expiration_",
          "type": "uint256"
        },
        {
          "internalType": "uint256",
          "name": "tokenId_",
          "type": "uint256"
        },
        {
          "internalType": "uint256",
          "name": "price_",
          "type": "uint256"
        },
        {
          "internalType": "string",
          "name": "assetId_",
          "type": "string"
        },
        {
          "internalType": "string",
          "name": "side_",
          "type": "string"
        }
      ],
      "name": "mktListOffer",
      "outputs": [],
      "stateMutability": "nonpayable",
      "type": "function"
    },
    {
      "inputs": [],
      "name": "name",
      "outputs": [
        {
          "internalType": "string",
          "name": "",
          "type": "string"
        }
      ],
      "stateMutability": "view",
      "type": "function"
    },
    {
      "inputs": [
        {
          "internalType": "address",
          "name": "owner_",
          "type": "address"
        },
        {
          "internalType": "uint256",
          "name": "slot_",
          "type": "uint256"
        },
        {
          "internalType": "uint256",
          "name": "value_",
          "type": "uint256"
        },
        {
          "internalType": "uint256",
          "name": "discountBasisPts_",
          "type": "uint256"
        },
        {
          "internalType": "string",
          "name": "uuid_",
          "type": "string"
        },
        {
          "internalType": "string",
          "name": "tokenDescription_",
          "type": "string"
        },
        {
          "internalType": "string",
          "name": "tokenImage_",
          "type": "string"
        },
        {
          "internalType": "string",
          "name": "property_",
          "type": "string"
        }
      ],
      "name": "networkMintWithDiscount",
      "outputs": [
        {
          "internalType": "uint256",
          "name": "",
          "type": "uint256"
        }
      ],
      "stateMutability": "nonpayable",
      "type": "function"
    },
    {
      "inputs": [
        {
          "internalType": "address",
          "name": "owner_",
          "type": "address"
        },
        {
          "internalType": "uint256",
          "name": "slot_",
          "type": "uint256"
        },
        {
          "internalType": "uint256",
          "name": "value_",
          "type": "uint256"
        },
        {
          "internalType": "uint256",
          "name": "valueRate_",
          "type": "uint256"
        },
        {
          "internalType": "string",
          "name": "uuid_",
          "type": "string"
        },
        {
          "internalType": "string",
          "name": "tokenDescription_",
          "type": "string"
        },
        {
          "internalType": "string",
          "name": "tokenImage_",
          "type": "string"
        },
        {
          "internalType": "string",
          "name": "property_",
          "type": "string"
        }
      ],
      "name": "networkMintWithValueRate",
      "outputs": [
        {
          "internalType": "uint256",
          "name": "",
          "type": "uint256"
        }
      ],
      "stateMutability": "nonpayable",
      "type": "function"
    },
    {
      "inputs": [
        {
          "internalType": "uint256",
          "name": "tokenId_",
          "type": "uint256"
        }
      ],
      "name": "ownerOf",
      "outputs": [
        {
          "internalType": "address",
          "name": "owner_",
          "type": "address"
        }
      ],
      "stateMutability": "view",
      "type": "function"
    },
    {
      "inputs": [
        {
          "internalType": "uint256",
          "name": "slotId_",
          "type": "uint256"
        }
      ],
      "name": "registerOnSlot",
      "outputs": [],
      "stateMutability": "nonpayable",
      "type": "function"
    },
    {
      "inputs": [
        {
          "internalType": "bytes32",
          "name": "role",
          "type": "bytes32"
        },
        {
          "internalType": "address",
          "name": "account",
          "type": "address"
        }
      ],
      "name": "renounceRole",
      "outputs": [],
      "stateMutability": "nonpayable",
      "type": "function"
    },
    {
      "inputs": [
        {
          "internalType": "bytes32",
          "name": "role",
          "type": "bytes32"
        },
        {
          "internalType": "address",
          "name": "account",
          "type": "address"
        }
      ],
      "name": "revokeRole",
      "outputs": [],
      "stateMutability": "nonpayable",
      "type": "function"
    },
    {
      "inputs": [
        {
          "internalType": "address",
          "name": "from_",
          "type": "address"
        },
        {
          "internalType": "address",
          "name": "to_",
          "type": "address"
        },
        {
          "internalType": "uint256",
          "name": "tokenId_",
          "type": "uint256"
        }
      ],
      "name": "safeTransferFrom",
      "outputs": [],
      "stateMutability": "payable",
      "type": "function"
    },
    {
      "inputs": [
        {
          "internalType": "address",
          "name": "from_",
          "type": "address"
        },
        {
          "internalType": "address",
          "name": "to_",
          "type": "address"
        },
        {
          "internalType": "uint256",
          "name": "tokenId_",
          "type": "uint256"
        },
        {
          "internalType": "bytes",
          "name": "data_",
          "type": "bytes"
        }
      ],
      "name": "safeTransferFrom",
      "outputs": [],
      "stateMutability": "payable",
      "type": "function"
    },
    {
      "inputs": [
        {
          "internalType": "address",
          "name": "operator_",
          "type": "address"
        },
        {
          "internalType": "bool",
          "name": "approved_",
          "type": "bool"
        }
      ],
      "name": "setApprovalForAll",
      "outputs": [],
      "stateMutability": "nonpayable",
      "type": "function"
    },
    {
      "inputs": [
        {
          "internalType": "uint256",
          "name": "tokenId_",
          "type": "uint256"
        }
      ],
      "name": "slotOf",
      "outputs": [
        {
          "internalType": "uint256",
          "name": "",
          "type": "uint256"
        }
      ],
      "stateMutability": "view",
      "type": "function"
    },
    {
      "inputs": [
        {
          "internalType": "uint256",
          "name": "slot_",
          "type": "uint256"
        }
      ],
      "name": "slotURI",
      "outputs": [
        {
          "internalType": "string",
          "name": "",
          "type": "string"
        }
      ],
      "stateMutability": "view",
      "type": "function"
    },
    {
      "inputs": [
        {
          "internalType": "bytes4",
          "name": "interfaceId",
          "type": "bytes4"
        }
      ],
      "name": "supportsInterface",
      "outputs": [
        {
          "internalType": "bool",
          "name": "",
          "type": "bool"
        }
      ],
      "stateMutability": "view",
      "type": "function"
    },
    {
      "inputs": [],
      "name": "symbol",
      "outputs": [
        {
          "internalType": "string",
          "name": "",
          "type": "string"
        }
      ],
      "stateMutability": "view",
      "type": "function"
    },
    {
      "inputs": [
        {
          "internalType": "uint256",
          "name": "index_",
          "type": "uint256"
        }
      ],
      "name": "tokenByIndex",
      "outputs": [
        {
          "internalType": "uint256",
          "name": "",
          "type": "uint256"
        }
      ],
      "stateMutability": "view",
      "type": "function"
    },
    {
      "inputs": [
        {
          "internalType": "address",
          "name": "owner_",
          "type": "address"
        },
        {
          "internalType": "uint256",
          "name": "index_",
          "type": "uint256"
        }
      ],
      "name": "tokenOfOwnerByIndex",
      "outputs": [
        {
          "internalType": "uint256",
          "name": "",
          "type": "uint256"
        }
      ],
      "stateMutability": "view",
      "type": "function"
    },
    {
      "inputs": [
        {
          "internalType": "uint256",
          "name": "tokenId_",
          "type": "uint256"
        }
      ],
      "name": "tokenURI",
      "outputs": [
        {
          "internalType": "string",
          "name": "",
          "type": "string"
        }
      ],
      "stateMutability": "view",
      "type": "function"
    },
    {
      "inputs": [],
      "name": "totalSupply",
      "outputs": [
        {
          "internalType": "uint256",
          "name": "",
          "type": "uint256"
        }
      ],
      "stateMutability": "view",
      "type": "function"
    },
    {
      "inputs": [
        {
          "internalType": "uint256",
          "name": "fromTokenId_",
          "type": "uint256"
        },
        {
          "internalType": "address",
          "name": "to_",
          "type": "address"
        },
        {
          "internalType": "uint256",
          "name": "value_",
          "type": "uint256"
        }
      ],
      "name": "transferFrom",
      "outputs": [
        {
          "internalType": "uint256",
          "name": "",
          "type": "uint256"
        }
      ],
      "stateMutability": "payable",
      "type": "function"
    },
    {
      "inputs": [
        {
          "internalType": "address",
          "name": "from_",
          "type": "address"
        },
        {
          "internalType": "address",
          "name": "to_",
          "type": "address"
        },
        {
          "internalType": "uint256",
          "name": "tokenId_",
          "type": "uint256"
        }
      ],
      "name": "transferFrom",
      "outputs": [],
      "stateMutability": "payable",
      "type": "function"
    },
    {
      "inputs": [
        {
          "internalType": "uint256",
          "name": "fromTokenId_",
          "type": "uint256"
        },
        {
          "internalType": "uint256",
          "name": "toTokenId_",
          "type": "uint256"
        },
        {
          "internalType": "uint256",
          "name": "value_",
          "type": "uint256"
        }
      ],
      "name": "transferFrom",
      "outputs": [],
      "stateMutability": "payable",
      "type": "function"
    },
    {
      "inputs": [
        {
          "internalType": "string",
          "name": "assetId_",
          "type": "string"
        },
        {
          "internalType": "string",
          "name": "side_",
          "type": "string"
        }
      ],
      "name": "validOffers",
      "outputs": [
        {
          "components": [
            {
              "internalType": "uint256",
              "name": "offerId",
              "type": "uint256"
            },
            {
              "internalType": "address",
              "name": "owner",
              "type": "address"
            },
            {
              "internalType": "string",
              "name": "side",
              "type": "string"
            },
            {
              "internalType": "uint256",
              "name": "price",
              "type": "uint256"
            },
            {
              "internalType": "uint256",
              "name": "tokenId",
              "type": "uint256"
            },
            {
              "internalType": "uint256",
              "name": "expiration",
              "type": "uint256"
            }
          ],
          "internalType": "struct Service.Offer[]",
          "name": "",
          "type": "tuple[]"
        }
      ],
      "stateMutability": "view",
      "type": "function"
    },
    {
      "inputs": [],
      "name": "valueDecimals",
      "outputs": [
        {
          "internalType": "uint8",
          "name": "",
          "type": "uint8"
        }
      ],
      "stateMutability": "view",
      "type": "function"
    }
  ],
  "bytecode": "0x60a0806040523462000960576000608052620074d2803803809162000025828562000997565b83398101610180828203126200067c576200004082620009bb565b916200004f60208201620009bb565b906200005e60408201620009bb565b926200006d60608301620009bb565b608083015160a0840151919390916001600160401b0381116200067c578362000098918301620009f5565b60c08201519094906001600160401b0381116200067c5784620000bd918401620009f5565b60e08301519096906001600160401b0381116200067c5785620000e2918501620009f5565b6101008401519097906001600160401b0381116200067c578662000108918601620009f5565b6101208501519097906001600160401b0381116200067c57876200012e918701620009f5565b6101408601519097906001600160401b0381116200067c576101609162000157918801620009f5565b9501519060ff821682036200067c57600160035580516001600160401b0381116200062657608051805490600182811c9216801562000955575b60208310146200086b5750601f811162000909575b5060805191602092601f8311600114620008995750608051928391836200088d575b50508160011b916000199060031b1c19161790555b81516001600160401b0381116200062657600154608051600182811c9216801562000882575b60208310146200086b5750601f81116200081e575b50608051602090601f8311600114620007a75750819060ff94608051926200079b575b50508160011b916000199060031b1c1916176001555b1660ff19600254161760025560805180526009602052608051604081209060018060a01b038316905260205260805160ff604082205416156200074c575b50600b80546001600160a01b03199081166001600160a01b0393841617909155600c859055600a805482168b8416179055600d805482168a8416179055600e805490911692909116919091179055604051815160208084019392818101929091620003119183906200030381878a620009d0565b810103808452018262000997565b51902060405160208101906374696d6560e01b825260048152620003358162000965565b51902003620006825750506080515b600481101562000664576010805460ff191660ff83161790556001600160a01b0386163b156200067c57604051916394b39b0960e01b835260018060a01b03881660048401526024830152600460ff82161015620006645760ff16604482015260805181606481836001600160a01b038a165af1801562000657576200063e575b50604051926001600160401b036120c585019081119085111762000626576200043a926200040c62000423926120c5620053ed883960806120c58801818152019062000a50565b906120c58601820360206120c58801015262000a50565b906120c58401820360406120c58601015262000a50565b6001600160a01b039092166120c5820160600152608051918190039082f09081156200061a5750600880546001600160a01b0319166001600160a01b03928316179055600b541660008181527f3d62299d961dc9bf64f24e2e5b7d5a2b17ee5fc8163a3ddca90e52de8744675560205260409020547f1cd6d520d98babae1045eb69c31ecab800996aa332094cb55c0ac10362e9b0c9919060ff1615620005d7575b50506001600160a01b03811660009081527ff0bca53ec534e170e0b4115320ce2b072ee8e3338cc6b0c7b13351839d628e0a60205260409020547f9a95e87c5af084bf5db8491c3a6515da9dd6da39b24b0eb0af08d7b9cd808d919060ff161562000587575b7f9ac4f8025631594629895b778dc5ee88d01673a254a2291f6b6b174ad25230ca602060018060a01b0360085416604051908152a1604051614975908162000a788239f35b60008181526009602090815260408083206001600160a01b0395909516808452949091528120805460ff1916600117905533929190600080516020620074b28339815191529080a4388062000542565b8160005260096020526040600020816000526020526040600020600160ff198254161790553391600080516020620074b2833981519152600080a43880620004dc565b604051903d90823e3d90fd5b634e487b7160e01b6080515260416004526024608051fd5b6001600160401b038111620006265760405238620003c5565b6040513d608051823e3d90fd5b634e487b7160e01b6080515260216004526024608051fd5b60805180fd5b6040516020810190620006a060208285516200030381878a620009d0565b5190206040516020810190630c6c2e6d60e31b825260048152620006c48162000965565b51902003620006d7575050600162000344565b620006f6602060405180936200030383830196879251928391620009d0565b5190206040805165636f756e747360d01b6020820152600681529081018082116001600160401b03909111176200062657604081810190528051602090910120036200074457600262000344565b600362000344565b8052600960209081526080805160408082206001600160a01b038616928390529093529051918220805460ff191660011790553391600080516020620074b28339815191528180a4386200028f565b0151905038806200023b565b60019094929394526080519160208320925b601f198516811062000805575091839160019360ff9695601f19811610620007eb575b505050811b0160015562000251565b015160001960f88460031b161c19169055388080620007dc565b91926020600181928685015181550194019201620007b9565b60016080515260805160208120601f840160051c81016020851062000863575b601f840160051c82018110620008575750505062000218565b8281556001016200083e565b50806200083e565b634e487b7160e01b90526022600452608051602490fd5b91607f169162000203565b015190503880620001c8565b80526080516020812090938493925b601f1984168510620008ed576001945083601f19811610620008d3575b505050811b019055620001dd565b015160001960f88460031b161c19169055388080620008c5565b81810151835560209485019460019093019290910190620008a8565b608051805260805160208120601f840160051c8101602085106200094d575b601f840160051c820181106200094157505050620001a6565b82815560010162000928565b508062000928565b91607f169162000191565b600080fd5b604081019081106001600160401b038211176200098157604052565b634e487b7160e01b600052604160045260246000fd5b601f909101601f19168101906001600160401b038211908210176200098157604052565b51906001600160a01b03821682036200096057565b60005b838110620009e45750506000910152565b8181015183820152602001620009d3565b81601f82011215620009605780516001600160401b03811162000981576040519262000a2c601f8301601f19166020018562000997565b81845260208284010111620009605762000a4d9160208085019101620009d0565b90565b9060209162000a6b81518092818552858086019101620009d0565b601f01601f191601019056fe608080604052600436101561001357600080fd5b600090813560e01c90816301ffc9a71461241e5750806303e209531461225a57806306fdde03146121b7578063081812fc14612198578063095ea7b31461205d57806309c3dd8714611d895780630f485c0214611d755780631375d84314611d0f5780631429fb5714611c7457806318160ddd14611c5657806323b872dd14611c315780632425eeaf146118da578063248a9ca3146118ad578063263f3e7e1461188e5780632f2ff15d146117db5780632f745c5914611732578063310ed7f01461156f57806331b5b907146114e557806336568abe146114525780633e7e8669146114315780633f5d70671461120857806341815ee41461111057806342842e0e146110ed5780634f6ccce714611068578063505a38531461104a5780636352211e1461101957806370a0823114610ff557806371f0442e14610f8f5780637795524514610f66578063840f711314610f3d5780638cb0a51114610df957806391d1485414610dad57806395d89b4114610cce5780639cc7f70814610caf578063a217fddf14610c93578063a22cb46514610bbe578063a7c9f2d614610b83578063aa20ce55146108d4578063b3154c081461086e578063b88d4fde1461080f578063be950a62146106c9578063c87b56dd14610634578063cf2d6fe6146103c5578063d09445c21461038a578063d547741f14610349578063e345e0bc1461031a578063e8a3d4851461028a5763e985e9c51461023157600080fd5b346102875760403660031901126102875761024a612473565b60026040610256612489565b9360018060a01b038094168152600760205220019116600052602052602060ff604060002054166040519015158152f35b80fd5b5034610287578060031936011261028757600854604051631c97e82760e21b8152908290829060049082906001600160a01b03165afa90811561030f57826102e893926102ec575b505060405191829160208352602083019061264b565b0390f35b61030892503d8091833e6103008183612503565b810190612c06565b38806102d2565b6040513d84823e3d90fd5b5034610287576040366003190112610287576020610341610339612489565b600435614894565b604051908152f35b503461028757604036600319011261028757610387600435610369612489565b90808452600960205261038260016040862001546126cf565b612a04565b80f35b503461028757806003193601126102875760206040517f9a95e87c5af084bf5db8491c3a6515da9dd6da39b24b0eb0af08d7b9cd808d918152f35b50346102875760c0366003190112610287576103df612473565b6064356001600160401b0360843581811161063057610402903690600401612576565b9060a43581811161062c5761041b903690600401612576565b93600f5494610429866132f6565b600f5583516020809501209283885260139283865260408920888a5286526001908160408b20019060018060a01b03166001600160601b0360a01b82541617905584895283865260408920888a5286528760408a205584895283865260408920888a528652600260408a2001928051928311610618576104a98454612ac4565b601f81116105df575b5086908a601f85116001146105655793604099979593819382936000805160206149208339815191529d9b99979461055a575b50501b916000199060031b1c19161790555b81885280835285882085895283526024356005878a20015581885280835285882085895283526044356004878a20015581885282528487208488528252826003868920015586526014815261054e8385882061325f565b8351928352820152a180f35b0151925038806104e5565b50848b52878b209293929190601f1984168c5b8181106105ca5750916000805160206149208339815191529b99979593918560409c9a989694106105b1575b505050811b0190556104f7565b015160001960f88460031b161c191690553880806105a4565b82840151855593860193928a01928a01610578565b61060890858c52888c20601f860160051c8101918a871061060e575b601f0160051c0190613305565b386104b2565b90915081906105fb565b634e487b7160e01b8a52604160045260248afd5b8580fd5b8480fd5b50346102875760203660031901126102875760043561065281614617565b80156106b5575b61066290612e1b565b6008546040516344a5a61760e11b815260048101929092528290829060249082906001600160a01b03165afa90811561030f57826102e893926102ec57505060405191829160208352602083019061264b565b506106626106c282614645565b9050610659565b5034610287576020366003190112610287577f9a95e87c5af084bf5db8491c3a6515da9dd6da39b24b0eb0af08d7b9cd808d9181526009602052604081203360005260205260ff60406000205416156107a45760018060a01b039081600d541691600a541660ff60105416833b156107a057604051916394b39b0960e01b835260048301526004356024830152600481101561078c5781606481858097819560448401525af1801561030f5761077c5750f35b6107859061249f565b6102875780f35b634e487b7160e01b83526021600452602483fd5b8280fd5b60405162461bcd60e51b815260206004820152603760248201527f53656e646572206e6f7420617574686f72697a656420746f207265676973746560448201527f7220636f6e747261637420746f207468697320736c6f740000000000000000006064820152608490fd5b50608036600319011261028757610824612473565b61082c612489565b606435916001600160401b03831161086a573660238401121561086a5761086061038793369060248160040135910161253f565b9160443591612d44565b8380fd5b503461028757602036600319011261028757600854604051631662a98160e31b81526004803590820152908290829060249082906001600160a01b03165afa90811561030f57826102e893926102ec57505060405191829160208352602083019061264b565b5034610287576020816108e636612594565b96600399929591969994939454996108fd8b6132f6565b600355600e54604051630151086360e31b81526001600160a01b039384166004820152602481019290925260448201939093526064810194909452839160849183918b91165af1908115610b78578691610b3e575b50868652601160205260408620556008546001600160a01b0316803b1561062c576109a58692918392604051948580948193632108947560e21b83528d600484015260406024840152604483019061264b565b03925af1908115610b33578591610b1f575b50506008546001600160a01b0316803b15610630576109fe859291839260405194858094819363246a908b60e01b83528c600484015260406024840152604483019061264b565b03925af1908115610b14578491610b00575b50506008546001600160a01b0316803b1561086a57610a578492918392604051948580948193630190503b60e61b83528b600484015260406024840152604483019061264b565b03925af1908115610ae1578391610aec575b50506008546001600160a01b031690813b156107a0578291610aaf91604051948580948193637e468a5160e01b835289600484015260406024840152604483019061264b565b03925af18015610ae157610ac9575b602082604051908152f35b610ad3839161249f565b610add5781610abe565b5080fd5b6040513d85823e3d90fd5b610af59061249f565b610add578138610a69565b610b099061249f565b6107a0578238610a10565b6040513d86823e3d90fd5b610b289061249f565b61086a5783386109b7565b6040513d87823e3d90fd5b9550506020853d602011610b70575b81610b5a60209383612503565b81010312610b6b5786945138610952565b600080fd5b3d9150610b4d565b6040513d88823e3d90fd5b503461028757806003193601126102875760206040517f1cd6d520d98babae1045eb69c31ecab800996aa332094cb55c0ac10362e9b0c98152f35b503461028757604036600319011261028757610bd8612473565b602435908115158092036107a0576001600160a01b031690338214610c4e5733835260076020526002604084200182600052602052604060002060ff1981541660ff83161790556040519081527f17307eab39ab6107e8899845ad3d59bd9653f200f220920489ca2b5937696c3160203392a380f35b60405162461bcd60e51b815260206004820152601a60248201527f455243333532353a20617070726f766520746f2063616c6c65720000000000006044820152606490fd5b5034610287578060031936011261028757602090604051908152f35b50346102875760203660031901126102875760206103416004356146fe565b503461028757806003193601126102875760405160006001805490610cf282612ac4565b80855291818116908115610d865750600114610d2d575b6102e884610d1981860382612503565b60405191829160208352602083019061264b565b600081815292507fb10e2d527612073b26eecdfd717e6a320cf44b4afac2b0732d9fcbe2b7fa0cf65b828410610d6e575050508101602001610d1982610d09565b80546020858701810191909152909301928101610d56565b60ff191660208087019190915292151560051b85019092019250610d199150839050610d09565b5034610287576040366003190112610287576040610dc9612489565b9160043581526009602052209060018060a01b0316600052602052602060ff604060002054166040519015158152f35b50610e0336612670565b90610e0d836146bb565b83610e1784614617565b80610f2a575b15610eba5750610e436001600160a01b0380610e3886612e67565b169083161415612dc4565b610e4d8333612ee8565b15610e5b5761038792614037565b60405162461bcd60e51b815260206004820152603160248201527f455243333532353a20617070726f76652063616c6c6572206973206e6f74206f6044820152701ddb995c881b9bdc88185c1c1c9bdd9959607a1b6064820152608490fd5b600e54938152601160205260408120549093919290916001600160a01b0316803b1561063057604051638cb0a51160e01b815260048101939093526001600160a01b03909316602483015260448201529082908290818381606481015b03925af1801561030f5761077c57505080f35b50610f3484612bdf565b600c5414610e1d565b50346102875780600319360112610287576008546040516001600160a01b039091168152602090f35b5034610287578060031936011261028757600a546040516001600160a01b039091168152602090f35b5034610287576020366003190112610287576008546040516338f8221760e11b81526004803590820152908290829060249082906001600160a01b03165afa90811561030f57826102e893926102ec57505060405191829160208352602083019061264b565b5034610287576020366003190112610287576020610341611014612473565b612c64565b50346102875760203660031901126102875760206110386004356147b0565b6040516001600160a01b039091168152f35b50346102875780600319360112610287576020600c54604051908152f35b50346102875760203660031901126102875760043560055481101561109c57611092602091612ba4565b5054604051908152f35b60405162461bcd60e51b815260206004820152602360248201527f455243333532353a20676c6f62616c20696e646578206f7574206f6620626f756044820152626e647360e81b6064820152608490fd5b506103876110fa3661269a565b9060405192611108846124e8565b858452612d44565b503461028757806003193601126102875760ff6010541660048110156111f457600381036111725750506102e8604051611149816124cd565b60088152677072696f7269747960c01b602082015260405191829160208352602083019061264b565b8061119e5750506102e8604051611188816124cd565b600481526374696d6560e01b6020820152610d19565b6002141590506111cf576102e86040516111b7816124cd565b6006815265636f756e747360d01b6020820152610d19565b6102e86040516111de816124cd565b60048152630c6c2e6d60e31b6020820152610d19565b634e487b7160e01b82526021600452602482fd5b50346102875760a0366003190112610287576001600160401b0360443560643582811161086a5761123d903690600401612576565b60843583811161063057611255903690600401612576565b600f5493611262856132f6565b600f5582516020809401209182875260139182855260408820878952855260018060408a2001336001600160601b0360a01b82541617905584895283865260408920888a5286528760408a205584895283865260408920888a528652600260408a2001928051928311610618576112d98454612ac4565b601f8111611403575b5086908a601f85116001146113895793604099979593819382936000805160206149208339815191529d9b99979461137e575b50501b916000199060031b1c19161790555b81885280835285882085895283526004356005878a20015581885280835285882085895283526024356004878a20015581885282528487208488528252826003868920015586526014815261054e8385882061325f565b015192503880611315565b50848b52878b209293929190601f1984168c5b8181106113ee5750916000805160206149208339815191529b99979593918560409c9a989694106113d5575b505050811b019055611327565b015160001960f88460031b161c191690553880806113c8565b82840151855593860193928a01928a0161139c565b61142b90858c52888c20601f860160051c8101918a871061060e57601f0160051c0190613305565b386112e2565b5034610287578060031936011261028757602060ff60025416604051908152f35b50346102875760403660031901126102875761146c612489565b336001600160a01b038216036114885761038790600435612a04565b60405162461bcd60e51b815260206004820152602f60248201527f416363657373436f6e74726f6c3a2063616e206f6e6c792072656e6f756e636560448201526e103937b632b9903337b91039b2b63360891b6064820152608490fd5b503461028757602036600319011261028757806004356001600160401b03811161156c57611517903690600401612576565b6008546001600160a01b0316803b15611568576040516355f804b360e01b815260206004820152918391839182908490829061155790602483019061264b565b03925af1801561030f5761077c5750f35b5050fd5b50fd5b5060603660031901126102875760443560243560043561158e82614617565b8061171f575b8015611710575b1561169957836115aa82614617565b80611686575b80611663575b1561161a5750611614836115ec7fdf7a601a0a201ccd4b4bfcfd610913188d931867997223d226f85f2f2673988a958433613f6f565b6115f7818585614209565b604051938493846040919493926060820195825260208201520152565b0390a180f35b600e549093906001600160a01b0316803b1561063057604051630310ed7f60e41b8152600481019390935260248301939093526044820152908290829081838160648101610f17565b5061166d83614617565b80156115b6575061167d83612bdf565b600c54146115b6565b5061169082612bdf565b600c54146115b0565b60a460405162461bcd60e51b815260206004820152604460248201527f546f6b656e204944206f66207265636569766572206e6f74207265636f676e6960448201527f7a6564206279207468697320636f6e7472616374206f722074686520726567696064820152637374727960e01b6084820152fd5b5061171a82614645565b61159b565b5061172982612bdf565b600c5414611594565b50346102875760403660031901126102875761174c612473565b9060243561175983612c64565b81101561178b57604061177d9260209460018060a01b031681526007855220612ed0565b90546040519160031b1c8152f35b60405162461bcd60e51b815260206004820152602260248201527f455243333532353a206f776e657220696e646578206f7574206f6620626f756e604482015261647360f01b6064820152608490fd5b5034610287576040366003190112610287576004356117f8612489565b818352600960205261181060016040852001546126cf565b8183526009602052604083209060018060a01b0316908160005260205260ff604060002054161561183f578280f35b818352600960205260408320816000526020526040600020600160ff1982541617905533917f2f8788117e7eff1d82e926ec794901d17c78024a50270940304540a733656f0d8480a438808280f35b5034610287576020366003190112610287576020610341600435612bdf565b50346102875760203660031901126102875760016040602092600435815260098452200154604051908152f35b5034610287576040366003190112610287576001600160401b036004358181116107a05761190c903690600401612576565b906024359081116107a057611925903690600401612576565b9080516020809201209182845260148252604084206040519081848254918281520191875284872090875b818110611c1d5750505081611966910382612503565b849282810191845b8151811015611a2c57868852601383526040882061198c8284614880565b518952835260a0604089206040516119a3816124b2565b81548152600180841b036001830154168682015260056119c560028401612afe565b9283604084015260038101546060840152600481015460808401520154928391015284815191012086518620149081611a22575b50611a0d575b611a08906132f6565b61196e565b94611a1a611a08916132f6565b9590506119ff565b90504210386119f9565b5092939193611a3a83613aef565b92611a486040519485612503565b808452611a57601f1991613aef565b0182885b828110611be3575050508693875b8151811015611b42578789526013845260408920611a878284614880565b518a5284526040892060405190611a9d826124b2565b8054825260018101546001600160a01b0316868301526005611ac160028301612afe565b9182604085015260038101546060850152600481015460808501520154908160a084015286815191012085518a20149081611b38575b50611b0c575b50611b07906132f6565b611a69565b9590611b3182611b1f611b0794916132f6565b98611b2a828a614880565b5287614880565b5090611afd565b9050421038611af7565b83898660405191838301848452825180915260408401948060408360051b870101940192955b828710611b755785850386f35b909192938280600192603f1989820301855287519081518152848060a01b03838301511683820152611bb5604083015160c080604085015283019061264b565b91606080820151908301526080808201519083015260a0809101519101529601920196019592919092611b68565b604051611bef816124b2565b8a81528a838201528a60608060408401528201528a60808201528a60a0820152828288010152018390611a5b565b825484529286019260019283019201611950565b50610387611c3e3661269a565b91611c51611c4c8433612ee8565b612cdd565b612f59565b50346102875780600319360112610287576020600554604051908152f35b50346102875760e036600319011261028757611c8e612473565b906001600160401b036064358181116107a057611caf903690600401612576565b60843582811161086a57611cc7903690600401612576565b9160a43581811161063057611ce0903690600401612576565b9360c43591821161028757602061034187878787611d013660048a01612576565b9360443590602435906134c7565b503461028757602036600319011261028757600854604051631375d84360e01b81526004803590820152908290829060249082906001600160a01b03165afa90811561030f57826102e893926102ec57505060405191829160208352602083019061264b565b6020610341611d8336612670565b91613b06565b503461028757602090816003193601126102875760043560018060a01b036008541690604051636c0360eb60e01b81528381600481865afa908115610b14578491612043575b508215611e4057508290602460405180948193633601bfc560e11b835260048301525afa918215611e34578092611e19575b5050905b6102e860405192828493845283019061264b565b611e2d92503d8091833e6103008183612503565b3880611e01565b604051903d90823e3d90fd5b80519093925015612008578190807a184f03e93ff9f4daa797ed6e38ed64bf6a1f0100000000000000008181811015611ffa575b5050856d04ee2d6d415b85acef810000000080841015611fec575b5050662386f26fc1000080831015611fdd575b506305f5e10080831015611fce575b5061271080831015611fbf575b506064821015611faf575b600a80921015611fa5575b60019081602181860195611f00611eea88612524565b97611ef8604051998a612503565b808952612524565b878b019890601f1901368a3750860101905b611f6f575b50505050611f5a92611f69926025926040519583611f3e88955180928b8089019101612628565b84019164736c6f742f60d81b8984015251809386840190612628565b01036005810184520182612503565b90611e05565b600019019083906f181899199a1a9b1b9c1cb0b131b232b360811b8282061a835304918215611fa057919082611f12565b611f17565b9160010191611ed4565b9190606460029104910191611ec9565b60049193920491019138611ebe565b60089193920491019138611eb1565b60109193920491019138611ea2565b930192909104908538611e8f565b604094500491503880611e74565b5060405191508282016001600160401b0381118382101761202d576040528152611f69565b634e487b7160e01b600052604160045260246000fd5b61205791503d8086833e6103008183612503565b38611dcf565b50604036600319011261028757612072612473565b602435906001600160a01b03808061208985612e67565b1692169161209981841415612dc4565b803314908115612172575b50156121075782600052600660205260046120c3604060002054612ba4565b500180546001600160a01b031916831790556120de83612e67565b167f8c5be1e5ebec7d5bd14f71427d1e84f3dd0314c0f7b2291e5b200ac8c7c3b925600080a480f35b60405162461bcd60e51b815260206004820152603960248201527f455243333532353a20617070726f76652063616c6c6572206973206e6f74206f60448201527f776e6572206e6f7220617070726f76656420666f7220616c6c000000000000006064820152608490fd5b905084526007602052600260408520013360005260205260ff60406000205416386120a4565b5034610287576020366003190112610287576020611038600435612ea0565b5034610287578060031936011261028757604051600080546121d881612ac4565b80845290600190818116908115610d865750600114612201576102e884610d1981860382612503565b600080805292507f290decd9548b62a8d60345a988386fc84ba6bc95484008f6362f93160ef3e5635b828410612242575050508101602001610d1982610d09565b8054602085870181019190915290930192810161222a565b50346102875761226936612594565b95919360ff600298929698541660018060a01b03600e541692604d821161240a5781600a0a156123f657604051630bbed13160e21b81526001600160a01b0391909116600482015260248101949094526044840198909852600a9790970a9096046064820152948691906020908790608490829086905af195861561030f5782966123c2575b50600354956122fd876132f6565b600355868352601160205260408320556008546001600160a01b031690813b156107a057829161235191604051948580948193632108947560e21b83528c600484015260406024840152604483019061264b565b03925af18015610b78576123ab575b5060085485939291906001600160a01b0316803b15610630576109fe859291839260405194858094819363246a908b60e01b83528c600484015260406024840152604483019061264b565b6123b990959193929561249f565b93909138612360565b9095506020813d6020116123ee575b816123de60209383612503565b81010312610add575194386122ef565b3d91506123d1565b634e487b7160e01b8b52601260045260248bfd5b634e487b7160e01b8b52601160045260248bfd5b905034610add576020366003190112610add5760043563ffffffff60e01b81168091036107a05760209250637965db0b60e01b8114908115612462575b5015158152f35b6301ffc9a760e01b1490503861245b565b600435906001600160a01b0382168203610b6b57565b602435906001600160a01b0382168203610b6b57565b6001600160401b03811161202d57604052565b60c081019081106001600160401b0382111761202d57604052565b604081019081106001600160401b0382111761202d57604052565b602081019081106001600160401b0382111761202d57604052565b90601f801991011681019081106001600160401b0382111761202d57604052565b6001600160401b03811161202d57601f01601f191660200190565b92919261254b82612524565b916125596040519384612503565b829481845281830111610b6b578281602093846000960137010152565b9080601f83011215610b6b578160206125919335910161253f565b90565b610100600319820112610b6b576004356001600160a01b0381168103610b6b57916024359160443591606435916001600160401b0390608435828111610b6b57816125e191600401612576565b9260a435838111610b6b57826125f991600401612576565b9260c435818111610b6b578361261191600401612576565b9260e435918211610b6b5761259191600401612576565b60005b83811061263b5750506000910152565b818101518382015260200161262b565b9060209161266481518092818552858086019101612628565b601f01601f1916010190565b6060906003190112610b6b57600435906024356001600160a01b0381168103610b6b579060443590565b6060906003190112610b6b576001600160a01b03906004358281168103610b6b57916024359081168103610b6b579060443590565b60009080825260209060098252604092838120338252835260ff8482205416156126f95750505050565b8351916001600160401b03903360608501838111868210176129f0578752602a855285850191873684378551156129dc57603083538551916001928310156129c8576078602188015360295b83811161295e575061291c5790875193608085019085821090821117612908578852604284528684019460603687378451156128f4576030865384518210156128f45790607860218601536041915b8183116128865750505061284457612840938693612824936128156048946127ec9a519a8b957f416363657373436f6e74726f6c3a206163636f756e74200000000000000000008c8801525180926037880190612628565b8401917001034b99036b4b9b9b4b733903937b6329607d1b603784015251809386840190612628565b01036028810187520185612503565b5192839262461bcd60e51b84526004840152602483019061264b565b0390fd5b60648587519062461bcd60e51b825280600483015260248201527f537472696e67733a20686578206c656e67746820696e73756666696369656e746044820152fd5b909192600f811660108110156128e0576f181899199a1a9b1b9c1cb0b131b232b360811b901a6128b68588612a9d565b5360041c9280156128cc57600019019190612794565b634e487b7160e01b82526011600452602482fd5b634e487b7160e01b83526032600452602483fd5b634e487b7160e01b81526032600452602490fd5b634e487b7160e01b86526041600452602486fd5b60648789519062461bcd60e51b825280600483015260248201527f537472696e67733a20686578206c656e67746820696e73756666696369656e746044820152fd5b90600f811660108110156129b4576f181899199a1a9b1b9c1cb0b131b232b360811b901a61298c838a612a9d565b5360041c9080156129a05760001901612745565b634e487b7160e01b87526011600452602487fd5b634e487b7160e01b88526032600452602488fd5b634e487b7160e01b86526032600452602486fd5b634e487b7160e01b85526032600452602485fd5b634e487b7160e01b85526041600452602485fd5b906000918083526009602052604083209160018060a01b03169182845260205260ff604084205416612a3557505050565b8083526009602052604083208284526020526040832060ff1981541690557ff6391f5c32d9c69d2a47ea670b442974b53935d1edc7fd64eb21e047a839171b339380a4565b91908201809211612a8757565b634e487b7160e01b600052601160045260246000fd5b908151811015612aae570160200190565b634e487b7160e01b600052603260045260246000fd5b90600182811c92168015612af4575b6020831014612ade57565b634e487b7160e01b600052602260045260246000fd5b91607f1691612ad3565b9060405191826000825492612b1284612ac4565b908184526001948581169081600014612b815750600114612b3e575b5050612b3c92500383612503565b565b9093915060005260209081600020936000915b818310612b69575050612b3c93508201013880612b2e565b85548884018501529485019487945091830191612b51565b915050612b3c94506020925060ff191682840152151560051b8201013880612b2e565b600554811015612aae576006906005600052027f036b6384b5eca791c62761152d0c79bb0604c104a5fb6f4eb0703f3154bb3db00190600090565b612be8816146bb565b60005260066020526001612c00604060002054612ba4565b50015490565b602081830312610b6b578051906001600160401b038211610b6b570181601f82011215610b6b578051612c3881612524565b92612c466040519485612503565b81845260208284010111610b6b576125919160208085019101612628565b6001600160a01b03168015612c8457600052600760205260406000205490565b60405162461bcd60e51b815260206004820152602b60248201527f455243333532353a2062616c616e636520717565727920666f7220746865207a60448201526a65726f206164647265737360a81b6064820152608490fd5b15612ce457565b60405162461bcd60e51b815260206004820152603260248201527f455243333532353a207472616e736665722063616c6c6572206973206e6f74206044820152711bdddb995c881b9bdc88185c1c1c9bdd995960721b6064820152608490fd5b90612d68939291612d58611c4c8433612ee8565b612d63838383612f59565b6133a0565b15612d6f57565b60405162461bcd60e51b815260206004820152602760248201527f455243333532353a207472616e7366657220746f206e6f6e204552433732315260448201526632b1b2b4bb32b960c91b6064820152608490fd5b15612dcb57565b60405162461bcd60e51b815260206004820152602260248201527f455243333532353a20617070726f76616c20746f2063757272656e74206f776e60448201526132b960f11b6064820152608490fd5b15612e2257565b60405162461bcd60e51b815260206004820152601960248201527f455243333532353a20696e76616c696420746f6b656e204944000000000000006044820152606490fd5b612e70816146bb565b6000526006602052612e86604060002054612ba4565b50600301546001600160a01b031690612b3c821515612e1b565b612ea9816146bb565b6000526006602052612ebf604060002054612ba4565b50600401546001600160a01b031690565b8054821015612aae5760005260206000200190600090565b906001600160a01b038080612efc84612e67565b16931691838314938415612f2f575b508315612f19575b50505090565b612f2591929350612ea0565b1614388080612f13565b909350600052600760205260026040600020018260005260205260ff604060002054169238612f0b565b612f6283612e67565b6001600160a01b03918216919081168290036131ed5780831692831561319a57612f8b85612bdf565b50612f958561323e565b5060009185835260209060068252604090612fb282862054612ba4565b50600490810180546001600160a01b03199081169091559091898782612fd783612e67565b167f8c5be1e5ebec7d5bd14f71427d1e84f3dd0314c0f7b2291e5b200ac8c7c3b9258280a489875260068552600561301185892054612ba4565b500180549091858988818f5b868410613163575050505050505080548782558061314a575b505088865260068452600361304d84882054612ba4565b5001908154169055858552600783528185209182549360001994858101908111613137579061307e88939286612ed0565b90549060031b1c9060018601908c855281815283852054926130bf816130a4868b612ed0565b90919082549060031b600019811b9283911b16911916179055565b855252818320558982528120558154908115613124575092828892613120947fddf252ad1be2c89b69c2b068fc378daa952ba7f163c4a11628f55a4df523b3ef9796019161310d8383612ed0565b909182549160031b1b1916905555613282565b80a4565b634e487b7160e01b865260319052602485fd5b634e487b7160e01b885260118452602488fd5b61315c91885285882090810190613305565b3880613036565b6131909486928b613174878c612ed0565b96905494835252209260031b1c168c5289528a888120556132f6565b8690888b8f61301d565b60405162461bcd60e51b815260206004820152602560248201527f455243333532353a207472616e7366657220746f20746865207a65726f206164604482015264647265737360d81b6064820152608490fd5b60405162461bcd60e51b8152602060048201526024808201527f455243333532353a207472616e736665722066726f6d20696e76616c6964206f6044820152633bb732b960e11b6064820152608490fd5b613247816146bb565b60005260066020526002612c00604060002054612ba4565b90815491600160401b83101561202d57826130a4916001612b3c95018155612ed0565b906040612b3c92600090838252600660205260036132a284842054612ba4565b500180546001600160a01b0319166001600160a01b03909216918217905580825260076020818152848420805487865260019190910182528585205591835290522061325f565b91908203918211612a8757565b6000198114612a875760010190565b818110613310575050565b60008155600101613305565b90600160401b811161202d5781549080835581811061333a57505050565b612b3c9260005260206000209182019101613305565b90816020910312610b6b57516001600160e01b031981168103610b6b5790565b3d1561339b573d9061338182612524565b9161338f6040519384612503565b82523d6000602084013e565b606090565b9192813b63ffffffff16156134be576020916133f8916000604051958680958194630a85bd0160e11b9a8b845233600485015260018060a01b038095166024850152604484015260806064840152608483019061264b565b0393165af16000918161348e575b5061348057613413613370565b8051908161347b5760405162461bcd60e51b815260206004820152603260248201527f4552433732313a207472616e7366657220746f206e6f6e20455243373231526560448201527131b2b4bb32b91034b6b83632b6b2b73a32b960711b6064820152608490fd5b602001fd5b6001600160e01b0319161490565b6134b091925060203d81116134b7575b6134a88183612503565b810190613350565b9038613406565b503d61349e565b50505050600190565b95909394919460009260018060a01b0391828916958686526015602052604096878720898852602052878720548781151580613a7c575b613a32575b6139c857506003549a6135158c6132f6565b600355811561397a578b1561392c5761352d8c614617565b801561391d575b6138d9578851613543816124e8565b88815289518a8e613553836124b2565b8083528d60208401908152828401908d82528d6060860193898552608087019582875260a08801988952600554928392815260066020522055600160401b8110156138c5578060016135a89201600555612ba4565b9590956138b15751855551600185015551600284015551600383018054918b166001600160a01b03199283161790559051600483018054918b16919092161790559051805191600501906001600160401b03831161389d579060208f95949392613612848461331c565b01908b5260208b208b5b83811061387a57505050508261363191613282565b877fddf252ad1be2c89b69c2b068fc378daa952ba7f163c4a11628f55a4df523b3ef8180a487868b7fe4f48c240d3b994948aa54f3e2f5fca59263dfe1d52b6e4cf39a5d249b5ccb658280a4613687898b613a9a565b8360085416803b15613876576136c391879189838e825196879586948593632108947560e21b855260048501526024840152604483019061264b565b03925af1801561386c57613859575b508260085416803b1561062c5761370e9186918b838a5180968195829463246a908b60e01b845260048401528d6024840152604483019061264b565b03925af1801561384f5790859161383b575b50508160085416803b156106305761375d9185918a838951809681958294630190503b60e61b845260048401528c6024840152604483019061264b565b03925af180156138315790849161381d575b50506008541690813b156107a0576137ac839283928651948580948193637e468a5160e01b83528d60048401528a6024840152604483019061264b565b03925af18015613813576137ff575b505051838152602081019190915260408101919091527f84eeb48eca46cea54afc9753345f6038981672ea565f32885420829dfd88aea69080606081015b0390a190565b613809829161249f565b61028757806137bb565b83513d84823e3d90fd5b6138269061249f565b6107a057823861376f565b85513d86823e3d90fd5b6138449061249f565b61086a578338613720565b86513d87823e3d90fd5b6138659095919561249f565b93386136d2565b87513d88823e3d90fd5b8680fd5b82939495965060208b6001939451169401938184015501908f959493929161361c565b634e487b7160e01b8b52604160045260248bfd5b634e487b7160e01b8f5260048f905260248ffd5b634e487b7160e01b8f52604160045260248ffd5b885162461bcd60e51b815260206004820152601d60248201527f455243333532353a20746f6b656e20616c7265616479206d696e7465640000006044820152606490fd5b506139278c614645565b613534565b885162461bcd60e51b815260206004820152602160248201527f455243333532353a2063616e6e6f74206d696e74207a65726f20746f6b656e496044820152601960fa1b6064820152608490fd5b885162461bcd60e51b815260206004820152602160248201527f455243333532353a206d696e7420746f20746865207a65726f206164647265736044820152607360f81b6064820152608490fd5b9a5050505050505050906137f97f84eeb48eca46cea54afc9753345f6038981672ea565f32885420829dfd88aea69392613a0186612e67565b50613a0b86612bdf565b50613a168487613a9a565b5192839286846040919493926060820195825260208201520152565b8287613a3d846147b0565b161480613a6b575b80613a58575b1561350357506001613503565b5081895260116020528989205415613a4b565b508a613a7683612bdf565b14613a45565b50613a8682614617565b806134fe5750613a9582614645565b6134fe565b907f0b2aac84f3ec956911fd78eae5311062972ff949f38412e8da39069d9f068cc66020600092848452600682526002613ad76040862054612ba4565b5001613ae4828254612a7a565b9055604051908152a3565b6001600160401b03811161202d5760051b60200190565b919091600090808252602091601183526040928382205415600014613e8c57613b30858433613f6f565b60035495613b3d876132f6565b600355613b4984612bdf565b906001600160a01b0380821691908215613e3e578915613df057613b6c8a614617565b8015613de1575b613d9d5784908851613b84816124e8565b8781528951888b8e613b95846124b2565b8084528684018a81528285019184835260608601938b8552608087019580875260a0880198895260066005549b8c948352522055600160401b881015613d8957613be6600198898101600555612ba4565b959095613d7557906005959493929151855551888501555160028401558560038401915116906001600160601b0360a01b9182825416179055856004840192511690825416179055019051918251926001600160401b03841161061857908883928f9b9a99989796959485613c5a9161331c565b0191895287892090895b848110613d5f575050505050507f6d811e6a20ae5461a4ef22a6998c1d958defe727f1cc522b6eb792bc8e6f726698979693869384613d429794613ccc6137f99a7f0b2aac84f3ec956911fd78eae5311062972ff949f38412e8da39069d9f068cc696613282565b857fddf252ad1be2c89b69c2b068fc378daa952ba7f163c4a11628f55a4df523b3ef8180a483857fe4f48c240d3b994948aa54f3e2f5fca59263dfe1d52b6e4cf39a5d249b5ccb658280a483835260068152613d2a88842054612ba4565b50508751838152a3613d3d858883614209565b612bdf565b915192839286846040919493926060820195825260208201520152565b83518216818401558f9b50928901928501613c64565b634e487b7160e01b8e5260048e905260248efd5b634e487b7160e01b8d52604160045260248dfd5b875162461bcd60e51b815260048101869052601d60248201527f455243333532353a20746f6b656e20616c7265616479206d696e7465640000006044820152606490fd5b50613deb8a614645565b613b73565b875162461bcd60e51b815260048101869052602160248201527f455243333532353a2063616e6e6f74206d696e74207a65726f20746f6b656e496044820152601960fa1b6064820152608490fd5b875162461bcd60e51b815260048101869052602160248201527f455243333532353a206d696e7420746f20746865207a65726f206164647265736044820152607360f81b6064820152608490fd5b600e5484516307a42e0160e11b8152600481018590526001600160a01b0397881660248201526044810187905291969192918791849160649183918691165af1958615613f63578196613f0c575b505050906137f9613d427f6d811e6a20ae5461a4ef22a6998c1d958defe727f1cc522b6eb792bc8e6f72669493612bdf565b909180939650813d8311613f5c575b613f258183612503565b81010312610287575051926137f9613d427f6d811e6a20ae5461a4ef22a6998c1d958defe727f1cc522b6eb792bc8e6f7266613eda565b503d613f1b565b508351903d90823e3d90fd5b613f798183614009565b613f838383612ee8565b1580613ffd575b613f95575b50505050565b838110613fb857613faf93613fa9916132e9565b91614037565b38808080613f8f565b60405162461bcd60e51b815260206004820152601f60248201527f455243333532353a20696e73756666696369656e7420616c6c6f77616e6365006044820152606490fd5b50600019811415613f8a565b614012816146bb565b600052600460205260406000209060018060a01b031660005260205260406000205490565b6001600160a01b038083169391928415614120578361405591614178565b156140a3575b5060207f621b050de0ad08b51d19b48b3e6df75348c4de6bdd93e81b252ca62e28265b1b918360005260048252604060002085600052825280604060002055604051908152a3565b9082600052600660205260056140bd604060002054612ba4565b500190815492600160401b84101561202d57856141038560209560017f621b050de0ad08b51d19b48b3e6df75348c4de6bdd93e81b252ca62e28265b1b98018155612ed0565b909283549160031b90811b9283911b16911916179055915061405b565b60405162461bcd60e51b815260206004820152602a60248201527f455243333532353a20617070726f76652076616c756520746f20746865207a65604482015269726f206164647265737360b01b6064820152608490fd5b600090828252600660209080825260409061419582862054612ba4565b509260058094015496865b8881106141b35750505050505050905090565b8188528383526141d181876141ca888c2054612ba4565b5001612ed0565b905460039190911b1c6001600160a01b03908116908816146141fb576141f6906132f6565b6141a0565b505050505050505050600190565b61421281614617565b80156144b1575b1561445c5761422782614617565b801561444d575b156143fa57806000526020926006845260409261424e8460002054612ba4565b5081600052600686526142648560002054612ba4565b509060028101908154908582106143a357600101546001840154036143485791600291614297866142e6989796956132e9565b9055016142a5838254612a7a565b905580837f0b2aac84f3ec956911fd78eae5311062972ff949f38412e8da39069d9f068cc6888851868152a38451926142dd846124e8565b600084526144d8565b156142ef575050565b60849250519062461bcd60e51b82526004820152602d60248201527f455243333532353a207472616e736665722072656a656374656420627920455260448201526c21999a991aa932b1b2b4bb32b960991b6064820152fd5b865162461bcd60e51b815260048101899052602e60248201527f455243333532353a207472616e7366657220746f20746f6b656e20776974682060448201526d191a5999995c995b9d081cdb1bdd60921b6064820152608490fd5b875162461bcd60e51b8152600481018a9052602a60248201527f455243333532353a20696e73756666696369656e742062616c616e636520666f60448201526939103a3930b739b332b960b11b6064820152608490fd5b60405162461bcd60e51b815260206004820152602560248201527f455243333532353a207472616e7366657220746f20696e76616c696420746f6b604482015264195b88125160da1b6064820152608490fd5b5061445782614645565b61422e565b60405162461bcd60e51b815260206004820152602760248201527f455243333532353a207472616e736665722066726f6d20696e76616c696420746044820152661bdad95b88125160ca1b6064820152608490fd5b506144bb81614645565b614219565b90816020910312610b6b57518015158103610b6b5790565b9290926144e484612e67565b803b63ffffffff161561460d576040516301ffc9a760e01b8152629ce20b60e01b6004820181905295602095926001600160a01b0316918681602481865afa600091816145de575b50614547575050505050505050614541613370565b50600190565b156145d25760008694614586604051978896879586948d865233600487015260248601526044850152606484015260a0608484015260a483019061264b565b03925af19182156145c6576000926145a9575b50506001600160e01b0319161490565b6145bf9250803d106134b7576134a88183612503565b3880614599565b6040513d6000823e3d90fd5b50505050505050600190565b6145ff919250883d8a11614606575b6145f78183612503565b8101906144c0565b903861452c565b503d6145ed565b5050505050600190565b60055415159081614626575090565b809150600052600660205261463f604060002054612ba4565b50541490565b8060005260116020526040600020541590811591614661575090565b600e546040516341ce4b3f60e01b81526004810192909252909150602090829060249082906001600160a01b03165afa9081156145c6576000916146a3575090565b612591915060203d8111614606576145f78183612503565b612b3c906146c881614617565b9081156146ed575b81156146dd575b50612e1b565b6146e79150614645565b386146d7565b90506146f881614645565b906146d0565b614707816146bb565b61471081614617565b8061479d575b15614724576125919061323e565b600090815260116020526040812054602060018060a01b03600e541691602460405180948193631398fee160e31b835260048301525afa918215611e3457809261476d57505090565b9091506020823d8211614795575b8161478860209383612503565b8101031261028757505190565b3d915061477b565b506147a781612bdf565b600c5414614716565b6147b9816146bb565b6147c281614617565b8061486d575b156147d65761259190612e67565b60018060a01b0380600e54169160009081526011602052602060408220546024604051809681936331a9108f60e11b835260048301525afa9283156148605781936148215750505090565b909192506020813d8211614858575b8161483d60209383612503565b81010312610add575191821682036102875750388080612f13565b3d9150614830565b50604051903d90823e3d90fd5b5061487781612bdf565b600c54146147c8565b8051821015612aae5760209160051b010190565b9061489e826146bb565b6148a782614617565b8061490c575b156148bb5761259191614009565b602060018060a01b0391604483600e541660009586526011845260408620549060405195869485936338d1782f60e21b855260048501521660248301525afa918215611e3457809261476d57505090565b5061491682612bdf565b600c54146148ad56fe519b8a896d3cf44bd2d0545987d41a13bfb2ba37ce6ce401c753218178535608a2646970667358221220ad74452796ea8955b954bc88a965f43625b161377480351f26857f8f325301c564736f6c634300081100336080604052346200048657620020c5803803806200001d816200048b565b9283398101608082820312620004865781516001600160401b0391908281116200048657816200004f918501620004b1565b91602092838501518281116200048657836200006d918701620004b1565b92604086015183811162000486576060916200008b918801620004b1565b9501516001600160a01b03811695908690036200048657815193838511620002c3576001948554938685811c951680156200047b575b88861014620002a2578190601f9586811162000425575b508890868311600114620003bd57600092620003b1575b5050600019600383901b1c191690861b1785555b805190848211620002c357600254908682811c92168015620003a6575b88831014620002a25781858493116200034f575b508790858311600114620002e557600092620002d9575b5050600019600383901b1c191690851b176002555b8051928311620002c35760039485548581811c91168015620002b8575b82821014620002a25783811162000257575b5080928411600114620001ed5750928293918392600094620001e1575b50501b9160001990841b1c19161790555b600080546001600160a01b031916919091179055604051611ba19081620005248239f35b015192503880620001ac565b919083601f1981168760005284600020946000905b888383106200023c575050501062000223575b505050811b019055620001bd565b015160001983861b60f8161c1916905538808062000215565b85870151885590960195948501948793509081019062000202565b86600052816000208480870160051c82019284881062000298575b0160051c019086905b8281106200028b5750506200018f565b600081550186906200027b565b9250819262000272565b634e487b7160e01b600052602260045260246000fd5b90607f16906200017d565b634e487b7160e01b600052604160045260246000fd5b0151905038806200014b565b90879350601f198316916002600052896000209260005b8b8282106200033857505084116200031e575b505050811b0160025562000160565b015160001960f88460031b161c191690553880806200030f565b8385015186558b97909501949384019301620002fc565b9091506002600052876000208580850160051c8201928a86106200039c575b918991869594930160051c01915b8281106200038c57505062000134565b600081558594508991016200037c565b925081926200036e565b91607f169162000120565b015190503880620000ef565b90889350601f19831691846000528a6000209260005b8c8282106200040e5750508411620003f4575b505050811b01855562000103565b015160001960f88460031b161c19169055388080620003e6565b8385015186558c97909501949384019301620003d3565b90915087600052886000208680850160051c8201928b861062000471575b918a91869594930160051c01915b82811062000461575050620000d8565b600081558594508a910162000451565b9250819262000443565b94607f1694620000c1565b600080fd5b6040519190601f01601f191682016001600160401b03811183821017620002c357604052565b919080601f84011215620004865782516001600160401b038111620002c357602090620004e7601f8201601f191683016200048b565b92818452828287010111620004865760005b8181106200050f57508260009394955001015290565b8581018301518482018401528201620004f956fe608060408181526004908136101561001657600080fd5b600092833560e01c9081631375d843146113cd57508063246a908b146112cf57806355f804b31461118b57806364140ec01461108c5780636c0360eb14610fcd5780636c037f8a14610d0f57806371f0442e14610c7b578063725fa09c146108c05780637e468a51146107c1578063842251d414610685578063894b4c2e146101755763b3154c08146100a857600080fd5b34610171576020918260031936011261016d5780358452825280832091815192848154906100d5826118ef565b80875292600192808416908115610149575060011461010e575b61010a8787610100828c03836114e3565b5191829182611485565b0390f35b9080949750528583205b828410610136575050508261010a94610100928201019438806100ef565b8054868501880152928601928101610118565b60ff19168887015250505050151560051b83010192506101008261010a38806100ef565b8380fd5b8280fd5b50903461017157602092836003193601126106825782516306fdde0360e01b81529180359082848281335afa938415610678578394610654575b506101b9826117ac565b926102056022875180968a6101d78184019a8b815193849201611462565b820161202360f01b8c8201526101f68c83519384918785019101611462565b010360028101875201856114e3565b828152818752858120865181549391899184610220876118ef565b80835284830193600198868a821691826000146106345750506001146105fb575b505090610254816102c9949303826114e3565b6102e561026030611a28565b898852600686526102d78d808a209a60058952818b2091519788948a86019a6102ac61028b8d611929565b91692f636f6e74726163742f60b01b83528351938491600a85019101611462565b019c6011662f746f6b656e2f60c81b9e8f600a82015201906119a5565b602f60f81b815201906119a5565b03601f1981018552846114e3565b8a51631398fee160e31b81528581018990528c81602481335afa80156105c25787906105cc575b61031691506117ac565b8b5163131f9f3f60e11b8152958601899052948c81602481335afa9081156105c2578d918d918991610589575b5061034d906117ac565b9761035733611a28565b9a815260068352208c51713d91383937b832b93a34b2b9afbab934911d60711b818401908152601160f91b60328301529a90998a93909161039a60338601611929565b9068636f6e74726163742f60b81b825280518093600984019201916103be92611462565b019060098201526010016103d1916119a5565b6f17b83937b832b93a34b2b9973539b7b760811b815261227d60f01b601082015203600d198101885260120161040790886114e3565b8a51998a998d683d913730b6b2911d1160b91b908c015251908160298c0161042e92611462565b890190701116113232b9b1b934b83a34b7b7111d1160791b6029830152519182603a830161045b92611462565b01906a11161134b6b0b3b2911d1160a91b603a8301525191826045830161048192611462565b016c1116113130b630b731b2911d1160991b6045820152815191828a605284019201916104ad92611462565b016911161139b637ba111d1160b11b60528201528151918289605c84019201916104d692611462565b01906e111611383937b832b93a34b2b9911d60891b605c830152519182606b830161050092611462565b01606b8101607d60f81b905203604c81018252606c0161052090826114e3565b61052990611631565b81517f646174613a6170706c69636174696f6e2f6a736f6e3b6261736536342c00000084820152815190938492610567918391603d86019101611462565b810103601d81018352603d0161057d90836114e3565b5161010a819282611485565b928092508391503d83116105bb575b6105a281836114e3565b810103126105b7578b61034d8e925190610343565b8680fd5b503d610598565b8c513d89823e3d90fd5b508c81813d83116105f4575b6105e281836114e3565b810103126105b757610316905161030c565b503d6105d8565b8592508752818720908888925b82841061061e5750505082010161025482610241565b80548487018601528794909301928a9101610608565b60ff1916875292151560051b850190920192506102549150839050610241565b6106719194503d8085833e61066981836114e3565b8101906115a0565b92386101af565b85513d85823e3d90fd5b80fd5b508290346107bd576106963661156d565b939083526020916006835283209184519167ffffffffffffffff83116107aa57506106c183546118ef565b601f8111610767575b5080601f831160011461070557508394829394926106fa575b50508160011b916000199060031b1c191617905580f35b0151905084806106e3565b90601f198316958486528286209286905b88821061074f57505083600195969710610736575b505050811b01905580f35b015160001960f88460031b161c1916905584808061072b565b80600185968294968601518155019501930190610716565b838552818520601f840160051c8101918385106107a0575b601f0160051c01905b81811061079557506106ca565b858155600101610788565b909150819061077f565b634e487b7160e01b855260419052602484fd5b5080fd5b508290346107bd576107d23661156d565b939083526020916007835283209184519167ffffffffffffffff83116107aa57506107fd83546118ef565b601f811161087d575b5080601f831160011461083557508394829394926106fa5750508160011b916000199060031b1c191617905580f35b90601f198316958486528286209286905b8882106108655750508360019596971061073657505050811b01905580f35b80600185968294968601518155019501930190610846565b838552818520601f840160051c8101918385106108b6575b601f0160051c01905b8181106108ab5750610806565b85815560010161089e565b9091508190610895565b50913461068257806003193601126106825782516306fdde0360e01b815281818481335afa908115610c71578291610c57575b508351829060025492610905846118ef565b9586835260209683888101956001978a8982169182600014610c3c575050600114610be1575b610937925003846114e3565b61094033611a28565b9588519586898101986109528a611929565b68636f6e74726163742f60b81b81526109758c8351938491600985019101611462565b01602f60f81b600982015283906003549361098f856118ef565b94818116908115610bc05750600114610b61575b50506109b8925003601f1981018852876114e3565b8789518093633e7e866960e01b825281335afa918215610b55578192610b17575b5050610ac9605a888a61010a9b9961010099610a7f603d9a610b079e9a610a5c610ace9b610a0c60ff610a329d166117ac565b97519b8c99683d913730b6b2911d1160b91b818c0152825192839160298d019101611462565b880191701116113232b9b1b934b83a34b7b7111d1160791b6029840152518093603a840190611462565b01916a11161134b6b0b3b2911d1160a91b603a8401525180936045840190611462565b01721116113b30b63ab2a232b1b4b6b0b639911d1160691b6045820152610aaf825180938a605885019101611462565b0161227d60f01b605882015203603a8101845201826114e3565b611631565b845195827f646174613a6170706c69636174696f6e2f6a736f6e3b6261736536342c000000889485015282519283918686019101611462565b810103601d8101855201836114e3565b9091508781813d8311610b4e575b610b2f81836114e3565b810103126107bd57519060ff821682036106825750610ac9605a6109d9565b503d610b25565b508851903d90823e3d90fd5b6003865290915084908c7fc2575a0e9e593c00f959f8c92f12db2869c3395a3b0502d05e2516446f71f85b5b868410610ba857505050506109b892600a91010138806109a3565b8054858501600a01528c95509201918d908201610b8d565b9050600a93506109b895915060ff19168383015280151502010138806109a3565b505060028752838888887f405787fa12a823e0f2b7631cc41b3ba8828b3321ca811111fa75cd3aa3bb5ace5b858310610c23575050610937935082010161092b565b80919294505483858a0101520191018990888793610c0d565b60ff1916895261093794151560051b840101915061092b9050565b610c6b91503d8084833e61066981836114e3565b386108f3565b84513d84823e3d90fd5b5034610171576020918260031936011261016d57358352600582528083209181519284815490610caa826118ef565b808752926001928084169081156101495750600114610cd45761010a8787610100828c03836114e3565b9080949750528583205b828410610cfc575050508261010a94610100928201019438806100ef565b8054868501880152928601928101610cde565b5090346101715760209283600319360112610682578054835163ec327a2160e01b815283358185018190529092916001600160a01b0316908284602481855afa938415610fc3578394610fa7575b50855163bc74ebb960e01b8152858101829052948386602481865afa958615610f9d578496610f81575b5086516309c3dd8760e01b80825282820184905290938585602481845afa948515610f7757918a9594939187938496610f56575b5090602491610dfb60268d518a652f696d61676560d01b81610de7849e85019d8e815193849201611462565b83019182015203600681018b5201896114e3565b8b51958694859384528301525afa938415610f4b578094610f2e575b50508551918288808201868197519283910191610e3392611462565b81018981016f17b83937b832b93a34b2b9973539b7b760811b905203601081018452603001610e6290846114e3565b8651958695683d913730b6b2911d1160b91b8a880152805190818b60298a01920191610e8d92611462565b8601701116113232b9b1b934b83a34b7b7111d1160791b6029820152815191828b603a8401920191610ebe92611462565b01906a11161134b6b0b3b2911d1160a91b603a83015251918260458301610ee492611462565b01906e111611383937b832b93a34b2b9911d60891b604583015251918260548301610f0e92611462565b0160548101607d60f81b90520360358101825260550161052090826114e3565b610f439294503d8091833e61066981836114e3565b913880610e17565b8751903d90823e3d90fd5b602492919650610f6f903d8087833e61066981836114e3565b959091610dbb565b89513d88823e3d90fd5b610f969196503d8086833e61066981836114e3565b9438610d87565b87513d86823e3d90fd5b610fbc9194503d8085833e61066981836114e3565b9238610d5d565b86513d85823e3d90fd5b8382346107bd57816003193601126107bd57805190826001805491610ff1836118ef565b80865292828116908115611064575060011461101a575b5050506101008261010a9403836114e3565b9450808552600080516020611b4c8339815191525b82861061104c5750505061010082602061010a9582010194611008565b8054602087870181019190915290950194810161102f565b61010a97508693506020925061010094915060ff191682840152151560051b82010194611008565b508290346107bd5761109d3661156d565b939083526020916005835283209184519167ffffffffffffffff83116107aa57506110c883546118ef565b601f8111611148575b5080601f831160011461110057508394829394926106fa5750508160011b916000199060031b1c191617905580f35b90601f198316958486528286209286905b8882106111305750508360019596971061073657505050811b01905580f35b80600185968294968601518155019501930190611111565b838552818520601f840160051c810191838510611181575b601f0160051c01905b81811061117657506110d1565b858155600101611169565b9091508190611160565b828434610682576020806003193601126107bd5767ffffffffffffffff833581811161016d576111be9036908601611521565b9384519182116112bc57506001916111d683546118ef565b601f811161126a575b5080601f8311600114611219575083948293949261120e575b5050600019600383901b1c191690821b17905580f35b0151905084806111f8565b838552601f19831695600080516020611b4c833981519152929186905b888210611253575050838596971061073657505050811b01905580f35b808785968294968601518155019501930190611236565b838552600080516020611b4c833981519152601f840160051c8101918385106112b2575b601f0160051c019084905b8281106112a75750506111df565b868155018490611299565b909150819061128e565b634e487b7160e01b845260419052602483fd5b508290346107bd576112e03661156d565b9390835260209181835283209184519167ffffffffffffffff83116107aa575061130a83546118ef565b601f811161138a575b5080601f831160011461134257508394829394926106fa5750508160011b916000199060031b1c191617905580f35b90601f198316958486528286209286905b8882106113725750508360019596971061073657505050811b01905580f35b80600185968294968601518155019501930190611353565b838552818520601f840160051c8101918385106113c3575b601f0160051c01905b8181106113b85750611313565b8581556001016113ab565b90915081906113a2565b9290503461016d576020908160031936011261145e57358452600681528184208054856113f9826118ef565b8087529260019280841690811561014957506001146114235761010a8787610100828c03836114e3565b9080949750528583205b82841061144b575050508261010a94610100928201019438806100ef565b805486850188015292860192810161142d565b8480fd5b60005b8381106114755750506000910152565b8181015183820152602001611465565b604091602082526114a58151809281602086015260208686019101611462565b601f01601f1916010190565b6060810190811067ffffffffffffffff8211176114cd57604052565b634e487b7160e01b600052604160045260246000fd5b90601f8019910116810190811067ffffffffffffffff8211176114cd57604052565b67ffffffffffffffff81116114cd57601f01601f191660200190565b81601f820112156115685780359061153882611505565b9261154660405194856114e3565b8284526020838301011161156857816000926020809301838601378301015290565b600080fd5b90604060031983011261156857600435916024359067ffffffffffffffff82116115685761159d91600401611521565b90565b6020818303126115685780519067ffffffffffffffff8211611568570181601f820112156115685780516115d381611505565b926115e160405194856114e3565b818452602082840101116115685761159d9160208085019101611462565b9061160982611505565b61161660405191826114e3565b8281528092611627601f1991611505565b0190602036910137565b8051156117875760405190611645826114b1565b604082527f4142434445464748494a4b4c4d4e4f505152535455565758595a61626364656660208301527f6768696a6b6c6d6e6f707172737475767778797a303132333435363738392b2f60408301528051600291828201809211611771576003918290046001600160fe1b0381168103611771576116c7908495941b6115ff565b936020850193829183518401906020820192835194600085525b83811061172057505050505251068060011461170d57600214611702575090565b603d90600019015390565b50603d9081600019820153600119015390565b87600491999293949901918251600190603f9082828260121c16880101518453828282600c1c16880101518385015382828260061c16880101518885015316850101518982015301979291906116e1565b634e487b7160e01b600052601160045260246000fd5b506040516020810181811067ffffffffffffffff8211176114cd576040526000815290565b806000917a184f03e93ff9f4daa797ed6e38ed64bf6a1f010000000000000000808210156118e1575b506d04ee2d6d415b85acef8100000000808310156118d2575b50662386f26fc10000808310156118c3575b506305f5e100808310156118b4575b50612710808310156118a5575b506064821015611895575b600a8092101561188b575b6001908160216118438287016115ff565b95860101905b611855575b5050505090565b600019019083906f181899199a1a9b1b9c1cb0b131b232b360811b8282061a83530491821561188657919082611849565b61184e565b9160010191611832565b9190606460029104910191611827565b6004919392049101913861181c565b6008919392049101913861180f565b60109193920491019138611800565b602091939204910191386117ee565b6040935081049150386117d5565b90600182811c9216801561191f575b602083101461190957565b634e487b7160e01b600052602260045260246000fd5b91607f16916118fe565b9060009160019081549161193c836118ef565b92818116908115611992575060011461195457505050565b809192939450600052600080516020611b4c833981519152906000915b84831061197f575050500190565b8181602092548587015201920191611971565b60ff191683525050811515909102019150565b6000929181546119b4816118ef565b92600191808316908115611a0d57506001146119d1575b50505050565b90919293945060005260209081600020906000915b8583106119fc57505050500190388080806119cb565b8054858401529183019181016119e6565b60ff19168452505050811515909102019150388080806119cb565b604051906001600160a01b0316611a3e826114b1565b602a82526020908183016040368237835115611b3557603090538251600190811015611b3557607860218501536029905b808211611ac3575050611a80575090565b6064906040519062461bcd60e51b825280600483015260248201527f537472696e67733a20686578206c656e67746820696e73756666696369656e746044820152fd5b9091600f81166010811015611b20578551841015611b20576f181899199a1a9b1b9c1cb0b131b232b360811b901a85840185015360041c918015611b0b576000190190611a6f565b60246000634e487b7160e01b81526011600452fd5b60246000634e487b7160e01b81526032600452fd5b634e487b7160e01b600052603260045260246000fdfeb10e2d527612073b26eecdfd717e6a320cf44b4afac2b0732d9fcbe2b7fa0cf6a264697066735822122061ff1a13aed041bfa23394cc44d48966f9ae8be5bf078d1de33aa23665105e1b64736f6c634300081100332f8788117e7eff1d82e926ec794901d17c78024a50270940304540a733656f0d",
  "linkReferences": {},
  "deployedLinkReferences": {}
}