{
  "_format": "hh-sol-artifact-1",
  "contractName": "Service",
  "sourceName": "contracts/Service.sol",
  "abi": [
    {
      "inputs": [
        {
          "internalType": "address",
          "name": "adminAddress_",
          "type": "address"
        },
        {
          "internalType": "address",
          "name": "mktAdmin_",
          "type": "address"
        },
        {
          "internalType": "address",
          "name": "slotRegistry_",
          "type": "address"
        },
        {
          "internalType": "address",
          "name": "pool_",
          "type": "address"
        },
        {
          "internalType": "address",
          "name": "valueContractAddresss_",
          "type": "address"
        },
        {
          "internalType": "uint256",
          "name": "defaultSlot_",
          "type": "uint256"
        },
        {
          "internalType": "string",
          "name": "name_",
          "type": "string"
        },
        {
          "internalType": "string",
          "name": "symbol_",
          "type": "string"
        },
        {
          "internalType": "string",
          "name": "baseuri_",
          "type": "string"
        },
        {
          "internalType": "string",
          "name": "contractDescription_",
          "type": "string"
        },
        {
          "internalType": "string",
          "name": "contractImage_",
          "type": "string"
        },
        {
          "internalType": "string",
          "name": "contractType_",
          "type": "string"
        },
        {
          "internalType": "uint8",
          "name": "decimals_",
          "type": "uint8"
        }
      ],
      "stateMutability": "nonpayable",
      "type": "constructor"
    },
    {
      "anonymous": false,
      "inputs": [
        {
          "indexed": true,
          "internalType": "address",
          "name": "_owner",
          "type": "address"
        },
        {
          "indexed": true,
          "internalType": "address",
          "name": "_approved",
          "type": "address"
        },
        {
          "indexed": true,
          "internalType": "uint256",
          "name": "_tokenId",
          "type": "uint256"
        }
      ],
      "name": "Approval",
      "type": "event"
    },
    {
      "anonymous": false,
      "inputs": [
        {
          "indexed": true,
          "internalType": "address",
          "name": "_owner",
          "type": "address"
        },
        {
          "indexed": true,
          "internalType": "address",
          "name": "_operator",
          "type": "address"
        },
        {
          "indexed": false,
          "internalType": "bool",
          "name": "_approved",
          "type": "bool"
        }
      ],
      "name": "ApprovalForAll",
      "type": "event"
    },
    {
      "anonymous": false,
      "inputs": [
        {
          "indexed": true,
          "internalType": "uint256",
          "name": "_tokenId",
          "type": "uint256"
        },
        {
          "indexed": true,
          "internalType": "address",
          "name": "_operator",
          "type": "address"
        },
        {
          "indexed": false,
          "internalType": "uint256",
          "name": "_value",
          "type": "uint256"
        }
      ],
      "name": "ApprovalValue",
      "type": "event"
    },
    {
      "anonymous": false,
      "inputs": [
        {
          "indexed": false,
          "internalType": "uint256",
          "name": "offeringId",
          "type": "uint256"
        },
        {
          "indexed": false,
          "internalType": "uint256",
          "name": "value",
          "type": "uint256"
        }
      ],
      "name": "ListOffer",
      "type": "event"
    },
    {
      "anonymous": false,
      "inputs": [
        {
          "indexed": false,
          "internalType": "address",
          "name": "contractAddress",
          "type": "address"
        }
      ],
      "name": "MetadataDescriptor",
      "type": "event"
    },
    {
      "anonymous": false,
      "inputs": [
        {
          "indexed": false,
          "internalType": "uint256",
          "name": "tokenId",
          "type": "uint256"
        },
        {
          "indexed": false,
          "internalType": "uint256",
          "name": "slot",
          "type": "uint256"
        },
        {
          "indexed": false,
          "internalType": "uint256",
          "name": "value",
          "type": "uint256"
        }
      ],
      "name": "MintAssetToken",
      "type": "event"
    },
    {
      "anonymous": false,
      "inputs": [
        {
          "indexed": false,
          "internalType": "uint256",
          "name": "tokenId",
          "type": "uint256"
        },
        {
          "indexed": false,
          "internalType": "uint256",
          "name": "slot",
          "type": "uint256"
        },
        {
          "indexed": false,
          "internalType": "uint256",
          "name": "value",
          "type": "uint256"
        }
      ],
      "name": "MintServiceToken",
      "type": "event"
    },
    {
      "anonymous": false,
      "inputs": [
        {
          "indexed": false,
          "internalType": "uint256",
          "name": "newTokenId",
          "type": "uint256"
        },
        {
          "indexed": false,
          "internalType": "uint256",
          "name": "slot",
          "type": "uint256"
        },
        {
          "indexed": false,
          "internalType": "uint256",
          "name": "value",
          "type": "uint256"
        }
      ],
      "name": "MintServiceTokenToAddress",
      "type": "event"
    },
    {
      "anonymous": false,
      "inputs": [
        {
          "indexed": true,
          "internalType": "bytes32",
          "name": "role",
          "type": "bytes32"
        },
        {
          "indexed": true,
          "internalType": "bytes32",
          "name": "previousAdminRole",
          "type": "bytes32"
        },
        {
          "indexed": true,
          "internalType": "bytes32",
          "name": "newAdminRole",
          "type": "bytes32"
        }
      ],
      "name": "RoleAdminChanged",
      "type": "event"
    },
    {
      "anonymous": false,
      "inputs": [
        {
          "indexed": true,
          "internalType": "bytes32",
          "name": "role",
          "type": "bytes32"
        },
        {
          "indexed": true,
          "internalType": "address",
          "name": "account",
          "type": "address"
        },
        {
          "indexed": true,
          "internalType": "address",
          "name": "sender",
          "type": "address"
        }
      ],
      "name": "RoleGranted",
      "type": "event"
    },
    {
      "anonymous": false,
      "inputs": [
        {
          "indexed": true,
          "internalType": "bytes32",
          "name": "role",
          "type": "bytes32"
        },
        {
          "indexed": true,
          "internalType": "address",
          "name": "account",
          "type": "address"
        },
        {
          "indexed": true,
          "internalType": "address",
          "name": "sender",
          "type": "address"
        }
      ],
      "name": "RoleRevoked",
      "type": "event"
    },
    {
      "anonymous": false,
      "inputs": [
        {
          "indexed": true,
          "internalType": "address",
          "name": "metadataDescriptor",
          "type": "address"
        }
      ],
      "name": "SetMetadataDescriptor",
      "type": "event"
    },
    {
      "anonymous": false,
      "inputs": [
        {
          "indexed": true,
          "internalType": "uint256",
          "name": "_tokenId",
          "type": "uint256"
        },
        {
          "indexed": true,
          "internalType": "uint256",
          "name": "_oldSlot",
          "type": "uint256"
        },
        {
          "indexed": true,
          "internalType": "uint256",
          "name": "_newSlot",
          "type": "uint256"
        }
      ],
      "name": "SlotChanged",
      "type": "event"
    },
    {
      "anonymous": false,
      "inputs": [
        {
          "indexed": true,
          "internalType": "address",
          "name": "_from",
          "type": "address"
        },
        {
          "indexed": true,
          "internalType": "address",
          "name": "_to",
          "type": "address"
        },
        {
          "indexed": true,
          "internalType": "uint256",
          "name": "_tokenId",
          "type": "uint256"
        }
      ],
      "name": "Transfer",
      "type": "event"
    },
    {
      "anonymous": false,
      "inputs": [
        {
          "indexed": true,
          "internalType": "uint256",
          "name": "_fromTokenId",
          "type": "uint256"
        },
        {
          "indexed": true,
          "internalType": "uint256",
          "name": "_toTokenId",
          "type": "uint256"
        },
        {
          "indexed": false,
          "internalType": "uint256",
          "name": "_value",
          "type": "uint256"
        }
      ],
      "name": "TransferValue",
      "type": "event"
    },
    {
      "anonymous": false,
      "inputs": [
        {
          "indexed": false,
          "internalType": "uint256",
          "name": "fromTokenId",
          "type": "uint256"
        },
        {
          "indexed": false,
          "internalType": "uint256",
          "name": "toTokenId",
          "type": "uint256"
        },
        {
          "indexed": false,
          "internalType": "uint256",
          "name": "value",
          "type": "uint256"
        }
      ],
      "name": "ValueTransfer",
      "type": "event"
    },
    {
      "inputs": [],
      "name": "DEFAULT_ADMIN_ROLE",
      "outputs": [
        {
          "internalType": "bytes32",
          "name": "",
          "type": "bytes32"
        }
      ],
      "stateMutability": "view",
      "type": "function"
    },
    {
      "inputs": [],
      "name": "MKT_ARBITRATOR_ROLE",
      "outputs": [
        {
          "internalType": "bytes32",
          "name": "",
          "type": "bytes32"
        }
      ],
      "stateMutability": "view",
      "type": "function"
    },
    {
      "inputs": [],
      "name": "SERVICE_ADMIN_ROLE",
      "outputs": [
        {
          "internalType": "bytes32",
          "name": "",
          "type": "bytes32"
        }
      ],
      "stateMutability": "view",
      "type": "function"
    },
    {
      "inputs": [
        {
          "internalType": "string",
          "name": "uri_",
          "type": "string"
        }
      ],
      "name": "_setBaseURI",
      "outputs": [],
      "stateMutability": "nonpayable",
      "type": "function"
    },
    {
      "inputs": [
        {
          "internalType": "uint256",
          "name": "tokenId_",
          "type": "uint256"
        },
        {
          "internalType": "address",
          "name": "operator_",
          "type": "address"
        }
      ],
      "name": "allowance",
      "outputs": [
        {
          "internalType": "uint256",
          "name": "",
          "type": "uint256"
        }
      ],
      "stateMutability": "view",
      "type": "function"
    },
    {
      "inputs": [
        {
          "internalType": "address",
          "name": "to_",
          "type": "address"
        },
        {
          "internalType": "uint256",
          "name": "tokenId_",
          "type": "uint256"
        }
      ],
      "name": "approve",
      "outputs": [],
      "stateMutability": "payable",
      "type": "function"
    },
    {
      "inputs": [
        {
          "internalType": "uint256",
          "name": "tokenId_",
          "type": "uint256"
        },
        {
          "internalType": "address",
          "name": "to_",
          "type": "address"
        },
        {
          "internalType": "uint256",
          "name": "value_",
          "type": "uint256"
        }
      ],
      "name": "approve",
      "outputs": [],
      "stateMutability": "payable",
      "type": "function"
    },
    {
      "inputs": [
        {
          "internalType": "address",
          "name": "owner_",
          "type": "address"
        }
      ],
      "name": "balanceOf",
      "outputs": [
        {
          "internalType": "uint256",
          "name": "balance",
          "type": "uint256"
        }
      ],
      "stateMutability": "view",
      "type": "function"
    },
    {
      "inputs": [
        {
          "internalType": "uint256",
          "name": "tokenId_",
          "type": "uint256"
        }
      ],
      "name": "balanceOf",
      "outputs": [
        {
          "internalType": "uint256",
          "name": "",
          "type": "uint256"
        }
      ],
      "stateMutability": "view",
      "type": "function"
    },
    {
      "inputs": [],
      "name": "contractAdmin",
      "outputs": [
        {
          "internalType": "address",
          "name": "",
          "type": "address"
        }
      ],
      "stateMutability": "view",
      "type": "function"
    },
    {
      "inputs": [],
      "name": "contractURI",
      "outputs": [
        {
          "internalType": "string",
          "name": "",
          "type": "string"
        }
      ],
      "stateMutability": "view",
      "type": "function"
    },
    {
      "inputs": [],
      "name": "creditType",
      "outputs": [
        {
          "internalType": "string",
          "name": "",
          "type": "string"
        }
      ],
      "stateMutability": "view",
      "type": "function"
    },
    {
      "inputs": [],
      "name": "defaultSlot",
      "outputs": [
        {
          "internalType": "uint256",
          "name": "",
          "type": "uint256"
        }
      ],
      "stateMutability": "view",
      "type": "function"
    },
    {
      "inputs": [
        {
          "internalType": "uint256",
          "name": "tokenId_",
          "type": "uint256"
        }
      ],
      "name": "getApproved",
      "outputs": [
        {
          "internalType": "address",
          "name": "",
          "type": "address"
        }
      ],
      "stateMutability": "view",
      "type": "function"
    },
    {
      "inputs": [
        {
          "internalType": "bytes32",
          "name": "role",
          "type": "bytes32"
        }
      ],
      "name": "getRoleAdmin",
      "outputs": [
        {
          "internalType": "bytes32",
          "name": "",
          "type": "bytes32"
        }
      ],
      "stateMutability": "view",
      "type": "function"
    },
    {
      "inputs": [
        {
          "internalType": "uint256",
          "name": "tokenId",
          "type": "uint256"
        }
      ],
      "name": "getTokenDescription",
      "outputs": [
        {
          "internalType": "string",
          "name": "",
          "type": "string"
        }
      ],
      "stateMutability": "view",
      "type": "function"
    },
    {
      "inputs": [
        {
          "internalType": "uint256",
          "name": "tokenId",
          "type": "uint256"
        }
      ],
      "name": "getTokenImage",
      "outputs": [
        {
          "internalType": "string",
          "name": "",
          "type": "string"
        }
      ],
      "stateMutability": "view",
      "type": "function"
    },
    {
      "inputs": [
        {
          "internalType": "uint256",
          "name": "tokenId",
          "type": "uint256"
        }
      ],
      "name": "getTokenUUID",
      "outputs": [
        {
          "internalType": "string",
          "name": "",
          "type": "string"
        }
      ],
      "stateMutability": "view",
      "type": "function"
    },
    {
      "inputs": [
        {
          "internalType": "bytes32",
          "name": "role",
          "type": "bytes32"
        },
        {
          "internalType": "address",
          "name": "account",
          "type": "address"
        }
      ],
      "name": "grantRole",
      "outputs": [],
      "stateMutability": "nonpayable",
      "type": "function"
    },
    {
      "inputs": [
        {
          "internalType": "bytes32",
          "name": "role",
          "type": "bytes32"
        },
        {
          "internalType": "address",
          "name": "account",
          "type": "address"
        }
      ],
      "name": "hasRole",
      "outputs": [
        {
          "internalType": "bool",
          "name": "",
          "type": "bool"
        }
      ],
      "stateMutability": "view",
      "type": "function"
    },
    {
      "inputs": [
        {
          "internalType": "address",
          "name": "owner_",
          "type": "address"
        },
        {
          "internalType": "address",
          "name": "operator_",
          "type": "address"
        }
      ],
      "name": "isApprovedForAll",
      "outputs": [
        {
          "internalType": "bool",
          "name": "",
          "type": "bool"
        }
      ],
      "stateMutability": "view",
      "type": "function"
    },
    {
      "inputs": [
        {
          "internalType": "uint256",
          "name": "expiration_",
          "type": "uint256"
        },
        {
          "internalType": "uint256",
          "name": "tokenId_",
          "type": "uint256"
        },
        {
          "internalType": "uint256",
          "name": "price_",
          "type": "uint256"
        },
        {
          "internalType": "string",
          "name": "assetId_",
          "type": "string"
        },
        {
          "internalType": "string",
          "name": "side_",
          "type": "string"
        }
      ],
      "name": "listOffer",
      "outputs": [],
      "stateMutability": "nonpayable",
      "type": "function"
    },
    {
      "inputs": [],
      "name": "metadataDescriptor",
      "outputs": [
        {
          "internalType": "contract IERC3525MetadataDescriptor",
          "name": "",
          "type": "address"
        }
      ],
      "stateMutability": "view",
      "type": "function"
    },
    {
      "inputs": [
        {
          "internalType": "address",
          "name": "owner_",
          "type": "address"
        },
        {
          "internalType": "uint256",
          "name": "slot_",
          "type": "uint256"
        },
        {
          "internalType": "uint256",
          "name": "value_",
          "type": "uint256"
        },
        {
          "internalType": "string",
          "name": "uuid_",
          "type": "string"
        },
        {
          "internalType": "string",
          "name": "tokenDescription_",
          "type": "string"
        },
        {
          "internalType": "string",
          "name": "tokenImage_",
          "type": "string"
        },
        {
          "internalType": "string",
          "name": "property_",
          "type": "string"
        }
      ],
      "name": "mint",
      "outputs": [
        {
          "internalType": "uint256",
          "name": "",
          "type": "uint256"
        }
      ],
      "stateMutability": "nonpayable",
      "type": "function"
    },
    {
      "inputs": [
        {
          "internalType": "address",
          "name": "owner_",
          "type": "address"
        },
        {
          "internalType": "uint256",
          "name": "expiration_",
          "type": "uint256"
        },
        {
          "internalType": "uint256",
          "name": "tokenId_",
          "type": "uint256"
        },
        {
          "internalType": "uint256",
          "name": "price_",
          "type": "uint256"
        },
        {
          "internalType": "string",
          "name": "assetId_",
          "type": "string"
        },
        {
          "internalType": "string",
          "name": "side_",
          "type": "string"
        }
      ],
      "name": "mktListOffer",
      "outputs": [],
      "stateMutability": "nonpayable",
      "type": "function"
    },
    {
      "inputs": [],
      "name": "name",
      "outputs": [
        {
          "internalType": "string",
          "name": "",
          "type": "string"
        }
      ],
      "stateMutability": "view",
      "type": "function"
    },
    {
      "inputs": [
        {
          "internalType": "address",
          "name": "owner_",
          "type": "address"
        },
        {
          "internalType": "uint256",
          "name": "slot_",
          "type": "uint256"
        },
        {
          "internalType": "uint256",
          "name": "value_",
          "type": "uint256"
        },
        {
          "internalType": "uint256",
          "name": "discountBasisPts_",
          "type": "uint256"
        },
        {
          "internalType": "string",
          "name": "uuid_",
          "type": "string"
        },
        {
          "internalType": "string",
          "name": "tokenDescription_",
          "type": "string"
        },
        {
          "internalType": "string",
          "name": "tokenImage_",
          "type": "string"
        },
        {
          "internalType": "string",
          "name": "property_",
          "type": "string"
        }
      ],
      "name": "networkMintWithDiscount",
      "outputs": [
        {
          "internalType": "uint256",
          "name": "",
          "type": "uint256"
        }
      ],
      "stateMutability": "nonpayable",
      "type": "function"
    },
    {
      "inputs": [
        {
          "internalType": "address",
          "name": "owner_",
          "type": "address"
        },
        {
          "internalType": "uint256",
          "name": "slot_",
          "type": "uint256"
        },
        {
          "internalType": "uint256",
          "name": "value_",
          "type": "uint256"
        },
        {
          "internalType": "uint256",
          "name": "valueRate_",
          "type": "uint256"
        },
        {
          "internalType": "string",
          "name": "uuid_",
          "type": "string"
        },
        {
          "internalType": "string",
          "name": "tokenDescription_",
          "type": "string"
        },
        {
          "internalType": "string",
          "name": "tokenImage_",
          "type": "string"
        },
        {
          "internalType": "string",
          "name": "property_",
          "type": "string"
        }
      ],
      "name": "networkMintWithValueRate",
      "outputs": [
        {
          "internalType": "uint256",
          "name": "",
          "type": "uint256"
        }
      ],
      "stateMutability": "nonpayable",
      "type": "function"
    },
    {
      "inputs": [
        {
          "internalType": "uint256",
          "name": "tokenId_",
          "type": "uint256"
        }
      ],
      "name": "ownerOf",
      "outputs": [
        {
          "internalType": "address",
          "name": "owner_",
          "type": "address"
        }
      ],
      "stateMutability": "view",
      "type": "function"
    },
    {
      "inputs": [
        {
          "internalType": "uint256",
          "name": "slotId_",
          "type": "uint256"
        }
      ],
      "name": "registerOnSlot",
      "outputs": [],
      "stateMutability": "nonpayable",
      "type": "function"
    },
    {
      "inputs": [
        {
          "internalType": "bytes32",
          "name": "role",
          "type": "bytes32"
        },
        {
          "internalType": "address",
          "name": "account",
          "type": "address"
        }
      ],
      "name": "renounceRole",
      "outputs": [],
      "stateMutability": "nonpayable",
      "type": "function"
    },
    {
      "inputs": [
        {
          "internalType": "bytes32",
          "name": "role",
          "type": "bytes32"
        },
        {
          "internalType": "address",
          "name": "account",
          "type": "address"
        }
      ],
      "name": "revokeRole",
      "outputs": [],
      "stateMutability": "nonpayable",
      "type": "function"
    },
    {
      "inputs": [
        {
          "internalType": "address",
          "name": "from_",
          "type": "address"
        },
        {
          "internalType": "address",
          "name": "to_",
          "type": "address"
        },
        {
          "internalType": "uint256",
          "name": "tokenId_",
          "type": "uint256"
        }
      ],
      "name": "safeTransferFrom",
      "outputs": [],
      "stateMutability": "payable",
      "type": "function"
    },
    {
      "inputs": [
        {
          "internalType": "address",
          "name": "from_",
          "type": "address"
        },
        {
          "internalType": "address",
          "name": "to_",
          "type": "address"
        },
        {
          "internalType": "uint256",
          "name": "tokenId_",
          "type": "uint256"
        },
        {
          "internalType": "bytes",
          "name": "data_",
          "type": "bytes"
        }
      ],
      "name": "safeTransferFrom",
      "outputs": [],
      "stateMutability": "payable",
      "type": "function"
    },
    {
      "inputs": [
        {
          "internalType": "address",
          "name": "operator_",
          "type": "address"
        },
        {
          "internalType": "bool",
          "name": "approved_",
          "type": "bool"
        }
      ],
      "name": "setApprovalForAll",
      "outputs": [],
      "stateMutability": "nonpayable",
      "type": "function"
    },
    {
      "inputs": [
        {
          "internalType": "uint256",
          "name": "tokenId_",
          "type": "uint256"
        }
      ],
      "name": "slotOf",
      "outputs": [
        {
          "internalType": "uint256",
          "name": "",
          "type": "uint256"
        }
      ],
      "stateMutability": "view",
      "type": "function"
    },
    {
      "inputs": [
        {
          "internalType": "uint256",
          "name": "slot_",
          "type": "uint256"
        }
      ],
      "name": "slotURI",
      "outputs": [
        {
          "internalType": "string",
          "name": "",
          "type": "string"
        }
      ],
      "stateMutability": "view",
      "type": "function"
    },
    {
      "inputs": [
        {
          "internalType": "bytes4",
          "name": "interfaceId",
          "type": "bytes4"
        }
      ],
      "name": "supportsInterface",
      "outputs": [
        {
          "internalType": "bool",
          "name": "",
          "type": "bool"
        }
      ],
      "stateMutability": "view",
      "type": "function"
    },
    {
      "inputs": [],
      "name": "symbol",
      "outputs": [
        {
          "internalType": "string",
          "name": "",
          "type": "string"
        }
      ],
      "stateMutability": "view",
      "type": "function"
    },
    {
      "inputs": [
        {
          "internalType": "uint256",
          "name": "index_",
          "type": "uint256"
        }
      ],
      "name": "tokenByIndex",
      "outputs": [
        {
          "internalType": "uint256",
          "name": "",
          "type": "uint256"
        }
      ],
      "stateMutability": "view",
      "type": "function"
    },
    {
      "inputs": [
        {
          "internalType": "address",
          "name": "owner_",
          "type": "address"
        },
        {
          "internalType": "uint256",
          "name": "index_",
          "type": "uint256"
        }
      ],
      "name": "tokenOfOwnerByIndex",
      "outputs": [
        {
          "internalType": "uint256",
          "name": "",
          "type": "uint256"
        }
      ],
      "stateMutability": "view",
      "type": "function"
    },
    {
      "inputs": [
        {
          "internalType": "uint256",
          "name": "tokenId_",
          "type": "uint256"
        }
      ],
      "name": "tokenURI",
      "outputs": [
        {
          "internalType": "string",
          "name": "",
          "type": "string"
        }
      ],
      "stateMutability": "view",
      "type": "function"
    },
    {
      "inputs": [],
      "name": "totalSupply",
      "outputs": [
        {
          "internalType": "uint256",
          "name": "",
          "type": "uint256"
        }
      ],
      "stateMutability": "view",
      "type": "function"
    },
    {
      "inputs": [
        {
          "internalType": "uint256",
          "name": "fromTokenId_",
          "type": "uint256"
        },
        {
          "internalType": "address",
          "name": "to_",
          "type": "address"
        },
        {
          "internalType": "uint256",
          "name": "value_",
          "type": "uint256"
        }
      ],
      "name": "transferFrom",
      "outputs": [
        {
          "internalType": "uint256",
          "name": "",
          "type": "uint256"
        }
      ],
      "stateMutability": "payable",
      "type": "function"
    },
    {
      "inputs": [
        {
          "internalType": "address",
          "name": "from_",
          "type": "address"
        },
        {
          "internalType": "address",
          "name": "to_",
          "type": "address"
        },
        {
          "internalType": "uint256",
          "name": "tokenId_",
          "type": "uint256"
        }
      ],
      "name": "transferFrom",
      "outputs": [],
      "stateMutability": "payable",
      "type": "function"
    },
    {
      "inputs": [
        {
          "internalType": "uint256",
          "name": "fromTokenId_",
          "type": "uint256"
        },
        {
          "internalType": "uint256",
          "name": "toTokenId_",
          "type": "uint256"
        },
        {
          "internalType": "uint256",
          "name": "value_",
          "type": "uint256"
        }
      ],
      "name": "transferFrom",
      "outputs": [],
      "stateMutability": "payable",
      "type": "function"
    },
    {
      "inputs": [
        {
          "internalType": "string",
          "name": "assetId_",
          "type": "string"
        },
        {
          "internalType": "string",
          "name": "side_",
          "type": "string"
        }
      ],
      "name": "validOffers",
      "outputs": [
        {
          "components": [
            {
              "internalType": "uint256",
              "name": "offerId",
              "type": "uint256"
            },
            {
              "internalType": "address",
              "name": "owner",
              "type": "address"
            },
            {
              "internalType": "string",
              "name": "side",
              "type": "string"
            },
            {
              "internalType": "uint256",
              "name": "price",
              "type": "uint256"
            },
            {
              "internalType": "uint256",
              "name": "tokenId",
              "type": "uint256"
            },
            {
              "internalType": "uint256",
              "name": "expiration",
              "type": "uint256"
            }
          ],
          "internalType": "struct Service.Offer[]",
          "name": "",
          "type": "tuple[]"
        }
      ],
      "stateMutability": "view",
      "type": "function"
    },
    {
      "inputs": [],
      "name": "valueContractAddress",
      "outputs": [
        {
          "internalType": "address",
          "name": "",
          "type": "address"
        }
      ],
      "stateMutability": "view",
      "type": "function"
    },
    {
      "inputs": [],
      "name": "valueDecimals",
      "outputs": [
        {
          "internalType": "uint8",
          "name": "",
          "type": "uint8"
        }
      ],
      "stateMutability": "view",
      "type": "function"
    }
  ],
  "bytecode": "0x60c060405234620008f957600060a052620073858038038091620000258260c062000930565b60c0396101a0811262000662576200003e60c062000954565b906200004b60e062000954565b906200005961010062000954565b916200006761012062000954565b6200007461014062000954565b6101605161018051909291906001600160401b0381116200066257620000a2908660c0019060c0016200098e565b6101a0519092906001600160401b0381116200066257620000cb908760c0019060c0016200098e565b6101c0519095906001600160401b0381116200066257620000f4908860c0019060c0016200098e565b6101e0519096906001600160401b03811162000662576200011d908960c0019060c0016200098e565b608052610200516001600160401b038111620006625762000146908960c0019060c0016200098e565b610220519098906001600160401b03811162000662576200016e9160c0019060c0016200098e565b61024051909560ff82168203620006625780516001600160401b0381116200060c5760a051805490600182811c92168015620008ee575b6020831014620008045750601f8111620008a2575b5060a05191602092601f831160011462000832575060a0519283918362000826575b50508160011b916000199060031b1c19161790555b81516001600160401b0381116200060c5760015460a051600182811c921680156200081b575b6020831014620008045750601f8111620007b7575b5060a051602090601f8311600114620007405750819060ff9460a0519262000734575b50508160011b916000199060031b1c1916176001555b6002805460ff191692909116919091179055600b80546001600160a01b03199081166001600160a01b0393841617909155600c869055600a805482168b8416179055600d805482168a8416179055600e805490911692909116919091179055601054604051835191936020808201939192818101929091620002fe918390620002f081878a62000969565b810103808452018262000930565b51902060405160208101906374696d6560e01b8252600481526200032281620008fe565b519020036200066857505060a051915b60048310156200064a576001600160a81b0319166001600160a01b039182161760a092831b60ff60a01b1617601081905590911c60ff169085163b156200066257604051916394b39b0960e01b835260018060a01b0387166004840152602483015260048110156200064a57604482015260a05181606481836001600160a01b0389165af180156200063d5762000624575b50604051916001600160401b036120b78401908111908411176200060c57620004236200040a6200043a936120b7620052ae873960806120b787018181520190620009e9565b6120b78501810360206120b787010152608051620009e9565b906120b78401820360406120b786010152620009e9565b6001600160a01b039092166120b782016060015260a051918190039082f090811562000600575060018060a01b031660018060a01b0319600854161760085560018060a01b03600b54167f1cd6d520d98babae1045eb69c31ecab800996aa332094cb55c0ac10362e9b0c9908160a05152600960205260a051604081208260005260205260ff6040600020541615620005bc575b5050507f9a95e87c5af084bf5db8491c3a6515da9dd6da39b24b0eb0af08d7b9cd808d918060a05152600960205260a0516040812060018060a01b03841660005260205260ff604060002054161562000567575b7f9ac4f8025631594629895b778dc5ee88d01673a254a2291f6b6b174ad25230ca602060018060a01b0360085416604051908152a160405161489d908162000a118239f35b819052600960205260a051906040822060018060a01b0384166000526020526040600020600160ff1982541617905560008051602062007365833981519152339360018060a01b03169280a438808062000522565b829052600960205260a0519160408320826000526020526040600020600160ff1982541617905560008051602062007365833981519152339380a4388080620004ce565b604051903d90823e3d90fd5b634e487b7160e01b60a051526041600452602460a051fd5b6001600160401b0381116200060c5760405238620003c4565b6040513d60a051823e3d90fd5b634e487b7160e01b60a051526021600452602460a051fd5b60a05180fd5b6040516020810190620006866020828551620002f081878a62000969565b5190206040516020810190630c6c2e6d60e31b825260048152620006aa81620008fe565b51902003620006bf57505060015b9162000332565b620006de60206040518093620002f08383019687925192839162000969565b5190206040805165636f756e747360d01b6020820152600681529081018082116001600160401b03909111176200060c57604081810190528051602090910120036200072c576002620006b8565b6003620006b8565b0151905038806200024f565b600190949293945260a0519160208320925b601f19851681106200079e575091839160019360ff9695601f1981161062000784575b505050811b0160015562000265565b015160001960f88460031b161c1916905538808062000775565b9192602060018192868501518155019401920162000752565b600160a0515260a05160208120601f840160051c810160208510620007fc575b601f840160051c82018110620007f0575050506200022c565b828155600101620007d7565b5080620007d7565b634e487b7160e01b9052602260045260a051602490fd5b91607f169162000217565b015190503880620001dc565b805260a0516020812090938493925b601f198416851062000886576001945083601f198116106200086c575b505050811b019055620001f1565b015160001960f88460031b161c191690553880806200085e565b8181015183556020948501946001909301929091019062000841565b60a051805260a05160208120601f840160051c810160208510620008e6575b601f840160051c82018110620008da57505050620001ba565b828155600101620008c1565b5080620008c1565b91607f1691620001a5565b600080fd5b604081019081106001600160401b038211176200091a57604052565b634e487b7160e01b600052604160045260246000fd5b601f909101601f19168101906001600160401b038211908210176200091a57604052565b51906001600160a01b0382168203620008f957565b60005b8381106200097d5750506000910152565b81810151838201526020016200096c565b81601f82011215620008f95780516001600160401b0381116200091a5760405192620009c5601f8301601f19166020018562000930565b81845260208284010111620008f957620009e6916020808501910162000969565b90565b9060209162000a048151809281855285808601910162000969565b601f01601f191601019056fe608080604052600436101561001357600080fd5b600090813560e01c90816301ffc9a71461297a5750806303e20953146127bc57806306fdde0314612719578063081812fc146126fa578063095ea7b3146125bf57806309c3dd87146123015780630f485c02146122ed5780631375d843146122875780631429fb5714611cab57806318160ddd14611c8d57806323b872dd14611c685780632425eeaf14611911578063248a9ca3146118e4578063263f3e7e146118c55780632f2ff15d146118125780632f745c5914611769578063310ed7f0146115a657806331b5b9071461151c57806336568abe146114895780633e7e8669146114685780633f5d70671461123f57806341815ee41461114457806342842e0e146111215780634f6ccce71461109c578063505a38531461107e5780636352211e1461104d57806370a082311461102957806371f0442e14610fc35780637795524514610f9a578063840f711314610f715780638cb0a51114610e2d57806391d1485414610de157806395d89b4114610d025780639cc7f70814610ce3578063a217fddf14610cc7578063a22cb46514610bf2578063a7c9f2d614610bb7578063aa20ce551461090b578063b198fc54146108e2578063b3154c081461087c578063b88d4fde1461081d578063be950a62146106d4578063c87b56dd1461063f578063cf2d6fe6146103d0578063d09445c214610395578063d547741f14610354578063e345e0bc14610325578063e8a3d485146102955763e985e9c51461023c57600080fd5b34610292576040366003190112610292576102556129cf565b600260406102616129e5565b9360018060a01b038094168152600760205220019116600052602052602060ff604060002054166040519015158152f35b80fd5b5034610292578060031936011261029257600854604051631c97e82760e21b8152908290829060049082906001600160a01b03165afa90811561031a57826102f393926102f7575b5050604051918291602083526020830190612ba7565b0390f35b61031392503d8091833e61030b8183612a5f565b810190613162565b38806102dd565b6040513d84823e3d90fd5b503461029257604036600319011261029257602061034c6103446129e5565b6004356147bc565b604051908152f35b5034610292576040366003190112610292576103926004356103746129e5565b90808452600960205261038d6001604086200154612c2b565b612f60565b80f35b503461029257806003193601126102925760206040517f9a95e87c5af084bf5db8491c3a6515da9dd6da39b24b0eb0af08d7b9cd808d918152f35b50346102925760c0366003190112610292576103ea6129cf565b6064356001600160401b0360843581811161063b5761040d903690600401612ad2565b9060a43581811161063757610426903690600401612ad2565b93600f549461043486613852565b600f5583516020809501209283885260139283865260408920888a5286526001908160408b20019060018060a01b03166001600160601b0360a01b82541617905584895283865260408920888a5286528760408a205584895283865260408920888a528652600260408a2001928051928311610623576104b48454613020565b601f81116105ea575b5086908a601f85116001146105705793604099979593819382936000805160206148488339815191529d9b999794610565575b50501b916000199060031b1c19161790555b81885280835285882085895283526024356005878a20015581885280835285882085895283526044356004878a200155818852825284872084885282528260038689200155865260148152610559838588206137bb565b8351928352820152a180f35b0151925038806104f0565b50848b52878b209293929190601f1984168c5b8181106105d55750916000805160206148488339815191529b99979593918560409c9a989694106105bc575b505050811b019055610502565b015160001960f88460031b161c191690553880806105af565b82840151855593860193928a01928a01610583565b61061390858c52888c20601f860160051c8101918a8710610619575b601f0160051c0190613861565b386104bd565b9091508190610606565b634e487b7160e01b8a52604160045260248afd5b8580fd5b8480fd5b50346102925760203660031901126102925760043561065d8161453f565b80156106c0575b61066d90613377565b6008546040516344a5a61760e11b815260048101929092528290829060249082906001600160a01b03165afa90811561031a57826102f393926102f7575050604051918291602083526020830190612ba7565b5061066d6106cd8261456d565b9050610664565b5034610292576020366003190112610292577f9a95e87c5af084bf5db8491c3a6515da9dd6da39b24b0eb0af08d7b9cd808d9181526009602052604081203360005260205260ff60406000205416156107b25760018060a01b039081600d541691600a541660ff60105460a01c16833b156107ae57604051916394b39b0960e01b835260048301526004356024830152600481101561079a5781606481858097819560448401525af1801561031a5761078a5750f35b610793906129fb565b6102925780f35b634e487b7160e01b83526021600452602483fd5b8280fd5b60405162461bcd60e51b815260206004820152603760248201527f53656e646572206e6f7420617574686f72697a656420746f207265676973746560448201527f7220636f6e747261637420746f207468697320736c6f740000000000000000006064820152608490fd5b506080366003190112610292576108326129cf565b61083a6129e5565b606435916001600160401b03831161087857366023840112156108785761086e610392933690602481600401359101612a9b565b91604435916132a0565b8380fd5b503461029257602036600319011261029257600854604051631662a98160e31b81526004803590820152908290829060249082906001600160a01b03165afa90811561031a57826102f393926102f7575050604051918291602083526020830190612ba7565b50346102925780600319360112610292576010546040516001600160a01b039091168152602090f35b50346102925760208161091d36612af0565b6003805460010190819055600e54604051630151086360e31b81526001600160a01b039a8b166004820152602481019990995260448901979097526064880195909552939893969095919492939192839160849183918b91165af1908115610bac578691610b72575b50868652601160205260408620556008546001600160a01b0316803b15610637576109d98692918392604051948580948193632108947560e21b83528d6004840152604060248401526044830190612ba7565b03925af1908115610b67578591610b53575b50506008546001600160a01b0316803b1561063b57610a32859291839260405194858094819363246a908b60e01b83528c6004840152604060248401526044830190612ba7565b03925af1908115610b48578491610b34575b50506008546001600160a01b0316803b1561087857610a8b8492918392604051948580948193630190503b60e61b83528b6004840152604060248401526044830190612ba7565b03925af1908115610b15578391610b20575b50506008546001600160a01b031690813b156107ae578291610ae391604051948580948193637e468a5160e01b8352896004840152604060248401526044830190612ba7565b03925af18015610b1557610afd575b602082604051908152f35b610b0783916129fb565b610b115781610af2565b5080fd5b6040513d85823e3d90fd5b610b29906129fb565b610b11578138610a9d565b610b3d906129fb565b6107ae578238610a44565b6040513d86823e3d90fd5b610b5c906129fb565b6108785783386109eb565b6040513d87823e3d90fd5b9550506020853d602011610ba4575b81610b8e60209383612a5f565b81010312610b9f5786945138610986565b600080fd5b3d9150610b81565b6040513d88823e3d90fd5b503461029257806003193601126102925760206040517f1cd6d520d98babae1045eb69c31ecab800996aa332094cb55c0ac10362e9b0c98152f35b503461029257604036600319011261029257610c0c6129cf565b602435908115158092036107ae576001600160a01b031690338214610c825733835260076020526002604084200182600052602052604060002060ff1981541660ff83161790556040519081527f17307eab39ab6107e8899845ad3d59bd9653f200f220920489ca2b5937696c3160203392a380f35b60405162461bcd60e51b815260206004820152601a60248201527f455243333532353a20617070726f766520746f2063616c6c65720000000000006044820152606490fd5b5034610292578060031936011261029257602090604051908152f35b503461029257602036600319011261029257602061034c600435614626565b503461029257806003193601126102925760405160006001805490610d2682613020565b80855291818116908115610dba5750600114610d61575b6102f384610d4d81860382612a5f565b604051918291602083526020830190612ba7565b600081815292507fb10e2d527612073b26eecdfd717e6a320cf44b4afac2b0732d9fcbe2b7fa0cf65b828410610da2575050508101602001610d4d82610d3d565b80546020858701810191909152909301928101610d8a565b60ff191660208087019190915292151560051b85019092019250610d4d9150839050610d3d565b5034610292576040366003190112610292576040610dfd6129e5565b9160043581526009602052209060018060a01b0316600052602052602060ff604060002054166040519015158152f35b50610e3736612bcc565b90610e41836145e3565b83610e4b8461453f565b80610f5e575b15610eee5750610e776001600160a01b0380610e6c866133c3565b169083161415613320565b610e818333613444565b15610e8f5761039292613f65565b60405162461bcd60e51b815260206004820152603160248201527f455243333532353a20617070726f76652063616c6c6572206973206e6f74206f6044820152701ddb995c881b9bdc88185c1c1c9bdd9959607a1b6064820152608490fd5b600e54938152601160205260408120549093919290916001600160a01b0316803b1561063b57604051638cb0a51160e01b815260048101939093526001600160a01b03909316602483015260448201529082908290818381606481015b03925af1801561031a5761078a57505080f35b50610f688461313b565b600c5414610e51565b50346102925780600319360112610292576008546040516001600160a01b039091168152602090f35b5034610292578060031936011261029257600a546040516001600160a01b039091168152602090f35b5034610292576020366003190112610292576008546040516338f8221760e11b81526004803590820152908290829060249082906001600160a01b03165afa90811561031a57826102f393926102f7575050604051918291602083526020830190612ba7565b503461029257602036600319011261029257602061034c6110486129cf565b6131c0565b503461029257602036600319011261029257602061106c6004356146d8565b6040516001600160a01b039091168152f35b50346102925780600319360112610292576020600c54604051908152f35b5034610292576020366003190112610292576004356005548110156110d0576110c6602091613100565b5054604051908152f35b60405162461bcd60e51b815260206004820152602360248201527f455243333532353a20676c6f62616c20696e646578206f7574206f6620626f756044820152626e647360e81b6064820152608490fd5b5061039261112e36612bf6565b906040519261113c84612a29565b8584526132a0565b503461029257806003193601126102925760ff60105460a01c16600481101561122b57600381036111a95750506102f360405161118081612a44565b60088152677072696f7269747960c01b6020820152604051918291602083526020830190612ba7565b806111d55750506102f36040516111bf81612a44565b600481526374696d6560e01b6020820152610d4d565b600214159050611206576102f36040516111ee81612a44565b6006815265636f756e747360d01b6020820152610d4d565b6102f360405161121581612a44565b60048152630c6c2e6d60e31b6020820152610d4d565b634e487b7160e01b82526021600452602482fd5b50346102925760a0366003190112610292576001600160401b0360443560643582811161087857611274903690600401612ad2565b60843583811161063b5761128c903690600401612ad2565b600f549361129985613852565b600f5582516020809401209182875260139182855260408820878952855260018060408a2001336001600160601b0360a01b82541617905584895283865260408920888a5286528760408a205584895283865260408920888a528652600260408a2001928051928311610623576113108454613020565b601f811161143a575b5086908a601f85116001146113c05793604099979593819382936000805160206148488339815191529d9b9997946113b5575b50501b916000199060031b1c19161790555b81885280835285882085895283526004356005878a20015581885280835285882085895283526024356004878a200155818852825284872084885282528260038689200155865260148152610559838588206137bb565b01519250388061134c565b50848b52878b209293929190601f1984168c5b8181106114255750916000805160206148488339815191529b99979593918560409c9a9896941061140c575b505050811b01905561135e565b015160001960f88460031b161c191690553880806113ff565b82840151855593860193928a01928a016113d3565b61146290858c52888c20601f860160051c8101918a871061061957601f0160051c0190613861565b38611319565b5034610292578060031936011261029257602060ff60025416604051908152f35b5034610292576040366003190112610292576114a36129e5565b336001600160a01b038216036114bf5761039290600435612f60565b60405162461bcd60e51b815260206004820152602f60248201527f416363657373436f6e74726f6c3a2063616e206f6e6c792072656e6f756e636560448201526e103937b632b9903337b91039b2b63360891b6064820152608490fd5b503461029257602036600319011261029257806004356001600160401b0381116115a35761154e903690600401612ad2565b6008546001600160a01b0316803b1561159f576040516355f804b360e01b815260206004820152918391839182908490829061158e906024830190612ba7565b03925af1801561031a5761078a5750f35b5050fd5b50fd5b506060366003190112610292576044356024356004356115c58261453f565b80611756575b8015611747575b156116d057836115e18261453f565b806116bd575b8061169a575b15611651575061164b836116237fdf7a601a0a201ccd4b4bfcfd610913188d931867997223d226f85f2f2673988a958433613e9d565b61162e818585614137565b604051938493846040919493926060820195825260208201520152565b0390a180f35b600e549093906001600160a01b0316803b1561063b57604051630310ed7f60e41b8152600481019390935260248301939093526044820152908290829081838160648101610f4b565b506116a48361453f565b80156115ed57506116b48361313b565b600c54146115ed565b506116c78261313b565b600c54146115e7565b60a460405162461bcd60e51b815260206004820152604460248201527f546f6b656e204944206f66207265636569766572206e6f74207265636f676e6960448201527f7a6564206279207468697320636f6e7472616374206f722074686520726567696064820152637374727960e01b6084820152fd5b506117518261456d565b6115d2565b506117608261313b565b600c54146115cb565b5034610292576040366003190112610292576117836129cf565b90602435611790836131c0565b8110156117c25760406117b49260209460018060a01b03168152600785522061342c565b90546040519160031b1c8152f35b60405162461bcd60e51b815260206004820152602260248201527f455243333532353a206f776e657220696e646578206f7574206f6620626f756e604482015261647360f01b6064820152608490fd5b50346102925760403660031901126102925760043561182f6129e5565b81835260096020526118476001604085200154612c2b565b8183526009602052604083209060018060a01b0316908160005260205260ff6040600020541615611876578280f35b818352600960205260408320816000526020526040600020600160ff1982541617905533917f2f8788117e7eff1d82e926ec794901d17c78024a50270940304540a733656f0d8480a438808280f35b503461029257602036600319011261029257602061034c60043561313b565b50346102925760203660031901126102925760016040602092600435815260098452200154604051908152f35b5034610292576040366003190112610292576001600160401b036004358181116107ae57611943903690600401612ad2565b906024359081116107ae5761195c903690600401612ad2565b9080516020809201209182845260148252604084206040519081848254918281520191875284872090875b818110611c54575050508161199d910382612a5f565b849282810191845b8151811015611a635786885260138352604088206119c382846147a8565b518952835260a0604089206040516119da81612a0e565b81548152600180841b036001830154168682015260056119fc6002840161305a565b9283604084015260038101546060840152600481015460808401520154928391015284815191012086518620149081611a59575b50611a44575b611a3f90613852565b6119a5565b94611a51611a3f91613852565b959050611a36565b9050421038611a30565b5092939193611a7183613a1d565b92611a7f6040519485612a5f565b808452611a8e601f1991613a1d565b0182885b828110611c1a575050508693875b8151811015611b79578789526013845260408920611abe82846147a8565b518a5284526040892060405190611ad482612a0e565b8054825260018101546001600160a01b0316868301526005611af86002830161305a565b9182604085015260038101546060850152600481015460808501520154908160a084015286815191012085518a20149081611b6f575b50611b43575b50611b3e90613852565b611aa0565b9590611b6882611b56611b3e9491613852565b98611b61828a6147a8565b52876147a8565b5090611b34565b9050421038611b2e565b83898660405191838301848452825180915260408401948060408360051b870101940192955b828710611bac5785850386f35b909192938280600192603f1989820301855287519081518152848060a01b03838301511683820152611bec604083015160c0806040850152830190612ba7565b91606080820151908301526080808201519083015260a0809101519101529601920196019592919092611b9f565b604051611c2681612a0e565b8a81528a838201528a60608060408401528201528a60808201528a60a0820152828288010152018390611a92565b825484529286019260019283019201611987565b50610392611c7536612bf6565b91611c88611c838433613444565b613239565b6134b5565b50346102925780600319360112610292576020600554604051908152f35b50346102925760e036600319011261029257611cc56129cf565b6064356001600160401b0381116107ae57611ce4903690600401612ad2565b916084356001600160401b038111610b1157611d04903690600401612ad2565b60a4356001600160401b0381116107ae57611d23903690600401612ad2565b60c4356001600160401b03811161087857611d42903690600401612ad2565b91600160035401948560035560018060a01b038116156122385785156121e957611d6b8661453f565b80156121da575b61219557604051611d8281612a29565b6000815260405190611d9382612a0e565b87825260243560208301526000604083015260018060a01b03831660608301526000608083015260a082015260055487600052600660205280604060002055600160401b81101561216957806001611dee9201600555613100565b91909161217f5780518255602081015160018301556040810151600283015560608101516003830180546001600160a01b039283166001600160a01b031991821617909155608083015160048501805491909316911617905560a001518051916001600160401b0383116121695790602060058a9594930191611e718484613878565b0190600052602060002060005b8381106121495750505050611e9382826137de565b6001600160a01b031660007fddf252ad1be2c89b69c2b068fc378daa952ba7f163c4a11628f55a4df523b3ef8180a46024356000867fe4f48c240d3b994948aa54f3e2f5fca59263dfe1d52b6e4cf39a5d249b5ccb658280a48460005260066020526002611f05604060002054613100565b50019560443596611f17888254612fd6565b90558560007f0b2aac84f3ec956911fd78eae5311062972ff949f38412e8da39069d9f068cc660206040518b8152a36008546001600160a01b031690813b1561063757611f8b86928392604051948580948193632108947560e21b83528d6004840152604060248401526044830190612ba7565b03925af18015610b6757908591612135575b50506008546001600160a01b031690813b1561063b57611fe48592839260405194858094819363246a908b60e01b83528c6004840152604060248401526044830190612ba7565b03925af18015610b4857908491612121575b50506008546001600160a01b031690813b156108785761203d84928392604051948580948193630190503b60e61b83528b6004840152604060248401526044830190612ba7565b03925af18015610b155790839161210d575b50506008546001600160a01b031690813b156107ae5761209683928392604051948580948193637e468a5160e01b83528a6004840152604060248401526044830190612ba7565b03925af1801561031a576120f9575b6020837f84eeb48eca46cea54afc9753345f6038981672ea565f32885420829dfd88aea66120ee8760405191829160243586846040919493926060820195825260208201520152565b0390a1604051908152f35b61210382916129fb565b61029257806120a5565b612116906129fb565b610b1157813861204f565b61212a906129fb565b6107ae578238611ff6565b61213e906129fb565b610878578338611f9d565b82516001600160a01b0316818301558a9550602090920191600101611e7e565b634e487b7160e01b600052604160045260246000fd5b634e487b7160e01b600052600060045260246000fd5b60405162461bcd60e51b815260206004820152601d60248201527f455243333532353a20746f6b656e20616c7265616479206d696e7465640000006044820152606490fd5b506121e48661456d565b611d72565b60405162461bcd60e51b815260206004820152602160248201527f455243333532353a2063616e6e6f74206d696e74207a65726f20746f6b656e496044820152601960fa1b6064820152608490fd5b60405162461bcd60e51b815260206004820152602160248201527f455243333532353a206d696e7420746f20746865207a65726f206164647265736044820152607360f81b6064820152608490fd5b503461029257602036600319011261029257600854604051631375d84360e01b81526004803590820152908290829060249082906001600160a01b03165afa90811561031a57826102f393926102f7575050604051918291602083526020830190612ba7565b602061034c6122fb36612bcc565b91613a34565b503461029257602090816003193601126102925760043560018060a01b036008541690604051636c0360eb60e01b81528381600481865afa908115610b485784916125a5575b5082156123b857508290602460405180948193633601bfc560e11b835260048301525afa9182156123ac578092612391575b5050905b6102f3604051928284938452830190612ba7565b6123a592503d8091833e61030b8183612a5f565b3880612379565b604051903d90823e3d90fd5b80519093925015612580578190807a184f03e93ff9f4daa797ed6e38ed64bf6a1f0100000000000000008181811015612572575b5050856d04ee2d6d415b85acef810000000080841015612564575b5050662386f26fc1000080831015612555575b506305f5e10080831015612546575b5061271080831015612537575b506064821015612527575b600a8092101561251d575b6001908160218186019561247861246288612a80565b97612470604051998a612a5f565b808952612a80565b878b019890601f1901368a3750860101905b6124e7575b505050506124d2926124e19260259260405195836124b688955180928b8089019101612b84565b84019164736c6f742f60d81b8984015251809386840190612b84565b01036005810184520182612a5f565b9061237d565b600019019083906f181899199a1a9b1b9c1cb0b131b232b360811b8282061a8353049182156125185791908261248a565b61248f565b916001019161244c565b9190606460029104910191612441565b60049193920491019138612436565b60089193920491019138612429565b6010919392049101913861241a565b930192909104908538612407565b6040945004915038806123ec565b5060405191508282016001600160401b038111838210176121695760405281526124e1565b6125b991503d8086833e61030b8183612a5f565b38612347565b506040366003190112610292576125d46129cf565b602435906001600160a01b0380806125eb856133c3565b169216916125fb81841415613320565b8033149081156126d4575b5015612669578260005260066020526004612625604060002054613100565b500180546001600160a01b03191683179055612640836133c3565b167f8c5be1e5ebec7d5bd14f71427d1e84f3dd0314c0f7b2291e5b200ac8c7c3b925600080a480f35b60405162461bcd60e51b815260206004820152603960248201527f455243333532353a20617070726f76652063616c6c6572206973206e6f74206f60448201527f776e6572206e6f7220617070726f76656420666f7220616c6c000000000000006064820152608490fd5b905084526007602052600260408520013360005260205260ff6040600020541638612606565b503461029257602036600319011261029257602061106c6004356133fc565b50346102925780600319360112610292576040516000805461273a81613020565b80845290600190818116908115610dba5750600114612763576102f384610d4d81860382612a5f565b600080805292507f290decd9548b62a8d60345a988386fc84ba6bc95484008f6362f93160ef3e5635b8284106127a4575050508101602001610d4d82610d3d565b8054602085870181019190915290930192810161278c565b5034610292576127cb36612af0565b95919360ff600298929698541660018060a01b03600e541692604d82116129665781600a0a1561295257604051630bbed13160e21b81526001600160a01b0391909116600482015260248101949094526044840198909852600a9790970a9096046064820152948691906020908790608490829086905af195861561031a57829661291e575b5060016003540195866003558683526011602052604083205560018060a01b036008541690813b156107ae5782916128ad91604051948580948193632108947560e21b83528c6004840152604060248401526044830190612ba7565b03925af18015610bac57612907575b5060085485939291906001600160a01b0316803b1561063b57610a32859291839260405194858094819363246a908b60e01b83528c6004840152604060248401526044830190612ba7565b6129159095919392956129fb565b939091386128bc565b9095506020813d60201161294a575b8161293a60209383612a5f565b81010312610b1157519438612851565b3d915061292d565b634e487b7160e01b8b52601260045260248bfd5b634e487b7160e01b8b52601160045260248bfd5b905034610b11576020366003190112610b115760043563ffffffff60e01b81168091036107ae5760209250637965db0b60e01b81149081156129be575b5015158152f35b6301ffc9a760e01b149050386129b7565b600435906001600160a01b0382168203610b9f57565b602435906001600160a01b0382168203610b9f57565b6001600160401b03811161216957604052565b60c081019081106001600160401b0382111761216957604052565b602081019081106001600160401b0382111761216957604052565b604081019081106001600160401b0382111761216957604052565b90601f801991011681019081106001600160401b0382111761216957604052565b6001600160401b03811161216957601f01601f191660200190565b929192612aa782612a80565b91612ab56040519384612a5f565b829481845281830111610b9f578281602093846000960137010152565b9080601f83011215610b9f57816020612aed93359101612a9b565b90565b610100600319820112610b9f576004356001600160a01b0381168103610b9f57916024359160443591606435916001600160401b0390608435828111610b9f5781612b3d91600401612ad2565b9260a435838111610b9f5782612b5591600401612ad2565b9260c435818111610b9f5783612b6d91600401612ad2565b9260e435918211610b9f57612aed91600401612ad2565b60005b838110612b975750506000910152565b8181015183820152602001612b87565b90602091612bc081518092818552858086019101612b84565b601f01601f1916010190565b6060906003190112610b9f57600435906024356001600160a01b0381168103610b9f579060443590565b6060906003190112610b9f576001600160a01b03906004358281168103610b9f57916024359081168103610b9f579060443590565b60009080825260209060098252604092838120338252835260ff848220541615612c555750505050565b8351916001600160401b0390336060850183811186821017612f4c578752602a85528585019187368437855115612f385760308353855191600192831015612f24576078602188015360295b838111612eba5750612e785790875193608085019085821090821117612e6457885260428452868401946060368737845115612e5057603086538451821015612e505790607860218601536041915b818311612de257505050612da057612d9c938693612d8093612d71604894612d489a519a8b957f416363657373436f6e74726f6c3a206163636f756e74200000000000000000008c8801525180926037880190612b84565b8401917001034b99036b4b9b9b4b733903937b6329607d1b603784015251809386840190612b84565b01036028810187520185612a5f565b5192839262461bcd60e51b845260048401526024830190612ba7565b0390fd5b60648587519062461bcd60e51b825280600483015260248201527f537472696e67733a20686578206c656e67746820696e73756666696369656e746044820152fd5b909192600f81166010811015612e3c576f181899199a1a9b1b9c1cb0b131b232b360811b901a612e128588612ff9565b5360041c928015612e2857600019019190612cf0565b634e487b7160e01b82526011600452602482fd5b634e487b7160e01b83526032600452602483fd5b634e487b7160e01b81526032600452602490fd5b634e487b7160e01b86526041600452602486fd5b60648789519062461bcd60e51b825280600483015260248201527f537472696e67733a20686578206c656e67746820696e73756666696369656e746044820152fd5b90600f81166010811015612f10576f181899199a1a9b1b9c1cb0b131b232b360811b901a612ee8838a612ff9565b5360041c908015612efc5760001901612ca1565b634e487b7160e01b87526011600452602487fd5b634e487b7160e01b88526032600452602488fd5b634e487b7160e01b86526032600452602486fd5b634e487b7160e01b85526032600452602485fd5b634e487b7160e01b85526041600452602485fd5b906000918083526009602052604083209160018060a01b03169182845260205260ff604084205416612f9157505050565b8083526009602052604083208284526020526040832060ff1981541690557ff6391f5c32d9c69d2a47ea670b442974b53935d1edc7fd64eb21e047a839171b339380a4565b91908201809211612fe357565b634e487b7160e01b600052601160045260246000fd5b90815181101561300a570160200190565b634e487b7160e01b600052603260045260246000fd5b90600182811c92168015613050575b602083101461303a57565b634e487b7160e01b600052602260045260246000fd5b91607f169161302f565b906040519182600082549261306e84613020565b9081845260019485811690816000146130dd575060011461309a575b505061309892500383612a5f565b565b9093915060005260209081600020936000915b8183106130c55750506130989350820101388061308a565b855488840185015294850194879450918301916130ad565b91505061309894506020925060ff191682840152151560051b820101388061308a565b60055481101561300a576006906005600052027f036b6384b5eca791c62761152d0c79bb0604c104a5fb6f4eb0703f3154bb3db00190600090565b613144816145e3565b6000526006602052600161315c604060002054613100565b50015490565b602081830312610b9f578051906001600160401b038211610b9f570181601f82011215610b9f57805161319481612a80565b926131a26040519485612a5f565b81845260208284010111610b9f57612aed9160208085019101612b84565b6001600160a01b031680156131e057600052600760205260406000205490565b60405162461bcd60e51b815260206004820152602b60248201527f455243333532353a2062616c616e636520717565727920666f7220746865207a60448201526a65726f206164647265737360a81b6064820152608490fd5b1561324057565b60405162461bcd60e51b815260206004820152603260248201527f455243333532353a207472616e736665722063616c6c6572206973206e6f74206044820152711bdddb995c881b9bdc88185c1c1c9bdd995960721b6064820152608490fd5b906132c49392916132b4611c838433613444565b6132bf8383836134b5565b6138fc565b156132cb57565b60405162461bcd60e51b815260206004820152602760248201527f455243333532353a207472616e7366657220746f206e6f6e204552433732315260448201526632b1b2b4bb32b960c91b6064820152608490fd5b1561332757565b60405162461bcd60e51b815260206004820152602260248201527f455243333532353a20617070726f76616c20746f2063757272656e74206f776e60448201526132b960f11b6064820152608490fd5b1561337e57565b60405162461bcd60e51b815260206004820152601960248201527f455243333532353a20696e76616c696420746f6b656e204944000000000000006044820152606490fd5b6133cc816145e3565b60005260066020526133e2604060002054613100565b50600301546001600160a01b031690613098821515613377565b613405816145e3565b600052600660205261341b604060002054613100565b50600401546001600160a01b031690565b805482101561300a5760005260206000200190600090565b906001600160a01b038080613458846133c3565b1693169183831493841561348b575b508315613475575b50505090565b613481919293506133fc565b161438808061346f565b909350600052600760205260026040600020018260005260205260ff604060002054169238613467565b6134be836133c3565b6001600160a01b0391821691908116829003613749578083169283156136f6576134e78561313b565b506134f18561379a565b506000918583526020906006825260409061350e82862054613100565b50600490810180546001600160a01b03199081169091559091898782613533836133c3565b167f8c5be1e5ebec7d5bd14f71427d1e84f3dd0314c0f7b2291e5b200ac8c7c3b9258280a489875260068552600561356d85892054613100565b500180549091858988818f5b8684106136bf57505050505050508054878255806136a6575b50508886526006845260036135a984882054613100565b500190815416905585855260078352818520918254936000199485810190811161369357906135da8893928661342c565b90549060031b1c9060018601908c8552818152838520549261361b81613600868b61342c565b90919082549060031b600019811b9283911b16911916179055565b85525281832055898252812055815490811561368057509282889261367c947fddf252ad1be2c89b69c2b068fc378daa952ba7f163c4a11628f55a4df523b3ef97960191613669838361342c565b909182549160031b1b19169055556137de565b80a4565b634e487b7160e01b865260319052602485fd5b634e487b7160e01b885260118452602488fd5b6136b891885285882090810190613861565b3880613592565b6136ec9486928b6136d0878c61342c565b96905494835252209260031b1c168c5289528a88812055613852565b8690888b8f613579565b60405162461bcd60e51b815260206004820152602560248201527f455243333532353a207472616e7366657220746f20746865207a65726f206164604482015264647265737360d81b6064820152608490fd5b60405162461bcd60e51b8152602060048201526024808201527f455243333532353a207472616e736665722066726f6d20696e76616c6964206f6044820152633bb732b960e11b6064820152608490fd5b6137a3816145e3565b6000526006602052600261315c604060002054613100565b90815491600160401b83101561216957826136009160016130989501815561342c565b90604061309892600090838252600660205260036137fe84842054613100565b500180546001600160a01b0319166001600160a01b0390921691821790558082526007602081815284842080548786526001919091018252858520559183529052206137bb565b91908203918211612fe357565b6000198114612fe35760010190565b81811061386c575050565b60008155600101613861565b90600160401b81116121695781549080835581811061389657505050565b6130989260005260206000209182019101613861565b90816020910312610b9f57516001600160e01b031981168103610b9f5790565b3d156138f7573d906138dd82612a80565b916138eb6040519384612a5f565b82523d6000602084013e565b606090565b9192813b15613a145760209161394e916000604051958680958194630a85bd0160e11b9a8b845233600485015260018060a01b0380951660248501526044840152608060648401526084830190612ba7565b0393165af1600091816139e4575b506139d6576139696138cc565b805190816139d15760405162461bcd60e51b815260206004820152603260248201527f4552433732313a207472616e7366657220746f206e6f6e20455243373231526560448201527131b2b4bb32b91034b6b83632b6b2b73a32b960711b6064820152608490fd5b602001fd5b6001600160e01b0319161490565b613a0691925060203d8111613a0d575b6139fe8183612a5f565b8101906138ac565b903861395c565b503d6139f4565b50505050600190565b6001600160401b0381116121695760051b60200190565b919091600090808252602091601183526040928382205415600014613dba57613a5e858433613e9d565b60019586600354019687600355613a748561313b565b916001600160a01b0380821692908315613d6c578a15613d1e57613a978b61453f565b8015613d0f575b613ccb578851613aad81612a29565b8781528951888b8e613abe84612a0e565b8084528a84018a81528b8386019285845260608701948c8652608088019680885260a08901998a5260066005549485948352522055600160401b811015613cb7578089613b0e9201600555613100565b959095613ca357906005959493929151855551888501555160028401558560038401915116906001600160601b0360a01b9182825416179055856004840192511690825416179055019051918251926001600160401b03841161062357908883928f9b9a99989796959485613b8291613878565b0191895287892090895b848110613c8d575050505050507f6d811e6a20ae5461a4ef22a6998c1d958defe727f1cc522b6eb792bc8e6f726698979693869384613c6a9794613bf4613c879a7f0b2aac84f3ec956911fd78eae5311062972ff949f38412e8da39069d9f068cc6966137de565b857fddf252ad1be2c89b69c2b068fc378daa952ba7f163c4a11628f55a4df523b3ef8180a483857fe4f48c240d3b994948aa54f3e2f5fca59263dfe1d52b6e4cf39a5d249b5ccb658280a483835260068152613c5288842054613100565b50508751838152a3613c65858883614137565b61313b565b915192839286846040919493926060820195825260208201520152565b0390a190565b83518216818401558f9b50928901928501613b8c565b634e487b7160e01b8e5260048e905260248efd5b634e487b7160e01b8e52604160045260248efd5b885162461bcd60e51b815260048101879052601d60248201527f455243333532353a20746f6b656e20616c7265616479206d696e7465640000006044820152606490fd5b50613d198b61456d565b613a9e565b885162461bcd60e51b815260048101879052602160248201527f455243333532353a2063616e6e6f74206d696e74207a65726f20746f6b656e496044820152601960fa1b6064820152608490fd5b885162461bcd60e51b815260048101879052602160248201527f455243333532353a206d696e7420746f20746865207a65726f206164647265736044820152607360f81b6064820152608490fd5b600e5484516307a42e0160e11b8152600481018590526001600160a01b0397881660248201526044810187905291969192918791849160649183918691165af1958615613e91578196613e3a575b50505090613c87613c6a7f6d811e6a20ae5461a4ef22a6998c1d958defe727f1cc522b6eb792bc8e6f7266949361313b565b909180939650813d8311613e8a575b613e538183612a5f565b8101031261029257505192613c87613c6a7f6d811e6a20ae5461a4ef22a6998c1d958defe727f1cc522b6eb792bc8e6f7266613e08565b503d613e49565b508351903d90823e3d90fd5b613ea78183613f37565b613eb18383613444565b1580613f2b575b613ec3575b50505050565b838110613ee657613edd93613ed791613845565b91613f65565b38808080613ebd565b60405162461bcd60e51b815260206004820152601f60248201527f455243333532353a20696e73756666696369656e7420616c6c6f77616e6365006044820152606490fd5b50600019811415613eb8565b613f40816145e3565b600052600460205260406000209060018060a01b031660005260205260406000205490565b6001600160a01b03808316939192841561404e5783613f83916140a6565b15613fd1575b5060207f621b050de0ad08b51d19b48b3e6df75348c4de6bdd93e81b252ca62e28265b1b918360005260048252604060002085600052825280604060002055604051908152a3565b908260005260066020526005613feb604060002054613100565b500190815492600160401b84101561216957856140318560209560017f621b050de0ad08b51d19b48b3e6df75348c4de6bdd93e81b252ca62e28265b1b9801815561342c565b909283549160031b90811b9283911b169119161790559150613f89565b60405162461bcd60e51b815260206004820152602a60248201527f455243333532353a20617070726f76652076616c756520746f20746865207a65604482015269726f206164647265737360b01b6064820152608490fd5b60009082825260066020908082526040906140c382862054613100565b509260058094015496865b8881106140e15750505050505050905090565b8188528383526140ff81876140f8888c2054613100565b500161342c565b905460039190911b1c6001600160a01b03908116908816146141295761412490613852565b6140ce565b505050505050505050600190565b6141408161453f565b80156143df575b1561438a576141558261453f565b801561437b575b1561432857806000526020926006845260409261417c8460002054613100565b5081600052600686526141928560002054613100565b509060028101908154908582106142d1576001015460018401540361427657916002916141c58661421498979695613845565b9055016141d3838254612fd6565b905580837f0b2aac84f3ec956911fd78eae5311062972ff949f38412e8da39069d9f068cc6888851868152a384519261420b84612a29565b60008452614406565b1561421d575050565b60849250519062461bcd60e51b82526004820152602d60248201527f455243333532353a207472616e736665722072656a656374656420627920455260448201526c21999a991aa932b1b2b4bb32b960991b6064820152fd5b865162461bcd60e51b815260048101899052602e60248201527f455243333532353a207472616e7366657220746f20746f6b656e20776974682060448201526d191a5999995c995b9d081cdb1bdd60921b6064820152608490fd5b875162461bcd60e51b8152600481018a9052602a60248201527f455243333532353a20696e73756666696369656e742062616c616e636520666f60448201526939103a3930b739b332b960b11b6064820152608490fd5b60405162461bcd60e51b815260206004820152602560248201527f455243333532353a207472616e7366657220746f20696e76616c696420746f6b604482015264195b88125160da1b6064820152608490fd5b506143858261456d565b61415c565b60405162461bcd60e51b815260206004820152602760248201527f455243333532353a207472616e736665722066726f6d20696e76616c696420746044820152661bdad95b88125160ca1b6064820152608490fd5b506143e98161456d565b614147565b90816020910312610b9f57518015158103610b9f5790565b929092614412846133c3565b803b15614535576040516301ffc9a760e01b8152629ce20b60e01b6004820181905295602095926001600160a01b0316918681602481865afa60009181614506575b5061446f5750505050505050506144696138cc565b50600190565b156144fa57600086946144ae604051978896879586948d865233600487015260248601526044850152606484015260a0608484015260a4830190612ba7565b03925af19182156144ee576000926144d1575b50506001600160e01b0319161490565b6144e79250803d10613a0d576139fe8183612a5f565b38806144c1565b6040513d6000823e3d90fd5b50505050505050600190565b614527919250883d8a1161452e575b61451f8183612a5f565b8101906143ee565b9038614454565b503d614515565b5050505050600190565b6005541515908161454e575090565b8091506000526006602052614567604060002054613100565b50541490565b8060005260116020526040600020541590811591614589575090565b600e546040516341ce4b3f60e01b81526004810192909252909150602090829060249082906001600160a01b03165afa9081156144ee576000916145cb575090565b612aed915060203d811161452e5761451f8183612a5f565b613098906145f08161453f565b908115614615575b8115614605575b50613377565b61460f915061456d565b386145ff565b90506146208161456d565b906145f8565b61462f816145e3565b6146388161453f565b806146c5575b1561464c57612aed9061379a565b600090815260116020526040812054602060018060a01b03600e541691602460405180948193631398fee160e31b835260048301525afa9182156123ac57809261469557505090565b9091506020823d82116146bd575b816146b060209383612a5f565b8101031261029257505190565b3d91506146a3565b506146cf8161313b565b600c541461463e565b6146e1816145e3565b6146ea8161453f565b80614795575b156146fe57612aed906133c3565b60018060a01b0380600e54169160009081526011602052602060408220546024604051809681936331a9108f60e11b835260048301525afa9283156147885781936147495750505090565b909192506020813d8211614780575b8161476560209383612a5f565b81010312610b1157519182168203610292575038808061346f565b3d9150614758565b50604051903d90823e3d90fd5b5061479f8161313b565b600c54146146f0565b805182101561300a5760209160051b010190565b906147c6826145e3565b6147cf8261453f565b80614834575b156147e357612aed91613f37565b602060018060a01b0391604483600e541660009586526011845260408620549060405195869485936338d1782f60e21b855260048501521660248301525afa9182156123ac57809261469557505090565b5061483e8261313b565b600c54146147d556fe519b8a896d3cf44bd2d0545987d41a13bfb2ba37ce6ce401c753218178535608a26469706673582212209ab0ec973cd7aeb4663df14a4e01486291b0ecf1313d9e2f4cdcfc76596b7bc464736f6c634300081100336080604052346200048657620020b7803803806200001d816200048b565b9283398101608082820312620004865781516001600160401b0391908281116200048657816200004f918501620004b1565b91602092838501518281116200048657836200006d918701620004b1565b92604086015183811162000486576060916200008b918801620004b1565b9501516001600160a01b03811695908690036200048657815193838511620002c3576001948554938685811c951680156200047b575b88861014620002a2578190601f9586811162000425575b508890868311600114620003bd57600092620003b1575b5050600019600383901b1c191690861b1785555b805190848211620002c357600254908682811c92168015620003a6575b88831014620002a25781858493116200034f575b508790858311600114620002e557600092620002d9575b5050600019600383901b1c191690851b176002555b8051928311620002c35760039485548581811c91168015620002b8575b82821014620002a25783811162000257575b5080928411600114620001ed5750928293918392600094620001e1575b50501b9160001990841b1c19161790555b600080546001600160a01b031916919091179055604051611b939081620005248239f35b015192503880620001ac565b919083601f1981168760005284600020946000905b888383106200023c575050501062000223575b505050811b019055620001bd565b015160001983861b60f8161c1916905538808062000215565b85870151885590960195948501948793509081019062000202565b86600052816000208480870160051c82019284881062000298575b0160051c019086905b8281106200028b5750506200018f565b600081550186906200027b565b9250819262000272565b634e487b7160e01b600052602260045260246000fd5b90607f16906200017d565b634e487b7160e01b600052604160045260246000fd5b0151905038806200014b565b90879350601f198316916002600052896000209260005b8b8282106200033857505084116200031e575b505050811b0160025562000160565b015160001960f88460031b161c191690553880806200030f565b8385015186558b97909501949384019301620002fc565b9091506002600052876000208580850160051c8201928a86106200039c575b918991869594930160051c01915b8281106200038c57505062000134565b600081558594508991016200037c565b925081926200036e565b91607f169162000120565b015190503880620000ef565b90889350601f19831691846000528a6000209260005b8c8282106200040e5750508411620003f4575b505050811b01855562000103565b015160001960f88460031b161c19169055388080620003e6565b8385015186558c97909501949384019301620003d3565b90915087600052886000208680850160051c8201928b861062000471575b918a91869594930160051c01915b82811062000461575050620000d8565b600081558594508a910162000451565b9250819262000443565b94607f1694620000c1565b600080fd5b6040519190601f01601f191682016001600160401b03811183821017620002c357604052565b919080601f84011215620004865782516001600160401b038111620002c357602090620004e7601f8201601f191683016200048b565b92818452828287010111620004865760005b8181106200050f57508260009394955001015290565b8581018301518482018401528201620004f956fe608060408181526004908136101561001657600080fd5b600092833560e01c9081631375d843146113cd57508063246a908b146112cf57806355f804b31461118b57806364140ec01461108c5780636c0360eb14610fcd5780636c037f8a14610d0f57806371f0442e14610c7b578063725fa09c146108c05780637e468a51146107c1578063842251d414610685578063894b4c2e146101755763b3154c08146100a857600080fd5b34610171576020918260031936011261016d5780358452825280832091815192848154906100d5826118e1565b80875292600192808416908115610149575060011461010e575b61010a8787610100828c03836114e3565b5191829182611485565b0390f35b9080949750528583205b828410610136575050508261010a94610100928201019438806100ef565b8054868501880152928601928101610118565b60ff19168887015250505050151560051b83010192506101008261010a38806100ef565b8380fd5b8280fd5b50903461017157602092836003193601126106825782516306fdde0360e01b81529180359082848281335afa938415610678578394610654575b506101b98261179e565b926102056022875180968a6101d78184019a8b815193849201611462565b820161202360f01b8c8201526101f68c83519384918785019101611462565b010360028101875201856114e3565b828152818752858120865181549391899184610220876118e1565b80835284830193600198868a821691826000146106345750506001146105fb575b505090610254816102c9949303826114e3565b6102e561026030611a1a565b898852600686526102d78d808a209a60058952818b2091519788948a86019a6102ac61028b8d61191b565b91692f636f6e74726163742f60b01b83528351938491600a85019101611462565b019c6011662f746f6b656e2f60c81b9e8f600a8201520190611997565b602f60f81b81520190611997565b03601f1981018552846114e3565b8a51631398fee160e31b81528581018990528c81602481335afa80156105c25787906105cc575b610316915061179e565b8b5163131f9f3f60e11b8152958601899052948c81602481335afa9081156105c2578d918d918991610589575b5061034d9061179e565b9761035733611a1a565b9a815260068352208c51713d91383937b832b93a34b2b9afbab934911d60711b818401908152601160f91b60328301529a90998a93909161039a6033860161191b565b9068636f6e74726163742f60b81b825280518093600984019201916103be92611462565b019060098201526010016103d191611997565b6f17b83937b832b93a34b2b9973539b7b760811b815261227d60f01b601082015203600d198101885260120161040790886114e3565b8a51998a998d683d913730b6b2911d1160b91b908c015251908160298c0161042e92611462565b890190701116113232b9b1b934b83a34b7b7111d1160791b6029830152519182603a830161045b92611462565b01906a11161134b6b0b3b2911d1160a91b603a8301525191826045830161048192611462565b016c1116113130b630b731b2911d1160991b6045820152815191828a605284019201916104ad92611462565b016911161139b637ba111d1160b11b60528201528151918289605c84019201916104d692611462565b01906e111611383937b832b93a34b2b9911d60891b605c830152519182606b830161050092611462565b01606b8101607d60f81b905203604c81018252606c0161052090826114e3565b61052990611631565b81517f646174613a6170706c69636174696f6e2f6a736f6e3b6261736536342c00000084820152815190938492610567918391603d86019101611462565b810103601d81018352603d0161057d90836114e3565b5161010a819282611485565b928092508391503d83116105bb575b6105a281836114e3565b810103126105b7578b61034d8e925190610343565b8680fd5b503d610598565b8c513d89823e3d90fd5b508c81813d83116105f4575b6105e281836114e3565b810103126105b757610316905161030c565b503d6105d8565b8592508752818720908888925b82841061061e5750505082010161025482610241565b80548487018601528794909301928a9101610608565b60ff1916875292151560051b850190920192506102549150839050610241565b6106719194503d8085833e61066981836114e3565b8101906115a0565b92386101af565b85513d85823e3d90fd5b80fd5b508290346107bd576106963661156d565b939083526020916006835283209184519167ffffffffffffffff83116107aa57506106c183546118e1565b601f8111610767575b5080601f831160011461070557508394829394926106fa575b50508160011b916000199060031b1c191617905580f35b0151905084806106e3565b90601f198316958486528286209286905b88821061074f57505083600195969710610736575b505050811b01905580f35b015160001960f88460031b161c1916905584808061072b565b80600185968294968601518155019501930190610716565b838552818520601f840160051c8101918385106107a0575b601f0160051c01905b81811061079557506106ca565b858155600101610788565b909150819061077f565b634e487b7160e01b855260419052602484fd5b5080fd5b508290346107bd576107d23661156d565b939083526020916007835283209184519167ffffffffffffffff83116107aa57506107fd83546118e1565b601f811161087d575b5080601f831160011461083557508394829394926106fa5750508160011b916000199060031b1c191617905580f35b90601f198316958486528286209286905b8882106108655750508360019596971061073657505050811b01905580f35b80600185968294968601518155019501930190610846565b838552818520601f840160051c8101918385106108b6575b601f0160051c01905b8181106108ab5750610806565b85815560010161089e565b9091508190610895565b50913461068257806003193601126106825782516306fdde0360e01b815281818481335afa908115610c71578291610c57575b508351829060025492610905846118e1565b9586835260209683888101956001978a8982169182600014610c3c575050600114610be1575b610937925003846114e3565b61094033611a1a565b9588519586898101986109528a61191b565b68636f6e74726163742f60b81b81526109758c8351938491600985019101611462565b01602f60f81b600982015283906003549361098f856118e1565b94818116908115610bc05750600114610b61575b50506109b8925003601f1981018852876114e3565b8789518093633e7e866960e01b825281335afa918215610b55578192610b17575b5050610ac9605a888a61010a9b9961010099610a7f603d9a610b079e9a610a5c610ace9b610a0c60ff610a329d1661179e565b97519b8c99683d913730b6b2911d1160b91b818c0152825192839160298d019101611462565b880191701116113232b9b1b934b83a34b7b7111d1160791b6029840152518093603a840190611462565b01916a11161134b6b0b3b2911d1160a91b603a8401525180936045840190611462565b01721116113b30b63ab2a232b1b4b6b0b639911d1160691b6045820152610aaf825180938a605885019101611462565b0161227d60f01b605882015203603a8101845201826114e3565b611631565b845195827f646174613a6170706c69636174696f6e2f6a736f6e3b6261736536342c000000889485015282519283918686019101611462565b810103601d8101855201836114e3565b9091508781813d8311610b4e575b610b2f81836114e3565b810103126107bd57519060ff821682036106825750610ac9605a6109d9565b503d610b25565b508851903d90823e3d90fd5b6003865290915084908c7fc2575a0e9e593c00f959f8c92f12db2869c3395a3b0502d05e2516446f71f85b5b868410610ba857505050506109b892600a91010138806109a3565b8054858501600a01528c95509201918d908201610b8d565b9050600a93506109b895915060ff19168383015280151502010138806109a3565b505060028752838888887f405787fa12a823e0f2b7631cc41b3ba8828b3321ca811111fa75cd3aa3bb5ace5b858310610c23575050610937935082010161092b565b80919294505483858a0101520191018990888793610c0d565b60ff1916895261093794151560051b840101915061092b9050565b610c6b91503d8084833e61066981836114e3565b386108f3565b84513d84823e3d90fd5b5034610171576020918260031936011261016d57358352600582528083209181519284815490610caa826118e1565b808752926001928084169081156101495750600114610cd45761010a8787610100828c03836114e3565b9080949750528583205b828410610cfc575050508261010a94610100928201019438806100ef565b8054868501880152928601928101610cde565b5090346101715760209283600319360112610682578054835163ec327a2160e01b815283358185018190529092916001600160a01b0316908284602481855afa938415610fc3578394610fa7575b50855163bc74ebb960e01b8152858101829052948386602481865afa958615610f9d578496610f81575b5086516309c3dd8760e01b80825282820184905290938585602481845afa948515610f7757918a9594939187938496610f56575b5090602491610dfb60268d518a652f696d61676560d01b81610de7849e85019d8e815193849201611462565b83019182015203600681018b5201896114e3565b8b51958694859384528301525afa938415610f4b578094610f2e575b50508551918288808201868197519283910191610e3392611462565b81018981016f17b83937b832b93a34b2b9973539b7b760811b905203601081018452603001610e6290846114e3565b8651958695683d913730b6b2911d1160b91b8a880152805190818b60298a01920191610e8d92611462565b8601701116113232b9b1b934b83a34b7b7111d1160791b6029820152815191828b603a8401920191610ebe92611462565b01906a11161134b6b0b3b2911d1160a91b603a83015251918260458301610ee492611462565b01906e111611383937b832b93a34b2b9911d60891b604583015251918260548301610f0e92611462565b0160548101607d60f81b90520360358101825260550161052090826114e3565b610f439294503d8091833e61066981836114e3565b913880610e17565b8751903d90823e3d90fd5b602492919650610f6f903d8087833e61066981836114e3565b959091610dbb565b89513d88823e3d90fd5b610f969196503d8086833e61066981836114e3565b9438610d87565b87513d86823e3d90fd5b610fbc9194503d8085833e61066981836114e3565b9238610d5d565b86513d85823e3d90fd5b8382346107bd57816003193601126107bd57805190826001805491610ff1836118e1565b80865292828116908115611064575060011461101a575b5050506101008261010a9403836114e3565b9450808552600080516020611b3e8339815191525b82861061104c5750505061010082602061010a9582010194611008565b8054602087870181019190915290950194810161102f565b61010a97508693506020925061010094915060ff191682840152151560051b82010194611008565b508290346107bd5761109d3661156d565b939083526020916005835283209184519167ffffffffffffffff83116107aa57506110c883546118e1565b601f8111611148575b5080601f831160011461110057508394829394926106fa5750508160011b916000199060031b1c191617905580f35b90601f198316958486528286209286905b8882106111305750508360019596971061073657505050811b01905580f35b80600185968294968601518155019501930190611111565b838552818520601f840160051c810191838510611181575b601f0160051c01905b81811061117657506110d1565b858155600101611169565b9091508190611160565b828434610682576020806003193601126107bd5767ffffffffffffffff833581811161016d576111be9036908601611521565b9384519182116112bc57506001916111d683546118e1565b601f811161126a575b5080601f8311600114611219575083948293949261120e575b5050600019600383901b1c191690821b17905580f35b0151905084806111f8565b838552601f19831695600080516020611b3e833981519152929186905b888210611253575050838596971061073657505050811b01905580f35b808785968294968601518155019501930190611236565b838552600080516020611b3e833981519152601f840160051c8101918385106112b2575b601f0160051c019084905b8281106112a75750506111df565b868155018490611299565b909150819061128e565b634e487b7160e01b845260419052602483fd5b508290346107bd576112e03661156d565b9390835260209181835283209184519167ffffffffffffffff83116107aa575061130a83546118e1565b601f811161138a575b5080601f831160011461134257508394829394926106fa5750508160011b916000199060031b1c191617905580f35b90601f198316958486528286209286905b8882106113725750508360019596971061073657505050811b01905580f35b80600185968294968601518155019501930190611353565b838552818520601f840160051c8101918385106113c3575b601f0160051c01905b8181106113b85750611313565b8581556001016113ab565b90915081906113a2565b9290503461016d576020908160031936011261145e57358452600681528184208054856113f9826118e1565b8087529260019280841690811561014957506001146114235761010a8787610100828c03836114e3565b9080949750528583205b82841061144b575050508261010a94610100928201019438806100ef565b805486850188015292860192810161142d565b8480fd5b60005b8381106114755750506000910152565b8181015183820152602001611465565b604091602082526114a58151809281602086015260208686019101611462565b601f01601f1916010190565b6060810190811067ffffffffffffffff8211176114cd57604052565b634e487b7160e01b600052604160045260246000fd5b90601f8019910116810190811067ffffffffffffffff8211176114cd57604052565b67ffffffffffffffff81116114cd57601f01601f191660200190565b81601f820112156115685780359061153882611505565b9261154660405194856114e3565b8284526020838301011161156857816000926020809301838601378301015290565b600080fd5b90604060031983011261156857600435916024359067ffffffffffffffff82116115685761159d91600401611521565b90565b6020818303126115685780519067ffffffffffffffff8211611568570181601f820112156115685780516115d381611505565b926115e160405194856114e3565b818452602082840101116115685761159d9160208085019101611462565b9061160982611505565b61161660405191826114e3565b8281528092611627601f1991611505565b0190602036910137565b80511561177957604051611644816114b1565b604081527f4142434445464748494a4b4c4d4e4f505152535455565758595a61626364656660208201527f6768696a6b6c6d6e6f707172737475767778797a303132333435363738392b2f60408201528151600292838201809211611763576003918290046001600160fe1b0381168103611763576116c6908594951b6115ff565b936020850193829183518401925b83811061171257505050505106806001146116ff576002146116f4575090565b603d90600019015390565b50603d9081600019820153600119015390565b85600491979293949701918251600190603f9082828260121c16880101518453828282600c1c16880101518385015382828260061c16880101518885015316850101518782015301959291906116d4565b634e487b7160e01b600052601160045260246000fd5b506040516020810181811067ffffffffffffffff8211176114cd576040526000815290565b806000917a184f03e93ff9f4daa797ed6e38ed64bf6a1f010000000000000000808210156118d3575b506d04ee2d6d415b85acef8100000000808310156118c4575b50662386f26fc10000808310156118b5575b506305f5e100808310156118a6575b5061271080831015611897575b506064821015611887575b600a8092101561187d575b6001908160216118358287016115ff565b95860101905b611847575b5050505090565b600019019083906f181899199a1a9b1b9c1cb0b131b232b360811b8282061a8353049182156118785791908261183b565b611840565b9160010191611824565b9190606460029104910191611819565b6004919392049101913861180e565b60089193920491019138611801565b601091939204910191386117f2565b602091939204910191386117e0565b6040935081049150386117c7565b90600182811c92168015611911575b60208310146118fb57565b634e487b7160e01b600052602260045260246000fd5b91607f16916118f0565b9060009160019081549161192e836118e1565b92818116908115611984575060011461194657505050565b809192939450600052600080516020611b3e833981519152906000915b848310611971575050500190565b8181602092548587015201920191611963565b60ff191683525050811515909102019150565b6000929181546119a6816118e1565b926001918083169081156119ff57506001146119c3575b50505050565b90919293945060005260209081600020906000915b8583106119ee57505050500190388080806119bd565b8054858401529183019181016119d8565b60ff19168452505050811515909102019150388080806119bd565b604051906001600160a01b0316611a30826114b1565b602a82526020908183016040368237835115611b2757603090538251600190811015611b2757607860218501536029905b808211611ab5575050611a72575090565b6064906040519062461bcd60e51b825280600483015260248201527f537472696e67733a20686578206c656e67746820696e73756666696369656e746044820152fd5b9091600f81166010811015611b12578551841015611b12576f181899199a1a9b1b9c1cb0b131b232b360811b901a85840185015360041c918015611afd576000190190611a61565b60246000634e487b7160e01b81526011600452fd5b60246000634e487b7160e01b81526032600452fd5b634e487b7160e01b600052603260045260246000fdfeb10e2d527612073b26eecdfd717e6a320cf44b4afac2b0732d9fcbe2b7fa0cf6a2646970667358221220075d961bac45a8455e8b8f4260cef222c6c6880276b6f448f391c8c0a2b708f264736f6c634300081100332f8788117e7eff1d82e926ec794901d17c78024a50270940304540a733656f0d",
  "linkReferences": {},
  "deployedLinkReferences": {}
}