{
  "_format": "hh-sol-artifact-1",
  "contractName": "Service",
  "sourceName": "contracts/Service.sol",
  "abi": [
    {
      "inputs": [
        {
          "internalType": "address",
          "name": "serviceAddress_",
          "type": "address"
        },
        {
          "internalType": "address",
          "name": "slotRegistry_",
          "type": "address"
        },
        {
          "internalType": "string",
          "name": "name_",
          "type": "string"
        },
        {
          "internalType": "string",
          "name": "symbol_",
          "type": "string"
        },
        {
          "internalType": "string",
          "name": "baseuri_",
          "type": "string"
        },
        {
          "internalType": "string",
          "name": "contractDescription_",
          "type": "string"
        },
        {
          "internalType": "string",
          "name": "contractImage_",
          "type": "string"
        },
        {
          "internalType": "uint8",
          "name": "decimals_",
          "type": "uint8"
        }
      ],
      "stateMutability": "nonpayable",
      "type": "constructor"
    },
    {
      "anonymous": false,
      "inputs": [
        {
          "indexed": true,
          "internalType": "address",
          "name": "_owner",
          "type": "address"
        },
        {
          "indexed": true,
          "internalType": "address",
          "name": "_approved",
          "type": "address"
        },
        {
          "indexed": true,
          "internalType": "uint256",
          "name": "_tokenId",
          "type": "uint256"
        }
      ],
      "name": "Approval",
      "type": "event"
    },
    {
      "anonymous": false,
      "inputs": [
        {
          "indexed": true,
          "internalType": "address",
          "name": "_owner",
          "type": "address"
        },
        {
          "indexed": true,
          "internalType": "address",
          "name": "_operator",
          "type": "address"
        },
        {
          "indexed": false,
          "internalType": "bool",
          "name": "_approved",
          "type": "bool"
        }
      ],
      "name": "ApprovalForAll",
      "type": "event"
    },
    {
      "anonymous": false,
      "inputs": [
        {
          "indexed": true,
          "internalType": "uint256",
          "name": "_tokenId",
          "type": "uint256"
        },
        {
          "indexed": true,
          "internalType": "address",
          "name": "_operator",
          "type": "address"
        },
        {
          "indexed": false,
          "internalType": "uint256",
          "name": "_value",
          "type": "uint256"
        }
      ],
      "name": "ApprovalValue",
      "type": "event"
    },
    {
      "anonymous": false,
      "inputs": [
        {
          "indexed": false,
          "internalType": "address",
          "name": "contractAddress",
          "type": "address"
        }
      ],
      "name": "MetadataDescriptor",
      "type": "event"
    },
    {
      "anonymous": false,
      "inputs": [
        {
          "indexed": false,
          "internalType": "uint256",
          "name": "tokenId",
          "type": "uint256"
        },
        {
          "indexed": false,
          "internalType": "uint256",
          "name": "slot",
          "type": "uint256"
        },
        {
          "indexed": false,
          "internalType": "uint256",
          "name": "value",
          "type": "uint256"
        }
      ],
      "name": "MintServiceToken",
      "type": "event"
    },
    {
      "anonymous": false,
      "inputs": [
        {
          "indexed": false,
          "internalType": "uint256",
          "name": "newTokenId",
          "type": "uint256"
        },
        {
          "indexed": false,
          "internalType": "uint256",
          "name": "slot",
          "type": "uint256"
        },
        {
          "indexed": false,
          "internalType": "uint256",
          "name": "value",
          "type": "uint256"
        }
      ],
      "name": "MintServiceTokenToAddress",
      "type": "event"
    },
    {
      "anonymous": false,
      "inputs": [
        {
          "indexed": true,
          "internalType": "address",
          "name": "previousOwner",
          "type": "address"
        },
        {
          "indexed": true,
          "internalType": "address",
          "name": "newOwner",
          "type": "address"
        }
      ],
      "name": "OwnershipTransferred",
      "type": "event"
    },
    {
      "anonymous": false,
      "inputs": [
        {
          "indexed": true,
          "internalType": "address",
          "name": "metadataDescriptor",
          "type": "address"
        }
      ],
      "name": "SetMetadataDescriptor",
      "type": "event"
    },
    {
      "anonymous": false,
      "inputs": [
        {
          "indexed": true,
          "internalType": "uint256",
          "name": "_tokenId",
          "type": "uint256"
        },
        {
          "indexed": true,
          "internalType": "uint256",
          "name": "_oldSlot",
          "type": "uint256"
        },
        {
          "indexed": true,
          "internalType": "uint256",
          "name": "_newSlot",
          "type": "uint256"
        }
      ],
      "name": "SlotChanged",
      "type": "event"
    },
    {
      "anonymous": false,
      "inputs": [
        {
          "indexed": true,
          "internalType": "address",
          "name": "_from",
          "type": "address"
        },
        {
          "indexed": true,
          "internalType": "address",
          "name": "_to",
          "type": "address"
        },
        {
          "indexed": true,
          "internalType": "uint256",
          "name": "_tokenId",
          "type": "uint256"
        }
      ],
      "name": "Transfer",
      "type": "event"
    },
    {
      "anonymous": false,
      "inputs": [
        {
          "indexed": true,
          "internalType": "uint256",
          "name": "_fromTokenId",
          "type": "uint256"
        },
        {
          "indexed": true,
          "internalType": "uint256",
          "name": "_toTokenId",
          "type": "uint256"
        },
        {
          "indexed": false,
          "internalType": "uint256",
          "name": "_value",
          "type": "uint256"
        }
      ],
      "name": "TransferValue",
      "type": "event"
    },
    {
      "anonymous": false,
      "inputs": [
        {
          "indexed": false,
          "internalType": "uint256",
          "name": "fromTokenId",
          "type": "uint256"
        },
        {
          "indexed": false,
          "internalType": "uint256",
          "name": "toTokenId",
          "type": "uint256"
        },
        {
          "indexed": false,
          "internalType": "uint256",
          "name": "value",
          "type": "uint256"
        }
      ],
      "name": "ValueTransfer",
      "type": "event"
    },
    {
      "inputs": [
        {
          "internalType": "string",
          "name": "uri_",
          "type": "string"
        }
      ],
      "name": "_setBaseURI",
      "outputs": [],
      "stateMutability": "nonpayable",
      "type": "function"
    },
    {
      "inputs": [
        {
          "internalType": "uint256",
          "name": "tokenId_",
          "type": "uint256"
        },
        {
          "internalType": "address",
          "name": "operator_",
          "type": "address"
        }
      ],
      "name": "allowance",
      "outputs": [
        {
          "internalType": "uint256",
          "name": "",
          "type": "uint256"
        }
      ],
      "stateMutability": "view",
      "type": "function"
    },
    {
      "inputs": [
        {
          "internalType": "address",
          "name": "to_",
          "type": "address"
        },
        {
          "internalType": "uint256",
          "name": "tokenId_",
          "type": "uint256"
        }
      ],
      "name": "approve",
      "outputs": [],
      "stateMutability": "payable",
      "type": "function"
    },
    {
      "inputs": [
        {
          "internalType": "uint256",
          "name": "tokenId_",
          "type": "uint256"
        },
        {
          "internalType": "address",
          "name": "to_",
          "type": "address"
        },
        {
          "internalType": "uint256",
          "name": "value_",
          "type": "uint256"
        }
      ],
      "name": "approve",
      "outputs": [],
      "stateMutability": "payable",
      "type": "function"
    },
    {
      "inputs": [
        {
          "internalType": "address",
          "name": "owner_",
          "type": "address"
        }
      ],
      "name": "balanceOf",
      "outputs": [
        {
          "internalType": "uint256",
          "name": "balance",
          "type": "uint256"
        }
      ],
      "stateMutability": "view",
      "type": "function"
    },
    {
      "inputs": [
        {
          "internalType": "uint256",
          "name": "tokenId_",
          "type": "uint256"
        }
      ],
      "name": "balanceOf",
      "outputs": [
        {
          "internalType": "uint256",
          "name": "",
          "type": "uint256"
        }
      ],
      "stateMutability": "view",
      "type": "function"
    },
    {
      "inputs": [],
      "name": "contractURI",
      "outputs": [
        {
          "internalType": "string",
          "name": "",
          "type": "string"
        }
      ],
      "stateMutability": "view",
      "type": "function"
    },
    {
      "inputs": [
        {
          "internalType": "uint256",
          "name": "tokenId_",
          "type": "uint256"
        }
      ],
      "name": "getApproved",
      "outputs": [
        {
          "internalType": "address",
          "name": "",
          "type": "address"
        }
      ],
      "stateMutability": "view",
      "type": "function"
    },
    {
      "inputs": [
        {
          "internalType": "uint256",
          "name": "tokenId",
          "type": "uint256"
        }
      ],
      "name": "getTokenDescription",
      "outputs": [
        {
          "internalType": "string",
          "name": "",
          "type": "string"
        }
      ],
      "stateMutability": "view",
      "type": "function"
    },
    {
      "inputs": [
        {
          "internalType": "uint256",
          "name": "tokenId",
          "type": "uint256"
        }
      ],
      "name": "getTokenImage",
      "outputs": [
        {
          "internalType": "string",
          "name": "",
          "type": "string"
        }
      ],
      "stateMutability": "view",
      "type": "function"
    },
    {
      "inputs": [
        {
          "internalType": "uint256",
          "name": "tokenId",
          "type": "uint256"
        }
      ],
      "name": "getTokenUUID",
      "outputs": [
        {
          "internalType": "string",
          "name": "",
          "type": "string"
        }
      ],
      "stateMutability": "view",
      "type": "function"
    },
    {
      "inputs": [
        {
          "internalType": "address",
          "name": "owner_",
          "type": "address"
        },
        {
          "internalType": "address",
          "name": "operator_",
          "type": "address"
        }
      ],
      "name": "isApprovedForAll",
      "outputs": [
        {
          "internalType": "bool",
          "name": "",
          "type": "bool"
        }
      ],
      "stateMutability": "view",
      "type": "function"
    },
    {
      "inputs": [],
      "name": "metadataDescriptor",
      "outputs": [
        {
          "internalType": "contract IERC3525MetadataDescriptor",
          "name": "",
          "type": "address"
        }
      ],
      "stateMutability": "view",
      "type": "function"
    },
    {
      "inputs": [
        {
          "internalType": "address",
          "name": "owner_",
          "type": "address"
        },
        {
          "internalType": "uint256",
          "name": "slot_",
          "type": "uint256"
        },
        {
          "internalType": "uint256",
          "name": "value_",
          "type": "uint256"
        },
        {
          "internalType": "string",
          "name": "uuid_",
          "type": "string"
        },
        {
          "internalType": "string",
          "name": "token_description_",
          "type": "string"
        },
        {
          "internalType": "string",
          "name": "token_image_",
          "type": "string"
        }
      ],
      "name": "mint",
      "outputs": [
        {
          "internalType": "uint256",
          "name": "",
          "type": "uint256"
        }
      ],
      "stateMutability": "nonpayable",
      "type": "function"
    },
    {
      "inputs": [],
      "name": "name",
      "outputs": [
        {
          "internalType": "string",
          "name": "",
          "type": "string"
        }
      ],
      "stateMutability": "view",
      "type": "function"
    },
    {
      "inputs": [],
      "name": "owner",
      "outputs": [
        {
          "internalType": "address",
          "name": "",
          "type": "address"
        }
      ],
      "stateMutability": "view",
      "type": "function"
    },
    {
      "inputs": [
        {
          "internalType": "uint256",
          "name": "tokenId_",
          "type": "uint256"
        }
      ],
      "name": "ownerOf",
      "outputs": [
        {
          "internalType": "address",
          "name": "owner_",
          "type": "address"
        }
      ],
      "stateMutability": "view",
      "type": "function"
    },
    {
      "inputs": [],
      "name": "renounceOwnership",
      "outputs": [],
      "stateMutability": "nonpayable",
      "type": "function"
    },
    {
      "inputs": [
        {
          "internalType": "address",
          "name": "from_",
          "type": "address"
        },
        {
          "internalType": "address",
          "name": "to_",
          "type": "address"
        },
        {
          "internalType": "uint256",
          "name": "tokenId_",
          "type": "uint256"
        }
      ],
      "name": "safeTransferFrom",
      "outputs": [],
      "stateMutability": "payable",
      "type": "function"
    },
    {
      "inputs": [
        {
          "internalType": "address",
          "name": "from_",
          "type": "address"
        },
        {
          "internalType": "address",
          "name": "to_",
          "type": "address"
        },
        {
          "internalType": "uint256",
          "name": "tokenId_",
          "type": "uint256"
        },
        {
          "internalType": "bytes",
          "name": "data_",
          "type": "bytes"
        }
      ],
      "name": "safeTransferFrom",
      "outputs": [],
      "stateMutability": "payable",
      "type": "function"
    },
    {
      "inputs": [
        {
          "internalType": "address",
          "name": "operator_",
          "type": "address"
        },
        {
          "internalType": "bool",
          "name": "approved_",
          "type": "bool"
        }
      ],
      "name": "setApprovalForAll",
      "outputs": [],
      "stateMutability": "nonpayable",
      "type": "function"
    },
    {
      "inputs": [
        {
          "internalType": "uint256",
          "name": "tokenId_",
          "type": "uint256"
        }
      ],
      "name": "slotOf",
      "outputs": [
        {
          "internalType": "uint256",
          "name": "",
          "type": "uint256"
        }
      ],
      "stateMutability": "view",
      "type": "function"
    },
    {
      "inputs": [
        {
          "internalType": "uint256",
          "name": "slot_",
          "type": "uint256"
        }
      ],
      "name": "slotURI",
      "outputs": [
        {
          "internalType": "string",
          "name": "",
          "type": "string"
        }
      ],
      "stateMutability": "view",
      "type": "function"
    },
    {
      "inputs": [
        {
          "internalType": "bytes4",
          "name": "interfaceId",
          "type": "bytes4"
        }
      ],
      "name": "supportsInterface",
      "outputs": [
        {
          "internalType": "bool",
          "name": "",
          "type": "bool"
        }
      ],
      "stateMutability": "view",
      "type": "function"
    },
    {
      "inputs": [],
      "name": "symbol",
      "outputs": [
        {
          "internalType": "string",
          "name": "",
          "type": "string"
        }
      ],
      "stateMutability": "view",
      "type": "function"
    },
    {
      "inputs": [
        {
          "internalType": "uint256",
          "name": "index_",
          "type": "uint256"
        }
      ],
      "name": "tokenByIndex",
      "outputs": [
        {
          "internalType": "uint256",
          "name": "",
          "type": "uint256"
        }
      ],
      "stateMutability": "view",
      "type": "function"
    },
    {
      "inputs": [
        {
          "internalType": "address",
          "name": "owner_",
          "type": "address"
        },
        {
          "internalType": "uint256",
          "name": "index_",
          "type": "uint256"
        }
      ],
      "name": "tokenOfOwnerByIndex",
      "outputs": [
        {
          "internalType": "uint256",
          "name": "",
          "type": "uint256"
        }
      ],
      "stateMutability": "view",
      "type": "function"
    },
    {
      "inputs": [
        {
          "internalType": "uint256",
          "name": "tokenId_",
          "type": "uint256"
        }
      ],
      "name": "tokenURI",
      "outputs": [
        {
          "internalType": "string",
          "name": "",
          "type": "string"
        }
      ],
      "stateMutability": "view",
      "type": "function"
    },
    {
      "inputs": [],
      "name": "totalSupply",
      "outputs": [
        {
          "internalType": "uint256",
          "name": "",
          "type": "uint256"
        }
      ],
      "stateMutability": "view",
      "type": "function"
    },
    {
      "inputs": [
        {
          "internalType": "uint256",
          "name": "fromTokenId_",
          "type": "uint256"
        },
        {
          "internalType": "address",
          "name": "to_",
          "type": "address"
        },
        {
          "internalType": "uint256",
          "name": "value_",
          "type": "uint256"
        }
      ],
      "name": "transferFrom",
      "outputs": [
        {
          "internalType": "uint256",
          "name": "",
          "type": "uint256"
        }
      ],
      "stateMutability": "payable",
      "type": "function"
    },
    {
      "inputs": [
        {
          "internalType": "address",
          "name": "from_",
          "type": "address"
        },
        {
          "internalType": "address",
          "name": "to_",
          "type": "address"
        },
        {
          "internalType": "uint256",
          "name": "tokenId_",
          "type": "uint256"
        }
      ],
      "name": "transferFrom",
      "outputs": [],
      "stateMutability": "payable",
      "type": "function"
    },
    {
      "inputs": [
        {
          "internalType": "uint256",
          "name": "fromTokenId_",
          "type": "uint256"
        },
        {
          "internalType": "uint256",
          "name": "toTokenId_",
          "type": "uint256"
        },
        {
          "internalType": "uint256",
          "name": "value_",
          "type": "uint256"
        }
      ],
      "name": "transferFrom",
      "outputs": [],
      "stateMutability": "payable",
      "type": "function"
    },
    {
      "inputs": [
        {
          "internalType": "address",
          "name": "newOwner",
          "type": "address"
        }
      ],
      "name": "transferOwnership",
      "outputs": [],
      "stateMutability": "nonpayable",
      "type": "function"
    },
    {
      "inputs": [],
      "name": "valueDecimals",
      "outputs": [
        {
          "internalType": "uint8",
          "name": "",
          "type": "uint8"
        }
      ],
      "stateMutability": "view",
      "type": "function"
    }
  ],
  "bytecode": "0x60806040523480156200001157600080fd5b5060405162005517380380620055178339810160408190526200003491620002a4565b85858260006200004584826200044d565b5060016200005483826200044d565b506002805460ff191660ff92909216919091179055506200007e9050620000783390565b62000148565b600a80546001600160a01b0319166001600160a01b038a16179055600b620000a785826200044d565b50600b838389604051620000bb906200019a565b620000ca949392919062000547565b604051809103906000f080158015620000e7573d6000803e3d6000fd5b50600880546001600160a01b0319166001600160a01b039290921691821790556040519081527f9ac4f8025631594629895b778dc5ee88d01673a254a2291f6b6b174ad25230ca9060200160405180910390a150505050505050506200061f565b600980546001600160a01b038381166001600160a01b0319831681179093556040519116919082907f8be0079c531659141344cd1fd0a4f28419497f9722a3daafe3b4186f6b6457e090600090a35050565b611ada8062003a3d83390190565b80516001600160a01b0381168114620001c057600080fd5b919050565b634e487b7160e01b600052604160045260246000fd5b60005b83811015620001f8578181015183820152602001620001de565b50506000910152565b600082601f8301126200021357600080fd5b81516001600160401b0380821115620002305762000230620001c5565b604051601f8301601f19908116603f011681019082821181831017156200025b576200025b620001c5565b816040528381528660208588010111156200027557600080fd5b62000288846020830160208901620001db565b9695505050505050565b805160ff81168114620001c057600080fd5b600080600080600080600080610100898b031215620002c257600080fd5b620002cd89620001a8565b9750620002dd60208a01620001a8565b60408a01519097506001600160401b0380821115620002fb57600080fd5b620003098c838d0162000201565b975060608b01519150808211156200032057600080fd5b6200032e8c838d0162000201565b965060808b01519150808211156200034557600080fd5b620003538c838d0162000201565b955060a08b01519150808211156200036a57600080fd5b620003788c838d0162000201565b945060c08b01519150808211156200038f57600080fd5b506200039e8b828c0162000201565b925050620003af60e08a0162000292565b90509295985092959890939650565b600181811c90821680620003d357607f821691505b602082108103620003f457634e487b7160e01b600052602260045260246000fd5b50919050565b601f8211156200044857600081815260208120601f850160051c81016020861015620004235750805b601f850160051c820191505b8181101562000444578281556001016200042f565b5050505b505050565b81516001600160401b03811115620004695762000469620001c5565b62000481816200047a8454620003be565b84620003fa565b602080601f831160018114620004b95760008415620004a05750858301515b600019600386901b1c1916600185901b17855562000444565b600085815260208120601f198616915b82811015620004ea57888601518255948401946001909101908401620004c9565b5085821015620005095787850151600019600388901b60f8161c191681555b5050505050600190811b01905550565b6000815180845262000533816020860160208601620001db565b601f01601f19169290920160200192915050565b6080815260008086546200055b81620003be565b80608086015260a06001808416600081146200058057600181146200059b57620005ce565b60ff1985168884015283151560051b880183019550620005ce565b8b60005260208060002060005b86811015620005c55781548b8201870152908401908201620005a8565b8a018501975050505b50505050508281036020840152620005e7818762000519565b90508281036040840152620005fd818662000519565b9150506200061660608301846001600160a01b03169052565b95945050505050565b61340e806200062f6000396000f3fe6080604052600436106101f95760003560e01c80636352211e1161010d5780639cc7f708116100a0578063c87b56dd1161006f578063c87b56dd14610561578063e345e0bc14610581578063e8a3d485146105a1578063e985e9c5146105b6578063f2fde38b1461060357600080fd5b80639cc7f708146104ee578063a22cb4651461050e578063b3154c081461052e578063b88d4fde1461054e57600080fd5b8063840f7113116100dc578063840f7113146104885780638cb0a511146104a85780638da5cb5b146104bb57806395d89b41146104d957600080fd5b80636352211e1461041357806370a0823114610433578063715018a61461045357806371f0442e1461046857600080fd5b806323b872dd1161019057806331b5b9071161015f57806331b5b9071461037e5780633e7e86691461039e57806342842e0e146103c0578063476de4a8146103d35780634f6ccce7146103f357600080fd5b806323b872dd14610318578063263f3e7e1461032b5780632f745c591461034b578063310ed7f01461036b57600080fd5b806309c3dd87116101cc57806309c3dd87146102a25780630f485c02146102c25780631375d843146102e357806318160ddd1461030357600080fd5b806301ffc9a7146101fe57806306fdde0314610233578063081812fc14610255578063095ea7b31461028d575b600080fd5b34801561020a57600080fd5b5061021e610219366004612b17565b610623565b60405190151581526020015b60405180910390f35b34801561023f57600080fd5b506102486106c6565b60405161022a9190612b84565b34801561026157600080fd5b50610275610270366004612b97565b610758565b6040516001600160a01b03909116815260200161022a565b6102a061029b366004612bc7565b6107aa565b005b3480156102ae57600080fd5b506102486102bd366004612b97565b61088e565b6102d56102d0366004612bf1565b610973565b60405190815260200161022a565b3480156102ef57600080fd5b506102486102fe366004612b97565b6109d5565b34801561030f57600080fd5b506005546102d5565b6102a0610326366004612c26565b610a48565b34801561033757600080fd5b506102d5610346366004612b97565b610a53565b34801561035757600080fd5b506102d5610366366004612bc7565b610a9b565b6102a0610379366004612c52565b610b3c565b34801561038a57600080fd5b506102a0610399366004612d4b565b610b8d565b3480156103aa57600080fd5b5060025460405160ff909116815260200161022a565b6102a06103ce366004612c26565b610bff565b3480156103df57600080fd5b506102d56103ee366004612d80565b610c1a565b3480156103ff57600080fd5b506102d561040e366004612b97565b610db5565b34801561041f57600080fd5b5061027561042e366004612b97565b610e46565b34801561043f57600080fd5b506102d561044e366004612e2b565b610ee2565b34801561045f57600080fd5b506102a0610f6a565b34801561047457600080fd5b50610248610483366004612b97565b610f7e565b34801561049457600080fd5b50600854610275906001600160a01b031681565b6102a06104b6366004612bf1565b610fb0565b3480156104c757600080fd5b506009546001600160a01b0316610275565b3480156104e557600080fd5b50610248610fbb565b3480156104fa57600080fd5b506102d5610509366004612b97565b610fca565b34801561051a57600080fd5b506102a0610529366004612e54565b611012565b34801561053a57600080fd5b50610248610549366004612b97565b611021565b6102a061055c366004612e8b565b611053565b34801561056d57600080fd5b5061024861057c366004612b97565b61108b565b34801561058d57600080fd5b506102d561059c366004612f07565b61111d565b3480156105ad57600080fd5b50610248611151565b3480156105c257600080fd5b5061021e6105d1366004612f33565b6001600160a01b0391821660009081526007602090815260408083209390941682526002909201909152205460ff1690565b34801561060f57600080fd5b506102a061061e366004612e2b565b61123e565b60006001600160e01b031982166301ffc9a760e01b148061065457506001600160e01b03198216630354d60560e61b145b8061066f57506001600160e01b031982166380ac58cd60e01b145b8061068a57506001600160e01b031982166370b0048160e11b145b806106a557506001600160e01b0319821663780e9d6360e01b145b806106c057506001600160e01b03198216635b5e139f60e01b145b92915050565b6060600080546106d590612f5d565b80601f016020809104026020016040519081016040528092919081815260200182805461070190612f5d565b801561074e5780601f106107235761010080835404028352916020019161074e565b820191906000526020600020905b81548152906001019060200180831161073157829003601f168201915b5050505050905090565b6000610763826112b7565b60008281526006602052604090205460058054909190811061078757610787612f97565b60009182526020909120600460069092020101546001600160a01b031692915050565b60006107b582610e46565b9050806001600160a01b0316836001600160a01b0316036107f15760405162461bcd60e51b81526004016107e890612fad565b60405180910390fd5b336001600160a01b038216148061080d575061080d81336105d1565b61087f5760405162461bcd60e51b815260206004820152603960248201527f455243333532353a20617070726f76652063616c6c6572206973206e6f74206f60448201527f776e6572206e6f7220617070726f76656420666f7220616c6c0000000000000060648201526084016107e8565b6108898383611308565b505050565b6060600061089a61139f565b6008549091506001600160a01b03166108fa5760008151116108cb576040518060200160405280600081525061096c565b806108d5846113ae565b6040516020016108e6929190612fef565b60405160208183030381529060405261096c565b600854604051633601bfc560e11b8152600481018590526001600160a01b0390911690636c037f8a906024015b600060405180830381865afa158015610944573d6000803e3d6000fd5b505050506040513d6000823e601f3d908101601f1916820160405261096c919081019061302f565b9392505050565b600080610981858585611441565b90507f6d811e6a20ae5461a4ef22a6998c1d958defe727f1cc522b6eb792bc8e6f7266816109ae87610a53565b604080519283526020830191909152810185905260600160405180910390a1949350505050565b600854604051631375d84360e01b8152600481018390526060916001600160a01b031690631375d843906024015b600060405180830381865afa158015610a20573d6000803e3d6000fd5b505050506040513d6000823e601f3d908101601f191682016040526106c0919081019061302f565b610889838383611479565b6000610a5e826112b7565b600082815260066020526040902054600580549091908110610a8257610a82612f97565b9060005260206000209060060201600101549050919050565b6000610aa683610ee2565b8210610aff5760405162461bcd60e51b815260206004820152602260248201527f455243333532353a206f776e657220696e646578206f7574206f6620626f756e604482015261647360f01b60648201526084016107e8565b6001600160a01b0383166000908152600760205260409020805483908110610b2957610b29612f97565b9060005260206000200154905092915050565b610b478383836114aa565b60408051848152602081018490529081018290527fdf7a601a0a201ccd4b4bfcfd610913188d931867997223d226f85f2f2673988a9060600160405180910390a1505050565b600b610b9982826130ec565b506008546040516355f804b360e01b81526001600160a01b03909116906355f804b390610bca908490600401612b84565b600060405180830381600087803b158015610be457600080fd5b505af1158015610bf8573d6000803e3d6000fd5b5050505050565b61088983838360405180602001604052806000815250611053565b6000610c246114c0565b6000610c2e61151a565b9050610c3c88828989611531565b600854604051632108947560e21b81526001600160a01b039091169063842251d490610c6e90849089906004016131ac565b600060405180830381600087803b158015610c8857600080fd5b505af1158015610c9c573d6000803e3d6000fd5b505060085460405163246a908b60e01b81526001600160a01b03909116925063246a908b9150610cd290849088906004016131ac565b600060405180830381600087803b158015610cec57600080fd5b505af1158015610d00573d6000803e3d6000fd5b5050600854604051630190503b60e61b81526001600160a01b0390911692506364140ec09150610d3690849087906004016131ac565b600060405180830381600087803b158015610d5057600080fd5b505af1158015610d64573d6000803e3d6000fd5b505060408051848152602081018b90529081018990527f84eeb48eca46cea54afc9753345f6038981672ea565f32885420829dfd88aea69250606001905060405180910390a1979650505050505050565b6000610dc060055490565b8210610e1a5760405162461bcd60e51b815260206004820152602360248201527f455243333532353a20676c6f62616c20696e646578206f7574206f6620626f756044820152626e647360e81b60648201526084016107e8565b60058281548110610e2d57610e2d612f97565b9060005260206000209060060201600001549050919050565b6000610e51826112b7565b600082815260066020526040902054600580549091908110610e7557610e75612f97565b60009182526020909120600360069092020101546001600160a01b0316905080610edd5760405162461bcd60e51b8152602060048201526019602482015278115490cccd4c8d4e881a5b9d985b1a59081d1bdad95b881251603a1b60448201526064016107e8565b919050565b60006001600160a01b038216610f4e5760405162461bcd60e51b815260206004820152602b60248201527f455243333532353a2062616c616e636520717565727920666f7220746865207a60448201526a65726f206164647265737360a81b60648201526084016107e8565b506001600160a01b031660009081526007602052604090205490565b610f726114c0565b610f7c600061165b565b565b6008546040516338f8221760e11b8152600481018390526060916001600160a01b0316906371f0442e90602401610a03565b6108898383836116ad565b6060600180546106d590612f5d565b6000610fd5826112b7565b600082815260066020526040902054600580549091908110610ff957610ff9612f97565b9060005260206000209060060201600201549050919050565b61101d338383611766565b5050565b600854604051631662a98160e31b8152600481018390526060916001600160a01b03169063b3154c0890602401610a03565b61105d3383611839565b6110795760405162461bcd60e51b81526004016107e8906131c5565b611085848484846118bc565b50505050565b6060611096826112b7565b60006110a061139f565b6008549091506001600160a01b03166110ec5760008151116110d1576040518060200160405280600081525061096c565b806110db846113ae565b6040516020016108e6929190613217565b6008546040516344a5a61760e11b8152600481018590526001600160a01b039091169063894b4c2e90602401610927565b6000611128836112b7565b5060009182526004602090815260408084206001600160a01b0393909316845291905290205490565b6060600061115d61139f565b6008549091506001600160a01b03166111bd57600081511161118e5760405180602001604052806000815250611238565b806111983061192f565b6040516020016111a9929190613246565b604051602081830303815290604052611238565b600860009054906101000a90046001600160a01b03166001600160a01b031663725fa09c6040518163ffffffff1660e01b8152600401600060405180830381865afa158015611210573d6000803e3d6000fd5b505050506040513d6000823e601f3d908101601f19168201604052611238919081019061302f565b91505090565b6112466114c0565b6001600160a01b0381166112ab5760405162461bcd60e51b815260206004820152602660248201527f4f776e61626c653a206e6577206f776e657220697320746865207a65726f206160448201526564647265737360d01b60648201526084016107e8565b6112b48161165b565b50565b6112c081611945565b6112b45760405162461bcd60e51b8152602060048201526019602482015278115490cccd4c8d4e881a5b9d985b1a59081d1bdad95b881251603a1b60448201526064016107e8565b60008181526006602052604090205460058054849290811061132c5761132c612f97565b6000918252602090912060069091020160040180546001600160a01b0319166001600160a01b039283161790558190831661136682610e46565b6001600160a01b03167f8c5be1e5ebec7d5bd14f71427d1e84f3dd0314c0f7b2291e5b200ac8c7c3b92560405160405180910390a45050565b6060600b80546106d590612f5d565b606060006113bb83611991565b600101905060008167ffffffffffffffff8111156113db576113db612c7e565b6040519080825280601f01601f191660200182016040528015611405576020820181803683370190505b5090508181016020015b600019016f181899199a1a9b1b9c1cb0b131b232b360811b600a86061a8153600a850494508461140f57509392505050565b600061144e338584611a69565b61145784611af9565b905061146e838261146787610a53565b6000611531565b61096c848284611b03565b6114833382611839565b61149f5760405162461bcd60e51b81526004016107e8906131c5565b610889838383611df4565b6114b5338483611a69565b610889838383611b03565b6009546001600160a01b03163314610f7c5760405162461bcd60e51b815260206004820181905260248201527f4f776e61626c653a2063616c6c6572206973206e6f7420746865206f776e657260448201526064016107e8565b600061152a600380546001019055565b5060035490565b6001600160a01b0384166115915760405162461bcd60e51b815260206004820152602160248201527f455243333532353a206d696e7420746f20746865207a65726f206164647265736044820152607360f81b60648201526084016107e8565b826000036115eb5760405162461bcd60e51b815260206004820152602160248201527f455243333532353a2063616e6e6f74206d696e74207a65726f20746f6b656e496044820152601960fa1b60648201526084016107e8565b6115f483611945565b156116415760405162461bcd60e51b815260206004820152601d60248201527f455243333532353a20746f6b656e20616c7265616479206d696e74656400000060448201526064016107e8565b61164c848484611f5d565b6116568382612023565b611085565b600980546001600160a01b038381166001600160a01b0319831681179093556040519116919082907f8be0079c531659141344cd1fd0a4f28419497f9722a3daafe3b4186f6b6457e090600090a35050565b60006116b884610e46565b9050806001600160a01b0316836001600160a01b0316036116eb5760405162461bcd60e51b81526004016107e890612fad565b6116f53385611839565b61175b5760405162461bcd60e51b815260206004820152603160248201527f455243333532353a20617070726f76652063616c6c6572206973206e6f74206f6044820152701ddb995c881b9bdc88185c1c1c9bdd9959607a1b60648201526084016107e8565b6110858484846120a8565b816001600160a01b0316836001600160a01b0316036117c75760405162461bcd60e51b815260206004820152601a60248201527f455243333532353a20617070726f766520746f2063616c6c657200000000000060448201526064016107e8565b6001600160a01b0383811660008181526007602090815260408083209487168084526002909501825291829020805460ff191686151590811790915591519182527f17307eab39ab6107e8899845ad3d59bd9653f200f220920489ca2b5937696c3191015b60405180910390a3505050565b60008061184583610e46565b9050806001600160a01b0316846001600160a01b0316148061189057506001600160a01b038082166000908152600760209081526040808320938816835260029093019052205460ff165b806118b45750836001600160a01b03166118a984610758565b6001600160a01b0316145b949350505050565b6118c7848484611df4565b6118d3848484846121d7565b6110855760405162461bcd60e51b815260206004820152602760248201527f455243333532353a207472616e7366657220746f206e6f6e204552433732315260448201526632b1b2b4bb32b960c91b60648201526084016107e8565b60606106c06001600160a01b0383166014612323565b600554600090158015906106c0575060008281526006602052604090205460058054849290811061197857611978612f97565b9060005260206000209060060201600001541492915050565b60008072184f03e93ff9f4daa797ed6e38ed64bf6a1f0160401b83106119d05772184f03e93ff9f4daa797ed6e38ed64bf6a1f0160401b830492506040015b6d04ee2d6d415b85acef810000000083106119fc576d04ee2d6d415b85acef8100000000830492506020015b662386f26fc100008310611a1a57662386f26fc10000830492506010015b6305f5e1008310611a32576305f5e100830492506008015b6127108310611a4657612710830492506004015b60648310611a58576064830492506002015b600a83106106c05760010192915050565b6000611a75838561111d565b9050611a818484611839565b158015611a9057506000198114155b156110855781811015611ae55760405162461bcd60e51b815260206004820152601f60248201527f455243333532353a20696e73756666696369656e7420616c6c6f77616e63650060448201526064016107e8565b6110858385611af485856132a0565b6120a8565b60006106c061151a565b611b0c83611945565b611b685760405162461bcd60e51b815260206004820152602760248201527f455243333532353a207472616e736665722066726f6d20696e76616c696420746044820152661bdad95b88125160ca1b60648201526084016107e8565b611b7182611945565b611bcb5760405162461bcd60e51b815260206004820152602560248201527f455243333532353a207472616e7366657220746f20696e76616c696420746f6b604482015264195b88125160da1b60648201526084016107e8565b600083815260066020526040812054600580549091908110611bef57611bef612f97565b9060005260206000209060060201905060006005600660008681526020019081526020016000205481548110611c2757611c27612f97565b906000526020600020906006020190508282600201541015611c9e5760405162461bcd60e51b815260206004820152602a60248201527f455243333532353a20696e73756666696369656e742062616c616e636520666f60448201526939103a3930b739b332b960b11b60648201526084016107e8565b8060010154826001015414611d0c5760405162461bcd60e51b815260206004820152602e60248201527f455243333532353a207472616e7366657220746f20746f6b656e20776974682060448201526d191a5999995c995b9d081cdb1bdd60921b60648201526084016107e8565b82826002016000828254611d2091906132a0565b9250508190555082816002016000828254611d3b91906132b3565b9091555050604051838152849086907f0b2aac84f3ec956911fd78eae5311062972ff949f38412e8da39069d9f068cc69060200160405180910390a3611d92858585604051806020016040528060008152506124bf565b610bf85760405162461bcd60e51b815260206004820152602d60248201527f455243333532353a207472616e736665722072656a656374656420627920455260448201526c21999a991aa932b1b2b4bb32b960991b60648201526084016107e8565b826001600160a01b0316611e0782610e46565b6001600160a01b031614611e695760405162461bcd60e51b8152602060048201526024808201527f455243333532353a207472616e736665722066726f6d20696e76616c6964206f6044820152633bb732b960e11b60648201526084016107e8565b6001600160a01b038216611ecd5760405162461bcd60e51b815260206004820152602560248201527f455243333532353a207472616e7366657220746f20746865207a65726f206164604482015264647265737360d81b60648201526084016107e8565b6000611ed882610a53565b90506000611ee583610fca565b9050611ef2600084611308565b611efb836125f2565b611f05858461269d565b611f0f84846127be565b82846001600160a01b0316866001600160a01b03167fddf252ad1be2c89b69c2b068fc378daa952ba7f163c4a11628f55a4df523b3ef60405160405180910390a4610bf8565b505050505050565b6040805160c081018252838152602080820184905260008284018190526001600160a01b038716606084015260808301819052835181815291820190935260a08201529050611fab81612847565b611fb584846127be565b60405183906001600160a01b038616906000907fddf252ad1be2c89b69c2b068fc378daa952ba7f163c4a11628f55a4df523b3ef908290a4816000847fe4f48c240d3b994948aa54f3e2f5fca59263dfe1d52b6e4cf39a5d249b5ccb6560405160405180910390a450505050565b60008281526006602052604090205460058054839290811061204757612047612f97565b9060005260206000209060060201600201600082825461206791906132b3565b909155505060405181815282906000907f0b2aac84f3ec956911fd78eae5311062972ff949f38412e8da39069d9f068cc69060200160405180910390a35050565b6001600160a01b0382166121115760405162461bcd60e51b815260206004820152602a60248201527f455243333532353a20617070726f76652076616c756520746f20746865207a65604482015269726f206164647265737360b01b60648201526084016107e8565b61211b8284612996565b6121815760008381526006602052604090205460058054909190811061214357612143612f97565b60009182526020808320600692909202909101600501805460018101825590835291200180546001600160a01b0319166001600160a01b0384161790555b60008381526004602090815260408083206001600160a01b038616808552908352928190208490555183815285917f621b050de0ad08b51d19b48b3e6df75348c4de6bdd93e81b252ca62e28265b1b910161182c565b60006001600160a01b0384163b1561231857604051630a85bd0160e11b81526001600160a01b0385169063150b7a029061221b9033908990889088906004016132c6565b6020604051808303816000875af1925050508015612256575060408051601f3d908101601f1916820190925261225391810190613303565b60015b6122fe573d808015612284576040519150601f19603f3d011682016040523d82523d6000602084013e612289565b606091505b5080516000036122f65760405162461bcd60e51b815260206004820152603260248201527f4552433732313a207472616e7366657220746f206e6f6e20455243373231526560448201527131b2b4bb32b91034b6b83632b6b2b73a32b960711b60648201526084016107e8565b805181602001fd5b6001600160e01b031916630a85bd0160e11b1490506118b4565b506001949350505050565b60606000612332836002613320565b61233d9060026132b3565b67ffffffffffffffff81111561235557612355612c7e565b6040519080825280601f01601f19166020018201604052801561237f576020820181803683370190505b509050600360fc1b8160008151811061239a5761239a612f97565b60200101906001600160f81b031916908160001a905350600f60fb1b816001815181106123c9576123c9612f97565b60200101906001600160f81b031916908160001a90535060006123ed846002613320565b6123f89060016132b3565b90505b6001811115612470576f181899199a1a9b1b9c1cb0b131b232b360811b85600f166010811061242c5761242c612f97565b1a60f81b82828151811061244257612442612f97565b60200101906001600160f81b031916908160001a90535060049490941c9361246981613337565b90506123fb565b50831561096c5760405162461bcd60e51b815260206004820181905260248201527f537472696e67733a20686578206c656e67746820696e73756666696369656e7460448201526064016107e8565b6000806124cb85610e46565b90506001600160a01b0381163b1515801561254f57506040516301ffc9a760e01b8152629ce20b60e01b60048201526001600160a01b038216906301ffc9a790602401602060405180830381865afa15801561252b573d6000803e3d6000fd5b505050506040513d601f19601f8201168201806040525081019061254f919061334e565b156125e857604051629ce20b60e01b81526000906001600160a01b03831690629ce20b906125899033908b908b908b908b9060040161336b565b6020604051808303816000875af11580156125a8573d6000803e3d6000fd5b505050506040513d601f19601f820116820180604052508101906125cc9190613303565b6001600160e01b031916629ce20b60e01b1492506118b4915050565b60019150506118b4565b60008181526006602052604081205460058054909190811061261657612616612f97565b600091825260208220600560069092020190810154909250905b8181101561268e57600083600501828154811061264f5761264f612f97565b60009182526020808320909101548783526004825260408084206001600160a01b03909216845291528120555080612686816133a9565b915050612630565b50610889600583016000612a69565b6000818152600660205260408120546005805490919081106126c1576126c1612f97565b6000918252602080832060069290920290910160030180546001600160a01b0319166001600160a01b0394851617905591841681526007909152604081208054909190612710906001906132a0565b9050600082600001828154811061272957612729612f97565b9060005260206000200154905060008360010160008681526020019081526020016000205490508184600001828154811061276657612766612f97565b600091825260208083209091019290925583815260018601909152604080822083905586825281205583548490806127a0576127a06133c2565b60019003818190600052602060002001600090559055505050505050565b6000818152600660205260409020546005805484929081106127e2576127e2612f97565b6000918252602080832060069290920290910160030180546001600160a01b0319166001600160a01b03948516179055939091168152600780845260408083208054858552600182810188529285208190559286529082018155825292902090910155565b600580548251600090815260066020818152604080842085905560018501865594909252845192027f036b6384b5eca791c62761152d0c79bb0604c104a5fb6f4eb0703f3154bb3db08101928355818501517f036b6384b5eca791c62761152d0c79bb0604c104a5fb6f4eb0703f3154bb3db1820155928401517f036b6384b5eca791c62761152d0c79bb0604c104a5fb6f4eb0703f3154bb3db284015560608401517f036b6384b5eca791c62761152d0c79bb0604c104a5fb6f4eb0703f3154bb3db3840180546001600160a01b039283166001600160a01b03199182161790915560808601517f036b6384b5eca791c62761152d0c79bb0604c104a5fb6f4eb0703f3154bb3db48601805491909316911617905560a084015180518594611085937f036b6384b5eca791c62761152d0c79bb0604c104a5fb6f4eb0703f3154bb3db5909101920190612a87565b6000818152600660205260408120546005805483929081106129ba576129ba612f97565b6000918252602082206005600690920201015491505b81811015612a5e57600084815260066020526040902054600580546001600160a01b03881692908110612a0557612a05612f97565b90600052602060002090600602016005018281548110612a2757612a27612f97565b6000918252602090912001546001600160a01b031603612a4c576001925050506106c0565b80612a56816133a9565b9150506129d0565b506000949350505050565b50805460008255906000526020600020908101906112b49190612aec565b828054828255906000526020600020908101928215612adc579160200282015b82811115612adc57825182546001600160a01b0319166001600160a01b03909116178255602090920191600190910190612aa7565b50612ae8929150612aec565b5090565b5b80821115612ae85760008155600101612aed565b6001600160e01b0319811681146112b457600080fd5b600060208284031215612b2957600080fd5b813561096c81612b01565b60005b83811015612b4f578181015183820152602001612b37565b50506000910152565b60008151808452612b70816020860160208601612b34565b601f01601f19169290920160200192915050565b60208152600061096c6020830184612b58565b600060208284031215612ba957600080fd5b5035919050565b80356001600160a01b0381168114610edd57600080fd5b60008060408385031215612bda57600080fd5b612be383612bb0565b946020939093013593505050565b600080600060608486031215612c0657600080fd5b83359250612c1660208501612bb0565b9150604084013590509250925092565b600080600060608486031215612c3b57600080fd5b612c4484612bb0565b9250612c1660208501612bb0565b600080600060608486031215612c6757600080fd5b505081359360208301359350604090920135919050565b634e487b7160e01b600052604160045260246000fd5b604051601f8201601f1916810167ffffffffffffffff81118282101715612cbd57612cbd612c7e565b604052919050565b600067ffffffffffffffff821115612cdf57612cdf612c7e565b50601f01601f191660200190565b6000612d00612cfb84612cc5565b612c94565b9050828152838383011115612d1457600080fd5b828260208301376000602084830101529392505050565b600082601f830112612d3c57600080fd5b61096c83833560208501612ced565b600060208284031215612d5d57600080fd5b813567ffffffffffffffff811115612d7457600080fd5b6118b484828501612d2b565b60008060008060008060c08789031215612d9957600080fd5b612da287612bb0565b95506020870135945060408701359350606087013567ffffffffffffffff80821115612dcd57600080fd5b612dd98a838b01612d2b565b94506080890135915080821115612def57600080fd5b612dfb8a838b01612d2b565b935060a0890135915080821115612e1157600080fd5b50612e1e89828a01612d2b565b9150509295509295509295565b600060208284031215612e3d57600080fd5b61096c82612bb0565b80151581146112b457600080fd5b60008060408385031215612e6757600080fd5b612e7083612bb0565b91506020830135612e8081612e46565b809150509250929050565b60008060008060808587031215612ea157600080fd5b612eaa85612bb0565b9350612eb860208601612bb0565b925060408501359150606085013567ffffffffffffffff811115612edb57600080fd5b8501601f81018713612eec57600080fd5b612efb87823560208401612ced565b91505092959194509250565b60008060408385031215612f1a57600080fd5b82359150612f2a60208401612bb0565b90509250929050565b60008060408385031215612f4657600080fd5b612f4f83612bb0565b9150612f2a60208401612bb0565b600181811c90821680612f7157607f821691505b602082108103612f9157634e487b7160e01b600052602260045260246000fd5b50919050565b634e487b7160e01b600052603260045260246000fd5b60208082526022908201527f455243333532353a20617070726f76616c20746f2063757272656e74206f776e60408201526132b960f11b606082015260800190565b60008351613001818460208801612b34565b64736c6f742f60d81b9083019081528351613023816005840160208801612b34565b01600501949350505050565b60006020828403121561304157600080fd5b815167ffffffffffffffff81111561305857600080fd5b8201601f8101841361306957600080fd5b8051613077612cfb82612cc5565b81815285602083850101111561308c57600080fd5b61309d826020830160208601612b34565b95945050505050565b601f82111561088957600081815260208120601f850160051c810160208610156130cd5750805b601f850160051c820191505b81811015611f55578281556001016130d9565b815167ffffffffffffffff81111561310657613106612c7e565b61311a816131148454612f5d565b846130a6565b602080601f83116001811461314f57600084156131375750858301515b600019600386901b1c1916600185901b178555611f55565b600085815260208120601f198616915b8281101561317e5788860151825594840194600190910190840161315f565b508582101561319c5787850151600019600388901b60f8161c191681555b5050505050600190811b01905550565b8281526040602082015260006118b46040830184612b58565b60208082526032908201527f455243333532353a207472616e736665722063616c6c6572206973206e6f74206040820152711bdddb995c881b9bdc88185c1c1c9bdd995960721b606082015260800190565b60008351613229818460208801612b34565b83519083019061323d818360208801612b34565b01949350505050565b60008351613258818460208801612b34565b68636f6e74726163742f60b81b908301908152835161327e816009840160208801612b34565b01600901949350505050565b634e487b7160e01b600052601160045260246000fd5b818103818111156106c0576106c061328a565b808201808211156106c0576106c061328a565b6001600160a01b03858116825284166020820152604081018390526080606082018190526000906132f990830184612b58565b9695505050505050565b60006020828403121561331557600080fd5b815161096c81612b01565b80820281158282048414176106c0576106c061328a565b6000816133465761334661328a565b506000190190565b60006020828403121561336057600080fd5b815161096c81612e46565b60018060a01b038616815284602082015283604082015282606082015260a06080820152600061339e60a0830184612b58565b979650505050505050565b6000600182016133bb576133bb61328a565b5060010190565b634e487b7160e01b600052603160045260246000fdfea26469706673582212209fdc13f8a152244e487bb2a10cffd70f6c629cef40ed93c14e70b344ced9c73664736f6c6343000811003360806040523480156200001157600080fd5b5060405162001ada38038062001ada833981016040819052620000349162000150565b600162000042858262000292565b50600262000051848262000292565b50600362000060838262000292565b50600080546001600160a01b0319166001600160a01b0392909216919091179055506200035e915050565b634e487b7160e01b600052604160045260246000fd5b600082601f830112620000b357600080fd5b81516001600160401b0380821115620000d057620000d06200008b565b604051601f8301601f19908116603f01168101908282118183101715620000fb57620000fb6200008b565b816040528381526020925086838588010111156200011857600080fd5b600091505b838210156200013c57858201830151818301840152908201906200011d565b600093810190920192909252949350505050565b600080600080608085870312156200016757600080fd5b84516001600160401b03808211156200017f57600080fd5b6200018d88838901620000a1565b95506020870151915080821115620001a457600080fd5b620001b288838901620000a1565b94506040870151915080821115620001c957600080fd5b50620001d887828801620000a1565b606087015190935090506001600160a01b0381168114620001f857600080fd5b939692955090935050565b600181811c908216806200021857607f821691505b6020821081036200023957634e487b7160e01b600052602260045260246000fd5b50919050565b601f8211156200028d57600081815260208120601f850160051c81016020861015620002685750805b601f850160051c820191505b81811015620002895782815560010162000274565b5050505b505050565b81516001600160401b03811115620002ae57620002ae6200008b565b620002c681620002bf845462000203565b846200023f565b602080601f831160018114620002fe5760008415620002e55750858301515b600019600386901b1c1916600185901b17855562000289565b600085815260208120601f198616915b828110156200032f578886015182559484019460019091019084016200030e565b50858210156200034e5787850151600019600388901b60f8161c191681555b5050505050600190811b01905550565b61176c806200036e6000396000f3fe608060405234801561001057600080fd5b506004361061009e5760003560e01c806371f0442e1161006657806371f0442e1461011a578063725fa09c1461012d578063842251d414610135578063894b4c2e14610148578063b3154c081461015b57600080fd5b80631375d843146100a3578063246a908b146100cc57806355f804b3146100e157806364140ec0146100f45780636c037f8a14610107575b600080fd5b6100b66100b1366004610d22565b61016e565b6040516100c39190610d5f565b60405180910390f35b6100df6100da366004610e57565b610210565b005b6100df6100ef366004610e9e565b61022d565b6100df610102366004610e57565b61023d565b6100b6610115366004610d22565b610255565b6100b6610128366004610d22565b6102cb565b6100b66102e8565b6100df610143366004610e57565b61040d565b6100b6610156366004610d22565b610425565b6100b6610169366004610d22565b61052f565b600081815260066020526040902080546060919061018b90610edb565b80601f01602080910402602001604051908101604052809291908181526020018280546101b790610edb565b80156102045780601f106101d957610100808354040283529160200191610204565b820191906000526020600020905b8154815290600101906020018083116101e757829003601f168201915b50505050509050919050565b60008281526004602052604090206102288282610f63565b505050565b60016102398282610f63565b5050565b60008281526005602052604090206102288282610f63565b60606102a56102638361054c565b61026c846105c5565b610275856105f7565b61027e86610679565b604051602001610291949392919061103f565b6040516020818303038152906040526106fb565b6040516020016102b5919061110d565b6040516020818303038152906040529050919050565b600081815260056020526040902080546060919061018b90610edb565b606060003390506103e8816001600160a01b03166306fdde036040518163ffffffff1660e01b8152600401600060405180830381865afa158015610330573d6000803e3d6000fd5b505050506040513d6000823e601f3d908101601f191682016040526103589190810190611152565b61036061084e565b6103686108e0565b6103d5856001600160a01b0316633e7e86696040518163ffffffff1660e01b8152600401602060405180830381865afa1580156103a9573d6000803e3d6000fd5b505050506040513d601f19601f820116820180604052508101906103cd91906111c9565b60ff16610915565b60405160200161029194939291906111ec565b6040516020016103f8919061110d565b60405160208183030381529060405291505090565b60008281526006602052604090206102288282610f63565b606033610508610434846109a8565b61043d8561052f565b61044686610a2a565b604051631398fee160e31b8152600481018890526104b9906001600160a01b03871690639cc7f708906024015b602060405180830381865afa158015610490573d6000803e3d6000fd5b505050506040513d601f19601f820116820180604052508101906104b491906112bf565b610915565b60405163131f9f3f60e11b8152600481018990526104ea906001600160a01b0388169063263f3e7e90602401610473565b6104f389610a5f565b604051602001610291969594939291906112d8565b604051602001610518919061110d565b604051602081830303815290604052915050919050565b600081815260046020526040902080546060919061018b90610edb565b60005460405163ec327a2160e01b8152600481018390526060916001600160a01b03169063ec327a21906024015b600060405180830381865afa158015610597573d6000803e3d6000fd5b505050506040513d6000823e601f3d908101601f191682016040526105bf9190810190611152565b92915050565b60005460405163bc74ebb960e01b8152600481018390526060916001600160a01b03169063bc74ebb99060240161057a565b6000546040516309c3dd8760e01b8152600481018390526060916001600160a01b0316906309c3dd8790602401600060405180830381865afa158015610641573d6000803e3d6000fd5b505050506040513d6000823e601f3d908101601f191682016040526106699190810190611152565b6040516020016102b591906113fe565b6000546040516309c3dd8760e01b8152600481018390526060916001600160a01b0316906309c3dd8790602401600060405180830381865afa1580156106c3573d6000803e3d6000fd5b505050506040513d6000823e601f3d908101601f191682016040526106eb9190810190611152565b6040516020016102b59190611428565b6060815160000361071a57505060408051602081019091526000815290565b60006040518060600160405280604081526020016116f760409139905060006003845160026107499190611472565b6107539190611485565b61075e9060046114a7565b67ffffffffffffffff81111561077657610776610d92565b6040519080825280601f01601f1916602001820160405280156107a0576020820181803683370190505b509050600182016020820185865187015b8082101561080c576003820191508151603f8160121c168501518453600184019350603f81600c1c168501518453600184019350603f8160061c168501518453600184019350603f81168501518453506001830192506107b1565b5050600386510660018114610828576002811461083b57610843565b603d6001830353603d6002830353610843565b603d60018303535b509195945050505050565b60606002805461085d90610edb565b80601f016020809104026020016040519081016040528092919081815260200182805461088990610edb565b80156108d65780601f106108ab576101008083540402835291602001916108d6565b820191906000526020600020905b8154815290600101906020018083116108b957829003601f168201915b5050505050905090565b606060016108ed33610a8d565b600360405160200161090193929190611531565b604051602081830303815290604052905090565b6060600061092283610aa3565b600101905060008167ffffffffffffffff81111561094257610942610d92565b6040519080825280601f01601f19166020018201604052801561096c576020820181803683370190505b5090508181016020015b600019016f181899199a1a9b1b9c1cb0b131b232b360811b600a86061a8153600a850494508461097657509392505050565b6060336001600160a01b03166306fdde036040518163ffffffff1660e01b8152600401600060405180830381865afa1580156109e8573d6000803e3d6000fd5b505050506040513d6000823e601f3d908101601f19168201604052610a109190810190611152565b610a1983610915565b6040516020016102b5929190611585565b60606001610a3730610a8d565b6000848152600660209081526040808320600583529281902090516102b595949392016115c2565b60606001610a6c33610a8d565b60008481526006602090815260409182902091516102b59493929101611634565b60606105bf6001600160a01b0383166014610b7b565b60008072184f03e93ff9f4daa797ed6e38ed64bf6a1f0160401b8310610ae25772184f03e93ff9f4daa797ed6e38ed64bf6a1f0160401b830492506040015b6d04ee2d6d415b85acef81000000008310610b0e576d04ee2d6d415b85acef8100000000830492506020015b662386f26fc100008310610b2c57662386f26fc10000830492506010015b6305f5e1008310610b44576305f5e100830492506008015b6127108310610b5857612710830492506004015b60648310610b6a576064830492506002015b600a83106105bf5760010192915050565b60606000610b8a8360026114a7565b610b95906002611472565b67ffffffffffffffff811115610bad57610bad610d92565b6040519080825280601f01601f191660200182016040528015610bd7576020820181803683370190505b509050600360fc1b81600081518110610bf257610bf26116c9565b60200101906001600160f81b031916908160001a905350600f60fb1b81600181518110610c2157610c216116c9565b60200101906001600160f81b031916908160001a9053506000610c458460026114a7565b610c50906001611472565b90505b6001811115610cc8576f181899199a1a9b1b9c1cb0b131b232b360811b85600f1660108110610c8457610c846116c9565b1a60f81b828281518110610c9a57610c9a6116c9565b60200101906001600160f81b031916908160001a90535060049490941c93610cc1816116df565b9050610c53565b508315610d1b5760405162461bcd60e51b815260206004820181905260248201527f537472696e67733a20686578206c656e67746820696e73756666696369656e74604482015260640160405180910390fd5b9392505050565b600060208284031215610d3457600080fd5b5035919050565b60005b83811015610d56578181015183820152602001610d3e565b50506000910152565b6020815260008251806020840152610d7e816040850160208701610d3b565b601f01601f19169190910160400192915050565b634e487b7160e01b600052604160045260246000fd5b604051601f8201601f1916810167ffffffffffffffff81118282101715610dd157610dd1610d92565b604052919050565b600067ffffffffffffffff821115610df357610df3610d92565b50601f01601f191660200190565b600082601f830112610e1257600080fd5b8135610e25610e2082610dd9565b610da8565b818152846020838601011115610e3a57600080fd5b816020850160208301376000918101602001919091529392505050565b60008060408385031215610e6a57600080fd5b82359150602083013567ffffffffffffffff811115610e8857600080fd5b610e9485828601610e01565b9150509250929050565b600060208284031215610eb057600080fd5b813567ffffffffffffffff811115610ec757600080fd5b610ed384828501610e01565b949350505050565b600181811c90821680610eef57607f821691505b602082108103610f0f57634e487b7160e01b600052602260045260246000fd5b50919050565b601f82111561022857600081815260208120601f850160051c81016020861015610f3c5750805b601f850160051c820191505b81811015610f5b57828155600101610f48565b505050505050565b815167ffffffffffffffff811115610f7d57610f7d610d92565b610f9181610f8b8454610edb565b84610f15565b602080601f831160018114610fc65760008415610fae5750858301515b600019600386901b1c1916600185901b178555610f5b565b600085815260208120601f198616915b82811015610ff557888601518255948401946001909101908401610fd6565b50858210156110135787850151600019600388901b60f8161c191681555b5050505050600190811b01905550565b60008151611035818560208601610d3b565b9290920192915050565b683d913730b6b2911d1160b91b81528451600090611064816009850160208a01610d3b565b701116113232b9b1b934b83a34b7b7111d1160791b600991840191820152855161109581601a840160208a01610d3b565b6a11161134b6b0b3b2911d1160a91b601a929091019182015284516110c1816025840160208901610d3b565b6e111611383937b832b93a34b2b9911d60891b6025929091019182015283516110f1816034840160208801610d3b565b607d60f81b603492909101918201526035019695505050505050565b7f646174613a6170706c69636174696f6e2f6a736f6e3b6261736536342c00000081526000825161114581601d850160208701610d3b565b91909101601d0192915050565b60006020828403121561116457600080fd5b815167ffffffffffffffff81111561117b57600080fd5b8201601f8101841361118c57600080fd5b805161119a610e2082610dd9565b8181528560208385010111156111af57600080fd5b6111c0826020830160208601610d3b565b95945050505050565b6000602082840312156111db57600080fd5b815160ff81168114610d1b57600080fd5b683d913730b6b2911d1160b91b81528451600090611211816009850160208a01610d3b565b701116113232b9b1b934b83a34b7b7111d1160791b600991840191820152855161124281601a840160208a01610d3b565b6a11161134b6b0b3b2911d1160a91b601a9290910191820152845161126e816025840160208901610d3b565b721116113b30b63ab2a232b1b4b6b0b639911d1160691b6025929091019182015283516112a2816038840160208801610d3b565b61227d60f01b60389290910191820152603a019695505050505050565b6000602082840312156112d157600080fd5b5051919050565b683d913730b6b2911d1160b91b815286516000906112fd816009850160208c01610d3b565b701116113232b9b1b934b83a34b7b7111d1160791b600991840191820152875161132e81601a840160208c01610d3b565b6a11161134b6b0b3b2911d1160a91b601a9290910191820152865161135a816025840160208b01610d3b565b6c1116113130b630b731b2911d1160991b602592909101918201528551611388816032840160208a01610d3b565b6911161139b637ba111d1160b11b6032929091019182015284516113b381603c840160208901610d3b565b6113f06113e36113dd603c848601016e111611383937b832b93a34b2b9911d60891b8152600f0190565b87611023565b607d60f81b815260010190565b9a9950505050505050505050565b60008251611410818460208701610d3b565b652f696d61676560d01b920191825250600601919050565b6000825161143a818460208701610d3b565b6f17b83937b832b93a34b2b9973539b7b760811b920191825250601001919050565b634e487b7160e01b600052601160045260246000fd5b808201808211156105bf576105bf61145c565b6000826114a257634e487b7160e01b600052601260045260246000fd5b500490565b80820281158282048414176105bf576105bf61145c565b600081546114cb81610edb565b600182811680156114e357600181146114f857611527565b60ff1984168752821515830287019450611527565b8560005260208060002060005b8581101561151e5781548a820152908401908201611505565b50505082870194505b5050505092915050565b600061153d82866114be565b68636f6e74726163742f60b81b8152845161155f816009840160208901610d3b565b602f60f81b6009929091019182015261157b600a8201856114be565b9695505050505050565b60008351611597818460208801610d3b565b61202360f01b90830190815283516115b6816002840160208801610d3b565b01600201949350505050565b60006115ce82876114be565b692f636f6e74726163742f60b01b815285516115f181600a840160208a01610d3b565b662f746f6b656e2f60c81b600a929091019182015261161360118201866114be565b9050602f60f81b815261162960018201856114be565b979650505050505050565b6e7b70726f706572746965735f75726960881b81526000611658600f8301866114be565b68636f6e74726163742f60b81b8152845161167a816009840160208901610d3b565b662f746f6b656e2f60c81b6009929091019182015261169c60108201856114be565b6f17b83937b832b93a34b2b9973539b7b760811b8152607d60f81b60108201526011019695505050505050565b634e487b7160e01b600052603260045260246000fd5b6000816116ee576116ee61145c565b50600019019056fe4142434445464748494a4b4c4d4e4f505152535455565758595a6162636465666768696a6b6c6d6e6f707172737475767778797a303132333435363738392b2fa2646970667358221220ff9209fa763cebe143e190fa2f1ad1e413f9b97c45e4f09a1f7a97ba3d94292564736f6c63430008110033",
  "linkReferences": {},
  "deployedLinkReferences": {}
}