{
  "_format": "hh-sol-artifact-1",
  "contractName": "Service",
  "sourceName": "contracts/Service.sol",
  "abi": [
    {
      "inputs": [
        {
          "internalType": "address",
          "name": "serviceAddress_",
          "type": "address"
        },
        {
          "internalType": "address",
          "name": "slotRegistry_",
          "type": "address"
        },
        {
          "internalType": "string",
          "name": "name_",
          "type": "string"
        },
        {
          "internalType": "string",
          "name": "symbol_",
          "type": "string"
        },
        {
          "internalType": "string",
          "name": "baseuri_",
          "type": "string"
        },
        {
          "internalType": "string",
          "name": "contractDescription_",
          "type": "string"
        },
        {
          "internalType": "string",
          "name": "contractImage_",
          "type": "string"
        },
        {
          "internalType": "address",
          "name": "valueTokenContractAddress_",
          "type": "address"
        },
        {
          "internalType": "uint8",
          "name": "decimals_",
          "type": "uint8"
        }
      ],
      "stateMutability": "nonpayable",
      "type": "constructor"
    },
    {
      "anonymous": false,
      "inputs": [
        {
          "indexed": true,
          "internalType": "address",
          "name": "_owner",
          "type": "address"
        },
        {
          "indexed": true,
          "internalType": "address",
          "name": "_approved",
          "type": "address"
        },
        {
          "indexed": true,
          "internalType": "uint256",
          "name": "_tokenId",
          "type": "uint256"
        }
      ],
      "name": "Approval",
      "type": "event"
    },
    {
      "anonymous": false,
      "inputs": [
        {
          "indexed": true,
          "internalType": "address",
          "name": "_owner",
          "type": "address"
        },
        {
          "indexed": true,
          "internalType": "address",
          "name": "_operator",
          "type": "address"
        },
        {
          "indexed": false,
          "internalType": "bool",
          "name": "_approved",
          "type": "bool"
        }
      ],
      "name": "ApprovalForAll",
      "type": "event"
    },
    {
      "anonymous": false,
      "inputs": [
        {
          "indexed": true,
          "internalType": "uint256",
          "name": "_tokenId",
          "type": "uint256"
        },
        {
          "indexed": true,
          "internalType": "address",
          "name": "_operator",
          "type": "address"
        },
        {
          "indexed": false,
          "internalType": "uint256",
          "name": "_value",
          "type": "uint256"
        }
      ],
      "name": "ApprovalValue",
      "type": "event"
    },
    {
      "anonymous": false,
      "inputs": [
        {
          "indexed": false,
          "internalType": "address",
          "name": "contractAddress",
          "type": "address"
        }
      ],
      "name": "MetadataDescriptor",
      "type": "event"
    },
    {
      "anonymous": false,
      "inputs": [
        {
          "indexed": false,
          "internalType": "uint256",
          "name": "tokenId",
          "type": "uint256"
        },
        {
          "indexed": false,
          "internalType": "uint256",
          "name": "slot",
          "type": "uint256"
        },
        {
          "indexed": false,
          "internalType": "uint256",
          "name": "value",
          "type": "uint256"
        }
      ],
      "name": "MintServiceToken",
      "type": "event"
    },
    {
      "anonymous": false,
      "inputs": [
        {
          "indexed": true,
          "internalType": "address",
          "name": "previousOwner",
          "type": "address"
        },
        {
          "indexed": true,
          "internalType": "address",
          "name": "newOwner",
          "type": "address"
        }
      ],
      "name": "OwnershipTransferred",
      "type": "event"
    },
    {
      "anonymous": false,
      "inputs": [
        {
          "indexed": true,
          "internalType": "address",
          "name": "metadataDescriptor",
          "type": "address"
        }
      ],
      "name": "SetMetadataDescriptor",
      "type": "event"
    },
    {
      "anonymous": false,
      "inputs": [
        {
          "indexed": true,
          "internalType": "uint256",
          "name": "_tokenId",
          "type": "uint256"
        },
        {
          "indexed": true,
          "internalType": "uint256",
          "name": "_oldSlot",
          "type": "uint256"
        },
        {
          "indexed": true,
          "internalType": "uint256",
          "name": "_newSlot",
          "type": "uint256"
        }
      ],
      "name": "SlotChanged",
      "type": "event"
    },
    {
      "anonymous": false,
      "inputs": [
        {
          "indexed": true,
          "internalType": "address",
          "name": "_from",
          "type": "address"
        },
        {
          "indexed": true,
          "internalType": "address",
          "name": "_to",
          "type": "address"
        },
        {
          "indexed": true,
          "internalType": "uint256",
          "name": "_tokenId",
          "type": "uint256"
        }
      ],
      "name": "Transfer",
      "type": "event"
    },
    {
      "anonymous": false,
      "inputs": [
        {
          "indexed": true,
          "internalType": "uint256",
          "name": "_fromTokenId",
          "type": "uint256"
        },
        {
          "indexed": true,
          "internalType": "uint256",
          "name": "_toTokenId",
          "type": "uint256"
        },
        {
          "indexed": false,
          "internalType": "uint256",
          "name": "_value",
          "type": "uint256"
        }
      ],
      "name": "TransferValue",
      "type": "event"
    },
    {
      "inputs": [
        {
          "internalType": "string",
          "name": "uri_",
          "type": "string"
        }
      ],
      "name": "_setBaseURI",
      "outputs": [
        {
          "internalType": "string",
          "name": "",
          "type": "string"
        }
      ],
      "stateMutability": "nonpayable",
      "type": "function"
    },
    {
      "inputs": [
        {
          "internalType": "uint256",
          "name": "tokenId_",
          "type": "uint256"
        },
        {
          "internalType": "address",
          "name": "operator_",
          "type": "address"
        }
      ],
      "name": "allowance",
      "outputs": [
        {
          "internalType": "uint256",
          "name": "",
          "type": "uint256"
        }
      ],
      "stateMutability": "view",
      "type": "function"
    },
    {
      "inputs": [
        {
          "internalType": "address",
          "name": "to_",
          "type": "address"
        },
        {
          "internalType": "uint256",
          "name": "tokenId_",
          "type": "uint256"
        }
      ],
      "name": "approve",
      "outputs": [],
      "stateMutability": "payable",
      "type": "function"
    },
    {
      "inputs": [
        {
          "internalType": "uint256",
          "name": "tokenId_",
          "type": "uint256"
        },
        {
          "internalType": "address",
          "name": "to_",
          "type": "address"
        },
        {
          "internalType": "uint256",
          "name": "value_",
          "type": "uint256"
        }
      ],
      "name": "approve",
      "outputs": [],
      "stateMutability": "payable",
      "type": "function"
    },
    {
      "inputs": [
        {
          "internalType": "address",
          "name": "owner_",
          "type": "address"
        }
      ],
      "name": "balanceOf",
      "outputs": [
        {
          "internalType": "uint256",
          "name": "balance",
          "type": "uint256"
        }
      ],
      "stateMutability": "view",
      "type": "function"
    },
    {
      "inputs": [
        {
          "internalType": "uint256",
          "name": "tokenId_",
          "type": "uint256"
        }
      ],
      "name": "balanceOf",
      "outputs": [
        {
          "internalType": "uint256",
          "name": "",
          "type": "uint256"
        }
      ],
      "stateMutability": "view",
      "type": "function"
    },
    {
      "inputs": [],
      "name": "contractURI",
      "outputs": [
        {
          "internalType": "string",
          "name": "",
          "type": "string"
        }
      ],
      "stateMutability": "view",
      "type": "function"
    },
    {
      "inputs": [
        {
          "internalType": "uint256",
          "name": "tokenId_",
          "type": "uint256"
        }
      ],
      "name": "getApproved",
      "outputs": [
        {
          "internalType": "address",
          "name": "",
          "type": "address"
        }
      ],
      "stateMutability": "view",
      "type": "function"
    },
    {
      "inputs": [
        {
          "internalType": "address",
          "name": "owner_",
          "type": "address"
        },
        {
          "internalType": "address",
          "name": "operator_",
          "type": "address"
        }
      ],
      "name": "isApprovedForAll",
      "outputs": [
        {
          "internalType": "bool",
          "name": "",
          "type": "bool"
        }
      ],
      "stateMutability": "view",
      "type": "function"
    },
    {
      "inputs": [],
      "name": "metadataDescriptor",
      "outputs": [
        {
          "internalType": "contract IERC3525MetadataDescriptor",
          "name": "",
          "type": "address"
        }
      ],
      "stateMutability": "view",
      "type": "function"
    },
    {
      "inputs": [
        {
          "internalType": "address",
          "name": "owner_",
          "type": "address"
        },
        {
          "internalType": "uint256",
          "name": "slot_",
          "type": "uint256"
        },
        {
          "internalType": "uint256",
          "name": "value_",
          "type": "uint256"
        },
        {
          "internalType": "string",
          "name": "uuid_",
          "type": "string"
        },
        {
          "internalType": "string",
          "name": "token_description_",
          "type": "string"
        },
        {
          "internalType": "string",
          "name": "token_image_",
          "type": "string"
        }
      ],
      "name": "mint",
      "outputs": [
        {
          "internalType": "uint256",
          "name": "",
          "type": "uint256"
        }
      ],
      "stateMutability": "nonpayable",
      "type": "function"
    },
    {
      "inputs": [],
      "name": "name",
      "outputs": [
        {
          "internalType": "string",
          "name": "",
          "type": "string"
        }
      ],
      "stateMutability": "view",
      "type": "function"
    },
    {
      "inputs": [],
      "name": "owner",
      "outputs": [
        {
          "internalType": "address",
          "name": "",
          "type": "address"
        }
      ],
      "stateMutability": "view",
      "type": "function"
    },
    {
      "inputs": [
        {
          "internalType": "uint256",
          "name": "tokenId_",
          "type": "uint256"
        }
      ],
      "name": "ownerOf",
      "outputs": [
        {
          "internalType": "address",
          "name": "owner_",
          "type": "address"
        }
      ],
      "stateMutability": "view",
      "type": "function"
    },
    {
      "inputs": [],
      "name": "renounceOwnership",
      "outputs": [],
      "stateMutability": "nonpayable",
      "type": "function"
    },
    {
      "inputs": [
        {
          "internalType": "address",
          "name": "from_",
          "type": "address"
        },
        {
          "internalType": "address",
          "name": "to_",
          "type": "address"
        },
        {
          "internalType": "uint256",
          "name": "tokenId_",
          "type": "uint256"
        }
      ],
      "name": "safeTransferFrom",
      "outputs": [],
      "stateMutability": "payable",
      "type": "function"
    },
    {
      "inputs": [
        {
          "internalType": "address",
          "name": "from_",
          "type": "address"
        },
        {
          "internalType": "address",
          "name": "to_",
          "type": "address"
        },
        {
          "internalType": "uint256",
          "name": "tokenId_",
          "type": "uint256"
        },
        {
          "internalType": "bytes",
          "name": "data_",
          "type": "bytes"
        }
      ],
      "name": "safeTransferFrom",
      "outputs": [],
      "stateMutability": "payable",
      "type": "function"
    },
    {
      "inputs": [
        {
          "internalType": "address",
          "name": "operator_",
          "type": "address"
        },
        {
          "internalType": "bool",
          "name": "approved_",
          "type": "bool"
        }
      ],
      "name": "setApprovalForAll",
      "outputs": [],
      "stateMutability": "nonpayable",
      "type": "function"
    },
    {
      "inputs": [
        {
          "internalType": "uint256",
          "name": "tokenId_",
          "type": "uint256"
        }
      ],
      "name": "slotOf",
      "outputs": [
        {
          "internalType": "uint256",
          "name": "",
          "type": "uint256"
        }
      ],
      "stateMutability": "view",
      "type": "function"
    },
    {
      "inputs": [
        {
          "internalType": "uint256",
          "name": "slot_",
          "type": "uint256"
        }
      ],
      "name": "slotURI",
      "outputs": [
        {
          "internalType": "string",
          "name": "",
          "type": "string"
        }
      ],
      "stateMutability": "view",
      "type": "function"
    },
    {
      "inputs": [
        {
          "internalType": "bytes4",
          "name": "interfaceId",
          "type": "bytes4"
        }
      ],
      "name": "supportsInterface",
      "outputs": [
        {
          "internalType": "bool",
          "name": "",
          "type": "bool"
        }
      ],
      "stateMutability": "view",
      "type": "function"
    },
    {
      "inputs": [],
      "name": "symbol",
      "outputs": [
        {
          "internalType": "string",
          "name": "",
          "type": "string"
        }
      ],
      "stateMutability": "view",
      "type": "function"
    },
    {
      "inputs": [
        {
          "internalType": "uint256",
          "name": "index_",
          "type": "uint256"
        }
      ],
      "name": "tokenByIndex",
      "outputs": [
        {
          "internalType": "uint256",
          "name": "",
          "type": "uint256"
        }
      ],
      "stateMutability": "view",
      "type": "function"
    },
    {
      "inputs": [
        {
          "internalType": "address",
          "name": "owner_",
          "type": "address"
        },
        {
          "internalType": "uint256",
          "name": "index_",
          "type": "uint256"
        }
      ],
      "name": "tokenOfOwnerByIndex",
      "outputs": [
        {
          "internalType": "uint256",
          "name": "",
          "type": "uint256"
        }
      ],
      "stateMutability": "view",
      "type": "function"
    },
    {
      "inputs": [
        {
          "internalType": "address",
          "name": "from_",
          "type": "address"
        },
        {
          "internalType": "address",
          "name": "to_",
          "type": "address"
        },
        {
          "internalType": "uint256",
          "name": "tokenId_",
          "type": "uint256"
        }
      ],
      "name": "tokenTransfer",
      "outputs": [],
      "stateMutability": "payable",
      "type": "function"
    },
    {
      "inputs": [
        {
          "internalType": "uint256",
          "name": "tokenId_",
          "type": "uint256"
        }
      ],
      "name": "tokenURI",
      "outputs": [
        {
          "internalType": "string",
          "name": "",
          "type": "string"
        }
      ],
      "stateMutability": "view",
      "type": "function"
    },
    {
      "inputs": [],
      "name": "totalSupply",
      "outputs": [
        {
          "internalType": "uint256",
          "name": "",
          "type": "uint256"
        }
      ],
      "stateMutability": "view",
      "type": "function"
    },
    {
      "inputs": [
        {
          "internalType": "uint256",
          "name": "fromTokenId_",
          "type": "uint256"
        },
        {
          "internalType": "address",
          "name": "to_",
          "type": "address"
        },
        {
          "internalType": "uint256",
          "name": "value_",
          "type": "uint256"
        }
      ],
      "name": "transferFrom",
      "outputs": [
        {
          "internalType": "uint256",
          "name": "",
          "type": "uint256"
        }
      ],
      "stateMutability": "payable",
      "type": "function"
    },
    {
      "inputs": [
        {
          "internalType": "address",
          "name": "from_",
          "type": "address"
        },
        {
          "internalType": "address",
          "name": "to_",
          "type": "address"
        },
        {
          "internalType": "uint256",
          "name": "tokenId_",
          "type": "uint256"
        }
      ],
      "name": "transferFrom",
      "outputs": [],
      "stateMutability": "payable",
      "type": "function"
    },
    {
      "inputs": [
        {
          "internalType": "uint256",
          "name": "fromTokenId_",
          "type": "uint256"
        },
        {
          "internalType": "uint256",
          "name": "toTokenId_",
          "type": "uint256"
        },
        {
          "internalType": "uint256",
          "name": "value_",
          "type": "uint256"
        }
      ],
      "name": "transferFrom",
      "outputs": [],
      "stateMutability": "payable",
      "type": "function"
    },
    {
      "inputs": [
        {
          "internalType": "address",
          "name": "newOwner",
          "type": "address"
        }
      ],
      "name": "transferOwnership",
      "outputs": [],
      "stateMutability": "nonpayable",
      "type": "function"
    },
    {
      "inputs": [],
      "name": "valueDecimals",
      "outputs": [
        {
          "internalType": "uint8",
          "name": "",
          "type": "uint8"
        }
      ],
      "stateMutability": "view",
      "type": "function"
    }
  ],
  "bytecode": "0x60806040523480156200001157600080fd5b506040516200568838038062005688833981016040819052620000349162000334565b8686826000620000458482620004f0565b506001620000548382620004f0565b506002805460ff191660ff92909216919091179055506200007e9050620000783390565b620001d8565b6040805180820190915260048152635553444360e01b6020820152600a80546001600160a01b0319166001600160a01b038c16179055600b620000c28782620004f0565b50600b85858b604051620000d6906200022a565b620000e59493929190620005ea565b604051809103906000f08015801562000102573d6000803e3d6000fd5b50600880546001600160a01b0319166001600160a01b03929092169190911790556040805180820190915260048152635553444360e01b6020918201528151908201207f29535e4168d63ec2988ccae9ecde9b63335195a6eaab88dae98ff067906bd156016200018857600c80546001600160a01b0319166001600160a01b0385161790555b6008546040516001600160a01b0390911681527f9ac4f8025631594629895b778dc5ee88d01673a254a2291f6b6b174ad25230ca9060200160405180910390a150505050505050505050620006c2565b600980546001600160a01b038381166001600160a01b0319831681179093556040519116919082907f8be0079c531659141344cd1fd0a4f28419497f9722a3daafe3b4186f6b6457e090600090a35050565b611a468062003c4283390190565b80516001600160a01b03811681146200025057600080fd5b919050565b634e487b7160e01b600052604160045260246000fd5b60005b83811015620002885781810151838201526020016200026e565b50506000910152565b600082601f830112620002a357600080fd5b81516001600160401b0380821115620002c057620002c062000255565b604051601f8301601f19908116603f01168101908282118183101715620002eb57620002eb62000255565b816040528381528660208588010111156200030557600080fd5b620003188460208301602089016200026b565b9695505050505050565b805160ff811681146200025057600080fd5b60008060008060008060008060006101208a8c0312156200035457600080fd5b6200035f8a62000238565b98506200036f60208b0162000238565b60408b01519098506001600160401b03808211156200038d57600080fd5b6200039b8d838e0162000291565b985060608c0151915080821115620003b257600080fd5b620003c08d838e0162000291565b975060808c0151915080821115620003d757600080fd5b620003e58d838e0162000291565b965060a08c0151915080821115620003fc57600080fd5b6200040a8d838e0162000291565b955060c08c01519150808211156200042157600080fd5b50620004308c828d0162000291565b9350506200044160e08b0162000238565b9150620004526101008b0162000322565b90509295985092959850929598565b600181811c908216806200047657607f821691505b6020821081036200049757634e487b7160e01b600052602260045260246000fd5b50919050565b601f821115620004eb57600081815260208120601f850160051c81016020861015620004c65750805b601f850160051c820191505b81811015620004e757828155600101620004d2565b5050505b505050565b81516001600160401b038111156200050c576200050c62000255565b62000524816200051d845462000461565b846200049d565b602080601f8311600181146200055c5760008415620005435750858301515b600019600386901b1c1916600185901b178555620004e7565b600085815260208120601f198616915b828110156200058d578886015182559484019460019091019084016200056c565b5085821015620005ac5787850151600019600388901b60f8161c191681555b5050505050600190811b01905550565b60008151808452620005d68160208601602086016200026b565b601f01601f19169290920160200192915050565b608081526000808654620005fe8162000461565b80608086015260a06001808416600081146200062357600181146200063e5762000671565b60ff1985168884015283151560051b88018301955062000671565b8b60005260208060002060005b86811015620006685781548b82018701529084019082016200064b565b8a018501975050505b505050505082810360208401526200068a8187620005bc565b90508281036040840152620006a08186620005bc565b915050620006b960608301846001600160a01b03169052565b95945050505050565b61357080620006d26000396000f3fe6080604052600436106101e35760003560e01c80634f6ccce7116101025780639cc7f70811610095578063e345e0bc11610064578063e345e0bc1461051e578063e8a3d4851461053e578063e985e9c514610553578063f2fde38b146105a057600080fd5b80639cc7f708146104ab578063a22cb465146104cb578063b88d4fde146104eb578063c87b56dd146104fe57600080fd5b8063840f7113116100d1578063840f7113146104455780638cb0a511146104655780638da5cb5b1461047857806395d89b411461049657600080fd5b80634f6ccce7146103d05780636352211e146103f057806370a0823114610410578063715018a61461043057600080fd5b806323b872dd1161017a57806331b5b9071161014957806331b5b9071461035b5780633e7e86691461037b57806342842e0e1461039d578063476de4a8146103b057600080fd5b806323b872dd146102f5578063263f3e7e146103085780632f745c5914610328578063310ed7f01461034857600080fd5b806309c3dd87116101b657806309c3dd871461028c5780630f485c02146102ac57806315eaef6b146102cd57806318160ddd146102e057600080fd5b806301ffc9a7146101e857806306fdde031461021d578063081812fc1461023f578063095ea7b314610277575b600080fd5b3480156101f457600080fd5b50610208610203366004612c79565b6105c0565b60405190151581526020015b60405180910390f35b34801561022957600080fd5b50610232610663565b6040516102149190612ce6565b34801561024b57600080fd5b5061025f61025a366004612cf9565b6106f5565b6040516001600160a01b039091168152602001610214565b61028a610285366004612d29565b610747565b005b34801561029857600080fd5b506102326102a7366004612cf9565b61082b565b6102bf6102ba366004612d53565b610910565b604051908152602001610214565b61028a6102db366004612d88565b61094e565b3480156102ec57600080fd5b506005546102bf565b61028a610303366004612d88565b610980565b34801561031457600080fd5b506102bf610323366004612cf9565b61098b565b34801561033457600080fd5b506102bf610343366004612d29565b6109d3565b61028a610356366004612db4565b610a74565b34801561036757600080fd5b50610232610376366004612ead565b610a7f565b34801561038757600080fd5b5060025460405160ff9091168152602001610214565b61028a6103ab366004612d88565b610af5565b3480156103bc57600080fd5b506102bf6103cb366004612ee2565b610b10565b3480156103dc57600080fd5b506102bf6103eb366004612cf9565b610d67565b3480156103fc57600080fd5b5061025f61040b366004612cf9565b610df8565b34801561041c57600080fd5b506102bf61042b366004612f8d565b610e94565b34801561043c57600080fd5b5061028a610f1c565b34801561045157600080fd5b5060085461025f906001600160a01b031681565b61028a610473366004612d53565b610f30565b34801561048457600080fd5b506009546001600160a01b031661025f565b3480156104a257600080fd5b50610232610fef565b3480156104b757600080fd5b506102bf6104c6366004612cf9565b610ffe565b3480156104d757600080fd5b5061028a6104e6366004612fb6565b611046565b61028a6104f9366004612fed565b61108c565b34801561050a57600080fd5b50610232610519366004612cf9565b6110be565b34801561052a57600080fd5b506102bf610539366004613069565b611150565b34801561054a57600080fd5b50610232611184565b34801561055f57600080fd5b5061020861056e366004613095565b6001600160a01b0391821660009081526007602090815260408083209390941682526002909201909152205460ff1690565b3480156105ac57600080fd5b5061028a6105bb366004612f8d565b611271565b60006001600160e01b031982166301ffc9a760e01b14806105f157506001600160e01b03198216630354d60560e61b145b8061060c57506001600160e01b031982166380ac58cd60e01b145b8061062757506001600160e01b031982166370b0048160e11b145b8061064257506001600160e01b0319821663780e9d6360e01b145b8061065d57506001600160e01b03198216635b5e139f60e01b145b92915050565b606060008054610672906130bf565b80601f016020809104026020016040519081016040528092919081815260200182805461069e906130bf565b80156106eb5780601f106106c0576101008083540402835291602001916106eb565b820191906000526020600020905b8154815290600101906020018083116106ce57829003601f168201915b5050505050905090565b6000610700826112ea565b600082815260066020526040902054600580549091908110610724576107246130f9565b60009182526020909120600460069092020101546001600160a01b031692915050565b600061075282610df8565b9050806001600160a01b0316836001600160a01b03160361078e5760405162461bcd60e51b81526004016107859061310f565b60405180910390fd5b336001600160a01b03821614806107aa57506107aa813361056e565b61081c5760405162461bcd60e51b815260206004820152603960248201527f455243333532353a20617070726f76652063616c6c6572206973206e6f74206f60448201527f776e6572206e6f7220617070726f76656420666f7220616c6c000000000000006064820152608401610785565b610826838361133b565b505050565b606060006108376113d2565b6008549091506001600160a01b03166108975760008151116108685760405180602001604052806000815250610909565b80610872846113e1565b604051602001610883929190613151565b604051602081830303815290604052610909565b600854604051633601bfc560e11b8152600481018590526001600160a01b0390911690636c037f8a906024015b600060405180830381865afa1580156108e1573d6000803e3d6000fd5b505050506040513d6000823e601f3d908101601f191682016040526109099190810190613191565b9392505050565b600061091d848484611474565b506000848152600e6020526040812054600d80549091908110610942576109426130f9565b50600052509392505050565b610959335b826114ac565b6109755760405162461bcd60e51b815260040161078590613208565b610826838383610af5565b61082683838361152f565b6000610996826112ea565b6000828152600660205260409020546005805490919081106109ba576109ba6130f9565b9060005260206000209060060201600101549050919050565b60006109de83610e94565b8210610a375760405162461bcd60e51b815260206004820152602260248201527f455243333532353a206f776e657220696e646578206f7574206f6620626f756e604482015261647360f01b6064820152608401610785565b6001600160a01b0383166000908152600760205260409020805483908110610a6157610a616130f9565b9060005260206000200154905092915050565b61082683838361155f565b6060600b610a8d83826132a0565b506008546040516355f804b360e01b81526001600160a01b03909116906355f804b390610abe908590600401612ce6565b600060405180830381600087803b158015610ad857600080fd5b505af1158015610aec573d6000803e3d6000fd5b50505050919050565b6108268383836040518060200160405280600081525061108c565b6000610b1a611575565b6000610b246115cf565b600c546040516394bf804d60e01b8152600481018990523060248201529192506001600160a01b0316906394bf804d90604401600060405180830381600087803b158015610b7157600080fd5b505af1158015610b85573d6000803e3d6000fd5b50505050610b95888289896115e6565b6040805160c08101825282815260208082018a90528183018990526001600160a01b038b166060830152600060808301819052835181815291820190935260a08201529050610be381611710565b610bed8983611862565b600854604051632108947560e21b81526001600160a01b039091169063842251d490610c1f9085908a90600401613360565b600060405180830381600087803b158015610c3957600080fd5b505af1158015610c4d573d6000803e3d6000fd5b505060085460405163246a908b60e01b81526001600160a01b03909116925063246a908b9150610c839085908990600401613360565b600060405180830381600087803b158015610c9d57600080fd5b505af1158015610cb1573d6000803e3d6000fd5b5050600854604051630190503b60e61b81526001600160a01b0390911692506364140ec09150610ce79085908890600401613360565b600060405180830381600087803b158015610d0157600080fd5b505af1158015610d15573d6000803e3d6000fd5b505060408051858152602081018c90529081018a90527f84eeb48eca46cea54afc9753345f6038981672ea565f32885420829dfd88aea69250606001905060405180910390a150979650505050505050565b6000610d7260055490565b8210610dcc5760405162461bcd60e51b815260206004820152602360248201527f455243333532353a20676c6f62616c20696e646578206f7574206f6620626f756044820152626e647360e81b6064820152608401610785565b60058281548110610ddf57610ddf6130f9565b9060005260206000209060060201600001549050919050565b6000610e03826112ea565b600082815260066020526040902054600580549091908110610e2757610e276130f9565b60009182526020909120600360069092020101546001600160a01b0316905080610e8f5760405162461bcd60e51b8152602060048201526019602482015278115490cccd4c8d4e881a5b9d985b1a59081d1bdad95b881251603a1b6044820152606401610785565b919050565b60006001600160a01b038216610f005760405162461bcd60e51b815260206004820152602b60248201527f455243333532353a2062616c616e636520717565727920666f7220746865207a60448201526a65726f206164647265737360a81b6064820152608401610785565b506001600160a01b031660009081526007602052604090205490565b610f24611575565b610f2e60006118eb565b565b6000610f3b84610df8565b9050806001600160a01b0316836001600160a01b031603610f6e5760405162461bcd60e51b81526004016107859061310f565b610f7833856114ac565b610fde5760405162461bcd60e51b815260206004820152603160248201527f455243333532353a20617070726f76652063616c6c6572206973206e6f74206f6044820152701ddb995c881b9bdc88185c1c1c9bdd9959607a1b6064820152608401610785565b610fe984848461193d565b50505050565b606060018054610672906130bf565b6000611009826112ea565b60008281526006602052604090205460058054909190811061102d5761102d6130f9565b9060005260206000209060060201600201549050919050565b6110508282611a75565b336000908152600f602090815260408083206001600160a01b039590951683526002909401905291909120805460ff1916911515919091179055565b61109633836114ac565b6110b25760405162461bcd60e51b815260040161078590613208565b610fe984848484611a84565b60606110c9826112ea565b60006110d36113d2565b6008549091506001600160a01b031661111f5760008151116111045760405180602001604052806000815250610909565b8061110e846113e1565b604051602001610883929190613379565b6008546040516344a5a61760e11b8152600481018590526001600160a01b039091169063894b4c2e906024016108c4565b600061115b836112ea565b5060009182526004602090815260408084206001600160a01b0393909316845291905290205490565b606060006111906113d2565b6008549091506001600160a01b03166111f05760008151116111c1576040518060200160405280600081525061126b565b806111cb30611af7565b6040516020016111dc9291906133a8565b60405160208183030381529060405261126b565b600860009054906101000a90046001600160a01b03166001600160a01b031663725fa09c6040518163ffffffff1660e01b8152600401600060405180830381865afa158015611243573d6000803e3d6000fd5b505050506040513d6000823e601f3d908101601f1916820160405261126b9190810190613191565b91505090565b611279611575565b6001600160a01b0381166112de5760405162461bcd60e51b815260206004820152602660248201527f4f776e61626c653a206e6577206f776e657220697320746865207a65726f206160448201526564647265737360d01b6064820152608401610785565b6112e7816118eb565b50565b6112f381611b0d565b6112e75760405162461bcd60e51b8152602060048201526019602482015278115490cccd4c8d4e881a5b9d985b1a59081d1bdad95b881251603a1b6044820152606401610785565b60008181526006602052604090205460058054849290811061135f5761135f6130f9565b6000918252602090912060069091020160040180546001600160a01b0319166001600160a01b039283161790558190831661139982610df8565b6001600160a01b03167f8c5be1e5ebec7d5bd14f71427d1e84f3dd0314c0f7b2291e5b200ac8c7c3b92560405160405180910390a45050565b6060600b8054610672906130bf565b606060006113ee83611b59565b600101905060008167ffffffffffffffff81111561140e5761140e612de0565b6040519080825280601f01601f191660200182016040528015611438576020820181803683370190505b5090508181016020015b600019016f181899199a1a9b1b9c1cb0b131b232b360811b600a86061a8153600a850494508461144257509392505050565b6000611481338584611c31565b61148a84611cc1565b90506114a1838261149a8761098b565b60006115e6565b610909848284611ccb565b6000806114b883610df8565b9050806001600160a01b0316846001600160a01b0316148061150357506001600160a01b038082166000908152600760209081526040808320938816835260029093019052205460ff165b806115275750836001600160a01b031661151c846106f5565b6001600160a01b0316145b949350505050565b61153833610953565b6115545760405162461bcd60e51b815260040161078590613208565b610826838383611fc3565b61156a338483611c31565b610826838383611ccb565b6009546001600160a01b03163314610f2e5760405162461bcd60e51b815260206004820181905260248201527f4f776e61626c653a2063616c6c6572206973206e6f7420746865206f776e65726044820152606401610785565b60006115df600380546001019055565b5060035490565b6001600160a01b0384166116465760405162461bcd60e51b815260206004820152602160248201527f455243333532353a206d696e7420746f20746865207a65726f206164647265736044820152607360f81b6064820152608401610785565b826000036116a05760405162461bcd60e51b815260206004820152602160248201527f455243333532353a2063616e6e6f74206d696e74207a65726f20746f6b656e496044820152601960fa1b6064820152608401610785565b6116a983611b0d565b156116f65760405162461bcd60e51b815260206004820152601d60248201527f455243333532353a20746f6b656e20616c7265616479206d696e7465640000006044820152606401610785565b61170184848461212c565b61170b83826121f2565b610fe9565b600d805482516000908152600e6020908152604080832084905560018401855593909152835160069092027fd7b6990105719101dabeb77144f2a3385c8033acd3af97e9423a695e81ad1eb58101928355818501517fd7b6990105719101dabeb77144f2a3385c8033acd3af97e9423a695e81ad1eb6820155928401517fd7b6990105719101dabeb77144f2a3385c8033acd3af97e9423a695e81ad1eb784015560608401517fd7b6990105719101dabeb77144f2a3385c8033acd3af97e9423a695e81ad1eb8840180546001600160a01b039283166001600160a01b03199182161790915560808601517fd7b6990105719101dabeb77144f2a3385c8033acd3af97e9423a695e81ad1eb98601805491909316911617905560a084015180518594610fe9937fd7b6990105719101dabeb77144f2a3385c8033acd3af97e9423a695e81ad1eba909101920190612bcf565b6000818152600e6020526040902054600d80548492908110611886576118866130f9565b6000918252602080832060069290920290910160030180546001600160a01b0319166001600160a01b03948516179055939091168152600f80845260408083208054858552600182810188529285208190559286529082018155825292902090910155565b600980546001600160a01b038381166001600160a01b0319831681179093556040519116919082907f8be0079c531659141344cd1fd0a4f28419497f9722a3daafe3b4186f6b6457e090600090a35050565b6001600160a01b0382166119a65760405162461bcd60e51b815260206004820152602a60248201527f455243333532353a20617070726f76652076616c756520746f20746865207a65604482015269726f206164647265737360b01b6064820152608401610785565b6119b08284612277565b611a16576000838152600660205260409020546005805490919081106119d8576119d86130f9565b60009182526020808320600692909202909101600501805460018101825590835291200180546001600160a01b0319166001600160a01b0384161790555b60008381526004602090815260408083206001600160a01b038616808552908352928190208490555183815285917f621b050de0ad08b51d19b48b3e6df75348c4de6bdd93e81b252ca62e28265b1b91015b60405180910390a3505050565b611a8033838361234a565b5050565b611a8f848484611fc3565b611a9b84848484612414565b610fe95760405162461bcd60e51b815260206004820152602760248201527f455243333532353a207472616e7366657220746f206e6f6e204552433732315260448201526632b1b2b4bb32b960c91b6064820152608401610785565b606061065d6001600160a01b0383166014612560565b6005546000901580159061065d5750600082815260066020526040902054600580548492908110611b4057611b406130f9565b9060005260206000209060060201600001541492915050565b60008072184f03e93ff9f4daa797ed6e38ed64bf6a1f0160401b8310611b985772184f03e93ff9f4daa797ed6e38ed64bf6a1f0160401b830492506040015b6d04ee2d6d415b85acef81000000008310611bc4576d04ee2d6d415b85acef8100000000830492506020015b662386f26fc100008310611be257662386f26fc10000830492506010015b6305f5e1008310611bfa576305f5e100830492506008015b6127108310611c0e57612710830492506004015b60648310611c20576064830492506002015b600a831061065d5760010192915050565b6000611c3d8385611150565b9050611c4984846114ac565b158015611c5857506000198114155b15610fe95781811015611cad5760405162461bcd60e51b815260206004820152601f60248201527f455243333532353a20696e73756666696369656e7420616c6c6f77616e6365006044820152606401610785565b610fe98385611cbc8585613402565b61193d565b600061065d6115cf565b611cd483611b0d565b611d305760405162461bcd60e51b815260206004820152602760248201527f455243333532353a207472616e736665722066726f6d20696e76616c696420746044820152661bdad95b88125160ca1b6064820152608401610785565b611d3982611b0d565b611d935760405162461bcd60e51b815260206004820152602560248201527f455243333532353a207472616e7366657220746f20696e76616c696420746f6b604482015264195b88125160da1b6064820152608401610785565b600083815260066020526040812054600580549091908110611db757611db76130f9565b9060005260206000209060060201905060006005600660008681526020019081526020016000205481548110611def57611def6130f9565b906000526020600020906006020190508282600201541015611e665760405162461bcd60e51b815260206004820152602a60248201527f455243333532353a20696e73756666696369656e742062616c616e636520666f60448201526939103a3930b739b332b960b11b6064820152608401610785565b8060010154826001015414611ed45760405162461bcd60e51b815260206004820152602e60248201527f455243333532353a207472616e7366657220746f20746f6b656e20776974682060448201526d191a5999995c995b9d081cdb1bdd60921b6064820152608401610785565b82826002016000828254611ee89190613402565b9250508190555082816002016000828254611f039190613415565b9091555050604051838152849086907f0b2aac84f3ec956911fd78eae5311062972ff949f38412e8da39069d9f068cc69060200160405180910390a3611f5a858585604051806020016040528060008152506126fc565b611fbc5760405162461bcd60e51b815260206004820152602d60248201527f455243333532353a207472616e736665722072656a656374656420627920455260448201526c21999a991aa932b1b2b4bb32b960991b6064820152608401610785565b5050505050565b826001600160a01b0316611fd682610df8565b6001600160a01b0316146120385760405162461bcd60e51b8152602060048201526024808201527f455243333532353a207472616e736665722066726f6d20696e76616c6964206f6044820152633bb732b960e11b6064820152608401610785565b6001600160a01b03821661209c5760405162461bcd60e51b815260206004820152602560248201527f455243333532353a207472616e7366657220746f20746865207a65726f206164604482015264647265737360d81b6064820152608401610785565b60006120a78261098b565b905060006120b483610ffe565b90506120c160008461133b565b6120ca8361282f565b6120d485846128da565b6120de84846129fb565b82846001600160a01b0316866001600160a01b03167fddf252ad1be2c89b69c2b068fc378daa952ba7f163c4a11628f55a4df523b3ef60405160405180910390a4611fbc565b505050505050565b6040805160c081018252838152602080820184905260008284018190526001600160a01b038716606084015260808301819052835181815291820190935260a0820152905061217a81612a84565b61218484846129fb565b60405183906001600160a01b038616906000907fddf252ad1be2c89b69c2b068fc378daa952ba7f163c4a11628f55a4df523b3ef908290a4816000847fe4f48c240d3b994948aa54f3e2f5fca59263dfe1d52b6e4cf39a5d249b5ccb6560405160405180910390a450505050565b600082815260066020526040902054600580548392908110612216576122166130f9565b906000526020600020906006020160020160008282546122369190613415565b909155505060405181815282906000907f0b2aac84f3ec956911fd78eae5311062972ff949f38412e8da39069d9f068cc69060200160405180910390a35050565b60008181526006602052604081205460058054839290811061229b5761229b6130f9565b6000918252602082206005600690920201015491505b8181101561233f57600084815260066020526040902054600580546001600160a01b038816929081106122e6576122e66130f9565b90600052602060002090600602016005018281548110612308576123086130f9565b6000918252602090912001546001600160a01b03160361232d5760019250505061065d565b8061233781613428565b9150506122b1565b506000949350505050565b816001600160a01b0316836001600160a01b0316036123ab5760405162461bcd60e51b815260206004820152601a60248201527f455243333532353a20617070726f766520746f2063616c6c65720000000000006044820152606401610785565b6001600160a01b0383811660008181526007602090815260408083209487168084526002909501825291829020805460ff191686151590811790915591519182527f17307eab39ab6107e8899845ad3d59bd9653f200f220920489ca2b5937696c319101611a68565b60006001600160a01b0384163b1561255557604051630a85bd0160e11b81526001600160a01b0385169063150b7a0290612458903390899088908890600401613441565b6020604051808303816000875af1925050508015612493575060408051601f3d908101601f191682019092526124909181019061347e565b60015b61253b573d8080156124c1576040519150601f19603f3d011682016040523d82523d6000602084013e6124c6565b606091505b5080516000036125335760405162461bcd60e51b815260206004820152603260248201527f4552433732313a207472616e7366657220746f206e6f6e20455243373231526560448201527131b2b4bb32b91034b6b83632b6b2b73a32b960711b6064820152608401610785565b805181602001fd5b6001600160e01b031916630a85bd0160e11b149050611527565b506001949350505050565b6060600061256f83600261349b565b61257a906002613415565b67ffffffffffffffff81111561259257612592612de0565b6040519080825280601f01601f1916602001820160405280156125bc576020820181803683370190505b509050600360fc1b816000815181106125d7576125d76130f9565b60200101906001600160f81b031916908160001a905350600f60fb1b81600181518110612606576126066130f9565b60200101906001600160f81b031916908160001a905350600061262a84600261349b565b612635906001613415565b90505b60018111156126ad576f181899199a1a9b1b9c1cb0b131b232b360811b85600f1660108110612669576126696130f9565b1a60f81b82828151811061267f5761267f6130f9565b60200101906001600160f81b031916908160001a90535060049490941c936126a6816134b2565b9050612638565b5083156109095760405162461bcd60e51b815260206004820181905260248201527f537472696e67733a20686578206c656e67746820696e73756666696369656e746044820152606401610785565b60008061270885610df8565b90506001600160a01b0381163b1515801561278c57506040516301ffc9a760e01b8152629ce20b60e01b60048201526001600160a01b038216906301ffc9a790602401602060405180830381865afa158015612768573d6000803e3d6000fd5b505050506040513d601f19601f8201168201806040525081019061278c91906134c9565b1561282557604051629ce20b60e01b81526000906001600160a01b03831690629ce20b906127c69033908b908b908b908b906004016134e6565b6020604051808303816000875af11580156127e5573d6000803e3d6000fd5b505050506040513d601f19601f82011682018060405250810190612809919061347e565b6001600160e01b031916629ce20b60e01b149250611527915050565b6001915050611527565b600081815260066020526040812054600580549091908110612853576128536130f9565b600091825260208220600560069092020190810154909250905b818110156128cb57600083600501828154811061288c5761288c6130f9565b60009182526020808320909101548783526004825260408084206001600160a01b039092168452915281205550806128c381613428565b91505061286d565b50610826600583016000612c34565b6000818152600660205260408120546005805490919081106128fe576128fe6130f9565b6000918252602080832060069290920290910160030180546001600160a01b0319166001600160a01b039485161790559184168152600790915260408120805490919061294d90600190613402565b90506000826000018281548110612966576129666130f9565b906000526020600020015490506000836001016000868152602001908152602001600020549050818460000182815481106129a3576129a36130f9565b600091825260208083209091019290925583815260018601909152604080822083905586825281205583548490806129dd576129dd613524565b60019003818190600052602060002001600090559055505050505050565b600081815260066020526040902054600580548492908110612a1f57612a1f6130f9565b6000918252602080832060069290920290910160030180546001600160a01b0319166001600160a01b03948516179055939091168152600780845260408083208054858552600182810188529285208190559286529082018155825292902090910155565b600580548251600090815260066020818152604080842085905560018501865594909252845192027f036b6384b5eca791c62761152d0c79bb0604c104a5fb6f4eb0703f3154bb3db08101928355818501517f036b6384b5eca791c62761152d0c79bb0604c104a5fb6f4eb0703f3154bb3db1820155928401517f036b6384b5eca791c62761152d0c79bb0604c104a5fb6f4eb0703f3154bb3db284015560608401517f036b6384b5eca791c62761152d0c79bb0604c104a5fb6f4eb0703f3154bb3db3840180546001600160a01b039283166001600160a01b03199182161790915560808601517f036b6384b5eca791c62761152d0c79bb0604c104a5fb6f4eb0703f3154bb3db48601805491909316911617905560a084015180518594610fe9937f036b6384b5eca791c62761152d0c79bb0604c104a5fb6f4eb0703f3154bb3db59091019201905b828054828255906000526020600020908101928215612c24579160200282015b82811115612c2457825182546001600160a01b0319166001600160a01b03909116178255602090920191600190910190612bef565b50612c30929150612c4e565b5090565b50805460008255906000526020600020908101906112e791905b5b80821115612c305760008155600101612c4f565b6001600160e01b0319811681146112e757600080fd5b600060208284031215612c8b57600080fd5b813561090981612c63565b60005b83811015612cb1578181015183820152602001612c99565b50506000910152565b60008151808452612cd2816020860160208601612c96565b601f01601f19169290920160200192915050565b6020815260006109096020830184612cba565b600060208284031215612d0b57600080fd5b5035919050565b80356001600160a01b0381168114610e8f57600080fd5b60008060408385031215612d3c57600080fd5b612d4583612d12565b946020939093013593505050565b600080600060608486031215612d6857600080fd5b83359250612d7860208501612d12565b9150604084013590509250925092565b600080600060608486031215612d9d57600080fd5b612da684612d12565b9250612d7860208501612d12565b600080600060608486031215612dc957600080fd5b505081359360208301359350604090920135919050565b634e487b7160e01b600052604160045260246000fd5b604051601f8201601f1916810167ffffffffffffffff81118282101715612e1f57612e1f612de0565b604052919050565b600067ffffffffffffffff821115612e4157612e41612de0565b50601f01601f191660200190565b6000612e62612e5d84612e27565b612df6565b9050828152838383011115612e7657600080fd5b828260208301376000602084830101529392505050565b600082601f830112612e9e57600080fd5b61090983833560208501612e4f565b600060208284031215612ebf57600080fd5b813567ffffffffffffffff811115612ed657600080fd5b61152784828501612e8d565b60008060008060008060c08789031215612efb57600080fd5b612f0487612d12565b95506020870135945060408701359350606087013567ffffffffffffffff80821115612f2f57600080fd5b612f3b8a838b01612e8d565b94506080890135915080821115612f5157600080fd5b612f5d8a838b01612e8d565b935060a0890135915080821115612f7357600080fd5b50612f8089828a01612e8d565b9150509295509295509295565b600060208284031215612f9f57600080fd5b61090982612d12565b80151581146112e757600080fd5b60008060408385031215612fc957600080fd5b612fd283612d12565b91506020830135612fe281612fa8565b809150509250929050565b6000806000806080858703121561300357600080fd5b61300c85612d12565b935061301a60208601612d12565b925060408501359150606085013567ffffffffffffffff81111561303d57600080fd5b8501601f8101871361304e57600080fd5b61305d87823560208401612e4f565b91505092959194509250565b6000806040838503121561307c57600080fd5b8235915061308c60208401612d12565b90509250929050565b600080604083850312156130a857600080fd5b6130b183612d12565b915061308c60208401612d12565b600181811c908216806130d357607f821691505b6020821081036130f357634e487b7160e01b600052602260045260246000fd5b50919050565b634e487b7160e01b600052603260045260246000fd5b60208082526022908201527f455243333532353a20617070726f76616c20746f2063757272656e74206f776e60408201526132b960f11b606082015260800190565b60008351613163818460208801612c96565b64736c6f742f60d81b9083019081528351613185816005840160208801612c96565b01600501949350505050565b6000602082840312156131a357600080fd5b815167ffffffffffffffff8111156131ba57600080fd5b8201601f810184136131cb57600080fd5b80516131d9612e5d82612e27565b8181528560208385010111156131ee57600080fd5b6131ff826020830160208601612c96565b95945050505050565b60208082526032908201527f455243333532353a207472616e736665722063616c6c6572206973206e6f74206040820152711bdddb995c881b9bdc88185c1c1c9bdd995960721b606082015260800190565b601f82111561082657600081815260208120601f850160051c810160208610156132815750805b601f850160051c820191505b818110156121245782815560010161328d565b815167ffffffffffffffff8111156132ba576132ba612de0565b6132ce816132c884546130bf565b8461325a565b602080601f83116001811461330357600084156132eb5750858301515b600019600386901b1c1916600185901b178555612124565b600085815260208120601f198616915b8281101561333257888601518255948401946001909101908401613313565b50858210156133505787850151600019600388901b60f8161c191681555b5050505050600190811b01905550565b8281526040602082015260006115276040830184612cba565b6000835161338b818460208801612c96565b83519083019061339f818360208801612c96565b01949350505050565b600083516133ba818460208801612c96565b68636f6e74726163742f60b81b90830190815283516133e0816009840160208801612c96565b01600901949350505050565b634e487b7160e01b600052601160045260246000fd5b8181038181111561065d5761065d6133ec565b8082018082111561065d5761065d6133ec565b60006001820161343a5761343a6133ec565b5060010190565b6001600160a01b038581168252841660208201526040810183905260806060820181905260009061347490830184612cba565b9695505050505050565b60006020828403121561349057600080fd5b815161090981612c63565b808202811582820484141761065d5761065d6133ec565b6000816134c1576134c16133ec565b506000190190565b6000602082840312156134db57600080fd5b815161090981612fa8565b60018060a01b038616815284602082015283604082015282606082015260a06080820152600061351960a0830184612cba565b979650505050505050565b634e487b7160e01b600052603160045260246000fdfea2646970667358221220ead86d933a1843360fc945c9258d3d221aaa06226e043f434d9b6052878650cb64736f6c6343000811003360806040523480156200001157600080fd5b5060405162001a4638038062001a46833981016040819052620000349162000150565b600162000042858262000292565b50600262000051848262000292565b50600362000060838262000292565b50600080546001600160a01b0319166001600160a01b0392909216919091179055506200035e915050565b634e487b7160e01b600052604160045260246000fd5b600082601f830112620000b357600080fd5b81516001600160401b0380821115620000d057620000d06200008b565b604051601f8301601f19908116603f01168101908282118183101715620000fb57620000fb6200008b565b816040528381526020925086838588010111156200011857600080fd5b600091505b838210156200013c57858201830151818301840152908201906200011d565b600093810190920192909252949350505050565b600080600080608085870312156200016757600080fd5b84516001600160401b03808211156200017f57600080fd5b6200018d88838901620000a1565b95506020870151915080821115620001a457600080fd5b620001b288838901620000a1565b94506040870151915080821115620001c957600080fd5b50620001d887828801620000a1565b606087015190935090506001600160a01b0381168114620001f857600080fd5b939692955090935050565b600181811c908216806200021857607f821691505b6020821081036200023957634e487b7160e01b600052602260045260246000fd5b50919050565b601f8211156200028d57600081815260208120601f850160051c81016020861015620002685750805b601f850160051c820191505b81811015620002895782815560010162000274565b5050505b505050565b81516001600160401b03811115620002ae57620002ae6200008b565b620002c681620002bf845462000203565b846200023f565b602080601f831160018114620002fe5760008415620002e55750858301515b600019600386901b1c1916600185901b17855562000289565b600085815260208120601f198616915b828110156200032f578886015182559484019460019091019084016200030e565b50858210156200034e5787850151600019600388901b60f8161c191681555b5050505050600190811b01905550565b6116d8806200036e6000396000f3fe608060405234801561001057600080fd5b506004361061007d5760003560e01c80636c037f8a1161005b5780636c037f8a146100bd578063725fa09c146100e6578063842251d4146100ee578063894b4c2e1461010157600080fd5b8063246a908b1461008257806355f804b31461009757806364140ec0146100aa575b600080fd5b610095610090366004610d53565b610114565b005b6100956100a5366004610d9a565b610131565b6100956100b8366004610d53565b610141565b6100d06100cb366004610dd7565b610159565b6040516100dd9190610e14565b60405180910390f35b6100d06101cf565b6100956100fc366004610d53565b6102f4565b6100d061010f366004610dd7565b61030c565b600082815260046020526040902061012c8282610ecf565b505050565b600161013d8282610ecf565b5050565b600082815260056020526040902061012c8282610ecf565b60606101a961016783610416565b6101708461048f565b610179856104c1565b61018286610543565b6040516020016101959493929190610fab565b6040516020818303038152906040526105c5565b6040516020016101b99190611079565b6040516020818303038152906040529050919050565b606060003390506102cf816001600160a01b03166306fdde036040518163ffffffff1660e01b8152600401600060405180830381865afa158015610217573d6000803e3d6000fd5b505050506040513d6000823e601f3d908101601f1916820160405261023f91908101906110be565b610247610718565b61024f6107aa565b6102bc856001600160a01b0316633e7e86696040518163ffffffff1660e01b8152600401602060405180830381865afa158015610290573d6000803e3d6000fd5b505050506040513d601f19601f820116820180604052508101906102b49190611135565b60ff166107df565b6040516020016101959493929190611158565b6040516020016102df9190611079565b60405160208183030381529060405291505090565b600082815260066020526040902061012c8282610ecf565b6060336103ef61031b84610872565b610324856108f4565b61032d86610996565b604051631398fee160e31b8152600481018890526103a0906001600160a01b03871690639cc7f708906024015b602060405180830381865afa158015610377573d6000803e3d6000fd5b505050506040513d601f19601f8201168201806040525081019061039b919061122b565b6107df565b60405163131f9f3f60e11b8152600481018990526103d1906001600160a01b0388169063263f3e7e9060240161035a565b6103da896109cb565b60405160200161019596959493929190611244565b6040516020016103ff9190611079565b604051602081830303815290604052915050919050565b60005460405163ec327a2160e01b8152600481018390526060916001600160a01b03169063ec327a21906024015b600060405180830381865afa158015610461573d6000803e3d6000fd5b505050506040513d6000823e601f3d908101601f1916820160405261048991908101906110be565b92915050565b60005460405163bc74ebb960e01b8152600481018390526060916001600160a01b03169063bc74ebb990602401610444565b6000546040516309c3dd8760e01b8152600481018390526060916001600160a01b0316906309c3dd8790602401600060405180830381865afa15801561050b573d6000803e3d6000fd5b505050506040513d6000823e601f3d908101601f1916820160405261053391908101906110be565b6040516020016101b9919061136a565b6000546040516309c3dd8760e01b8152600481018390526060916001600160a01b0316906309c3dd8790602401600060405180830381865afa15801561058d573d6000803e3d6000fd5b505050506040513d6000823e601f3d908101601f191682016040526105b591908101906110be565b6040516020016101b99190611394565b606081516000036105e457505060408051602081019091526000815290565b6000604051806060016040528060408152602001611663604091399050600060038451600261061391906113de565b61061d91906113f1565b610628906004611413565b67ffffffffffffffff81111561064057610640610c8e565b6040519080825280601f01601f19166020018201604052801561066a576020820181803683370190505b509050600182016020820185865187015b808210156106d6576003820191508151603f8160121c168501518453600184019350603f81600c1c168501518453600184019350603f8160061c168501518453600184019350603f811685015184535060018301925061067b565b50506003865106600181146106f257600281146107055761070d565b603d6001830353603d600283035361070d565b603d60018303535b509195945050505050565b60606002805461072790610e47565b80601f016020809104026020016040519081016040528092919081815260200182805461075390610e47565b80156107a05780601f10610775576101008083540402835291602001916107a0565b820191906000526020600020905b81548152906001019060200180831161078357829003601f168201915b5050505050905090565b606060016107b7336109f9565b60036040516020016107cb9392919061149d565b604051602081830303815290604052905090565b606060006107ec83610a0f565b600101905060008167ffffffffffffffff81111561080c5761080c610c8e565b6040519080825280601f01601f191660200182016040528015610836576020820181803683370190505b5090508181016020015b600019016f181899199a1a9b1b9c1cb0b131b232b360811b600a86061a8153600a850494508461084057509392505050565b6060336001600160a01b03166306fdde036040518163ffffffff1660e01b8152600401600060405180830381865afa1580156108b2573d6000803e3d6000fd5b505050506040513d6000823e601f3d908101601f191682016040526108da91908101906110be565b6108e3836107df565b6040516020016101b99291906114f1565b600081815260046020526040902080546060919061091190610e47565b80601f016020809104026020016040519081016040528092919081815260200182805461093d90610e47565b801561098a5780601f1061095f5761010080835404028352916020019161098a565b820191906000526020600020905b81548152906001019060200180831161096d57829003601f168201915b50505050509050919050565b606060016109a3306109f9565b6000848152600660209081526040808320600583529281902090516101b9959493920161152e565b606060016109d8336109f9565b60008481526006602090815260409182902091516101b994939291016115a0565b60606104896001600160a01b0383166014610ae7565b60008072184f03e93ff9f4daa797ed6e38ed64bf6a1f0160401b8310610a4e5772184f03e93ff9f4daa797ed6e38ed64bf6a1f0160401b830492506040015b6d04ee2d6d415b85acef81000000008310610a7a576d04ee2d6d415b85acef8100000000830492506020015b662386f26fc100008310610a9857662386f26fc10000830492506010015b6305f5e1008310610ab0576305f5e100830492506008015b6127108310610ac457612710830492506004015b60648310610ad6576064830492506002015b600a83106104895760010192915050565b60606000610af6836002611413565b610b019060026113de565b67ffffffffffffffff811115610b1957610b19610c8e565b6040519080825280601f01601f191660200182016040528015610b43576020820181803683370190505b509050600360fc1b81600081518110610b5e57610b5e611635565b60200101906001600160f81b031916908160001a905350600f60fb1b81600181518110610b8d57610b8d611635565b60200101906001600160f81b031916908160001a9053506000610bb1846002611413565b610bbc9060016113de565b90505b6001811115610c34576f181899199a1a9b1b9c1cb0b131b232b360811b85600f1660108110610bf057610bf0611635565b1a60f81b828281518110610c0657610c06611635565b60200101906001600160f81b031916908160001a90535060049490941c93610c2d8161164b565b9050610bbf565b508315610c875760405162461bcd60e51b815260206004820181905260248201527f537472696e67733a20686578206c656e67746820696e73756666696369656e74604482015260640160405180910390fd5b9392505050565b634e487b7160e01b600052604160045260246000fd5b604051601f8201601f1916810167ffffffffffffffff81118282101715610ccd57610ccd610c8e565b604052919050565b600067ffffffffffffffff821115610cef57610cef610c8e565b50601f01601f191660200190565b600082601f830112610d0e57600080fd5b8135610d21610d1c82610cd5565b610ca4565b818152846020838601011115610d3657600080fd5b816020850160208301376000918101602001919091529392505050565b60008060408385031215610d6657600080fd5b82359150602083013567ffffffffffffffff811115610d8457600080fd5b610d9085828601610cfd565b9150509250929050565b600060208284031215610dac57600080fd5b813567ffffffffffffffff811115610dc357600080fd5b610dcf84828501610cfd565b949350505050565b600060208284031215610de957600080fd5b5035919050565b60005b83811015610e0b578181015183820152602001610df3565b50506000910152565b6020815260008251806020840152610e33816040850160208701610df0565b601f01601f19169190910160400192915050565b600181811c90821680610e5b57607f821691505b602082108103610e7b57634e487b7160e01b600052602260045260246000fd5b50919050565b601f82111561012c57600081815260208120601f850160051c81016020861015610ea85750805b601f850160051c820191505b81811015610ec757828155600101610eb4565b505050505050565b815167ffffffffffffffff811115610ee957610ee9610c8e565b610efd81610ef78454610e47565b84610e81565b602080601f831160018114610f325760008415610f1a5750858301515b600019600386901b1c1916600185901b178555610ec7565b600085815260208120601f198616915b82811015610f6157888601518255948401946001909101908401610f42565b5085821015610f7f5787850151600019600388901b60f8161c191681555b5050505050600190811b01905550565b60008151610fa1818560208601610df0565b9290920192915050565b683d913730b6b2911d1160b91b81528451600090610fd0816009850160208a01610df0565b701116113232b9b1b934b83a34b7b7111d1160791b600991840191820152855161100181601a840160208a01610df0565b6a11161134b6b0b3b2911d1160a91b601a9290910191820152845161102d816025840160208901610df0565b6e111611383937b832b93a34b2b9911d60891b60259290910191820152835161105d816034840160208801610df0565b607d60f81b603492909101918201526035019695505050505050565b7f646174613a6170706c69636174696f6e2f6a736f6e3b6261736536342c0000008152600082516110b181601d850160208701610df0565b91909101601d0192915050565b6000602082840312156110d057600080fd5b815167ffffffffffffffff8111156110e757600080fd5b8201601f810184136110f857600080fd5b8051611106610d1c82610cd5565b81815285602083850101111561111b57600080fd5b61112c826020830160208601610df0565b95945050505050565b60006020828403121561114757600080fd5b815160ff81168114610c8757600080fd5b683d913730b6b2911d1160b91b8152845160009061117d816009850160208a01610df0565b701116113232b9b1b934b83a34b7b7111d1160791b60099184019182015285516111ae81601a840160208a01610df0565b6a11161134b6b0b3b2911d1160a91b601a929091019182015284516111da816025840160208901610df0565b721116113b30b63ab2a232b1b4b6b0b639911d1160691b60259290910191820152835161120e816038840160208801610df0565b61227d60f01b60389290910191820152603a019695505050505050565b60006020828403121561123d57600080fd5b5051919050565b683d913730b6b2911d1160b91b81528651600090611269816009850160208c01610df0565b701116113232b9b1b934b83a34b7b7111d1160791b600991840191820152875161129a81601a840160208c01610df0565b6a11161134b6b0b3b2911d1160a91b601a929091019182015286516112c6816025840160208b01610df0565b6c1116113130b630b731b2911d1160991b6025929091019182015285516112f4816032840160208a01610df0565b6911161139b637ba111d1160b11b60329290910191820152845161131f81603c840160208901610df0565b61135c61134f611349603c848601016e111611383937b832b93a34b2b9911d60891b8152600f0190565b87610f8f565b607d60f81b815260010190565b9a9950505050505050505050565b6000825161137c818460208701610df0565b652f696d61676560d01b920191825250600601919050565b600082516113a6818460208701610df0565b6f17b83937b832b93a34b2b9973539b7b760811b920191825250601001919050565b634e487b7160e01b600052601160045260246000fd5b80820180821115610489576104896113c8565b60008261140e57634e487b7160e01b600052601260045260246000fd5b500490565b8082028115828204841417610489576104896113c8565b6000815461143781610e47565b6001828116801561144f576001811461146457611493565b60ff1984168752821515830287019450611493565b8560005260208060002060005b8581101561148a5781548a820152908401908201611471565b50505082870194505b5050505092915050565b60006114a9828661142a565b68636f6e74726163742f60b81b815284516114cb816009840160208901610df0565b602f60f81b600992909101918201526114e7600a82018561142a565b9695505050505050565b60008351611503818460208801610df0565b61202360f01b9083019081528351611522816002840160208801610df0565b01600201949350505050565b600061153a828761142a565b692f636f6e74726163742f60b01b8152855161155d81600a840160208a01610df0565b662f746f6b656e2f60c81b600a929091019182015261157f601182018661142a565b9050602f60f81b8152611595600182018561142a565b979650505050505050565b6e7b70726f706572746965735f75726960881b815260006115c4600f83018661142a565b68636f6e74726163742f60b81b815284516115e6816009840160208901610df0565b662f746f6b656e2f60c81b60099290910191820152611608601082018561142a565b6f17b83937b832b93a34b2b9973539b7b760811b8152607d60f81b60108201526011019695505050505050565b634e487b7160e01b600052603260045260246000fd5b60008161165a5761165a6113c8565b50600019019056fe4142434445464748494a4b4c4d4e4f505152535455565758595a6162636465666768696a6b6c6d6e6f707172737475767778797a303132333435363738392b2fa2646970667358221220f622a95ca579ad3e624f36a75282d2e2e7eb7abc812f4a74518e120350c886ff64736f6c63430008110033",
  "linkReferences": {},
  "deployedLinkReferences": {}
}