{
  "_format": "hh-sol-artifact-1",
  "contractName": "Service",
  "sourceName": "contracts/Service.sol",
  "abi": [
    {
      "inputs": [
        {
          "internalType": "address",
          "name": "adminAddress_",
          "type": "address"
        },
        {
          "internalType": "address",
          "name": "mktAdmin_",
          "type": "address"
        },
        {
          "internalType": "address",
          "name": "slotRegistry_",
          "type": "address"
        },
        {
          "internalType": "uint256",
          "name": "defaultSlot_",
          "type": "uint256"
        },
        {
          "internalType": "string",
          "name": "name_",
          "type": "string"
        },
        {
          "internalType": "string",
          "name": "symbol_",
          "type": "string"
        },
        {
          "internalType": "string",
          "name": "baseuri_",
          "type": "string"
        },
        {
          "internalType": "string",
          "name": "contractDescription_",
          "type": "string"
        },
        {
          "internalType": "string",
          "name": "contractImage_",
          "type": "string"
        },
        {
          "internalType": "string",
          "name": "contractType_",
          "type": "string"
        },
        {
          "internalType": "uint8",
          "name": "decimals_",
          "type": "uint8"
        }
      ],
      "stateMutability": "nonpayable",
      "type": "constructor"
    },
    {
      "anonymous": false,
      "inputs": [
        {
          "indexed": true,
          "internalType": "address",
          "name": "_owner",
          "type": "address"
        },
        {
          "indexed": true,
          "internalType": "address",
          "name": "_approved",
          "type": "address"
        },
        {
          "indexed": true,
          "internalType": "uint256",
          "name": "_tokenId",
          "type": "uint256"
        }
      ],
      "name": "Approval",
      "type": "event"
    },
    {
      "anonymous": false,
      "inputs": [
        {
          "indexed": true,
          "internalType": "address",
          "name": "_owner",
          "type": "address"
        },
        {
          "indexed": true,
          "internalType": "address",
          "name": "_operator",
          "type": "address"
        },
        {
          "indexed": false,
          "internalType": "bool",
          "name": "_approved",
          "type": "bool"
        }
      ],
      "name": "ApprovalForAll",
      "type": "event"
    },
    {
      "anonymous": false,
      "inputs": [
        {
          "indexed": true,
          "internalType": "uint256",
          "name": "_tokenId",
          "type": "uint256"
        },
        {
          "indexed": true,
          "internalType": "address",
          "name": "_operator",
          "type": "address"
        },
        {
          "indexed": false,
          "internalType": "uint256",
          "name": "_value",
          "type": "uint256"
        }
      ],
      "name": "ApprovalValue",
      "type": "event"
    },
    {
      "anonymous": false,
      "inputs": [
        {
          "indexed": false,
          "internalType": "address",
          "name": "contractAddress",
          "type": "address"
        }
      ],
      "name": "MetadataDescriptor",
      "type": "event"
    },
    {
      "anonymous": false,
      "inputs": [
        {
          "indexed": false,
          "internalType": "uint256",
          "name": "tokenId",
          "type": "uint256"
        },
        {
          "indexed": false,
          "internalType": "uint256",
          "name": "slot",
          "type": "uint256"
        },
        {
          "indexed": false,
          "internalType": "uint256",
          "name": "value",
          "type": "uint256"
        }
      ],
      "name": "MintServiceToken",
      "type": "event"
    },
    {
      "anonymous": false,
      "inputs": [
        {
          "indexed": false,
          "internalType": "uint256",
          "name": "newTokenId",
          "type": "uint256"
        },
        {
          "indexed": false,
          "internalType": "uint256",
          "name": "slot",
          "type": "uint256"
        },
        {
          "indexed": false,
          "internalType": "uint256",
          "name": "value",
          "type": "uint256"
        }
      ],
      "name": "MintServiceTokenToAddress",
      "type": "event"
    },
    {
      "anonymous": false,
      "inputs": [
        {
          "indexed": true,
          "internalType": "bytes32",
          "name": "role",
          "type": "bytes32"
        },
        {
          "indexed": true,
          "internalType": "bytes32",
          "name": "previousAdminRole",
          "type": "bytes32"
        },
        {
          "indexed": true,
          "internalType": "bytes32",
          "name": "newAdminRole",
          "type": "bytes32"
        }
      ],
      "name": "RoleAdminChanged",
      "type": "event"
    },
    {
      "anonymous": false,
      "inputs": [
        {
          "indexed": true,
          "internalType": "bytes32",
          "name": "role",
          "type": "bytes32"
        },
        {
          "indexed": true,
          "internalType": "address",
          "name": "account",
          "type": "address"
        },
        {
          "indexed": true,
          "internalType": "address",
          "name": "sender",
          "type": "address"
        }
      ],
      "name": "RoleGranted",
      "type": "event"
    },
    {
      "anonymous": false,
      "inputs": [
        {
          "indexed": true,
          "internalType": "bytes32",
          "name": "role",
          "type": "bytes32"
        },
        {
          "indexed": true,
          "internalType": "address",
          "name": "account",
          "type": "address"
        },
        {
          "indexed": true,
          "internalType": "address",
          "name": "sender",
          "type": "address"
        }
      ],
      "name": "RoleRevoked",
      "type": "event"
    },
    {
      "anonymous": false,
      "inputs": [
        {
          "indexed": true,
          "internalType": "address",
          "name": "metadataDescriptor",
          "type": "address"
        }
      ],
      "name": "SetMetadataDescriptor",
      "type": "event"
    },
    {
      "anonymous": false,
      "inputs": [
        {
          "indexed": true,
          "internalType": "uint256",
          "name": "_tokenId",
          "type": "uint256"
        },
        {
          "indexed": true,
          "internalType": "uint256",
          "name": "_oldSlot",
          "type": "uint256"
        },
        {
          "indexed": true,
          "internalType": "uint256",
          "name": "_newSlot",
          "type": "uint256"
        }
      ],
      "name": "SlotChanged",
      "type": "event"
    },
    {
      "anonymous": false,
      "inputs": [
        {
          "indexed": true,
          "internalType": "address",
          "name": "_from",
          "type": "address"
        },
        {
          "indexed": true,
          "internalType": "address",
          "name": "_to",
          "type": "address"
        },
        {
          "indexed": true,
          "internalType": "uint256",
          "name": "_tokenId",
          "type": "uint256"
        }
      ],
      "name": "Transfer",
      "type": "event"
    },
    {
      "anonymous": false,
      "inputs": [
        {
          "indexed": true,
          "internalType": "uint256",
          "name": "_fromTokenId",
          "type": "uint256"
        },
        {
          "indexed": true,
          "internalType": "uint256",
          "name": "_toTokenId",
          "type": "uint256"
        },
        {
          "indexed": false,
          "internalType": "uint256",
          "name": "_value",
          "type": "uint256"
        }
      ],
      "name": "TransferValue",
      "type": "event"
    },
    {
      "anonymous": false,
      "inputs": [
        {
          "indexed": false,
          "internalType": "uint256",
          "name": "fromTokenId",
          "type": "uint256"
        },
        {
          "indexed": false,
          "internalType": "uint256",
          "name": "toTokenId",
          "type": "uint256"
        },
        {
          "indexed": false,
          "internalType": "uint256",
          "name": "value",
          "type": "uint256"
        }
      ],
      "name": "ValueTransfer",
      "type": "event"
    },
    {
      "inputs": [],
      "name": "DEFAULT_ADMIN_ROLE",
      "outputs": [
        {
          "internalType": "bytes32",
          "name": "",
          "type": "bytes32"
        }
      ],
      "stateMutability": "view",
      "type": "function"
    },
    {
      "inputs": [],
      "name": "MKT_ARBITRATOR_ROLE",
      "outputs": [
        {
          "internalType": "bytes32",
          "name": "",
          "type": "bytes32"
        }
      ],
      "stateMutability": "view",
      "type": "function"
    },
    {
      "inputs": [],
      "name": "SERVICE_ADMIN_ROLE",
      "outputs": [
        {
          "internalType": "bytes32",
          "name": "",
          "type": "bytes32"
        }
      ],
      "stateMutability": "view",
      "type": "function"
    },
    {
      "inputs": [
        {
          "internalType": "string",
          "name": "uri_",
          "type": "string"
        }
      ],
      "name": "_setBaseURI",
      "outputs": [],
      "stateMutability": "nonpayable",
      "type": "function"
    },
    {
      "inputs": [
        {
          "internalType": "uint256",
          "name": "tokenId_",
          "type": "uint256"
        },
        {
          "internalType": "address",
          "name": "operator_",
          "type": "address"
        }
      ],
      "name": "allowance",
      "outputs": [
        {
          "internalType": "uint256",
          "name": "",
          "type": "uint256"
        }
      ],
      "stateMutability": "view",
      "type": "function"
    },
    {
      "inputs": [
        {
          "internalType": "address",
          "name": "to_",
          "type": "address"
        },
        {
          "internalType": "uint256",
          "name": "tokenId_",
          "type": "uint256"
        }
      ],
      "name": "approve",
      "outputs": [],
      "stateMutability": "payable",
      "type": "function"
    },
    {
      "inputs": [
        {
          "internalType": "uint256",
          "name": "tokenId_",
          "type": "uint256"
        },
        {
          "internalType": "address",
          "name": "to_",
          "type": "address"
        },
        {
          "internalType": "uint256",
          "name": "value_",
          "type": "uint256"
        }
      ],
      "name": "approve",
      "outputs": [],
      "stateMutability": "payable",
      "type": "function"
    },
    {
      "inputs": [
        {
          "internalType": "address",
          "name": "owner_",
          "type": "address"
        }
      ],
      "name": "balanceOf",
      "outputs": [
        {
          "internalType": "uint256",
          "name": "balance",
          "type": "uint256"
        }
      ],
      "stateMutability": "view",
      "type": "function"
    },
    {
      "inputs": [
        {
          "internalType": "uint256",
          "name": "tokenId_",
          "type": "uint256"
        }
      ],
      "name": "balanceOf",
      "outputs": [
        {
          "internalType": "uint256",
          "name": "",
          "type": "uint256"
        }
      ],
      "stateMutability": "view",
      "type": "function"
    },
    {
      "inputs": [],
      "name": "contractAdmin",
      "outputs": [
        {
          "internalType": "address",
          "name": "",
          "type": "address"
        }
      ],
      "stateMutability": "view",
      "type": "function"
    },
    {
      "inputs": [],
      "name": "contractURI",
      "outputs": [
        {
          "internalType": "string",
          "name": "",
          "type": "string"
        }
      ],
      "stateMutability": "view",
      "type": "function"
    },
    {
      "inputs": [],
      "name": "creditType",
      "outputs": [
        {
          "internalType": "string",
          "name": "",
          "type": "string"
        }
      ],
      "stateMutability": "view",
      "type": "function"
    },
    {
      "inputs": [
        {
          "internalType": "uint256",
          "name": "tokenId_",
          "type": "uint256"
        }
      ],
      "name": "getApproved",
      "outputs": [
        {
          "internalType": "address",
          "name": "",
          "type": "address"
        }
      ],
      "stateMutability": "view",
      "type": "function"
    },
    {
      "inputs": [
        {
          "internalType": "bytes32",
          "name": "role",
          "type": "bytes32"
        }
      ],
      "name": "getRoleAdmin",
      "outputs": [
        {
          "internalType": "bytes32",
          "name": "",
          "type": "bytes32"
        }
      ],
      "stateMutability": "view",
      "type": "function"
    },
    {
      "inputs": [
        {
          "internalType": "uint256",
          "name": "tokenId",
          "type": "uint256"
        }
      ],
      "name": "getTokenDescription",
      "outputs": [
        {
          "internalType": "string",
          "name": "",
          "type": "string"
        }
      ],
      "stateMutability": "view",
      "type": "function"
    },
    {
      "inputs": [
        {
          "internalType": "uint256",
          "name": "tokenId",
          "type": "uint256"
        }
      ],
      "name": "getTokenImage",
      "outputs": [
        {
          "internalType": "string",
          "name": "",
          "type": "string"
        }
      ],
      "stateMutability": "view",
      "type": "function"
    },
    {
      "inputs": [
        {
          "internalType": "uint256",
          "name": "tokenId",
          "type": "uint256"
        }
      ],
      "name": "getTokenUUID",
      "outputs": [
        {
          "internalType": "string",
          "name": "",
          "type": "string"
        }
      ],
      "stateMutability": "view",
      "type": "function"
    },
    {
      "inputs": [
        {
          "internalType": "bytes32",
          "name": "role",
          "type": "bytes32"
        },
        {
          "internalType": "address",
          "name": "account",
          "type": "address"
        }
      ],
      "name": "grantRole",
      "outputs": [],
      "stateMutability": "nonpayable",
      "type": "function"
    },
    {
      "inputs": [
        {
          "internalType": "bytes32",
          "name": "role",
          "type": "bytes32"
        },
        {
          "internalType": "address",
          "name": "account",
          "type": "address"
        }
      ],
      "name": "hasRole",
      "outputs": [
        {
          "internalType": "bool",
          "name": "",
          "type": "bool"
        }
      ],
      "stateMutability": "view",
      "type": "function"
    },
    {
      "inputs": [
        {
          "internalType": "address",
          "name": "owner_",
          "type": "address"
        },
        {
          "internalType": "address",
          "name": "operator_",
          "type": "address"
        }
      ],
      "name": "isApprovedForAll",
      "outputs": [
        {
          "internalType": "bool",
          "name": "",
          "type": "bool"
        }
      ],
      "stateMutability": "view",
      "type": "function"
    },
    {
      "inputs": [],
      "name": "metadataDescriptor",
      "outputs": [
        {
          "internalType": "contract IERC3525MetadataDescriptor",
          "name": "",
          "type": "address"
        }
      ],
      "stateMutability": "view",
      "type": "function"
    },
    {
      "inputs": [
        {
          "internalType": "address",
          "name": "owner_",
          "type": "address"
        },
        {
          "internalType": "uint256",
          "name": "slot_",
          "type": "uint256"
        },
        {
          "internalType": "uint256",
          "name": "value_",
          "type": "uint256"
        },
        {
          "internalType": "string",
          "name": "uuid_",
          "type": "string"
        },
        {
          "internalType": "string",
          "name": "token_description_",
          "type": "string"
        },
        {
          "internalType": "string",
          "name": "token_image_",
          "type": "string"
        }
      ],
      "name": "mint",
      "outputs": [
        {
          "internalType": "uint256",
          "name": "",
          "type": "uint256"
        }
      ],
      "stateMutability": "nonpayable",
      "type": "function"
    },
    {
      "inputs": [],
      "name": "name",
      "outputs": [
        {
          "internalType": "string",
          "name": "",
          "type": "string"
        }
      ],
      "stateMutability": "view",
      "type": "function"
    },
    {
      "inputs": [
        {
          "internalType": "address",
          "name": "owner_",
          "type": "address"
        },
        {
          "internalType": "uint256",
          "name": "slot_",
          "type": "uint256"
        },
        {
          "internalType": "uint256",
          "name": "value_",
          "type": "uint256"
        },
        {
          "internalType": "uint256",
          "name": "discountBasisPts_",
          "type": "uint256"
        },
        {
          "internalType": "string",
          "name": "uuid_",
          "type": "string"
        },
        {
          "internalType": "string",
          "name": "tokenDescription_",
          "type": "string"
        },
        {
          "internalType": "string",
          "name": "tokenImage_",
          "type": "string"
        }
      ],
      "name": "networkMintWithDiscount",
      "outputs": [
        {
          "internalType": "uint256",
          "name": "",
          "type": "uint256"
        }
      ],
      "stateMutability": "nonpayable",
      "type": "function"
    },
    {
      "inputs": [
        {
          "internalType": "address",
          "name": "owner_",
          "type": "address"
        },
        {
          "internalType": "uint256",
          "name": "slot_",
          "type": "uint256"
        },
        {
          "internalType": "uint256",
          "name": "value_",
          "type": "uint256"
        },
        {
          "internalType": "uint256",
          "name": "tVRate_",
          "type": "uint256"
        },
        {
          "internalType": "string",
          "name": "uuid_",
          "type": "string"
        },
        {
          "internalType": "string",
          "name": "token_description_",
          "type": "string"
        },
        {
          "internalType": "string",
          "name": "token_image_",
          "type": "string"
        }
      ],
      "name": "networkMintWithTVRate",
      "outputs": [
        {
          "internalType": "uint256",
          "name": "",
          "type": "uint256"
        }
      ],
      "stateMutability": "nonpayable",
      "type": "function"
    },
    {
      "inputs": [
        {
          "internalType": "uint256",
          "name": "tokenId_",
          "type": "uint256"
        }
      ],
      "name": "ownerOf",
      "outputs": [
        {
          "internalType": "address",
          "name": "owner_",
          "type": "address"
        }
      ],
      "stateMutability": "view",
      "type": "function"
    },
    {
      "inputs": [
        {
          "internalType": "uint256",
          "name": "slotId_",
          "type": "uint256"
        }
      ],
      "name": "registerOnSlot",
      "outputs": [],
      "stateMutability": "nonpayable",
      "type": "function"
    },
    {
      "inputs": [
        {
          "internalType": "bytes32",
          "name": "role",
          "type": "bytes32"
        },
        {
          "internalType": "address",
          "name": "account",
          "type": "address"
        }
      ],
      "name": "renounceRole",
      "outputs": [],
      "stateMutability": "nonpayable",
      "type": "function"
    },
    {
      "inputs": [
        {
          "internalType": "bytes32",
          "name": "role",
          "type": "bytes32"
        },
        {
          "internalType": "address",
          "name": "account",
          "type": "address"
        }
      ],
      "name": "revokeRole",
      "outputs": [],
      "stateMutability": "nonpayable",
      "type": "function"
    },
    {
      "inputs": [
        {
          "internalType": "address",
          "name": "from_",
          "type": "address"
        },
        {
          "internalType": "address",
          "name": "to_",
          "type": "address"
        },
        {
          "internalType": "uint256",
          "name": "tokenId_",
          "type": "uint256"
        }
      ],
      "name": "safeTransferFrom",
      "outputs": [],
      "stateMutability": "payable",
      "type": "function"
    },
    {
      "inputs": [
        {
          "internalType": "address",
          "name": "from_",
          "type": "address"
        },
        {
          "internalType": "address",
          "name": "to_",
          "type": "address"
        },
        {
          "internalType": "uint256",
          "name": "tokenId_",
          "type": "uint256"
        },
        {
          "internalType": "bytes",
          "name": "data_",
          "type": "bytes"
        }
      ],
      "name": "safeTransferFrom",
      "outputs": [],
      "stateMutability": "payable",
      "type": "function"
    },
    {
      "inputs": [
        {
          "internalType": "address",
          "name": "operator_",
          "type": "address"
        },
        {
          "internalType": "bool",
          "name": "approved_",
          "type": "bool"
        }
      ],
      "name": "setApprovalForAll",
      "outputs": [],
      "stateMutability": "nonpayable",
      "type": "function"
    },
    {
      "inputs": [
        {
          "internalType": "uint256",
          "name": "tokenId_",
          "type": "uint256"
        }
      ],
      "name": "slotOf",
      "outputs": [
        {
          "internalType": "uint256",
          "name": "",
          "type": "uint256"
        }
      ],
      "stateMutability": "view",
      "type": "function"
    },
    {
      "inputs": [
        {
          "internalType": "uint256",
          "name": "slot_",
          "type": "uint256"
        }
      ],
      "name": "slotURI",
      "outputs": [
        {
          "internalType": "string",
          "name": "",
          "type": "string"
        }
      ],
      "stateMutability": "view",
      "type": "function"
    },
    {
      "inputs": [
        {
          "internalType": "bytes4",
          "name": "interfaceId",
          "type": "bytes4"
        }
      ],
      "name": "supportsInterface",
      "outputs": [
        {
          "internalType": "bool",
          "name": "",
          "type": "bool"
        }
      ],
      "stateMutability": "view",
      "type": "function"
    },
    {
      "inputs": [],
      "name": "symbol",
      "outputs": [
        {
          "internalType": "string",
          "name": "",
          "type": "string"
        }
      ],
      "stateMutability": "view",
      "type": "function"
    },
    {
      "inputs": [
        {
          "internalType": "uint256",
          "name": "index_",
          "type": "uint256"
        }
      ],
      "name": "tokenByIndex",
      "outputs": [
        {
          "internalType": "uint256",
          "name": "",
          "type": "uint256"
        }
      ],
      "stateMutability": "view",
      "type": "function"
    },
    {
      "inputs": [
        {
          "internalType": "address",
          "name": "owner_",
          "type": "address"
        },
        {
          "internalType": "uint256",
          "name": "index_",
          "type": "uint256"
        }
      ],
      "name": "tokenOfOwnerByIndex",
      "outputs": [
        {
          "internalType": "uint256",
          "name": "",
          "type": "uint256"
        }
      ],
      "stateMutability": "view",
      "type": "function"
    },
    {
      "inputs": [
        {
          "internalType": "uint256",
          "name": "tokenId_",
          "type": "uint256"
        }
      ],
      "name": "tokenURI",
      "outputs": [
        {
          "internalType": "string",
          "name": "",
          "type": "string"
        }
      ],
      "stateMutability": "view",
      "type": "function"
    },
    {
      "inputs": [],
      "name": "totalSupply",
      "outputs": [
        {
          "internalType": "uint256",
          "name": "",
          "type": "uint256"
        }
      ],
      "stateMutability": "view",
      "type": "function"
    },
    {
      "inputs": [
        {
          "internalType": "uint256",
          "name": "fromTokenId_",
          "type": "uint256"
        },
        {
          "internalType": "address",
          "name": "to_",
          "type": "address"
        },
        {
          "internalType": "uint256",
          "name": "value_",
          "type": "uint256"
        }
      ],
      "name": "transferFrom",
      "outputs": [
        {
          "internalType": "uint256",
          "name": "",
          "type": "uint256"
        }
      ],
      "stateMutability": "payable",
      "type": "function"
    },
    {
      "inputs": [
        {
          "internalType": "address",
          "name": "from_",
          "type": "address"
        },
        {
          "internalType": "address",
          "name": "to_",
          "type": "address"
        },
        {
          "internalType": "uint256",
          "name": "tokenId_",
          "type": "uint256"
        }
      ],
      "name": "transferFrom",
      "outputs": [],
      "stateMutability": "payable",
      "type": "function"
    },
    {
      "inputs": [
        {
          "internalType": "uint256",
          "name": "fromTokenId_",
          "type": "uint256"
        },
        {
          "internalType": "uint256",
          "name": "toTokenId_",
          "type": "uint256"
        },
        {
          "internalType": "uint256",
          "name": "value_",
          "type": "uint256"
        }
      ],
      "name": "transferFrom",
      "outputs": [],
      "stateMutability": "payable",
      "type": "function"
    },
    {
      "inputs": [],
      "name": "valueDecimals",
      "outputs": [
        {
          "internalType": "uint8",
          "name": "",
          "type": "uint8"
        }
      ],
      "stateMutability": "view",
      "type": "function"
    }
  ],
  "bytecode": "0x60808060405234620008d157600062006c14803803809162000022828662000908565b8439820161016083820312620008cd576200003d836200092c565b926200004c602082016200092c565b916200005b604083016200092c565b606083015160808401519092906001600160401b038111620008c957816200008591860162000966565b60a08501519093906001600160401b038111620005af5782620000aa91870162000966565b60c08601519095906001600160401b038111620008c55783620000cf91830162000966565b60e08201519095906001600160401b038111620008c15784620000f491840162000966565b6101008301519097906001600160401b038111620008b957856200011a91850162000966565b6101208401519095906001600160401b038111620008bd57610140916200014391860162000966565b9301519160ff83168303620008b9578051906001600160401b038211620008a5578b54600181811c911680156200089a575b602082101462000886579081601f84931162000832575b50602090601f8311600114620007c4578d92620007b8575b50508160011b916000199060031b1c1916178a555b8051906001600160401b038211620007a457600154600181811c9116801562000799575b60208210146200078557601f811162000731575b50602090601f8311600114620006b45760ff9392918c9183620006a8575b50508160011b916000199060031b1c1916176001555b1660ff19600254161760025581600b55600c549060018060a01b038a1660018060a01b0319600a541617600a55604051906020820181519262000283602082818601966200027581878a62000941565b810103808452018262000908565b51902060405160208101906374696d6560e01b825260048152620002a781620008d6565b51902003620005c757505087935b6004851015620005b3576001600160a81b03199091166001600160a01b0390911690811760a094851b60ff60a01b1617600c81905590931c60ff16833b15620005af57604051916394b39b0960e01b835260018060a01b038a166004840152602483015260048110156200059b576044820152868160648183875af1801562000590576200055f575b50604051936124ae80860194906001600160401b038611878710176200054b57926200039760609362000388620003a6948a999897620047268b39608089526080890190620009c1565b908782036020890152620009c1565b908582036040870152620009c1565b920152039083f080156200054057600880546001600160a01b0319166001600160a01b039283161790557f1cd6d520d98babae1045eb69c31ecab800996aa332094cb55c0ac10362e9b0c980845260096020908152604080862094909316600081815294909152919092205460ff161562000500575b50507f9a95e87c5af084bf5db8491c3a6515da9dd6da39b24b0eb0af08d7b9cd808d9180825260096020526040822060018060a01b03841660005260205260ff6040600020541615620004af575b7f9ac4f8025631594629895b778dc5ee88d01673a254a2291f6b6b174ad25230ca602060018060a01b0360085416604051908152a1604051613d3d9081620009e98239f35b8082526009602090815260408084206001600160a01b0395909516600081815295909252909320805460ff1916600117905533929160008051602062006bd48339815191529080a43880806200046a565b818352600960205260408320816000526020526040600020600160ff19825416179055339160008051602062006bd48339815191528480a438806200041c565b6040513d84823e3d90fd5b634e487b7160e01b89526041600452602489fd5b9095906001600160401b0381116200057c5760405294386200033e565b634e487b7160e01b82526041600452602482fd5b6040513d89823e3d90fd5b634e487b7160e01b88526021600452602488fd5b8780fd5b634e487b7160e01b89526021600452602489fd5b6040516020810190620005e560208285516200027581878a62000941565b5190206040516020810190630c6c2e6d60e31b8252600481526200060981620008d6565b519020036200061e57505060015b93620002b5565b6200063d60206040518093620002758383019687925192839162000941565b51902060408051646974656d7360d81b6020820152600581529081018082116001600160401b039091111762000694576040810160405260208151910120146000146200068c57600262000617565b600362000617565b634e487b7160e01b8a52604160045260248afd5b0151905038806200020f565b60018c5260008051602062006bf483398151915291908c5b601f198516811062000718575091839160019360ff9695601f19811610620006fe575b505050811b0160015562000225565b015160001960f88460031b161c19169055388080620006ef565b91926020600181928685015181550194019201620006cc565b60018c5260008051602062006bf4833981519152601f840160051c8101602085106200077d575b8d601f840160051c830182106200077257505050620001f1565b815560010162000758565b508062000758565b634e487b7160e01b8c52602260045260248cfd5b90607f1690620001dd565b634e487b7160e01b8b52604160045260248bfd5b015190503880620001a4565b92508c805260208d20908d935b601f198416851062000816576001945083601f19811610620007fc575b505050811b018a55620001b9565b015160001960f88460031b161c19169055388080620007ee565b81810151835560209485019460019093019290910190620007d1565b9091508c805260208d20601f840160051c8101602085106200087e575b84939291908f5b601f840160051c830182106200086f575050506200018c565b81558594506001018f62000856565b50806200084f565b634e487b7160e01b8d52602260045260248dfd5b90607f169062000175565b634e487b7160e01b8c52604160045260248cfd5b8a80fd5b8b80fd5b8980fd5b8880fd5b8680fd5b5080fd5b600080fd5b604081019081106001600160401b03821117620008f257604052565b634e487b7160e01b600052604160045260246000fd5b601f909101601f19168101906001600160401b03821190821017620008f257604052565b51906001600160a01b0382168203620008d157565b60005b838110620009555750506000910152565b818101518382015260200162000944565b81601f82011215620008d15780516001600160401b038111620008f257604051926200099d601f8301601f19166020018562000908565b81845260208284010111620008d157620009be916020808501910162000941565b90565b90602091620009dc8151809281855285808601910162000941565b601f01601f191601019056fe608080604052600436101561001357600080fd5b600090813560e01c90816301ffc9a714611f4b5750806306fdde0314611e8b578063081812fc14611e6c578063095ea7b314611d3657806309c3dd8714611a655780630f485c0214611a515780631375d843146119eb57806318160ddd146119cd57806323b872dd146119a8578063248a9ca31461197b578063263f3e7e1461195c5780632f2ff15d146118ad5780632f745c5914611804578063310ed7f01461163157806331b5b907146115a757806336568abe146115145780633e7e8669146114f357806341815ee4146113f857806342842e0e146113d5578063476de4a814610e855780634f6ccce714610e005780636352211e14610dcf57806370a0823114610dab57806371f0442e14610d455780637795524514610d1c5780638005f5db14610cb9578063840f711314610c905780638cb0a51114610b4e57806391d1485414610b0257806395d89b41146109f65780639cc7f708146109d7578063a217fddf146109bb578063a22cb465146108e6578063a7c9f2d6146108ab578063b3154c0814610845578063b88d4fde146107ea578063bd8c650714610585578063be950a621461043b578063c87b56dd14610399578063d09445c21461035e578063d547741f1461031d578063e345e0bc146102ee578063e8a3d4851461025e5763e985e9c51461020557600080fd5b3461025b57604036600319011261025b5761021e611fe8565b6002604061022a611ffe565b9360018060a01b038094168152600760205220019116600052602052602060ff604060002054166040519015158152f35b80fd5b503461025b578060031936011261025b576008546040516331264fc160e01b8152908290829060049082906001600160a01b03165afa9081156102e357826102bc93926102c0575b5050604051918291602083526020830190611fc3565b0390f35b6102dc92503d8091833e6102d481836120d7565b81019061263a565b38806102a6565b6040513d84823e3d90fd5b503461025b57604036600319011261025b57602061031561030d611ffe565b600435613c7c565b604051908152f35b503461025b57604036600319011261025b5761035b60043561033d611ffe565b90808452600960205261035660016040862001546121e3565b612518565b80f35b503461025b578060031936011261025b5760206040517f9a95e87c5af084bf5db8491c3a6515da9dd6da39b24b0eb0af08d7b9cd808d918152f35b503461025b57602036600319011261025b576004356103b781613a13565b8015610427575b6103c79061284f565b6008546001600160a01b031690829060446103e182613afa565b9160405194859384926304e6f55760e51b8452600484015260248301525afa9081156102e357826102bc93926102c0575050604051918291602083526020830190611fc3565b506103c761043482613a41565b90506103be565b503461025b57602036600319011261025b577f9a95e87c5af084bf5db8491c3a6515da9dd6da39b24b0eb0af08d7b9cd808d9181526009602052604081203360005260205260ff604060002054161561051a57600c54600a546001600160a01b03808316939291169060a01c60ff16833b1561051657604051916394b39b0960e01b83526004830152600435602483015260048110156105025781606481858097819560448401525af180156102e3576104f25750f35b6104fb90612073565b61025b5780f35b634e487b7160e01b83526021600452602483fd5b8280fd5b60405162461bcd60e51b815260206004820152603760248201527f53656e646572206e6f7420617574686f72697a656420746f207265676973746560448201527f7220636f6e747261637420746f207468697320736c6f740000000000000000006064820152608490fd5b503461025b5761059436612168565b600254600c5495979691956001600160a01b039593949392919086169060ff16604d81116107d657600a0a80156107c057604051632d2a246560e01b81526001600160a01b0390991660048a0152602489019290925260448801989098529004606486015293948694906020908790818881608481015b03925af1958615610776578596610785575b508260085416803b156107815761065c8692918392604051948580948193632108947560e21b83528d6004840152604060248401526044830190611fc3565b03925af190811561077657859161075e575b50508160085416803b1561075a576106ae859291839260405194858094819363246a908b60e01b83528c6004840152604060248401526044830190611fc3565b03925af190811561074f57849161073b575b50506008541690813b156105165782916106fe91604051948580948193630190503b60e61b8352896004840152604060248401526044830190611fc3565b03925af1801561073057610718575b602082604051908152f35b6107228391612073565b61072c578161070d565b5080fd5b6040513d85823e3d90fd5b61074490612073565b6105165782386106c0565b6040513d86823e3d90fd5b8480fd5b61076790612073565b61077257833861066e565b8380fd5b6040513d87823e3d90fd5b8580fd5b945094506020843d82116107b8575b816107a1602093836120d7565b810103126107b357859351943861061d565b600080fd5b3d9150610794565b634e487b7160e01b600052601260045260246000fd5b634e487b7160e01b8b52601160045260248bfd5b50608036600319011261025b576107ff611fe8565b610807611ffe565b606435916001600160401b03831161077257366023840112156107725761083b61035b933690602481600401359101612113565b9160443591612778565b503461025b57602036600319011261025b57600854604051631662a98160e31b81526004803590820152908290829060249082906001600160a01b03165afa9081156102e357826102bc93926102c0575050604051918291602083526020830190611fc3565b503461025b578060031936011261025b5760206040517f1cd6d520d98babae1045eb69c31ecab800996aa332094cb55c0ac10362e9b0c98152f35b503461025b57604036600319011261025b57610900611fe8565b60243590811515809203610516576001600160a01b0316903382146109765733835260076020526002604084200182600052602052604060002060ff1981541660ff83161790556040519081527f17307eab39ab6107e8899845ad3d59bd9653f200f220920489ca2b5937696c3160203392a380f35b60405162461bcd60e51b815260206004820152601a60248201527f455243333532353a20617070726f766520746f2063616c6c65720000000000006044820152606490fd5b503461025b578060031936011261025b57602090604051908152f35b503461025b57602036600319011261025b576020610315600435613afa565b503461025b578060031936011261025b57604051908060019182549283811c92818516948515610af8575b6020958686108114610ae457858852879493929187908215610ac2575050600114610a69575b5050610a55925003836120d7565b6102bc604051928284938452830190611fc3565b908592508082527fb10e2d527612073b26eecdfd717e6a320cf44b4afac2b0732d9fcbe2b7fa0cf65b858310610aaa575050610a5593508201013880610a47565b80548389018501528794508693909201918101610a92565b9250935050610a5594915060ff191682840152151560051b8201013880610a47565b634e487b7160e01b83526022600452602483fd5b93607f1693610a21565b503461025b57604036600319011261025b576040610b1e611ffe565b9160043581526009602052209060018060a01b0316600052602052602060ff604060002054166040519015158152f35b50610b5836612014565b90610b6283613ab7565b83610b6c84613a13565b80610c7d575b15610c0f5750610b986001600160a01b0380610b8d8661289b565b1690831614156127f8565b610ba2833361291e565b15610bb05761035b92613447565b60405162461bcd60e51b815260206004820152603160248201527f455243333532353a20617070726f76652063616c6c6572206973206e6f74206f6044820152701ddb995c881b9bdc88185c1c1c9bdd9959607a1b6064820152608490fd5b600c54938152600d60205260408120549093919290916001600160a01b0316803b1561075a57604051638cb0a51160e01b815260048101939093526001600160a01b0393909316602483015260448201529082908290606490829084905af180156102e3576104f257505080f35b50610c8784612613565b600b5414610b72565b503461025b578060031936011261025b576008546040516001600160a01b039091168152602090f35b503461025b57602081610ccb36612168565b600c54604051630151086360e31b81526001600160a01b039889166004820152602481019790975260448701959095526064860193909352939691949392909190879085168188816084810161060b565b503461025b578060031936011261025b57600a546040516001600160a01b039091168152602090f35b503461025b57602036600319011261025b576008546040516338f8221760e11b81526004803590820152908290829060249082906001600160a01b03165afa9081156102e357826102bc93926102c0575050604051918291602083526020830190611fc3565b503461025b57602036600319011261025b576020610315610dca611fe8565b612698565b503461025b57602036600319011261025b576020610dee600435613bac565b6040516001600160a01b039091168152f35b503461025b57602036600319011261025b57600435600554811015610e3457610e2a6020916125d8565b5054604051908152f35b60405162461bcd60e51b815260206004820152602360248201527f455243333532353a20676c6f62616c20696e646578206f7574206f6620626f756044820152626e647360e81b6064820152608490fd5b503461025b5760c036600319011261025b57610e9f611fe8565b6064356001600160401b03811161051657610ebe90369060040161214a565b916084356001600160401b03811161072c57610ede90369060040161214a565b60a4356001600160401b03811161051657610efd90369060040161214a565b90600160035401938460035560018060a01b0381161561138657841561133757610f2685613a13565b8015611328575b6112e357604051610f3d816120bc565b6000815260405190610f4e82612086565b86825260243560208301526000604083015260018060a01b03831660608301526000608083015260a082015260055486600052600660205280604060002055600160401b8110156112b757806001610fa992016005556125d8565b9190916112cd5780518255602081015160018301556040810151600283015560608101516003830180546001600160a01b039283166001600160a01b031991821617909155608083015160048501805491909316911617905560a001518051916001600160401b0383116112b757906020600589959493019161102c8484612d4c565b0190600052602060002060005b838110611297575050505061104e8282612c9a565b6001600160a01b031660007fddf252ad1be2c89b69c2b068fc378daa952ba7f163c4a11628f55a4df523b3ef8180a46024356000857fe4f48c240d3b994948aa54f3e2f5fca59263dfe1d52b6e4cf39a5d249b5ccb658280a483600052600660205260026110c06040600020546125d8565b500194604435956110d287825461258e565b90558460007f0b2aac84f3ec956911fd78eae5311062972ff949f38412e8da39069d9f068cc660206040518a8152a36008546001600160a01b031690813b1561075a5761114685928392604051948580948193632108947560e21b83528c6004840152604060248401526044830190611fc3565b03925af1801561074f57908491611283575b50506008546001600160a01b031690813b156107725761119f8492839260405194858094819363246a908b60e01b83528b6004840152604060248401526044830190611fc3565b03925af180156107305790839161126f575b50506008546001600160a01b031690813b15610516576111f883928392604051948580948193630190503b60e61b83528a6004840152604060248401526044830190611fc3565b03925af180156102e35761125b575b6020837f84eeb48eca46cea54afc9753345f6038981672ea565f32885420829dfd88aea66112508760405191829160243586846040919493926060820195825260208201520152565b0390a1604051908152f35b6112658291612073565b61025b5780611207565b61127890612073565b61072c5781386111b1565b61128c90612073565b610516578238611158565b82516001600160a01b031681830155899550602090920191600101611039565b634e487b7160e01b600052604160045260246000fd5b634e487b7160e01b600052600060045260246000fd5b60405162461bcd60e51b815260206004820152601d60248201527f455243333532353a20746f6b656e20616c7265616479206d696e7465640000006044820152606490fd5b5061133285613a41565b610f2d565b60405162461bcd60e51b815260206004820152602160248201527f455243333532353a2063616e6e6f74206d696e74207a65726f20746f6b656e496044820152601960fa1b6064820152608490fd5b60405162461bcd60e51b815260206004820152602160248201527f455243333532353a206d696e7420746f20746865207a65726f206164647265736044820152607360f81b6064820152608490fd5b5061035b6113e23661203e565b90604051926113f0846120bc565b858452612778565b503461025b578060031936011261025b5760ff600c5460a01c1660048110156114df576003810361145e5750506102bc604051611434816120a1565b60088152677072696f7269747960c01b60208201525b604051918291602083526020830190611fc3565b8061148a5750506102bc604051611474816120a1565b600481526374696d6560e01b602082015261144a565b6002141590506114ba576102bc6040516114a3816120a1565b60058152646974656d7360d81b602082015261144a565b6102bc6040516114c9816120a1565b60048152630c6c2e6d60e31b602082015261144a565b634e487b7160e01b82526021600452602482fd5b503461025b578060031936011261025b57602060ff60025416604051908152f35b503461025b57604036600319011261025b5761152e611ffe565b336001600160a01b0382160361154a5761035b90600435612518565b60405162461bcd60e51b815260206004820152602f60248201527f416363657373436f6e74726f6c3a2063616e206f6e6c792072656e6f756e636560448201526e103937b632b9903337b91039b2b63360891b6064820152608490fd5b503461025b57602036600319011261025b57806004356001600160401b03811161162e576115d990369060040161214a565b6008546001600160a01b0316803b1561162a576040516355f804b360e01b8152602060048201529183918391829084908290611619906024830190611fc3565b03925af180156102e3576104f25750f35b5050fd5b50fd5b50606036600319011261025b5760043560243560443561165082613a13565b806117f1575b80156117e2575b1561176b578361166c84613a13565b80611758575b80611735575b156116dd5750916116d7836116af7fdf7a601a0a201ccd4b4bfcfd610913188d931867997223d226f85f2f2673988a95843361337f565b6116ba818585613619565b604051938493846040919493926060820195825260208201520152565b0390a180f35b9160018060a01b03600c541690813b1561077257604051630310ed7f60e41b81526004810195909552602485015260448401919091528290606490829084905af180156102e35761172c575080f35b61035b90612073565b5061173f83613a13565b8015611678575061174f83612613565b600b5414611678565b5061176284612613565b600b5414611672565b60a460405162461bcd60e51b815260206004820152604460248201527f546f6b656e204944206f66207265636569766572206e6f74207265636f676e6960448201527f7a6564206279207468697320636f6e7472616374206f722074686520726567696064820152637374727960e01b6084820152fd5b506117ec82613a41565b61165d565b506117fb82612613565b600b5414611656565b503461025b57604036600319011261025b5761181e611fe8565b9060243561182b83612698565b81101561185d57604061184f9260209460018060a01b031681526007855220612906565b90546040519160031b1c8152f35b60405162461bcd60e51b815260206004820152602260248201527f455243333532353a206f776e657220696e646578206f7574206f6620626f756e604482015261647360f01b6064820152608490fd5b503461025b57604036600319011261025b576004356118ca611ffe565b81835260096020526118e260016040852001546121e3565b8183526009602052604083209060018060a01b03169081845260205260ff6040842054161561190f578280f35b81835260096020526040832081845260205260408320600160ff1982541617905533917f2f8788117e7eff1d82e926ec794901d17c78024a50270940304540a733656f0d8480a438808280f35b503461025b57602036600319011261025b576020610315600435612613565b503461025b57602036600319011261025b5760016040602092600435815260098452200154604051908152f35b5061035b6119b53661203e565b916119c86119c3843361291e565b612711565b61298f565b503461025b578060031936011261025b576020600554604051908152f35b503461025b57602036600319011261025b57600854604051631375d84360e01b81526004803590820152908290829060249082906001600160a01b03165afa9081156102e357826102bc93926102c0575050604051918291602083526020830190611fc3565b6020610315611a5f36612014565b91612efd565b503461025b576020908160031936011261025b5760043560018060a01b036008541690604051636c0360eb60e01b81528381600481865afa90811561074f578491611d1c575b508215611b1b57508290602460405180948193633601bfc560e11b835260048301525afa918215611b0f578092611af4575b5050906102bc604051928284938452830190611fc3565b611b0892503d8091833e6102d481836120d7565b3880611add565b604051903d90823e3d90fd5b80519093925015611ce3578190807a184f03e93ff9f4daa797ed6e38ed64bf6a1f0100000000000000008181811015611cd5575b5050856d04ee2d6d415b85acef810000000080841015611cc7575b5050662386f26fc1000080831015611cb8575b506305f5e10080831015611ca9575b5061271080831015611c9a575b506064821015611c8a575b600a80921015611c80575b60019081602181860195611bdb611bc5886120f8565b97611bd3604051998a6120d7565b8089526120f8565b878b019890601f1901368a3750860101905b611c4a575b50505050611c3592611c44926025926040519583611c1988955180928b8089019101611fa0565b84019164736c6f742f60d81b8984015251809386840190611fa0565b010360058101845201826120d7565b90610a55565b600019019083906f181899199a1a9b1b9c1cb0b131b232b360811b8282061a835304918215611c7b57919082611bed565b611bf2565b9160010191611baf565b9190606460029104910191611ba4565b60049193920491019138611b99565b60089193920491019138611b8c565b60109193920491019138611b7d565b930192909104908538611b6a565b604094500491503880611b4f565b5060405191508282016001600160401b03811183821017611d08576040528152611c44565b634e487b7160e01b82526041600452602482fd5b611d3091503d8086833e6102d481836120d7565b38611aab565b50604036600319011261025b57611d4b611fe8565b602435906001600160a01b038080611d628561289b565b16921691611d72818414156127f8565b803314908115611e48575b5015611ddd5782845260066020526004611d9a60408620546125d8565b500180546001600160a01b03191683179055611db58361289b565b167f8c5be1e5ebec7d5bd14f71427d1e84f3dd0314c0f7b2291e5b200ac8c7c3b9258480a480f35b60405162461bcd60e51b815260206004820152603960248201527f455243333532353a20617070726f76652063616c6c6572206973206e6f74206f60448201527f776e6572206e6f7220617070726f76656420666f7220616c6c000000000000006064820152608490fd5b9050845260076020526002604085200133855260205260ff60408520541638611d7d565b503461025b57602036600319011261025b576020610dee6004356128d6565b503461025b578060031936011261025b576040519080805491600183811c92818516948515611f41575b6020958686108114610ae457858852879493929187908215610ac2575050600114611ee8575050610a55925003836120d7565b908592508180527f290decd9548b62a8d60345a988386fc84ba6bc95484008f6362f93160ef3e5635b858310611f29575050610a5593508201013880610a47565b80548389018501528794508693909201918101611f11565b93607f1693611eb5565b90503461072c57602036600319011261072c5760043563ffffffff60e01b81168091036105165760209250637965db0b60e01b8114908115611f8f575b5015158152f35b6301ffc9a760e01b14905038611f88565b60005b838110611fb35750506000910152565b8181015183820152602001611fa3565b90602091611fdc81518092818552858086019101611fa0565b601f01601f1916010190565b600435906001600160a01b03821682036107b357565b602435906001600160a01b03821682036107b357565b60609060031901126107b357600435906024356001600160a01b03811681036107b3579060443590565b60609060031901126107b3576001600160a01b039060043582811681036107b3579160243590811681036107b3579060443590565b6001600160401b0381116112b757604052565b60c081019081106001600160401b038211176112b757604052565b604081019081106001600160401b038211176112b757604052565b602081019081106001600160401b038211176112b757604052565b90601f801991011681019081106001600160401b038211176112b757604052565b6001600160401b0381116112b757601f01601f191660200190565b92919261211f826120f8565b9161212d60405193846120d7565b8294818452818301116107b3578281602093846000960137010152565b9080601f830112156107b35781602061216593359101612113565b90565b60e06003198201126107b3576004356001600160a01b03811681036107b357916024359160443591606435916001600160401b03916084358381116107b357826121b49160040161214a565b9260a4358181116107b357836121cc9160040161214a565b9260c4359182116107b3576121659160040161214a565b60009080825260209060098252604092838120338252835260ff84822054161561220d5750505050565b8351916001600160401b0390336060850183811186821017612504578752602a855285850191873684378551156124f057603083538551916001928310156124dc576078602188015360295b8381116124725750612430579087519360808501908582109082111761241c57885260428452868401946060368737845115612408576030865384518210156124085790607860218601536041915b81831161239a5750505061235857612354938693612338936123296048946123009a519a8b957f416363657373436f6e74726f6c3a206163636f756e74200000000000000000008c8801525180926037880190611fa0565b8401917001034b99036b4b9b9b4b733903937b6329607d1b603784015251809386840190611fa0565b010360288101875201856120d7565b5192839262461bcd60e51b845260048401526024830190611fc3565b0390fd5b60648587519062461bcd60e51b825280600483015260248201527f537472696e67733a20686578206c656e67746820696e73756666696369656e746044820152fd5b909192600f811660108110156123f4576f181899199a1a9b1b9c1cb0b131b232b360811b901a6123ca85886125b1565b5360041c9280156123e0576000190191906122a8565b634e487b7160e01b82526011600452602482fd5b634e487b7160e01b83526032600452602483fd5b634e487b7160e01b81526032600452602490fd5b634e487b7160e01b86526041600452602486fd5b60648789519062461bcd60e51b825280600483015260248201527f537472696e67733a20686578206c656e67746820696e73756666696369656e746044820152fd5b90600f811660108110156124c8576f181899199a1a9b1b9c1cb0b131b232b360811b901a6124a0838a6125b1565b5360041c9080156124b45760001901612259565b634e487b7160e01b87526011600452602487fd5b634e487b7160e01b88526032600452602488fd5b634e487b7160e01b86526032600452602486fd5b634e487b7160e01b85526032600452602485fd5b634e487b7160e01b85526041600452602485fd5b906000918083526009602052604083209160018060a01b03169182845260205260ff60408420541661254957505050565b8083526009602052604083208284526020526040832060ff1981541690557ff6391f5c32d9c69d2a47ea670b442974b53935d1edc7fd64eb21e047a839171b339380a4565b9190820180921161259b57565b634e487b7160e01b600052601160045260246000fd5b9081518110156125c2570160200190565b634e487b7160e01b600052603260045260246000fd5b6005548110156125c2576006906005600052027f036b6384b5eca791c62761152d0c79bb0604c104a5fb6f4eb0703f3154bb3db00190600090565b61261c81613ab7565b600052600660205260016126346040600020546125d8565b50015490565b6020818303126107b3578051906001600160401b0382116107b3570181601f820112156107b357805161266c816120f8565b9261267a60405194856120d7565b818452602082840101116107b3576121659160208085019101611fa0565b6001600160a01b031680156126b857600052600760205260406000205490565b60405162461bcd60e51b815260206004820152602b60248201527f455243333532353a2062616c616e636520717565727920666f7220746865207a60448201526a65726f206164647265737360a81b6064820152608490fd5b1561271857565b60405162461bcd60e51b815260206004820152603260248201527f455243333532353a207472616e736665722063616c6c6572206973206e6f74206044820152711bdddb995c881b9bdc88185c1c1c9bdd995960721b6064820152608490fd5b9061279c93929161278c6119c3843361291e565b61279783838361298f565b612daf565b156127a357565b60405162461bcd60e51b815260206004820152602760248201527f455243333532353a207472616e7366657220746f206e6f6e204552433732315260448201526632b1b2b4bb32b960c91b6064820152608490fd5b156127ff57565b60405162461bcd60e51b815260206004820152602260248201527f455243333532353a20617070726f76616c20746f2063757272656e74206f776e60448201526132b960f11b6064820152608490fd5b1561285657565b60405162461bcd60e51b815260206004820152601960248201527f455243333532353a20696e76616c696420746f6b656e204944000000000000006044820152606490fd5b6128a481613ab7565b60005260066020526128ba6040600020546125d8565b50600301546001600160a01b0316906128d482151561284f565b565b6128df81613ab7565b60005260066020526128f56040600020546125d8565b50600401546001600160a01b031690565b80548210156125c25760005260206000200190600090565b906001600160a01b0380806129328461289b565b16931691838314938415612965575b50831561294f575b50505090565b61295b919293506128d6565b1614388080612949565b909350600052600760205260026040600020018260005260205260ff604060002054169238612941565b6129988361289b565b6001600160a01b0391821691908116829003612c2857808316928315612bd5576129c185612613565b506129cb85612c79565b50600091858352602090600682526040906129e8828620546125d8565b50600490810180546001600160a01b03199081169091559091898782612a0d8361289b565b167f8c5be1e5ebec7d5bd14f71427d1e84f3dd0314c0f7b2291e5b200ac8c7c3b9258280a4898752600685526005612a47858920546125d8565b500180549091858988818f5b868410612b9e575050505050505080549087815581612b81575b5050888652600684526003612a84848820546125d8565b5001908154169055858552600783528185209182549360001994858101908111612b6e5790612ab588939286612906565b90549060031b1c9060018601908c85528181528385205492612af681612adb868b612906565b90919082549060031b600019811b9283911b16911916179055565b855252818320558982528120558154908115612b5b575092828892612b57947fddf252ad1be2c89b69c2b068fc378daa952ba7f163c4a11628f55a4df523b3ef97960191612b448383612906565b909182549160031b1b1916905555612c9a565b80a4565b634e487b7160e01b865260319052602485fd5b634e487b7160e01b885260118452602488fd5b8752848720908101905b81811015612a6d57878155600101612b8b565b612bcb9486928b612baf878c612906565b96905494835252209260031b1c168c5289528a88812055612d3d565b8690888b8f612a53565b60405162461bcd60e51b815260206004820152602560248201527f455243333532353a207472616e7366657220746f20746865207a65726f206164604482015264647265737360d81b6064820152608490fd5b60405162461bcd60e51b8152602060048201526024808201527f455243333532353a207472616e736665722066726f6d20696e76616c6964206f6044820152633bb732b960e11b6064820152608490fd5b612c8281613ab7565b600052600660205260026126346040600020546125d8565b60009082825260066020526003612cb460408420546125d8565b500180546001600160a01b0319166001600160a01b0390921691821790558082526007602081815260408085208054878752600191909101835281862055928452528120805491600160401b831015612d1c575081612adb9160016128d49594018155612906565b634e487b7160e01b81526041600452602490fd5b9190820391821161259b57565b600019811461259b5760010190565b600160401b82116112b757805491808255828110612d6957505050565b60009182526020822092830192015b828110612d8457505050565b818155600101612d78565b908160209103126107b357516001600160e01b0319811681036107b35790565b92939290803b15612ef45793600091612e069560405180948193630a85bd0160e11b9788845233600485015260018060a01b0380921660248501526044840152608060648401528260209a8b976084830190611fc3565b0393165af160009181612ec5575b50612eb657833d15612eae573d90612e2b826120f8565b91612e3960405193846120d7565b82523d60008284013e5b81519182612eab5760405162461bcd60e51b815260048101839052603260248201527f4552433732313a207472616e7366657220746f206e6f6e20455243373231526560448201527131b2b4bb32b91034b6b83632b6b2b73a32b960711b6064820152608490fd5b01fd5b606090612e43565b6001600160e01b031916149150565b612ee6919250853d8711612eed575b612ede81836120d7565b810190612d8f565b9038612e14565b503d612ed4565b50600193505050565b919091600090808252602091600d8352604092838220541560001461329c57612f2785843361337f565b60019586600354019687600355612f3d85612613565b916001600160a01b038082169290831561324e578a1561320057612f608b613a13565b80156131f1575b6131ad578851612f76816120bc565b8781528951888b8e612f8784612086565b8084528a84018a81528b8386019285845260608701948c8652608088019680885260a08901998a5260066005549485948352522055600160401b811015613199578089612fd792016005556125d8565b95909561318557906005959493929151855551888501555160028401558560038401915116906bffffffffffffffffffffffff60a01b9182825416179055856004840192511690825416179055019051918251926001600160401b03841161317157908883928f9b9a9998979695948561305091612d4c565b0191895287892090895b84811061315b575050505050507f6d811e6a20ae5461a4ef22a6998c1d958defe727f1cc522b6eb792bc8e6f72669897969386938461313897946130c26131559a7f0b2aac84f3ec956911fd78eae5311062972ff949f38412e8da39069d9f068cc696612c9a565b857fddf252ad1be2c89b69c2b068fc378daa952ba7f163c4a11628f55a4df523b3ef8180a483857fe4f48c240d3b994948aa54f3e2f5fca59263dfe1d52b6e4cf39a5d249b5ccb658280a483835260068152613120888420546125d8565b50508751838152a3613133858883613619565b612613565b915192839286846040919493926060820195825260208201520152565b0390a190565b83518216818401558f9b5092890192850161305a565b634e487b7160e01b8a52604160045260248afd5b634e487b7160e01b8e5260048e905260248efd5b634e487b7160e01b8e52604160045260248efd5b885162461bcd60e51b815260048101879052601d60248201527f455243333532353a20746f6b656e20616c7265616479206d696e7465640000006044820152606490fd5b506131fb8b613a41565b612f67565b885162461bcd60e51b815260048101879052602160248201527f455243333532353a2063616e6e6f74206d696e74207a65726f20746f6b656e496044820152601960fa1b6064820152608490fd5b885162461bcd60e51b815260048101879052602160248201527f455243333532353a206d696e7420746f20746865207a65726f206164647265736044820152607360f81b6064820152608490fd5b600c5484516307a42e0160e11b8152600481018590526001600160a01b0397881660248201526044810187905291969192918791849160649183918691165af195861561337357819661331c575b505050906131556131387f6d811e6a20ae5461a4ef22a6998c1d958defe727f1cc522b6eb792bc8e6f72669493612613565b909180939650813d831161336c575b61333581836120d7565b8101031261025b575051926131556131387f6d811e6a20ae5461a4ef22a6998c1d958defe727f1cc522b6eb792bc8e6f72666132ea565b503d61332b565b508351903d90823e3d90fd5b6133898183613419565b613393838361291e565b158061340d575b6133a5575b50505050565b8381106133c8576133bf936133b991612d30565b91613447565b3880808061339f565b60405162461bcd60e51b815260206004820152601f60248201527f455243333532353a20696e73756666696369656e7420616c6c6f77616e6365006044820152606490fd5b5060001981141561339a565b61342281613ab7565b600052600460205260406000209060018060a01b031660005260205260406000205490565b6001600160a01b038083169391928415613530578361346591613588565b156134b3575b5060207f621b050de0ad08b51d19b48b3e6df75348c4de6bdd93e81b252ca62e28265b1b918360005260048252604060002085600052825280604060002055604051908152a3565b9082600052600660205260056134cd6040600020546125d8565b500190815492600160401b8410156112b757856135138560209560017f621b050de0ad08b51d19b48b3e6df75348c4de6bdd93e81b252ca62e28265b1b98018155612906565b909283549160031b90811b9283911b16911916179055915061346b565b60405162461bcd60e51b815260206004820152602a60248201527f455243333532353a20617070726f76652076616c756520746f20746865207a65604482015269726f206164647265737360b01b6064820152608490fd5b60009082825260066020908082526040906135a5828620546125d8565b509260058094015496865b8881106135c35750505050505050905090565b8188528383526135e181876135da888c20546125d8565b5001612906565b905460039190911b1c6001600160a01b039081169088161461360b5761360690612d3d565b6135b0565b505050505050505050600190565b61362281613a13565b80156138c1575b1561386c5761363782613a13565b801561385d575b1561380a57806000526020926006845260409261365e84600020546125d8565b50816000526006865261367485600020546125d8565b509060028101908154908582106137b3576001015460018401540361375857916002916136a7866136f698979695612d30565b9055016136b583825461258e565b905580837f0b2aac84f3ec956911fd78eae5311062972ff949f38412e8da39069d9f068cc6888851868152a38451926136ed846120bc565b600084526138e8565b156136ff575050565b60849250519062461bcd60e51b82526004820152602d60248201527f455243333532353a207472616e736665722072656a656374656420627920455260448201526c21999a991aa932b1b2b4bb32b960991b6064820152fd5b865162461bcd60e51b815260048101899052602e60248201527f455243333532353a207472616e7366657220746f20746f6b656e20776974682060448201526d191a5999995c995b9d081cdb1bdd60921b6064820152608490fd5b875162461bcd60e51b8152600481018a9052602a60248201527f455243333532353a20696e73756666696369656e742062616c616e636520666f60448201526939103a3930b739b332b960b11b6064820152608490fd5b60405162461bcd60e51b815260206004820152602560248201527f455243333532353a207472616e7366657220746f20696e76616c696420746f6b604482015264195b88125160da1b6064820152608490fd5b5061386782613a41565b61363e565b60405162461bcd60e51b815260206004820152602760248201527f455243333532353a207472616e736665722066726f6d20696e76616c696420746044820152661bdad95b88125160ca1b6064820152608490fd5b506138cb81613a41565b613629565b908160209103126107b3575180151581036107b35790565b926138f28261289b565b803b1515806139a4575b1561399a5761394593600060209460405196879586948593629ce20b60e01b9b8c865233600487015260248601526044850152606484015260a0608484015260a4830190611fc3565b03926001600160a01b03165af190811561398e57600091613970575b506001600160e01b0319161490565b613988915060203d8111612eed57612ede81836120d7565b38613961565b6040513d6000823e3d90fd5b5050505050600190565b506040516301ffc9a760e01b8152629ce20b60e01b60048201526020816024816001600160a01b0386165afa90811561398e576000916139e5575b506138fc565b613a06915060203d8111613a0c575b6139fe81836120d7565b8101906138d0565b386139df565b503d6139f4565b60055415159081613a22575090565b8091506000526006602052613a3b6040600020546125d8565b50541490565b80600052600d6020526040600020541590811591613a5d575090565b600c546040516341ce4b3f60e01b81526004810192909252909150602090829060249082906001600160a01b03165afa90811561398e57600091613a9f575090565b612165915060203d8111613a0c576139fe81836120d7565b6128d490613ac481613a13565b908115613ae9575b8115613ad9575b5061284f565b613ae39150613a41565b38613ad3565b9050613af481613a41565b90613acc565b613b0381613ab7565b613b0c81613a13565b80613b99575b15613b205761216590612c79565b6000908152600d6020526040812054602060018060a01b03600c541691602460405180948193631398fee160e31b835260048301525afa918215611b0f578092613b6957505090565b9091506020823d8211613b91575b81613b84602093836120d7565b8101031261025b57505190565b3d9150613b77565b50613ba381612613565b600b5414613b12565b613bb581613ab7565b613bbe81613a13565b80613c69575b15613bd2576121659061289b565b60018060a01b0380600c5416916000908152600d602052602060408220546024604051809681936331a9108f60e11b835260048301525afa928315613c5c578193613c1d5750505090565b909192506020813d8211613c54575b81613c39602093836120d7565b8101031261072c5751918216820361025b5750388080612949565b3d9150613c2c565b50604051903d90823e3d90fd5b50613c7381612613565b600b5414613bc4565b90613c8682613ab7565b613c8f82613a13565b80613cf4575b15613ca35761216591613419565b602060018060a01b0391604483600c54166000958652600d845260408620549060405195869485936338d1782f60e21b855260048501521660248301525afa918215611b0f578092613b6957505090565b50613cfe82612613565b600b5414613c9556fea26469706673582212203e1b761ed90ddd39a5d165ddeb3302a59b7850ba3aea38810e68cfc2aaa3f12264736f6c634300081100336080604052346200048657620024ae803803806200001d816200048b565b9283398101608082820312620004865781516001600160401b0391908281116200048657816200004f918501620004b1565b91602092838501518281116200048657836200006d918701620004b1565b92604086015183811162000486576060916200008b918801620004b1565b9501516001600160a01b03811695908690036200048657815193838511620002c3576001948554938685811c951680156200047b575b88861014620002a2578190601f9586811162000425575b508890868311600114620003bd57600092620003b1575b5050600019600383901b1c191690861b1785555b805190848211620002c357600254908682811c92168015620003a6575b88831014620002a25781858493116200034f575b508790858311600114620002e557600092620002d9575b5050600019600383901b1c191690851b176002555b8051928311620002c35760039485548581811c91168015620002b8575b82821014620002a25783811162000257575b5080928411600114620001ed5750928293918392600094620001e1575b50501b9160001990841b1c19161790555b600080546001600160a01b031916919091179055604051611f8a9081620005248239f35b015192503880620001ac565b919083601f1981168760005284600020946000905b888383106200023c575050501062000223575b505050811b019055620001bd565b015160001983861b60f8161c1916905538808062000215565b85870151885590960195948501948793509081019062000202565b86600052816000208480870160051c82019284881062000298575b0160051c019086905b8281106200028b5750506200018f565b600081550186906200027b565b9250819262000272565b634e487b7160e01b600052602260045260246000fd5b90607f16906200017d565b634e487b7160e01b600052604160045260246000fd5b0151905038806200014b565b90879350601f198316916002600052896000209260005b8b8282106200033857505084116200031e575b505050811b0160025562000160565b015160001960f88460031b161c191690553880806200030f565b8385015186558b97909501949384019301620002fc565b9091506002600052876000208580850160051c8201928a86106200039c575b918991869594930160051c01915b8281106200038c57505062000134565b600081558594508991016200037c565b925081926200036e565b91607f169162000120565b015190503880620000ef565b90889350601f19831691846000528a6000209260005b8c8282106200040e5750508411620003f4575b505050811b01855562000103565b015160001960f88460031b161c19169055388080620003e6565b8385015186558c97909501949384019301620003d3565b90915087600052886000208680850160051c8201928b861062000471575b918a91869594930160051c01915b82811062000461575050620000d8565b600081558594508a910162000451565b9250819262000443565b94607f1694620000c1565b600080fd5b6040519190601f01601f191682016001600160401b03811183821017620002c357604052565b919080601f84011215620004865782516001600160401b038111620002c357602090620004e7601f8201601f191683016200048b565b92818452828287010111620004865760005b8181106200050f57508260009394955001015290565b8581018301518482018401528201620004f956fe608060408181526004908136101561001657600080fd5b600092833560e01c9081631375d843146114a057508063246a908b146113a257806331264fc11461119057806355f804b31461104c57806364140ec014610f4d5780636c0360eb14610e8e5780636c037f8a14610b7257806371f0442e14610ade578063725fa09c14610866578063842251d41461072e578063894b4c2e146104025780639cdeaae0146101805763b3154c08146100b357600080fd5b3461017c57602091826003193601126101785780358452825280832091815192848154906100e082611a7d565b808752926001928084169081156101545750600114610119575b610115878761010b828c03836115b6565b5191829182611558565b0390f35b9080949750528583205b82841061014157505050826101159461010b928201019438806100fa565b8054868501880152928601928101610123565b60ff19168887015250505050151560051b830101925061010b8261011538806100fa565b8380fd5b8280fd5b50913461039057826003193601126103905781359161019e836119cd565b928083526020918083528584209386519481868254916101bd83611a7d565b92838352888301946001918a83821691826000146103e25750506001146103a5575b50506101ed925003876115b6565b6101f684611de4565b9161020260243561188a565b895163131f9f3f60e11b8152948501869052938681602481335afa91821561039a578092610365575b61011561027f8c61010b606c8e8e8e61034c8f8f8f8f8f61024e6102549161188a565b94611e7e565b966102a960298d519e8f809c683d913730b6b2911d1160b91b8c8301528b8151948593019101611535565b8a0191701116113232b9b1b934b83a34b7b7111d1160791b6029840152518093603a840190611535565b016a11161134b6b0b3b2911d1160a91b603a8201526102d18251809388604585019101611535565b016c1116113130b630b731b2911d1160991b60458201526102fb8251809387605285019101611535565b016911161139b637ba111d1160b11b60528201526103228251809386605c85019101611535565b01916e111611383937b832b93a34b2b9911d60891b605c8401528351938491606b85019101611535565b01607d60f81b606b82015203604c8101855201836115b6565b9091508682813d8311610393575b61037d81836115b6565b810103126103905750518461027f61022b565b80fd5b503d610373565b8a51903d90823e3d90fd5b89925086528186209086915b8583106103c95750506101ed935082010138806101df565b81948484839695965492010152019101899289926103b1565b92509350506101ed94915060ff19168552151560051b82010138806101df565b50913461039057602091826003193601126106bd57803591610423836119cd565b83825282855285822090865190838284549161043e83611a7d565b928383528a8301966001918c838216918260001461070e5750506001146106d2575b505061046e925003836115b6565b61047786611de4565b938851631398fee160e31b815287878201528881602481335afa80156106c8578290610695575b6104a8915061188a565b895163131f9f3f60e11b8152968701889052958881602481335afa91821561039a578092610664575b5050606c888a6101159b9961010b99603d996106549d9961061b9961055861052e9a6105086105026106169c61188a565b97611e7e565b97519b8c99683d913730b6b2911d1160b91b818c0152825192839160298d019101611535565b880191701116113232b9b1b934b83a34b7b7111d1160791b6029840152518093603a840190611535565b016a11161134b6b0b3b2911d1160a91b603a820152610580825180938d604585019101611535565b016c1116113130b630b731b2911d1160991b60458201526105aa825180938c605285019101611535565b016911161139b637ba111d1160b11b60528201526105d1825180938b605c85019101611535565b016e111611383937b832b93a34b2b9911d60891b605c8201526105fd825180938a606b85019101611535565b01607d60f81b606b82015203604c8101845201826115b6565b61171d565b845195827f646174613a6170706c69636174696f6e2f6a736f6e3b6261736536342c000000889485015282519283918686019101611535565b810103601d8101855201836115b6565b9091508882813d831161068e575b61067c81836115b6565b81010312610390575051606c886104d1565b503d610672565b508881813d83116106c1575b6106ab81836115b6565b810103126106bd576104a8905161049e565b5080fd5b503d6106a1565b8a513d84823e3d90fd5b8b925088528188209088915b8583106106f657505061046e93508201013880610460565b80548389018501528794508c939092019181016106de565b925093505061046e94915060ff19168752151560051b8201013880610460565b508290346106bd5761073f36611640565b939083526020916006835283209184519167ffffffffffffffff8311610853575061076a8354611a7d565b601f8111610810575b5080601f83116001146107ae57508394829394926107a3575b50508160011b916000199060031b1c191617905580f35b01519050848061078c565b90601f198316958486528286209286905b8882106107f8575050836001959697106107df575b505050811b01905580f35b015160001960f88460031b161c191690558480806107d4565b806001859682949686015181550195019301906107bf565b838552818520601f840160051c810191838510610849575b601f0160051c01905b81811061083e5750610773565b858155600101610831565b9091508190610828565b634e487b7160e01b855260419052602484fd5b50903461017c578260031936011261017c5781516306fdde0360e01b81529083828281335afa918215610ad1578492610aad575b5082519084600254906108ac82611a7d565b808552846020988992838301956001908181169081600014610a8e5750600114610a32575b50506108df925003856115b6565b6108e7611bb6565b928787518092633e7e866960e01b825281335afa918215610a2757605a610654989761010b97603d976101159c9761093360ff61061b996109889961061699916109fa575b501661188a565b928c51978895683d913730b6b2911d1160b91b8c88015261095e8c825192839160298b019101611535565b860191701116113232b9b1b934b83a34b7b7111d1160791b6029840152518093603a840190611535565b016a11161134b6b0b3b2911d1160a91b603a8201526109b0825180938b604585019101611535565b01721116113b30b63ab2a232b1b4b6b0b639911d1160691b60458201526109e0825180938a605885019101611535565b0161227d60f01b605882015203603a8101845201826115b6565b610a1a91508c8d3d10610a20575b610a1281836115b6565b8101906116d2565b3861092c565b503d610a08565b8751903d90823e3d90fd5b600286527f405787fa12a823e0f2b7631cc41b3ba8828b3321ca811111fa75cd3aa3bb5ace9492508591905b818310610a7657508b9450508201016108df386108d1565b85548a84018501529485019489945091830191610a5e565b9150506108df94925060ff19168652151560051b8201018992386108d1565b610aca9192503d8086833e610ac281836115b6565b810190611673565b903861089a565b50505051903d90823e3d90fd5b503461017c576020918260031936011261017857358352600582528083209181519284815490610b0d82611a7d565b808752926001928084169081156101545750600114610b3757610115878761010b828c03836115b6565b9080949750528583205b828410610b5f57505050826101159461010b928201019438806100fa565b8054868501880152928601928101610b41565b50903461017c5760209283600319360112610390578054835163ec327a2160e01b815283358185018190529092916001600160a01b0316908284602481855afa938415610e84578394610e68575b50855163bc74ebb960e01b8152858101829052948386602481865afa958615610e5e578496610e42575b5086516309c3dd8760e01b80825282820184905290938585602481845afa948515610e3857918a9594939187938496610e17575b5090602491610c5e60268d518a652f696d61676560d01b81610c4a849e85019d8e815193849201611535565b83019182015203600681018b5201896115b6565b8b51958694859384528301525afa938415610a27578094610dfa575b50508551918288808201868197519283910191610c9692611535565b81018981016f17b83937b832b93a34b2b9973539b7b760811b905203601081018452603001610cc590846115b6565b8651958695683d913730b6b2911d1160b91b8a880152805190818b60298a01920191610cf092611535565b8601701116113232b9b1b934b83a34b7b7111d1160791b6029820152815191828b603a8401920191610d2192611535565b01906a11161134b6b0b3b2911d1160a91b603a83015251918260458301610d4792611535565b01906e111611383937b832b93a34b2b9911d60891b604583015251918260548301610d7192611535565b0160548101607d60f81b905203603581018252605501610d9190826115b6565b610d9a9061171d565b81517f646174613a6170706c69636174696f6e2f6a736f6e3b6261736536342c00000084820152815190938492610dd8918391603d86019101611535565b810103601d81018352603d01610dee90836115b6565b51610115819282611558565b610e0f9294503d8091833e610ac281836115b6565b913880610c7a565b602492919650610e30903d8087833e610ac281836115b6565b959091610c1e565b89513d88823e3d90fd5b610e579196503d8086833e610ac281836115b6565b9438610bea565b87513d86823e3d90fd5b610e7d9194503d8085833e610ac281836115b6565b9238610bc0565b86513d85823e3d90fd5b8382346106bd57816003193601126106bd57805190826001805491610eb283611a7d565b80865292828116908115610f255750600114610edb575b50505061010b826101159403836115b6565b9450808552600080516020611f358339815191525b828610610f0d5750505061010b8260206101159582010194610ec9565b80546020878701810191909152909501948101610ef0565b61011597508693506020925061010b94915060ff191682840152151560051b82010194610ec9565b508290346106bd57610f5e36611640565b939083526020916005835283209184519167ffffffffffffffff83116108535750610f898354611a7d565b601f8111611009575b5080601f8311600114610fc157508394829394926107a35750508160011b916000199060031b1c191617905580f35b90601f198316958486528286209286905b888210610ff1575050836001959697106107df57505050811b01905580f35b80600185968294968601518155019501930190610fd2565b838552818520601f840160051c810191838510611042575b601f0160051c01905b8181106110375750610f92565b85815560010161102a565b9091508190611021565b828434610390576020806003193601126106bd5767ffffffffffffffff83358181116101785761107f90369086016115f4565b93845191821161117d57506001916110978354611a7d565b601f811161112b575b5080601f83116001146110da57508394829394926110cf575b5050600019600383901b1c191690821b17905580f35b0151905084806110b9565b838552601f19831695600080516020611f35833981519152929186905b88821061111457505083859697106107df57505050811b01905580f35b8087859682949686015181550195019301906110f7565b838552600080516020611f35833981519152601f840160051c810191838510611173575b601f0160051c019084905b8281106111685750506110a0565b86815501849061115a565b909150819061114f565b634e487b7160e01b845260419052602483fd5b50903461017c578260031936011261017c5781516306fdde0360e01b81529083828281335afa918215610ad1578492611386575b5082519084906002546111d681611a7d565b808552846020948582019360019087828216918260001461136857505060011461130e575b50611208925003856115b6565b611210611bb6565b918387518092633e7e866960e01b825281335afa9081156113045761127d97969361010b969361125360ff605a98956112d3956101159e916112ed57501661188a565b9489519a8b97683d913730b6b2911d1160b91b878a015261052e815180928960298d019101611535565b016a11161134b6b0b3b2911d1160a91b603a8201526112a58251809386604585019101611535565b0191721116113b30b63ab2a232b1b4b6b0b639911d1160691b60458401528351938491605885019101611535565b0161227d60f01b605882015203603a8101855201836115b6565b610a1a9150873d8911610a2057610a1281836115b6565b87513d8a823e3d90fd5b60028b528691508a907f405787fa12a823e0f2b7631cc41b3ba8828b3321ca811111fa75cd3aa3bb5ace5b8583106113505750506112089350820101386111fb565b8054838b018501528994508893909201918101611339565b60ff1916875261120895151560051b85010192503891506111fb9050565b61139b9192503d8086833e610ac281836115b6565b90386111c4565b508290346106bd576113b336611640565b9390835260209181835283209184519167ffffffffffffffff831161085357506113dd8354611a7d565b601f811161145d575b5080601f831160011461141557508394829394926107a35750508160011b916000199060031b1c191617905580f35b90601f198316958486528286209286905b888210611445575050836001959697106107df57505050811b01905580f35b80600185968294968601518155019501930190611426565b838552818520601f840160051c810191838510611496575b601f0160051c01905b81811061148b57506113e6565b85815560010161147e565b9091508190611475565b92905034610178576020908160031936011261153157358452600681528184208054856114cc82611a7d565b8087529260019280841690811561015457506001146114f657610115878761010b828c03836115b6565b9080949750528583205b82841061151e57505050826101159461010b928201019438806100fa565b8054868501880152928601928101611500565b8480fd5b60005b8381106115485750506000910152565b8181015183820152602001611538565b604091602082526115788151809281602086015260208686019101611535565b601f01601f1916010190565b6060810190811067ffffffffffffffff8211176115a057604052565b634e487b7160e01b600052604160045260246000fd5b90601f8019910116810190811067ffffffffffffffff8211176115a057604052565b67ffffffffffffffff81116115a057601f01601f191660200190565b81601f8201121561163b5780359061160b826115d8565b9261161960405194856115b6565b8284526020838301011161163b57816000926020809301838601378301015290565b600080fd5b90604060031983011261163b57600435916024359067ffffffffffffffff821161163b57611670916004016115f4565b90565b60208183031261163b5780519067ffffffffffffffff821161163b570181601f8201121561163b5780516116a6816115d8565b926116b460405194856115b6565b8184526020828401011161163b576116709160208085019101611535565b9081602091031261163b575160ff8116810361163b5790565b906116f5826115d8565b61170260405191826115b6565b8281528092611713601f19916115d8565b0190602036910137565b8051156118655760405161173081611584565b604081527f4142434445464748494a4b4c4d4e4f505152535455565758595a61626364656660208201527f6768696a6b6c6d6e6f707172737475767778797a303132333435363738392b2f6040820152815160029283820180921161184f576003918290046001600160fe1b038116810361184f576117b2908594951b6116eb565b936020850193829183518401925b8381106117fe57505050505106806001146117eb576002146117e0575090565b603d90600019015390565b50603d9081600019820153600119015390565b85600491979293949701918251600190603f9082828260121c16880101518453828282600c1c16880101518385015382828260061c16880101518885015316850101518782015301959291906117c0565b634e487b7160e01b600052601160045260246000fd5b506040516020810181811067ffffffffffffffff8211176115a0576040526000815290565b806000917a184f03e93ff9f4daa797ed6e38ed64bf6a1f010000000000000000808210156119bf575b506d04ee2d6d415b85acef8100000000808310156119b0575b50662386f26fc10000808310156119a1575b506305f5e10080831015611992575b5061271080831015611983575b506064821015611973575b600a80921015611969575b6001908160216119218287016116eb565b95860101905b611933575b5050505090565b600019019083906f181899199a1a9b1b9c1cb0b131b232b360811b8282061a83530491821561196457919082611927565b61192c565b9160010191611910565b9190606460029104910191611905565b600491939204910191386118fa565b600891939204910191386118ed565b601091939204910191386118de565b602091939204910191386118cc565b6040935081049150386118b3565b6040516306fdde0360e01b815290600082600481335afa918215611a7157600092611a4b575b506022611a026116709261188a565b926040519381611a1c869351809260208087019101611535565b820161202360f01b6020820152611a3c8251809360208785019101611535565b010360028101845201826115b6565b611a02611a6860229261167094953d8091833e610ac281836115b6565b939250506119f3565b6040513d6000823e3d90fd5b90600182811c92168015611aad575b6020831014611a9757565b634e487b7160e01b600052602260045260246000fd5b91607f1691611a8c565b90600091600190815491611aca83611a7d565b92818116908115611b205750600114611ae257505050565b809192939450600052600080516020611f35833981519152906000915b848310611b0d575050500190565b8181602092548587015201920191611aff565b60ff191683525050811515909102019150565b600092918154611b4281611a7d565b92600191808316908115611b9b5750600114611b5f575b50505050565b90919293945060005260209081600020906000915b858310611b8a5750505050019038808080611b59565b805485840152918301918101611b74565b60ff1916845250505081151590910201915038808080611b59565b611bbf33611cc1565b6040519081602091611bd2838301611ab7565b68636f6e74726163742f60b81b8152611bf48251809386600985019101611535565b01602f60f81b600982015260009060035493611c0f85611a7d565b94600190818116908115611c9e5750600114611c3c575b505050611670925003601f1981018352826115b6565b9091925060036000527fc2575a0e9e593c00f959f8c92f12db2869c3395a3b0502d05e2516446f71f85b906000915b868310611c87575050505061167092600a910101388080611c26565b8054838601600a0152879550918301918101611c6b565b915050600a935061167095915060ff191683830152801515020101388080611c26565b604051906001600160a01b0316611cd782611584565b602a82526020908183016040368237835115611dce57603090538251600190811015611dce57607860218501536029905b808211611d5c575050611d19575090565b6064906040519062461bcd60e51b825280600483015260248201527f537472696e67733a20686578206c656e67746820696e73756666696369656e746044820152fd5b9091600f81166010811015611db9578551841015611db9576f181899199a1a9b1b9c1cb0b131b232b360811b901a85840185015360041c918015611da4576000190190611d08565b60246000634e487b7160e01b81526011600452fd5b60246000634e487b7160e01b81526032600452fd5b634e487b7160e01b600052603260045260246000fd5b611670601191611df330611cc1565b906000526006602052611e70604060002060056020526001611e62604060002092604051978896611e2660208901611ab7565b692f636f6e74726163742f60b01b8152611e4a825180936020600a85019101611535565b01662f746f6b656e2f60c81b600a8201520190611b33565b602f60f81b81520190611b33565b03601f1981018352826115b6565b6116706011601092611e8f33611cc1565b906000526006602052611f0560406000206040519586936e7b70726f706572746965735f75726960881b6020860152611eca602f8601611ab7565b68636f6e74726163742f60b81b8152611eed825180936020600985019101611535565b01662f746f6b656e2f60c81b60098201520190611b33565b6f17b83937b832b93a34b2b9973539b7b760811b8152607d60f81b601082015203600e198101845201826115b656feb10e2d527612073b26eecdfd717e6a320cf44b4afac2b0732d9fcbe2b7fa0cf6a26469706673582212204acf999d970adc8d8fc934244bb0b1eeca1d242ed83b1a407b04f51749a4b83064736f6c634300081100332f8788117e7eff1d82e926ec794901d17c78024a50270940304540a733656f0db10e2d527612073b26eecdfd717e6a320cf44b4afac2b0732d9fcbe2b7fa0cf6",
  "linkReferences": {},
  "deployedLinkReferences": {}
}