{
  "_format": "hh-sol-artifact-1",
  "contractName": "Service",
  "sourceName": "contracts/Service.sol",
  "abi": [
    {
      "inputs": [
        {
          "internalType": "address",
          "name": "adminAddress_",
          "type": "address"
        },
        {
          "internalType": "address",
          "name": "mktAdmin_",
          "type": "address"
        },
        {
          "internalType": "address",
          "name": "slotRegistry_",
          "type": "address"
        },
        {
          "internalType": "address",
          "name": "pool_",
          "type": "address"
        },
        {
          "internalType": "address",
          "name": "valueContractAddresss_",
          "type": "address"
        },
        {
          "internalType": "uint256",
          "name": "defaultSlot_",
          "type": "uint256"
        },
        {
          "internalType": "string",
          "name": "name_",
          "type": "string"
        },
        {
          "internalType": "string",
          "name": "symbol_",
          "type": "string"
        },
        {
          "internalType": "string",
          "name": "baseuri_",
          "type": "string"
        },
        {
          "internalType": "string",
          "name": "contractDescription_",
          "type": "string"
        },
        {
          "internalType": "string",
          "name": "contractImage_",
          "type": "string"
        },
        {
          "internalType": "string",
          "name": "contractType_",
          "type": "string"
        },
        {
          "internalType": "uint8",
          "name": "decimals_",
          "type": "uint8"
        }
      ],
      "stateMutability": "nonpayable",
      "type": "constructor"
    },
    {
      "anonymous": false,
      "inputs": [
        {
          "indexed": true,
          "internalType": "address",
          "name": "_owner",
          "type": "address"
        },
        {
          "indexed": true,
          "internalType": "address",
          "name": "_approved",
          "type": "address"
        },
        {
          "indexed": true,
          "internalType": "uint256",
          "name": "_tokenId",
          "type": "uint256"
        }
      ],
      "name": "Approval",
      "type": "event"
    },
    {
      "anonymous": false,
      "inputs": [
        {
          "indexed": true,
          "internalType": "address",
          "name": "_owner",
          "type": "address"
        },
        {
          "indexed": true,
          "internalType": "address",
          "name": "_operator",
          "type": "address"
        },
        {
          "indexed": false,
          "internalType": "bool",
          "name": "_approved",
          "type": "bool"
        }
      ],
      "name": "ApprovalForAll",
      "type": "event"
    },
    {
      "anonymous": false,
      "inputs": [
        {
          "indexed": true,
          "internalType": "uint256",
          "name": "_tokenId",
          "type": "uint256"
        },
        {
          "indexed": true,
          "internalType": "address",
          "name": "_operator",
          "type": "address"
        },
        {
          "indexed": false,
          "internalType": "uint256",
          "name": "_value",
          "type": "uint256"
        }
      ],
      "name": "ApprovalValue",
      "type": "event"
    },
    {
      "anonymous": false,
      "inputs": [
        {
          "indexed": false,
          "internalType": "uint256",
          "name": "offeringId",
          "type": "uint256"
        },
        {
          "indexed": false,
          "internalType": "uint256",
          "name": "value",
          "type": "uint256"
        }
      ],
      "name": "ListOffer",
      "type": "event"
    },
    {
      "anonymous": false,
      "inputs": [
        {
          "indexed": false,
          "internalType": "address",
          "name": "contractAddress",
          "type": "address"
        }
      ],
      "name": "MetadataDescriptor",
      "type": "event"
    },
    {
      "anonymous": false,
      "inputs": [
        {
          "indexed": false,
          "internalType": "uint256",
          "name": "tokenId",
          "type": "uint256"
        },
        {
          "indexed": false,
          "internalType": "uint256",
          "name": "slot",
          "type": "uint256"
        },
        {
          "indexed": false,
          "internalType": "uint256",
          "name": "value",
          "type": "uint256"
        }
      ],
      "name": "MintAssetToken",
      "type": "event"
    },
    {
      "anonymous": false,
      "inputs": [
        {
          "indexed": false,
          "internalType": "uint256",
          "name": "tokenId",
          "type": "uint256"
        },
        {
          "indexed": false,
          "internalType": "uint256",
          "name": "slot",
          "type": "uint256"
        },
        {
          "indexed": false,
          "internalType": "uint256",
          "name": "value",
          "type": "uint256"
        }
      ],
      "name": "MintServiceToken",
      "type": "event"
    },
    {
      "anonymous": false,
      "inputs": [
        {
          "indexed": false,
          "internalType": "uint256",
          "name": "newTokenId",
          "type": "uint256"
        },
        {
          "indexed": false,
          "internalType": "uint256",
          "name": "slot",
          "type": "uint256"
        },
        {
          "indexed": false,
          "internalType": "uint256",
          "name": "value",
          "type": "uint256"
        }
      ],
      "name": "MintServiceTokenToAddress",
      "type": "event"
    },
    {
      "anonymous": false,
      "inputs": [
        {
          "indexed": true,
          "internalType": "bytes32",
          "name": "role",
          "type": "bytes32"
        },
        {
          "indexed": true,
          "internalType": "bytes32",
          "name": "previousAdminRole",
          "type": "bytes32"
        },
        {
          "indexed": true,
          "internalType": "bytes32",
          "name": "newAdminRole",
          "type": "bytes32"
        }
      ],
      "name": "RoleAdminChanged",
      "type": "event"
    },
    {
      "anonymous": false,
      "inputs": [
        {
          "indexed": true,
          "internalType": "bytes32",
          "name": "role",
          "type": "bytes32"
        },
        {
          "indexed": true,
          "internalType": "address",
          "name": "account",
          "type": "address"
        },
        {
          "indexed": true,
          "internalType": "address",
          "name": "sender",
          "type": "address"
        }
      ],
      "name": "RoleGranted",
      "type": "event"
    },
    {
      "anonymous": false,
      "inputs": [
        {
          "indexed": true,
          "internalType": "bytes32",
          "name": "role",
          "type": "bytes32"
        },
        {
          "indexed": true,
          "internalType": "address",
          "name": "account",
          "type": "address"
        },
        {
          "indexed": true,
          "internalType": "address",
          "name": "sender",
          "type": "address"
        }
      ],
      "name": "RoleRevoked",
      "type": "event"
    },
    {
      "anonymous": false,
      "inputs": [
        {
          "indexed": true,
          "internalType": "address",
          "name": "metadataDescriptor",
          "type": "address"
        }
      ],
      "name": "SetMetadataDescriptor",
      "type": "event"
    },
    {
      "anonymous": false,
      "inputs": [
        {
          "indexed": true,
          "internalType": "uint256",
          "name": "_tokenId",
          "type": "uint256"
        },
        {
          "indexed": true,
          "internalType": "uint256",
          "name": "_oldSlot",
          "type": "uint256"
        },
        {
          "indexed": true,
          "internalType": "uint256",
          "name": "_newSlot",
          "type": "uint256"
        }
      ],
      "name": "SlotChanged",
      "type": "event"
    },
    {
      "anonymous": false,
      "inputs": [
        {
          "indexed": true,
          "internalType": "address",
          "name": "_from",
          "type": "address"
        },
        {
          "indexed": true,
          "internalType": "address",
          "name": "_to",
          "type": "address"
        },
        {
          "indexed": true,
          "internalType": "uint256",
          "name": "_tokenId",
          "type": "uint256"
        }
      ],
      "name": "Transfer",
      "type": "event"
    },
    {
      "anonymous": false,
      "inputs": [
        {
          "indexed": true,
          "internalType": "uint256",
          "name": "_fromTokenId",
          "type": "uint256"
        },
        {
          "indexed": true,
          "internalType": "uint256",
          "name": "_toTokenId",
          "type": "uint256"
        },
        {
          "indexed": false,
          "internalType": "uint256",
          "name": "_value",
          "type": "uint256"
        }
      ],
      "name": "TransferValue",
      "type": "event"
    },
    {
      "anonymous": false,
      "inputs": [
        {
          "indexed": false,
          "internalType": "uint256",
          "name": "fromTokenId",
          "type": "uint256"
        },
        {
          "indexed": false,
          "internalType": "uint256",
          "name": "toTokenId",
          "type": "uint256"
        },
        {
          "indexed": false,
          "internalType": "uint256",
          "name": "value",
          "type": "uint256"
        }
      ],
      "name": "ValueTransfer",
      "type": "event"
    },
    {
      "inputs": [],
      "name": "DEFAULT_ADMIN_ROLE",
      "outputs": [
        {
          "internalType": "bytes32",
          "name": "",
          "type": "bytes32"
        }
      ],
      "stateMutability": "view",
      "type": "function"
    },
    {
      "inputs": [],
      "name": "MKT_ARBITRATOR_ROLE",
      "outputs": [
        {
          "internalType": "bytes32",
          "name": "",
          "type": "bytes32"
        }
      ],
      "stateMutability": "view",
      "type": "function"
    },
    {
      "inputs": [],
      "name": "SERVICE_ADMIN_ROLE",
      "outputs": [
        {
          "internalType": "bytes32",
          "name": "",
          "type": "bytes32"
        }
      ],
      "stateMutability": "view",
      "type": "function"
    },
    {
      "inputs": [
        {
          "internalType": "string",
          "name": "uri_",
          "type": "string"
        }
      ],
      "name": "_setBaseURI",
      "outputs": [],
      "stateMutability": "nonpayable",
      "type": "function"
    },
    {
      "inputs": [
        {
          "internalType": "uint256",
          "name": "tokenId_",
          "type": "uint256"
        },
        {
          "internalType": "address",
          "name": "operator_",
          "type": "address"
        }
      ],
      "name": "allowance",
      "outputs": [
        {
          "internalType": "uint256",
          "name": "",
          "type": "uint256"
        }
      ],
      "stateMutability": "view",
      "type": "function"
    },
    {
      "inputs": [
        {
          "internalType": "address",
          "name": "to_",
          "type": "address"
        },
        {
          "internalType": "uint256",
          "name": "tokenId_",
          "type": "uint256"
        }
      ],
      "name": "approve",
      "outputs": [],
      "stateMutability": "payable",
      "type": "function"
    },
    {
      "inputs": [
        {
          "internalType": "uint256",
          "name": "tokenId_",
          "type": "uint256"
        },
        {
          "internalType": "address",
          "name": "to_",
          "type": "address"
        },
        {
          "internalType": "uint256",
          "name": "value_",
          "type": "uint256"
        }
      ],
      "name": "approve",
      "outputs": [],
      "stateMutability": "payable",
      "type": "function"
    },
    {
      "inputs": [
        {
          "internalType": "address",
          "name": "owner_",
          "type": "address"
        }
      ],
      "name": "balanceOf",
      "outputs": [
        {
          "internalType": "uint256",
          "name": "balance",
          "type": "uint256"
        }
      ],
      "stateMutability": "view",
      "type": "function"
    },
    {
      "inputs": [
        {
          "internalType": "uint256",
          "name": "tokenId_",
          "type": "uint256"
        }
      ],
      "name": "balanceOf",
      "outputs": [
        {
          "internalType": "uint256",
          "name": "",
          "type": "uint256"
        }
      ],
      "stateMutability": "view",
      "type": "function"
    },
    {
      "inputs": [],
      "name": "contractAdmin",
      "outputs": [
        {
          "internalType": "address",
          "name": "",
          "type": "address"
        }
      ],
      "stateMutability": "view",
      "type": "function"
    },
    {
      "inputs": [],
      "name": "contractURI",
      "outputs": [
        {
          "internalType": "string",
          "name": "",
          "type": "string"
        }
      ],
      "stateMutability": "view",
      "type": "function"
    },
    {
      "inputs": [],
      "name": "creditType",
      "outputs": [
        {
          "internalType": "string",
          "name": "",
          "type": "string"
        }
      ],
      "stateMutability": "view",
      "type": "function"
    },
    {
      "inputs": [],
      "name": "defaultSlot",
      "outputs": [
        {
          "internalType": "uint256",
          "name": "",
          "type": "uint256"
        }
      ],
      "stateMutability": "view",
      "type": "function"
    },
    {
      "inputs": [
        {
          "internalType": "uint256",
          "name": "tokenId_",
          "type": "uint256"
        }
      ],
      "name": "getApproved",
      "outputs": [
        {
          "internalType": "address",
          "name": "",
          "type": "address"
        }
      ],
      "stateMutability": "view",
      "type": "function"
    },
    {
      "inputs": [
        {
          "internalType": "bytes32",
          "name": "role",
          "type": "bytes32"
        }
      ],
      "name": "getRoleAdmin",
      "outputs": [
        {
          "internalType": "bytes32",
          "name": "",
          "type": "bytes32"
        }
      ],
      "stateMutability": "view",
      "type": "function"
    },
    {
      "inputs": [
        {
          "internalType": "uint256",
          "name": "tokenId",
          "type": "uint256"
        }
      ],
      "name": "getTokenDescription",
      "outputs": [
        {
          "internalType": "string",
          "name": "",
          "type": "string"
        }
      ],
      "stateMutability": "view",
      "type": "function"
    },
    {
      "inputs": [
        {
          "internalType": "uint256",
          "name": "tokenId",
          "type": "uint256"
        }
      ],
      "name": "getTokenImage",
      "outputs": [
        {
          "internalType": "string",
          "name": "",
          "type": "string"
        }
      ],
      "stateMutability": "view",
      "type": "function"
    },
    {
      "inputs": [
        {
          "internalType": "uint256",
          "name": "tokenId",
          "type": "uint256"
        }
      ],
      "name": "getTokenUUID",
      "outputs": [
        {
          "internalType": "string",
          "name": "",
          "type": "string"
        }
      ],
      "stateMutability": "view",
      "type": "function"
    },
    {
      "inputs": [
        {
          "internalType": "bytes32",
          "name": "role",
          "type": "bytes32"
        },
        {
          "internalType": "address",
          "name": "account",
          "type": "address"
        }
      ],
      "name": "grantRole",
      "outputs": [],
      "stateMutability": "nonpayable",
      "type": "function"
    },
    {
      "inputs": [
        {
          "internalType": "bytes32",
          "name": "role",
          "type": "bytes32"
        },
        {
          "internalType": "address",
          "name": "account",
          "type": "address"
        }
      ],
      "name": "hasRole",
      "outputs": [
        {
          "internalType": "bool",
          "name": "",
          "type": "bool"
        }
      ],
      "stateMutability": "view",
      "type": "function"
    },
    {
      "inputs": [
        {
          "internalType": "address",
          "name": "owner_",
          "type": "address"
        },
        {
          "internalType": "address",
          "name": "operator_",
          "type": "address"
        }
      ],
      "name": "isApprovedForAll",
      "outputs": [
        {
          "internalType": "bool",
          "name": "",
          "type": "bool"
        }
      ],
      "stateMutability": "view",
      "type": "function"
    },
    {
      "inputs": [
        {
          "internalType": "uint256",
          "name": "expiration_",
          "type": "uint256"
        },
        {
          "internalType": "uint256",
          "name": "tokenId_",
          "type": "uint256"
        },
        {
          "internalType": "uint256",
          "name": "price_",
          "type": "uint256"
        },
        {
          "internalType": "string",
          "name": "assetId_",
          "type": "string"
        },
        {
          "internalType": "string",
          "name": "side_",
          "type": "string"
        }
      ],
      "name": "listOffer",
      "outputs": [],
      "stateMutability": "nonpayable",
      "type": "function"
    },
    {
      "inputs": [],
      "name": "metadataDescriptor",
      "outputs": [
        {
          "internalType": "contract IERC3525MetadataDescriptor",
          "name": "",
          "type": "address"
        }
      ],
      "stateMutability": "view",
      "type": "function"
    },
    {
      "inputs": [
        {
          "internalType": "address",
          "name": "owner_",
          "type": "address"
        },
        {
          "internalType": "uint256",
          "name": "slot_",
          "type": "uint256"
        },
        {
          "internalType": "uint256",
          "name": "value_",
          "type": "uint256"
        },
        {
          "internalType": "string",
          "name": "uuid_",
          "type": "string"
        },
        {
          "internalType": "string",
          "name": "tokenDescription_",
          "type": "string"
        },
        {
          "internalType": "string",
          "name": "tokenImage_",
          "type": "string"
        },
        {
          "internalType": "string",
          "name": "property_",
          "type": "string"
        }
      ],
      "name": "mint",
      "outputs": [
        {
          "internalType": "uint256",
          "name": "",
          "type": "uint256"
        }
      ],
      "stateMutability": "nonpayable",
      "type": "function"
    },
    {
      "inputs": [
        {
          "internalType": "address",
          "name": "owner_",
          "type": "address"
        },
        {
          "internalType": "uint256",
          "name": "expiration_",
          "type": "uint256"
        },
        {
          "internalType": "uint256",
          "name": "tokenId_",
          "type": "uint256"
        },
        {
          "internalType": "uint256",
          "name": "price_",
          "type": "uint256"
        },
        {
          "internalType": "string",
          "name": "assetId_",
          "type": "string"
        },
        {
          "internalType": "string",
          "name": "side_",
          "type": "string"
        }
      ],
      "name": "mktListOffer",
      "outputs": [],
      "stateMutability": "nonpayable",
      "type": "function"
    },
    {
      "inputs": [],
      "name": "name",
      "outputs": [
        {
          "internalType": "string",
          "name": "",
          "type": "string"
        }
      ],
      "stateMutability": "view",
      "type": "function"
    },
    {
      "inputs": [
        {
          "internalType": "address",
          "name": "owner_",
          "type": "address"
        },
        {
          "internalType": "uint256",
          "name": "slot_",
          "type": "uint256"
        },
        {
          "internalType": "uint256",
          "name": "value_",
          "type": "uint256"
        },
        {
          "internalType": "uint256",
          "name": "discountBasisPts_",
          "type": "uint256"
        },
        {
          "internalType": "string",
          "name": "uuid_",
          "type": "string"
        },
        {
          "internalType": "string",
          "name": "tokenDescription_",
          "type": "string"
        },
        {
          "internalType": "string",
          "name": "tokenImage_",
          "type": "string"
        },
        {
          "internalType": "string",
          "name": "property_",
          "type": "string"
        }
      ],
      "name": "networkMintWithDiscount",
      "outputs": [
        {
          "internalType": "uint256",
          "name": "",
          "type": "uint256"
        }
      ],
      "stateMutability": "nonpayable",
      "type": "function"
    },
    {
      "inputs": [
        {
          "internalType": "address",
          "name": "owner_",
          "type": "address"
        },
        {
          "internalType": "uint256",
          "name": "slot_",
          "type": "uint256"
        },
        {
          "internalType": "uint256",
          "name": "value_",
          "type": "uint256"
        },
        {
          "internalType": "uint256",
          "name": "valueRate_",
          "type": "uint256"
        },
        {
          "internalType": "string",
          "name": "uuid_",
          "type": "string"
        },
        {
          "internalType": "string",
          "name": "tokenDescription_",
          "type": "string"
        },
        {
          "internalType": "string",
          "name": "tokenImage_",
          "type": "string"
        },
        {
          "internalType": "string",
          "name": "property_",
          "type": "string"
        }
      ],
      "name": "networkMintWithValueRate",
      "outputs": [
        {
          "internalType": "uint256",
          "name": "",
          "type": "uint256"
        }
      ],
      "stateMutability": "nonpayable",
      "type": "function"
    },
    {
      "inputs": [
        {
          "internalType": "uint256",
          "name": "tokenId_",
          "type": "uint256"
        }
      ],
      "name": "ownerOf",
      "outputs": [
        {
          "internalType": "address",
          "name": "owner_",
          "type": "address"
        }
      ],
      "stateMutability": "view",
      "type": "function"
    },
    {
      "inputs": [
        {
          "internalType": "uint256",
          "name": "slotId_",
          "type": "uint256"
        }
      ],
      "name": "registerOnSlot",
      "outputs": [],
      "stateMutability": "nonpayable",
      "type": "function"
    },
    {
      "inputs": [
        {
          "internalType": "bytes32",
          "name": "role",
          "type": "bytes32"
        },
        {
          "internalType": "address",
          "name": "account",
          "type": "address"
        }
      ],
      "name": "renounceRole",
      "outputs": [],
      "stateMutability": "nonpayable",
      "type": "function"
    },
    {
      "inputs": [
        {
          "internalType": "bytes32",
          "name": "role",
          "type": "bytes32"
        },
        {
          "internalType": "address",
          "name": "account",
          "type": "address"
        }
      ],
      "name": "revokeRole",
      "outputs": [],
      "stateMutability": "nonpayable",
      "type": "function"
    },
    {
      "inputs": [
        {
          "internalType": "address",
          "name": "from_",
          "type": "address"
        },
        {
          "internalType": "address",
          "name": "to_",
          "type": "address"
        },
        {
          "internalType": "uint256",
          "name": "tokenId_",
          "type": "uint256"
        }
      ],
      "name": "safeTransferFrom",
      "outputs": [],
      "stateMutability": "payable",
      "type": "function"
    },
    {
      "inputs": [
        {
          "internalType": "address",
          "name": "from_",
          "type": "address"
        },
        {
          "internalType": "address",
          "name": "to_",
          "type": "address"
        },
        {
          "internalType": "uint256",
          "name": "tokenId_",
          "type": "uint256"
        },
        {
          "internalType": "bytes",
          "name": "data_",
          "type": "bytes"
        }
      ],
      "name": "safeTransferFrom",
      "outputs": [],
      "stateMutability": "payable",
      "type": "function"
    },
    {
      "inputs": [
        {
          "internalType": "address",
          "name": "operator_",
          "type": "address"
        },
        {
          "internalType": "bool",
          "name": "approved_",
          "type": "bool"
        }
      ],
      "name": "setApprovalForAll",
      "outputs": [],
      "stateMutability": "nonpayable",
      "type": "function"
    },
    {
      "inputs": [
        {
          "internalType": "uint256",
          "name": "tokenId_",
          "type": "uint256"
        }
      ],
      "name": "slotOf",
      "outputs": [
        {
          "internalType": "uint256",
          "name": "",
          "type": "uint256"
        }
      ],
      "stateMutability": "view",
      "type": "function"
    },
    {
      "inputs": [
        {
          "internalType": "uint256",
          "name": "slot_",
          "type": "uint256"
        }
      ],
      "name": "slotURI",
      "outputs": [
        {
          "internalType": "string",
          "name": "",
          "type": "string"
        }
      ],
      "stateMutability": "view",
      "type": "function"
    },
    {
      "inputs": [
        {
          "internalType": "bytes4",
          "name": "interfaceId",
          "type": "bytes4"
        }
      ],
      "name": "supportsInterface",
      "outputs": [
        {
          "internalType": "bool",
          "name": "",
          "type": "bool"
        }
      ],
      "stateMutability": "view",
      "type": "function"
    },
    {
      "inputs": [],
      "name": "symbol",
      "outputs": [
        {
          "internalType": "string",
          "name": "",
          "type": "string"
        }
      ],
      "stateMutability": "view",
      "type": "function"
    },
    {
      "inputs": [
        {
          "internalType": "uint256",
          "name": "index_",
          "type": "uint256"
        }
      ],
      "name": "tokenByIndex",
      "outputs": [
        {
          "internalType": "uint256",
          "name": "",
          "type": "uint256"
        }
      ],
      "stateMutability": "view",
      "type": "function"
    },
    {
      "inputs": [
        {
          "internalType": "address",
          "name": "owner_",
          "type": "address"
        },
        {
          "internalType": "uint256",
          "name": "index_",
          "type": "uint256"
        }
      ],
      "name": "tokenOfOwnerByIndex",
      "outputs": [
        {
          "internalType": "uint256",
          "name": "",
          "type": "uint256"
        }
      ],
      "stateMutability": "view",
      "type": "function"
    },
    {
      "inputs": [
        {
          "internalType": "uint256",
          "name": "tokenId_",
          "type": "uint256"
        }
      ],
      "name": "tokenURI",
      "outputs": [
        {
          "internalType": "string",
          "name": "",
          "type": "string"
        }
      ],
      "stateMutability": "view",
      "type": "function"
    },
    {
      "inputs": [],
      "name": "totalSupply",
      "outputs": [
        {
          "internalType": "uint256",
          "name": "",
          "type": "uint256"
        }
      ],
      "stateMutability": "view",
      "type": "function"
    },
    {
      "inputs": [
        {
          "internalType": "uint256",
          "name": "fromTokenId_",
          "type": "uint256"
        },
        {
          "internalType": "address",
          "name": "to_",
          "type": "address"
        },
        {
          "internalType": "uint256",
          "name": "value_",
          "type": "uint256"
        }
      ],
      "name": "transferFrom",
      "outputs": [
        {
          "internalType": "uint256",
          "name": "",
          "type": "uint256"
        }
      ],
      "stateMutability": "payable",
      "type": "function"
    },
    {
      "inputs": [
        {
          "internalType": "address",
          "name": "from_",
          "type": "address"
        },
        {
          "internalType": "address",
          "name": "to_",
          "type": "address"
        },
        {
          "internalType": "uint256",
          "name": "tokenId_",
          "type": "uint256"
        }
      ],
      "name": "transferFrom",
      "outputs": [],
      "stateMutability": "payable",
      "type": "function"
    },
    {
      "inputs": [
        {
          "internalType": "uint256",
          "name": "fromTokenId_",
          "type": "uint256"
        },
        {
          "internalType": "uint256",
          "name": "toTokenId_",
          "type": "uint256"
        },
        {
          "internalType": "uint256",
          "name": "value_",
          "type": "uint256"
        }
      ],
      "name": "transferFrom",
      "outputs": [],
      "stateMutability": "payable",
      "type": "function"
    },
    {
      "inputs": [
        {
          "internalType": "string",
          "name": "assetId_",
          "type": "string"
        },
        {
          "internalType": "string",
          "name": "side_",
          "type": "string"
        }
      ],
      "name": "validOffers",
      "outputs": [
        {
          "components": [
            {
              "internalType": "uint256",
              "name": "offerId",
              "type": "uint256"
            },
            {
              "internalType": "address",
              "name": "owner",
              "type": "address"
            },
            {
              "internalType": "string",
              "name": "side",
              "type": "string"
            },
            {
              "internalType": "uint256",
              "name": "price",
              "type": "uint256"
            },
            {
              "internalType": "uint256",
              "name": "tokenId",
              "type": "uint256"
            },
            {
              "internalType": "uint256",
              "name": "expiration",
              "type": "uint256"
            }
          ],
          "internalType": "struct Service.Offer[]",
          "name": "",
          "type": "tuple[]"
        }
      ],
      "stateMutability": "view",
      "type": "function"
    },
    {
      "inputs": [],
      "name": "valueContractAddress",
      "outputs": [
        {
          "internalType": "address",
          "name": "",
          "type": "address"
        }
      ],
      "stateMutability": "view",
      "type": "function"
    },
    {
      "inputs": [],
      "name": "valueDecimals",
      "outputs": [
        {
          "internalType": "uint8",
          "name": "",
          "type": "uint8"
        }
      ],
      "stateMutability": "view",
      "type": "function"
    }
  ],
  "bytecode": "0x60c0806040523462000987576000608052620074428038038091620000258285620009be565b83398101906101a081830312620006a1576200004181620009e2565b916200005060208301620009e2565b6200005e60408401620009e2565b926200006d60608201620009e2565b906200007c60808201620009e2565b9060a08101519260c082015160018060401b038111620006a15786620000a491840162000a1c565b60e08301519095906001600160401b038111620006a15787620000c991850162000a1c565b6101008401516001600160401b038111620006a15788620000ec91860162000a1c565b6101208501519097906001600160401b038111620006a157896200011291870162000a1c565b60a0526101408501516001600160401b038111620006a157896200013891870162000a1c565b6101608601519099906001600160401b038111620006a157610180916200016191880162000a1c565b9501519060ff82168203620006a157600160035580516001600160401b0381116200064b57608051805490600182811c921680156200097c575b6020831014620008925750601f811162000930575b5060805191602092601f8311600114620008c0575060805192839183620008b4575b50508160011b916000199060031b1c19161790555b81516001600160401b0381116200064b57600154608051600182811c92168015620008a9575b6020831014620008925750601f811162000845575b50608051602090601f8311600114620007ce5750819060ff9460805192620007c2575b50508160011b916000199060031b1c1916176001555b1660ff19600254161760025560805180526009602052608051604081209060018060a01b038316905260205260805160ff6040822054161562000773575b50600b80546001600160a01b03199081166001600160a01b0393841617909155600c869055600a805482168b8416179055600d805482168a8416179055600e8054909116929091169190911790556010546040518251919291602080830192916200031e91908390620003108187858a01620009f7565b8101038084520182620009be565b5190206040516374696d6560e01b60208201526004815262000340816200098c565b805160209091012003620006a757506080515b600481101562000689576001600160a81b03199091166001600160a01b039283161760a09190911b60ff60a01b161760108190559085163b15620006a15760ff90604051926394b39b0960e01b845260018060a01b0388166004850152602484015260a01c1660048110156200068957604482015260805181606481836001600160a01b0389165af180156200067c5762000663575b50604051916001600160401b036120c58401908111908411176200064b57620004486200042f6200045f936120c56200535d873960806120c58701818152019062000a77565b6120c58501810360206120c58701015260a05162000a77565b906120c58401820360406120c58601015262000a77565b6001600160a01b039092166120c5820160600152608051918190039082f09081156200063f5750600880546001600160a01b0319166001600160a01b03928316179055600b541660008181527f3d62299d961dc9bf64f24e2e5b7d5a2b17ee5fc8163a3ddca90e52de8744675560205260409020547f1cd6d520d98babae1045eb69c31ecab800996aa332094cb55c0ac10362e9b0c9919060ff1615620005fc575b50506001600160a01b03811660009081527ff0bca53ec534e170e0b4115320ce2b072ee8e3338cc6b0c7b13351839d628e0a60205260409020547f9a95e87c5af084bf5db8491c3a6515da9dd6da39b24b0eb0af08d7b9cd808d919060ff1615620005ac575b7f9ac4f8025631594629895b778dc5ee88d01673a254a2291f6b6b174ad25230ca602060018060a01b0360085416604051908152a16040516148be908162000a9f8239f35b60008181526009602090815260408083206001600160a01b0395909516808452949091528120805460ff1916600117905533929190600080516020620074228339815191529080a4388062000567565b8160005260096020526040600020816000526020526040600020600160ff19825416179055339160008051602062007422833981519152600080a4388062000501565b604051903d90823e3d90fd5b634e487b7160e01b6080515260416004526024608051fd5b6001600160401b0381116200064b5760405238620003e9565b6040513d608051823e3d90fd5b634e487b7160e01b6080515260216004526024608051fd5b60805180fd5b6040516020810190620006c76020828551620003108187858a01620009f7565b5190206040516020810190630c6c2e6d60e31b825260048152620006eb816200098c565b51902003620006fd5750600162000353565b6040516200071d60208281620003108183019687815193849201620009f7565b5190206040805165636f756e747360d01b6020820152600681529081018082116001600160401b03909111176200064b57604081810190528051602090910120036200076b57600262000353565b600362000353565b8052600960209081526080805160408082206001600160a01b038616928390529093529051918220805460ff191660011790553391600080516020620074228339815191528180a43862000299565b01519050388062000245565b60019094929394526080519160208320925b601f19851681106200082c575091839160019360ff9695601f1981161062000812575b505050811b016001556200025b565b015160001960f88460031b161c1916905538808062000803565b91926020600181928685015181550194019201620007e0565b60016080515260805160208120601f840160051c8101602085106200088a575b601f840160051c820181106200087e5750505062000222565b82815560010162000865565b508062000865565b634e487b7160e01b90526022600452608051602490fd5b91607f16916200020d565b015190503880620001d2565b80526080516020812090938493925b601f198416851062000914576001945083601f19811610620008fa575b505050811b019055620001e7565b015160001960f88460031b161c19169055388080620008ec565b81810151835560209485019460019093019290910190620008cf565b608051805260805160208120601f840160051c81016020851062000974575b601f840160051c820181106200096857505050620001b0565b8281556001016200094f565b50806200094f565b91607f16916200019b565b600080fd5b604081019081106001600160401b03821117620009a857604052565b634e487b7160e01b600052604160045260246000fd5b601f909101601f19168101906001600160401b03821190821017620009a857604052565b51906001600160a01b03821682036200098757565b60005b83811062000a0b5750506000910152565b8181015183820152602001620009fa565b81601f82011215620009875780516001600160401b038111620009a8576040519262000a53601f8301601f191660200185620009be565b81845260208284010111620009875762000a749160208085019101620009f7565b90565b9060209162000a9281518092818552858086019101620009f7565b601f01601f191601019056fe608080604052600436101561001357600080fd5b600090813560e01c90816301ffc9a7146129895750806303e20953146127c557806306fdde0314612722578063081812fc14612703578063095ea7b3146125c857806309c3dd871461230a5780630f485c02146122f65780631375d843146122905780631429fb5714611cae57806318160ddd14611c9057806323b872dd14611c6b5780632425eeaf14611914578063248a9ca3146118e7578063263f3e7e146118c85780632f2ff15d146118155780632f745c591461176c578063310ed7f0146115a957806331b5b9071461151f57806336568abe1461148c5780633e7e86691461146b5780633f5d70671461124257806341815ee41461114757806342842e0e146111245780634f6ccce71461109f578063505a3853146110815780636352211e1461105057806370a082311461102c57806371f0442e14610fc65780637795524514610f9d578063840f711314610f745780638cb0a51114610e3057806391d1485414610de457806395d89b4114610d055780639cc7f70814610ce6578063a217fddf14610cca578063a22cb46514610bf5578063a7c9f2d614610bba578063aa20ce551461090b578063b198fc54146108e2578063b3154c081461087c578063b88d4fde1461081d578063be950a62146106d4578063c87b56dd1461063f578063cf2d6fe6146103d0578063d09445c214610395578063d547741f14610354578063e345e0bc14610325578063e8a3d485146102955763e985e9c51461023c57600080fd5b34610292576040366003190112610292576102556129de565b600260406102616129f4565b9360018060a01b038094168152600760205220019116600052602052602060ff604060002054166040519015158152f35b80fd5b5034610292578060031936011261029257600854604051631c97e82760e21b8152908290829060049082906001600160a01b03165afa90811561031a57826102f393926102f7575b5050604051918291602083526020830190612bb6565b0390f35b61031392503d8091833e61030b8183612a6e565b810190613171565b38806102dd565b6040513d84823e3d90fd5b503461029257604036600319011261029257602061034c6103446129f4565b6004356147dd565b604051908152f35b5034610292576040366003190112610292576103926004356103746129f4565b90808452600960205261038d6001604086200154612c3a565b612f6f565b80f35b503461029257806003193601126102925760206040517f9a95e87c5af084bf5db8491c3a6515da9dd6da39b24b0eb0af08d7b9cd808d918152f35b50346102925760c0366003190112610292576103ea6129de565b6064356001600160401b0360843581811161063b5761040d903690600401612ae1565b9060a43581811161063757610426903690600401612ae1565b93600f549461043486613861565b600f5583516020809501209283885260139283865260408920888a5286526001908160408b20019060018060a01b03166001600160601b0360a01b82541617905584895283865260408920888a5286528760408a205584895283865260408920888a528652600260408a2001928051928311610623576104b4845461302f565b601f81116105ea575b5086908a601f85116001146105705793604099979593819382936000805160206148698339815191529d9b999794610565575b50501b916000199060031b1c19161790555b81885280835285882085895283526024356005878a20015581885280835285882085895283526044356004878a200155818852825284872084885282528260038689200155865260148152610559838588206137ca565b8351928352820152a180f35b0151925038806104f0565b50848b52878b209293929190601f1984168c5b8181106105d55750916000805160206148698339815191529b99979593918560409c9a989694106105bc575b505050811b019055610502565b015160001960f88460031b161c191690553880806105af565b82840151855593860193928a01928a01610583565b61061390858c52888c20601f860160051c8101918a8710610619575b601f0160051c0190613870565b386104bd565b9091508190610606565b634e487b7160e01b8a52604160045260248afd5b8580fd5b8480fd5b50346102925760203660031901126102925760043561065d81614560565b80156106c0575b61066d90613386565b6008546040516344a5a61760e11b815260048101929092528290829060249082906001600160a01b03165afa90811561031a57826102f393926102f7575050604051918291602083526020830190612bb6565b5061066d6106cd8261458e565b9050610664565b5034610292576020366003190112610292577f9a95e87c5af084bf5db8491c3a6515da9dd6da39b24b0eb0af08d7b9cd808d9181526009602052604081203360005260205260ff60406000205416156107b25760018060a01b039081600d541691600a541660ff60105460a01c16833b156107ae57604051916394b39b0960e01b835260048301526004356024830152600481101561079a5781606481858097819560448401525af1801561031a5761078a5750f35b61079390612a0a565b6102925780f35b634e487b7160e01b83526021600452602483fd5b8280fd5b60405162461bcd60e51b815260206004820152603760248201527f53656e646572206e6f7420617574686f72697a656420746f207265676973746560448201527f7220636f6e747261637420746f207468697320736c6f740000000000000000006064820152608490fd5b506080366003190112610292576108326129de565b61083a6129f4565b606435916001600160401b03831161087857366023840112156108785761086e610392933690602481600401359101612aaa565b91604435916132af565b8380fd5b503461029257602036600319011261029257600854604051631662a98160e31b81526004803590820152908290829060249082906001600160a01b03165afa90811561031a57826102f393926102f7575050604051918291602083526020830190612bb6565b50346102925780600319360112610292576010546040516001600160a01b039091168152602090f35b50346102925760208161091d36612aff565b96600399929591969994939454996109348b613861565b600355600e54604051630151086360e31b81526001600160a01b039384166004820152602481019290925260448201939093526064810194909452839160849183918b91165af1908115610baf578691610b75575b50868652601160205260408620556008546001600160a01b0316803b15610637576109dc8692918392604051948580948193632108947560e21b83528d6004840152604060248401526044830190612bb6565b03925af1908115610b6a578591610b56575b50506008546001600160a01b0316803b1561063b57610a35859291839260405194858094819363246a908b60e01b83528c6004840152604060248401526044830190612bb6565b03925af1908115610b4b578491610b37575b50506008546001600160a01b0316803b1561087857610a8e8492918392604051948580948193630190503b60e61b83528b6004840152604060248401526044830190612bb6565b03925af1908115610b18578391610b23575b50506008546001600160a01b031690813b156107ae578291610ae691604051948580948193637e468a5160e01b8352896004840152604060248401526044830190612bb6565b03925af18015610b1857610b00575b602082604051908152f35b610b0a8391612a0a565b610b145781610af5565b5080fd5b6040513d85823e3d90fd5b610b2c90612a0a565b610b14578138610aa0565b610b4090612a0a565b6107ae578238610a47565b6040513d86823e3d90fd5b610b5f90612a0a565b6108785783386109ee565b6040513d87823e3d90fd5b9550506020853d602011610ba7575b81610b9160209383612a6e565b81010312610ba25786945138610989565b600080fd5b3d9150610b84565b6040513d88823e3d90fd5b503461029257806003193601126102925760206040517f1cd6d520d98babae1045eb69c31ecab800996aa332094cb55c0ac10362e9b0c98152f35b503461029257604036600319011261029257610c0f6129de565b602435908115158092036107ae576001600160a01b031690338214610c855733835260076020526002604084200182600052602052604060002060ff1981541660ff83161790556040519081527f17307eab39ab6107e8899845ad3d59bd9653f200f220920489ca2b5937696c3160203392a380f35b60405162461bcd60e51b815260206004820152601a60248201527f455243333532353a20617070726f766520746f2063616c6c65720000000000006044820152606490fd5b5034610292578060031936011261029257602090604051908152f35b503461029257602036600319011261029257602061034c600435614647565b503461029257806003193601126102925760405160006001805490610d298261302f565b80855291818116908115610dbd5750600114610d64575b6102f384610d5081860382612a6e565b604051918291602083526020830190612bb6565b600081815292507fb10e2d527612073b26eecdfd717e6a320cf44b4afac2b0732d9fcbe2b7fa0cf65b828410610da5575050508101602001610d5082610d40565b80546020858701810191909152909301928101610d8d565b60ff191660208087019190915292151560051b85019092019250610d509150839050610d40565b5034610292576040366003190112610292576040610e006129f4565b9160043581526009602052209060018060a01b0316600052602052602060ff604060002054166040519015158152f35b50610e3a36612bdb565b90610e4483614604565b83610e4e84614560565b80610f61575b15610ef15750610e7a6001600160a01b0380610e6f866133d2565b16908316141561332f565b610e848333613453565b15610e925761039292613f80565b60405162461bcd60e51b815260206004820152603160248201527f455243333532353a20617070726f76652063616c6c6572206973206e6f74206f6044820152701ddb995c881b9bdc88185c1c1c9bdd9959607a1b6064820152608490fd5b600e54938152601160205260408120549093919290916001600160a01b0316803b1561063b57604051638cb0a51160e01b815260048101939093526001600160a01b03909316602483015260448201529082908290818381606481015b03925af1801561031a5761078a57505080f35b50610f6b8461314a565b600c5414610e54565b50346102925780600319360112610292576008546040516001600160a01b039091168152602090f35b5034610292578060031936011261029257600a546040516001600160a01b039091168152602090f35b5034610292576020366003190112610292576008546040516338f8221760e11b81526004803590820152908290829060249082906001600160a01b03165afa90811561031a57826102f393926102f7575050604051918291602083526020830190612bb6565b503461029257602036600319011261029257602061034c61104b6129de565b6131cf565b503461029257602036600319011261029257602061106f6004356146f9565b6040516001600160a01b039091168152f35b50346102925780600319360112610292576020600c54604051908152f35b5034610292576020366003190112610292576004356005548110156110d3576110c960209161310f565b5054604051908152f35b60405162461bcd60e51b815260206004820152602360248201527f455243333532353a20676c6f62616c20696e646578206f7574206f6620626f756044820152626e647360e81b6064820152608490fd5b5061039261113136612c05565b906040519261113f84612a38565b8584526132af565b503461029257806003193601126102925760ff60105460a01c16600481101561122e57600381036111ac5750506102f360405161118381612a53565b60088152677072696f7269747960c01b6020820152604051918291602083526020830190612bb6565b806111d85750506102f36040516111c281612a53565b600481526374696d6560e01b6020820152610d50565b600214159050611209576102f36040516111f181612a53565b6006815265636f756e747360d01b6020820152610d50565b6102f360405161121881612a53565b60048152630c6c2e6d60e31b6020820152610d50565b634e487b7160e01b82526021600452602482fd5b50346102925760a0366003190112610292576001600160401b0360443560643582811161087857611277903690600401612ae1565b60843583811161063b5761128f903690600401612ae1565b600f549361129c85613861565b600f5582516020809401209182875260139182855260408820878952855260018060408a2001336001600160601b0360a01b82541617905584895283865260408920888a5286528760408a205584895283865260408920888a528652600260408a200192805192831161062357611313845461302f565b601f811161143d575b5086908a601f85116001146113c35793604099979593819382936000805160206148698339815191529d9b9997946113b8575b50501b916000199060031b1c19161790555b81885280835285882085895283526004356005878a20015581885280835285882085895283526024356004878a200155818852825284872084885282528260038689200155865260148152610559838588206137ca565b01519250388061134f565b50848b52878b209293929190601f1984168c5b8181106114285750916000805160206148698339815191529b99979593918560409c9a9896941061140f575b505050811b019055611361565b015160001960f88460031b161c19169055388080611402565b82840151855593860193928a01928a016113d6565b61146590858c52888c20601f860160051c8101918a871061061957601f0160051c0190613870565b3861131c565b5034610292578060031936011261029257602060ff60025416604051908152f35b5034610292576040366003190112610292576114a66129f4565b336001600160a01b038216036114c25761039290600435612f6f565b60405162461bcd60e51b815260206004820152602f60248201527f416363657373436f6e74726f6c3a2063616e206f6e6c792072656e6f756e636560448201526e103937b632b9903337b91039b2b63360891b6064820152608490fd5b503461029257602036600319011261029257806004356001600160401b0381116115a657611551903690600401612ae1565b6008546001600160a01b0316803b156115a2576040516355f804b360e01b8152602060048201529183918391829084908290611591906024830190612bb6565b03925af1801561031a5761078a5750f35b5050fd5b50fd5b506060366003190112610292576044356024356004356115c882614560565b80611759575b801561174a575b156116d357836115e482614560565b806116c0575b8061169d575b15611654575061164e836116267fdf7a601a0a201ccd4b4bfcfd610913188d931867997223d226f85f2f2673988a958433613eb8565b611631818585614152565b604051938493846040919493926060820195825260208201520152565b0390a180f35b600e549093906001600160a01b0316803b1561063b57604051630310ed7f60e41b8152600481019390935260248301939093526044820152908290829081838160648101610f4e565b506116a783614560565b80156115f057506116b78361314a565b600c54146115f0565b506116ca8261314a565b600c54146115ea565b60a460405162461bcd60e51b815260206004820152604460248201527f546f6b656e204944206f66207265636569766572206e6f74207265636f676e6960448201527f7a6564206279207468697320636f6e7472616374206f722074686520726567696064820152637374727960e01b6084820152fd5b506117548261458e565b6115d5565b506117638261314a565b600c54146115ce565b5034610292576040366003190112610292576117866129de565b90602435611793836131cf565b8110156117c55760406117b79260209460018060a01b03168152600785522061343b565b90546040519160031b1c8152f35b60405162461bcd60e51b815260206004820152602260248201527f455243333532353a206f776e657220696e646578206f7574206f6620626f756e604482015261647360f01b6064820152608490fd5b5034610292576040366003190112610292576004356118326129f4565b818352600960205261184a6001604085200154612c3a565b8183526009602052604083209060018060a01b0316908160005260205260ff6040600020541615611879578280f35b818352600960205260408320816000526020526040600020600160ff1982541617905533917f2f8788117e7eff1d82e926ec794901d17c78024a50270940304540a733656f0d8480a438808280f35b503461029257602036600319011261029257602061034c60043561314a565b50346102925760203660031901126102925760016040602092600435815260098452200154604051908152f35b5034610292576040366003190112610292576001600160401b036004358181116107ae57611946903690600401612ae1565b906024359081116107ae5761195f903690600401612ae1565b9080516020809201209182845260148252604084206040519081848254918281520191875284872090875b818110611c5757505050816119a0910382612a6e565b849282810191845b8151811015611a665786885260138352604088206119c682846147c9565b518952835260a0604089206040516119dd81612a1d565b81548152600180841b036001830154168682015260056119ff60028401613069565b9283604084015260038101546060840152600481015460808401520154928391015284815191012086518620149081611a5c575b50611a47575b611a4290613861565b6119a8565b94611a54611a4291613861565b959050611a39565b9050421038611a33565b5092939193611a7483613a32565b92611a826040519485612a6e565b808452611a91601f1991613a32565b0182885b828110611c1d575050508693875b8151811015611b7c578789526013845260408920611ac182846147c9565b518a5284526040892060405190611ad782612a1d565b8054825260018101546001600160a01b0316868301526005611afb60028301613069565b9182604085015260038101546060850152600481015460808501520154908160a084015286815191012085518a20149081611b72575b50611b46575b50611b4190613861565b611aa3565b9590611b6b82611b59611b419491613861565b98611b64828a6147c9565b52876147c9565b5090611b37565b9050421038611b31565b83898660405191838301848452825180915260408401948060408360051b870101940192955b828710611baf5785850386f35b909192938280600192603f1989820301855287519081518152848060a01b03838301511683820152611bef604083015160c0806040850152830190612bb6565b91606080820151908301526080808201519083015260a0809101519101529601920196019592919092611ba2565b604051611c2981612a1d565b8a81528a838201528a60608060408401528201528a60808201528a60a0820152828288010152018390611a95565b82548452928601926001928301920161198a565b50610392611c7836612c05565b91611c8b611c868433613453565b613248565b6134c4565b50346102925780600319360112610292576020600554604051908152f35b50346102925760e036600319011261029257611cc86129de565b6064356001600160401b0381116107ae57611ce7903690600401612ae1565b916084356001600160401b038111610b1457611d07903690600401612ae1565b60a4356001600160401b0381116107ae57611d26903690600401612ae1565b60c4356001600160401b03811161087857611d45903690600401612ae1565b9160035494611d5386613861565b6003556001600160a01b038116156122415785156121f257611d7486614560565b80156121e3575b61219e57604051611d8b81612a38565b6000815260405190611d9c82612a1d565b87825260243560208301526000604083015260018060a01b03831660608301526000608083015260a082015260055487600052600660205280604060002055600160401b81101561217257806001611df7920160055561310f565b9190916121885780518255602081015160018301556040810151600283015560608101516003830180546001600160a01b039283166001600160a01b031991821617909155608083015160048501805491909316911617905560a001518051916001600160401b0383116121725790602060058a9594930191611e7a8484613887565b0190600052602060002060005b8381106121525750505050611e9c82826137ed565b6001600160a01b031660007fddf252ad1be2c89b69c2b068fc378daa952ba7f163c4a11628f55a4df523b3ef8180a46024356000867fe4f48c240d3b994948aa54f3e2f5fca59263dfe1d52b6e4cf39a5d249b5ccb658280a48460005260066020526002611f0e60406000205461310f565b50019560443596611f20888254612fe5565b90558560007f0b2aac84f3ec956911fd78eae5311062972ff949f38412e8da39069d9f068cc660206040518b8152a36008546001600160a01b031690813b1561063757611f9486928392604051948580948193632108947560e21b83528d6004840152604060248401526044830190612bb6565b03925af18015610b6a5790859161213e575b50506008546001600160a01b031690813b1561063b57611fed8592839260405194858094819363246a908b60e01b83528c6004840152604060248401526044830190612bb6565b03925af18015610b4b5790849161212a575b50506008546001600160a01b031690813b156108785761204684928392604051948580948193630190503b60e61b83528b6004840152604060248401526044830190612bb6565b03925af18015610b1857908391612116575b50506008546001600160a01b031690813b156107ae5761209f83928392604051948580948193637e468a5160e01b83528a6004840152604060248401526044830190612bb6565b03925af1801561031a57612102575b6020837f84eeb48eca46cea54afc9753345f6038981672ea565f32885420829dfd88aea66120f78760405191829160243586846040919493926060820195825260208201520152565b0390a1604051908152f35b61210c8291612a0a565b61029257806120ae565b61211f90612a0a565b610b14578138612058565b61213390612a0a565b6107ae578238611fff565b61214790612a0a565b610878578338611fa6565b82516001600160a01b0316818301558a9550602090920191600101611e87565b634e487b7160e01b600052604160045260246000fd5b634e487b7160e01b600052600060045260246000fd5b60405162461bcd60e51b815260206004820152601d60248201527f455243333532353a20746f6b656e20616c7265616479206d696e7465640000006044820152606490fd5b506121ed8661458e565b611d7b565b60405162461bcd60e51b815260206004820152602160248201527f455243333532353a2063616e6e6f74206d696e74207a65726f20746f6b656e496044820152601960fa1b6064820152608490fd5b60405162461bcd60e51b815260206004820152602160248201527f455243333532353a206d696e7420746f20746865207a65726f206164647265736044820152607360f81b6064820152608490fd5b503461029257602036600319011261029257600854604051631375d84360e01b81526004803590820152908290829060249082906001600160a01b03165afa90811561031a57826102f393926102f7575050604051918291602083526020830190612bb6565b602061034c61230436612bdb565b91613a49565b503461029257602090816003193601126102925760043560018060a01b036008541690604051636c0360eb60e01b81528381600481865afa908115610b4b5784916125ae575b5082156123c157508290602460405180948193633601bfc560e11b835260048301525afa9182156123b557809261239a575b5050905b6102f3604051928284938452830190612bb6565b6123ae92503d8091833e61030b8183612a6e565b3880612382565b604051903d90823e3d90fd5b80519093925015612589578190807a184f03e93ff9f4daa797ed6e38ed64bf6a1f010000000000000000818181101561257b575b5050856d04ee2d6d415b85acef81000000008084101561256d575b5050662386f26fc100008083101561255e575b506305f5e1008083101561254f575b5061271080831015612540575b506064821015612530575b600a80921015612526575b6001908160218186019561248161246b88612a8f565b97612479604051998a612a6e565b808952612a8f565b878b019890601f1901368a3750860101905b6124f0575b505050506124db926124ea9260259260405195836124bf88955180928b8089019101612b93565b84019164736c6f742f60d81b8984015251809386840190612b93565b01036005810184520182612a6e565b90612386565b600019019083906f181899199a1a9b1b9c1cb0b131b232b360811b8282061a83530491821561252157919082612493565b612498565b9160010191612455565b919060646002910491019161244a565b6004919392049101913861243f565b60089193920491019138612432565b60109193920491019138612423565b930192909104908538612410565b6040945004915038806123f5565b5060405191508282016001600160401b038111838210176121725760405281526124ea565b6125c291503d8086833e61030b8183612a6e565b38612350565b506040366003190112610292576125dd6129de565b602435906001600160a01b0380806125f4856133d2565b169216916126048184141561332f565b8033149081156126dd575b501561267257826000526006602052600461262e60406000205461310f565b500180546001600160a01b03191683179055612649836133d2565b167f8c5be1e5ebec7d5bd14f71427d1e84f3dd0314c0f7b2291e5b200ac8c7c3b925600080a480f35b60405162461bcd60e51b815260206004820152603960248201527f455243333532353a20617070726f76652063616c6c6572206973206e6f74206f60448201527f776e6572206e6f7220617070726f76656420666f7220616c6c000000000000006064820152608490fd5b905084526007602052600260408520013360005260205260ff604060002054163861260f565b503461029257602036600319011261029257602061106f60043561340b565b5034610292578060031936011261029257604051600080546127438161302f565b80845290600190818116908115610dbd575060011461276c576102f384610d5081860382612a6e565b600080805292507f290decd9548b62a8d60345a988386fc84ba6bc95484008f6362f93160ef3e5635b8284106127ad575050508101602001610d5082610d40565b80546020858701810191909152909301928101612795565b5034610292576127d436612aff565b95919360ff600298929698541660018060a01b03600e541692604d82116129755781600a0a1561296157604051630bbed13160e21b81526001600160a01b0391909116600482015260248101949094526044840198909852600a9790970a9096046064820152948691906020908790608490829086905af195861561031a57829661292d575b506003549561286887613861565b600355868352601160205260408320556008546001600160a01b031690813b156107ae5782916128bc91604051948580948193632108947560e21b83528c6004840152604060248401526044830190612bb6565b03925af18015610baf57612916575b5060085485939291906001600160a01b0316803b1561063b57610a35859291839260405194858094819363246a908b60e01b83528c6004840152604060248401526044830190612bb6565b612924909591939295612a0a565b939091386128cb565b9095506020813d602011612959575b8161294960209383612a6e565b81010312610b145751943861285a565b3d915061293c565b634e487b7160e01b8b52601260045260248bfd5b634e487b7160e01b8b52601160045260248bfd5b905034610b14576020366003190112610b145760043563ffffffff60e01b81168091036107ae5760209250637965db0b60e01b81149081156129cd575b5015158152f35b6301ffc9a760e01b149050386129c6565b600435906001600160a01b0382168203610ba257565b602435906001600160a01b0382168203610ba257565b6001600160401b03811161217257604052565b60c081019081106001600160401b0382111761217257604052565b602081019081106001600160401b0382111761217257604052565b604081019081106001600160401b0382111761217257604052565b90601f801991011681019081106001600160401b0382111761217257604052565b6001600160401b03811161217257601f01601f191660200190565b929192612ab682612a8f565b91612ac46040519384612a6e565b829481845281830111610ba2578281602093846000960137010152565b9080601f83011215610ba257816020612afc93359101612aaa565b90565b610100600319820112610ba2576004356001600160a01b0381168103610ba257916024359160443591606435916001600160401b0390608435828111610ba25781612b4c91600401612ae1565b9260a435838111610ba25782612b6491600401612ae1565b9260c435818111610ba25783612b7c91600401612ae1565b9260e435918211610ba257612afc91600401612ae1565b60005b838110612ba65750506000910152565b8181015183820152602001612b96565b90602091612bcf81518092818552858086019101612b93565b601f01601f1916010190565b6060906003190112610ba257600435906024356001600160a01b0381168103610ba2579060443590565b6060906003190112610ba2576001600160a01b03906004358281168103610ba257916024359081168103610ba2579060443590565b60009080825260209060098252604092838120338252835260ff848220541615612c645750505050565b8351916001600160401b0390336060850183811186821017612f5b578752602a85528585019187368437855115612f475760308353855191600192831015612f33576078602188015360295b838111612ec95750612e875790875193608085019085821090821117612e7357885260428452868401946060368737845115612e5f57603086538451821015612e5f5790607860218601536041915b818311612df157505050612daf57612dab938693612d8f93612d80604894612d579a519a8b957f416363657373436f6e74726f6c3a206163636f756e74200000000000000000008c8801525180926037880190612b93565b8401917001034b99036b4b9b9b4b733903937b6329607d1b603784015251809386840190612b93565b01036028810187520185612a6e565b5192839262461bcd60e51b845260048401526024830190612bb6565b0390fd5b60648587519062461bcd60e51b825280600483015260248201527f537472696e67733a20686578206c656e67746820696e73756666696369656e746044820152fd5b909192600f81166010811015612e4b576f181899199a1a9b1b9c1cb0b131b232b360811b901a612e218588613008565b5360041c928015612e3757600019019190612cff565b634e487b7160e01b82526011600452602482fd5b634e487b7160e01b83526032600452602483fd5b634e487b7160e01b81526032600452602490fd5b634e487b7160e01b86526041600452602486fd5b60648789519062461bcd60e51b825280600483015260248201527f537472696e67733a20686578206c656e67746820696e73756666696369656e746044820152fd5b90600f81166010811015612f1f576f181899199a1a9b1b9c1cb0b131b232b360811b901a612ef7838a613008565b5360041c908015612f0b5760001901612cb0565b634e487b7160e01b87526011600452602487fd5b634e487b7160e01b88526032600452602488fd5b634e487b7160e01b86526032600452602486fd5b634e487b7160e01b85526032600452602485fd5b634e487b7160e01b85526041600452602485fd5b906000918083526009602052604083209160018060a01b03169182845260205260ff604084205416612fa057505050565b8083526009602052604083208284526020526040832060ff1981541690557ff6391f5c32d9c69d2a47ea670b442974b53935d1edc7fd64eb21e047a839171b339380a4565b91908201809211612ff257565b634e487b7160e01b600052601160045260246000fd5b908151811015613019570160200190565b634e487b7160e01b600052603260045260246000fd5b90600182811c9216801561305f575b602083101461304957565b634e487b7160e01b600052602260045260246000fd5b91607f169161303e565b906040519182600082549261307d8461302f565b9081845260019485811690816000146130ec57506001146130a9575b50506130a792500383612a6e565b565b9093915060005260209081600020936000915b8183106130d45750506130a793508201013880613099565b855488840185015294850194879450918301916130bc565b9150506130a794506020925060ff191682840152151560051b8201013880613099565b600554811015613019576006906005600052027f036b6384b5eca791c62761152d0c79bb0604c104a5fb6f4eb0703f3154bb3db00190600090565b61315381614604565b6000526006602052600161316b60406000205461310f565b50015490565b602081830312610ba2578051906001600160401b038211610ba2570181601f82011215610ba25780516131a381612a8f565b926131b16040519485612a6e565b81845260208284010111610ba257612afc9160208085019101612b93565b6001600160a01b031680156131ef57600052600760205260406000205490565b60405162461bcd60e51b815260206004820152602b60248201527f455243333532353a2062616c616e636520717565727920666f7220746865207a60448201526a65726f206164647265737360a81b6064820152608490fd5b1561324f57565b60405162461bcd60e51b815260206004820152603260248201527f455243333532353a207472616e736665722063616c6c6572206973206e6f74206044820152711bdddb995c881b9bdc88185c1c1c9bdd995960721b6064820152608490fd5b906132d39392916132c3611c868433613453565b6132ce8383836134c4565b61390b565b156132da57565b60405162461bcd60e51b815260206004820152602760248201527f455243333532353a207472616e7366657220746f206e6f6e204552433732315260448201526632b1b2b4bb32b960c91b6064820152608490fd5b1561333657565b60405162461bcd60e51b815260206004820152602260248201527f455243333532353a20617070726f76616c20746f2063757272656e74206f776e60448201526132b960f11b6064820152608490fd5b1561338d57565b60405162461bcd60e51b815260206004820152601960248201527f455243333532353a20696e76616c696420746f6b656e204944000000000000006044820152606490fd5b6133db81614604565b60005260066020526133f160406000205461310f565b50600301546001600160a01b0316906130a7821515613386565b61341481614604565b600052600660205261342a60406000205461310f565b50600401546001600160a01b031690565b80548210156130195760005260206000200190600090565b906001600160a01b038080613467846133d2565b1693169183831493841561349a575b508315613484575b50505090565b6134909192935061340b565b161438808061347e565b909350600052600760205260026040600020018260005260205260ff604060002054169238613476565b6134cd836133d2565b6001600160a01b039182169190811682900361375857808316928315613705576134f68561314a565b50613500856137a9565b506000918583526020906006825260409061351d8286205461310f565b50600490810180546001600160a01b03199081169091559091898782613542836133d2565b167f8c5be1e5ebec7d5bd14f71427d1e84f3dd0314c0f7b2291e5b200ac8c7c3b9258280a489875260068552600561357c8589205461310f565b500180549091858988818f5b8684106136ce57505050505050508054878255806136b5575b50508886526006845260036135b88488205461310f565b50019081541690558585526007835281852091825493600019948581019081116136a257906135e98893928661343b565b90549060031b1c9060018601908c8552818152838520549261362a8161360f868b61343b565b90919082549060031b600019811b9283911b16911916179055565b85525281832055898252812055815490811561368f57509282889261368b947fddf252ad1be2c89b69c2b068fc378daa952ba7f163c4a11628f55a4df523b3ef97960191613678838361343b565b909182549160031b1b19169055556137ed565b80a4565b634e487b7160e01b865260319052602485fd5b634e487b7160e01b885260118452602488fd5b6136c791885285882090810190613870565b38806135a1565b6136fb9486928b6136df878c61343b565b96905494835252209260031b1c168c5289528a88812055613861565b8690888b8f613588565b60405162461bcd60e51b815260206004820152602560248201527f455243333532353a207472616e7366657220746f20746865207a65726f206164604482015264647265737360d81b6064820152608490fd5b60405162461bcd60e51b8152602060048201526024808201527f455243333532353a207472616e736665722066726f6d20696e76616c6964206f6044820152633bb732b960e11b6064820152608490fd5b6137b281614604565b6000526006602052600261316b60406000205461310f565b90815491600160401b831015612172578261360f9160016130a79501815561343b565b9060406130a7926000908382526006602052600361380d8484205461310f565b500180546001600160a01b0319166001600160a01b0390921691821790558082526007602081815284842080548786526001919091018252858520559183529052206137ca565b91908203918211612ff257565b6000198114612ff25760010190565b81811061387b575050565b60008155600101613870565b90600160401b8111612172578154908083558181106138a557505050565b6130a79260005260206000209182019101613870565b90816020910312610ba257516001600160e01b031981168103610ba25790565b3d15613906573d906138ec82612a8f565b916138fa6040519384612a6e565b82523d6000602084013e565b606090565b9192813b63ffffffff1615613a2957602091613963916000604051958680958194630a85bd0160e11b9a8b845233600485015260018060a01b0380951660248501526044840152608060648401526084830190612bb6565b0393165af1600091816139f9575b506139eb5761397e6138db565b805190816139e65760405162461bcd60e51b815260206004820152603260248201527f4552433732313a207472616e7366657220746f206e6f6e20455243373231526560448201527131b2b4bb32b91034b6b83632b6b2b73a32b960711b6064820152608490fd5b602001fd5b6001600160e01b0319161490565b613a1b91925060203d8111613a22575b613a138183612a6e565b8101906138bb565b9038613971565b503d613a09565b50505050600190565b6001600160401b0381116121725760051b60200190565b919091600090808252602091601183526040928382205415600014613dd557613a73858433613eb8565b60035495613a8087613861565b600355613a8c8461314a565b906001600160a01b0380821691908215613d87578915613d3957613aaf8a614560565b8015613d2a575b613ce65784908851613ac781612a38565b8781528951888b8e613ad884612a1d565b8084528684018a81528285019184835260608601938b8552608087019580875260a0880198895260066005549b8c948352522055600160401b881015613cd257613b2960019889810160055561310f565b959095613cbe57906005959493929151855551888501555160028401558560038401915116906001600160601b0360a01b9182825416179055856004840192511690825416179055019051918251926001600160401b03841161062357908883928f9b9a99989796959485613b9d91613887565b0191895287892090895b848110613ca8575050505050507f6d811e6a20ae5461a4ef22a6998c1d958defe727f1cc522b6eb792bc8e6f726698979693869384613c859794613c0f613ca29a7f0b2aac84f3ec956911fd78eae5311062972ff949f38412e8da39069d9f068cc6966137ed565b857fddf252ad1be2c89b69c2b068fc378daa952ba7f163c4a11628f55a4df523b3ef8180a483857fe4f48c240d3b994948aa54f3e2f5fca59263dfe1d52b6e4cf39a5d249b5ccb658280a483835260068152613c6d8884205461310f565b50508751838152a3613c80858883614152565b61314a565b915192839286846040919493926060820195825260208201520152565b0390a190565b83518216818401558f9b50928901928501613ba7565b634e487b7160e01b8e5260048e905260248efd5b634e487b7160e01b8d52604160045260248dfd5b875162461bcd60e51b815260048101869052601d60248201527f455243333532353a20746f6b656e20616c7265616479206d696e7465640000006044820152606490fd5b50613d348a61458e565b613ab6565b875162461bcd60e51b815260048101869052602160248201527f455243333532353a2063616e6e6f74206d696e74207a65726f20746f6b656e496044820152601960fa1b6064820152608490fd5b875162461bcd60e51b815260048101869052602160248201527f455243333532353a206d696e7420746f20746865207a65726f206164647265736044820152607360f81b6064820152608490fd5b600e5484516307a42e0160e11b8152600481018590526001600160a01b0397881660248201526044810187905291969192918791849160649183918691165af1958615613eac578196613e55575b50505090613ca2613c857f6d811e6a20ae5461a4ef22a6998c1d958defe727f1cc522b6eb792bc8e6f7266949361314a565b909180939650813d8311613ea5575b613e6e8183612a6e565b8101031261029257505192613ca2613c857f6d811e6a20ae5461a4ef22a6998c1d958defe727f1cc522b6eb792bc8e6f7266613e23565b503d613e64565b508351903d90823e3d90fd5b613ec28183613f52565b613ecc8383613453565b1580613f46575b613ede575b50505050565b838110613f0157613ef893613ef291613854565b91613f80565b38808080613ed8565b60405162461bcd60e51b815260206004820152601f60248201527f455243333532353a20696e73756666696369656e7420616c6c6f77616e6365006044820152606490fd5b50600019811415613ed3565b613f5b81614604565b600052600460205260406000209060018060a01b031660005260205260406000205490565b6001600160a01b0380831693919284156140695783613f9e916140c1565b15613fec575b5060207f621b050de0ad08b51d19b48b3e6df75348c4de6bdd93e81b252ca62e28265b1b918360005260048252604060002085600052825280604060002055604051908152a3565b90826000526006602052600561400660406000205461310f565b500190815492600160401b841015612172578561404c8560209560017f621b050de0ad08b51d19b48b3e6df75348c4de6bdd93e81b252ca62e28265b1b9801815561343b565b909283549160031b90811b9283911b169119161790559150613fa4565b60405162461bcd60e51b815260206004820152602a60248201527f455243333532353a20617070726f76652076616c756520746f20746865207a65604482015269726f206164647265737360b01b6064820152608490fd5b60009082825260066020908082526040906140de8286205461310f565b509260058094015496865b8881106140fc5750505050505050905090565b81885283835261411a8187614113888c205461310f565b500161343b565b905460039190911b1c6001600160a01b03908116908816146141445761413f90613861565b6140e9565b505050505050505050600190565b61415b81614560565b80156143fa575b156143a55761417082614560565b8015614396575b15614343578060005260209260068452604092614197846000205461310f565b5081600052600686526141ad856000205461310f565b509060028101908154908582106142ec576001015460018401540361429157916002916141e08661422f98979695613854565b9055016141ee838254612fe5565b905580837f0b2aac84f3ec956911fd78eae5311062972ff949f38412e8da39069d9f068cc6888851868152a384519261422684612a38565b60008452614421565b15614238575050565b60849250519062461bcd60e51b82526004820152602d60248201527f455243333532353a207472616e736665722072656a656374656420627920455260448201526c21999a991aa932b1b2b4bb32b960991b6064820152fd5b865162461bcd60e51b815260048101899052602e60248201527f455243333532353a207472616e7366657220746f20746f6b656e20776974682060448201526d191a5999995c995b9d081cdb1bdd60921b6064820152608490fd5b875162461bcd60e51b8152600481018a9052602a60248201527f455243333532353a20696e73756666696369656e742062616c616e636520666f60448201526939103a3930b739b332b960b11b6064820152608490fd5b60405162461bcd60e51b815260206004820152602560248201527f455243333532353a207472616e7366657220746f20696e76616c696420746f6b604482015264195b88125160da1b6064820152608490fd5b506143a08261458e565b614177565b60405162461bcd60e51b815260206004820152602760248201527f455243333532353a207472616e736665722066726f6d20696e76616c696420746044820152661bdad95b88125160ca1b6064820152608490fd5b506144048161458e565b614162565b90816020910312610ba257518015158103610ba25790565b92909261442d846133d2565b803b63ffffffff1615614556576040516301ffc9a760e01b8152629ce20b60e01b6004820181905295602095926001600160a01b0316918681602481865afa60009181614527575b5061449057505050505050505061448a6138db565b50600190565b1561451b57600086946144cf604051978896879586948d865233600487015260248601526044850152606484015260a0608484015260a4830190612bb6565b03925af191821561450f576000926144f2575b50506001600160e01b0319161490565b6145089250803d10613a2257613a138183612a6e565b38806144e2565b6040513d6000823e3d90fd5b50505050505050600190565b614548919250883d8a1161454f575b6145408183612a6e565b810190614409565b9038614475565b503d614536565b5050505050600190565b6005541515908161456f575090565b809150600052600660205261458860406000205461310f565b50541490565b80600052601160205260406000205415908115916145aa575090565b600e546040516341ce4b3f60e01b81526004810192909252909150602090829060249082906001600160a01b03165afa90811561450f576000916145ec575090565b612afc915060203d811161454f576145408183612a6e565b6130a79061461181614560565b908115614636575b8115614626575b50613386565b614630915061458e565b38614620565b90506146418161458e565b90614619565b61465081614604565b61465981614560565b806146e6575b1561466d57612afc906137a9565b600090815260116020526040812054602060018060a01b03600e541691602460405180948193631398fee160e31b835260048301525afa9182156123b55780926146b657505090565b9091506020823d82116146de575b816146d160209383612a6e565b8101031261029257505190565b3d91506146c4565b506146f08161314a565b600c541461465f565b61470281614604565b61470b81614560565b806147b6575b1561471f57612afc906133d2565b60018060a01b0380600e54169160009081526011602052602060408220546024604051809681936331a9108f60e11b835260048301525afa9283156147a957819361476a5750505090565b909192506020813d82116147a1575b8161478660209383612a6e565b81010312610b1457519182168203610292575038808061347e565b3d9150614779565b50604051903d90823e3d90fd5b506147c08161314a565b600c5414614711565b80518210156130195760209160051b010190565b906147e782614604565b6147f082614560565b80614855575b1561480457612afc91613f52565b602060018060a01b0391604483600e541660009586526011845260408620549060405195869485936338d1782f60e21b855260048501521660248301525afa9182156123b55780926146b657505090565b5061485f8261314a565b600c54146147f656fe519b8a896d3cf44bd2d0545987d41a13bfb2ba37ce6ce401c753218178535608a2646970667358221220664e0b806d03c7b84b4e36e1985e5f407264f0b261300ab86c69a5f48d5e32c464736f6c634300081100336080604052346200048657620020c5803803806200001d816200048b565b9283398101608082820312620004865781516001600160401b0391908281116200048657816200004f918501620004b1565b91602092838501518281116200048657836200006d918701620004b1565b92604086015183811162000486576060916200008b918801620004b1565b9501516001600160a01b03811695908690036200048657815193838511620002c3576001948554938685811c951680156200047b575b88861014620002a2578190601f9586811162000425575b508890868311600114620003bd57600092620003b1575b5050600019600383901b1c191690861b1785555b805190848211620002c357600254908682811c92168015620003a6575b88831014620002a25781858493116200034f575b508790858311600114620002e557600092620002d9575b5050600019600383901b1c191690851b176002555b8051928311620002c35760039485548581811c91168015620002b8575b82821014620002a25783811162000257575b5080928411600114620001ed5750928293918392600094620001e1575b50501b9160001990841b1c19161790555b600080546001600160a01b031916919091179055604051611ba19081620005248239f35b015192503880620001ac565b919083601f1981168760005284600020946000905b888383106200023c575050501062000223575b505050811b019055620001bd565b015160001983861b60f8161c1916905538808062000215565b85870151885590960195948501948793509081019062000202565b86600052816000208480870160051c82019284881062000298575b0160051c019086905b8281106200028b5750506200018f565b600081550186906200027b565b9250819262000272565b634e487b7160e01b600052602260045260246000fd5b90607f16906200017d565b634e487b7160e01b600052604160045260246000fd5b0151905038806200014b565b90879350601f198316916002600052896000209260005b8b8282106200033857505084116200031e575b505050811b0160025562000160565b015160001960f88460031b161c191690553880806200030f565b8385015186558b97909501949384019301620002fc565b9091506002600052876000208580850160051c8201928a86106200039c575b918991869594930160051c01915b8281106200038c57505062000134565b600081558594508991016200037c565b925081926200036e565b91607f169162000120565b015190503880620000ef565b90889350601f19831691846000528a6000209260005b8c8282106200040e5750508411620003f4575b505050811b01855562000103565b015160001960f88460031b161c19169055388080620003e6565b8385015186558c97909501949384019301620003d3565b90915087600052886000208680850160051c8201928b861062000471575b918a91869594930160051c01915b82811062000461575050620000d8565b600081558594508a910162000451565b9250819262000443565b94607f1694620000c1565b600080fd5b6040519190601f01601f191682016001600160401b03811183821017620002c357604052565b919080601f84011215620004865782516001600160401b038111620002c357602090620004e7601f8201601f191683016200048b565b92818452828287010111620004865760005b8181106200050f57508260009394955001015290565b8581018301518482018401528201620004f956fe608060408181526004908136101561001657600080fd5b600092833560e01c9081631375d843146113cd57508063246a908b146112cf57806355f804b31461118b57806364140ec01461108c5780636c0360eb14610fcd5780636c037f8a14610d0f57806371f0442e14610c7b578063725fa09c146108c05780637e468a51146107c1578063842251d414610685578063894b4c2e146101755763b3154c08146100a857600080fd5b34610171576020918260031936011261016d5780358452825280832091815192848154906100d5826118ef565b80875292600192808416908115610149575060011461010e575b61010a8787610100828c03836114e3565b5191829182611485565b0390f35b9080949750528583205b828410610136575050508261010a94610100928201019438806100ef565b8054868501880152928601928101610118565b60ff19168887015250505050151560051b83010192506101008261010a38806100ef565b8380fd5b8280fd5b50903461017157602092836003193601126106825782516306fdde0360e01b81529180359082848281335afa938415610678578394610654575b506101b9826117ac565b926102056022875180968a6101d78184019a8b815193849201611462565b820161202360f01b8c8201526101f68c83519384918785019101611462565b010360028101875201856114e3565b828152818752858120865181549391899184610220876118ef565b80835284830193600198868a821691826000146106345750506001146105fb575b505090610254816102c9949303826114e3565b6102e561026030611a28565b898852600686526102d78d808a209a60058952818b2091519788948a86019a6102ac61028b8d611929565b91692f636f6e74726163742f60b01b83528351938491600a85019101611462565b019c6011662f746f6b656e2f60c81b9e8f600a82015201906119a5565b602f60f81b815201906119a5565b03601f1981018552846114e3565b8a51631398fee160e31b81528581018990528c81602481335afa80156105c25787906105cc575b61031691506117ac565b8b5163131f9f3f60e11b8152958601899052948c81602481335afa9081156105c2578d918d918991610589575b5061034d906117ac565b9761035733611a28565b9a815260068352208c51713d91383937b832b93a34b2b9afbab934911d60711b818401908152601160f91b60328301529a90998a93909161039a60338601611929565b9068636f6e74726163742f60b81b825280518093600984019201916103be92611462565b019060098201526010016103d1916119a5565b6f17b83937b832b93a34b2b9973539b7b760811b815261227d60f01b601082015203600d198101885260120161040790886114e3565b8a51998a998d683d913730b6b2911d1160b91b908c015251908160298c0161042e92611462565b890190701116113232b9b1b934b83a34b7b7111d1160791b6029830152519182603a830161045b92611462565b01906a11161134b6b0b3b2911d1160a91b603a8301525191826045830161048192611462565b016c1116113130b630b731b2911d1160991b6045820152815191828a605284019201916104ad92611462565b016911161139b637ba111d1160b11b60528201528151918289605c84019201916104d692611462565b01906e111611383937b832b93a34b2b9911d60891b605c830152519182606b830161050092611462565b01606b8101607d60f81b905203604c81018252606c0161052090826114e3565b61052990611631565b81517f646174613a6170706c69636174696f6e2f6a736f6e3b6261736536342c00000084820152815190938492610567918391603d86019101611462565b810103601d81018352603d0161057d90836114e3565b5161010a819282611485565b928092508391503d83116105bb575b6105a281836114e3565b810103126105b7578b61034d8e925190610343565b8680fd5b503d610598565b8c513d89823e3d90fd5b508c81813d83116105f4575b6105e281836114e3565b810103126105b757610316905161030c565b503d6105d8565b8592508752818720908888925b82841061061e5750505082010161025482610241565b80548487018601528794909301928a9101610608565b60ff1916875292151560051b850190920192506102549150839050610241565b6106719194503d8085833e61066981836114e3565b8101906115a0565b92386101af565b85513d85823e3d90fd5b80fd5b508290346107bd576106963661156d565b939083526020916006835283209184519167ffffffffffffffff83116107aa57506106c183546118ef565b601f8111610767575b5080601f831160011461070557508394829394926106fa575b50508160011b916000199060031b1c191617905580f35b0151905084806106e3565b90601f198316958486528286209286905b88821061074f57505083600195969710610736575b505050811b01905580f35b015160001960f88460031b161c1916905584808061072b565b80600185968294968601518155019501930190610716565b838552818520601f840160051c8101918385106107a0575b601f0160051c01905b81811061079557506106ca565b858155600101610788565b909150819061077f565b634e487b7160e01b855260419052602484fd5b5080fd5b508290346107bd576107d23661156d565b939083526020916007835283209184519167ffffffffffffffff83116107aa57506107fd83546118ef565b601f811161087d575b5080601f831160011461083557508394829394926106fa5750508160011b916000199060031b1c191617905580f35b90601f198316958486528286209286905b8882106108655750508360019596971061073657505050811b01905580f35b80600185968294968601518155019501930190610846565b838552818520601f840160051c8101918385106108b6575b601f0160051c01905b8181106108ab5750610806565b85815560010161089e565b9091508190610895565b50913461068257806003193601126106825782516306fdde0360e01b815281818481335afa908115610c71578291610c57575b508351829060025492610905846118ef565b9586835260209683888101956001978a8982169182600014610c3c575050600114610be1575b610937925003846114e3565b61094033611a28565b9588519586898101986109528a611929565b68636f6e74726163742f60b81b81526109758c8351938491600985019101611462565b01602f60f81b600982015283906003549361098f856118ef565b94818116908115610bc05750600114610b61575b50506109b8925003601f1981018852876114e3565b8789518093633e7e866960e01b825281335afa918215610b55578192610b17575b5050610ac9605a888a61010a9b9961010099610a7f603d9a610b079e9a610a5c610ace9b610a0c60ff610a329d166117ac565b97519b8c99683d913730b6b2911d1160b91b818c0152825192839160298d019101611462565b880191701116113232b9b1b934b83a34b7b7111d1160791b6029840152518093603a840190611462565b01916a11161134b6b0b3b2911d1160a91b603a8401525180936045840190611462565b01721116113b30b63ab2a232b1b4b6b0b639911d1160691b6045820152610aaf825180938a605885019101611462565b0161227d60f01b605882015203603a8101845201826114e3565b611631565b845195827f646174613a6170706c69636174696f6e2f6a736f6e3b6261736536342c000000889485015282519283918686019101611462565b810103601d8101855201836114e3565b9091508781813d8311610b4e575b610b2f81836114e3565b810103126107bd57519060ff821682036106825750610ac9605a6109d9565b503d610b25565b508851903d90823e3d90fd5b6003865290915084908c7fc2575a0e9e593c00f959f8c92f12db2869c3395a3b0502d05e2516446f71f85b5b868410610ba857505050506109b892600a91010138806109a3565b8054858501600a01528c95509201918d908201610b8d565b9050600a93506109b895915060ff19168383015280151502010138806109a3565b505060028752838888887f405787fa12a823e0f2b7631cc41b3ba8828b3321ca811111fa75cd3aa3bb5ace5b858310610c23575050610937935082010161092b565b80919294505483858a0101520191018990888793610c0d565b60ff1916895261093794151560051b840101915061092b9050565b610c6b91503d8084833e61066981836114e3565b386108f3565b84513d84823e3d90fd5b5034610171576020918260031936011261016d57358352600582528083209181519284815490610caa826118ef565b808752926001928084169081156101495750600114610cd45761010a8787610100828c03836114e3565b9080949750528583205b828410610cfc575050508261010a94610100928201019438806100ef565b8054868501880152928601928101610cde565b5090346101715760209283600319360112610682578054835163ec327a2160e01b815283358185018190529092916001600160a01b0316908284602481855afa938415610fc3578394610fa7575b50855163bc74ebb960e01b8152858101829052948386602481865afa958615610f9d578496610f81575b5086516309c3dd8760e01b80825282820184905290938585602481845afa948515610f7757918a9594939187938496610f56575b5090602491610dfb60268d518a652f696d61676560d01b81610de7849e85019d8e815193849201611462565b83019182015203600681018b5201896114e3565b8b51958694859384528301525afa938415610f4b578094610f2e575b50508551918288808201868197519283910191610e3392611462565b81018981016f17b83937b832b93a34b2b9973539b7b760811b905203601081018452603001610e6290846114e3565b8651958695683d913730b6b2911d1160b91b8a880152805190818b60298a01920191610e8d92611462565b8601701116113232b9b1b934b83a34b7b7111d1160791b6029820152815191828b603a8401920191610ebe92611462565b01906a11161134b6b0b3b2911d1160a91b603a83015251918260458301610ee492611462565b01906e111611383937b832b93a34b2b9911d60891b604583015251918260548301610f0e92611462565b0160548101607d60f81b90520360358101825260550161052090826114e3565b610f439294503d8091833e61066981836114e3565b913880610e17565b8751903d90823e3d90fd5b602492919650610f6f903d8087833e61066981836114e3565b959091610dbb565b89513d88823e3d90fd5b610f969196503d8086833e61066981836114e3565b9438610d87565b87513d86823e3d90fd5b610fbc9194503d8085833e61066981836114e3565b9238610d5d565b86513d85823e3d90fd5b8382346107bd57816003193601126107bd57805190826001805491610ff1836118ef565b80865292828116908115611064575060011461101a575b5050506101008261010a9403836114e3565b9450808552600080516020611b4c8339815191525b82861061104c5750505061010082602061010a9582010194611008565b8054602087870181019190915290950194810161102f565b61010a97508693506020925061010094915060ff191682840152151560051b82010194611008565b508290346107bd5761109d3661156d565b939083526020916005835283209184519167ffffffffffffffff83116107aa57506110c883546118ef565b601f8111611148575b5080601f831160011461110057508394829394926106fa5750508160011b916000199060031b1c191617905580f35b90601f198316958486528286209286905b8882106111305750508360019596971061073657505050811b01905580f35b80600185968294968601518155019501930190611111565b838552818520601f840160051c810191838510611181575b601f0160051c01905b81811061117657506110d1565b858155600101611169565b9091508190611160565b828434610682576020806003193601126107bd5767ffffffffffffffff833581811161016d576111be9036908601611521565b9384519182116112bc57506001916111d683546118ef565b601f811161126a575b5080601f8311600114611219575083948293949261120e575b5050600019600383901b1c191690821b17905580f35b0151905084806111f8565b838552601f19831695600080516020611b4c833981519152929186905b888210611253575050838596971061073657505050811b01905580f35b808785968294968601518155019501930190611236565b838552600080516020611b4c833981519152601f840160051c8101918385106112b2575b601f0160051c019084905b8281106112a75750506111df565b868155018490611299565b909150819061128e565b634e487b7160e01b845260419052602483fd5b508290346107bd576112e03661156d565b9390835260209181835283209184519167ffffffffffffffff83116107aa575061130a83546118ef565b601f811161138a575b5080601f831160011461134257508394829394926106fa5750508160011b916000199060031b1c191617905580f35b90601f198316958486528286209286905b8882106113725750508360019596971061073657505050811b01905580f35b80600185968294968601518155019501930190611353565b838552818520601f840160051c8101918385106113c3575b601f0160051c01905b8181106113b85750611313565b8581556001016113ab565b90915081906113a2565b9290503461016d576020908160031936011261145e57358452600681528184208054856113f9826118ef565b8087529260019280841690811561014957506001146114235761010a8787610100828c03836114e3565b9080949750528583205b82841061144b575050508261010a94610100928201019438806100ef565b805486850188015292860192810161142d565b8480fd5b60005b8381106114755750506000910152565b8181015183820152602001611465565b604091602082526114a58151809281602086015260208686019101611462565b601f01601f1916010190565b6060810190811067ffffffffffffffff8211176114cd57604052565b634e487b7160e01b600052604160045260246000fd5b90601f8019910116810190811067ffffffffffffffff8211176114cd57604052565b67ffffffffffffffff81116114cd57601f01601f191660200190565b81601f820112156115685780359061153882611505565b9261154660405194856114e3565b8284526020838301011161156857816000926020809301838601378301015290565b600080fd5b90604060031983011261156857600435916024359067ffffffffffffffff82116115685761159d91600401611521565b90565b6020818303126115685780519067ffffffffffffffff8211611568570181601f820112156115685780516115d381611505565b926115e160405194856114e3565b818452602082840101116115685761159d9160208085019101611462565b9061160982611505565b61161660405191826114e3565b8281528092611627601f1991611505565b0190602036910137565b8051156117875760405190611645826114b1565b604082527f4142434445464748494a4b4c4d4e4f505152535455565758595a61626364656660208301527f6768696a6b6c6d6e6f707172737475767778797a303132333435363738392b2f60408301528051600291828201809211611771576003918290046001600160fe1b0381168103611771576116c7908495941b6115ff565b936020850193829183518401906020820192835194600085525b83811061172057505050505251068060011461170d57600214611702575090565b603d90600019015390565b50603d9081600019820153600119015390565b87600491999293949901918251600190603f9082828260121c16880101518453828282600c1c16880101518385015382828260061c16880101518885015316850101518982015301979291906116e1565b634e487b7160e01b600052601160045260246000fd5b506040516020810181811067ffffffffffffffff8211176114cd576040526000815290565b806000917a184f03e93ff9f4daa797ed6e38ed64bf6a1f010000000000000000808210156118e1575b506d04ee2d6d415b85acef8100000000808310156118d2575b50662386f26fc10000808310156118c3575b506305f5e100808310156118b4575b50612710808310156118a5575b506064821015611895575b600a8092101561188b575b6001908160216118438287016115ff565b95860101905b611855575b5050505090565b600019019083906f181899199a1a9b1b9c1cb0b131b232b360811b8282061a83530491821561188657919082611849565b61184e565b9160010191611832565b9190606460029104910191611827565b6004919392049101913861181c565b6008919392049101913861180f565b60109193920491019138611800565b602091939204910191386117ee565b6040935081049150386117d5565b90600182811c9216801561191f575b602083101461190957565b634e487b7160e01b600052602260045260246000fd5b91607f16916118fe565b9060009160019081549161193c836118ef565b92818116908115611992575060011461195457505050565b809192939450600052600080516020611b4c833981519152906000915b84831061197f575050500190565b8181602092548587015201920191611971565b60ff191683525050811515909102019150565b6000929181546119b4816118ef565b92600191808316908115611a0d57506001146119d1575b50505050565b90919293945060005260209081600020906000915b8583106119fc57505050500190388080806119cb565b8054858401529183019181016119e6565b60ff19168452505050811515909102019150388080806119cb565b604051906001600160a01b0316611a3e826114b1565b602a82526020908183016040368237835115611b3557603090538251600190811015611b3557607860218501536029905b808211611ac3575050611a80575090565b6064906040519062461bcd60e51b825280600483015260248201527f537472696e67733a20686578206c656e67746820696e73756666696369656e746044820152fd5b9091600f81166010811015611b20578551841015611b20576f181899199a1a9b1b9c1cb0b131b232b360811b901a85840185015360041c918015611b0b576000190190611a6f565b60246000634e487b7160e01b81526011600452fd5b60246000634e487b7160e01b81526032600452fd5b634e487b7160e01b600052603260045260246000fdfeb10e2d527612073b26eecdfd717e6a320cf44b4afac2b0732d9fcbe2b7fa0cf6a264697066735822122040435e6adfa9bf21e39f2716b0b69c46775da7e5817d85bfcd3a646c3e88b87764736f6c634300081100332f8788117e7eff1d82e926ec794901d17c78024a50270940304540a733656f0d",
  "linkReferences": {},
  "deployedLinkReferences": {}
}