{
  "_format": "hh-sol-artifact-1",
  "contractName": "Service",
  "sourceName": "contracts/Service.sol",
  "abi": [
    {
      "inputs": [
        {
          "internalType": "address",
          "name": "serviceAddress_",
          "type": "address"
        },
        {
          "internalType": "address",
          "name": "slotRegistry_",
          "type": "address"
        },
        {
          "internalType": "string",
          "name": "name_",
          "type": "string"
        },
        {
          "internalType": "string",
          "name": "symbol_",
          "type": "string"
        },
        {
          "internalType": "string",
          "name": "baseuri_",
          "type": "string"
        },
        {
          "internalType": "string",
          "name": "contractDescription_",
          "type": "string"
        },
        {
          "internalType": "string",
          "name": "contractImage_",
          "type": "string"
        },
        {
          "internalType": "uint8",
          "name": "decimals_",
          "type": "uint8"
        }
      ],
      "stateMutability": "nonpayable",
      "type": "constructor"
    },
    {
      "anonymous": false,
      "inputs": [
        {
          "indexed": true,
          "internalType": "address",
          "name": "_owner",
          "type": "address"
        },
        {
          "indexed": true,
          "internalType": "address",
          "name": "_approved",
          "type": "address"
        },
        {
          "indexed": true,
          "internalType": "uint256",
          "name": "_tokenId",
          "type": "uint256"
        }
      ],
      "name": "Approval",
      "type": "event"
    },
    {
      "anonymous": false,
      "inputs": [
        {
          "indexed": true,
          "internalType": "address",
          "name": "_owner",
          "type": "address"
        },
        {
          "indexed": true,
          "internalType": "address",
          "name": "_operator",
          "type": "address"
        },
        {
          "indexed": false,
          "internalType": "bool",
          "name": "_approved",
          "type": "bool"
        }
      ],
      "name": "ApprovalForAll",
      "type": "event"
    },
    {
      "anonymous": false,
      "inputs": [
        {
          "indexed": true,
          "internalType": "uint256",
          "name": "_tokenId",
          "type": "uint256"
        },
        {
          "indexed": true,
          "internalType": "address",
          "name": "_operator",
          "type": "address"
        },
        {
          "indexed": false,
          "internalType": "uint256",
          "name": "_value",
          "type": "uint256"
        }
      ],
      "name": "ApprovalValue",
      "type": "event"
    },
    {
      "anonymous": false,
      "inputs": [
        {
          "indexed": false,
          "internalType": "address",
          "name": "contractAddress",
          "type": "address"
        }
      ],
      "name": "MetadataDescriptor",
      "type": "event"
    },
    {
      "anonymous": false,
      "inputs": [
        {
          "indexed": false,
          "internalType": "uint256",
          "name": "tokenId",
          "type": "uint256"
        },
        {
          "indexed": false,
          "internalType": "uint256",
          "name": "slot",
          "type": "uint256"
        },
        {
          "indexed": false,
          "internalType": "uint256",
          "name": "value",
          "type": "uint256"
        }
      ],
      "name": "MintServiceToken",
      "type": "event"
    },
    {
      "anonymous": false,
      "inputs": [
        {
          "indexed": true,
          "internalType": "address",
          "name": "previousOwner",
          "type": "address"
        },
        {
          "indexed": true,
          "internalType": "address",
          "name": "newOwner",
          "type": "address"
        }
      ],
      "name": "OwnershipTransferred",
      "type": "event"
    },
    {
      "anonymous": false,
      "inputs": [
        {
          "indexed": true,
          "internalType": "address",
          "name": "metadataDescriptor",
          "type": "address"
        }
      ],
      "name": "SetMetadataDescriptor",
      "type": "event"
    },
    {
      "anonymous": false,
      "inputs": [
        {
          "indexed": true,
          "internalType": "uint256",
          "name": "_tokenId",
          "type": "uint256"
        },
        {
          "indexed": true,
          "internalType": "uint256",
          "name": "_oldSlot",
          "type": "uint256"
        },
        {
          "indexed": true,
          "internalType": "uint256",
          "name": "_newSlot",
          "type": "uint256"
        }
      ],
      "name": "SlotChanged",
      "type": "event"
    },
    {
      "anonymous": false,
      "inputs": [
        {
          "indexed": true,
          "internalType": "address",
          "name": "_from",
          "type": "address"
        },
        {
          "indexed": true,
          "internalType": "address",
          "name": "_to",
          "type": "address"
        },
        {
          "indexed": true,
          "internalType": "uint256",
          "name": "_tokenId",
          "type": "uint256"
        }
      ],
      "name": "Transfer",
      "type": "event"
    },
    {
      "anonymous": false,
      "inputs": [
        {
          "indexed": true,
          "internalType": "uint256",
          "name": "_fromTokenId",
          "type": "uint256"
        },
        {
          "indexed": true,
          "internalType": "uint256",
          "name": "_toTokenId",
          "type": "uint256"
        },
        {
          "indexed": false,
          "internalType": "uint256",
          "name": "_value",
          "type": "uint256"
        }
      ],
      "name": "TransferValue",
      "type": "event"
    },
    {
      "inputs": [
        {
          "internalType": "string",
          "name": "uri_",
          "type": "string"
        }
      ],
      "name": "_setBaseURI",
      "outputs": [],
      "stateMutability": "nonpayable",
      "type": "function"
    },
    {
      "inputs": [
        {
          "internalType": "uint256",
          "name": "tokenId_",
          "type": "uint256"
        },
        {
          "internalType": "address",
          "name": "operator_",
          "type": "address"
        }
      ],
      "name": "allowance",
      "outputs": [
        {
          "internalType": "uint256",
          "name": "",
          "type": "uint256"
        }
      ],
      "stateMutability": "view",
      "type": "function"
    },
    {
      "inputs": [
        {
          "internalType": "address",
          "name": "to_",
          "type": "address"
        },
        {
          "internalType": "uint256",
          "name": "tokenId_",
          "type": "uint256"
        }
      ],
      "name": "approve",
      "outputs": [],
      "stateMutability": "payable",
      "type": "function"
    },
    {
      "inputs": [
        {
          "internalType": "uint256",
          "name": "tokenId_",
          "type": "uint256"
        },
        {
          "internalType": "address",
          "name": "to_",
          "type": "address"
        },
        {
          "internalType": "uint256",
          "name": "value_",
          "type": "uint256"
        }
      ],
      "name": "approve",
      "outputs": [],
      "stateMutability": "payable",
      "type": "function"
    },
    {
      "inputs": [
        {
          "internalType": "address",
          "name": "owner_",
          "type": "address"
        }
      ],
      "name": "balanceOf",
      "outputs": [
        {
          "internalType": "uint256",
          "name": "balance",
          "type": "uint256"
        }
      ],
      "stateMutability": "view",
      "type": "function"
    },
    {
      "inputs": [
        {
          "internalType": "uint256",
          "name": "tokenId_",
          "type": "uint256"
        }
      ],
      "name": "balanceOf",
      "outputs": [
        {
          "internalType": "uint256",
          "name": "",
          "type": "uint256"
        }
      ],
      "stateMutability": "view",
      "type": "function"
    },
    {
      "inputs": [],
      "name": "contractURI",
      "outputs": [
        {
          "internalType": "string",
          "name": "",
          "type": "string"
        }
      ],
      "stateMutability": "view",
      "type": "function"
    },
    {
      "inputs": [
        {
          "internalType": "uint256",
          "name": "tokenId_",
          "type": "uint256"
        }
      ],
      "name": "getApproved",
      "outputs": [
        {
          "internalType": "address",
          "name": "",
          "type": "address"
        }
      ],
      "stateMutability": "view",
      "type": "function"
    },
    {
      "inputs": [
        {
          "internalType": "address",
          "name": "owner_",
          "type": "address"
        },
        {
          "internalType": "address",
          "name": "operator_",
          "type": "address"
        }
      ],
      "name": "isApprovedForAll",
      "outputs": [
        {
          "internalType": "bool",
          "name": "",
          "type": "bool"
        }
      ],
      "stateMutability": "view",
      "type": "function"
    },
    {
      "inputs": [],
      "name": "metadataDescriptor",
      "outputs": [
        {
          "internalType": "contract IERC3525MetadataDescriptor",
          "name": "",
          "type": "address"
        }
      ],
      "stateMutability": "view",
      "type": "function"
    },
    {
      "inputs": [
        {
          "internalType": "address",
          "name": "owner_",
          "type": "address"
        },
        {
          "internalType": "uint256",
          "name": "slot_",
          "type": "uint256"
        },
        {
          "internalType": "uint256",
          "name": "value_",
          "type": "uint256"
        },
        {
          "internalType": "string",
          "name": "uuid_",
          "type": "string"
        },
        {
          "internalType": "string",
          "name": "token_description_",
          "type": "string"
        },
        {
          "internalType": "string",
          "name": "token_image_",
          "type": "string"
        }
      ],
      "name": "mint",
      "outputs": [
        {
          "internalType": "uint256",
          "name": "",
          "type": "uint256"
        }
      ],
      "stateMutability": "nonpayable",
      "type": "function"
    },
    {
      "inputs": [],
      "name": "name",
      "outputs": [
        {
          "internalType": "string",
          "name": "",
          "type": "string"
        }
      ],
      "stateMutability": "view",
      "type": "function"
    },
    {
      "inputs": [],
      "name": "owner",
      "outputs": [
        {
          "internalType": "address",
          "name": "",
          "type": "address"
        }
      ],
      "stateMutability": "view",
      "type": "function"
    },
    {
      "inputs": [
        {
          "internalType": "uint256",
          "name": "tokenId_",
          "type": "uint256"
        }
      ],
      "name": "ownerOf",
      "outputs": [
        {
          "internalType": "address",
          "name": "owner_",
          "type": "address"
        }
      ],
      "stateMutability": "view",
      "type": "function"
    },
    {
      "inputs": [],
      "name": "renounceOwnership",
      "outputs": [],
      "stateMutability": "nonpayable",
      "type": "function"
    },
    {
      "inputs": [
        {
          "internalType": "address",
          "name": "from_",
          "type": "address"
        },
        {
          "internalType": "address",
          "name": "to_",
          "type": "address"
        },
        {
          "internalType": "uint256",
          "name": "tokenId_",
          "type": "uint256"
        }
      ],
      "name": "safeTransferFrom",
      "outputs": [],
      "stateMutability": "payable",
      "type": "function"
    },
    {
      "inputs": [
        {
          "internalType": "address",
          "name": "from_",
          "type": "address"
        },
        {
          "internalType": "address",
          "name": "to_",
          "type": "address"
        },
        {
          "internalType": "uint256",
          "name": "tokenId_",
          "type": "uint256"
        },
        {
          "internalType": "bytes",
          "name": "data_",
          "type": "bytes"
        }
      ],
      "name": "safeTransferFrom",
      "outputs": [],
      "stateMutability": "payable",
      "type": "function"
    },
    {
      "inputs": [
        {
          "internalType": "address",
          "name": "operator_",
          "type": "address"
        },
        {
          "internalType": "bool",
          "name": "approved_",
          "type": "bool"
        }
      ],
      "name": "setApprovalForAll",
      "outputs": [],
      "stateMutability": "nonpayable",
      "type": "function"
    },
    {
      "inputs": [
        {
          "internalType": "uint256",
          "name": "tokenId_",
          "type": "uint256"
        }
      ],
      "name": "slotOf",
      "outputs": [
        {
          "internalType": "uint256",
          "name": "",
          "type": "uint256"
        }
      ],
      "stateMutability": "view",
      "type": "function"
    },
    {
      "inputs": [
        {
          "internalType": "uint256",
          "name": "slot_",
          "type": "uint256"
        }
      ],
      "name": "slotURI",
      "outputs": [
        {
          "internalType": "string",
          "name": "",
          "type": "string"
        }
      ],
      "stateMutability": "view",
      "type": "function"
    },
    {
      "inputs": [
        {
          "internalType": "bytes4",
          "name": "interfaceId",
          "type": "bytes4"
        }
      ],
      "name": "supportsInterface",
      "outputs": [
        {
          "internalType": "bool",
          "name": "",
          "type": "bool"
        }
      ],
      "stateMutability": "view",
      "type": "function"
    },
    {
      "inputs": [],
      "name": "symbol",
      "outputs": [
        {
          "internalType": "string",
          "name": "",
          "type": "string"
        }
      ],
      "stateMutability": "view",
      "type": "function"
    },
    {
      "inputs": [
        {
          "internalType": "uint256",
          "name": "index_",
          "type": "uint256"
        }
      ],
      "name": "tokenByIndex",
      "outputs": [
        {
          "internalType": "uint256",
          "name": "",
          "type": "uint256"
        }
      ],
      "stateMutability": "view",
      "type": "function"
    },
    {
      "inputs": [
        {
          "internalType": "address",
          "name": "owner_",
          "type": "address"
        },
        {
          "internalType": "uint256",
          "name": "index_",
          "type": "uint256"
        }
      ],
      "name": "tokenOfOwnerByIndex",
      "outputs": [
        {
          "internalType": "uint256",
          "name": "",
          "type": "uint256"
        }
      ],
      "stateMutability": "view",
      "type": "function"
    },
    {
      "inputs": [
        {
          "internalType": "uint256",
          "name": "tokenId_",
          "type": "uint256"
        }
      ],
      "name": "tokenURI",
      "outputs": [
        {
          "internalType": "string",
          "name": "",
          "type": "string"
        }
      ],
      "stateMutability": "view",
      "type": "function"
    },
    {
      "inputs": [],
      "name": "totalSupply",
      "outputs": [
        {
          "internalType": "uint256",
          "name": "",
          "type": "uint256"
        }
      ],
      "stateMutability": "view",
      "type": "function"
    },
    {
      "inputs": [
        {
          "internalType": "uint256",
          "name": "fromTokenId_",
          "type": "uint256"
        },
        {
          "internalType": "address",
          "name": "to_",
          "type": "address"
        },
        {
          "internalType": "uint256",
          "name": "value_",
          "type": "uint256"
        }
      ],
      "name": "transferFrom",
      "outputs": [
        {
          "internalType": "uint256",
          "name": "",
          "type": "uint256"
        }
      ],
      "stateMutability": "payable",
      "type": "function"
    },
    {
      "inputs": [
        {
          "internalType": "address",
          "name": "from_",
          "type": "address"
        },
        {
          "internalType": "address",
          "name": "to_",
          "type": "address"
        },
        {
          "internalType": "uint256",
          "name": "tokenId_",
          "type": "uint256"
        }
      ],
      "name": "transferFrom",
      "outputs": [],
      "stateMutability": "payable",
      "type": "function"
    },
    {
      "inputs": [
        {
          "internalType": "uint256",
          "name": "fromTokenId_",
          "type": "uint256"
        },
        {
          "internalType": "uint256",
          "name": "toTokenId_",
          "type": "uint256"
        },
        {
          "internalType": "uint256",
          "name": "value_",
          "type": "uint256"
        }
      ],
      "name": "transferFrom",
      "outputs": [],
      "stateMutability": "payable",
      "type": "function"
    },
    {
      "inputs": [
        {
          "internalType": "address",
          "name": "newOwner",
          "type": "address"
        }
      ],
      "name": "transferOwnership",
      "outputs": [],
      "stateMutability": "nonpayable",
      "type": "function"
    },
    {
      "inputs": [],
      "name": "valueDecimals",
      "outputs": [
        {
          "internalType": "uint8",
          "name": "",
          "type": "uint8"
        }
      ],
      "stateMutability": "view",
      "type": "function"
    }
  ],
  "bytecode": "0x60806040523480156200001157600080fd5b50604051620054fe380380620054fe8339810160408190526200003491620002a4565b85858260006200004584826200044d565b5060016200005483826200044d565b506002805460ff191660ff92909216919091179055506200007e9050620000783390565b62000148565b600a80546001600160a01b0319166001600160a01b038a16179055600b620000a785826200044d565b50600b838389604051620000bb906200019a565b620000ca949392919062000547565b604051809103906000f080158015620000e7573d6000803e3d6000fd5b50600880546001600160a01b0319166001600160a01b039290921691821790556040519081527f9ac4f8025631594629895b778dc5ee88d01673a254a2291f6b6b174ad25230ca9060200160405180910390a150505050505050506200061f565b600980546001600160a01b038381166001600160a01b0319831681179093556040519116919082907f8be0079c531659141344cd1fd0a4f28419497f9722a3daafe3b4186f6b6457e090600090a35050565b611a468062003ab883390190565b80516001600160a01b0381168114620001c057600080fd5b919050565b634e487b7160e01b600052604160045260246000fd5b60005b83811015620001f8578181015183820152602001620001de565b50506000910152565b600082601f8301126200021357600080fd5b81516001600160401b0380821115620002305762000230620001c5565b604051601f8301601f19908116603f011681019082821181831017156200025b576200025b620001c5565b816040528381528660208588010111156200027557600080fd5b62000288846020830160208901620001db565b9695505050505050565b805160ff81168114620001c057600080fd5b600080600080600080600080610100898b031215620002c257600080fd5b620002cd89620001a8565b9750620002dd60208a01620001a8565b60408a01519097506001600160401b0380821115620002fb57600080fd5b620003098c838d0162000201565b975060608b01519150808211156200032057600080fd5b6200032e8c838d0162000201565b965060808b01519150808211156200034557600080fd5b620003538c838d0162000201565b955060a08b01519150808211156200036a57600080fd5b620003788c838d0162000201565b945060c08b01519150808211156200038f57600080fd5b506200039e8b828c0162000201565b925050620003af60e08a0162000292565b90509295985092959890939650565b600181811c90821680620003d357607f821691505b602082108103620003f457634e487b7160e01b600052602260045260246000fd5b50919050565b601f8211156200044857600081815260208120601f850160051c81016020861015620004235750805b601f850160051c820191505b8181101562000444578281556001016200042f565b5050505b505050565b81516001600160401b03811115620004695762000469620001c5565b62000481816200047a8454620003be565b84620003fa565b602080601f831160018114620004b95760008415620004a05750858301515b600019600386901b1c1916600185901b17855562000444565b600085815260208120601f198616915b82811015620004ea57888601518255948401946001909101908401620004c9565b5085821015620005095787850151600019600388901b60f8161c191681555b5050505050600190811b01905550565b6000815180845262000533816020860160208601620001db565b601f01601f19169290920160200192915050565b6080815260008086546200055b81620003be565b80608086015260a06001808416600081146200058057600181146200059b57620005ce565b60ff1985168884015283151560051b880183019550620005ce565b8b60005260208060002060005b86811015620005c55781548b8201870152908401908201620005a8565b8a018501975050505b50505050508281036020840152620005e7818762000519565b90508281036040840152620005fd818662000519565b9150506200061660608301846001600160a01b03169052565b95945050505050565b613489806200062f6000396000f3fe6080604052600436106101d85760003560e01c80634f6ccce7116101025780639cc7f70811610095578063e345e0bc11610064578063e345e0bc14610500578063e8a3d48514610520578063e985e9c514610535578063f2fde38b1461058257600080fd5b80639cc7f7081461048d578063a22cb465146104ad578063b88d4fde146104cd578063c87b56dd146104e057600080fd5b8063840f7113116100d1578063840f7113146104275780638cb0a511146104475780638da5cb5b1461045a57806395d89b411461047857600080fd5b80634f6ccce7146103b25780636352211e146103d257806370a08231146103f2578063715018a61461041257600080fd5b806323b872dd1161017a57806331b5b9071161014957806331b5b9071461033d5780633e7e86691461035d57806342842e0e1461037f578063476de4a81461039257600080fd5b806323b872dd146102d7578063263f3e7e146102ea5780632f745c591461030a578063310ed7f01461032a57600080fd5b8063095ea7b3116101b6578063095ea7b31461026c57806309c3dd87146102815780630f485c02146102a157806318160ddd146102c257600080fd5b806301ffc9a7146101dd57806306fdde0314610212578063081812fc14610234575b600080fd5b3480156101e957600080fd5b506101fd6101f8366004612b92565b6105a2565b60405190151581526020015b60405180910390f35b34801561021e57600080fd5b50610227610645565b6040516102099190612bff565b34801561024057600080fd5b5061025461024f366004612c12565b6106d7565b6040516001600160a01b039091168152602001610209565b61027f61027a366004612c42565b610729565b005b34801561028d57600080fd5b5061022761029c366004612c12565b61080d565b6102b46102af366004612c6c565b6108f2565b604051908152602001610209565b3480156102ce57600080fd5b506005546102b4565b61027f6102e5366004612ca1565b610907565b3480156102f657600080fd5b506102b4610305366004612c12565b610912565b34801561031657600080fd5b506102b4610325366004612c42565b61095a565b61027f610338366004612ccd565b6109fb565b34801561034957600080fd5b5061027f610358366004612dc6565b610a06565b34801561036957600080fd5b5060025460405160ff9091168152602001610209565b61027f61038d366004612ca1565b610a78565b34801561039e57600080fd5b506102b46103ad366004612dfb565b610a93565b3480156103be57600080fd5b506102b46103cd366004612c12565b610c87565b3480156103de57600080fd5b506102546103ed366004612c12565b610d18565b3480156103fe57600080fd5b506102b461040d366004612ea6565b610db4565b34801561041e57600080fd5b5061027f610e3c565b34801561043357600080fd5b50600854610254906001600160a01b031681565b61027f610455366004612c6c565b610e50565b34801561046657600080fd5b506009546001600160a01b0316610254565b34801561048457600080fd5b50610227610f0f565b34801561049957600080fd5b506102b46104a8366004612c12565b610f1e565b3480156104b957600080fd5b5061027f6104c8366004612ecf565b610f66565b61027f6104db366004612f06565b610fac565b3480156104ec57600080fd5b506102276104fb366004612c12565b610fde565b34801561050c57600080fd5b506102b461051b366004612f82565b611070565b34801561052c57600080fd5b506102276110a4565b34801561054157600080fd5b506101fd610550366004612fae565b6001600160a01b0391821660009081526007602090815260408083209390941682526002909201909152205460ff1690565b34801561058e57600080fd5b5061027f61059d366004612ea6565b611191565b60006001600160e01b031982166301ffc9a760e01b14806105d357506001600160e01b03198216630354d60560e61b145b806105ee57506001600160e01b031982166380ac58cd60e01b145b8061060957506001600160e01b031982166370b0048160e11b145b8061062457506001600160e01b0319821663780e9d6360e01b145b8061063f57506001600160e01b03198216635b5e139f60e01b145b92915050565b60606000805461065490612fd8565b80601f016020809104026020016040519081016040528092919081815260200182805461068090612fd8565b80156106cd5780601f106106a2576101008083540402835291602001916106cd565b820191906000526020600020905b8154815290600101906020018083116106b057829003601f168201915b5050505050905090565b60006106e28261120a565b60008281526006602052604090205460058054909190811061070657610706613012565b60009182526020909120600460069092020101546001600160a01b031692915050565b600061073482610d18565b9050806001600160a01b0316836001600160a01b0316036107705760405162461bcd60e51b815260040161076790613028565b60405180910390fd5b336001600160a01b038216148061078c575061078c8133610550565b6107fe5760405162461bcd60e51b815260206004820152603960248201527f455243333532353a20617070726f76652063616c6c6572206973206e6f74206f60448201527f776e6572206e6f7220617070726f76656420666f7220616c6c000000000000006064820152608401610767565b610808838361125b565b505050565b606060006108196112f2565b6008549091506001600160a01b031661087957600081511161084a57604051806020016040528060008152506108eb565b8061085484611301565b60405160200161086592919061306a565b6040516020818303038152906040526108eb565b600854604051633601bfc560e11b8152600481018590526001600160a01b0390911690636c037f8a906024015b600060405180830381865afa1580156108c3573d6000803e3d6000fd5b505050506040513d6000823e601f3d908101601f191682016040526108eb91908101906130aa565b9392505050565b60006108ff848484611394565b949350505050565b6108088383836113cc565b600061091d8261120a565b60008281526006602052604090205460058054909190811061094157610941613012565b9060005260206000209060060201600101549050919050565b600061096583610db4565b82106109be5760405162461bcd60e51b815260206004820152602260248201527f455243333532353a206f776e657220696e646578206f7574206f6620626f756e604482015261647360f01b6064820152608401610767565b6001600160a01b03831660009081526007602052604090208054839081106109e8576109e8613012565b9060005260206000200154905092915050565b6108088383836113fd565b600b610a128282613167565b506008546040516355f804b360e01b81526001600160a01b03909116906355f804b390610a43908490600401612bff565b600060405180830381600087803b158015610a5d57600080fd5b505af1158015610a71573d6000803e3d6000fd5b5050505050565b61080883838360405180602001604052806000815250610fac565b6000610a9d611413565b6000610aa761146d565b9050610ab588828989611484565b6040805160c08101825282815260208082018a90528183018990526001600160a01b038b166060830152600060808301819052835181815291820190935260a08201529050610b03816115ae565b610b0d8983611700565b600854604051632108947560e21b81526001600160a01b039091169063842251d490610b3f9085908a90600401613227565b600060405180830381600087803b158015610b5957600080fd5b505af1158015610b6d573d6000803e3d6000fd5b505060085460405163246a908b60e01b81526001600160a01b03909116925063246a908b9150610ba39085908990600401613227565b600060405180830381600087803b158015610bbd57600080fd5b505af1158015610bd1573d6000803e3d6000fd5b5050600854604051630190503b60e61b81526001600160a01b0390911692506364140ec09150610c079085908890600401613227565b600060405180830381600087803b158015610c2157600080fd5b505af1158015610c35573d6000803e3d6000fd5b505060408051858152602081018c90529081018a90527f84eeb48eca46cea54afc9753345f6038981672ea565f32885420829dfd88aea69250606001905060405180910390a150979650505050505050565b6000610c9260055490565b8210610cec5760405162461bcd60e51b815260206004820152602360248201527f455243333532353a20676c6f62616c20696e646578206f7574206f6620626f756044820152626e647360e81b6064820152608401610767565b60058281548110610cff57610cff613012565b9060005260206000209060060201600001549050919050565b6000610d238261120a565b600082815260066020526040902054600580549091908110610d4757610d47613012565b60009182526020909120600360069092020101546001600160a01b0316905080610daf5760405162461bcd60e51b8152602060048201526019602482015278115490cccd4c8d4e881a5b9d985b1a59081d1bdad95b881251603a1b6044820152606401610767565b919050565b60006001600160a01b038216610e205760405162461bcd60e51b815260206004820152602b60248201527f455243333532353a2062616c616e636520717565727920666f7220746865207a60448201526a65726f206164647265737360a81b6064820152608401610767565b506001600160a01b031660009081526007602052604090205490565b610e44611413565b610e4e6000611789565b565b6000610e5b84610d18565b9050806001600160a01b0316836001600160a01b031603610e8e5760405162461bcd60e51b815260040161076790613028565b610e9833856117db565b610efe5760405162461bcd60e51b815260206004820152603160248201527f455243333532353a20617070726f76652063616c6c6572206973206e6f74206f6044820152701ddb995c881b9bdc88185c1c1c9bdd9959607a1b6064820152608401610767565b610f0984848461185d565b50505050565b60606001805461065490612fd8565b6000610f298261120a565b600082815260066020526040902054600580549091908110610f4d57610f4d613012565b9060005260206000209060060201600201549050919050565b610f708282611995565b336000908152600e602090815260408083206001600160a01b039590951683526002909401905291909120805460ff1916911515919091179055565b610fb633836117db565b610fd25760405162461bcd60e51b815260040161076790613240565b610f09848484846119a4565b6060610fe98261120a565b6000610ff36112f2565b6008549091506001600160a01b031661103f57600081511161102457604051806020016040528060008152506108eb565b8061102e84611301565b604051602001610865929190613292565b6008546040516344a5a61760e11b8152600481018590526001600160a01b039091169063894b4c2e906024016108a6565b600061107b8361120a565b5060009182526004602090815260408084206001600160a01b0393909316845291905290205490565b606060006110b06112f2565b6008549091506001600160a01b03166111105760008151116110e1576040518060200160405280600081525061118b565b806110eb30611a17565b6040516020016110fc9291906132c1565b60405160208183030381529060405261118b565b600860009054906101000a90046001600160a01b03166001600160a01b031663725fa09c6040518163ffffffff1660e01b8152600401600060405180830381865afa158015611163573d6000803e3d6000fd5b505050506040513d6000823e601f3d908101601f1916820160405261118b91908101906130aa565b91505090565b611199611413565b6001600160a01b0381166111fe5760405162461bcd60e51b815260206004820152602660248201527f4f776e61626c653a206e6577206f776e657220697320746865207a65726f206160448201526564647265737360d01b6064820152608401610767565b61120781611789565b50565b61121381611a2d565b6112075760405162461bcd60e51b8152602060048201526019602482015278115490cccd4c8d4e881a5b9d985b1a59081d1bdad95b881251603a1b6044820152606401610767565b60008181526006602052604090205460058054849290811061127f5761127f613012565b6000918252602090912060069091020160040180546001600160a01b0319166001600160a01b03928316179055819083166112b982610d18565b6001600160a01b03167f8c5be1e5ebec7d5bd14f71427d1e84f3dd0314c0f7b2291e5b200ac8c7c3b92560405160405180910390a45050565b6060600b805461065490612fd8565b6060600061130e83611a79565b600101905060008167ffffffffffffffff81111561132e5761132e612cf9565b6040519080825280601f01601f191660200182016040528015611358576020820181803683370190505b5090508181016020015b600019016f181899199a1a9b1b9c1cb0b131b232b360811b600a86061a8153600a850494508461136257509392505050565b60006113a1338584611b51565b6113aa84611be1565b90506113c183826113ba87610912565b6000611484565b6108eb848284611beb565b6113d633826117db565b6113f25760405162461bcd60e51b815260040161076790613240565b610808838383611edc565b611408338483611b51565b610808838383611beb565b6009546001600160a01b03163314610e4e5760405162461bcd60e51b815260206004820181905260248201527f4f776e61626c653a2063616c6c6572206973206e6f7420746865206f776e65726044820152606401610767565b600061147d600380546001019055565b5060035490565b6001600160a01b0384166114e45760405162461bcd60e51b815260206004820152602160248201527f455243333532353a206d696e7420746f20746865207a65726f206164647265736044820152607360f81b6064820152608401610767565b8260000361153e5760405162461bcd60e51b815260206004820152602160248201527f455243333532353a2063616e6e6f74206d696e74207a65726f20746f6b656e496044820152601960fa1b6064820152608401610767565b61154783611a2d565b156115945760405162461bcd60e51b815260206004820152601d60248201527f455243333532353a20746f6b656e20616c7265616479206d696e7465640000006044820152606401610767565b61159f848484612045565b6115a9838261210b565b610f09565b600c805482516000908152600d6020908152604080832084905560018401855593909152835160069092027fdf6966c971051c3d54ec59162606531493a51404a002842f56009d7e5cf4a8c78101928355818501517fdf6966c971051c3d54ec59162606531493a51404a002842f56009d7e5cf4a8c8820155928401517fdf6966c971051c3d54ec59162606531493a51404a002842f56009d7e5cf4a8c984015560608401517fdf6966c971051c3d54ec59162606531493a51404a002842f56009d7e5cf4a8ca840180546001600160a01b039283166001600160a01b03199182161790915560808601517fdf6966c971051c3d54ec59162606531493a51404a002842f56009d7e5cf4a8cb8601805491909316911617905560a084015180518594610f09937fdf6966c971051c3d54ec59162606531493a51404a002842f56009d7e5cf4a8cc909101920190612ae8565b6000818152600d6020526040902054600c8054849290811061172457611724613012565b6000918252602080832060069290920290910160030180546001600160a01b0319166001600160a01b03948516179055939091168152600e80845260408083208054858552600182810188529285208190559286529082018155825292902090910155565b600980546001600160a01b038381166001600160a01b0319831681179093556040519116919082907f8be0079c531659141344cd1fd0a4f28419497f9722a3daafe3b4186f6b6457e090600090a35050565b6000806117e783610d18565b9050806001600160a01b0316846001600160a01b0316148061183257506001600160a01b038082166000908152600760209081526040808320938816835260029093019052205460ff165b806108ff5750836001600160a01b031661184b846106d7565b6001600160a01b031614949350505050565b6001600160a01b0382166118c65760405162461bcd60e51b815260206004820152602a60248201527f455243333532353a20617070726f76652076616c756520746f20746865207a65604482015269726f206164647265737360b01b6064820152608401610767565b6118d08284612190565b611936576000838152600660205260409020546005805490919081106118f8576118f8613012565b60009182526020808320600692909202909101600501805460018101825590835291200180546001600160a01b0319166001600160a01b0384161790555b60008381526004602090815260408083206001600160a01b038616808552908352928190208490555183815285917f621b050de0ad08b51d19b48b3e6df75348c4de6bdd93e81b252ca62e28265b1b91015b60405180910390a3505050565b6119a0338383612263565b5050565b6119af848484611edc565b6119bb8484848461232d565b610f095760405162461bcd60e51b815260206004820152602760248201527f455243333532353a207472616e7366657220746f206e6f6e204552433732315260448201526632b1b2b4bb32b960c91b6064820152608401610767565b606061063f6001600160a01b0383166014612479565b6005546000901580159061063f5750600082815260066020526040902054600580548492908110611a6057611a60613012565b9060005260206000209060060201600001541492915050565b60008072184f03e93ff9f4daa797ed6e38ed64bf6a1f0160401b8310611ab85772184f03e93ff9f4daa797ed6e38ed64bf6a1f0160401b830492506040015b6d04ee2d6d415b85acef81000000008310611ae4576d04ee2d6d415b85acef8100000000830492506020015b662386f26fc100008310611b0257662386f26fc10000830492506010015b6305f5e1008310611b1a576305f5e100830492506008015b6127108310611b2e57612710830492506004015b60648310611b40576064830492506002015b600a831061063f5760010192915050565b6000611b5d8385611070565b9050611b6984846117db565b158015611b7857506000198114155b15610f095781811015611bcd5760405162461bcd60e51b815260206004820152601f60248201527f455243333532353a20696e73756666696369656e7420616c6c6f77616e6365006044820152606401610767565b610f098385611bdc858561331b565b61185d565b600061063f61146d565b611bf483611a2d565b611c505760405162461bcd60e51b815260206004820152602760248201527f455243333532353a207472616e736665722066726f6d20696e76616c696420746044820152661bdad95b88125160ca1b6064820152608401610767565b611c5982611a2d565b611cb35760405162461bcd60e51b815260206004820152602560248201527f455243333532353a207472616e7366657220746f20696e76616c696420746f6b604482015264195b88125160da1b6064820152608401610767565b600083815260066020526040812054600580549091908110611cd757611cd7613012565b9060005260206000209060060201905060006005600660008681526020019081526020016000205481548110611d0f57611d0f613012565b906000526020600020906006020190508282600201541015611d865760405162461bcd60e51b815260206004820152602a60248201527f455243333532353a20696e73756666696369656e742062616c616e636520666f60448201526939103a3930b739b332b960b11b6064820152608401610767565b8060010154826001015414611df45760405162461bcd60e51b815260206004820152602e60248201527f455243333532353a207472616e7366657220746f20746f6b656e20776974682060448201526d191a5999995c995b9d081cdb1bdd60921b6064820152608401610767565b82826002016000828254611e08919061331b565b9250508190555082816002016000828254611e23919061332e565b9091555050604051838152849086907f0b2aac84f3ec956911fd78eae5311062972ff949f38412e8da39069d9f068cc69060200160405180910390a3611e7a85858560405180602001604052806000815250612615565b610a715760405162461bcd60e51b815260206004820152602d60248201527f455243333532353a207472616e736665722072656a656374656420627920455260448201526c21999a991aa932b1b2b4bb32b960991b6064820152608401610767565b826001600160a01b0316611eef82610d18565b6001600160a01b031614611f515760405162461bcd60e51b8152602060048201526024808201527f455243333532353a207472616e736665722066726f6d20696e76616c6964206f6044820152633bb732b960e11b6064820152608401610767565b6001600160a01b038216611fb55760405162461bcd60e51b815260206004820152602560248201527f455243333532353a207472616e7366657220746f20746865207a65726f206164604482015264647265737360d81b6064820152608401610767565b6000611fc082610912565b90506000611fcd83610f1e565b9050611fda60008461125b565b611fe383612748565b611fed85846127f3565b611ff78484612914565b82846001600160a01b0316866001600160a01b03167fddf252ad1be2c89b69c2b068fc378daa952ba7f163c4a11628f55a4df523b3ef60405160405180910390a4610a71565b505050505050565b6040805160c081018252838152602080820184905260008284018190526001600160a01b038716606084015260808301819052835181815291820190935260a082015290506120938161299d565b61209d8484612914565b60405183906001600160a01b038616906000907fddf252ad1be2c89b69c2b068fc378daa952ba7f163c4a11628f55a4df523b3ef908290a4816000847fe4f48c240d3b994948aa54f3e2f5fca59263dfe1d52b6e4cf39a5d249b5ccb6560405160405180910390a450505050565b60008281526006602052604090205460058054839290811061212f5761212f613012565b9060005260206000209060060201600201600082825461214f919061332e565b909155505060405181815282906000907f0b2aac84f3ec956911fd78eae5311062972ff949f38412e8da39069d9f068cc69060200160405180910390a35050565b6000818152600660205260408120546005805483929081106121b4576121b4613012565b6000918252602082206005600690920201015491505b8181101561225857600084815260066020526040902054600580546001600160a01b038816929081106121ff576121ff613012565b9060005260206000209060060201600501828154811061222157612221613012565b6000918252602090912001546001600160a01b0316036122465760019250505061063f565b8061225081613341565b9150506121ca565b506000949350505050565b816001600160a01b0316836001600160a01b0316036122c45760405162461bcd60e51b815260206004820152601a60248201527f455243333532353a20617070726f766520746f2063616c6c65720000000000006044820152606401610767565b6001600160a01b0383811660008181526007602090815260408083209487168084526002909501825291829020805460ff191686151590811790915591519182527f17307eab39ab6107e8899845ad3d59bd9653f200f220920489ca2b5937696c319101611988565b60006001600160a01b0384163b1561246e57604051630a85bd0160e11b81526001600160a01b0385169063150b7a029061237190339089908890889060040161335a565b6020604051808303816000875af19250505080156123ac575060408051601f3d908101601f191682019092526123a991810190613397565b60015b612454573d8080156123da576040519150601f19603f3d011682016040523d82523d6000602084013e6123df565b606091505b50805160000361244c5760405162461bcd60e51b815260206004820152603260248201527f4552433732313a207472616e7366657220746f206e6f6e20455243373231526560448201527131b2b4bb32b91034b6b83632b6b2b73a32b960711b6064820152608401610767565b805181602001fd5b6001600160e01b031916630a85bd0160e11b1490506108ff565b506001949350505050565b606060006124888360026133b4565b61249390600261332e565b67ffffffffffffffff8111156124ab576124ab612cf9565b6040519080825280601f01601f1916602001820160405280156124d5576020820181803683370190505b509050600360fc1b816000815181106124f0576124f0613012565b60200101906001600160f81b031916908160001a905350600f60fb1b8160018151811061251f5761251f613012565b60200101906001600160f81b031916908160001a90535060006125438460026133b4565b61254e90600161332e565b90505b60018111156125c6576f181899199a1a9b1b9c1cb0b131b232b360811b85600f166010811061258257612582613012565b1a60f81b82828151811061259857612598613012565b60200101906001600160f81b031916908160001a90535060049490941c936125bf816133cb565b9050612551565b5083156108eb5760405162461bcd60e51b815260206004820181905260248201527f537472696e67733a20686578206c656e67746820696e73756666696369656e746044820152606401610767565b60008061262185610d18565b90506001600160a01b0381163b151580156126a557506040516301ffc9a760e01b8152629ce20b60e01b60048201526001600160a01b038216906301ffc9a790602401602060405180830381865afa158015612681573d6000803e3d6000fd5b505050506040513d601f19601f820116820180604052508101906126a591906133e2565b1561273e57604051629ce20b60e01b81526000906001600160a01b03831690629ce20b906126df9033908b908b908b908b906004016133ff565b6020604051808303816000875af11580156126fe573d6000803e3d6000fd5b505050506040513d601f19601f820116820180604052508101906127229190613397565b6001600160e01b031916629ce20b60e01b1492506108ff915050565b60019150506108ff565b60008181526006602052604081205460058054909190811061276c5761276c613012565b600091825260208220600560069092020190810154909250905b818110156127e45760008360050182815481106127a5576127a5613012565b60009182526020808320909101548783526004825260408084206001600160a01b039092168452915281205550806127dc81613341565b915050612786565b50610808600583016000612b4d565b60008181526006602052604081205460058054909190811061281757612817613012565b6000918252602080832060069290920290910160030180546001600160a01b0319166001600160a01b03948516179055918416815260079091526040812080549091906128669060019061331b565b9050600082600001828154811061287f5761287f613012565b906000526020600020015490506000836001016000868152602001908152602001600020549050818460000182815481106128bc576128bc613012565b600091825260208083209091019290925583815260018601909152604080822083905586825281205583548490806128f6576128f661343d565b60019003818190600052602060002001600090559055505050505050565b60008181526006602052604090205460058054849290811061293857612938613012565b6000918252602080832060069290920290910160030180546001600160a01b0319166001600160a01b03948516179055939091168152600780845260408083208054858552600182810188529285208190559286529082018155825292902090910155565b600580548251600090815260066020818152604080842085905560018501865594909252845192027f036b6384b5eca791c62761152d0c79bb0604c104a5fb6f4eb0703f3154bb3db08101928355818501517f036b6384b5eca791c62761152d0c79bb0604c104a5fb6f4eb0703f3154bb3db1820155928401517f036b6384b5eca791c62761152d0c79bb0604c104a5fb6f4eb0703f3154bb3db284015560608401517f036b6384b5eca791c62761152d0c79bb0604c104a5fb6f4eb0703f3154bb3db3840180546001600160a01b039283166001600160a01b03199182161790915560808601517f036b6384b5eca791c62761152d0c79bb0604c104a5fb6f4eb0703f3154bb3db48601805491909316911617905560a084015180518594610f09937f036b6384b5eca791c62761152d0c79bb0604c104a5fb6f4eb0703f3154bb3db59091019201905b828054828255906000526020600020908101928215612b3d579160200282015b82811115612b3d57825182546001600160a01b0319166001600160a01b03909116178255602090920191600190910190612b08565b50612b49929150612b67565b5090565b508054600082559060005260206000209081019061120791905b5b80821115612b495760008155600101612b68565b6001600160e01b03198116811461120757600080fd5b600060208284031215612ba457600080fd5b81356108eb81612b7c565b60005b83811015612bca578181015183820152602001612bb2565b50506000910152565b60008151808452612beb816020860160208601612baf565b601f01601f19169290920160200192915050565b6020815260006108eb6020830184612bd3565b600060208284031215612c2457600080fd5b5035919050565b80356001600160a01b0381168114610daf57600080fd5b60008060408385031215612c5557600080fd5b612c5e83612c2b565b946020939093013593505050565b600080600060608486031215612c8157600080fd5b83359250612c9160208501612c2b565b9150604084013590509250925092565b600080600060608486031215612cb657600080fd5b612cbf84612c2b565b9250612c9160208501612c2b565b600080600060608486031215612ce257600080fd5b505081359360208301359350604090920135919050565b634e487b7160e01b600052604160045260246000fd5b604051601f8201601f1916810167ffffffffffffffff81118282101715612d3857612d38612cf9565b604052919050565b600067ffffffffffffffff821115612d5a57612d5a612cf9565b50601f01601f191660200190565b6000612d7b612d7684612d40565b612d0f565b9050828152838383011115612d8f57600080fd5b828260208301376000602084830101529392505050565b600082601f830112612db757600080fd5b6108eb83833560208501612d68565b600060208284031215612dd857600080fd5b813567ffffffffffffffff811115612def57600080fd5b6108ff84828501612da6565b60008060008060008060c08789031215612e1457600080fd5b612e1d87612c2b565b95506020870135945060408701359350606087013567ffffffffffffffff80821115612e4857600080fd5b612e548a838b01612da6565b94506080890135915080821115612e6a57600080fd5b612e768a838b01612da6565b935060a0890135915080821115612e8c57600080fd5b50612e9989828a01612da6565b9150509295509295509295565b600060208284031215612eb857600080fd5b6108eb82612c2b565b801515811461120757600080fd5b60008060408385031215612ee257600080fd5b612eeb83612c2b565b91506020830135612efb81612ec1565b809150509250929050565b60008060008060808587031215612f1c57600080fd5b612f2585612c2b565b9350612f3360208601612c2b565b925060408501359150606085013567ffffffffffffffff811115612f5657600080fd5b8501601f81018713612f6757600080fd5b612f7687823560208401612d68565b91505092959194509250565b60008060408385031215612f9557600080fd5b82359150612fa560208401612c2b565b90509250929050565b60008060408385031215612fc157600080fd5b612fca83612c2b565b9150612fa560208401612c2b565b600181811c90821680612fec57607f821691505b60208210810361300c57634e487b7160e01b600052602260045260246000fd5b50919050565b634e487b7160e01b600052603260045260246000fd5b60208082526022908201527f455243333532353a20617070726f76616c20746f2063757272656e74206f776e60408201526132b960f11b606082015260800190565b6000835161307c818460208801612baf565b64736c6f742f60d81b908301908152835161309e816005840160208801612baf565b01600501949350505050565b6000602082840312156130bc57600080fd5b815167ffffffffffffffff8111156130d357600080fd5b8201601f810184136130e457600080fd5b80516130f2612d7682612d40565b81815285602083850101111561310757600080fd5b613118826020830160208601612baf565b95945050505050565b601f82111561080857600081815260208120601f850160051c810160208610156131485750805b601f850160051c820191505b8181101561203d57828155600101613154565b815167ffffffffffffffff81111561318157613181612cf9565b6131958161318f8454612fd8565b84613121565b602080601f8311600181146131ca57600084156131b25750858301515b600019600386901b1c1916600185901b17855561203d565b600085815260208120601f198616915b828110156131f9578886015182559484019460019091019084016131da565b50858210156132175787850151600019600388901b60f8161c191681555b5050505050600190811b01905550565b8281526040602082015260006108ff6040830184612bd3565b60208082526032908201527f455243333532353a207472616e736665722063616c6c6572206973206e6f74206040820152711bdddb995c881b9bdc88185c1c1c9bdd995960721b606082015260800190565b600083516132a4818460208801612baf565b8351908301906132b8818360208801612baf565b01949350505050565b600083516132d3818460208801612baf565b68636f6e74726163742f60b81b90830190815283516132f9816009840160208801612baf565b01600901949350505050565b634e487b7160e01b600052601160045260246000fd5b8181038181111561063f5761063f613305565b8082018082111561063f5761063f613305565b60006001820161335357613353613305565b5060010190565b6001600160a01b038581168252841660208201526040810183905260806060820181905260009061338d90830184612bd3565b9695505050505050565b6000602082840312156133a957600080fd5b81516108eb81612b7c565b808202811582820484141761063f5761063f613305565b6000816133da576133da613305565b506000190190565b6000602082840312156133f457600080fd5b81516108eb81612ec1565b60018060a01b038616815284602082015283604082015282606082015260a06080820152600061343260a0830184612bd3565b979650505050505050565b634e487b7160e01b600052603160045260246000fdfea264697066735822122014a10130fb943f8722411d9f0094387bcc7833695bef36ec3f1cbc50e9bed52564736f6c6343000811003360806040523480156200001157600080fd5b5060405162001a4638038062001a46833981016040819052620000349162000150565b600162000042858262000292565b50600262000051848262000292565b50600362000060838262000292565b50600080546001600160a01b0319166001600160a01b0392909216919091179055506200035e915050565b634e487b7160e01b600052604160045260246000fd5b600082601f830112620000b357600080fd5b81516001600160401b0380821115620000d057620000d06200008b565b604051601f8301601f19908116603f01168101908282118183101715620000fb57620000fb6200008b565b816040528381526020925086838588010111156200011857600080fd5b600091505b838210156200013c57858201830151818301840152908201906200011d565b600093810190920192909252949350505050565b600080600080608085870312156200016757600080fd5b84516001600160401b03808211156200017f57600080fd5b6200018d88838901620000a1565b95506020870151915080821115620001a457600080fd5b620001b288838901620000a1565b94506040870151915080821115620001c957600080fd5b50620001d887828801620000a1565b606087015190935090506001600160a01b0381168114620001f857600080fd5b939692955090935050565b600181811c908216806200021857607f821691505b6020821081036200023957634e487b7160e01b600052602260045260246000fd5b50919050565b601f8211156200028d57600081815260208120601f850160051c81016020861015620002685750805b601f850160051c820191505b81811015620002895782815560010162000274565b5050505b505050565b81516001600160401b03811115620002ae57620002ae6200008b565b620002c681620002bf845462000203565b846200023f565b602080601f831160018114620002fe5760008415620002e55750858301515b600019600386901b1c1916600185901b17855562000289565b600085815260208120601f198616915b828110156200032f578886015182559484019460019091019084016200030e565b50858210156200034e5787850151600019600388901b60f8161c191681555b5050505050600190811b01905550565b6116d8806200036e6000396000f3fe608060405234801561001057600080fd5b506004361061007d5760003560e01c80636c037f8a1161005b5780636c037f8a146100bd578063725fa09c146100e6578063842251d4146100ee578063894b4c2e1461010157600080fd5b8063246a908b1461008257806355f804b31461009757806364140ec0146100aa575b600080fd5b610095610090366004610d53565b610114565b005b6100956100a5366004610d9a565b610131565b6100956100b8366004610d53565b610141565b6100d06100cb366004610dd7565b610159565b6040516100dd9190610e14565b60405180910390f35b6100d06101cf565b6100956100fc366004610d53565b6102f4565b6100d061010f366004610dd7565b61030c565b600082815260046020526040902061012c8282610ecf565b505050565b600161013d8282610ecf565b5050565b600082815260056020526040902061012c8282610ecf565b60606101a961016783610416565b6101708461048f565b610179856104c1565b61018286610543565b6040516020016101959493929190610fab565b6040516020818303038152906040526105c5565b6040516020016101b99190611079565b6040516020818303038152906040529050919050565b606060003390506102cf816001600160a01b03166306fdde036040518163ffffffff1660e01b8152600401600060405180830381865afa158015610217573d6000803e3d6000fd5b505050506040513d6000823e601f3d908101601f1916820160405261023f91908101906110be565b610247610718565b61024f6107aa565b6102bc856001600160a01b0316633e7e86696040518163ffffffff1660e01b8152600401602060405180830381865afa158015610290573d6000803e3d6000fd5b505050506040513d601f19601f820116820180604052508101906102b49190611135565b60ff166107df565b6040516020016101959493929190611158565b6040516020016102df9190611079565b60405160208183030381529060405291505090565b600082815260066020526040902061012c8282610ecf565b6060336103ef61031b84610872565b610324856108f4565b61032d86610996565b604051631398fee160e31b8152600481018890526103a0906001600160a01b03871690639cc7f708906024015b602060405180830381865afa158015610377573d6000803e3d6000fd5b505050506040513d601f19601f8201168201806040525081019061039b919061122b565b6107df565b60405163131f9f3f60e11b8152600481018990526103d1906001600160a01b0388169063263f3e7e9060240161035a565b6103da896109cb565b60405160200161019596959493929190611244565b6040516020016103ff9190611079565b604051602081830303815290604052915050919050565b60005460405163ec327a2160e01b8152600481018390526060916001600160a01b03169063ec327a21906024015b600060405180830381865afa158015610461573d6000803e3d6000fd5b505050506040513d6000823e601f3d908101601f1916820160405261048991908101906110be565b92915050565b60005460405163bc74ebb960e01b8152600481018390526060916001600160a01b03169063bc74ebb990602401610444565b6000546040516309c3dd8760e01b8152600481018390526060916001600160a01b0316906309c3dd8790602401600060405180830381865afa15801561050b573d6000803e3d6000fd5b505050506040513d6000823e601f3d908101601f1916820160405261053391908101906110be565b6040516020016101b9919061136a565b6000546040516309c3dd8760e01b8152600481018390526060916001600160a01b0316906309c3dd8790602401600060405180830381865afa15801561058d573d6000803e3d6000fd5b505050506040513d6000823e601f3d908101601f191682016040526105b591908101906110be565b6040516020016101b99190611394565b606081516000036105e457505060408051602081019091526000815290565b6000604051806060016040528060408152602001611663604091399050600060038451600261061391906113de565b61061d91906113f1565b610628906004611413565b67ffffffffffffffff81111561064057610640610c8e565b6040519080825280601f01601f19166020018201604052801561066a576020820181803683370190505b509050600182016020820185865187015b808210156106d6576003820191508151603f8160121c168501518453600184019350603f81600c1c168501518453600184019350603f8160061c168501518453600184019350603f811685015184535060018301925061067b565b50506003865106600181146106f257600281146107055761070d565b603d6001830353603d600283035361070d565b603d60018303535b509195945050505050565b60606002805461072790610e47565b80601f016020809104026020016040519081016040528092919081815260200182805461075390610e47565b80156107a05780601f10610775576101008083540402835291602001916107a0565b820191906000526020600020905b81548152906001019060200180831161078357829003601f168201915b5050505050905090565b606060016107b7336109f9565b60036040516020016107cb9392919061149d565b604051602081830303815290604052905090565b606060006107ec83610a0f565b600101905060008167ffffffffffffffff81111561080c5761080c610c8e565b6040519080825280601f01601f191660200182016040528015610836576020820181803683370190505b5090508181016020015b600019016f181899199a1a9b1b9c1cb0b131b232b360811b600a86061a8153600a850494508461084057509392505050565b6060336001600160a01b03166306fdde036040518163ffffffff1660e01b8152600401600060405180830381865afa1580156108b2573d6000803e3d6000fd5b505050506040513d6000823e601f3d908101601f191682016040526108da91908101906110be565b6108e3836107df565b6040516020016101b99291906114f1565b600081815260046020526040902080546060919061091190610e47565b80601f016020809104026020016040519081016040528092919081815260200182805461093d90610e47565b801561098a5780601f1061095f5761010080835404028352916020019161098a565b820191906000526020600020905b81548152906001019060200180831161096d57829003601f168201915b50505050509050919050565b606060016109a3306109f9565b6000848152600660209081526040808320600583529281902090516101b9959493920161152e565b606060016109d8336109f9565b60008481526006602090815260409182902091516101b994939291016115a0565b60606104896001600160a01b0383166014610ae7565b60008072184f03e93ff9f4daa797ed6e38ed64bf6a1f0160401b8310610a4e5772184f03e93ff9f4daa797ed6e38ed64bf6a1f0160401b830492506040015b6d04ee2d6d415b85acef81000000008310610a7a576d04ee2d6d415b85acef8100000000830492506020015b662386f26fc100008310610a9857662386f26fc10000830492506010015b6305f5e1008310610ab0576305f5e100830492506008015b6127108310610ac457612710830492506004015b60648310610ad6576064830492506002015b600a83106104895760010192915050565b60606000610af6836002611413565b610b019060026113de565b67ffffffffffffffff811115610b1957610b19610c8e565b6040519080825280601f01601f191660200182016040528015610b43576020820181803683370190505b509050600360fc1b81600081518110610b5e57610b5e611635565b60200101906001600160f81b031916908160001a905350600f60fb1b81600181518110610b8d57610b8d611635565b60200101906001600160f81b031916908160001a9053506000610bb1846002611413565b610bbc9060016113de565b90505b6001811115610c34576f181899199a1a9b1b9c1cb0b131b232b360811b85600f1660108110610bf057610bf0611635565b1a60f81b828281518110610c0657610c06611635565b60200101906001600160f81b031916908160001a90535060049490941c93610c2d8161164b565b9050610bbf565b508315610c875760405162461bcd60e51b815260206004820181905260248201527f537472696e67733a20686578206c656e67746820696e73756666696369656e74604482015260640160405180910390fd5b9392505050565b634e487b7160e01b600052604160045260246000fd5b604051601f8201601f1916810167ffffffffffffffff81118282101715610ccd57610ccd610c8e565b604052919050565b600067ffffffffffffffff821115610cef57610cef610c8e565b50601f01601f191660200190565b600082601f830112610d0e57600080fd5b8135610d21610d1c82610cd5565b610ca4565b818152846020838601011115610d3657600080fd5b816020850160208301376000918101602001919091529392505050565b60008060408385031215610d6657600080fd5b82359150602083013567ffffffffffffffff811115610d8457600080fd5b610d9085828601610cfd565b9150509250929050565b600060208284031215610dac57600080fd5b813567ffffffffffffffff811115610dc357600080fd5b610dcf84828501610cfd565b949350505050565b600060208284031215610de957600080fd5b5035919050565b60005b83811015610e0b578181015183820152602001610df3565b50506000910152565b6020815260008251806020840152610e33816040850160208701610df0565b601f01601f19169190910160400192915050565b600181811c90821680610e5b57607f821691505b602082108103610e7b57634e487b7160e01b600052602260045260246000fd5b50919050565b601f82111561012c57600081815260208120601f850160051c81016020861015610ea85750805b601f850160051c820191505b81811015610ec757828155600101610eb4565b505050505050565b815167ffffffffffffffff811115610ee957610ee9610c8e565b610efd81610ef78454610e47565b84610e81565b602080601f831160018114610f325760008415610f1a5750858301515b600019600386901b1c1916600185901b178555610ec7565b600085815260208120601f198616915b82811015610f6157888601518255948401946001909101908401610f42565b5085821015610f7f5787850151600019600388901b60f8161c191681555b5050505050600190811b01905550565b60008151610fa1818560208601610df0565b9290920192915050565b683d913730b6b2911d1160b91b81528451600090610fd0816009850160208a01610df0565b701116113232b9b1b934b83a34b7b7111d1160791b600991840191820152855161100181601a840160208a01610df0565b6a11161134b6b0b3b2911d1160a91b601a9290910191820152845161102d816025840160208901610df0565b6e111611383937b832b93a34b2b9911d60891b60259290910191820152835161105d816034840160208801610df0565b607d60f81b603492909101918201526035019695505050505050565b7f646174613a6170706c69636174696f6e2f6a736f6e3b6261736536342c0000008152600082516110b181601d850160208701610df0565b91909101601d0192915050565b6000602082840312156110d057600080fd5b815167ffffffffffffffff8111156110e757600080fd5b8201601f810184136110f857600080fd5b8051611106610d1c82610cd5565b81815285602083850101111561111b57600080fd5b61112c826020830160208601610df0565b95945050505050565b60006020828403121561114757600080fd5b815160ff81168114610c8757600080fd5b683d913730b6b2911d1160b91b8152845160009061117d816009850160208a01610df0565b701116113232b9b1b934b83a34b7b7111d1160791b60099184019182015285516111ae81601a840160208a01610df0565b6a11161134b6b0b3b2911d1160a91b601a929091019182015284516111da816025840160208901610df0565b721116113b30b63ab2a232b1b4b6b0b639911d1160691b60259290910191820152835161120e816038840160208801610df0565b61227d60f01b60389290910191820152603a019695505050505050565b60006020828403121561123d57600080fd5b5051919050565b683d913730b6b2911d1160b91b81528651600090611269816009850160208c01610df0565b701116113232b9b1b934b83a34b7b7111d1160791b600991840191820152875161129a81601a840160208c01610df0565b6a11161134b6b0b3b2911d1160a91b601a929091019182015286516112c6816025840160208b01610df0565b6c1116113130b630b731b2911d1160991b6025929091019182015285516112f4816032840160208a01610df0565b6911161139b637ba111d1160b11b60329290910191820152845161131f81603c840160208901610df0565b61135c61134f611349603c848601016e111611383937b832b93a34b2b9911d60891b8152600f0190565b87610f8f565b607d60f81b815260010190565b9a9950505050505050505050565b6000825161137c818460208701610df0565b652f696d61676560d01b920191825250600601919050565b600082516113a6818460208701610df0565b6f17b83937b832b93a34b2b9973539b7b760811b920191825250601001919050565b634e487b7160e01b600052601160045260246000fd5b80820180821115610489576104896113c8565b60008261140e57634e487b7160e01b600052601260045260246000fd5b500490565b8082028115828204841417610489576104896113c8565b6000815461143781610e47565b6001828116801561144f576001811461146457611493565b60ff1984168752821515830287019450611493565b8560005260208060002060005b8581101561148a5781548a820152908401908201611471565b50505082870194505b5050505092915050565b60006114a9828661142a565b68636f6e74726163742f60b81b815284516114cb816009840160208901610df0565b602f60f81b600992909101918201526114e7600a82018561142a565b9695505050505050565b60008351611503818460208801610df0565b61202360f01b9083019081528351611522816002840160208801610df0565b01600201949350505050565b600061153a828761142a565b692f636f6e74726163742f60b01b8152855161155d81600a840160208a01610df0565b662f746f6b656e2f60c81b600a929091019182015261157f601182018661142a565b9050602f60f81b8152611595600182018561142a565b979650505050505050565b6e7b70726f706572746965735f75726960881b815260006115c4600f83018661142a565b68636f6e74726163742f60b81b815284516115e6816009840160208901610df0565b662f746f6b656e2f60c81b60099290910191820152611608601082018561142a565b6f17b83937b832b93a34b2b9973539b7b760811b8152607d60f81b60108201526011019695505050505050565b634e487b7160e01b600052603260045260246000fd5b60008161165a5761165a6113c8565b50600019019056fe4142434445464748494a4b4c4d4e4f505152535455565758595a6162636465666768696a6b6c6d6e6f707172737475767778797a303132333435363738392b2fa2646970667358221220f622a95ca579ad3e624f36a75282d2e2e7eb7abc812f4a74518e120350c886ff64736f6c63430008110033",
  "linkReferences": {},
  "deployedLinkReferences": {}
}