{
  "_format": "hh-sol-artifact-1",
  "contractName": "Service",
  "sourceName": "contracts/Service.sol",
  "abi": [
    {
      "inputs": [
        {
          "internalType": "address",
          "name": "adminAddress_",
          "type": "address"
        },
        {
          "internalType": "address",
          "name": "mktAdmin_",
          "type": "address"
        },
        {
          "internalType": "address",
          "name": "slotRegistry_",
          "type": "address"
        },
        {
          "internalType": "uint256",
          "name": "defaultSlot_",
          "type": "uint256"
        },
        {
          "internalType": "string",
          "name": "name_",
          "type": "string"
        },
        {
          "internalType": "string",
          "name": "symbol_",
          "type": "string"
        },
        {
          "internalType": "string",
          "name": "baseuri_",
          "type": "string"
        },
        {
          "internalType": "string",
          "name": "contractDescription_",
          "type": "string"
        },
        {
          "internalType": "string",
          "name": "contractImage_",
          "type": "string"
        },
        {
          "internalType": "string",
          "name": "contractType_",
          "type": "string"
        },
        {
          "internalType": "uint8",
          "name": "decimals_",
          "type": "uint8"
        }
      ],
      "stateMutability": "nonpayable",
      "type": "constructor"
    },
    {
      "anonymous": false,
      "inputs": [
        {
          "indexed": true,
          "internalType": "address",
          "name": "_owner",
          "type": "address"
        },
        {
          "indexed": true,
          "internalType": "address",
          "name": "_approved",
          "type": "address"
        },
        {
          "indexed": true,
          "internalType": "uint256",
          "name": "_tokenId",
          "type": "uint256"
        }
      ],
      "name": "Approval",
      "type": "event"
    },
    {
      "anonymous": false,
      "inputs": [
        {
          "indexed": true,
          "internalType": "address",
          "name": "_owner",
          "type": "address"
        },
        {
          "indexed": true,
          "internalType": "address",
          "name": "_operator",
          "type": "address"
        },
        {
          "indexed": false,
          "internalType": "bool",
          "name": "_approved",
          "type": "bool"
        }
      ],
      "name": "ApprovalForAll",
      "type": "event"
    },
    {
      "anonymous": false,
      "inputs": [
        {
          "indexed": true,
          "internalType": "uint256",
          "name": "_tokenId",
          "type": "uint256"
        },
        {
          "indexed": true,
          "internalType": "address",
          "name": "_operator",
          "type": "address"
        },
        {
          "indexed": false,
          "internalType": "uint256",
          "name": "_value",
          "type": "uint256"
        }
      ],
      "name": "ApprovalValue",
      "type": "event"
    },
    {
      "anonymous": false,
      "inputs": [
        {
          "indexed": false,
          "internalType": "address",
          "name": "contractAddress",
          "type": "address"
        }
      ],
      "name": "MetadataDescriptor",
      "type": "event"
    },
    {
      "anonymous": false,
      "inputs": [
        {
          "indexed": false,
          "internalType": "uint256",
          "name": "tokenId",
          "type": "uint256"
        },
        {
          "indexed": false,
          "internalType": "uint256",
          "name": "slot",
          "type": "uint256"
        },
        {
          "indexed": false,
          "internalType": "uint256",
          "name": "value",
          "type": "uint256"
        }
      ],
      "name": "MintServiceToken",
      "type": "event"
    },
    {
      "anonymous": false,
      "inputs": [
        {
          "indexed": false,
          "internalType": "uint256",
          "name": "newTokenId",
          "type": "uint256"
        },
        {
          "indexed": false,
          "internalType": "uint256",
          "name": "slot",
          "type": "uint256"
        },
        {
          "indexed": false,
          "internalType": "uint256",
          "name": "value",
          "type": "uint256"
        }
      ],
      "name": "MintServiceTokenToAddress",
      "type": "event"
    },
    {
      "anonymous": false,
      "inputs": [
        {
          "indexed": true,
          "internalType": "bytes32",
          "name": "role",
          "type": "bytes32"
        },
        {
          "indexed": true,
          "internalType": "bytes32",
          "name": "previousAdminRole",
          "type": "bytes32"
        },
        {
          "indexed": true,
          "internalType": "bytes32",
          "name": "newAdminRole",
          "type": "bytes32"
        }
      ],
      "name": "RoleAdminChanged",
      "type": "event"
    },
    {
      "anonymous": false,
      "inputs": [
        {
          "indexed": true,
          "internalType": "bytes32",
          "name": "role",
          "type": "bytes32"
        },
        {
          "indexed": true,
          "internalType": "address",
          "name": "account",
          "type": "address"
        },
        {
          "indexed": true,
          "internalType": "address",
          "name": "sender",
          "type": "address"
        }
      ],
      "name": "RoleGranted",
      "type": "event"
    },
    {
      "anonymous": false,
      "inputs": [
        {
          "indexed": true,
          "internalType": "bytes32",
          "name": "role",
          "type": "bytes32"
        },
        {
          "indexed": true,
          "internalType": "address",
          "name": "account",
          "type": "address"
        },
        {
          "indexed": true,
          "internalType": "address",
          "name": "sender",
          "type": "address"
        }
      ],
      "name": "RoleRevoked",
      "type": "event"
    },
    {
      "anonymous": false,
      "inputs": [
        {
          "indexed": true,
          "internalType": "address",
          "name": "metadataDescriptor",
          "type": "address"
        }
      ],
      "name": "SetMetadataDescriptor",
      "type": "event"
    },
    {
      "anonymous": false,
      "inputs": [
        {
          "indexed": true,
          "internalType": "uint256",
          "name": "_tokenId",
          "type": "uint256"
        },
        {
          "indexed": true,
          "internalType": "uint256",
          "name": "_oldSlot",
          "type": "uint256"
        },
        {
          "indexed": true,
          "internalType": "uint256",
          "name": "_newSlot",
          "type": "uint256"
        }
      ],
      "name": "SlotChanged",
      "type": "event"
    },
    {
      "anonymous": false,
      "inputs": [
        {
          "indexed": true,
          "internalType": "address",
          "name": "_from",
          "type": "address"
        },
        {
          "indexed": true,
          "internalType": "address",
          "name": "_to",
          "type": "address"
        },
        {
          "indexed": true,
          "internalType": "uint256",
          "name": "_tokenId",
          "type": "uint256"
        }
      ],
      "name": "Transfer",
      "type": "event"
    },
    {
      "anonymous": false,
      "inputs": [
        {
          "indexed": true,
          "internalType": "uint256",
          "name": "_fromTokenId",
          "type": "uint256"
        },
        {
          "indexed": true,
          "internalType": "uint256",
          "name": "_toTokenId",
          "type": "uint256"
        },
        {
          "indexed": false,
          "internalType": "uint256",
          "name": "_value",
          "type": "uint256"
        }
      ],
      "name": "TransferValue",
      "type": "event"
    },
    {
      "anonymous": false,
      "inputs": [
        {
          "indexed": false,
          "internalType": "uint256",
          "name": "fromTokenId",
          "type": "uint256"
        },
        {
          "indexed": false,
          "internalType": "uint256",
          "name": "toTokenId",
          "type": "uint256"
        },
        {
          "indexed": false,
          "internalType": "uint256",
          "name": "value",
          "type": "uint256"
        }
      ],
      "name": "ValueTransfer",
      "type": "event"
    },
    {
      "inputs": [],
      "name": "DEFAULT_ADMIN_ROLE",
      "outputs": [
        {
          "internalType": "bytes32",
          "name": "",
          "type": "bytes32"
        }
      ],
      "stateMutability": "view",
      "type": "function"
    },
    {
      "inputs": [],
      "name": "MKT_ARBITRATOR_ROLE",
      "outputs": [
        {
          "internalType": "bytes32",
          "name": "",
          "type": "bytes32"
        }
      ],
      "stateMutability": "view",
      "type": "function"
    },
    {
      "inputs": [],
      "name": "SERVICE_ADMIN_ROLE",
      "outputs": [
        {
          "internalType": "bytes32",
          "name": "",
          "type": "bytes32"
        }
      ],
      "stateMutability": "view",
      "type": "function"
    },
    {
      "inputs": [
        {
          "internalType": "string",
          "name": "uri_",
          "type": "string"
        }
      ],
      "name": "_setBaseURI",
      "outputs": [],
      "stateMutability": "nonpayable",
      "type": "function"
    },
    {
      "inputs": [
        {
          "internalType": "uint256",
          "name": "tokenId_",
          "type": "uint256"
        },
        {
          "internalType": "address",
          "name": "operator_",
          "type": "address"
        }
      ],
      "name": "allowance",
      "outputs": [
        {
          "internalType": "uint256",
          "name": "",
          "type": "uint256"
        }
      ],
      "stateMutability": "view",
      "type": "function"
    },
    {
      "inputs": [
        {
          "internalType": "address",
          "name": "to_",
          "type": "address"
        },
        {
          "internalType": "uint256",
          "name": "tokenId_",
          "type": "uint256"
        }
      ],
      "name": "approve",
      "outputs": [],
      "stateMutability": "payable",
      "type": "function"
    },
    {
      "inputs": [
        {
          "internalType": "uint256",
          "name": "tokenId_",
          "type": "uint256"
        },
        {
          "internalType": "address",
          "name": "to_",
          "type": "address"
        },
        {
          "internalType": "uint256",
          "name": "value_",
          "type": "uint256"
        }
      ],
      "name": "approve",
      "outputs": [],
      "stateMutability": "payable",
      "type": "function"
    },
    {
      "inputs": [
        {
          "internalType": "address",
          "name": "owner_",
          "type": "address"
        }
      ],
      "name": "balanceOf",
      "outputs": [
        {
          "internalType": "uint256",
          "name": "balance",
          "type": "uint256"
        }
      ],
      "stateMutability": "view",
      "type": "function"
    },
    {
      "inputs": [
        {
          "internalType": "uint256",
          "name": "tokenId_",
          "type": "uint256"
        }
      ],
      "name": "balanceOf",
      "outputs": [
        {
          "internalType": "uint256",
          "name": "",
          "type": "uint256"
        }
      ],
      "stateMutability": "view",
      "type": "function"
    },
    {
      "inputs": [],
      "name": "contractAdmin",
      "outputs": [
        {
          "internalType": "address",
          "name": "",
          "type": "address"
        }
      ],
      "stateMutability": "view",
      "type": "function"
    },
    {
      "inputs": [],
      "name": "contractURI",
      "outputs": [
        {
          "internalType": "string",
          "name": "",
          "type": "string"
        }
      ],
      "stateMutability": "view",
      "type": "function"
    },
    {
      "inputs": [],
      "name": "creditType",
      "outputs": [
        {
          "internalType": "string",
          "name": "",
          "type": "string"
        }
      ],
      "stateMutability": "view",
      "type": "function"
    },
    {
      "inputs": [],
      "name": "defaultSlot",
      "outputs": [
        {
          "internalType": "uint256",
          "name": "",
          "type": "uint256"
        }
      ],
      "stateMutability": "view",
      "type": "function"
    },
    {
      "inputs": [
        {
          "internalType": "uint256",
          "name": "tokenId_",
          "type": "uint256"
        }
      ],
      "name": "getApproved",
      "outputs": [
        {
          "internalType": "address",
          "name": "",
          "type": "address"
        }
      ],
      "stateMutability": "view",
      "type": "function"
    },
    {
      "inputs": [
        {
          "internalType": "bytes32",
          "name": "role",
          "type": "bytes32"
        }
      ],
      "name": "getRoleAdmin",
      "outputs": [
        {
          "internalType": "bytes32",
          "name": "",
          "type": "bytes32"
        }
      ],
      "stateMutability": "view",
      "type": "function"
    },
    {
      "inputs": [
        {
          "internalType": "uint256",
          "name": "tokenId",
          "type": "uint256"
        }
      ],
      "name": "getTokenDescription",
      "outputs": [
        {
          "internalType": "string",
          "name": "",
          "type": "string"
        }
      ],
      "stateMutability": "view",
      "type": "function"
    },
    {
      "inputs": [
        {
          "internalType": "uint256",
          "name": "tokenId",
          "type": "uint256"
        }
      ],
      "name": "getTokenImage",
      "outputs": [
        {
          "internalType": "string",
          "name": "",
          "type": "string"
        }
      ],
      "stateMutability": "view",
      "type": "function"
    },
    {
      "inputs": [
        {
          "internalType": "uint256",
          "name": "tokenId",
          "type": "uint256"
        }
      ],
      "name": "getTokenUUID",
      "outputs": [
        {
          "internalType": "string",
          "name": "",
          "type": "string"
        }
      ],
      "stateMutability": "view",
      "type": "function"
    },
    {
      "inputs": [
        {
          "internalType": "bytes32",
          "name": "role",
          "type": "bytes32"
        },
        {
          "internalType": "address",
          "name": "account",
          "type": "address"
        }
      ],
      "name": "grantRole",
      "outputs": [],
      "stateMutability": "nonpayable",
      "type": "function"
    },
    {
      "inputs": [
        {
          "internalType": "bytes32",
          "name": "role",
          "type": "bytes32"
        },
        {
          "internalType": "address",
          "name": "account",
          "type": "address"
        }
      ],
      "name": "hasRole",
      "outputs": [
        {
          "internalType": "bool",
          "name": "",
          "type": "bool"
        }
      ],
      "stateMutability": "view",
      "type": "function"
    },
    {
      "inputs": [
        {
          "internalType": "address",
          "name": "owner_",
          "type": "address"
        },
        {
          "internalType": "address",
          "name": "operator_",
          "type": "address"
        }
      ],
      "name": "isApprovedForAll",
      "outputs": [
        {
          "internalType": "bool",
          "name": "",
          "type": "bool"
        }
      ],
      "stateMutability": "view",
      "type": "function"
    },
    {
      "inputs": [],
      "name": "metadataDescriptor",
      "outputs": [
        {
          "internalType": "contract IERC3525MetadataDescriptor",
          "name": "",
          "type": "address"
        }
      ],
      "stateMutability": "view",
      "type": "function"
    },
    {
      "inputs": [
        {
          "internalType": "address",
          "name": "owner_",
          "type": "address"
        },
        {
          "internalType": "uint256",
          "name": "slot_",
          "type": "uint256"
        },
        {
          "internalType": "uint256",
          "name": "value_",
          "type": "uint256"
        },
        {
          "internalType": "string",
          "name": "uuid_",
          "type": "string"
        },
        {
          "internalType": "string",
          "name": "tokenDescription_",
          "type": "string"
        },
        {
          "internalType": "string",
          "name": "tokenImage_",
          "type": "string"
        },
        {
          "internalType": "string",
          "name": "property_",
          "type": "string"
        }
      ],
      "name": "mint",
      "outputs": [
        {
          "internalType": "uint256",
          "name": "",
          "type": "uint256"
        }
      ],
      "stateMutability": "nonpayable",
      "type": "function"
    },
    {
      "inputs": [],
      "name": "name",
      "outputs": [
        {
          "internalType": "string",
          "name": "",
          "type": "string"
        }
      ],
      "stateMutability": "view",
      "type": "function"
    },
    {
      "inputs": [
        {
          "internalType": "address",
          "name": "owner_",
          "type": "address"
        },
        {
          "internalType": "uint256",
          "name": "slot_",
          "type": "uint256"
        },
        {
          "internalType": "uint256",
          "name": "value_",
          "type": "uint256"
        },
        {
          "internalType": "uint256",
          "name": "discountBasisPts_",
          "type": "uint256"
        },
        {
          "internalType": "string",
          "name": "uuid_",
          "type": "string"
        },
        {
          "internalType": "string",
          "name": "tokenDescription_",
          "type": "string"
        },
        {
          "internalType": "string",
          "name": "tokenImage_",
          "type": "string"
        },
        {
          "internalType": "string",
          "name": "property_",
          "type": "string"
        }
      ],
      "name": "networkMintWithDiscount",
      "outputs": [
        {
          "internalType": "uint256",
          "name": "",
          "type": "uint256"
        }
      ],
      "stateMutability": "nonpayable",
      "type": "function"
    },
    {
      "inputs": [
        {
          "internalType": "address",
          "name": "owner_",
          "type": "address"
        },
        {
          "internalType": "uint256",
          "name": "slot_",
          "type": "uint256"
        },
        {
          "internalType": "uint256",
          "name": "value_",
          "type": "uint256"
        },
        {
          "internalType": "uint256",
          "name": "tVRate_",
          "type": "uint256"
        },
        {
          "internalType": "string",
          "name": "uuid_",
          "type": "string"
        },
        {
          "internalType": "string",
          "name": "tokenDescription_",
          "type": "string"
        },
        {
          "internalType": "string",
          "name": "tokenImage_",
          "type": "string"
        },
        {
          "internalType": "string",
          "name": "property_",
          "type": "string"
        }
      ],
      "name": "networkMintWithTVRate",
      "outputs": [
        {
          "internalType": "uint256",
          "name": "",
          "type": "uint256"
        }
      ],
      "stateMutability": "nonpayable",
      "type": "function"
    },
    {
      "inputs": [
        {
          "internalType": "uint256",
          "name": "tokenId_",
          "type": "uint256"
        }
      ],
      "name": "ownerOf",
      "outputs": [
        {
          "internalType": "address",
          "name": "owner_",
          "type": "address"
        }
      ],
      "stateMutability": "view",
      "type": "function"
    },
    {
      "inputs": [
        {
          "internalType": "uint256",
          "name": "slotId_",
          "type": "uint256"
        }
      ],
      "name": "registerOnSlot",
      "outputs": [],
      "stateMutability": "nonpayable",
      "type": "function"
    },
    {
      "inputs": [
        {
          "internalType": "bytes32",
          "name": "role",
          "type": "bytes32"
        },
        {
          "internalType": "address",
          "name": "account",
          "type": "address"
        }
      ],
      "name": "renounceRole",
      "outputs": [],
      "stateMutability": "nonpayable",
      "type": "function"
    },
    {
      "inputs": [
        {
          "internalType": "bytes32",
          "name": "role",
          "type": "bytes32"
        },
        {
          "internalType": "address",
          "name": "account",
          "type": "address"
        }
      ],
      "name": "revokeRole",
      "outputs": [],
      "stateMutability": "nonpayable",
      "type": "function"
    },
    {
      "inputs": [
        {
          "internalType": "address",
          "name": "from_",
          "type": "address"
        },
        {
          "internalType": "address",
          "name": "to_",
          "type": "address"
        },
        {
          "internalType": "uint256",
          "name": "tokenId_",
          "type": "uint256"
        }
      ],
      "name": "safeTransferFrom",
      "outputs": [],
      "stateMutability": "payable",
      "type": "function"
    },
    {
      "inputs": [
        {
          "internalType": "address",
          "name": "from_",
          "type": "address"
        },
        {
          "internalType": "address",
          "name": "to_",
          "type": "address"
        },
        {
          "internalType": "uint256",
          "name": "tokenId_",
          "type": "uint256"
        },
        {
          "internalType": "bytes",
          "name": "data_",
          "type": "bytes"
        }
      ],
      "name": "safeTransferFrom",
      "outputs": [],
      "stateMutability": "payable",
      "type": "function"
    },
    {
      "inputs": [
        {
          "internalType": "address",
          "name": "operator_",
          "type": "address"
        },
        {
          "internalType": "bool",
          "name": "approved_",
          "type": "bool"
        }
      ],
      "name": "setApprovalForAll",
      "outputs": [],
      "stateMutability": "nonpayable",
      "type": "function"
    },
    {
      "inputs": [
        {
          "internalType": "uint256",
          "name": "tokenId_",
          "type": "uint256"
        }
      ],
      "name": "slotOf",
      "outputs": [
        {
          "internalType": "uint256",
          "name": "",
          "type": "uint256"
        }
      ],
      "stateMutability": "view",
      "type": "function"
    },
    {
      "inputs": [
        {
          "internalType": "uint256",
          "name": "slot_",
          "type": "uint256"
        }
      ],
      "name": "slotURI",
      "outputs": [
        {
          "internalType": "string",
          "name": "",
          "type": "string"
        }
      ],
      "stateMutability": "view",
      "type": "function"
    },
    {
      "inputs": [
        {
          "internalType": "bytes4",
          "name": "interfaceId",
          "type": "bytes4"
        }
      ],
      "name": "supportsInterface",
      "outputs": [
        {
          "internalType": "bool",
          "name": "",
          "type": "bool"
        }
      ],
      "stateMutability": "view",
      "type": "function"
    },
    {
      "inputs": [],
      "name": "symbol",
      "outputs": [
        {
          "internalType": "string",
          "name": "",
          "type": "string"
        }
      ],
      "stateMutability": "view",
      "type": "function"
    },
    {
      "inputs": [
        {
          "internalType": "uint256",
          "name": "index_",
          "type": "uint256"
        }
      ],
      "name": "tokenByIndex",
      "outputs": [
        {
          "internalType": "uint256",
          "name": "",
          "type": "uint256"
        }
      ],
      "stateMutability": "view",
      "type": "function"
    },
    {
      "inputs": [
        {
          "internalType": "address",
          "name": "owner_",
          "type": "address"
        },
        {
          "internalType": "uint256",
          "name": "index_",
          "type": "uint256"
        }
      ],
      "name": "tokenOfOwnerByIndex",
      "outputs": [
        {
          "internalType": "uint256",
          "name": "",
          "type": "uint256"
        }
      ],
      "stateMutability": "view",
      "type": "function"
    },
    {
      "inputs": [
        {
          "internalType": "uint256",
          "name": "tokenId_",
          "type": "uint256"
        }
      ],
      "name": "tokenURI",
      "outputs": [
        {
          "internalType": "string",
          "name": "",
          "type": "string"
        }
      ],
      "stateMutability": "view",
      "type": "function"
    },
    {
      "inputs": [],
      "name": "totalSupply",
      "outputs": [
        {
          "internalType": "uint256",
          "name": "",
          "type": "uint256"
        }
      ],
      "stateMutability": "view",
      "type": "function"
    },
    {
      "inputs": [
        {
          "internalType": "uint256",
          "name": "fromTokenId_",
          "type": "uint256"
        },
        {
          "internalType": "address",
          "name": "to_",
          "type": "address"
        },
        {
          "internalType": "uint256",
          "name": "value_",
          "type": "uint256"
        }
      ],
      "name": "transferFrom",
      "outputs": [
        {
          "internalType": "uint256",
          "name": "",
          "type": "uint256"
        }
      ],
      "stateMutability": "payable",
      "type": "function"
    },
    {
      "inputs": [
        {
          "internalType": "address",
          "name": "from_",
          "type": "address"
        },
        {
          "internalType": "address",
          "name": "to_",
          "type": "address"
        },
        {
          "internalType": "uint256",
          "name": "tokenId_",
          "type": "uint256"
        }
      ],
      "name": "transferFrom",
      "outputs": [],
      "stateMutability": "payable",
      "type": "function"
    },
    {
      "inputs": [
        {
          "internalType": "uint256",
          "name": "fromTokenId_",
          "type": "uint256"
        },
        {
          "internalType": "uint256",
          "name": "toTokenId_",
          "type": "uint256"
        },
        {
          "internalType": "uint256",
          "name": "value_",
          "type": "uint256"
        }
      ],
      "name": "transferFrom",
      "outputs": [],
      "stateMutability": "payable",
      "type": "function"
    },
    {
      "inputs": [],
      "name": "valueDecimals",
      "outputs": [
        {
          "internalType": "uint8",
          "name": "",
          "type": "uint8"
        }
      ],
      "stateMutability": "view",
      "type": "function"
    }
  ],
  "bytecode": "0x60808060405234620008cd57600062006a2a803803809162000022828662000904565b843982019161016081840312620008c9576200003e8162000928565b926200004d6020830162000928565b916200005c6040820162000928565b606082015160808301519093906001600160401b038111620008c557816200008691850162000962565b60a08401519094906001600160401b038111620005b45782620000ab91860162000962565b60c08501519094906001600160401b038111620008c15783620000d091830162000962565b60e08201519095906001600160401b038111620008b55784620000f591840162000962565b6101008301519097906001600160401b038111620008bd57856200011b91850162000962565b6101208401519095906001600160401b038111620008b957610140916200014491860162000962565b93015160ff811603620008b5578051906001600160401b038211620008a1578a54600181811c9116801562000896575b602082101462000882579081601f8493116200082e575b50602090601f8311600114620007c0578c92620007b4575b50508160011b916000199060031b1c19161789555b8051906001600160401b0382116200069957600154600181811c91168015620007a9575b602082101462000795579081601f84931162000735575b50602090601f8311600114620006b9578b92620006ad575b50508160011b916000199060031b1c1916176001555b6002805460ff19166006179055600b829055600c54600a80546001600160a01b0319166001600160a01b038c16179055604051825191926020808201939192818101929091620002889183906200027a81878a6200093d565b810103808452018262000904565b51902060405160208101906374696d6560e01b825260048152620002ac81620008d2565b51902003620005cc57505087935b6004851015620005b8576001600160a81b03199091166001600160a01b0390911690811760a094851b60ff60a01b1617600c81905590931c60ff16833b15620005b457604051916394b39b0960e01b835260018060a01b038a16600484015260248301526004811015620005a0576044820152868160648183875af18015620005955762000564575b50604051936120b780860194906001600160401b038611878710176200055057926200039c6060936200038d620003ab948a999897620049338b39608089526080890190620009bd565b908782036020890152620009bd565b908582036040870152620009bd565b920152039083f080156200054557600880546001600160a01b0319166001600160a01b039283161790557f1cd6d520d98babae1045eb69c31ecab800996aa332094cb55c0ac10362e9b0c980845260096020908152604080862094909316600081815294909152919092205460ff161562000505575b50507f9a95e87c5af084bf5db8491c3a6515da9dd6da39b24b0eb0af08d7b9cd808d9180825260096020526040822060018060a01b03841660005260205260ff6040600020541615620004b4575b7f9ac4f8025631594629895b778dc5ee88d01673a254a2291f6b6b174ad25230ca602060018060a01b0360085416604051908152a1604051613f4e9081620009e58239f35b8082526009602090815260408084206001600160a01b0395909516600081815295909252909320805460ff19166001179055339291600080516020620069ea8339815191529080a43880806200046f565b818352600960205260408320816000526020526040600020600160ff198254161790553391600080516020620069ea8339815191528480a4388062000421565b6040513d84823e3d90fd5b634e487b7160e01b89526041600452602489fd5b9095906001600160401b0381116200058157604052943862000343565b634e487b7160e01b82526041600452602482fd5b6040513d89823e3d90fd5b634e487b7160e01b88526021600452602488fd5b8780fd5b634e487b7160e01b89526021600452602489fd5b6040516020810190620005ea60208285516200027a81878a6200093d565b5190206040516020810190630c6c2e6d60e31b8252600481526200060e81620008d2565b519020036200062357505060015b93620002ba565b62000642602060405180936200027a838301968792519283916200093d565b51902060408051646974656d7360d81b6020820152600581529081018082116001600160401b03909111176200069957604081016040526020815191012014600014620006915760026200061c565b60036200061c565b634e487b7160e01b8a52604160045260248afd5b0151905038806200020b565b60018c528b935060008051602062006a0a83398151915291905b601f198416851062000719576001945083601f19811610620006ff575b505050811b0160015562000221565b015160001960f88460031b161c19169055388080620006f0565b81810151835560209485019460019093019290910190620006d3565b60018c5290915060008051602062006a0a833981519152601f840160051c8101602085106200078d575b90849392915b8d601f840160051c830182106200077f57505050620001f3565b815585945060010162000765565b50806200075f565b634e487b7160e01b8b52602260045260248bfd5b90607f1690620001dc565b015190503880620001a3565b92508b805260208c20908c935b601f198416851062000812576001945083601f19811610620007f8575b505050811b018955620001b8565b015160001960f88460031b161c19169055388080620007ea565b81810151835560209485019460019093019290910190620007cd565b9091508b805260208c20601f840160051c8101602085106200087a575b84939291908e5b601f840160051c830182106200086b575050506200018b565b81558594506001018e62000852565b50806200084b565b634e487b7160e01b8c52602260045260248cfd5b90607f169062000174565b634e487b7160e01b8b52604160045260248bfd5b8980fd5b8b80fd5b8a80fd5b8880fd5b8680fd5b5080fd5b600080fd5b604081019081106001600160401b03821117620008ee57604052565b634e487b7160e01b600052604160045260246000fd5b601f909101601f19168101906001600160401b03821190821017620008ee57604052565b51906001600160a01b0382168203620008cd57565b60005b838110620009515750506000910152565b818101518382015260200162000940565b81601f82011215620008cd5780516001600160401b038111620008ee576040519262000999601f8301601f19166020018562000904565b81845260208284010111620008cd57620009ba91602080850191016200093d565b90565b90602091620009d8815180928185528580860191016200093d565b601f01601f191601019056fe608080604052600436101561001357600080fd5b600090813560e01c90816301ffc9a71461212d5750806306fdde031461206d578063081812fc1461204e578063095ea7b314611f1857806309c3dd8714611c475780630f485c0214611c335780631375d84314611bcd5780631429fb57146115f357806318160ddd146115d557806323b872dd146115b0578063248a9ca314611583578063263f3e7e146115645780632f2ff15d146114b15780632f745c5914611408578063310ed7f01461124557806331b5b907146111bb57806336568abe146111285780633e7e86691461110757806341815ee41461100c57806342842e0e14610fe95780634f6ccce714610f64578063505a385314610f465780636352211e14610f1557806370a0823114610ef157806371f0442e14610e8b5780637795524514610e62578063840f711314610e3957806389e2920414610ce35780638cb0a51114610b9f57806391d1485414610b5357806395d89b4114610a475780639cc7f70814610a28578063a217fddf14610a0c578063a22cb46514610937578063a7c9f2d6146108fc578063aa20ce5514610648578063b3154c08146105e2578063b88d4fde14610583578063be950a6214610439578063c87b56dd146103a4578063d09445c214610369578063d547741f14610328578063e345e0bc146102f9578063e8a3d485146102695763e985e9c51461021057600080fd5b34610266576040366003190112610266576102296121ca565b600260406102356121e0565b9360018060a01b038094168152600760205220019116600052602052602060ff604060002054166040519015158152f35b80fd5b5034610266578060031936011261026657600854604051631c97e82760e21b8152908290829060049082906001600160a01b03165afa9081156102ee57826102c793926102cb575b50506040519182916020835260208301906121a5565b0390f35b6102e792503d8091833e6102df818361229a565b81019061284b565b38806102b1565b6040513d84823e3d90fd5b50346102665760403660031901126102665760206103206103186121e0565b600435613e8d565b604051908152f35b5034610266576040366003190112610266576103666004356103486121e0565b90808452600960205261036160016040862001546123f4565b612729565b80f35b503461026657806003193601126102665760206040517f9a95e87c5af084bf5db8491c3a6515da9dd6da39b24b0eb0af08d7b9cd808d918152f35b5034610266576020366003190112610266576004356103c281613c24565b8015610425575b6103d290612a60565b6008546040516344a5a61760e11b815260048101929092528290829060249082906001600160a01b03165afa9081156102ee57826102c793926102cb5750506040519182916020835260208301906121a5565b506103d261043282613c52565b90506103c9565b5034610266576020366003190112610266577f9a95e87c5af084bf5db8491c3a6515da9dd6da39b24b0eb0af08d7b9cd808d9181526009602052604081203360005260205260ff604060002054161561051857600c54600a546001600160a01b03808316939291169060a01c60ff16833b1561051457604051916394b39b0960e01b83526004830152600435602483015260048110156105005781606481858097819560448401525af180156102ee576104f05750f35b6104f990612220565b6102665780f35b634e487b7160e01b83526021600452602483fd5b8280fd5b60405162461bcd60e51b815260206004820152603760248201527f53656e646572206e6f7420617574686f72697a656420746f207265676973746560448201527f7220636f6e747261637420746f207468697320736c6f740000000000000000006064820152608490fd5b506080366003190112610266576105986121ca565b6105a06121e0565b606435916001600160401b0383116105de57366023840112156105de576105d46103669336906024816004013591016122d6565b9160443591612989565b8380fd5b503461026657602036600319011261026657600854604051631662a98160e31b81526004803590820152908290829060249082906001600160a01b03165afa9081156102ee57826102c793926102cb5750506040519182916020835260208301906121a5565b50346102665760208161065a36612360565b6003805460010190819055600c54604051630151086360e31b81526001600160a01b039a8b166004820152602481019990995260448901979097526064880195909552939893969095919492939192839160849183918b91165af19081156108f15786916108b7575b50868652600d60205260408620556008546001600160a01b0316803b156108b3576107168692918392604051948580948193632108947560e21b83528d60048401526040602484015260448301906121a5565b03925af19081156108a8578591610894575b50506008546001600160a01b0316803b156108905761076f859291839260405194858094819363246a908b60e01b83528c60048401526040602484015260448301906121a5565b03925af1908115610885578491610871575b50506008546001600160a01b0316803b156105de576107c88492918392604051948580948193630190503b60e61b83528b60048401526040602484015260448301906121a5565b03925af190811561085257839161085d575b50506008546001600160a01b031690813b1561051457829161082091604051948580948193637e468a5160e01b83528960048401526040602484015260448301906121a5565b03925af180156108525761083a575b602082604051908152f35b6108448391612220565b61084e578161082f565b5080fd5b6040513d85823e3d90fd5b61086690612220565b61084e5781386107da565b61087a90612220565b610514578238610781565b6040513d86823e3d90fd5b8480fd5b61089d90612220565b6105de578338610728565b6040513d87823e3d90fd5b8580fd5b9550506020853d6020116108e9575b816108d36020938361229a565b810103126108e457869451386106c3565b600080fd5b3d91506108c6565b6040513d88823e3d90fd5b503461026657806003193601126102665760206040517f1cd6d520d98babae1045eb69c31ecab800996aa332094cb55c0ac10362e9b0c98152f35b5034610266576040366003190112610266576109516121ca565b60243590811515809203610514576001600160a01b0316903382146109c75733835260076020526002604084200182600052602052604060002060ff1981541660ff83161790556040519081527f17307eab39ab6107e8899845ad3d59bd9653f200f220920489ca2b5937696c3160203392a380f35b60405162461bcd60e51b815260206004820152601a60248201527f455243333532353a20617070726f766520746f2063616c6c65720000000000006044820152606490fd5b5034610266578060031936011261026657602090604051908152f35b5034610266576020366003190112610266576020610320600435613d0b565b5034610266578060031936011261026657604051908060019182549283811c92818516948515610b49575b6020958686108114610b3557858852879493929187908215610b13575050600114610aba575b5050610aa69250038361229a565b6102c76040519282849384528301906121a5565b908592508082527fb10e2d527612073b26eecdfd717e6a320cf44b4afac2b0732d9fcbe2b7fa0cf65b858310610afb575050610aa693508201013880610a98565b80548389018501528794508693909201918101610ae3565b9250935050610aa694915060ff191682840152151560051b8201013880610a98565b634e487b7160e01b83526022600452602483fd5b93607f1693610a72565b5034610266576040366003190112610266576040610b6f6121e0565b9160043581526009602052209060018060a01b0316600052602052602060ff604060002054166040519015158152f35b50610ba9366121f6565b90610bb383613cc8565b83610bbd84613c24565b80610cd0575b15610c605750610be96001600160a01b0380610bde86612aac565b169083161415612a09565b610bf38333612b2f565b15610c015761036692613658565b60405162461bcd60e51b815260206004820152603160248201527f455243333532353a20617070726f76652063616c6c6572206973206e6f74206f6044820152701ddb995c881b9bdc88185c1c1c9bdd9959607a1b6064820152608490fd5b600c54938152600d60205260408120549093919290916001600160a01b0316803b1561089057604051638cb0a51160e01b815260048101939093526001600160a01b03909316602483015260448201529082908290818381606481015b03925af180156102ee576104f057505080f35b50610cda84612824565b600b5414610bc3565b503461026657610cf236612360565b94969560ff600295929594939454169160018060a01b03600c541690604d8411610e255783600a0a15610e0f57604051632d2a246560e01b81526001600160a01b039990991660048a015260248901929092526044880198909852600a9190910a9004606486015293948694906020908790608490829089905af19586156108a8578596610dd8575b506001600354019586600355868652600d602052604086205560018060a01b0360085416803b156108b3576107168692918392604051948580948193632108947560e21b83528d60048401526040602484015260448301906121a5565b945094506020843d602011610e07575b81610df56020938361229a565b810103126108e4578593519438610d7b565b3d9150610de8565b634e487b7160e01b600052601260045260246000fd5b634e487b7160e01b8b52601160045260248bfd5b50346102665780600319360112610266576008546040516001600160a01b039091168152602090f35b5034610266578060031936011261026657600a546040516001600160a01b039091168152602090f35b5034610266576020366003190112610266576008546040516338f8221760e11b81526004803590820152908290829060249082906001600160a01b03165afa9081156102ee57826102c793926102cb5750506040519182916020835260208301906121a5565b5034610266576020366003190112610266576020610320610f106121ca565b6128a9565b5034610266576020366003190112610266576020610f34600435613dbd565b6040516001600160a01b039091168152f35b50346102665780600319360112610266576020600b54604051908152f35b503461026657602036600319011261026657600435600554811015610f9857610f8e6020916127e9565b5054604051908152f35b60405162461bcd60e51b815260206004820152602360248201527f455243333532353a20676c6f62616c20696e646578206f7574206f6620626f756044820152626e647360e81b6064820152608490fd5b50610366610ff63661232b565b906040519261100484612264565b858452612989565b503461026657806003193601126102665760ff600c5460a01c1660048110156110f357600381036110725750506102c76040516110488161227f565b60088152677072696f7269747960c01b60208201525b6040519182916020835260208301906121a5565b8061109e5750506102c76040516110888161227f565b600481526374696d6560e01b602082015261105e565b6002141590506110ce576102c76040516110b78161227f565b60058152646974656d7360d81b602082015261105e565b6102c76040516110dd8161227f565b60048152630c6c2e6d60e31b602082015261105e565b634e487b7160e01b82526021600452602482fd5b5034610266578060031936011261026657602060ff60025416604051908152f35b5034610266576040366003190112610266576111426121e0565b336001600160a01b0382160361115e5761036690600435612729565b60405162461bcd60e51b815260206004820152602f60248201527f416363657373436f6e74726f6c3a2063616e206f6e6c792072656e6f756e636560448201526e103937b632b9903337b91039b2b63360891b6064820152608490fd5b503461026657602036600319011261026657806004356001600160401b038111611242576111ed90369060040161230d565b6008546001600160a01b0316803b1561123e576040516355f804b360e01b815260206004820152918391839182908490829061122d9060248301906121a5565b03925af180156102ee576104f05750f35b5050fd5b50fd5b5060603660031901126102665760443560243560043561126482613c24565b806113f5575b80156113e6575b1561136f578361128082613c24565b8061135c575b80611339575b156112f057506112ea836112c27fdf7a601a0a201ccd4b4bfcfd610913188d931867997223d226f85f2f2673988a958433613590565b6112cd81858561382a565b604051938493846040919493926060820195825260208201520152565b0390a180f35b600c549093906001600160a01b0316803b1561089057604051630310ed7f60e41b8152600481019390935260248301939093526044820152908290829081838160648101610cbd565b5061134383613c24565b801561128c575061135383612824565b600b541461128c565b5061136682612824565b600b5414611286565b60a460405162461bcd60e51b815260206004820152604460248201527f546f6b656e204944206f66207265636569766572206e6f74207265636f676e6960448201527f7a6564206279207468697320636f6e7472616374206f722074686520726567696064820152637374727960e01b6084820152fd5b506113f082613c52565b611271565b506113ff82612824565b600b541461126a565b5034610266576040366003190112610266576114226121ca565b9060243561142f836128a9565b8110156114615760406114539260209460018060a01b031681526007855220612b17565b90546040519160031b1c8152f35b60405162461bcd60e51b815260206004820152602260248201527f455243333532353a206f776e657220696e646578206f7574206f6620626f756e604482015261647360f01b6064820152608490fd5b5034610266576040366003190112610266576004356114ce6121e0565b81835260096020526114e660016040852001546123f4565b8183526009602052604083209060018060a01b0316908160005260205260ff6040600020541615611515578280f35b818352600960205260408320816000526020526040600020600160ff1982541617905533917f2f8788117e7eff1d82e926ec794901d17c78024a50270940304540a733656f0d8480a438808280f35b5034610266576020366003190112610266576020610320600435612824565b50346102665760203660031901126102665760016040602092600435815260098452200154604051908152f35b506103666115bd3661232b565b916115d06115cb8433612b2f565b612922565b612ba0565b50346102665780600319360112610266576020600554604051908152f35b50346102665760e03660031901126102665761160d6121ca565b6064356001600160401b0381116105145761162c90369060040161230d565b916084356001600160401b03811161084e5761164c90369060040161230d565b60a4356001600160401b0381116105145761166b90369060040161230d565b60c4356001600160401b0381116105de5761168a90369060040161230d565b91600160035401948560035560018060a01b03811615611b7e578515611b2f576116b386613c24565b8015611b20575b611adb576040516116ca81612264565b858152604051906116da82612249565b878252602435602083015286604083015260018060a01b038316606083015286608083015260a08201526005548787526006602052806040882055600160401b811015611ac75780600161173192016005556127e9565b919091611ab35780518255602081015160018301556040810151600283015560608101516003830180546001600160a01b039283166001600160a01b031991821617909155608083015160048501805491909316911617905560a001518051916001600160401b038311611a9f5790602060058a95949301916117b48484612f5d565b0190885260208820885b838110611a7f57505050506117d38282612eab565b6001600160a01b0316857fddf252ad1be2c89b69c2b068fc378daa952ba7f163c4a11628f55a4df523b3ef8180a460243584867fe4f48c240d3b994948aa54f3e2f5fca59263dfe1d52b6e4cf39a5d249b5ccb658280a48484526006602052600261184160408620546127e9565b5001956044359661185388825461279f565b905585857f0b2aac84f3ec956911fd78eae5311062972ff949f38412e8da39069d9f068cc660206040518b8152a36008546001600160a01b031690813b156108b3576118c686928392604051948580948193632108947560e21b83528d60048401526040602484015260448301906121a5565b03925af180156108a857611a6c575b506008546001600160a01b031690813b156108905761191b8592839260405194858094819363246a908b60e01b83528c60048401526040602484015260448301906121a5565b03925af1801561088557908491611a58575b50506008546001600160a01b031690813b156105de5761197484928392604051948580948193630190503b60e61b83528b60048401526040602484015260448301906121a5565b03925af1801561085257908391611a44575b50506008546001600160a01b031690813b15610514576119cd83928392604051948580948193637e468a5160e01b83528a60048401526040602484015260448301906121a5565b03925af180156102ee57611a30575b6020837f84eeb48eca46cea54afc9753345f6038981672ea565f32885420829dfd88aea6611a258760405191829160243586846040919493926060820195825260208201520152565b0390a1604051908152f35b611a3a8291612220565b61026657806119dc565b611a4d90612220565b61084e578138611986565b611a6190612220565b61051457823861192d565b611a7890949194612220565b92386118d5565b82516001600160a01b0316818301558a95506020909201916001016117be565b634e487b7160e01b88526041600452602488fd5b634e487b7160e01b87526004879052602487fd5b634e487b7160e01b87526041600452602487fd5b60405162461bcd60e51b815260206004820152601d60248201527f455243333532353a20746f6b656e20616c7265616479206d696e7465640000006044820152606490fd5b50611b2a86613c52565b6116ba565b60405162461bcd60e51b815260206004820152602160248201527f455243333532353a2063616e6e6f74206d696e74207a65726f20746f6b656e496044820152601960fa1b6064820152608490fd5b60405162461bcd60e51b815260206004820152602160248201527f455243333532353a206d696e7420746f20746865207a65726f206164647265736044820152607360f81b6064820152608490fd5b503461026657602036600319011261026657600854604051631375d84360e01b81526004803590820152908290829060249082906001600160a01b03165afa9081156102ee57826102c793926102cb5750506040519182916020835260208301906121a5565b6020610320611c41366121f6565b9161310e565b503461026657602090816003193601126102665760043560018060a01b036008541690604051636c0360eb60e01b81528381600481865afa908115610885578491611efe575b508215611cfd57508290602460405180948193633601bfc560e11b835260048301525afa918215611cf1578092611cd6575b5050906102c76040519282849384528301906121a5565b611cea92503d8091833e6102df818361229a565b3880611cbf565b604051903d90823e3d90fd5b80519093925015611ec5578190807a184f03e93ff9f4daa797ed6e38ed64bf6a1f0100000000000000008181811015611eb7575b5050856d04ee2d6d415b85acef810000000080841015611ea9575b5050662386f26fc1000080831015611e9a575b506305f5e10080831015611e8b575b5061271080831015611e7c575b506064821015611e6c575b600a80921015611e62575b60019081602181860195611dbd611da7886122bb565b97611db5604051998a61229a565b8089526122bb565b878b019890601f1901368a3750860101905b611e2c575b50505050611e1792611e26926025926040519583611dfb88955180928b8089019101612182565b84019164736c6f742f60d81b8984015251809386840190612182565b0103600581018452018261229a565b90610aa6565b600019019083906f181899199a1a9b1b9c1cb0b131b232b360811b8282061a835304918215611e5d57919082611dcf565b611dd4565b9160010191611d91565b9190606460029104910191611d86565b60049193920491019138611d7b565b60089193920491019138611d6e565b60109193920491019138611d5f565b930192909104908538611d4c565b604094500491503880611d31565b5060405191508282016001600160401b03811183821017611eea576040528152611e26565b634e487b7160e01b82526041600452602482fd5b611f1291503d8086833e6102df818361229a565b38611c8d565b50604036600319011261026657611f2d6121ca565b602435906001600160a01b038080611f4485612aac565b16921691611f5481841415612a09565b80331490811561202a575b5015611fbf5782845260066020526004611f7c60408620546127e9565b500180546001600160a01b03191683179055611f9783612aac565b167f8c5be1e5ebec7d5bd14f71427d1e84f3dd0314c0f7b2291e5b200ac8c7c3b9258480a480f35b60405162461bcd60e51b815260206004820152603960248201527f455243333532353a20617070726f76652063616c6c6572206973206e6f74206f60448201527f776e6572206e6f7220617070726f76656420666f7220616c6c000000000000006064820152608490fd5b9050845260076020526002604085200133855260205260ff60408520541638611f5f565b5034610266576020366003190112610266576020610f34600435612ae7565b50346102665780600319360112610266576040519080805491600183811c92818516948515612123575b6020958686108114610b3557858852879493929187908215610b135750506001146120ca575050610aa69250038361229a565b908592508180527f290decd9548b62a8d60345a988386fc84ba6bc95484008f6362f93160ef3e5635b85831061210b575050610aa693508201013880610a98565b805483890185015287945086939092019181016120f3565b93607f1693612097565b90503461084e57602036600319011261084e5760043563ffffffff60e01b81168091036105145760209250637965db0b60e01b8114908115612171575b5015158152f35b6301ffc9a760e01b1490503861216a565b60005b8381106121955750506000910152565b8181015183820152602001612185565b906020916121be81518092818552858086019101612182565b601f01601f1916010190565b600435906001600160a01b03821682036108e457565b602435906001600160a01b03821682036108e457565b60609060031901126108e457600435906024356001600160a01b03811681036108e4579060443590565b6001600160401b03811161223357604052565b634e487b7160e01b600052604160045260246000fd5b60c081019081106001600160401b0382111761223357604052565b602081019081106001600160401b0382111761223357604052565b604081019081106001600160401b0382111761223357604052565b90601f801991011681019081106001600160401b0382111761223357604052565b6001600160401b03811161223357601f01601f191660200190565b9291926122e2826122bb565b916122f0604051938461229a565b8294818452818301116108e4578281602093846000960137010152565b9080601f830112156108e457816020612328933591016122d6565b90565b60609060031901126108e4576001600160a01b039060043582811681036108e4579160243590811681036108e4579060443590565b6101006003198201126108e4576004356001600160a01b03811681036108e457916024359160443591606435916001600160401b03906084358281116108e457816123ad9160040161230d565b9260a4358381116108e457826123c59160040161230d565b9260c4358181116108e457836123dd9160040161230d565b9260e4359182116108e4576123289160040161230d565b60009080825260209060098252604092838120338252835260ff84822054161561241e5750505050565b8351916001600160401b0390336060850183811186821017612715578752602a8552858501918736843785511561270157603083538551916001928310156126ed576078602188015360295b8381116126835750612641579087519360808501908582109082111761262d57885260428452868401946060368737845115612619576030865384518210156126195790607860218601536041915b8183116125ab57505050612569576125659386936125499361253a6048946125119a519a8b957f416363657373436f6e74726f6c3a206163636f756e74200000000000000000008c8801525180926037880190612182565b8401917001034b99036b4b9b9b4b733903937b6329607d1b603784015251809386840190612182565b0103602881018752018561229a565b5192839262461bcd60e51b8452600484015260248301906121a5565b0390fd5b60648587519062461bcd60e51b825280600483015260248201527f537472696e67733a20686578206c656e67746820696e73756666696369656e746044820152fd5b909192600f81166010811015612605576f181899199a1a9b1b9c1cb0b131b232b360811b901a6125db85886127c2565b5360041c9280156125f1576000190191906124b9565b634e487b7160e01b82526011600452602482fd5b634e487b7160e01b83526032600452602483fd5b634e487b7160e01b81526032600452602490fd5b634e487b7160e01b86526041600452602486fd5b60648789519062461bcd60e51b825280600483015260248201527f537472696e67733a20686578206c656e67746820696e73756666696369656e746044820152fd5b90600f811660108110156126d9576f181899199a1a9b1b9c1cb0b131b232b360811b901a6126b1838a6127c2565b5360041c9080156126c5576000190161246a565b634e487b7160e01b87526011600452602487fd5b634e487b7160e01b88526032600452602488fd5b634e487b7160e01b86526032600452602486fd5b634e487b7160e01b85526032600452602485fd5b634e487b7160e01b85526041600452602485fd5b906000918083526009602052604083209160018060a01b03169182845260205260ff60408420541661275a57505050565b8083526009602052604083208284526020526040832060ff1981541690557ff6391f5c32d9c69d2a47ea670b442974b53935d1edc7fd64eb21e047a839171b339380a4565b919082018092116127ac57565b634e487b7160e01b600052601160045260246000fd5b9081518110156127d3570160200190565b634e487b7160e01b600052603260045260246000fd5b6005548110156127d3576006906005600052027f036b6384b5eca791c62761152d0c79bb0604c104a5fb6f4eb0703f3154bb3db00190600090565b61282d81613cc8565b600052600660205260016128456040600020546127e9565b50015490565b6020818303126108e4578051906001600160401b0382116108e4570181601f820112156108e457805161287d816122bb565b9261288b604051948561229a565b818452602082840101116108e4576123289160208085019101612182565b6001600160a01b031680156128c957600052600760205260406000205490565b60405162461bcd60e51b815260206004820152602b60248201527f455243333532353a2062616c616e636520717565727920666f7220746865207a60448201526a65726f206164647265737360a81b6064820152608490fd5b1561292957565b60405162461bcd60e51b815260206004820152603260248201527f455243333532353a207472616e736665722063616c6c6572206973206e6f74206044820152711bdddb995c881b9bdc88185c1c1c9bdd995960721b6064820152608490fd5b906129ad93929161299d6115cb8433612b2f565b6129a8838383612ba0565b612fc0565b156129b457565b60405162461bcd60e51b815260206004820152602760248201527f455243333532353a207472616e7366657220746f206e6f6e204552433732315260448201526632b1b2b4bb32b960c91b6064820152608490fd5b15612a1057565b60405162461bcd60e51b815260206004820152602260248201527f455243333532353a20617070726f76616c20746f2063757272656e74206f776e60448201526132b960f11b6064820152608490fd5b15612a6757565b60405162461bcd60e51b815260206004820152601960248201527f455243333532353a20696e76616c696420746f6b656e204944000000000000006044820152606490fd5b612ab581613cc8565b6000526006602052612acb6040600020546127e9565b50600301546001600160a01b031690612ae5821515612a60565b565b612af081613cc8565b6000526006602052612b066040600020546127e9565b50600401546001600160a01b031690565b80548210156127d35760005260206000200190600090565b906001600160a01b038080612b4384612aac565b16931691838314938415612b76575b508315612b60575b50505090565b612b6c91929350612ae7565b1614388080612b5a565b909350600052600760205260026040600020018260005260205260ff604060002054169238612b52565b612ba983612aac565b6001600160a01b0391821691908116829003612e3957808316928315612de657612bd285612824565b50612bdc85612e8a565b5060009185835260209060068252604090612bf9828620546127e9565b50600490810180546001600160a01b03199081169091559091898782612c1e83612aac565b167f8c5be1e5ebec7d5bd14f71427d1e84f3dd0314c0f7b2291e5b200ac8c7c3b9258280a4898752600685526005612c58858920546127e9565b500180549091858988818f5b868410612daf575050505050505080549087815581612d92575b5050888652600684526003612c95848820546127e9565b5001908154169055858552600783528185209182549360001994858101908111612d7f5790612cc688939286612b17565b90549060031b1c9060018601908c85528181528385205492612d0781612cec868b612b17565b90919082549060031b600019811b9283911b16911916179055565b855252818320558982528120558154908115612d6c575092828892612d68947fddf252ad1be2c89b69c2b068fc378daa952ba7f163c4a11628f55a4df523b3ef97960191612d558383612b17565b909182549160031b1b1916905555612eab565b80a4565b634e487b7160e01b865260319052602485fd5b634e487b7160e01b885260118452602488fd5b8752848720908101905b81811015612c7e57878155600101612d9c565b612ddc9486928b612dc0878c612b17565b96905494835252209260031b1c168c5289528a88812055612f4e565b8690888b8f612c64565b60405162461bcd60e51b815260206004820152602560248201527f455243333532353a207472616e7366657220746f20746865207a65726f206164604482015264647265737360d81b6064820152608490fd5b60405162461bcd60e51b8152602060048201526024808201527f455243333532353a207472616e736665722066726f6d20696e76616c6964206f6044820152633bb732b960e11b6064820152608490fd5b612e9381613cc8565b600052600660205260026128456040600020546127e9565b60009082825260066020526003612ec560408420546127e9565b500180546001600160a01b0319166001600160a01b0390921691821790558082526007602081815260408085208054878752600191909101835281862055928452528120805491600160401b831015612f2d575081612cec916001612ae59594018155612b17565b634e487b7160e01b81526041600452602490fd5b919082039182116127ac57565b60001981146127ac5760010190565b600160401b821161223357805491808255828110612f7a57505050565b60009182526020822092830192015b828110612f9557505050565b818155600101612f89565b908160209103126108e457516001600160e01b0319811681036108e45790565b92939290803b1561310557936000916130179560405180948193630a85bd0160e11b9788845233600485015260018060a01b0380921660248501526044840152608060648401528260209a8b9760848301906121a5565b0393165af1600091816130d6575b506130c757833d156130bf573d9061303c826122bb565b9161304a604051938461229a565b82523d60008284013e5b815191826130bc5760405162461bcd60e51b815260048101839052603260248201527f4552433732313a207472616e7366657220746f206e6f6e20455243373231526560448201527131b2b4bb32b91034b6b83632b6b2b73a32b960711b6064820152608490fd5b01fd5b606090613054565b6001600160e01b031916149150565b6130f7919250853d87116130fe575b6130ef818361229a565b810190612fa0565b9038613025565b503d6130e5565b50600193505050565b919091600090808252602091600d835260409283822054156000146134ad57613138858433613590565b6001958660035401968760035561314e85612824565b916001600160a01b038082169290831561345f578a15613411576131718b613c24565b8015613402575b6133be57885161318781612264565b8781528951888b8e61319884612249565b8084528a84018a81528b8386019285845260608701948c8652608088019680885260a08901998a5260066005549485948352522055600160401b8110156133aa5780896131e892016005556127e9565b95909561339657906005959493929151855551888501555160028401558560038401915116906bffffffffffffffffffffffff60a01b9182825416179055856004840192511690825416179055019051918251926001600160401b03841161338257908883928f9b9a9998979695948561326191612f5d565b0191895287892090895b84811061336c575050505050507f6d811e6a20ae5461a4ef22a6998c1d958defe727f1cc522b6eb792bc8e6f72669897969386938461334997946132d36133669a7f0b2aac84f3ec956911fd78eae5311062972ff949f38412e8da39069d9f068cc696612eab565b857fddf252ad1be2c89b69c2b068fc378daa952ba7f163c4a11628f55a4df523b3ef8180a483857fe4f48c240d3b994948aa54f3e2f5fca59263dfe1d52b6e4cf39a5d249b5ccb658280a483835260068152613331888420546127e9565b50508751838152a361334485888361382a565b612824565b915192839286846040919493926060820195825260208201520152565b0390a190565b83518216818401558f9b5092890192850161326b565b634e487b7160e01b8a52604160045260248afd5b634e487b7160e01b8e5260048e905260248efd5b634e487b7160e01b8e52604160045260248efd5b885162461bcd60e51b815260048101879052601d60248201527f455243333532353a20746f6b656e20616c7265616479206d696e7465640000006044820152606490fd5b5061340c8b613c52565b613178565b885162461bcd60e51b815260048101879052602160248201527f455243333532353a2063616e6e6f74206d696e74207a65726f20746f6b656e496044820152601960fa1b6064820152608490fd5b885162461bcd60e51b815260048101879052602160248201527f455243333532353a206d696e7420746f20746865207a65726f206164647265736044820152607360f81b6064820152608490fd5b600c5484516307a42e0160e11b8152600481018590526001600160a01b0397881660248201526044810187905291969192918791849160649183918691165af195861561358457819661352d575b505050906133666133497f6d811e6a20ae5461a4ef22a6998c1d958defe727f1cc522b6eb792bc8e6f72669493612824565b909180939650813d831161357d575b613546818361229a565b81010312610266575051926133666133497f6d811e6a20ae5461a4ef22a6998c1d958defe727f1cc522b6eb792bc8e6f72666134fb565b503d61353c565b508351903d90823e3d90fd5b61359a818361362a565b6135a48383612b2f565b158061361e575b6135b6575b50505050565b8381106135d9576135d0936135ca91612f41565b91613658565b388080806135b0565b60405162461bcd60e51b815260206004820152601f60248201527f455243333532353a20696e73756666696369656e7420616c6c6f77616e6365006044820152606490fd5b506000198114156135ab565b61363381613cc8565b600052600460205260406000209060018060a01b031660005260205260406000205490565b6001600160a01b038083169391928415613741578361367691613799565b156136c4575b5060207f621b050de0ad08b51d19b48b3e6df75348c4de6bdd93e81b252ca62e28265b1b918360005260048252604060002085600052825280604060002055604051908152a3565b9082600052600660205260056136de6040600020546127e9565b500190815492600160401b84101561223357856137248560209560017f621b050de0ad08b51d19b48b3e6df75348c4de6bdd93e81b252ca62e28265b1b98018155612b17565b909283549160031b90811b9283911b16911916179055915061367c565b60405162461bcd60e51b815260206004820152602a60248201527f455243333532353a20617070726f76652076616c756520746f20746865207a65604482015269726f206164647265737360b01b6064820152608490fd5b60009082825260066020908082526040906137b6828620546127e9565b509260058094015496865b8881106137d45750505050505050905090565b8188528383526137f281876137eb888c20546127e9565b5001612b17565b905460039190911b1c6001600160a01b039081169088161461381c5761381790612f4e565b6137c1565b505050505050505050600190565b61383381613c24565b8015613ad2575b15613a7d5761384882613c24565b8015613a6e575b15613a1b57806000526020926006845260409261386f84600020546127e9565b50816000526006865261388585600020546127e9565b509060028101908154908582106139c4576001015460018401540361396957916002916138b88661390798979695612f41565b9055016138c683825461279f565b905580837f0b2aac84f3ec956911fd78eae5311062972ff949f38412e8da39069d9f068cc6888851868152a38451926138fe84612264565b60008452613af9565b15613910575050565b60849250519062461bcd60e51b82526004820152602d60248201527f455243333532353a207472616e736665722072656a656374656420627920455260448201526c21999a991aa932b1b2b4bb32b960991b6064820152fd5b865162461bcd60e51b815260048101899052602e60248201527f455243333532353a207472616e7366657220746f20746f6b656e20776974682060448201526d191a5999995c995b9d081cdb1bdd60921b6064820152608490fd5b875162461bcd60e51b8152600481018a9052602a60248201527f455243333532353a20696e73756666696369656e742062616c616e636520666f60448201526939103a3930b739b332b960b11b6064820152608490fd5b60405162461bcd60e51b815260206004820152602560248201527f455243333532353a207472616e7366657220746f20696e76616c696420746f6b604482015264195b88125160da1b6064820152608490fd5b50613a7882613c52565b61384f565b60405162461bcd60e51b815260206004820152602760248201527f455243333532353a207472616e736665722066726f6d20696e76616c696420746044820152661bdad95b88125160ca1b6064820152608490fd5b50613adc81613c52565b61383a565b908160209103126108e4575180151581036108e45790565b92613b0382612aac565b803b151580613bb5575b15613bab57613b5693600060209460405196879586948593629ce20b60e01b9b8c865233600487015260248601526044850152606484015260a0608484015260a48301906121a5565b03926001600160a01b03165af1908115613b9f57600091613b81575b506001600160e01b0319161490565b613b99915060203d81116130fe576130ef818361229a565b38613b72565b6040513d6000823e3d90fd5b5050505050600190565b506040516301ffc9a760e01b8152629ce20b60e01b60048201526020816024816001600160a01b0386165afa908115613b9f57600091613bf6575b50613b0d565b613c17915060203d8111613c1d575b613c0f818361229a565b810190613ae1565b38613bf0565b503d613c05565b60055415159081613c33575090565b8091506000526006602052613c4c6040600020546127e9565b50541490565b80600052600d6020526040600020541590811591613c6e575090565b600c546040516341ce4b3f60e01b81526004810192909252909150602090829060249082906001600160a01b03165afa908115613b9f57600091613cb0575090565b612328915060203d8111613c1d57613c0f818361229a565b612ae590613cd581613c24565b908115613cfa575b8115613cea575b50612a60565b613cf49150613c52565b38613ce4565b9050613d0581613c52565b90613cdd565b613d1481613cc8565b613d1d81613c24565b80613daa575b15613d315761232890612e8a565b6000908152600d6020526040812054602060018060a01b03600c541691602460405180948193631398fee160e31b835260048301525afa918215611cf1578092613d7a57505090565b9091506020823d8211613da2575b81613d956020938361229a565b8101031261026657505190565b3d9150613d88565b50613db481612824565b600b5414613d23565b613dc681613cc8565b613dcf81613c24565b80613e7a575b15613de35761232890612aac565b60018060a01b0380600c5416916000908152600d602052602060408220546024604051809681936331a9108f60e11b835260048301525afa928315613e6d578193613e2e5750505090565b909192506020813d8211613e65575b81613e4a6020938361229a565b8101031261084e575191821682036102665750388080612b5a565b3d9150613e3d565b50604051903d90823e3d90fd5b50613e8481612824565b600b5414613dd5565b90613e9782613cc8565b613ea082613c24565b80613f05575b15613eb4576123289161362a565b602060018060a01b0391604483600c54166000958652600d845260408620549060405195869485936338d1782f60e21b855260048501521660248301525afa918215611cf1578092613d7a57505090565b50613f0f82612824565b600b5414613ea656fea26469706673582212201b94d69d5d98b674347609f4c5dbc66d04f04f4a801e682e437a6fdacd90631864736f6c634300081100336080604052346200048657620020b7803803806200001d816200048b565b9283398101608082820312620004865781516001600160401b0391908281116200048657816200004f918501620004b1565b91602092838501518281116200048657836200006d918701620004b1565b92604086015183811162000486576060916200008b918801620004b1565b9501516001600160a01b03811695908690036200048657815193838511620002c3576001948554938685811c951680156200047b575b88861014620002a2578190601f9586811162000425575b508890868311600114620003bd57600092620003b1575b5050600019600383901b1c191690861b1785555b805190848211620002c357600254908682811c92168015620003a6575b88831014620002a25781858493116200034f575b508790858311600114620002e557600092620002d9575b5050600019600383901b1c191690851b176002555b8051928311620002c35760039485548581811c91168015620002b8575b82821014620002a25783811162000257575b5080928411600114620001ed5750928293918392600094620001e1575b50501b9160001990841b1c19161790555b600080546001600160a01b031916919091179055604051611b939081620005248239f35b015192503880620001ac565b919083601f1981168760005284600020946000905b888383106200023c575050501062000223575b505050811b019055620001bd565b015160001983861b60f8161c1916905538808062000215565b85870151885590960195948501948793509081019062000202565b86600052816000208480870160051c82019284881062000298575b0160051c019086905b8281106200028b5750506200018f565b600081550186906200027b565b9250819262000272565b634e487b7160e01b600052602260045260246000fd5b90607f16906200017d565b634e487b7160e01b600052604160045260246000fd5b0151905038806200014b565b90879350601f198316916002600052896000209260005b8b8282106200033857505084116200031e575b505050811b0160025562000160565b015160001960f88460031b161c191690553880806200030f565b8385015186558b97909501949384019301620002fc565b9091506002600052876000208580850160051c8201928a86106200039c575b918991869594930160051c01915b8281106200038c57505062000134565b600081558594508991016200037c565b925081926200036e565b91607f169162000120565b015190503880620000ef565b90889350601f19831691846000528a6000209260005b8c8282106200040e5750508411620003f4575b505050811b01855562000103565b015160001960f88460031b161c19169055388080620003e6565b8385015186558c97909501949384019301620003d3565b90915087600052886000208680850160051c8201928b861062000471575b918a91869594930160051c01915b82811062000461575050620000d8565b600081558594508a910162000451565b9250819262000443565b94607f1694620000c1565b600080fd5b6040519190601f01601f191682016001600160401b03811183821017620002c357604052565b919080601f84011215620004865782516001600160401b038111620002c357602090620004e7601f8201601f191683016200048b565b92818452828287010111620004865760005b8181106200050f57508260009394955001015290565b8581018301518482018401528201620004f956fe608060408181526004908136101561001657600080fd5b600092833560e01c9081631375d843146113cd57508063246a908b146112cf57806355f804b31461118b57806364140ec01461108c5780636c0360eb14610fcd5780636c037f8a14610d0f57806371f0442e14610c7b578063725fa09c146108c05780637e468a51146107c1578063842251d414610685578063894b4c2e146101755763b3154c08146100a857600080fd5b34610171576020918260031936011261016d5780358452825280832091815192848154906100d5826118e1565b80875292600192808416908115610149575060011461010e575b61010a8787610100828c03836114e3565b5191829182611485565b0390f35b9080949750528583205b828410610136575050508261010a94610100928201019438806100ef565b8054868501880152928601928101610118565b60ff19168887015250505050151560051b83010192506101008261010a38806100ef565b8380fd5b8280fd5b50903461017157602092836003193601126106825782516306fdde0360e01b81529180359082848281335afa938415610678578394610654575b506101b98261179e565b926102056022875180968a6101d78184019a8b815193849201611462565b820161202360f01b8c8201526101f68c83519384918785019101611462565b010360028101875201856114e3565b828152818752858120865181549391899184610220876118e1565b80835284830193600198868a821691826000146106345750506001146105fb575b505090610254816102c9949303826114e3565b6102e561026030611a1a565b898852600686526102d78d808a209a60058952818b2091519788948a86019a6102ac61028b8d61191b565b91692f636f6e74726163742f60b01b83528351938491600a85019101611462565b019c6011662f746f6b656e2f60c81b9e8f600a8201520190611997565b602f60f81b81520190611997565b03601f1981018552846114e3565b8a51631398fee160e31b81528581018990528c81602481335afa80156105c25787906105cc575b610316915061179e565b8b5163131f9f3f60e11b8152958601899052948c81602481335afa9081156105c2578d918d918991610589575b5061034d9061179e565b9761035733611a1a565b9a815260068352208c51713d91383937b832b93a34b2b9afbab934911d60711b818401908152601160f91b60328301529a90998a93909161039a6033860161191b565b9068636f6e74726163742f60b81b825280518093600984019201916103be92611462565b019060098201526010016103d191611997565b6f17b83937b832b93a34b2b9973539b7b760811b815261227d60f01b601082015203600d198101885260120161040790886114e3565b8a51998a998d683d913730b6b2911d1160b91b908c015251908160298c0161042e92611462565b890190701116113232b9b1b934b83a34b7b7111d1160791b6029830152519182603a830161045b92611462565b01906a11161134b6b0b3b2911d1160a91b603a8301525191826045830161048192611462565b016c1116113130b630b731b2911d1160991b6045820152815191828a605284019201916104ad92611462565b016911161139b637ba111d1160b11b60528201528151918289605c84019201916104d692611462565b01906e111611383937b832b93a34b2b9911d60891b605c830152519182606b830161050092611462565b01606b8101607d60f81b905203604c81018252606c0161052090826114e3565b61052990611631565b81517f646174613a6170706c69636174696f6e2f6a736f6e3b6261736536342c00000084820152815190938492610567918391603d86019101611462565b810103601d81018352603d0161057d90836114e3565b5161010a819282611485565b928092508391503d83116105bb575b6105a281836114e3565b810103126105b7578b61034d8e925190610343565b8680fd5b503d610598565b8c513d89823e3d90fd5b508c81813d83116105f4575b6105e281836114e3565b810103126105b757610316905161030c565b503d6105d8565b8592508752818720908888925b82841061061e5750505082010161025482610241565b80548487018601528794909301928a9101610608565b60ff1916875292151560051b850190920192506102549150839050610241565b6106719194503d8085833e61066981836114e3565b8101906115a0565b92386101af565b85513d85823e3d90fd5b80fd5b508290346107bd576106963661156d565b939083526020916006835283209184519167ffffffffffffffff83116107aa57506106c183546118e1565b601f8111610767575b5080601f831160011461070557508394829394926106fa575b50508160011b916000199060031b1c191617905580f35b0151905084806106e3565b90601f198316958486528286209286905b88821061074f57505083600195969710610736575b505050811b01905580f35b015160001960f88460031b161c1916905584808061072b565b80600185968294968601518155019501930190610716565b838552818520601f840160051c8101918385106107a0575b601f0160051c01905b81811061079557506106ca565b858155600101610788565b909150819061077f565b634e487b7160e01b855260419052602484fd5b5080fd5b508290346107bd576107d23661156d565b939083526020916007835283209184519167ffffffffffffffff83116107aa57506107fd83546118e1565b601f811161087d575b5080601f831160011461083557508394829394926106fa5750508160011b916000199060031b1c191617905580f35b90601f198316958486528286209286905b8882106108655750508360019596971061073657505050811b01905580f35b80600185968294968601518155019501930190610846565b838552818520601f840160051c8101918385106108b6575b601f0160051c01905b8181106108ab5750610806565b85815560010161089e565b9091508190610895565b50913461068257806003193601126106825782516306fdde0360e01b815281818481335afa908115610c71578291610c57575b508351829060025492610905846118e1565b9586835260209683888101956001978a8982169182600014610c3c575050600114610be1575b610937925003846114e3565b61094033611a1a565b9588519586898101986109528a61191b565b68636f6e74726163742f60b81b81526109758c8351938491600985019101611462565b01602f60f81b600982015283906003549361098f856118e1565b94818116908115610bc05750600114610b61575b50506109b8925003601f1981018852876114e3565b8789518093633e7e866960e01b825281335afa918215610b55578192610b17575b5050610ac9605a888a61010a9b9961010099610a7f603d9a610b079e9a610a5c610ace9b610a0c60ff610a329d1661179e565b97519b8c99683d913730b6b2911d1160b91b818c0152825192839160298d019101611462565b880191701116113232b9b1b934b83a34b7b7111d1160791b6029840152518093603a840190611462565b01916a11161134b6b0b3b2911d1160a91b603a8401525180936045840190611462565b01721116113b30b63ab2a232b1b4b6b0b639911d1160691b6045820152610aaf825180938a605885019101611462565b0161227d60f01b605882015203603a8101845201826114e3565b611631565b845195827f646174613a6170706c69636174696f6e2f6a736f6e3b6261736536342c000000889485015282519283918686019101611462565b810103601d8101855201836114e3565b9091508781813d8311610b4e575b610b2f81836114e3565b810103126107bd57519060ff821682036106825750610ac9605a6109d9565b503d610b25565b508851903d90823e3d90fd5b6003865290915084908c7fc2575a0e9e593c00f959f8c92f12db2869c3395a3b0502d05e2516446f71f85b5b868410610ba857505050506109b892600a91010138806109a3565b8054858501600a01528c95509201918d908201610b8d565b9050600a93506109b895915060ff19168383015280151502010138806109a3565b505060028752838888887f405787fa12a823e0f2b7631cc41b3ba8828b3321ca811111fa75cd3aa3bb5ace5b858310610c23575050610937935082010161092b565b80919294505483858a0101520191018990888793610c0d565b60ff1916895261093794151560051b840101915061092b9050565b610c6b91503d8084833e61066981836114e3565b386108f3565b84513d84823e3d90fd5b5034610171576020918260031936011261016d57358352600582528083209181519284815490610caa826118e1565b808752926001928084169081156101495750600114610cd45761010a8787610100828c03836114e3565b9080949750528583205b828410610cfc575050508261010a94610100928201019438806100ef565b8054868501880152928601928101610cde565b5090346101715760209283600319360112610682578054835163ec327a2160e01b815283358185018190529092916001600160a01b0316908284602481855afa938415610fc3578394610fa7575b50855163bc74ebb960e01b8152858101829052948386602481865afa958615610f9d578496610f81575b5086516309c3dd8760e01b80825282820184905290938585602481845afa948515610f7757918a9594939187938496610f56575b5090602491610dfb60268d518a652f696d61676560d01b81610de7849e85019d8e815193849201611462565b83019182015203600681018b5201896114e3565b8b51958694859384528301525afa938415610f4b578094610f2e575b50508551918288808201868197519283910191610e3392611462565b81018981016f17b83937b832b93a34b2b9973539b7b760811b905203601081018452603001610e6290846114e3565b8651958695683d913730b6b2911d1160b91b8a880152805190818b60298a01920191610e8d92611462565b8601701116113232b9b1b934b83a34b7b7111d1160791b6029820152815191828b603a8401920191610ebe92611462565b01906a11161134b6b0b3b2911d1160a91b603a83015251918260458301610ee492611462565b01906e111611383937b832b93a34b2b9911d60891b604583015251918260548301610f0e92611462565b0160548101607d60f81b90520360358101825260550161052090826114e3565b610f439294503d8091833e61066981836114e3565b913880610e17565b8751903d90823e3d90fd5b602492919650610f6f903d8087833e61066981836114e3565b959091610dbb565b89513d88823e3d90fd5b610f969196503d8086833e61066981836114e3565b9438610d87565b87513d86823e3d90fd5b610fbc9194503d8085833e61066981836114e3565b9238610d5d565b86513d85823e3d90fd5b8382346107bd57816003193601126107bd57805190826001805491610ff1836118e1565b80865292828116908115611064575060011461101a575b5050506101008261010a9403836114e3565b9450808552600080516020611b3e8339815191525b82861061104c5750505061010082602061010a9582010194611008565b8054602087870181019190915290950194810161102f565b61010a97508693506020925061010094915060ff191682840152151560051b82010194611008565b508290346107bd5761109d3661156d565b939083526020916005835283209184519167ffffffffffffffff83116107aa57506110c883546118e1565b601f8111611148575b5080601f831160011461110057508394829394926106fa5750508160011b916000199060031b1c191617905580f35b90601f198316958486528286209286905b8882106111305750508360019596971061073657505050811b01905580f35b80600185968294968601518155019501930190611111565b838552818520601f840160051c810191838510611181575b601f0160051c01905b81811061117657506110d1565b858155600101611169565b9091508190611160565b828434610682576020806003193601126107bd5767ffffffffffffffff833581811161016d576111be9036908601611521565b9384519182116112bc57506001916111d683546118e1565b601f811161126a575b5080601f8311600114611219575083948293949261120e575b5050600019600383901b1c191690821b17905580f35b0151905084806111f8565b838552601f19831695600080516020611b3e833981519152929186905b888210611253575050838596971061073657505050811b01905580f35b808785968294968601518155019501930190611236565b838552600080516020611b3e833981519152601f840160051c8101918385106112b2575b601f0160051c019084905b8281106112a75750506111df565b868155018490611299565b909150819061128e565b634e487b7160e01b845260419052602483fd5b508290346107bd576112e03661156d565b9390835260209181835283209184519167ffffffffffffffff83116107aa575061130a83546118e1565b601f811161138a575b5080601f831160011461134257508394829394926106fa5750508160011b916000199060031b1c191617905580f35b90601f198316958486528286209286905b8882106113725750508360019596971061073657505050811b01905580f35b80600185968294968601518155019501930190611353565b838552818520601f840160051c8101918385106113c3575b601f0160051c01905b8181106113b85750611313565b8581556001016113ab565b90915081906113a2565b9290503461016d576020908160031936011261145e57358452600681528184208054856113f9826118e1565b8087529260019280841690811561014957506001146114235761010a8787610100828c03836114e3565b9080949750528583205b82841061144b575050508261010a94610100928201019438806100ef565b805486850188015292860192810161142d565b8480fd5b60005b8381106114755750506000910152565b8181015183820152602001611465565b604091602082526114a58151809281602086015260208686019101611462565b601f01601f1916010190565b6060810190811067ffffffffffffffff8211176114cd57604052565b634e487b7160e01b600052604160045260246000fd5b90601f8019910116810190811067ffffffffffffffff8211176114cd57604052565b67ffffffffffffffff81116114cd57601f01601f191660200190565b81601f820112156115685780359061153882611505565b9261154660405194856114e3565b8284526020838301011161156857816000926020809301838601378301015290565b600080fd5b90604060031983011261156857600435916024359067ffffffffffffffff82116115685761159d91600401611521565b90565b6020818303126115685780519067ffffffffffffffff8211611568570181601f820112156115685780516115d381611505565b926115e160405194856114e3565b818452602082840101116115685761159d9160208085019101611462565b9061160982611505565b61161660405191826114e3565b8281528092611627601f1991611505565b0190602036910137565b80511561177957604051611644816114b1565b604081527f4142434445464748494a4b4c4d4e4f505152535455565758595a61626364656660208201527f6768696a6b6c6d6e6f707172737475767778797a303132333435363738392b2f60408201528151600292838201809211611763576003918290046001600160fe1b0381168103611763576116c6908594951b6115ff565b936020850193829183518401925b83811061171257505050505106806001146116ff576002146116f4575090565b603d90600019015390565b50603d9081600019820153600119015390565b85600491979293949701918251600190603f9082828260121c16880101518453828282600c1c16880101518385015382828260061c16880101518885015316850101518782015301959291906116d4565b634e487b7160e01b600052601160045260246000fd5b506040516020810181811067ffffffffffffffff8211176114cd576040526000815290565b806000917a184f03e93ff9f4daa797ed6e38ed64bf6a1f010000000000000000808210156118d3575b506d04ee2d6d415b85acef8100000000808310156118c4575b50662386f26fc10000808310156118b5575b506305f5e100808310156118a6575b5061271080831015611897575b506064821015611887575b600a8092101561187d575b6001908160216118358287016115ff565b95860101905b611847575b5050505090565b600019019083906f181899199a1a9b1b9c1cb0b131b232b360811b8282061a8353049182156118785791908261183b565b611840565b9160010191611824565b9190606460029104910191611819565b6004919392049101913861180e565b60089193920491019138611801565b601091939204910191386117f2565b602091939204910191386117e0565b6040935081049150386117c7565b90600182811c92168015611911575b60208310146118fb57565b634e487b7160e01b600052602260045260246000fd5b91607f16916118f0565b9060009160019081549161192e836118e1565b92818116908115611984575060011461194657505050565b809192939450600052600080516020611b3e833981519152906000915b848310611971575050500190565b8181602092548587015201920191611963565b60ff191683525050811515909102019150565b6000929181546119a6816118e1565b926001918083169081156119ff57506001146119c3575b50505050565b90919293945060005260209081600020906000915b8583106119ee57505050500190388080806119bd565b8054858401529183019181016119d8565b60ff19168452505050811515909102019150388080806119bd565b604051906001600160a01b0316611a30826114b1565b602a82526020908183016040368237835115611b2757603090538251600190811015611b2757607860218501536029905b808211611ab5575050611a72575090565b6064906040519062461bcd60e51b825280600483015260248201527f537472696e67733a20686578206c656e67746820696e73756666696369656e746044820152fd5b9091600f81166010811015611b12578551841015611b12576f181899199a1a9b1b9c1cb0b131b232b360811b901a85840185015360041c918015611afd576000190190611a61565b60246000634e487b7160e01b81526011600452fd5b60246000634e487b7160e01b81526032600452fd5b634e487b7160e01b600052603260045260246000fdfeb10e2d527612073b26eecdfd717e6a320cf44b4afac2b0732d9fcbe2b7fa0cf6a26469706673582212208ca4f65294610ecd78a777bb408e8725ee425416006ed9fc7c5c58d006126bd564736f6c634300081100332f8788117e7eff1d82e926ec794901d17c78024a50270940304540a733656f0db10e2d527612073b26eecdfd717e6a320cf44b4afac2b0732d9fcbe2b7fa0cf6",
  "linkReferences": {},
  "deployedLinkReferences": {}
}