{
  "_format": "hh-sol-artifact-1",
  "contractName": "TokenSwap",
  "sourceName": "contracts/TokenSwap.sol",
  "abi": [
    {
      "inputs": [
        {
          "internalType": "address",
          "name": "_swapRouter",
          "type": "address"
        }
      ],
      "stateMutability": "nonpayable",
      "type": "constructor"
    },
    {
      "inputs": [],
      "name": "poolFee",
      "outputs": [
        {
          "internalType": "uint24",
          "name": "",
          "type": "uint24"
        }
      ],
      "stateMutability": "view",
      "type": "function"
    },
    {
      "inputs": [
        {
          "internalType": "uint256",
          "name": "amountIn",
          "type": "uint256"
        }
      ],
      "name": "swapExactInputSingle",
      "outputs": [
        {
          "internalType": "uint256",
          "name": "",
          "type": "uint256"
        }
      ],
      "stateMutability": "nonpayable",
      "type": "function"
    },
    {
      "inputs": [
        {
          "internalType": "uint256",
          "name": "amountOut",
          "type": "uint256"
        },
        {
          "internalType": "uint256",
          "name": "amountInMaximum",
          "type": "uint256"
        }
      ],
      "name": "swapExactOutputSingle",
      "outputs": [
        {
          "internalType": "uint256",
          "name": "amountIn",
          "type": "uint256"
        }
      ],
      "stateMutability": "nonpayable",
      "type": "function"
    },
    {
      "inputs": [],
      "name": "swapRouter",
      "outputs": [
        {
          "internalType": "contract ISwapRouter",
          "name": "",
          "type": "address"
        }
      ],
      "stateMutability": "view",
      "type": "function"
    }
  ],
  "bytecode": "0x60a03461007957601f6108ab38819003918201601f19168301916001600160401b0383118484101761007e5780849260209460405283398101031261007957516001600160a01b0381169081900361007957608052604051610816908161009582396080518181816086015281816103d501526104400152f35b600080fd5b634e487b7160e01b600052604160045260246000fdfe60806040908082526004918236101561001757600080fd5b600091823560e01c908163089fe6aa146105d75750806373bd43ad14610404578063c31c9c07146103c15763c4b69a181461005157600080fd5b346103bd57806003193601126103bd57602492833593610072853033610704565b825163095ea7b360e01b60208083018281527f00000000000000000000000000000000000000000000000000000000000000006001600160a01b03168585018181528084018b905292999098949193909285908190849060400103936100e0601f1995868101835282610626565b51739c3c9283d3e44854697cd22d3faa240cfb0328899682885af16101036106a7565b8161038d575b50156103665787519861011b8a6105f3565b848a5273e6b8a5cf854791412c1f6efc7caf629f5df1c7478b8b0152610bb8898b01523360608b01524260808b0152873560a08b01528360c08b01528560e08b015261017689519a631b67c43360e31b8c52898c0190610648565b8a8a6101048189855af1998a1561035c57869a610329575b50838a106101a0575b8a8a8a51908152f35b8851908b820192835287820152856044820152604481526080810181811067ffffffffffffffff82111761031757895251859182919082875af16101e26106a7565b816102e7575b50156102c0578782039182116102ad57865163a9059cbb60e01b818b0190815233878301908152602081019490945285949390928592916102359190839060400103908101835282610626565b51925af16102416106a7565b8161027d575b501561025857808080808080610197565b60029085606494519362461bcd60e51b85528401528201526114d560f21b6044820152fd5b80518015925087908315610295575b50505038610247565b6102a593508201810191016106e7565b38868161028c565b5050634e487b7160e01b82525060118352fd5b865162461bcd60e51b81528087018a905260028187015261534160f01b6044820152606490fd5b8051801592508b9083156102ff575b505050386101e8565b61030f93508201810191016106e7565b388a816102f6565b634e487b7160e01b8752604189528787fd5b9099508a81813d8311610355575b6103418183610626565b810103126103515751983861018e565b8580fd5b503d610337565b89513d88823e3d90fd5b875162461bcd60e51b81528088018b905260028188015261534160f01b6044820152606490fd5b8051801592508c9083156103a5575b50505038610109565b6103b593508201810191016106e7565b388b8161039c565b5080fd5b50346103bd57816003193601126103bd57517f00000000000000000000000000000000000000000000000000000000000000006001600160a01b03168152602090f35b50346103bd57602092836003193601126105d357803590610426823033610704565b825163095ea7b360e01b8682019081526001600160a01b037f00000000000000000000000000000000000000000000000000000000000000001660248301819052604480840186905283529093909186908190610484606482610626565b5173e6b8a5cf854791412c1f6efc7caf629f5df1c7479682885af16104a76106a7565b816105a3575b501561057b578692866105239593610104938851956104cb876105f3565b739c3c9283d3e44854697cd22d3faa240cfb032889875287870152610bb88987015233606087015242608087015260a08601528160c08601528160e08601528751968795869463414bf38960e01b8652850190610648565b5af192831561057057809361053b575b505051908152f35b909192508382813d8311610569575b6105548183610626565b81010312610566575051903880610533565b80fd5b503d61054a565b8251903d90823e3d90fd5b845162461bcd60e51b81528084018890526002602482015261534160f01b6044820152606490fd5b805180159250899083156105bb575b505050386104ad565b6105cb93508201810191016106e7565b3888816105b2565b8280fd5b8390346103bd57816003193601126103bd5780610bb860209252f35b610100810190811067ffffffffffffffff82111761061057604052565b634e487b7160e01b600052604160045260246000fd5b90601f8019910116810190811067ffffffffffffffff82111761061057604052565b60e0908160018060a01b039182815116855282602082015116602086015262ffffff60408201511660408601528260608201511660608601526080810151608086015260a081015160a086015260c081015160c0860152015116910152565b3d156106e2573d9067ffffffffffffffff821161061057604051916106d6601f8201601f191660200184610626565b82523d6000602084013e565b606090565b908160209103126106ff575180151581036106ff5790565b600080fd5b916040519260208401926323b872dd60e01b845260018060a01b03809216602486015216604484015260648301526064825260a082019082821067ffffffffffffffff831117610610576000928392604052519082739c3c9283d3e44854697cd22d3faa240cfb0328895af16107786106a7565b816107b1575b501561078657565b60405162461bcd60e51b815260206004820152600360248201526229aa2360e91b6044820152606490fd5b80518015925082156107c6575b50503861077e565b6107d992506020809183010191016106e7565b38806107be56fea2646970667358221220ffa0a3d7fb192727b9f8964e33412efcac4e7cf06391f73c79826dadbf552cd264736f6c63430008110033",
  "linkReferences": {},
  "deployedLinkReferences": {}
}