{
  "_format": "hh-sol-artifact-1",
  "contractName": "SpendCredit",
  "sourceName": "contracts/SpendCredit.sol",
  "abi": [
    {
      "inputs": [
        {
          "internalType": "address",
          "name": "revenueAcct_",
          "type": "address"
        },
        {
          "internalType": "address",
          "name": "serviceAdmin_",
          "type": "address"
        },
        {
          "internalType": "address",
          "name": "slotRegistryContract_",
          "type": "address"
        },
        {
          "internalType": "address",
          "name": "underlyingContract_",
          "type": "address"
        },
        {
          "internalType": "address",
          "name": "mktAdmin_",
          "type": "address"
        },
        {
          "internalType": "uint256",
          "name": "defaultSlot_",
          "type": "uint256"
        },
        {
          "internalType": "string",
          "name": "name_",
          "type": "string"
        },
        {
          "internalType": "string",
          "name": "symbol_",
          "type": "string"
        },
        {
          "internalType": "string",
          "name": "baseuri_",
          "type": "string"
        },
        {
          "internalType": "string",
          "name": "contractDescription_",
          "type": "string"
        },
        {
          "internalType": "string",
          "name": "contractImage_",
          "type": "string"
        },
        {
          "internalType": "string",
          "name": "valueToken_",
          "type": "string"
        },
        {
          "internalType": "uint8",
          "name": "decimals_",
          "type": "uint8"
        }
      ],
      "stateMutability": "nonpayable",
      "type": "constructor"
    },
    {
      "anonymous": false,
      "inputs": [
        {
          "indexed": true,
          "internalType": "address",
          "name": "_owner",
          "type": "address"
        },
        {
          "indexed": true,
          "internalType": "address",
          "name": "_approved",
          "type": "address"
        },
        {
          "indexed": true,
          "internalType": "uint256",
          "name": "_tokenId",
          "type": "uint256"
        }
      ],
      "name": "Approval",
      "type": "event"
    },
    {
      "anonymous": false,
      "inputs": [
        {
          "indexed": true,
          "internalType": "address",
          "name": "_owner",
          "type": "address"
        },
        {
          "indexed": true,
          "internalType": "address",
          "name": "_operator",
          "type": "address"
        },
        {
          "indexed": false,
          "internalType": "bool",
          "name": "_approved",
          "type": "bool"
        }
      ],
      "name": "ApprovalForAll",
      "type": "event"
    },
    {
      "anonymous": false,
      "inputs": [
        {
          "indexed": true,
          "internalType": "uint256",
          "name": "_tokenId",
          "type": "uint256"
        },
        {
          "indexed": true,
          "internalType": "address",
          "name": "_operator",
          "type": "address"
        },
        {
          "indexed": false,
          "internalType": "uint256",
          "name": "_value",
          "type": "uint256"
        }
      ],
      "name": "ApprovalValue",
      "type": "event"
    },
    {
      "anonymous": false,
      "inputs": [
        {
          "indexed": false,
          "internalType": "address",
          "name": "contractAddress",
          "type": "address"
        }
      ],
      "name": "MetadataDescriptor",
      "type": "event"
    },
    {
      "anonymous": false,
      "inputs": [
        {
          "indexed": false,
          "internalType": "uint256",
          "name": "tokenId",
          "type": "uint256"
        },
        {
          "indexed": false,
          "internalType": "uint256",
          "name": "slot",
          "type": "uint256"
        },
        {
          "indexed": false,
          "internalType": "uint256",
          "name": "value",
          "type": "uint256"
        }
      ],
      "name": "MintNetworkServiceToken",
      "type": "event"
    },
    {
      "anonymous": false,
      "inputs": [
        {
          "indexed": false,
          "internalType": "uint256",
          "name": "tokenId",
          "type": "uint256"
        },
        {
          "indexed": false,
          "internalType": "uint256",
          "name": "slot",
          "type": "uint256"
        },
        {
          "indexed": false,
          "internalType": "uint256",
          "name": "value",
          "type": "uint256"
        }
      ],
      "name": "MintServiceToken",
      "type": "event"
    },
    {
      "anonymous": false,
      "inputs": [
        {
          "indexed": false,
          "internalType": "uint256",
          "name": "newTokenId",
          "type": "uint256"
        },
        {
          "indexed": false,
          "internalType": "uint256",
          "name": "slot",
          "type": "uint256"
        },
        {
          "indexed": false,
          "internalType": "uint256",
          "name": "value",
          "type": "uint256"
        }
      ],
      "name": "MintServiceTokenToAddress",
      "type": "event"
    },
    {
      "anonymous": false,
      "inputs": [
        {
          "indexed": false,
          "internalType": "uint256",
          "name": "tokenId",
          "type": "uint256"
        },
        {
          "indexed": false,
          "internalType": "uint256",
          "name": "slot",
          "type": "uint256"
        },
        {
          "indexed": false,
          "internalType": "uint256",
          "name": "value",
          "type": "uint256"
        }
      ],
      "name": "MintSpendToken",
      "type": "event"
    },
    {
      "anonymous": false,
      "inputs": [
        {
          "indexed": true,
          "internalType": "bytes32",
          "name": "role",
          "type": "bytes32"
        },
        {
          "indexed": true,
          "internalType": "bytes32",
          "name": "previousAdminRole",
          "type": "bytes32"
        },
        {
          "indexed": true,
          "internalType": "bytes32",
          "name": "newAdminRole",
          "type": "bytes32"
        }
      ],
      "name": "RoleAdminChanged",
      "type": "event"
    },
    {
      "anonymous": false,
      "inputs": [
        {
          "indexed": true,
          "internalType": "bytes32",
          "name": "role",
          "type": "bytes32"
        },
        {
          "indexed": true,
          "internalType": "address",
          "name": "account",
          "type": "address"
        },
        {
          "indexed": true,
          "internalType": "address",
          "name": "sender",
          "type": "address"
        }
      ],
      "name": "RoleGranted",
      "type": "event"
    },
    {
      "anonymous": false,
      "inputs": [
        {
          "indexed": true,
          "internalType": "bytes32",
          "name": "role",
          "type": "bytes32"
        },
        {
          "indexed": true,
          "internalType": "address",
          "name": "account",
          "type": "address"
        },
        {
          "indexed": true,
          "internalType": "address",
          "name": "sender",
          "type": "address"
        }
      ],
      "name": "RoleRevoked",
      "type": "event"
    },
    {
      "anonymous": false,
      "inputs": [
        {
          "indexed": true,
          "internalType": "address",
          "name": "metadataDescriptor",
          "type": "address"
        }
      ],
      "name": "SetMetadataDescriptor",
      "type": "event"
    },
    {
      "anonymous": false,
      "inputs": [
        {
          "indexed": true,
          "internalType": "uint256",
          "name": "_tokenId",
          "type": "uint256"
        },
        {
          "indexed": true,
          "internalType": "uint256",
          "name": "_oldSlot",
          "type": "uint256"
        },
        {
          "indexed": true,
          "internalType": "uint256",
          "name": "_newSlot",
          "type": "uint256"
        }
      ],
      "name": "SlotChanged",
      "type": "event"
    },
    {
      "anonymous": false,
      "inputs": [
        {
          "indexed": true,
          "internalType": "address",
          "name": "_from",
          "type": "address"
        },
        {
          "indexed": true,
          "internalType": "address",
          "name": "_to",
          "type": "address"
        },
        {
          "indexed": true,
          "internalType": "uint256",
          "name": "_tokenId",
          "type": "uint256"
        }
      ],
      "name": "Transfer",
      "type": "event"
    },
    {
      "anonymous": false,
      "inputs": [
        {
          "indexed": true,
          "internalType": "uint256",
          "name": "_fromTokenId",
          "type": "uint256"
        },
        {
          "indexed": true,
          "internalType": "uint256",
          "name": "_toTokenId",
          "type": "uint256"
        },
        {
          "indexed": false,
          "internalType": "uint256",
          "name": "_value",
          "type": "uint256"
        }
      ],
      "name": "TransferValue",
      "type": "event"
    },
    {
      "anonymous": false,
      "inputs": [
        {
          "indexed": false,
          "internalType": "uint256",
          "name": "fromTokenId",
          "type": "uint256"
        },
        {
          "indexed": false,
          "internalType": "uint256",
          "name": "toTokenId",
          "type": "uint256"
        },
        {
          "indexed": false,
          "internalType": "uint256",
          "name": "value",
          "type": "uint256"
        }
      ],
      "name": "ValueTransfer",
      "type": "event"
    },
    {
      "inputs": [],
      "name": "DEFAULT_ADMIN_ROLE",
      "outputs": [
        {
          "internalType": "bytes32",
          "name": "",
          "type": "bytes32"
        }
      ],
      "stateMutability": "view",
      "type": "function"
    },
    {
      "inputs": [],
      "name": "MKT_ARBITRATOR_ROLE",
      "outputs": [
        {
          "internalType": "bytes32",
          "name": "",
          "type": "bytes32"
        }
      ],
      "stateMutability": "view",
      "type": "function"
    },
    {
      "inputs": [
        {
          "internalType": "string",
          "name": "uri_",
          "type": "string"
        }
      ],
      "name": "_setBaseURI",
      "outputs": [],
      "stateMutability": "nonpayable",
      "type": "function"
    },
    {
      "inputs": [
        {
          "internalType": "uint256",
          "name": "tokenId_",
          "type": "uint256"
        },
        {
          "internalType": "address",
          "name": "operator_",
          "type": "address"
        }
      ],
      "name": "allowance",
      "outputs": [
        {
          "internalType": "uint256",
          "name": "",
          "type": "uint256"
        }
      ],
      "stateMutability": "view",
      "type": "function"
    },
    {
      "inputs": [
        {
          "internalType": "address",
          "name": "to_",
          "type": "address"
        },
        {
          "internalType": "uint256",
          "name": "tokenId_",
          "type": "uint256"
        }
      ],
      "name": "approve",
      "outputs": [],
      "stateMutability": "payable",
      "type": "function"
    },
    {
      "inputs": [
        {
          "internalType": "uint256",
          "name": "tokenId_",
          "type": "uint256"
        },
        {
          "internalType": "address",
          "name": "to_",
          "type": "address"
        },
        {
          "internalType": "uint256",
          "name": "value_",
          "type": "uint256"
        }
      ],
      "name": "approve",
      "outputs": [],
      "stateMutability": "payable",
      "type": "function"
    },
    {
      "inputs": [
        {
          "internalType": "address",
          "name": "owner_",
          "type": "address"
        }
      ],
      "name": "balanceOf",
      "outputs": [
        {
          "internalType": "uint256",
          "name": "balance",
          "type": "uint256"
        }
      ],
      "stateMutability": "view",
      "type": "function"
    },
    {
      "inputs": [
        {
          "internalType": "uint256",
          "name": "tokenId_",
          "type": "uint256"
        }
      ],
      "name": "balanceOf",
      "outputs": [
        {
          "internalType": "uint256",
          "name": "",
          "type": "uint256"
        }
      ],
      "stateMutability": "view",
      "type": "function"
    },
    {
      "inputs": [],
      "name": "contractAdmin",
      "outputs": [
        {
          "internalType": "address",
          "name": "",
          "type": "address"
        }
      ],
      "stateMutability": "view",
      "type": "function"
    },
    {
      "inputs": [],
      "name": "contractURI",
      "outputs": [
        {
          "internalType": "string",
          "name": "",
          "type": "string"
        }
      ],
      "stateMutability": "view",
      "type": "function"
    },
    {
      "inputs": [],
      "name": "creditType",
      "outputs": [
        {
          "internalType": "string",
          "name": "",
          "type": "string"
        }
      ],
      "stateMutability": "view",
      "type": "function"
    },
    {
      "inputs": [
        {
          "internalType": "uint256",
          "name": "tokenId_",
          "type": "uint256"
        }
      ],
      "name": "getApproved",
      "outputs": [
        {
          "internalType": "address",
          "name": "",
          "type": "address"
        }
      ],
      "stateMutability": "view",
      "type": "function"
    },
    {
      "inputs": [
        {
          "internalType": "bytes32",
          "name": "role",
          "type": "bytes32"
        }
      ],
      "name": "getRoleAdmin",
      "outputs": [
        {
          "internalType": "bytes32",
          "name": "",
          "type": "bytes32"
        }
      ],
      "stateMutability": "view",
      "type": "function"
    },
    {
      "inputs": [
        {
          "internalType": "uint256",
          "name": "tokenId",
          "type": "uint256"
        }
      ],
      "name": "getTokenDescription",
      "outputs": [
        {
          "internalType": "string",
          "name": "",
          "type": "string"
        }
      ],
      "stateMutability": "view",
      "type": "function"
    },
    {
      "inputs": [
        {
          "internalType": "uint256",
          "name": "tokenId",
          "type": "uint256"
        }
      ],
      "name": "getTokenImage",
      "outputs": [
        {
          "internalType": "string",
          "name": "",
          "type": "string"
        }
      ],
      "stateMutability": "view",
      "type": "function"
    },
    {
      "inputs": [
        {
          "internalType": "uint256",
          "name": "tokenId",
          "type": "uint256"
        }
      ],
      "name": "getTokenUUID",
      "outputs": [
        {
          "internalType": "string",
          "name": "",
          "type": "string"
        }
      ],
      "stateMutability": "view",
      "type": "function"
    },
    {
      "inputs": [
        {
          "internalType": "bytes32",
          "name": "role",
          "type": "bytes32"
        },
        {
          "internalType": "address",
          "name": "account",
          "type": "address"
        }
      ],
      "name": "grantRole",
      "outputs": [],
      "stateMutability": "nonpayable",
      "type": "function"
    },
    {
      "inputs": [
        {
          "internalType": "bytes32",
          "name": "role",
          "type": "bytes32"
        },
        {
          "internalType": "address",
          "name": "account",
          "type": "address"
        }
      ],
      "name": "hasRole",
      "outputs": [
        {
          "internalType": "bool",
          "name": "",
          "type": "bool"
        }
      ],
      "stateMutability": "view",
      "type": "function"
    },
    {
      "inputs": [
        {
          "internalType": "address",
          "name": "owner_",
          "type": "address"
        },
        {
          "internalType": "address",
          "name": "operator_",
          "type": "address"
        }
      ],
      "name": "isApprovedForAll",
      "outputs": [
        {
          "internalType": "bool",
          "name": "",
          "type": "bool"
        }
      ],
      "stateMutability": "view",
      "type": "function"
    },
    {
      "inputs": [],
      "name": "metadataDescriptor",
      "outputs": [
        {
          "internalType": "contract IERC3525MetadataDescriptor",
          "name": "",
          "type": "address"
        }
      ],
      "stateMutability": "view",
      "type": "function"
    },
    {
      "inputs": [
        {
          "internalType": "address",
          "name": "owner_",
          "type": "address"
        },
        {
          "internalType": "uint256",
          "name": "slot_",
          "type": "uint256"
        },
        {
          "internalType": "uint256",
          "name": "value_",
          "type": "uint256"
        },
        {
          "internalType": "string",
          "name": "uuid_",
          "type": "string"
        },
        {
          "internalType": "string",
          "name": "tokenDescription_",
          "type": "string"
        },
        {
          "internalType": "string",
          "name": "tokenImage_",
          "type": "string"
        }
      ],
      "name": "mint",
      "outputs": [
        {
          "internalType": "uint256",
          "name": "",
          "type": "uint256"
        }
      ],
      "stateMutability": "nonpayable",
      "type": "function"
    },
    {
      "inputs": [
        {
          "internalType": "address",
          "name": "owner_",
          "type": "address"
        },
        {
          "internalType": "uint256",
          "name": "slot_",
          "type": "uint256"
        },
        {
          "internalType": "uint256",
          "name": "value_",
          "type": "uint256"
        },
        {
          "internalType": "uint256",
          "name": "discountBasisPts_",
          "type": "uint256"
        },
        {
          "internalType": "string",
          "name": "uuid_",
          "type": "string"
        },
        {
          "internalType": "string",
          "name": "tokenDescription_",
          "type": "string"
        },
        {
          "internalType": "string",
          "name": "tokenImage_",
          "type": "string"
        }
      ],
      "name": "mintWithDiscount",
      "outputs": [
        {
          "internalType": "uint256",
          "name": "",
          "type": "uint256"
        }
      ],
      "stateMutability": "nonpayable",
      "type": "function"
    },
    {
      "inputs": [],
      "name": "name",
      "outputs": [
        {
          "internalType": "string",
          "name": "",
          "type": "string"
        }
      ],
      "stateMutability": "view",
      "type": "function"
    },
    {
      "inputs": [
        {
          "internalType": "uint256",
          "name": "tokenId_",
          "type": "uint256"
        }
      ],
      "name": "networkId",
      "outputs": [
        {
          "internalType": "uint256",
          "name": "",
          "type": "uint256"
        }
      ],
      "stateMutability": "view",
      "type": "function"
    },
    {
      "inputs": [
        {
          "internalType": "address",
          "name": "owner_",
          "type": "address"
        },
        {
          "internalType": "uint256",
          "name": "slot_",
          "type": "uint256"
        },
        {
          "internalType": "uint256",
          "name": "value_",
          "type": "uint256"
        },
        {
          "internalType": "uint256",
          "name": "discountBasisPts_",
          "type": "uint256"
        },
        {
          "internalType": "string",
          "name": "uuid_",
          "type": "string"
        },
        {
          "internalType": "string",
          "name": "token_description_",
          "type": "string"
        },
        {
          "internalType": "string",
          "name": "token_image_",
          "type": "string"
        }
      ],
      "name": "networkMintWithDiscount",
      "outputs": [
        {
          "internalType": "uint256",
          "name": "",
          "type": "uint256"
        }
      ],
      "stateMutability": "nonpayable",
      "type": "function"
    },
    {
      "inputs": [
        {
          "internalType": "address",
          "name": "owner_",
          "type": "address"
        },
        {
          "internalType": "uint256",
          "name": "slot_",
          "type": "uint256"
        },
        {
          "internalType": "uint256",
          "name": "value_",
          "type": "uint256"
        },
        {
          "internalType": "uint256",
          "name": "tVRate_",
          "type": "uint256"
        },
        {
          "internalType": "string",
          "name": "uuid_",
          "type": "string"
        },
        {
          "internalType": "string",
          "name": "token_description_",
          "type": "string"
        },
        {
          "internalType": "string",
          "name": "token_image_",
          "type": "string"
        }
      ],
      "name": "networkMintWithTVRate",
      "outputs": [
        {
          "internalType": "uint256",
          "name": "",
          "type": "uint256"
        }
      ],
      "stateMutability": "nonpayable",
      "type": "function"
    },
    {
      "inputs": [
        {
          "internalType": "uint256",
          "name": "tokenId_",
          "type": "uint256"
        }
      ],
      "name": "ownerOf",
      "outputs": [
        {
          "internalType": "address",
          "name": "owner_",
          "type": "address"
        }
      ],
      "stateMutability": "view",
      "type": "function"
    },
    {
      "inputs": [
        {
          "internalType": "uint256",
          "name": "tokenId_",
          "type": "uint256"
        },
        {
          "internalType": "uint256",
          "name": "slotId_",
          "type": "uint256"
        },
        {
          "internalType": "uint256",
          "name": "value_",
          "type": "uint256"
        }
      ],
      "name": "redeem",
      "outputs": [],
      "stateMutability": "nonpayable",
      "type": "function"
    },
    {
      "inputs": [
        {
          "internalType": "bytes32",
          "name": "role",
          "type": "bytes32"
        },
        {
          "internalType": "address",
          "name": "account",
          "type": "address"
        }
      ],
      "name": "renounceRole",
      "outputs": [],
      "stateMutability": "nonpayable",
      "type": "function"
    },
    {
      "inputs": [
        {
          "internalType": "bytes32",
          "name": "role",
          "type": "bytes32"
        },
        {
          "internalType": "address",
          "name": "account",
          "type": "address"
        }
      ],
      "name": "revokeRole",
      "outputs": [],
      "stateMutability": "nonpayable",
      "type": "function"
    },
    {
      "inputs": [
        {
          "internalType": "address",
          "name": "from_",
          "type": "address"
        },
        {
          "internalType": "address",
          "name": "to_",
          "type": "address"
        },
        {
          "internalType": "uint256",
          "name": "tokenId_",
          "type": "uint256"
        }
      ],
      "name": "safeTransferFrom",
      "outputs": [],
      "stateMutability": "payable",
      "type": "function"
    },
    {
      "inputs": [
        {
          "internalType": "address",
          "name": "from_",
          "type": "address"
        },
        {
          "internalType": "address",
          "name": "to_",
          "type": "address"
        },
        {
          "internalType": "uint256",
          "name": "tokenId_",
          "type": "uint256"
        },
        {
          "internalType": "bytes",
          "name": "data_",
          "type": "bytes"
        }
      ],
      "name": "safeTransferFrom",
      "outputs": [],
      "stateMutability": "payable",
      "type": "function"
    },
    {
      "inputs": [
        {
          "internalType": "address",
          "name": "operator_",
          "type": "address"
        },
        {
          "internalType": "bool",
          "name": "approved_",
          "type": "bool"
        }
      ],
      "name": "setApprovalForAll",
      "outputs": [],
      "stateMutability": "nonpayable",
      "type": "function"
    },
    {
      "inputs": [
        {
          "internalType": "uint256",
          "name": "tokenId_",
          "type": "uint256"
        }
      ],
      "name": "slotOf",
      "outputs": [
        {
          "internalType": "uint256",
          "name": "",
          "type": "uint256"
        }
      ],
      "stateMutability": "view",
      "type": "function"
    },
    {
      "inputs": [
        {
          "internalType": "uint256",
          "name": "slot_",
          "type": "uint256"
        }
      ],
      "name": "slotURI",
      "outputs": [
        {
          "internalType": "string",
          "name": "",
          "type": "string"
        }
      ],
      "stateMutability": "view",
      "type": "function"
    },
    {
      "inputs": [
        {
          "internalType": "bytes4",
          "name": "interfaceId",
          "type": "bytes4"
        }
      ],
      "name": "supportsInterface",
      "outputs": [
        {
          "internalType": "bool",
          "name": "",
          "type": "bool"
        }
      ],
      "stateMutability": "view",
      "type": "function"
    },
    {
      "inputs": [],
      "name": "symbol",
      "outputs": [
        {
          "internalType": "string",
          "name": "",
          "type": "string"
        }
      ],
      "stateMutability": "view",
      "type": "function"
    },
    {
      "inputs": [
        {
          "internalType": "uint256",
          "name": "index_",
          "type": "uint256"
        }
      ],
      "name": "tokenByIndex",
      "outputs": [
        {
          "internalType": "uint256",
          "name": "",
          "type": "uint256"
        }
      ],
      "stateMutability": "view",
      "type": "function"
    },
    {
      "inputs": [
        {
          "internalType": "address",
          "name": "owner_",
          "type": "address"
        },
        {
          "internalType": "uint256",
          "name": "index_",
          "type": "uint256"
        }
      ],
      "name": "tokenOfOwnerByIndex",
      "outputs": [
        {
          "internalType": "uint256",
          "name": "",
          "type": "uint256"
        }
      ],
      "stateMutability": "view",
      "type": "function"
    },
    {
      "inputs": [
        {
          "internalType": "uint256",
          "name": "tokenId_",
          "type": "uint256"
        }
      ],
      "name": "tokenURI",
      "outputs": [
        {
          "internalType": "string",
          "name": "",
          "type": "string"
        }
      ],
      "stateMutability": "view",
      "type": "function"
    },
    {
      "inputs": [],
      "name": "totalBalance",
      "outputs": [
        {
          "internalType": "uint256",
          "name": "",
          "type": "uint256"
        }
      ],
      "stateMutability": "view",
      "type": "function"
    },
    {
      "inputs": [],
      "name": "totalSupply",
      "outputs": [
        {
          "internalType": "uint256",
          "name": "",
          "type": "uint256"
        }
      ],
      "stateMutability": "view",
      "type": "function"
    },
    {
      "inputs": [
        {
          "internalType": "uint256",
          "name": "fromTokenId_",
          "type": "uint256"
        },
        {
          "internalType": "address",
          "name": "to_",
          "type": "address"
        },
        {
          "internalType": "uint256",
          "name": "value_",
          "type": "uint256"
        }
      ],
      "name": "transferFrom",
      "outputs": [
        {
          "internalType": "uint256",
          "name": "",
          "type": "uint256"
        }
      ],
      "stateMutability": "payable",
      "type": "function"
    },
    {
      "inputs": [
        {
          "internalType": "address",
          "name": "from_",
          "type": "address"
        },
        {
          "internalType": "address",
          "name": "to_",
          "type": "address"
        },
        {
          "internalType": "uint256",
          "name": "tokenId_",
          "type": "uint256"
        }
      ],
      "name": "transferFrom",
      "outputs": [],
      "stateMutability": "payable",
      "type": "function"
    },
    {
      "inputs": [
        {
          "internalType": "uint256",
          "name": "fromTokenId_",
          "type": "uint256"
        },
        {
          "internalType": "uint256",
          "name": "toTokenId_",
          "type": "uint256"
        },
        {
          "internalType": "uint256",
          "name": "value_",
          "type": "uint256"
        }
      ],
      "name": "transferFrom",
      "outputs": [],
      "stateMutability": "payable",
      "type": "function"
    },
    {
      "inputs": [],
      "name": "valueDecimals",
      "outputs": [
        {
          "internalType": "uint8",
          "name": "",
          "type": "uint8"
        }
      ],
      "stateMutability": "view",
      "type": "function"
    }
  ],
  "bytecode": "0x60808060405234620009255760009062007fff80380380916200002382856200095c565b833981016101a08282031262000921576200003e8262000980565b906200004d6020840162000980565b926200005c6040820162000980565b946200006b6060830162000980565b926200007a6080840162000980565b9660a08401519160c085015160018060401b0381116200091d5781620000a2918701620009ba565b60e08601516001600160401b038111620009195782620000c4918801620009ba565b6101008701519099906001600160401b038111620009155783620000ea918901620009ba565b6101208801519095906001600160401b038111620005d3578462000110918a01620009ba565b6101408901519093906001600160401b0381116200090d578562000136918b01620009ba565b6101608a01519095906001600160401b0381116200091157610180916200015f918c01620009ba565b9901519b60ff8d168d036200090d57604051916200017d836200092a565b60088352676d6f6e657461727960c01b60208401528051906001600160401b038211620008f9578a54600181811c91168015620008ee575b6020821014620008da579081601f84931162000886575b50602090601f831160011462000818578c926200080c575b50508160011b916000199060031b1c19161789555b8051906001600160401b038211620007f857600154600181811c91168015620007ed575b6020821014620007d9579081601f84931162000779575b50602090601f8311600114620006fd578b92620006f1575b50508160011b916000199060031b1c1916176001555b6002805460ff191660ff8e16179055600b829055600c80546001600160a01b03199081166001600160a01b0389811691909117909255600a80549091169185169190911790558051906001600160401b038211620006dd57600d54600181811c91168015620006d2575b6020821014620006be579081601f8493116200065f575b50602090601f8311600114620005e3578a92620005d7575b50508160011b916000199060031b1c191617600d555b600c546001600160a01b031691823b15620005d357906044889283604051958694859363152f0eb560e01b855260018060a01b0316600485015260248401525af18015620005c85762000597575b50604051936001600160401b036124ae860190811190861117620005835791620003c0620003d792620003a98796956124ae62005b11893960806124ae8901818152019062000a15565b906124ae8701820360206124ae8901015262000a15565b906124ae8501820360406124ae8701015262000a15565b6001600160a01b039091166124ae830160600152039082f09586156200057657600880546001600160a01b0319166001600160a01b039889161790557f1cd6d520d98babae1045eb69c31ecab800996aa332094cb55c0ac10362e9b0c980835260096020908152604080852093909916600081815293909152979091205460ff97919088161562000526575b5050507f9ac4f8025631594629895b778dc5ee88d01673a254a2291f6b6b174ad25230ca602060018060a01b0360085416604051908152a16020815191012060046020604051620004b4816200092a565b82815201635553444360e01b81522014620004ff575b50601180546001600160a01b0319166001600160a01b0392909216919091179055166010556040516150d4908162000a3d8239f35b600f80546001600160a01b0319166001600160a01b039290921691909117905538620004ca565b808352600960205260408320826000526020526040600020600189198254161790557f2f8788117e7eff1d82e926ec794901d17c78024a50270940304540a733656f0d339380a438808062000463565b50604051903d90823e3d90fd5b634e487b7160e01b86526041600452602486fd5b9094906001600160401b038111620005b45760405293386200035f565b634e487b7160e01b82526041600452602482fd5b6040513d88823e3d90fd5b8780fd5b015190503880620002fb565b600d8b528a935060008051602062007fbf83398151915291905b601f198416851062000643576001945083601f1981161062000629575b505050811b01600d5562000311565b015160001960f88460031b161c191690553880806200061a565b81810151835560209485019460019093019290910190620005fd565b600d8b5290915060008051602062007fbf833981519152601f840160051c810160208510620006b6575b90849392915b601f830160051c82018110620006a7575050620002e3565b8c81558594506001016200068f565b508062000689565b634e487b7160e01b8a52602260045260248afd5b90607f1690620002cc565b634e487b7160e01b89526041600452602489fd5b0151905038806200024c565b60018c528b935060008051602062007fdf83398151915291905b601f19841685106200075d576001945083601f1981161062000743575b505050811b0160015562000262565b015160001960f88460031b161c1916905538808062000734565b8181015183556020948501946001909301929091019062000717565b60018c5290915060008051602062007fdf833981519152601f840160051c810160208510620007d1575b90849392915b8d601f840160051c83018210620007c35750505062000234565b8155859450600101620007a9565b5080620007a3565b634e487b7160e01b8b52602260045260248bfd5b90607f16906200021d565b634e487b7160e01b8a52604160045260248afd5b015190503880620001e4565b92508b805260208c20908c935b601f19841685106200086a576001945083601f1981161062000850575b505050811b018955620001f9565b015160001960f88460031b161c1916905538808062000842565b8181015183556020948501946001909301929091019062000825565b9091508b805260208c20601f840160051c810160208510620008d2575b84939291908e5b601f840160051c83018210620008c357505050620001cc565b81558594506001018e620008aa565b5080620008a3565b634e487b7160e01b8c52602260045260248cfd5b90607f1690620001b5565b634e487b7160e01b8b52604160045260248bfd5b8880fd5b8980fd5b8680fd5b8580fd5b8480fd5b8280fd5b600080fd5b604081019081106001600160401b038211176200094657604052565b634e487b7160e01b600052604160045260246000fd5b601f909101601f19168101906001600160401b038211908210176200094657604052565b51906001600160a01b03821682036200092557565b60005b838110620009a95750506000910152565b818101518382015260200162000998565b81601f82011215620009255780516001600160401b038111620009465760405192620009f1601f8301601f1916602001856200095c565b81845260208284010111620009255762000a12916020808501910162000995565b90565b9060209162000a308151809281855285808601910162000995565b601f01601f191601019056fe608060408181526004918236101561001657600080fd5b600092833560e01c91826301ffc9a71461262c5750816306fdde0314612526578163081812fc14612506578163095ea7b3146123d257816309c3dd87146120ed5781630f485c02146120d85781631375d8431461207357816318160ddd1461205457816323b872dd1461202f578163248a9ca314612004578163263f3e7e14611fe45781632f2ff15d14611f375781632f745c5914611e8e578163310ed7f014611a0857816331b5b9071461197f57816336568abe146118ed5781633e7e8669146118cb57816341815ee41461189a57816342842e0e14611877578163476de4a8146112c65781634c1de213146112635781634f6ccce7146111dd5781636352211e146111ac57816370a082311461118657816371f0442e1461112157816377955245146110f85781638005f5db146110d6578163840f7113146110ad5781638cb0a51114610f1957816391d1485414610ed357816395d89b4114610dc55781639cc7f70814610da5578163a217fddf14610d8a578163a22cb46514610cb9578163a7c9f2d614610c7e578163a83a58e714610966578163ad7a672f14610947578163b3154c08146108e2578163b81922051461067e578163b88d4fde1461062357838263bd8c6507146103fb57508163c87b56dd14610379578163d547741f1461033a578163e345e0bc14610308578163e8a3d48514610276575063e985e9c51461022157600080fd5b3461027257806003193601126102725760209161023c6126c7565b6002836102476126dd565b9360018060a01b0380941681526007875220019116600052825260ff81600020541690519015158152f35b5080fd5b9190503461030457826003193601126103045760085481516331264fc160e01b815292849184919082906001600160a01b03165afa9182156102fa57836102d194936102d5575b5050519182916020835260208301906126a2565b0390f35b6102f29293503d8091833e6102ea81836127cb565b810190612e5e565b9038806102bd565b81513d85823e3d90fd5b8280fd5b828434610337578160031936011261033757506103306020926103296126dd565b9035613db6565b9051908152f35b80fd5b919050346103045780600319360112610304576103769135610371600161035f6126dd565b938387526009602052862001546128d7565b612c0c565b80f35b91905034610304576020366003190112610304578282356103a161039c826137d5565b613093565b6008546001600160a01b0316936044906103ba836139fe565b95855196879485936304e6f55760e51b855284015260248301525afa9182156102fa57836102d194936102d5575050519182916020835260208301906126a2565b9291503461061f5761040c3661285c565b600254600c54979a9791966001600160a01b03969395928716939290916104359060ff16613803565b61043e91612ebc565b8a51632d2a246560e01b81526001600160a01b03909c168a8d01908152602081019290925260408201929092526060810191909152899081906080010381885a94602095f19788156105d65785986105e4575b508260085416803b156105e0578786918a838a6104cc855197889687958694632108947560e21b8652850152602484015260448301906126a2565b03925af180156105d6579085916105be575b50508160085416803b156105ba5761051a91859189838a5180968195829463246a908b60e01b84528d8401528d602484015260448301906126a2565b03925af180156105b05790849161059c575b505060085416803b1561030457858361056595875196879586948593630190503b60e61b855284015289602484015260448301906126a2565b03925af180156105925761057e575b6020838351908152f35b610588849161276c565b6103045782610574565b82513d86823e3d90fd5b6105a59061276c565b61030457823861052c565b86513d86823e3d90fd5b8480fd5b6105c79061276c565b6105d25783386104de565b8380fd5b87513d87823e3d90fd5b8580fd5b945096506020843d8211610617575b81610600602093836127cb565b81010312610612578793519638610491565b600080fd5b3d91506105f3565b5050fd5b83906080366003190112610272576106396126c7565b6106416126dd565b906064356001600160401b0381116105ba57366023820112156105ba576103769381602461067493369301359101612807565b9160443591612fbc565b839150346102725761068f36612752565b91929061069b846130df565b6001600160a01b03908116331480156108a2575b156108535784865260136020528686205461271090810381811161084057856106d791612c82565b049181600f54169160115416823b1561083c578851632b83cccd60e01b81526001600160a01b03909116858201908152602081019290925260408201939093528691839182908490829060600103925af180156108325790859161081e575b505061074482601254613608565b601255610750836137d5565b80156107fc575b61076090613093565b8284526006602052600261077686862054612dca565b5001908154908382106107ad57509184956020926107a38360008051602061507f83398151915296613608565b905551908152a380f35b608490602088519162461bcd60e51b8352820152602360248201527f455243333532353a206275726e2076616c756520657863656564732062616c616044820152626e636560e81b6064820152fd5b5061076061081784600052600e602052604060002054151590565b9050610757565b6108279061276c565b6105d2578386610736565b86513d87823e3d90fd5b8780fd5b634e487b7160e01b885260118552602488fd5b865162461bcd60e51b8152602081850152602360248201527f53656e646572206973206e6f7420617574686f72697a656420746f207265646560448201526232b69760e91b6064820152608490fd5b507f1cd6d520d98babae1045eb69c31ecab800996aa332094cb55c0ac10362e9b0c9865260096020528686203360005260205260ff8760002054166106af565b91905034610304576020366003190112610304576008548151631662a98160e31b81528335938101939093528390839060249082906001600160a01b03165afa9182156102fa57836102d194936102d5575050519182916020835260208301906126a2565b5050346102725781600319360112610272576020906012549051908152f35b9050823461033757506109783661285c565b9097959694939291600098600b548614600014610c07576109a58587600160035401809c81600355613ed3565b6008546001600160a01b0392908316803b1561061257896000918c838c6109ea855197889687958694632108947560e21b8652850152602484015260448301906126a2565b03925af18015610bfc57610be4575b50908992918160085416803b156105ba578985918c838c610a3885519788968795869463246a908b60e01b8652850152602484015260448301906126a2565b03925af18015610bda57908491610bc6575b505060085416803b15610304578783918a838a610a85855197889687958694630190503b60e61b8652850152602484015260448301906126a2565b03925af18015610bbc57610ba4575b505084518681526020810184905260408101839052610b2e91907f84eeb48eca46cea54afc9753345f6038981672ea565f32885420829dfd88aea690606090a1855187815260208101859052604081018490527f1271433ec932e965d31c8d57a40df8281c09b048d4e75e4cb5a9669ac173acf290606090a15b610b1a83601254612cab565b601255610b28601054613803565b90612ebc565b85875260136020528487205583862054906127109182038281116108405787939291610b5991612c82565b049060018060a01b03600f541690813b156105d2578551630ab714fb60e11b815230958101958652602086019190915260408501929092529092839190829084908290606001610565565b610bad9061276c565b610bb8578688610a94565b8680fd5b87513d84823e3d90fd5b610bcf9061276c565b61030457828b610a4a565b89513d86823e3d90fd5b610bf19193929a5061276c565b60009890918a6109f9565b89513d6000823e3d90fd5b610c199291848688610b2e979c613811565b957f36fba2e6d0870905dade4201d8b7ff8b54c52b9e7de8df1400244d22e0d2384684600160035401988960035589600052600e602052808960002055610c76868a51938493846040919493926060820195825260208201520152565b0390a1610b0e565b505034610272578160031936011261027257602090517f1cd6d520d98babae1045eb69c31ecab800996aa332094cb55c0ac10362e9b0c98152f35b91905034610304578060031936011261030457610cd46126c7565b90602435918215158093036105ba576001600160a01b031692338414610d4857503384526007602052600281852001836000526020528060002060ff1981541660ff8416179055519081527f17307eab39ab6107e8899845ad3d59bd9653f200f220920489ca2b5937696c3160203392a380f35b6020606492519162461bcd60e51b8352820152601a60248201527f455243333532353a20617070726f766520746f2063616c6c65720000000000006044820152fd5b50503461027257816003193601126102725751908152602090f35b8284346103375760203660031901126103375750610330602092356139fe565b8284346103375780600319360112610337575080519060009060019182549283811c90808516948515610ec9575b6020958684108114610eb657838852879493929187908215610e94575050600114610e3a575b50506102d19291610e2b9103856127cb565b519282849384528301906126a2565b600081815286935091907fb10e2d527612073b26eecdfd717e6a320cf44b4afac2b0732d9fcbe2b7fa0cf65b828410610e7c5750505082010181610e2b610e19565b8054848a018601528895508794909301928101610e66565b60ff19168682015292151560051b85019092019250839150610e2b9050610e19565b634e487b7160e01b855260228952602485fd5b91607f1691610df3565b90503461030457816003193601126103045781602093610ef16126dd565b9235815260098552209060018060a01b0316600052825260ff81600020541690519015158152f35b839150610f25366126f3565b92610f318392936137d5565b801561108b575b610f4190613093565b610f4a826137d5565b80611078575b15610fed57610f756001600160a01b0380610f6a856130df565b16908516141561303c565b610f7f82336131c4565b15610f905750610376939450613be4565b608490602087519162461bcd60e51b8352820152603160248201527f455243333532353a20617070726f76652063616c6c6572206973206e6f74206f6044820152701ddb995c881b9bdc88185c1c1c9bdd9959607a1b6064820152fd5b909184959260018060a01b03600c5416908652600e60205283862054813b15610bb8578451638cb0a51160e01b81529384019081526001600160a01b03909216602083015260408201949094529092849184919082908490829060600103925af190811561106f575061105f57505080f35b6110689061276c565b6103375780f35b513d84823e3d90fd5b5061108282612e05565b600b5414610f50565b50610f416110a683600052600e602052604060002054151590565b9050610f38565b50503461027257816003193601126102725760085490516001600160a01b039091168152602090f35b505034610272576020906103306110ec3661285c565b95949094939193613811565b505034610272578160031936011261027257600a5490516001600160a01b039091168152602090f35b919050346103045760203660031901126103045760085481516338f8221760e11b81528335938101939093528390839060249082906001600160a01b03165afa9182156102fa57836102d194936102d5575050519182916020835260208301906126a2565b505034610272576020366003190112610272576020906103306111a76126c7565b612edc565b82843461033757602036600319011261033757506111cc60209235613b0d565b90516001600160a01b039091168152f35b9050823461033757602036600319011261033757508035906005548210156112145760208361120b84612dca565b50549051908152f35b608490602084519162461bcd60e51b8352820152602360248201527f455243333532353a20676c6f62616c20696e646578206f7574206f6620626f756044820152626e647360e81b6064820152fd5b90503461030457602036600319011261030457602092829135611285816137d5565b80156112a4575b61129590613093565b8152600e845220549051908152f35b506112956112bf82600052600e602052604060002054151590565b905061128c565b8383346102725760c0366003190112610272576112e16126c7565b926001600160401b03906064358281116105ba57611302903690830161283e565b916084358181116105e05761131a903690840161283e565b9460a4359182116103375750611333903690830161283e565b906000958692600b54946024988935968714600014611633575061136a9760016003540198899485600355886044359b8c92613ed3565b6008546001600160a01b0392908316803b15610612578b60009187838a6113af8f97885198899788968795632108947560e21b875286015284015260448301906126a2565b03925af18015610bfc5761161f575b50816008541690813b15610bb8578a89928689896113fa829688519889978896879563246a908b60e01b875286015284015260448301906126a2565b03925af1801561161557908691611601575b505060085416803b156105ba5761144791859188838c825196879586948593630190503b60e61b85528b8d86015284015260448301906126a2565b03925af180156105b057859185916115ea575b5050855182815260208101829052604081018890527f1271433ec932e965d31c8d57a40df8281c09b048d4e75e4cb5a9669ac173acf292907f84eeb48eca46cea54afc9753345f6038981672ea565f32885420829dfd88aea690606090a1865181815260208101929092526040820197909752606090a15b604435956114e287601254612cab565b6012556114f96114f3601054613803565b84612ebc565b8684526013602052858420558483205490612710918203908282116115d957508761152391612c82565b049060018060a01b03600f541690813b156105d2578551630ab714fb60e11b8152309181019182526020820186905260408201939093528391839182908490829060600103925af180156115cf576115bb575b505081518381526020808201929092526040810194909452927f1271433ec932e965d31c8d57a40df8281c09b048d4e75e4cb5a9669ac173acf290606090a151908152f35b6115c5829161276c565b6103375780611576565b84513d84823e3d90fd5b634e487b7160e01b85526011845284fd5b6115f591925061276c565b6103045783838961145a565b61160a9061276c565b6105ba57848a61140c565b88513d88823e3d90fd5b61162a91965061276c565b6000948a6113be565b9190600254988360018060a01b039261165360ff85600c54169d16613803565b1561186557838b5197630151086360e31b89521688880152898d88015281876044359d8e6044830152826064830152815a93608492602095f1968715611828578297611832575b50836008541690813b15610304578d8c9289858c6116d68296885198899788968795632108947560e21b875286015284015260448301906126a2565b03925af1801561182857611814575b5050816008541690813b156105ba578b8a9287878a611722829688519889978896879563246a908b60e01b875286015284015260448301906126a2565b03925af18015610bda57908491611800575b50506008541690813b15610304578988928585886117708296885198899788968795630190503b60e61b875286015284015260448301906126a2565b03925af18015610bbc57908692916117e8575b50507f36fba2e6d0870905dade4201d8b7ff8b54c52b9e7de8df1400244d22e0d23846916117e0600160035401988960035589600052600e6020528289600020558851938493846040919493926060820195825260208201520152565b0390a16114d2565b8192506117f49061276c565b61033757808591611783565b6118099061276c565b61030457828b611734565b6118209192955061276c565b928b806116e5565b8b513d84823e3d90fd5b9096506020813d821161185d575b8161184d602093836127cb565b810103126102725751958d61169a565b3d9150611840565b634e487b7160e01b8252601288528c82fd5b83610376846118853661271d565b91925192611892846127b0565b858452612fbc565b5050346102725781600319360112610272576102d1906118b8612cdf565b90519182916020835260208301906126a2565b50503461027257816003193601126102725760209060ff600254169051908152f35b839150346102725782600319360112610272576119086126dd565b90336001600160a01b0383160361192457906103769135612c0c565b608490602085519162461bcd60e51b8352820152602f60248201527f416363657373436f6e74726f6c3a2063616e206f6e6c792072656e6f756e636560448201526e103937b632b9903337b91039b2b63360891b6064820152fd5b91905034610304576020366003190112610304578282356001600160401b038111610272576119b1903690850161283e565b6008546001600160a01b0316803b15610304576020836119eb968651978895869485936355f804b360e01b855284015260248301906126a2565b03925af190811561106f57506119ff575080f35b6103769061276c565b8383611a1336612752565b92611a1f8392936137d5565b80611e7b575b80611e58575b15611b1057611a39836139fe565b8286526013602052818620548487528287205491929114611b02578286528086205491612710928303838111611aef5786611a7391612c82565b8588526013602052828820548403848111611adc57611aa38392611a9d611aaa95610b2894612c82565b90612cab565b9188612cab565b8203918211611ac9578596508361037696526013602052862055614a43565b634e487b7160e01b865260118752602486fd5b634e487b7160e01b895260118a52602489fd5b634e487b7160e01b885260118952602488fd5b509394506103769350614a43565b9394611b1b826137d5565b80611e45575b80611e1c575b15611b35575b505050505080f35b611b4c82600052600e602052604060002054151590565b80611dff575b15611b6c5750611b629350614a43565b8180808080611b2d565b611b8682939492600052600e602052604060002054151590565b80611df0575b15611dce57611b9c828585614a43565b611ba882601254613608565b601255600c548551639448bddb60e01b8152808301869052602092916001600160a01b03919082168482602481845afa918215611d39578a92611d9f575b50868a52600e8552888a205485908015611d435760248b51809481936339ace21f60e01b8352898301525afa908115611d39578a91611d08575b505b612710908103818111611cf557918a604492611c4089899796612c82565b0484600f5416908c51978896879563a9059cbb60e01b8752169085015260248401525af18015611ceb57917fdf7a601a0a201ccd4b4bfcfd610913188d931867997223d226f85f2f2673988a9691611cb59493611cbd575b505051938493846040919493926060820195825260208201520152565b0390a1611b62565b81611cdc92903d10611ce4575b611cd481836127cb565b81019061491c565b508780611c98565b503d611cca565b86513d89823e3d90fd5b634e487b7160e01b8b526011855260248bfd5b90508481813d8311611d32575b611d1f81836127cb565b81010312611d2e57518a611c20565b8980fd5b503d611d15565b89513d8c823e3d90fd5b506024918a51928380926339ace21f60e01b82528b898301525afa908115611d39578a91611d72575b50611c22565b90508481813d8311611d98575b611d8981836127cb565b81010312611d2e57518a611d6c565b503d611d7f565b611dc0919250853d8711611dc7575b611db881836127cb565b810190613aee565b908a611be6565b503d611dae565b50509050611dea9150600052600e602052604060002054151590565b50611b62565b50611dfa84614f62565b611b8c565b50611e1783600052600e602052604060002054151590565b611b52565b50611e26836137d5565b80611e32575b15611b27565b50611e3c83612e05565b600b5414611e2c565b50611e4f82612e05565b600b5414611b21565b50611e62836137d5565b8015611a2b5750611e7283612e05565b600b5414611a2b565b50611e8582612e05565b600b5414611a25565b90508234610337578260031936011261033757611ea96126c7565b60243592611eb682612edc565b841015611ee957602085611edb8682878760018060a01b0316815260078652206131ac565b91905490519160031b1c8152f35b608490602086519162461bcd60e51b8352820152602260248201527f455243333532353a206f776e657220696e646578206f7574206f6620626f756e604482015261647360f01b6064820152fd5b9050346103045781600319360112610304573590611f536126dd565b908284526009602052611f6b600182862001546128d7565b828452600960209081528185206001600160a01b039093168086529290528084205460ff1615611f99578380f35b82845260096020528084208285526020528320600160ff1982541617905533917f2f8788117e7eff1d82e926ec794901d17c78024a50270940304540a733656f0d8480a43880808380f35b828434610337576020366003190112610337575061033060209235612e05565b9050346103045760203660031901126103045781602093600192358152600985522001549051908152f35b8361037661203c3661271d565b9161204f61204a84336131c4565b612f55565b613235565b5050346102725781600319360112610272576020906005549051908152f35b91905034610304576020366003190112610304576008548151631375d84360e01b81528335938101939093528390839060249082906001600160a01b03165afa9182156102fa57836102d194936102d5575050519182916020835260208301906126a2565b6020836103306120e7366126f3565b916141c3565b90503461030457602090816003193601126105d2576008548351636c0360eb60e01b81526001600160a01b039091169180359186818381875afa908115611ceb5787916123b8575b5083156121a65750906024869286519485938492633601bfc560e11b84528301525afa90811561219957846102d19394959261217e575b505092519282849384528301906126a2565b61219292503d8091833e6102ea81836127cb565b388061216c565b50505051903d90823e3d90fd5b80935095919394955115156000146123775783849183957a184f03e93ff9f4daa797ed6e38ed64bf6a1f010000000000000000908181101561236a575b5050866d04ee2d6d415b85acef81000000008085101561235c575b5050662386f26fc100008084101561234d575b506305f5e1008084101561233e575b5061271080841015612330575b50506064821015612320575b600a80921015612316575b6001908160218188019761226f61225a8a6127ec565b996122678d519b8c6127cb565b808b526127ec565b898b019790601f190136893750880101905b6122e0575b5050505060256122cb926122da926102d195885195836122af88955180928c808901910161267f565b84019164736c6f742f60d81b8a8401525180938684019061267f565b010360058101845201826127cb565b92610e2b565b600019019083906f181899199a1a9b1b9c1cb0b131b232b360811b8282061a83530491821561231157919082612281565b612286565b9360010193612244565b9390606460029104910193612239565b95019490910490388061222d565b60089196930492019438612220565b60109196930492019438612211565b9601959092049186386121fe565b89975004925038806121e3565b9493925090508251908282018281106001600160401b038211176123a557846102d1949596505281526122da565b634e487b7160e01b825260418652602482fd5b6123cc91503d8089833e6102ea81836127cb565b38612135565b91809150600319360112610304576123e86126c7565b6024359290916001600160a01b0391908280612403876130df565b169416936124138186141561303c565b8033149081156124e4575b501561247b57612438908587526006602052862054612dca565b500180546001600160a01b03191683179055612453836130df565b167f8c5be1e5ebec7d5bd14f71427d1e84f3dd0314c0f7b2291e5b200ac8c7c3b9258480a480f35b906020608492519162461bcd60e51b8352820152603960248201527f455243333532353a20617070726f76652063616c6c6572206973206e6f74206f60448201527f776e6572206e6f7220617070726f76656420666f7220616c6c000000000000006064820152fd5b90508652600760205260028187200133875260205260ff81872054163861241e565b82843461033757602036600319011261033757506111cc6020923561314a565b82843461033757806003193601126103375781519181825492600184811c91818616958615612622575b602096878510811461260f578899509688969785829a5291826000146125e857505060011461258d575b5050506102d19291610e2b9103856127cb565b91908693508280527f290decd9548b62a8d60345a988386fc84ba6bc95484008f6362f93160ef3e5635b8284106125d05750505082010181610e2b6102d161257a565b8054848a0186015288955087949093019281016125b7565b60ff19168782015293151560051b86019093019350849250610e2b91506102d1905061257a565b634e487b7160e01b835260228a52602483fd5b92607f1692612550565b849134610304576020366003190112610304573563ffffffff60e01b81168091036103045760209250637965db0b60e01b811490811561266e575b5015158152f35b6301ffc9a760e01b14905083612667565b60005b8381106126925750506000910152565b8181015183820152602001612682565b906020916126bb8151809281855285808601910161267f565b601f01601f1916010190565b600435906001600160a01b038216820361061257565b602435906001600160a01b038216820361061257565b606090600319011261061257600435906024356001600160a01b0381168103610612579060443590565b6060906003190112610612576001600160a01b0390600435828116810361061257916024359081168103610612579060443590565b606090600319011261061257600435906024359060443590565b6001600160401b03811161277f57604052565b634e487b7160e01b600052604160045260246000fd5b60c081019081106001600160401b0382111761277f57604052565b602081019081106001600160401b0382111761277f57604052565b90601f801991011681019081106001600160401b0382111761277f57604052565b6001600160401b03811161277f57601f01601f191660200190565b929192612813826127ec565b9161282160405193846127cb565b829481845281830111610612578281602093846000960137010152565b9080601f830112156106125781602061285993359101612807565b90565b60e0600319820112610612576004356001600160a01b038116810361061257916024359160443591606435916001600160401b039160843583811161061257826128a89160040161283e565b9260a43581811161061257836128c09160040161283e565b9260c435918211610612576128599160040161283e565b60009080825260209060098252604092838120338252835260ff8482205416156129015750505050565b8351916001600160401b0390336060850183811186821017612bf8578752602a85528585019187368437855115612be45760308353855191600192831015612bd0576078602188015360295b838111612b665750612b245790875193608085019085821090821117612b1057885260428452868401946060368737845115612afc57603086538451821015612afc5790607860218601536041915b818311612a8e57505050612a4c57612a48938693612a2c93612a1d6048946129f49a519a8b957f416363657373436f6e74726f6c3a206163636f756e74200000000000000000008c880152518092603788019061267f565b8401917001034b99036b4b9b9b4b733903937b6329607d1b60378401525180938684019061267f565b010360288101875201856127cb565b5192839262461bcd60e51b8452600484015260248301906126a2565b0390fd5b60648587519062461bcd60e51b825280600483015260248201527f537472696e67733a20686578206c656e67746820696e73756666696369656e746044820152fd5b909192600f81166010811015612ae8576f181899199a1a9b1b9c1cb0b131b232b360811b901a612abe8588612cb8565b5360041c928015612ad45760001901919061299c565b634e487b7160e01b82526011600452602482fd5b634e487b7160e01b83526032600452602483fd5b634e487b7160e01b81526032600452602490fd5b634e487b7160e01b86526041600452602486fd5b60648789519062461bcd60e51b825280600483015260248201527f537472696e67733a20686578206c656e67746820696e73756666696369656e746044820152fd5b90600f81166010811015612bbc576f181899199a1a9b1b9c1cb0b131b232b360811b901a612b94838a612cb8565b5360041c908015612ba8576000190161294d565b634e487b7160e01b87526011600452602487fd5b634e487b7160e01b88526032600452602488fd5b634e487b7160e01b86526032600452602486fd5b634e487b7160e01b85526032600452602485fd5b634e487b7160e01b85526041600452602485fd5b906000918083526009602052604083209160018060a01b03169182845260205260ff604084205416612c3d57505050565b8083526009602052604083208284526020526040832060ff1981541690557ff6391f5c32d9c69d2a47ea670b442974b53935d1edc7fd64eb21e047a839171b339380a4565b81810292918115918404141715612c9557565b634e487b7160e01b600052601160045260246000fd5b91908201809211612c9557565b908151811015612cc9570160200190565b634e487b7160e01b600052603260045260246000fd5b604051906000600d5490600182811c90808416938415612dc0575b6020948584108114612dac5783885287949392918115612d8c5750600114612d2d575b5050612d2b925003836127cb565b565b90939150600d6000527fd7b6990105719101dabeb77144f2a3385c8033acd3af97e9423a695e81ad1eb5936000915b818310612d74575050612d2b93508201013880612d1d565b85548884018501529485019487945091830191612d5c565b915050612d2b94925060ff191682840152151560051b8201013880612d1d565b634e487b7160e01b85526022600452602485fd5b91607f1691612cfa565b600554811015612cc9576006906005600052027f036b6384b5eca791c62761152d0c79bb0604c104a5fb6f4eb0703f3154bb3db00190600090565b612e0e816137d5565b8015612e3c575b612e1e90613093565b60005260066020526001612e36604060002054612dca565b50015490565b50612e1e612e5782600052600e602052604060002054151590565b9050612e15565b602081830312610612578051906001600160401b038211610612570181601f82011215610612578051612e90816127ec565b92612e9e60405194856127cb565b8184526020828401011161061257612859916020808501910161267f565b8115612ec6570490565b634e487b7160e01b600052601260045260246000fd5b6001600160a01b03168015612efc57600052600760205260406000205490565b60405162461bcd60e51b815260206004820152602b60248201527f455243333532353a2062616c616e636520717565727920666f7220746865207a60448201526a65726f206164647265737360a81b6064820152608490fd5b15612f5c57565b60405162461bcd60e51b815260206004820152603260248201527f455243333532353a207472616e736665722063616c6c6572206973206e6f74206044820152711bdddb995c881b9bdc88185c1c1c9bdd995960721b6064820152608490fd5b90612fe0939291612fd061204a84336131c4565b612fdb838383613235565b613687565b15612fe757565b60405162461bcd60e51b815260206004820152602760248201527f455243333532353a207472616e7366657220746f206e6f6e204552433732315260448201526632b1b2b4bb32b960c91b6064820152608490fd5b1561304357565b60405162461bcd60e51b815260206004820152602260248201527f455243333532353a20617070726f76616c20746f2063757272656e74206f776e60448201526132b960f11b6064820152608490fd5b1561309a57565b60405162461bcd60e51b815260206004820152601960248201527f455243333532353a20696e76616c696420746f6b656e204944000000000000006044820152606490fd5b6130e8816137d5565b8015613128575b6130f890613093565b600052600660205261310e604060002054612dca565b50600301546001600160a01b031690612d2b821515613093565b506130f861314382600052600e602052604060002054151590565b90506130ef565b613153816137d5565b801561318a575b61316390613093565b6000526006602052613179604060002054612dca565b50600401546001600160a01b031690565b506131636131a582600052600e602052604060002054151590565b905061315a565b8054821015612cc95760005260206000200190600090565b906001600160a01b0380806131d8846130df565b1693169183831493841561320b575b5083156131f5575b50505090565b6132019192935061314a565b16143880806131ef565b909350600052600760205260026040600020018260005260205260ff6040600020541692386131e7565b61323e836130df565b6001600160a01b03918216919081168290036134ce5780831692831561347b5761326785612e05565b506132718561351f565b506000918583526020906006825260409061328e82862054612dca565b50600490810180546001600160a01b031990811690915590918987826132b3836130df565b167f8c5be1e5ebec7d5bd14f71427d1e84f3dd0314c0f7b2291e5b200ac8c7c3b9258280a48987526006855260056132ed85892054612dca565b500180549091858988818f5b868410613444575050505050505080549087815581613427575b505088865260068452600361332a84882054612dca565b5001908154169055858552600783528185209182549360001994858101908111613414579061335b889392866131ac565b90549060031b1c9060018601908c8552818152838520549261339c81613381868b6131ac565b90919082549060031b600019811b9283911b16911916179055565b8552528183205589825281205581549081156134015750928288926133fd947fddf252ad1be2c89b69c2b068fc378daa952ba7f163c4a11628f55a4df523b3ef979601916133ea83836131ac565b909182549160031b1b1916905555613572565b80a4565b634e487b7160e01b865260319052602485fd5b634e487b7160e01b885260118452602488fd5b8752848720908101905b8181101561331357878155600101613431565b6134719486928b613455878c6131ac565b96905494835252209260031b1c168c5289528a88812055613615565b8690888b8f6132f9565b60405162461bcd60e51b815260206004820152602560248201527f455243333532353a207472616e7366657220746f20746865207a65726f206164604482015264647265737360d81b6064820152608490fd5b60405162461bcd60e51b8152602060048201526024808201527f455243333532353a207472616e736665722066726f6d20696e76616c6964206f6044820152633bb732b960e11b6064820152608490fd5b613528816137d5565b8015613550575b61353890613093565b60005260066020526002612e36604060002054612dca565b5061353861356b82600052600e602052604060002054151590565b905061352f565b6000908282526006602052600361358c6040842054612dca565b500180546001600160a01b0319166001600160a01b0390921691821790558082526007602081815260408085208054878752600191909101835281862055928452528120805491600160401b8310156135f4575081613381916001612d2b95940181556131ac565b634e487b7160e01b81526041600452602490fd5b91908203918211612c9557565b6000198114612c955760010190565b600160401b821161277f5780549180825582811061364157505050565b60009182526020822092830192015b82811061365c57505050565b818155600101613650565b9081602091031261061257516001600160e01b0319811681036106125790565b92939290803b156137cc57936000916136de9560405180948193630a85bd0160e11b9788845233600485015260018060a01b0380921660248501526044840152608060648401528260209a8b9760848301906126a2565b0393165af16000918161379d575b5061378e57833d15613786573d90613703826127ec565b9161371160405193846127cb565b82523d60008284013e5b815191826137835760405162461bcd60e51b815260048101839052603260248201527f4552433732313a207472616e7366657220746f206e6f6e20455243373231526560448201527131b2b4bb32b91034b6b83632b6b2b73a32b960711b6064820152608490fd5b01fd5b60609061371b565b6001600160e01b031916149150565b6137be919250853d87116137c5575b6137b681836127cb565b810190613667565b90386136ec565b503d6137ac565b50600193505050565b600554151590816137e4575090565b80915060005260066020526137fd604060002054612dca565b50541490565b604d8111612c9557600a0a90565b9395929194909560206002549660009761383d60018060a01b0396610b2860ff89600c54169416613803565b60408051630151086360e31b81526001600160a01b039a909a1660048b015260248a019b909b5260448901929092526064880191909152959795889060849082908a905af19687156139c15786976139cb575b508260085416803b15610bb8576138cc91879189838951809681958294632108947560e21b845260048401528c602484015260448301906126a2565b03925af180156139c1576139ae575b50816008541690813b156105e05761391886928392875194858094819363246a908b60e01b83528d60048401528b602484015260448301906126a2565b03925af180156139a457908591613990575b50506008541690813b156105d2576139698392859492859351958680948193630190503b60e61b83528b600484015288602484015260448301906126a2565b03925af190811561106f575061397e57505090565b613988829161276c565b610337575090565b6139999061276c565b6105d257833861392a565b84513d87823e3d90fd5b6139ba9095919561276c565b93386138db565b85513d88823e3d90fd5b9096506020813d82116139f6575b816139e6602093836127cb565b810103126105e057519538613890565b3d91506139d9565b613a07816137d5565b8015613acc575b613a1790613093565b613a20816137d5565b80613ab9575b15613a34576128599061351f565b6000908152600e6020526040812054602060018060a01b03600c541691602460405180948193631398fee160e31b835260048301525afa918215613aad578092613a7d57505090565b9091506020823d8211613aa5575b81613a98602093836127cb565b8101031261033757505190565b3d9150613a8b565b604051903d90823e3d90fd5b50613ac381612e05565b600b5414613a26565b50613a17613ae782600052600e602052604060002054151590565b9050613a0e565b9081602091031261061257516001600160a01b03811681036106125790565b613b16816137d5565b8015613bc2575b613b2690613093565b613b2f816137d5565b80613baf575b15613b4357612859906130df565b60018060a01b03600c541690600052600e60205260206040600020546024604051809481936331a9108f60e11b835260048301525afa908115613ba357600091613b8b575090565b612859915060203d8111611dc757611db881836127cb565b6040513d6000823e3d90fd5b50613bb981612e05565b600b5414613b35565b50613b26613bdd82600052600e602052604060002054151590565b9050613b1d565b6001600160a01b038083169391928415613ccd5783613c0291613d25565b15613c50575b5060207f621b050de0ad08b51d19b48b3e6df75348c4de6bdd93e81b252ca62e28265b1b918360005260048252604060002085600052825280604060002055604051908152a3565b908260005260066020526005613c6a604060002054612dca565b500190815492600160401b84101561277f5785613cb08560209560017f621b050de0ad08b51d19b48b3e6df75348c4de6bdd93e81b252ca62e28265b1b980181556131ac565b909283549160031b90811b9283911b169119161790559150613c08565b60405162461bcd60e51b815260206004820152602a60248201527f455243333532353a20617070726f76652076616c756520746f20746865207a65604482015269726f206164647265737360b01b6064820152608490fd5b6000908282526006602090808252604090613d4282862054612dca565b509260058094015496865b888110613d605750505050505050905090565b818852838352613d7e8187613d77888c2054612dca565b50016131ac565b905460039190911b1c6001600160a01b0390811690881614613da857613da390613615565b613d4d565b505050505050505050600190565b90613dc0826137d5565b8015613e51575b613dd090613093565b613dd9826137d5565b80613e3e575b15613ded5761285991613e73565b602060018060a01b0391604483600c54166000958652600e845260408620549060405195869485936338d1782f60e21b855260048501521660248301525afa918215613aad578092613a7d57505090565b50613e4882612e05565b600b5414613ddf565b50613dd0613e6c83600052600e602052604060002054151590565b9050613dc7565b613e7c816137d5565b8015613eb1575b613e8c90613093565b600052600460205260406000209060018060a01b031660005260205260406000205490565b50613e8c613ecc82600052600e602052604060002054151590565b9050613e83565b6001600160a01b0380821695949293909290861561417457841561412557613efa856137d5565b6140e057604090815193613f0d856127b0565b600095868652835190613f1f82612795565b88825260209682898d8c8b8097018981528a850191848352606086019384528b608087019580875260a0880198895260066005549b8c948352522055600160401b8810156140cc57613f78600198898101600555612dca565b9590956140b857906005959493929151855551888501555160028401558560038401915116906bffffffffffffffffffffffff60a01b9182825416179055856004840192511690825416179055019051918251926001600160401b0384116140a4578990613fe68585613624565b01918a52888a20908a5b848110614091575050505050509580979861401b8260008051602061507f8339815191529899613572565b877fddf252ad1be2c89b69c2b068fc378daa952ba7f163c4a11628f55a4df523b3ef8180a485877fe4f48c240d3b994948aa54f3e2f5fca59263dfe1d52b6e4cf39a5d249b5ccb658280a485855260068352600261407b82872054612dca565b5001614088838254612cab565b905551908152a3565b8351821683820155928a01928501613ff0565b634e487b7160e01b8b52604160045260248bfd5b634e487b7160e01b8f5260048f905260248ffd5b634e487b7160e01b8e52604160045260248efd5b60405162461bcd60e51b815260206004820152601d60248201527f455243333532353a20746f6b656e20616c7265616479206d696e7465640000006044820152606490fd5b60405162461bcd60e51b815260206004820152602160248201527f455243333532353a2063616e6e6f74206d696e74207a65726f20746f6b656e496044820152601960fa1b6064820152608490fd5b60405162461bcd60e51b815260206004820152602160248201527f455243333532353a206d696e7420746f20746865207a65726f206164647265736044820152607360f81b6064820152608490fd5b919091600090808252602091600e83526040928382205415600014614526576141ed858433614609565b6001958660035401968760035561420385612e05565b916001600160a01b03808216929083156144d8578a1561448a576142268b6137d5565b614446578851614235816127b0565b8781528951888b8e61424684612795565b8084528a84018a81528b8386019285845260608701948c8652608088019680885260a08901998a5260066005549485948352522055600160401b8110156140cc5780896142969201600555612dca565b95909561443257906005959493929151855551888501555160028401558560038401915116906bffffffffffffffffffffffff60a01b9182825416179055856004840192511690825416179055019051918251926001600160401b03841161441e57908883928f9b9a9998979695948561430f91613624565b0191895287892090895b848110614408575050505050507f6d811e6a20ae5461a4ef22a6998c1d958defe727f1cc522b6eb792bc8e6f7266989796938693846143e5979461436f6144029a60008051602061507f83398151915296613572565b857fddf252ad1be2c89b69c2b068fc378daa952ba7f163c4a11628f55a4df523b3ef8180a483857fe4f48c240d3b994948aa54f3e2f5fca59263dfe1d52b6e4cf39a5d249b5ccb658280a4838352600681526143cd88842054612dca565b50508751838152a36143e08588836146a3565b612e05565b915192839286846040919493926060820195825260208201520152565b0390a190565b83518216818401558f9b50928901928501614319565b634e487b7160e01b8a52604160045260248afd5b634e487b7160e01b8e5260048e905260248efd5b885162461bcd60e51b815260048101879052601d60248201527f455243333532353a20746f6b656e20616c7265616479206d696e7465640000006044820152606490fd5b885162461bcd60e51b815260048101879052602160248201527f455243333532353a2063616e6e6f74206d696e74207a65726f20746f6b656e496044820152601960fa1b6064820152608490fd5b885162461bcd60e51b815260048101879052602160248201527f455243333532353a206d696e7420746f20746865207a65726f206164647265736044820152607360f81b6064820152608490fd5b600c5484516307a42e0160e11b8152600481018590526001600160a01b0397881660248201526044810187905291969192918791849160649183918691165af19586156145fd5781966145a6575b505050906144026143e57f6d811e6a20ae5461a4ef22a6998c1d958defe727f1cc522b6eb792bc8e6f72669493612e05565b909180939650813d83116145f6575b6145bf81836127cb565b81010312610337575051926144026143e57f6d811e6a20ae5461a4ef22a6998c1d958defe727f1cc522b6eb792bc8e6f7266614574565b503d6145b5565b508351903d90823e3d90fd5b6146138183613e73565b61461d83836131c4565b1580614697575b61462f575b50505050565b838110614652576146499361464391613608565b91613be4565b38808080614629565b60405162461bcd60e51b815260206004820152601f60248201527f455243333532353a20696e73756666696369656e7420616c6c6f77616e6365006044820152606490fd5b50600019811415614624565b6146ac816137d5565b156148c7576146ba826137d5565b156148745780600052602092600684526040926146da8460002054612dca565b5081600052600686526146f08560002054612dca565b5090600281019081549085821061481d57600101546001840154036147c257916002916147238661476098979695613608565b905501614731838254612cab565b9055808360008051602061507f833981519152888851868152a3845192614757846127b0565b60008452614934565b15614769575050565b60849250519062461bcd60e51b82526004820152602d60248201527f455243333532353a207472616e736665722072656a656374656420627920455260448201526c21999a991aa932b1b2b4bb32b960991b6064820152fd5b865162461bcd60e51b815260048101899052602e60248201527f455243333532353a207472616e7366657220746f20746f6b656e20776974682060448201526d191a5999995c995b9d081cdb1bdd60921b6064820152608490fd5b875162461bcd60e51b8152600481018a9052602a60248201527f455243333532353a20696e73756666696369656e742062616c616e636520666f60448201526939103a3930b739b332b960b11b6064820152608490fd5b60405162461bcd60e51b815260206004820152602560248201527f455243333532353a207472616e7366657220746f20696e76616c696420746f6b604482015264195b88125160da1b6064820152608490fd5b60405162461bcd60e51b815260206004820152602760248201527f455243333532353a207472616e736665722066726f6d20696e76616c696420746044820152661bdad95b88125160ca1b6064820152608490fd5b90816020910312610612575180151581036106125790565b9261493e826130df565b803b1515806149e4575b156149da5761499193600060209460405196879586948593629ce20b60e01b9b8c865233600487015260248601526044850152606484015260a0608484015260a48301906126a2565b03926001600160a01b03165af1908115613ba3576000916149bc575b506001600160e01b0319161490565b6149d4915060203d81116137c5576137b681836127cb565b386149ad565b5050505050600190565b506040516301ffc9a760e01b8152629ce20b60e01b60048201526020816024816001600160a01b0386165afa908115613ba357600091614a25575b50614948565b614a3d915060203d8111611ce457611cd481836127cb565b38614a1f565b909291614a4f826137d5565b80614f4f575b80614f2c575b15614ac05790614abb82614a937fdf7a601a0a201ccd4b4bfcfd610913188d931867997223d226f85f2f2673988a9596948433614609565b614a9e8185856146a3565b604051938493846040919493926060820195825260208201520152565b0390a1565b614ad782600052600e602052604060002054151590565b80614f0f575b15614cf657600093828552600e6020526040928386205491808752848720549183158015808091614ced575b15614b82575050600c546001600160a01b031693915050823b15610bb8578451630310ed7f60e41b81526004810191909152602481019190915260448101929092529293909281908490818381606481015b03925af1918215614b78575050614b6f5750565b612d2b9061276c565b51903d90823e3d90fd5b9293919280614ce5575b15614bee575050600c546001600160a01b0316929050823b15610bb8578451630310ed7f60e41b81526004810191909152602481019190915260448101929092529293909281908490606490829084905af1918215614b78575050614b6f5750565b91935091908080614cdc575b15614c4d575050600c546001600160a01b031691823b15610bb8578451630310ed7f60e41b8152600481019190915260248101919091526044810192909252929390928190849081838160648101614b5b565b909181614cd3575b50614c63575b505050509050565b600c546001600160a01b031691823b15610bb8578451630310ed7f60e41b81526004810191909152602481019190915260448101929092529293909281908490606490829084905af1918215614b78575050614cc4575b8080808493614c5b565b614ccd9061276c565b38614cba565b90501538614c55565b50821515614bfa565b508115614b8c565b50841515614b09565b614d1082949394600052600e602052604060002054151590565b80614f00575b15614efb57600c5460408051639448bddb60e01b81526004810186905290936001600160a01b039283169392916020908181602481895afa908115614ef057600091614ed3575b50836000614d69612cdf565b8481519101209260048a518094819363106057b960e21b8352165afa908115614ec857600091614eaf575b5082815191012003614e55576000828152600e90915285902054938415614e0b575050600c5416803b15610612578351630310ed7f60e41b8152600481019390935260248301949094526044820152916000908390606490829084905af1908115614e015750614b6f5750565b513d6000823e3d90fd5b91509250803b15610612578351630310ed7f60e41b8152600481019390935260248301949094526044820152916000908390606490829084905af1908115614e015750614b6f5750565b60849086519062461bcd60e51b82526004820152602e60248201527f43616e6e6f74207472616e73666572206265747765656e20646966666572656e60448201526d742063726564697420747970657360901b6064820152fd5b614ec2913d8091833e6102ea81836127cb565b38614d94565b88513d6000823e3d90fd5b614eea9150823d8411611dc757611db881836127cb565b38614d5d565b87513d6000823e3d90fd5b505050565b50614f0a83614f62565b614d16565b50614f2784600052600e602052604060002054151590565b614add565b50614f36846137d5565b8015614a5b5750614f4684612e05565b600b5414614a5b565b50614f5982612e05565b600b5414614a55565b60008181526020600e815260409081832054159384615017575b8415614f8a575b5050505090565b8352600e81528183205415159350909183614fac575b50505038808080614f83565b9091925060018060a01b039182600c54169181858220546024875180968193639448bddb60e01b835260048301525afa948515614b78575093614ff8575b505016301415388080614fa0565b61500f929350803d10611dc757611db881836127cb565b903880614fea565b600c548351639448bddb60e01b8152600481018390529195506001600160a01b039083908390602490829085165afa9182156139a457859261505f575b501630141593614f7c565b615077919250833d8511611dc757611db881836127cb565b903861505456fe0b2aac84f3ec956911fd78eae5311062972ff949f38412e8da39069d9f068cc6a26469706673582212202fe12fc7b048b08071990b710ccf128bbfafa94788a072723c7ee0890330713364736f6c634300081100336080604052346200048657620024ae803803806200001d816200048b565b9283398101608082820312620004865781516001600160401b0391908281116200048657816200004f918501620004b1565b91602092838501518281116200048657836200006d918701620004b1565b92604086015183811162000486576060916200008b918801620004b1565b9501516001600160a01b03811695908690036200048657815193838511620002c3576001948554938685811c951680156200047b575b88861014620002a2578190601f9586811162000425575b508890868311600114620003bd57600092620003b1575b5050600019600383901b1c191690861b1785555b805190848211620002c357600254908682811c92168015620003a6575b88831014620002a25781858493116200034f575b508790858311600114620002e557600092620002d9575b5050600019600383901b1c191690851b176002555b8051928311620002c35760039485548581811c91168015620002b8575b82821014620002a25783811162000257575b5080928411600114620001ed5750928293918392600094620001e1575b50501b9160001990841b1c19161790555b600080546001600160a01b031916919091179055604051611f8a9081620005248239f35b015192503880620001ac565b919083601f1981168760005284600020946000905b888383106200023c575050501062000223575b505050811b019055620001bd565b015160001983861b60f8161c1916905538808062000215565b85870151885590960195948501948793509081019062000202565b86600052816000208480870160051c82019284881062000298575b0160051c019086905b8281106200028b5750506200018f565b600081550186906200027b565b9250819262000272565b634e487b7160e01b600052602260045260246000fd5b90607f16906200017d565b634e487b7160e01b600052604160045260246000fd5b0151905038806200014b565b90879350601f198316916002600052896000209260005b8b8282106200033857505084116200031e575b505050811b0160025562000160565b015160001960f88460031b161c191690553880806200030f565b8385015186558b97909501949384019301620002fc565b9091506002600052876000208580850160051c8201928a86106200039c575b918991869594930160051c01915b8281106200038c57505062000134565b600081558594508991016200037c565b925081926200036e565b91607f169162000120565b015190503880620000ef565b90889350601f19831691846000528a6000209260005b8c8282106200040e5750508411620003f4575b505050811b01855562000103565b015160001960f88460031b161c19169055388080620003e6565b8385015186558c97909501949384019301620003d3565b90915087600052886000208680850160051c8201928b861062000471575b918a91869594930160051c01915b82811062000461575050620000d8565b600081558594508a910162000451565b9250819262000443565b94607f1694620000c1565b600080fd5b6040519190601f01601f191682016001600160401b03811183821017620002c357604052565b919080601f84011215620004865782516001600160401b038111620002c357602090620004e7601f8201601f191683016200048b565b92818452828287010111620004865760005b8181106200050f57508260009394955001015290565b8581018301518482018401528201620004f956fe608060408181526004908136101561001657600080fd5b600092833560e01c9081631375d843146114a057508063246a908b146113a257806331264fc11461119057806355f804b31461104c57806364140ec014610f4d5780636c0360eb14610e8e5780636c037f8a14610b7257806371f0442e14610ade578063725fa09c14610866578063842251d41461072e578063894b4c2e146104025780639cdeaae0146101805763b3154c08146100b357600080fd5b3461017c57602091826003193601126101785780358452825280832091815192848154906100e082611a7d565b808752926001928084169081156101545750600114610119575b610115878761010b828c03836115b6565b5191829182611558565b0390f35b9080949750528583205b82841061014157505050826101159461010b928201019438806100fa565b8054868501880152928601928101610123565b60ff19168887015250505050151560051b830101925061010b8261011538806100fa565b8380fd5b8280fd5b50913461039057826003193601126103905781359161019e836119cd565b928083526020918083528584209386519481868254916101bd83611a7d565b92838352888301946001918a83821691826000146103e25750506001146103a5575b50506101ed925003876115b6565b6101f684611de4565b9161020260243561188a565b895163131f9f3f60e11b8152948501869052938681602481335afa91821561039a578092610365575b61011561027f8c61010b606c8e8e8e61034c8f8f8f8f8f61024e6102549161188a565b94611e7e565b966102a960298d519e8f809c683d913730b6b2911d1160b91b8c8301528b8151948593019101611535565b8a0191701116113232b9b1b934b83a34b7b7111d1160791b6029840152518093603a840190611535565b016a11161134b6b0b3b2911d1160a91b603a8201526102d18251809388604585019101611535565b016c1116113130b630b731b2911d1160991b60458201526102fb8251809387605285019101611535565b016911161139b637ba111d1160b11b60528201526103228251809386605c85019101611535565b01916e111611383937b832b93a34b2b9911d60891b605c8401528351938491606b85019101611535565b01607d60f81b606b82015203604c8101855201836115b6565b9091508682813d8311610393575b61037d81836115b6565b810103126103905750518461027f61022b565b80fd5b503d610373565b8a51903d90823e3d90fd5b89925086528186209086915b8583106103c95750506101ed935082010138806101df565b81948484839695965492010152019101899289926103b1565b92509350506101ed94915060ff19168552151560051b82010138806101df565b50913461039057602091826003193601126106bd57803591610423836119cd565b83825282855285822090865190838284549161043e83611a7d565b928383528a8301966001918c838216918260001461070e5750506001146106d2575b505061046e925003836115b6565b61047786611de4565b938851631398fee160e31b815287878201528881602481335afa80156106c8578290610695575b6104a8915061188a565b895163131f9f3f60e11b8152968701889052958881602481335afa91821561039a578092610664575b5050606c888a6101159b9961010b99603d996106549d9961061b9961055861052e9a6105086105026106169c61188a565b97611e7e565b97519b8c99683d913730b6b2911d1160b91b818c0152825192839160298d019101611535565b880191701116113232b9b1b934b83a34b7b7111d1160791b6029840152518093603a840190611535565b016a11161134b6b0b3b2911d1160a91b603a820152610580825180938d604585019101611535565b016c1116113130b630b731b2911d1160991b60458201526105aa825180938c605285019101611535565b016911161139b637ba111d1160b11b60528201526105d1825180938b605c85019101611535565b016e111611383937b832b93a34b2b9911d60891b605c8201526105fd825180938a606b85019101611535565b01607d60f81b606b82015203604c8101845201826115b6565b61171d565b845195827f646174613a6170706c69636174696f6e2f6a736f6e3b6261736536342c000000889485015282519283918686019101611535565b810103601d8101855201836115b6565b9091508882813d831161068e575b61067c81836115b6565b81010312610390575051606c886104d1565b503d610672565b508881813d83116106c1575b6106ab81836115b6565b810103126106bd576104a8905161049e565b5080fd5b503d6106a1565b8a513d84823e3d90fd5b8b925088528188209088915b8583106106f657505061046e93508201013880610460565b80548389018501528794508c939092019181016106de565b925093505061046e94915060ff19168752151560051b8201013880610460565b508290346106bd5761073f36611640565b939083526020916006835283209184519167ffffffffffffffff8311610853575061076a8354611a7d565b601f8111610810575b5080601f83116001146107ae57508394829394926107a3575b50508160011b916000199060031b1c191617905580f35b01519050848061078c565b90601f198316958486528286209286905b8882106107f8575050836001959697106107df575b505050811b01905580f35b015160001960f88460031b161c191690558480806107d4565b806001859682949686015181550195019301906107bf565b838552818520601f840160051c810191838510610849575b601f0160051c01905b81811061083e5750610773565b858155600101610831565b9091508190610828565b634e487b7160e01b855260419052602484fd5b50903461017c578260031936011261017c5781516306fdde0360e01b81529083828281335afa918215610ad1578492610aad575b5082519084600254906108ac82611a7d565b808552846020988992838301956001908181169081600014610a8e5750600114610a32575b50506108df925003856115b6565b6108e7611bb6565b928787518092633e7e866960e01b825281335afa918215610a2757605a610654989761010b97603d976101159c9761093360ff61061b996109889961061699916109fa575b501661188a565b928c51978895683d913730b6b2911d1160b91b8c88015261095e8c825192839160298b019101611535565b860191701116113232b9b1b934b83a34b7b7111d1160791b6029840152518093603a840190611535565b016a11161134b6b0b3b2911d1160a91b603a8201526109b0825180938b604585019101611535565b01721116113b30b63ab2a232b1b4b6b0b639911d1160691b60458201526109e0825180938a605885019101611535565b0161227d60f01b605882015203603a8101845201826115b6565b610a1a91508c8d3d10610a20575b610a1281836115b6565b8101906116d2565b3861092c565b503d610a08565b8751903d90823e3d90fd5b600286527f405787fa12a823e0f2b7631cc41b3ba8828b3321ca811111fa75cd3aa3bb5ace9492508591905b818310610a7657508b9450508201016108df386108d1565b85548a84018501529485019489945091830191610a5e565b9150506108df94925060ff19168652151560051b8201018992386108d1565b610aca9192503d8086833e610ac281836115b6565b810190611673565b903861089a565b50505051903d90823e3d90fd5b503461017c576020918260031936011261017857358352600582528083209181519284815490610b0d82611a7d565b808752926001928084169081156101545750600114610b3757610115878761010b828c03836115b6565b9080949750528583205b828410610b5f57505050826101159461010b928201019438806100fa565b8054868501880152928601928101610b41565b50903461017c5760209283600319360112610390578054835163ec327a2160e01b815283358185018190529092916001600160a01b0316908284602481855afa938415610e84578394610e68575b50855163bc74ebb960e01b8152858101829052948386602481865afa958615610e5e578496610e42575b5086516309c3dd8760e01b80825282820184905290938585602481845afa948515610e3857918a9594939187938496610e17575b5090602491610c5e60268d518a652f696d61676560d01b81610c4a849e85019d8e815193849201611535565b83019182015203600681018b5201896115b6565b8b51958694859384528301525afa938415610a27578094610dfa575b50508551918288808201868197519283910191610c9692611535565b81018981016f17b83937b832b93a34b2b9973539b7b760811b905203601081018452603001610cc590846115b6565b8651958695683d913730b6b2911d1160b91b8a880152805190818b60298a01920191610cf092611535565b8601701116113232b9b1b934b83a34b7b7111d1160791b6029820152815191828b603a8401920191610d2192611535565b01906a11161134b6b0b3b2911d1160a91b603a83015251918260458301610d4792611535565b01906e111611383937b832b93a34b2b9911d60891b604583015251918260548301610d7192611535565b0160548101607d60f81b905203603581018252605501610d9190826115b6565b610d9a9061171d565b81517f646174613a6170706c69636174696f6e2f6a736f6e3b6261736536342c00000084820152815190938492610dd8918391603d86019101611535565b810103601d81018352603d01610dee90836115b6565b51610115819282611558565b610e0f9294503d8091833e610ac281836115b6565b913880610c7a565b602492919650610e30903d8087833e610ac281836115b6565b959091610c1e565b89513d88823e3d90fd5b610e579196503d8086833e610ac281836115b6565b9438610bea565b87513d86823e3d90fd5b610e7d9194503d8085833e610ac281836115b6565b9238610bc0565b86513d85823e3d90fd5b8382346106bd57816003193601126106bd57805190826001805491610eb283611a7d565b80865292828116908115610f255750600114610edb575b50505061010b826101159403836115b6565b9450808552600080516020611f358339815191525b828610610f0d5750505061010b8260206101159582010194610ec9565b80546020878701810191909152909501948101610ef0565b61011597508693506020925061010b94915060ff191682840152151560051b82010194610ec9565b508290346106bd57610f5e36611640565b939083526020916005835283209184519167ffffffffffffffff83116108535750610f898354611a7d565b601f8111611009575b5080601f8311600114610fc157508394829394926107a35750508160011b916000199060031b1c191617905580f35b90601f198316958486528286209286905b888210610ff1575050836001959697106107df57505050811b01905580f35b80600185968294968601518155019501930190610fd2565b838552818520601f840160051c810191838510611042575b601f0160051c01905b8181106110375750610f92565b85815560010161102a565b9091508190611021565b828434610390576020806003193601126106bd5767ffffffffffffffff83358181116101785761107f90369086016115f4565b93845191821161117d57506001916110978354611a7d565b601f811161112b575b5080601f83116001146110da57508394829394926110cf575b5050600019600383901b1c191690821b17905580f35b0151905084806110b9565b838552601f19831695600080516020611f35833981519152929186905b88821061111457505083859697106107df57505050811b01905580f35b8087859682949686015181550195019301906110f7565b838552600080516020611f35833981519152601f840160051c810191838510611173575b601f0160051c019084905b8281106111685750506110a0565b86815501849061115a565b909150819061114f565b634e487b7160e01b845260419052602483fd5b50903461017c578260031936011261017c5781516306fdde0360e01b81529083828281335afa918215610ad1578492611386575b5082519084906002546111d681611a7d565b808552846020948582019360019087828216918260001461136857505060011461130e575b50611208925003856115b6565b611210611bb6565b918387518092633e7e866960e01b825281335afa9081156113045761127d97969361010b969361125360ff605a98956112d3956101159e916112ed57501661188a565b9489519a8b97683d913730b6b2911d1160b91b878a015261052e815180928960298d019101611535565b016a11161134b6b0b3b2911d1160a91b603a8201526112a58251809386604585019101611535565b0191721116113b30b63ab2a232b1b4b6b0b639911d1160691b60458401528351938491605885019101611535565b0161227d60f01b605882015203603a8101855201836115b6565b610a1a9150873d8911610a2057610a1281836115b6565b87513d8a823e3d90fd5b60028b528691508a907f405787fa12a823e0f2b7631cc41b3ba8828b3321ca811111fa75cd3aa3bb5ace5b8583106113505750506112089350820101386111fb565b8054838b018501528994508893909201918101611339565b60ff1916875261120895151560051b85010192503891506111fb9050565b61139b9192503d8086833e610ac281836115b6565b90386111c4565b508290346106bd576113b336611640565b9390835260209181835283209184519167ffffffffffffffff831161085357506113dd8354611a7d565b601f811161145d575b5080601f831160011461141557508394829394926107a35750508160011b916000199060031b1c191617905580f35b90601f198316958486528286209286905b888210611445575050836001959697106107df57505050811b01905580f35b80600185968294968601518155019501930190611426565b838552818520601f840160051c810191838510611496575b601f0160051c01905b81811061148b57506113e6565b85815560010161147e565b9091508190611475565b92905034610178576020908160031936011261153157358452600681528184208054856114cc82611a7d565b8087529260019280841690811561015457506001146114f657610115878761010b828c03836115b6565b9080949750528583205b82841061151e57505050826101159461010b928201019438806100fa565b8054868501880152928601928101611500565b8480fd5b60005b8381106115485750506000910152565b8181015183820152602001611538565b604091602082526115788151809281602086015260208686019101611535565b601f01601f1916010190565b6060810190811067ffffffffffffffff8211176115a057604052565b634e487b7160e01b600052604160045260246000fd5b90601f8019910116810190811067ffffffffffffffff8211176115a057604052565b67ffffffffffffffff81116115a057601f01601f191660200190565b81601f8201121561163b5780359061160b826115d8565b9261161960405194856115b6565b8284526020838301011161163b57816000926020809301838601378301015290565b600080fd5b90604060031983011261163b57600435916024359067ffffffffffffffff821161163b57611670916004016115f4565b90565b60208183031261163b5780519067ffffffffffffffff821161163b570181601f8201121561163b5780516116a6816115d8565b926116b460405194856115b6565b8184526020828401011161163b576116709160208085019101611535565b9081602091031261163b575160ff8116810361163b5790565b906116f5826115d8565b61170260405191826115b6565b8281528092611713601f19916115d8565b0190602036910137565b8051156118655760405161173081611584565b604081527f4142434445464748494a4b4c4d4e4f505152535455565758595a61626364656660208201527f6768696a6b6c6d6e6f707172737475767778797a303132333435363738392b2f6040820152815160029283820180921161184f576003918290046001600160fe1b038116810361184f576117b2908594951b6116eb565b936020850193829183518401925b8381106117fe57505050505106806001146117eb576002146117e0575090565b603d90600019015390565b50603d9081600019820153600119015390565b85600491979293949701918251600190603f9082828260121c16880101518453828282600c1c16880101518385015382828260061c16880101518885015316850101518782015301959291906117c0565b634e487b7160e01b600052601160045260246000fd5b506040516020810181811067ffffffffffffffff8211176115a0576040526000815290565b806000917a184f03e93ff9f4daa797ed6e38ed64bf6a1f010000000000000000808210156119bf575b506d04ee2d6d415b85acef8100000000808310156119b0575b50662386f26fc10000808310156119a1575b506305f5e10080831015611992575b5061271080831015611983575b506064821015611973575b600a80921015611969575b6001908160216119218287016116eb565b95860101905b611933575b5050505090565b600019019083906f181899199a1a9b1b9c1cb0b131b232b360811b8282061a83530491821561196457919082611927565b61192c565b9160010191611910565b9190606460029104910191611905565b600491939204910191386118fa565b600891939204910191386118ed565b601091939204910191386118de565b602091939204910191386118cc565b6040935081049150386118b3565b6040516306fdde0360e01b815290600082600481335afa918215611a7157600092611a4b575b506022611a026116709261188a565b926040519381611a1c869351809260208087019101611535565b820161202360f01b6020820152611a3c8251809360208785019101611535565b010360028101845201826115b6565b611a02611a6860229261167094953d8091833e610ac281836115b6565b939250506119f3565b6040513d6000823e3d90fd5b90600182811c92168015611aad575b6020831014611a9757565b634e487b7160e01b600052602260045260246000fd5b91607f1691611a8c565b90600091600190815491611aca83611a7d565b92818116908115611b205750600114611ae257505050565b809192939450600052600080516020611f35833981519152906000915b848310611b0d575050500190565b8181602092548587015201920191611aff565b60ff191683525050811515909102019150565b600092918154611b4281611a7d565b92600191808316908115611b9b5750600114611b5f575b50505050565b90919293945060005260209081600020906000915b858310611b8a5750505050019038808080611b59565b805485840152918301918101611b74565b60ff1916845250505081151590910201915038808080611b59565b611bbf33611cc1565b6040519081602091611bd2838301611ab7565b68636f6e74726163742f60b81b8152611bf48251809386600985019101611535565b01602f60f81b600982015260009060035493611c0f85611a7d565b94600190818116908115611c9e5750600114611c3c575b505050611670925003601f1981018352826115b6565b9091925060036000527fc2575a0e9e593c00f959f8c92f12db2869c3395a3b0502d05e2516446f71f85b906000915b868310611c87575050505061167092600a910101388080611c26565b8054838601600a0152879550918301918101611c6b565b915050600a935061167095915060ff191683830152801515020101388080611c26565b604051906001600160a01b0316611cd782611584565b602a82526020908183016040368237835115611dce57603090538251600190811015611dce57607860218501536029905b808211611d5c575050611d19575090565b6064906040519062461bcd60e51b825280600483015260248201527f537472696e67733a20686578206c656e67746820696e73756666696369656e746044820152fd5b9091600f81166010811015611db9578551841015611db9576f181899199a1a9b1b9c1cb0b131b232b360811b901a85840185015360041c918015611da4576000190190611d08565b60246000634e487b7160e01b81526011600452fd5b60246000634e487b7160e01b81526032600452fd5b634e487b7160e01b600052603260045260246000fd5b611670601191611df330611cc1565b906000526006602052611e70604060002060056020526001611e62604060002092604051978896611e2660208901611ab7565b692f636f6e74726163742f60b01b8152611e4a825180936020600a85019101611535565b01662f746f6b656e2f60c81b600a8201520190611b33565b602f60f81b81520190611b33565b03601f1981018352826115b6565b6116706011601092611e8f33611cc1565b906000526006602052611f0560406000206040519586936e7b70726f706572746965735f75726960881b6020860152611eca602f8601611ab7565b68636f6e74726163742f60b81b8152611eed825180936020600985019101611535565b01662f746f6b656e2f60c81b60098201520190611b33565b6f17b83937b832b93a34b2b9973539b7b760811b8152607d60f81b601082015203600e198101845201826115b656feb10e2d527612073b26eecdfd717e6a320cf44b4afac2b0732d9fcbe2b7fa0cf6a2646970667358221220fa9bbfb92b0f6f72b9d999777e92a3ffd53d3bf53c621e79c11779229b4eba9764736f6c63430008110033d7b6990105719101dabeb77144f2a3385c8033acd3af97e9423a695e81ad1eb5b10e2d527612073b26eecdfd717e6a320cf44b4afac2b0732d9fcbe2b7fa0cf6",
  "linkReferences": {},
  "deployedLinkReferences": {}
}