{
  "_format": "hh-sol-artifact-1",
  "contractName": "SpendCredit",
  "sourceName": "contracts/SpendCredit.sol",
  "abi": [
    {
      "inputs": [
        {
          "internalType": "address",
          "name": "revenueAcct_",
          "type": "address"
        },
        {
          "internalType": "address",
          "name": "serviceAdmin_",
          "type": "address"
        },
        {
          "internalType": "address",
          "name": "slotRegistryContract_",
          "type": "address"
        },
        {
          "internalType": "address",
          "name": "underlyingContract_",
          "type": "address"
        },
        {
          "internalType": "address",
          "name": "mktAdmin_",
          "type": "address"
        },
        {
          "internalType": "uint256",
          "name": "defaultSlot_",
          "type": "uint256"
        },
        {
          "internalType": "string",
          "name": "name_",
          "type": "string"
        },
        {
          "internalType": "string",
          "name": "symbol_",
          "type": "string"
        },
        {
          "internalType": "string",
          "name": "baseuri_",
          "type": "string"
        },
        {
          "internalType": "string",
          "name": "contractDescription_",
          "type": "string"
        },
        {
          "internalType": "string",
          "name": "contractImage_",
          "type": "string"
        },
        {
          "internalType": "string",
          "name": "valueToken_",
          "type": "string"
        },
        {
          "internalType": "uint8",
          "name": "decimals_",
          "type": "uint8"
        }
      ],
      "stateMutability": "nonpayable",
      "type": "constructor"
    },
    {
      "anonymous": false,
      "inputs": [
        {
          "indexed": true,
          "internalType": "address",
          "name": "_owner",
          "type": "address"
        },
        {
          "indexed": true,
          "internalType": "address",
          "name": "_approved",
          "type": "address"
        },
        {
          "indexed": true,
          "internalType": "uint256",
          "name": "_tokenId",
          "type": "uint256"
        }
      ],
      "name": "Approval",
      "type": "event"
    },
    {
      "anonymous": false,
      "inputs": [
        {
          "indexed": true,
          "internalType": "address",
          "name": "_owner",
          "type": "address"
        },
        {
          "indexed": true,
          "internalType": "address",
          "name": "_operator",
          "type": "address"
        },
        {
          "indexed": false,
          "internalType": "bool",
          "name": "_approved",
          "type": "bool"
        }
      ],
      "name": "ApprovalForAll",
      "type": "event"
    },
    {
      "anonymous": false,
      "inputs": [
        {
          "indexed": true,
          "internalType": "uint256",
          "name": "_tokenId",
          "type": "uint256"
        },
        {
          "indexed": true,
          "internalType": "address",
          "name": "_operator",
          "type": "address"
        },
        {
          "indexed": false,
          "internalType": "uint256",
          "name": "_value",
          "type": "uint256"
        }
      ],
      "name": "ApprovalValue",
      "type": "event"
    },
    {
      "anonymous": false,
      "inputs": [
        {
          "indexed": false,
          "internalType": "address",
          "name": "contractAddress",
          "type": "address"
        }
      ],
      "name": "MetadataDescriptor",
      "type": "event"
    },
    {
      "anonymous": false,
      "inputs": [
        {
          "indexed": false,
          "internalType": "uint256",
          "name": "tokenId",
          "type": "uint256"
        },
        {
          "indexed": false,
          "internalType": "uint256",
          "name": "slot",
          "type": "uint256"
        },
        {
          "indexed": false,
          "internalType": "uint256",
          "name": "value",
          "type": "uint256"
        }
      ],
      "name": "MintNetworkServiceToken",
      "type": "event"
    },
    {
      "anonymous": false,
      "inputs": [
        {
          "indexed": false,
          "internalType": "uint256",
          "name": "tokenId",
          "type": "uint256"
        },
        {
          "indexed": false,
          "internalType": "uint256",
          "name": "slot",
          "type": "uint256"
        },
        {
          "indexed": false,
          "internalType": "uint256",
          "name": "value",
          "type": "uint256"
        }
      ],
      "name": "MintServiceToken",
      "type": "event"
    },
    {
      "anonymous": false,
      "inputs": [
        {
          "indexed": false,
          "internalType": "uint256",
          "name": "newTokenId",
          "type": "uint256"
        },
        {
          "indexed": false,
          "internalType": "uint256",
          "name": "slot",
          "type": "uint256"
        },
        {
          "indexed": false,
          "internalType": "uint256",
          "name": "value",
          "type": "uint256"
        }
      ],
      "name": "MintServiceTokenToAddress",
      "type": "event"
    },
    {
      "anonymous": false,
      "inputs": [
        {
          "indexed": false,
          "internalType": "uint256",
          "name": "tokenId",
          "type": "uint256"
        },
        {
          "indexed": false,
          "internalType": "uint256",
          "name": "slot",
          "type": "uint256"
        },
        {
          "indexed": false,
          "internalType": "uint256",
          "name": "value",
          "type": "uint256"
        }
      ],
      "name": "MintSpendToken",
      "type": "event"
    },
    {
      "anonymous": false,
      "inputs": [
        {
          "indexed": true,
          "internalType": "bytes32",
          "name": "role",
          "type": "bytes32"
        },
        {
          "indexed": true,
          "internalType": "bytes32",
          "name": "previousAdminRole",
          "type": "bytes32"
        },
        {
          "indexed": true,
          "internalType": "bytes32",
          "name": "newAdminRole",
          "type": "bytes32"
        }
      ],
      "name": "RoleAdminChanged",
      "type": "event"
    },
    {
      "anonymous": false,
      "inputs": [
        {
          "indexed": true,
          "internalType": "bytes32",
          "name": "role",
          "type": "bytes32"
        },
        {
          "indexed": true,
          "internalType": "address",
          "name": "account",
          "type": "address"
        },
        {
          "indexed": true,
          "internalType": "address",
          "name": "sender",
          "type": "address"
        }
      ],
      "name": "RoleGranted",
      "type": "event"
    },
    {
      "anonymous": false,
      "inputs": [
        {
          "indexed": true,
          "internalType": "bytes32",
          "name": "role",
          "type": "bytes32"
        },
        {
          "indexed": true,
          "internalType": "address",
          "name": "account",
          "type": "address"
        },
        {
          "indexed": true,
          "internalType": "address",
          "name": "sender",
          "type": "address"
        }
      ],
      "name": "RoleRevoked",
      "type": "event"
    },
    {
      "anonymous": false,
      "inputs": [
        {
          "indexed": true,
          "internalType": "address",
          "name": "metadataDescriptor",
          "type": "address"
        }
      ],
      "name": "SetMetadataDescriptor",
      "type": "event"
    },
    {
      "anonymous": false,
      "inputs": [
        {
          "indexed": true,
          "internalType": "uint256",
          "name": "_tokenId",
          "type": "uint256"
        },
        {
          "indexed": true,
          "internalType": "uint256",
          "name": "_oldSlot",
          "type": "uint256"
        },
        {
          "indexed": true,
          "internalType": "uint256",
          "name": "_newSlot",
          "type": "uint256"
        }
      ],
      "name": "SlotChanged",
      "type": "event"
    },
    {
      "anonymous": false,
      "inputs": [
        {
          "indexed": true,
          "internalType": "address",
          "name": "_from",
          "type": "address"
        },
        {
          "indexed": true,
          "internalType": "address",
          "name": "_to",
          "type": "address"
        },
        {
          "indexed": true,
          "internalType": "uint256",
          "name": "_tokenId",
          "type": "uint256"
        }
      ],
      "name": "Transfer",
      "type": "event"
    },
    {
      "anonymous": false,
      "inputs": [
        {
          "indexed": true,
          "internalType": "uint256",
          "name": "_fromTokenId",
          "type": "uint256"
        },
        {
          "indexed": true,
          "internalType": "uint256",
          "name": "_toTokenId",
          "type": "uint256"
        },
        {
          "indexed": false,
          "internalType": "uint256",
          "name": "_value",
          "type": "uint256"
        }
      ],
      "name": "TransferValue",
      "type": "event"
    },
    {
      "anonymous": false,
      "inputs": [
        {
          "indexed": false,
          "internalType": "uint256",
          "name": "fromTokenId",
          "type": "uint256"
        },
        {
          "indexed": false,
          "internalType": "uint256",
          "name": "toTokenId",
          "type": "uint256"
        },
        {
          "indexed": false,
          "internalType": "uint256",
          "name": "value",
          "type": "uint256"
        }
      ],
      "name": "ValueTransfer",
      "type": "event"
    },
    {
      "inputs": [],
      "name": "DEFAULT_ADMIN_ROLE",
      "outputs": [
        {
          "internalType": "bytes32",
          "name": "",
          "type": "bytes32"
        }
      ],
      "stateMutability": "view",
      "type": "function"
    },
    {
      "inputs": [],
      "name": "MKT_ARBITRATOR_ROLE",
      "outputs": [
        {
          "internalType": "bytes32",
          "name": "",
          "type": "bytes32"
        }
      ],
      "stateMutability": "view",
      "type": "function"
    },
    {
      "inputs": [],
      "name": "SERVICE_ADMIN_ROLE",
      "outputs": [
        {
          "internalType": "bytes32",
          "name": "",
          "type": "bytes32"
        }
      ],
      "stateMutability": "view",
      "type": "function"
    },
    {
      "inputs": [
        {
          "internalType": "string",
          "name": "uri_",
          "type": "string"
        }
      ],
      "name": "_setBaseURI",
      "outputs": [],
      "stateMutability": "nonpayable",
      "type": "function"
    },
    {
      "inputs": [
        {
          "internalType": "uint256",
          "name": "tokenId_",
          "type": "uint256"
        },
        {
          "internalType": "address",
          "name": "operator_",
          "type": "address"
        }
      ],
      "name": "allowance",
      "outputs": [
        {
          "internalType": "uint256",
          "name": "",
          "type": "uint256"
        }
      ],
      "stateMutability": "view",
      "type": "function"
    },
    {
      "inputs": [
        {
          "internalType": "address",
          "name": "to_",
          "type": "address"
        },
        {
          "internalType": "uint256",
          "name": "tokenId_",
          "type": "uint256"
        }
      ],
      "name": "approve",
      "outputs": [],
      "stateMutability": "payable",
      "type": "function"
    },
    {
      "inputs": [
        {
          "internalType": "uint256",
          "name": "tokenId_",
          "type": "uint256"
        },
        {
          "internalType": "address",
          "name": "to_",
          "type": "address"
        },
        {
          "internalType": "uint256",
          "name": "value_",
          "type": "uint256"
        }
      ],
      "name": "approve",
      "outputs": [],
      "stateMutability": "payable",
      "type": "function"
    },
    {
      "inputs": [
        {
          "internalType": "address",
          "name": "owner_",
          "type": "address"
        }
      ],
      "name": "balanceOf",
      "outputs": [
        {
          "internalType": "uint256",
          "name": "balance",
          "type": "uint256"
        }
      ],
      "stateMutability": "view",
      "type": "function"
    },
    {
      "inputs": [
        {
          "internalType": "uint256",
          "name": "tokenId_",
          "type": "uint256"
        }
      ],
      "name": "balanceOf",
      "outputs": [
        {
          "internalType": "uint256",
          "name": "",
          "type": "uint256"
        }
      ],
      "stateMutability": "view",
      "type": "function"
    },
    {
      "inputs": [],
      "name": "contractAdmin",
      "outputs": [
        {
          "internalType": "address",
          "name": "",
          "type": "address"
        }
      ],
      "stateMutability": "view",
      "type": "function"
    },
    {
      "inputs": [],
      "name": "contractURI",
      "outputs": [
        {
          "internalType": "string",
          "name": "",
          "type": "string"
        }
      ],
      "stateMutability": "view",
      "type": "function"
    },
    {
      "inputs": [],
      "name": "creditType",
      "outputs": [
        {
          "internalType": "string",
          "name": "",
          "type": "string"
        }
      ],
      "stateMutability": "view",
      "type": "function"
    },
    {
      "inputs": [
        {
          "internalType": "uint256",
          "name": "tokenId_",
          "type": "uint256"
        }
      ],
      "name": "getApproved",
      "outputs": [
        {
          "internalType": "address",
          "name": "",
          "type": "address"
        }
      ],
      "stateMutability": "view",
      "type": "function"
    },
    {
      "inputs": [
        {
          "internalType": "bytes32",
          "name": "role",
          "type": "bytes32"
        }
      ],
      "name": "getRoleAdmin",
      "outputs": [
        {
          "internalType": "bytes32",
          "name": "",
          "type": "bytes32"
        }
      ],
      "stateMutability": "view",
      "type": "function"
    },
    {
      "inputs": [
        {
          "internalType": "uint256",
          "name": "tokenId",
          "type": "uint256"
        }
      ],
      "name": "getTokenDescription",
      "outputs": [
        {
          "internalType": "string",
          "name": "",
          "type": "string"
        }
      ],
      "stateMutability": "view",
      "type": "function"
    },
    {
      "inputs": [
        {
          "internalType": "uint256",
          "name": "tokenId",
          "type": "uint256"
        }
      ],
      "name": "getTokenImage",
      "outputs": [
        {
          "internalType": "string",
          "name": "",
          "type": "string"
        }
      ],
      "stateMutability": "view",
      "type": "function"
    },
    {
      "inputs": [
        {
          "internalType": "uint256",
          "name": "tokenId",
          "type": "uint256"
        }
      ],
      "name": "getTokenUUID",
      "outputs": [
        {
          "internalType": "string",
          "name": "",
          "type": "string"
        }
      ],
      "stateMutability": "view",
      "type": "function"
    },
    {
      "inputs": [
        {
          "internalType": "bytes32",
          "name": "role",
          "type": "bytes32"
        },
        {
          "internalType": "address",
          "name": "account",
          "type": "address"
        }
      ],
      "name": "grantRole",
      "outputs": [],
      "stateMutability": "nonpayable",
      "type": "function"
    },
    {
      "inputs": [
        {
          "internalType": "bytes32",
          "name": "role",
          "type": "bytes32"
        },
        {
          "internalType": "address",
          "name": "account",
          "type": "address"
        }
      ],
      "name": "hasRole",
      "outputs": [
        {
          "internalType": "bool",
          "name": "",
          "type": "bool"
        }
      ],
      "stateMutability": "view",
      "type": "function"
    },
    {
      "inputs": [
        {
          "internalType": "address",
          "name": "owner_",
          "type": "address"
        },
        {
          "internalType": "address",
          "name": "operator_",
          "type": "address"
        }
      ],
      "name": "isApprovedForAll",
      "outputs": [
        {
          "internalType": "bool",
          "name": "",
          "type": "bool"
        }
      ],
      "stateMutability": "view",
      "type": "function"
    },
    {
      "inputs": [],
      "name": "metadataDescriptor",
      "outputs": [
        {
          "internalType": "contract IERC3525MetadataDescriptor",
          "name": "",
          "type": "address"
        }
      ],
      "stateMutability": "view",
      "type": "function"
    },
    {
      "inputs": [
        {
          "internalType": "address",
          "name": "owner_",
          "type": "address"
        },
        {
          "internalType": "uint256",
          "name": "slot_",
          "type": "uint256"
        },
        {
          "internalType": "uint256",
          "name": "value_",
          "type": "uint256"
        },
        {
          "internalType": "string",
          "name": "uuid_",
          "type": "string"
        },
        {
          "internalType": "string",
          "name": "tokenDescription_",
          "type": "string"
        },
        {
          "internalType": "string",
          "name": "tokenImage_",
          "type": "string"
        }
      ],
      "name": "mint",
      "outputs": [
        {
          "internalType": "uint256",
          "name": "",
          "type": "uint256"
        }
      ],
      "stateMutability": "nonpayable",
      "type": "function"
    },
    {
      "inputs": [
        {
          "internalType": "address",
          "name": "owner_",
          "type": "address"
        },
        {
          "internalType": "uint256",
          "name": "slot_",
          "type": "uint256"
        },
        {
          "internalType": "uint256",
          "name": "value_",
          "type": "uint256"
        },
        {
          "internalType": "uint256",
          "name": "etherizedDiscountBasisPts_",
          "type": "uint256"
        },
        {
          "internalType": "string",
          "name": "uuid_",
          "type": "string"
        },
        {
          "internalType": "string",
          "name": "tokenDescription_",
          "type": "string"
        },
        {
          "internalType": "string",
          "name": "tokenImage_",
          "type": "string"
        }
      ],
      "name": "mintWithDiscount",
      "outputs": [
        {
          "internalType": "uint256",
          "name": "",
          "type": "uint256"
        }
      ],
      "stateMutability": "nonpayable",
      "type": "function"
    },
    {
      "inputs": [],
      "name": "name",
      "outputs": [
        {
          "internalType": "string",
          "name": "",
          "type": "string"
        }
      ],
      "stateMutability": "view",
      "type": "function"
    },
    {
      "inputs": [
        {
          "internalType": "uint256",
          "name": "tokenId_",
          "type": "uint256"
        }
      ],
      "name": "networkId",
      "outputs": [
        {
          "internalType": "uint256",
          "name": "",
          "type": "uint256"
        }
      ],
      "stateMutability": "view",
      "type": "function"
    },
    {
      "inputs": [
        {
          "internalType": "address",
          "name": "owner_",
          "type": "address"
        },
        {
          "internalType": "uint256",
          "name": "slot_",
          "type": "uint256"
        },
        {
          "internalType": "uint256",
          "name": "value_",
          "type": "uint256"
        },
        {
          "internalType": "uint256",
          "name": "discountBasisPts_",
          "type": "uint256"
        },
        {
          "internalType": "string",
          "name": "uuid_",
          "type": "string"
        },
        {
          "internalType": "string",
          "name": "tokenDescription_",
          "type": "string"
        },
        {
          "internalType": "string",
          "name": "tokenImage_",
          "type": "string"
        }
      ],
      "name": "networkMintWithDiscount",
      "outputs": [
        {
          "internalType": "uint256",
          "name": "",
          "type": "uint256"
        }
      ],
      "stateMutability": "nonpayable",
      "type": "function"
    },
    {
      "inputs": [
        {
          "internalType": "address",
          "name": "owner_",
          "type": "address"
        },
        {
          "internalType": "uint256",
          "name": "slot_",
          "type": "uint256"
        },
        {
          "internalType": "uint256",
          "name": "value_",
          "type": "uint256"
        },
        {
          "internalType": "uint256",
          "name": "tVRate_",
          "type": "uint256"
        },
        {
          "internalType": "string",
          "name": "uuid_",
          "type": "string"
        },
        {
          "internalType": "string",
          "name": "token_description_",
          "type": "string"
        },
        {
          "internalType": "string",
          "name": "token_image_",
          "type": "string"
        }
      ],
      "name": "networkMintWithTVRate",
      "outputs": [
        {
          "internalType": "uint256",
          "name": "",
          "type": "uint256"
        }
      ],
      "stateMutability": "nonpayable",
      "type": "function"
    },
    {
      "inputs": [
        {
          "internalType": "uint256",
          "name": "tokenId_",
          "type": "uint256"
        }
      ],
      "name": "ownerOf",
      "outputs": [
        {
          "internalType": "address",
          "name": "owner_",
          "type": "address"
        }
      ],
      "stateMutability": "view",
      "type": "function"
    },
    {
      "inputs": [
        {
          "internalType": "uint256",
          "name": "tokenId_",
          "type": "uint256"
        },
        {
          "internalType": "uint256",
          "name": "slotId_",
          "type": "uint256"
        },
        {
          "internalType": "uint256",
          "name": "value_",
          "type": "uint256"
        }
      ],
      "name": "redeem",
      "outputs": [],
      "stateMutability": "nonpayable",
      "type": "function"
    },
    {
      "inputs": [
        {
          "internalType": "uint256",
          "name": "slotId_",
          "type": "uint256"
        }
      ],
      "name": "registerOnSlot",
      "outputs": [],
      "stateMutability": "nonpayable",
      "type": "function"
    },
    {
      "inputs": [
        {
          "internalType": "bytes32",
          "name": "role",
          "type": "bytes32"
        },
        {
          "internalType": "address",
          "name": "account",
          "type": "address"
        }
      ],
      "name": "renounceRole",
      "outputs": [],
      "stateMutability": "nonpayable",
      "type": "function"
    },
    {
      "inputs": [
        {
          "internalType": "bytes32",
          "name": "role",
          "type": "bytes32"
        },
        {
          "internalType": "address",
          "name": "account",
          "type": "address"
        }
      ],
      "name": "revokeRole",
      "outputs": [],
      "stateMutability": "nonpayable",
      "type": "function"
    },
    {
      "inputs": [
        {
          "internalType": "address",
          "name": "from_",
          "type": "address"
        },
        {
          "internalType": "address",
          "name": "to_",
          "type": "address"
        },
        {
          "internalType": "uint256",
          "name": "tokenId_",
          "type": "uint256"
        }
      ],
      "name": "safeTransferFrom",
      "outputs": [],
      "stateMutability": "payable",
      "type": "function"
    },
    {
      "inputs": [
        {
          "internalType": "address",
          "name": "from_",
          "type": "address"
        },
        {
          "internalType": "address",
          "name": "to_",
          "type": "address"
        },
        {
          "internalType": "uint256",
          "name": "tokenId_",
          "type": "uint256"
        },
        {
          "internalType": "bytes",
          "name": "data_",
          "type": "bytes"
        }
      ],
      "name": "safeTransferFrom",
      "outputs": [],
      "stateMutability": "payable",
      "type": "function"
    },
    {
      "inputs": [
        {
          "internalType": "address",
          "name": "operator_",
          "type": "address"
        },
        {
          "internalType": "bool",
          "name": "approved_",
          "type": "bool"
        }
      ],
      "name": "setApprovalForAll",
      "outputs": [],
      "stateMutability": "nonpayable",
      "type": "function"
    },
    {
      "inputs": [
        {
          "internalType": "uint256",
          "name": "tokenId_",
          "type": "uint256"
        }
      ],
      "name": "slotOf",
      "outputs": [
        {
          "internalType": "uint256",
          "name": "",
          "type": "uint256"
        }
      ],
      "stateMutability": "view",
      "type": "function"
    },
    {
      "inputs": [
        {
          "internalType": "uint256",
          "name": "slot_",
          "type": "uint256"
        }
      ],
      "name": "slotURI",
      "outputs": [
        {
          "internalType": "string",
          "name": "",
          "type": "string"
        }
      ],
      "stateMutability": "view",
      "type": "function"
    },
    {
      "inputs": [
        {
          "internalType": "bytes4",
          "name": "interfaceId",
          "type": "bytes4"
        }
      ],
      "name": "supportsInterface",
      "outputs": [
        {
          "internalType": "bool",
          "name": "",
          "type": "bool"
        }
      ],
      "stateMutability": "view",
      "type": "function"
    },
    {
      "inputs": [],
      "name": "symbol",
      "outputs": [
        {
          "internalType": "string",
          "name": "",
          "type": "string"
        }
      ],
      "stateMutability": "view",
      "type": "function"
    },
    {
      "inputs": [
        {
          "internalType": "uint256",
          "name": "index_",
          "type": "uint256"
        }
      ],
      "name": "tokenByIndex",
      "outputs": [
        {
          "internalType": "uint256",
          "name": "",
          "type": "uint256"
        }
      ],
      "stateMutability": "view",
      "type": "function"
    },
    {
      "inputs": [
        {
          "internalType": "uint256",
          "name": "tokenId_",
          "type": "uint256"
        }
      ],
      "name": "tokenDiscount",
      "outputs": [
        {
          "internalType": "uint256",
          "name": "",
          "type": "uint256"
        }
      ],
      "stateMutability": "view",
      "type": "function"
    },
    {
      "inputs": [
        {
          "internalType": "address",
          "name": "owner_",
          "type": "address"
        },
        {
          "internalType": "uint256",
          "name": "index_",
          "type": "uint256"
        }
      ],
      "name": "tokenOfOwnerByIndex",
      "outputs": [
        {
          "internalType": "uint256",
          "name": "",
          "type": "uint256"
        }
      ],
      "stateMutability": "view",
      "type": "function"
    },
    {
      "inputs": [
        {
          "internalType": "uint256",
          "name": "tokenId_",
          "type": "uint256"
        }
      ],
      "name": "tokenURI",
      "outputs": [
        {
          "internalType": "string",
          "name": "",
          "type": "string"
        }
      ],
      "stateMutability": "view",
      "type": "function"
    },
    {
      "inputs": [],
      "name": "totalBalance",
      "outputs": [
        {
          "internalType": "uint256",
          "name": "",
          "type": "uint256"
        }
      ],
      "stateMutability": "view",
      "type": "function"
    },
    {
      "inputs": [],
      "name": "totalSupply",
      "outputs": [
        {
          "internalType": "uint256",
          "name": "",
          "type": "uint256"
        }
      ],
      "stateMutability": "view",
      "type": "function"
    },
    {
      "inputs": [
        {
          "internalType": "uint256",
          "name": "fromTokenId_",
          "type": "uint256"
        },
        {
          "internalType": "address",
          "name": "to_",
          "type": "address"
        },
        {
          "internalType": "uint256",
          "name": "value_",
          "type": "uint256"
        }
      ],
      "name": "transferFrom",
      "outputs": [
        {
          "internalType": "uint256",
          "name": "",
          "type": "uint256"
        }
      ],
      "stateMutability": "payable",
      "type": "function"
    },
    {
      "inputs": [
        {
          "internalType": "address",
          "name": "from_",
          "type": "address"
        },
        {
          "internalType": "address",
          "name": "to_",
          "type": "address"
        },
        {
          "internalType": "uint256",
          "name": "tokenId_",
          "type": "uint256"
        }
      ],
      "name": "transferFrom",
      "outputs": [],
      "stateMutability": "payable",
      "type": "function"
    },
    {
      "inputs": [
        {
          "internalType": "uint256",
          "name": "fromTokenId_",
          "type": "uint256"
        },
        {
          "internalType": "uint256",
          "name": "toTokenId_",
          "type": "uint256"
        },
        {
          "internalType": "uint256",
          "name": "value_",
          "type": "uint256"
        }
      ],
      "name": "transferFrom",
      "outputs": [],
      "stateMutability": "payable",
      "type": "function"
    },
    {
      "inputs": [],
      "name": "valueDecimals",
      "outputs": [
        {
          "internalType": "uint8",
          "name": "",
          "type": "uint8"
        }
      ],
      "stateMutability": "view",
      "type": "function"
    }
  ],
  "bytecode": "0x60808060405234620009bb57600062007d5f8038038091620000228286620009f2565b84398201906101a083830312620009b8576200003e8362000a16565b906200004d6020850162000a16565b936200005c6040820162000a16565b946200006b6060830162000a16565b926200007a6080840162000a16565b60a084015160c0850151919890916001600160401b038111620009b45788620000a591870162000a50565b60e08601519098906001600160401b038111620009b05781620000ca91880162000a50565b6101008701519099906001600160401b038111620009ac5782620000f091890162000a50565b6101208801519094906001600160401b038111620009a8578362000116918a0162000a50565b6101408901519092906001600160401b038111620006be57846200013c918b0162000a50565b6101608a01519094906001600160401b038111620009a4576101809162000165918c0162000a50565b9901519b60ff8d168d03620006be57604051916200018383620009c0565b60048352630c6c2e6d60e31b60208401528051906001600160401b03821162000990578954600181811c9116801562000985575b602082101462000971579081601f8493116200091e575b50602090601f8311600114620008b0578b92620008a4575b50508160011b916000199060031b1c19161788555b8051906001600160401b0382116200089057600154600181811c9116801562000885575b602082101462000871579081601f84931162000812575b50602090601f831160011462000796578a926200078a575b50508160011b916000199060031b1c1916176001555b6002805460ff191660ff8e16179055600b829055600c54600a80546001600160a01b0319166001600160a01b038b16179055604051825191929160208083019291620002ca91908390620002bc8187858a0162000a2b565b8101038084520182620009f2565b51902060405160208101906374696d6560e01b825260048152620002ee81620009c0565b51902003620006d65750865b6004811015620006c2576001600160a81b031982166001600160a01b03871690811760a083901b60ff60a01b1617600c553b15620006be576040516394b39b0960e01b81526001600160a01b038a8116600480840191909152602483019590955290936001600160a81b03199093169087161760a091821b60ff60a01b1617901c60ff1690811015620006aa5760448201528581606481836001600160a01b0389165af180156200069f576200066e575b50604051936001600160401b036124ae8601908111908611176200065a57916200040c6200042392620003f58796956124ae62005871893960806124ae8901818152019062000aab565b906124ae8701820360206124ae8901015262000aab565b906124ae8501820360406124ae8701015262000aab565b6001600160a01b039091166124ae830160600152039082f09687156200064d57600880546001600160a01b0319166001600160a01b03998a161790557f1cd6d520d98babae1045eb69c31ecab800996aa332094cb55c0ac10362e9b0c980835260096020908152604080852093909a16600081815293909152989091205460ff98908916156200060e575b50507f9a95e87c5af084bf5db8491c3a6515da9dd6da39b24b0eb0af08d7b9cd808d9180825260096020526040822060018060a01b038416600052602052876040600020541615620005be575b5050507f9ac4f8025631594629895b778dc5ee88d01673a254a2291f6b6b174ad25230ca602060018060a01b0360085416604051908152a160208151910120600460206040516200054c81620009c0565b82815201635553444360e01b8152201462000597575b50601080546001600160a01b0319166001600160a01b039290921691909117905516600f55604051614d9e908162000ad38239f35b600e80546001600160a01b0319166001600160a01b03929092169190911790553862000562565b80825260096020526040822060018060a01b03841660005260205260406000206001891982541617905560008051602062007d1f833981519152339360018060a01b03169280a4388080620004fb565b81835260096020526040832081600052602052604060002060018a19825416179055339160008051602062007d1f8339815191528480a43880620004ae565b50604051903d90823e3d90fd5b634e487b7160e01b86526041600452602486fd5b9094906001600160401b0381116200068b576040529338620003ab565b634e487b7160e01b82526041600452602482fd5b6040513d88823e3d90fd5b634e487b7160e01b87526021600452602487fd5b8780fd5b634e487b7160e01b88526021600452602488fd5b6040516020810190620006f66020828551620002bc8187858a0162000a2b565b5190206040516020810190630c6c2e6d60e31b8252600481526200071a81620009c0565b519020036200072c57506001620002fa565b6040516200074c60208281620002bc818301968781519384920162000a2b565b5190206040516020810190646974656d7360d81b8252600581526200077181620009c0565b5190200362000782576002620002fa565b6003620002fa565b0151905038806200024e565b60018b528a935060008051602062007d3f83398151915291905b601f1984168510620007f6576001945083601f19811610620007dc575b505050811b0160015562000264565b015160001960f88460031b161c19169055388080620007cd565b81810151835560209485019460019093019290910190620007b0565b60018b5290915060008051602062007d3f833981519152601f840160051c81016020851062000869575b90849392915b601f830160051c820181106200085a57505062000236565b8c815585945060010162000842565b50806200083c565b634e487b7160e01b8a52602260045260248afd5b90607f16906200021f565b634e487b7160e01b89526041600452602489fd5b015190503880620001e6565b92508a805260208b20908b935b601f198416851062000902576001945083601f19811610620008e8575b505050811b018855620001fb565b015160001960f88460031b161c19169055388080620008da565b81810151835560209485019460019093019290910190620008bd565b9091508a805260208b20601f840160051c81016020851062000969575b90849392915b8d601f840160051c830182106200095b57505050620001ce565b815585945060010162000941565b50806200093b565b634e487b7160e01b8b52602260045260248bfd5b90607f1690620001b7565b634e487b7160e01b8a52604160045260248afd5b8880fd5b8680fd5b8580fd5b8480fd5b8380fd5b80fd5b600080fd5b604081019081106001600160401b03821117620009dc57604052565b634e487b7160e01b600052604160045260246000fd5b601f909101601f19168101906001600160401b03821190821017620009dc57604052565b51906001600160a01b0382168203620009bb57565b60005b83811062000a3f5750506000910152565b818101518382015260200162000a2e565b81601f82011215620009bb5780516001600160401b038111620009dc576040519262000a87601f8301601f191660200185620009f2565b81845260208284010111620009bb5762000aa8916020808501910162000a2b565b90565b9060209162000ac68151809281855285808601910162000a2b565b601f01601f191601019056fe608060408181526004918236101561001657600080fd5b600092833560e01c91826301ffc9a71461284c5750816306fdde0314612781578163081812fc14612761578163095ea7b31461262d57816309c3dd87146123485781630f485c02146123335781631375d843146122ce57816318160ddd146122af57816323b872dd1461228a578163248a9ca31461225f578163263f3e7e1461223f5781632f2ff15d146121925781632f745c59146120e9578163310ed7f014611be257816331b5b90714611b5957816336568abe14611ac757816339ace21f14611aa75781633e7e866914611a8557816341815ee41461199657816342842e0e14611973578163476de4a8146113ea5781634c1de213146113b95781634f6ccce7146113335781636352211e1461130257816370a08231146112dc57816371f0442e14611277578163779552451461124e5781638005f5db1461122c578163840f7113146112035781638cb0a511146110ba57816391d148541461107457816395d89b4114610f5e5781639cc7f70814610f3e578163a217fddf14610f23578163a22cb46514610e52578163a7c9f2d614610e17578163a83a58e714610b0b578163ad7a672f14610aec578163b3154c0814610a87578163b819220514610841578163b88d4fde146107e657838263bd8c6507146105c257508163be950a6214610473578163c87b56dd146103d5578163d09445c21461039a578163d547741f1461035b578163e345e0bc14610329578163e8a3d48514610297575063e985e9c51461024257600080fd5b3461029357806003193601126102935760209161025d6128e7565b6002836102686128fd565b9360018060a01b0380941681526007875220019116600052825260ff81600020541690519015158152f35b5080fd5b9190503461032557826003193601126103255760085481516331264fc160e01b815292849184919082906001600160a01b03165afa91821561031b57836102f294936102f6575b5050519182916020835260208301906128c2565b0390f35b6103139293503d8091833e61030b8183612a06565b810190612f7c565b9038806102de565b81513d85823e3d90fd5b8280fd5b8284346103585781600319360112610358575061035160209261034a6128fd565b9035613e91565b9051908152f35b80fd5b91905034610325578060031936011261032557610397913561039260016103806128fd565b93838752600960205286200154612b12565b612e47565b80f35b505034610293578160031936011261029357602090517f9a95e87c5af084bf5db8491c3a6515da9dd6da39b24b0eb0af08d7b9cd808d918152f35b91905034610325576020366003190112610325578282356103f581613a3e565b801561045f575b610405906131b1565b6008546001600160a01b03169360449061041e83613b49565b95855196879485936304e6f55760e51b855284015260248301525afa91821561031b57836102f294936102f6575050519182916020835260208301906128c2565b5061040561046c82613a84565b90506103fc565b838334610293576020366003190112610293577f9a95e87c5af084bf5db8491c3a6515da9dd6da39b24b0eb0af08d7b9cd808d91825260096020528082203360005260205260ff8160002054161561055a57600c54600a546001600160a01b0390811692919081169060a01c60ff16813b15610556578251936394b39b0960e01b855286850152853560248501528581101561054357849550606484868094829460448401525af190811561053a575061052a5750f35b6105339061298c565b6103585780f35b513d84823e3d90fd5b634e487b7160e01b855260218652602485fd5b8480fd5b5162461bcd60e51b8152602081840152603760248201527f53656e646572206e6f7420617574686f72697a656420746f207265676973746560448201527f7220636f6e747261637420746f207468697320736c6f740000000000000000006064820152608490fd5b929150346107e2576105d336612a97565b600254600c54979a9791966001600160a01b03969395928716939290916105fc9060ff16613a30565b61060591612fda565b8a51632d2a246560e01b81526001600160a01b03909c168a8d01908152602081019290925260408201929092526060810191909152899081906080010381885a94602095f19788156107995785986107a7575b508260085416803b156107a3578786918a838a610693855197889687958694632108947560e21b8652850152602484015260448301906128c2565b03925af1801561079957908591610781575b50508160085416803b15610556576106e191859189838a5180968195829463246a908b60e01b84528d8401528d602484015260448301906128c2565b03925af1801561077757908491610763575b505060085416803b1561032557858361072c95875196879586948593630190503b60e61b855284015289602484015260448301906128c2565b03925af1801561075957610745575b6020838351908152f35b61074f849161298c565b610325578261073b565b82513d86823e3d90fd5b61076c9061298c565b6103255782386106f3565b86513d86823e3d90fd5b61078a9061298c565b6107955783386106a5565b8380fd5b87513d87823e3d90fd5b8580fd5b945096506020843d82116107da575b816107c360209383612a06565b810103126107d5578793519638610658565b600080fd5b3d91506107b6565b5050fd5b83906080366003190112610293576107fc6128e7565b6108046128fd565b906064356001600160401b0381116105565736602382011215610556576103979381602461083793369301359101612a42565b91604435916130da565b839150346102935761085236612972565b91929061085e846131fd565b6001600160a01b0390811633148015610a47575b156109f857848652601260205261089787872054610891600f54613a30565b90612fda565b6127109081038181116109e557856108ae91612ebd565b049181600e54169160105416823b156109e1578851632b83cccd60e01b81526001600160a01b03909116858201908152602081019290925260408201939093528691839182908490829060600103925af180156109d7579085916109c3575b505061091b82601154613692565b60115561092783613b06565b8284526006602052600261093d86862054612f1a565b500190815490838210610974575091849560209261096a83600080516020614d4983398151915296613692565b905551908152a380f35b608490602088519162461bcd60e51b8352820152602360248201527f455243333532353a206275726e2076616c756520657863656564732062616c616044820152626e636560e81b6064820152fd5b6109cc9061298c565b61079557838661090d565b86513d87823e3d90fd5b8780fd5b634e487b7160e01b885260118552602488fd5b865162461bcd60e51b8152602081850152602360248201527f53656e646572206973206e6f7420617574686f72697a656420746f207265646560448201526232b69760e91b6064820152608490fd5b507f1cd6d520d98babae1045eb69c31ecab800996aa332094cb55c0ac10362e9b0c9865260096020528686203360005260205260ff876000205416610872565b91905034610325576020366003190112610325576008548151631662a98160e31b81528335938101939093528390839060249082906001600160a01b03165afa91821561031b57836102f294936102f6575050519182916020835260208301906128c2565b5050346102935781600319360112610293576020906011549051908152f35b905082346103585750610b1d36612a97565b9097959694939291600098600b548614600014610da457610b4a8587600160035401809c81600355613f4a565b6008546001600160a01b0392908316803b156107d557896000918c838c610b8f855197889687958694632108947560e21b8652850152602484015260448301906128c2565b03925af18015610d9957610d81575b50908992918160085416803b15610556578985918c838c610bdd85519788968795869463246a908b60e01b8652850152602484015260448301906128c2565b03925af18015610d7757908491610d63575b505060085416803b15610325578783918a838a610c2a855197889687958694630190503b60e61b8652850152602484015260448301906128c2565b03925af18015610d5957610d41575b5050845186815260208101849052604081018390527f84eeb48eca46cea54afc9753345f6038981672ea565f32885420829dfd88aea690606090a1845186815260208101849052604081018390527f1271433ec932e965d31c8d57a40df8281c09b048d4e75e4cb5a9669ac173acf290606090a15b610cba82601154612ee6565b601155858752601260205284872055610cdb84872054610891600f54613a30565b906127109182038281116109e55787939291610cf691612ebd565b049060018060a01b03600e541690813b15610795578551630ab714fb60e11b81523095810195865260208601919091526040850192909252909283919082908490829060600161072c565b610d4a9061298c565b610d55578688610c39565b8680fd5b87513d84823e3d90fd5b610d6c9061298c565b61032557828b610bef565b89513d86823e3d90fd5b610d8e9193929a5061298c565b60009890918a610b9e565b89513d6000823e3d90fd5b90838587610db2969b61385f565b947f36fba2e6d0870905dade4201d8b7ff8b54c52b9e7de8df1400244d22e0d2384683600160035401978860035588600052600d602052808860002055610e0f858951938493846040919493926060820195825260208201520152565b0390a1610cae565b505034610293578160031936011261029357602090517f1cd6d520d98babae1045eb69c31ecab800996aa332094cb55c0ac10362e9b0c98152f35b91905034610325578060031936011261032557610e6d6128e7565b9060243591821515809303610556576001600160a01b031692338414610ee157503384526007602052600281852001836000526020528060002060ff1981541660ff8416179055519081527f17307eab39ab6107e8899845ad3d59bd9653f200f220920489ca2b5937696c3160203392a380f35b6020606492519162461bcd60e51b8352820152601a60248201527f455243333532353a20617070726f766520746f2063616c6c65720000000000006044820152fd5b50503461029357816003193601126102935751908152602090f35b828434610358576020366003190112610358575061035160209235613b49565b8284346103585780600319360112610358578151918160019283549384811c9181861695861561106a575b6020968785108114611057578899509688969785829a529182600014611030575050600114610fd5575b5050506102f29291610fc6910385612a06565b519282849384528301906128c2565b91908693508083527fb10e2d527612073b26eecdfd717e6a320cf44b4afac2b0732d9fcbe2b7fa0cf65b8284106110185750505082010181610fc66102f2610fb3565b8054848a018601528895508794909301928101610fff565b60ff19168782015293151560051b86019093019350849250610fc691506102f29050610fb3565b634e487b7160e01b835260228a52602483fd5b92607f1692610f89565b905034610325578160031936011261032557816020936110926128fd565b9235815260098552209060018060a01b0316600052825260ff81600020541690519015158152f35b8391506110c636612913565b926110d2839293613b06565b6110db82613a3e565b806111f0575b1561117e576111066001600160a01b03806110fb856131fd565b16908516141561315a565b6111108233613280565b156111215750610397939450613cbf565b608490602087519162461bcd60e51b8352820152603160248201527f455243333532353a20617070726f76652063616c6c6572206973206e6f74206f6044820152701ddb995c881b9bdc88185c1c1c9bdd9959607a1b6064820152fd5b909184959260018060a01b03600c5416908652600d60205283862054813b15610d55578451638cb0a51160e01b81529384019081526001600160a01b03909216602083015260408201949094529092849184919082908490829060600103925af190811561053a575061052a57505080f35b506111fa82612f55565b600b54146110e1565b50503461029357816003193601126102935760085490516001600160a01b039091168152602090f35b5050346102935760209061035161124236612a97565b9594909493919361385f565b505034610293578160031936011261029357600a5490516001600160a01b039091168152602090f35b919050346103255760203660031901126103255760085481516338f8221760e11b81528335938101939093528390839060249082906001600160a01b03165afa91821561031b57836102f294936102f6575050519182916020835260208301906128c2565b505034610293576020366003190112610293576020906103516112fd6128e7565b612ffa565b828434610358576020366003190112610358575061132260209235613c26565b90516001600160a01b039091168152f35b90508234610358576020366003190112610358575080359060055482101561136a5760208361136184612f1a565b50549051908152f35b608490602084519162461bcd60e51b8352820152602360248201527f455243333532353a20676c6f62616c20696e646578206f7574206f6620626f756044820152626e647360e81b6064820152fd5b905034610325576020366003190112610325576020928291356113db81613b06565b8152600d845220549051908152f35b8383346102935760c0366003190112610293576114056128e7565b926001600160401b0390606435828111610556576114269036908301612a79565b916084358181116107a35761143e9036908401612a79565b9460a43591821161035857506114579036908301612a79565b906000958692600b54946024988935968714600014611752575061148e9760016003540198899485600355886044359b8c92613f4a565b6008546001600160a01b0392908316803b156107d5578b60009187838a6114d38f97885198899788968795632108947560e21b875286015284015260448301906128c2565b03925af18015610d995761173e575b50816008541690813b15610d55578a899286898961151e829688519889978896879563246a908b60e01b875286015284015260448301906128c2565b03925af1801561173457908691611720575b505060085416803b156105565761156b91859188838c825196879586948593630190503b60e61b85528b8d86015284015260448301906128c2565b03925af180156107775785918591611709575b5050855182815260208101829052604081018890527f1271433ec932e965d31c8d57a40df8281c09b048d4e75e4cb5a9669ac173acf292907f84eeb48eca46cea54afc9753345f6038981672ea565f32885420829dfd88aea690606090a1865181815260208101929092526040820197909752606090a15b6044359561160687601154612ee6565b6011558583526012602052828581205561162885842054610891600f54613a30565b90612710918203908282116116f857508761164291612ebd565b049060018060a01b03600e541690813b15610795578551630ab714fb60e11b8152309181019182526020820186905260408201939093528391839182908490829060600103925af180156116ee576116da575b505081518381526020808201929092526040810194909452927f1271433ec932e965d31c8d57a40df8281c09b048d4e75e4cb5a9669ac173acf290606090a151908152f35b6116e4829161298c565b6103585780611695565b84513d84823e3d90fd5b634e487b7160e01b85526011845284fd5b61171491925061298c565b6103255783838961157e565b6117299061298c565b61055657848a611530565b88513d88823e3d90fd5b61174991965061298c565b6000948a6114e2565b919092600c549883895195630151086360e31b8752600160a01b6001900380941688880152898d8801528187856044359e8f604484015283606484015216815a93608492602095f1968715611936578297611940575b50836008541690813b15610325578d8c9289858c6117e48296885198899788968795632108947560e21b875286015284015260448301906128c2565b03925af1801561193657611922575b5050816008541690813b15610556578b8a9287878a611830829688519889978896879563246a908b60e01b875286015284015260448301906128c2565b03925af18015610d775790849161190e575b50506008541690813b156103255789889285858861187e8296885198899788968795630190503b60e61b875286015284015260448301906128c2565b03925af18015610d5957908692916118f6575b50507f36fba2e6d0870905dade4201d8b7ff8b54c52b9e7de8df1400244d22e0d23846916118ee600160035401988960035589600052600d6020528289600020558851938493846040919493926060820195825260208201520152565b0390a16115f6565b8192506119029061298c565b61035857808591611891565b6119179061298c565b61032557828b611842565b61192e9192955061298c565b928b806117f3565b8b513d84823e3d90fd5b9096506020813d821161196b575b8161195b60209383612a06565b810103126102935751958d6117a8565b3d915061194e565b83610397846119813661293d565b9192519261198e846129eb565b8584526130da565b90503461032557826003193601126103255760ff600c5460a01c169281841015611a73576102f293600381036119fd5750505080516119d4816129d0565b60088152677072696f7269747960c01b6020820152905b519182916020835260208301906128c2565b80611a26575050815190611a10826129d0565b81526374696d6560e01b60208201525b906119eb565b600214159050611a5357508051611a3c816129d0565b60058152646974656d7360d81b6020820152611a20565b815190611a5f826129d0565b8152630c6c2e6d60e31b6020820152611a20565b6021602492634e487b7160e01b835252fd5b50503461029357816003193601126102935760209060ff600254169051908152f35b828434610358576020366003190112610358575061035160209235614250565b83915034610293578260031936011261029357611ae26128fd565b90336001600160a01b03831603611afe57906103979135612e47565b608490602085519162461bcd60e51b8352820152602f60248201527f416363657373436f6e74726f6c3a2063616e206f6e6c792072656e6f756e636560448201526e103937b632b9903337b91039b2b63360891b6064820152fd5b91905034610325576020366003190112610325578282356001600160401b03811161029357611b8b9036908501612a79565b6008546001600160a01b0316803b1561032557602083611bc5968651978895869485936355f804b360e01b855284015260248301906128c2565b03925af190811561053a5750611bd9575080f35b6103979061298c565b8383611bed36612972565b92611bf9839293613a3e565b806120d6575b806120b3575b15611d1857611c1383613b49565b8286526012602052818620548487528287205414611d0a57600f5490611c3882613a30565b916127108381029381850403611ce457611c5182613a30565b8082029082820403611cf757611c7f89611c7a611c8593898e8c81526012602052205490613692565b612ebd565b92613a30565b80820291820403611ce45788995091610891611cc6611ccd93611cc084611c7a611cd399986103979f808f8e92526012602052205490613692565b90612ee6565b9189612ee6565b90613692565b908387526012602052862055614b89565b634e487b7160e01b895260118a52602489fd5b634e487b7160e01b8a5260118b5260248afd5b509394506103979350614b89565b9394611d2682939492613a3e565b806120a0575b1580612077575b1561201957828652602090600d825285872054908115611fca57611d5984601154613692565b601155600c548751639448bddb60e01b81528083018890526024936001600160a01b039392909190841686828781845afa918215611f31578c92611f9b575b50888c52600d87528a8c20548790878115611f3b578d51809481936339ace21f60e01b8352898301525afa8015611f31578c90611efe575b611de191505b610891600f54613a30565b612710908103818111611eec57888b879493611e0083611e0795612ebd565b0495614b89565b1692308414611ec557918a604492879594600e5416908c51978896879563a9059cbb60e01b87528601528401525af18015611ebb57917fdf7a601a0a201ccd4b4bfcfd610913188d931867997223d226f85f2f2673988a9691611e879493611e8d575b505051938493846040919493926060820195825260208201520152565b0390a180f35b81611eac92903d10611eb4575b611ea48183612a06565b810190613a6c565b508780611e6a565b503d611e9a565b86513d89823e3d90fd5b895162461bcd60e51b815280840187905260028187015261594f60f01b6044820152606490fd5b634e487b7160e01b8d5260118552868dfd5b508681813d8311611f2a575b611f148183612a06565b81010312611f2657611de19051611dd0565b8b80fd5b503d611f0a565b8b513d8e823e3d90fd5b8d516339ace21f60e01b81528781018d90529384925082905afa8015611f31578c90611f6c575b611de19150611dd6565b508681813d8311611f94575b611f828183612a06565b81010312611f2657611de19051611f62565b503d611f78565b611fbc919250873d8911611fc3575b611fb48183612a06565b810190613c07565b908c611d98565b503d611faa565b865162461bcd60e51b8152908101839052602360248201527f5370656e64546f6b656e3a20696e76616c69642073656e64657220746f6b656e60448201526208125160ea1b6064820152608490fd5b608490602086519162461bcd60e51b8352820152603260248201527f5370656e644372656469743a207472616e7366657220746f20746f6b656e20776044820152711a5d1a08191a5999995c995b9d081cdb1bdd60721b6064820152fd5b5061208184613a3e565b8061208d575b15611d33565b5061209784612f55565b600b5414612087565b506120aa83612f55565b600b5414611d2c565b506120bd83613a3e565b8015611c0557506120cd83612f55565b600b5414611c05565b506120e082612f55565b600b5414611bff565b905082346103585782600319360112610358576121046128e7565b6024359261211182612ffa565b841015612144576020856121368682878760018060a01b031681526007865220613268565b91905490519160031b1c8152f35b608490602086519162461bcd60e51b8352820152602260248201527f455243333532353a206f776e657220696e646578206f7574206f6620626f756e604482015261647360f01b6064820152fd5b90503461032557816003193601126103255735906121ae6128fd565b9082845260096020526121c660018286200154612b12565b828452600960209081528185206001600160a01b039093168086529290528084205460ff16156121f4578380f35b82845260096020528084208285526020528320600160ff1982541617905533917f2f8788117e7eff1d82e926ec794901d17c78024a50270940304540a733656f0d8480a43880808380f35b828434610358576020366003190112610358575061035160209235612f55565b9050346103255760203660031901126103255781602093600192358152600985522001549051908152f35b836103976122973661293d565b916122aa6122a58433613280565b613073565b6132f1565b5050346102935781600319360112610293576020906005549051908152f35b91905034610325576020366003190112610325576008548151631375d84360e01b81528335938101939093528390839060249082906001600160a01b03165afa91821561031b57836102f294936102f6575050519182916020835260208301906128c2565b60208361035161234236612913565b916142df565b9050346103255760209081600319360112610795576008548351636c0360eb60e01b81526001600160a01b039091169180359186818381875afa908115611ebb578791612613575b5083156124015750906024869286519485938492633601bfc560e11b84528301525afa9081156123f457846102f2939495926123d9575b505092519282849384528301906128c2565b6123ed92503d8091833e61030b8183612a06565b38806123c7565b50505051903d90823e3d90fd5b80935095919394955115156000146125d25783849183957a184f03e93ff9f4daa797ed6e38ed64bf6a1f01000000000000000090818110156125c5575b5050866d04ee2d6d415b85acef8100000000808510156125b7575b5050662386f26fc10000808410156125a8575b506305f5e10080841015612599575b506127108084101561258b575b5050606482101561257b575b600a80921015612571575b600190816021818801976124ca6124b58a612a27565b996124c28d519b8c612a06565b808b52612a27565b898b019790601f190136893750880101905b61253b575b50505050602561252692612535926102f2958851958361250a88955180928c808901910161289f565b84019164736c6f742f60d81b8a8401525180938684019061289f565b01036005810184520182612a06565b92610fc6565b600019019083906f181899199a1a9b1b9c1cb0b131b232b360811b8282061a83530491821561256c579190826124dc565b6124e1565b936001019361249f565b9390606460029104910193612494565b950194909104903880612488565b6008919693049201943861247b565b6010919693049201943861246c565b960195909204918638612459565b899750049250388061243e565b9493925090508251908282018281106001600160401b0382111761260057846102f294959650528152612535565b634e487b7160e01b825260418652602482fd5b61262791503d8089833e61030b8183612a06565b38612390565b91809150600319360112610325576126436128e7565b6024359290916001600160a01b039190828061265e876131fd565b1694169361266e8186141561315a565b80331490811561273f575b50156126d657612693908587526006602052862054612f1a565b500180546001600160a01b031916831790556126ae836131fd565b167f8c5be1e5ebec7d5bd14f71427d1e84f3dd0314c0f7b2291e5b200ac8c7c3b9258480a480f35b906020608492519162461bcd60e51b8352820152603960248201527f455243333532353a20617070726f76652063616c6c6572206973206e6f74206f60448201527f776e6572206e6f7220617070726f76656420666f7220616c6c000000000000006064820152fd5b90508652600760205260028187200133875260205260ff818720541638612679565b828434610358576020366003190112610358575061132260209235613238565b82843461035857806003193601126103585781519181825492600184811c91818616958615612842575b6020968785108114611057578899509688969785829a5291826000146110305750506001146127e7575050506102f29291610fc6910385612a06565b91908693508280527f290decd9548b62a8d60345a988386fc84ba6bc95484008f6362f93160ef3e5635b82841061282a5750505082010181610fc66102f2610fb3565b8054848a018601528895508794909301928101612811565b92607f16926127ab565b849134610325576020366003190112610325573563ffffffff60e01b81168091036103255760209250637965db0b60e01b811490811561288e575b5015158152f35b6301ffc9a760e01b14905083612887565b60005b8381106128b25750506000910152565b81810151838201526020016128a2565b906020916128db8151809281855285808601910161289f565b601f01601f1916010190565b600435906001600160a01b03821682036107d557565b602435906001600160a01b03821682036107d557565b60609060031901126107d557600435906024356001600160a01b03811681036107d5579060443590565b60609060031901126107d5576001600160a01b039060043582811681036107d5579160243590811681036107d5579060443590565b60609060031901126107d557600435906024359060443590565b6001600160401b03811161299f57604052565b634e487b7160e01b600052604160045260246000fd5b60c081019081106001600160401b0382111761299f57604052565b604081019081106001600160401b0382111761299f57604052565b602081019081106001600160401b0382111761299f57604052565b90601f801991011681019081106001600160401b0382111761299f57604052565b6001600160401b03811161299f57601f01601f191660200190565b929192612a4e82612a27565b91612a5c6040519384612a06565b8294818452818301116107d5578281602093846000960137010152565b9080601f830112156107d557816020612a9493359101612a42565b90565b60e06003198201126107d5576004356001600160a01b03811681036107d557916024359160443591606435916001600160401b03916084358381116107d55782612ae391600401612a79565b9260a4358181116107d55783612afb91600401612a79565b9260c4359182116107d557612a9491600401612a79565b60009080825260209060098252604092838120338252835260ff848220541615612b3c5750505050565b8351916001600160401b0390336060850183811186821017612e33578752602a85528585019187368437855115612e1f5760308353855191600192831015612e0b576078602188015360295b838111612da15750612d5f5790875193608085019085821090821117612d4b57885260428452868401946060368737845115612d3757603086538451821015612d375790607860218601536041915b818311612cc957505050612c8757612c83938693612c6793612c58604894612c2f9a519a8b957f416363657373436f6e74726f6c3a206163636f756e74200000000000000000008c880152518092603788019061289f565b8401917001034b99036b4b9b9b4b733903937b6329607d1b60378401525180938684019061289f565b01036028810187520185612a06565b5192839262461bcd60e51b8452600484015260248301906128c2565b0390fd5b60648587519062461bcd60e51b825280600483015260248201527f537472696e67733a20686578206c656e67746820696e73756666696369656e746044820152fd5b909192600f81166010811015612d23576f181899199a1a9b1b9c1cb0b131b232b360811b901a612cf98588612ef3565b5360041c928015612d0f57600019019190612bd7565b634e487b7160e01b82526011600452602482fd5b634e487b7160e01b83526032600452602483fd5b634e487b7160e01b81526032600452602490fd5b634e487b7160e01b86526041600452602486fd5b60648789519062461bcd60e51b825280600483015260248201527f537472696e67733a20686578206c656e67746820696e73756666696369656e746044820152fd5b90600f81166010811015612df7576f181899199a1a9b1b9c1cb0b131b232b360811b901a612dcf838a612ef3565b5360041c908015612de35760001901612b88565b634e487b7160e01b87526011600452602487fd5b634e487b7160e01b88526032600452602488fd5b634e487b7160e01b86526032600452602486fd5b634e487b7160e01b85526032600452602485fd5b634e487b7160e01b85526041600452602485fd5b906000918083526009602052604083209160018060a01b03169182845260205260ff604084205416612e7857505050565b8083526009602052604083208284526020526040832060ff1981541690557ff6391f5c32d9c69d2a47ea670b442974b53935d1edc7fd64eb21e047a839171b339380a4565b81810292918115918404141715612ed057565b634e487b7160e01b600052601160045260246000fd5b91908201809211612ed057565b908151811015612f04570160200190565b634e487b7160e01b600052603260045260246000fd5b600554811015612f04576006906005600052027f036b6384b5eca791c62761152d0c79bb0604c104a5fb6f4eb0703f3154bb3db00190600090565b612f5e81613b06565b60005260066020526001612f76604060002054612f1a565b50015490565b6020818303126107d5578051906001600160401b0382116107d5570181601f820112156107d5578051612fae81612a27565b92612fbc6040519485612a06565b818452602082840101116107d557612a94916020808501910161289f565b8115612fe4570490565b634e487b7160e01b600052601260045260246000fd5b6001600160a01b0316801561301a57600052600760205260406000205490565b60405162461bcd60e51b815260206004820152602b60248201527f455243333532353a2062616c616e636520717565727920666f7220746865207a60448201526a65726f206164647265737360a81b6064820152608490fd5b1561307a57565b60405162461bcd60e51b815260206004820152603260248201527f455243333532353a207472616e736665722063616c6c6572206973206e6f74206044820152711bdddb995c881b9bdc88185c1c1c9bdd995960721b6064820152608490fd5b906130fe9392916130ee6122a58433613280565b6130f98383836132f1565b613711565b1561310557565b60405162461bcd60e51b815260206004820152602760248201527f455243333532353a207472616e7366657220746f206e6f6e204552433732315260448201526632b1b2b4bb32b960c91b6064820152608490fd5b1561316157565b60405162461bcd60e51b815260206004820152602260248201527f455243333532353a20617070726f76616c20746f2063757272656e74206f776e60448201526132b960f11b6064820152608490fd5b156131b857565b60405162461bcd60e51b815260206004820152601960248201527f455243333532353a20696e76616c696420746f6b656e204944000000000000006044820152606490fd5b61320681613b06565b600052600660205261321c604060002054612f1a565b50600301546001600160a01b0316906132368215156131b1565b565b61324181613b06565b6000526006602052613257604060002054612f1a565b50600401546001600160a01b031690565b8054821015612f045760005260206000200190600090565b906001600160a01b038080613294846131fd565b169316918383149384156132c7575b5083156132b1575b50505090565b6132bd91929350613238565b16143880806132ab565b909350600052600760205260026040600020018260005260205260ff6040600020541692386132a3565b6132fa836131fd565b6001600160a01b039182169190811682900361358a578083169283156135375761332385612f55565b5061332d856135db565b506000918583526020906006825260409061334a82862054612f1a565b50600490810180546001600160a01b0319908116909155909189878261336f836131fd565b167f8c5be1e5ebec7d5bd14f71427d1e84f3dd0314c0f7b2291e5b200ac8c7c3b9258280a48987526006855260056133a985892054612f1a565b500180549091858988818f5b8684106135005750505050505050805490878155816134e3575b50508886526006845260036133e684882054612f1a565b50019081541690558585526007835281852091825493600019948581019081116134d0579061341788939286613268565b90549060031b1c9060018601908c855281815283852054926134588161343d868b613268565b90919082549060031b600019811b9283911b16911916179055565b8552528183205589825281205581549081156134bd5750928288926134b9947fddf252ad1be2c89b69c2b068fc378daa952ba7f163c4a11628f55a4df523b3ef979601916134a68383613268565b909182549160031b1b19169055556135fc565b80a4565b634e487b7160e01b865260319052602485fd5b634e487b7160e01b885260118452602488fd5b8752848720908101905b818110156133cf578781556001016134ed565b61352d9486928b613511878c613268565b96905494835252209260031b1c168c5289528a8881205561369f565b8690888b8f6133b5565b60405162461bcd60e51b815260206004820152602560248201527f455243333532353a207472616e7366657220746f20746865207a65726f206164604482015264647265737360d81b6064820152608490fd5b60405162461bcd60e51b8152602060048201526024808201527f455243333532353a207472616e736665722066726f6d20696e76616c6964206f6044820152633bb732b960e11b6064820152608490fd5b6135e481613b06565b60005260066020526002612f76604060002054612f1a565b600090828252600660205260036136166040842054612f1a565b500180546001600160a01b0319166001600160a01b0390921691821790558082526007602081815260408085208054878752600191909101835281862055928452528120805491600160401b83101561367e57508161343d9160016132369594018155613268565b634e487b7160e01b81526041600452602490fd5b91908203918211612ed057565b6000198114612ed05760010190565b600160401b821161299f578054918082558281106136cb57505050565b60009182526020822092830192015b8281106136e657505050565b8181556001016136da565b908160209103126107d557516001600160e01b0319811681036107d55790565b92939290803b1561385657936000916137689560405180948193630a85bd0160e11b9788845233600485015260018060a01b0380921660248501526044840152608060648401528260209a8b9760848301906128c2565b0393165af160009181613827575b5061381857833d15613810573d9061378d82612a27565b9161379b6040519384612a06565b82523d60008284013e5b8151918261380d5760405162461bcd60e51b815260048101839052603260248201527f4552433732313a207472616e7366657220746f206e6f6e20455243373231526560448201527131b2b4bb32b91034b6b83632b6b2b73a32b960711b6064820152608490fd5b01fd5b6060906137a5565b6001600160e01b031916149150565b613848919250853d871161384f575b6138408183612a06565b8101906136f1565b9038613776565b503d613836565b50600193505050565b600c5460408051630151086360e31b81526001600160a01b039384166004820152602481019490945260448401949094526064830194909452909560009592949093919291602090889060849082908a9088165af19687156139f35786976139fd575b508260085416803b15610d55576138fe91879189838951809681958294632108947560e21b845260048401528c602484015260448301906128c2565b03925af180156139f3576139e0575b50816008541690813b156107a35761394a86928392875194858094819363246a908b60e01b83528d60048401528b602484015260448301906128c2565b03925af180156139d6579085916139c2575b50506008541690813b156107955761399b8392859492859351958680948193630190503b60e61b83528b600484015288602484015260448301906128c2565b03925af190811561053a57506139b057505090565b6139ba829161298c565b610358575090565b6139cb9061298c565b61079557833861395c565b84513d87823e3d90fd5b6139ec9095919561298c565b933861390d565b85513d88823e3d90fd5b9096506020813d8211613a28575b81613a1860209383612a06565b810103126107a3575195386138c2565b3d9150613a0b565b604d8111612ed057600a0a90565b60055415159081613a4d575090565b8091506000526006602052613a66604060002054612f1a565b50541490565b908160209103126107d5575180151581036107d55790565b80600052600d6020526040600020541590811591613aa0575090565b600c546040516341ce4b3f60e01b81526004810192909252909150602090829060249082906001600160a01b03165afa908115613afa57600091613ae2575090565b612a94915060203d8111611eb457611ea48183612a06565b6040513d6000823e3d90fd5b61323690613b1381613a3e565b908115613b38575b8115613b28575b506131b1565b613b329150613a84565b38613b22565b9050613b4381613a84565b90613b1b565b613b5281613b06565b613b5b81613a3e565b80613bf4575b15613b6f57612a94906135db565b6000908152600d6020526040812054602060018060a01b03600c541691602460405180948193631398fee160e31b835260048301525afa918215613be8578092613bb857505090565b9091506020823d8211613be0575b81613bd360209383612a06565b8101031261035857505190565b3d9150613bc6565b604051903d90823e3d90fd5b50613bfe81612f55565b600b5414613b61565b908160209103126107d557516001600160a01b03811681036107d55790565b613c2f81613b06565b613c3881613a3e565b80613cac575b15613c4c57612a94906131fd565b60018060a01b03600c541690600052600d60205260206040600020546024604051809481936331a9108f60e11b835260048301525afa908115613afa57600091613c94575090565b612a94915060203d8111611fc357611fb48183612a06565b50613cb681612f55565b600b5414613c3e565b6001600160a01b038083169391928415613da85783613cdd91613e00565b15613d2b575b5060207f621b050de0ad08b51d19b48b3e6df75348c4de6bdd93e81b252ca62e28265b1b918360005260048252604060002085600052825280604060002055604051908152a3565b908260005260066020526005613d45604060002054612f1a565b500190815492600160401b84101561299f5785613d8b8560209560017f621b050de0ad08b51d19b48b3e6df75348c4de6bdd93e81b252ca62e28265b1b98018155613268565b909283549160031b90811b9283911b169119161790559150613ce3565b60405162461bcd60e51b815260206004820152602a60248201527f455243333532353a20617070726f76652076616c756520746f20746865207a65604482015269726f206164647265737360b01b6064820152608490fd5b6000908282526006602090808252604090613e1d82862054612f1a565b509260058094015496865b888110613e3b5750505050505050905090565b818852838352613e598187613e52888c2054612f1a565b5001613268565b905460039190911b1c6001600160a01b0390811690881614613e8357613e7e9061369f565b613e28565b505050505050505050600190565b90613e9b82613b06565b613ea482613a3e565b80613f09575b15613eb857612a9491613f1c565b602060018060a01b0391604483600c54166000958652600d845260408620549060405195869485936338d1782f60e21b855260048501521660248301525afa918215613be8578092613bb857505090565b50613f1382612f55565b600b5414613eaa565b613f2581613b06565b600052600460205260406000209060018060a01b031660005260205260406000205490565b6001600160a01b038082169594929390929086156142015784156141b257613f7185613a3e565b80156141a3575b61415e57604090815193613f8b856129eb565b600095868652835190613f9d826129b5565b88825260209682898d8c8b8097018981528a850191848352606086019384528b608087019580875260a0880198895260066005549b8c948352522055600160401b88101561414a57613ff6600198898101600555612f1a565b95909561413657906005959493929151855551888501555160028401558560038401915116906bffffffffffffffffffffffff60a01b9182825416179055856004840192511690825416179055019051918251926001600160401b03841161412257899061406485856136ae565b01918a52888a20908a5b84811061410f575050505050509580979861409982600080516020614d4983398151915298996135fc565b877fddf252ad1be2c89b69c2b068fc378daa952ba7f163c4a11628f55a4df523b3ef8180a485877fe4f48c240d3b994948aa54f3e2f5fca59263dfe1d52b6e4cf39a5d249b5ccb658280a48585526006835260026140f982872054612f1a565b5001614106838254612ee6565b905551908152a3565b8351821683820155928a0192850161406e565b634e487b7160e01b8b52604160045260248bfd5b634e487b7160e01b8f5260048f905260248ffd5b634e487b7160e01b8e52604160045260248efd5b60405162461bcd60e51b815260206004820152601d60248201527f455243333532353a20746f6b656e20616c7265616479206d696e7465640000006044820152606490fd5b506141ad85613a84565b613f78565b60405162461bcd60e51b815260206004820152602160248201527f455243333532353a2063616e6e6f74206d696e74207a65726f20746f6b656e496044820152601960fa1b6064820152608490fd5b60405162461bcd60e51b815260206004820152602160248201527f455243333532353a206d696e7420746f20746865207a65726f206164647265736044820152607360f81b6064820152608490fd5b61425981613a3e565b806142cc575b1561427557600052601260205260406000205490565b600c546040516339ace21f60e01b81526004810192909252602090829060249082906001600160a01b03165afa908115613afa576000916142b4575090565b906020823d8211613be05781613bd360209383612a06565b506142d681612f55565b600b541461425f565b919091600090808252602091600d835260409283822054156000146146585761430985843361473b565b6001958660035401968760035561431f85612f55565b916001600160a01b038082169290831561460a578a156145bc576143428b613a3e565b80156145ad575b614569578851614358816129eb565b8781528951888b8e614369846129b5565b8084528a84018a81528b8386019285845260608701948c8652608088019680885260a08901998a5260066005549485948352522055600160401b81101561414a5780896143b99201600555612f1a565b95909561455557906005959493929151855551888501555160028401558560038401915116906bffffffffffffffffffffffff60a01b9182825416179055856004840192511690825416179055019051918251926001600160401b03841161454157908883928f9b9a99989796959485614432916136ae565b0191895287892090895b84811061452b575050505050507f6d811e6a20ae5461a4ef22a6998c1d958defe727f1cc522b6eb792bc8e6f72669897969386938461450897946144926145259a600080516020614d49833981519152966135fc565b857fddf252ad1be2c89b69c2b068fc378daa952ba7f163c4a11628f55a4df523b3ef8180a483857fe4f48c240d3b994948aa54f3e2f5fca59263dfe1d52b6e4cf39a5d249b5ccb658280a4838352600681526144f088842054612f1a565b50508751838152a36145038588836147d5565b612f55565b915192839286846040919493926060820195825260208201520152565b0390a190565b83518216818401558f9b5092890192850161443c565b634e487b7160e01b8a52604160045260248afd5b634e487b7160e01b8e5260048e905260248efd5b885162461bcd60e51b815260048101879052601d60248201527f455243333532353a20746f6b656e20616c7265616479206d696e7465640000006044820152606490fd5b506145b78b613a84565b614349565b885162461bcd60e51b815260048101879052602160248201527f455243333532353a2063616e6e6f74206d696e74207a65726f20746f6b656e496044820152601960fa1b6064820152608490fd5b885162461bcd60e51b815260048101879052602160248201527f455243333532353a206d696e7420746f20746865207a65726f206164647265736044820152607360f81b6064820152608490fd5b600c5484516307a42e0160e11b8152600481018590526001600160a01b0397881660248201526044810187905291969192918791849160649183918691165af195861561472f5781966146d8575b505050906145256145087f6d811e6a20ae5461a4ef22a6998c1d958defe727f1cc522b6eb792bc8e6f72669493612f55565b909180939650813d8311614728575b6146f18183612a06565b81010312610358575051926145256145087f6d811e6a20ae5461a4ef22a6998c1d958defe727f1cc522b6eb792bc8e6f72666146a6565b503d6146e7565b508351903d90823e3d90fd5b6147458183613f1c565b61474f8383613280565b15806147c9575b614761575b50505050565b8381106147845761477b9361477591613692565b91613cbf565b3880808061475b565b60405162461bcd60e51b815260206004820152601f60248201527f455243333532353a20696e73756666696369656e7420616c6c6f77616e6365006044820152606490fd5b50600019811415614756565b6147de81613a3e565b8015614a6b575b15614a16576147f382613a3e565b8015614a07575b156149b457806000526020926006845260409261481a8460002054612f1a565b5081600052600686526148308560002054612f1a565b5090600281019081549085821061495d57600101546001840154036149025791600291614863866148a098979695613692565b905501614871838254612ee6565b90558083600080516020614d49833981519152888851868152a3845192614897846129eb565b60008452614a7a565b156148a9575050565b60849250519062461bcd60e51b82526004820152602d60248201527f455243333532353a207472616e736665722072656a656374656420627920455260448201526c21999a991aa932b1b2b4bb32b960991b6064820152fd5b865162461bcd60e51b815260048101899052602e60248201527f455243333532353a207472616e7366657220746f20746f6b656e20776974682060448201526d191a5999995c995b9d081cdb1bdd60921b6064820152608490fd5b875162461bcd60e51b8152600481018a9052602a60248201527f455243333532353a20696e73756666696369656e742062616c616e636520666f60448201526939103a3930b739b332b960b11b6064820152608490fd5b60405162461bcd60e51b815260206004820152602560248201527f455243333532353a207472616e7366657220746f20696e76616c696420746f6b604482015264195b88125160da1b6064820152608490fd5b50614a1182613a84565b6147fa565b60405162461bcd60e51b815260206004820152602760248201527f455243333532353a207472616e736665722066726f6d20696e76616c696420746044820152661bdad95b88125160ca1b6064820152608490fd5b50614a7581613a84565b6147e5565b92614a84826131fd565b803b151580614b2a575b15614b2057614ad793600060209460405196879586948593629ce20b60e01b9b8c865233600487015260248601526044850152606484015260a0608484015260a48301906128c2565b03926001600160a01b03165af1908115613afa57600091614b02575b506001600160e01b0319161490565b614b1a915060203d811161384f576138408183612a06565b38614af3565b5050505050600190565b506040516301ffc9a760e01b8152629ce20b60e01b60048201526020816024816001600160a01b0386165afa908115613afa57600091614b6b575b50614a8e565b614b83915060203d8111611eb457611ea48183612a06565b38614b65565b9091614b9483613a3e565b80614d35575b8015614d26575b15614caf57614baf82613a3e565b80614c9c575b80614c79575b15614c1f5790614c1a82614bf27fdf7a601a0a201ccd4b4bfcfd610913188d931867997223d226f85f2f2673988a9594843361473b565b614bfd8185856147d5565b604051938493846040919493926060820195825260208201520152565b0390a1565b600c546001600160a01b0316803b156107d557604051630310ed7f60e41b8152600481019390935260248301939093526044820152906000908290606490829084905af18015613afa57614c705750565b6132369061298c565b50614c8383613a3e565b8015614bbb5750614c9383612f55565b600b5414614bbb565b50614ca682612f55565b600b5414614bb5565b60a460405162461bcd60e51b815260206004820152604460248201527f546f6b656e204944206f66207265636569766572206e6f74207265636f676e6960448201527f7a6564206279207468697320636f6e7472616374206f722074686520726567696064820152637374727960e01b6084820152fd5b50614d3083613a84565b614ba1565b50614d3f83612f55565b600b5414614b9a56fe0b2aac84f3ec956911fd78eae5311062972ff949f38412e8da39069d9f068cc6a26469706673582212200221de2de14e1e6fc2917d618c7e5c5943b5d75034c1b363f983275d73eb62d764736f6c634300081100336080604052346200048657620024ae803803806200001d816200048b565b9283398101608082820312620004865781516001600160401b0391908281116200048657816200004f918501620004b1565b91602092838501518281116200048657836200006d918701620004b1565b92604086015183811162000486576060916200008b918801620004b1565b9501516001600160a01b03811695908690036200048657815193838511620002c3576001948554938685811c951680156200047b575b88861014620002a2578190601f9586811162000425575b508890868311600114620003bd57600092620003b1575b5050600019600383901b1c191690861b1785555b805190848211620002c357600254908682811c92168015620003a6575b88831014620002a25781858493116200034f575b508790858311600114620002e557600092620002d9575b5050600019600383901b1c191690851b176002555b8051928311620002c35760039485548581811c91168015620002b8575b82821014620002a25783811162000257575b5080928411600114620001ed5750928293918392600094620001e1575b50501b9160001990841b1c19161790555b600080546001600160a01b031916919091179055604051611f8a9081620005248239f35b015192503880620001ac565b919083601f1981168760005284600020946000905b888383106200023c575050501062000223575b505050811b019055620001bd565b015160001983861b60f8161c1916905538808062000215565b85870151885590960195948501948793509081019062000202565b86600052816000208480870160051c82019284881062000298575b0160051c019086905b8281106200028b5750506200018f565b600081550186906200027b565b9250819262000272565b634e487b7160e01b600052602260045260246000fd5b90607f16906200017d565b634e487b7160e01b600052604160045260246000fd5b0151905038806200014b565b90879350601f198316916002600052896000209260005b8b8282106200033857505084116200031e575b505050811b0160025562000160565b015160001960f88460031b161c191690553880806200030f565b8385015186558b97909501949384019301620002fc565b9091506002600052876000208580850160051c8201928a86106200039c575b918991869594930160051c01915b8281106200038c57505062000134565b600081558594508991016200037c565b925081926200036e565b91607f169162000120565b015190503880620000ef565b90889350601f19831691846000528a6000209260005b8c8282106200040e5750508411620003f4575b505050811b01855562000103565b015160001960f88460031b161c19169055388080620003e6565b8385015186558c97909501949384019301620003d3565b90915087600052886000208680850160051c8201928b861062000471575b918a91869594930160051c01915b82811062000461575050620000d8565b600081558594508a910162000451565b9250819262000443565b94607f1694620000c1565b600080fd5b6040519190601f01601f191682016001600160401b03811183821017620002c357604052565b919080601f84011215620004865782516001600160401b038111620002c357602090620004e7601f8201601f191683016200048b565b92818452828287010111620004865760005b8181106200050f57508260009394955001015290565b8581018301518482018401528201620004f956fe608060408181526004908136101561001657600080fd5b600092833560e01c9081631375d843146114a057508063246a908b146113a257806331264fc11461119057806355f804b31461104c57806364140ec014610f4d5780636c0360eb14610e8e5780636c037f8a14610b7257806371f0442e14610ade578063725fa09c14610866578063842251d41461072e578063894b4c2e146104025780639cdeaae0146101805763b3154c08146100b357600080fd5b3461017c57602091826003193601126101785780358452825280832091815192848154906100e082611a7d565b808752926001928084169081156101545750600114610119575b610115878761010b828c03836115b6565b5191829182611558565b0390f35b9080949750528583205b82841061014157505050826101159461010b928201019438806100fa565b8054868501880152928601928101610123565b60ff19168887015250505050151560051b830101925061010b8261011538806100fa565b8380fd5b8280fd5b50913461039057826003193601126103905781359161019e836119cd565b928083526020918083528584209386519481868254916101bd83611a7d565b92838352888301946001918a83821691826000146103e25750506001146103a5575b50506101ed925003876115b6565b6101f684611de4565b9161020260243561188a565b895163131f9f3f60e11b8152948501869052938681602481335afa91821561039a578092610365575b61011561027f8c61010b606c8e8e8e61034c8f8f8f8f8f61024e6102549161188a565b94611e7e565b966102a960298d519e8f809c683d913730b6b2911d1160b91b8c8301528b8151948593019101611535565b8a0191701116113232b9b1b934b83a34b7b7111d1160791b6029840152518093603a840190611535565b016a11161134b6b0b3b2911d1160a91b603a8201526102d18251809388604585019101611535565b016c1116113130b630b731b2911d1160991b60458201526102fb8251809387605285019101611535565b016911161139b637ba111d1160b11b60528201526103228251809386605c85019101611535565b01916e111611383937b832b93a34b2b9911d60891b605c8401528351938491606b85019101611535565b01607d60f81b606b82015203604c8101855201836115b6565b9091508682813d8311610393575b61037d81836115b6565b810103126103905750518461027f61022b565b80fd5b503d610373565b8a51903d90823e3d90fd5b89925086528186209086915b8583106103c95750506101ed935082010138806101df565b81948484839695965492010152019101899289926103b1565b92509350506101ed94915060ff19168552151560051b82010138806101df565b50913461039057602091826003193601126106bd57803591610423836119cd565b83825282855285822090865190838284549161043e83611a7d565b928383528a8301966001918c838216918260001461070e5750506001146106d2575b505061046e925003836115b6565b61047786611de4565b938851631398fee160e31b815287878201528881602481335afa80156106c8578290610695575b6104a8915061188a565b895163131f9f3f60e11b8152968701889052958881602481335afa91821561039a578092610664575b5050606c888a6101159b9961010b99603d996106549d9961061b9961055861052e9a6105086105026106169c61188a565b97611e7e565b97519b8c99683d913730b6b2911d1160b91b818c0152825192839160298d019101611535565b880191701116113232b9b1b934b83a34b7b7111d1160791b6029840152518093603a840190611535565b016a11161134b6b0b3b2911d1160a91b603a820152610580825180938d604585019101611535565b016c1116113130b630b731b2911d1160991b60458201526105aa825180938c605285019101611535565b016911161139b637ba111d1160b11b60528201526105d1825180938b605c85019101611535565b016e111611383937b832b93a34b2b9911d60891b605c8201526105fd825180938a606b85019101611535565b01607d60f81b606b82015203604c8101845201826115b6565b61171d565b845195827f646174613a6170706c69636174696f6e2f6a736f6e3b6261736536342c000000889485015282519283918686019101611535565b810103601d8101855201836115b6565b9091508882813d831161068e575b61067c81836115b6565b81010312610390575051606c886104d1565b503d610672565b508881813d83116106c1575b6106ab81836115b6565b810103126106bd576104a8905161049e565b5080fd5b503d6106a1565b8a513d84823e3d90fd5b8b925088528188209088915b8583106106f657505061046e93508201013880610460565b80548389018501528794508c939092019181016106de565b925093505061046e94915060ff19168752151560051b8201013880610460565b508290346106bd5761073f36611640565b939083526020916006835283209184519167ffffffffffffffff8311610853575061076a8354611a7d565b601f8111610810575b5080601f83116001146107ae57508394829394926107a3575b50508160011b916000199060031b1c191617905580f35b01519050848061078c565b90601f198316958486528286209286905b8882106107f8575050836001959697106107df575b505050811b01905580f35b015160001960f88460031b161c191690558480806107d4565b806001859682949686015181550195019301906107bf565b838552818520601f840160051c810191838510610849575b601f0160051c01905b81811061083e5750610773565b858155600101610831565b9091508190610828565b634e487b7160e01b855260419052602484fd5b50903461017c578260031936011261017c5781516306fdde0360e01b81529083828281335afa918215610ad1578492610aad575b5082519084600254906108ac82611a7d565b808552846020988992838301956001908181169081600014610a8e5750600114610a32575b50506108df925003856115b6565b6108e7611bb6565b928787518092633e7e866960e01b825281335afa918215610a2757605a610654989761010b97603d976101159c9761093360ff61061b996109889961061699916109fa575b501661188a565b928c51978895683d913730b6b2911d1160b91b8c88015261095e8c825192839160298b019101611535565b860191701116113232b9b1b934b83a34b7b7111d1160791b6029840152518093603a840190611535565b016a11161134b6b0b3b2911d1160a91b603a8201526109b0825180938b604585019101611535565b01721116113b30b63ab2a232b1b4b6b0b639911d1160691b60458201526109e0825180938a605885019101611535565b0161227d60f01b605882015203603a8101845201826115b6565b610a1a91508c8d3d10610a20575b610a1281836115b6565b8101906116d2565b3861092c565b503d610a08565b8751903d90823e3d90fd5b600286527f405787fa12a823e0f2b7631cc41b3ba8828b3321ca811111fa75cd3aa3bb5ace9492508591905b818310610a7657508b9450508201016108df386108d1565b85548a84018501529485019489945091830191610a5e565b9150506108df94925060ff19168652151560051b8201018992386108d1565b610aca9192503d8086833e610ac281836115b6565b810190611673565b903861089a565b50505051903d90823e3d90fd5b503461017c576020918260031936011261017857358352600582528083209181519284815490610b0d82611a7d565b808752926001928084169081156101545750600114610b3757610115878761010b828c03836115b6565b9080949750528583205b828410610b5f57505050826101159461010b928201019438806100fa565b8054868501880152928601928101610b41565b50903461017c5760209283600319360112610390578054835163ec327a2160e01b815283358185018190529092916001600160a01b0316908284602481855afa938415610e84578394610e68575b50855163bc74ebb960e01b8152858101829052948386602481865afa958615610e5e578496610e42575b5086516309c3dd8760e01b80825282820184905290938585602481845afa948515610e3857918a9594939187938496610e17575b5090602491610c5e60268d518a652f696d61676560d01b81610c4a849e85019d8e815193849201611535565b83019182015203600681018b5201896115b6565b8b51958694859384528301525afa938415610a27578094610dfa575b50508551918288808201868197519283910191610c9692611535565b81018981016f17b83937b832b93a34b2b9973539b7b760811b905203601081018452603001610cc590846115b6565b8651958695683d913730b6b2911d1160b91b8a880152805190818b60298a01920191610cf092611535565b8601701116113232b9b1b934b83a34b7b7111d1160791b6029820152815191828b603a8401920191610d2192611535565b01906a11161134b6b0b3b2911d1160a91b603a83015251918260458301610d4792611535565b01906e111611383937b832b93a34b2b9911d60891b604583015251918260548301610d7192611535565b0160548101607d60f81b905203603581018252605501610d9190826115b6565b610d9a9061171d565b81517f646174613a6170706c69636174696f6e2f6a736f6e3b6261736536342c00000084820152815190938492610dd8918391603d86019101611535565b810103601d81018352603d01610dee90836115b6565b51610115819282611558565b610e0f9294503d8091833e610ac281836115b6565b913880610c7a565b602492919650610e30903d8087833e610ac281836115b6565b959091610c1e565b89513d88823e3d90fd5b610e579196503d8086833e610ac281836115b6565b9438610bea565b87513d86823e3d90fd5b610e7d9194503d8085833e610ac281836115b6565b9238610bc0565b86513d85823e3d90fd5b8382346106bd57816003193601126106bd57805190826001805491610eb283611a7d565b80865292828116908115610f255750600114610edb575b50505061010b826101159403836115b6565b9450808552600080516020611f358339815191525b828610610f0d5750505061010b8260206101159582010194610ec9565b80546020878701810191909152909501948101610ef0565b61011597508693506020925061010b94915060ff191682840152151560051b82010194610ec9565b508290346106bd57610f5e36611640565b939083526020916005835283209184519167ffffffffffffffff83116108535750610f898354611a7d565b601f8111611009575b5080601f8311600114610fc157508394829394926107a35750508160011b916000199060031b1c191617905580f35b90601f198316958486528286209286905b888210610ff1575050836001959697106107df57505050811b01905580f35b80600185968294968601518155019501930190610fd2565b838552818520601f840160051c810191838510611042575b601f0160051c01905b8181106110375750610f92565b85815560010161102a565b9091508190611021565b828434610390576020806003193601126106bd5767ffffffffffffffff83358181116101785761107f90369086016115f4565b93845191821161117d57506001916110978354611a7d565b601f811161112b575b5080601f83116001146110da57508394829394926110cf575b5050600019600383901b1c191690821b17905580f35b0151905084806110b9565b838552601f19831695600080516020611f35833981519152929186905b88821061111457505083859697106107df57505050811b01905580f35b8087859682949686015181550195019301906110f7565b838552600080516020611f35833981519152601f840160051c810191838510611173575b601f0160051c019084905b8281106111685750506110a0565b86815501849061115a565b909150819061114f565b634e487b7160e01b845260419052602483fd5b50903461017c578260031936011261017c5781516306fdde0360e01b81529083828281335afa918215610ad1578492611386575b5082519084906002546111d681611a7d565b808552846020948582019360019087828216918260001461136857505060011461130e575b50611208925003856115b6565b611210611bb6565b918387518092633e7e866960e01b825281335afa9081156113045761127d97969361010b969361125360ff605a98956112d3956101159e916112ed57501661188a565b9489519a8b97683d913730b6b2911d1160b91b878a015261052e815180928960298d019101611535565b016a11161134b6b0b3b2911d1160a91b603a8201526112a58251809386604585019101611535565b0191721116113b30b63ab2a232b1b4b6b0b639911d1160691b60458401528351938491605885019101611535565b0161227d60f01b605882015203603a8101855201836115b6565b610a1a9150873d8911610a2057610a1281836115b6565b87513d8a823e3d90fd5b60028b528691508a907f405787fa12a823e0f2b7631cc41b3ba8828b3321ca811111fa75cd3aa3bb5ace5b8583106113505750506112089350820101386111fb565b8054838b018501528994508893909201918101611339565b60ff1916875261120895151560051b85010192503891506111fb9050565b61139b9192503d8086833e610ac281836115b6565b90386111c4565b508290346106bd576113b336611640565b9390835260209181835283209184519167ffffffffffffffff831161085357506113dd8354611a7d565b601f811161145d575b5080601f831160011461141557508394829394926107a35750508160011b916000199060031b1c191617905580f35b90601f198316958486528286209286905b888210611445575050836001959697106107df57505050811b01905580f35b80600185968294968601518155019501930190611426565b838552818520601f840160051c810191838510611496575b601f0160051c01905b81811061148b57506113e6565b85815560010161147e565b9091508190611475565b92905034610178576020908160031936011261153157358452600681528184208054856114cc82611a7d565b8087529260019280841690811561015457506001146114f657610115878761010b828c03836115b6565b9080949750528583205b82841061151e57505050826101159461010b928201019438806100fa565b8054868501880152928601928101611500565b8480fd5b60005b8381106115485750506000910152565b8181015183820152602001611538565b604091602082526115788151809281602086015260208686019101611535565b601f01601f1916010190565b6060810190811067ffffffffffffffff8211176115a057604052565b634e487b7160e01b600052604160045260246000fd5b90601f8019910116810190811067ffffffffffffffff8211176115a057604052565b67ffffffffffffffff81116115a057601f01601f191660200190565b81601f8201121561163b5780359061160b826115d8565b9261161960405194856115b6565b8284526020838301011161163b57816000926020809301838601378301015290565b600080fd5b90604060031983011261163b57600435916024359067ffffffffffffffff821161163b57611670916004016115f4565b90565b60208183031261163b5780519067ffffffffffffffff821161163b570181601f8201121561163b5780516116a6816115d8565b926116b460405194856115b6565b8184526020828401011161163b576116709160208085019101611535565b9081602091031261163b575160ff8116810361163b5790565b906116f5826115d8565b61170260405191826115b6565b8281528092611713601f19916115d8565b0190602036910137565b8051156118655760405161173081611584565b604081527f4142434445464748494a4b4c4d4e4f505152535455565758595a61626364656660208201527f6768696a6b6c6d6e6f707172737475767778797a303132333435363738392b2f6040820152815160029283820180921161184f576003918290046001600160fe1b038116810361184f576117b2908594951b6116eb565b936020850193829183518401925b8381106117fe57505050505106806001146117eb576002146117e0575090565b603d90600019015390565b50603d9081600019820153600119015390565b85600491979293949701918251600190603f9082828260121c16880101518453828282600c1c16880101518385015382828260061c16880101518885015316850101518782015301959291906117c0565b634e487b7160e01b600052601160045260246000fd5b506040516020810181811067ffffffffffffffff8211176115a0576040526000815290565b806000917a184f03e93ff9f4daa797ed6e38ed64bf6a1f010000000000000000808210156119bf575b506d04ee2d6d415b85acef8100000000808310156119b0575b50662386f26fc10000808310156119a1575b506305f5e10080831015611992575b5061271080831015611983575b506064821015611973575b600a80921015611969575b6001908160216119218287016116eb565b95860101905b611933575b5050505090565b600019019083906f181899199a1a9b1b9c1cb0b131b232b360811b8282061a83530491821561196457919082611927565b61192c565b9160010191611910565b9190606460029104910191611905565b600491939204910191386118fa565b600891939204910191386118ed565b601091939204910191386118de565b602091939204910191386118cc565b6040935081049150386118b3565b6040516306fdde0360e01b815290600082600481335afa918215611a7157600092611a4b575b506022611a026116709261188a565b926040519381611a1c869351809260208087019101611535565b820161202360f01b6020820152611a3c8251809360208785019101611535565b010360028101845201826115b6565b611a02611a6860229261167094953d8091833e610ac281836115b6565b939250506119f3565b6040513d6000823e3d90fd5b90600182811c92168015611aad575b6020831014611a9757565b634e487b7160e01b600052602260045260246000fd5b91607f1691611a8c565b90600091600190815491611aca83611a7d565b92818116908115611b205750600114611ae257505050565b809192939450600052600080516020611f35833981519152906000915b848310611b0d575050500190565b8181602092548587015201920191611aff565b60ff191683525050811515909102019150565b600092918154611b4281611a7d565b92600191808316908115611b9b5750600114611b5f575b50505050565b90919293945060005260209081600020906000915b858310611b8a5750505050019038808080611b59565b805485840152918301918101611b74565b60ff1916845250505081151590910201915038808080611b59565b611bbf33611cc1565b6040519081602091611bd2838301611ab7565b68636f6e74726163742f60b81b8152611bf48251809386600985019101611535565b01602f60f81b600982015260009060035493611c0f85611a7d565b94600190818116908115611c9e5750600114611c3c575b505050611670925003601f1981018352826115b6565b9091925060036000527fc2575a0e9e593c00f959f8c92f12db2869c3395a3b0502d05e2516446f71f85b906000915b868310611c87575050505061167092600a910101388080611c26565b8054838601600a0152879550918301918101611c6b565b915050600a935061167095915060ff191683830152801515020101388080611c26565b604051906001600160a01b0316611cd782611584565b602a82526020908183016040368237835115611dce57603090538251600190811015611dce57607860218501536029905b808211611d5c575050611d19575090565b6064906040519062461bcd60e51b825280600483015260248201527f537472696e67733a20686578206c656e67746820696e73756666696369656e746044820152fd5b9091600f81166010811015611db9578551841015611db9576f181899199a1a9b1b9c1cb0b131b232b360811b901a85840185015360041c918015611da4576000190190611d08565b60246000634e487b7160e01b81526011600452fd5b60246000634e487b7160e01b81526032600452fd5b634e487b7160e01b600052603260045260246000fd5b611670601191611df330611cc1565b906000526006602052611e70604060002060056020526001611e62604060002092604051978896611e2660208901611ab7565b692f636f6e74726163742f60b01b8152611e4a825180936020600a85019101611535565b01662f746f6b656e2f60c81b600a8201520190611b33565b602f60f81b81520190611b33565b03601f1981018352826115b6565b6116706011601092611e8f33611cc1565b906000526006602052611f0560406000206040519586936e7b70726f706572746965735f75726960881b6020860152611eca602f8601611ab7565b68636f6e74726163742f60b81b8152611eed825180936020600985019101611535565b01662f746f6b656e2f60c81b60098201520190611b33565b6f17b83937b832b93a34b2b9973539b7b760811b8152607d60f81b601082015203600e198101845201826115b656feb10e2d527612073b26eecdfd717e6a320cf44b4afac2b0732d9fcbe2b7fa0cf6a26469706673582212204acf999d970adc8d8fc934244bb0b1eeca1d242ed83b1a407b04f51749a4b83064736f6c634300081100332f8788117e7eff1d82e926ec794901d17c78024a50270940304540a733656f0db10e2d527612073b26eecdfd717e6a320cf44b4afac2b0732d9fcbe2b7fa0cf6",
  "linkReferences": {},
  "deployedLinkReferences": {}
}