{
  "_format": "hh-sol-artifact-1",
  "contractName": "SpendCredit",
  "sourceName": "contracts/SpendCredit.sol",
  "abi": [
    {
      "inputs": [
        {
          "internalType": "address",
          "name": "serviceAddress_",
          "type": "address"
        },
        {
          "internalType": "address",
          "name": "slotRegistry_",
          "type": "address"
        },
        {
          "internalType": "string",
          "name": "name_",
          "type": "string"
        },
        {
          "internalType": "string",
          "name": "symbol_",
          "type": "string"
        },
        {
          "internalType": "string",
          "name": "baseuri_",
          "type": "string"
        },
        {
          "internalType": "string",
          "name": "contractDescription_",
          "type": "string"
        },
        {
          "internalType": "string",
          "name": "contractImage_",
          "type": "string"
        },
        {
          "internalType": "string",
          "name": "valueToken_",
          "type": "string"
        },
        {
          "internalType": "address",
          "name": "valueTokenContractAddress_",
          "type": "address"
        },
        {
          "internalType": "uint8",
          "name": "decimals_",
          "type": "uint8"
        }
      ],
      "stateMutability": "nonpayable",
      "type": "constructor"
    },
    {
      "anonymous": false,
      "inputs": [
        {
          "indexed": true,
          "internalType": "address",
          "name": "_owner",
          "type": "address"
        },
        {
          "indexed": true,
          "internalType": "address",
          "name": "_approved",
          "type": "address"
        },
        {
          "indexed": true,
          "internalType": "uint256",
          "name": "_tokenId",
          "type": "uint256"
        }
      ],
      "name": "Approval",
      "type": "event"
    },
    {
      "anonymous": false,
      "inputs": [
        {
          "indexed": true,
          "internalType": "address",
          "name": "_owner",
          "type": "address"
        },
        {
          "indexed": true,
          "internalType": "address",
          "name": "_operator",
          "type": "address"
        },
        {
          "indexed": false,
          "internalType": "bool",
          "name": "_approved",
          "type": "bool"
        }
      ],
      "name": "ApprovalForAll",
      "type": "event"
    },
    {
      "anonymous": false,
      "inputs": [
        {
          "indexed": true,
          "internalType": "uint256",
          "name": "_tokenId",
          "type": "uint256"
        },
        {
          "indexed": true,
          "internalType": "address",
          "name": "_operator",
          "type": "address"
        },
        {
          "indexed": false,
          "internalType": "uint256",
          "name": "_value",
          "type": "uint256"
        }
      ],
      "name": "ApprovalValue",
      "type": "event"
    },
    {
      "anonymous": false,
      "inputs": [
        {
          "indexed": false,
          "internalType": "address",
          "name": "contractAddress",
          "type": "address"
        }
      ],
      "name": "MetadataDescriptor",
      "type": "event"
    },
    {
      "anonymous": false,
      "inputs": [
        {
          "indexed": false,
          "internalType": "uint256",
          "name": "tokenId",
          "type": "uint256"
        },
        {
          "indexed": false,
          "internalType": "uint256",
          "name": "slot",
          "type": "uint256"
        },
        {
          "indexed": false,
          "internalType": "uint256",
          "name": "value",
          "type": "uint256"
        }
      ],
      "name": "MintServiceToken",
      "type": "event"
    },
    {
      "anonymous": false,
      "inputs": [
        {
          "indexed": true,
          "internalType": "address",
          "name": "previousOwner",
          "type": "address"
        },
        {
          "indexed": true,
          "internalType": "address",
          "name": "newOwner",
          "type": "address"
        }
      ],
      "name": "OwnershipTransferred",
      "type": "event"
    },
    {
      "anonymous": false,
      "inputs": [
        {
          "indexed": true,
          "internalType": "address",
          "name": "metadataDescriptor",
          "type": "address"
        }
      ],
      "name": "SetMetadataDescriptor",
      "type": "event"
    },
    {
      "anonymous": false,
      "inputs": [
        {
          "indexed": true,
          "internalType": "uint256",
          "name": "_tokenId",
          "type": "uint256"
        },
        {
          "indexed": true,
          "internalType": "uint256",
          "name": "_oldSlot",
          "type": "uint256"
        },
        {
          "indexed": true,
          "internalType": "uint256",
          "name": "_newSlot",
          "type": "uint256"
        }
      ],
      "name": "SlotChanged",
      "type": "event"
    },
    {
      "anonymous": false,
      "inputs": [
        {
          "indexed": true,
          "internalType": "address",
          "name": "_from",
          "type": "address"
        },
        {
          "indexed": true,
          "internalType": "address",
          "name": "_to",
          "type": "address"
        },
        {
          "indexed": true,
          "internalType": "uint256",
          "name": "_tokenId",
          "type": "uint256"
        }
      ],
      "name": "Transfer",
      "type": "event"
    },
    {
      "anonymous": false,
      "inputs": [
        {
          "indexed": true,
          "internalType": "uint256",
          "name": "_fromTokenId",
          "type": "uint256"
        },
        {
          "indexed": true,
          "internalType": "uint256",
          "name": "_toTokenId",
          "type": "uint256"
        },
        {
          "indexed": false,
          "internalType": "uint256",
          "name": "_value",
          "type": "uint256"
        }
      ],
      "name": "TransferValue",
      "type": "event"
    },
    {
      "inputs": [
        {
          "internalType": "string",
          "name": "uri_",
          "type": "string"
        }
      ],
      "name": "_setBaseURI",
      "outputs": [],
      "stateMutability": "nonpayable",
      "type": "function"
    },
    {
      "inputs": [
        {
          "internalType": "uint256",
          "name": "tokenId_",
          "type": "uint256"
        },
        {
          "internalType": "address",
          "name": "operator_",
          "type": "address"
        }
      ],
      "name": "allowance",
      "outputs": [
        {
          "internalType": "uint256",
          "name": "",
          "type": "uint256"
        }
      ],
      "stateMutability": "view",
      "type": "function"
    },
    {
      "inputs": [
        {
          "internalType": "address",
          "name": "to_",
          "type": "address"
        },
        {
          "internalType": "uint256",
          "name": "tokenId_",
          "type": "uint256"
        }
      ],
      "name": "approve",
      "outputs": [],
      "stateMutability": "payable",
      "type": "function"
    },
    {
      "inputs": [
        {
          "internalType": "uint256",
          "name": "tokenId_",
          "type": "uint256"
        },
        {
          "internalType": "address",
          "name": "to_",
          "type": "address"
        },
        {
          "internalType": "uint256",
          "name": "value_",
          "type": "uint256"
        }
      ],
      "name": "approve",
      "outputs": [],
      "stateMutability": "payable",
      "type": "function"
    },
    {
      "inputs": [
        {
          "internalType": "address",
          "name": "owner_",
          "type": "address"
        }
      ],
      "name": "balanceOf",
      "outputs": [
        {
          "internalType": "uint256",
          "name": "balance",
          "type": "uint256"
        }
      ],
      "stateMutability": "view",
      "type": "function"
    },
    {
      "inputs": [
        {
          "internalType": "uint256",
          "name": "tokenId_",
          "type": "uint256"
        }
      ],
      "name": "balanceOf",
      "outputs": [
        {
          "internalType": "uint256",
          "name": "",
          "type": "uint256"
        }
      ],
      "stateMutability": "view",
      "type": "function"
    },
    {
      "inputs": [],
      "name": "contractURI",
      "outputs": [
        {
          "internalType": "string",
          "name": "",
          "type": "string"
        }
      ],
      "stateMutability": "view",
      "type": "function"
    },
    {
      "inputs": [
        {
          "internalType": "uint256",
          "name": "tokenId_",
          "type": "uint256"
        }
      ],
      "name": "getApproved",
      "outputs": [
        {
          "internalType": "address",
          "name": "",
          "type": "address"
        }
      ],
      "stateMutability": "view",
      "type": "function"
    },
    {
      "inputs": [
        {
          "internalType": "address",
          "name": "owner_",
          "type": "address"
        },
        {
          "internalType": "address",
          "name": "operator_",
          "type": "address"
        }
      ],
      "name": "isApprovedForAll",
      "outputs": [
        {
          "internalType": "bool",
          "name": "",
          "type": "bool"
        }
      ],
      "stateMutability": "view",
      "type": "function"
    },
    {
      "inputs": [],
      "name": "metadataDescriptor",
      "outputs": [
        {
          "internalType": "contract IERC3525MetadataDescriptor",
          "name": "",
          "type": "address"
        }
      ],
      "stateMutability": "view",
      "type": "function"
    },
    {
      "inputs": [
        {
          "internalType": "address",
          "name": "owner_",
          "type": "address"
        },
        {
          "internalType": "uint256",
          "name": "slot_",
          "type": "uint256"
        },
        {
          "internalType": "uint256",
          "name": "value_",
          "type": "uint256"
        },
        {
          "internalType": "string",
          "name": "uuid_",
          "type": "string"
        },
        {
          "internalType": "string",
          "name": "token_description_",
          "type": "string"
        },
        {
          "internalType": "string",
          "name": "token_image_",
          "type": "string"
        }
      ],
      "name": "mint",
      "outputs": [
        {
          "internalType": "uint256",
          "name": "",
          "type": "uint256"
        }
      ],
      "stateMutability": "nonpayable",
      "type": "function"
    },
    {
      "inputs": [],
      "name": "name",
      "outputs": [
        {
          "internalType": "string",
          "name": "",
          "type": "string"
        }
      ],
      "stateMutability": "view",
      "type": "function"
    },
    {
      "inputs": [],
      "name": "owner",
      "outputs": [
        {
          "internalType": "address",
          "name": "",
          "type": "address"
        }
      ],
      "stateMutability": "view",
      "type": "function"
    },
    {
      "inputs": [
        {
          "internalType": "uint256",
          "name": "tokenId_",
          "type": "uint256"
        }
      ],
      "name": "ownerOf",
      "outputs": [
        {
          "internalType": "address",
          "name": "owner_",
          "type": "address"
        }
      ],
      "stateMutability": "view",
      "type": "function"
    },
    {
      "inputs": [],
      "name": "renounceOwnership",
      "outputs": [],
      "stateMutability": "nonpayable",
      "type": "function"
    },
    {
      "inputs": [
        {
          "internalType": "address",
          "name": "from_",
          "type": "address"
        },
        {
          "internalType": "address",
          "name": "to_",
          "type": "address"
        },
        {
          "internalType": "uint256",
          "name": "tokenId_",
          "type": "uint256"
        }
      ],
      "name": "safeTransferFrom",
      "outputs": [],
      "stateMutability": "payable",
      "type": "function"
    },
    {
      "inputs": [
        {
          "internalType": "address",
          "name": "from_",
          "type": "address"
        },
        {
          "internalType": "address",
          "name": "to_",
          "type": "address"
        },
        {
          "internalType": "uint256",
          "name": "tokenId_",
          "type": "uint256"
        },
        {
          "internalType": "bytes",
          "name": "data_",
          "type": "bytes"
        }
      ],
      "name": "safeTransferFrom",
      "outputs": [],
      "stateMutability": "payable",
      "type": "function"
    },
    {
      "inputs": [
        {
          "internalType": "address",
          "name": "operator_",
          "type": "address"
        },
        {
          "internalType": "bool",
          "name": "approved_",
          "type": "bool"
        }
      ],
      "name": "setApprovalForAll",
      "outputs": [],
      "stateMutability": "nonpayable",
      "type": "function"
    },
    {
      "inputs": [
        {
          "internalType": "uint256",
          "name": "tokenId_",
          "type": "uint256"
        }
      ],
      "name": "slotOf",
      "outputs": [
        {
          "internalType": "uint256",
          "name": "",
          "type": "uint256"
        }
      ],
      "stateMutability": "view",
      "type": "function"
    },
    {
      "inputs": [
        {
          "internalType": "uint256",
          "name": "slot_",
          "type": "uint256"
        }
      ],
      "name": "slotURI",
      "outputs": [
        {
          "internalType": "string",
          "name": "",
          "type": "string"
        }
      ],
      "stateMutability": "view",
      "type": "function"
    },
    {
      "inputs": [
        {
          "internalType": "bytes4",
          "name": "interfaceId",
          "type": "bytes4"
        }
      ],
      "name": "supportsInterface",
      "outputs": [
        {
          "internalType": "bool",
          "name": "",
          "type": "bool"
        }
      ],
      "stateMutability": "view",
      "type": "function"
    },
    {
      "inputs": [],
      "name": "symbol",
      "outputs": [
        {
          "internalType": "string",
          "name": "",
          "type": "string"
        }
      ],
      "stateMutability": "view",
      "type": "function"
    },
    {
      "inputs": [
        {
          "internalType": "uint256",
          "name": "index_",
          "type": "uint256"
        }
      ],
      "name": "tokenByIndex",
      "outputs": [
        {
          "internalType": "uint256",
          "name": "",
          "type": "uint256"
        }
      ],
      "stateMutability": "view",
      "type": "function"
    },
    {
      "inputs": [
        {
          "internalType": "address",
          "name": "owner_",
          "type": "address"
        },
        {
          "internalType": "uint256",
          "name": "index_",
          "type": "uint256"
        }
      ],
      "name": "tokenOfOwnerByIndex",
      "outputs": [
        {
          "internalType": "uint256",
          "name": "",
          "type": "uint256"
        }
      ],
      "stateMutability": "view",
      "type": "function"
    },
    {
      "inputs": [
        {
          "internalType": "uint256",
          "name": "tokenId_",
          "type": "uint256"
        }
      ],
      "name": "tokenURI",
      "outputs": [
        {
          "internalType": "string",
          "name": "",
          "type": "string"
        }
      ],
      "stateMutability": "view",
      "type": "function"
    },
    {
      "inputs": [],
      "name": "totalSupply",
      "outputs": [
        {
          "internalType": "uint256",
          "name": "",
          "type": "uint256"
        }
      ],
      "stateMutability": "view",
      "type": "function"
    },
    {
      "inputs": [
        {
          "internalType": "uint256",
          "name": "fromTokenId_",
          "type": "uint256"
        },
        {
          "internalType": "address",
          "name": "to_",
          "type": "address"
        },
        {
          "internalType": "uint256",
          "name": "value_",
          "type": "uint256"
        }
      ],
      "name": "transferFrom",
      "outputs": [
        {
          "internalType": "uint256",
          "name": "",
          "type": "uint256"
        }
      ],
      "stateMutability": "payable",
      "type": "function"
    },
    {
      "inputs": [
        {
          "internalType": "address",
          "name": "from_",
          "type": "address"
        },
        {
          "internalType": "address",
          "name": "to_",
          "type": "address"
        },
        {
          "internalType": "uint256",
          "name": "tokenId_",
          "type": "uint256"
        }
      ],
      "name": "transferFrom",
      "outputs": [],
      "stateMutability": "payable",
      "type": "function"
    },
    {
      "inputs": [
        {
          "internalType": "uint256",
          "name": "fromTokenId_",
          "type": "uint256"
        },
        {
          "internalType": "uint256",
          "name": "toTokenId_",
          "type": "uint256"
        },
        {
          "internalType": "uint256",
          "name": "value_",
          "type": "uint256"
        }
      ],
      "name": "transferFrom",
      "outputs": [],
      "stateMutability": "payable",
      "type": "function"
    },
    {
      "inputs": [
        {
          "internalType": "address",
          "name": "newOwner",
          "type": "address"
        }
      ],
      "name": "transferOwnership",
      "outputs": [],
      "stateMutability": "nonpayable",
      "type": "function"
    },
    {
      "inputs": [],
      "name": "valueDecimals",
      "outputs": [
        {
          "internalType": "uint8",
          "name": "",
          "type": "uint8"
        }
      ],
      "stateMutability": "view",
      "type": "function"
    }
  ],
  "bytecode": "0x60806040523480156200001157600080fd5b50604051620056613803806200566183398101604081905262000034916200031d565b898989898989898785858260006200004d848262000502565b5060016200005c838262000502565b506002805460ff191660ff9290921691909117905550620000869050620000803390565b620001c1565b600a80546001600160a01b0319166001600160a01b038a16179055600b620000af858262000502565b50600b838389604051620000c39062000213565b620000d29493929190620005fc565b604051809103906000f080158015620000ef573d6000803e3d6000fd5b50600880546001600160a01b0319166001600160a01b039290921691821790556040519081527f9ac4f8025631594629895b778dc5ee88d01673a254a2291f6b6b174ad25230ca9060200160405180910390a150506040805180820190915260048152635553444360e01b6020918201528951908a01207f29535e4168d63ec2988ccae9ecde9b63335195a6eaab88dae98ff067906bd156019550620001b194505050505057600f80546001600160a01b0319166001600160a01b0384161790555b50505050505050505050620006d4565b600980546001600160a01b038381166001600160a01b0319831681179093556040519116919082907f8be0079c531659141344cd1fd0a4f28419497f9722a3daafe3b4186f6b6457e090600090a35050565b611a468062003c1b83390190565b80516001600160a01b03811681146200023957600080fd5b919050565b634e487b7160e01b600052604160045260246000fd5b60005b838110156200027157818101518382015260200162000257565b50506000910152565b600082601f8301126200028c57600080fd5b81516001600160401b0380821115620002a957620002a96200023e565b604051601f8301601f19908116603f01168101908282118183101715620002d457620002d46200023e565b81604052838152866020858801011115620002ee57600080fd5b6200030184602083016020890162000254565b9695505050505050565b805160ff811681146200023957600080fd5b6000806000806000806000806000806101408b8d0312156200033e57600080fd5b620003498b62000221565b99506200035960208c0162000221565b60408c01519099506001600160401b03808211156200037757600080fd5b620003858e838f016200027a565b995060608d01519150808211156200039c57600080fd5b620003aa8e838f016200027a565b985060808d0151915080821115620003c157600080fd5b620003cf8e838f016200027a565b975060a08d0151915080821115620003e657600080fd5b620003f48e838f016200027a565b965060c08d01519150808211156200040b57600080fd5b620004198e838f016200027a565b955060e08d01519150808211156200043057600080fd5b506200043f8d828e016200027a565b935050620004516101008c0162000221565b9150620004626101208c016200030b565b90509295989b9194979a5092959850565b600181811c908216806200048857607f821691505b602082108103620004a957634e487b7160e01b600052602260045260246000fd5b50919050565b601f821115620004fd57600081815260208120601f850160051c81016020861015620004d85750805b601f850160051c820191505b81811015620004f957828155600101620004e4565b5050505b505050565b81516001600160401b038111156200051e576200051e6200023e565b62000536816200052f845462000473565b84620004af565b602080601f8311600181146200056e5760008415620005555750858301515b600019600386901b1c1916600185901b178555620004f9565b600085815260208120601f198616915b828110156200059f578886015182559484019460019091019084016200057e565b5085821015620005be5787850151600019600388901b60f8161c191681555b5050505050600190811b01905550565b60008151808452620005e881602086016020860162000254565b601f01601f19169290920160200192915050565b608081526000808654620006108162000473565b80608086015260a0600180841660008114620006355760018114620006505762000683565b60ff1985168884015283151560051b88018301955062000683565b8b60005260208060002060005b868110156200067a5781548b82018701529084019082016200065d565b8a018501975050505b505050505082810360208401526200069c8187620005ce565b90508281036040840152620006b28186620005ce565b915050620006cb60608301846001600160a01b03169052565b95945050505050565b61353780620006e46000396000f3fe6080604052600436106101d85760003560e01c80634f6ccce7116101025780639cc7f70811610095578063e345e0bc11610064578063e345e0bc14610500578063e8a3d48514610520578063e985e9c514610535578063f2fde38b1461058257600080fd5b80639cc7f7081461048d578063a22cb465146104ad578063b88d4fde146104cd578063c87b56dd146104e057600080fd5b8063840f7113116100d1578063840f7113146104275780638cb0a511146104475780638da5cb5b1461045a57806395d89b411461047857600080fd5b80634f6ccce7146103b25780636352211e146103d257806370a08231146103f2578063715018a61461041257600080fd5b806323b872dd1161017a57806331b5b9071161014957806331b5b9071461033d5780633e7e86691461035d57806342842e0e1461037f578063476de4a81461039257600080fd5b806323b872dd146102d7578063263f3e7e146102ea5780632f745c591461030a578063310ed7f01461032a57600080fd5b8063095ea7b3116101b6578063095ea7b31461026c57806309c3dd87146102815780630f485c02146102a157806318160ddd146102c257600080fd5b806301ffc9a7146101dd57806306fdde0314610212578063081812fc14610234575b600080fd5b3480156101e957600080fd5b506101fd6101f8366004612c40565b6105a2565b60405190151581526020015b60405180910390f35b34801561021e57600080fd5b50610227610645565b6040516102099190612cad565b34801561024057600080fd5b5061025461024f366004612cc0565b6106d7565b6040516001600160a01b039091168152602001610209565b61027f61027a366004612cf0565b610729565b005b34801561028d57600080fd5b5061022761029c366004612cc0565b61080d565b6102b46102af366004612d1a565b6108f2565b604051908152602001610209565b3480156102ce57600080fd5b506005546102b4565b61027f6102e5366004612d4f565b610907565b3480156102f657600080fd5b506102b4610305366004612cc0565b610912565b34801561031657600080fd5b506102b4610325366004612cf0565b61095a565b61027f610338366004612d7b565b6109fb565b34801561034957600080fd5b5061027f610358366004612e74565b610a06565b34801561036957600080fd5b5060025460405160ff9091168152602001610209565b61027f61038d366004612d4f565b610a78565b34801561039e57600080fd5b506102b46103ad366004612ea9565b610a93565b3480156103be57600080fd5b506102b46103cd366004612cc0565b610b14565b3480156103de57600080fd5b506102546103ed366004612cc0565b610ba5565b3480156103fe57600080fd5b506102b461040d366004612f54565b610c41565b34801561041e57600080fd5b5061027f610cc9565b34801561043357600080fd5b50600854610254906001600160a01b031681565b61027f610455366004612d1a565b610cdd565b34801561046657600080fd5b506009546001600160a01b0316610254565b34801561048457600080fd5b50610227610d9c565b34801561049957600080fd5b506102b46104a8366004612cc0565b610dab565b3480156104b957600080fd5b5061027f6104c8366004612f7d565b610df3565b61027f6104db366004612fb4565b610e39565b3480156104ec57600080fd5b506102276104fb366004612cc0565b610e6b565b34801561050c57600080fd5b506102b461051b366004613030565b610efd565b34801561052c57600080fd5b50610227610f31565b34801561054157600080fd5b506101fd61055036600461305c565b6001600160a01b0391821660009081526007602090815260408083209390941682526002909201909152205460ff1690565b34801561058e57600080fd5b5061027f61059d366004612f54565b61101e565b60006001600160e01b031982166301ffc9a760e01b14806105d357506001600160e01b03198216630354d60560e61b145b806105ee57506001600160e01b031982166380ac58cd60e01b145b8061060957506001600160e01b031982166370b0048160e11b145b8061062457506001600160e01b0319821663780e9d6360e01b145b8061063f57506001600160e01b03198216635b5e139f60e01b145b92915050565b60606000805461065490613086565b80601f016020809104026020016040519081016040528092919081815260200182805461068090613086565b80156106cd5780601f106106a2576101008083540402835291602001916106cd565b820191906000526020600020905b8154815290600101906020018083116106b057829003601f168201915b5050505050905090565b60006106e282611097565b600082815260066020526040902054600580549091908110610706576107066130c0565b60009182526020909120600460069092020101546001600160a01b031692915050565b600061073482610ba5565b9050806001600160a01b0316836001600160a01b0316036107705760405162461bcd60e51b8152600401610767906130d6565b60405180910390fd5b336001600160a01b038216148061078c575061078c8133610550565b6107fe5760405162461bcd60e51b815260206004820152603960248201527f455243333532353a20617070726f76652063616c6c6572206973206e6f74206f60448201527f776e6572206e6f7220617070726f76656420666f7220616c6c000000000000006064820152608401610767565b61080883836110e8565b505050565b6060600061081961117f565b6008549091506001600160a01b031661087957600081511161084a57604051806020016040528060008152506108eb565b806108548461118e565b604051602001610865929190613118565b6040516020818303038152906040526108eb565b600854604051633601bfc560e11b8152600481018590526001600160a01b0390911690636c037f8a906024015b600060405180830381865afa1580156108c3573d6000803e3d6000fd5b505050506040513d6000823e601f3d908101601f191682016040526108eb9190810190613158565b9392505050565b60006108ff848484611221565b949350505050565b61080883838361122e565b600061091d82611097565b600082815260066020526040902054600580549091908110610941576109416130c0565b9060005260206000209060060201600101549050919050565b600061096583610c41565b82106109be5760405162461bcd60e51b815260206004820152602260248201527f455243333532353a206f776e657220696e646578206f7574206f6620626f756e604482015261647360f01b6064820152608401610767565b6001600160a01b03831660009081526007602052604090208054839081106109e8576109e86130c0565b9060005260206000200154905092915050565b610808838383611239565b600b610a128282613215565b506008546040516355f804b360e01b81526001600160a01b03909116906355f804b390610a43908490600401612cad565b600060405180830381600087803b158015610a5d57600080fd5b505af1158015610a71573d6000803e3d6000fd5b5050505050565b61080883838360405180602001604052806000815250610e39565b600f546040516394bf804d60e01b8152600481018690523060248201526000916001600160a01b0316906394bf804d90604401600060405180830381600087803b158015610ae057600080fd5b505af1158015610af4573d6000803e3d6000fd5b505050506000610b08888888888888611244565b98975050505050505050565b6000610b1f60055490565b8210610b795760405162461bcd60e51b815260206004820152602360248201527f455243333532353a20676c6f62616c20696e646578206f7574206f6620626f756044820152626e647360e81b6064820152608401610767565b60058281548110610b8c57610b8c6130c0565b9060005260206000209060060201600001549050919050565b6000610bb082611097565b600082815260066020526040902054600580549091908110610bd457610bd46130c0565b60009182526020909120600360069092020101546001600160a01b0316905080610c3c5760405162461bcd60e51b8152602060048201526019602482015278115490cccd4c8d4e881a5b9d985b1a59081d1bdad95b881251603a1b6044820152606401610767565b919050565b60006001600160a01b038216610cad5760405162461bcd60e51b815260206004820152602b60248201527f455243333532353a2062616c616e636520717565727920666f7220746865207a60448201526a65726f206164647265737360a81b6064820152608401610767565b506001600160a01b031660009081526007602052604090205490565b610cd1611438565b610cdb6000611492565b565b6000610ce884610ba5565b9050806001600160a01b0316836001600160a01b031603610d1b5760405162461bcd60e51b8152600401610767906130d6565b610d2533856114e4565b610d8b5760405162461bcd60e51b815260206004820152603160248201527f455243333532353a20617070726f76652063616c6c6572206973206e6f74206f6044820152701ddb995c881b9bdc88185c1c1c9bdd9959607a1b6064820152608401610767565b610d96848484611566565b50505050565b60606001805461065490613086565b6000610db682611097565b600082815260066020526040902054600580549091908110610dda57610dda6130c0565b9060005260206000209060060201600201549050919050565b610dfd828261169e565b336000908152600e602090815260408083206001600160a01b039590951683526002909401905291909120805460ff1916911515919091179055565b610e4333836114e4565b610e5f5760405162461bcd60e51b8152600401610767906132d5565b610d96848484846116a8565b6060610e7682611097565b6000610e8061117f565b6008549091506001600160a01b0316610ecc576000815111610eb157604051806020016040528060008152506108eb565b80610ebb8461118e565b604051602001610865929190613327565b6008546040516344a5a61760e11b8152600481018590526001600160a01b039091169063894b4c2e906024016108a6565b6000610f0883611097565b5060009182526004602090815260408084206001600160a01b0393909316845291905290205490565b60606000610f3d61117f565b6008549091506001600160a01b0316610f9d576000815111610f6e5760405180602001604052806000815250611018565b80610f783061171b565b604051602001610f89929190613356565b604051602081830303815290604052611018565b600860009054906101000a90046001600160a01b03166001600160a01b031663725fa09c6040518163ffffffff1660e01b8152600401600060405180830381865afa158015610ff0573d6000803e3d6000fd5b505050506040513d6000823e601f3d908101601f191682016040526110189190810190613158565b91505090565b611026611438565b6001600160a01b03811661108b5760405162461bcd60e51b815260206004820152602660248201527f4f776e61626c653a206e6577206f776e657220697320746865207a65726f206160448201526564647265737360d01b6064820152608401610767565b61109481611492565b50565b6110a081611731565b6110945760405162461bcd60e51b8152602060048201526019602482015278115490cccd4c8d4e881a5b9d985b1a59081d1bdad95b881251603a1b6044820152606401610767565b60008181526006602052604090205460058054849290811061110c5761110c6130c0565b6000918252602090912060069091020160040180546001600160a01b0319166001600160a01b039283161790558190831661114682610ba5565b6001600160a01b03167f8c5be1e5ebec7d5bd14f71427d1e84f3dd0314c0f7b2291e5b200ac8c7c3b92560405160405180910390a45050565b6060600b805461065490613086565b6060600061119b8361177d565b600101905060008167ffffffffffffffff8111156111bb576111bb612da7565b6040519080825280601f01601f1916602001820160405280156111e5576020820181803683370190505b5090508181016020015b600019016f181899199a1a9b1b9c1cb0b131b232b360811b600a86061a8153600a85049450846111ef57509392505050565b60006108ff848484611855565b61080883838361188d565b6108088383836118be565b600061124e611438565b60006112586118d4565b9050611266888289896118eb565b6040805160c08101825282815260208082018a90528183018990526001600160a01b038b166060830152600060808301819052835181815291820190935260a082015290506112b481611a15565b6112be8983611b67565b600854604051632108947560e21b81526001600160a01b039091169063842251d4906112f09085908a9060040161339a565b600060405180830381600087803b15801561130a57600080fd5b505af115801561131e573d6000803e3d6000fd5b505060085460405163246a908b60e01b81526001600160a01b03909116925063246a908b9150611354908590899060040161339a565b600060405180830381600087803b15801561136e57600080fd5b505af1158015611382573d6000803e3d6000fd5b5050600854604051630190503b60e61b81526001600160a01b0390911692506364140ec091506113b8908590889060040161339a565b600060405180830381600087803b1580156113d257600080fd5b505af11580156113e6573d6000803e3d6000fd5b505060408051858152602081018c90529081018a90527f84eeb48eca46cea54afc9753345f6038981672ea565f32885420829dfd88aea69250606001905060405180910390a150979650505050505050565b6009546001600160a01b03163314610cdb5760405162461bcd60e51b815260206004820181905260248201527f4f776e61626c653a2063616c6c6572206973206e6f7420746865206f776e65726044820152606401610767565b600980546001600160a01b038381166001600160a01b0319831681179093556040519116919082907f8be0079c531659141344cd1fd0a4f28419497f9722a3daafe3b4186f6b6457e090600090a35050565b6000806114f083610ba5565b9050806001600160a01b0316846001600160a01b0316148061153b57506001600160a01b038082166000908152600760209081526040808320938816835260029093019052205460ff165b806108ff5750836001600160a01b0316611554846106d7565b6001600160a01b031614949350505050565b6001600160a01b0382166115cf5760405162461bcd60e51b815260206004820152602a60248201527f455243333532353a20617070726f76652076616c756520746f20746865207a65604482015269726f206164647265737360b01b6064820152608401610767565b6115d98284611bf0565b61163f57600083815260066020526040902054600580549091908110611601576116016130c0565b60009182526020808320600692909202909101600501805460018101825590835291200180546001600160a01b0319166001600160a01b0384161790555b60008381526004602090815260408083206001600160a01b038616808552908352928190208490555183815285917f621b050de0ad08b51d19b48b3e6df75348c4de6bdd93e81b252ca62e28265b1b91015b60405180910390a3505050565b610dfd8282611cc3565b6116b3848484611cd2565b6116bf84848484611e33565b610d965760405162461bcd60e51b815260206004820152602760248201527f455243333532353a207472616e7366657220746f206e6f6e204552433732315260448201526632b1b2b4bb32b960c91b6064820152608401610767565b606061063f6001600160a01b0383166014611f7f565b6005546000901580159061063f5750600082815260066020526040902054600580548492908110611764576117646130c0565b9060005260206000209060060201600001541492915050565b60008072184f03e93ff9f4daa797ed6e38ed64bf6a1f0160401b83106117bc5772184f03e93ff9f4daa797ed6e38ed64bf6a1f0160401b830492506040015b6d04ee2d6d415b85acef810000000083106117e8576d04ee2d6d415b85acef8100000000830492506020015b662386f26fc10000831061180657662386f26fc10000830492506010015b6305f5e100831061181e576305f5e100830492506008015b612710831061183257612710830492506004015b60648310611844576064830492506002015b600a831061063f5760010192915050565b600061186233858461211b565b61186b846121ab565b9050611882838261187b87610912565b60006118eb565b6108eb8482846121b5565b61189733826114e4565b6118b35760405162461bcd60e51b8152600401610767906132d5565b610808838383611cd2565b6118c933848361211b565b6108088383836121b5565b60006118e4600380546001019055565b5060035490565b6001600160a01b03841661194b5760405162461bcd60e51b815260206004820152602160248201527f455243333532353a206d696e7420746f20746865207a65726f206164647265736044820152607360f81b6064820152608401610767565b826000036119a55760405162461bcd60e51b815260206004820152602160248201527f455243333532353a2063616e6e6f74206d696e74207a65726f20746f6b656e496044820152601960fa1b6064820152608401610767565b6119ae83611731565b156119fb5760405162461bcd60e51b815260206004820152601d60248201527f455243333532353a20746f6b656e20616c7265616479206d696e7465640000006044820152606401610767565b611a068484846124ae565b611a108382612574565b610d96565b600c805482516000908152600d6020908152604080832084905560018401855593909152835160069092027fdf6966c971051c3d54ec59162606531493a51404a002842f56009d7e5cf4a8c78101928355818501517fdf6966c971051c3d54ec59162606531493a51404a002842f56009d7e5cf4a8c8820155928401517fdf6966c971051c3d54ec59162606531493a51404a002842f56009d7e5cf4a8c984015560608401517fdf6966c971051c3d54ec59162606531493a51404a002842f56009d7e5cf4a8ca840180546001600160a01b039283166001600160a01b03199182161790915560808601517fdf6966c971051c3d54ec59162606531493a51404a002842f56009d7e5cf4a8cb8601805491909316911617905560a084015180518594610d96937fdf6966c971051c3d54ec59162606531493a51404a002842f56009d7e5cf4a8cc909101920190612b96565b6000818152600d6020526040902054600c80548492908110611b8b57611b8b6130c0565b6000918252602080832060069290920290910160030180546001600160a01b0319166001600160a01b03948516179055939091168152600e80845260408083208054858552600182810188529285208190559286529082018155825292902090910155565b600081815260066020526040812054600580548392908110611c1457611c146130c0565b6000918252602082206005600690920201015491505b81811015611cb857600084815260066020526040902054600580546001600160a01b03881692908110611c5f57611c5f6130c0565b90600052602060002090600602016005018281548110611c8157611c816130c0565b6000918252602090912001546001600160a01b031603611ca65760019250505061063f565b80611cb0816133c9565b915050611c2a565b506000949350505050565b611cce3383836125f9565b5050565b826001600160a01b0316611ce582610ba5565b6001600160a01b031614611d475760405162461bcd60e51b8152602060048201526024808201527f455243333532353a207472616e736665722066726f6d20696e76616c6964206f6044820152633bb732b960e11b6064820152608401610767565b6001600160a01b038216611dab5760405162461bcd60e51b815260206004820152602560248201527f455243333532353a207472616e7366657220746f20746865207a65726f206164604482015264647265737360d81b6064820152608401610767565b6000611db682610912565b90506000611dc383610dab565b9050611dd06000846110e8565b611dd9836126c3565b611de3858461276e565b611ded848461288f565b82846001600160a01b0316866001600160a01b03167fddf252ad1be2c89b69c2b068fc378daa952ba7f163c4a11628f55a4df523b3ef60405160405180910390a4610a71565b60006001600160a01b0384163b15611f7457604051630a85bd0160e11b81526001600160a01b0385169063150b7a0290611e779033908990889088906004016133e2565b6020604051808303816000875af1925050508015611eb2575060408051601f3d908101601f19168201909252611eaf9181019061341f565b60015b611f5a573d808015611ee0576040519150601f19603f3d011682016040523d82523d6000602084013e611ee5565b606091505b508051600003611f525760405162461bcd60e51b815260206004820152603260248201527f4552433732313a207472616e7366657220746f206e6f6e20455243373231526560448201527131b2b4bb32b91034b6b83632b6b2b73a32b960711b6064820152608401610767565b805181602001fd5b6001600160e01b031916630a85bd0160e11b1490506108ff565b506001949350505050565b60606000611f8e83600261343c565b611f99906002613453565b67ffffffffffffffff811115611fb157611fb1612da7565b6040519080825280601f01601f191660200182016040528015611fdb576020820181803683370190505b509050600360fc1b81600081518110611ff657611ff66130c0565b60200101906001600160f81b031916908160001a905350600f60fb1b81600181518110612025576120256130c0565b60200101906001600160f81b031916908160001a905350600061204984600261343c565b612054906001613453565b90505b60018111156120cc576f181899199a1a9b1b9c1cb0b131b232b360811b85600f1660108110612088576120886130c0565b1a60f81b82828151811061209e5761209e6130c0565b60200101906001600160f81b031916908160001a90535060049490941c936120c581613466565b9050612057565b5083156108eb5760405162461bcd60e51b815260206004820181905260248201527f537472696e67733a20686578206c656e67746820696e73756666696369656e746044820152606401610767565b60006121278385610efd565b905061213384846114e4565b15801561214257506000198114155b15610d9657818110156121975760405162461bcd60e51b815260206004820152601f60248201527f455243333532353a20696e73756666696369656e7420616c6c6f77616e6365006044820152606401610767565b610d9683856121a6858561347d565b611566565b600061063f6118d4565b6121be83611731565b61221a5760405162461bcd60e51b815260206004820152602760248201527f455243333532353a207472616e736665722066726f6d20696e76616c696420746044820152661bdad95b88125160ca1b6064820152608401610767565b61222382611731565b61227d5760405162461bcd60e51b815260206004820152602560248201527f455243333532353a207472616e7366657220746f20696e76616c696420746f6b604482015264195b88125160da1b6064820152608401610767565b6000838152600660205260408120546005805490919081106122a1576122a16130c0565b90600052602060002090600602019050600060056006600086815260200190815260200160002054815481106122d9576122d96130c0565b9060005260206000209060060201905082826002015410156123505760405162461bcd60e51b815260206004820152602a60248201527f455243333532353a20696e73756666696369656e742062616c616e636520666f60448201526939103a3930b739b332b960b11b6064820152608401610767565b80600101548260010154146123be5760405162461bcd60e51b815260206004820152602e60248201527f455243333532353a207472616e7366657220746f20746f6b656e20776974682060448201526d191a5999995c995b9d081cdb1bdd60921b6064820152608401610767565b828260020160008282546123d2919061347d565b92505081905550828160020160008282546123ed9190613453565b9091555050604051838152849086907f0b2aac84f3ec956911fd78eae5311062972ff949f38412e8da39069d9f068cc69060200160405180910390a361244485858560405180602001604052806000815250612918565b610a715760405162461bcd60e51b815260206004820152602d60248201527f455243333532353a207472616e736665722072656a656374656420627920455260448201526c21999a991aa932b1b2b4bb32b960991b6064820152608401610767565b505050505050565b6040805160c081018252838152602080820184905260008284018190526001600160a01b038716606084015260808301819052835181815291820190935260a082015290506124fc81612a4b565b612506848461288f565b60405183906001600160a01b038616906000907fddf252ad1be2c89b69c2b068fc378daa952ba7f163c4a11628f55a4df523b3ef908290a4816000847fe4f48c240d3b994948aa54f3e2f5fca59263dfe1d52b6e4cf39a5d249b5ccb6560405160405180910390a450505050565b600082815260066020526040902054600580548392908110612598576125986130c0565b906000526020600020906006020160020160008282546125b89190613453565b909155505060405181815282906000907f0b2aac84f3ec956911fd78eae5311062972ff949f38412e8da39069d9f068cc69060200160405180910390a35050565b816001600160a01b0316836001600160a01b03160361265a5760405162461bcd60e51b815260206004820152601a60248201527f455243333532353a20617070726f766520746f2063616c6c65720000000000006044820152606401610767565b6001600160a01b0383811660008181526007602090815260408083209487168084526002909501825291829020805460ff191686151590811790915591519182527f17307eab39ab6107e8899845ad3d59bd9653f200f220920489ca2b5937696c319101611691565b6000818152600660205260408120546005805490919081106126e7576126e76130c0565b600091825260208220600560069092020190810154909250905b8181101561275f576000836005018281548110612720576127206130c0565b60009182526020808320909101548783526004825260408084206001600160a01b03909216845291528120555080612757816133c9565b915050612701565b50610808600583016000612bfb565b600081815260066020526040812054600580549091908110612792576127926130c0565b6000918252602080832060069290920290910160030180546001600160a01b0319166001600160a01b03948516179055918416815260079091526040812080549091906127e19060019061347d565b905060008260000182815481106127fa576127fa6130c0565b90600052602060002001549050600083600101600086815260200190815260200160002054905081846000018281548110612837576128376130c0565b6000918252602080832090910192909255838152600186019091526040808220839055868252812055835484908061287157612871613490565b60019003818190600052602060002001600090559055505050505050565b6000818152600660205260409020546005805484929081106128b3576128b36130c0565b6000918252602080832060069290920290910160030180546001600160a01b0319166001600160a01b03948516179055939091168152600780845260408083208054858552600182810188529285208190559286529082018155825292902090910155565b60008061292485610ba5565b90506001600160a01b0381163b151580156129a857506040516301ffc9a760e01b8152629ce20b60e01b60048201526001600160a01b038216906301ffc9a790602401602060405180830381865afa158015612984573d6000803e3d6000fd5b505050506040513d601f19601f820116820180604052508101906129a891906134a6565b15612a4157604051629ce20b60e01b81526000906001600160a01b03831690629ce20b906129e29033908b908b908b908b906004016134c3565b6020604051808303816000875af1158015612a01573d6000803e3d6000fd5b505050506040513d601f19601f82011682018060405250810190612a25919061341f565b6001600160e01b031916629ce20b60e01b1492506108ff915050565b60019150506108ff565b600580548251600090815260066020818152604080842085905560018501865594909252845192027f036b6384b5eca791c62761152d0c79bb0604c104a5fb6f4eb0703f3154bb3db08101928355818501517f036b6384b5eca791c62761152d0c79bb0604c104a5fb6f4eb0703f3154bb3db1820155928401517f036b6384b5eca791c62761152d0c79bb0604c104a5fb6f4eb0703f3154bb3db284015560608401517f036b6384b5eca791c62761152d0c79bb0604c104a5fb6f4eb0703f3154bb3db3840180546001600160a01b039283166001600160a01b03199182161790915560808601517f036b6384b5eca791c62761152d0c79bb0604c104a5fb6f4eb0703f3154bb3db48601805491909316911617905560a084015180518594610d96937f036b6384b5eca791c62761152d0c79bb0604c104a5fb6f4eb0703f3154bb3db59091019201905b828054828255906000526020600020908101928215612beb579160200282015b82811115612beb57825182546001600160a01b0319166001600160a01b03909116178255602090920191600190910190612bb6565b50612bf7929150612c15565b5090565b508054600082559060005260206000209081019061109491905b5b80821115612bf75760008155600101612c16565b6001600160e01b03198116811461109457600080fd5b600060208284031215612c5257600080fd5b81356108eb81612c2a565b60005b83811015612c78578181015183820152602001612c60565b50506000910152565b60008151808452612c99816020860160208601612c5d565b601f01601f19169290920160200192915050565b6020815260006108eb6020830184612c81565b600060208284031215612cd257600080fd5b5035919050565b80356001600160a01b0381168114610c3c57600080fd5b60008060408385031215612d0357600080fd5b612d0c83612cd9565b946020939093013593505050565b600080600060608486031215612d2f57600080fd5b83359250612d3f60208501612cd9565b9150604084013590509250925092565b600080600060608486031215612d6457600080fd5b612d6d84612cd9565b9250612d3f60208501612cd9565b600080600060608486031215612d9057600080fd5b505081359360208301359350604090920135919050565b634e487b7160e01b600052604160045260246000fd5b604051601f8201601f1916810167ffffffffffffffff81118282101715612de657612de6612da7565b604052919050565b600067ffffffffffffffff821115612e0857612e08612da7565b50601f01601f191660200190565b6000612e29612e2484612dee565b612dbd565b9050828152838383011115612e3d57600080fd5b828260208301376000602084830101529392505050565b600082601f830112612e6557600080fd5b6108eb83833560208501612e16565b600060208284031215612e8657600080fd5b813567ffffffffffffffff811115612e9d57600080fd5b6108ff84828501612e54565b60008060008060008060c08789031215612ec257600080fd5b612ecb87612cd9565b95506020870135945060408701359350606087013567ffffffffffffffff80821115612ef657600080fd5b612f028a838b01612e54565b94506080890135915080821115612f1857600080fd5b612f248a838b01612e54565b935060a0890135915080821115612f3a57600080fd5b50612f4789828a01612e54565b9150509295509295509295565b600060208284031215612f6657600080fd5b6108eb82612cd9565b801515811461109457600080fd5b60008060408385031215612f9057600080fd5b612f9983612cd9565b91506020830135612fa981612f6f565b809150509250929050565b60008060008060808587031215612fca57600080fd5b612fd385612cd9565b9350612fe160208601612cd9565b925060408501359150606085013567ffffffffffffffff81111561300457600080fd5b8501601f8101871361301557600080fd5b61302487823560208401612e16565b91505092959194509250565b6000806040838503121561304357600080fd5b8235915061305360208401612cd9565b90509250929050565b6000806040838503121561306f57600080fd5b61307883612cd9565b915061305360208401612cd9565b600181811c9082168061309a57607f821691505b6020821081036130ba57634e487b7160e01b600052602260045260246000fd5b50919050565b634e487b7160e01b600052603260045260246000fd5b60208082526022908201527f455243333532353a20617070726f76616c20746f2063757272656e74206f776e60408201526132b960f11b606082015260800190565b6000835161312a818460208801612c5d565b64736c6f742f60d81b908301908152835161314c816005840160208801612c5d565b01600501949350505050565b60006020828403121561316a57600080fd5b815167ffffffffffffffff81111561318157600080fd5b8201601f8101841361319257600080fd5b80516131a0612e2482612dee565b8181528560208385010111156131b557600080fd5b6131c6826020830160208601612c5d565b95945050505050565b601f82111561080857600081815260208120601f850160051c810160208610156131f65750805b601f850160051c820191505b818110156124a657828155600101613202565b815167ffffffffffffffff81111561322f5761322f612da7565b6132438161323d8454613086565b846131cf565b602080601f83116001811461327857600084156132605750858301515b600019600386901b1c1916600185901b1785556124a6565b600085815260208120601f198616915b828110156132a757888601518255948401946001909101908401613288565b50858210156132c55787850151600019600388901b60f8161c191681555b5050505050600190811b01905550565b60208082526032908201527f455243333532353a207472616e736665722063616c6c6572206973206e6f74206040820152711bdddb995c881b9bdc88185c1c1c9bdd995960721b606082015260800190565b60008351613339818460208801612c5d565b83519083019061334d818360208801612c5d565b01949350505050565b60008351613368818460208801612c5d565b68636f6e74726163742f60b81b908301908152835161338e816009840160208801612c5d565b01600901949350505050565b8281526040602082015260006108ff6040830184612c81565b634e487b7160e01b600052601160045260246000fd5b6000600182016133db576133db6133b3565b5060010190565b6001600160a01b038581168252841660208201526040810183905260806060820181905260009061341590830184612c81565b9695505050505050565b60006020828403121561343157600080fd5b81516108eb81612c2a565b808202811582820484141761063f5761063f6133b3565b8082018082111561063f5761063f6133b3565b600081613475576134756133b3565b506000190190565b8181038181111561063f5761063f6133b3565b634e487b7160e01b600052603160045260246000fd5b6000602082840312156134b857600080fd5b81516108eb81612f6f565b60018060a01b038616815284602082015283604082015282606082015260a0608082015260006134f660a0830184612c81565b97965050505050505056fea2646970667358221220db840e7f03ae53440b78b1c0d02607f1bc003dd565e5fe8c3d8312f168b9fb9c64736f6c6343000811003360806040523480156200001157600080fd5b5060405162001a4638038062001a46833981016040819052620000349162000150565b600162000042858262000292565b50600262000051848262000292565b50600362000060838262000292565b50600080546001600160a01b0319166001600160a01b0392909216919091179055506200035e915050565b634e487b7160e01b600052604160045260246000fd5b600082601f830112620000b357600080fd5b81516001600160401b0380821115620000d057620000d06200008b565b604051601f8301601f19908116603f01168101908282118183101715620000fb57620000fb6200008b565b816040528381526020925086838588010111156200011857600080fd5b600091505b838210156200013c57858201830151818301840152908201906200011d565b600093810190920192909252949350505050565b600080600080608085870312156200016757600080fd5b84516001600160401b03808211156200017f57600080fd5b6200018d88838901620000a1565b95506020870151915080821115620001a457600080fd5b620001b288838901620000a1565b94506040870151915080821115620001c957600080fd5b50620001d887828801620000a1565b606087015190935090506001600160a01b0381168114620001f857600080fd5b939692955090935050565b600181811c908216806200021857607f821691505b6020821081036200023957634e487b7160e01b600052602260045260246000fd5b50919050565b601f8211156200028d57600081815260208120601f850160051c81016020861015620002685750805b601f850160051c820191505b81811015620002895782815560010162000274565b5050505b505050565b81516001600160401b03811115620002ae57620002ae6200008b565b620002c681620002bf845462000203565b846200023f565b602080601f831160018114620002fe5760008415620002e55750858301515b600019600386901b1c1916600185901b17855562000289565b600085815260208120601f198616915b828110156200032f578886015182559484019460019091019084016200030e565b50858210156200034e5787850151600019600388901b60f8161c191681555b5050505050600190811b01905550565b6116d8806200036e6000396000f3fe608060405234801561001057600080fd5b506004361061007d5760003560e01c80636c037f8a1161005b5780636c037f8a146100bd578063725fa09c146100e6578063842251d4146100ee578063894b4c2e1461010157600080fd5b8063246a908b1461008257806355f804b31461009757806364140ec0146100aa575b600080fd5b610095610090366004610d53565b610114565b005b6100956100a5366004610d9a565b610131565b6100956100b8366004610d53565b610141565b6100d06100cb366004610dd7565b610159565b6040516100dd9190610e14565b60405180910390f35b6100d06101cf565b6100956100fc366004610d53565b6102f4565b6100d061010f366004610dd7565b61030c565b600082815260046020526040902061012c8282610ecf565b505050565b600161013d8282610ecf565b5050565b600082815260056020526040902061012c8282610ecf565b60606101a961016783610416565b6101708461048f565b610179856104c1565b61018286610543565b6040516020016101959493929190610fab565b6040516020818303038152906040526105c5565b6040516020016101b99190611079565b6040516020818303038152906040529050919050565b606060003390506102cf816001600160a01b03166306fdde036040518163ffffffff1660e01b8152600401600060405180830381865afa158015610217573d6000803e3d6000fd5b505050506040513d6000823e601f3d908101601f1916820160405261023f91908101906110be565b610247610718565b61024f6107aa565b6102bc856001600160a01b0316633e7e86696040518163ffffffff1660e01b8152600401602060405180830381865afa158015610290573d6000803e3d6000fd5b505050506040513d601f19601f820116820180604052508101906102b49190611135565b60ff166107df565b6040516020016101959493929190611158565b6040516020016102df9190611079565b60405160208183030381529060405291505090565b600082815260066020526040902061012c8282610ecf565b6060336103ef61031b84610872565b610324856108f4565b61032d86610996565b604051631398fee160e31b8152600481018890526103a0906001600160a01b03871690639cc7f708906024015b602060405180830381865afa158015610377573d6000803e3d6000fd5b505050506040513d601f19601f8201168201806040525081019061039b919061122b565b6107df565b60405163131f9f3f60e11b8152600481018990526103d1906001600160a01b0388169063263f3e7e9060240161035a565b6103da896109cb565b60405160200161019596959493929190611244565b6040516020016103ff9190611079565b604051602081830303815290604052915050919050565b60005460405163ec327a2160e01b8152600481018390526060916001600160a01b03169063ec327a21906024015b600060405180830381865afa158015610461573d6000803e3d6000fd5b505050506040513d6000823e601f3d908101601f1916820160405261048991908101906110be565b92915050565b60005460405163bc74ebb960e01b8152600481018390526060916001600160a01b03169063bc74ebb990602401610444565b6000546040516309c3dd8760e01b8152600481018390526060916001600160a01b0316906309c3dd8790602401600060405180830381865afa15801561050b573d6000803e3d6000fd5b505050506040513d6000823e601f3d908101601f1916820160405261053391908101906110be565b6040516020016101b9919061136a565b6000546040516309c3dd8760e01b8152600481018390526060916001600160a01b0316906309c3dd8790602401600060405180830381865afa15801561058d573d6000803e3d6000fd5b505050506040513d6000823e601f3d908101601f191682016040526105b591908101906110be565b6040516020016101b99190611394565b606081516000036105e457505060408051602081019091526000815290565b6000604051806060016040528060408152602001611663604091399050600060038451600261061391906113de565b61061d91906113f1565b610628906004611413565b67ffffffffffffffff81111561064057610640610c8e565b6040519080825280601f01601f19166020018201604052801561066a576020820181803683370190505b509050600182016020820185865187015b808210156106d6576003820191508151603f8160121c168501518453600184019350603f81600c1c168501518453600184019350603f8160061c168501518453600184019350603f811685015184535060018301925061067b565b50506003865106600181146106f257600281146107055761070d565b603d6001830353603d600283035361070d565b603d60018303535b509195945050505050565b60606002805461072790610e47565b80601f016020809104026020016040519081016040528092919081815260200182805461075390610e47565b80156107a05780601f10610775576101008083540402835291602001916107a0565b820191906000526020600020905b81548152906001019060200180831161078357829003601f168201915b5050505050905090565b606060016107b7336109f9565b60036040516020016107cb9392919061149d565b604051602081830303815290604052905090565b606060006107ec83610a0f565b600101905060008167ffffffffffffffff81111561080c5761080c610c8e565b6040519080825280601f01601f191660200182016040528015610836576020820181803683370190505b5090508181016020015b600019016f181899199a1a9b1b9c1cb0b131b232b360811b600a86061a8153600a850494508461084057509392505050565b6060336001600160a01b03166306fdde036040518163ffffffff1660e01b8152600401600060405180830381865afa1580156108b2573d6000803e3d6000fd5b505050506040513d6000823e601f3d908101601f191682016040526108da91908101906110be565b6108e3836107df565b6040516020016101b99291906114f1565b600081815260046020526040902080546060919061091190610e47565b80601f016020809104026020016040519081016040528092919081815260200182805461093d90610e47565b801561098a5780601f1061095f5761010080835404028352916020019161098a565b820191906000526020600020905b81548152906001019060200180831161096d57829003601f168201915b50505050509050919050565b606060016109a3306109f9565b6000848152600660209081526040808320600583529281902090516101b9959493920161152e565b606060016109d8336109f9565b60008481526006602090815260409182902091516101b994939291016115a0565b60606104896001600160a01b0383166014610ae7565b60008072184f03e93ff9f4daa797ed6e38ed64bf6a1f0160401b8310610a4e5772184f03e93ff9f4daa797ed6e38ed64bf6a1f0160401b830492506040015b6d04ee2d6d415b85acef81000000008310610a7a576d04ee2d6d415b85acef8100000000830492506020015b662386f26fc100008310610a9857662386f26fc10000830492506010015b6305f5e1008310610ab0576305f5e100830492506008015b6127108310610ac457612710830492506004015b60648310610ad6576064830492506002015b600a83106104895760010192915050565b60606000610af6836002611413565b610b019060026113de565b67ffffffffffffffff811115610b1957610b19610c8e565b6040519080825280601f01601f191660200182016040528015610b43576020820181803683370190505b509050600360fc1b81600081518110610b5e57610b5e611635565b60200101906001600160f81b031916908160001a905350600f60fb1b81600181518110610b8d57610b8d611635565b60200101906001600160f81b031916908160001a9053506000610bb1846002611413565b610bbc9060016113de565b90505b6001811115610c34576f181899199a1a9b1b9c1cb0b131b232b360811b85600f1660108110610bf057610bf0611635565b1a60f81b828281518110610c0657610c06611635565b60200101906001600160f81b031916908160001a90535060049490941c93610c2d8161164b565b9050610bbf565b508315610c875760405162461bcd60e51b815260206004820181905260248201527f537472696e67733a20686578206c656e67746820696e73756666696369656e74604482015260640160405180910390fd5b9392505050565b634e487b7160e01b600052604160045260246000fd5b604051601f8201601f1916810167ffffffffffffffff81118282101715610ccd57610ccd610c8e565b604052919050565b600067ffffffffffffffff821115610cef57610cef610c8e565b50601f01601f191660200190565b600082601f830112610d0e57600080fd5b8135610d21610d1c82610cd5565b610ca4565b818152846020838601011115610d3657600080fd5b816020850160208301376000918101602001919091529392505050565b60008060408385031215610d6657600080fd5b82359150602083013567ffffffffffffffff811115610d8457600080fd5b610d9085828601610cfd565b9150509250929050565b600060208284031215610dac57600080fd5b813567ffffffffffffffff811115610dc357600080fd5b610dcf84828501610cfd565b949350505050565b600060208284031215610de957600080fd5b5035919050565b60005b83811015610e0b578181015183820152602001610df3565b50506000910152565b6020815260008251806020840152610e33816040850160208701610df0565b601f01601f19169190910160400192915050565b600181811c90821680610e5b57607f821691505b602082108103610e7b57634e487b7160e01b600052602260045260246000fd5b50919050565b601f82111561012c57600081815260208120601f850160051c81016020861015610ea85750805b601f850160051c820191505b81811015610ec757828155600101610eb4565b505050505050565b815167ffffffffffffffff811115610ee957610ee9610c8e565b610efd81610ef78454610e47565b84610e81565b602080601f831160018114610f325760008415610f1a5750858301515b600019600386901b1c1916600185901b178555610ec7565b600085815260208120601f198616915b82811015610f6157888601518255948401946001909101908401610f42565b5085821015610f7f5787850151600019600388901b60f8161c191681555b5050505050600190811b01905550565b60008151610fa1818560208601610df0565b9290920192915050565b683d913730b6b2911d1160b91b81528451600090610fd0816009850160208a01610df0565b701116113232b9b1b934b83a34b7b7111d1160791b600991840191820152855161100181601a840160208a01610df0565b6a11161134b6b0b3b2911d1160a91b601a9290910191820152845161102d816025840160208901610df0565b6e111611383937b832b93a34b2b9911d60891b60259290910191820152835161105d816034840160208801610df0565b607d60f81b603492909101918201526035019695505050505050565b7f646174613a6170706c69636174696f6e2f6a736f6e3b6261736536342c0000008152600082516110b181601d850160208701610df0565b91909101601d0192915050565b6000602082840312156110d057600080fd5b815167ffffffffffffffff8111156110e757600080fd5b8201601f810184136110f857600080fd5b8051611106610d1c82610cd5565b81815285602083850101111561111b57600080fd5b61112c826020830160208601610df0565b95945050505050565b60006020828403121561114757600080fd5b815160ff81168114610c8757600080fd5b683d913730b6b2911d1160b91b8152845160009061117d816009850160208a01610df0565b701116113232b9b1b934b83a34b7b7111d1160791b60099184019182015285516111ae81601a840160208a01610df0565b6a11161134b6b0b3b2911d1160a91b601a929091019182015284516111da816025840160208901610df0565b721116113b30b63ab2a232b1b4b6b0b639911d1160691b60259290910191820152835161120e816038840160208801610df0565b61227d60f01b60389290910191820152603a019695505050505050565b60006020828403121561123d57600080fd5b5051919050565b683d913730b6b2911d1160b91b81528651600090611269816009850160208c01610df0565b701116113232b9b1b934b83a34b7b7111d1160791b600991840191820152875161129a81601a840160208c01610df0565b6a11161134b6b0b3b2911d1160a91b601a929091019182015286516112c6816025840160208b01610df0565b6c1116113130b630b731b2911d1160991b6025929091019182015285516112f4816032840160208a01610df0565b6911161139b637ba111d1160b11b60329290910191820152845161131f81603c840160208901610df0565b61135c61134f611349603c848601016e111611383937b832b93a34b2b9911d60891b8152600f0190565b87610f8f565b607d60f81b815260010190565b9a9950505050505050505050565b6000825161137c818460208701610df0565b652f696d61676560d01b920191825250600601919050565b600082516113a6818460208701610df0565b6f17b83937b832b93a34b2b9973539b7b760811b920191825250601001919050565b634e487b7160e01b600052601160045260246000fd5b80820180821115610489576104896113c8565b60008261140e57634e487b7160e01b600052601260045260246000fd5b500490565b8082028115828204841417610489576104896113c8565b6000815461143781610e47565b6001828116801561144f576001811461146457611493565b60ff1984168752821515830287019450611493565b8560005260208060002060005b8581101561148a5781548a820152908401908201611471565b50505082870194505b5050505092915050565b60006114a9828661142a565b68636f6e74726163742f60b81b815284516114cb816009840160208901610df0565b602f60f81b600992909101918201526114e7600a82018561142a565b9695505050505050565b60008351611503818460208801610df0565b61202360f01b9083019081528351611522816002840160208801610df0565b01600201949350505050565b600061153a828761142a565b692f636f6e74726163742f60b01b8152855161155d81600a840160208a01610df0565b662f746f6b656e2f60c81b600a929091019182015261157f601182018661142a565b9050602f60f81b8152611595600182018561142a565b979650505050505050565b6e7b70726f706572746965735f75726960881b815260006115c4600f83018661142a565b68636f6e74726163742f60b81b815284516115e6816009840160208901610df0565b662f746f6b656e2f60c81b60099290910191820152611608601082018561142a565b6f17b83937b832b93a34b2b9973539b7b760811b8152607d60f81b60108201526011019695505050505050565b634e487b7160e01b600052603260045260246000fd5b60008161165a5761165a6113c8565b50600019019056fe4142434445464748494a4b4c4d4e4f505152535455565758595a6162636465666768696a6b6c6d6e6f707172737475767778797a303132333435363738392b2fa2646970667358221220f622a95ca579ad3e624f36a75282d2e2e7eb7abc812f4a74518e120350c886ff64736f6c63430008110033",
  "linkReferences": {},
  "deployedLinkReferences": {}
}