{
  "_format": "hh-sol-artifact-1",
  "contractName": "SpendCredit",
  "sourceName": "contracts/SpendCredit.sol",
  "abi": [
    {
      "inputs": [
        {
          "internalType": "address",
          "name": "revenueAcct_",
          "type": "address"
        },
        {
          "internalType": "address",
          "name": "serviceAdmin_",
          "type": "address"
        },
        {
          "internalType": "address",
          "name": "slotRegistryContract_",
          "type": "address"
        },
        {
          "internalType": "address",
          "name": "underlyingContract_",
          "type": "address"
        },
        {
          "internalType": "address",
          "name": "mktAdmin_",
          "type": "address"
        },
        {
          "internalType": "uint256",
          "name": "defaultSlot_",
          "type": "uint256"
        },
        {
          "internalType": "string",
          "name": "name_",
          "type": "string"
        },
        {
          "internalType": "string",
          "name": "symbol_",
          "type": "string"
        },
        {
          "internalType": "string",
          "name": "baseuri_",
          "type": "string"
        },
        {
          "internalType": "string",
          "name": "contractDescription_",
          "type": "string"
        },
        {
          "internalType": "string",
          "name": "contractImage_",
          "type": "string"
        },
        {
          "internalType": "string",
          "name": "valueToken_",
          "type": "string"
        },
        {
          "internalType": "uint8",
          "name": "decimals_",
          "type": "uint8"
        }
      ],
      "stateMutability": "nonpayable",
      "type": "constructor"
    },
    {
      "anonymous": false,
      "inputs": [
        {
          "indexed": true,
          "internalType": "address",
          "name": "_owner",
          "type": "address"
        },
        {
          "indexed": true,
          "internalType": "address",
          "name": "_approved",
          "type": "address"
        },
        {
          "indexed": true,
          "internalType": "uint256",
          "name": "_tokenId",
          "type": "uint256"
        }
      ],
      "name": "Approval",
      "type": "event"
    },
    {
      "anonymous": false,
      "inputs": [
        {
          "indexed": true,
          "internalType": "address",
          "name": "_owner",
          "type": "address"
        },
        {
          "indexed": true,
          "internalType": "address",
          "name": "_operator",
          "type": "address"
        },
        {
          "indexed": false,
          "internalType": "bool",
          "name": "_approved",
          "type": "bool"
        }
      ],
      "name": "ApprovalForAll",
      "type": "event"
    },
    {
      "anonymous": false,
      "inputs": [
        {
          "indexed": true,
          "internalType": "uint256",
          "name": "_tokenId",
          "type": "uint256"
        },
        {
          "indexed": true,
          "internalType": "address",
          "name": "_operator",
          "type": "address"
        },
        {
          "indexed": false,
          "internalType": "uint256",
          "name": "_value",
          "type": "uint256"
        }
      ],
      "name": "ApprovalValue",
      "type": "event"
    },
    {
      "anonymous": false,
      "inputs": [
        {
          "indexed": false,
          "internalType": "address",
          "name": "contractAddress",
          "type": "address"
        }
      ],
      "name": "MetadataDescriptor",
      "type": "event"
    },
    {
      "anonymous": false,
      "inputs": [
        {
          "indexed": false,
          "internalType": "uint256",
          "name": "tokenId",
          "type": "uint256"
        },
        {
          "indexed": false,
          "internalType": "uint256",
          "name": "slot",
          "type": "uint256"
        },
        {
          "indexed": false,
          "internalType": "uint256",
          "name": "value",
          "type": "uint256"
        }
      ],
      "name": "MintNetworkServiceToken",
      "type": "event"
    },
    {
      "anonymous": false,
      "inputs": [
        {
          "indexed": false,
          "internalType": "uint256",
          "name": "tokenId",
          "type": "uint256"
        },
        {
          "indexed": false,
          "internalType": "uint256",
          "name": "slot",
          "type": "uint256"
        },
        {
          "indexed": false,
          "internalType": "uint256",
          "name": "value",
          "type": "uint256"
        }
      ],
      "name": "MintServiceToken",
      "type": "event"
    },
    {
      "anonymous": false,
      "inputs": [
        {
          "indexed": false,
          "internalType": "uint256",
          "name": "newTokenId",
          "type": "uint256"
        },
        {
          "indexed": false,
          "internalType": "uint256",
          "name": "slot",
          "type": "uint256"
        },
        {
          "indexed": false,
          "internalType": "uint256",
          "name": "value",
          "type": "uint256"
        }
      ],
      "name": "MintServiceTokenToAddress",
      "type": "event"
    },
    {
      "anonymous": false,
      "inputs": [
        {
          "indexed": false,
          "internalType": "uint256",
          "name": "tokenId",
          "type": "uint256"
        },
        {
          "indexed": false,
          "internalType": "uint256",
          "name": "slot",
          "type": "uint256"
        },
        {
          "indexed": false,
          "internalType": "uint256",
          "name": "value",
          "type": "uint256"
        }
      ],
      "name": "MintSpendToken",
      "type": "event"
    },
    {
      "anonymous": false,
      "inputs": [
        {
          "indexed": true,
          "internalType": "bytes32",
          "name": "role",
          "type": "bytes32"
        },
        {
          "indexed": true,
          "internalType": "bytes32",
          "name": "previousAdminRole",
          "type": "bytes32"
        },
        {
          "indexed": true,
          "internalType": "bytes32",
          "name": "newAdminRole",
          "type": "bytes32"
        }
      ],
      "name": "RoleAdminChanged",
      "type": "event"
    },
    {
      "anonymous": false,
      "inputs": [
        {
          "indexed": true,
          "internalType": "bytes32",
          "name": "role",
          "type": "bytes32"
        },
        {
          "indexed": true,
          "internalType": "address",
          "name": "account",
          "type": "address"
        },
        {
          "indexed": true,
          "internalType": "address",
          "name": "sender",
          "type": "address"
        }
      ],
      "name": "RoleGranted",
      "type": "event"
    },
    {
      "anonymous": false,
      "inputs": [
        {
          "indexed": true,
          "internalType": "bytes32",
          "name": "role",
          "type": "bytes32"
        },
        {
          "indexed": true,
          "internalType": "address",
          "name": "account",
          "type": "address"
        },
        {
          "indexed": true,
          "internalType": "address",
          "name": "sender",
          "type": "address"
        }
      ],
      "name": "RoleRevoked",
      "type": "event"
    },
    {
      "anonymous": false,
      "inputs": [
        {
          "indexed": true,
          "internalType": "address",
          "name": "metadataDescriptor",
          "type": "address"
        }
      ],
      "name": "SetMetadataDescriptor",
      "type": "event"
    },
    {
      "anonymous": false,
      "inputs": [
        {
          "indexed": true,
          "internalType": "uint256",
          "name": "_tokenId",
          "type": "uint256"
        },
        {
          "indexed": true,
          "internalType": "uint256",
          "name": "_oldSlot",
          "type": "uint256"
        },
        {
          "indexed": true,
          "internalType": "uint256",
          "name": "_newSlot",
          "type": "uint256"
        }
      ],
      "name": "SlotChanged",
      "type": "event"
    },
    {
      "anonymous": false,
      "inputs": [
        {
          "indexed": true,
          "internalType": "address",
          "name": "_from",
          "type": "address"
        },
        {
          "indexed": true,
          "internalType": "address",
          "name": "_to",
          "type": "address"
        },
        {
          "indexed": true,
          "internalType": "uint256",
          "name": "_tokenId",
          "type": "uint256"
        }
      ],
      "name": "Transfer",
      "type": "event"
    },
    {
      "anonymous": false,
      "inputs": [
        {
          "indexed": true,
          "internalType": "uint256",
          "name": "_fromTokenId",
          "type": "uint256"
        },
        {
          "indexed": true,
          "internalType": "uint256",
          "name": "_toTokenId",
          "type": "uint256"
        },
        {
          "indexed": false,
          "internalType": "uint256",
          "name": "_value",
          "type": "uint256"
        }
      ],
      "name": "TransferValue",
      "type": "event"
    },
    {
      "anonymous": false,
      "inputs": [
        {
          "indexed": false,
          "internalType": "uint256",
          "name": "fromTokenId",
          "type": "uint256"
        },
        {
          "indexed": false,
          "internalType": "uint256",
          "name": "toTokenId",
          "type": "uint256"
        },
        {
          "indexed": false,
          "internalType": "uint256",
          "name": "value",
          "type": "uint256"
        }
      ],
      "name": "ValueTransfer",
      "type": "event"
    },
    {
      "inputs": [],
      "name": "DEFAULT_ADMIN_ROLE",
      "outputs": [
        {
          "internalType": "bytes32",
          "name": "",
          "type": "bytes32"
        }
      ],
      "stateMutability": "view",
      "type": "function"
    },
    {
      "inputs": [],
      "name": "MKT_ARBITRATOR_ROLE",
      "outputs": [
        {
          "internalType": "bytes32",
          "name": "",
          "type": "bytes32"
        }
      ],
      "stateMutability": "view",
      "type": "function"
    },
    {
      "inputs": [],
      "name": "SERVICE_ADMIN_ROLE",
      "outputs": [
        {
          "internalType": "bytes32",
          "name": "",
          "type": "bytes32"
        }
      ],
      "stateMutability": "view",
      "type": "function"
    },
    {
      "inputs": [
        {
          "internalType": "string",
          "name": "uri_",
          "type": "string"
        }
      ],
      "name": "_setBaseURI",
      "outputs": [],
      "stateMutability": "nonpayable",
      "type": "function"
    },
    {
      "inputs": [
        {
          "internalType": "uint256",
          "name": "tokenId_",
          "type": "uint256"
        },
        {
          "internalType": "address",
          "name": "operator_",
          "type": "address"
        }
      ],
      "name": "allowance",
      "outputs": [
        {
          "internalType": "uint256",
          "name": "",
          "type": "uint256"
        }
      ],
      "stateMutability": "view",
      "type": "function"
    },
    {
      "inputs": [
        {
          "internalType": "address",
          "name": "to_",
          "type": "address"
        },
        {
          "internalType": "uint256",
          "name": "tokenId_",
          "type": "uint256"
        }
      ],
      "name": "approve",
      "outputs": [],
      "stateMutability": "payable",
      "type": "function"
    },
    {
      "inputs": [
        {
          "internalType": "uint256",
          "name": "tokenId_",
          "type": "uint256"
        },
        {
          "internalType": "address",
          "name": "to_",
          "type": "address"
        },
        {
          "internalType": "uint256",
          "name": "value_",
          "type": "uint256"
        }
      ],
      "name": "approve",
      "outputs": [],
      "stateMutability": "payable",
      "type": "function"
    },
    {
      "inputs": [
        {
          "internalType": "address",
          "name": "owner_",
          "type": "address"
        }
      ],
      "name": "balanceOf",
      "outputs": [
        {
          "internalType": "uint256",
          "name": "balance",
          "type": "uint256"
        }
      ],
      "stateMutability": "view",
      "type": "function"
    },
    {
      "inputs": [
        {
          "internalType": "uint256",
          "name": "tokenId_",
          "type": "uint256"
        }
      ],
      "name": "balanceOf",
      "outputs": [
        {
          "internalType": "uint256",
          "name": "",
          "type": "uint256"
        }
      ],
      "stateMutability": "view",
      "type": "function"
    },
    {
      "inputs": [],
      "name": "contractAdmin",
      "outputs": [
        {
          "internalType": "address",
          "name": "",
          "type": "address"
        }
      ],
      "stateMutability": "view",
      "type": "function"
    },
    {
      "inputs": [],
      "name": "contractURI",
      "outputs": [
        {
          "internalType": "string",
          "name": "",
          "type": "string"
        }
      ],
      "stateMutability": "view",
      "type": "function"
    },
    {
      "inputs": [],
      "name": "creditType",
      "outputs": [
        {
          "internalType": "string",
          "name": "",
          "type": "string"
        }
      ],
      "stateMutability": "view",
      "type": "function"
    },
    {
      "inputs": [],
      "name": "defaultSlot",
      "outputs": [
        {
          "internalType": "uint256",
          "name": "",
          "type": "uint256"
        }
      ],
      "stateMutability": "view",
      "type": "function"
    },
    {
      "inputs": [
        {
          "internalType": "uint256",
          "name": "tokenId_",
          "type": "uint256"
        }
      ],
      "name": "getApproved",
      "outputs": [
        {
          "internalType": "address",
          "name": "",
          "type": "address"
        }
      ],
      "stateMutability": "view",
      "type": "function"
    },
    {
      "inputs": [
        {
          "internalType": "bytes32",
          "name": "role",
          "type": "bytes32"
        }
      ],
      "name": "getRoleAdmin",
      "outputs": [
        {
          "internalType": "bytes32",
          "name": "",
          "type": "bytes32"
        }
      ],
      "stateMutability": "view",
      "type": "function"
    },
    {
      "inputs": [
        {
          "internalType": "uint256",
          "name": "tokenId",
          "type": "uint256"
        }
      ],
      "name": "getTokenDescription",
      "outputs": [
        {
          "internalType": "string",
          "name": "",
          "type": "string"
        }
      ],
      "stateMutability": "view",
      "type": "function"
    },
    {
      "inputs": [
        {
          "internalType": "uint256",
          "name": "tokenId",
          "type": "uint256"
        }
      ],
      "name": "getTokenImage",
      "outputs": [
        {
          "internalType": "string",
          "name": "",
          "type": "string"
        }
      ],
      "stateMutability": "view",
      "type": "function"
    },
    {
      "inputs": [
        {
          "internalType": "uint256",
          "name": "tokenId",
          "type": "uint256"
        }
      ],
      "name": "getTokenUUID",
      "outputs": [
        {
          "internalType": "string",
          "name": "",
          "type": "string"
        }
      ],
      "stateMutability": "view",
      "type": "function"
    },
    {
      "inputs": [
        {
          "internalType": "bytes32",
          "name": "role",
          "type": "bytes32"
        },
        {
          "internalType": "address",
          "name": "account",
          "type": "address"
        }
      ],
      "name": "grantRole",
      "outputs": [],
      "stateMutability": "nonpayable",
      "type": "function"
    },
    {
      "inputs": [
        {
          "internalType": "bytes32",
          "name": "role",
          "type": "bytes32"
        },
        {
          "internalType": "address",
          "name": "account",
          "type": "address"
        }
      ],
      "name": "hasRole",
      "outputs": [
        {
          "internalType": "bool",
          "name": "",
          "type": "bool"
        }
      ],
      "stateMutability": "view",
      "type": "function"
    },
    {
      "inputs": [
        {
          "internalType": "address",
          "name": "owner_",
          "type": "address"
        },
        {
          "internalType": "address",
          "name": "operator_",
          "type": "address"
        }
      ],
      "name": "isApprovedForAll",
      "outputs": [
        {
          "internalType": "bool",
          "name": "",
          "type": "bool"
        }
      ],
      "stateMutability": "view",
      "type": "function"
    },
    {
      "inputs": [],
      "name": "metadataDescriptor",
      "outputs": [
        {
          "internalType": "contract IERC3525MetadataDescriptor",
          "name": "",
          "type": "address"
        }
      ],
      "stateMutability": "view",
      "type": "function"
    },
    {
      "inputs": [
        {
          "internalType": "address",
          "name": "owner_",
          "type": "address"
        },
        {
          "internalType": "uint256",
          "name": "slot_",
          "type": "uint256"
        },
        {
          "internalType": "uint256",
          "name": "value_",
          "type": "uint256"
        },
        {
          "internalType": "string",
          "name": "uuid_",
          "type": "string"
        },
        {
          "internalType": "string",
          "name": "tokenDescription_",
          "type": "string"
        },
        {
          "internalType": "string",
          "name": "tokenImage_",
          "type": "string"
        },
        {
          "internalType": "string",
          "name": "property_",
          "type": "string"
        }
      ],
      "name": "mint",
      "outputs": [
        {
          "internalType": "uint256",
          "name": "",
          "type": "uint256"
        }
      ],
      "stateMutability": "nonpayable",
      "type": "function"
    },
    {
      "inputs": [
        {
          "internalType": "address",
          "name": "owner_",
          "type": "address"
        },
        {
          "internalType": "uint256",
          "name": "slot_",
          "type": "uint256"
        },
        {
          "internalType": "uint256",
          "name": "value_",
          "type": "uint256"
        },
        {
          "internalType": "uint256",
          "name": "etherizedDiscountBasisPts_",
          "type": "uint256"
        },
        {
          "internalType": "string",
          "name": "uuid_",
          "type": "string"
        },
        {
          "internalType": "string",
          "name": "tokenDescription_",
          "type": "string"
        },
        {
          "internalType": "string",
          "name": "tokenImage_",
          "type": "string"
        },
        {
          "internalType": "string",
          "name": "property_",
          "type": "string"
        }
      ],
      "name": "mintWithDiscount",
      "outputs": [
        {
          "internalType": "uint256",
          "name": "",
          "type": "uint256"
        }
      ],
      "stateMutability": "nonpayable",
      "type": "function"
    },
    {
      "inputs": [],
      "name": "name",
      "outputs": [
        {
          "internalType": "string",
          "name": "",
          "type": "string"
        }
      ],
      "stateMutability": "view",
      "type": "function"
    },
    {
      "inputs": [
        {
          "internalType": "uint256",
          "name": "tokenId_",
          "type": "uint256"
        }
      ],
      "name": "networkId",
      "outputs": [
        {
          "internalType": "uint256",
          "name": "",
          "type": "uint256"
        }
      ],
      "stateMutability": "view",
      "type": "function"
    },
    {
      "inputs": [
        {
          "internalType": "address",
          "name": "owner_",
          "type": "address"
        },
        {
          "internalType": "uint256",
          "name": "slot_",
          "type": "uint256"
        },
        {
          "internalType": "uint256",
          "name": "value_",
          "type": "uint256"
        },
        {
          "internalType": "uint256",
          "name": "discountBasisPts_",
          "type": "uint256"
        },
        {
          "internalType": "string",
          "name": "uuid_",
          "type": "string"
        },
        {
          "internalType": "string",
          "name": "tokenDescription_",
          "type": "string"
        },
        {
          "internalType": "string",
          "name": "tokenImage_",
          "type": "string"
        },
        {
          "internalType": "string",
          "name": "property_",
          "type": "string"
        }
      ],
      "name": "networkMintWithDiscount",
      "outputs": [
        {
          "internalType": "uint256",
          "name": "",
          "type": "uint256"
        }
      ],
      "stateMutability": "nonpayable",
      "type": "function"
    },
    {
      "inputs": [
        {
          "internalType": "address",
          "name": "owner_",
          "type": "address"
        },
        {
          "internalType": "uint256",
          "name": "slot_",
          "type": "uint256"
        },
        {
          "internalType": "uint256",
          "name": "value_",
          "type": "uint256"
        },
        {
          "internalType": "uint256",
          "name": "tVRate_",
          "type": "uint256"
        },
        {
          "internalType": "string",
          "name": "uuid_",
          "type": "string"
        },
        {
          "internalType": "string",
          "name": "tokenDescription_",
          "type": "string"
        },
        {
          "internalType": "string",
          "name": "tokenImage_",
          "type": "string"
        },
        {
          "internalType": "string",
          "name": "property_",
          "type": "string"
        }
      ],
      "name": "networkMintWithTVRate",
      "outputs": [
        {
          "internalType": "uint256",
          "name": "",
          "type": "uint256"
        }
      ],
      "stateMutability": "nonpayable",
      "type": "function"
    },
    {
      "inputs": [
        {
          "internalType": "uint256",
          "name": "tokenId_",
          "type": "uint256"
        }
      ],
      "name": "ownerOf",
      "outputs": [
        {
          "internalType": "address",
          "name": "owner_",
          "type": "address"
        }
      ],
      "stateMutability": "view",
      "type": "function"
    },
    {
      "inputs": [
        {
          "internalType": "uint256",
          "name": "tokenId_",
          "type": "uint256"
        },
        {
          "internalType": "uint256",
          "name": "slotId_",
          "type": "uint256"
        },
        {
          "internalType": "uint256",
          "name": "value_",
          "type": "uint256"
        }
      ],
      "name": "redeem",
      "outputs": [],
      "stateMutability": "nonpayable",
      "type": "function"
    },
    {
      "inputs": [
        {
          "internalType": "uint256",
          "name": "slotId_",
          "type": "uint256"
        }
      ],
      "name": "registerOnSlot",
      "outputs": [],
      "stateMutability": "nonpayable",
      "type": "function"
    },
    {
      "inputs": [
        {
          "internalType": "bytes32",
          "name": "role",
          "type": "bytes32"
        },
        {
          "internalType": "address",
          "name": "account",
          "type": "address"
        }
      ],
      "name": "renounceRole",
      "outputs": [],
      "stateMutability": "nonpayable",
      "type": "function"
    },
    {
      "inputs": [
        {
          "internalType": "bytes32",
          "name": "role",
          "type": "bytes32"
        },
        {
          "internalType": "address",
          "name": "account",
          "type": "address"
        }
      ],
      "name": "revokeRole",
      "outputs": [],
      "stateMutability": "nonpayable",
      "type": "function"
    },
    {
      "inputs": [
        {
          "internalType": "address",
          "name": "from_",
          "type": "address"
        },
        {
          "internalType": "address",
          "name": "to_",
          "type": "address"
        },
        {
          "internalType": "uint256",
          "name": "tokenId_",
          "type": "uint256"
        }
      ],
      "name": "safeTransferFrom",
      "outputs": [],
      "stateMutability": "payable",
      "type": "function"
    },
    {
      "inputs": [
        {
          "internalType": "address",
          "name": "from_",
          "type": "address"
        },
        {
          "internalType": "address",
          "name": "to_",
          "type": "address"
        },
        {
          "internalType": "uint256",
          "name": "tokenId_",
          "type": "uint256"
        },
        {
          "internalType": "bytes",
          "name": "data_",
          "type": "bytes"
        }
      ],
      "name": "safeTransferFrom",
      "outputs": [],
      "stateMutability": "payable",
      "type": "function"
    },
    {
      "inputs": [
        {
          "internalType": "address",
          "name": "operator_",
          "type": "address"
        },
        {
          "internalType": "bool",
          "name": "approved_",
          "type": "bool"
        }
      ],
      "name": "setApprovalForAll",
      "outputs": [],
      "stateMutability": "nonpayable",
      "type": "function"
    },
    {
      "inputs": [
        {
          "internalType": "uint256",
          "name": "tokenId_",
          "type": "uint256"
        }
      ],
      "name": "slotOf",
      "outputs": [
        {
          "internalType": "uint256",
          "name": "",
          "type": "uint256"
        }
      ],
      "stateMutability": "view",
      "type": "function"
    },
    {
      "inputs": [
        {
          "internalType": "uint256",
          "name": "slot_",
          "type": "uint256"
        }
      ],
      "name": "slotURI",
      "outputs": [
        {
          "internalType": "string",
          "name": "",
          "type": "string"
        }
      ],
      "stateMutability": "view",
      "type": "function"
    },
    {
      "inputs": [
        {
          "internalType": "bytes4",
          "name": "interfaceId",
          "type": "bytes4"
        }
      ],
      "name": "supportsInterface",
      "outputs": [
        {
          "internalType": "bool",
          "name": "",
          "type": "bool"
        }
      ],
      "stateMutability": "view",
      "type": "function"
    },
    {
      "inputs": [],
      "name": "symbol",
      "outputs": [
        {
          "internalType": "string",
          "name": "",
          "type": "string"
        }
      ],
      "stateMutability": "view",
      "type": "function"
    },
    {
      "inputs": [
        {
          "internalType": "uint256",
          "name": "index_",
          "type": "uint256"
        }
      ],
      "name": "tokenByIndex",
      "outputs": [
        {
          "internalType": "uint256",
          "name": "",
          "type": "uint256"
        }
      ],
      "stateMutability": "view",
      "type": "function"
    },
    {
      "inputs": [
        {
          "internalType": "uint256",
          "name": "tokenId_",
          "type": "uint256"
        }
      ],
      "name": "tokenDiscount",
      "outputs": [
        {
          "internalType": "uint256",
          "name": "",
          "type": "uint256"
        }
      ],
      "stateMutability": "view",
      "type": "function"
    },
    {
      "inputs": [
        {
          "internalType": "address",
          "name": "owner_",
          "type": "address"
        },
        {
          "internalType": "uint256",
          "name": "index_",
          "type": "uint256"
        }
      ],
      "name": "tokenOfOwnerByIndex",
      "outputs": [
        {
          "internalType": "uint256",
          "name": "",
          "type": "uint256"
        }
      ],
      "stateMutability": "view",
      "type": "function"
    },
    {
      "inputs": [
        {
          "internalType": "uint256",
          "name": "tokenId_",
          "type": "uint256"
        }
      ],
      "name": "tokenURI",
      "outputs": [
        {
          "internalType": "string",
          "name": "",
          "type": "string"
        }
      ],
      "stateMutability": "view",
      "type": "function"
    },
    {
      "inputs": [],
      "name": "totalBalance",
      "outputs": [
        {
          "internalType": "uint256",
          "name": "",
          "type": "uint256"
        }
      ],
      "stateMutability": "view",
      "type": "function"
    },
    {
      "inputs": [],
      "name": "totalSupply",
      "outputs": [
        {
          "internalType": "uint256",
          "name": "",
          "type": "uint256"
        }
      ],
      "stateMutability": "view",
      "type": "function"
    },
    {
      "inputs": [
        {
          "internalType": "uint256",
          "name": "fromTokenId_",
          "type": "uint256"
        },
        {
          "internalType": "address",
          "name": "to_",
          "type": "address"
        },
        {
          "internalType": "uint256",
          "name": "value_",
          "type": "uint256"
        }
      ],
      "name": "transferFrom",
      "outputs": [
        {
          "internalType": "uint256",
          "name": "",
          "type": "uint256"
        }
      ],
      "stateMutability": "payable",
      "type": "function"
    },
    {
      "inputs": [
        {
          "internalType": "address",
          "name": "from_",
          "type": "address"
        },
        {
          "internalType": "address",
          "name": "to_",
          "type": "address"
        },
        {
          "internalType": "uint256",
          "name": "tokenId_",
          "type": "uint256"
        }
      ],
      "name": "transferFrom",
      "outputs": [],
      "stateMutability": "payable",
      "type": "function"
    },
    {
      "inputs": [
        {
          "internalType": "uint256",
          "name": "fromTokenId_",
          "type": "uint256"
        },
        {
          "internalType": "uint256",
          "name": "toTokenId_",
          "type": "uint256"
        },
        {
          "internalType": "uint256",
          "name": "value_",
          "type": "uint256"
        }
      ],
      "name": "transferFrom",
      "outputs": [],
      "stateMutability": "payable",
      "type": "function"
    },
    {
      "inputs": [],
      "name": "valueDecimals",
      "outputs": [
        {
          "internalType": "uint8",
          "name": "",
          "type": "uint8"
        }
      ],
      "stateMutability": "view",
      "type": "function"
    }
  ],
  "bytecode": "0x6080806040523462000a0d5760009062007c0f803803809162000023828562000a44565b83398101906101a08183031262000a09576200003f8162000a68565b906200004e6020820162000a68565b6200005c6040830162000a68565b946200006b6060840162000a68565b956200007a6080850162000a68565b60a085015160c0860151919290916001600160401b03811162000a055788620000a591880162000aa2565b60e08701519098906001600160401b03811162000a015781620000ca91890162000aa2565b6101008801519099906001600160401b038111620009fd5782620000f0918a0162000aa2565b6101208901519094906001600160401b038111620009f9578362000116918b0162000aa2565b6101408a01519092906001600160401b0381116200070d57846200013c918c0162000aa2565b6101608b01519094906001600160401b038111620009f5576101809162000165918d0162000aa2565b9a01519b60ff8d168d036200070d5760405191620001838362000a12565b60048352630c6c2e6d60e31b60208401528051906001600160401b038211620009e1578a54600181811c91168015620009d6575b6020821014620009c2579081601f8493116200096e575b50602090601f831160011462000900578c92620008f4575b50508160011b916000199060031b1c19161789555b8051906001600160401b038211620008e057600154600181811c91168015620008d5575b6020821014620008c1579081601f84931162000861575b50602090601f8311600114620007e5578b92620007d9575b50508160011b916000199060031b1c1916176001555b6002805460ff19166006179055600b829055600c54600a80546001600160a01b0319166001600160a01b038c16179055604051825191929160208083019291620002c891908390620002ba8187858a0162000a7d565b810103808452018262000a44565b51902060405160208101906374696d6560e01b825260048152620002ec8162000a12565b51902003620007255750875b600481101562000711576001600160a81b031982166001600160a01b03871690811760a083901b60ff60a01b1617600c553b156200070d576040516394b39b0960e01b81526001600160a01b038b8116600480840191909152602483019590955290936001600160a81b03199093169087161760a091821b60ff60a01b1617901c60ff1690811015620006f95760448201528681606481836001600160a01b0389165af18015620006ee57620006bd575b50604051936001600160401b036120b7860190811190861117620006a957916200040a6200042192620003f38796956120b762005b18893960806120b78901818152019062000afd565b906120b78701820360206120b78901015262000afd565b906120b78501820360406120b78701015262000afd565b6001600160a01b039091166120b7830160600152039083f080156200069e57600880546001600160a01b0319166001600160a01b039283161790557f1cd6d520d98babae1045eb69c31ecab800996aa332094cb55c0ac10362e9b0c980845260096020908152604080862094909316600081815294909152919092205460ff16156200065e575b50507f9a95e87c5af084bf5db8491c3a6515da9dd6da39b24b0eb0af08d7b9cd808d9180825260096020526040822060018060a01b03841660005260205260ff60406000205416156200060d575b5050507f9ac4f8025631594629895b778dc5ee88d01673a254a2291f6b6b174ad25230ca602060018060a01b0360085416604051908152a16020815191012060046020604051620005478162000a12565b82815201635553444360e01b81522014600014620005a257600e80546001600160a01b039485166001600160a01b031991821617909155601080549290941691161790915560ff16600f55604051614ff3908162000b258239f35b60405162461bcd60e51b815260206004820152603760248201527f5370656e644372656469743a204f6e6c79205553444320756e6465726c79696e60448201527f6720616363657074656420617420746869732074696d650000000000000000006064820152608490fd5b8082526009602090815260408084206001600160a01b0395909516600081815295909252909320805460ff1916600117905533929160008051602062007bcf8339815191529080a4388080620004f6565b818352600960205260408320816000526020526040600020600160ff19825416179055339160008051602062007bcf8339815191528480a43880620004a8565b6040513d84823e3d90fd5b634e487b7160e01b87526041600452602487fd5b9095906001600160401b038111620006da576040529438620003a9565b634e487b7160e01b82526041600452602482fd5b6040513d89823e3d90fd5b634e487b7160e01b88526021600452602488fd5b8880fd5b634e487b7160e01b89526021600452602489fd5b6040516020810190620007456020828551620002ba8187858a0162000a7d565b5190206040516020810190630c6c2e6d60e31b825260048152620007698162000a12565b519020036200077b57506001620002f8565b6040516200079b60208281620002ba818301968781519384920162000a7d565b5190206040516020810190646974656d7360d81b825260058152620007c08162000a12565b51902003620007d1576002620002f8565b6003620002f8565b0151905038806200024e565b60018c528b935060008051602062007bef83398151915291905b601f198416851062000845576001945083601f198116106200082b575b505050811b0160015562000264565b015160001960f88460031b161c191690553880806200081c565b81810151835560209485019460019093019290910190620007ff565b60018c5290915060008051602062007bef833981519152601f840160051c810160208510620008b9575b90849392915b8d601f840160051c83018210620008ab5750505062000236565b815585945060010162000891565b50806200088b565b634e487b7160e01b8b52602260045260248bfd5b90607f16906200021f565b634e487b7160e01b8a52604160045260248afd5b015190503880620001e6565b92508b805260208c20908c935b601f198416851062000952576001945083601f1981161062000938575b505050811b018955620001fb565b015160001960f88460031b161c191690553880806200092a565b818101518355602094850194600190930192909101906200090d565b9091508b805260208c20601f840160051c810160208510620009ba575b84939291908e5b601f840160051c83018210620009ab57505050620001ce565b81558594506001018e62000992565b50806200098b565b634e487b7160e01b8c52602260045260248cfd5b90607f1690620001b7565b634e487b7160e01b8b52604160045260248bfd5b8980fd5b8780fd5b8680fd5b8580fd5b8480fd5b8280fd5b600080fd5b604081019081106001600160401b0382111762000a2e57604052565b634e487b7160e01b600052604160045260246000fd5b601f909101601f19168101906001600160401b0382119082101762000a2e57604052565b51906001600160a01b038216820362000a0d57565b60005b83811062000a915750506000910152565b818101518382015260200162000a80565b81601f8201121562000a0d5780516001600160401b03811162000a2e576040519262000ad9601f8301601f19166020018562000a44565b8184526020828401011162000a0d5762000afa916020808501910162000a7d565b90565b9060209162000b188151809281855285808601910162000a7d565b601f01601f191601019056fe608080604052600436101561001357600080fd5b600090813560e01c90816301ffc9a714612a0c57508063020dbf25146126a957806306fdde03146125e9578063081812fc146125ca578063095ea7b31461249457806309c3dd87146121c35780630f485c02146121af5780631375d843146121495780631429fb5714611abd57806318160ddd14611a9f57806323b872dd14611a7a578063248a9ca314611a4d578063263f3e7e14611a2e5780632f2ff15d1461197f5780632f745c59146118d6578063310ed7f01461140257806331b5b9071461137057806336568abe146112dd57806339ace21f146112be5780633e7e86691461129d57806341815ee4146111a257806342842e0e1461117f5780634c1de2131461114c5780634f6ccce7146110c7578063505a3853146110a95780636352211e1461107857806370a082311461105457806371f0442e14610fee5780637795524514610fc5578063840f711314610f9c57806389e2920414610ce15780638cb0a51114610b9f57806391d1485414610b5357806395d89b4114610a475780639cc7f70814610a28578063a217fddf14610a0c578063a22cb46514610937578063a7c9f2d6146108fc578063aa20ce55146108d9578063ad7a672f146108bb578063b3154c0814610855578063b819220514610619578063b88d4fde146105ba578063be950a6214610470578063c87b56dd146103db578063d09445c2146103a0578063d547741f1461035f578063e345e0bc14610330578063e8a3d485146102a05763e985e9c51461024757600080fd5b3461029d57604036600319011261029d57610260612a61565b6002604061026c612a77565b9360018060a01b038094168152600760205220019116600052602052602060ff604060002054166040519015158152f35b80fd5b503461029d578060031936011261029d57600854604051631c97e82760e21b8152908290829060049082906001600160a01b03165afa90811561032557826102fe9392610302575b5050604051918291602083526020830190612c4f565b0390f35b61031e92503d8091833e6103168183612b07565b810190613143565b38806102e8565b6040513d84823e3d90fd5b503461029d57604036600319011261029d57602061035761034f612a77565b6004356140e6565b604051908152f35b503461029d57604036600319011261029d5761039d60043561037f612a77565b9080845260096020526103986001604086200154612ced565b61300e565b80f35b503461029d578060031936011261029d5760206040517f9a95e87c5af084bf5db8491c3a6515da9dd6da39b24b0eb0af08d7b9cd808d918152f35b503461029d57602036600319011261029d576004356103f981613c9f565b801561045c575b61040990613378565b6008546040516344a5a61760e11b815260048101929092528290829060249082906001600160a01b03165afa90811561032557826102fe9392610302575050604051918291602083526020830190612c4f565b5061040961046982613ce5565b9050610400565b503461029d57602036600319011261029d577f9a95e87c5af084bf5db8491c3a6515da9dd6da39b24b0eb0af08d7b9cd808d9181526009602052604081203360005260205260ff604060002054161561054f57600c54600a546001600160a01b03808316939291169060a01c60ff16833b1561054b57604051916394b39b0960e01b83526004830152600435602483015260048110156105375781606481858097819560448401525af18015610325576105275750f35b61053090612a8d565b61029d5780f35b634e487b7160e01b83526021600452602483fd5b8280fd5b60405162461bcd60e51b815260206004820152603760248201527f53656e646572206e6f7420617574686f72697a656420746f207265676973746560448201527f7220636f6e747261637420746f207468697320736c6f740000000000000000006064820152608490fd5b50608036600319011261029d576105cf612a61565b6105d7612a77565b606435916001600160401b03831161061557366023840112156106155761060b61039d933690602481600401359101612b43565b91604435916132a1565b8380fd5b503461029d5761062836612cd3565b9190610633826133c4565b6001600160a01b0390811633148015610813575b156107c257828552601260205261066d6040862054610667600f54613c91565b906131a1565b6127109081038181116107ae57906106888688959493613084565b0481600e5416916010541691803b156107aa57604051632b83cccd60e01b81526001600160a01b03939093166004840152602483019390935260448201529082908290606490829084905af1801561032557610796575b50506106ed82601154613859565b6011556106f981613d67565b8083526006602052600261071060408520546130e1565b500180548381106107455783600080516020614f9e833981519152926107398796602094613859565b9055604051908152a380f35b60405162461bcd60e51b815260206004820152602360248201527f455243333532353a206275726e2076616c756520657863656564732062616c616044820152626e636560e81b6064820152608490fd5b61079f90612a8d565b61054b5782386106df565b8480fd5b634e487b7160e01b87526011600452602487fd5b60405162461bcd60e51b815260206004820152602360248201527f53656e646572206973206e6f7420617574686f72697a656420746f207265646560448201526232b69760e91b6064820152608490fd5b507f1cd6d520d98babae1045eb69c31ecab800996aa332094cb55c0ac10362e9b0c985526009602052604085203360005260205260ff60406000205416610647565b503461029d57602036600319011261029d57600854604051631662a98160e31b81526004803590820152908290829060249082906001600160a01b03165afa90811561032557826102fe9392610302575050604051918291602083526020830190612c4f565b503461029d578060031936011261029d576020601154604051908152f35b503461029d5760206103576108ed36612b98565b96959095949194939293613a26565b503461029d578060031936011261029d5760206040517f1cd6d520d98babae1045eb69c31ecab800996aa332094cb55c0ac10362e9b0c98152f35b503461029d57604036600319011261029d57610951612a61565b6024359081151580920361054b576001600160a01b0316903382146109c75733835260076020526002604084200182600052602052604060002060ff1981541660ff83161790556040519081527f17307eab39ab6107e8899845ad3d59bd9653f200f220920489ca2b5937696c3160203392a380f35b60405162461bcd60e51b815260206004820152601a60248201527f455243333532353a20617070726f766520746f2063616c6c65720000000000006044820152606490fd5b503461029d578060031936011261029d57602090604051908152f35b503461029d57602036600319011261029d576020610357600435613daa565b503461029d578060031936011261029d57604051908060019182549283811c92818516948515610b49575b6020958686108114610b3557858852879493929187908215610b13575050600114610aba575b5050610aa692500383612b07565b6102fe604051928284938452830190612c4f565b908592508082527fb10e2d527612073b26eecdfd717e6a320cf44b4afac2b0732d9fcbe2b7fa0cf65b858310610afb575050610aa693508201013880610a98565b80548389018501528794508693909201918101610ae3565b9250935050610aa694915060ff191682840152151560051b8201013880610a98565b634e487b7160e01b83526022600452602483fd5b93607f1693610a72565b503461029d57604036600319011261029d576040610b6f612a77565b9160043581526009602052209060018060a01b0316600052602052602060ff604060002054166040519015158152f35b50610ba936612c74565b90610bb383613d67565b83610bbd84613c9f565b80610cce575b15610c605750610be96001600160a01b0380610bde866133c4565b169083161415613321565b610bf38333613447565b15610c015761039d92613f14565b60405162461bcd60e51b815260206004820152603160248201527f455243333532353a20617070726f76652063616c6c6572206973206e6f74206f6044820152701ddb995c881b9bdc88185c1c1c9bdd9959607a1b6064820152608490fd5b600c54938152600d60205260408120549093919290916001600160a01b0316803b156107aa57604051638cb0a51160e01b815260048101939093526001600160a01b0393909316602483015260448201529082908290606490829084905af180156103255761052757505080f35b50610cd88461311c565b600b5414610bc3565b503461029d57602081610cf336612b98565b96989293909588610d1b60ff600298959854169361066760018060a01b03600c541695613c91565b604051632d2a246560e01b81526001600160a01b039c909c1660048d015260248c019290925260448b019390935260648a015288916084918391905af1958615610f51578596610f60575b506001600354019586600355868652600d602052604086205560018060a01b0360085416803b15610f5c57610dc38692918392604051948580948193632108947560e21b83528d6004840152604060248401526044830190612c4f565b03925af1908115610f51578591610f3d575b50506008546001600160a01b0316803b156107aa57610e1c859291839260405194858094819363246a908b60e01b83528c6004840152604060248401526044830190612c4f565b03925af1908115610f32578491610f1e575b50506008546001600160a01b0316803b1561061557610e758492918392604051948580948193630190503b60e61b83528b6004840152604060248401526044830190612c4f565b03925af1908115610eff578391610f0a575b50506008546001600160a01b031690813b1561054b578291610ecd91604051948580948193637e468a5160e01b8352896004840152604060248401526044830190612c4f565b03925af18015610eff57610ee7575b602082604051908152f35b610ef18391612a8d565b610efb5781610edc565b5080fd5b6040513d85823e3d90fd5b610f1390612a8d565b610efb578138610e87565b610f2790612a8d565b61054b578238610e2e565b6040513d86823e3d90fd5b610f4690612a8d565b610615578338610dd5565b6040513d87823e3d90fd5b8580fd5b945094506020843d602011610f94575b81610f7d60209383612b07565b81010312610f8f578593519438610d66565b600080fd5b3d9150610f70565b503461029d578060031936011261029d576008546040516001600160a01b039091168152602090f35b503461029d578060031936011261029d57600a546040516001600160a01b039091168152602090f35b503461029d57602036600319011261029d576008546040516338f8221760e11b81526004803590820152908290829060249082906001600160a01b03165afa90811561032557826102fe9392610302575050604051918291602083526020830190612c4f565b503461029d57602036600319011261029d576020610357611073612a61565b6131c1565b503461029d57602036600319011261029d576020611097600435613e7b565b6040516001600160a01b039091168152f35b503461029d578060031936011261029d576020600b54604051908152f35b503461029d57602036600319011261029d576004356005548110156110fb576110f16020916130e1565b5054604051908152f35b60405162461bcd60e51b815260206004820152602360248201527f455243333532353a20676c6f62616c20696e646578206f7574206f6620626f756044820152626e647360e81b6064820152608490fd5b503461029d57602036600319011261029d57604060209160043561116f81613d67565b8152600d83522054604051908152f35b5061039d61118c36612c9e565b906040519261119a84612aec565b8584526132a1565b503461029d578060031936011261029d5760ff600c5460a01c16600481101561128957600381036112085750506102fe6040516111de81612ad1565b60088152677072696f7269747960c01b60208201525b604051918291602083526020830190612c4f565b806112345750506102fe60405161121e81612ad1565b600481526374696d6560e01b60208201526111f4565b600214159050611264576102fe60405161124d81612ad1565b60058152646974656d7360d81b60208201526111f4565b6102fe60405161127381612ad1565b60048152630c6c2e6d60e31b60208201526111f4565b634e487b7160e01b82526021600452602482fd5b503461029d578060031936011261029d57602060ff60025416604051908152f35b503461029d57602036600319011261029d5760206103576004356144a5565b503461029d57604036600319011261029d576112f7612a77565b336001600160a01b038216036113135761039d9060043561300e565b60405162461bcd60e51b815260206004820152602f60248201527f416363657373436f6e74726f6c3a2063616e206f6e6c792072656e6f756e636560448201526e103937b632b9903337b91039b2b63360891b6064820152608490fd5b503461029d57602036600319011261029d57806004356001600160401b0381116113ff576113a2903690600401612b7a565b6008546001600160a01b031690813b156113fb5782916113e0916040519485809481936355f804b360e01b8352602060048401526024830190612c4f565b03925af18015610325576113f2575080f35b61039d90612a8d565b5050fd5b50fd5b5061140c36612cd3565b90611418839493613c9f565b806118c3575b806118a0575b1561152a5761143281613daa565b93808452601260205260408420548285526040852054141560001461151e57600f549461145e86613c91565b9561271087810297818904036107ae5761147782613c91565b808202908282040361150a576114a6876114a16114ac93888c52601260205260408c205490613859565b613084565b92613c91565b808202918204036107ae57826106676114eb899a946114e56114f8976114a16114f297604061039d9f8e81526012602052205490613859565b906130ad565b91886130ad565b90613859565b82865260126020526040862055614dde565b634e487b7160e01b88526011600452602488fd5b92935061039d92614dde565b90919261153681613c9f565b8061188d575b1580611864575b15611804578084526020600d815260408520549384156117b35761156981601154613859565b601155600c54604051639448bddb60e01b8152600481018690526001600160a01b039182168482602481845afa918215611716578992611784575b50858952600d8552604089205485908015611721576024604051809481936339ace21f60e01b835260048301525afa80156117165789906116e3575b6115f191505b610667600f54613c91565b6127109081038181116116cf579161161a8589604494611613838b9998613084565b049b614dde565b8983600e54166040519a8b95869463a9059cbb60e01b865216600485015260248401525af19182156116c4577fdf7a601a0a201ccd4b4bfcfd610913188d931867997223d226f85f2f2673988a9561169093611696575b5050604051938493846040919493926060820195825260208201520152565b0390a180f35b816116b592903d106116bd575b6116ad8183612b07565b810190613ccd565b503880611671565b503d6116a3565b6040513d88823e3d90fd5b634e487b7160e01b8a52601160045260248afd5b508481813d831161170f575b6116f98183612b07565b8101031261170b576115f190516115e0565b8880fd5b503d6116ef565b6040513d8b823e3d90fd5b50602491604051928380926339ace21f60e01b82528a60048301525afa8015611716578990611755575b6115f191506115e6565b508481813d831161177d575b61176b8183612b07565b8101031261170b576115f1905161174b565b503d611761565b6117a5919250853d87116117ac575b61179d8183612b07565b810190613e5c565b90386115a4565b503d611793565b60405162461bcd60e51b815260048101839052602360248201527f5370656e64546f6b656e3a20696e76616c69642073656e64657220746f6b656e60448201526208125160ea1b6064820152608490fd5b60405162461bcd60e51b815260206004820152603260248201527f5370656e644372656469743a207472616e7366657220746f20746f6b656e20776044820152711a5d1a08191a5999995c995b9d081cdb1bdd60721b6064820152608490fd5b5061186e82613c9f565b8061187a575b15611543565b506118848261311c565b600b5414611874565b506118978161311c565b600b541461153c565b506118aa81613c9f565b801561142457506118ba8161311c565b600b5414611424565b506118cd8461311c565b600b541461141e565b503461029d57604036600319011261029d576118f0612a61565b906024356118fd836131c1565b81101561192f5760406119219260209460018060a01b03168152600785522061342f565b90546040519160031b1c8152f35b60405162461bcd60e51b815260206004820152602260248201527f455243333532353a206f776e657220696e646578206f7574206f6620626f756e604482015261647360f01b6064820152608490fd5b503461029d57604036600319011261029d5760043561199c612a77565b81835260096020526119b46001604085200154612ced565b8183526009602052604083209060018060a01b03169081845260205260ff604084205416156119e1578280f35b81835260096020526040832081845260205260408320600160ff1982541617905533917f2f8788117e7eff1d82e926ec794901d17c78024a50270940304540a733656f0d8480a438808280f35b503461029d57602036600319011261029d57602061035760043561311c565b503461029d57602036600319011261029d5760016040602092600435815260098452200154604051908152f35b5061039d611a8736612c9e565b91611a9a611a958433613447565b61323a565b6134b8565b503461029d578060031936011261029d576020600554604051908152f35b503461029d5760e036600319011261029d57611ad7612a61565b6001600160401b03919060643583811161054b57611af9903690600401612b7a565b9260843581811161061557611b12903690600401612b7a565b9360a4358281116107aa57611b2b903690600401612b7a565b9160c4359081116107aa57611b44903690600401612b7a565b918495600b5460243514600014611e8a576001600354019586600355611b726044358097896024359161419f565b6008546001600160a01b0394908516803b1561054b57611bb99183918a83604051809681958294632108947560e21b84526004840152604060248401526044830190612c4f565b03925af1801561032557611e70575b505090829187949360085416803b15610f5c57611c0c918691898360405180968195829463246a908b60e01b84526004840152604060248401526044830190612c4f565b03925af1908115610f51578591611e5c575b50508160085416803b156107aa57611c5e8592918392604051948580948193630190503b60e61b83528d6004840152604060248401526044830190612c4f565b03925af1908115610f32578491611e48575b505060085416803b1561054b57611caf8392918392604051948580948193637e468a5160e01b83528b6004840152604060248401526044830190612c4f565b03925af1801561032557611e34575b5050604080518381526024356020820152908101919091527f84eeb48eca46cea54afc9753345f6038981672ea565f32885420829dfd88aea690606090a15b60408051828152602435602082015260443591810182905290927f1271433ec932e965d31c8d57a40df8281c09b048d4e75e4cb5a9669ac173acf2918290606090a1611d4b846011546130ad565b6011558281526012602052806040812055611d6f6040822054610667600f54613c91565b612710908103818111611e205785611d8691613084565b600e546001600160a01b0316919004813b1561054b57604051630ab714fb60e11b8152306004820152602480359082015260448101919091529082908290606490829084905af1801561032557611e0c575b5050611e0160209360405191829160243586846040919493926060820195825260208201520152565b0390a1604051908152f35b611e168291612a8d565b61029d5780611dd8565b634e487b7160e01b83526011600452602483fd5b611e3d90612a8d565b61054b578238611cbe565b611e5190612a8d565b61054b578238611c70565b611e6590612a8d565b610615578338611c1e565b611e7f91929594939850612a8d565b959091923880611bc8565b6003805460010190819055600c54604051630151086360e31b81526001600160a01b03978816600482015260248035908201526044803590820152606481018990529197968796959291602091839160849183918b91165af190811561213e57879161210c575b50878752600d60205260408720556008546001600160a01b0316803b1561210857611f439187918983604051809681958294632108947560e21b84526004840152604060248401526044830190612c4f565b03925af180156116c4576120f5575b506008546001600160a01b031690813b156107aa57611f988592839260405194858094819363246a908b60e01b83528d6004840152604060248401526044830190612c4f565b03925af18015610f32579084916120e1575b50506008546001600160a01b031690813b1561061557611ff184928392604051948580948193630190503b60e61b83528c6004840152604060248401526044830190612c4f565b03925af18015610eff579083916120cd575b50506008546001600160a01b031690813b1561054b5761204a83928392604051948580948193637e468a5160e01b83528b6004840152604060248401526044830190612c4f565b03925af18015610325576120b9575b50506120b160407f36fba2e6d0870905dade4201d8b7ff8b54c52b9e7de8df1400244d22e0d2384692848152600d60205220546040519182916044359060243590846040919493926060820195825260208201520152565b0390a1611cfd565b6120c38291612a8d565b61029d5780612059565b6120d690612a8d565b610efb578138612003565b6120ea90612a8d565b61054b578238611faa565b612100919450612a8d565b839238611f52565b8680fd5b90506020813d602011612136575b8161212760209383612b07565b81010312612108575138611ef1565b3d915061211a565b6040513d89823e3d90fd5b503461029d57602036600319011261029d57600854604051631375d84360e01b81526004803590820152908290829060249082906001600160a01b03165afa90811561032557826102fe9392610302575050604051918291602083526020830190612c4f565b60206103576121bd36612c74565b91614534565b503461029d576020908160031936011261029d5760043560018060a01b036008541690604051636c0360eb60e01b81528381600481865afa908115610f3257849161247a575b50821561227957508290602460405180948193633601bfc560e11b835260048301525afa91821561226d578092612252575b5050906102fe604051928284938452830190612c4f565b61226692503d8091833e6103168183612b07565b388061223b565b604051903d90823e3d90fd5b80519093925015612441578190807a184f03e93ff9f4daa797ed6e38ed64bf6a1f0100000000000000008181811015612433575b5050856d04ee2d6d415b85acef810000000080841015612425575b5050662386f26fc1000080831015612416575b506305f5e10080831015612407575b50612710808310156123f8575b5060648210156123e8575b600a809210156123de575b6001908160218186019561233961232388612b28565b97612331604051998a612b07565b808952612b28565b878b019890601f1901368a3750860101905b6123a8575b50505050612393926123a292602592604051958361237788955180928b8089019101612c2c565b84019164736c6f742f60d81b8984015251809386840190612c2c565b01036005810184520182612b07565b90610aa6565b600019019083906f181899199a1a9b1b9c1cb0b131b232b360811b8282061a8353049182156123d95791908261234b565b612350565b916001019161230d565b9190606460029104910191612302565b600491939204910191386122f7565b600891939204910191386122ea565b601091939204910191386122db565b9301929091049085386122c8565b6040945004915038806122ad565b5060405191508282016001600160401b038111838210176124665760405281526123a2565b634e487b7160e01b82526041600452602482fd5b61248e91503d8086833e6103168183612b07565b38612209565b50604036600319011261029d576124a9612a61565b602435906001600160a01b0380806124c0856133c4565b169216916124d081841415613321565b8033149081156125a6575b501561253b57828452600660205260046124f860408620546130e1565b500180546001600160a01b03191683179055612513836133c4565b167f8c5be1e5ebec7d5bd14f71427d1e84f3dd0314c0f7b2291e5b200ac8c7c3b9258480a480f35b60405162461bcd60e51b815260206004820152603960248201527f455243333532353a20617070726f76652063616c6c6572206973206e6f74206f60448201527f776e6572206e6f7220617070726f76656420666f7220616c6c000000000000006064820152608490fd5b9050845260076020526002604085200133855260205260ff604085205416386124db565b503461029d57602036600319011261029d5760206110976004356133ff565b503461029d578060031936011261029d576040519080805491600183811c9281851694851561269f575b6020958686108114610b3557858852879493929187908215610b13575050600114612646575050610aa692500383612b07565b908592508180527f290decd9548b62a8d60345a988386fc84ba6bc95484008f6362f93160ef3e5635b858310612687575050610aa693508201013880610a98565b8054838901850152879450869390920191810161266f565b93607f1693612613565b503461029d576126b836612b98565b9291889794975088600b5488146000146129a2576126e2878960016003540180998160035561419f565b6008546001600160a01b0394908516803b1561054b576127299183918983604051809681958294632108947560e21b84526004840152604060248401526044830190612c4f565b03925af1801561032557612988575b505090829189949360085416803b15610f5c5761277d869291839260405194858094819363246a908b60e01b83528d6004840152604060248401526044830190612c4f565b03925af1908115610f51578591612974575b50508160085416803b156107aa576127cf8592918392604051948580948193630190503b60e61b83528c6004840152604060248401526044830190612c4f565b03925af1908115610f32578491612960575b505060085416803b1561054b576128208392918392604051948580948193637e468a5160e01b83528a6004840152604060248401526044830190612c4f565b03925af180156103255761294c575b505060408051828152602081018590529081018390527f84eeb48eca46cea54afc9753345f6038981672ea565f32885420829dfd88aea690606090a1925b60408051858152602081018590529081018390527f1271433ec932e965d31c8d57a40df8281c09b048d4e75e4cb5a9669ac173acf290606090a16128b3826011546130ad565b601155838552601260205260408520556128d66040852054610667600f54613c91565b90612710918203828111612938578592916128f091613084565b600e54919004906001600160a01b0316803b1561054b57604051630ab714fb60e11b815230600482015260248101949094526044840191909152829081838160648101610ecd565b634e487b7160e01b86526011600452602486fd5b61295590612a8d565b6107aa57843861282f565b61296990612a8d565b61054b5782386127e1565b61297d90612a8d565b61061557833861278f565b61299791929594939a50612a8d565b979091923880612738565b9794936040926129d8928995888a887f36fba2e6d0870905dade4201d8b7ff8b54c52b9e7de8df1400244d22e0d238469a613a26565b96878152600d6020522054612a0485604051938493846040919493926060820195825260208201520152565b0390a161286d565b905034610efb576020366003190112610efb5760043563ffffffff60e01b811680910361054b5760209250637965db0b60e01b8114908115612a50575b5015158152f35b6301ffc9a760e01b14905038612a49565b600435906001600160a01b0382168203610f8f57565b602435906001600160a01b0382168203610f8f57565b6001600160401b038111612aa057604052565b634e487b7160e01b600052604160045260246000fd5b60c081019081106001600160401b03821117612aa057604052565b604081019081106001600160401b03821117612aa057604052565b602081019081106001600160401b03821117612aa057604052565b90601f801991011681019081106001600160401b03821117612aa057604052565b6001600160401b038111612aa057601f01601f191660200190565b929192612b4f82612b28565b91612b5d6040519384612b07565b829481845281830111610f8f578281602093846000960137010152565b9080601f83011215610f8f57816020612b9593359101612b43565b90565b610100600319820112610f8f576004356001600160a01b0381168103610f8f57916024359160443591606435916001600160401b0390608435828111610f8f5781612be591600401612b7a565b9260a435838111610f8f5782612bfd91600401612b7a565b9260c435818111610f8f5783612c1591600401612b7a565b9260e435918211610f8f57612b9591600401612b7a565b60005b838110612c3f5750506000910152565b8181015183820152602001612c2f565b90602091612c6881518092818552858086019101612c2c565b601f01601f1916010190565b6060906003190112610f8f57600435906024356001600160a01b0381168103610f8f579060443590565b6060906003190112610f8f576001600160a01b03906004358281168103610f8f57916024359081168103610f8f579060443590565b6060906003190112610f8f57600435906024359060443590565b60009080825260209060098252604092838120338252835260ff848220541615612d175750505050565b8351916001600160401b0390336060850183811186821017612ffa578752602a85528585019187368437855115612fe65760308353855191600192831015612fd2576078602188015360295b838111612f7c5750612f3a5790875193608085019085821090821117612f2657885260428452868401946060368737845115612f1257603086538451821015612f125790607860218601536041915b818311612ea457505050612e6257612e5e938693612e4293612e33604894612e0a9a519a8b957f416363657373436f6e74726f6c3a206163636f756e74200000000000000000008c8801525180926037880190612c2c565b8401917001034b99036b4b9b9b4b733903937b6329607d1b603784015251809386840190612c2c565b01036028810187520185612b07565b5192839262461bcd60e51b845260048401526024830190612c4f565b0390fd5b60648587519062461bcd60e51b825280600483015260248201527f537472696e67733a20686578206c656e67746820696e73756666696369656e746044820152fd5b909192600f81166010811015612efe576f181899199a1a9b1b9c1cb0b131b232b360811b901a612ed485886130ba565b5360041c928015612eea57600019019190612db2565b634e487b7160e01b82526011600452602482fd5b634e487b7160e01b83526032600452602483fd5b634e487b7160e01b81526032600452602490fd5b634e487b7160e01b86526041600452602486fd5b60648789519062461bcd60e51b825280600483015260248201527f537472696e67733a20686578206c656e67746820696e73756666696369656e746044820152fd5b90600f81166010811015612fbe576f181899199a1a9b1b9c1cb0b131b232b360811b901a612faa838a6130ba565b5360041c9080156107ae5760001901612d63565b634e487b7160e01b88526032600452602488fd5b634e487b7160e01b86526032600452602486fd5b634e487b7160e01b85526032600452602485fd5b634e487b7160e01b85526041600452602485fd5b906000918083526009602052604083209160018060a01b03169182845260205260ff60408420541661303f57505050565b8083526009602052604083208284526020526040832060ff1981541690557ff6391f5c32d9c69d2a47ea670b442974b53935d1edc7fd64eb21e047a839171b339380a4565b8181029291811591840414171561309757565b634e487b7160e01b600052601160045260246000fd5b9190820180921161309757565b9081518110156130cb570160200190565b634e487b7160e01b600052603260045260246000fd5b6005548110156130cb576006906005600052027f036b6384b5eca791c62761152d0c79bb0604c104a5fb6f4eb0703f3154bb3db00190600090565b61312581613d67565b6000526006602052600161313d6040600020546130e1565b50015490565b602081830312610f8f578051906001600160401b038211610f8f570181601f82011215610f8f57805161317581612b28565b926131836040519485612b07565b81845260208284010111610f8f57612b959160208085019101612c2c565b81156131ab570490565b634e487b7160e01b600052601260045260246000fd5b6001600160a01b031680156131e157600052600760205260406000205490565b60405162461bcd60e51b815260206004820152602b60248201527f455243333532353a2062616c616e636520717565727920666f7220746865207a60448201526a65726f206164647265737360a81b6064820152608490fd5b1561324157565b60405162461bcd60e51b815260206004820152603260248201527f455243333532353a207472616e736665722063616c6c6572206973206e6f74206044820152711bdddb995c881b9bdc88185c1c1c9bdd995960721b6064820152608490fd5b906132c59392916132b5611a958433613447565b6132c08383836134b8565b6138d8565b156132cc57565b60405162461bcd60e51b815260206004820152602760248201527f455243333532353a207472616e7366657220746f206e6f6e204552433732315260448201526632b1b2b4bb32b960c91b6064820152608490fd5b1561332857565b60405162461bcd60e51b815260206004820152602260248201527f455243333532353a20617070726f76616c20746f2063757272656e74206f776e60448201526132b960f11b6064820152608490fd5b1561337f57565b60405162461bcd60e51b815260206004820152601960248201527f455243333532353a20696e76616c696420746f6b656e204944000000000000006044820152606490fd5b6133cd81613d67565b60005260066020526133e36040600020546130e1565b50600301546001600160a01b0316906133fd821515613378565b565b61340881613d67565b600052600660205261341e6040600020546130e1565b50600401546001600160a01b031690565b80548210156130cb5760005260206000200190600090565b906001600160a01b03808061345b846133c4565b1693169183831493841561348e575b508315613478575b50505090565b613484919293506133ff565b1614388080613472565b909350600052600760205260026040600020018260005260205260ff60406000205416923861346a565b6134c1836133c4565b6001600160a01b0391821691908116829003613751578083169283156136fe576134ea8561311c565b506134f4856137a2565b5060009185835260209060068252604090613511828620546130e1565b50600490810180546001600160a01b03199081169091559091898782613536836133c4565b167f8c5be1e5ebec7d5bd14f71427d1e84f3dd0314c0f7b2291e5b200ac8c7c3b9258280a4898752600685526005613570858920546130e1565b500180549091858988818f5b8684106136c75750505050505050805490878155816136aa575b50508886526006845260036135ad848820546130e1565b500190815416905585855260078352818520918254936000199485810190811161369757906135de8893928661342f565b90549060031b1c9060018601908c8552818152838520549261361f81613604868b61342f565b90919082549060031b600019811b9283911b16911916179055565b855252818320558982528120558154908115613684575092828892613680947fddf252ad1be2c89b69c2b068fc378daa952ba7f163c4a11628f55a4df523b3ef9796019161366d838361342f565b909182549160031b1b19169055556137c3565b80a4565b634e487b7160e01b865260319052602485fd5b634e487b7160e01b885260118452602488fd5b8752848720908101905b81811015613596578781556001016136b4565b6136f49486928b6136d8878c61342f565b96905494835252209260031b1c168c5289528a88812055613866565b8690888b8f61357c565b60405162461bcd60e51b815260206004820152602560248201527f455243333532353a207472616e7366657220746f20746865207a65726f206164604482015264647265737360d81b6064820152608490fd5b60405162461bcd60e51b8152602060048201526024808201527f455243333532353a207472616e736665722066726f6d20696e76616c6964206f6044820152633bb732b960e11b6064820152608490fd5b6137ab81613d67565b6000526006602052600261313d6040600020546130e1565b600090828252600660205260036137dd60408420546130e1565b500180546001600160a01b0319166001600160a01b0390921691821790558082526007602081815260408085208054878752600191909101835281862055928452528120805491600160401b8310156138455750816136049160016133fd959401815561342f565b634e487b7160e01b81526041600452602490fd5b9190820391821161309757565b60001981146130975760010190565b600160401b8211612aa05780549180825582811061389257505050565b60009182526020822092830192015b8281106138ad57505050565b8181556001016138a1565b90816020910312610f8f57516001600160e01b031981168103610f8f5790565b92939290803b15613a1d579360009161392f9560405180948193630a85bd0160e11b9788845233600485015260018060a01b0380921660248501526044840152608060648401528260209a8b976084830190612c4f565b0393165af1600091816139ee575b506139df57833d156139d7573d9061395482612b28565b916139626040519384612b07565b82523d60008284013e5b815191826139d45760405162461bcd60e51b815260048101839052603260248201527f4552433732313a207472616e7366657220746f206e6f6e20455243373231526560448201527131b2b4bb32b91034b6b83632b6b2b73a32b960711b6064820152608490fd5b01fd5b60609061396c565b6001600160e01b031916149150565b613a0f919250853d8711613a16575b613a078183612b07565b8101906138b8565b903861393d565b503d6139fd565b50600193505050565b6003805460010190819055600c5460408051630151086360e31b81526001600160a01b03948516600482015260248101959095526044850195909552606484019590955297600097939690959194909290602090829060849082908c908a165af1908115613c87578891613c56575b50888852600d602052868820558360085416803b15613c5257613add9188918a838a51809681958294632108947560e21b845260048401528d60248401526044830190612c4f565b03925af18015613c4857613c35575b508260085416803b1561210857613b289187918983895180968195829463246a908b60e01b845260048401528c60248401526044830190612c4f565b03925af18015613c2b57908691613c17575b5050816008541690813b15610f5c57613b78869283928751948580948193630190503b60e61b83528d60048401528b60248401526044830190612c4f565b03925af18015613c0d57908591613bf9575b50506008541690813b1561061557613bc98392859492859351958680948193637e468a5160e01b83528b60048401528860248401526044830190612c4f565b03925af1908115613bf05750613bde57505090565b613be88291612a8d565b61029d575090565b513d84823e3d90fd5b613c0290612a8d565b610615578338613b8a565b84513d87823e3d90fd5b613c2090612a8d565b6107aa578438613b3a565b85513d88823e3d90fd5b613c4190969196612a8d565b9438613aec565b86513d89823e3d90fd5b8780fd5b90506020813d8211613c7f575b81613c7060209383612b07565b81010312613c52575138613a95565b3d9150613c63565b87513d8a823e3d90fd5b604d811161309757600a0a90565b60055415159081613cae575090565b8091506000526006602052613cc76040600020546130e1565b50541490565b90816020910312610f8f57518015158103610f8f5790565b80600052600d6020526040600020541590811591613d01575090565b600c546040516341ce4b3f60e01b81526004810192909252909150602090829060249082906001600160a01b03165afa908115613d5b57600091613d43575090565b612b95915060203d81116116bd576116ad8183612b07565b6040513d6000823e3d90fd5b6133fd90613d7481613c9f565b908115613d99575b8115613d89575b50613378565b613d939150613ce5565b38613d83565b9050613da481613ce5565b90613d7c565b613db381613d67565b613dbc81613c9f565b80613e49575b15613dd057612b95906137a2565b6000908152600d6020526040812054602060018060a01b03600c541691602460405180948193631398fee160e31b835260048301525afa91821561226d578092613e1957505090565b9091506020823d8211613e41575b81613e3460209383612b07565b8101031261029d57505190565b3d9150613e27565b50613e538161311c565b600b5414613dc2565b90816020910312610f8f57516001600160a01b0381168103610f8f5790565b613e8481613d67565b613e8d81613c9f565b80613f01575b15613ea157612b95906133c4565b60018060a01b03600c541690600052600d60205260206040600020546024604051809481936331a9108f60e11b835260048301525afa908115613d5b57600091613ee9575090565b612b95915060203d81116117ac5761179d8183612b07565b50613f0b8161311c565b600b5414613e93565b6001600160a01b038083169391928415613ffd5783613f3291614055565b15613f80575b5060207f621b050de0ad08b51d19b48b3e6df75348c4de6bdd93e81b252ca62e28265b1b918360005260048252604060002085600052825280604060002055604051908152a3565b908260005260066020526005613f9a6040600020546130e1565b500190815492600160401b841015612aa05785613fe08560209560017f621b050de0ad08b51d19b48b3e6df75348c4de6bdd93e81b252ca62e28265b1b9801815561342f565b909283549160031b90811b9283911b169119161790559150613f38565b60405162461bcd60e51b815260206004820152602a60248201527f455243333532353a20617070726f76652076616c756520746f20746865207a65604482015269726f206164647265737360b01b6064820152608490fd5b6000908282526006602090808252604090614072828620546130e1565b509260058094015496865b8881106140905750505050505050905090565b8188528383526140ae81876140a7888c20546130e1565b500161342f565b905460039190911b1c6001600160a01b03908116908816146140d8576140d390613866565b61407d565b505050505050505050600190565b906140f082613d67565b6140f982613c9f565b8061415e575b1561410d57612b9591614171565b602060018060a01b0391604483600c54166000958652600d845260408620549060405195869485936338d1782f60e21b855260048501521660248301525afa91821561226d578092613e1957505090565b506141688261311c565b600b54146140ff565b61417a81613d67565b600052600460205260406000209060018060a01b031660005260205260406000205490565b6001600160a01b03808216959492939092908615614456578415614407576141c685613c9f565b80156143f8575b6143b3576040908151936141e085612aec565b6000958686528351906141f282612ab6565b88825260209682898d8c8b8097018981528a850191848352606086019384528b608087019580875260a0880198895260066005549b8c948352522055600160401b88101561439f5761424b6001988981016005556130e1565b95909561438b57906005959493929151855551888501555160028401558560038401915116906bffffffffffffffffffffffff60a01b9182825416179055856004840192511690825416179055019051918251926001600160401b0384116143775789906142b98585613875565b01918a52888a20908a5b84811061436457505050505050958097986142ee82600080516020614f9e83398151915298996137c3565b877fddf252ad1be2c89b69c2b068fc378daa952ba7f163c4a11628f55a4df523b3ef8180a485877fe4f48c240d3b994948aa54f3e2f5fca59263dfe1d52b6e4cf39a5d249b5ccb658280a485855260068352600261434e828720546130e1565b500161435b8382546130ad565b905551908152a3565b8351821683820155928a019285016142c3565b634e487b7160e01b8b52604160045260248bfd5b634e487b7160e01b8f5260048f905260248ffd5b634e487b7160e01b8e52604160045260248efd5b60405162461bcd60e51b815260206004820152601d60248201527f455243333532353a20746f6b656e20616c7265616479206d696e7465640000006044820152606490fd5b5061440285613ce5565b6141cd565b60405162461bcd60e51b815260206004820152602160248201527f455243333532353a2063616e6e6f74206d696e74207a65726f20746f6b656e496044820152601960fa1b6064820152608490fd5b60405162461bcd60e51b815260206004820152602160248201527f455243333532353a206d696e7420746f20746865207a65726f206164647265736044820152607360f81b6064820152608490fd5b6144ae81613c9f565b80614521575b156144ca57600052601260205260406000205490565b600c546040516339ace21f60e01b81526004810192909252602090829060249082906001600160a01b03165afa908115613d5b57600091614509575090565b906020823d8211613e415781613e3460209383612b07565b5061452b8161311c565b600b54146144b4565b919091600090808252602091600d835260409283822054156000146148ad5761455e858433614990565b600195866003540196876003556145748561311c565b916001600160a01b038082169290831561485f578a15614811576145978b613c9f565b8015614802575b6147be5788516145ad81612aec565b8781528951888b8e6145be84612ab6565b8084528a84018a81528b8386019285845260608701948c8652608088019680885260a08901998a5260066005549485948352522055600160401b81101561439f57808961460e92016005556130e1565b9590956147aa57906005959493929151855551888501555160028401558560038401915116906bffffffffffffffffffffffff60a01b9182825416179055856004840192511690825416179055019051918251926001600160401b03841161479657908883928f9b9a9998979695948561468791613875565b0191895287892090895b848110614780575050505050507f6d811e6a20ae5461a4ef22a6998c1d958defe727f1cc522b6eb792bc8e6f72669897969386938461475d97946146e761477a9a600080516020614f9e833981519152966137c3565b857fddf252ad1be2c89b69c2b068fc378daa952ba7f163c4a11628f55a4df523b3ef8180a483857fe4f48c240d3b994948aa54f3e2f5fca59263dfe1d52b6e4cf39a5d249b5ccb658280a483835260068152614745888420546130e1565b50508751838152a3614758858883614a2a565b61311c565b915192839286846040919493926060820195825260208201520152565b0390a190565b83518216818401558f9b50928901928501614691565b634e487b7160e01b8a52604160045260248afd5b634e487b7160e01b8e5260048e905260248efd5b885162461bcd60e51b815260048101879052601d60248201527f455243333532353a20746f6b656e20616c7265616479206d696e7465640000006044820152606490fd5b5061480c8b613ce5565b61459e565b885162461bcd60e51b815260048101879052602160248201527f455243333532353a2063616e6e6f74206d696e74207a65726f20746f6b656e496044820152601960fa1b6064820152608490fd5b885162461bcd60e51b815260048101879052602160248201527f455243333532353a206d696e7420746f20746865207a65726f206164647265736044820152607360f81b6064820152608490fd5b600c5484516307a42e0160e11b8152600481018590526001600160a01b0397881660248201526044810187905291969192918791849160649183918691165af195861561498457819661492d575b5050509061477a61475d7f6d811e6a20ae5461a4ef22a6998c1d958defe727f1cc522b6eb792bc8e6f7266949361311c565b909180939650813d831161497d575b6149468183612b07565b8101031261029d5750519261477a61475d7f6d811e6a20ae5461a4ef22a6998c1d958defe727f1cc522b6eb792bc8e6f72666148fb565b503d61493c565b508351903d90823e3d90fd5b61499a8183614171565b6149a48383613447565b1580614a1e575b6149b6575b50505050565b8381106149d9576149d0936149ca91613859565b91613f14565b388080806149b0565b60405162461bcd60e51b815260206004820152601f60248201527f455243333532353a20696e73756666696369656e7420616c6c6f77616e6365006044820152606490fd5b506000198114156149ab565b614a3381613c9f565b8015614cc0575b15614c6b57614a4882613c9f565b8015614c5c575b15614c09578060005260209260068452604092614a6f84600020546130e1565b508160005260068652614a8585600020546130e1565b50906002810190815490858210614bb25760010154600184015403614b575791600291614ab886614af598979695613859565b905501614ac68382546130ad565b90558083600080516020614f9e833981519152888851868152a3845192614aec84612aec565b60008452614ccf565b15614afe575050565b60849250519062461bcd60e51b82526004820152602d60248201527f455243333532353a207472616e736665722072656a656374656420627920455260448201526c21999a991aa932b1b2b4bb32b960991b6064820152fd5b865162461bcd60e51b815260048101899052602e60248201527f455243333532353a207472616e7366657220746f20746f6b656e20776974682060448201526d191a5999995c995b9d081cdb1bdd60921b6064820152608490fd5b875162461bcd60e51b8152600481018a9052602a60248201527f455243333532353a20696e73756666696369656e742062616c616e636520666f60448201526939103a3930b739b332b960b11b6064820152608490fd5b60405162461bcd60e51b815260206004820152602560248201527f455243333532353a207472616e7366657220746f20696e76616c696420746f6b604482015264195b88125160da1b6064820152608490fd5b50614c6682613ce5565b614a4f565b60405162461bcd60e51b815260206004820152602760248201527f455243333532353a207472616e736665722066726f6d20696e76616c696420746044820152661bdad95b88125160ca1b6064820152608490fd5b50614cca81613ce5565b614a3a565b92614cd9826133c4565b803b151580614d7f575b15614d7557614d2c93600060209460405196879586948593629ce20b60e01b9b8c865233600487015260248601526044850152606484015260a0608484015260a4830190612c4f565b03926001600160a01b03165af1908115613d5b57600091614d57575b506001600160e01b0319161490565b614d6f915060203d8111613a1657613a078183612b07565b38614d48565b5050505050600190565b506040516301ffc9a760e01b8152629ce20b60e01b60048201526020816024816001600160a01b0386165afa908115613d5b57600091614dc0575b50614ce3565b614dd8915060203d81116116bd576116ad8183612b07565b38614dba565b9091614de983613c9f565b80614f8a575b8015614f7b575b15614f0457614e0482613c9f565b80614ef1575b80614ece575b15614e745790614e6f82614e477fdf7a601a0a201ccd4b4bfcfd610913188d931867997223d226f85f2f2673988a95948433614990565b614e52818585614a2a565b604051938493846040919493926060820195825260208201520152565b0390a1565b600c546001600160a01b0316803b15610f8f57604051630310ed7f60e41b8152600481019390935260248301939093526044820152906000908290606490829084905af18015613d5b57614ec55750565b6133fd90612a8d565b50614ed883613c9f565b8015614e105750614ee88361311c565b600b5414614e10565b50614efb8261311c565b600b5414614e0a565b60a460405162461bcd60e51b815260206004820152604460248201527f546f6b656e204944206f66207265636569766572206e6f74207265636f676e6960448201527f7a6564206279207468697320636f6e7472616374206f722074686520726567696064820152637374727960e01b6084820152fd5b50614f8583613ce5565b614df6565b50614f948361311c565b600b5414614def56fe0b2aac84f3ec956911fd78eae5311062972ff949f38412e8da39069d9f068cc6a26469706673582212203e5ddef7857113f78843e11b1d738186342eb734ee90c27734dc95902b4611e764736f6c634300081100336080604052346200048657620020b7803803806200001d816200048b565b9283398101608082820312620004865781516001600160401b0391908281116200048657816200004f918501620004b1565b91602092838501518281116200048657836200006d918701620004b1565b92604086015183811162000486576060916200008b918801620004b1565b9501516001600160a01b03811695908690036200048657815193838511620002c3576001948554938685811c951680156200047b575b88861014620002a2578190601f9586811162000425575b508890868311600114620003bd57600092620003b1575b5050600019600383901b1c191690861b1785555b805190848211620002c357600254908682811c92168015620003a6575b88831014620002a25781858493116200034f575b508790858311600114620002e557600092620002d9575b5050600019600383901b1c191690851b176002555b8051928311620002c35760039485548581811c91168015620002b8575b82821014620002a25783811162000257575b5080928411600114620001ed5750928293918392600094620001e1575b50501b9160001990841b1c19161790555b600080546001600160a01b031916919091179055604051611b939081620005248239f35b015192503880620001ac565b919083601f1981168760005284600020946000905b888383106200023c575050501062000223575b505050811b019055620001bd565b015160001983861b60f8161c1916905538808062000215565b85870151885590960195948501948793509081019062000202565b86600052816000208480870160051c82019284881062000298575b0160051c019086905b8281106200028b5750506200018f565b600081550186906200027b565b9250819262000272565b634e487b7160e01b600052602260045260246000fd5b90607f16906200017d565b634e487b7160e01b600052604160045260246000fd5b0151905038806200014b565b90879350601f198316916002600052896000209260005b8b8282106200033857505084116200031e575b505050811b0160025562000160565b015160001960f88460031b161c191690553880806200030f565b8385015186558b97909501949384019301620002fc565b9091506002600052876000208580850160051c8201928a86106200039c575b918991869594930160051c01915b8281106200038c57505062000134565b600081558594508991016200037c565b925081926200036e565b91607f169162000120565b015190503880620000ef565b90889350601f19831691846000528a6000209260005b8c8282106200040e5750508411620003f4575b505050811b01855562000103565b015160001960f88460031b161c19169055388080620003e6565b8385015186558c97909501949384019301620003d3565b90915087600052886000208680850160051c8201928b861062000471575b918a91869594930160051c01915b82811062000461575050620000d8565b600081558594508a910162000451565b9250819262000443565b94607f1694620000c1565b600080fd5b6040519190601f01601f191682016001600160401b03811183821017620002c357604052565b919080601f84011215620004865782516001600160401b038111620002c357602090620004e7601f8201601f191683016200048b565b92818452828287010111620004865760005b8181106200050f57508260009394955001015290565b8581018301518482018401528201620004f956fe608060408181526004908136101561001657600080fd5b600092833560e01c9081631375d843146113cd57508063246a908b146112cf57806355f804b31461118b57806364140ec01461108c5780636c0360eb14610fcd5780636c037f8a14610d0f57806371f0442e14610c7b578063725fa09c146108c05780637e468a51146107c1578063842251d414610685578063894b4c2e146101755763b3154c08146100a857600080fd5b34610171576020918260031936011261016d5780358452825280832091815192848154906100d5826118e1565b80875292600192808416908115610149575060011461010e575b61010a8787610100828c03836114e3565b5191829182611485565b0390f35b9080949750528583205b828410610136575050508261010a94610100928201019438806100ef565b8054868501880152928601928101610118565b60ff19168887015250505050151560051b83010192506101008261010a38806100ef565b8380fd5b8280fd5b50903461017157602092836003193601126106825782516306fdde0360e01b81529180359082848281335afa938415610678578394610654575b506101b98261179e565b926102056022875180968a6101d78184019a8b815193849201611462565b820161202360f01b8c8201526101f68c83519384918785019101611462565b010360028101875201856114e3565b828152818752858120865181549391899184610220876118e1565b80835284830193600198868a821691826000146106345750506001146105fb575b505090610254816102c9949303826114e3565b6102e561026030611a1a565b898852600686526102d78d808a209a60058952818b2091519788948a86019a6102ac61028b8d61191b565b91692f636f6e74726163742f60b01b83528351938491600a85019101611462565b019c6011662f746f6b656e2f60c81b9e8f600a8201520190611997565b602f60f81b81520190611997565b03601f1981018552846114e3565b8a51631398fee160e31b81528581018990528c81602481335afa80156105c25787906105cc575b610316915061179e565b8b5163131f9f3f60e11b8152958601899052948c81602481335afa9081156105c2578d918d918991610589575b5061034d9061179e565b9761035733611a1a565b9a815260068352208c51713d91383937b832b93a34b2b9afbab934911d60711b818401908152601160f91b60328301529a90998a93909161039a6033860161191b565b9068636f6e74726163742f60b81b825280518093600984019201916103be92611462565b019060098201526010016103d191611997565b6f17b83937b832b93a34b2b9973539b7b760811b815261227d60f01b601082015203600d198101885260120161040790886114e3565b8a51998a998d683d913730b6b2911d1160b91b908c015251908160298c0161042e92611462565b890190701116113232b9b1b934b83a34b7b7111d1160791b6029830152519182603a830161045b92611462565b01906a11161134b6b0b3b2911d1160a91b603a8301525191826045830161048192611462565b016c1116113130b630b731b2911d1160991b6045820152815191828a605284019201916104ad92611462565b016911161139b637ba111d1160b11b60528201528151918289605c84019201916104d692611462565b01906e111611383937b832b93a34b2b9911d60891b605c830152519182606b830161050092611462565b01606b8101607d60f81b905203604c81018252606c0161052090826114e3565b61052990611631565b81517f646174613a6170706c69636174696f6e2f6a736f6e3b6261736536342c00000084820152815190938492610567918391603d86019101611462565b810103601d81018352603d0161057d90836114e3565b5161010a819282611485565b928092508391503d83116105bb575b6105a281836114e3565b810103126105b7578b61034d8e925190610343565b8680fd5b503d610598565b8c513d89823e3d90fd5b508c81813d83116105f4575b6105e281836114e3565b810103126105b757610316905161030c565b503d6105d8565b8592508752818720908888925b82841061061e5750505082010161025482610241565b80548487018601528794909301928a9101610608565b60ff1916875292151560051b850190920192506102549150839050610241565b6106719194503d8085833e61066981836114e3565b8101906115a0565b92386101af565b85513d85823e3d90fd5b80fd5b508290346107bd576106963661156d565b939083526020916006835283209184519167ffffffffffffffff83116107aa57506106c183546118e1565b601f8111610767575b5080601f831160011461070557508394829394926106fa575b50508160011b916000199060031b1c191617905580f35b0151905084806106e3565b90601f198316958486528286209286905b88821061074f57505083600195969710610736575b505050811b01905580f35b015160001960f88460031b161c1916905584808061072b565b80600185968294968601518155019501930190610716565b838552818520601f840160051c8101918385106107a0575b601f0160051c01905b81811061079557506106ca565b858155600101610788565b909150819061077f565b634e487b7160e01b855260419052602484fd5b5080fd5b508290346107bd576107d23661156d565b939083526020916007835283209184519167ffffffffffffffff83116107aa57506107fd83546118e1565b601f811161087d575b5080601f831160011461083557508394829394926106fa5750508160011b916000199060031b1c191617905580f35b90601f198316958486528286209286905b8882106108655750508360019596971061073657505050811b01905580f35b80600185968294968601518155019501930190610846565b838552818520601f840160051c8101918385106108b6575b601f0160051c01905b8181106108ab5750610806565b85815560010161089e565b9091508190610895565b50913461068257806003193601126106825782516306fdde0360e01b815281818481335afa908115610c71578291610c57575b508351829060025492610905846118e1565b9586835260209683888101956001978a8982169182600014610c3c575050600114610be1575b610937925003846114e3565b61094033611a1a565b9588519586898101986109528a61191b565b68636f6e74726163742f60b81b81526109758c8351938491600985019101611462565b01602f60f81b600982015283906003549361098f856118e1565b94818116908115610bc05750600114610b61575b50506109b8925003601f1981018852876114e3565b8789518093633e7e866960e01b825281335afa918215610b55578192610b17575b5050610ac9605a888a61010a9b9961010099610a7f603d9a610b079e9a610a5c610ace9b610a0c60ff610a329d1661179e565b97519b8c99683d913730b6b2911d1160b91b818c0152825192839160298d019101611462565b880191701116113232b9b1b934b83a34b7b7111d1160791b6029840152518093603a840190611462565b01916a11161134b6b0b3b2911d1160a91b603a8401525180936045840190611462565b01721116113b30b63ab2a232b1b4b6b0b639911d1160691b6045820152610aaf825180938a605885019101611462565b0161227d60f01b605882015203603a8101845201826114e3565b611631565b845195827f646174613a6170706c69636174696f6e2f6a736f6e3b6261736536342c000000889485015282519283918686019101611462565b810103601d8101855201836114e3565b9091508781813d8311610b4e575b610b2f81836114e3565b810103126107bd57519060ff821682036106825750610ac9605a6109d9565b503d610b25565b508851903d90823e3d90fd5b6003865290915084908c7fc2575a0e9e593c00f959f8c92f12db2869c3395a3b0502d05e2516446f71f85b5b868410610ba857505050506109b892600a91010138806109a3565b8054858501600a01528c95509201918d908201610b8d565b9050600a93506109b895915060ff19168383015280151502010138806109a3565b505060028752838888887f405787fa12a823e0f2b7631cc41b3ba8828b3321ca811111fa75cd3aa3bb5ace5b858310610c23575050610937935082010161092b565b80919294505483858a0101520191018990888793610c0d565b60ff1916895261093794151560051b840101915061092b9050565b610c6b91503d8084833e61066981836114e3565b386108f3565b84513d84823e3d90fd5b5034610171576020918260031936011261016d57358352600582528083209181519284815490610caa826118e1565b808752926001928084169081156101495750600114610cd45761010a8787610100828c03836114e3565b9080949750528583205b828410610cfc575050508261010a94610100928201019438806100ef565b8054868501880152928601928101610cde565b5090346101715760209283600319360112610682578054835163ec327a2160e01b815283358185018190529092916001600160a01b0316908284602481855afa938415610fc3578394610fa7575b50855163bc74ebb960e01b8152858101829052948386602481865afa958615610f9d578496610f81575b5086516309c3dd8760e01b80825282820184905290938585602481845afa948515610f7757918a9594939187938496610f56575b5090602491610dfb60268d518a652f696d61676560d01b81610de7849e85019d8e815193849201611462565b83019182015203600681018b5201896114e3565b8b51958694859384528301525afa938415610f4b578094610f2e575b50508551918288808201868197519283910191610e3392611462565b81018981016f17b83937b832b93a34b2b9973539b7b760811b905203601081018452603001610e6290846114e3565b8651958695683d913730b6b2911d1160b91b8a880152805190818b60298a01920191610e8d92611462565b8601701116113232b9b1b934b83a34b7b7111d1160791b6029820152815191828b603a8401920191610ebe92611462565b01906a11161134b6b0b3b2911d1160a91b603a83015251918260458301610ee492611462565b01906e111611383937b832b93a34b2b9911d60891b604583015251918260548301610f0e92611462565b0160548101607d60f81b90520360358101825260550161052090826114e3565b610f439294503d8091833e61066981836114e3565b913880610e17565b8751903d90823e3d90fd5b602492919650610f6f903d8087833e61066981836114e3565b959091610dbb565b89513d88823e3d90fd5b610f969196503d8086833e61066981836114e3565b9438610d87565b87513d86823e3d90fd5b610fbc9194503d8085833e61066981836114e3565b9238610d5d565b86513d85823e3d90fd5b8382346107bd57816003193601126107bd57805190826001805491610ff1836118e1565b80865292828116908115611064575060011461101a575b5050506101008261010a9403836114e3565b9450808552600080516020611b3e8339815191525b82861061104c5750505061010082602061010a9582010194611008565b8054602087870181019190915290950194810161102f565b61010a97508693506020925061010094915060ff191682840152151560051b82010194611008565b508290346107bd5761109d3661156d565b939083526020916005835283209184519167ffffffffffffffff83116107aa57506110c883546118e1565b601f8111611148575b5080601f831160011461110057508394829394926106fa5750508160011b916000199060031b1c191617905580f35b90601f198316958486528286209286905b8882106111305750508360019596971061073657505050811b01905580f35b80600185968294968601518155019501930190611111565b838552818520601f840160051c810191838510611181575b601f0160051c01905b81811061117657506110d1565b858155600101611169565b9091508190611160565b828434610682576020806003193601126107bd5767ffffffffffffffff833581811161016d576111be9036908601611521565b9384519182116112bc57506001916111d683546118e1565b601f811161126a575b5080601f8311600114611219575083948293949261120e575b5050600019600383901b1c191690821b17905580f35b0151905084806111f8565b838552601f19831695600080516020611b3e833981519152929186905b888210611253575050838596971061073657505050811b01905580f35b808785968294968601518155019501930190611236565b838552600080516020611b3e833981519152601f840160051c8101918385106112b2575b601f0160051c019084905b8281106112a75750506111df565b868155018490611299565b909150819061128e565b634e487b7160e01b845260419052602483fd5b508290346107bd576112e03661156d565b9390835260209181835283209184519167ffffffffffffffff83116107aa575061130a83546118e1565b601f811161138a575b5080601f831160011461134257508394829394926106fa5750508160011b916000199060031b1c191617905580f35b90601f198316958486528286209286905b8882106113725750508360019596971061073657505050811b01905580f35b80600185968294968601518155019501930190611353565b838552818520601f840160051c8101918385106113c3575b601f0160051c01905b8181106113b85750611313565b8581556001016113ab565b90915081906113a2565b9290503461016d576020908160031936011261145e57358452600681528184208054856113f9826118e1565b8087529260019280841690811561014957506001146114235761010a8787610100828c03836114e3565b9080949750528583205b82841061144b575050508261010a94610100928201019438806100ef565b805486850188015292860192810161142d565b8480fd5b60005b8381106114755750506000910152565b8181015183820152602001611465565b604091602082526114a58151809281602086015260208686019101611462565b601f01601f1916010190565b6060810190811067ffffffffffffffff8211176114cd57604052565b634e487b7160e01b600052604160045260246000fd5b90601f8019910116810190811067ffffffffffffffff8211176114cd57604052565b67ffffffffffffffff81116114cd57601f01601f191660200190565b81601f820112156115685780359061153882611505565b9261154660405194856114e3565b8284526020838301011161156857816000926020809301838601378301015290565b600080fd5b90604060031983011261156857600435916024359067ffffffffffffffff82116115685761159d91600401611521565b90565b6020818303126115685780519067ffffffffffffffff8211611568570181601f820112156115685780516115d381611505565b926115e160405194856114e3565b818452602082840101116115685761159d9160208085019101611462565b9061160982611505565b61161660405191826114e3565b8281528092611627601f1991611505565b0190602036910137565b80511561177957604051611644816114b1565b604081527f4142434445464748494a4b4c4d4e4f505152535455565758595a61626364656660208201527f6768696a6b6c6d6e6f707172737475767778797a303132333435363738392b2f60408201528151600292838201809211611763576003918290046001600160fe1b0381168103611763576116c6908594951b6115ff565b936020850193829183518401925b83811061171257505050505106806001146116ff576002146116f4575090565b603d90600019015390565b50603d9081600019820153600119015390565b85600491979293949701918251600190603f9082828260121c16880101518453828282600c1c16880101518385015382828260061c16880101518885015316850101518782015301959291906116d4565b634e487b7160e01b600052601160045260246000fd5b506040516020810181811067ffffffffffffffff8211176114cd576040526000815290565b806000917a184f03e93ff9f4daa797ed6e38ed64bf6a1f010000000000000000808210156118d3575b506d04ee2d6d415b85acef8100000000808310156118c4575b50662386f26fc10000808310156118b5575b506305f5e100808310156118a6575b5061271080831015611897575b506064821015611887575b600a8092101561187d575b6001908160216118358287016115ff565b95860101905b611847575b5050505090565b600019019083906f181899199a1a9b1b9c1cb0b131b232b360811b8282061a8353049182156118785791908261183b565b611840565b9160010191611824565b9190606460029104910191611819565b6004919392049101913861180e565b60089193920491019138611801565b601091939204910191386117f2565b602091939204910191386117e0565b6040935081049150386117c7565b90600182811c92168015611911575b60208310146118fb57565b634e487b7160e01b600052602260045260246000fd5b91607f16916118f0565b9060009160019081549161192e836118e1565b92818116908115611984575060011461194657505050565b809192939450600052600080516020611b3e833981519152906000915b848310611971575050500190565b8181602092548587015201920191611963565b60ff191683525050811515909102019150565b6000929181546119a6816118e1565b926001918083169081156119ff57506001146119c3575b50505050565b90919293945060005260209081600020906000915b8583106119ee57505050500190388080806119bd565b8054858401529183019181016119d8565b60ff19168452505050811515909102019150388080806119bd565b604051906001600160a01b0316611a30826114b1565b602a82526020908183016040368237835115611b2757603090538251600190811015611b2757607860218501536029905b808211611ab5575050611a72575090565b6064906040519062461bcd60e51b825280600483015260248201527f537472696e67733a20686578206c656e67746820696e73756666696369656e746044820152fd5b9091600f81166010811015611b12578551841015611b12576f181899199a1a9b1b9c1cb0b131b232b360811b901a85840185015360041c918015611afd576000190190611a61565b60246000634e487b7160e01b81526011600452fd5b60246000634e487b7160e01b81526032600452fd5b634e487b7160e01b600052603260045260246000fdfeb10e2d527612073b26eecdfd717e6a320cf44b4afac2b0732d9fcbe2b7fa0cf6a26469706673582212208ca4f65294610ecd78a777bb408e8725ee425416006ed9fc7c5c58d006126bd564736f6c634300081100332f8788117e7eff1d82e926ec794901d17c78024a50270940304540a733656f0db10e2d527612073b26eecdfd717e6a320cf44b4afac2b0732d9fcbe2b7fa0cf6",
  "linkReferences": {},
  "deployedLinkReferences": {}
}