{
  "_format": "hh-sol-artifact-1",
  "contractName": "SpendCredit",
  "sourceName": "contracts/SpendCredit.sol",
  "abi": [
    {
      "inputs": [
        {
          "internalType": "address",
          "name": "revenueAcct_",
          "type": "address"
        },
        {
          "internalType": "address",
          "name": "serviceAdmin_",
          "type": "address"
        },
        {
          "internalType": "address",
          "name": "slotRegistryContract_",
          "type": "address"
        },
        {
          "internalType": "address",
          "name": "underlyingContract_",
          "type": "address"
        },
        {
          "internalType": "address",
          "name": "mktAdmin_",
          "type": "address"
        },
        {
          "internalType": "uint256",
          "name": "defaultSlot_",
          "type": "uint256"
        },
        {
          "internalType": "string",
          "name": "name_",
          "type": "string"
        },
        {
          "internalType": "string",
          "name": "symbol_",
          "type": "string"
        },
        {
          "internalType": "string",
          "name": "baseuri_",
          "type": "string"
        },
        {
          "internalType": "string",
          "name": "contractDescription_",
          "type": "string"
        },
        {
          "internalType": "string",
          "name": "contractImage_",
          "type": "string"
        },
        {
          "internalType": "string",
          "name": "valueToken_",
          "type": "string"
        },
        {
          "internalType": "uint8",
          "name": "decimals_",
          "type": "uint8"
        }
      ],
      "stateMutability": "nonpayable",
      "type": "constructor"
    },
    {
      "anonymous": false,
      "inputs": [
        {
          "indexed": true,
          "internalType": "address",
          "name": "_owner",
          "type": "address"
        },
        {
          "indexed": true,
          "internalType": "address",
          "name": "_approved",
          "type": "address"
        },
        {
          "indexed": true,
          "internalType": "uint256",
          "name": "_tokenId",
          "type": "uint256"
        }
      ],
      "name": "Approval",
      "type": "event"
    },
    {
      "anonymous": false,
      "inputs": [
        {
          "indexed": true,
          "internalType": "address",
          "name": "_owner",
          "type": "address"
        },
        {
          "indexed": true,
          "internalType": "address",
          "name": "_operator",
          "type": "address"
        },
        {
          "indexed": false,
          "internalType": "bool",
          "name": "_approved",
          "type": "bool"
        }
      ],
      "name": "ApprovalForAll",
      "type": "event"
    },
    {
      "anonymous": false,
      "inputs": [
        {
          "indexed": true,
          "internalType": "uint256",
          "name": "_tokenId",
          "type": "uint256"
        },
        {
          "indexed": true,
          "internalType": "address",
          "name": "_operator",
          "type": "address"
        },
        {
          "indexed": false,
          "internalType": "uint256",
          "name": "_value",
          "type": "uint256"
        }
      ],
      "name": "ApprovalValue",
      "type": "event"
    },
    {
      "anonymous": false,
      "inputs": [
        {
          "indexed": false,
          "internalType": "address",
          "name": "contractAddress",
          "type": "address"
        }
      ],
      "name": "MetadataDescriptor",
      "type": "event"
    },
    {
      "anonymous": false,
      "inputs": [
        {
          "indexed": false,
          "internalType": "uint256",
          "name": "tokenId",
          "type": "uint256"
        },
        {
          "indexed": false,
          "internalType": "uint256",
          "name": "slot",
          "type": "uint256"
        },
        {
          "indexed": false,
          "internalType": "uint256",
          "name": "value",
          "type": "uint256"
        }
      ],
      "name": "MintNetworkServiceToken",
      "type": "event"
    },
    {
      "anonymous": false,
      "inputs": [
        {
          "indexed": false,
          "internalType": "uint256",
          "name": "tokenId",
          "type": "uint256"
        },
        {
          "indexed": false,
          "internalType": "uint256",
          "name": "slot",
          "type": "uint256"
        },
        {
          "indexed": false,
          "internalType": "uint256",
          "name": "value",
          "type": "uint256"
        }
      ],
      "name": "MintServiceToken",
      "type": "event"
    },
    {
      "anonymous": false,
      "inputs": [
        {
          "indexed": false,
          "internalType": "uint256",
          "name": "newTokenId",
          "type": "uint256"
        },
        {
          "indexed": false,
          "internalType": "uint256",
          "name": "slot",
          "type": "uint256"
        },
        {
          "indexed": false,
          "internalType": "uint256",
          "name": "value",
          "type": "uint256"
        }
      ],
      "name": "MintServiceTokenToAddress",
      "type": "event"
    },
    {
      "anonymous": false,
      "inputs": [
        {
          "indexed": false,
          "internalType": "uint256",
          "name": "tokenId",
          "type": "uint256"
        },
        {
          "indexed": false,
          "internalType": "uint256",
          "name": "slot",
          "type": "uint256"
        },
        {
          "indexed": false,
          "internalType": "uint256",
          "name": "value",
          "type": "uint256"
        }
      ],
      "name": "MintSpendToken",
      "type": "event"
    },
    {
      "anonymous": false,
      "inputs": [
        {
          "indexed": true,
          "internalType": "bytes32",
          "name": "role",
          "type": "bytes32"
        },
        {
          "indexed": true,
          "internalType": "bytes32",
          "name": "previousAdminRole",
          "type": "bytes32"
        },
        {
          "indexed": true,
          "internalType": "bytes32",
          "name": "newAdminRole",
          "type": "bytes32"
        }
      ],
      "name": "RoleAdminChanged",
      "type": "event"
    },
    {
      "anonymous": false,
      "inputs": [
        {
          "indexed": true,
          "internalType": "bytes32",
          "name": "role",
          "type": "bytes32"
        },
        {
          "indexed": true,
          "internalType": "address",
          "name": "account",
          "type": "address"
        },
        {
          "indexed": true,
          "internalType": "address",
          "name": "sender",
          "type": "address"
        }
      ],
      "name": "RoleGranted",
      "type": "event"
    },
    {
      "anonymous": false,
      "inputs": [
        {
          "indexed": true,
          "internalType": "bytes32",
          "name": "role",
          "type": "bytes32"
        },
        {
          "indexed": true,
          "internalType": "address",
          "name": "account",
          "type": "address"
        },
        {
          "indexed": true,
          "internalType": "address",
          "name": "sender",
          "type": "address"
        }
      ],
      "name": "RoleRevoked",
      "type": "event"
    },
    {
      "anonymous": false,
      "inputs": [
        {
          "indexed": true,
          "internalType": "address",
          "name": "metadataDescriptor",
          "type": "address"
        }
      ],
      "name": "SetMetadataDescriptor",
      "type": "event"
    },
    {
      "anonymous": false,
      "inputs": [
        {
          "indexed": true,
          "internalType": "uint256",
          "name": "_tokenId",
          "type": "uint256"
        },
        {
          "indexed": true,
          "internalType": "uint256",
          "name": "_oldSlot",
          "type": "uint256"
        },
        {
          "indexed": true,
          "internalType": "uint256",
          "name": "_newSlot",
          "type": "uint256"
        }
      ],
      "name": "SlotChanged",
      "type": "event"
    },
    {
      "anonymous": false,
      "inputs": [
        {
          "indexed": true,
          "internalType": "address",
          "name": "_from",
          "type": "address"
        },
        {
          "indexed": true,
          "internalType": "address",
          "name": "_to",
          "type": "address"
        },
        {
          "indexed": true,
          "internalType": "uint256",
          "name": "_tokenId",
          "type": "uint256"
        }
      ],
      "name": "Transfer",
      "type": "event"
    },
    {
      "anonymous": false,
      "inputs": [
        {
          "indexed": true,
          "internalType": "uint256",
          "name": "_fromTokenId",
          "type": "uint256"
        },
        {
          "indexed": true,
          "internalType": "uint256",
          "name": "_toTokenId",
          "type": "uint256"
        },
        {
          "indexed": false,
          "internalType": "uint256",
          "name": "_value",
          "type": "uint256"
        }
      ],
      "name": "TransferValue",
      "type": "event"
    },
    {
      "anonymous": false,
      "inputs": [
        {
          "indexed": false,
          "internalType": "uint256",
          "name": "fromTokenId",
          "type": "uint256"
        },
        {
          "indexed": false,
          "internalType": "uint256",
          "name": "toTokenId",
          "type": "uint256"
        },
        {
          "indexed": false,
          "internalType": "uint256",
          "name": "value",
          "type": "uint256"
        }
      ],
      "name": "ValueTransfer",
      "type": "event"
    },
    {
      "inputs": [],
      "name": "DEFAULT_ADMIN_ROLE",
      "outputs": [
        {
          "internalType": "bytes32",
          "name": "",
          "type": "bytes32"
        }
      ],
      "stateMutability": "view",
      "type": "function"
    },
    {
      "inputs": [],
      "name": "MKT_ARBITRATOR_ROLE",
      "outputs": [
        {
          "internalType": "bytes32",
          "name": "",
          "type": "bytes32"
        }
      ],
      "stateMutability": "view",
      "type": "function"
    },
    {
      "inputs": [
        {
          "internalType": "string",
          "name": "uri_",
          "type": "string"
        }
      ],
      "name": "_setBaseURI",
      "outputs": [],
      "stateMutability": "nonpayable",
      "type": "function"
    },
    {
      "inputs": [
        {
          "internalType": "uint256",
          "name": "tokenId_",
          "type": "uint256"
        },
        {
          "internalType": "address",
          "name": "operator_",
          "type": "address"
        }
      ],
      "name": "allowance",
      "outputs": [
        {
          "internalType": "uint256",
          "name": "",
          "type": "uint256"
        }
      ],
      "stateMutability": "view",
      "type": "function"
    },
    {
      "inputs": [
        {
          "internalType": "address",
          "name": "to_",
          "type": "address"
        },
        {
          "internalType": "uint256",
          "name": "tokenId_",
          "type": "uint256"
        }
      ],
      "name": "approve",
      "outputs": [],
      "stateMutability": "payable",
      "type": "function"
    },
    {
      "inputs": [
        {
          "internalType": "uint256",
          "name": "tokenId_",
          "type": "uint256"
        },
        {
          "internalType": "address",
          "name": "to_",
          "type": "address"
        },
        {
          "internalType": "uint256",
          "name": "value_",
          "type": "uint256"
        }
      ],
      "name": "approve",
      "outputs": [],
      "stateMutability": "payable",
      "type": "function"
    },
    {
      "inputs": [
        {
          "internalType": "address",
          "name": "owner_",
          "type": "address"
        }
      ],
      "name": "balanceOf",
      "outputs": [
        {
          "internalType": "uint256",
          "name": "balance",
          "type": "uint256"
        }
      ],
      "stateMutability": "view",
      "type": "function"
    },
    {
      "inputs": [
        {
          "internalType": "uint256",
          "name": "tokenId_",
          "type": "uint256"
        }
      ],
      "name": "balanceOf",
      "outputs": [
        {
          "internalType": "uint256",
          "name": "",
          "type": "uint256"
        }
      ],
      "stateMutability": "view",
      "type": "function"
    },
    {
      "inputs": [],
      "name": "contractAdmin",
      "outputs": [
        {
          "internalType": "address",
          "name": "",
          "type": "address"
        }
      ],
      "stateMutability": "view",
      "type": "function"
    },
    {
      "inputs": [],
      "name": "contractURI",
      "outputs": [
        {
          "internalType": "string",
          "name": "",
          "type": "string"
        }
      ],
      "stateMutability": "view",
      "type": "function"
    },
    {
      "inputs": [],
      "name": "creditType",
      "outputs": [
        {
          "internalType": "string",
          "name": "",
          "type": "string"
        }
      ],
      "stateMutability": "view",
      "type": "function"
    },
    {
      "inputs": [
        {
          "internalType": "uint256",
          "name": "tokenId_",
          "type": "uint256"
        }
      ],
      "name": "getApproved",
      "outputs": [
        {
          "internalType": "address",
          "name": "",
          "type": "address"
        }
      ],
      "stateMutability": "view",
      "type": "function"
    },
    {
      "inputs": [
        {
          "internalType": "bytes32",
          "name": "role",
          "type": "bytes32"
        }
      ],
      "name": "getRoleAdmin",
      "outputs": [
        {
          "internalType": "bytes32",
          "name": "",
          "type": "bytes32"
        }
      ],
      "stateMutability": "view",
      "type": "function"
    },
    {
      "inputs": [
        {
          "internalType": "uint256",
          "name": "tokenId",
          "type": "uint256"
        }
      ],
      "name": "getTokenDescription",
      "outputs": [
        {
          "internalType": "string",
          "name": "",
          "type": "string"
        }
      ],
      "stateMutability": "view",
      "type": "function"
    },
    {
      "inputs": [
        {
          "internalType": "uint256",
          "name": "tokenId",
          "type": "uint256"
        }
      ],
      "name": "getTokenImage",
      "outputs": [
        {
          "internalType": "string",
          "name": "",
          "type": "string"
        }
      ],
      "stateMutability": "view",
      "type": "function"
    },
    {
      "inputs": [
        {
          "internalType": "uint256",
          "name": "tokenId",
          "type": "uint256"
        }
      ],
      "name": "getTokenUUID",
      "outputs": [
        {
          "internalType": "string",
          "name": "",
          "type": "string"
        }
      ],
      "stateMutability": "view",
      "type": "function"
    },
    {
      "inputs": [
        {
          "internalType": "bytes32",
          "name": "role",
          "type": "bytes32"
        },
        {
          "internalType": "address",
          "name": "account",
          "type": "address"
        }
      ],
      "name": "grantRole",
      "outputs": [],
      "stateMutability": "nonpayable",
      "type": "function"
    },
    {
      "inputs": [
        {
          "internalType": "bytes32",
          "name": "role",
          "type": "bytes32"
        },
        {
          "internalType": "address",
          "name": "account",
          "type": "address"
        }
      ],
      "name": "hasRole",
      "outputs": [
        {
          "internalType": "bool",
          "name": "",
          "type": "bool"
        }
      ],
      "stateMutability": "view",
      "type": "function"
    },
    {
      "inputs": [
        {
          "internalType": "address",
          "name": "owner_",
          "type": "address"
        },
        {
          "internalType": "address",
          "name": "operator_",
          "type": "address"
        }
      ],
      "name": "isApprovedForAll",
      "outputs": [
        {
          "internalType": "bool",
          "name": "",
          "type": "bool"
        }
      ],
      "stateMutability": "view",
      "type": "function"
    },
    {
      "inputs": [],
      "name": "metadataDescriptor",
      "outputs": [
        {
          "internalType": "contract IERC3525MetadataDescriptor",
          "name": "",
          "type": "address"
        }
      ],
      "stateMutability": "view",
      "type": "function"
    },
    {
      "inputs": [
        {
          "internalType": "address",
          "name": "owner_",
          "type": "address"
        },
        {
          "internalType": "uint256",
          "name": "slot_",
          "type": "uint256"
        },
        {
          "internalType": "uint256",
          "name": "value_",
          "type": "uint256"
        },
        {
          "internalType": "string",
          "name": "uuid_",
          "type": "string"
        },
        {
          "internalType": "string",
          "name": "tokenDescription_",
          "type": "string"
        },
        {
          "internalType": "string",
          "name": "tokenImage_",
          "type": "string"
        }
      ],
      "name": "mint",
      "outputs": [
        {
          "internalType": "uint256",
          "name": "",
          "type": "uint256"
        }
      ],
      "stateMutability": "nonpayable",
      "type": "function"
    },
    {
      "inputs": [
        {
          "internalType": "address",
          "name": "owner_",
          "type": "address"
        },
        {
          "internalType": "uint256",
          "name": "slot_",
          "type": "uint256"
        },
        {
          "internalType": "uint256",
          "name": "value_",
          "type": "uint256"
        },
        {
          "internalType": "uint256",
          "name": "discountBasisPts_",
          "type": "uint256"
        },
        {
          "internalType": "string",
          "name": "uuid_",
          "type": "string"
        },
        {
          "internalType": "string",
          "name": "tokenDescription_",
          "type": "string"
        },
        {
          "internalType": "string",
          "name": "tokenImage_",
          "type": "string"
        }
      ],
      "name": "mintWithDiscount",
      "outputs": [
        {
          "internalType": "uint256",
          "name": "",
          "type": "uint256"
        }
      ],
      "stateMutability": "nonpayable",
      "type": "function"
    },
    {
      "inputs": [],
      "name": "name",
      "outputs": [
        {
          "internalType": "string",
          "name": "",
          "type": "string"
        }
      ],
      "stateMutability": "view",
      "type": "function"
    },
    {
      "inputs": [
        {
          "internalType": "uint256",
          "name": "tokenId_",
          "type": "uint256"
        }
      ],
      "name": "networkId",
      "outputs": [
        {
          "internalType": "uint256",
          "name": "",
          "type": "uint256"
        }
      ],
      "stateMutability": "view",
      "type": "function"
    },
    {
      "inputs": [
        {
          "internalType": "address",
          "name": "owner_",
          "type": "address"
        },
        {
          "internalType": "uint256",
          "name": "slot_",
          "type": "uint256"
        },
        {
          "internalType": "uint256",
          "name": "value_",
          "type": "uint256"
        },
        {
          "internalType": "uint256",
          "name": "discountBasisPts_",
          "type": "uint256"
        },
        {
          "internalType": "string",
          "name": "uuid_",
          "type": "string"
        },
        {
          "internalType": "string",
          "name": "token_description_",
          "type": "string"
        },
        {
          "internalType": "string",
          "name": "token_image_",
          "type": "string"
        }
      ],
      "name": "networkMintWithDiscount",
      "outputs": [
        {
          "internalType": "uint256",
          "name": "",
          "type": "uint256"
        }
      ],
      "stateMutability": "nonpayable",
      "type": "function"
    },
    {
      "inputs": [
        {
          "internalType": "address",
          "name": "owner_",
          "type": "address"
        },
        {
          "internalType": "uint256",
          "name": "slot_",
          "type": "uint256"
        },
        {
          "internalType": "uint256",
          "name": "value_",
          "type": "uint256"
        },
        {
          "internalType": "uint256",
          "name": "tVRate_",
          "type": "uint256"
        },
        {
          "internalType": "string",
          "name": "uuid_",
          "type": "string"
        },
        {
          "internalType": "string",
          "name": "token_description_",
          "type": "string"
        },
        {
          "internalType": "string",
          "name": "token_image_",
          "type": "string"
        }
      ],
      "name": "networkMintWithTVRate",
      "outputs": [
        {
          "internalType": "uint256",
          "name": "",
          "type": "uint256"
        }
      ],
      "stateMutability": "nonpayable",
      "type": "function"
    },
    {
      "inputs": [
        {
          "internalType": "uint256",
          "name": "tokenId_",
          "type": "uint256"
        }
      ],
      "name": "ownerOf",
      "outputs": [
        {
          "internalType": "address",
          "name": "owner_",
          "type": "address"
        }
      ],
      "stateMutability": "view",
      "type": "function"
    },
    {
      "inputs": [
        {
          "internalType": "uint256",
          "name": "tokenId_",
          "type": "uint256"
        },
        {
          "internalType": "uint256",
          "name": "value_",
          "type": "uint256"
        }
      ],
      "name": "redeem",
      "outputs": [],
      "stateMutability": "nonpayable",
      "type": "function"
    },
    {
      "inputs": [
        {
          "internalType": "bytes32",
          "name": "role",
          "type": "bytes32"
        },
        {
          "internalType": "address",
          "name": "account",
          "type": "address"
        }
      ],
      "name": "renounceRole",
      "outputs": [],
      "stateMutability": "nonpayable",
      "type": "function"
    },
    {
      "inputs": [
        {
          "internalType": "bytes32",
          "name": "role",
          "type": "bytes32"
        },
        {
          "internalType": "address",
          "name": "account",
          "type": "address"
        }
      ],
      "name": "revokeRole",
      "outputs": [],
      "stateMutability": "nonpayable",
      "type": "function"
    },
    {
      "inputs": [
        {
          "internalType": "address",
          "name": "from_",
          "type": "address"
        },
        {
          "internalType": "address",
          "name": "to_",
          "type": "address"
        },
        {
          "internalType": "uint256",
          "name": "tokenId_",
          "type": "uint256"
        }
      ],
      "name": "safeTransferFrom",
      "outputs": [],
      "stateMutability": "payable",
      "type": "function"
    },
    {
      "inputs": [
        {
          "internalType": "address",
          "name": "from_",
          "type": "address"
        },
        {
          "internalType": "address",
          "name": "to_",
          "type": "address"
        },
        {
          "internalType": "uint256",
          "name": "tokenId_",
          "type": "uint256"
        },
        {
          "internalType": "bytes",
          "name": "data_",
          "type": "bytes"
        }
      ],
      "name": "safeTransferFrom",
      "outputs": [],
      "stateMutability": "payable",
      "type": "function"
    },
    {
      "inputs": [
        {
          "internalType": "address",
          "name": "operator_",
          "type": "address"
        },
        {
          "internalType": "bool",
          "name": "approved_",
          "type": "bool"
        }
      ],
      "name": "setApprovalForAll",
      "outputs": [],
      "stateMutability": "nonpayable",
      "type": "function"
    },
    {
      "inputs": [
        {
          "internalType": "uint256",
          "name": "tokenId_",
          "type": "uint256"
        }
      ],
      "name": "slotOf",
      "outputs": [
        {
          "internalType": "uint256",
          "name": "",
          "type": "uint256"
        }
      ],
      "stateMutability": "view",
      "type": "function"
    },
    {
      "inputs": [
        {
          "internalType": "uint256",
          "name": "slot_",
          "type": "uint256"
        }
      ],
      "name": "slotURI",
      "outputs": [
        {
          "internalType": "string",
          "name": "",
          "type": "string"
        }
      ],
      "stateMutability": "view",
      "type": "function"
    },
    {
      "inputs": [
        {
          "internalType": "bytes4",
          "name": "interfaceId",
          "type": "bytes4"
        }
      ],
      "name": "supportsInterface",
      "outputs": [
        {
          "internalType": "bool",
          "name": "",
          "type": "bool"
        }
      ],
      "stateMutability": "view",
      "type": "function"
    },
    {
      "inputs": [],
      "name": "symbol",
      "outputs": [
        {
          "internalType": "string",
          "name": "",
          "type": "string"
        }
      ],
      "stateMutability": "view",
      "type": "function"
    },
    {
      "inputs": [
        {
          "internalType": "uint256",
          "name": "index_",
          "type": "uint256"
        }
      ],
      "name": "tokenByIndex",
      "outputs": [
        {
          "internalType": "uint256",
          "name": "",
          "type": "uint256"
        }
      ],
      "stateMutability": "view",
      "type": "function"
    },
    {
      "inputs": [
        {
          "internalType": "address",
          "name": "owner_",
          "type": "address"
        },
        {
          "internalType": "uint256",
          "name": "index_",
          "type": "uint256"
        }
      ],
      "name": "tokenOfOwnerByIndex",
      "outputs": [
        {
          "internalType": "uint256",
          "name": "",
          "type": "uint256"
        }
      ],
      "stateMutability": "view",
      "type": "function"
    },
    {
      "inputs": [
        {
          "internalType": "uint256",
          "name": "tokenId_",
          "type": "uint256"
        }
      ],
      "name": "tokenURI",
      "outputs": [
        {
          "internalType": "string",
          "name": "",
          "type": "string"
        }
      ],
      "stateMutability": "view",
      "type": "function"
    },
    {
      "inputs": [],
      "name": "totalBalance",
      "outputs": [
        {
          "internalType": "uint256",
          "name": "",
          "type": "uint256"
        }
      ],
      "stateMutability": "view",
      "type": "function"
    },
    {
      "inputs": [],
      "name": "totalSupply",
      "outputs": [
        {
          "internalType": "uint256",
          "name": "",
          "type": "uint256"
        }
      ],
      "stateMutability": "view",
      "type": "function"
    },
    {
      "inputs": [
        {
          "internalType": "uint256",
          "name": "fromTokenId_",
          "type": "uint256"
        },
        {
          "internalType": "address",
          "name": "to_",
          "type": "address"
        },
        {
          "internalType": "uint256",
          "name": "value_",
          "type": "uint256"
        }
      ],
      "name": "transferFrom",
      "outputs": [
        {
          "internalType": "uint256",
          "name": "",
          "type": "uint256"
        }
      ],
      "stateMutability": "payable",
      "type": "function"
    },
    {
      "inputs": [
        {
          "internalType": "address",
          "name": "from_",
          "type": "address"
        },
        {
          "internalType": "address",
          "name": "to_",
          "type": "address"
        },
        {
          "internalType": "uint256",
          "name": "tokenId_",
          "type": "uint256"
        }
      ],
      "name": "transferFrom",
      "outputs": [],
      "stateMutability": "payable",
      "type": "function"
    },
    {
      "inputs": [
        {
          "internalType": "uint256",
          "name": "fromTokenId_",
          "type": "uint256"
        },
        {
          "internalType": "uint256",
          "name": "toTokenId_",
          "type": "uint256"
        },
        {
          "internalType": "uint256",
          "name": "value_",
          "type": "uint256"
        }
      ],
      "name": "transferFrom",
      "outputs": [],
      "stateMutability": "payable",
      "type": "function"
    },
    {
      "inputs": [],
      "name": "valueDecimals",
      "outputs": [
        {
          "internalType": "uint8",
          "name": "",
          "type": "uint8"
        }
      ],
      "stateMutability": "view",
      "type": "function"
    }
  ],
  "bytecode": "0x60808060405234620009255760009062007f7380380380916200002382856200095c565b833981016101a08282031262000921576200003e8262000980565b906200004d6020840162000980565b926200005c6040820162000980565b946200006b6060830162000980565b926200007a6080840162000980565b9660a08401519160c085015160018060401b0381116200091d5781620000a2918701620009ba565b60e08601516001600160401b038111620009195782620000c4918801620009ba565b6101008701519099906001600160401b038111620009155783620000ea918901620009ba565b6101208801519095906001600160401b038111620005d3578462000110918a01620009ba565b6101408901519093906001600160401b0381116200090d578562000136918b01620009ba565b6101608a01519095906001600160401b0381116200091157610180916200015f918c01620009ba565b9901519b60ff8d168d036200090d57604051916200017d836200092a565b60088352676d6f6e657461727960c01b60208401528051906001600160401b038211620008f9578a54600181811c91168015620008ee575b6020821014620008da579081601f84931162000886575b50602090601f831160011462000818578c926200080c575b50508160011b916000199060031b1c19161789555b8051906001600160401b038211620007f857600154600181811c91168015620007ed575b6020821014620007d9579081601f84931162000779575b50602090601f8311600114620006fd578b92620006f1575b50508160011b916000199060031b1c1916176001555b6002805460ff191660ff8e16179055600b829055600c80546001600160a01b03199081166001600160a01b0389811691909117909255600a80549091169185169190911790558051906001600160401b038211620006dd57600d54600181811c91168015620006d2575b6020821014620006be579081601f8493116200065f575b50602090601f8311600114620005e3578a92620005d7575b50508160011b916000199060031b1c191617600d555b600c546001600160a01b031691823b15620005d357906044889283604051958694859363152f0eb560e01b855260018060a01b0316600485015260248401525af18015620005c85762000597575b50604051936001600160401b03612423860190811190861117620005835791620003c0620003d792620003a987969561242362005b10893960806124238901818152019062000a15565b906124238701820360206124238901015262000a15565b906124238501820360406124238701015262000a15565b6001600160a01b03909116612423830160600152039082f09586156200057657600880546001600160a01b0319166001600160a01b039889161790557f1cd6d520d98babae1045eb69c31ecab800996aa332094cb55c0ac10362e9b0c980835260096020908152604080852093909916600081815293909152979091205460ff97919088161562000526575b5050507f9ac4f8025631594629895b778dc5ee88d01673a254a2291f6b6b174ad25230ca602060018060a01b0360085416604051908152a16020815191012060046020604051620004b4816200092a565b82815201635553444360e01b81522014620004ff575b50601180546001600160a01b0319166001600160a01b0392909216919091179055166010556040516150d3908162000a3d8239f35b600f80546001600160a01b0319166001600160a01b039290921691909117905538620004ca565b808352600960205260408320826000526020526040600020600189198254161790557f2f8788117e7eff1d82e926ec794901d17c78024a50270940304540a733656f0d339380a438808062000463565b50604051903d90823e3d90fd5b634e487b7160e01b86526041600452602486fd5b9094906001600160401b038111620005b45760405293386200035f565b634e487b7160e01b82526041600452602482fd5b6040513d88823e3d90fd5b8780fd5b015190503880620002fb565b600d8b528a935060008051602062007f3383398151915291905b601f198416851062000643576001945083601f1981161062000629575b505050811b01600d5562000311565b015160001960f88460031b161c191690553880806200061a565b81810151835560209485019460019093019290910190620005fd565b600d8b5290915060008051602062007f33833981519152601f840160051c810160208510620006b6575b90849392915b601f830160051c82018110620006a7575050620002e3565b8c81558594506001016200068f565b508062000689565b634e487b7160e01b8a52602260045260248afd5b90607f1690620002cc565b634e487b7160e01b89526041600452602489fd5b0151905038806200024c565b60018c528b935060008051602062007f5383398151915291905b601f19841685106200075d576001945083601f1981161062000743575b505050811b0160015562000262565b015160001960f88460031b161c1916905538808062000734565b8181015183556020948501946001909301929091019062000717565b60018c5290915060008051602062007f53833981519152601f840160051c810160208510620007d1575b90849392915b8d601f840160051c83018210620007c35750505062000234565b8155859450600101620007a9565b5080620007a3565b634e487b7160e01b8b52602260045260248bfd5b90607f16906200021d565b634e487b7160e01b8a52604160045260248afd5b015190503880620001e4565b92508b805260208c20908c935b601f19841685106200086a576001945083601f1981161062000850575b505050811b018955620001f9565b015160001960f88460031b161c1916905538808062000842565b8181015183556020948501946001909301929091019062000825565b9091508b805260208c20601f840160051c810160208510620008d2575b84939291908e5b601f840160051c83018210620008c357505050620001cc565b81558594506001018e620008aa565b5080620008a3565b634e487b7160e01b8c52602260045260248cfd5b90607f1690620001b5565b634e487b7160e01b8b52604160045260248bfd5b8880fd5b8980fd5b8680fd5b8580fd5b8480fd5b8280fd5b600080fd5b604081019081106001600160401b038211176200094657604052565b634e487b7160e01b600052604160045260246000fd5b601f909101601f19168101906001600160401b038211908210176200094657604052565b51906001600160a01b03821682036200092557565b60005b838110620009a95750506000910152565b818101518382015260200162000998565b81601f82011215620009255780516001600160401b038111620009465760405192620009f1601f8301601f1916602001856200095c565b81845260208284010111620009255762000a12916020808501910162000995565b90565b9060209162000a308151809281855285808601910162000995565b601f01601f191601019056fe608060408181526004918236101561001657600080fd5b600092833560e01c91826301ffc9a7146126455750816306fdde031461253f578163081812fc1461251f578163095ea7b3146123eb57816309c3dd87146121065781630f485c02146120f15781631375d8431461208c57816318160ddd1461206d57816323b872dd14612048578163248a9ca31461201d578163263f3e7e14611ffd5781632f2ff15d14611f505781632f745c5914611ea7578163310ed7f0146119f457816331b5b9071461196b57816336568abe146118d95781633e7e8669146118b757816341815ee41461188657816342842e0e14611863578163476de4a8146112b95781634c1de213146112565781634f6ccce7146111d05781636352211e1461119f57816370a082311461117957816371f0442e1461111457816377955245146110eb5781637cbc237314610e9f5781638005f5db14610e7d578163840f711314610e545781638cb0a51114610cc057816391d1485414610c7a57816395d89b4114610b6c5781639cc7f70814610b4c578163a217fddf14610b31578163a22cb46514610a60578163a7c9f2d614610a25578163a83a58e714610702578163ad7a672f146106e3578163b3154c081461067e578163b88d4fde1461062357838263bd8c6507146103fb57508163c87b56dd14610379578163d547741f1461033a578163e345e0bc14610308578163e8a3d48514610276575063e985e9c51461022157600080fd5b3461027257806003193601126102725760209161023c6126e0565b6002836102476126f6565b9360018060a01b0380941681526007875220019116600052825260ff81600020541690519015158152f35b5080fd5b9190503461030457826003193601126103045760085481516331264fc160e01b815292849184919082906001600160a01b03165afa9182156102fa57836102d194936102d5575b5050519182916020835260208301906126bb565b0390f35b6102f29293503d8091833e6102ea81836127ca565b810190612e5d565b9038806102bd565b81513d85823e3d90fd5b8280fd5b828434610337578160031936011261033757506103306020926103296126f6565b9035613db5565b9051908152f35b80fd5b919050346103045780600319360112610304576103769135610371600161035f6126f6565b938387526009602052862001546128d6565b612c0b565b80f35b91905034610304576020366003190112610304578282356103a161039c826137d4565b613092565b6008546001600160a01b0316936044906103ba836139fd565b95855196879485936304e6f55760e51b855284015260248301525afa9182156102fa57836102d194936102d5575050519182916020835260208301906126bb565b9291503461061f5761040c3661285b565b600254600c54979a9791966001600160a01b03969395928716939290916104359060ff16613802565b61043e91612ebb565b8a51632d2a246560e01b81526001600160a01b03909c168a8d01908152602081019290925260408201929092526060810191909152899081906080010381885a94602095f19788156105d65785986105e4575b508260085416803b156105e0578786918a838a6104cc855197889687958694632108947560e21b8652850152602484015260448301906126bb565b03925af180156105d6579085916105be575b50508160085416803b156105ba5761051a91859189838a5180968195829463246a908b60e01b84528d8401528d602484015260448301906126bb565b03925af180156105b05790849161059c575b505060085416803b1561030457858361056595875196879586948593630190503b60e61b855284015289602484015260448301906126bb565b03925af180156105925761057e575b6020838351908152f35b610588849161276b565b6103045782610574565b82513d86823e3d90fd5b6105a59061276b565b61030457823861052c565b86513d86823e3d90fd5b8480fd5b6105c79061276b565b6105d25783386104de565b8380fd5b87513d87823e3d90fd5b8580fd5b945096506020843d8211610617575b81610600602093836127ca565b81010312610612578793519638610491565b600080fd5b3d91506105f3565b5050fd5b83906080366003190112610272576106396126e0565b6106416126f6565b906064356001600160401b0381116105ba57366023820112156105ba576103769381602461067493369301359101612806565b9160443591612fbb565b91905034610304576020366003190112610304576008548151631662a98160e31b81528335938101939093528390839060249082906001600160a01b03165afa9182156102fa57836102d194936102d5575050519182916020835260208301906126bb565b5050346102725781600319360112610272576020906012549051908152f35b9050823461033757506107143661285b565b90979596949291600098600b5485146000146109ae576107408686600160035401809c81600355613ed2565b6008546001600160a01b0392908316803b1561061257896000918c838c610785855197889687958694632108947560e21b8652850152602484015260448301906126bb565b03925af180156109a35761098b575b50908992918160085416803b156105ba578985918c838c6107d385519788968795869463246a908b60e01b8652850152602484015260448301906126bb565b03925af180156109815790849161096d575b505060085416803b15610304578783918a838a610820855197889687958694630190503b60e61b8652850152602484015260448301906126bb565b03925af180156109635761094b575b5050845186815260208101839052604081018490526108c9927f1271433ec932e965d31c8d57a40df8281c09b048d4e75e4cb5a9669ac173acf2917f84eeb48eca46cea54afc9753345f6038981672ea565f32885420829dfd88aea690606090a18651888152602081019190915260408101859052606090a15b6108b583601254612caa565b6012556108c3601054613802565b90612ebb565b8486526013602052838620558285205490612710918203828111610938578692916108f391612c81565b600f54919004906001600160a01b0316803b156103045784516340c10f1960e01b81523094810194855260208501929092529092839190829084908290604001610565565b634e487b7160e01b875260118452602487fd5b6109549061276b565b61095f57868861082f565b8680fd5b87513d84823e3d90fd5b6109769061276b565b61030457828b6107e5565b89513d86823e3d90fd5b6109989193929a5061276b565b60009890918a610794565b89513d6000823e3d90fd5b917f36fba2e6d0870905dade4201d8b7ff8b54c52b9e7de8df1400244d22e0d23846926109e2928588886108c9999d613810565b96600160035401978860035588600052600e602052808860002055610a1d868951938493846040919493926060820195825260208201520152565b0390a16108a9565b505034610272578160031936011261027257602090517f1cd6d520d98babae1045eb69c31ecab800996aa332094cb55c0ac10362e9b0c98152f35b91905034610304578060031936011261030457610a7b6126e0565b90602435918215158093036105ba576001600160a01b031692338414610aef57503384526007602052600281852001836000526020528060002060ff1981541660ff8416179055519081527f17307eab39ab6107e8899845ad3d59bd9653f200f220920489ca2b5937696c3160203392a380f35b6020606492519162461bcd60e51b8352820152601a60248201527f455243333532353a20617070726f766520746f2063616c6c65720000000000006044820152fd5b50503461027257816003193601126102725751908152602090f35b8284346103375760203660031901126103375750610330602092356139fd565b8284346103375780600319360112610337575080519060009060019182549283811c90808516948515610c70575b6020958684108114610c5d57838852879493929187908215610c3b575050600114610be1575b50506102d19291610bd29103856127ca565b519282849384528301906126bb565b600081815286935091907fb10e2d527612073b26eecdfd717e6a320cf44b4afac2b0732d9fcbe2b7fa0cf65b828410610c235750505082010181610bd2610bc0565b8054848a018601528895508794909301928101610c0d565b60ff19168682015292151560051b85019092019250839150610bd29050610bc0565b634e487b7160e01b855260228952602485fd5b91607f1691610b9a565b90503461030457816003193601126103045781602093610c986126f6565b9235815260098552209060018060a01b0316600052825260ff81600020541690519015158152f35b839150610ccc3661270c565b92610cd88392936137d4565b8015610e32575b610ce890613092565b610cf1826137d4565b80610e1f575b15610d9457610d1c6001600160a01b0380610d11856130de565b16908516141561303b565b610d2682336131c3565b15610d375750610376939450613be3565b608490602087519162461bcd60e51b8352820152603160248201527f455243333532353a20617070726f76652063616c6c6572206973206e6f74206f6044820152701ddb995c881b9bdc88185c1c1c9bdd9959607a1b6064820152fd5b909184959260018060a01b03600c5416908652600e60205283862054813b1561095f578451638cb0a51160e01b81529384019081526001600160a01b03909216602083015260408201949094529092849184919082908490829060600103925af1908115610e165750610e0657505080f35b610e0f9061276b565b6103375780f35b513d84823e3d90fd5b50610e2982612e04565b600b5414610cf7565b50610ce8610e4d83600052600e602052604060002054151590565b9050610cdf565b50503461027257816003193601126102725760085490516001600160a01b039091168152602090f35b50503461027257602090610330610e933661285b565b95949094939193613810565b8391503461027257826003193601126102725780359060243590610ec2836130de565b6001600160a01b03908116331480156110ab575b1561105c578385526013602052858520546127109081038181116109385784610efe91612c81565b049080600f54169060115416813b1561095f5787516301e9a69560e41b81526001600160a01b039091168482019081526020810193909352918691839182908490829060400103925af180156110525790859161103e575b5050610f6482601254613607565b601255610f70836137d4565b801561101c575b610f8090613092565b82845260066020526002610f9686862054612dc9565b500190815490838210610fcd5750918495602092610fc38360008051602061507e83398151915296613607565b905551908152a380f35b608490602088519162461bcd60e51b8352820152602360248201527f455243333532353a206275726e2076616c756520657863656564732062616c616044820152626e636560e81b6064820152fd5b50610f8061103784600052600e602052604060002054151590565b9050610f77565b6110479061276b565b6105d2578386610f56565b86513d87823e3d90fd5b855162461bcd60e51b8152602081840152602360248201527f53656e646572206973206e6f7420617574686f72697a656420746f207265646560448201526232b69760e91b6064820152608490fd5b507f1cd6d520d98babae1045eb69c31ecab800996aa332094cb55c0ac10362e9b0c9855260096020528585203360005260205260ff866000205416610ed6565b505034610272578160031936011261027257600a5490516001600160a01b039091168152602090f35b919050346103045760203660031901126103045760085481516338f8221760e11b81528335938101939093528390839060249082906001600160a01b03165afa9182156102fa57836102d194936102d5575050519182916020835260208301906126bb565b5050346102725760203660031901126102725760209061033061119a6126e0565b612edb565b82843461033757602036600319011261033757506111bf60209235613b0c565b90516001600160a01b039091168152f35b905082346103375760203660031901126103375750803590600554821015611207576020836111fe84612dc9565b50549051908152f35b608490602084519162461bcd60e51b8352820152602360248201527f455243333532353a20676c6f62616c20696e646578206f7574206f6620626f756044820152626e647360e81b6064820152fd5b90503461030457602036600319011261030457602092829135611278816137d4565b8015611297575b61128890613092565b8152600e845220549051908152f35b506112886112b282600052600e602052604060002054151590565b905061127f565b8383346102725760c0366003190112610272576112d46126e0565b926001600160401b03906064358281116105ba576112f5903690830161283d565b916084358181116105e05761130d903690840161283d565b9460a4359182116103375750611326903690830161283d565b906000958692600b5494602498893596871460001461161f575061135d9760016003540198899485600355886044359b8c92613ed2565b6008546001600160a01b0392908316803b15610612578b60009187838a6113a28f97885198899788968795632108947560e21b875286015284015260448301906126bb565b03925af180156109a35761160b575b50816008541690813b1561095f578a89928689896113ed829688519889978896879563246a908b60e01b875286015284015260448301906126bb565b03925af18015611601579086916115ed575b505060085416803b156105ba5761143a91859188838c825196879586948593630190503b60e61b85528b8d86015284015260448301906126bb565b03925af180156105b057859185916115d6575b5050855182815260208101829052604081018890527f1271433ec932e965d31c8d57a40df8281c09b048d4e75e4cb5a9669ac173acf292907f84eeb48eca46cea54afc9753345f6038981672ea565f32885420829dfd88aea690606090a1865181815260208101929092526040820197909752606090a15b604435956114d587601254612caa565b6012556114ec6114e6601054613802565b84612ebb565b8684526013602052858420558483205490612710918203908282116115c557508761151691612c81565b049060018060a01b03600f541690813b156105d25785516340c10f1960e01b81523091810191825260208201939093528391839182908490829060400103925af180156115bb576115a7575b505081518381526020808201929092526040810194909452927f1271433ec932e965d31c8d57a40df8281c09b048d4e75e4cb5a9669ac173acf290606090a151908152f35b6115b1829161276b565b6103375780611562565b84513d84823e3d90fd5b634e487b7160e01b85526011845284fd5b6115e191925061276b565b6103045783838961144d565b6115f69061276b565b6105ba57848a6113ff565b88513d88823e3d90fd5b61161691965061276b565b6000948a6113b1565b9190600254988360018060a01b039261163f60ff85600c54169d16613802565b1561185157838b5197630151086360e31b89521688880152898d88015281876044359d8e6044830152826064830152815a93608492602095f196871561181457829761181e575b50836008541690813b15610304578d8c9289858c6116c28296885198899788968795632108947560e21b875286015284015260448301906126bb565b03925af1801561181457611800575b5050816008541690813b156105ba578b8a9287878a61170e829688519889978896879563246a908b60e01b875286015284015260448301906126bb565b03925af18015610981579084916117ec575b50506008541690813b156103045789889285858861175c8296885198899788968795630190503b60e61b875286015284015260448301906126bb565b03925af1801561096357908692916117d4575b50507f36fba2e6d0870905dade4201d8b7ff8b54c52b9e7de8df1400244d22e0d23846916117cc600160035401988960035589600052600e6020528289600020558851938493846040919493926060820195825260208201520152565b0390a16114c5565b8192506117e09061276b565b6103375780859161176f565b6117f59061276b565b61030457828b611720565b61180c9192955061276b565b928b806116d1565b8b513d84823e3d90fd5b9096506020813d8211611849575b81611839602093836127ca565b810103126102725751958d611686565b3d915061182c565b634e487b7160e01b8252601288528c82fd5b836103768461187136612736565b9192519261187e846127af565b858452612fbb565b5050346102725781600319360112610272576102d1906118a4612cde565b90519182916020835260208301906126bb565b50503461027257816003193601126102725760209060ff600254169051908152f35b839150346102725782600319360112610272576118f46126f6565b90336001600160a01b0383160361191057906103769135612c0b565b608490602085519162461bcd60e51b8352820152602f60248201527f416363657373436f6e74726f6c3a2063616e206f6e6c792072656e6f756e636560448201526e103937b632b9903337b91039b2b63360891b6064820152fd5b91905034610304576020366003190112610304578282356001600160401b0381116102725761199d903690850161283d565b6008546001600160a01b0316803b15610304576020836119d7968651978895869485936355f804b360e01b855284015260248301906126bb565b03925af1908115610e1657506119eb575080f35b6103769061276b565b838360603660031901126102725782359260249384359160443593611a18836137d4565b80611e94575b80611e71575b15611b0957611a32846139fd565b8387526013602052818720548588528288205491939114611af9578387528187205492612710938403848111611ae75787611a6c91612c81565b8689526013602052838920548503858111611ad557611a9c8392611a96611aa3956108c394612c81565b90612caa565b9189612caa565b8303928311611ac357508596508361037696526013602052862055614a42565b634e487b7160e01b8752601190528686fd5b634e487b7160e01b8a52601184528a8afd5b634e487b7160e01b8952601183528989fd5b509495506103769450614a429050565b949590611b15836137d4565b80611e5e575b80611e35575b15611b30575b50505050505080f35b611b4783600052600e602052604060002054151590565b80611e18575b15611b69575050611b5e9350614a42565b818080808080611b27565b611b8383949593600052600e602052604060002054151590565b80611e09575b15611de657611b99838686614a42565b611ba583601254613607565b601255600c548651639448bddb60e01b81528083018790526020936001600160a01b039392841685838381845afa928315611d51578b93611db7575b50878b52600e8652898b20548690838115611d5b578c51809481936339ace21f60e01b8352898301525afa908115611d51578b91611d20575b50905b61271091820390828211611d0f5750918a869492611c3f89611c7a9896612c81565b600f548d5163a9059cbb60e01b81526001600160a01b0390951695850195865291900460208501529195869492909216928492839160400190565b03925af18015611d0557917fdf7a601a0a201ccd4b4bfcfd610913188d931867997223d226f85f2f2673988a9691611ccf9493611cd7575b505051938493846040919493926060820195825260208201520152565b0390a1611b5e565b81611cf692903d10611cfe575b611cee81836127ca565b81019061491b565b508780611cb2565b503d611ce4565b86513d89823e3d90fd5b634e487b7160e01b8c52601185528bfd5b90508581813d8311611d4a575b611d3781836127ca565b81010312611d4657518b611c1a565b8a80fd5b503d611d2d565b8a513d8d823e3d90fd5b8c516339ace21f60e01b81528781018c90529384925082905afa908115611d51578b91611d8a575b5090611c1d565b90508581813d8311611db0575b611da181836127ca565b81010312611d4657518b611d83565b503d611d97565b611dd8919350863d8811611ddf575b611dd081836127ca565b810190613aed565b918b611be1565b503d611dc6565b5050509050611e039150600052600e602052604060002054151590565b50611b5e565b50611e1385614f61565b611b89565b50611e3084600052600e602052604060002054151590565b611b4d565b50611e3f846137d4565b80611e4b575b15611b21565b50611e5584612e04565b600b5414611e45565b50611e6883612e04565b600b5414611b1b565b50611e7b846137d4565b8015611a245750611e8b84612e04565b600b5414611a24565b50611e9e83612e04565b600b5414611a1e565b90508234610337578260031936011261033757611ec26126e0565b60243592611ecf82612edb565b841015611f0257602085611ef48682878760018060a01b0316815260078652206131ab565b91905490519160031b1c8152f35b608490602086519162461bcd60e51b8352820152602260248201527f455243333532353a206f776e657220696e646578206f7574206f6620626f756e604482015261647360f01b6064820152fd5b9050346103045781600319360112610304573590611f6c6126f6565b908284526009602052611f84600182862001546128d6565b828452600960209081528185206001600160a01b039093168086529290528084205460ff1615611fb2578380f35b82845260096020528084208285526020528320600160ff1982541617905533917f2f8788117e7eff1d82e926ec794901d17c78024a50270940304540a733656f0d8480a43880808380f35b828434610337576020366003190112610337575061033060209235612e04565b9050346103045760203660031901126103045781602093600192358152600985522001549051908152f35b8361037661205536612736565b9161206861206384336131c3565b612f54565b613234565b5050346102725781600319360112610272576020906005549051908152f35b91905034610304576020366003190112610304576008548151631375d84360e01b81528335938101939093528390839060249082906001600160a01b03165afa9182156102fa57836102d194936102d5575050519182916020835260208301906126bb565b6020836103306121003661270c565b916141c2565b90503461030457602090816003193601126105d2576008548351636c0360eb60e01b81526001600160a01b039091169180359186818381875afa908115611d055787916123d1575b5083156121bf5750906024869286519485938492633601bfc560e11b84528301525afa9081156121b257846102d193949592612197575b505092519282849384528301906126bb565b6121ab92503d8091833e6102ea81836127ca565b3880612185565b50505051903d90823e3d90fd5b80935095919394955115156000146123905783849183957a184f03e93ff9f4daa797ed6e38ed64bf6a1f0100000000000000009081811015612383575b5050866d04ee2d6d415b85acef810000000080851015612375575b5050662386f26fc1000080841015612366575b506305f5e10080841015612357575b5061271080841015612349575b50506064821015612339575b600a8092101561232f575b600190816021818801976122886122738a6127eb565b996122808d519b8c6127ca565b808b526127eb565b898b019790601f190136893750880101905b6122f9575b5050505060256122e4926122f3926102d195885195836122c888955180928c8089019101612698565b84019164736c6f742f60d81b8a84015251809386840190612698565b010360058101845201826127ca565b92610bd2565b600019019083906f181899199a1a9b1b9c1cb0b131b232b360811b8282061a83530491821561232a5791908261229a565b61229f565b936001019361225d565b9390606460029104910193612252565b950194909104903880612246565b60089196930492019438612239565b6010919693049201943861222a565b960195909204918638612217565b89975004925038806121fc565b9493925090508251908282018281106001600160401b038211176123be57846102d1949596505281526122f3565b634e487b7160e01b825260418652602482fd5b6123e591503d8089833e6102ea81836127ca565b3861214e565b91809150600319360112610304576124016126e0565b6024359290916001600160a01b039190828061241c876130de565b1694169361242c8186141561303b565b8033149081156124fd575b501561249457612451908587526006602052862054612dc9565b500180546001600160a01b0319168317905561246c836130de565b167f8c5be1e5ebec7d5bd14f71427d1e84f3dd0314c0f7b2291e5b200ac8c7c3b9258480a480f35b906020608492519162461bcd60e51b8352820152603960248201527f455243333532353a20617070726f76652063616c6c6572206973206e6f74206f60448201527f776e6572206e6f7220617070726f76656420666f7220616c6c000000000000006064820152fd5b90508652600760205260028187200133875260205260ff818720541638612437565b82843461033757602036600319011261033757506111bf60209235613149565b82843461033757806003193601126103375781519181825492600184811c9181861695861561263b575b6020968785108114612628578899509688969785829a5291826000146126015750506001146125a6575b5050506102d19291610bd29103856127ca565b91908693508280527f290decd9548b62a8d60345a988386fc84ba6bc95484008f6362f93160ef3e5635b8284106125e95750505082010181610bd26102d1612593565b8054848a0186015288955087949093019281016125d0565b60ff19168782015293151560051b86019093019350849250610bd291506102d19050612593565b634e487b7160e01b835260228a52602483fd5b92607f1692612569565b849134610304576020366003190112610304573563ffffffff60e01b81168091036103045760209250637965db0b60e01b8114908115612687575b5015158152f35b6301ffc9a760e01b14905083612680565b60005b8381106126ab5750506000910152565b818101518382015260200161269b565b906020916126d481518092818552858086019101612698565b601f01601f1916010190565b600435906001600160a01b038216820361061257565b602435906001600160a01b038216820361061257565b606090600319011261061257600435906024356001600160a01b0381168103610612579060443590565b6060906003190112610612576001600160a01b0390600435828116810361061257916024359081168103610612579060443590565b6001600160401b03811161277e57604052565b634e487b7160e01b600052604160045260246000fd5b60c081019081106001600160401b0382111761277e57604052565b602081019081106001600160401b0382111761277e57604052565b90601f801991011681019081106001600160401b0382111761277e57604052565b6001600160401b03811161277e57601f01601f191660200190565b929192612812826127eb565b9161282060405193846127ca565b829481845281830111610612578281602093846000960137010152565b9080601f830112156106125781602061285893359101612806565b90565b60e0600319820112610612576004356001600160a01b038116810361061257916024359160443591606435916001600160401b039160843583811161061257826128a79160040161283d565b9260a43581811161061257836128bf9160040161283d565b9260c435918211610612576128589160040161283d565b60009080825260209060098252604092838120338252835260ff8482205416156129005750505050565b8351916001600160401b0390336060850183811186821017612bf7578752602a85528585019187368437855115612be35760308353855191600192831015612bcf576078602188015360295b838111612b655750612b235790875193608085019085821090821117612b0f57885260428452868401946060368737845115612afb57603086538451821015612afb5790607860218601536041915b818311612a8d57505050612a4b57612a47938693612a2b93612a1c6048946129f39a519a8b957f416363657373436f6e74726f6c3a206163636f756e74200000000000000000008c8801525180926037880190612698565b8401917001034b99036b4b9b9b4b733903937b6329607d1b603784015251809386840190612698565b010360288101875201856127ca565b5192839262461bcd60e51b8452600484015260248301906126bb565b0390fd5b60648587519062461bcd60e51b825280600483015260248201527f537472696e67733a20686578206c656e67746820696e73756666696369656e746044820152fd5b909192600f81166010811015612ae7576f181899199a1a9b1b9c1cb0b131b232b360811b901a612abd8588612cb7565b5360041c928015612ad35760001901919061299b565b634e487b7160e01b82526011600452602482fd5b634e487b7160e01b83526032600452602483fd5b634e487b7160e01b81526032600452602490fd5b634e487b7160e01b86526041600452602486fd5b60648789519062461bcd60e51b825280600483015260248201527f537472696e67733a20686578206c656e67746820696e73756666696369656e746044820152fd5b90600f81166010811015612bbb576f181899199a1a9b1b9c1cb0b131b232b360811b901a612b93838a612cb7565b5360041c908015612ba7576000190161294c565b634e487b7160e01b87526011600452602487fd5b634e487b7160e01b88526032600452602488fd5b634e487b7160e01b86526032600452602486fd5b634e487b7160e01b85526032600452602485fd5b634e487b7160e01b85526041600452602485fd5b906000918083526009602052604083209160018060a01b03169182845260205260ff604084205416612c3c57505050565b8083526009602052604083208284526020526040832060ff1981541690557ff6391f5c32d9c69d2a47ea670b442974b53935d1edc7fd64eb21e047a839171b339380a4565b81810292918115918404141715612c9457565b634e487b7160e01b600052601160045260246000fd5b91908201809211612c9457565b908151811015612cc8570160200190565b634e487b7160e01b600052603260045260246000fd5b604051906000600d5490600182811c90808416938415612dbf575b6020948584108114612dab5783885287949392918115612d8b5750600114612d2c575b5050612d2a925003836127ca565b565b90939150600d6000527fd7b6990105719101dabeb77144f2a3385c8033acd3af97e9423a695e81ad1eb5936000915b818310612d73575050612d2a93508201013880612d1c565b85548884018501529485019487945091830191612d5b565b915050612d2a94925060ff191682840152151560051b8201013880612d1c565b634e487b7160e01b85526022600452602485fd5b91607f1691612cf9565b600554811015612cc8576006906005600052027f036b6384b5eca791c62761152d0c79bb0604c104a5fb6f4eb0703f3154bb3db00190600090565b612e0d816137d4565b8015612e3b575b612e1d90613092565b60005260066020526001612e35604060002054612dc9565b50015490565b50612e1d612e5682600052600e602052604060002054151590565b9050612e14565b602081830312610612578051906001600160401b038211610612570181601f82011215610612578051612e8f816127eb565b92612e9d60405194856127ca565b81845260208284010111610612576128589160208085019101612698565b8115612ec5570490565b634e487b7160e01b600052601260045260246000fd5b6001600160a01b03168015612efb57600052600760205260406000205490565b60405162461bcd60e51b815260206004820152602b60248201527f455243333532353a2062616c616e636520717565727920666f7220746865207a60448201526a65726f206164647265737360a81b6064820152608490fd5b15612f5b57565b60405162461bcd60e51b815260206004820152603260248201527f455243333532353a207472616e736665722063616c6c6572206973206e6f74206044820152711bdddb995c881b9bdc88185c1c1c9bdd995960721b6064820152608490fd5b90612fdf939291612fcf61206384336131c3565b612fda838383613234565b613686565b15612fe657565b60405162461bcd60e51b815260206004820152602760248201527f455243333532353a207472616e7366657220746f206e6f6e204552433732315260448201526632b1b2b4bb32b960c91b6064820152608490fd5b1561304257565b60405162461bcd60e51b815260206004820152602260248201527f455243333532353a20617070726f76616c20746f2063757272656e74206f776e60448201526132b960f11b6064820152608490fd5b1561309957565b60405162461bcd60e51b815260206004820152601960248201527f455243333532353a20696e76616c696420746f6b656e204944000000000000006044820152606490fd5b6130e7816137d4565b8015613127575b6130f790613092565b600052600660205261310d604060002054612dc9565b50600301546001600160a01b031690612d2a821515613092565b506130f761314282600052600e602052604060002054151590565b90506130ee565b613152816137d4565b8015613189575b61316290613092565b6000526006602052613178604060002054612dc9565b50600401546001600160a01b031690565b506131626131a482600052600e602052604060002054151590565b9050613159565b8054821015612cc85760005260206000200190600090565b906001600160a01b0380806131d7846130de565b1693169183831493841561320a575b5083156131f4575b50505090565b61320091929350613149565b16143880806131ee565b909350600052600760205260026040600020018260005260205260ff6040600020541692386131e6565b61323d836130de565b6001600160a01b03918216919081168290036134cd5780831692831561347a5761326685612e04565b506132708561351e565b506000918583526020906006825260409061328d82862054612dc9565b50600490810180546001600160a01b031990811690915590918987826132b2836130de565b167f8c5be1e5ebec7d5bd14f71427d1e84f3dd0314c0f7b2291e5b200ac8c7c3b9258280a48987526006855260056132ec85892054612dc9565b500180549091858988818f5b868410613443575050505050505080549087815581613426575b505088865260068452600361332984882054612dc9565b5001908154169055858552600783528185209182549360001994858101908111613413579061335a889392866131ab565b90549060031b1c9060018601908c8552818152838520549261339b81613380868b6131ab565b90919082549060031b600019811b9283911b16911916179055565b8552528183205589825281205581549081156134005750928288926133fc947fddf252ad1be2c89b69c2b068fc378daa952ba7f163c4a11628f55a4df523b3ef979601916133e983836131ab565b909182549160031b1b1916905555613571565b80a4565b634e487b7160e01b865260319052602485fd5b634e487b7160e01b885260118452602488fd5b8752848720908101905b8181101561331257878155600101613430565b6134709486928b613454878c6131ab565b96905494835252209260031b1c168c5289528a88812055613614565b8690888b8f6132f8565b60405162461bcd60e51b815260206004820152602560248201527f455243333532353a207472616e7366657220746f20746865207a65726f206164604482015264647265737360d81b6064820152608490fd5b60405162461bcd60e51b8152602060048201526024808201527f455243333532353a207472616e736665722066726f6d20696e76616c6964206f6044820152633bb732b960e11b6064820152608490fd5b613527816137d4565b801561354f575b61353790613092565b60005260066020526002612e35604060002054612dc9565b5061353761356a82600052600e602052604060002054151590565b905061352e565b6000908282526006602052600361358b6040842054612dc9565b500180546001600160a01b0319166001600160a01b0390921691821790558082526007602081815260408085208054878752600191909101835281862055928452528120805491600160401b8310156135f3575081613380916001612d2a95940181556131ab565b634e487b7160e01b81526041600452602490fd5b91908203918211612c9457565b6000198114612c945760010190565b600160401b821161277e5780549180825582811061364057505050565b60009182526020822092830192015b82811061365b57505050565b81815560010161364f565b9081602091031261061257516001600160e01b0319811681036106125790565b92939290803b156137cb57936000916136dd9560405180948193630a85bd0160e11b9788845233600485015260018060a01b0380921660248501526044840152608060648401528260209a8b9760848301906126bb565b0393165af16000918161379c575b5061378d57833d15613785573d90613702826127eb565b9161371060405193846127ca565b82523d60008284013e5b815191826137825760405162461bcd60e51b815260048101839052603260248201527f4552433732313a207472616e7366657220746f206e6f6e20455243373231526560448201527131b2b4bb32b91034b6b83632b6b2b73a32b960711b6064820152608490fd5b01fd5b60609061371a565b6001600160e01b031916149150565b6137bd919250853d87116137c4575b6137b581836127ca565b810190613666565b90386136eb565b503d6137ab565b50600193505050565b600554151590816137e3575090565b80915060005260066020526137fc604060002054612dc9565b50541490565b604d8111612c9457600a0a90565b9395929194909560206002549660009761383c60018060a01b03966108c360ff89600c54169416613802565b60408051630151086360e31b81526001600160a01b039a909a1660048b015260248a019b909b5260448901929092526064880191909152959795889060849082908a905af19687156139c05786976139ca575b508260085416803b1561095f576138cb91879189838951809681958294632108947560e21b845260048401528c602484015260448301906126bb565b03925af180156139c0576139ad575b50816008541690813b156105e05761391786928392875194858094819363246a908b60e01b83528d60048401528b602484015260448301906126bb565b03925af180156139a35790859161398f575b50506008541690813b156105d2576139688392859492859351958680948193630190503b60e61b83528b600484015288602484015260448301906126bb565b03925af1908115610e16575061397d57505090565b613987829161276b565b610337575090565b6139989061276b565b6105d2578338613929565b84513d87823e3d90fd5b6139b99095919561276b565b93386138da565b85513d88823e3d90fd5b9096506020813d82116139f5575b816139e5602093836127ca565b810103126105e05751953861388f565b3d91506139d8565b613a06816137d4565b8015613acb575b613a1690613092565b613a1f816137d4565b80613ab8575b15613a33576128589061351e565b6000908152600e6020526040812054602060018060a01b03600c541691602460405180948193631398fee160e31b835260048301525afa918215613aac578092613a7c57505090565b9091506020823d8211613aa4575b81613a97602093836127ca565b8101031261033757505190565b3d9150613a8a565b604051903d90823e3d90fd5b50613ac281612e04565b600b5414613a25565b50613a16613ae682600052600e602052604060002054151590565b9050613a0d565b9081602091031261061257516001600160a01b03811681036106125790565b613b15816137d4565b8015613bc1575b613b2590613092565b613b2e816137d4565b80613bae575b15613b4257612858906130de565b60018060a01b03600c541690600052600e60205260206040600020546024604051809481936331a9108f60e11b835260048301525afa908115613ba257600091613b8a575090565b612858915060203d8111611ddf57611dd081836127ca565b6040513d6000823e3d90fd5b50613bb881612e04565b600b5414613b34565b50613b25613bdc82600052600e602052604060002054151590565b9050613b1c565b6001600160a01b038083169391928415613ccc5783613c0191613d24565b15613c4f575b5060207f621b050de0ad08b51d19b48b3e6df75348c4de6bdd93e81b252ca62e28265b1b918360005260048252604060002085600052825280604060002055604051908152a3565b908260005260066020526005613c69604060002054612dc9565b500190815492600160401b84101561277e5785613caf8560209560017f621b050de0ad08b51d19b48b3e6df75348c4de6bdd93e81b252ca62e28265b1b980181556131ab565b909283549160031b90811b9283911b169119161790559150613c07565b60405162461bcd60e51b815260206004820152602a60248201527f455243333532353a20617070726f76652076616c756520746f20746865207a65604482015269726f206164647265737360b01b6064820152608490fd5b6000908282526006602090808252604090613d4182862054612dc9565b509260058094015496865b888110613d5f5750505050505050905090565b818852838352613d7d8187613d76888c2054612dc9565b50016131ab565b905460039190911b1c6001600160a01b0390811690881614613da757613da290613614565b613d4c565b505050505050505050600190565b90613dbf826137d4565b8015613e50575b613dcf90613092565b613dd8826137d4565b80613e3d575b15613dec5761285891613e72565b602060018060a01b0391604483600c54166000958652600e845260408620549060405195869485936338d1782f60e21b855260048501521660248301525afa918215613aac578092613a7c57505090565b50613e4782612e04565b600b5414613dde565b50613dcf613e6b83600052600e602052604060002054151590565b9050613dc6565b613e7b816137d4565b8015613eb0575b613e8b90613092565b600052600460205260406000209060018060a01b031660005260205260406000205490565b50613e8b613ecb82600052600e602052604060002054151590565b9050613e82565b6001600160a01b0380821695949293909290861561417357841561412457613ef9856137d4565b6140df57604090815193613f0c856127af565b600095868652835190613f1e82612794565b88825260209682898d8c8b8097018981528a850191848352606086019384528b608087019580875260a0880198895260066005549b8c948352522055600160401b8810156140cb57613f77600198898101600555612dc9565b9590956140b757906005959493929151855551888501555160028401558560038401915116906bffffffffffffffffffffffff60a01b9182825416179055856004840192511690825416179055019051918251926001600160401b0384116140a3578990613fe58585613623565b01918a52888a20908a5b848110614090575050505050509580979861401a8260008051602061507e8339815191529899613571565b877fddf252ad1be2c89b69c2b068fc378daa952ba7f163c4a11628f55a4df523b3ef8180a485877fe4f48c240d3b994948aa54f3e2f5fca59263dfe1d52b6e4cf39a5d249b5ccb658280a485855260068352600261407a82872054612dc9565b5001614087838254612caa565b905551908152a3565b8351821683820155928a01928501613fef565b634e487b7160e01b8b52604160045260248bfd5b634e487b7160e01b8f5260048f905260248ffd5b634e487b7160e01b8e52604160045260248efd5b60405162461bcd60e51b815260206004820152601d60248201527f455243333532353a20746f6b656e20616c7265616479206d696e7465640000006044820152606490fd5b60405162461bcd60e51b815260206004820152602160248201527f455243333532353a2063616e6e6f74206d696e74207a65726f20746f6b656e496044820152601960fa1b6064820152608490fd5b60405162461bcd60e51b815260206004820152602160248201527f455243333532353a206d696e7420746f20746865207a65726f206164647265736044820152607360f81b6064820152608490fd5b919091600090808252602091600e83526040928382205415600014614525576141ec858433614608565b6001958660035401968760035561420285612e04565b916001600160a01b03808216929083156144d7578a15614489576142258b6137d4565b614445578851614234816127af565b8781528951888b8e61424584612794565b8084528a84018a81528b8386019285845260608701948c8652608088019680885260a08901998a5260066005549485948352522055600160401b8110156140cb5780896142959201600555612dc9565b95909561443157906005959493929151855551888501555160028401558560038401915116906bffffffffffffffffffffffff60a01b9182825416179055856004840192511690825416179055019051918251926001600160401b03841161441d57908883928f9b9a9998979695948561430e91613623565b0191895287892090895b848110614407575050505050507f6d811e6a20ae5461a4ef22a6998c1d958defe727f1cc522b6eb792bc8e6f7266989796938693846143e4979461436e6144019a60008051602061507e83398151915296613571565b857fddf252ad1be2c89b69c2b068fc378daa952ba7f163c4a11628f55a4df523b3ef8180a483857fe4f48c240d3b994948aa54f3e2f5fca59263dfe1d52b6e4cf39a5d249b5ccb658280a4838352600681526143cc88842054612dc9565b50508751838152a36143df8588836146a2565b612e04565b915192839286846040919493926060820195825260208201520152565b0390a190565b83518216818401558f9b50928901928501614318565b634e487b7160e01b8a52604160045260248afd5b634e487b7160e01b8e5260048e905260248efd5b885162461bcd60e51b815260048101879052601d60248201527f455243333532353a20746f6b656e20616c7265616479206d696e7465640000006044820152606490fd5b885162461bcd60e51b815260048101879052602160248201527f455243333532353a2063616e6e6f74206d696e74207a65726f20746f6b656e496044820152601960fa1b6064820152608490fd5b885162461bcd60e51b815260048101879052602160248201527f455243333532353a206d696e7420746f20746865207a65726f206164647265736044820152607360f81b6064820152608490fd5b600c5484516307a42e0160e11b8152600481018590526001600160a01b0397881660248201526044810187905291969192918791849160649183918691165af19586156145fc5781966145a5575b505050906144016143e47f6d811e6a20ae5461a4ef22a6998c1d958defe727f1cc522b6eb792bc8e6f72669493612e04565b909180939650813d83116145f5575b6145be81836127ca565b81010312610337575051926144016143e47f6d811e6a20ae5461a4ef22a6998c1d958defe727f1cc522b6eb792bc8e6f7266614573565b503d6145b4565b508351903d90823e3d90fd5b6146128183613e72565b61461c83836131c3565b1580614696575b61462e575b50505050565b838110614651576146489361464291613607565b91613be3565b38808080614628565b60405162461bcd60e51b815260206004820152601f60248201527f455243333532353a20696e73756666696369656e7420616c6c6f77616e6365006044820152606490fd5b50600019811415614623565b6146ab816137d4565b156148c6576146b9826137d4565b156148735780600052602092600684526040926146d98460002054612dc9565b5081600052600686526146ef8560002054612dc9565b5090600281019081549085821061481c57600101546001840154036147c157916002916147228661475f98979695613607565b905501614730838254612caa565b9055808360008051602061507e833981519152888851868152a3845192614756846127af565b60008452614933565b15614768575050565b60849250519062461bcd60e51b82526004820152602d60248201527f455243333532353a207472616e736665722072656a656374656420627920455260448201526c21999a991aa932b1b2b4bb32b960991b6064820152fd5b865162461bcd60e51b815260048101899052602e60248201527f455243333532353a207472616e7366657220746f20746f6b656e20776974682060448201526d191a5999995c995b9d081cdb1bdd60921b6064820152608490fd5b875162461bcd60e51b8152600481018a9052602a60248201527f455243333532353a20696e73756666696369656e742062616c616e636520666f60448201526939103a3930b739b332b960b11b6064820152608490fd5b60405162461bcd60e51b815260206004820152602560248201527f455243333532353a207472616e7366657220746f20696e76616c696420746f6b604482015264195b88125160da1b6064820152608490fd5b60405162461bcd60e51b815260206004820152602760248201527f455243333532353a207472616e736665722066726f6d20696e76616c696420746044820152661bdad95b88125160ca1b6064820152608490fd5b90816020910312610612575180151581036106125790565b9261493d826130de565b803b1515806149e3575b156149d95761499093600060209460405196879586948593629ce20b60e01b9b8c865233600487015260248601526044850152606484015260a0608484015260a48301906126bb565b03926001600160a01b03165af1908115613ba2576000916149bb575b506001600160e01b0319161490565b6149d3915060203d81116137c4576137b581836127ca565b386149ac565b5050505050600190565b506040516301ffc9a760e01b8152629ce20b60e01b60048201526020816024816001600160a01b0386165afa908115613ba257600091614a24575b50614947565b614a3c915060203d8111611cfe57611cee81836127ca565b38614a1e565b909291614a4e826137d4565b80614f4e575b80614f2b575b15614abf5790614aba82614a927fdf7a601a0a201ccd4b4bfcfd610913188d931867997223d226f85f2f2673988a9596948433614608565b614a9d8185856146a2565b604051938493846040919493926060820195825260208201520152565b0390a1565b614ad682600052600e602052604060002054151590565b80614f0e575b15614cf557600093828552600e6020526040928386205491808752848720549183158015808091614cec575b15614b81575050600c546001600160a01b031693915050823b1561095f578451630310ed7f60e41b81526004810191909152602481019190915260448101929092529293909281908490818381606481015b03925af1918215614b77575050614b6e5750565b612d2a9061276b565b51903d90823e3d90fd5b9293919280614ce4575b15614bed575050600c546001600160a01b0316929050823b1561095f578451630310ed7f60e41b81526004810191909152602481019190915260448101929092529293909281908490606490829084905af1918215614b77575050614b6e5750565b91935091908080614cdb575b15614c4c575050600c546001600160a01b031691823b1561095f578451630310ed7f60e41b8152600481019190915260248101919091526044810192909252929390928190849081838160648101614b5a565b909181614cd2575b50614c62575b505050509050565b600c546001600160a01b031691823b1561095f578451630310ed7f60e41b81526004810191909152602481019190915260448101929092529293909281908490606490829084905af1918215614b77575050614cc3575b8080808493614c5a565b614ccc9061276b565b38614cb9565b90501538614c54565b50821515614bf9565b508115614b8b565b50841515614b08565b614d0f82949394600052600e602052604060002054151590565b80614eff575b15614efa57600c5460408051639448bddb60e01b81526004810186905290936001600160a01b039283169392916020908181602481895afa908115614eef57600091614ed2575b50836000614d68612cde565b8481519101209260048a518094819363106057b960e21b8352165afa908115614ec757600091614eae575b5082815191012003614e54576000828152600e90915285902054938415614e0a575050600c5416803b15610612578351630310ed7f60e41b8152600481019390935260248301949094526044820152916000908390606490829084905af1908115614e005750614b6e5750565b513d6000823e3d90fd5b91509250803b15610612578351630310ed7f60e41b8152600481019390935260248301949094526044820152916000908390606490829084905af1908115614e005750614b6e5750565b60849086519062461bcd60e51b82526004820152602e60248201527f43616e6e6f74207472616e73666572206265747765656e20646966666572656e60448201526d742063726564697420747970657360901b6064820152fd5b614ec1913d8091833e6102ea81836127ca565b38614d93565b88513d6000823e3d90fd5b614ee99150823d8411611ddf57611dd081836127ca565b38614d5c565b87513d6000823e3d90fd5b505050565b50614f0983614f61565b614d15565b50614f2684600052600e602052604060002054151590565b614adc565b50614f35846137d4565b8015614a5a5750614f4584612e04565b600b5414614a5a565b50614f5882612e04565b600b5414614a54565b60008181526020600e815260409081832054159384615016575b8415614f89575b5050505090565b8352600e81528183205415159350909183614fab575b50505038808080614f82565b9091925060018060a01b039182600c54169181858220546024875180968193639448bddb60e01b835260048301525afa948515614b77575093614ff7575b505016301415388080614f9f565b61500e929350803d10611ddf57611dd081836127ca565b903880614fe9565b600c548351639448bddb60e01b8152600481018390529195506001600160a01b039083908390602490829085165afa9182156139a357859261505e575b501630141593614f7b565b615076919250833d8511611ddf57611dd081836127ca565b903861505356fe0b2aac84f3ec956911fd78eae5311062972ff949f38412e8da39069d9f068cc6a2646970667358221220feb0b01c24937298753ca6a828cd07ad427e1ead8e8b31232eabab465cb2d58e64736f6c63430008110033608060405234620004865762002423803803806200001d816200048b565b9283398101608082820312620004865781516001600160401b0391908281116200048657816200004f918501620004b1565b91602092838501518281116200048657836200006d918701620004b1565b92604086015183811162000486576060916200008b918801620004b1565b9501516001600160a01b03811695908690036200048657815193838511620002c3576001948554938685811c951680156200047b575b88861014620002a2578190601f9586811162000425575b508890868311600114620003bd57600092620003b1575b5050600019600383901b1c191690861b1785555b805190848211620002c357600254908682811c92168015620003a6575b88831014620002a25781858493116200034f575b508790858311600114620002e557600092620002d9575b5050600019600383901b1c191690851b176002555b8051928311620002c35760039485548581811c91168015620002b8575b82821014620002a25783811162000257575b5080928411600114620001ed5750928293918392600094620001e1575b50501b9160001990841b1c19161790555b600080546001600160a01b031916919091179055604051611eff9081620005248239f35b015192503880620001ac565b919083601f1981168760005284600020946000905b888383106200023c575050501062000223575b505050811b019055620001bd565b015160001983861b60f8161c1916905538808062000215565b85870151885590960195948501948793509081019062000202565b86600052816000208480870160051c82019284881062000298575b0160051c019086905b8281106200028b5750506200018f565b600081550186906200027b565b9250819262000272565b634e487b7160e01b600052602260045260246000fd5b90607f16906200017d565b634e487b7160e01b600052604160045260246000fd5b0151905038806200014b565b90879350601f198316916002600052896000209260005b8b8282106200033857505084116200031e575b505050811b0160025562000160565b015160001960f88460031b161c191690553880806200030f565b8385015186558b97909501949384019301620002fc565b9091506002600052876000208580850160051c8201928a86106200039c575b918991869594930160051c01915b8281106200038c57505062000134565b600081558594508991016200037c565b925081926200036e565b91607f169162000120565b015190503880620000ef565b90889350601f19831691846000528a6000209260005b8c8282106200040e5750508411620003f4575b505050811b01855562000103565b015160001960f88460031b161c19169055388080620003e6565b8385015186558c97909501949384019301620003d3565b90915087600052886000208680850160051c8201928b861062000471575b918a91869594930160051c01915b82811062000461575050620000d8565b600081558594508a910162000451565b9250819262000443565b94607f1694620000c1565b600080fd5b6040519190601f01601f191682016001600160401b03811183821017620002c357604052565b919080601f84011215620004865782516001600160401b038111620002c357602090620004e7601f8201601f191683016200048b565b92818452828287010111620004865760005b8181106200050f57508260009394955001015290565b8581018301518482018401528201620004f956fe608060408181526004908136101561001657600080fd5b600092833560e01c9081631375d8431461149c57508063246a908b1461139e57806331264fc11461118c57806355f804b31461104857806364140ec014610f495780636c0360eb14610e8a5780636c037f8a14610b6e57806371f0442e14610ada578063725fa09c14610862578063842251d41461072a578063894b4c2e146103fe5780639cdeaae0146101805763b3154c08146100b357600080fd5b3461017c57602091826003193601126101785780358452825280832091815192848154906100e082611a79565b808752926001928084169081156101545750600114610119575b610115878761010b828c03836115b2565b5191829182611554565b0390f35b9080949750528583205b82841061014157505050826101159461010b928201019438806100fa565b8054868501880152928601928101610123565b60ff19168887015250505050151560051b830101925061010b8261011538806100fa565b8380fd5b8280fd5b50913461038c578260031936011261038c57813561019d816119c9565b928183526020918183528584209186519480868554916101bc83611a79565b92838352888301976001918a83821691826000146103de5750506001146103a1575b50506101ec925003876115b2565b6101f583611de0565b91610201602435611886565b9389519163131f9f3f60e11b83528201528581602481335afa918215610396578092610360575b61011561027a8b61010b606c8d8d8d6103478e8e8e6102468f611886565b9261024f611e7a565b966102a460298d519e8f809c683d913730b6b2911d1160b91b8c8301528b8151948593019101611531565b8a0191701116113232b9b1b934b83a34b7b7111d1160791b6029840152518093603a840190611531565b016a11161134b6b0b3b2911d1160a91b603a8201526102cc8251809388604585019101611531565b016c1116113130b630b731b2911d1160991b60458201526102f68251809387605285019101611531565b016911161139b637ba111d1160b11b605282015261031d8251809386605c85019101611531565b01916e111611383937b832b93a34b2b9911d60891b605c8401528351938491606b85019101611531565b01607d60f81b606b82015203604c8101855201836115b2565b9091508582813d831161038f575b61037881836115b2565b8101031261038c575051610347606c610228565b80fd5b503d61036e565b8951903d90823e3d90fd5b89925085528185209085915b8583106103c55750506101ec935082010138806101de565b81948484839695965492010152019101899289926103ad565b92509350506101ec94915060ff19168852151560051b82010138806101de565b50913461038c57602091826003193601126107265780359061041f826119c9565b9282815281855285812090865190808284549161043b83611a79565b928383528a8301966001918c83821691826000146107065750506001146106ca575b505061046b925003836115b2565b61047485611de0565b938851631398fee160e31b815286828201528881602481335afa80156106c0578390610691575b6104a59150611886565b9589519163131f9f3f60e11b83528201528781602481335afa91821561039657809261065e575b5050610610606c888a6101159b9961010b99603d9961064e9d99610615996105526104f96105289b611886565b95610502611e7a565b97519b8c99683d913730b6b2911d1160b91b818c0152825192839160298d019101611531565b880191701116113232b9b1b934b83a34b7b7111d1160791b6029840152518093603a840190611531565b016a11161134b6b0b3b2911d1160a91b603a82015261057a825180938d604585019101611531565b016c1116113130b630b731b2911d1160991b60458201526105a4825180938c605285019101611531565b016911161139b637ba111d1160b11b60528201526105cb825180938b605c85019101611531565b016e111611383937b832b93a34b2b9911d60891b605c8201526105f7825180938a606b85019101611531565b01607d60f81b606b82015203604c8101845201826115b2565b611719565b845195827f646174613a6170706c69636174696f6e2f6a736f6e3b6261736536342c000000889485015282519283918686019101611531565b810103601d8101855201836115b2565b9091508782813d831161068a575b61067681836115b2565b8101031261038c575051610610606c6104cc565b503d61066c565b508881813d83116106b9575b6106a781836115b2565b8101031261017c576104a5905161049b565b503d61069d565b8a513d85823e3d90fd5b8b925085528185209085915b8583106106ee57505061046b9350820101388061045d565b80548389018501528794508c939092019181016106d6565b925093505061046b94915060ff19168752151560051b820101388061045d565b5080fd5b508290346107265761073b3661163c565b939083526020916006835283209184519167ffffffffffffffff831161084f57506107668354611a79565b601f811161080c575b5080601f83116001146107aa575083948293949261079f575b50508160011b916000199060031b1c191617905580f35b015190508480610788565b90601f198316958486528286209286905b8882106107f4575050836001959697106107db575b505050811b01905580f35b015160001960f88460031b161c191690558480806107d0565b806001859682949686015181550195019301906107bb565b838552818520601f840160051c810191838510610845575b601f0160051c01905b81811061083a575061076f565b85815560010161082d565b9091508190610824565b634e487b7160e01b855260419052602484fd5b50903461017c578260031936011261017c5781516306fdde0360e01b81529083828281335afa918215610acd578492610aa9575b5082519084600254906108a882611a79565b808552846020988992838301956001908181169081600014610a8a5750600114610a2e575b50506108db925003856115b2565b6108e3611bb2565b928787518092633e7e866960e01b825281335afa918215610a2357605a61064e989761010b97603d976101159c9761092f60ff610615996109849961061099916109f6575b5016611886565b928c51978895683d913730b6b2911d1160b91b8c88015261095a8c825192839160298b019101611531565b860191701116113232b9b1b934b83a34b7b7111d1160791b6029840152518093603a840190611531565b016a11161134b6b0b3b2911d1160a91b603a8201526109ac825180938b604585019101611531565b01721116113b30b63ab2a232b1b4b6b0b639911d1160691b60458201526109dc825180938a605885019101611531565b0161227d60f01b605882015203603a8101845201826115b2565b610a1691508c8d3d10610a1c575b610a0e81836115b2565b8101906116ce565b38610928565b503d610a04565b8751903d90823e3d90fd5b600286527f405787fa12a823e0f2b7631cc41b3ba8828b3321ca811111fa75cd3aa3bb5ace9492508591905b818310610a7257508b9450508201016108db386108cd565b85548a84018501529485019489945091830191610a5a565b9150506108db94925060ff19168652151560051b8201018992386108cd565b610ac69192503d8086833e610abe81836115b2565b81019061166f565b9038610896565b50505051903d90823e3d90fd5b503461017c576020918260031936011261017857358352600582528083209181519284815490610b0982611a79565b808752926001928084169081156101545750600114610b3357610115878761010b828c03836115b2565b9080949750528583205b828410610b5b57505050826101159461010b928201019438806100fa565b8054868501880152928601928101610b3d565b50903461017c576020928360031936011261038c578054835163ec327a2160e01b815283358185018190529092916001600160a01b0316908284602481855afa938415610e80578394610e64575b50855163bc74ebb960e01b8152858101829052948386602481865afa958615610e5a578496610e3e575b5086516309c3dd8760e01b80825282820184905290938585602481845afa948515610e3457918a9594939187938496610e13575b5090602491610c5a60268d518a652f696d61676560d01b81610c46849e85019d8e815193849201611531565b83019182015203600681018b5201896115b2565b8b51958694859384528301525afa938415610a23578094610df6575b50508551918288808201868197519283910191610c9292611531565b81018981016f17b83937b832b93a34b2b9973539b7b760811b905203601081018452603001610cc190846115b2565b8651958695683d913730b6b2911d1160b91b8a880152805190818b60298a01920191610cec92611531565b8601701116113232b9b1b934b83a34b7b7111d1160791b6029820152815191828b603a8401920191610d1d92611531565b01906a11161134b6b0b3b2911d1160a91b603a83015251918260458301610d4392611531565b01906e111611383937b832b93a34b2b9911d60891b604583015251918260548301610d6d92611531565b0160548101607d60f81b905203603581018252605501610d8d90826115b2565b610d9690611719565b81517f646174613a6170706c69636174696f6e2f6a736f6e3b6261736536342c00000084820152815190938492610dd4918391603d86019101611531565b810103601d81018352603d01610dea90836115b2565b51610115819282611554565b610e0b9294503d8091833e610abe81836115b2565b913880610c76565b602492919650610e2c903d8087833e610abe81836115b2565b959091610c1a565b89513d88823e3d90fd5b610e539196503d8086833e610abe81836115b2565b9438610be6565b87513d86823e3d90fd5b610e799194503d8085833e610abe81836115b2565b9238610bbc565b86513d85823e3d90fd5b838234610726578160031936011261072657805190826001805491610eae83611a79565b80865292828116908115610f215750600114610ed7575b50505061010b826101159403836115b2565b9450808552600080516020611eaa8339815191525b828610610f095750505061010b8260206101159582010194610ec5565b80546020878701810191909152909501948101610eec565b61011597508693506020925061010b94915060ff191682840152151560051b82010194610ec5565b5082903461072657610f5a3661163c565b939083526020916005835283209184519167ffffffffffffffff831161084f5750610f858354611a79565b601f8111611005575b5080601f8311600114610fbd575083948293949261079f5750508160011b916000199060031b1c191617905580f35b90601f198316958486528286209286905b888210610fed575050836001959697106107db57505050811b01905580f35b80600185968294968601518155019501930190610fce565b838552818520601f840160051c81019183851061103e575b601f0160051c01905b8181106110335750610f8e565b858155600101611026565b909150819061101d565b82843461038c576020806003193601126107265767ffffffffffffffff83358181116101785761107b90369086016115f0565b93845191821161117957506001916110938354611a79565b601f8111611127575b5080601f83116001146110d657508394829394926110cb575b5050600019600383901b1c191690821b17905580f35b0151905084806110b5565b838552601f19831695600080516020611eaa833981519152929186905b88821061111057505083859697106107db57505050811b01905580f35b8087859682949686015181550195019301906110f3565b838552600080516020611eaa833981519152601f840160051c81019183851061116f575b601f0160051c019084905b82811061116457505061109c565b868155018490611156565b909150819061114b565b634e487b7160e01b845260419052602483fd5b50903461017c578260031936011261017c5781516306fdde0360e01b81529083828281335afa918215610acd578492611382575b5082519084906002546111d281611a79565b808552846020948582019360019087828216918260001461136457505060011461130a575b50611204925003856115b2565b61120c611bb2565b918387518092633e7e866960e01b825281335afa9081156113005761127997969361010b969361124f60ff605a98956112cf956101159e916112e9575016611886565b9489519a8b97683d913730b6b2911d1160b91b878a0152610528815180928960298d019101611531565b016a11161134b6b0b3b2911d1160a91b603a8201526112a18251809386604585019101611531565b0191721116113b30b63ab2a232b1b4b6b0b639911d1160691b60458401528351938491605885019101611531565b0161227d60f01b605882015203603a8101855201836115b2565b610a169150873d8911610a1c57610a0e81836115b2565b87513d8a823e3d90fd5b60028b528691508a907f405787fa12a823e0f2b7631cc41b3ba8828b3321ca811111fa75cd3aa3bb5ace5b85831061134c5750506112049350820101386111f7565b8054838b018501528994508893909201918101611335565b60ff1916875261120495151560051b85010192503891506111f79050565b6113979192503d8086833e610abe81836115b2565b90386111c0565b50829034610726576113af3661163c565b9390835260209181835283209184519167ffffffffffffffff831161084f57506113d98354611a79565b601f8111611459575b5080601f8311600114611411575083948293949261079f5750508160011b916000199060031b1c191617905580f35b90601f198316958486528286209286905b888210611441575050836001959697106107db57505050811b01905580f35b80600185968294968601518155019501930190611422565b838552818520601f840160051c810191838510611492575b601f0160051c01905b81811061148757506113e2565b85815560010161147a565b9091508190611471565b92905034610178576020908160031936011261152d57358452600681528184208054856114c882611a79565b8087529260019280841690811561015457506001146114f257610115878761010b828c03836115b2565b9080949750528583205b82841061151a57505050826101159461010b928201019438806100fa565b80548685018801529286019281016114fc565b8480fd5b60005b8381106115445750506000910152565b8181015183820152602001611534565b604091602082526115748151809281602086015260208686019101611531565b601f01601f1916010190565b6060810190811067ffffffffffffffff82111761159c57604052565b634e487b7160e01b600052604160045260246000fd5b90601f8019910116810190811067ffffffffffffffff82111761159c57604052565b67ffffffffffffffff811161159c57601f01601f191660200190565b81601f8201121561163757803590611607826115d4565b9261161560405194856115b2565b8284526020838301011161163757816000926020809301838601378301015290565b600080fd5b90604060031983011261163757600435916024359067ffffffffffffffff82116116375761166c916004016115f0565b90565b6020818303126116375780519067ffffffffffffffff8211611637570181601f820112156116375780516116a2816115d4565b926116b060405194856115b2565b818452602082840101116116375761166c9160208085019101611531565b90816020910312611637575160ff811681036116375790565b906116f1826115d4565b6116fe60405191826115b2565b828152809261170f601f19916115d4565b0190602036910137565b8051156118615760405161172c81611580565b604081527f4142434445464748494a4b4c4d4e4f505152535455565758595a61626364656660208201527f6768696a6b6c6d6e6f707172737475767778797a303132333435363738392b2f6040820152815160029283820180921161184b576003918290046001600160fe1b038116810361184b576117ae908594951b6116e7565b936020850193829183518401925b8381106117fa57505050505106806001146117e7576002146117dc575090565b603d90600019015390565b50603d9081600019820153600119015390565b85600491979293949701918251600190603f9082828260121c16880101518453828282600c1c16880101518385015382828260061c16880101518885015316850101518782015301959291906117bc565b634e487b7160e01b600052601160045260246000fd5b506040516020810181811067ffffffffffffffff82111761159c576040526000815290565b806000917a184f03e93ff9f4daa797ed6e38ed64bf6a1f010000000000000000808210156119bb575b506d04ee2d6d415b85acef8100000000808310156119ac575b50662386f26fc100008083101561199d575b506305f5e1008083101561198e575b506127108083101561197f575b50606482101561196f575b600a80921015611965575b60019081602161191d8287016116e7565b95860101905b61192f575b5050505090565b600019019083906f181899199a1a9b1b9c1cb0b131b232b360811b8282061a83530491821561196057919082611923565b611928565b916001019161190c565b9190606460029104910191611901565b600491939204910191386118f6565b600891939204910191386118e9565b601091939204910191386118da565b602091939204910191386118c8565b6040935081049150386118af565b6040516306fdde0360e01b815290600082600481335afa918215611a6d57600092611a47575b5060226119fe61166c92611886565b926040519381611a18869351809260208087019101611531565b820161202360f01b6020820152611a388251809360208785019101611531565b010360028101845201826115b2565b6119fe611a6460229261166c94953d8091833e610abe81836115b2565b939250506119ef565b6040513d6000823e3d90fd5b90600182811c92168015611aa9575b6020831014611a9357565b634e487b7160e01b600052602260045260246000fd5b91607f1691611a88565b90600091600190815491611ac683611a79565b92818116908115611b1c5750600114611ade57505050565b809192939450600052600080516020611eaa833981519152906000915b848310611b09575050500190565b8181602092548587015201920191611afb565b60ff191683525050811515909102019150565b600092918154611b3e81611a79565b92600191808316908115611b975750600114611b5b575b50505050565b90919293945060005260209081600020906000915b858310611b865750505050019038808080611b55565b805485840152918301918101611b70565b60ff1916845250505081151590910201915038808080611b55565b611bbb33611cbd565b6040519081602091611bce838301611ab3565b68636f6e74726163742f60b81b8152611bf08251809386600985019101611531565b01602f60f81b600982015260009060035493611c0b85611a79565b94600190818116908115611c9a5750600114611c38575b50505061166c925003601f1981018352826115b2565b9091925060036000527fc2575a0e9e593c00f959f8c92f12db2869c3395a3b0502d05e2516446f71f85b906000915b868310611c83575050505061166c92600a910101388080611c22565b8054838601600a0152879550918301918101611c67565b915050600a935061166c95915060ff191683830152801515020101388080611c22565b604051906001600160a01b0316611cd382611580565b602a82526020908183016040368237835115611dca57603090538251600190811015611dca57607860218501536029905b808211611d58575050611d15575090565b6064906040519062461bcd60e51b825280600483015260248201527f537472696e67733a20686578206c656e67746820696e73756666696369656e746044820152fd5b9091600f81166010811015611db5578551841015611db5576f181899199a1a9b1b9c1cb0b131b232b360811b901a85840185015360041c918015611da0576000190190611d04565b60246000634e487b7160e01b81526011600452fd5b60246000634e487b7160e01b81526032600452fd5b634e487b7160e01b600052603260045260246000fd5b61166c601191611def30611cbd565b906000526006602052611e6c604060002060056020526001611e5e604060002092604051978896611e2260208901611ab3565b692f636f6e74726163742f60b01b8152611e46825180936020600a85019101611531565b01662f746f6b656e2f60c81b600a8201520190611b2f565b602f60f81b81520190611b2f565b03601f1981018352826115b2565b604051617b7d60f01b6020820152600281526040810181811067ffffffffffffffff82111761159c576040529056feb10e2d527612073b26eecdfd717e6a320cf44b4afac2b0732d9fcbe2b7fa0cf6a26469706673582212203dabc739771c8e6f68eb2ab2ac8412ac3a180aba7847d36163cef424177ca31d64736f6c63430008110033d7b6990105719101dabeb77144f2a3385c8033acd3af97e9423a695e81ad1eb5b10e2d527612073b26eecdfd717e6a320cf44b4afac2b0732d9fcbe2b7fa0cf6",
  "linkReferences": {},
  "deployedLinkReferences": {}
}