{
  "_format": "hh-sol-artifact-1",
  "contractName": "SpendCredit",
  "sourceName": "contracts/SpendCredit.sol",
  "abi": [
    {
      "inputs": [
        {
          "internalType": "address",
          "name": "serviceAddress_",
          "type": "address"
        },
        {
          "internalType": "address",
          "name": "slotRegistry_",
          "type": "address"
        },
        {
          "internalType": "string",
          "name": "name_",
          "type": "string"
        },
        {
          "internalType": "string",
          "name": "symbol_",
          "type": "string"
        },
        {
          "internalType": "string",
          "name": "baseuri_",
          "type": "string"
        },
        {
          "internalType": "string",
          "name": "contractDescription_",
          "type": "string"
        },
        {
          "internalType": "string",
          "name": "contractImage_",
          "type": "string"
        },
        {
          "internalType": "string",
          "name": "valueToken_",
          "type": "string"
        },
        {
          "internalType": "address",
          "name": "valueTokenContractAddress_",
          "type": "address"
        },
        {
          "internalType": "uint8",
          "name": "decimals_",
          "type": "uint8"
        }
      ],
      "stateMutability": "nonpayable",
      "type": "constructor"
    },
    {
      "anonymous": false,
      "inputs": [
        {
          "indexed": true,
          "internalType": "address",
          "name": "_owner",
          "type": "address"
        },
        {
          "indexed": true,
          "internalType": "address",
          "name": "_approved",
          "type": "address"
        },
        {
          "indexed": true,
          "internalType": "uint256",
          "name": "_tokenId",
          "type": "uint256"
        }
      ],
      "name": "Approval",
      "type": "event"
    },
    {
      "anonymous": false,
      "inputs": [
        {
          "indexed": true,
          "internalType": "address",
          "name": "_owner",
          "type": "address"
        },
        {
          "indexed": true,
          "internalType": "address",
          "name": "_operator",
          "type": "address"
        },
        {
          "indexed": false,
          "internalType": "bool",
          "name": "_approved",
          "type": "bool"
        }
      ],
      "name": "ApprovalForAll",
      "type": "event"
    },
    {
      "anonymous": false,
      "inputs": [
        {
          "indexed": true,
          "internalType": "uint256",
          "name": "_tokenId",
          "type": "uint256"
        },
        {
          "indexed": true,
          "internalType": "address",
          "name": "_operator",
          "type": "address"
        },
        {
          "indexed": false,
          "internalType": "uint256",
          "name": "_value",
          "type": "uint256"
        }
      ],
      "name": "ApprovalValue",
      "type": "event"
    },
    {
      "anonymous": false,
      "inputs": [
        {
          "indexed": false,
          "internalType": "address",
          "name": "contractAddress",
          "type": "address"
        }
      ],
      "name": "MetadataDescriptor",
      "type": "event"
    },
    {
      "anonymous": false,
      "inputs": [
        {
          "indexed": false,
          "internalType": "uint256",
          "name": "tokenId",
          "type": "uint256"
        },
        {
          "indexed": false,
          "internalType": "uint256",
          "name": "slot",
          "type": "uint256"
        },
        {
          "indexed": false,
          "internalType": "uint256",
          "name": "value",
          "type": "uint256"
        }
      ],
      "name": "MintServiceToken",
      "type": "event"
    },
    {
      "anonymous": false,
      "inputs": [
        {
          "indexed": false,
          "internalType": "uint256",
          "name": "newTokenId",
          "type": "uint256"
        },
        {
          "indexed": false,
          "internalType": "uint256",
          "name": "slot",
          "type": "uint256"
        },
        {
          "indexed": false,
          "internalType": "uint256",
          "name": "value",
          "type": "uint256"
        }
      ],
      "name": "MintServiceTokenToAddress",
      "type": "event"
    },
    {
      "anonymous": false,
      "inputs": [
        {
          "indexed": true,
          "internalType": "address",
          "name": "previousOwner",
          "type": "address"
        },
        {
          "indexed": true,
          "internalType": "address",
          "name": "newOwner",
          "type": "address"
        }
      ],
      "name": "OwnershipTransferred",
      "type": "event"
    },
    {
      "anonymous": false,
      "inputs": [
        {
          "indexed": true,
          "internalType": "address",
          "name": "metadataDescriptor",
          "type": "address"
        }
      ],
      "name": "SetMetadataDescriptor",
      "type": "event"
    },
    {
      "anonymous": false,
      "inputs": [
        {
          "indexed": true,
          "internalType": "uint256",
          "name": "_tokenId",
          "type": "uint256"
        },
        {
          "indexed": true,
          "internalType": "uint256",
          "name": "_oldSlot",
          "type": "uint256"
        },
        {
          "indexed": true,
          "internalType": "uint256",
          "name": "_newSlot",
          "type": "uint256"
        }
      ],
      "name": "SlotChanged",
      "type": "event"
    },
    {
      "anonymous": false,
      "inputs": [
        {
          "indexed": true,
          "internalType": "address",
          "name": "_from",
          "type": "address"
        },
        {
          "indexed": true,
          "internalType": "address",
          "name": "_to",
          "type": "address"
        },
        {
          "indexed": true,
          "internalType": "uint256",
          "name": "_tokenId",
          "type": "uint256"
        }
      ],
      "name": "Transfer",
      "type": "event"
    },
    {
      "anonymous": false,
      "inputs": [
        {
          "indexed": true,
          "internalType": "uint256",
          "name": "_fromTokenId",
          "type": "uint256"
        },
        {
          "indexed": true,
          "internalType": "uint256",
          "name": "_toTokenId",
          "type": "uint256"
        },
        {
          "indexed": false,
          "internalType": "uint256",
          "name": "_value",
          "type": "uint256"
        }
      ],
      "name": "TransferValue",
      "type": "event"
    },
    {
      "anonymous": false,
      "inputs": [
        {
          "indexed": false,
          "internalType": "uint256",
          "name": "fromTokenId",
          "type": "uint256"
        },
        {
          "indexed": false,
          "internalType": "uint256",
          "name": "toTokenId",
          "type": "uint256"
        },
        {
          "indexed": false,
          "internalType": "uint256",
          "name": "value",
          "type": "uint256"
        }
      ],
      "name": "ValueTransfer",
      "type": "event"
    },
    {
      "inputs": [
        {
          "internalType": "string",
          "name": "uri_",
          "type": "string"
        }
      ],
      "name": "_setBaseURI",
      "outputs": [],
      "stateMutability": "nonpayable",
      "type": "function"
    },
    {
      "inputs": [
        {
          "internalType": "uint256",
          "name": "tokenId_",
          "type": "uint256"
        },
        {
          "internalType": "address",
          "name": "operator_",
          "type": "address"
        }
      ],
      "name": "allowance",
      "outputs": [
        {
          "internalType": "uint256",
          "name": "",
          "type": "uint256"
        }
      ],
      "stateMutability": "view",
      "type": "function"
    },
    {
      "inputs": [
        {
          "internalType": "address",
          "name": "to_",
          "type": "address"
        },
        {
          "internalType": "uint256",
          "name": "tokenId_",
          "type": "uint256"
        }
      ],
      "name": "approve",
      "outputs": [],
      "stateMutability": "payable",
      "type": "function"
    },
    {
      "inputs": [
        {
          "internalType": "uint256",
          "name": "tokenId_",
          "type": "uint256"
        },
        {
          "internalType": "address",
          "name": "to_",
          "type": "address"
        },
        {
          "internalType": "uint256",
          "name": "value_",
          "type": "uint256"
        }
      ],
      "name": "approve",
      "outputs": [],
      "stateMutability": "payable",
      "type": "function"
    },
    {
      "inputs": [
        {
          "internalType": "address",
          "name": "owner_",
          "type": "address"
        }
      ],
      "name": "balanceOf",
      "outputs": [
        {
          "internalType": "uint256",
          "name": "balance",
          "type": "uint256"
        }
      ],
      "stateMutability": "view",
      "type": "function"
    },
    {
      "inputs": [
        {
          "internalType": "uint256",
          "name": "tokenId_",
          "type": "uint256"
        }
      ],
      "name": "balanceOf",
      "outputs": [
        {
          "internalType": "uint256",
          "name": "",
          "type": "uint256"
        }
      ],
      "stateMutability": "view",
      "type": "function"
    },
    {
      "inputs": [],
      "name": "contractURI",
      "outputs": [
        {
          "internalType": "string",
          "name": "",
          "type": "string"
        }
      ],
      "stateMutability": "view",
      "type": "function"
    },
    {
      "inputs": [
        {
          "internalType": "uint256",
          "name": "tokenId_",
          "type": "uint256"
        }
      ],
      "name": "getApproved",
      "outputs": [
        {
          "internalType": "address",
          "name": "",
          "type": "address"
        }
      ],
      "stateMutability": "view",
      "type": "function"
    },
    {
      "inputs": [
        {
          "internalType": "uint256",
          "name": "tokenId",
          "type": "uint256"
        }
      ],
      "name": "getTokenDescription",
      "outputs": [
        {
          "internalType": "string",
          "name": "",
          "type": "string"
        }
      ],
      "stateMutability": "view",
      "type": "function"
    },
    {
      "inputs": [
        {
          "internalType": "uint256",
          "name": "tokenId",
          "type": "uint256"
        }
      ],
      "name": "getTokenImage",
      "outputs": [
        {
          "internalType": "string",
          "name": "",
          "type": "string"
        }
      ],
      "stateMutability": "view",
      "type": "function"
    },
    {
      "inputs": [
        {
          "internalType": "uint256",
          "name": "tokenId",
          "type": "uint256"
        }
      ],
      "name": "getTokenUUID",
      "outputs": [
        {
          "internalType": "string",
          "name": "",
          "type": "string"
        }
      ],
      "stateMutability": "view",
      "type": "function"
    },
    {
      "inputs": [
        {
          "internalType": "address",
          "name": "owner_",
          "type": "address"
        },
        {
          "internalType": "address",
          "name": "operator_",
          "type": "address"
        }
      ],
      "name": "isApprovedForAll",
      "outputs": [
        {
          "internalType": "bool",
          "name": "",
          "type": "bool"
        }
      ],
      "stateMutability": "view",
      "type": "function"
    },
    {
      "inputs": [],
      "name": "metadataDescriptor",
      "outputs": [
        {
          "internalType": "contract IERC3525MetadataDescriptor",
          "name": "",
          "type": "address"
        }
      ],
      "stateMutability": "view",
      "type": "function"
    },
    {
      "inputs": [
        {
          "internalType": "address",
          "name": "owner_",
          "type": "address"
        },
        {
          "internalType": "uint256",
          "name": "slot_",
          "type": "uint256"
        },
        {
          "internalType": "uint256",
          "name": "value_",
          "type": "uint256"
        },
        {
          "internalType": "string",
          "name": "uuid_",
          "type": "string"
        },
        {
          "internalType": "string",
          "name": "token_description_",
          "type": "string"
        },
        {
          "internalType": "string",
          "name": "token_image_",
          "type": "string"
        }
      ],
      "name": "mint",
      "outputs": [
        {
          "internalType": "uint256",
          "name": "",
          "type": "uint256"
        }
      ],
      "stateMutability": "nonpayable",
      "type": "function"
    },
    {
      "inputs": [],
      "name": "name",
      "outputs": [
        {
          "internalType": "string",
          "name": "",
          "type": "string"
        }
      ],
      "stateMutability": "view",
      "type": "function"
    },
    {
      "inputs": [],
      "name": "owner",
      "outputs": [
        {
          "internalType": "address",
          "name": "",
          "type": "address"
        }
      ],
      "stateMutability": "view",
      "type": "function"
    },
    {
      "inputs": [
        {
          "internalType": "uint256",
          "name": "tokenId_",
          "type": "uint256"
        }
      ],
      "name": "ownerOf",
      "outputs": [
        {
          "internalType": "address",
          "name": "owner_",
          "type": "address"
        }
      ],
      "stateMutability": "view",
      "type": "function"
    },
    {
      "inputs": [],
      "name": "renounceOwnership",
      "outputs": [],
      "stateMutability": "nonpayable",
      "type": "function"
    },
    {
      "inputs": [
        {
          "internalType": "address",
          "name": "from_",
          "type": "address"
        },
        {
          "internalType": "address",
          "name": "to_",
          "type": "address"
        },
        {
          "internalType": "uint256",
          "name": "tokenId_",
          "type": "uint256"
        }
      ],
      "name": "safeTransferFrom",
      "outputs": [],
      "stateMutability": "payable",
      "type": "function"
    },
    {
      "inputs": [
        {
          "internalType": "address",
          "name": "from_",
          "type": "address"
        },
        {
          "internalType": "address",
          "name": "to_",
          "type": "address"
        },
        {
          "internalType": "uint256",
          "name": "tokenId_",
          "type": "uint256"
        },
        {
          "internalType": "bytes",
          "name": "data_",
          "type": "bytes"
        }
      ],
      "name": "safeTransferFrom",
      "outputs": [],
      "stateMutability": "payable",
      "type": "function"
    },
    {
      "inputs": [
        {
          "internalType": "address",
          "name": "operator_",
          "type": "address"
        },
        {
          "internalType": "bool",
          "name": "approved_",
          "type": "bool"
        }
      ],
      "name": "setApprovalForAll",
      "outputs": [],
      "stateMutability": "nonpayable",
      "type": "function"
    },
    {
      "inputs": [
        {
          "internalType": "uint256",
          "name": "tokenId_",
          "type": "uint256"
        }
      ],
      "name": "slotOf",
      "outputs": [
        {
          "internalType": "uint256",
          "name": "",
          "type": "uint256"
        }
      ],
      "stateMutability": "view",
      "type": "function"
    },
    {
      "inputs": [
        {
          "internalType": "uint256",
          "name": "slot_",
          "type": "uint256"
        }
      ],
      "name": "slotURI",
      "outputs": [
        {
          "internalType": "string",
          "name": "",
          "type": "string"
        }
      ],
      "stateMutability": "view",
      "type": "function"
    },
    {
      "inputs": [
        {
          "internalType": "bytes4",
          "name": "interfaceId",
          "type": "bytes4"
        }
      ],
      "name": "supportsInterface",
      "outputs": [
        {
          "internalType": "bool",
          "name": "",
          "type": "bool"
        }
      ],
      "stateMutability": "view",
      "type": "function"
    },
    {
      "inputs": [],
      "name": "symbol",
      "outputs": [
        {
          "internalType": "string",
          "name": "",
          "type": "string"
        }
      ],
      "stateMutability": "view",
      "type": "function"
    },
    {
      "inputs": [
        {
          "internalType": "uint256",
          "name": "index_",
          "type": "uint256"
        }
      ],
      "name": "tokenByIndex",
      "outputs": [
        {
          "internalType": "uint256",
          "name": "",
          "type": "uint256"
        }
      ],
      "stateMutability": "view",
      "type": "function"
    },
    {
      "inputs": [
        {
          "internalType": "address",
          "name": "owner_",
          "type": "address"
        },
        {
          "internalType": "uint256",
          "name": "index_",
          "type": "uint256"
        }
      ],
      "name": "tokenOfOwnerByIndex",
      "outputs": [
        {
          "internalType": "uint256",
          "name": "",
          "type": "uint256"
        }
      ],
      "stateMutability": "view",
      "type": "function"
    },
    {
      "inputs": [
        {
          "internalType": "uint256",
          "name": "tokenId_",
          "type": "uint256"
        }
      ],
      "name": "tokenURI",
      "outputs": [
        {
          "internalType": "string",
          "name": "",
          "type": "string"
        }
      ],
      "stateMutability": "view",
      "type": "function"
    },
    {
      "inputs": [],
      "name": "totalSupply",
      "outputs": [
        {
          "internalType": "uint256",
          "name": "",
          "type": "uint256"
        }
      ],
      "stateMutability": "view",
      "type": "function"
    },
    {
      "inputs": [
        {
          "internalType": "uint256",
          "name": "fromTokenId_",
          "type": "uint256"
        },
        {
          "internalType": "address",
          "name": "to_",
          "type": "address"
        },
        {
          "internalType": "uint256",
          "name": "value_",
          "type": "uint256"
        }
      ],
      "name": "transferFrom",
      "outputs": [
        {
          "internalType": "uint256",
          "name": "",
          "type": "uint256"
        }
      ],
      "stateMutability": "payable",
      "type": "function"
    },
    {
      "inputs": [
        {
          "internalType": "address",
          "name": "from_",
          "type": "address"
        },
        {
          "internalType": "address",
          "name": "to_",
          "type": "address"
        },
        {
          "internalType": "uint256",
          "name": "tokenId_",
          "type": "uint256"
        }
      ],
      "name": "transferFrom",
      "outputs": [],
      "stateMutability": "payable",
      "type": "function"
    },
    {
      "inputs": [
        {
          "internalType": "uint256",
          "name": "fromTokenId_",
          "type": "uint256"
        },
        {
          "internalType": "uint256",
          "name": "toTokenId_",
          "type": "uint256"
        },
        {
          "internalType": "uint256",
          "name": "value_",
          "type": "uint256"
        }
      ],
      "name": "transferFrom",
      "outputs": [],
      "stateMutability": "payable",
      "type": "function"
    },
    {
      "inputs": [
        {
          "internalType": "address",
          "name": "newOwner",
          "type": "address"
        }
      ],
      "name": "transferOwnership",
      "outputs": [],
      "stateMutability": "nonpayable",
      "type": "function"
    },
    {
      "inputs": [],
      "name": "valueDecimals",
      "outputs": [
        {
          "internalType": "uint8",
          "name": "",
          "type": "uint8"
        }
      ],
      "stateMutability": "view",
      "type": "function"
    }
  ],
  "bytecode": "0x60806040523480156200001157600080fd5b50604051620056773803806200567783398101604081905262000034916200031d565b898989898989898785858260006200004d848262000502565b5060016200005c838262000502565b506002805460ff191660ff9290921691909117905550620000869050620000803390565b620001c1565b600a80546001600160a01b0319166001600160a01b038a16179055600b620000af858262000502565b50600b838389604051620000c39062000213565b620000d29493929190620005fc565b604051809103906000f080158015620000ef573d6000803e3d6000fd5b50600880546001600160a01b0319166001600160a01b039290921691821790556040519081527f9ac4f8025631594629895b778dc5ee88d01673a254a2291f6b6b174ad25230ca9060200160405180910390a150506040805180820190915260048152635553444360e01b6020918201528951908a01207f29535e4168d63ec2988ccae9ecde9b63335195a6eaab88dae98ff067906bd156019550620001b194505050505057600c80546001600160a01b0319166001600160a01b0384161790555b50505050505050505050620006d4565b600980546001600160a01b038381166001600160a01b0319831681179093556040519116919082907f8be0079c531659141344cd1fd0a4f28419497f9722a3daafe3b4186f6b6457e090600090a35050565b611ada8062003b9d83390190565b80516001600160a01b03811681146200023957600080fd5b919050565b634e487b7160e01b600052604160045260246000fd5b60005b838110156200027157818101518382015260200162000257565b50506000910152565b600082601f8301126200028c57600080fd5b81516001600160401b0380821115620002a957620002a96200023e565b604051601f8301601f19908116603f01168101908282118183101715620002d457620002d46200023e565b81604052838152866020858801011115620002ee57600080fd5b6200030184602083016020890162000254565b9695505050505050565b805160ff811681146200023957600080fd5b6000806000806000806000806000806101408b8d0312156200033e57600080fd5b620003498b62000221565b99506200035960208c0162000221565b60408c01519099506001600160401b03808211156200037757600080fd5b620003858e838f016200027a565b995060608d01519150808211156200039c57600080fd5b620003aa8e838f016200027a565b985060808d0151915080821115620003c157600080fd5b620003cf8e838f016200027a565b975060a08d0151915080821115620003e657600080fd5b620003f48e838f016200027a565b965060c08d01519150808211156200040b57600080fd5b620004198e838f016200027a565b955060e08d01519150808211156200043057600080fd5b506200043f8d828e016200027a565b935050620004516101008c0162000221565b9150620004626101208c016200030b565b90509295989b9194979a5092959850565b600181811c908216806200048857607f821691505b602082108103620004a957634e487b7160e01b600052602260045260246000fd5b50919050565b601f821115620004fd57600081815260208120601f850160051c81016020861015620004d85750805b601f850160051c820191505b81811015620004f957828155600101620004e4565b5050505b505050565b81516001600160401b038111156200051e576200051e6200023e565b62000536816200052f845462000473565b84620004af565b602080601f8311600181146200056e5760008415620005555750858301515b600019600386901b1c1916600185901b178555620004f9565b600085815260208120601f198616915b828110156200059f578886015182559484019460019091019084016200057e565b5085821015620005be5787850151600019600388901b60f8161c191681555b5050505050600190811b01905550565b60008151808452620005e881602086016020860162000254565b601f01601f19169290920160200192915050565b608081526000808654620006108162000473565b80608086015260a0600180841660008114620006355760018114620006505762000683565b60ff1985168884015283151560051b88018301955062000683565b8b60005260208060002060005b868110156200067a5781548b82018701529084019082016200065d565b8a018501975050505b505050505082810360208401526200069c8187620005ce565b90508281036040840152620006b28186620005ce565b915050620006cb60608301846001600160a01b03169052565b95945050505050565b6134b980620006e46000396000f3fe6080604052600436106101f95760003560e01c80636352211e1161010d5780639cc7f708116100a0578063c87b56dd1161006f578063c87b56dd14610561578063e345e0bc14610581578063e8a3d485146105a1578063e985e9c5146105b6578063f2fde38b1461060357600080fd5b80639cc7f708146104ee578063a22cb4651461050e578063b3154c081461052e578063b88d4fde1461054e57600080fd5b8063840f7113116100dc578063840f7113146104885780638cb0a511146104a85780638da5cb5b146104bb57806395d89b41146104d957600080fd5b80636352211e1461041357806370a0823114610433578063715018a61461045357806371f0442e1461046857600080fd5b806323b872dd1161019057806331b5b9071161015f57806331b5b9071461037e5780633e7e86691461039e57806342842e0e146103c0578063476de4a8146103d35780634f6ccce7146103f357600080fd5b806323b872dd14610318578063263f3e7e1461032b5780632f745c591461034b578063310ed7f01461036b57600080fd5b806309c3dd87116101cc57806309c3dd87146102a25780630f485c02146102c25780631375d843146102e357806318160ddd1461030357600080fd5b806301ffc9a7146101fe57806306fdde0314610233578063081812fc14610255578063095ea7b31461028d575b600080fd5b34801561020a57600080fd5b5061021e610219366004612bc2565b610623565b60405190151581526020015b60405180910390f35b34801561023f57600080fd5b506102486106c6565b60405161022a9190612c2f565b34801561026157600080fd5b50610275610270366004612c42565b610758565b6040516001600160a01b03909116815260200161022a565b6102a061029b366004612c72565b6107aa565b005b3480156102ae57600080fd5b506102486102bd366004612c42565b61088e565b6102d56102d0366004612c9c565b610973565b60405190815260200161022a565b3480156102ef57600080fd5b506102486102fe366004612c42565b610988565b34801561030f57600080fd5b506005546102d5565b6102a0610326366004612cd1565b6109fb565b34801561033757600080fd5b506102d5610346366004612c42565b610a06565b34801561035757600080fd5b506102d5610366366004612c72565b610a4e565b6102a0610379366004612cfd565b610aef565b34801561038a57600080fd5b506102a0610399366004612df6565b610afa565b3480156103aa57600080fd5b5060025460405160ff909116815260200161022a565b6102a06103ce366004612cd1565b610b6c565b3480156103df57600080fd5b506102d56103ee366004612e2b565b610b87565b3480156103ff57600080fd5b506102d561040e366004612c42565b610c08565b34801561041f57600080fd5b5061027561042e366004612c42565b610c99565b34801561043f57600080fd5b506102d561044e366004612ed6565b610d35565b34801561045f57600080fd5b506102a0610dbd565b34801561047457600080fd5b50610248610483366004612c42565b610dd1565b34801561049457600080fd5b50600854610275906001600160a01b031681565b6102a06104b6366004612c9c565b610e03565b3480156104c757600080fd5b506009546001600160a01b0316610275565b3480156104e557600080fd5b50610248610e0e565b3480156104fa57600080fd5b506102d5610509366004612c42565b610e1d565b34801561051a57600080fd5b506102a0610529366004612eff565b610e65565b34801561053a57600080fd5b50610248610549366004612c42565b610e74565b6102a061055c366004612f36565b610ea6565b34801561056d57600080fd5b5061024861057c366004612c42565b610ede565b34801561058d57600080fd5b506102d561059c366004612fb2565b610f70565b3480156105ad57600080fd5b50610248610fa4565b3480156105c257600080fd5b5061021e6105d1366004612fde565b6001600160a01b0391821660009081526007602090815260408083209390941682526002909201909152205460ff1690565b34801561060f57600080fd5b506102a061061e366004612ed6565b611091565b60006001600160e01b031982166301ffc9a760e01b148061065457506001600160e01b03198216630354d60560e61b145b8061066f57506001600160e01b031982166380ac58cd60e01b145b8061068a57506001600160e01b031982166370b0048160e11b145b806106a557506001600160e01b0319821663780e9d6360e01b145b806106c057506001600160e01b03198216635b5e139f60e01b145b92915050565b6060600080546106d590613008565b80601f016020809104026020016040519081016040528092919081815260200182805461070190613008565b801561074e5780601f106107235761010080835404028352916020019161074e565b820191906000526020600020905b81548152906001019060200180831161073157829003601f168201915b5050505050905090565b60006107638261110a565b60008281526006602052604090205460058054909190811061078757610787613042565b60009182526020909120600460069092020101546001600160a01b031692915050565b60006107b582610c99565b9050806001600160a01b0316836001600160a01b0316036107f15760405162461bcd60e51b81526004016107e890613058565b60405180910390fd5b336001600160a01b038216148061080d575061080d81336105d1565b61087f5760405162461bcd60e51b815260206004820152603960248201527f455243333532353a20617070726f76652063616c6c6572206973206e6f74206f60448201527f776e6572206e6f7220617070726f76656420666f7220616c6c0000000000000060648201526084016107e8565b610889838361115b565b505050565b6060600061089a6111f2565b6008549091506001600160a01b03166108fa5760008151116108cb576040518060200160405280600081525061096c565b806108d584611201565b6040516020016108e692919061309a565b60405160208183030381529060405261096c565b600854604051633601bfc560e11b8152600481018590526001600160a01b0390911690636c037f8a906024015b600060405180830381865afa158015610944573d6000803e3d6000fd5b505050506040513d6000823e601f3d908101601f1916820160405261096c91908101906130da565b9392505050565b6000610980848484611294565b949350505050565b600854604051631375d84360e01b8152600481018390526060916001600160a01b031690631375d843906024015b600060405180830381865afa1580156109d3573d6000803e3d6000fd5b505050506040513d6000823e601f3d908101601f191682016040526106c091908101906130da565b6108898383836112f6565b6000610a118261110a565b600082815260066020526040902054600580549091908110610a3557610a35613042565b9060005260206000209060060201600101549050919050565b6000610a5983610d35565b8210610ab25760405162461bcd60e51b815260206004820152602260248201527f455243333532353a206f776e657220696e646578206f7574206f6620626f756e604482015261647360f01b60648201526084016107e8565b6001600160a01b0383166000908152600760205260409020805483908110610adc57610adc613042565b9060005260206000200154905092915050565b610889838383611301565b600b610b068282613197565b506008546040516355f804b360e01b81526001600160a01b03909116906355f804b390610b37908490600401612c2f565b600060405180830381600087803b158015610b5157600080fd5b505af1158015610b65573d6000803e3d6000fd5b5050505050565b61088983838360405180602001604052806000815250610ea6565b600c546040516394bf804d60e01b8152600481018690523060248201526000916001600160a01b0316906394bf804d90604401600060405180830381600087803b158015610bd457600080fd5b505af1158015610be8573d6000803e3d6000fd5b505050506000610bfc888888888888611352565b98975050505050505050565b6000610c1360055490565b8210610c6d5760405162461bcd60e51b815260206004820152602360248201527f455243333532353a20676c6f62616c20696e646578206f7574206f6620626f756044820152626e647360e81b60648201526084016107e8565b60058281548110610c8057610c80613042565b9060005260206000209060060201600001549050919050565b6000610ca48261110a565b600082815260066020526040902054600580549091908110610cc857610cc8613042565b60009182526020909120600360069092020101546001600160a01b0316905080610d305760405162461bcd60e51b8152602060048201526019602482015278115490cccd4c8d4e881a5b9d985b1a59081d1bdad95b881251603a1b60448201526064016107e8565b919050565b60006001600160a01b038216610da15760405162461bcd60e51b815260206004820152602b60248201527f455243333532353a2062616c616e636520717565727920666f7220746865207a60448201526a65726f206164647265737360a81b60648201526084016107e8565b506001600160a01b031660009081526007602052604090205490565b610dc56114ed565b610dcf6000611547565b565b6008546040516338f8221760e11b8152600481018390526060916001600160a01b0316906371f0442e906024016109b6565b610889838383611599565b6060600180546106d590613008565b6000610e288261110a565b600082815260066020526040902054600580549091908110610e4c57610e4c613042565b9060005260206000209060060201600201549050919050565b610e70338383611652565b5050565b600854604051631662a98160e31b8152600481018390526060916001600160a01b03169063b3154c08906024016109b6565b610eb03383611725565b610ecc5760405162461bcd60e51b81526004016107e890613257565b610ed8848484846117a7565b50505050565b6060610ee98261110a565b6000610ef36111f2565b6008549091506001600160a01b0316610f3f576000815111610f24576040518060200160405280600081525061096c565b80610f2e84611201565b6040516020016108e69291906132a9565b6008546040516344a5a61760e11b8152600481018590526001600160a01b039091169063894b4c2e90602401610927565b6000610f7b8361110a565b5060009182526004602090815260408084206001600160a01b0393909316845291905290205490565b60606000610fb06111f2565b6008549091506001600160a01b0316611010576000815111610fe1576040518060200160405280600081525061108b565b80610feb3061181a565b604051602001610ffc9291906132d8565b60405160208183030381529060405261108b565b600860009054906101000a90046001600160a01b03166001600160a01b031663725fa09c6040518163ffffffff1660e01b8152600401600060405180830381865afa158015611063573d6000803e3d6000fd5b505050506040513d6000823e601f3d908101601f1916820160405261108b91908101906130da565b91505090565b6110996114ed565b6001600160a01b0381166110fe5760405162461bcd60e51b815260206004820152602660248201527f4f776e61626c653a206e6577206f776e657220697320746865207a65726f206160448201526564647265737360d01b60648201526084016107e8565b61110781611547565b50565b61111381611830565b6111075760405162461bcd60e51b8152602060048201526019602482015278115490cccd4c8d4e881a5b9d985b1a59081d1bdad95b881251603a1b60448201526064016107e8565b60008181526006602052604090205460058054849290811061117f5761117f613042565b6000918252602090912060069091020160040180546001600160a01b0319166001600160a01b03928316179055819083166111b982610c99565b6001600160a01b03167f8c5be1e5ebec7d5bd14f71427d1e84f3dd0314c0f7b2291e5b200ac8c7c3b92560405160405180910390a45050565b6060600b80546106d590613008565b6060600061120e8361187c565b600101905060008167ffffffffffffffff81111561122e5761122e612d29565b6040519080825280601f01601f191660200182016040528015611258576020820181803683370190505b5090508181016020015b600019016f181899199a1a9b1b9c1cb0b131b232b360811b600a86061a8153600a850494508461126257509392505050565b6000806112a2858585611954565b90507f6d811e6a20ae5461a4ef22a6998c1d958defe727f1cc522b6eb792bc8e6f7266816112cf87610a06565b604080519283526020830191909152810185905260600160405180910390a1949350505050565b61088983838361198c565b61130c8383836119bd565b60408051848152602081018490529081018290527fdf7a601a0a201ccd4b4bfcfd610913188d931867997223d226f85f2f2673988a9060600160405180910390a1505050565b600061135c6114ed565b60006113666119d3565b9050611374888289896119ea565b600854604051632108947560e21b81526001600160a01b039091169063842251d4906113a6908490899060040161331c565b600060405180830381600087803b1580156113c057600080fd5b505af11580156113d4573d6000803e3d6000fd5b505060085460405163246a908b60e01b81526001600160a01b03909116925063246a908b915061140a908490889060040161331c565b600060405180830381600087803b15801561142457600080fd5b505af1158015611438573d6000803e3d6000fd5b5050600854604051630190503b60e61b81526001600160a01b0390911692506364140ec0915061146e908490879060040161331c565b600060405180830381600087803b15801561148857600080fd5b505af115801561149c573d6000803e3d6000fd5b505060408051848152602081018b90529081018990527f84eeb48eca46cea54afc9753345f6038981672ea565f32885420829dfd88aea69250606001905060405180910390a1979650505050505050565b6009546001600160a01b03163314610dcf5760405162461bcd60e51b815260206004820181905260248201527f4f776e61626c653a2063616c6c6572206973206e6f7420746865206f776e657260448201526064016107e8565b600980546001600160a01b038381166001600160a01b0319831681179093556040519116919082907f8be0079c531659141344cd1fd0a4f28419497f9722a3daafe3b4186f6b6457e090600090a35050565b60006115a484610c99565b9050806001600160a01b0316836001600160a01b0316036115d75760405162461bcd60e51b81526004016107e890613058565b6115e13385611725565b6116475760405162461bcd60e51b815260206004820152603160248201527f455243333532353a20617070726f76652063616c6c6572206973206e6f74206f6044820152701ddb995c881b9bdc88185c1c1c9bdd9959607a1b60648201526084016107e8565b610ed8848484611b14565b816001600160a01b0316836001600160a01b0316036116b35760405162461bcd60e51b815260206004820152601a60248201527f455243333532353a20617070726f766520746f2063616c6c657200000000000060448201526064016107e8565b6001600160a01b0383811660008181526007602090815260408083209487168084526002909501825291829020805460ff191686151590811790915591519182527f17307eab39ab6107e8899845ad3d59bd9653f200f220920489ca2b5937696c3191015b60405180910390a3505050565b60008061173183610c99565b9050806001600160a01b0316846001600160a01b0316148061177c57506001600160a01b038082166000908152600760209081526040808320938816835260029093019052205460ff165b806109805750836001600160a01b031661179584610758565b6001600160a01b031614949350505050565b6117b2848484611c43565b6117be84848484611da4565b610ed85760405162461bcd60e51b815260206004820152602760248201527f455243333532353a207472616e7366657220746f206e6f6e204552433732315260448201526632b1b2b4bb32b960c91b60648201526084016107e8565b60606106c06001600160a01b0383166014611ef0565b600554600090158015906106c0575060008281526006602052604090205460058054849290811061186357611863613042565b9060005260206000209060060201600001541492915050565b60008072184f03e93ff9f4daa797ed6e38ed64bf6a1f0160401b83106118bb5772184f03e93ff9f4daa797ed6e38ed64bf6a1f0160401b830492506040015b6d04ee2d6d415b85acef810000000083106118e7576d04ee2d6d415b85acef8100000000830492506020015b662386f26fc10000831061190557662386f26fc10000830492506010015b6305f5e100831061191d576305f5e100830492506008015b612710831061193157612710830492506004015b60648310611943576064830492506002015b600a83106106c05760010192915050565b600061196133858461208c565b61196a8461211c565b9050611981838261197a87610a06565b60006119ea565b61096c848284612126565b6119963382611725565b6119b25760405162461bcd60e51b81526004016107e890613257565b610889838383611c43565b6119c833848361208c565b610889838383612126565b60006119e3600380546001019055565b5060035490565b6001600160a01b038416611a4a5760405162461bcd60e51b815260206004820152602160248201527f455243333532353a206d696e7420746f20746865207a65726f206164647265736044820152607360f81b60648201526084016107e8565b82600003611aa45760405162461bcd60e51b815260206004820152602160248201527f455243333532353a2063616e6e6f74206d696e74207a65726f20746f6b656e496044820152601960fa1b60648201526084016107e8565b611aad83611830565b15611afa5760405162461bcd60e51b815260206004820152601d60248201527f455243333532353a20746f6b656e20616c7265616479206d696e74656400000060448201526064016107e8565b611b0584848461241f565b611b0f83826124e5565b610ed8565b6001600160a01b038216611b7d5760405162461bcd60e51b815260206004820152602a60248201527f455243333532353a20617070726f76652076616c756520746f20746865207a65604482015269726f206164647265737360b01b60648201526084016107e8565b611b87828461256a565b611bed57600083815260066020526040902054600580549091908110611baf57611baf613042565b60009182526020808320600692909202909101600501805460018101825590835291200180546001600160a01b0319166001600160a01b0384161790555b60008381526004602090815260408083206001600160a01b038616808552908352928190208490555183815285917f621b050de0ad08b51d19b48b3e6df75348c4de6bdd93e81b252ca62e28265b1b9101611718565b826001600160a01b0316611c5682610c99565b6001600160a01b031614611cb85760405162461bcd60e51b8152602060048201526024808201527f455243333532353a207472616e736665722066726f6d20696e76616c6964206f6044820152633bb732b960e11b60648201526084016107e8565b6001600160a01b038216611d1c5760405162461bcd60e51b815260206004820152602560248201527f455243333532353a207472616e7366657220746f20746865207a65726f206164604482015264647265737360d81b60648201526084016107e8565b6000611d2782610a06565b90506000611d3483610e1d565b9050611d4160008461115b565b611d4a8361263d565b611d5485846126e8565b611d5e8484612809565b82846001600160a01b0316866001600160a01b03167fddf252ad1be2c89b69c2b068fc378daa952ba7f163c4a11628f55a4df523b3ef60405160405180910390a4610b65565b60006001600160a01b0384163b15611ee557604051630a85bd0160e11b81526001600160a01b0385169063150b7a0290611de8903390899088908890600401613335565b6020604051808303816000875af1925050508015611e23575060408051601f3d908101601f19168201909252611e2091810190613372565b60015b611ecb573d808015611e51576040519150601f19603f3d011682016040523d82523d6000602084013e611e56565b606091505b508051600003611ec35760405162461bcd60e51b815260206004820152603260248201527f4552433732313a207472616e7366657220746f206e6f6e20455243373231526560448201527131b2b4bb32b91034b6b83632b6b2b73a32b960711b60648201526084016107e8565b805181602001fd5b6001600160e01b031916630a85bd0160e11b149050610980565b506001949350505050565b60606000611eff8360026133a5565b611f0a9060026133bc565b67ffffffffffffffff811115611f2257611f22612d29565b6040519080825280601f01601f191660200182016040528015611f4c576020820181803683370190505b509050600360fc1b81600081518110611f6757611f67613042565b60200101906001600160f81b031916908160001a905350600f60fb1b81600181518110611f9657611f96613042565b60200101906001600160f81b031916908160001a9053506000611fba8460026133a5565b611fc59060016133bc565b90505b600181111561203d576f181899199a1a9b1b9c1cb0b131b232b360811b85600f1660108110611ff957611ff9613042565b1a60f81b82828151811061200f5761200f613042565b60200101906001600160f81b031916908160001a90535060049490941c93612036816133cf565b9050611fc8565b50831561096c5760405162461bcd60e51b815260206004820181905260248201527f537472696e67733a20686578206c656e67746820696e73756666696369656e7460448201526064016107e8565b60006120988385610f70565b90506120a48484611725565b1580156120b357506000198114155b15610ed857818110156121085760405162461bcd60e51b815260206004820152601f60248201527f455243333532353a20696e73756666696369656e7420616c6c6f77616e63650060448201526064016107e8565b610ed8838561211785856133e6565b611b14565b60006106c06119d3565b61212f83611830565b61218b5760405162461bcd60e51b815260206004820152602760248201527f455243333532353a207472616e736665722066726f6d20696e76616c696420746044820152661bdad95b88125160ca1b60648201526084016107e8565b61219482611830565b6121ee5760405162461bcd60e51b815260206004820152602560248201527f455243333532353a207472616e7366657220746f20696e76616c696420746f6b604482015264195b88125160da1b60648201526084016107e8565b60008381526006602052604081205460058054909190811061221257612212613042565b906000526020600020906006020190506000600560066000868152602001908152602001600020548154811061224a5761224a613042565b9060005260206000209060060201905082826002015410156122c15760405162461bcd60e51b815260206004820152602a60248201527f455243333532353a20696e73756666696369656e742062616c616e636520666f60448201526939103a3930b739b332b960b11b60648201526084016107e8565b806001015482600101541461232f5760405162461bcd60e51b815260206004820152602e60248201527f455243333532353a207472616e7366657220746f20746f6b656e20776974682060448201526d191a5999995c995b9d081cdb1bdd60921b60648201526084016107e8565b8282600201600082825461234391906133e6565b925050819055508281600201600082825461235e91906133bc565b9091555050604051838152849086907f0b2aac84f3ec956911fd78eae5311062972ff949f38412e8da39069d9f068cc69060200160405180910390a36123b585858560405180602001604052806000815250612892565b610b655760405162461bcd60e51b815260206004820152602d60248201527f455243333532353a207472616e736665722072656a656374656420627920455260448201526c21999a991aa932b1b2b4bb32b960991b60648201526084016107e8565b505050505050565b6040805160c081018252838152602080820184905260008284018190526001600160a01b038716606084015260808301819052835181815291820190935260a0820152905061246d816129c5565b6124778484612809565b60405183906001600160a01b038616906000907fddf252ad1be2c89b69c2b068fc378daa952ba7f163c4a11628f55a4df523b3ef908290a4816000847fe4f48c240d3b994948aa54f3e2f5fca59263dfe1d52b6e4cf39a5d249b5ccb6560405160405180910390a450505050565b60008281526006602052604090205460058054839290811061250957612509613042565b9060005260206000209060060201600201600082825461252991906133bc565b909155505060405181815282906000907f0b2aac84f3ec956911fd78eae5311062972ff949f38412e8da39069d9f068cc69060200160405180910390a35050565b60008181526006602052604081205460058054839290811061258e5761258e613042565b6000918252602082206005600690920201015491505b8181101561263257600084815260066020526040902054600580546001600160a01b038816929081106125d9576125d9613042565b906000526020600020906006020160050182815481106125fb576125fb613042565b6000918252602090912001546001600160a01b031603612620576001925050506106c0565b8061262a816133f9565b9150506125a4565b506000949350505050565b60008181526006602052604081205460058054909190811061266157612661613042565b600091825260208220600560069092020190810154909250905b818110156126d957600083600501828154811061269a5761269a613042565b60009182526020808320909101548783526004825260408084206001600160a01b039092168452915281205550806126d1816133f9565b91505061267b565b50610889600583016000612b14565b60008181526006602052604081205460058054909190811061270c5761270c613042565b6000918252602080832060069290920290910160030180546001600160a01b0319166001600160a01b039485161790559184168152600790915260408120805490919061275b906001906133e6565b9050600082600001828154811061277457612774613042565b906000526020600020015490506000836001016000868152602001908152602001600020549050818460000182815481106127b1576127b1613042565b600091825260208083209091019290925583815260018601909152604080822083905586825281205583548490806127eb576127eb613412565b60019003818190600052602060002001600090559055505050505050565b60008181526006602052604090205460058054849290811061282d5761282d613042565b6000918252602080832060069290920290910160030180546001600160a01b0319166001600160a01b03948516179055939091168152600780845260408083208054858552600182810188529285208190559286529082018155825292902090910155565b60008061289e85610c99565b90506001600160a01b0381163b1515801561292257506040516301ffc9a760e01b8152629ce20b60e01b60048201526001600160a01b038216906301ffc9a790602401602060405180830381865afa1580156128fe573d6000803e3d6000fd5b505050506040513d601f19601f820116820180604052508101906129229190613428565b156129bb57604051629ce20b60e01b81526000906001600160a01b03831690629ce20b9061295c9033908b908b908b908b90600401613445565b6020604051808303816000875af115801561297b573d6000803e3d6000fd5b505050506040513d601f19601f8201168201806040525081019061299f9190613372565b6001600160e01b031916629ce20b60e01b149250610980915050565b6001915050610980565b600580548251600090815260066020818152604080842085905560018501865594909252845192027f036b6384b5eca791c62761152d0c79bb0604c104a5fb6f4eb0703f3154bb3db08101928355818501517f036b6384b5eca791c62761152d0c79bb0604c104a5fb6f4eb0703f3154bb3db1820155928401517f036b6384b5eca791c62761152d0c79bb0604c104a5fb6f4eb0703f3154bb3db284015560608401517f036b6384b5eca791c62761152d0c79bb0604c104a5fb6f4eb0703f3154bb3db3840180546001600160a01b039283166001600160a01b03199182161790915560808601517f036b6384b5eca791c62761152d0c79bb0604c104a5fb6f4eb0703f3154bb3db48601805491909316911617905560a084015180518594610ed8937f036b6384b5eca791c62761152d0c79bb0604c104a5fb6f4eb0703f3154bb3db5909101920190612b32565b50805460008255906000526020600020908101906111079190612b97565b828054828255906000526020600020908101928215612b87579160200282015b82811115612b8757825182546001600160a01b0319166001600160a01b03909116178255602090920191600190910190612b52565b50612b93929150612b97565b5090565b5b80821115612b935760008155600101612b98565b6001600160e01b03198116811461110757600080fd5b600060208284031215612bd457600080fd5b813561096c81612bac565b60005b83811015612bfa578181015183820152602001612be2565b50506000910152565b60008151808452612c1b816020860160208601612bdf565b601f01601f19169290920160200192915050565b60208152600061096c6020830184612c03565b600060208284031215612c5457600080fd5b5035919050565b80356001600160a01b0381168114610d3057600080fd5b60008060408385031215612c8557600080fd5b612c8e83612c5b565b946020939093013593505050565b600080600060608486031215612cb157600080fd5b83359250612cc160208501612c5b565b9150604084013590509250925092565b600080600060608486031215612ce657600080fd5b612cef84612c5b565b9250612cc160208501612c5b565b600080600060608486031215612d1257600080fd5b505081359360208301359350604090920135919050565b634e487b7160e01b600052604160045260246000fd5b604051601f8201601f1916810167ffffffffffffffff81118282101715612d6857612d68612d29565b604052919050565b600067ffffffffffffffff821115612d8a57612d8a612d29565b50601f01601f191660200190565b6000612dab612da684612d70565b612d3f565b9050828152838383011115612dbf57600080fd5b828260208301376000602084830101529392505050565b600082601f830112612de757600080fd5b61096c83833560208501612d98565b600060208284031215612e0857600080fd5b813567ffffffffffffffff811115612e1f57600080fd5b61098084828501612dd6565b60008060008060008060c08789031215612e4457600080fd5b612e4d87612c5b565b95506020870135945060408701359350606087013567ffffffffffffffff80821115612e7857600080fd5b612e848a838b01612dd6565b94506080890135915080821115612e9a57600080fd5b612ea68a838b01612dd6565b935060a0890135915080821115612ebc57600080fd5b50612ec989828a01612dd6565b9150509295509295509295565b600060208284031215612ee857600080fd5b61096c82612c5b565b801515811461110757600080fd5b60008060408385031215612f1257600080fd5b612f1b83612c5b565b91506020830135612f2b81612ef1565b809150509250929050565b60008060008060808587031215612f4c57600080fd5b612f5585612c5b565b9350612f6360208601612c5b565b925060408501359150606085013567ffffffffffffffff811115612f8657600080fd5b8501601f81018713612f9757600080fd5b612fa687823560208401612d98565b91505092959194509250565b60008060408385031215612fc557600080fd5b82359150612fd560208401612c5b565b90509250929050565b60008060408385031215612ff157600080fd5b612ffa83612c5b565b9150612fd560208401612c5b565b600181811c9082168061301c57607f821691505b60208210810361303c57634e487b7160e01b600052602260045260246000fd5b50919050565b634e487b7160e01b600052603260045260246000fd5b60208082526022908201527f455243333532353a20617070726f76616c20746f2063757272656e74206f776e60408201526132b960f11b606082015260800190565b600083516130ac818460208801612bdf565b64736c6f742f60d81b90830190815283516130ce816005840160208801612bdf565b01600501949350505050565b6000602082840312156130ec57600080fd5b815167ffffffffffffffff81111561310357600080fd5b8201601f8101841361311457600080fd5b8051613122612da682612d70565b81815285602083850101111561313757600080fd5b613148826020830160208601612bdf565b95945050505050565b601f82111561088957600081815260208120601f850160051c810160208610156131785750805b601f850160051c820191505b8181101561241757828155600101613184565b815167ffffffffffffffff8111156131b1576131b1612d29565b6131c5816131bf8454613008565b84613151565b602080601f8311600181146131fa57600084156131e25750858301515b600019600386901b1c1916600185901b178555612417565b600085815260208120601f198616915b828110156132295788860151825594840194600190910190840161320a565b50858210156132475787850151600019600388901b60f8161c191681555b5050505050600190811b01905550565b60208082526032908201527f455243333532353a207472616e736665722063616c6c6572206973206e6f74206040820152711bdddb995c881b9bdc88185c1c1c9bdd995960721b606082015260800190565b600083516132bb818460208801612bdf565b8351908301906132cf818360208801612bdf565b01949350505050565b600083516132ea818460208801612bdf565b68636f6e74726163742f60b81b9083019081528351613310816009840160208801612bdf565b01600901949350505050565b8281526040602082015260006109806040830184612c03565b6001600160a01b038581168252841660208201526040810183905260806060820181905260009061336890830184612c03565b9695505050505050565b60006020828403121561338457600080fd5b815161096c81612bac565b634e487b7160e01b600052601160045260246000fd5b80820281158282048414176106c0576106c061338f565b808201808211156106c0576106c061338f565b6000816133de576133de61338f565b506000190190565b818103818111156106c0576106c061338f565b60006001820161340b5761340b61338f565b5060010190565b634e487b7160e01b600052603160045260246000fd5b60006020828403121561343a57600080fd5b815161096c81612ef1565b60018060a01b038616815284602082015283604082015282606082015260a06080820152600061347860a0830184612c03565b97965050505050505056fea2646970667358221220ad69878ca2739beb30743795020e64769f5997312fef33866ff810289168c0c464736f6c6343000811003360806040523480156200001157600080fd5b5060405162001ada38038062001ada833981016040819052620000349162000150565b600162000042858262000292565b50600262000051848262000292565b50600362000060838262000292565b50600080546001600160a01b0319166001600160a01b0392909216919091179055506200035e915050565b634e487b7160e01b600052604160045260246000fd5b600082601f830112620000b357600080fd5b81516001600160401b0380821115620000d057620000d06200008b565b604051601f8301601f19908116603f01168101908282118183101715620000fb57620000fb6200008b565b816040528381526020925086838588010111156200011857600080fd5b600091505b838210156200013c57858201830151818301840152908201906200011d565b600093810190920192909252949350505050565b600080600080608085870312156200016757600080fd5b84516001600160401b03808211156200017f57600080fd5b6200018d88838901620000a1565b95506020870151915080821115620001a457600080fd5b620001b288838901620000a1565b94506040870151915080821115620001c957600080fd5b50620001d887828801620000a1565b606087015190935090506001600160a01b0381168114620001f857600080fd5b939692955090935050565b600181811c908216806200021857607f821691505b6020821081036200023957634e487b7160e01b600052602260045260246000fd5b50919050565b601f8211156200028d57600081815260208120601f850160051c81016020861015620002685750805b601f850160051c820191505b81811015620002895782815560010162000274565b5050505b505050565b81516001600160401b03811115620002ae57620002ae6200008b565b620002c681620002bf845462000203565b846200023f565b602080601f831160018114620002fe5760008415620002e55750858301515b600019600386901b1c1916600185901b17855562000289565b600085815260208120601f198616915b828110156200032f578886015182559484019460019091019084016200030e565b50858210156200034e5787850151600019600388901b60f8161c191681555b5050505050600190811b01905550565b61176c806200036e6000396000f3fe608060405234801561001057600080fd5b506004361061009e5760003560e01c806371f0442e1161006657806371f0442e1461011a578063725fa09c1461012d578063842251d414610135578063894b4c2e14610148578063b3154c081461015b57600080fd5b80631375d843146100a3578063246a908b146100cc57806355f804b3146100e157806364140ec0146100f45780636c037f8a14610107575b600080fd5b6100b66100b1366004610d22565b61016e565b6040516100c39190610d5f565b60405180910390f35b6100df6100da366004610e57565b610210565b005b6100df6100ef366004610e9e565b61022d565b6100df610102366004610e57565b61023d565b6100b6610115366004610d22565b610255565b6100b6610128366004610d22565b6102cb565b6100b66102e8565b6100df610143366004610e57565b61040d565b6100b6610156366004610d22565b610425565b6100b6610169366004610d22565b61052f565b600081815260066020526040902080546060919061018b90610edb565b80601f01602080910402602001604051908101604052809291908181526020018280546101b790610edb565b80156102045780601f106101d957610100808354040283529160200191610204565b820191906000526020600020905b8154815290600101906020018083116101e757829003601f168201915b50505050509050919050565b60008281526004602052604090206102288282610f63565b505050565b60016102398282610f63565b5050565b60008281526005602052604090206102288282610f63565b60606102a56102638361054c565b61026c846105c5565b610275856105f7565b61027e86610679565b604051602001610291949392919061103f565b6040516020818303038152906040526106fb565b6040516020016102b5919061110d565b6040516020818303038152906040529050919050565b600081815260056020526040902080546060919061018b90610edb565b606060003390506103e8816001600160a01b03166306fdde036040518163ffffffff1660e01b8152600401600060405180830381865afa158015610330573d6000803e3d6000fd5b505050506040513d6000823e601f3d908101601f191682016040526103589190810190611152565b61036061084e565b6103686108e0565b6103d5856001600160a01b0316633e7e86696040518163ffffffff1660e01b8152600401602060405180830381865afa1580156103a9573d6000803e3d6000fd5b505050506040513d601f19601f820116820180604052508101906103cd91906111c9565b60ff16610915565b60405160200161029194939291906111ec565b6040516020016103f8919061110d565b60405160208183030381529060405291505090565b60008281526006602052604090206102288282610f63565b606033610508610434846109a8565b61043d8561052f565b61044686610a2a565b604051631398fee160e31b8152600481018890526104b9906001600160a01b03871690639cc7f708906024015b602060405180830381865afa158015610490573d6000803e3d6000fd5b505050506040513d601f19601f820116820180604052508101906104b491906112bf565b610915565b60405163131f9f3f60e11b8152600481018990526104ea906001600160a01b0388169063263f3e7e90602401610473565b6104f389610a5f565b604051602001610291969594939291906112d8565b604051602001610518919061110d565b604051602081830303815290604052915050919050565b600081815260046020526040902080546060919061018b90610edb565b60005460405163ec327a2160e01b8152600481018390526060916001600160a01b03169063ec327a21906024015b600060405180830381865afa158015610597573d6000803e3d6000fd5b505050506040513d6000823e601f3d908101601f191682016040526105bf9190810190611152565b92915050565b60005460405163bc74ebb960e01b8152600481018390526060916001600160a01b03169063bc74ebb99060240161057a565b6000546040516309c3dd8760e01b8152600481018390526060916001600160a01b0316906309c3dd8790602401600060405180830381865afa158015610641573d6000803e3d6000fd5b505050506040513d6000823e601f3d908101601f191682016040526106699190810190611152565b6040516020016102b591906113fe565b6000546040516309c3dd8760e01b8152600481018390526060916001600160a01b0316906309c3dd8790602401600060405180830381865afa1580156106c3573d6000803e3d6000fd5b505050506040513d6000823e601f3d908101601f191682016040526106eb9190810190611152565b6040516020016102b59190611428565b6060815160000361071a57505060408051602081019091526000815290565b60006040518060600160405280604081526020016116f760409139905060006003845160026107499190611472565b6107539190611485565b61075e9060046114a7565b67ffffffffffffffff81111561077657610776610d92565b6040519080825280601f01601f1916602001820160405280156107a0576020820181803683370190505b509050600182016020820185865187015b8082101561080c576003820191508151603f8160121c168501518453600184019350603f81600c1c168501518453600184019350603f8160061c168501518453600184019350603f81168501518453506001830192506107b1565b5050600386510660018114610828576002811461083b57610843565b603d6001830353603d6002830353610843565b603d60018303535b509195945050505050565b60606002805461085d90610edb565b80601f016020809104026020016040519081016040528092919081815260200182805461088990610edb565b80156108d65780601f106108ab576101008083540402835291602001916108d6565b820191906000526020600020905b8154815290600101906020018083116108b957829003601f168201915b5050505050905090565b606060016108ed33610a8d565b600360405160200161090193929190611531565b604051602081830303815290604052905090565b6060600061092283610aa3565b600101905060008167ffffffffffffffff81111561094257610942610d92565b6040519080825280601f01601f19166020018201604052801561096c576020820181803683370190505b5090508181016020015b600019016f181899199a1a9b1b9c1cb0b131b232b360811b600a86061a8153600a850494508461097657509392505050565b6060336001600160a01b03166306fdde036040518163ffffffff1660e01b8152600401600060405180830381865afa1580156109e8573d6000803e3d6000fd5b505050506040513d6000823e601f3d908101601f19168201604052610a109190810190611152565b610a1983610915565b6040516020016102b5929190611585565b60606001610a3730610a8d565b6000848152600660209081526040808320600583529281902090516102b595949392016115c2565b60606001610a6c33610a8d565b60008481526006602090815260409182902091516102b59493929101611634565b60606105bf6001600160a01b0383166014610b7b565b60008072184f03e93ff9f4daa797ed6e38ed64bf6a1f0160401b8310610ae25772184f03e93ff9f4daa797ed6e38ed64bf6a1f0160401b830492506040015b6d04ee2d6d415b85acef81000000008310610b0e576d04ee2d6d415b85acef8100000000830492506020015b662386f26fc100008310610b2c57662386f26fc10000830492506010015b6305f5e1008310610b44576305f5e100830492506008015b6127108310610b5857612710830492506004015b60648310610b6a576064830492506002015b600a83106105bf5760010192915050565b60606000610b8a8360026114a7565b610b95906002611472565b67ffffffffffffffff811115610bad57610bad610d92565b6040519080825280601f01601f191660200182016040528015610bd7576020820181803683370190505b509050600360fc1b81600081518110610bf257610bf26116c9565b60200101906001600160f81b031916908160001a905350600f60fb1b81600181518110610c2157610c216116c9565b60200101906001600160f81b031916908160001a9053506000610c458460026114a7565b610c50906001611472565b90505b6001811115610cc8576f181899199a1a9b1b9c1cb0b131b232b360811b85600f1660108110610c8457610c846116c9565b1a60f81b828281518110610c9a57610c9a6116c9565b60200101906001600160f81b031916908160001a90535060049490941c93610cc1816116df565b9050610c53565b508315610d1b5760405162461bcd60e51b815260206004820181905260248201527f537472696e67733a20686578206c656e67746820696e73756666696369656e74604482015260640160405180910390fd5b9392505050565b600060208284031215610d3457600080fd5b5035919050565b60005b83811015610d56578181015183820152602001610d3e565b50506000910152565b6020815260008251806020840152610d7e816040850160208701610d3b565b601f01601f19169190910160400192915050565b634e487b7160e01b600052604160045260246000fd5b604051601f8201601f1916810167ffffffffffffffff81118282101715610dd157610dd1610d92565b604052919050565b600067ffffffffffffffff821115610df357610df3610d92565b50601f01601f191660200190565b600082601f830112610e1257600080fd5b8135610e25610e2082610dd9565b610da8565b818152846020838601011115610e3a57600080fd5b816020850160208301376000918101602001919091529392505050565b60008060408385031215610e6a57600080fd5b82359150602083013567ffffffffffffffff811115610e8857600080fd5b610e9485828601610e01565b9150509250929050565b600060208284031215610eb057600080fd5b813567ffffffffffffffff811115610ec757600080fd5b610ed384828501610e01565b949350505050565b600181811c90821680610eef57607f821691505b602082108103610f0f57634e487b7160e01b600052602260045260246000fd5b50919050565b601f82111561022857600081815260208120601f850160051c81016020861015610f3c5750805b601f850160051c820191505b81811015610f5b57828155600101610f48565b505050505050565b815167ffffffffffffffff811115610f7d57610f7d610d92565b610f9181610f8b8454610edb565b84610f15565b602080601f831160018114610fc65760008415610fae5750858301515b600019600386901b1c1916600185901b178555610f5b565b600085815260208120601f198616915b82811015610ff557888601518255948401946001909101908401610fd6565b50858210156110135787850151600019600388901b60f8161c191681555b5050505050600190811b01905550565b60008151611035818560208601610d3b565b9290920192915050565b683d913730b6b2911d1160b91b81528451600090611064816009850160208a01610d3b565b701116113232b9b1b934b83a34b7b7111d1160791b600991840191820152855161109581601a840160208a01610d3b565b6a11161134b6b0b3b2911d1160a91b601a929091019182015284516110c1816025840160208901610d3b565b6e111611383937b832b93a34b2b9911d60891b6025929091019182015283516110f1816034840160208801610d3b565b607d60f81b603492909101918201526035019695505050505050565b7f646174613a6170706c69636174696f6e2f6a736f6e3b6261736536342c00000081526000825161114581601d850160208701610d3b565b91909101601d0192915050565b60006020828403121561116457600080fd5b815167ffffffffffffffff81111561117b57600080fd5b8201601f8101841361118c57600080fd5b805161119a610e2082610dd9565b8181528560208385010111156111af57600080fd5b6111c0826020830160208601610d3b565b95945050505050565b6000602082840312156111db57600080fd5b815160ff81168114610d1b57600080fd5b683d913730b6b2911d1160b91b81528451600090611211816009850160208a01610d3b565b701116113232b9b1b934b83a34b7b7111d1160791b600991840191820152855161124281601a840160208a01610d3b565b6a11161134b6b0b3b2911d1160a91b601a9290910191820152845161126e816025840160208901610d3b565b721116113b30b63ab2a232b1b4b6b0b639911d1160691b6025929091019182015283516112a2816038840160208801610d3b565b61227d60f01b60389290910191820152603a019695505050505050565b6000602082840312156112d157600080fd5b5051919050565b683d913730b6b2911d1160b91b815286516000906112fd816009850160208c01610d3b565b701116113232b9b1b934b83a34b7b7111d1160791b600991840191820152875161132e81601a840160208c01610d3b565b6a11161134b6b0b3b2911d1160a91b601a9290910191820152865161135a816025840160208b01610d3b565b6c1116113130b630b731b2911d1160991b602592909101918201528551611388816032840160208a01610d3b565b6911161139b637ba111d1160b11b6032929091019182015284516113b381603c840160208901610d3b565b6113f06113e36113dd603c848601016e111611383937b832b93a34b2b9911d60891b8152600f0190565b87611023565b607d60f81b815260010190565b9a9950505050505050505050565b60008251611410818460208701610d3b565b652f696d61676560d01b920191825250600601919050565b6000825161143a818460208701610d3b565b6f17b83937b832b93a34b2b9973539b7b760811b920191825250601001919050565b634e487b7160e01b600052601160045260246000fd5b808201808211156105bf576105bf61145c565b6000826114a257634e487b7160e01b600052601260045260246000fd5b500490565b80820281158282048414176105bf576105bf61145c565b600081546114cb81610edb565b600182811680156114e357600181146114f857611527565b60ff1984168752821515830287019450611527565b8560005260208060002060005b8581101561151e5781548a820152908401908201611505565b50505082870194505b5050505092915050565b600061153d82866114be565b68636f6e74726163742f60b81b8152845161155f816009840160208901610d3b565b602f60f81b6009929091019182015261157b600a8201856114be565b9695505050505050565b60008351611597818460208801610d3b565b61202360f01b90830190815283516115b6816002840160208801610d3b565b01600201949350505050565b60006115ce82876114be565b692f636f6e74726163742f60b01b815285516115f181600a840160208a01610d3b565b662f746f6b656e2f60c81b600a929091019182015261161360118201866114be565b9050602f60f81b815261162960018201856114be565b979650505050505050565b6e7b70726f706572746965735f75726960881b81526000611658600f8301866114be565b68636f6e74726163742f60b81b8152845161167a816009840160208901610d3b565b662f746f6b656e2f60c81b6009929091019182015261169c60108201856114be565b6f17b83937b832b93a34b2b9973539b7b760811b8152607d60f81b60108201526011019695505050505050565b634e487b7160e01b600052603260045260246000fd5b6000816116ee576116ee61145c565b50600019019056fe4142434445464748494a4b4c4d4e4f505152535455565758595a6162636465666768696a6b6c6d6e6f707172737475767778797a303132333435363738392b2fa2646970667358221220ff9209fa763cebe143e190fa2f1ad1e413f9b97c45e4f09a1f7a97ba3d94292564736f6c63430008110033",
  "linkReferences": {},
  "deployedLinkReferences": {}
}