{
  "_format": "hh-sol-artifact-1",
  "contractName": "Registry",
  "sourceName": "contracts/Registry.sol",
  "abi": [
    {
      "inputs": [
        {
          "internalType": "address",
          "name": "utilContract_",
          "type": "address"
        }
      ],
      "stateMutability": "nonpayable",
      "type": "constructor"
    },
    {
      "anonymous": false,
      "inputs": [
        {
          "indexed": false,
          "internalType": "uint256",
          "name": "slotId",
          "type": "uint256"
        },
        {
          "indexed": false,
          "internalType": "string",
          "name": "slotName",
          "type": "string"
        }
      ],
      "name": "NewSlot",
      "type": "event"
    },
    {
      "anonymous": false,
      "inputs": [
        {
          "indexed": true,
          "internalType": "bytes32",
          "name": "role",
          "type": "bytes32"
        },
        {
          "indexed": true,
          "internalType": "bytes32",
          "name": "previousAdminRole",
          "type": "bytes32"
        },
        {
          "indexed": true,
          "internalType": "bytes32",
          "name": "newAdminRole",
          "type": "bytes32"
        }
      ],
      "name": "RoleAdminChanged",
      "type": "event"
    },
    {
      "anonymous": false,
      "inputs": [
        {
          "indexed": true,
          "internalType": "bytes32",
          "name": "role",
          "type": "bytes32"
        },
        {
          "indexed": true,
          "internalType": "address",
          "name": "account",
          "type": "address"
        },
        {
          "indexed": true,
          "internalType": "address",
          "name": "sender",
          "type": "address"
        }
      ],
      "name": "RoleGranted",
      "type": "event"
    },
    {
      "anonymous": false,
      "inputs": [
        {
          "indexed": true,
          "internalType": "bytes32",
          "name": "role",
          "type": "bytes32"
        },
        {
          "indexed": true,
          "internalType": "address",
          "name": "account",
          "type": "address"
        },
        {
          "indexed": true,
          "internalType": "address",
          "name": "sender",
          "type": "address"
        }
      ],
      "name": "RoleRevoked",
      "type": "event"
    },
    {
      "inputs": [],
      "name": "DEFAULT_ADMIN_ROLE",
      "outputs": [
        {
          "internalType": "bytes32",
          "name": "",
          "type": "bytes32"
        }
      ],
      "stateMutability": "view",
      "type": "function"
    },
    {
      "inputs": [],
      "name": "MKT_ADMIN_ROLE",
      "outputs": [
        {
          "internalType": "bytes32",
          "name": "",
          "type": "bytes32"
        }
      ],
      "stateMutability": "view",
      "type": "function"
    },
    {
      "inputs": [],
      "name": "MKT_ARBITRATOR_ROLE",
      "outputs": [
        {
          "internalType": "bytes32",
          "name": "",
          "type": "bytes32"
        }
      ],
      "stateMutability": "view",
      "type": "function"
    },
    {
      "inputs": [
        {
          "internalType": "uint256",
          "name": "",
          "type": "uint256"
        },
        {
          "internalType": "address",
          "name": "",
          "type": "address"
        }
      ],
      "name": "_isSlotAdmin",
      "outputs": [
        {
          "internalType": "bool",
          "name": "",
          "type": "bool"
        }
      ],
      "stateMutability": "view",
      "type": "function"
    },
    {
      "inputs": [],
      "name": "allUserInfo",
      "outputs": [
        {
          "components": [
            {
              "internalType": "address",
              "name": "userAddress",
              "type": "address"
            },
            {
              "internalType": "string",
              "name": "metadataUri",
              "type": "string"
            }
          ],
          "internalType": "struct Registry.UserInfo[]",
          "name": "",
          "type": "tuple[]"
        }
      ],
      "stateMutability": "view",
      "type": "function"
    },
    {
      "inputs": [
        {
          "internalType": "address",
          "name": "contract_",
          "type": "address"
        },
        {
          "internalType": "uint256",
          "name": "slotId_",
          "type": "uint256"
        }
      ],
      "name": "approveContractForSlot",
      "outputs": [],
      "stateMutability": "nonpayable",
      "type": "function"
    },
    {
      "inputs": [
        {
          "internalType": "bytes32",
          "name": "assetIdBytes",
          "type": "bytes32"
        }
      ],
      "name": "assetOffering",
      "outputs": [
        {
          "internalType": "uint256",
          "name": "",
          "type": "uint256"
        }
      ],
      "stateMutability": "view",
      "type": "function"
    },
    {
      "inputs": [
        {
          "internalType": "address",
          "name": "contractAddress_",
          "type": "address"
        }
      ],
      "name": "contractType",
      "outputs": [
        {
          "internalType": "enum Registry.CreditType",
          "name": "",
          "type": "uint8"
        }
      ],
      "stateMutability": "view",
      "type": "function"
    },
    {
      "inputs": [
        {
          "internalType": "bytes32",
          "name": "role",
          "type": "bytes32"
        }
      ],
      "name": "getRoleAdmin",
      "outputs": [
        {
          "internalType": "bytes32",
          "name": "",
          "type": "bytes32"
        }
      ],
      "stateMutability": "view",
      "type": "function"
    },
    {
      "inputs": [
        {
          "internalType": "bytes32",
          "name": "role",
          "type": "bytes32"
        },
        {
          "internalType": "address",
          "name": "account",
          "type": "address"
        }
      ],
      "name": "grantRole",
      "outputs": [],
      "stateMutability": "nonpayable",
      "type": "function"
    },
    {
      "inputs": [
        {
          "internalType": "string",
          "name": "role_",
          "type": "string"
        },
        {
          "internalType": "address",
          "name": "addr",
          "type": "address"
        }
      ],
      "name": "hasAccess",
      "outputs": [
        {
          "internalType": "bool",
          "name": "",
          "type": "bool"
        }
      ],
      "stateMutability": "view",
      "type": "function"
    },
    {
      "inputs": [
        {
          "internalType": "bytes32",
          "name": "role",
          "type": "bytes32"
        },
        {
          "internalType": "address",
          "name": "account",
          "type": "address"
        }
      ],
      "name": "hasRole",
      "outputs": [
        {
          "internalType": "bool",
          "name": "",
          "type": "bool"
        }
      ],
      "stateMutability": "view",
      "type": "function"
    },
    {
      "inputs": [
        {
          "internalType": "string",
          "name": "symbol_",
          "type": "string"
        }
      ],
      "name": "isApprovedCurrency",
      "outputs": [
        {
          "internalType": "bool",
          "name": "",
          "type": "bool"
        }
      ],
      "stateMutability": "view",
      "type": "function"
    },
    {
      "inputs": [
        {
          "internalType": "uint256",
          "name": "slotId_",
          "type": "uint256"
        },
        {
          "internalType": "address",
          "name": "user_",
          "type": "address"
        }
      ],
      "name": "isPoolMember",
      "outputs": [
        {
          "internalType": "bool",
          "name": "",
          "type": "bool"
        }
      ],
      "stateMutability": "view",
      "type": "function"
    },
    {
      "inputs": [
        {
          "internalType": "uint256",
          "name": "slotId_",
          "type": "uint256"
        },
        {
          "internalType": "address",
          "name": "user_",
          "type": "address"
        }
      ],
      "name": "isSlotAdmin",
      "outputs": [
        {
          "internalType": "bool",
          "name": "",
          "type": "bool"
        }
      ],
      "stateMutability": "view",
      "type": "function"
    },
    {
      "inputs": [
        {
          "internalType": "uint256",
          "name": "slot_",
          "type": "uint256"
        }
      ],
      "name": "joinSlot",
      "outputs": [],
      "stateMutability": "nonpayable",
      "type": "function"
    },
    {
      "inputs": [
        {
          "internalType": "uint256",
          "name": "slotId_",
          "type": "uint256"
        }
      ],
      "name": "poolMembers",
      "outputs": [
        {
          "internalType": "address[]",
          "name": "",
          "type": "address[]"
        }
      ],
      "stateMutability": "view",
      "type": "function"
    },
    {
      "inputs": [],
      "name": "pools",
      "outputs": [
        {
          "components": [
            {
              "internalType": "address",
              "name": "creator",
              "type": "address"
            },
            {
              "internalType": "uint256",
              "name": "slotId",
              "type": "uint256"
            },
            {
              "internalType": "string",
              "name": "name",
              "type": "string"
            },
            {
              "internalType": "string",
              "name": "description",
              "type": "string"
            },
            {
              "internalType": "string",
              "name": "slotURI",
              "type": "string"
            },
            {
              "internalType": "string",
              "name": "valueCurrency",
              "type": "string"
            },
            {
              "internalType": "address",
              "name": "underlyingContract",
              "type": "address"
            },
            {
              "internalType": "uint256",
              "name": "valueDecimals",
              "type": "uint256"
            },
            {
              "internalType": "enum Registry.SlotType",
              "name": "slotType",
              "type": "uint8"
            },
            {
              "internalType": "bool",
              "name": "joinByInvite",
              "type": "bool"
            },
            {
              "internalType": "bool",
              "name": "isValid",
              "type": "bool"
            }
          ],
          "internalType": "struct Registry.Slot[]",
          "name": "",
          "type": "tuple[]"
        }
      ],
      "stateMutability": "view",
      "type": "function"
    },
    {
      "inputs": [
        {
          "internalType": "address",
          "name": "adminAddress_",
          "type": "address"
        },
        {
          "internalType": "uint256",
          "name": "slot_",
          "type": "uint256"
        },
        {
          "internalType": "enum Registry.CreditType",
          "name": "type_",
          "type": "uint8"
        }
      ],
      "name": "registerContract",
      "outputs": [],
      "stateMutability": "nonpayable",
      "type": "function"
    },
    {
      "inputs": [
        {
          "internalType": "address",
          "name": "ctrctSvcAdminAdress_",
          "type": "address"
        },
        {
          "internalType": "address",
          "name": "underlyingContractAddress_",
          "type": "address"
        },
        {
          "internalType": "string",
          "name": "valueCurrency_",
          "type": "string"
        },
        {
          "internalType": "uint256",
          "name": "slotId_",
          "type": "uint256"
        },
        {
          "internalType": "string",
          "name": "slotName_",
          "type": "string"
        },
        {
          "internalType": "string",
          "name": "slotURI_",
          "type": "string"
        },
        {
          "internalType": "string",
          "name": "description_",
          "type": "string"
        },
        {
          "internalType": "uint8",
          "name": "type_",
          "type": "uint8"
        },
        {
          "internalType": "uint8",
          "name": "valueDecimals_",
          "type": "uint8"
        },
        {
          "internalType": "bool",
          "name": "joinByInviteOnly_",
          "type": "bool"
        }
      ],
      "name": "registerSlot",
      "outputs": [
        {
          "internalType": "bool",
          "name": "",
          "type": "bool"
        }
      ],
      "stateMutability": "nonpayable",
      "type": "function"
    },
    {
      "inputs": [
        {
          "internalType": "uint256",
          "name": "tokenId_",
          "type": "uint256"
        },
        {
          "internalType": "uint256",
          "name": "slotId_",
          "type": "uint256"
        }
      ],
      "name": "registerTokenSlot",
      "outputs": [],
      "stateMutability": "nonpayable",
      "type": "function"
    },
    {
      "inputs": [
        {
          "internalType": "bytes32",
          "name": "role",
          "type": "bytes32"
        },
        {
          "internalType": "address",
          "name": "account",
          "type": "address"
        }
      ],
      "name": "renounceRole",
      "outputs": [],
      "stateMutability": "nonpayable",
      "type": "function"
    },
    {
      "inputs": [
        {
          "internalType": "bytes32",
          "name": "role",
          "type": "bytes32"
        },
        {
          "internalType": "address",
          "name": "account",
          "type": "address"
        }
      ],
      "name": "revokeRole",
      "outputs": [],
      "stateMutability": "nonpayable",
      "type": "function"
    },
    {
      "inputs": [
        {
          "internalType": "bytes32",
          "name": "assetIdBytes",
          "type": "bytes32"
        },
        {
          "internalType": "uint256",
          "name": "offeringId",
          "type": "uint256"
        }
      ],
      "name": "setAssetOffering",
      "outputs": [],
      "stateMutability": "nonpayable",
      "type": "function"
    },
    {
      "inputs": [
        {
          "internalType": "uint256",
          "name": "slotId_",
          "type": "uint256"
        },
        {
          "internalType": "address",
          "name": "admin_",
          "type": "address"
        },
        {
          "internalType": "bool",
          "name": "value",
          "type": "bool"
        }
      ],
      "name": "setIsAdmin",
      "outputs": [],
      "stateMutability": "nonpayable",
      "type": "function"
    },
    {
      "inputs": [
        {
          "internalType": "string",
          "name": "_metadataUri",
          "type": "string"
        }
      ],
      "name": "setUserInfo",
      "outputs": [],
      "stateMutability": "nonpayable",
      "type": "function"
    },
    {
      "inputs": [
        {
          "internalType": "address",
          "name": "_user",
          "type": "address"
        },
        {
          "internalType": "string",
          "name": "_metadataUri",
          "type": "string"
        }
      ],
      "name": "setUserInfoForUser",
      "outputs": [],
      "stateMutability": "nonpayable",
      "type": "function"
    },
    {
      "inputs": [
        {
          "internalType": "uint256",
          "name": "slot_",
          "type": "uint256"
        }
      ],
      "name": "slot",
      "outputs": [
        {
          "components": [
            {
              "internalType": "address",
              "name": "creator",
              "type": "address"
            },
            {
              "internalType": "uint256",
              "name": "slotId",
              "type": "uint256"
            },
            {
              "internalType": "string",
              "name": "name",
              "type": "string"
            },
            {
              "internalType": "string",
              "name": "description",
              "type": "string"
            },
            {
              "internalType": "string",
              "name": "slotURI",
              "type": "string"
            },
            {
              "internalType": "string",
              "name": "valueCurrency",
              "type": "string"
            },
            {
              "internalType": "address",
              "name": "underlyingContract",
              "type": "address"
            },
            {
              "internalType": "uint256",
              "name": "valueDecimals",
              "type": "uint256"
            },
            {
              "internalType": "enum Registry.SlotType",
              "name": "slotType",
              "type": "uint8"
            },
            {
              "internalType": "bool",
              "name": "joinByInvite",
              "type": "bool"
            },
            {
              "internalType": "bool",
              "name": "isValid",
              "type": "bool"
            }
          ],
          "internalType": "struct Registry.Slot",
          "name": "",
          "type": "tuple"
        }
      ],
      "stateMutability": "view",
      "type": "function"
    },
    {
      "inputs": [
        {
          "internalType": "uint256",
          "name": "slot_",
          "type": "uint256"
        },
        {
          "internalType": "address",
          "name": "invitee_",
          "type": "address"
        }
      ],
      "name": "slotInvite",
      "outputs": [],
      "stateMutability": "nonpayable",
      "type": "function"
    },
    {
      "inputs": [
        {
          "internalType": "address",
          "name": "contract_",
          "type": "address"
        },
        {
          "internalType": "uint256",
          "name": "tokenId_",
          "type": "uint256"
        }
      ],
      "name": "slotOf",
      "outputs": [
        {
          "internalType": "uint256",
          "name": "",
          "type": "uint256"
        }
      ],
      "stateMutability": "view",
      "type": "function"
    },
    {
      "inputs": [
        {
          "internalType": "bytes4",
          "name": "interfaceId",
          "type": "bytes4"
        }
      ],
      "name": "supportsInterface",
      "outputs": [
        {
          "internalType": "bool",
          "name": "",
          "type": "bool"
        }
      ],
      "stateMutability": "view",
      "type": "function"
    },
    {
      "inputs": [],
      "name": "underlyingContractAddress",
      "outputs": [
        {
          "internalType": "address",
          "name": "",
          "type": "address"
        }
      ],
      "stateMutability": "view",
      "type": "function"
    },
    {
      "inputs": [],
      "name": "userAddresses",
      "outputs": [
        {
          "internalType": "address[]",
          "name": "",
          "type": "address[]"
        }
      ],
      "stateMutability": "view",
      "type": "function"
    },
    {
      "inputs": [
        {
          "internalType": "address",
          "name": "user_",
          "type": "address"
        }
      ],
      "name": "userInfo",
      "outputs": [
        {
          "internalType": "string",
          "name": "",
          "type": "string"
        }
      ],
      "stateMutability": "view",
      "type": "function"
    }
  ],
  "bytecode": "0x608034620003c257601f6200309538819003828101601f1990811685019490926001600160401b039283871183881017620003ac5780839260409889528339602092839181010312620003c257516001600160a01b0381169390849003620003c25785519482860186811085821117620003ac576060870181811086821117620003ac57885260048152637573646360e01b88880152865260025495600196876002558088106200032d575b5090600094600286528486209186935b898510620001fb5750505050505060018060a01b03199173873d813190b60193e229262d3376652c2e06f94f83600354161760035560126010557f1cd6d520d98babae1045eb69c31ecab800996aa332094cb55c0ac10362e9b0c9808252818352868220338352835260ff878320541615620001c2575b507fb6e67d9fc30da7082da03dcb74e53bec9a276f3020bb3303807ebc4efaec9e2c91828252818152868220338352815260ff87832054161562000188575b50505082541617905551612c5790816200041e8239f35b82825281815286822090338352528581208560ff19825416179055339160008051602062003075833981519152339280a438808062000171565b80825281835286822033835283528682208660ff1982541617905533903390600080516020620030758339815191528480a43862000132565b805190815184811162000319578b9189918b620002198954620003c7565b84888211620002de575b50505082948c8783116001146200026d5795829186979262000261575b5050600019600383901b1c191690841b1787555b01940194019392620000bb565b01519050388062000240565b90958b83168a8352858320925b818110620002ba5750908697848895949310620002a0575b505050811b01875562000254565b015160001960f88460031b161c1916905538808062000292565b9497939686929691938786015181550195019301928f95929693918d95926200027a565b828b62000306945220600589808601821c8301938887106200030f575b01901c019062000404565b8b388462000223565b93508293620002fb565b634e487b7160e01b8a52604160045260248afd5b600060028152888087832093840193015b8381106200034f57505050620000ab565b6200035b8154620003c7565b806200036c575b500189906200033e565b8681116001146200038357508281555b3862000362565b8184528884206200039e91880160051c810190840162000404565b82888120818355556200037c565b634e487b7160e01b600052604160045260246000fd5b600080fd5b90600182811c92168015620003f9575b6020831014620003e357565b634e487b7160e01b600052602260045260246000fd5b91607f1691620003d7565b81811062000410575050565b600081556001016200040456fe608080604052600436101561001357600080fd5b60003560e01c90816301ffc9a71461204f575080630506610e1461200257806313bd20e214611fbf5780631959a00214611f67578063248a9ca314611f385780632e010b9414611f0f5780632f2ff15d14611e5c57806336568abe14611dca5780633f0b1c4f14611d9e57806349e8629414611c63578063613cd5f814611c1f5780636855cbb814611bac5780637cb25fcf146118875780638270431c1461179b57806391d148541461174e57806394b39b09146115cd5780639b3b3129146113325780639eb6c7cc146112f7578063a217fddf146112db578063a4870fa9146112b1578063a7c9f2d614611276578063a8bf563814610e49578063ab5a10ef14611110578063b2025e4f14611000578063b336dee014610f2a578063be3eb61014610e96578063c101eab214610e49578063c5a887c514610e03578063c5c51dca14610c1d578063c5efc3b414610bc1578063d547741f14610b80578063e85a03f3146102aa578063f6f08005146101e25763fb54d7221461019557600080fd5b346101dd5760403660031901126101dd576001600160a01b036101b66120b8565b16600052600b60205260406000206024356000526020526020604060002054604051908152f35b600080fd5b346101dd5760603660031901126101dd576004356101fe6120a2565b604435918215158093036101dd57806000526020906009825261022e60ff60086040600020015460101c166129aa565b806000526009825260ff60086040600020015460081c1661027a575b600052600c815260406000209160018060a01b03166000525260406000209060ff80198354169116179055600080f35b600d8252604060008181206001600160a01b038681168352908552919020546102a5911615156129ec565b61024a565b346101dd576101403660031901126101dd576102c46120b8565b6102cc6120a2565b906044356001600160401b0381116101dd576102ec903690600401612141565b6084356001600160401b0381116101dd5761030b903690600401612141565b9260a4356001600160401b0381116101dd5761032b903690600401612141565b9060c4356001600160401b0381116101dd5761034b903690600401612141565b9060e4359060ff821682036101dd57610104359060ff821682036101dd57610124359586151587036101dd573360009081527f386d691cc591b54e5a48c6311e5786a6bced3cf2105f61a30def95e63f99260e602052604090205460ff1615610b2757606435600052600960205260ff60086040600020015460101c16610ae2576104319560ff6000951615610ad9575b60ff94956040519a6103ed8c6120e9565b60018060a01b038b168c5260643560208d015260408c015260608b015260808a015260a089015260018060a01b031660c08801521660e086015261010085016127c0565b15156101208301526001610140830152606435600052600960205260406000209160018060a01b038151166001600160601b0360a01b8454161783556020810151600184015560408101519283516001600160401b0381116107a55761049a60028301546126f0565b601f8111610a92575b506020601f8211600114610a23578192939495600092610a18575b50508160011b916000199060031b1c19161760028201555b60608201519283516001600160401b0381116107a5576104f960038401546126f0565b601f81116109d1575b506020601f8211600114610962578192939495600092610957575b50508160011b916000199060031b1c19161760038301555b60808301519283516001600160401b0381116107a55761055860048501546126f0565b601f8111610910575b506020601f82116001146108a1578192939495600092610896575b50508160011b916000199060031b1c19161760048401555b60a08101519283516001600160401b0381116107a5576105b760058301546126f0565b601f811161084f575b506020601f82116001146107dc57819060089495966000926107d1575b50508160011b916000199060031b1c19161760058201555b6006810160018060a01b0360c0850151166001600160601b0360a01b82541617905560e0830151600782015501906101008101519060038210156107bb57825460ff62ff000061014061ff00610120860151151560081b16940151151560101b1693169062ffffff19161717179055600a54600160401b8110156107a5578060016106839201600a5561285b565b81549060031b90600019821b8092606435901b169119161790556064356000526005602052604060002060018060a01b038216600052602052604060002060ff199060018282541617905560643560005260046020526106e78260406000206128d4565b606435600052600c602052604060002060018060a01b038316600052602052600160406000209182541617905560643560005260096020527f293112f57e1499e465d2297b938e4b29a3ab8fe5e214951585a56e3d4397671660016040600020015460026040600020019061076e604051928392835260406020840152604083019061272a565b0390a1606435600052600c60205260406000209060018060a01b0316600052602052602060ff604060002054166040519015158152f35b634e487b7160e01b600052604160045260246000fd5b634e487b7160e01b600052602160045260246000fd5b0151905086806105dd565b6005830160005260206000209560005b601f198416811061083757509582916008959697600194601f1981161061081e575b505050811b0160058201556105f5565b015160001960f88460031b161c1916905586808061080e565b828201518855600190970196602092830192016107ec565b600583016000526020600020601f830160051c81016020841061088f575b601f830160051c820181106108835750506105c0565b6000815560010161086d565b508061086d565b01519050858061057c565b6004850160005260206000209060005b601f19841681106108f8575060019394959683601f198116106108df575b505050811b016004840155610594565b015160001960f88460031b161c191690558580806108cf565b9091602060018192858b0151815501930191016108b1565b600485016000526020600020601f830160051c810160208410610950575b601f830160051c82018110610944575050610561565b6000815560010161092e565b508061092e565b01519050858061051d565b6003840160005260206000209060005b601f19841681106109b9575060019394959683601f198116106109a0575b505050811b016003830155610535565b015160001960f88460031b161c19169055858080610990565b9091602060018192858b015181550193019101610972565b600384016000526020600020601f830160051c810160208410610a11575b601f830160051c82018110610a05575050610502565b600081556001016109ef565b50806109ef565b0151905085806104be565b6002830160005260206000209060005b601f1984168110610a7a575060019394959683601f19811610610a61575b505050811b0160028201556104d6565b015160001960f88460031b161c19169055858080610a51565b9091602060018192858b015181550193019101610a33565b600283016000526020600020601f830160051c810160208410610ad2575b601f830160051c82018110610ac65750506104a3565b60008155600101610ab0565b5080610ab0565b600094506103dc565b60405162461bcd60e51b815260206004820152601f60248201527f506f6f6c207769746820536c6f74496420616c726561647920657869737473006044820152606490fd5b60405162461bcd60e51b815260206004820152602b60248201527f53656e646572206e6f7420617574686f72697a656420746f207265676973746560448201526a1c881d1a1a5cc81cdb1bdd60aa1b6064820152608490fd5b346101dd5760403660031901126101dd57610bbf600435610b9f6120a2565b90806000526000602052610bba6001604060002001546122cb565b6125ff565b005b346101dd5760403660031901126101dd57602435806000526005602052604060002033600052602052610bfb60ff60406000205416612916565b33600052600b6020526040600020600435600052602052604060002055600080f35b346101dd5760003660031901126101dd57600a54610c3a8161295a565b90610c486040519283612105565b808252601f19610c578261295a565b0160005b818110610dec57505060005b818110610ccd576040805160208082528551818301819052600093600582901b8401810192808901929185015b828710610ca15785850386f35b909192938280610cbd600193603f198a82030186528851612214565b9601920196019592919092610c94565b80610cda610de79261285b565b9054600391821b1c600052602060098152604060002090610d33610d4d60405194610d04866120e9565b84546001600160a01b039081168752600186015494870194909452604051610d3a81610d338160028a0161272a565b0382612105565b604087015260405192838092870161272a565b6060840152604051610d6681610d33816004870161272a565b6080840152604051610d7f81610d33816005870161272a565b60a084015260068201541660c0830152600781015460e0830152600880910154809160ff928391610db683831661010088016127c0565b1c16151561012084015260101c161515610140820152610dd68286612996565b52610de18185612996565b50612971565b610c67565b602090610df761269a565b82828701015201610c5b565b346101dd5760203660031901126101dd576001600160a01b03610e246120b8565b16600052600660205260ff6040600020541660405160048210156107bb576020918152f35b346101dd5760403660031901126101dd57610e626120a2565b600435600052600c60205260406000209060018060a01b0316600052602052602060ff604060002054166040519015158152f35b346101dd5760003660031901126101dd57604051806008549182815260208091019260086000527ff3f7a9fe364faab93b216da50a3214154f22a0a2b415b23a84c8169e8b636ee3916000905b828210610f0a57610f0685610efa81890382612105565b604051918291826121d0565b0390f35b83546001600160a01b031686529485019460019384019390910190610ee3565b346101dd576020806003193601126101dd576004358060005260098252610f5e60ff60086040600020015460101c166129aa565b806000526009825260ff60086040600020015460081c16610fd5575b8060005260058252604060002033600052825260ff6040600020541615610f9d57005b8060005260048252610fb33360406000206128d4565b600090815260058252604080822033835290925220805460ff19166001179055005b600d82526040600081812033825284522054610ffb906001600160a01b031615156129ec565b610f7a565b346101dd5760203660031901126101dd5761101961269a565b506004356000526009602052610f06604060002060ff60086040519261103e846120e9565b80546001600160a01b0390811685526001820154602086015260405161106b81610d33816002870161272a565b604086015260405161108481610d33816003870161272a565b606086015260405161109d81610d33816004870161272a565b60808601526040516110b681610d33816005870161272a565b60a086015260068201541660c0850152600781015460e085015201546110e282821661010085016127c0565b818160081c16151561012084015260101c161515610140820152604051918291602083526020830190612214565b346101dd5760003660031901126101dd5760085461112d8161295a565b9061113b6040519283612105565b808252601f1961114a8261295a565b0160005b81811061125157505060005b8181106111d8576040805160208082528551818301819052600093600582901b8401810192808901929185015b8287106111945785850386f35b9091929382806111c8600193603f198a82030186526040838a51878060a01b038151168452015191818582015201906121ab565b9601920196019592919092611187565b806112386111e861124c93612824565b91905461123f6111f785612824565b949060018060a01b03809154600397881b1c166000526020936007855260406000209260405197611227896120ce565b1b1c1685526040519384809261272a565b0383612105565b820152610dd68286612996565b61115a565b602090604051611260816120ce565b600081528260608183015282870101520161114e565b346101dd5760003660031901126101dd5760206040517f1cd6d520d98babae1045eb69c31ecab800996aa332094cb55c0ac10362e9b0c98152f35b346101dd5760403660031901126101dd57600435600052600e602052602435604060002055600080f35b346101dd5760003660031901126101dd57602060405160008152f35b346101dd5760003660031901126101dd5760206040517fb6e67d9fc30da7082da03dcb74e53bec9a276f3020bb3303807ebc4efaec9e2c8152f35b346101dd576020806003193601126101dd576001600160401b03906004358281116101dd57611365903690600401612141565b91611372835115156127cc565b33600052600782526113886040600020546126f0565b6114a457336000526007825260406000209183519182116107a5576113ad83546126f0565b601f811161145e575b5080601f83116001146113f857508192936000926113ed575b50508160011b916000199060031b1c19161790555b610bbf33612892565b0151905083806113cf565b90601f198316948460005282600020926000905b87821061144657505083600195961061142d575b505050811b0190556113e4565b015160001960f88460031b161c19169055838080611420565b8060018596829496860151815501950193019061140c565b8360005281600020601f840160051c81019183851061149a575b601f0160051c01905b81811061148e57506113b6565b60008155600101611481565b9091508190611478565b33600052600782526114ba6040600020546126f0565b6114c057005b336000526007825260406000209183519182116107a5576114e183546126f0565b601f8111611587575b5080601f83116001146115245750819293600092611519575b50508160011b916000199060031b1c1916179055005b015190508380611503565b90601f198316948460005282600020926000905b87821061156f575050836001959610611556575b505050811b019055005b015160001960f88460031b161c1916905583808061154c565b80600185968294968601518155019501930190611538565b8360005281600020601f840160051c8101918385106115c3575b601f0160051c01905b8181106115b757506114ea565b600081556001016115aa565b90915081906115a1565b346101dd5760603660031901126101dd576115e66120b8565b6044359060243560048310156101dd5780600052602091600c835260406000209060018060a01b0316600052825260ff60406000205416156116e3573332146116a657908160069260005260058252604060002033600052825260ff6040600020541615611668575b505260406000209060ff80198354169116179055600080f35b806000526004825261167e3360406000206128d4565b6000526005815260406000203360005281526040600020600160ff198254161790558361164f565b60405162461bcd60e51b815260048101839052601560248201527410d85b1b195c881b9bdd08184818dbdb9d1c9858dd605a1b6044820152606490fd5b60405162461bcd60e51b815260048101839052603960248201527f436f6e74726163742061646d696e206973206e6f7420617574686f72697a656460448201527f20746f20726567697374657220746f207468697320736c6f74000000000000006064820152608490fd5b346101dd5760403660031901126101dd576117676120a2565b600435600052600060205260406000209060018060a01b0316600052602052602060ff604060002054166040519015158152f35b346101dd5760403660031901126101dd576004356117b76120a2565b9080600052602090600982526117da60ff60086040600020015460101c166129aa565b80600052600c8252604060002033600052825260ff604060002054161561182d576000908152600d825260408082206001600160a01b039094168252929091522080546001600160a01b03191633179055005b60405162461bcd60e51b815260048101839052602c60248201527f53656e646572206e6f7420617574686f72697a656420746f20696e766974652060448201526b1d1bc81d1a1a5cc81cdb1bdd60a21b6064820152608490fd5b346101dd5760403660031901126101dd576118a06120b8565b6001600160401b03906024358281116101dd576118c1903690600401612141565b916001600160a01b038216908115611b5b573360009081527fa898948c460b9e784c469ea950cc4131ff1f825b8225c49c524e74d4bf0ce58260209081526040909120549092906119149060ff16612916565b611920855115156127cc565b80600052600783526119366040600020546126f0565b611a55576000526007825260406000209184519182116107a55761195a83546126f0565b601f8111611a0f575b5080601f83116001146119a357508190610bbf95600092611998575b50508160011b916000199060031b1c1916179055612892565b01519050858061197f565b9194601f1986168460005283600020936000905b8282106119f7575050916001939187610bbf9894106119de575b505050811b019055612892565b015160001960f88460031b161c191690558580806119d1565b806001869782949787015181550196019401906119b7565b8360005281600020601f840160051c810191838510611a4b575b601f0160051c01905b818110611a3f5750611963565b60008155600101611a32565b9091508190611a29565b809192935060005260078352611a6f6040600020546126f0565b611a7557005b6000526007825260406000209183519182116107a557611a9583546126f0565b601f8111611b15575b5080601f8311600114611acc57508192936000926115195750508160011b916000199060031b1c1916179055005b90601f198316948460005282600020926000905b878210611afd57505083600195961061155657505050811b019055005b80600185968294968601518155019501930190611ae0565b8360005281600020601f840160051c810191838510611b51575b601f0160051c01905b818110611b455750611a9e565b60008155600101611b38565b9091508190611b2f565b60405162461bcd60e51b815260206004820152602360248201527f5573657220616464726573732063616e6e6f74206265207a65726f206164647260448201526265737360e81b6064820152608490fd5b346101dd576020806003193601126101dd5760043560005260048152604060002090604051908181845491828152019360005281600020916000905b828210611bff57610f0685610efa81890382612105565b83546001600160a01b031686529485019460019384019390910190611be8565b346101dd5760203660031901126101dd576004356001600160401b0381116101dd57611c59611c546020923690600401612141565b612a38565b6040519015158152f35b346101dd5760403660031901126101dd57611c7c6120b8565b6024359081600052602090600c8252604060002033600052825260ff6040600020541615611d4357604051637795524560e01b8152926001600160a01b039183908590600490829086165afa938415611d3757600094611cff575b50600052600c825260406000209216600052526040600020600160ff19825416179055600080f35b9093508281813d8311611d30575b611d178183612105565b810103126101dd575181811681036101dd579284611cd7565b503d611d0d565b6040513d6000823e3d90fd5b60405162461bcd60e51b815260048101839052602d60248201527f53656e646572206e6f7420617574686f72697a656420746f20617070726f766560448201526c081bdb881d1a1a5cc81cdb1bdd609a1b6064820152608490fd5b346101dd5760203660031901126101dd57600435600052600e6020526020604060002054604051908152f35b346101dd5760403660031901126101dd57611de36120a2565b336001600160a01b03821603611dff57610bbf906004356125ff565b60405162461bcd60e51b815260206004820152602f60248201527f416363657373436f6e74726f6c3a2063616e206f6e6c792072656e6f756e636560448201526e103937b632b9903337b91039b2b63360891b6064820152608490fd5b346101dd5760403660031901126101dd57600435611e786120a2565b816000526000602052611e926001604060002001546122cb565b81600052600060205260406000209060018060a01b0316908160005260205260ff6040600020541615611ec157005b8160005260006020526040600020816000526020526040600020600160ff1982541617905533917f2f8788117e7eff1d82e926ec794901d17c78024a50270940304540a733656f0d600080a4005b346101dd5760003660031901126101dd576003546040516001600160a01b039091168152602090f35b346101dd5760203660031901126101dd5760043560005260006020526020600160406000200154604051908152f35b346101dd5760203660031901126101dd576001600160a01b03611f886120b8565b166000526007602052610f06610d33611fab60406000206040519283809261272a565b6040519182916020835260208301906121ab565b346101dd5760403660031901126101dd576004356001600160401b0381116101dd57611c59611ff46020923690600401612141565b611ffc6120a2565b90612b8f565b346101dd5760403660031901126101dd5761201b6120a2565b600435600052600560205260406000209060018060a01b0316600052602052602060ff604060002054166040519015158152f35b346101dd5760203660031901126101dd576004359063ffffffff60e01b82168092036101dd57602091637965db0b60e01b8114908115612091575b5015158152f35b6301ffc9a760e01b1490508361208a565b602435906001600160a01b03821682036101dd57565b600435906001600160a01b03821682036101dd57565b604081019081106001600160401b038211176107a557604052565b61016081019081106001600160401b038211176107a557604052565b90601f801991011681019081106001600160401b038211176107a557604052565b6001600160401b0381116107a557601f01601f191660200190565b81601f820112156101dd5780359061215882612126565b926121666040519485612105565b828452602083830101116101dd57816000926020809301838601378301015290565b60005b83811061219b5750506000910152565b818101518382015260200161218b565b906020916121c481518092818552858086019101612188565b601f01601f1916010190565b6020908160408183019282815285518094520193019160005b8281106121f7575050505090565b83516001600160a01b0316855293810193928101926001016121e9565b9060018060a01b03918281511682526020810151602083015261228561227361226161224f60408501516101608060408901528701906121ab565b606085015186820360608801526121ab565b608084015185820360808701526121ab565b60a083015184820360a08601526121ab565b9260c08201511660c083015260e081015160e0830152610100808201519060038210156107bb578301526101208082015115159083015261014080910151151591015290565b600090808252602090828252604092838120338252835260ff8482205416156122f45750505050565b8351916001600160401b03903360608501838111868210176125eb578752602a855285850191873684378551156125d757603083538551916001928310156125c3576078602188015360295b83811161255957506125175790875193608085019085821090821117612503578852604284528684019460603687378451156124ef576030865384518210156124ef5790607860218601536041915b8183116124815750505061243f5761243b93869361241f936124106048946123e79a519a8b957f416363657373436f6e74726f6c3a206163636f756e74200000000000000000008c8801525180926037880190612188565b8401917001034b99036b4b9b9b4b733903937b6329607d1b603784015251809386840190612188565b01036028810187520185612105565b5192839262461bcd60e51b8452600484015260248301906121ab565b0390fd5b60648587519062461bcd60e51b825280600483015260248201527f537472696e67733a20686578206c656e67746820696e73756666696369656e746044820152fd5b909192600f811660108110156124db576f181899199a1a9b1b9c1cb0b131b232b360811b901a6124b18588612673565b5360041c9280156124c75760001901919061238f565b634e487b7160e01b82526011600452602482fd5b634e487b7160e01b83526032600452602483fd5b634e487b7160e01b81526032600452602490fd5b634e487b7160e01b86526041600452602486fd5b60648789519062461bcd60e51b825280600483015260248201527f537472696e67733a20686578206c656e67746820696e73756666696369656e746044820152fd5b90600f811660108110156125af576f181899199a1a9b1b9c1cb0b131b232b360811b901a612587838a612673565b5360041c90801561259b5760001901612340565b634e487b7160e01b87526011600452602487fd5b634e487b7160e01b88526032600452602488fd5b634e487b7160e01b86526032600452602486fd5b634e487b7160e01b85526032600452602485fd5b634e487b7160e01b85526041600452602485fd5b9060009180835282602052604083209160018060a01b03169182845260205260ff60408420541661262f57505050565b80835282602052604083208284526020526040832060ff1981541690557ff6391f5c32d9c69d2a47ea670b442974b53935d1edc7fd64eb21e047a839171b339380a4565b908151811015612684570160200190565b634e487b7160e01b600052603260045260246000fd5b604051906126a7826120e9565b816101406000918281528260208201526060604082015260608082015260606080820152606060a08201528260c08201528260e082015282610100820152826101208201520152565b90600182811c92168015612720575b602083101461270a57565b634e487b7160e01b600052602260045260246000fd5b91607f16916126ff565b906000929180549161273b836126f0565b91828252600193848116908160001461279d575060011461275d575b50505050565b90919394506000526020928360002092846000945b838610612789575050505001019038808080612757565b805485870183015294019385908201612772565b9294505050602093945060ff191683830152151560051b01019038808080612757565b60038210156107bb5752565b156127d357565b60405162461bcd60e51b8152602060048201526024808201527f6d6574616461746155726920617267756d656e742063616e6e6f7420626520656044820152636d70747960e01b6064820152608490fd5b6008548110156126845760086000527ff3f7a9fe364faab93b216da50a3214154f22a0a2b415b23a84c8169e8b636ee30190600090565b600a5481101561268457600a6000527fc65a7bb8d6351c1cf70c95a316cc6a92839c986682d98bc35f958f4883f9d2a80190600090565b600854600160401b8110156107a5578060016128b19201600855612824565b819291549060031b9160018060a01b039283811b93849216901b16911916179055565b805490600160401b8210156107a55760018201808255821015612684576000526020600020019060018060a01b03166001600160601b0360a01b825416179055565b1561291d57565b60405162461bcd60e51b815260206004820152601560248201527414d95b99195c881b9bdd08185d5d1a1bdc9a5e9959605a1b6044820152606490fd5b6001600160401b0381116107a55760051b60200190565b60001981146129805760010190565b634e487b7160e01b600052601160045260246000fd5b80518210156126845760209160051b010190565b156129b157565b60405162461bcd60e51b815260206004820152601360248201527214db1bdd08191bd95cc81b9bdd08195e1a5cdd606a1b6044820152606490fd5b156129f357565b60405162461bcd60e51b815260206004820152601a60248201527f53656e646572206e6f7420696e766974656420746f206a6f696e0000000000006044820152606490fd5b60009060029182549260019260018060a01b03845416925b858110612a6257505050505050600090565b826000526040805190612a9b8261123881867f405787fa12a823e0f2b7631cc41b3ba8828b3321ca811111fa75cd3aa3bb5ace0161272a565b815160208093012091815191630c94fdef60e41b835281600484015260008380612ac8602482018a6121ab565b03818b5afa928315612b8457600093612aff575b5050815191012014612af657612af190612971565b612a50565b50505050905090565b9091923d8082843e612b118184612105565b8201918481840312612b80578051906001600160401b038211612b7c57019082601f83011215612b7957815192612b53612b4a85612126565b95519586612105565b838552858484010111612b79575090612b7191848085019101612188565b903880612adc565b80fd5b8280fd5b5080fd5b50513d6000823e3d90fd5b7ff2976e19ebb8b07ec2d57d5bbcd19e92fd5807e202df50ee9c0d1b675cbee91290602081519101206826a5aa2fa0a226a4a760b91b6020604051612bd3816120ce565b60098152015214612be45750600090565b6001600160a01b031660009081527fa898948c460b9e784c469ea950cc4131ff1f825b8225c49c524e74d4bf0ce582602052604090205460ff169056fea264697066735822122032d7a6dedcf72010479ac9e7e406ef1939982cd9c2e8080135bc8ea2b6d8a5ef64736f6c634300081100332f8788117e7eff1d82e926ec794901d17c78024a50270940304540a733656f0d",
  "linkReferences": {},
  "deployedLinkReferences": {}
}