{
  "_format": "hh-sol-artifact-1",
  "contractName": "Registry",
  "sourceName": "contracts/Registry.sol",
  "abi": [
    {
      "inputs": [
        {
          "internalType": "address",
          "name": "utilContract_",
          "type": "address"
        }
      ],
      "stateMutability": "nonpayable",
      "type": "constructor"
    },
    {
      "anonymous": false,
      "inputs": [
        {
          "indexed": false,
          "internalType": "uint256",
          "name": "slotId",
          "type": "uint256"
        },
        {
          "indexed": false,
          "internalType": "string",
          "name": "slotName",
          "type": "string"
        }
      ],
      "name": "NewSlot",
      "type": "event"
    },
    {
      "anonymous": false,
      "inputs": [
        {
          "indexed": true,
          "internalType": "bytes32",
          "name": "role",
          "type": "bytes32"
        },
        {
          "indexed": true,
          "internalType": "bytes32",
          "name": "previousAdminRole",
          "type": "bytes32"
        },
        {
          "indexed": true,
          "internalType": "bytes32",
          "name": "newAdminRole",
          "type": "bytes32"
        }
      ],
      "name": "RoleAdminChanged",
      "type": "event"
    },
    {
      "anonymous": false,
      "inputs": [
        {
          "indexed": true,
          "internalType": "bytes32",
          "name": "role",
          "type": "bytes32"
        },
        {
          "indexed": true,
          "internalType": "address",
          "name": "account",
          "type": "address"
        },
        {
          "indexed": true,
          "internalType": "address",
          "name": "sender",
          "type": "address"
        }
      ],
      "name": "RoleGranted",
      "type": "event"
    },
    {
      "anonymous": false,
      "inputs": [
        {
          "indexed": true,
          "internalType": "bytes32",
          "name": "role",
          "type": "bytes32"
        },
        {
          "indexed": true,
          "internalType": "address",
          "name": "account",
          "type": "address"
        },
        {
          "indexed": true,
          "internalType": "address",
          "name": "sender",
          "type": "address"
        }
      ],
      "name": "RoleRevoked",
      "type": "event"
    },
    {
      "inputs": [],
      "name": "DEFAULT_ADMIN_ROLE",
      "outputs": [
        {
          "internalType": "bytes32",
          "name": "",
          "type": "bytes32"
        }
      ],
      "stateMutability": "view",
      "type": "function"
    },
    {
      "inputs": [],
      "name": "MKT_ADMIN_ROLE",
      "outputs": [
        {
          "internalType": "bytes32",
          "name": "",
          "type": "bytes32"
        }
      ],
      "stateMutability": "view",
      "type": "function"
    },
    {
      "inputs": [],
      "name": "MKT_ARBITRATOR_ROLE",
      "outputs": [
        {
          "internalType": "bytes32",
          "name": "",
          "type": "bytes32"
        }
      ],
      "stateMutability": "view",
      "type": "function"
    },
    {
      "inputs": [
        {
          "internalType": "uint256",
          "name": "",
          "type": "uint256"
        },
        {
          "internalType": "address",
          "name": "",
          "type": "address"
        }
      ],
      "name": "_isSlotAdmin",
      "outputs": [
        {
          "internalType": "bool",
          "name": "",
          "type": "bool"
        }
      ],
      "stateMutability": "view",
      "type": "function"
    },
    {
      "inputs": [],
      "name": "allUserInfo",
      "outputs": [
        {
          "components": [
            {
              "internalType": "address",
              "name": "userAddress",
              "type": "address"
            },
            {
              "internalType": "string",
              "name": "metadataUri",
              "type": "string"
            }
          ],
          "internalType": "struct Registry.UserInfo[]",
          "name": "",
          "type": "tuple[]"
        }
      ],
      "stateMutability": "view",
      "type": "function"
    },
    {
      "inputs": [
        {
          "internalType": "address",
          "name": "contract_",
          "type": "address"
        },
        {
          "internalType": "uint256",
          "name": "slotId_",
          "type": "uint256"
        }
      ],
      "name": "approveContractForSlot",
      "outputs": [],
      "stateMutability": "nonpayable",
      "type": "function"
    },
    {
      "inputs": [
        {
          "internalType": "bytes32",
          "name": "assetIdBytes",
          "type": "bytes32"
        }
      ],
      "name": "assetOffering",
      "outputs": [
        {
          "internalType": "uint256",
          "name": "",
          "type": "uint256"
        }
      ],
      "stateMutability": "view",
      "type": "function"
    },
    {
      "inputs": [
        {
          "internalType": "address",
          "name": "contractAddress_",
          "type": "address"
        }
      ],
      "name": "contractType",
      "outputs": [
        {
          "internalType": "enum Registry.CreditType",
          "name": "",
          "type": "uint8"
        }
      ],
      "stateMutability": "view",
      "type": "function"
    },
    {
      "inputs": [
        {
          "internalType": "bytes32",
          "name": "role",
          "type": "bytes32"
        }
      ],
      "name": "getRoleAdmin",
      "outputs": [
        {
          "internalType": "bytes32",
          "name": "",
          "type": "bytes32"
        }
      ],
      "stateMutability": "view",
      "type": "function"
    },
    {
      "inputs": [
        {
          "internalType": "bytes32",
          "name": "role",
          "type": "bytes32"
        },
        {
          "internalType": "address",
          "name": "account",
          "type": "address"
        }
      ],
      "name": "grantRole",
      "outputs": [],
      "stateMutability": "nonpayable",
      "type": "function"
    },
    {
      "inputs": [
        {
          "internalType": "string",
          "name": "role_",
          "type": "string"
        },
        {
          "internalType": "address",
          "name": "addr",
          "type": "address"
        }
      ],
      "name": "hasAccess",
      "outputs": [
        {
          "internalType": "bool",
          "name": "",
          "type": "bool"
        }
      ],
      "stateMutability": "view",
      "type": "function"
    },
    {
      "inputs": [
        {
          "internalType": "bytes32",
          "name": "role",
          "type": "bytes32"
        },
        {
          "internalType": "address",
          "name": "account",
          "type": "address"
        }
      ],
      "name": "hasRole",
      "outputs": [
        {
          "internalType": "bool",
          "name": "",
          "type": "bool"
        }
      ],
      "stateMutability": "view",
      "type": "function"
    },
    {
      "inputs": [
        {
          "internalType": "string",
          "name": "symbol_",
          "type": "string"
        }
      ],
      "name": "isApprovedCurrency",
      "outputs": [
        {
          "internalType": "bool",
          "name": "",
          "type": "bool"
        }
      ],
      "stateMutability": "view",
      "type": "function"
    },
    {
      "inputs": [
        {
          "internalType": "uint256",
          "name": "slotId_",
          "type": "uint256"
        },
        {
          "internalType": "address",
          "name": "user_",
          "type": "address"
        }
      ],
      "name": "isPoolMember",
      "outputs": [
        {
          "internalType": "bool",
          "name": "",
          "type": "bool"
        }
      ],
      "stateMutability": "view",
      "type": "function"
    },
    {
      "inputs": [
        {
          "internalType": "address",
          "name": "contract_",
          "type": "address"
        }
      ],
      "name": "isRegisteredContract",
      "outputs": [
        {
          "internalType": "bool",
          "name": "",
          "type": "bool"
        }
      ],
      "stateMutability": "view",
      "type": "function"
    },
    {
      "inputs": [
        {
          "internalType": "uint256",
          "name": "slotId_",
          "type": "uint256"
        },
        {
          "internalType": "address",
          "name": "user_",
          "type": "address"
        }
      ],
      "name": "isSlotAdmin",
      "outputs": [
        {
          "internalType": "bool",
          "name": "",
          "type": "bool"
        }
      ],
      "stateMutability": "view",
      "type": "function"
    },
    {
      "inputs": [
        {
          "internalType": "uint256",
          "name": "slot_",
          "type": "uint256"
        }
      ],
      "name": "joinSlot",
      "outputs": [],
      "stateMutability": "nonpayable",
      "type": "function"
    },
    {
      "inputs": [
        {
          "internalType": "uint256",
          "name": "slotId_",
          "type": "uint256"
        }
      ],
      "name": "poolMembers",
      "outputs": [
        {
          "internalType": "address[]",
          "name": "",
          "type": "address[]"
        }
      ],
      "stateMutability": "view",
      "type": "function"
    },
    {
      "inputs": [],
      "name": "pools",
      "outputs": [
        {
          "components": [
            {
              "internalType": "address",
              "name": "creator",
              "type": "address"
            },
            {
              "internalType": "uint256",
              "name": "slotId",
              "type": "uint256"
            },
            {
              "internalType": "string",
              "name": "name",
              "type": "string"
            },
            {
              "internalType": "string",
              "name": "description",
              "type": "string"
            },
            {
              "internalType": "string",
              "name": "slotURI",
              "type": "string"
            },
            {
              "internalType": "string",
              "name": "valueCurrency",
              "type": "string"
            },
            {
              "internalType": "address",
              "name": "underlyingContract",
              "type": "address"
            },
            {
              "internalType": "uint256",
              "name": "valueDecimals",
              "type": "uint256"
            },
            {
              "internalType": "enum Registry.SlotType",
              "name": "slotType",
              "type": "uint8"
            },
            {
              "internalType": "bool",
              "name": "joinByInvite",
              "type": "bool"
            },
            {
              "internalType": "bool",
              "name": "isValid",
              "type": "bool"
            }
          ],
          "internalType": "struct Registry.Slot[]",
          "name": "",
          "type": "tuple[]"
        }
      ],
      "stateMutability": "view",
      "type": "function"
    },
    {
      "inputs": [
        {
          "internalType": "address",
          "name": "adminAddress_",
          "type": "address"
        },
        {
          "internalType": "uint256",
          "name": "slot_",
          "type": "uint256"
        },
        {
          "internalType": "enum Registry.CreditType",
          "name": "type_",
          "type": "uint8"
        }
      ],
      "name": "registerContract",
      "outputs": [],
      "stateMutability": "nonpayable",
      "type": "function"
    },
    {
      "inputs": [
        {
          "internalType": "address",
          "name": "ctrctSvcAdminAdress_",
          "type": "address"
        },
        {
          "internalType": "address",
          "name": "underlyingContractAddress_",
          "type": "address"
        },
        {
          "internalType": "string",
          "name": "valueCurrency_",
          "type": "string"
        },
        {
          "internalType": "uint256",
          "name": "slotId_",
          "type": "uint256"
        },
        {
          "internalType": "string",
          "name": "slotName_",
          "type": "string"
        },
        {
          "internalType": "string",
          "name": "slotURI_",
          "type": "string"
        },
        {
          "internalType": "string",
          "name": "description_",
          "type": "string"
        },
        {
          "internalType": "uint8",
          "name": "type_",
          "type": "uint8"
        },
        {
          "internalType": "uint8",
          "name": "valueDecimals_",
          "type": "uint8"
        },
        {
          "internalType": "bool",
          "name": "joinByInviteOnly_",
          "type": "bool"
        }
      ],
      "name": "registerSlot",
      "outputs": [
        {
          "internalType": "bool",
          "name": "",
          "type": "bool"
        }
      ],
      "stateMutability": "nonpayable",
      "type": "function"
    },
    {
      "inputs": [
        {
          "internalType": "uint256",
          "name": "tokenId_",
          "type": "uint256"
        },
        {
          "internalType": "uint256",
          "name": "slotId_",
          "type": "uint256"
        }
      ],
      "name": "registerTokenSlot",
      "outputs": [],
      "stateMutability": "nonpayable",
      "type": "function"
    },
    {
      "inputs": [
        {
          "internalType": "bytes32",
          "name": "role",
          "type": "bytes32"
        },
        {
          "internalType": "address",
          "name": "account",
          "type": "address"
        }
      ],
      "name": "renounceRole",
      "outputs": [],
      "stateMutability": "nonpayable",
      "type": "function"
    },
    {
      "inputs": [
        {
          "internalType": "bytes32",
          "name": "role",
          "type": "bytes32"
        },
        {
          "internalType": "address",
          "name": "account",
          "type": "address"
        }
      ],
      "name": "revokeRole",
      "outputs": [],
      "stateMutability": "nonpayable",
      "type": "function"
    },
    {
      "inputs": [
        {
          "internalType": "bytes32",
          "name": "assetIdBytes",
          "type": "bytes32"
        },
        {
          "internalType": "uint256",
          "name": "offeringId",
          "type": "uint256"
        }
      ],
      "name": "setAssetOffering",
      "outputs": [],
      "stateMutability": "nonpayable",
      "type": "function"
    },
    {
      "inputs": [
        {
          "internalType": "uint256",
          "name": "slotId_",
          "type": "uint256"
        },
        {
          "internalType": "address",
          "name": "admin_",
          "type": "address"
        },
        {
          "internalType": "bool",
          "name": "value",
          "type": "bool"
        }
      ],
      "name": "setIsAdmin",
      "outputs": [],
      "stateMutability": "nonpayable",
      "type": "function"
    },
    {
      "inputs": [
        {
          "internalType": "string",
          "name": "_metadataUri",
          "type": "string"
        }
      ],
      "name": "setUserInfo",
      "outputs": [],
      "stateMutability": "nonpayable",
      "type": "function"
    },
    {
      "inputs": [
        {
          "internalType": "address",
          "name": "_user",
          "type": "address"
        },
        {
          "internalType": "string",
          "name": "_metadataUri",
          "type": "string"
        }
      ],
      "name": "setUserInfoForUser",
      "outputs": [],
      "stateMutability": "nonpayable",
      "type": "function"
    },
    {
      "inputs": [
        {
          "internalType": "uint256",
          "name": "slot_",
          "type": "uint256"
        }
      ],
      "name": "slot",
      "outputs": [
        {
          "components": [
            {
              "internalType": "address",
              "name": "creator",
              "type": "address"
            },
            {
              "internalType": "uint256",
              "name": "slotId",
              "type": "uint256"
            },
            {
              "internalType": "string",
              "name": "name",
              "type": "string"
            },
            {
              "internalType": "string",
              "name": "description",
              "type": "string"
            },
            {
              "internalType": "string",
              "name": "slotURI",
              "type": "string"
            },
            {
              "internalType": "string",
              "name": "valueCurrency",
              "type": "string"
            },
            {
              "internalType": "address",
              "name": "underlyingContract",
              "type": "address"
            },
            {
              "internalType": "uint256",
              "name": "valueDecimals",
              "type": "uint256"
            },
            {
              "internalType": "enum Registry.SlotType",
              "name": "slotType",
              "type": "uint8"
            },
            {
              "internalType": "bool",
              "name": "joinByInvite",
              "type": "bool"
            },
            {
              "internalType": "bool",
              "name": "isValid",
              "type": "bool"
            }
          ],
          "internalType": "struct Registry.Slot",
          "name": "",
          "type": "tuple"
        }
      ],
      "stateMutability": "view",
      "type": "function"
    },
    {
      "inputs": [
        {
          "internalType": "uint256",
          "name": "slot_",
          "type": "uint256"
        },
        {
          "internalType": "address",
          "name": "invitee_",
          "type": "address"
        }
      ],
      "name": "slotInvite",
      "outputs": [],
      "stateMutability": "nonpayable",
      "type": "function"
    },
    {
      "inputs": [
        {
          "internalType": "address",
          "name": "contract_",
          "type": "address"
        },
        {
          "internalType": "uint256",
          "name": "tokenId_",
          "type": "uint256"
        }
      ],
      "name": "slotOf",
      "outputs": [
        {
          "internalType": "uint256",
          "name": "",
          "type": "uint256"
        }
      ],
      "stateMutability": "view",
      "type": "function"
    },
    {
      "inputs": [
        {
          "internalType": "bytes4",
          "name": "interfaceId",
          "type": "bytes4"
        }
      ],
      "name": "supportsInterface",
      "outputs": [
        {
          "internalType": "bool",
          "name": "",
          "type": "bool"
        }
      ],
      "stateMutability": "view",
      "type": "function"
    },
    {
      "inputs": [],
      "name": "underlyingContractAddress",
      "outputs": [
        {
          "internalType": "address",
          "name": "",
          "type": "address"
        }
      ],
      "stateMutability": "view",
      "type": "function"
    },
    {
      "inputs": [],
      "name": "userAddresses",
      "outputs": [
        {
          "internalType": "address[]",
          "name": "",
          "type": "address[]"
        }
      ],
      "stateMutability": "view",
      "type": "function"
    },
    {
      "inputs": [
        {
          "internalType": "address",
          "name": "user_",
          "type": "address"
        }
      ],
      "name": "userInfo",
      "outputs": [
        {
          "internalType": "string",
          "name": "",
          "type": "string"
        }
      ],
      "stateMutability": "view",
      "type": "function"
    }
  ],
  "bytecode": "0x608034620003c257601f6200310638819003828101601f1990811685019490926001600160401b039283871183881017620003ac5780839260409889528339602092839181010312620003c257516001600160a01b0381169390849003620003c25785519482860186811085821117620003ac576060870181811086821117620003ac57885260048152637573646360e01b88880152865260025495600196876002558088106200032d575b5090600094600286528486209186935b898510620001fb5750505050505060018060a01b03199173873d813190b60193e229262d3376652c2e06f94f83600354161760035560126011557f1cd6d520d98babae1045eb69c31ecab800996aa332094cb55c0ac10362e9b0c9808252818352868220338352835260ff878320541615620001c2575b507fb6e67d9fc30da7082da03dcb74e53bec9a276f3020bb3303807ebc4efaec9e2c91828252818152868220338352815260ff87832054161562000188575b50505082541617905551612cc890816200041e8239f35b82825281815286822090338352528581208560ff198254161790553391600080516020620030e6833981519152339280a438808062000171565b80825281835286822033835283528682208660ff1982541617905533903390600080516020620030e68339815191528480a43862000132565b805190815184811162000319578b9189918b620002198954620003c7565b84888211620002de575b50505082948c8783116001146200026d5795829186979262000261575b5050600019600383901b1c191690841b1787555b01940194019392620000bb565b01519050388062000240565b90958b83168a8352858320925b818110620002ba5750908697848895949310620002a0575b505050811b01875562000254565b015160001960f88460031b161c1916905538808062000292565b9497939686929691938786015181550195019301928f95929693918d95926200027a565b828b62000306945220600589808601821c8301938887106200030f575b01901c019062000404565b8b388462000223565b93508293620002fb565b634e487b7160e01b8a52604160045260248afd5b600060028152888087832093840193015b8381106200034f57505050620000ab565b6200035b8154620003c7565b806200036c575b500189906200033e565b8681116001146200038357508281555b3862000362565b8184528884206200039e91880160051c810190840162000404565b82888120818355556200037c565b634e487b7160e01b600052604160045260246000fd5b600080fd5b90600182811c92168015620003f9575b6020831014620003e357565b634e487b7160e01b600052602260045260246000fd5b91607f1691620003d7565b81811062000410575050565b600081556001016200040456fe608080604052600436101561001357600080fd5b60003560e01c90816301ffc9a7146120c0575080630506610e1461207357806313bd20e2146120305780631959a00214611fd8578063248a9ca314611fa95780632e010b9414611f805780632f2ff15d14611ecd57806336568abe14611e3b5780633f0b1c4f14611e0f57806349e8629414611cd4578063613cd5f814611c905780636855cbb814611c1d5780637cb25fcf146118f85780638270431c1461180c57806391d14854146117bf57806394b39b091461162a5780639b3b31291461138f5780639eb6c7cc14611354578063a217fddf14611338578063a4870fa91461130e578063a7c9f2d6146112d3578063a8bf563814610ea6578063ab5a10ef1461116d578063b2025e4f1461105d578063b336dee014610f87578063be3eb61014610ef3578063c101eab214610ea6578063c5a887c514610e60578063c5c51dca14610c7a578063c5efc3b414610c1e578063d547741f14610bdd578063e85a03f3146102f4578063f1052af5146102b5578063f6f08005146101ed5763fb54d722146101a057600080fd5b346101e85760403660031901126101e8576001600160a01b036101c1612129565b16600052600c60205260406000206024356000526020526020604060002054604051908152f35b600080fd5b346101e85760603660031901126101e857600435610209612113565b604435918215158093036101e85780600052602090600a825261023960ff60086040600020015460101c16612a1b565b80600052600a825260ff60086040600020015460081c16610285575b600052600d815260406000209160018060a01b03166000525260406000209060ff80198354169116179055600080f35b600e8252604060008181206001600160a01b038681168352908552919020546102b091161515612a5d565b610255565b346101e85760203660031901126101e8576001600160a01b036102d6612129565b166000526007602052602060ff604060002054166040519015158152f35b346101e8576101403660031901126101e85761030e612129565b610316612113565b906044356001600160401b0381116101e8576103369036906004016121b2565b6084356001600160401b0381116101e8576103559036906004016121b2565b9260a4356001600160401b0381116101e8576103759036906004016121b2565b9060c4356001600160401b0381116101e8576103959036906004016121b2565b9060e4359060ff821682036101e857610104359060ff821682036101e857610124359586151587036101e8573360009081527f386d691cc591b54e5a48c6311e5786a6bced3cf2105f61a30def95e63f99260e602052604090205460ff1615610b8457606435600052600a60205260ff60086040600020015460101c16610b3f5761047b9560ff6000951615610b36575b60ff94956040519a6104378c61215a565b60018060a01b038b168c5260643560208d015260408c015260608b015260808a015260a089015260018060a01b031660c08801521660e08601526101008501612831565b15156101208301526001610140830152606435600052600a60205260406000209160018060a01b038151166001600160601b0360a01b8454161783556020810151600184015560408101519283516001600160401b038111610802576104e46002830154612761565b601f8111610aef575b506020601f8211600114610a80578192939495600092610a75575b50508160011b916000199060031b1c19161760028201555b60608201519283516001600160401b038111610802576105436003840154612761565b601f8111610a2e575b506020601f82116001146109bf5781929394956000926109b4575b50508160011b916000199060031b1c19161760038301555b60808301519283516001600160401b038111610802576105a26004850154612761565b601f811161096d575b506020601f82116001146108fe5781929394956000926108f3575b50508160011b916000199060031b1c19161760048401555b60a08101519283516001600160401b038111610802576106016005830154612761565b601f81116108ac575b506020601f8211600114610839578190600894959660009261082e575b50508160011b916000199060031b1c19161760058201555b6006810160018060a01b0360c0850151166001600160601b0360a01b82541617905560e08301516007820155019061010081015190600382101561081857825460ff62ff000061014061ff00610120860151151560081b16940151151560101b1693169062ffffff19161717179055600b54600160401b811015610802578060016106cd9201600b556128cc565b81549060031b90600019821b8092606435901b169119161790556064356000526005602052604060002060018060a01b038216600052602052604060002060ff19906001828254161790556064356000526004602052610731826040600020612945565b606435600052600d602052604060002060018060a01b038316600052602052604060002060018282541617905560076020526001604060002091825416179055606435600052600a6020527f293112f57e1499e465d2297b938e4b29a3ab8fe5e214951585a56e3d439767166001604060002001546002604060002001906107cb604051928392835260406020840152604083019061279b565b0390a1606435600052600d60205260406000209060018060a01b0316600052602052602060ff604060002054166040519015158152f35b634e487b7160e01b600052604160045260246000fd5b634e487b7160e01b600052602160045260246000fd5b015190508680610627565b6005830160005260206000209560005b601f198416811061089457509582916008959697600194601f1981161061087b575b505050811b01600582015561063f565b015160001960f88460031b161c1916905586808061086b565b82820151885560019097019660209283019201610849565b600583016000526020600020601f830160051c8101602084106108ec575b601f830160051c820181106108e057505061060a565b600081556001016108ca565b50806108ca565b0151905085806105c6565b6004850160005260206000209060005b601f1984168110610955575060019394959683601f1981161061093c575b505050811b0160048401556105de565b015160001960f88460031b161c1916905585808061092c565b9091602060018192858b01518155019301910161090e565b600485016000526020600020601f830160051c8101602084106109ad575b601f830160051c820181106109a15750506105ab565b6000815560010161098b565b508061098b565b015190508580610567565b6003840160005260206000209060005b601f1984168110610a16575060019394959683601f198116106109fd575b505050811b01600383015561057f565b015160001960f88460031b161c191690558580806109ed565b9091602060018192858b0151815501930191016109cf565b600384016000526020600020601f830160051c810160208410610a6e575b601f830160051c82018110610a6257505061054c565b60008155600101610a4c565b5080610a4c565b015190508580610508565b6002830160005260206000209060005b601f1984168110610ad7575060019394959683601f19811610610abe575b505050811b016002820155610520565b015160001960f88460031b161c19169055858080610aae565b9091602060018192858b015181550193019101610a90565b600283016000526020600020601f830160051c810160208410610b2f575b601f830160051c82018110610b235750506104ed565b60008155600101610b0d565b5080610b0d565b60009450610426565b60405162461bcd60e51b815260206004820152601f60248201527f506f6f6c207769746820536c6f74496420616c726561647920657869737473006044820152606490fd5b60405162461bcd60e51b815260206004820152602b60248201527f53656e646572206e6f7420617574686f72697a656420746f207265676973746560448201526a1c881d1a1a5cc81cdb1bdd60aa1b6064820152608490fd5b346101e85760403660031901126101e857610c1c600435610bfc612113565b90806000526000602052610c1760016040600020015461233c565b612670565b005b346101e85760403660031901126101e857602435806000526005602052604060002033600052602052610c5860ff60406000205416612987565b33600052600c6020526040600020600435600052602052604060002055600080f35b346101e85760003660031901126101e857600b54610c97816129cb565b90610ca56040519283612176565b808252601f19610cb4826129cb565b0160005b818110610e4957505060005b818110610d2a576040805160208082528551818301819052600093600582901b8401810192808901929185015b828710610cfe5785850386f35b909192938280610d1a600193603f198a82030186528851612285565b9601920196019592919092610cf1565b80610d37610e44926128cc565b9054600391821b1c6000526020600a8152604060002090610d90610daa60405194610d618661215a565b84546001600160a01b039081168752600186015494870194909452604051610d9781610d908160028a0161279b565b0382612176565b604087015260405192838092870161279b565b6060840152604051610dc381610d90816004870161279b565b6080840152604051610ddc81610d90816005870161279b565b60a084015260068201541660c0830152600781015460e0830152600880910154809160ff928391610e138383166101008801612831565b1c16151561012084015260101c161515610140820152610e338286612a07565b52610e3e8185612a07565b506129e2565b610cc4565b602090610e5461270b565b82828701015201610cb8565b346101e85760203660031901126101e8576001600160a01b03610e81612129565b16600052600660205260ff604060002054166040516004821015610818576020918152f35b346101e85760403660031901126101e857610ebf612113565b600435600052600d60205260406000209060018060a01b0316600052602052602060ff604060002054166040519015158152f35b346101e85760003660031901126101e857604051806009549182815260208091019260096000527f6e1540171b6c0c960b71a7020d9f60077f6af931a8bbf590da0223dacf75c7af916000905b828210610f6757610f6385610f5781890382612176565b60405191829182612241565b0390f35b83546001600160a01b031686529485019460019384019390910190610f40565b346101e8576020806003193601126101e85760043580600052600a8252610fbb60ff60086040600020015460101c16612a1b565b80600052600a825260ff60086040600020015460081c16611032575b8060005260058252604060002033600052825260ff6040600020541615610ffa57005b8060005260048252611010336040600020612945565b600090815260058252604080822033835290925220805460ff19166001179055005b600e82526040600081812033825284522054611058906001600160a01b03161515612a5d565b610fd7565b346101e85760203660031901126101e85761107661270b565b50600435600052600a602052610f63604060002060ff60086040519261109b8461215a565b80546001600160a01b039081168552600182015460208601526040516110c881610d90816002870161279b565b60408601526040516110e181610d90816003870161279b565b60608601526040516110fa81610d90816004870161279b565b608086015260405161111381610d90816005870161279b565b60a086015260068201541660c0850152600781015460e0850152015461113f8282166101008501612831565b818160081c16151561012084015260101c161515610140820152604051918291602083526020830190612285565b346101e85760003660031901126101e85760095461118a816129cb565b906111986040519283612176565b808252601f196111a7826129cb565b0160005b8181106112ae57505060005b818110611235576040805160208082528551818301819052600093600582901b8401810192808901929185015b8287106111f15785850386f35b909192938280611225600193603f198a82030186526040838a51878060a01b0381511684520151918185820152019061221c565b96019201960195929190926111e4565b806112956112456112a993612895565b91905461129c61125485612895565b949060018060a01b03809154600397881b1c1660005260209360088552604060002092604051976112848961213f565b1b1c1685526040519384809261279b565b0383612176565b820152610e338286612a07565b6111b7565b6020906040516112bd8161213f565b60008152826060818301528287010152016111ab565b346101e85760003660031901126101e85760206040517f1cd6d520d98babae1045eb69c31ecab800996aa332094cb55c0ac10362e9b0c98152f35b346101e85760403660031901126101e857600435600052600f602052602435604060002055600080f35b346101e85760003660031901126101e857602060405160008152f35b346101e85760003660031901126101e85760206040517fb6e67d9fc30da7082da03dcb74e53bec9a276f3020bb3303807ebc4efaec9e2c8152f35b346101e8576020806003193601126101e8576001600160401b03906004358281116101e8576113c29036906004016121b2565b916113cf8351151561283d565b33600052600882526113e5604060002054612761565b61150157336000526008825260406000209183519182116108025761140a8354612761565b601f81116114bb575b5080601f8311600114611455575081929360009261144a575b50508160011b916000199060031b1c19161790555b610c1c33612903565b01519050838061142c565b90601f198316948460005282600020926000905b8782106114a357505083600195961061148a575b505050811b019055611441565b015160001960f88460031b161c1916905583808061147d565b80600185968294968601518155019501930190611469565b8360005281600020601f840160051c8101918385106114f7575b601f0160051c01905b8181106114eb5750611413565b600081556001016114de565b90915081906114d5565b3360005260088252611517604060002054612761565b61151d57005b336000526008825260406000209183519182116108025761153e8354612761565b601f81116115e4575b5080601f83116001146115815750819293600092611576575b50508160011b916000199060031b1c1916179055005b015190508380611560565b90601f198316948460005282600020926000905b8782106115cc5750508360019596106115b3575b505050811b019055005b015160001960f88460031b161c191690558380806115a9565b80600185968294968601518155019501930190611595565b8360005281600020601f840160051c810191838510611620575b601f0160051c01905b8181106116145750611547565b60008155600101611607565b90915081906115fe565b346101e85760603660031901126101e857611643612129565b6044359060243560048310156101e85780600052602091600d835260406000209060018060a01b0316600052825260ff60406000205416156117545733321461171757908160079260005260058252604060002033600052825260ff60406000205416156116d9575b5060068152604060002060ff199360ff858354169116179055526001604060002091825416179055600080f35b80600052600482526116ef336040600020612945565b6000526005815260406000203360005281526040600020600160ff19825416179055836116ac565b60405162461bcd60e51b815260048101839052601560248201527410d85b1b195c881b9bdd08184818dbdb9d1c9858dd605a1b6044820152606490fd5b60405162461bcd60e51b815260048101839052603960248201527f436f6e74726163742061646d696e206973206e6f7420617574686f72697a656460448201527f20746f20726567697374657220746f207468697320736c6f74000000000000006064820152608490fd5b346101e85760403660031901126101e8576117d8612113565b600435600052600060205260406000209060018060a01b0316600052602052602060ff604060002054166040519015158152f35b346101e85760403660031901126101e857600435611828612113565b9080600052602090600a825261184b60ff60086040600020015460101c16612a1b565b80600052600d8252604060002033600052825260ff604060002054161561189e576000908152600e825260408082206001600160a01b039094168252929091522080546001600160a01b03191633179055005b60405162461bcd60e51b815260048101839052602c60248201527f53656e646572206e6f7420617574686f72697a656420746f20696e766974652060448201526b1d1bc81d1a1a5cc81cdb1bdd60a21b6064820152608490fd5b346101e85760403660031901126101e857611911612129565b6001600160401b03906024358281116101e8576119329036906004016121b2565b916001600160a01b038216908115611bcc573360009081527fa898948c460b9e784c469ea950cc4131ff1f825b8225c49c524e74d4bf0ce58260209081526040909120549092906119859060ff16612987565b6119918551151561283d565b80600052600883526119a7604060002054612761565b611ac657600052600882526040600020918451918211610802576119cb8354612761565b601f8111611a80575b5080601f8311600114611a1457508190610c1c95600092611a09575b50508160011b916000199060031b1c1916179055612903565b0151905085806119f0565b9194601f1986168460005283600020936000905b828210611a68575050916001939187610c1c989410611a4f575b505050811b019055612903565b015160001960f88460031b161c19169055858080611a42565b80600186978294978701518155019601940190611a28565b8360005281600020601f840160051c810191838510611abc575b601f0160051c01905b818110611ab057506119d4565b60008155600101611aa3565b9091508190611a9a565b809192935060005260088352611ae0604060002054612761565b611ae657005b60005260088252604060002091835191821161080257611b068354612761565b601f8111611b86575b5080601f8311600114611b3d57508192936000926115765750508160011b916000199060031b1c1916179055005b90601f198316948460005282600020926000905b878210611b6e5750508360019596106115b357505050811b019055005b80600185968294968601518155019501930190611b51565b8360005281600020601f840160051c810191838510611bc2575b601f0160051c01905b818110611bb65750611b0f565b60008155600101611ba9565b9091508190611ba0565b60405162461bcd60e51b815260206004820152602360248201527f5573657220616464726573732063616e6e6f74206265207a65726f206164647260448201526265737360e81b6064820152608490fd5b346101e8576020806003193601126101e85760043560005260048152604060002090604051908181845491828152019360005281600020916000905b828210611c7057610f6385610f5781890382612176565b83546001600160a01b031686529485019460019384019390910190611c59565b346101e85760203660031901126101e8576004356001600160401b0381116101e857611cca611cc560209236906004016121b2565b612aa9565b6040519015158152f35b346101e85760403660031901126101e857611ced612129565b6024359081600052602090600d8252604060002033600052825260ff6040600020541615611db457604051637795524560e01b8152926001600160a01b039183908590600490829086165afa938415611da857600094611d70575b50600052600d825260406000209216600052526040600020600160ff19825416179055600080f35b9093508281813d8311611da1575b611d888183612176565b810103126101e8575181811681036101e8579284611d48565b503d611d7e565b6040513d6000823e3d90fd5b60405162461bcd60e51b815260048101839052602d60248201527f53656e646572206e6f7420617574686f72697a656420746f20617070726f766560448201526c081bdb881d1a1a5cc81cdb1bdd609a1b6064820152608490fd5b346101e85760203660031901126101e857600435600052600f6020526020604060002054604051908152f35b346101e85760403660031901126101e857611e54612113565b336001600160a01b03821603611e7057610c1c90600435612670565b60405162461bcd60e51b815260206004820152602f60248201527f416363657373436f6e74726f6c3a2063616e206f6e6c792072656e6f756e636560448201526e103937b632b9903337b91039b2b63360891b6064820152608490fd5b346101e85760403660031901126101e857600435611ee9612113565b816000526000602052611f0360016040600020015461233c565b81600052600060205260406000209060018060a01b0316908160005260205260ff6040600020541615611f3257005b8160005260006020526040600020816000526020526040600020600160ff1982541617905533917f2f8788117e7eff1d82e926ec794901d17c78024a50270940304540a733656f0d600080a4005b346101e85760003660031901126101e8576003546040516001600160a01b039091168152602090f35b346101e85760203660031901126101e85760043560005260006020526020600160406000200154604051908152f35b346101e85760203660031901126101e8576001600160a01b03611ff9612129565b166000526008602052610f63610d9061201c60406000206040519283809261279b565b60405191829160208352602083019061221c565b346101e85760403660031901126101e8576004356001600160401b0381116101e857611cca61206560209236906004016121b2565b61206d612113565b90612c00565b346101e85760403660031901126101e85761208c612113565b600435600052600560205260406000209060018060a01b0316600052602052602060ff604060002054166040519015158152f35b346101e85760203660031901126101e8576004359063ffffffff60e01b82168092036101e857602091637965db0b60e01b8114908115612102575b5015158152f35b6301ffc9a760e01b149050836120fb565b602435906001600160a01b03821682036101e857565b600435906001600160a01b03821682036101e857565b604081019081106001600160401b0382111761080257604052565b61016081019081106001600160401b0382111761080257604052565b90601f801991011681019081106001600160401b0382111761080257604052565b6001600160401b03811161080257601f01601f191660200190565b81601f820112156101e8578035906121c982612197565b926121d76040519485612176565b828452602083830101116101e857816000926020809301838601378301015290565b60005b83811061220c5750506000910152565b81810151838201526020016121fc565b90602091612235815180928185528580860191016121f9565b601f01601f1916010190565b6020908160408183019282815285518094520193019160005b828110612268575050505090565b83516001600160a01b03168552938101939281019260010161225a565b9060018060a01b0391828151168252602081015160208301526122f66122e46122d26122c0604085015161016080604089015287019061221c565b6060850151868203606088015261221c565b6080840151858203608087015261221c565b60a083015184820360a086015261221c565b9260c08201511660c083015260e081015160e083015261010080820151906003821015610818578301526101208082015115159083015261014080910151151591015290565b600090808252602090828252604092838120338252835260ff8482205416156123655750505050565b8351916001600160401b039033606085018381118682101761265c578752602a855285850191873684378551156126485760308353855191600192831015612634576078602188015360295b8381116125ca5750612588579087519360808501908582109082111761257457885260428452868401946060368737845115612560576030865384518210156125605790607860218601536041915b8183116124f2575050506124b0576124ac938693612490936124816048946124589a519a8b957f416363657373436f6e74726f6c3a206163636f756e74200000000000000000008c88015251809260378801906121f9565b8401917001034b99036b4b9b9b4b733903937b6329607d1b6037840152518093868401906121f9565b01036028810187520185612176565b5192839262461bcd60e51b84526004840152602483019061221c565b0390fd5b60648587519062461bcd60e51b825280600483015260248201527f537472696e67733a20686578206c656e67746820696e73756666696369656e746044820152fd5b909192600f8116601081101561254c576f181899199a1a9b1b9c1cb0b131b232b360811b901a61252285886126e4565b5360041c92801561253857600019019190612400565b634e487b7160e01b82526011600452602482fd5b634e487b7160e01b83526032600452602483fd5b634e487b7160e01b81526032600452602490fd5b634e487b7160e01b86526041600452602486fd5b60648789519062461bcd60e51b825280600483015260248201527f537472696e67733a20686578206c656e67746820696e73756666696369656e746044820152fd5b90600f81166010811015612620576f181899199a1a9b1b9c1cb0b131b232b360811b901a6125f8838a6126e4565b5360041c90801561260c57600019016123b1565b634e487b7160e01b87526011600452602487fd5b634e487b7160e01b88526032600452602488fd5b634e487b7160e01b86526032600452602486fd5b634e487b7160e01b85526032600452602485fd5b634e487b7160e01b85526041600452602485fd5b9060009180835282602052604083209160018060a01b03169182845260205260ff6040842054166126a057505050565b80835282602052604083208284526020526040832060ff1981541690557ff6391f5c32d9c69d2a47ea670b442974b53935d1edc7fd64eb21e047a839171b339380a4565b9081518110156126f5570160200190565b634e487b7160e01b600052603260045260246000fd5b604051906127188261215a565b816101406000918281528260208201526060604082015260608082015260606080820152606060a08201528260c08201528260e082015282610100820152826101208201520152565b90600182811c92168015612791575b602083101461277b57565b634e487b7160e01b600052602260045260246000fd5b91607f1691612770565b90600092918054916127ac83612761565b91828252600193848116908160001461280e57506001146127ce575b50505050565b90919394506000526020928360002092846000945b8386106127fa5750505050010190388080806127c8565b8054858701830152940193859082016127e3565b9294505050602093945060ff191683830152151560051b010190388080806127c8565b60038210156108185752565b1561284457565b60405162461bcd60e51b8152602060048201526024808201527f6d6574616461746155726920617267756d656e742063616e6e6f7420626520656044820152636d70747960e01b6064820152608490fd5b6009548110156126f55760096000527f6e1540171b6c0c960b71a7020d9f60077f6af931a8bbf590da0223dacf75c7af0190600090565b600b548110156126f557600b6000527f0175b7a638427703f0dbe7bb9bbf987a2551717b34e79f33b5b1008d1fa01db90190600090565b600954600160401b811015610802578060016129229201600955612895565b819291549060031b9160018060a01b039283811b93849216901b16911916179055565b805490600160401b82101561080257600182018082558210156126f5576000526020600020019060018060a01b03166001600160601b0360a01b825416179055565b1561298e57565b60405162461bcd60e51b815260206004820152601560248201527414d95b99195c881b9bdd08185d5d1a1bdc9a5e9959605a1b6044820152606490fd5b6001600160401b0381116108025760051b60200190565b60001981146129f15760010190565b634e487b7160e01b600052601160045260246000fd5b80518210156126f55760209160051b010190565b15612a2257565b60405162461bcd60e51b815260206004820152601360248201527214db1bdd08191bd95cc81b9bdd08195e1a5cdd606a1b6044820152606490fd5b15612a6457565b60405162461bcd60e51b815260206004820152601a60248201527f53656e646572206e6f7420696e766974656420746f206a6f696e0000000000006044820152606490fd5b60009060029182549260019260018060a01b03845416925b858110612ad357505050505050600090565b826000526040805190612b0c8261129581867f405787fa12a823e0f2b7631cc41b3ba8828b3321ca811111fa75cd3aa3bb5ace0161279b565b815160208093012091815191630c94fdef60e41b835281600484015260008380612b39602482018a61221c565b03818b5afa928315612bf557600093612b70575b5050815191012014612b6757612b62906129e2565b612ac1565b50505050905090565b9091923d8082843e612b828184612176565b8201918481840312612bf1578051906001600160401b038211612bed57019082601f83011215612bea57815192612bc4612bbb85612197565b95519586612176565b838552858484010111612bea575090612be2918480850191016121f9565b903880612b4d565b80fd5b8280fd5b5080fd5b50513d6000823e3d90fd5b7ff2976e19ebb8b07ec2d57d5bbcd19e92fd5807e202df50ee9c0d1b675cbee91290602081519101206826a5aa2fa0a226a4a760b91b6020604051612c448161213f565b60098152015214612c555750600090565b6001600160a01b031660009081527fa898948c460b9e784c469ea950cc4131ff1f825b8225c49c524e74d4bf0ce582602052604090205460ff169056fea2646970667358221220d2fc282476c2fafe3e0a9b41e605bd0a0529ddb35fcdb8c8fcc3c7d07c3a4e1d64736f6c634300081100332f8788117e7eff1d82e926ec794901d17c78024a50270940304540a733656f0d",
  "linkReferences": {},
  "deployedLinkReferences": {}
}