{
  "_format": "hh-sol-artifact-1",
  "contractName": "ERC3525MetadataDescriptor",
  "sourceName": "@solvprotocol/erc-3525/periphery/ERC3525MetadataDescriptor.sol",
  "abi": [
    {
      "inputs": [],
      "name": "constructContractURI",
      "outputs": [
        {
          "internalType": "string",
          "name": "",
          "type": "string"
        }
      ],
      "stateMutability": "view",
      "type": "function"
    },
    {
      "inputs": [
        {
          "internalType": "uint256",
          "name": "slot_",
          "type": "uint256"
        }
      ],
      "name": "constructSlotURI",
      "outputs": [
        {
          "internalType": "string",
          "name": "",
          "type": "string"
        }
      ],
      "stateMutability": "view",
      "type": "function"
    },
    {
      "inputs": [
        {
          "internalType": "uint256",
          "name": "tokenId_",
          "type": "uint256"
        }
      ],
      "name": "constructTokenURI",
      "outputs": [
        {
          "internalType": "string",
          "name": "",
          "type": "string"
        }
      ],
      "stateMutability": "view",
      "type": "function"
    }
  ],
  "bytecode": "0x6080806040523461001657610b1b908161001c8239f35b600080fdfe608060408181526004918236101561001657600080fd5b600090813560e01c9081636c037f8a1461058757508063725fa09c146103af5763894b4c2e1461004557600080fd5b3461032b57602092836003193601126103ab5782516306fdde0360e01b8152813592909181838281335afa9283156103a157829361037d575b50610088846109a2565b936100d46022875180978a6100a6818401998a8151938492016106c1565b820161202360f01b8c8201526100c58c835193849187850191016106c1565b0103600281018852018661075e565b8551926100e084610710565b8084528651926100ef84610710565b8184528751631398fee160e31b81528181018490528981602481335afa8015610373578390610340575b61012391506109a2565b9288519163131f9f3f60e11b83528201528881602481335afa9182156103355780926102ff575b5050946102a3606c6102f19689603d9761028a6102fb9d986102a8986101736102e19f9e6109a2565b9185519461018086610742565b600286528c6101e860296101bb838a019a617b7d60f01b8c52519e8f9c8d91683d913730b6b2911d1160b91b878401525193849201906106c1565b8a0191701116113232b9b1b934b83a34b7b7111d1160791b60298401528351938491603a850191016106c1565b016a11161134b6b0b3b2911d1160a91b603a8201526102118d83519384916045850191016106c1565b016c1116113130b630b731b2911d1160991b604582015261023c8c83519384916052850191016106c1565b016911161139b637ba111d1160b11b6052820152610263825180938d605c850191016106c1565b01916e111611383937b832b93a34b2b9911d60891b605c840152518093606b8401906106c1565b01607d60f81b606b82015203604c81018452018261075e565b610835565b845195827f646174613a6170706c69636174696f6e2f6a736f6e3b6261736536342c0000008894850152825192839186860191016106c1565b810103601d81018552018361075e565b51918291826106e4565b0390f35b9091508882813d831161032e575b610317818361075e565b8101031261032b5750516102a3606c61014a565b80fd5b503d61030d565b8851903d90823e3d90fd5b508981813d831161036c575b610356818361075e565b81010312610368576101239051610119565b8280fd5b503d61034c565b89513d85823e3d90fd5b61039a9193503d8084833e610392818361075e565b81019061079c565b913861007e565b85513d84823e3d90fd5b5080fd5b5082346103ab57816003193601126103ab5782516306fdde0360e01b815282818381335afa90811561057d578391610563575b508351916103ef83610710565b8383528451906103fe82610710565b8482528551633e7e866960e01b815260209590918690839081335afa918215610557578192610518575b506102fb6102e1886102f1603d8a6102a88b6102a3605a8d8d61044d60ff8f166109a2565b908a51958693683d913730b6b2911d1160b91b8a860152610477815180928c6029890191016106c1565b8401701116113232b9b1b934b83a34b7b7111d1160791b60298201526104a6825180938c603a850191016106c1565b016a11161134b6b0b3b2911d1160a91b603a8201526104ce825180938b6045850191016106c1565b01721116113b30b63ab2a232b1b4b6b0b639911d1160691b60458201526104fe825180938a6058850191016106c1565b0161227d60f01b605882015203603a81018452018261075e565b9091508581813d8311610550575b610530818361075e565b810103126103ab57519060ff8216820361032b57506102a86102fb610428565b503d610526565b508651903d90823e3d90fd5b61057791503d8085833e610392818361075e565b846103e2565b84513d85823e3d90fd5b8391503461036857602090816003193601126106bd57603d6102e193926102a86102fb966102a36055866105bd6102f198610710565b8381528851936105cc85610710565b8085528951906105db82610710565b815289516105e881610742565b600281526106a488820192615b5d60f01b84528c51978895683d913730b6b2911d1160b91b8c8801526106258c825192839160298b0191016106c1565b8601701116113232b9b1b934b83a34b7b7111d1160791b60298201526106558c8351938491603a850191016106c1565b016a11161134b6b0b3b2911d1160a91b603a82015261067d825180938d6045850191016106c1565b01916e111611383937b832b93a34b2b9911d60891b604584015251809360548401906106c1565b01607d60f81b605482015203603581018452018261075e565b8380fd5b60005b8381106106d45750506000910152565b81810151838201526020016106c4565b6040916020825261070481518092816020860152602086860191016106c1565b601f01601f1916010190565b6020810190811067ffffffffffffffff82111761072c57604052565b634e487b7160e01b600052604160045260246000fd5b6040810190811067ffffffffffffffff82111761072c57604052565b90601f8019910116810190811067ffffffffffffffff82111761072c57604052565b67ffffffffffffffff811161072c57601f01601f191660200190565b6020818303126107fe5780519067ffffffffffffffff82116107fe570181601f820112156107fe5780516107cf81610780565b926107dd604051948561075e565b818452602082840101116107fe576107fb91602080850191016106c1565b90565b600080fd5b9061080d82610780565b61081a604051918261075e565b828152809261082b601f1991610780565b0190602036910137565b80511561098e576040516060810181811067ffffffffffffffff82111761072c57604052604081527f4142434445464748494a4b4c4d4e4f505152535455565758595a61626364656660208201527f6768696a6b6c6d6e6f707172737475767778797a303132333435363738392b2f60408201528151600292838201809211610978576003918290046001600160fe1b0381168103610978576108db908594951b610803565b936020850193829183518401925b838110610927575050505051068060011461091457600214610909575090565b603d90600019015390565b50603d9081600019820153600119015390565b85600491979293949701918251600190603f9082828260121c16880101518453828282600c1c16880101518385015382828260061c16880101518885015316850101518782015301959291906108e9565b634e487b7160e01b600052601160045260246000fd5b5060405161099b81610710565b6000815290565b806000917a184f03e93ff9f4daa797ed6e38ed64bf6a1f01000000000000000080821015610ad7575b506d04ee2d6d415b85acef810000000080831015610ac8575b50662386f26fc1000080831015610ab9575b506305f5e10080831015610aaa575b5061271080831015610a9b575b506064821015610a8b575b600a80921015610a81575b600190816021610a39828701610803565b95860101905b610a4b575b5050505090565b600019019083906f181899199a1a9b1b9c1cb0b131b232b360811b8282061a835304918215610a7c57919082610a3f565b610a44565b9160010191610a28565b9190606460029104910191610a1d565b60049193920491019138610a12565b60089193920491019138610a05565b601091939204910191386109f6565b602091939204910191386109e4565b6040935081049150386109cb56fea26469706673582212207229cd25497b04f58f313b15ff1d7123db6cf631bf1ccd4bb766b80e296ac09464736f6c63430008110033",
  "linkReferences": {},
  "deployedLinkReferences": {}
}