{
  "_format": "hh-sol-artifact-1",
  "contractName": "SpendLock",
  "sourceName": "contracts/SpendLock.sol",
  "abi": [
    {
      "inputs": [
        {
          "internalType": "string",
          "name": "name_",
          "type": "string"
        },
        {
          "internalType": "string",
          "name": "symbol_",
          "type": "string"
        },
        {
          "internalType": "address",
          "name": "meriticLockAdminAddress_",
          "type": "address"
        }
      ],
      "stateMutability": "nonpayable",
      "type": "constructor"
    },
    {
      "anonymous": false,
      "inputs": [
        {
          "indexed": true,
          "internalType": "address",
          "name": "owner",
          "type": "address"
        },
        {
          "indexed": true,
          "internalType": "address",
          "name": "approved",
          "type": "address"
        },
        {
          "indexed": true,
          "internalType": "uint256",
          "name": "tokenId",
          "type": "uint256"
        }
      ],
      "name": "Approval",
      "type": "event"
    },
    {
      "anonymous": false,
      "inputs": [
        {
          "indexed": true,
          "internalType": "address",
          "name": "owner",
          "type": "address"
        },
        {
          "indexed": true,
          "internalType": "address",
          "name": "operator",
          "type": "address"
        },
        {
          "indexed": false,
          "internalType": "bool",
          "name": "approved",
          "type": "bool"
        }
      ],
      "name": "ApprovalForAll",
      "type": "event"
    },
    {
      "anonymous": false,
      "inputs": [
        {
          "indexed": true,
          "internalType": "address",
          "name": "previousOwner",
          "type": "address"
        },
        {
          "indexed": true,
          "internalType": "address",
          "name": "newOwner",
          "type": "address"
        }
      ],
      "name": "OwnershipTransferred",
      "type": "event"
    },
    {
      "anonymous": false,
      "inputs": [
        {
          "indexed": true,
          "internalType": "address",
          "name": "from",
          "type": "address"
        },
        {
          "indexed": true,
          "internalType": "address",
          "name": "to",
          "type": "address"
        },
        {
          "indexed": true,
          "internalType": "uint256",
          "name": "tokenId",
          "type": "uint256"
        }
      ],
      "name": "Transfer",
      "type": "event"
    },
    {
      "inputs": [
        {
          "internalType": "address",
          "name": "to",
          "type": "address"
        },
        {
          "internalType": "uint256",
          "name": "tokenId",
          "type": "uint256"
        }
      ],
      "name": "approve",
      "outputs": [],
      "stateMutability": "nonpayable",
      "type": "function"
    },
    {
      "inputs": [
        {
          "internalType": "address",
          "name": "owner",
          "type": "address"
        }
      ],
      "name": "balanceOf",
      "outputs": [
        {
          "internalType": "uint256",
          "name": "",
          "type": "uint256"
        }
      ],
      "stateMutability": "view",
      "type": "function"
    },
    {
      "inputs": [
        {
          "internalType": "uint256",
          "name": "tokenId_",
          "type": "uint256"
        }
      ],
      "name": "burn",
      "outputs": [],
      "stateMutability": "nonpayable",
      "type": "function"
    },
    {
      "inputs": [
        {
          "internalType": "uint256",
          "name": "tokenId",
          "type": "uint256"
        }
      ],
      "name": "getApproved",
      "outputs": [
        {
          "internalType": "address",
          "name": "",
          "type": "address"
        }
      ],
      "stateMutability": "view",
      "type": "function"
    },
    {
      "inputs": [
        {
          "internalType": "address",
          "name": "_owner",
          "type": "address"
        },
        {
          "internalType": "address",
          "name": "_operator",
          "type": "address"
        }
      ],
      "name": "isApprovedForAll",
      "outputs": [
        {
          "internalType": "bool",
          "name": "isOperator",
          "type": "bool"
        }
      ],
      "stateMutability": "view",
      "type": "function"
    },
    {
      "inputs": [
        {
          "internalType": "address",
          "name": "_to",
          "type": "address"
        }
      ],
      "name": "mintTo",
      "outputs": [
        {
          "internalType": "uint256",
          "name": "",
          "type": "uint256"
        }
      ],
      "stateMutability": "nonpayable",
      "type": "function"
    },
    {
      "inputs": [],
      "name": "msgSender",
      "outputs": [
        {
          "internalType": "address",
          "name": "",
          "type": "address"
        }
      ],
      "stateMutability": "view",
      "type": "function"
    },
    {
      "inputs": [],
      "name": "name",
      "outputs": [
        {
          "internalType": "string",
          "name": "",
          "type": "string"
        }
      ],
      "stateMutability": "view",
      "type": "function"
    },
    {
      "inputs": [],
      "name": "owner",
      "outputs": [
        {
          "internalType": "address",
          "name": "",
          "type": "address"
        }
      ],
      "stateMutability": "view",
      "type": "function"
    },
    {
      "inputs": [
        {
          "internalType": "uint256",
          "name": "tokenId",
          "type": "uint256"
        }
      ],
      "name": "ownerOf",
      "outputs": [
        {
          "internalType": "address",
          "name": "",
          "type": "address"
        }
      ],
      "stateMutability": "view",
      "type": "function"
    },
    {
      "inputs": [],
      "name": "renounceOwnership",
      "outputs": [],
      "stateMutability": "nonpayable",
      "type": "function"
    },
    {
      "inputs": [
        {
          "internalType": "address",
          "name": "from",
          "type": "address"
        },
        {
          "internalType": "address",
          "name": "to",
          "type": "address"
        },
        {
          "internalType": "uint256",
          "name": "tokenId",
          "type": "uint256"
        }
      ],
      "name": "safeTransferFrom",
      "outputs": [],
      "stateMutability": "nonpayable",
      "type": "function"
    },
    {
      "inputs": [
        {
          "internalType": "address",
          "name": "from",
          "type": "address"
        },
        {
          "internalType": "address",
          "name": "to",
          "type": "address"
        },
        {
          "internalType": "uint256",
          "name": "tokenId",
          "type": "uint256"
        },
        {
          "internalType": "bytes",
          "name": "data",
          "type": "bytes"
        }
      ],
      "name": "safeTransferFrom",
      "outputs": [],
      "stateMutability": "nonpayable",
      "type": "function"
    },
    {
      "inputs": [
        {
          "internalType": "address",
          "name": "operator",
          "type": "address"
        },
        {
          "internalType": "bool",
          "name": "approved",
          "type": "bool"
        }
      ],
      "name": "setApprovalForAll",
      "outputs": [],
      "stateMutability": "nonpayable",
      "type": "function"
    },
    {
      "inputs": [
        {
          "internalType": "bytes4",
          "name": "interfaceId",
          "type": "bytes4"
        }
      ],
      "name": "supportsInterface",
      "outputs": [
        {
          "internalType": "bool",
          "name": "",
          "type": "bool"
        }
      ],
      "stateMutability": "view",
      "type": "function"
    },
    {
      "inputs": [],
      "name": "symbol",
      "outputs": [
        {
          "internalType": "string",
          "name": "",
          "type": "string"
        }
      ],
      "stateMutability": "view",
      "type": "function"
    },
    {
      "inputs": [
        {
          "internalType": "uint256",
          "name": "tokenId",
          "type": "uint256"
        }
      ],
      "name": "tokenURI",
      "outputs": [
        {
          "internalType": "string",
          "name": "",
          "type": "string"
        }
      ],
      "stateMutability": "view",
      "type": "function"
    },
    {
      "inputs": [
        {
          "internalType": "address",
          "name": "from",
          "type": "address"
        },
        {
          "internalType": "address",
          "name": "to",
          "type": "address"
        },
        {
          "internalType": "uint256",
          "name": "tokenId",
          "type": "uint256"
        }
      ],
      "name": "transferFrom",
      "outputs": [],
      "stateMutability": "nonpayable",
      "type": "function"
    },
    {
      "inputs": [
        {
          "internalType": "address",
          "name": "newOwner",
          "type": "address"
        }
      ],
      "name": "transferOwnership",
      "outputs": [],
      "stateMutability": "nonpayable",
      "type": "function"
    },
    {
      "inputs": [
        {
          "internalType": "address",
          "name": "from_",
          "type": "address"
        },
        {
          "internalType": "address",
          "name": "to_",
          "type": "address"
        },
        {
          "internalType": "uint256",
          "name": "tokenId_",
          "type": "uint256"
        }
      ],
      "name": "transferToken",
      "outputs": [],
      "stateMutability": "payable",
      "type": "function"
    }
  ],
  "bytecode": "0x60806040523480156200001157600080fd5b5060405162001aba38038062001aba8339810160408190526200003491620001b4565b82826000620000448382620002d0565b506001620000538282620002d0565b505050620000706200006a6200009960201b60201c565b6200009d565b600880546001600160a01b0319166001600160a01b0392909216919091179055506200039c9050565b3390565b600680546001600160a01b038381166001600160a01b0319831681179093556040519116919082907f8be0079c531659141344cd1fd0a4f28419497f9722a3daafe3b4186f6b6457e090600090a35050565b634e487b7160e01b600052604160045260246000fd5b600082601f8301126200011757600080fd5b81516001600160401b0380821115620001345762000134620000ef565b604051601f8301601f19908116603f011681019082821181831017156200015f576200015f620000ef565b816040528381526020925086838588010111156200017c57600080fd5b600091505b83821015620001a0578582018301518183018401529082019062000181565b600093810190920192909252949350505050565b600080600060608486031215620001ca57600080fd5b83516001600160401b0380821115620001e257600080fd5b620001f08783880162000105565b945060208601519150808211156200020757600080fd5b50620002168682870162000105565b604086015190935090506001600160a01b03811681146200023657600080fd5b809150509250925092565b600181811c908216806200025657607f821691505b6020821081036200027757634e487b7160e01b600052602260045260246000fd5b50919050565b601f821115620002cb57600081815260208120601f850160051c81016020861015620002a65750805b601f850160051c820191505b81811015620002c757828155600101620002b2565b5050505b505050565b81516001600160401b03811115620002ec57620002ec620000ef565b6200030481620002fd845462000241565b846200027d565b602080601f8311600181146200033c5760008415620003235750858301515b600019600386901b1c1916600185901b178555620002c7565b600085815260208120601f198616915b828110156200036d578886015182559484019460019091019084016200034c565b50858210156200038c5787850151600019600388901b60f8161c191681555b5050505050600190811b01905550565b61170e80620003ac6000396000f3fe60806040526004361061011f5760003560e01c8063755edd17116100a0578063c87b56dd11610064578063c87b56dd14610322578063d737d0c714610342578063e985e9c514610355578063f2fde38b14610375578063f5537ede1461039557600080fd5b8063755edd17146102985780638da5cb5b146102b857806395d89b41146102cd578063a22cb465146102e2578063b88d4fde1461030257600080fd5b806342842e0e116100e757806342842e0e146101f557806342966c68146102155780636352211e1461023557806370a0823114610255578063715018a61461028357600080fd5b806301ffc9a71461012457806306fdde0314610159578063081812fc1461017b578063095ea7b3146101b357806323b872dd146101d5575b600080fd5b34801561013057600080fd5b5061014461013f36600461129f565b6103a8565b60405190151581526020015b60405180910390f35b34801561016557600080fd5b5061016e6103fa565b604051610150919061130c565b34801561018757600080fd5b5061019b61019636600461131f565b61048c565b6040516001600160a01b039091168152602001610150565b3480156101bf57600080fd5b506101d36101ce36600461134f565b6104b3565b005b3480156101e157600080fd5b506101d36101f0366004611379565b6105cd565b34801561020157600080fd5b506101d3610210366004611379565b6105ff565b34801561022157600080fd5b506101d361023036600461131f565b61061a565b34801561024157600080fd5b5061019b61025036600461131f565b6106a0565b34801561026157600080fd5b506102756102703660046113b5565b610700565b604051908152602001610150565b34801561028f57600080fd5b506101d3610786565b3480156102a457600080fd5b506102756102b33660046113b5565b61079a565b3480156102c457600080fd5b5061019b6107da565b3480156102d957600080fd5b5061016e6107f3565b3480156102ee57600080fd5b506101d36102fd3660046113d0565b610802565b34801561030e57600080fd5b506101d361031d366004611422565b610811565b34801561032e57600080fd5b5061016e61033d36600461131f565b610849565b34801561034e57600080fd5b503361019b565b34801561036157600080fd5b506101446103703660046114fe565b6108bd565b34801561038157600080fd5b506101d36103903660046113b5565b6108ed565b6101d36103a3366004611379565b610963565b60006001600160e01b031982166380ac58cd60e01b14806103d957506001600160e01b03198216635b5e139f60e01b145b806103f457506301ffc9a760e01b6001600160e01b03198316145b92915050565b60606000805461040990611531565b80601f016020809104026020016040519081016040528092919081815260200182805461043590611531565b80156104825780601f1061045757610100808354040283529160200191610482565b820191906000526020600020905b81548152906001019060200180831161046557829003601f168201915b5050505050905090565b60006104978261096e565b506000908152600460205260409020546001600160a01b031690565b60006104be826106a0565b9050806001600160a01b0316836001600160a01b0316036105305760405162461bcd60e51b815260206004820152602160248201527f4552433732313a20617070726f76616c20746f2063757272656e74206f776e656044820152603960f91b60648201526084015b60405180910390fd5b336001600160a01b038216148061054c575061054c81336108bd565b6105be5760405162461bcd60e51b815260206004820152603d60248201527f4552433732313a20617070726f76652063616c6c6572206973206e6f7420746f60448201527f6b656e206f776e6572206f7220617070726f76656420666f7220616c6c0000006064820152608401610527565b6105c883836109cd565b505050565b6105d8335b82610a3b565b6105f45760405162461bcd60e51b81526004016105279061156b565b6105c8838383610a9a565b6105c883838360405180602001604052806000815250610811565b610622610bfe565b61062b336105d2565b6106945760405162461bcd60e51b815260206004820152603460248201527f5370656e644c6f636b3a207472616e736665722063616c6c6572206973206e6f6044820152731d081bdddb995c881b9bdc88185c1c1c9bdd995960621b6064820152608401610527565b61069d81610c5d565b50565b6000818152600260205260408120546001600160a01b0316806103f45760405162461bcd60e51b8152602060048201526018602482015277115490cdcc8c4e881a5b9d985b1a59081d1bdad95b88125160421b6044820152606401610527565b60006001600160a01b03821661076a5760405162461bcd60e51b815260206004820152602960248201527f4552433732313a2061646472657373207a65726f206973206e6f7420612076616044820152683634b21037bbb732b960b91b6064820152608401610527565b506001600160a01b031660009081526003602052604090205490565b61078e610bfe565b6107986000610cf2565b565b60006107a4610bfe565b6107b2600780546001019055565b60006107bd60075490565b90506107c98382610d44565b6103f483336001610d5e565b919050565b60006107ee6006546001600160a01b031690565b905090565b60606001805461040990611531565b61080d338383610d5e565b5050565b61081b3383610a3b565b6108375760405162461bcd60e51b81526004016105279061156b565b61084384848484610e2c565b50505050565b60606108548261096e565b600061086b60408051602081019091526000815290565b9050600081511161088b57604051806020016040528060008152506108b6565b8061089584610e5f565b6040516020016108a69291906115b8565b6040516020818303038152906040525b9392505050565b6001600160a01b03808316600090815260056020908152604080832093851683529290529081205460ff166108b6565b6108f5610bfe565b6001600160a01b03811661095a5760405162461bcd60e51b815260206004820152602660248201527f4f776e61626c653a206e6577206f776e657220697320746865207a65726f206160448201526564647265737360d01b6064820152608401610527565b61069d81610cf2565b6105c88383836105ff565b6000818152600260205260409020546001600160a01b031661069d5760405162461bcd60e51b8152602060048201526018602482015277115490cdcc8c4e881a5b9d985b1a59081d1bdad95b88125160421b6044820152606401610527565b600081815260046020526040902080546001600160a01b0319166001600160a01b0384169081179091558190610a02826106a0565b6001600160a01b03167f8c5be1e5ebec7d5bd14f71427d1e84f3dd0314c0f7b2291e5b200ac8c7c3b92560405160405180910390a45050565b600080610a47836106a0565b9050806001600160a01b0316846001600160a01b03161480610a6e5750610a6e81856108bd565b80610a925750836001600160a01b0316610a878461048c565b6001600160a01b0316145b949350505050565b826001600160a01b0316610aad826106a0565b6001600160a01b031614610ad35760405162461bcd60e51b8152600401610527906115e7565b6001600160a01b038216610b355760405162461bcd60e51b8152602060048201526024808201527f4552433732313a207472616e7366657220746f20746865207a65726f206164646044820152637265737360e01b6064820152608401610527565b826001600160a01b0316610b48826106a0565b6001600160a01b031614610b6e5760405162461bcd60e51b8152600401610527906115e7565b600081815260046020908152604080832080546001600160a01b03199081169091556001600160a01b0387811680865260038552838620805460001901905590871680865283862080546001019055868652600290945282852080549092168417909155905184937fddf252ad1be2c89b69c2b068fc378daa952ba7f163c4a11628f55a4df523b3ef91a4505050565b33610c076107da565b6001600160a01b0316146107985760405162461bcd60e51b815260206004820181905260248201527f4f776e61626c653a2063616c6c6572206973206e6f7420746865206f776e65726044820152606401610527565b6000610c68826106a0565b9050610c73826106a0565b600083815260046020908152604080832080546001600160a01b03199081169091556001600160a01b0385168085526003845282852080546000190190558785526002909352818420805490911690555192935084927fddf252ad1be2c89b69c2b068fc378daa952ba7f163c4a11628f55a4df523b3ef908390a45050565b600680546001600160a01b038381166001600160a01b0319831681179093556040519116919082907f8be0079c531659141344cd1fd0a4f28419497f9722a3daafe3b4186f6b6457e090600090a35050565b61080d828260405180602001604052806000815250610ef2565b816001600160a01b0316836001600160a01b031603610dbf5760405162461bcd60e51b815260206004820152601960248201527f4552433732313a20617070726f766520746f2063616c6c6572000000000000006044820152606401610527565b6001600160a01b03838116600081815260056020908152604080832094871680845294825291829020805460ff191686151590811790915591519182527f17307eab39ab6107e8899845ad3d59bd9653f200f220920489ca2b5937696c31910160405180910390a3505050565b610e37848484610a9a565b610e4384848484610f25565b6108435760405162461bcd60e51b81526004016105279061162c565b60606000610e6c83611026565b600101905060008167ffffffffffffffff811115610e8c57610e8c61140c565b6040519080825280601f01601f191660200182016040528015610eb6576020820181803683370190505b5090508181016020015b600019016f181899199a1a9b1b9c1cb0b131b232b360811b600a86061a8153600a8504945084610ec057509392505050565b610efc83836110fe565b610f096000848484610f25565b6105c85760405162461bcd60e51b81526004016105279061162c565b60006001600160a01b0384163b1561101b57604051630a85bd0160e11b81526001600160a01b0385169063150b7a0290610f6990339089908890889060040161167e565b6020604051808303816000875af1925050508015610fa4575060408051601f3d908101601f19168201909252610fa1918101906116bb565b60015b611001573d808015610fd2576040519150601f19603f3d011682016040523d82523d6000602084013e610fd7565b606091505b508051600003610ff95760405162461bcd60e51b81526004016105279061162c565b805181602001fd5b6001600160e01b031916630a85bd0160e11b149050610a92565b506001949350505050565b60008072184f03e93ff9f4daa797ed6e38ed64bf6a1f0160401b83106110655772184f03e93ff9f4daa797ed6e38ed64bf6a1f0160401b830492506040015b6d04ee2d6d415b85acef81000000008310611091576d04ee2d6d415b85acef8100000000830492506020015b662386f26fc1000083106110af57662386f26fc10000830492506010015b6305f5e10083106110c7576305f5e100830492506008015b61271083106110db57612710830492506004015b606483106110ed576064830492506002015b600a83106103f45760010192915050565b6001600160a01b0382166111545760405162461bcd60e51b815260206004820181905260248201527f4552433732313a206d696e7420746f20746865207a65726f20616464726573736044820152606401610527565b6000818152600260205260409020546001600160a01b0316156111b95760405162461bcd60e51b815260206004820152601c60248201527f4552433732313a20746f6b656e20616c7265616479206d696e746564000000006044820152606401610527565b6000818152600260205260409020546001600160a01b03161561121e5760405162461bcd60e51b815260206004820152601c60248201527f4552433732313a20746f6b656e20616c7265616479206d696e746564000000006044820152606401610527565b6001600160a01b038216600081815260036020908152604080832080546001019055848352600290915280822080546001600160a01b0319168417905551839291907fddf252ad1be2c89b69c2b068fc378daa952ba7f163c4a11628f55a4df523b3ef908290a45050565b6001600160e01b03198116811461069d57600080fd5b6000602082840312156112b157600080fd5b81356108b681611289565b60005b838110156112d75781810151838201526020016112bf565b50506000910152565b600081518084526112f88160208601602086016112bc565b601f01601f19169290920160200192915050565b6020815260006108b660208301846112e0565b60006020828403121561133157600080fd5b5035919050565b80356001600160a01b03811681146107d557600080fd5b6000806040838503121561136257600080fd5b61136b83611338565b946020939093013593505050565b60008060006060848603121561138e57600080fd5b61139784611338565b92506113a560208501611338565b9150604084013590509250925092565b6000602082840312156113c757600080fd5b6108b682611338565b600080604083850312156113e357600080fd5b6113ec83611338565b91506020830135801515811461140157600080fd5b809150509250929050565b634e487b7160e01b600052604160045260246000fd5b6000806000806080858703121561143857600080fd5b61144185611338565b935061144f60208601611338565b925060408501359150606085013567ffffffffffffffff8082111561147357600080fd5b818701915087601f83011261148757600080fd5b8135818111156114995761149961140c565b604051601f8201601f19908116603f011681019083821181831017156114c1576114c161140c565b816040528281528a60208487010111156114da57600080fd5b82602086016020830137600060208483010152809550505050505092959194509250565b6000806040838503121561151157600080fd5b61151a83611338565b915061152860208401611338565b90509250929050565b600181811c9082168061154557607f821691505b60208210810361156557634e487b7160e01b600052602260045260246000fd5b50919050565b6020808252602d908201527f4552433732313a2063616c6c6572206973206e6f7420746f6b656e206f776e6560408201526c1c881bdc88185c1c1c9bdd9959609a1b606082015260800190565b600083516115ca8184602088016112bc565b8351908301906115de8183602088016112bc565b01949350505050565b60208082526025908201527f4552433732313a207472616e736665722066726f6d20696e636f72726563742060408201526437bbb732b960d91b606082015260800190565b60208082526032908201527f4552433732313a207472616e7366657220746f206e6f6e20455243373231526560408201527131b2b4bb32b91034b6b83632b6b2b73a32b960711b606082015260800190565b6001600160a01b03858116825284166020820152604081018390526080606082018190526000906116b1908301846112e0565b9695505050505050565b6000602082840312156116cd57600080fd5b81516108b68161128956fea264697066735822122044e3e387c981be0fbc4b4315735a078f87d0e87cd2dd2c76cca73cc02ba387c664736f6c63430008110033",
  "linkReferences": {},
  "deployedLinkReferences": {}
}