{
  "_format": "hh-sol-artifact-1",
  "contractName": "Pool",
  "sourceName": "contracts/Pool.sol",
  "abi": [
    {
      "inputs": [
        {
          "internalType": "address",
          "name": "regContract_",
          "type": "address"
        },
        {
          "internalType": "string",
          "name": "valueCurrency_",
          "type": "string"
        },
        {
          "internalType": "string",
          "name": "name_",
          "type": "string"
        },
        {
          "internalType": "string",
          "name": "symbol_",
          "type": "string"
        },
        {
          "internalType": "string",
          "name": "baseuri_",
          "type": "string"
        },
        {
          "internalType": "string",
          "name": "contractDescription_",
          "type": "string"
        },
        {
          "internalType": "string",
          "name": "contractImage_",
          "type": "string"
        },
        {
          "internalType": "uint8",
          "name": "decimals_",
          "type": "uint8"
        }
      ],
      "stateMutability": "nonpayable",
      "type": "constructor"
    },
    {
      "anonymous": false,
      "inputs": [
        {
          "indexed": true,
          "internalType": "address",
          "name": "_owner",
          "type": "address"
        },
        {
          "indexed": true,
          "internalType": "address",
          "name": "_approved",
          "type": "address"
        },
        {
          "indexed": true,
          "internalType": "uint256",
          "name": "_tokenId",
          "type": "uint256"
        }
      ],
      "name": "Approval",
      "type": "event"
    },
    {
      "anonymous": false,
      "inputs": [
        {
          "indexed": true,
          "internalType": "address",
          "name": "_owner",
          "type": "address"
        },
        {
          "indexed": true,
          "internalType": "address",
          "name": "_operator",
          "type": "address"
        },
        {
          "indexed": false,
          "internalType": "bool",
          "name": "_approved",
          "type": "bool"
        }
      ],
      "name": "ApprovalForAll",
      "type": "event"
    },
    {
      "anonymous": false,
      "inputs": [
        {
          "indexed": true,
          "internalType": "uint256",
          "name": "_tokenId",
          "type": "uint256"
        },
        {
          "indexed": true,
          "internalType": "address",
          "name": "_operator",
          "type": "address"
        },
        {
          "indexed": false,
          "internalType": "uint256",
          "name": "_value",
          "type": "uint256"
        }
      ],
      "name": "ApprovalValue",
      "type": "event"
    },
    {
      "anonymous": false,
      "inputs": [
        {
          "indexed": false,
          "internalType": "address",
          "name": "contractAddress",
          "type": "address"
        }
      ],
      "name": "MetadataDescriptor",
      "type": "event"
    },
    {
      "anonymous": false,
      "inputs": [
        {
          "indexed": false,
          "internalType": "uint256",
          "name": "slotId",
          "type": "uint256"
        },
        {
          "indexed": false,
          "internalType": "string",
          "name": "slotName",
          "type": "string"
        }
      ],
      "name": "NewSlot",
      "type": "event"
    },
    {
      "anonymous": false,
      "inputs": [
        {
          "indexed": true,
          "internalType": "bytes32",
          "name": "role",
          "type": "bytes32"
        },
        {
          "indexed": true,
          "internalType": "bytes32",
          "name": "previousAdminRole",
          "type": "bytes32"
        },
        {
          "indexed": true,
          "internalType": "bytes32",
          "name": "newAdminRole",
          "type": "bytes32"
        }
      ],
      "name": "RoleAdminChanged",
      "type": "event"
    },
    {
      "anonymous": false,
      "inputs": [
        {
          "indexed": true,
          "internalType": "bytes32",
          "name": "role",
          "type": "bytes32"
        },
        {
          "indexed": true,
          "internalType": "address",
          "name": "account",
          "type": "address"
        },
        {
          "indexed": true,
          "internalType": "address",
          "name": "sender",
          "type": "address"
        }
      ],
      "name": "RoleGranted",
      "type": "event"
    },
    {
      "anonymous": false,
      "inputs": [
        {
          "indexed": true,
          "internalType": "bytes32",
          "name": "role",
          "type": "bytes32"
        },
        {
          "indexed": true,
          "internalType": "address",
          "name": "account",
          "type": "address"
        },
        {
          "indexed": true,
          "internalType": "address",
          "name": "sender",
          "type": "address"
        }
      ],
      "name": "RoleRevoked",
      "type": "event"
    },
    {
      "anonymous": false,
      "inputs": [
        {
          "indexed": true,
          "internalType": "address",
          "name": "metadataDescriptor",
          "type": "address"
        }
      ],
      "name": "SetMetadataDescriptor",
      "type": "event"
    },
    {
      "anonymous": false,
      "inputs": [
        {
          "indexed": true,
          "internalType": "uint256",
          "name": "_tokenId",
          "type": "uint256"
        },
        {
          "indexed": true,
          "internalType": "uint256",
          "name": "_oldSlot",
          "type": "uint256"
        },
        {
          "indexed": true,
          "internalType": "uint256",
          "name": "_newSlot",
          "type": "uint256"
        }
      ],
      "name": "SlotChanged",
      "type": "event"
    },
    {
      "anonymous": false,
      "inputs": [
        {
          "indexed": true,
          "internalType": "address",
          "name": "_from",
          "type": "address"
        },
        {
          "indexed": true,
          "internalType": "address",
          "name": "_to",
          "type": "address"
        },
        {
          "indexed": true,
          "internalType": "uint256",
          "name": "_tokenId",
          "type": "uint256"
        }
      ],
      "name": "Transfer",
      "type": "event"
    },
    {
      "anonymous": false,
      "inputs": [
        {
          "indexed": true,
          "internalType": "uint256",
          "name": "_fromTokenId",
          "type": "uint256"
        },
        {
          "indexed": true,
          "internalType": "uint256",
          "name": "_toTokenId",
          "type": "uint256"
        },
        {
          "indexed": false,
          "internalType": "uint256",
          "name": "_value",
          "type": "uint256"
        }
      ],
      "name": "TransferValue",
      "type": "event"
    },
    {
      "inputs": [],
      "name": "DEFAULT_ADMIN_ROLE",
      "outputs": [
        {
          "internalType": "bytes32",
          "name": "",
          "type": "bytes32"
        }
      ],
      "stateMutability": "view",
      "type": "function"
    },
    {
      "inputs": [],
      "name": "MKT_ARBITRATOR_ROLE",
      "outputs": [
        {
          "internalType": "bytes32",
          "name": "",
          "type": "bytes32"
        }
      ],
      "stateMutability": "view",
      "type": "function"
    },
    {
      "inputs": [
        {
          "internalType": "address",
          "name": "owner_",
          "type": "address"
        },
        {
          "internalType": "uint256",
          "name": "slotId_",
          "type": "uint256"
        },
        {
          "internalType": "uint256",
          "name": "amount_",
          "type": "uint256"
        }
      ],
      "name": "addUnderlying",
      "outputs": [],
      "stateMutability": "nonpayable",
      "type": "function"
    },
    {
      "inputs": [
        {
          "internalType": "uint256",
          "name": "slot_",
          "type": "uint256"
        },
        {
          "internalType": "address",
          "name": "invitee_",
          "type": "address"
        }
      ],
      "name": "adminJoinSlot",
      "outputs": [],
      "stateMutability": "nonpayable",
      "type": "function"
    },
    {
      "inputs": [
        {
          "internalType": "uint256",
          "name": "tokenId_",
          "type": "uint256"
        },
        {
          "internalType": "address",
          "name": "operator_",
          "type": "address"
        }
      ],
      "name": "allowance",
      "outputs": [
        {
          "internalType": "uint256",
          "name": "",
          "type": "uint256"
        }
      ],
      "stateMutability": "view",
      "type": "function"
    },
    {
      "inputs": [
        {
          "internalType": "address",
          "name": "to_",
          "type": "address"
        },
        {
          "internalType": "uint256",
          "name": "tokenId_",
          "type": "uint256"
        }
      ],
      "name": "approve",
      "outputs": [],
      "stateMutability": "payable",
      "type": "function"
    },
    {
      "inputs": [
        {
          "internalType": "uint256",
          "name": "tokenId_",
          "type": "uint256"
        },
        {
          "internalType": "address",
          "name": "to_",
          "type": "address"
        },
        {
          "internalType": "uint256",
          "name": "value_",
          "type": "uint256"
        }
      ],
      "name": "approve",
      "outputs": [],
      "stateMutability": "payable",
      "type": "function"
    },
    {
      "inputs": [
        {
          "internalType": "address",
          "name": "owner_",
          "type": "address"
        }
      ],
      "name": "balanceOf",
      "outputs": [
        {
          "internalType": "uint256",
          "name": "balance",
          "type": "uint256"
        }
      ],
      "stateMutability": "view",
      "type": "function"
    },
    {
      "inputs": [
        {
          "internalType": "uint256",
          "name": "tokenId_",
          "type": "uint256"
        }
      ],
      "name": "balanceOf",
      "outputs": [
        {
          "internalType": "uint256",
          "name": "",
          "type": "uint256"
        }
      ],
      "stateMutability": "view",
      "type": "function"
    },
    {
      "inputs": [
        {
          "internalType": "uint256",
          "name": "networkTokenId_",
          "type": "uint256"
        }
      ],
      "name": "contractOf",
      "outputs": [
        {
          "internalType": "address",
          "name": "",
          "type": "address"
        }
      ],
      "stateMutability": "view",
      "type": "function"
    },
    {
      "inputs": [],
      "name": "contractURI",
      "outputs": [
        {
          "internalType": "string",
          "name": "",
          "type": "string"
        }
      ],
      "stateMutability": "view",
      "type": "function"
    },
    {
      "inputs": [
        {
          "internalType": "uint256",
          "name": "slotId",
          "type": "uint256"
        }
      ],
      "name": "exists",
      "outputs": [
        {
          "internalType": "bool",
          "name": "",
          "type": "bool"
        }
      ],
      "stateMutability": "view",
      "type": "function"
    },
    {
      "inputs": [
        {
          "internalType": "uint256",
          "name": "tokenId_",
          "type": "uint256"
        }
      ],
      "name": "getApproved",
      "outputs": [
        {
          "internalType": "address",
          "name": "",
          "type": "address"
        }
      ],
      "stateMutability": "view",
      "type": "function"
    },
    {
      "inputs": [
        {
          "internalType": "bytes32",
          "name": "role",
          "type": "bytes32"
        }
      ],
      "name": "getRoleAdmin",
      "outputs": [
        {
          "internalType": "bytes32",
          "name": "",
          "type": "bytes32"
        }
      ],
      "stateMutability": "view",
      "type": "function"
    },
    {
      "inputs": [
        {
          "internalType": "bytes32",
          "name": "role",
          "type": "bytes32"
        },
        {
          "internalType": "address",
          "name": "account",
          "type": "address"
        }
      ],
      "name": "grantRole",
      "outputs": [],
      "stateMutability": "nonpayable",
      "type": "function"
    },
    {
      "inputs": [
        {
          "internalType": "bytes32",
          "name": "role",
          "type": "bytes32"
        },
        {
          "internalType": "address",
          "name": "account",
          "type": "address"
        }
      ],
      "name": "hasRole",
      "outputs": [
        {
          "internalType": "bool",
          "name": "",
          "type": "bool"
        }
      ],
      "stateMutability": "view",
      "type": "function"
    },
    {
      "inputs": [
        {
          "internalType": "address",
          "name": "owner_",
          "type": "address"
        },
        {
          "internalType": "address",
          "name": "operator_",
          "type": "address"
        }
      ],
      "name": "isApprovedForAll",
      "outputs": [
        {
          "internalType": "bool",
          "name": "",
          "type": "bool"
        }
      ],
      "stateMutability": "view",
      "type": "function"
    },
    {
      "inputs": [
        {
          "internalType": "uint256",
          "name": "tokenId_",
          "type": "uint256"
        }
      ],
      "name": "isNetworkToken",
      "outputs": [
        {
          "internalType": "bool",
          "name": "",
          "type": "bool"
        }
      ],
      "stateMutability": "view",
      "type": "function"
    },
    {
      "inputs": [
        {
          "internalType": "uint256",
          "name": "slotId_",
          "type": "uint256"
        }
      ],
      "name": "isPoolMember",
      "outputs": [
        {
          "internalType": "bool",
          "name": "",
          "type": "bool"
        }
      ],
      "stateMutability": "view",
      "type": "function"
    },
    {
      "inputs": [
        {
          "internalType": "uint256",
          "name": "slotId_",
          "type": "uint256"
        },
        {
          "internalType": "address",
          "name": "adminAdress_",
          "type": "address"
        }
      ],
      "name": "isSlotAdmin",
      "outputs": [
        {
          "internalType": "bool",
          "name": "",
          "type": "bool"
        }
      ],
      "stateMutability": "view",
      "type": "function"
    },
    {
      "inputs": [
        {
          "internalType": "uint256",
          "name": "slotId_",
          "type": "uint256"
        },
        {
          "internalType": "uint256",
          "name": "amount_",
          "type": "uint256"
        }
      ],
      "name": "lockUsdc",
      "outputs": [],
      "stateMutability": "nonpayable",
      "type": "function"
    },
    {
      "inputs": [],
      "name": "metadataDescriptor",
      "outputs": [
        {
          "internalType": "contract IERC3525MetadataDescriptor",
          "name": "",
          "type": "address"
        }
      ],
      "stateMutability": "view",
      "type": "function"
    },
    {
      "inputs": [
        {
          "internalType": "address",
          "name": "owner_",
          "type": "address"
        },
        {
          "internalType": "uint256",
          "name": "slot_",
          "type": "uint256"
        },
        {
          "internalType": "uint256",
          "name": "value_",
          "type": "uint256"
        }
      ],
      "name": "mint",
      "outputs": [
        {
          "internalType": "uint256",
          "name": "",
          "type": "uint256"
        }
      ],
      "stateMutability": "nonpayable",
      "type": "function"
    },
    {
      "inputs": [
        {
          "internalType": "string",
          "name": "dataUri_",
          "type": "string"
        },
        {
          "internalType": "uint256",
          "name": "slotId_",
          "type": "uint256"
        },
        {
          "internalType": "uint256",
          "name": "value_",
          "type": "uint256"
        },
        {
          "internalType": "string",
          "name": "currency_",
          "type": "string"
        }
      ],
      "name": "mintQuery",
      "outputs": [],
      "stateMutability": "nonpayable",
      "type": "function"
    },
    {
      "inputs": [
        {
          "internalType": "address",
          "name": "owner_",
          "type": "address"
        },
        {
          "internalType": "uint256",
          "name": "slot_",
          "type": "uint256"
        },
        {
          "internalType": "uint256",
          "name": "value_",
          "type": "uint256"
        },
        {
          "internalType": "uint256",
          "name": "adjDiscountBasisPts_",
          "type": "uint256"
        }
      ],
      "name": "mintWithDiscount",
      "outputs": [
        {
          "internalType": "uint256",
          "name": "",
          "type": "uint256"
        }
      ],
      "stateMutability": "nonpayable",
      "type": "function"
    },
    {
      "inputs": [
        {
          "internalType": "address",
          "name": "owner_",
          "type": "address"
        },
        {
          "internalType": "uint256",
          "name": "slot_",
          "type": "uint256"
        },
        {
          "internalType": "uint256",
          "name": "value_",
          "type": "uint256"
        },
        {
          "internalType": "uint256",
          "name": "adjTVRate_",
          "type": "uint256"
        }
      ],
      "name": "mintWithValueRate",
      "outputs": [
        {
          "internalType": "uint256",
          "name": "",
          "type": "uint256"
        }
      ],
      "stateMutability": "nonpayable",
      "type": "function"
    },
    {
      "inputs": [],
      "name": "name",
      "outputs": [
        {
          "internalType": "string",
          "name": "",
          "type": "string"
        }
      ],
      "stateMutability": "view",
      "type": "function"
    },
    {
      "inputs": [
        {
          "internalType": "uint256",
          "name": "tokenId_",
          "type": "uint256"
        }
      ],
      "name": "ownerOf",
      "outputs": [
        {
          "internalType": "address",
          "name": "owner_",
          "type": "address"
        }
      ],
      "stateMutability": "view",
      "type": "function"
    },
    {
      "inputs": [
        {
          "internalType": "uint256",
          "name": "slotId_",
          "type": "uint256"
        }
      ],
      "name": "poolMembers",
      "outputs": [
        {
          "internalType": "address[]",
          "name": "",
          "type": "address[]"
        }
      ],
      "stateMutability": "view",
      "type": "function"
    },
    {
      "inputs": [
        {
          "internalType": "uint256",
          "name": "slotId_",
          "type": "uint256"
        },
        {
          "internalType": "uint256",
          "name": "tokenId_",
          "type": "uint256"
        }
      ],
      "name": "poolToken",
      "outputs": [],
      "stateMutability": "nonpayable",
      "type": "function"
    },
    {
      "inputs": [],
      "name": "pools",
      "outputs": [
        {
          "components": [
            {
              "internalType": "address",
              "name": "creator",
              "type": "address"
            },
            {
              "internalType": "uint256",
              "name": "slotId",
              "type": "uint256"
            },
            {
              "internalType": "string",
              "name": "name",
              "type": "string"
            },
            {
              "internalType": "string",
              "name": "description",
              "type": "string"
            },
            {
              "internalType": "string",
              "name": "slotURI",
              "type": "string"
            },
            {
              "internalType": "string",
              "name": "valueCurrency",
              "type": "string"
            },
            {
              "internalType": "address",
              "name": "underlyingContract",
              "type": "address"
            },
            {
              "internalType": "uint256",
              "name": "valueDecimals",
              "type": "uint256"
            },
            {
              "internalType": "enum Registry.SlotType",
              "name": "slotType",
              "type": "uint8"
            },
            {
              "internalType": "bool",
              "name": "joinByInvite",
              "type": "bool"
            },
            {
              "internalType": "bool",
              "name": "isValid",
              "type": "bool"
            }
          ],
          "internalType": "struct Registry.Slot[]",
          "name": "",
          "type": "tuple[]"
        }
      ],
      "stateMutability": "view",
      "type": "function"
    },
    {
      "inputs": [
        {
          "internalType": "bytes32",
          "name": "role",
          "type": "bytes32"
        },
        {
          "internalType": "address",
          "name": "account",
          "type": "address"
        }
      ],
      "name": "renounceRole",
      "outputs": [],
      "stateMutability": "nonpayable",
      "type": "function"
    },
    {
      "inputs": [
        {
          "internalType": "bytes32",
          "name": "role",
          "type": "bytes32"
        },
        {
          "internalType": "address",
          "name": "account",
          "type": "address"
        }
      ],
      "name": "revokeRole",
      "outputs": [],
      "stateMutability": "nonpayable",
      "type": "function"
    },
    {
      "inputs": [
        {
          "internalType": "address",
          "name": "from_",
          "type": "address"
        },
        {
          "internalType": "address",
          "name": "to_",
          "type": "address"
        },
        {
          "internalType": "uint256",
          "name": "tokenId_",
          "type": "uint256"
        }
      ],
      "name": "safeTransferFrom",
      "outputs": [],
      "stateMutability": "payable",
      "type": "function"
    },
    {
      "inputs": [
        {
          "internalType": "address",
          "name": "from_",
          "type": "address"
        },
        {
          "internalType": "address",
          "name": "to_",
          "type": "address"
        },
        {
          "internalType": "uint256",
          "name": "tokenId_",
          "type": "uint256"
        },
        {
          "internalType": "bytes",
          "name": "data_",
          "type": "bytes"
        }
      ],
      "name": "safeTransferFrom",
      "outputs": [],
      "stateMutability": "payable",
      "type": "function"
    },
    {
      "inputs": [
        {
          "internalType": "address",
          "name": "operator_",
          "type": "address"
        },
        {
          "internalType": "bool",
          "name": "approved_",
          "type": "bool"
        }
      ],
      "name": "setApprovalForAll",
      "outputs": [],
      "stateMutability": "nonpayable",
      "type": "function"
    },
    {
      "inputs": [
        {
          "internalType": "uint256",
          "name": "slotId_",
          "type": "uint256"
        }
      ],
      "name": "slotDescription",
      "outputs": [
        {
          "internalType": "string",
          "name": "",
          "type": "string"
        }
      ],
      "stateMutability": "view",
      "type": "function"
    },
    {
      "inputs": [
        {
          "internalType": "uint256",
          "name": "slotId_",
          "type": "uint256"
        }
      ],
      "name": "slotName",
      "outputs": [
        {
          "internalType": "string",
          "name": "",
          "type": "string"
        }
      ],
      "stateMutability": "view",
      "type": "function"
    },
    {
      "inputs": [
        {
          "internalType": "uint256",
          "name": "tokenId_",
          "type": "uint256"
        }
      ],
      "name": "slotOf",
      "outputs": [
        {
          "internalType": "uint256",
          "name": "",
          "type": "uint256"
        }
      ],
      "stateMutability": "view",
      "type": "function"
    },
    {
      "inputs": [
        {
          "internalType": "uint256",
          "name": "slotId_",
          "type": "uint256"
        }
      ],
      "name": "slotURI",
      "outputs": [
        {
          "internalType": "string",
          "name": "",
          "type": "string"
        }
      ],
      "stateMutability": "view",
      "type": "function"
    },
    {
      "inputs": [
        {
          "internalType": "bytes4",
          "name": "interfaceId",
          "type": "bytes4"
        }
      ],
      "name": "supportsInterface",
      "outputs": [
        {
          "internalType": "bool",
          "name": "",
          "type": "bool"
        }
      ],
      "stateMutability": "view",
      "type": "function"
    },
    {
      "inputs": [],
      "name": "symbol",
      "outputs": [
        {
          "internalType": "string",
          "name": "",
          "type": "string"
        }
      ],
      "stateMutability": "view",
      "type": "function"
    },
    {
      "inputs": [
        {
          "internalType": "uint256",
          "name": "index_",
          "type": "uint256"
        }
      ],
      "name": "tokenByIndex",
      "outputs": [
        {
          "internalType": "uint256",
          "name": "",
          "type": "uint256"
        }
      ],
      "stateMutability": "view",
      "type": "function"
    },
    {
      "inputs": [
        {
          "internalType": "uint256",
          "name": "toTokenId_",
          "type": "uint256"
        }
      ],
      "name": "tokenDiscount",
      "outputs": [
        {
          "internalType": "uint256",
          "name": "",
          "type": "uint256"
        }
      ],
      "stateMutability": "view",
      "type": "function"
    },
    {
      "inputs": [
        {
          "internalType": "address",
          "name": "owner_",
          "type": "address"
        },
        {
          "internalType": "uint256",
          "name": "index_",
          "type": "uint256"
        }
      ],
      "name": "tokenOfOwnerByIndex",
      "outputs": [
        {
          "internalType": "uint256",
          "name": "",
          "type": "uint256"
        }
      ],
      "stateMutability": "view",
      "type": "function"
    },
    {
      "inputs": [
        {
          "internalType": "uint256",
          "name": "tokenId_",
          "type": "uint256"
        }
      ],
      "name": "tokenURI",
      "outputs": [
        {
          "internalType": "string",
          "name": "",
          "type": "string"
        }
      ],
      "stateMutability": "view",
      "type": "function"
    },
    {
      "inputs": [
        {
          "internalType": "uint256",
          "name": "toTokenId_",
          "type": "uint256"
        }
      ],
      "name": "tokenValueRate",
      "outputs": [
        {
          "internalType": "uint256",
          "name": "",
          "type": "uint256"
        }
      ],
      "stateMutability": "view",
      "type": "function"
    },
    {
      "inputs": [
        {
          "internalType": "uint256",
          "name": "slotId_",
          "type": "uint256"
        }
      ],
      "name": "totPoolMembership",
      "outputs": [
        {
          "internalType": "uint256",
          "name": "",
          "type": "uint256"
        }
      ],
      "stateMutability": "view",
      "type": "function"
    },
    {
      "inputs": [],
      "name": "totalSupply",
      "outputs": [
        {
          "internalType": "uint256",
          "name": "",
          "type": "uint256"
        }
      ],
      "stateMutability": "view",
      "type": "function"
    },
    {
      "inputs": [
        {
          "internalType": "uint256",
          "name": "fromTokenId_",
          "type": "uint256"
        },
        {
          "internalType": "address",
          "name": "to_",
          "type": "address"
        },
        {
          "internalType": "uint256",
          "name": "value_",
          "type": "uint256"
        }
      ],
      "name": "transferFrom",
      "outputs": [
        {
          "internalType": "uint256",
          "name": "",
          "type": "uint256"
        }
      ],
      "stateMutability": "payable",
      "type": "function"
    },
    {
      "inputs": [
        {
          "internalType": "address",
          "name": "from_",
          "type": "address"
        },
        {
          "internalType": "address",
          "name": "to_",
          "type": "address"
        },
        {
          "internalType": "uint256",
          "name": "tokenId_",
          "type": "uint256"
        }
      ],
      "name": "transferFrom",
      "outputs": [],
      "stateMutability": "payable",
      "type": "function"
    },
    {
      "inputs": [
        {
          "internalType": "uint256",
          "name": "fromTokenId_",
          "type": "uint256"
        },
        {
          "internalType": "uint256",
          "name": "toTokenId_",
          "type": "uint256"
        },
        {
          "internalType": "uint256",
          "name": "value_",
          "type": "uint256"
        }
      ],
      "name": "transferFrom",
      "outputs": [],
      "stateMutability": "payable",
      "type": "function"
    },
    {
      "inputs": [
        {
          "internalType": "uint256",
          "name": "slotId_",
          "type": "uint256"
        },
        {
          "internalType": "address",
          "name": "user_",
          "type": "address"
        }
      ],
      "name": "userIsPoolMember",
      "outputs": [
        {
          "internalType": "bool",
          "name": "",
          "type": "bool"
        }
      ],
      "stateMutability": "view",
      "type": "function"
    },
    {
      "inputs": [],
      "name": "valueDecimals",
      "outputs": [
        {
          "internalType": "uint8",
          "name": "",
          "type": "uint8"
        }
      ],
      "stateMutability": "view",
      "type": "function"
    }
  ],
  "bytecode": "0x60808060405234620005125762006bfd8038038091620000208285620008b9565b83398101906101008183031262000512576200003c81620008dd565b60208201519092906001600160401b0381116200051257816200006191840162000917565b60408301519093906001600160401b0381116200051257826200008691850162000917565b60608401516001600160401b038111620005125783620000a891860162000917565b60808501519091906001600160401b038111620005125784620000cd91870162000917565b60a08601519092906001600160401b038111620005125785620000f291880162000917565b60c08701519095906001600160401b038111620005125760e0916200011991890162000917565b9601519160ff8316830362000512578051906001600160401b038211620004c35781906200014960005462000972565b601f811162000856575b50602090601f8311600114620007de57600092620007d2575b50508160011b916000199060031b1c1916176000555b8051906001600160401b038211620004c357620001a160015462000972565b601f81116200076c575b50602090601f8311600114620006f85760ff93929160009183620006ec575b50508160011b916000199060031b1c1916176001555b6002805460ff1916929091169190911790556012601355601780546001600160a01b03191673b9441b7bc507136a7bf0f130e58c3f810d1dc09017905560326018556103e86019558051906001600160401b038211620004c35781906200024960105462000972565b601f81116200068b575b50602090601f83116001146200060d5760009262000601575b50508160011b916000199060031b1c1916176010555b601280546001600160a01b0319166001600160a01b039290921691909117905582516001600160401b038111620004c357620002c060115462000972565b601f81116200059b575b506020601f82116001146200052c578192939460009262000520575b50508160011b916000199060031b1c1916176011555b601254604051630b8042e560e21b815290602090829060049082906001600160a01b03165afa9081156200044457600091620004d9575b50601680546001600160a01b0319166001600160a01b0392909216919091179055604051906120b780830191906001600160401b03831184841017620004c35762004b068439608082526000906010546200038e8162000972565b908160808601526001811690816000146200049d575060011462000450575b5093620003c882859685620003d795036020870152620009af565b908382036040850152620009af565b9060603091015203906000f080156200044457600880546001600160a01b0319166001600160a01b0390921691821790556040519081527f9ac4f8025631594629895b778dc5ee88d01673a254a2291f6b6b174ad25230ca90602090a160405161412f9081620009d78239f35b6040513d6000823e3d90fd5b6010600090815291925060008051602062006bdd8339815191525b81831062000485575050820160a00190620003c8620003ad565b805460a084870101526020909201916001016200046b565b60ff191660a08681019190915291151560051b85019091019250620003c89050620003ad565b634e487b7160e01b600052604160045260246000fd5b90506020813d60201162000517575b81620004f760209383620008b9565b8101031262000512576200050b90620008dd565b3862000333565b600080fd5b3d9150620004e8565b015190503880620002e6565b601160005260206000209060005b601f1984168110620005825750600193949583601f1981161062000568575b505050811b01601155620002fc565b015160001960f88460031b161c1916905538808062000559565b9091602060018192858a0151815501930191016200053a565b60116000527f31ecc21a745e3968a04e9570e4425bc18fa8019c68028196b546d1669c200c68601f830160051c810160208410620005f9575b601f830160051c82018110620005ec575050620002ca565b60008155600101620005d4565b5080620005d4565b0151905038806200026c565b60106000908152935060008051602062006bdd83398151915291905b601f19841685106200066f576001945083601f1981161062000655575b505050811b0160105562000282565b015160001960f88460031b161c1916905538808062000646565b8181015183556020948501946001909301929091019062000629565b601060005290915060008051602062006bdd833981519152601f840160051c810160208510620006e4575b90849392915b601f830160051c82018110620006d457505062000253565b60008155859450600101620006bc565b5080620006b6565b015190503880620001ca565b90600160005260206000209160005b601f198516811062000753575091839160019360ff9695601f1981161062000739575b505050811b01600155620001e0565b015160001960f88460031b161c191690553880806200072a565b9192602060018192868501518155019401920162000707565b60016000527fb10e2d527612073b26eecdfd717e6a320cf44b4afac2b0732d9fcbe2b7fa0cf6601f840160051c810160208510620007ca575b601f830160051c82018110620007bd575050620001ab565b60008155600101620007a5565b5080620007a5565b0151905038806200016c565b600080805260008051602062006bbd8339815191529350601f198516905b8181106200083d575090846001959493921062000823575b505050811b0160005562000182565b015160001960f88460031b161c1916905538808062000814565b92936020600181928786015181550195019301620007fc565b6000805290915060008051602062006bbd833981519152601f840160051c81019160208510620008ae575b90601f859493920160051c01905b8181106200089e575062000153565b600081558493506001016200088f565b909150819062000881565b601f909101601f19168101906001600160401b03821190821017620004c357604052565b51906001600160a01b03821682036200051257565b60005b838110620009065750506000910152565b8181015183820152602001620008f5565b81601f82011215620005125780516001600160401b038111620004c357604051926200094e601f8301601f191660200185620008b9565b8184526020828401011162000512576200096f9160208085019101620008f2565b90565b90600182811c92168015620009a4575b60208310146200098e57565b634e487b7160e01b600052602260045260246000fd5b91607f169162000982565b90602091620009ca81518092818552858086019101620008f2565b601f01601f191601019056fe6080604081815260048036101561001557600080fd5b60009260e08435811c91826301ffc9a7146123345750816304e664e21461220657816306fdde031461213a578163081812fc14612119578163095ea7b314611fe057816309c3dd8714611f6a5781630a88431814611f2b5781630f485c0214611be5578163156e29f614611b9957816318160ddd14611b795781631f71a45614611b1f57816323b872dd14611afa578163248a9ca314611acf578163263f3e7e14611aae57816327968e0914611a965781632efb44c414611a595781632f2ff15d146119ab5781632f745c5914611902578163310ed7f01461152557816336568abe1461149357816339ace21f1461145f5781633e7e86691461143c57816341ce4b3f1461141b57816342842e0e146113f85781634dc4d3aa1461127b5781634f558e79146112515781634f6ccce7146111cb5781636352211e146111995781636855cbb8146110e45781636db47bd4146110cc57816370a08231146110a5578163840f71131461107b5781638cb0a51114610fc85781638e9eeaef14610f9857816391d1485414610f525781639448bddb14610f1357816395d89b4114610e0b5781639beeceb214610d8e5781639cc7f70814610d6d578163a217fddf14610d51578163a22cb46514610c80578163a7c9f2d614610c44578163a8bf563814610b83578163b88d4fde14610b24578163bc74ebb914610aae578163c5c51dca1461086b57508063c87b56dd146105d6578063d547741f14610598578063de3cbb30146104ef578063e345e0bc146104bd578063e8a3d485146103a5578063e985e9c51461034e578063ec327a21146102a15763f87fbfe41461027757600080fd5b3461029d57602036600319011261029d576020928291358152600c845220549051908152f35b8280fd5b503461029d57602036600319011261029d578281356102c76102c282614056565b614011565b601254845163b2025e4f60e01b815293840191909152829060249082906001600160a01b03165afa908115610342579082918461031b959261031f575b5050015190519182916020835260208301906123dd565b0390f35b61033b92503d8091833e6103338183612505565b810190613473565b3880610304565b505051903d90823e3d90fd5b5050346103a157806003193601126103a15760209161036b6123a4565b600283610376612389565b9360018060a01b0380941681526007875220019116600052825260ff81600020541690519015158152f35b5080fd5b503461029d578260031936011261029d5781516103c1816124ea565b8381526008546001600160a01b031690811561043757508390835192838092631c97e82760e21b82525afa908115610342578361031b9492610414575b5050905b519182916020835260208301906123dd565b61043092503d8091833e6104288183612505565b810190612aec565b38806103fe565b61031b949092501590506104a8576104a2602961045330612889565b928451938161046c8693518092602080870191016123ba565b820168636f6e74726163742f60b81b602082015261049382518093602087850191016123ba565b01036009810184520182612505565b90610402565b5080516104b4816124ea565b600081526104a2565b5091346104ec57816003193601126104ec57506104e56020926104de612389565b9035612b31565b9051908152f35b80fd5b509190346103a1576020928360031936011261029d576012548251630283308760e11b8152823592810192835233602084015291859183918290036040019082906001600160a01b03165afa92831561058d578093610553575b5050519015158152f35b909192508382813d8311610586575b61056c8183612505565b810103126104ec575061057e9061335b565b903880610549565b503d610562565b8251903d90823e3d90fd5b50903461029d578060031936011261029d576105d391356105ce60016105bc612389565b938387526009602052862001546125ac565b6127b6565b80f35b503461029d57602090816003193601126108675780356105fd6105f882612dd5565b6129fc565b835191610609836124ea565b8583526008546001600160a01b031692831561068a57509060248692865194859384926344a5a61760e11b84528301525afa90811561067d578461031b93949592610662575b5050925b519282849384528301906123dd565b61067692503d8091833e6104288183612505565b388061064f565b50505051903d90823e3d90fd5b9250908591849596508260001461084b5781829184937a184f03e93ff9f4daa797ed6e38ed64bf6a1f010000000000000000908181101561083e575b5050866d04ee2d6d415b85acef810000000080851015610830575b5050662386f26fc1000080841015610821575b506305f5e10080841015610812575b5061271080841015610804575b505060648210156107f4575b600a809210156107ea575b6021908893600192816107548580940161074c61074382612526565b9951998a612505565b808952612526565b878b019890601f1901368a3750860101905b6107b4575b50505050926107a2926107ae9261031b958851958361079388955180928880890191016123ba565b840191518093868401906123ba565b01038084520182612505565b92610653565b600019019083906f181899199a1a9b1b9c1cb0b131b232b360811b8282061a8353049182156107e557919082610766565b61076b565b9160010191610727565b919060646002910491019161071c565b930192909104903880610710565b60089194930492019238610703565b601091949304920192386106f4565b9401939092049186386106e1565b8a955004925038806106c6565b505050505061031b825161085e816124ea565b600081526107ae565b8380fd5b9290503461086757836003193601126108675760125481516362e28ee560e11b815293946001600160a01b0391819086908690829086165afa948515610aa25781956109e1575b50919493929085519586956020918288019383895287518095528189019184818760051b8c010199019780945b8786106108ec578b8b038cf35b919395979990929496989a50603f198c82030186528a5190858251168152888201518982015261096b61095861094561093288860151610160808b8801528601906123dd565b60608087015190868303908701526123dd565b60808086015190858303908601526123dd565b60a08085015190848303908501526123dd565b9160c0878183015116908301528381015184830152610100808201519060038210156109cd57928b9392600195928594830152610120808201511515908301526101408091015115159101529c019601960193918b9a999795989693916108df565b50634e487b7160e01b865260218d52602486fd5b9094503d8086833e6109f38183612505565b81016020908183820312610a9e5782516001600160401b0393848211610a9a57019080601f83011215610a9657815190610a2c82613619565b94610a3988519687612505565b828652848087019360051b85010193828511610a9257858101935b858510610a69575050505050505093386108b2565b8451838111610a8e578791610a8386848094870101613368565b815201940193610a54565b8c80fd5b8a80fd5b8780fd5b8880fd5b8680fd5b508251903d90823e3d90fd5b50503461029d57602036600319011261029d57828135610ad06102c282614056565b601254845163b2025e4f60e01b815293840191909152829060249082906001600160a01b03165afa90811561034257906060918461031b959261031f575050015190519182916020835260208301906123dd565b848360803660031901126103a157610b3a6123a4565b610b42612389565b906064356001600160401b038111610b7f5736602382011215610b7f576105d393816024610b7593369301359101612541565b9160443591612c42565b8480fd5b828585346103a157806003193601126103a1576020610bdd93610ba4612389565b6012548451631517eac760e31b815283359381019384526001600160a01b03928316602085015296879392909116918391829160400190565b03915afa918215610c39578092610bfb575b60208383519015158152f35b9091506020833d8211610c31575b81610c1660209383612505565b810103126104ec5750610c2a60209261335b565b9083610bef565b3d9150610c09565b9051903d90823e3d90fd5b505050346103a157816003193601126103a157602090517f1cd6d520d98babae1045eb69c31ecab800996aa332094cb55c0ac10362e9b0c98152f35b5050903461029d578060031936011261029d57610c9b6123a4565b9060243591821515809303610b7f576001600160a01b031692338414610d0f57503384526007602052600281852001836000526020528060002060ff1981541660ff8416179055519081527f17307eab39ab6107e8899845ad3d59bd9653f200f220920489ca2b5937696c3160203392a380f35b6020606492519162461bcd60e51b8352820152601a60248201527f455243333532353a20617070726f766520746f2063616c6c65720000000000006044820152fd5b505050346103a157816003193601126103a15751908152602090f35b505091346104ec5760203660031901126104ec57506104e5602092356129d2565b50503461029d57602036600319011261029d576012548251630d0ab97760e31b81528235928101929092528390829060249082906001600160a01b03165afa908115610342578360209492610de8575b5050519051908152f35b610e0492503d8091833e610dfc8183612505565b810190613f90565b3880610dde565b505091346104ec57806003193601126104ec578151918160019283549384811c91818616958615610f09575b6020968785108114610ef6578899509688969785829a529182600014610ecf575050600114610e74575b50505061031b9291610653910385612505565b91908693508083527fb10e2d527612073b26eecdfd717e6a320cf44b4afac2b0732d9fcbe2b7fa0cf65b828410610eb7575050508201018161065361031b610e61565b8054848a018601528895508794909301928101610e9e565b60ff19168782015293151560051b86019093019350849250610653915061031b9050610e61565b634e487b7160e01b835260228a52602483fd5b92607f1692610e37565b50503461029d57602036600319011261029d579160209235610f376105f882612dd5565b8152600a83528190205490516001600160a01b039091168152f35b50503461029d578160031936011261029d5781602093610f70612389565b9235815260098552209060018060a01b0316600052825260ff81600020541690519015158152f35b505050346103a1576105d390610fad36612596565b91908452600f602052808420336000526020526000206130ed565b838584610fd436612430565b92610fe36105f8849394612dd5565b6110036001600160a01b0380610ff885612a48565b169085161415612cc2565b61100d8233612d64565b1561101e57506105d3939450613932565b608490602087519162461bcd60e51b8352820152603160248201527f455243333532353a20617070726f76652063616c6c6572206973206e6f74206f6044820152701ddb995c881b9bdc88185c1c1c9bdd9959607a1b6064820152fd5b505050346103a157816003193601126103a15760085490516001600160a01b039091168152602090f35b505050346103a15760203660031901126103a1576020906104e56110c76123a4565b612b62565b84346104ec576105d36110de36612596565b90613498565b838584346103a1576020928360031936011261029d576012548151630d0ab97760e31b81528335938101939093526001600160a01b03949084908490602490829089165afa92831561118f578493611173575b5092908051938080860192818752855180945286019401925b82811061115d5785850386f35b8351871685529381019392810192600101611150565b6111889193503d8086833e610dfc8183612505565b9185611137565b82513d86823e3d90fd5b505091346104ec5760203660031901126104ec57506111ba60209235612a48565b90516001600160a01b039091168152f35b505082346104ec5760203660031901126104ec5750803590600554821015611202576020836111f984612997565b50549051908152f35b608490602084519162461bcd60e51b8352820152602360248201527f455243333532353a20676c6f62616c20696e646578206f7574206f6620626f756044820152626e647360e81b6064820152fd5b505091346104ec5760203660031901126104ec575061127260209235614056565b90519015158152f35b50503461029d57608036600319011261029d576001600160401b03918135838111610b7f576112ad9036908401612578565b5060443592606435908111610b7f576112c99036908401612578565b506112e26112d96018548561282c565b60195490612b11565b916112ed8385613177565b156113aa5760165460175483516323b872dd60e01b8152339381019384526001600160a01b039182166020858101919091526040850187905290949390928592169082908990829060600103925af19081156113a1575061135f575b50611357906105d392613177565b602435613498565b906020823d8211611399575b8161137860209383612505565b81010312610867576105d3926113906113579361335b565b50925090611349565b3d915061136b565b513d86823e3d90fd5b6020608492519162461bcd60e51b83528201526024808201527f616d6f756e74206c65737320636f6d6d697373696f6e2073686f756c642062656044820152630203e20360e41b6064820152fd5b846105d38561140636612484565b91925192611413846124ea565b858452612c42565b505091346104ec5760203660031901126104ec575061127260209235612dd5565b505050346103a157816003193601126103a15760209060ff600254169051908152f35b50503461029d57602036600319011261029d576020928291356114846105f882612dd5565b8152600b845220549051908152f35b838584346103a157826003193601126103a1576114ae612389565b90336001600160a01b038316036114ca57906105d391356127b6565b608490602085519162461bcd60e51b8352820152602f60248201527f416363657373436f6e74726f6c3a2063616e206f6e6c792072656e6f756e636560448201526e103937b632b9903337b91039b2b63360891b6064820152fd5b82858560603660031901126103a15782356024908135916044359361154c6105f884612dd5565b6115586105f885612dd5565b61156183612a86565b61156a85612a86565b036118a757601254815163c5a887c560e01b808252338a830152602094926001600160a01b03908116919086848681865afa93841561189d5787928d92888e8994819961187e575b508d8152600a8752205416948851958694859384528301525afa908115611874578991611847575b508981101561183557898210156118355781036117b957801561175357600181036117265750611609856129d2565b848852600b8452828820548689528389205491999114611712576013549061163082613f82565b926127109184830294838604036116ef5761164a84613f82565b8084029084820403611700576116798b61167461167f938f80600b8f8f908f945252205490613177565b61282c565b94613f82565b808402938404036116ef575050916116d08a6116ca6116c36116d6956116bd8e9f6105d39f600b9a8f828f8f92908f91611674965252205490613177565b90612855565b918b612855565b90612b11565b90613177565b925b858952528620556116ea838233613b04565b613b9e565b634e487b7160e01b8b526011905289fd5b50634e487b7160e01b8b526011905289fd5b5050859650600b816105d3972054926116d8565b925050506002919495501461173c575b50505080f35b826116ea8361174b9533613b04565b818080611736565b60848984848782519362461bcd60e51b85528401528201527f52656769737472793a204e6574776f726b2076616c7565207472616e7366657260448201527f206e6f7420616c6c6f77656420666f72207072696f7269747920746f6b656e736064820152fd5b825162461bcd60e51b8152808a01859052604b818401527f52656769737472793a2043616e6e6f74207472616e736665722062657477656560448201527f6e20746f6b656e7320686f6c64696e6720646966666572656e7420747970657360648201526a1037b31031b932b234ba1760a91b608482015260a490fd5b634e487b7160e01b895260218a528289fd5b6118679150853d871161186d575b61185f8183612505565b810190613f6a565b8a6115da565b503d611855565b84513d8b823e3d90fd5b611896919950873d891161186d5761185f8183612505565b97386115b2565b86513d8d823e3d90fd5b603060849260208993519362461bcd60e51b85528401528201527f52656769737472793a207472616e7366657220746f20746f6b656e207769746860448201526f103234b33332b932b73a1039b637ba1760811b6064820152fd5b505082346104ec57826003193601126104ec5761191d6123a4565b6024359261192a82612b62565b84101561195d5760208561194f8682878760018060a01b031681526007865220612d4c565b91905490519160031b1c8152f35b608490602086519162461bcd60e51b8352820152602260248201527f455243333532353a206f776e657220696e646578206f7574206f6620626f756e604482015261647360f01b6064820152fd5b50503461029d578160031936011261029d5735906119c7612389565b9082845260096020526119df600182862001546125ac565b82845260096020528084209160018060a01b0316918260005260205260ff81600020541615611a0c578380f35b828452600960205280842082600052602052600020600160ff1982541617905533917f2f8788117e7eff1d82e926ec794901d17c78024a50270940304540a733656f0d8480a43880808380f35b505050346103a15780602092611a8792611a7236612402565b94929691600160035401809881600355613630565b848152600c8652205551908152f35b84346104ec576105d3611aa83661245a565b916140b6565b505091346104ec5760203660031901126104ec57506104e560209235612a86565b50503461029d57602036600319011261029d5781602093600192358152600985522001549051908152f35b846105d3611b0736612484565b91611b1a611b158433612d64565b612bdb565b612e03565b828585346103a157806003193601126103a1576020610bdd93611b40612389565b6012548451630283308760e11b815283359381019384526001600160a01b03928316602085015296879392909116918391829160400190565b505050346103a157816003193601126103a1576020906005549051908152f35b505050346103a15780611bc791602093611bb23661245a565b90600160039793975401809781600355613630565b838152600a85522080546001600160a01b0319163317905551908152f35b5050611bf036612430565b909391611bff6105f882612dd5565b611c0a828233613b04565b60019485600354019485600355611c2083612a86565b9160018060a01b0397888216928315611ede578815611e9157611c4289612dd5565b611e4e578899885190611c54826124ea565b600082528951611c63816124b9565b8b81528a60209d8e8084018b8152838501916000835260608601938c855260808701956000875260a08801998a5260066005549384936000525260002055600160401b811015611e3957808a611cbc9201600555612997565b959095611e2557906005959493929151855551898501555160028401558460038401915116906bffffffffffffffffffffffff60a01b918282541617905584878401925116908254161790550191518051936001600160401b038511611e105750908c8392611d33868f9b999d9c9a989796613193565b01916000528c600020908d6000905b858210611df957505050505050508390611d5f82611df398613110565b60007fddf252ad1be2c89b69c2b068fc378daa952ba7f163c4a11628f55a4df523b3ef8180a46000837fe4f48c240d3b994948aa54f3e2f5fca59263dfe1d52b6e4cf39a5d249b5ccb658280a48160005260068752611dc18560002054612997565b50508160007f0b2aac84f3ec956911fd78eae5311062972ff949f38412e8da39069d9f068cc6898851838152a3613b9e565b51908152f35b84518316828501558e9a509093019285018e611d42565b604190634e487b7160e01b6000525260246000fd5b600089634e487b7160e01b82525260246000fd5b604189634e487b7160e01b6000525260246000fd5b606490602089519162461bcd60e51b8352820152601d60248201527f455243333532353a20746f6b656e20616c7265616479206d696e7465640000006044820152fd5b608490602089519162461bcd60e51b8352820152602160248201527f455243333532353a2063616e6e6f74206d696e74207a65726f20746f6b656e496044820152601960fa1b6064820152fd5b608490602089519162461bcd60e51b8352820152602160248201527f455243333532353a206d696e7420746f20746865207a65726f206164647265736044820152607360f81b6064820152fd5b505050346103a15780602092611f4492611a7236612402565b848152600a865281812080546001600160a01b03191633179055600b8652205551908152f35b50503461029d57602036600319011261029d57828135611f8c6102c282614056565b601254845163b2025e4f60e01b815293840191909152829060249082906001600160a01b03165afa90811561034257906080918461031b959261031f575050015190519182916020835260208301906123dd565b5050908060031936011261029d57611ff66123a4565b6024359290916001600160a01b039190828061201187612a48565b1694169361202181861415612cc2565b8033149081156120f5575b501561208c576120489085600052600660205260002054612997565b500180546001600160a01b0319168317905561206383612a48565b167f8c5be1e5ebec7d5bd14f71427d1e84f3dd0314c0f7b2291e5b200ac8c7c3b925600080a480f35b906020608492519162461bcd60e51b8352820152603960248201527f455243333532353a20617070726f76652063616c6c6572206973206e6f74206f60448201527f776e6572206e6f7220617070726f76656420666f7220616c6c000000000000006064820152fd5b9050865260076020526002818720013360005260205260ff8160002054163861202c565b505091346104ec5760203660031901126104ec57506111ba60209235612d19565b505091346104ec57806003193601126104ec5781519181825492600184811c918186169586156121fc575b6020968785108114610ef6578899509688969785829a529182600014610ecf5750506001146121a15750505061031b9291610653910385612505565b91908693508280527f290decd9548b62a8d60345a988386fc84ba6bc95484008f6362f93160ef3e5635b8284106121e4575050508201018161065361031b610e61565b8054848a0186015288955087949093019281016121cb565b92607f1692612165565b5050903461029d578060031936011261029d57612221612389565b917f1cd6d520d98babae1045eb69c31ecab800996aa332094cb55c0ac10362e9b0c98452600960205281842033855260205260ff8285205416156122da576012546001600160a01b0390811693859190853b1561029d57606490838651978894859363f6f0800560e01b8552883589860152166024840152600160448401525af1801561118f576122b0578380f35b6001600160401b0383116122c75750523880808380f35b634e487b7160e01b845260419052602483fd5b6020608492519162461bcd60e51b8352820152602f60248201527f53656e646572206e6f7420617574686f72697a656420746f206a6f696e20616460448201526e191c995cdcc81d1bc818481cdb1bdd608a1b6064820152fd5b935050503461029d57602036600319011261029d573563ffffffff60e01b811680910361029d5760209250637965db0b60e01b8114908115612378575b5015158152f35b6301ffc9a760e01b14905038612371565b602435906001600160a01b038216820361239f57565b600080fd5b600435906001600160a01b038216820361239f57565b60005b8381106123cd5750506000910152565b81810151838201526020016123bd565b906020916123f6815180928185528580860191016123ba565b601f01601f1916010190565b608090600319011261239f576004356001600160a01b038116810361239f5790602435906044359060643590565b606090600319011261239f57600435906024356001600160a01b038116810361239f579060443590565b606090600319011261239f576004356001600160a01b038116810361239f57906024359060443590565b606090600319011261239f576001600160a01b0390600435828116810361239f5791602435908116810361239f579060443590565b60c081019081106001600160401b038211176124d457604052565b634e487b7160e01b600052604160045260246000fd5b602081019081106001600160401b038211176124d457604052565b90601f801991011681019081106001600160401b038211176124d457604052565b6001600160401b0381116124d457601f01601f191660200190565b92919261254d82612526565b9161255b6040519384612505565b82948184528183011161239f578281602093846000960137010152565b9080601f8301121561239f5781602061259393359101612541565b90565b604090600319011261239f576004359060243590565b60009080825260209060098252604092838120338252835260ff8482205416156125d65750505050565b6125df33612889565b91845190608082018281106001600160401b038211176127a25786526042825284820192606036853782511561278e576030845382519060019182101561278e5790607860218501536041915b818311612720575050506126de5760486126da9386936126be936126af98519889937f416363657373436f6e74726f6c3a206163636f756e74200000000000000000008a860152612686815180928c6037890191016123ba565b8401917001034b99036b4b9b9b4b733903937b6329607d1b6037840152518093868401906123ba565b01036028810187520185612505565b5192839262461bcd60e51b8452600484015260248301906123dd565b0390fd5b60648486519062461bcd60e51b825280600483015260248201527f537472696e67733a20686578206c656e67746820696e73756666696369656e746044820152fd5b909192600f8116601081101561277a576f181899199a1a9b1b9c1cb0b131b232b360811b901a6127508587612862565b5360041c9280156127665760001901919061262c565b634e487b7160e01b82526011600452602482fd5b634e487b7160e01b83526032600452602483fd5b634e487b7160e01b81526032600452602490fd5b634e487b7160e01b84526041600452602484fd5b906000918083526009602052604083209160018060a01b03169182845260205260ff6040842054166127e757505050565b8083526009602052604083208284526020526040832060ff1981541690557ff6391f5c32d9c69d2a47ea670b442974b53935d1edc7fd64eb21e047a839171b339380a4565b8181029291811591840414171561283f57565b634e487b7160e01b600052601160045260246000fd5b9190820180921161283f57565b908151811015612873570160200190565b634e487b7160e01b600052603260045260246000fd5b60405190606082018281106001600160401b038211176124d457604052602a82526020820160403682378251156128735760309053815160019081101561287357607860218401536029905b8082116129295750506128e55790565b606460405162461bcd60e51b815260206004820152602060248201527f537472696e67733a20686578206c656e67746820696e73756666696369656e746044820152fd5b9091600f81166010811015612982576f181899199a1a9b1b9c1cb0b131b232b360811b901a6129588486612862565b5360041c91801561296d5760001901906128d5565b60246000634e487b7160e01b81526011600452fd5b60246000634e487b7160e01b81526032600452fd5b600554811015612873576006906005600052027f036b6384b5eca791c62761152d0c79bb0604c104a5fb6f4eb0703f3154bb3db00190600090565b6129de6105f882612dd5565b600052600660205260026129f6604060002054612997565b50015490565b15612a0357565b60405162461bcd60e51b815260206004820152601960248201527f455243333532353a20696e76616c696420746f6b656e204944000000000000006044820152606490fd5b612a546105f882612dd5565b6000526006602052612a6a604060002054612997565b50600301546001600160a01b031690612a848215156129fc565b565b612a926105f882612dd5565b600052600660205260016129f6604060002054612997565b81601f8201121561239f578051612ac081612526565b92612ace6040519485612505565b8184526020828401011161239f5761259391602080850191016123ba565b9060208282031261239f5781516001600160401b03811161239f576125939201612aaa565b8115612b1b570490565b634e487b7160e01b600052601260045260246000fd5b612b3d6105f882612dd5565b600052600460205260406000209060018060a01b031660005260205260406000205490565b6001600160a01b03168015612b8257600052600760205260406000205490565b60405162461bcd60e51b815260206004820152602b60248201527f455243333532353a2062616c616e636520717565727920666f7220746865207a60448201526a65726f206164647265737360a81b6064820152608490fd5b15612be257565b60405162461bcd60e51b815260206004820152603260248201527f455243333532353a207472616e736665722063616c6c6572206973206e6f74206044820152711bdddb995c881b9bdc88185c1c1c9bdd995960721b6064820152608490fd5b90612c66939291612c56611b158433612d64565b612c61838383612e03565b613226565b15612c6d57565b60405162461bcd60e51b815260206004820152602760248201527f455243333532353a207472616e7366657220746f206e6f6e204552433732315260448201526632b1b2b4bb32b960c91b6064820152608490fd5b15612cc957565b60405162461bcd60e51b815260206004820152602260248201527f455243333532353a20617070726f76616c20746f2063757272656e74206f776e60448201526132b960f11b6064820152608490fd5b612d256105f882612dd5565b6000526006602052612d3b604060002054612997565b50600401546001600160a01b031690565b80548210156128735760005260206000200190600090565b906001600160a01b038080612d7884612a48565b16931691838314938415612dab575b508315612d95575b50505090565b612da191929350612d19565b1614388080612d8f565b909350600052600760205260026040600020018260005260205260ff604060002054169238612d87565b60055415159081612de4575090565b8091506000526006602052612dfd604060002054612997565b50541490565b612e0c83612a48565b6001600160a01b039182169190811682900361309c5780831692831561304957612e3585612a86565b50612e3f856129d2565b5060009185835260209060068252604090612e5c82862054612997565b50600490810180546001600160a01b03199081169091559091898782612e8183612a48565b167f8c5be1e5ebec7d5bd14f71427d1e84f3dd0314c0f7b2291e5b200ac8c7c3b9258280a4898752600685526005612ebb85892054612997565b500180549091858988818f5b868410613012575050505050505080549087815581612ff5575b5050888652600684526003612ef884882054612997565b5001908154169055858552600783528185209182549360001994858101908111612fe25790612f2988939286612d4c565b90549060031b1c9060018601908c85528181528385205492612f6a81612f4f868b612d4c565b90919082549060031b600019811b9283911b16911916179055565b855252818320558982528120558154908115612fcf575092828892612fcb947fddf252ad1be2c89b69c2b068fc378daa952ba7f163c4a11628f55a4df523b3ef97960191612fb88383612d4c565b909182549160031b1b1916905555613110565b80a4565b634e487b7160e01b865260319052602485fd5b634e487b7160e01b885260118452602488fd5b8752848720908101905b81811015612ee157878155600101612fff565b61303f9486928b613023878c612d4c565b96905494835252209260031b1c168c5289528a88812055613184565b8690888b8f612ec7565b60405162461bcd60e51b815260206004820152602560248201527f455243333532353a207472616e7366657220746f20746865207a65726f206164604482015264647265737360d81b6064820152608490fd5b60405162461bcd60e51b8152602060048201526024808201527f455243333532353a207472616e736665722066726f6d20696e76616c6964206f6044820152633bb732b960e11b6064820152608490fd5b90815491600160401b8310156124d45782612f4f916001612a8495018155612d4c565b906040612a84926000908382526006602052600361313084842054612997565b500180546001600160a01b0319166001600160a01b0390921691821790558082526007602081815284842080548786526001919091018252858520559183529052206130ed565b9190820391821161283f57565b600019811461283f5760010190565b600160401b82116124d4578054918082558281106131b057505050565b60009182526020822092830192015b8281106131cb57505050565b8181556001016131bf565b9081602091031261239f57516001600160e01b03198116810361239f5790565b3d15613221573d9061320782612526565b916132156040519384612505565b82523d6000602084013e565b606090565b9192813b1561333e57602091613278916000604051958680958194630a85bd0160e11b9a8b845233600485015260018060a01b03809516602485015260448401526080606484015260848301906123dd565b0393165af16000918161330e575b50613300576132936131f6565b805190816132fb5760405162461bcd60e51b815260206004820152603260248201527f4552433732313a207472616e7366657220746f206e6f6e20455243373231526560448201527131b2b4bb32b91034b6b83632b6b2b73a32b960711b6064820152608490fd5b602001fd5b6001600160e01b0319161490565b61333091925060203d8111613337575b6133288183612505565b8101906131d6565b9038613286565b503d61331e565b50505050600190565b51906001600160a01b038216820361239f57565b5190811515820361239f57565b91909161016090818185031261239f576040519182016001600160401b0390838110828211176124d45760405282946133a083613347565b845260208301516020850152604083015182811161239f57816133c4918501612aaa565b6040850152606083015182811161239f57816133e1918501612aaa565b6060850152608083015182811161239f57816133fe918501612aaa565b608085015260a083015191821161239f5761341a918301612aaa565b60a083015261342b60c08201613347565b60c083015260e081015160e08301526101008082015190600382101561239f5783015261012061345c81830161335b565b9083015261346e61014080920161335b565b910152565b9060208282031261239f5781516001600160401b03811161239f576125939201613368565b919080156135dd5760125460405163b2025e4f60e01b815260048101859052600094916001600160a01b03919086908290602490829086165afa80156135d2576101409187916135b8575b50015115613582576016546040516323b872dd60e01b8152336004820152306024820152604481018590529591602091879160649183918691165af1801561357557613537575b50612a84929350336140b6565b6020853d821161356d575b8161354f60209383612505565b810103126104ec5750613565612a84939461335b565b50839261352a565b3d9150613542565b50604051903d90823e3d90fd5b60405162461bcd60e51b815260206004820152600e60248201526d141bdbdb081b9bdd081d985b1a5960921b6044820152606490fd5b6135cc91503d8089833e6103338183612505565b386134e3565b6040513d88823e3d90fd5b60405162461bcd60e51b81526020600482015260146024820152730616d6f756e742073686f756c64206265203e20360641b6044820152606490fd5b6001600160401b0381116124d45760051b60200190565b6001600160a01b038082169594929390929086156138e35784156138945761365785612dd5565b61384f5760409081519361366a856124ea565b60009586865283519061367c826124b9565b88825260209682898d8c8b8097018981528a850191848352606086019384528b608087019580875260a0880198895260066005549b8c948352522055600160401b88101561383b576136d5600198898101600555612997565b95909561382757906005959493929151855551888501555160028401558560038401915116906bffffffffffffffffffffffff60a01b9182825416179055856004840192511690825416179055019051918251926001600160401b0384116138135789906137438585613193565b01918a52888a20908a5b848110613800575050505050509580979861378a827f0b2aac84f3ec956911fd78eae5311062972ff949f38412e8da39069d9f068cc69899613110565b877fddf252ad1be2c89b69c2b068fc378daa952ba7f163c4a11628f55a4df523b3ef8180a485877fe4f48c240d3b994948aa54f3e2f5fca59263dfe1d52b6e4cf39a5d249b5ccb658280a48585526006835260026137ea82872054612997565b50016137f7838254612855565b905551908152a3565b8351821683820155928a0192850161374d565b634e487b7160e01b8b52604160045260248bfd5b634e487b7160e01b8f5260048f905260248ffd5b634e487b7160e01b8e52604160045260248efd5b60405162461bcd60e51b815260206004820152601d60248201527f455243333532353a20746f6b656e20616c7265616479206d696e7465640000006044820152606490fd5b60405162461bcd60e51b815260206004820152602160248201527f455243333532353a2063616e6e6f74206d696e74207a65726f20746f6b656e496044820152601960fa1b6064820152608490fd5b60405162461bcd60e51b815260206004820152602160248201527f455243333532353a206d696e7420746f20746865207a65726f206164647265736044820152607360f81b6064820152608490fd5b6001600160a01b038083169391928415613a1b578361395091613a73565b1561399e575b5060207f621b050de0ad08b51d19b48b3e6df75348c4de6bdd93e81b252ca62e28265b1b918360005260048252604060002085600052825280604060002055604051908152a3565b9082600052600660205260056139b8604060002054612997565b500190815492600160401b8410156124d457856139fe8560209560017f621b050de0ad08b51d19b48b3e6df75348c4de6bdd93e81b252ca62e28265b1b98018155612d4c565b909283549160031b90811b9283911b169119161790559150613956565b60405162461bcd60e51b815260206004820152602a60248201527f455243333532353a20617070726f76652076616c756520746f20746865207a65604482015269726f206164647265737360b01b6064820152608490fd5b6000908282526006602090808252604090613a9082862054612997565b509260058094015496865b888110613aae5750505050505050905090565b818852838352613acc8187613ac5888c2054612997565b5001612d4c565b905460039190911b1c6001600160a01b0390811690881614613af657613af190613184565b613a9b565b505050505050505050600190565b613b0e8183612b31565b613b188383612d64565b1580613b92575b613b2a575b50505050565b838110613b4d57613b4493613b3e91613177565b91613932565b38808080613b24565b60405162461bcd60e51b815260206004820152601f60248201527f455243333532353a20696e73756666696369656e7420616c6c6f77616e6365006044820152606490fd5b50600019811415613b1f565b613ba781612dd5565b15613dd457613bb582612dd5565b15613d81578060005260209260068452604092613bd58460002054612997565b508160005260068652613beb8560002054612997565b50906002810190815490858210613d2a5760010154600184015403613ccf5791600291613c1e86613c6d98979695613177565b905501613c2c838254612855565b905580837f0b2aac84f3ec956911fd78eae5311062972ff949f38412e8da39069d9f068cc6888851868152a3845192613c64846124ea565b60008452613e29565b15613c76575050565b60849250519062461bcd60e51b82526004820152602d60248201527f455243333532353a207472616e736665722072656a656374656420627920455260448201526c21999a991aa932b1b2b4bb32b960991b6064820152fd5b865162461bcd60e51b815260048101899052602e60248201527f455243333532353a207472616e7366657220746f20746f6b656e20776974682060448201526d191a5999995c995b9d081cdb1bdd60921b6064820152608490fd5b875162461bcd60e51b8152600481018a9052602a60248201527f455243333532353a20696e73756666696369656e742062616c616e636520666f60448201526939103a3930b739b332b960b11b6064820152608490fd5b60405162461bcd60e51b815260206004820152602560248201527f455243333532353a207472616e7366657220746f20696e76616c696420746f6b604482015264195b88125160da1b6064820152608490fd5b60405162461bcd60e51b815260206004820152602760248201527f455243333532353a207472616e736665722066726f6d20696e76616c696420746044820152661bdad95b88125160ca1b6064820152608490fd5b929092613e3584612a48565b803b15613f60576040516301ffc9a760e01b8152629ce20b60e01b6004820181905295602095926001600160a01b0316918681602481865afa60009181613f29575b50613e92575050505050505050613e8c6131f6565b50600190565b15613f1d5760008694613ed1604051978896879586948d865233600487015260248601526044850152606484015260a0608484015260a48301906123dd565b03925af1918215613f1157600092613ef4575b50506001600160e01b0319161490565b613f0a9250803d10613337576133288183612505565b3880613ee4565b6040513d6000823e3d90fd5b50505050505050600190565b90918882813d8311613f59575b613f408183612505565b810103126104ec5750613f529061335b565b9038613e77565b503d613f36565b5050505050600190565b9081602091031261239f5751600481101561239f5790565b604d811161283f57600a0a90565b602090818184031261239f578051906001600160401b03821161239f57019180601f8401121561239f578251613fc581613619565b93613fd36040519586612505565b818552838086019260051b82010192831161239f578301905b828210613ffa575050505090565b83809161400684613347565b815201910190613fec565b1561401857565b60405162461bcd60e51b815260206004820152601660248201527514db1bdd081a5cc81b9bdd081c9959da5cdd195c995960521b6044820152606490fd5b60125460405163b2025e4f60e01b81526004810192909252600090829060249082906001600160a01b03165afa8015613f115760409160009161409d575b50015151151590565b6140b0913d8091833e6103338183612505565b38614094565b916040919260018060a01b0316926140e4600092858452601560205284842083855260205284842054612855565b9382526015602052828220908252602052205556fea2646970667358221220126ece507462a1a437f760334ffa01365892119d19b0ac96578a60431352f57664736f6c634300081100336080604052346200048657620020b7803803806200001d816200048b565b9283398101608082820312620004865781516001600160401b0391908281116200048657816200004f918501620004b1565b91602092838501518281116200048657836200006d918701620004b1565b92604086015183811162000486576060916200008b918801620004b1565b9501516001600160a01b03811695908690036200048657815193838511620002c3576001948554938685811c951680156200047b575b88861014620002a2578190601f9586811162000425575b508890868311600114620003bd57600092620003b1575b5050600019600383901b1c191690861b1785555b805190848211620002c357600254908682811c92168015620003a6575b88831014620002a25781858493116200034f575b508790858311600114620002e557600092620002d9575b5050600019600383901b1c191690851b176002555b8051928311620002c35760039485548581811c91168015620002b8575b82821014620002a25783811162000257575b5080928411600114620001ed5750928293918392600094620001e1575b50501b9160001990841b1c19161790555b600080546001600160a01b031916919091179055604051611b939081620005248239f35b015192503880620001ac565b919083601f1981168760005284600020946000905b888383106200023c575050501062000223575b505050811b019055620001bd565b015160001983861b60f8161c1916905538808062000215565b85870151885590960195948501948793509081019062000202565b86600052816000208480870160051c82019284881062000298575b0160051c019086905b8281106200028b5750506200018f565b600081550186906200027b565b9250819262000272565b634e487b7160e01b600052602260045260246000fd5b90607f16906200017d565b634e487b7160e01b600052604160045260246000fd5b0151905038806200014b565b90879350601f198316916002600052896000209260005b8b8282106200033857505084116200031e575b505050811b0160025562000160565b015160001960f88460031b161c191690553880806200030f565b8385015186558b97909501949384019301620002fc565b9091506002600052876000208580850160051c8201928a86106200039c575b918991869594930160051c01915b8281106200038c57505062000134565b600081558594508991016200037c565b925081926200036e565b91607f169162000120565b015190503880620000ef565b90889350601f19831691846000528a6000209260005b8c8282106200040e5750508411620003f4575b505050811b01855562000103565b015160001960f88460031b161c19169055388080620003e6565b8385015186558c97909501949384019301620003d3565b90915087600052886000208680850160051c8201928b861062000471575b918a91869594930160051c01915b82811062000461575050620000d8565b600081558594508a910162000451565b9250819262000443565b94607f1694620000c1565b600080fd5b6040519190601f01601f191682016001600160401b03811183821017620002c357604052565b919080601f84011215620004865782516001600160401b038111620002c357602090620004e7601f8201601f191683016200048b565b92818452828287010111620004865760005b8181106200050f57508260009394955001015290565b8581018301518482018401528201620004f956fe608060408181526004908136101561001657600080fd5b600092833560e01c9081631375d843146113cd57508063246a908b146112cf57806355f804b31461118b57806364140ec01461108c5780636c0360eb14610fcd5780636c037f8a14610d0f57806371f0442e14610c7b578063725fa09c146108c05780637e468a51146107c1578063842251d414610685578063894b4c2e146101755763b3154c08146100a857600080fd5b34610171576020918260031936011261016d5780358452825280832091815192848154906100d5826118e1565b80875292600192808416908115610149575060011461010e575b61010a8787610100828c03836114e3565b5191829182611485565b0390f35b9080949750528583205b828410610136575050508261010a94610100928201019438806100ef565b8054868501880152928601928101610118565b60ff19168887015250505050151560051b83010192506101008261010a38806100ef565b8380fd5b8280fd5b50903461017157602092836003193601126106825782516306fdde0360e01b81529180359082848281335afa938415610678578394610654575b506101b98261179e565b926102056022875180968a6101d78184019a8b815193849201611462565b820161202360f01b8c8201526101f68c83519384918785019101611462565b010360028101875201856114e3565b828152818752858120865181549391899184610220876118e1565b80835284830193600198868a821691826000146106345750506001146105fb575b505090610254816102c9949303826114e3565b6102e561026030611a1a565b898852600686526102d78d808a209a60058952818b2091519788948a86019a6102ac61028b8d61191b565b91692f636f6e74726163742f60b01b83528351938491600a85019101611462565b019c6011662f746f6b656e2f60c81b9e8f600a8201520190611997565b602f60f81b81520190611997565b03601f1981018552846114e3565b8a51631398fee160e31b81528581018990528c81602481335afa80156105c25787906105cc575b610316915061179e565b8b5163131f9f3f60e11b8152958601899052948c81602481335afa9081156105c2578d918d918991610589575b5061034d9061179e565b9761035733611a1a565b9a815260068352208c51713d91383937b832b93a34b2b9afbab934911d60711b818401908152601160f91b60328301529a90998a93909161039a6033860161191b565b9068636f6e74726163742f60b81b825280518093600984019201916103be92611462565b019060098201526010016103d191611997565b6f17b83937b832b93a34b2b9973539b7b760811b815261227d60f01b601082015203600d198101885260120161040790886114e3565b8a51998a998d683d913730b6b2911d1160b91b908c015251908160298c0161042e92611462565b890190701116113232b9b1b934b83a34b7b7111d1160791b6029830152519182603a830161045b92611462565b01906a11161134b6b0b3b2911d1160a91b603a8301525191826045830161048192611462565b016c1116113130b630b731b2911d1160991b6045820152815191828a605284019201916104ad92611462565b016911161139b637ba111d1160b11b60528201528151918289605c84019201916104d692611462565b01906e111611383937b832b93a34b2b9911d60891b605c830152519182606b830161050092611462565b01606b8101607d60f81b905203604c81018252606c0161052090826114e3565b61052990611631565b81517f646174613a6170706c69636174696f6e2f6a736f6e3b6261736536342c00000084820152815190938492610567918391603d86019101611462565b810103601d81018352603d0161057d90836114e3565b5161010a819282611485565b928092508391503d83116105bb575b6105a281836114e3565b810103126105b7578b61034d8e925190610343565b8680fd5b503d610598565b8c513d89823e3d90fd5b508c81813d83116105f4575b6105e281836114e3565b810103126105b757610316905161030c565b503d6105d8565b8592508752818720908888925b82841061061e5750505082010161025482610241565b80548487018601528794909301928a9101610608565b60ff1916875292151560051b850190920192506102549150839050610241565b6106719194503d8085833e61066981836114e3565b8101906115a0565b92386101af565b85513d85823e3d90fd5b80fd5b508290346107bd576106963661156d565b939083526020916006835283209184519167ffffffffffffffff83116107aa57506106c183546118e1565b601f8111610767575b5080601f831160011461070557508394829394926106fa575b50508160011b916000199060031b1c191617905580f35b0151905084806106e3565b90601f198316958486528286209286905b88821061074f57505083600195969710610736575b505050811b01905580f35b015160001960f88460031b161c1916905584808061072b565b80600185968294968601518155019501930190610716565b838552818520601f840160051c8101918385106107a0575b601f0160051c01905b81811061079557506106ca565b858155600101610788565b909150819061077f565b634e487b7160e01b855260419052602484fd5b5080fd5b508290346107bd576107d23661156d565b939083526020916007835283209184519167ffffffffffffffff83116107aa57506107fd83546118e1565b601f811161087d575b5080601f831160011461083557508394829394926106fa5750508160011b916000199060031b1c191617905580f35b90601f198316958486528286209286905b8882106108655750508360019596971061073657505050811b01905580f35b80600185968294968601518155019501930190610846565b838552818520601f840160051c8101918385106108b6575b601f0160051c01905b8181106108ab5750610806565b85815560010161089e565b9091508190610895565b50913461068257806003193601126106825782516306fdde0360e01b815281818481335afa908115610c71578291610c57575b508351829060025492610905846118e1565b9586835260209683888101956001978a8982169182600014610c3c575050600114610be1575b610937925003846114e3565b61094033611a1a565b9588519586898101986109528a61191b565b68636f6e74726163742f60b81b81526109758c8351938491600985019101611462565b01602f60f81b600982015283906003549361098f856118e1565b94818116908115610bc05750600114610b61575b50506109b8925003601f1981018852876114e3565b8789518093633e7e866960e01b825281335afa918215610b55578192610b17575b5050610ac9605a888a61010a9b9961010099610a7f603d9a610b079e9a610a5c610ace9b610a0c60ff610a329d1661179e565b97519b8c99683d913730b6b2911d1160b91b818c0152825192839160298d019101611462565b880191701116113232b9b1b934b83a34b7b7111d1160791b6029840152518093603a840190611462565b01916a11161134b6b0b3b2911d1160a91b603a8401525180936045840190611462565b01721116113b30b63ab2a232b1b4b6b0b639911d1160691b6045820152610aaf825180938a605885019101611462565b0161227d60f01b605882015203603a8101845201826114e3565b611631565b845195827f646174613a6170706c69636174696f6e2f6a736f6e3b6261736536342c000000889485015282519283918686019101611462565b810103601d8101855201836114e3565b9091508781813d8311610b4e575b610b2f81836114e3565b810103126107bd57519060ff821682036106825750610ac9605a6109d9565b503d610b25565b508851903d90823e3d90fd5b6003865290915084908c7fc2575a0e9e593c00f959f8c92f12db2869c3395a3b0502d05e2516446f71f85b5b868410610ba857505050506109b892600a91010138806109a3565b8054858501600a01528c95509201918d908201610b8d565b9050600a93506109b895915060ff19168383015280151502010138806109a3565b505060028752838888887f405787fa12a823e0f2b7631cc41b3ba8828b3321ca811111fa75cd3aa3bb5ace5b858310610c23575050610937935082010161092b565b80919294505483858a0101520191018990888793610c0d565b60ff1916895261093794151560051b840101915061092b9050565b610c6b91503d8084833e61066981836114e3565b386108f3565b84513d84823e3d90fd5b5034610171576020918260031936011261016d57358352600582528083209181519284815490610caa826118e1565b808752926001928084169081156101495750600114610cd45761010a8787610100828c03836114e3565b9080949750528583205b828410610cfc575050508261010a94610100928201019438806100ef565b8054868501880152928601928101610cde565b5090346101715760209283600319360112610682578054835163ec327a2160e01b815283358185018190529092916001600160a01b0316908284602481855afa938415610fc3578394610fa7575b50855163bc74ebb960e01b8152858101829052948386602481865afa958615610f9d578496610f81575b5086516309c3dd8760e01b80825282820184905290938585602481845afa948515610f7757918a9594939187938496610f56575b5090602491610dfb60268d518a652f696d61676560d01b81610de7849e85019d8e815193849201611462565b83019182015203600681018b5201896114e3565b8b51958694859384528301525afa938415610f4b578094610f2e575b50508551918288808201868197519283910191610e3392611462565b81018981016f17b83937b832b93a34b2b9973539b7b760811b905203601081018452603001610e6290846114e3565b8651958695683d913730b6b2911d1160b91b8a880152805190818b60298a01920191610e8d92611462565b8601701116113232b9b1b934b83a34b7b7111d1160791b6029820152815191828b603a8401920191610ebe92611462565b01906a11161134b6b0b3b2911d1160a91b603a83015251918260458301610ee492611462565b01906e111611383937b832b93a34b2b9911d60891b604583015251918260548301610f0e92611462565b0160548101607d60f81b90520360358101825260550161052090826114e3565b610f439294503d8091833e61066981836114e3565b913880610e17565b8751903d90823e3d90fd5b602492919650610f6f903d8087833e61066981836114e3565b959091610dbb565b89513d88823e3d90fd5b610f969196503d8086833e61066981836114e3565b9438610d87565b87513d86823e3d90fd5b610fbc9194503d8085833e61066981836114e3565b9238610d5d565b86513d85823e3d90fd5b8382346107bd57816003193601126107bd57805190826001805491610ff1836118e1565b80865292828116908115611064575060011461101a575b5050506101008261010a9403836114e3565b9450808552600080516020611b3e8339815191525b82861061104c5750505061010082602061010a9582010194611008565b8054602087870181019190915290950194810161102f565b61010a97508693506020925061010094915060ff191682840152151560051b82010194611008565b508290346107bd5761109d3661156d565b939083526020916005835283209184519167ffffffffffffffff83116107aa57506110c883546118e1565b601f8111611148575b5080601f831160011461110057508394829394926106fa5750508160011b916000199060031b1c191617905580f35b90601f198316958486528286209286905b8882106111305750508360019596971061073657505050811b01905580f35b80600185968294968601518155019501930190611111565b838552818520601f840160051c810191838510611181575b601f0160051c01905b81811061117657506110d1565b858155600101611169565b9091508190611160565b828434610682576020806003193601126107bd5767ffffffffffffffff833581811161016d576111be9036908601611521565b9384519182116112bc57506001916111d683546118e1565b601f811161126a575b5080601f8311600114611219575083948293949261120e575b5050600019600383901b1c191690821b17905580f35b0151905084806111f8565b838552601f19831695600080516020611b3e833981519152929186905b888210611253575050838596971061073657505050811b01905580f35b808785968294968601518155019501930190611236565b838552600080516020611b3e833981519152601f840160051c8101918385106112b2575b601f0160051c019084905b8281106112a75750506111df565b868155018490611299565b909150819061128e565b634e487b7160e01b845260419052602483fd5b508290346107bd576112e03661156d565b9390835260209181835283209184519167ffffffffffffffff83116107aa575061130a83546118e1565b601f811161138a575b5080601f831160011461134257508394829394926106fa5750508160011b916000199060031b1c191617905580f35b90601f198316958486528286209286905b8882106113725750508360019596971061073657505050811b01905580f35b80600185968294968601518155019501930190611353565b838552818520601f840160051c8101918385106113c3575b601f0160051c01905b8181106113b85750611313565b8581556001016113ab565b90915081906113a2565b9290503461016d576020908160031936011261145e57358452600681528184208054856113f9826118e1565b8087529260019280841690811561014957506001146114235761010a8787610100828c03836114e3565b9080949750528583205b82841061144b575050508261010a94610100928201019438806100ef565b805486850188015292860192810161142d565b8480fd5b60005b8381106114755750506000910152565b8181015183820152602001611465565b604091602082526114a58151809281602086015260208686019101611462565b601f01601f1916010190565b6060810190811067ffffffffffffffff8211176114cd57604052565b634e487b7160e01b600052604160045260246000fd5b90601f8019910116810190811067ffffffffffffffff8211176114cd57604052565b67ffffffffffffffff81116114cd57601f01601f191660200190565b81601f820112156115685780359061153882611505565b9261154660405194856114e3565b8284526020838301011161156857816000926020809301838601378301015290565b600080fd5b90604060031983011261156857600435916024359067ffffffffffffffff82116115685761159d91600401611521565b90565b6020818303126115685780519067ffffffffffffffff8211611568570181601f820112156115685780516115d381611505565b926115e160405194856114e3565b818452602082840101116115685761159d9160208085019101611462565b9061160982611505565b61161660405191826114e3565b8281528092611627601f1991611505565b0190602036910137565b80511561177957604051611644816114b1565b604081527f4142434445464748494a4b4c4d4e4f505152535455565758595a61626364656660208201527f6768696a6b6c6d6e6f707172737475767778797a303132333435363738392b2f60408201528151600292838201809211611763576003918290046001600160fe1b0381168103611763576116c6908594951b6115ff565b936020850193829183518401925b83811061171257505050505106806001146116ff576002146116f4575090565b603d90600019015390565b50603d9081600019820153600119015390565b85600491979293949701918251600190603f9082828260121c16880101518453828282600c1c16880101518385015382828260061c16880101518885015316850101518782015301959291906116d4565b634e487b7160e01b600052601160045260246000fd5b506040516020810181811067ffffffffffffffff8211176114cd576040526000815290565b806000917a184f03e93ff9f4daa797ed6e38ed64bf6a1f010000000000000000808210156118d3575b506d04ee2d6d415b85acef8100000000808310156118c4575b50662386f26fc10000808310156118b5575b506305f5e100808310156118a6575b5061271080831015611897575b506064821015611887575b600a8092101561187d575b6001908160216118358287016115ff565b95860101905b611847575b5050505090565b600019019083906f181899199a1a9b1b9c1cb0b131b232b360811b8282061a8353049182156118785791908261183b565b611840565b9160010191611824565b9190606460029104910191611819565b6004919392049101913861180e565b60089193920491019138611801565b601091939204910191386117f2565b602091939204910191386117e0565b6040935081049150386117c7565b90600182811c92168015611911575b60208310146118fb57565b634e487b7160e01b600052602260045260246000fd5b91607f16916118f0565b9060009160019081549161192e836118e1565b92818116908115611984575060011461194657505050565b809192939450600052600080516020611b3e833981519152906000915b848310611971575050500190565b8181602092548587015201920191611963565b60ff191683525050811515909102019150565b6000929181546119a6816118e1565b926001918083169081156119ff57506001146119c3575b50505050565b90919293945060005260209081600020906000915b8583106119ee57505050500190388080806119bd565b8054858401529183019181016119d8565b60ff19168452505050811515909102019150388080806119bd565b604051906001600160a01b0316611a30826114b1565b602a82526020908183016040368237835115611b2757603090538251600190811015611b2757607860218501536029905b808211611ab5575050611a72575090565b6064906040519062461bcd60e51b825280600483015260248201527f537472696e67733a20686578206c656e67746820696e73756666696369656e746044820152fd5b9091600f81166010811015611b12578551841015611b12576f181899199a1a9b1b9c1cb0b131b232b360811b901a85840185015360041c918015611afd576000190190611a61565b60246000634e487b7160e01b81526011600452fd5b60246000634e487b7160e01b81526032600452fd5b634e487b7160e01b600052603260045260246000fdfeb10e2d527612073b26eecdfd717e6a320cf44b4afac2b0732d9fcbe2b7fa0cf6a2646970667358221220075d961bac45a8455e8b8f4260cef222c6c6880276b6f448f391c8c0a2b708f264736f6c63430008110033290decd9548b62a8d60345a988386fc84ba6bc95484008f6362f93160ef3e5631b6847dc741a1b0cd08d278845f9d819d87b734759afb55fe2de5cb82a9ae672",
  "linkReferences": {},
  "deployedLinkReferences": {}
}