{
  "_format": "hh-sol-artifact-1",
  "contractName": "WUSDC",
  "sourceName": "contracts/underlying/WUSDC.sol",
  "abi": [
    {
      "inputs": [
        {
          "internalType": "address",
          "name": "usdcContract_",
          "type": "address"
        },
        {
          "internalType": "address",
          "name": "mktAdminAcct_",
          "type": "address"
        }
      ],
      "stateMutability": "nonpayable",
      "type": "constructor"
    },
    {
      "anonymous": false,
      "inputs": [
        {
          "indexed": true,
          "internalType": "address",
          "name": "owner",
          "type": "address"
        },
        {
          "indexed": true,
          "internalType": "address",
          "name": "spender",
          "type": "address"
        },
        {
          "indexed": false,
          "internalType": "uint256",
          "name": "value",
          "type": "uint256"
        }
      ],
      "name": "Approval",
      "type": "event"
    },
    {
      "anonymous": false,
      "inputs": [
        {
          "indexed": true,
          "internalType": "address",
          "name": "minter",
          "type": "address"
        },
        {
          "indexed": true,
          "internalType": "address",
          "name": "to",
          "type": "address"
        },
        {
          "indexed": false,
          "internalType": "uint256",
          "name": "amount",
          "type": "uint256"
        }
      ],
      "name": "MintWUSDC",
      "type": "event"
    },
    {
      "anonymous": false,
      "inputs": [
        {
          "indexed": true,
          "internalType": "address",
          "name": "redeemer",
          "type": "address"
        },
        {
          "indexed": false,
          "internalType": "uint256",
          "name": "amount",
          "type": "uint256"
        }
      ],
      "name": "Redeem",
      "type": "event"
    },
    {
      "anonymous": false,
      "inputs": [
        {
          "indexed": true,
          "internalType": "bytes32",
          "name": "role",
          "type": "bytes32"
        },
        {
          "indexed": true,
          "internalType": "bytes32",
          "name": "previousAdminRole",
          "type": "bytes32"
        },
        {
          "indexed": true,
          "internalType": "bytes32",
          "name": "newAdminRole",
          "type": "bytes32"
        }
      ],
      "name": "RoleAdminChanged",
      "type": "event"
    },
    {
      "anonymous": false,
      "inputs": [
        {
          "indexed": true,
          "internalType": "bytes32",
          "name": "role",
          "type": "bytes32"
        },
        {
          "indexed": true,
          "internalType": "address",
          "name": "account",
          "type": "address"
        },
        {
          "indexed": true,
          "internalType": "address",
          "name": "sender",
          "type": "address"
        }
      ],
      "name": "RoleGranted",
      "type": "event"
    },
    {
      "anonymous": false,
      "inputs": [
        {
          "indexed": true,
          "internalType": "bytes32",
          "name": "role",
          "type": "bytes32"
        },
        {
          "indexed": true,
          "internalType": "address",
          "name": "account",
          "type": "address"
        },
        {
          "indexed": true,
          "internalType": "address",
          "name": "sender",
          "type": "address"
        }
      ],
      "name": "RoleRevoked",
      "type": "event"
    },
    {
      "anonymous": false,
      "inputs": [
        {
          "indexed": true,
          "internalType": "address",
          "name": "from",
          "type": "address"
        },
        {
          "indexed": true,
          "internalType": "address",
          "name": "to",
          "type": "address"
        },
        {
          "indexed": false,
          "internalType": "uint256",
          "name": "value",
          "type": "uint256"
        }
      ],
      "name": "Transfer",
      "type": "event"
    },
    {
      "inputs": [],
      "name": "DEFAULT_ADMIN_ROLE",
      "outputs": [
        {
          "internalType": "bytes32",
          "name": "",
          "type": "bytes32"
        }
      ],
      "stateMutability": "view",
      "type": "function"
    },
    {
      "inputs": [],
      "name": "TRANSFER_ADMIN_ROLE",
      "outputs": [
        {
          "internalType": "bytes32",
          "name": "",
          "type": "bytes32"
        }
      ],
      "stateMutability": "view",
      "type": "function"
    },
    {
      "inputs": [
        {
          "internalType": "address",
          "name": "owner",
          "type": "address"
        },
        {
          "internalType": "address",
          "name": "spender",
          "type": "address"
        }
      ],
      "name": "allowance",
      "outputs": [
        {
          "internalType": "uint256",
          "name": "",
          "type": "uint256"
        }
      ],
      "stateMutability": "view",
      "type": "function"
    },
    {
      "inputs": [
        {
          "internalType": "address",
          "name": "spender",
          "type": "address"
        },
        {
          "internalType": "uint256",
          "name": "amount",
          "type": "uint256"
        }
      ],
      "name": "approve",
      "outputs": [
        {
          "internalType": "bool",
          "name": "",
          "type": "bool"
        }
      ],
      "stateMutability": "nonpayable",
      "type": "function"
    },
    {
      "inputs": [
        {
          "internalType": "address",
          "name": "account",
          "type": "address"
        }
      ],
      "name": "balanceOf",
      "outputs": [
        {
          "internalType": "uint256",
          "name": "",
          "type": "uint256"
        }
      ],
      "stateMutability": "view",
      "type": "function"
    },
    {
      "inputs": [],
      "name": "decimals",
      "outputs": [
        {
          "internalType": "uint8",
          "name": "",
          "type": "uint8"
        }
      ],
      "stateMutability": "view",
      "type": "function"
    },
    {
      "inputs": [
        {
          "internalType": "address",
          "name": "spender",
          "type": "address"
        },
        {
          "internalType": "uint256",
          "name": "subtractedValue",
          "type": "uint256"
        }
      ],
      "name": "decreaseAllowance",
      "outputs": [
        {
          "internalType": "bool",
          "name": "",
          "type": "bool"
        }
      ],
      "stateMutability": "nonpayable",
      "type": "function"
    },
    {
      "inputs": [
        {
          "internalType": "bytes32",
          "name": "role",
          "type": "bytes32"
        }
      ],
      "name": "getRoleAdmin",
      "outputs": [
        {
          "internalType": "bytes32",
          "name": "",
          "type": "bytes32"
        }
      ],
      "stateMutability": "view",
      "type": "function"
    },
    {
      "inputs": [
        {
          "internalType": "bytes32",
          "name": "role",
          "type": "bytes32"
        },
        {
          "internalType": "address",
          "name": "account",
          "type": "address"
        }
      ],
      "name": "grantRole",
      "outputs": [],
      "stateMutability": "nonpayable",
      "type": "function"
    },
    {
      "inputs": [
        {
          "internalType": "bytes32",
          "name": "role",
          "type": "bytes32"
        },
        {
          "internalType": "address",
          "name": "account",
          "type": "address"
        }
      ],
      "name": "hasRole",
      "outputs": [
        {
          "internalType": "bool",
          "name": "",
          "type": "bool"
        }
      ],
      "stateMutability": "view",
      "type": "function"
    },
    {
      "inputs": [
        {
          "internalType": "address",
          "name": "spender",
          "type": "address"
        },
        {
          "internalType": "uint256",
          "name": "addedValue",
          "type": "uint256"
        }
      ],
      "name": "increaseAllowance",
      "outputs": [
        {
          "internalType": "bool",
          "name": "",
          "type": "bool"
        }
      ],
      "stateMutability": "nonpayable",
      "type": "function"
    },
    {
      "inputs": [
        {
          "internalType": "address",
          "name": "to_",
          "type": "address"
        },
        {
          "internalType": "uint256",
          "name": "slotId_",
          "type": "uint256"
        },
        {
          "internalType": "uint256",
          "name": "amount_",
          "type": "uint256"
        }
      ],
      "name": "mint",
      "outputs": [],
      "stateMutability": "nonpayable",
      "type": "function"
    },
    {
      "inputs": [],
      "name": "name",
      "outputs": [
        {
          "internalType": "string",
          "name": "",
          "type": "string"
        }
      ],
      "stateMutability": "view",
      "type": "function"
    },
    {
      "inputs": [
        {
          "internalType": "address",
          "name": "to_",
          "type": "address"
        },
        {
          "internalType": "uint256",
          "name": "slotId_",
          "type": "uint256"
        },
        {
          "internalType": "uint256",
          "name": "amount_",
          "type": "uint256"
        }
      ],
      "name": "redeem",
      "outputs": [],
      "stateMutability": "nonpayable",
      "type": "function"
    },
    {
      "inputs": [
        {
          "internalType": "bytes32",
          "name": "role",
          "type": "bytes32"
        },
        {
          "internalType": "address",
          "name": "account",
          "type": "address"
        }
      ],
      "name": "renounceRole",
      "outputs": [],
      "stateMutability": "nonpayable",
      "type": "function"
    },
    {
      "inputs": [
        {
          "internalType": "bytes32",
          "name": "role",
          "type": "bytes32"
        },
        {
          "internalType": "address",
          "name": "account",
          "type": "address"
        }
      ],
      "name": "revokeRole",
      "outputs": [],
      "stateMutability": "nonpayable",
      "type": "function"
    },
    {
      "inputs": [
        {
          "internalType": "bytes4",
          "name": "interfaceId",
          "type": "bytes4"
        }
      ],
      "name": "supportsInterface",
      "outputs": [
        {
          "internalType": "bool",
          "name": "",
          "type": "bool"
        }
      ],
      "stateMutability": "view",
      "type": "function"
    },
    {
      "inputs": [],
      "name": "symbol",
      "outputs": [
        {
          "internalType": "string",
          "name": "",
          "type": "string"
        }
      ],
      "stateMutability": "view",
      "type": "function"
    },
    {
      "inputs": [],
      "name": "totalSupply",
      "outputs": [
        {
          "internalType": "uint256",
          "name": "",
          "type": "uint256"
        }
      ],
      "stateMutability": "view",
      "type": "function"
    },
    {
      "inputs": [
        {
          "internalType": "address",
          "name": "to",
          "type": "address"
        },
        {
          "internalType": "uint256",
          "name": "amount",
          "type": "uint256"
        }
      ],
      "name": "transfer",
      "outputs": [
        {
          "internalType": "bool",
          "name": "",
          "type": "bool"
        }
      ],
      "stateMutability": "nonpayable",
      "type": "function"
    },
    {
      "inputs": [
        {
          "internalType": "address",
          "name": "from",
          "type": "address"
        },
        {
          "internalType": "address",
          "name": "to",
          "type": "address"
        },
        {
          "internalType": "uint256",
          "name": "amount",
          "type": "uint256"
        }
      ],
      "name": "transferFrom",
      "outputs": [
        {
          "internalType": "bool",
          "name": "",
          "type": "bool"
        }
      ],
      "stateMutability": "nonpayable",
      "type": "function"
    }
  ],
  "bytecode": "0x608034620004095762001b2d90601f90601f19906001600160401b0390388590038481018416820190838211838310176200030f5780839160409889948552833981010312620004095762000054816200042e565b936200006460208093016200042e565b936200006f6200040e565b93600c85526b57726170706564205553444360a01b84860152620000926200040e565b60059384825264575553444360d81b868301528651918383116200030f5760039283546001998a82811c92168015620003fe575b8a831014620003e857818584931162000394575b508990858311600114620003315760009262000325575b505060001982861b1c191690891b1783555b80519384116200030f5760049485548981811c9116801562000304575b89821014620002ef5790818487969594931162000295575b50889285116001146200022d575060009362000221575b505082871b92600019911b1c19161790555b600680546001600160a01b0319166001600160a01b039687161790557f915327d54f2c758ad33c35b031b5e89868657ea971cda2b8103c502dc672509c600081815282845287812095909616808752948352948690205460ff1615620001d1575b85516116e99081620004448239f35b84600052815284600020908360005252836000209060ff1982541617905533917f2f8788117e7eff1d82e926ec794901d17c78024a50270940304540a733656f0d600080a43880808080620001c2565b0151915038806200014f565b899593929193169286600052886000209360005b8a8282106200027e575050851162000263575b50505050811b01905562000161565b01519060f884600019921b161c191690553880808062000254565b8385015187558c9890960195938401930162000241565b9091929394508660005288600020848088018a1c8201928b8910620002e5575b918c9189989796959493018b1c01915b828110620002d557505062000138565b600081558897508c9101620002c5565b92508192620002b5565b602287634e487b7160e01b6000525260246000fd5b90607f169062000120565b634e487b7160e01b600052604160045260246000fd5b015190503880620000f1565b90888c941691876000528b6000209260005b8d8282106200037d575050841162000364575b505050811b01835562000103565b015160001983881b60f8161c1916905538808062000356565b8385015186558f9790950194938401930162000343565b9091508560005289600020858085018b1c8201928c8610620003de575b918d9186959493018c1c01915b828110620003ce575050620000da565b600081558594508d9101620003be565b92508192620003b1565b634e487b7160e01b600052602260045260246000fd5b91607f1691620000c6565b600080fd5b60408051919082016001600160401b038111838210176200030f57604052565b51906001600160a01b0382168203620004095756fe608060408181526004918236101561001657600080fd5b600092833560e01c91826301ffc9a714610f075750816306fdde0314610e12578163095ea7b314610de8578163156e29f614610c1757816318160ddd14610bf857816323b872dd146109ba578163248a9ca31461098f5781632b83cccd146106fa5781632f2ff15d1461064d578163313ce5671461063157816336568abe1461059f578163395093511461054f57816368a37ae81461051457816370a08231146104dd57816391d148541461049657816395d89b4114610393578163a217fddf14610378578163a457c2d7146102cc578163a9059cbb1461019a578163d547741f14610157575063dd62ed3e1461010c57600080fd5b3461015357806003193601126101535780602092610128610fa9565b610130610fc4565b6001600160a01b0391821683526001865283832091168252845220549051908152f35b5080fd5b91905034610196578060031936011261019657610193913561018e600161017c610fc4565b93838752600560205286200154611004565b61136b565b80f35b8280fd5b8284346102c957816003193601126102c9576101b4610fa9565b92602435906101c4828633611545565b600654845163095ea7b360e01b81526001600160a01b03878116848301908152602081810187905298939192918991839185169082908a90829060400103925af180156102bf579588949281969492610251986102a2575b50600654169288519788958694859363a9059cbb60e01b8552840160209093929193604081019460018060a01b031681520152565b03925af1908115610297575061026a575b505160018152f35b61028990833d8511610290575b6102818183611333565b81019061152d565b5082610262565b503d610277565b8351903d90823e3d90fd5b6102b890873d8911610290576102818183611333565b508a61021c565b87513d88823e3d90fd5b80fd5b905082346102c957826003193601126102c9576102e7610fa9565b918360243592338152600160205281812060018060a01b0386168252602052205490828210610327576020856103208585038733611404565b5160018152f35b608490602086519162461bcd60e51b8352820152602560248201527f45524332303a2064656372656173656420616c6c6f77616e63652062656c6f77604482015264207a65726f60d81b6064820152fd5b50503461015357816003193601126101535751908152602090f35b838334610153578160031936011261015357805191809380549160019083821c9282851694851561048c575b60209586861081146104795785895290811561045557506001146103fd575b6103f987876103ef828c0383611333565b5191829182610f7d565b0390f35b81529295507f8a35acfbc15ff81a39ae7d344fd709f28e8600b4aa8c65c6b64bfe7fe36bd19b5b82841061044257505050826103f9946103ef928201019486806103de565b8054868501880152928601928101610424565b60ff19168887015250505050151560051b83010192506103ef826103f986806103de565b634e487b7160e01b845260228352602484fd5b93607f16936103bf565b9050346101965781600319360112610196578160209360ff926104b7610fc4565b90358252600586528282206001600160a01b039091168252855220549151911615158152f35b5050346101535760203660031901126101535760209181906001600160a01b03610505610fa9565b16815280845220549051908152f35b505034610153578160031936011261015357602090517f915327d54f2c758ad33c35b031b5e89868657ea971cda2b8103c502dc672509c8152f35b505034610153578060031936011261015357610320602092610598610572610fa9565b338352600186528483206001600160a01b038216845286529184902054602435906113e1565b9033611404565b839150346101535782600319360112610153576105ba610fc4565b90336001600160a01b038316036105d65790610193913561136b565b608490602085519162461bcd60e51b8352820152602f60248201527f416363657373436f6e74726f6c3a2063616e206f6e6c792072656e6f756e636560448201526e103937b632b9903337b91039b2b63360891b6064820152fd5b5050346101535781600319360112610153576020905160068152f35b9050346101965781600319360112610196573590610669610fc4565b90828452600560205261068160018286200154611004565b828452600560209081528185206001600160a01b039093168086529290528084205460ff16156106af578380f35b82845260056020528084208285526020528320600160ff1982541617905533917f2f8788117e7eff1d82e926ec794901d17c78024a50270940304540a733656f0d8480a43880808380f35b8383346101535761070a36610fda565b929080855260209260078452828620338752845282862054851115610759575b5050907f222838db2794d11532d940e8dec38ae307ed0b63cd97c233322e221f998767a691519283523392a280f35b331561094257338652858452828620548581106108f4578590338852878652038387205584600254036002558583518681527fddf252ad1be2c89b69c2b068fc378daa952ba7f163c4a11628f55a4df523b3ef863392a3600654835163095ea7b360e01b81526001600160a01b03838116828b019081526020810189905290928791839185169082908c90829060400103925af180156108ea579286928892610838956108cd575b506006541690898b88519687958694859363a9059cbb60e01b8552840160209093929193604081019460018060a01b031681520152565b03925af180156108c3576108a6575b508452600782528084203385528252808420805490848203918211610893575592935083927f222838db2794d11532d940e8dec38ae307ed0b63cd97c233322e221f998767a68661072a565b634e487b7160e01b865260118752602486fd5b6108bc90843d8611610290576102818183611333565b5086610847565b83513d88823e3d90fd5b6108e390853d8711610290576102818183611333565b508b610801565b85513d8a823e3d90fd5b835162461bcd60e51b8152808901869052602260248201527f45524332303a206275726e20616d6f756e7420657863656564732062616c616e604482015261636560f01b6064820152608490fd5b825162461bcd60e51b8152808801859052602160248201527f45524332303a206275726e2066726f6d20746865207a65726f206164647265736044820152607360f81b6064820152608490fd5b9050346101965760203660031901126101965781602093600192358152600585522001549051908152f35b838334610153576060366003190112610153576109d5610fa9565b6109dd610fc4565b604435917f915327d54f2c758ad33c35b031b5e89868657ea971cda2b8103c502dc672509c85526020946005865284812060018060a01b0380841691828452885260ff878420541615610b9f57600654875163095ea7b360e01b81526001600160a01b038716818c019081526020810189905290918a91839185169082908890829060400103925af18015610b9557610ab0928a928992610b78575b506006541687868d8c519687958694859363a9059cbb60e01b8552840160209093929193604081019460018060a01b031681520152565b03925af18015610b6e579087939291610b51575b5081526001875281812033825287522054956000198703610aec575b50906103209291611545565b838710610b0e5750610b0683610320959697033383611404565b859493610ae0565b845162461bcd60e51b8152908101869052601d60248201527f45524332303a20696e73756666696369656e7420616c6c6f77616e63650000006044820152606490fd5b610b6790893d8b11610290576102818183611333565b5089610ac4565b87513d85823e3d90fd5b610b8e90843d8611610290576102818183611333565b508c610a79565b88513d86823e3d90fd5b865162461bcd60e51b8152808a01899052602d60248201527f57555344433a205472616e7366657220726566757365642e20556e617574686f60448201526c1c9a5e9959081858d8dbdd5b9d609a1b6064820152608490fd5b5050346101535781600319360112610153576020906002549051908152f35b9190503461019657610c2836610fda565b600654845163095ea7b360e01b81526001600160a01b0385811682890190815260208181018690529497949694959491939192918791839186169082908d90829060400103925af18015610dc157610dcb575b50600654845163a9059cbb60e01b81526001600160a01b038316818a019081526020810189905290918791839186169082908d90829060400103925af18015610dc157610da4575b5016948515610d615750907f7560fc1997a16eb75c0b354ad93cc65f1ee3c171053da4528cf4410b0a22a44c9291610cfd856002546113e1565b60025585875286835281872085815401905585877fddf252ad1be2c89b69c2b068fc378daa952ba7f163c4a11628f55a4df523b3ef858551898152a38652600782528086203387528252808620610d558582546113e1565b9055519283523392a380f35b825162461bcd60e51b8152908101849052601f60248201527f45524332303a206d696e7420746f20746865207a65726f2061646472657373006044820152606490fd5b610dba90863d8811610290576102818183611333565b5038610cc3565b85513d8b823e3d90fd5b610de190863d8811610290576102818183611333565b5038610c7b565b505034610153578060031936011261015357602090610320610e08610fa9565b6024359033611404565b91905034610196578260031936011261019657805191836003549060019082821c928281168015610efd575b6020958686108214610eea5750848852908115610ec85750600114610e6f575b6103f986866103ef828b0383611333565b929550600383527fc2575a0e9e593c00f959f8c92f12db2869c3395a3b0502d05e2516446f71f85b5b828410610eb557505050826103f9946103ef928201019438610e5e565b8054868501880152928601928101610e98565b60ff191687860152505050151560051b83010192506103ef826103f938610e5e565b634e487b7160e01b845260229052602483fd5b93607f1693610e3e565b849134610196576020366003190112610196573563ffffffff60e01b81168091036101965760209250637965db0b60e01b8114908115610f49575b5015158152f35b6301ffc9a760e01b14905083610f42565b60005b838110610f6d5750506000910152565b8181015183820152602001610f5d565b60409160208252610f9d8151809281602086015260208686019101610f5a565b601f01601f1916010190565b600435906001600160a01b0382168203610fbf57565b600080fd5b602435906001600160a01b0382168203610fbf57565b6060906003190112610fbf576004356001600160a01b0381168103610fbf57906024359060443590565b600081815260209060058252604092838220338352835260ff84832054161561102d5750505050565b835167ffffffffffffffff919033606082018481118382101761131f578752602a8252858201928736853782511561130b57603084538251916001928310156112f7576078602185015360295b83811161128d575061124b579087519460808601908682109082111761123757885260428552868501956060368837855115611223576030875385518210156112235790607860218701536041915b8183116111b557505050611173579385936111599361114a6048946111217f416363657373436f6e74726f6c3a206163636f756e74200000000000000000009961116f9b519a8b978801525180926037880190610f5a565b8401917001034b99036b4b9b9b4b733903937b6329607d1b603784015251809386840190610f5a565b01036028810185520183611333565b5162461bcd60e51b815291829160048301610f7d565b0390fd5b60648587519062461bcd60e51b825280600483015260248201527f537472696e67733a20686578206c656e67746820696e73756666696369656e746044820152fd5b909192600f8116601081101561120f576f181899199a1a9b1b9c1cb0b131b232b360811b901a6111e58589611506565b5360041c9280156111fb576000190191906110c9565b634e487b7160e01b82526011600452602482fd5b634e487b7160e01b83526032600452602483fd5b634e487b7160e01b81526032600452602490fd5b634e487b7160e01b87526041600452602487fd5b60648789519062461bcd60e51b825280600483015260248201527f537472696e67733a20686578206c656e67746820696e73756666696369656e746044820152fd5b90600f811660108110156112e3576f181899199a1a9b1b9c1cb0b131b232b360811b901a6112bb8387611506565b5360041c9080156112cf576000190161107a565b634e487b7160e01b88526011600452602488fd5b634e487b7160e01b89526032600452602489fd5b634e487b7160e01b87526032600452602487fd5b634e487b7160e01b86526032600452602486fd5b634e487b7160e01b86526041600452602486fd5b90601f8019910116810190811067ffffffffffffffff82111761135557604052565b634e487b7160e01b600052604160045260246000fd5b906000918083526005602052604083209160018060a01b03169182845260205260ff60408420541661139c57505050565b8083526005602052604083208284526020526040832060ff1981541690557ff6391f5c32d9c69d2a47ea670b442974b53935d1edc7fd64eb21e047a839171b339380a4565b919082018092116113ee57565b634e487b7160e01b600052601160045260246000fd5b6001600160a01b039081169182156114b557169182156114655760207f8c5be1e5ebec7d5bd14f71427d1e84f3dd0314c0f7b2291e5b200ac8c7c3b925918360005260018252604060002085600052825280604060002055604051908152a3565b60405162461bcd60e51b815260206004820152602260248201527f45524332303a20617070726f766520746f20746865207a65726f206164647265604482015261737360f01b6064820152608490fd5b60405162461bcd60e51b8152602060048201526024808201527f45524332303a20617070726f76652066726f6d20746865207a65726f206164646044820152637265737360e01b6064820152608490fd5b908151811015611517570160200190565b634e487b7160e01b600052603260045260246000fd5b90816020910312610fbf57518015158103610fbf5790565b6001600160a01b03908116918215611660571691821561160f576000828152806020526040812054918083106115bb57604082827fddf252ad1be2c89b69c2b068fc378daa952ba7f163c4a11628f55a4df523b3ef958760209652828652038282205586815220818154019055604051908152a3565b60405162461bcd60e51b815260206004820152602660248201527f45524332303a207472616e7366657220616d6f756e7420657863656564732062604482015265616c616e636560d01b6064820152608490fd5b60405162461bcd60e51b815260206004820152602360248201527f45524332303a207472616e7366657220746f20746865207a65726f206164647260448201526265737360e81b6064820152608490fd5b60405162461bcd60e51b815260206004820152602560248201527f45524332303a207472616e736665722066726f6d20746865207a65726f206164604482015264647265737360d81b6064820152608490fdfea264697066735822122068258699139f528efbda4f4991712230c16e1f27f510199a4be74156a94a4a0964736f6c63430008110033",
  "linkReferences": {},
  "deployedLinkReferences": {}
}