{
  "_format": "hh-sol-artifact-1",
  "contractName": "WUSDC",
  "sourceName": "contracts/underlying/WUSDC.sol",
  "abi": [
    {
      "inputs": [],
      "stateMutability": "nonpayable",
      "type": "constructor"
    },
    {
      "anonymous": false,
      "inputs": [
        {
          "indexed": true,
          "internalType": "address",
          "name": "owner",
          "type": "address"
        },
        {
          "indexed": true,
          "internalType": "address",
          "name": "spender",
          "type": "address"
        },
        {
          "indexed": false,
          "internalType": "uint256",
          "name": "value",
          "type": "uint256"
        }
      ],
      "name": "Approval",
      "type": "event"
    },
    {
      "anonymous": false,
      "inputs": [
        {
          "indexed": true,
          "internalType": "address",
          "name": "minter",
          "type": "address"
        },
        {
          "indexed": true,
          "internalType": "address",
          "name": "to",
          "type": "address"
        },
        {
          "indexed": false,
          "internalType": "uint256",
          "name": "amount",
          "type": "uint256"
        }
      ],
      "name": "MintWUSDC",
      "type": "event"
    },
    {
      "anonymous": false,
      "inputs": [
        {
          "indexed": true,
          "internalType": "address",
          "name": "redeemer",
          "type": "address"
        },
        {
          "indexed": false,
          "internalType": "uint256",
          "name": "amount",
          "type": "uint256"
        }
      ],
      "name": "Redeem",
      "type": "event"
    },
    {
      "anonymous": false,
      "inputs": [
        {
          "indexed": true,
          "internalType": "address",
          "name": "from",
          "type": "address"
        },
        {
          "indexed": true,
          "internalType": "address",
          "name": "to",
          "type": "address"
        },
        {
          "indexed": false,
          "internalType": "uint256",
          "name": "value",
          "type": "uint256"
        }
      ],
      "name": "Transfer",
      "type": "event"
    },
    {
      "inputs": [
        {
          "internalType": "address",
          "name": "owner",
          "type": "address"
        },
        {
          "internalType": "address",
          "name": "spender",
          "type": "address"
        }
      ],
      "name": "allowance",
      "outputs": [
        {
          "internalType": "uint256",
          "name": "",
          "type": "uint256"
        }
      ],
      "stateMutability": "view",
      "type": "function"
    },
    {
      "inputs": [
        {
          "internalType": "address",
          "name": "spender",
          "type": "address"
        },
        {
          "internalType": "uint256",
          "name": "amount",
          "type": "uint256"
        }
      ],
      "name": "approve",
      "outputs": [
        {
          "internalType": "bool",
          "name": "",
          "type": "bool"
        }
      ],
      "stateMutability": "nonpayable",
      "type": "function"
    },
    {
      "inputs": [
        {
          "internalType": "address",
          "name": "account",
          "type": "address"
        }
      ],
      "name": "balanceOf",
      "outputs": [
        {
          "internalType": "uint256",
          "name": "",
          "type": "uint256"
        }
      ],
      "stateMutability": "view",
      "type": "function"
    },
    {
      "inputs": [],
      "name": "decimals",
      "outputs": [
        {
          "internalType": "uint8",
          "name": "",
          "type": "uint8"
        }
      ],
      "stateMutability": "view",
      "type": "function"
    },
    {
      "inputs": [
        {
          "internalType": "address",
          "name": "spender",
          "type": "address"
        },
        {
          "internalType": "uint256",
          "name": "subtractedValue",
          "type": "uint256"
        }
      ],
      "name": "decreaseAllowance",
      "outputs": [
        {
          "internalType": "bool",
          "name": "",
          "type": "bool"
        }
      ],
      "stateMutability": "nonpayable",
      "type": "function"
    },
    {
      "inputs": [
        {
          "internalType": "address",
          "name": "spender",
          "type": "address"
        },
        {
          "internalType": "uint256",
          "name": "addedValue",
          "type": "uint256"
        }
      ],
      "name": "increaseAllowance",
      "outputs": [
        {
          "internalType": "bool",
          "name": "",
          "type": "bool"
        }
      ],
      "stateMutability": "nonpayable",
      "type": "function"
    },
    {
      "inputs": [
        {
          "internalType": "uint256",
          "name": "amount",
          "type": "uint256"
        },
        {
          "internalType": "address",
          "name": "to",
          "type": "address"
        }
      ],
      "name": "mint",
      "outputs": [],
      "stateMutability": "payable",
      "type": "function"
    },
    {
      "inputs": [],
      "name": "name",
      "outputs": [
        {
          "internalType": "string",
          "name": "",
          "type": "string"
        }
      ],
      "stateMutability": "view",
      "type": "function"
    },
    {
      "inputs": [
        {
          "internalType": "uint256",
          "name": "amount",
          "type": "uint256"
        },
        {
          "internalType": "address",
          "name": "to",
          "type": "address"
        }
      ],
      "name": "redeem",
      "outputs": [],
      "stateMutability": "payable",
      "type": "function"
    },
    {
      "inputs": [],
      "name": "symbol",
      "outputs": [
        {
          "internalType": "string",
          "name": "",
          "type": "string"
        }
      ],
      "stateMutability": "view",
      "type": "function"
    },
    {
      "inputs": [],
      "name": "totalSupply",
      "outputs": [
        {
          "internalType": "uint256",
          "name": "",
          "type": "uint256"
        }
      ],
      "stateMutability": "view",
      "type": "function"
    },
    {
      "inputs": [
        {
          "internalType": "address",
          "name": "to",
          "type": "address"
        },
        {
          "internalType": "uint256",
          "name": "amount",
          "type": "uint256"
        }
      ],
      "name": "transfer",
      "outputs": [
        {
          "internalType": "bool",
          "name": "",
          "type": "bool"
        }
      ],
      "stateMutability": "nonpayable",
      "type": "function"
    },
    {
      "inputs": [
        {
          "internalType": "address",
          "name": "from_",
          "type": "address"
        },
        {
          "internalType": "address",
          "name": "to_",
          "type": "address"
        },
        {
          "internalType": "uint256",
          "name": "value_",
          "type": "uint256"
        }
      ],
      "name": "transfer",
      "outputs": [],
      "stateMutability": "payable",
      "type": "function"
    },
    {
      "inputs": [
        {
          "internalType": "address",
          "name": "from",
          "type": "address"
        },
        {
          "internalType": "address",
          "name": "to",
          "type": "address"
        },
        {
          "internalType": "uint256",
          "name": "amount",
          "type": "uint256"
        }
      ],
      "name": "transferFrom",
      "outputs": [
        {
          "internalType": "bool",
          "name": "",
          "type": "bool"
        }
      ],
      "stateMutability": "nonpayable",
      "type": "function"
    }
  ],
  "bytecode": "0x6080604052600680546001600160a01b03191673ed97f5a6eafc2ec7412bbe38a67d60b6283445121790553480156200003757600080fd5b506040518060400160405280600c81526020016b57726170706564205553444360a01b81525060405180604001604052806005815260200164575553444360d81b81525081600390816200008c91906200016b565b5060046200009b82826200016b565b5050600654600580546001600160a01b0319166001600160a01b039092169190911790555062000237565b634e487b7160e01b600052604160045260246000fd5b600181811c90821680620000f157607f821691505b6020821081036200011257634e487b7160e01b600052602260045260246000fd5b50919050565b601f8211156200016657600081815260208120601f850160051c81016020861015620001415750805b601f850160051c820191505b8181101562000162578281556001016200014d565b5050505b505050565b81516001600160401b03811115620001875762000187620000c6565b6200019f81620001988454620000dc565b8462000118565b602080601f831160018114620001d75760008415620001be5750858301515b600019600386901b1c1916600185901b17855562000162565b600085815260208120601f198616915b828110156200020857888601518255948401946001909101908401620001e7565b5085821015620002275787850151600019600388901b60f8161c191681555b5050505050600190811b01905550565b610da280620002476000396000f3fe6080604052600436106100dd5760003560e01c80637bde82f21161007f578063a457c2d711610059578063a457c2d71461022b578063a9059cbb1461024b578063beabacc81461026b578063dd62ed3e1461027e57600080fd5b80637bde82f2146101ee57806394bf804d1461020357806395d89b411461021657600080fd5b806323b872dd116100bb57806323b872dd1461015c578063313ce5671461017c578063395093511461019857806370a08231146101b857600080fd5b806306fdde03146100e2578063095ea7b31461010d57806318160ddd1461013d575b600080fd5b3480156100ee57600080fd5b506100f761029e565b6040516101049190610ba7565b60405180910390f35b34801561011957600080fd5b5061012d610128366004610c11565b610330565b6040519015158152602001610104565b34801561014957600080fd5b506002545b604051908152602001610104565b34801561016857600080fd5b5061012d610177366004610c3b565b61034a565b34801561018857600080fd5b5060405160068152602001610104565b3480156101a457600080fd5b5061012d6101b3366004610c11565b61036e565b3480156101c457600080fd5b5061014e6101d3366004610c77565b6001600160a01b031660009081526020819052604090205490565b6102016101fc366004610c99565b610390565b005b610201610211366004610c99565b61039e565b34801561022257600080fd5b506100f76103ec565b34801561023757600080fd5b5061012d610246366004610c11565b6103fb565b34801561025757600080fd5b5061012d610266366004610c11565b61047b565b610201610279366004610c3b565b610489565b34801561028a57600080fd5b5061014e610299366004610cc5565b61049a565b6060600380546102ad90610cef565b80601f01602080910402602001604051908101604052809291908181526020018280546102d990610cef565b80156103265780601f106102fb57610100808354040283529160200191610326565b820191906000526020600020905b81548152906001019060200180831161030957829003601f168201915b5050505050905090565b60003361033e8185856104c5565b60019150505b92915050565b6000336103588582856105e9565b61036385858561065d565b506001949350505050565b60003361033e818585610381838361049a565b61038b9190610d29565b6104c5565b61039a8282610801565b5050565b6103a882826108bc565b6040518281526001600160a01b0382169033907f7560fc1997a16eb75c0b354ad93cc65f1ee3c171053da4528cf4410b0a22a44c9060200160405180910390a35050565b6060600480546102ad90610cef565b60003381610409828661049a565b90508381101561046e5760405162461bcd60e51b815260206004820152602560248201527f45524332303a2064656372656173656420616c6c6f77616e63652062656c6f77604482015264207a65726f60d81b60648201526084015b60405180910390fd5b61036382868684036104c5565b60003361033e81858561065d565b61049483838361034a565b50505050565b6001600160a01b03918216600090815260016020908152604080832093909416825291909152205490565b6001600160a01b0383166105275760405162461bcd60e51b8152602060048201526024808201527f45524332303a20617070726f76652066726f6d20746865207a65726f206164646044820152637265737360e01b6064820152608401610465565b6001600160a01b0382166105885760405162461bcd60e51b815260206004820152602260248201527f45524332303a20617070726f766520746f20746865207a65726f206164647265604482015261737360f01b6064820152608401610465565b6001600160a01b0383811660008181526001602090815260408083209487168084529482529182902085905590518481527f8c5be1e5ebec7d5bd14f71427d1e84f3dd0314c0f7b2291e5b200ac8c7c3b925910160405180910390a3505050565b60006105f5848461049a565b9050600019811461049457818110156106505760405162461bcd60e51b815260206004820152601d60248201527f45524332303a20696e73756666696369656e7420616c6c6f77616e63650000006044820152606401610465565b61049484848484036104c5565b6001600160a01b0383166106c15760405162461bcd60e51b815260206004820152602560248201527f45524332303a207472616e736665722066726f6d20746865207a65726f206164604482015264647265737360d81b6064820152608401610465565b6001600160a01b0382166107235760405162461bcd60e51b815260206004820152602360248201527f45524332303a207472616e7366657220746f20746865207a65726f206164647260448201526265737360e81b6064820152608401610465565b6001600160a01b0383166000908152602081905260409020548181101561079b5760405162461bcd60e51b815260206004820152602660248201527f45524332303a207472616e7366657220616d6f756e7420657863656564732062604482015265616c616e636560d01b6064820152608401610465565b6001600160a01b03848116600081815260208181526040808320878703905593871680835291849020805487019055925185815290927fddf252ad1be2c89b69c2b068fc378daa952ba7f163c4a11628f55a4df523b3ef910160405180910390a3610494565b61080b33836109b6565b60055460405163a9059cbb60e01b81526001600160a01b038381166004830152602482018590529091169063a9059cbb906044016020604051808303816000875af115801561085e573d6000803e3d6000fd5b505050506040513d601f19601f820116820180604052508101906108829190610d4a565b5060405182815233907f222838db2794d11532d940e8dec38ae307ed0b63cd97c233322e221f998767a69060200160405180910390a25050565b60055460405163095ea7b360e01b81526001600160a01b038381166004830152602482018590529091169063095ea7b3906044016020604051808303816000875af115801561090f573d6000803e3d6000fd5b505050506040513d601f19601f820116820180604052508101906109339190610d4a565b5060055460405163a9059cbb60e01b81526001600160a01b038381166004830152602482018590529091169063a9059cbb906044016020604051808303816000875af1158015610987573d6000803e3d6000fd5b505050506040513d601f19601f820116820180604052508101906109ab9190610d4a565b5061039a8183610ae8565b6001600160a01b038216610a165760405162461bcd60e51b815260206004820152602160248201527f45524332303a206275726e2066726f6d20746865207a65726f206164647265736044820152607360f81b6064820152608401610465565b6001600160a01b03821660009081526020819052604090205481811015610a8a5760405162461bcd60e51b815260206004820152602260248201527f45524332303a206275726e20616d6f756e7420657863656564732062616c616e604482015261636560f01b6064820152608401610465565b6001600160a01b0383166000818152602081815260408083208686039055600280548790039055518581529192917fddf252ad1be2c89b69c2b068fc378daa952ba7f163c4a11628f55a4df523b3ef910160405180910390a3505050565b6001600160a01b038216610b3e5760405162461bcd60e51b815260206004820152601f60248201527f45524332303a206d696e7420746f20746865207a65726f2061646472657373006044820152606401610465565b8060026000828254610b509190610d29565b90915550506001600160a01b038216600081815260208181526040808320805486019055518481527fddf252ad1be2c89b69c2b068fc378daa952ba7f163c4a11628f55a4df523b3ef910160405180910390a35050565b600060208083528351808285015260005b81811015610bd457858101830151858201604001528201610bb8565b506000604082860101526040601f19601f8301168501019250505092915050565b80356001600160a01b0381168114610c0c57600080fd5b919050565b60008060408385031215610c2457600080fd5b610c2d83610bf5565b946020939093013593505050565b600080600060608486031215610c5057600080fd5b610c5984610bf5565b9250610c6760208501610bf5565b9150604084013590509250925092565b600060208284031215610c8957600080fd5b610c9282610bf5565b9392505050565b60008060408385031215610cac57600080fd5b82359150610cbc60208401610bf5565b90509250929050565b60008060408385031215610cd857600080fd5b610ce183610bf5565b9150610cbc60208401610bf5565b600181811c90821680610d0357607f821691505b602082108103610d2357634e487b7160e01b600052602260045260246000fd5b50919050565b8082018082111561034457634e487b7160e01b600052601160045260246000fd5b600060208284031215610d5c57600080fd5b81518015158114610c9257600080fdfea2646970667358221220070eeade1192581d0043e7a5ad7be858d74e27332605e6ce825dec99a0ef484464736f6c63430008110033",
  "linkReferences": {},
  "deployedLinkReferences": {}
}