{
  "_format": "hh-sol-artifact-1",
  "contractName": "WUSDC",
  "sourceName": "contracts/underlying/WUSDC.sol",
  "abi": [
    {
      "inputs": [
        {
          "internalType": "address",
          "name": "usdcContract_",
          "type": "address"
        },
        {
          "internalType": "address",
          "name": "mktAdminAcct_",
          "type": "address"
        }
      ],
      "stateMutability": "nonpayable",
      "type": "constructor"
    },
    {
      "anonymous": false,
      "inputs": [
        {
          "indexed": true,
          "internalType": "address",
          "name": "owner",
          "type": "address"
        },
        {
          "indexed": true,
          "internalType": "address",
          "name": "spender",
          "type": "address"
        },
        {
          "indexed": false,
          "internalType": "uint256",
          "name": "value",
          "type": "uint256"
        }
      ],
      "name": "Approval",
      "type": "event"
    },
    {
      "anonymous": false,
      "inputs": [
        {
          "indexed": true,
          "internalType": "address",
          "name": "minter",
          "type": "address"
        },
        {
          "indexed": true,
          "internalType": "address",
          "name": "to",
          "type": "address"
        },
        {
          "indexed": false,
          "internalType": "uint256",
          "name": "amount",
          "type": "uint256"
        }
      ],
      "name": "MintWUSDC",
      "type": "event"
    },
    {
      "anonymous": false,
      "inputs": [
        {
          "indexed": true,
          "internalType": "address",
          "name": "redeemer",
          "type": "address"
        },
        {
          "indexed": false,
          "internalType": "uint256",
          "name": "amount",
          "type": "uint256"
        }
      ],
      "name": "Redeem",
      "type": "event"
    },
    {
      "anonymous": false,
      "inputs": [
        {
          "indexed": true,
          "internalType": "bytes32",
          "name": "role",
          "type": "bytes32"
        },
        {
          "indexed": true,
          "internalType": "bytes32",
          "name": "previousAdminRole",
          "type": "bytes32"
        },
        {
          "indexed": true,
          "internalType": "bytes32",
          "name": "newAdminRole",
          "type": "bytes32"
        }
      ],
      "name": "RoleAdminChanged",
      "type": "event"
    },
    {
      "anonymous": false,
      "inputs": [
        {
          "indexed": true,
          "internalType": "bytes32",
          "name": "role",
          "type": "bytes32"
        },
        {
          "indexed": true,
          "internalType": "address",
          "name": "account",
          "type": "address"
        },
        {
          "indexed": true,
          "internalType": "address",
          "name": "sender",
          "type": "address"
        }
      ],
      "name": "RoleGranted",
      "type": "event"
    },
    {
      "anonymous": false,
      "inputs": [
        {
          "indexed": true,
          "internalType": "bytes32",
          "name": "role",
          "type": "bytes32"
        },
        {
          "indexed": true,
          "internalType": "address",
          "name": "account",
          "type": "address"
        },
        {
          "indexed": true,
          "internalType": "address",
          "name": "sender",
          "type": "address"
        }
      ],
      "name": "RoleRevoked",
      "type": "event"
    },
    {
      "anonymous": false,
      "inputs": [
        {
          "indexed": true,
          "internalType": "address",
          "name": "from",
          "type": "address"
        },
        {
          "indexed": true,
          "internalType": "address",
          "name": "to",
          "type": "address"
        },
        {
          "indexed": false,
          "internalType": "uint256",
          "name": "value",
          "type": "uint256"
        }
      ],
      "name": "Transfer",
      "type": "event"
    },
    {
      "inputs": [],
      "name": "DEFAULT_ADMIN_ROLE",
      "outputs": [
        {
          "internalType": "bytes32",
          "name": "",
          "type": "bytes32"
        }
      ],
      "stateMutability": "view",
      "type": "function"
    },
    {
      "inputs": [],
      "name": "TRANSFER_ADMIN_ROLE",
      "outputs": [
        {
          "internalType": "bytes32",
          "name": "",
          "type": "bytes32"
        }
      ],
      "stateMutability": "view",
      "type": "function"
    },
    {
      "inputs": [
        {
          "internalType": "address",
          "name": "owner",
          "type": "address"
        },
        {
          "internalType": "address",
          "name": "spender",
          "type": "address"
        }
      ],
      "name": "allowance",
      "outputs": [
        {
          "internalType": "uint256",
          "name": "",
          "type": "uint256"
        }
      ],
      "stateMutability": "view",
      "type": "function"
    },
    {
      "inputs": [
        {
          "internalType": "address",
          "name": "spender",
          "type": "address"
        },
        {
          "internalType": "uint256",
          "name": "amount",
          "type": "uint256"
        }
      ],
      "name": "approve",
      "outputs": [
        {
          "internalType": "bool",
          "name": "",
          "type": "bool"
        }
      ],
      "stateMutability": "nonpayable",
      "type": "function"
    },
    {
      "inputs": [
        {
          "internalType": "address",
          "name": "account",
          "type": "address"
        }
      ],
      "name": "balanceOf",
      "outputs": [
        {
          "internalType": "uint256",
          "name": "",
          "type": "uint256"
        }
      ],
      "stateMutability": "view",
      "type": "function"
    },
    {
      "inputs": [],
      "name": "decimals",
      "outputs": [
        {
          "internalType": "uint8",
          "name": "",
          "type": "uint8"
        }
      ],
      "stateMutability": "view",
      "type": "function"
    },
    {
      "inputs": [
        {
          "internalType": "address",
          "name": "spender",
          "type": "address"
        },
        {
          "internalType": "uint256",
          "name": "subtractedValue",
          "type": "uint256"
        }
      ],
      "name": "decreaseAllowance",
      "outputs": [
        {
          "internalType": "bool",
          "name": "",
          "type": "bool"
        }
      ],
      "stateMutability": "nonpayable",
      "type": "function"
    },
    {
      "inputs": [
        {
          "internalType": "bytes32",
          "name": "role",
          "type": "bytes32"
        }
      ],
      "name": "getRoleAdmin",
      "outputs": [
        {
          "internalType": "bytes32",
          "name": "",
          "type": "bytes32"
        }
      ],
      "stateMutability": "view",
      "type": "function"
    },
    {
      "inputs": [
        {
          "internalType": "bytes32",
          "name": "role",
          "type": "bytes32"
        },
        {
          "internalType": "address",
          "name": "account",
          "type": "address"
        }
      ],
      "name": "grantRole",
      "outputs": [],
      "stateMutability": "nonpayable",
      "type": "function"
    },
    {
      "inputs": [
        {
          "internalType": "bytes32",
          "name": "role",
          "type": "bytes32"
        },
        {
          "internalType": "address",
          "name": "account",
          "type": "address"
        }
      ],
      "name": "hasRole",
      "outputs": [
        {
          "internalType": "bool",
          "name": "",
          "type": "bool"
        }
      ],
      "stateMutability": "view",
      "type": "function"
    },
    {
      "inputs": [
        {
          "internalType": "address",
          "name": "spender",
          "type": "address"
        },
        {
          "internalType": "uint256",
          "name": "addedValue",
          "type": "uint256"
        }
      ],
      "name": "increaseAllowance",
      "outputs": [
        {
          "internalType": "bool",
          "name": "",
          "type": "bool"
        }
      ],
      "stateMutability": "nonpayable",
      "type": "function"
    },
    {
      "inputs": [
        {
          "internalType": "address",
          "name": "to",
          "type": "address"
        },
        {
          "internalType": "uint256",
          "name": "amount",
          "type": "uint256"
        }
      ],
      "name": "mint",
      "outputs": [],
      "stateMutability": "payable",
      "type": "function"
    },
    {
      "inputs": [],
      "name": "name",
      "outputs": [
        {
          "internalType": "string",
          "name": "",
          "type": "string"
        }
      ],
      "stateMutability": "view",
      "type": "function"
    },
    {
      "inputs": [
        {
          "internalType": "address",
          "name": "to",
          "type": "address"
        },
        {
          "internalType": "uint256",
          "name": "amount",
          "type": "uint256"
        }
      ],
      "name": "redeem",
      "outputs": [],
      "stateMutability": "payable",
      "type": "function"
    },
    {
      "inputs": [
        {
          "internalType": "bytes32",
          "name": "role",
          "type": "bytes32"
        },
        {
          "internalType": "address",
          "name": "account",
          "type": "address"
        }
      ],
      "name": "renounceRole",
      "outputs": [],
      "stateMutability": "nonpayable",
      "type": "function"
    },
    {
      "inputs": [
        {
          "internalType": "bytes32",
          "name": "role",
          "type": "bytes32"
        },
        {
          "internalType": "address",
          "name": "account",
          "type": "address"
        }
      ],
      "name": "revokeRole",
      "outputs": [],
      "stateMutability": "nonpayable",
      "type": "function"
    },
    {
      "inputs": [
        {
          "internalType": "bytes4",
          "name": "interfaceId",
          "type": "bytes4"
        }
      ],
      "name": "supportsInterface",
      "outputs": [
        {
          "internalType": "bool",
          "name": "",
          "type": "bool"
        }
      ],
      "stateMutability": "view",
      "type": "function"
    },
    {
      "inputs": [],
      "name": "symbol",
      "outputs": [
        {
          "internalType": "string",
          "name": "",
          "type": "string"
        }
      ],
      "stateMutability": "view",
      "type": "function"
    },
    {
      "inputs": [],
      "name": "totalSupply",
      "outputs": [
        {
          "internalType": "uint256",
          "name": "",
          "type": "uint256"
        }
      ],
      "stateMutability": "view",
      "type": "function"
    },
    {
      "inputs": [
        {
          "internalType": "address",
          "name": "to",
          "type": "address"
        },
        {
          "internalType": "uint256",
          "name": "amount",
          "type": "uint256"
        }
      ],
      "name": "transfer",
      "outputs": [
        {
          "internalType": "bool",
          "name": "",
          "type": "bool"
        }
      ],
      "stateMutability": "nonpayable",
      "type": "function"
    },
    {
      "inputs": [
        {
          "internalType": "address",
          "name": "from",
          "type": "address"
        },
        {
          "internalType": "address",
          "name": "to",
          "type": "address"
        },
        {
          "internalType": "uint256",
          "name": "amount",
          "type": "uint256"
        }
      ],
      "name": "transferFrom",
      "outputs": [
        {
          "internalType": "bool",
          "name": "",
          "type": "bool"
        }
      ],
      "stateMutability": "nonpayable",
      "type": "function"
    }
  ],
  "bytecode": "0x608034620004095762001ac590601f90601f19906001600160401b0390388590038481018416820190838211838310176200030f5780839160409889948552833981010312620004095762000054816200042e565b936200006460208093016200042e565b936200006f6200040e565b93600c85526b57726170706564205553444360a01b84860152620000926200040e565b60059384825264575553444360d81b868301528651918383116200030f5760039283546001998a82811c92168015620003fe575b8a831014620003e857818584931162000394575b508990858311600114620003315760009262000325575b505060001982861b1c191690891b1783555b80519384116200030f5760049485548981811c9116801562000304575b89821014620002ef5790818487969594931162000295575b50889285116001146200022d575060009362000221575b505082871b92600019911b1c19161790555b600680546001600160a01b0319166001600160a01b039687161790557f915327d54f2c758ad33c35b031b5e89868657ea971cda2b8103c502dc672509c600081815282845287812095909616808752948352948690205460ff1615620001d1575b85516116819081620004448239f35b84600052815284600020908360005252836000209060ff1982541617905533917f2f8788117e7eff1d82e926ec794901d17c78024a50270940304540a733656f0d600080a43880808080620001c2565b0151915038806200014f565b899593929193169286600052886000209360005b8a8282106200027e575050851162000263575b50505050811b01905562000161565b01519060f884600019921b161c191690553880808062000254565b8385015187558c9890960195938401930162000241565b9091929394508660005288600020848088018a1c8201928b8910620002e5575b918c9189989796959493018b1c01915b828110620002d557505062000138565b600081558897508c9101620002c5565b92508192620002b5565b602287634e487b7160e01b6000525260246000fd5b90607f169062000120565b634e487b7160e01b600052604160045260246000fd5b015190503880620000f1565b90888c941691876000528b6000209260005b8d8282106200037d575050841162000364575b505050811b01835562000103565b015160001983881b60f8161c1916905538808062000356565b8385015186558f9790950194938401930162000343565b9091508560005289600020858085018b1c8201928c8610620003de575b918d9186959493018c1c01915b828110620003ce575050620000da565b600081558594508d9101620003be565b92508192620003b1565b634e487b7160e01b600052602260045260246000fd5b91607f1691620000c6565b600080fd5b60408051919082016001600160401b038111838210176200030f57604052565b51906001600160a01b0382168203620004095756fe608060408181526004918236101561001657600080fd5b600092833560e01c91826301ffc9a714610e675750816306fdde0314610d72578163095ea7b314610d4857816318160ddd14610d295781631e9a695014610b0357816323b872dd1461091b578163248a9ca3146108f05781632f2ff15d14610843578163313ce5671461082757816336568abe14610795578163395093511461074557816340c10f191461058c57816368a37ae81461055157816370a082311461051a57816391d14854146104d357816395d89b41146103d0578163a217fddf146103b5578163a457c2d714610309578163a9059cbb1461019a578163d547741f14610157575063dd62ed3e1461010c57600080fd5b3461015357806003193601126101535780602092610128610f09565b610130610f24565b6001600160a01b0391821683526001865283832091168252845220549051908152f35b5080fd5b91905034610196578060031936011261019657610193913561018e600161017c610f24565b93838752600560205286200154610f3a565b6112a1565b80f35b8280fd5b8284346103065781600319360112610306576101b4610f09565b92602435907f915327d54f2c758ad33c35b031b5e89868657ea971cda2b8103c502dc672509c83526020946005865284842033855286526101fa60ff868620541661147b565b6102058382336114dd565b600654855163095ea7b360e01b81526001600160a01b038381168583019081526020810187905290928991839185169082908a90829060400103925af180156102fc57958894928196949261028e986102df575b50600654169288519788958694859363a9059cbb60e01b8552840160209093929193604081019460018060a01b031681520152565b03925af19081156102d457506102a7575b505160018152f35b6102c690833d85116102cd575b6102be8183611269565b810190611463565b508261029f565b503d6102b4565b8351903d90823e3d90fd5b6102f590873d89116102cd576102be8183611269565b508a610259565b87513d88823e3d90fd5b80fd5b90508234610306578260031936011261030657610324610f09565b918360243592338152600160205281812060018060a01b03861682526020522054908282106103645760208561035d858503873361133a565b5160018152f35b608490602086519162461bcd60e51b8352820152602560248201527f45524332303a2064656372656173656420616c6c6f77616e63652062656c6f77604482015264207a65726f60d81b6064820152fd5b50503461015357816003193601126101535751908152602090f35b838334610153578160031936011261015357805191809380549160019083821c928285169485156104c9575b60209586861081146104b657858952908115610492575060011461043a575b610436878761042c828c0383611269565b5191829182610edd565b0390f35b81529295507f8a35acfbc15ff81a39ae7d344fd709f28e8600b4aa8c65c6b64bfe7fe36bd19b5b82841061047f57505050826104369461042c9282010194868061041b565b8054868501880152928601928101610461565b60ff19168887015250505050151560051b830101925061042c82610436868061041b565b634e487b7160e01b845260228352602484fd5b93607f16936103fc565b9050346101965781600319360112610196578160209360ff926104f4610f24565b90358252600586528282206001600160a01b039091168252855220549151911615158152f35b5050346101535760203660031901126101535760209181906001600160a01b03610542610f09565b16815280845220549051908152f35b505034610153578160031936011261015357602090517f915327d54f2c758ad33c35b031b5e89868657ea971cda2b8103c502dc672509c8152f35b91809150600319360112610196576105a2610f09565b6024359160018060a01b03828160065416868451809263095ea7b360e01b8252818b816105ea8c60209c8d98840160209093929193604081019460018060a01b031681520152565b03925af1801561071e57610728575b50600654835163a9059cbb60e01b81526001600160a01b0383168189019081526020810188905290918691839186169082908c90829060400103925af1801561071e57610701575b50169384156106c05750907f7560fc1997a16eb75c0b354ad93cc65f1ee3c171053da4528cf4410b0a22a44c9161067a84600254611317565b60025584865285825280862084815401905584867fddf252ad1be2c89b69c2b068fc378daa952ba7f163c4a11628f55a4df523b3ef848451888152a3519283523392a380f35b82606492519162461bcd60e51b8352820152601f60248201527f45524332303a206d696e7420746f20746865207a65726f2061646472657373006044820152fd5b61071790853d87116102cd576102be8183611269565b5038610641565b84513d8a823e3d90fd5b61073e90853d87116102cd576102be8183611269565b50386105f9565b50503461015357806003193601126101535761035d60209261078e610768610f09565b338352600186528483206001600160a01b03821684528652918490205460243590611317565b903361133a565b839150346101535782600319360112610153576107b0610f24565b90336001600160a01b038316036107cc579061019391356112a1565b608490602085519162461bcd60e51b8352820152602f60248201527f416363657373436f6e74726f6c3a2063616e206f6e6c792072656e6f756e636560448201526e103937b632b9903337b91039b2b63360891b6064820152fd5b5050346101535781600319360112610153576020905160068152f35b905034610196578160031936011261019657359061085f610f24565b90828452600560205261087760018286200154610f3a565b828452600560209081528185206001600160a01b039093168086529290528084205460ff16156108a5578380f35b82845260056020528084208285526020528320600160ff1982541617905533917f2f8788117e7eff1d82e926ec794901d17c78024a50270940304540a733656f0d8480a43880808380f35b9050346101965760203660031901126101965781602093600192358152600585522001549051908152f35b83833461015357606036600319011261015357610936610f09565b61093e610f24565b604435917f915327d54f2c758ad33c35b031b5e89868657ea971cda2b8103c502dc672509c85526020946005865284812060018060a01b0380841691828452885261098e60ff888520541661147b565b600654875163095ea7b360e01b81526001600160a01b038716818c019081526020810189905290918a91839185169082908890829060400103925af18015610af957610a14928a928992610adc575b506006541687868d8c519687958694859363a9059cbb60e01b8552840160209093929193604081019460018060a01b031681520152565b03925af18015610ad2579087939291610ab5575b5081526001875281812033825287522054956000198703610a50575b509061035d92916114dd565b838710610a725750610a6a8361035d95969703338361133a565b859493610a44565b845162461bcd60e51b8152908101869052601d60248201527f45524332303a20696e73756666696369656e7420616c6c6f77616e63650000006044820152606490fd5b610acb90893d8b116102cd576102be8183611269565b5089610a28565b87513d85823e3d90fd5b610af290843d86116102cd576102be8183611269565b508c6109dd565b88513d86823e3d90fd5b90508160031936011261019657610b18610f09565b602435913315610cdc5733855260209185835284862054848110610c8e578490338852878552038587205583600254036002558585518581527fddf252ad1be2c89b69c2b068fc378daa952ba7f163c4a11628f55a4df523b3ef853392a3600654855163095ea7b360e01b81526001600160a01b038381168583019081526020810188905289939192918791839185169082908790829060400103925af18015610c845792610c029895928795928995610c67575b5060065416928651998a958694859363a9059cbb60e01b8552840160209093929193604081019460018060a01b031681520152565b03925af1938415610c5d577f222838db2794d11532d940e8dec38ae307ed0b63cd97c233322e221f998767a69394610c40575b50519283523392a280f35b610c5690833d85116102cd576102be8183611269565b5038610c35565b81513d87823e3d90fd5b610c7d90873d89116102cd576102be8183611269565b5038610bcd565b88513d85823e3d90fd5b855162461bcd60e51b8152808401859052602260248201527f45524332303a206275726e20616d6f756e7420657863656564732062616c616e604482015261636560f01b6064820152608490fd5b608490602085519162461bcd60e51b8352820152602160248201527f45524332303a206275726e2066726f6d20746865207a65726f206164647265736044820152607360f81b6064820152fd5b5050346101535781600319360112610153576020906002549051908152f35b50503461015357806003193601126101535760209061035d610d68610f09565b602435903361133a565b91905034610196578260031936011261019657805191836003549060019082821c928281168015610e5d575b6020958686108214610e4a5750848852908115610e285750600114610dcf575b610436868661042c828b0383611269565b929550600383527fc2575a0e9e593c00f959f8c92f12db2869c3395a3b0502d05e2516446f71f85b5b828410610e1557505050826104369461042c928201019438610dbe565b8054868501880152928601928101610df8565b60ff191687860152505050151560051b830101925061042c8261043638610dbe565b634e487b7160e01b845260229052602483fd5b93607f1693610d9e565b849134610196576020366003190112610196573563ffffffff60e01b81168091036101965760209250637965db0b60e01b8114908115610ea9575b5015158152f35b6301ffc9a760e01b14905083610ea2565b60005b838110610ecd5750506000910152565b8181015183820152602001610ebd565b60409160208252610efd8151809281602086015260208686019101610eba565b601f01601f1916010190565b600435906001600160a01b0382168203610f1f57565b600080fd5b602435906001600160a01b0382168203610f1f57565b600081815260209060058252604092838220338352835260ff848320541615610f635750505050565b835167ffffffffffffffff9190336060820184811183821017611255578752602a82528582019287368537825115611241576030845382519160019283101561122d576078602185015360295b8381116111c35750611181579087519460808601908682109082111761116d57885260428552868501956060368837855115611159576030875385518210156111595790607860218701536041915b8183116110eb575050506110a95793859361108f936110806048946110577f416363657373436f6e74726f6c3a206163636f756e7420000000000000000000996110a59b519a8b978801525180926037880190610eba565b8401917001034b99036b4b9b9b4b733903937b6329607d1b603784015251809386840190610eba565b01036028810185520183611269565b5162461bcd60e51b815291829160048301610edd565b0390fd5b60648587519062461bcd60e51b825280600483015260248201527f537472696e67733a20686578206c656e67746820696e73756666696369656e746044820152fd5b909192600f81166010811015611145576f181899199a1a9b1b9c1cb0b131b232b360811b901a61111b858961143c565b5360041c92801561113157600019019190610fff565b634e487b7160e01b82526011600452602482fd5b634e487b7160e01b83526032600452602483fd5b634e487b7160e01b81526032600452602490fd5b634e487b7160e01b87526041600452602487fd5b60648789519062461bcd60e51b825280600483015260248201527f537472696e67733a20686578206c656e67746820696e73756666696369656e746044820152fd5b90600f81166010811015611219576f181899199a1a9b1b9c1cb0b131b232b360811b901a6111f1838761143c565b5360041c9080156112055760001901610fb0565b634e487b7160e01b88526011600452602488fd5b634e487b7160e01b89526032600452602489fd5b634e487b7160e01b87526032600452602487fd5b634e487b7160e01b86526032600452602486fd5b634e487b7160e01b86526041600452602486fd5b90601f8019910116810190811067ffffffffffffffff82111761128b57604052565b634e487b7160e01b600052604160045260246000fd5b906000918083526005602052604083209160018060a01b03169182845260205260ff6040842054166112d257505050565b8083526005602052604083208284526020526040832060ff1981541690557ff6391f5c32d9c69d2a47ea670b442974b53935d1edc7fd64eb21e047a839171b339380a4565b9190820180921161132457565b634e487b7160e01b600052601160045260246000fd5b6001600160a01b039081169182156113eb571691821561139b5760207f8c5be1e5ebec7d5bd14f71427d1e84f3dd0314c0f7b2291e5b200ac8c7c3b925918360005260018252604060002085600052825280604060002055604051908152a3565b60405162461bcd60e51b815260206004820152602260248201527f45524332303a20617070726f766520746f20746865207a65726f206164647265604482015261737360f01b6064820152608490fd5b60405162461bcd60e51b8152602060048201526024808201527f45524332303a20617070726f76652066726f6d20746865207a65726f206164646044820152637265737360e01b6064820152608490fd5b90815181101561144d570160200190565b634e487b7160e01b600052603260045260246000fd5b90816020910312610f1f57518015158103610f1f5790565b1561148257565b60405162461bcd60e51b815260206004820152602d60248201527f57555344433a205472616e7366657220726566757365642e20556e617574686f60448201526c1c9a5e9959081858d8dbdd5b9d609a1b6064820152608490fd5b6001600160a01b039081169182156115f857169182156115a75760008281528060205260408120549180831061155357604082827fddf252ad1be2c89b69c2b068fc378daa952ba7f163c4a11628f55a4df523b3ef958760209652828652038282205586815220818154019055604051908152a3565b60405162461bcd60e51b815260206004820152602660248201527f45524332303a207472616e7366657220616d6f756e7420657863656564732062604482015265616c616e636560d01b6064820152608490fd5b60405162461bcd60e51b815260206004820152602360248201527f45524332303a207472616e7366657220746f20746865207a65726f206164647260448201526265737360e81b6064820152608490fd5b60405162461bcd60e51b815260206004820152602560248201527f45524332303a207472616e736665722066726f6d20746865207a65726f206164604482015264647265737360d81b6064820152608490fdfea2646970667358221220e2254b7ebffe6661425f2015c9e7be30f60e1fb264f595c8f93e40455145fe4e64736f6c63430008110033",
  "linkReferences": {},
  "deployedLinkReferences": {}
}