{
  "_format": "hh-sol-artifact-1",
  "contractName": "WUSDC",
  "sourceName": "contracts/underlying/WUSDC.sol",
  "abi": [
    {
      "inputs": [
        {
          "internalType": "address",
          "name": "mktAdminAcct_",
          "type": "address"
        }
      ],
      "stateMutability": "nonpayable",
      "type": "constructor"
    },
    {
      "anonymous": false,
      "inputs": [
        {
          "indexed": true,
          "internalType": "address",
          "name": "owner",
          "type": "address"
        },
        {
          "indexed": true,
          "internalType": "address",
          "name": "spender",
          "type": "address"
        },
        {
          "indexed": false,
          "internalType": "uint256",
          "name": "value",
          "type": "uint256"
        }
      ],
      "name": "Approval",
      "type": "event"
    },
    {
      "anonymous": false,
      "inputs": [
        {
          "indexed": true,
          "internalType": "address",
          "name": "minter",
          "type": "address"
        },
        {
          "indexed": true,
          "internalType": "address",
          "name": "to",
          "type": "address"
        },
        {
          "indexed": false,
          "internalType": "uint256",
          "name": "amount",
          "type": "uint256"
        }
      ],
      "name": "MintWUSDC",
      "type": "event"
    },
    {
      "anonymous": false,
      "inputs": [
        {
          "indexed": true,
          "internalType": "bytes32",
          "name": "role",
          "type": "bytes32"
        },
        {
          "indexed": true,
          "internalType": "bytes32",
          "name": "previousAdminRole",
          "type": "bytes32"
        },
        {
          "indexed": true,
          "internalType": "bytes32",
          "name": "newAdminRole",
          "type": "bytes32"
        }
      ],
      "name": "RoleAdminChanged",
      "type": "event"
    },
    {
      "anonymous": false,
      "inputs": [
        {
          "indexed": true,
          "internalType": "bytes32",
          "name": "role",
          "type": "bytes32"
        },
        {
          "indexed": true,
          "internalType": "address",
          "name": "account",
          "type": "address"
        },
        {
          "indexed": true,
          "internalType": "address",
          "name": "sender",
          "type": "address"
        }
      ],
      "name": "RoleGranted",
      "type": "event"
    },
    {
      "anonymous": false,
      "inputs": [
        {
          "indexed": true,
          "internalType": "bytes32",
          "name": "role",
          "type": "bytes32"
        },
        {
          "indexed": true,
          "internalType": "address",
          "name": "account",
          "type": "address"
        },
        {
          "indexed": true,
          "internalType": "address",
          "name": "sender",
          "type": "address"
        }
      ],
      "name": "RoleRevoked",
      "type": "event"
    },
    {
      "anonymous": false,
      "inputs": [
        {
          "indexed": true,
          "internalType": "address",
          "name": "from",
          "type": "address"
        },
        {
          "indexed": true,
          "internalType": "address",
          "name": "to",
          "type": "address"
        },
        {
          "indexed": false,
          "internalType": "uint256",
          "name": "value",
          "type": "uint256"
        }
      ],
      "name": "Transfer",
      "type": "event"
    },
    {
      "inputs": [],
      "name": "BURNER_ROLE",
      "outputs": [
        {
          "internalType": "bytes32",
          "name": "",
          "type": "bytes32"
        }
      ],
      "stateMutability": "view",
      "type": "function"
    },
    {
      "inputs": [],
      "name": "DEFAULT_ADMIN_ROLE",
      "outputs": [
        {
          "internalType": "bytes32",
          "name": "",
          "type": "bytes32"
        }
      ],
      "stateMutability": "view",
      "type": "function"
    },
    {
      "inputs": [],
      "name": "MINTER_ROLE",
      "outputs": [
        {
          "internalType": "bytes32",
          "name": "",
          "type": "bytes32"
        }
      ],
      "stateMutability": "view",
      "type": "function"
    },
    {
      "inputs": [],
      "name": "TRANSFER_ADMIN_ROLE",
      "outputs": [
        {
          "internalType": "bytes32",
          "name": "",
          "type": "bytes32"
        }
      ],
      "stateMutability": "view",
      "type": "function"
    },
    {
      "inputs": [
        {
          "internalType": "address",
          "name": "owner",
          "type": "address"
        },
        {
          "internalType": "address",
          "name": "spender",
          "type": "address"
        }
      ],
      "name": "allowance",
      "outputs": [
        {
          "internalType": "uint256",
          "name": "",
          "type": "uint256"
        }
      ],
      "stateMutability": "view",
      "type": "function"
    },
    {
      "inputs": [
        {
          "internalType": "address",
          "name": "spender",
          "type": "address"
        },
        {
          "internalType": "uint256",
          "name": "amount",
          "type": "uint256"
        }
      ],
      "name": "approve",
      "outputs": [
        {
          "internalType": "bool",
          "name": "",
          "type": "bool"
        }
      ],
      "stateMutability": "nonpayable",
      "type": "function"
    },
    {
      "inputs": [
        {
          "internalType": "address",
          "name": "account",
          "type": "address"
        }
      ],
      "name": "balanceOf",
      "outputs": [
        {
          "internalType": "uint256",
          "name": "",
          "type": "uint256"
        }
      ],
      "stateMutability": "view",
      "type": "function"
    },
    {
      "inputs": [
        {
          "internalType": "address",
          "name": "from",
          "type": "address"
        },
        {
          "internalType": "uint256",
          "name": "slotId_",
          "type": "uint256"
        },
        {
          "internalType": "uint256",
          "name": "amount",
          "type": "uint256"
        }
      ],
      "name": "burn",
      "outputs": [],
      "stateMutability": "nonpayable",
      "type": "function"
    },
    {
      "inputs": [],
      "name": "decimals",
      "outputs": [
        {
          "internalType": "uint8",
          "name": "",
          "type": "uint8"
        }
      ],
      "stateMutability": "view",
      "type": "function"
    },
    {
      "inputs": [
        {
          "internalType": "address",
          "name": "spender",
          "type": "address"
        },
        {
          "internalType": "uint256",
          "name": "subtractedValue",
          "type": "uint256"
        }
      ],
      "name": "decreaseAllowance",
      "outputs": [
        {
          "internalType": "bool",
          "name": "",
          "type": "bool"
        }
      ],
      "stateMutability": "nonpayable",
      "type": "function"
    },
    {
      "inputs": [
        {
          "internalType": "bytes32",
          "name": "role",
          "type": "bytes32"
        }
      ],
      "name": "getRoleAdmin",
      "outputs": [
        {
          "internalType": "bytes32",
          "name": "",
          "type": "bytes32"
        }
      ],
      "stateMutability": "view",
      "type": "function"
    },
    {
      "inputs": [
        {
          "internalType": "bytes32",
          "name": "role",
          "type": "bytes32"
        },
        {
          "internalType": "address",
          "name": "account",
          "type": "address"
        }
      ],
      "name": "grantRole",
      "outputs": [],
      "stateMutability": "nonpayable",
      "type": "function"
    },
    {
      "inputs": [
        {
          "internalType": "bytes32",
          "name": "role",
          "type": "bytes32"
        },
        {
          "internalType": "address",
          "name": "account",
          "type": "address"
        }
      ],
      "name": "hasRole",
      "outputs": [
        {
          "internalType": "bool",
          "name": "",
          "type": "bool"
        }
      ],
      "stateMutability": "view",
      "type": "function"
    },
    {
      "inputs": [
        {
          "internalType": "address",
          "name": "spender",
          "type": "address"
        },
        {
          "internalType": "uint256",
          "name": "addedValue",
          "type": "uint256"
        }
      ],
      "name": "increaseAllowance",
      "outputs": [
        {
          "internalType": "bool",
          "name": "",
          "type": "bool"
        }
      ],
      "stateMutability": "nonpayable",
      "type": "function"
    },
    {
      "inputs": [
        {
          "internalType": "address",
          "name": "to_",
          "type": "address"
        },
        {
          "internalType": "uint256",
          "name": "slotId_",
          "type": "uint256"
        },
        {
          "internalType": "uint256",
          "name": "amount_",
          "type": "uint256"
        }
      ],
      "name": "mint",
      "outputs": [],
      "stateMutability": "nonpayable",
      "type": "function"
    },
    {
      "inputs": [],
      "name": "name",
      "outputs": [
        {
          "internalType": "string",
          "name": "",
          "type": "string"
        }
      ],
      "stateMutability": "view",
      "type": "function"
    },
    {
      "inputs": [
        {
          "internalType": "bytes32",
          "name": "role",
          "type": "bytes32"
        },
        {
          "internalType": "address",
          "name": "account",
          "type": "address"
        }
      ],
      "name": "renounceRole",
      "outputs": [],
      "stateMutability": "nonpayable",
      "type": "function"
    },
    {
      "inputs": [
        {
          "internalType": "bytes32",
          "name": "role",
          "type": "bytes32"
        },
        {
          "internalType": "address",
          "name": "account",
          "type": "address"
        }
      ],
      "name": "revokeRole",
      "outputs": [],
      "stateMutability": "nonpayable",
      "type": "function"
    },
    {
      "inputs": [
        {
          "internalType": "bytes4",
          "name": "interfaceId",
          "type": "bytes4"
        }
      ],
      "name": "supportsInterface",
      "outputs": [
        {
          "internalType": "bool",
          "name": "",
          "type": "bool"
        }
      ],
      "stateMutability": "view",
      "type": "function"
    },
    {
      "inputs": [],
      "name": "symbol",
      "outputs": [
        {
          "internalType": "string",
          "name": "",
          "type": "string"
        }
      ],
      "stateMutability": "view",
      "type": "function"
    },
    {
      "inputs": [],
      "name": "totalSupply",
      "outputs": [
        {
          "internalType": "uint256",
          "name": "",
          "type": "uint256"
        }
      ],
      "stateMutability": "view",
      "type": "function"
    },
    {
      "inputs": [
        {
          "internalType": "address",
          "name": "to",
          "type": "address"
        },
        {
          "internalType": "uint256",
          "name": "amount",
          "type": "uint256"
        }
      ],
      "name": "transfer",
      "outputs": [
        {
          "internalType": "bool",
          "name": "",
          "type": "bool"
        }
      ],
      "stateMutability": "nonpayable",
      "type": "function"
    },
    {
      "inputs": [
        {
          "internalType": "address",
          "name": "from",
          "type": "address"
        },
        {
          "internalType": "address",
          "name": "to",
          "type": "address"
        },
        {
          "internalType": "uint256",
          "name": "amount",
          "type": "uint256"
        }
      ],
      "name": "transferFrom",
      "outputs": [
        {
          "internalType": "bool",
          "name": "",
          "type": "bool"
        }
      ],
      "stateMutability": "nonpayable",
      "type": "function"
    }
  ],
  "bytecode": "0x6080346200053257601f620019c438819003828101601f1990811685019490926001600160401b0392838711838810176200043657808392604098895283396020928391810103126200053257516001600160a01b038116939084900362000532576200006b62000537565b92600c84526b57726170706564205553444360a01b838501526200008e62000537565b60059687825264575553444360d81b85830152855191838311620004365760039283546001988982811c9216801562000527575b8983101462000511578185849311620004bb575b50889085831160011462000458576000926200044c575b505060001982861b1c191690881b1783555b8051938411620004365760049485548881811c911680156200042b575b888210146200041657908184879695949311620003bb575b508792851160011462000353575060009362000347575b505082861b92600019911b1c19161790555b600080528381528460002083600052815260ff856000205416156200030b575b7f9f2df0fed2c77648de5860a4cc508cd0818c85b8b8a1ab4ceeef8d981c8956a6806000528482528560002084600052825260ff86600020541615620002ce575b507f3c11d16cbaffd01df69ce1c404f6340ee057498f5f00246190ea54220576a848806000528482528560002084600052825260ff8660002054161562000291575b507f915327d54f2c758ad33c35b031b5e89868657ea971cda2b8103c502dc672509c93846000528082528560002084600052825260ff8660002054161562000252575b855161144c9081620005588239f35b84600052815284600020908360005252836000209060ff198254161790553391600080516020620019a4833981519152600080a4388080808062000243565b8060005284825285600020846000528252856000208360ff19825416179055833391600080516020620019a4833981519152600080a43862000200565b8060005284825285600020846000528252856000208360ff19825416179055833391600080516020620019a4833981519152600080a438620001be565b6000805283815284600020836000528152846000208260ff1982541617905533836000600080516020620019a48339815191528180a46200017d565b0151915038806200014b565b889593929193169286600052876000209360005b89828210620003a4575050851162000389575b50505050811b0190556200015d565b01519060f884600019921b161c19169055388080806200037a565b8385015187558b9890960195938401930162000367565b9091929394508660005287600020848088018d1c8201928a89106200040c575b918d8c928a99989796959401901c01915b828110620003fc57505062000134565b600081558897508b9101620003ec565b92508192620003db565b602287634e487b7160e01b6000525260246000fd5b90607f16906200011c565b634e487b7160e01b600052604160045260246000fd5b015190503880620000ed565b90888b941691876000528a6000209260005b8c828210620004a457505084116200048b575b505050811b018355620000ff565b015160001983881b60f8161c191690553880806200047d565b8385015186558e979095019493840193016200046a565b9091508560005288600020858d818601901c8201928b861062000507575b918e8d928796959401901c01915b828110620004f7575050620000d6565b600081558594508c9101620004e7565b92508192620004d9565b634e487b7160e01b600052602260045260246000fd5b91607f1691620000c2565b600080fd5b60408051919082016001600160401b03811183821017620004365760405256fe608060409080825260048036101561001657600080fd5b600091823560e01c90816301ffc9a714610c815750806306fdde0314610b8d578063095ea7b314610b63578063156e29f6146109e857806318160ddd146109c957806323b872dd14610872578063248a9ca314610846578063282c51f31461080b5780632f2ff15d1461075d578063313ce5671461074157806336568abe146106b1578063395093511461066157806368a37ae81461062657806370a08231146105ef57806391d14854146105a757806395d89b41146104a4578063a217fddf14610489578063a457c2d7146103e2578063a9059cbb146103b1578063d539139314610376578063d547741f14610334578063dd62ed3e146102eb5763f5298aca1461012157600080fd5b346102e75761012f36610d55565b9091927f3c11d16cbaffd01df69ce1c404f6340ee057498f5f00246190ea54220576a848855260209260058452868620338752845260ff8787205416156102a4578552600683528585206001600160a01b03909416808652938352858520805483810391908211610291575583156102445783855284835285852054908282106101f65750908495817fddf252ad1be2c89b69c2b068fc378daa952ba7f163c4a11628f55a4df523b3ef94938688528785520381872055816002540360025551908152a380f35b865162461bcd60e51b8152908101849052602260248201527f45524332303a206275726e20616d6f756e7420657863656564732062616c616e604482015261636560f01b6064820152608490fd5b855162461bcd60e51b8152908101839052602160248201527f45524332303a206275726e2066726f6d20746865207a65726f206164647265736044820152607360f81b6064820152608490fd5b634e487b7160e01b875260118352602487fd5b865162461bcd60e51b8152808301859052601d60248201527f57555344433a2043616c6c6572206973206e6f742061206275726e65720000006044820152606490fd5b5080fd5b8284346102e757806003193601126102e75780602092610309610d24565b610311610d3f565b6001600160a01b0391821683526001865283832091168252845220549051908152f35b50823461037257806003193601126103725761036f913561036a6001610358610d3f565b93838752600560205286200154610d7f565b6110e6565b80f35b8280fd5b8284346102e757816003193601126102e757602090517f9f2df0fed2c77648de5860a4cc508cd0818c85b8b8a1ab4ceeef8d981c8956a68152f35b8284346102e757806003193601126102e7576020906103db6103d1610d24565b60243590336112a8565b5160018152f35b5090346104865782600319360112610486576103fc610d24565b918360243592338152600160205281812060018060a01b0386168252602052205490828210610435576020856103db858503873361117f565b608490602086519162461bcd60e51b8352820152602560248201527f45524332303a2064656372656173656420616c6c6f77616e63652062656c6f77604482015264207a65726f60d81b6064820152fd5b80fd5b8284346102e757816003193601126102e75751908152602090f35b5091346102e757816003193601126102e757805191809380549160019083821c9282851694851561059d575b602095868610811461058a57858952908115610566575060011461050e575b61050a8787610500828c03836110ae565b5191829182610cf8565b0390f35b81529295507f8a35acfbc15ff81a39ae7d344fd709f28e8600b4aa8c65c6b64bfe7fe36bd19b5b828410610553575050508261050a94610500928201019438806104ef565b8054868501880152928601928101610535565b60ff19168887015250505050151560051b83010192506105008261050a38806104ef565b634e487b7160e01b845260228352602484fd5b93607f16936104d0565b508290346103725781600319360112610372578160209360ff926105c9610d3f565b90358252600586528282206001600160a01b039091168252855220549151911615158152f35b8284346102e75760203660031901126102e75760209181906001600160a01b03610617610d24565b16815280845220549051908152f35b8284346102e757816003193601126102e757602090517f915327d54f2c758ad33c35b031b5e89868657ea971cda2b8103c502dc672509c8152f35b8284346102e757806003193601126102e7576103db6020926106aa610684610d24565b338352600186528483206001600160a01b0382168452865291849020546024359061115c565b903361117f565b50346102e757826003193601126102e7576106ca610d3f565b90336001600160a01b038316036106e6579061036f91356110e6565b608490602085519162461bcd60e51b8352820152602f60248201527f416363657373436f6e74726f6c3a2063616e206f6e6c792072656e6f756e636560448201526e103937b632b9903337b91039b2b63360891b6064820152fd5b8284346102e757816003193601126102e7576020905160068152f35b50829034610372578160031936011261037257359061077a610d3f565b90828452600560205261079260018286200154610d7f565b828452600560209081528185206001600160a01b039093168086529290528084205460ff16156107c0578380f35b82845260056020528084208285526020528320600160ff1982541617905533917f2f8788117e7eff1d82e926ec794901d17c78024a50270940304540a733656f0d8480a48180808380f35b8284346102e757816003193601126102e757602090517f3c11d16cbaffd01df69ce1c404f6340ee057498f5f00246190ea54220576a8488152f35b508290346103725760203660031901126103725781602093600192358152600585522001549051908152f35b5091346102e75760603660031901126102e75761088d610d24565b610895610d3f565b604435917f915327d54f2c758ad33c35b031b5e89868657ea971cda2b8103c502dc672509c85526020946005865284812060018060a01b03831690818352875260ff868320541615610970579085918152600187528181203382528752205495600019870361090b575b50906103db92916112a8565b83871061092d5750610925836103db95969703338361117f565b8594936108ff565b845162461bcd60e51b8152908101869052601d60248201527f45524332303a20696e73756666696369656e7420616c6c6f77616e63650000006044820152606490fd5b855162461bcd60e51b8152808901889052602d60248201527f57555344433a205472616e7366657220726566757365642e20556e617574686f60448201526c1c9a5e9959081858d8dbdd5b9d609a1b6064820152608490fd5b8284346102e757816003193601126102e7576020906002549051908152f35b508234610372576109f836610d55565b92907f9f2df0fed2c77648de5860a4cc508cd0818c85b8b8a1ab4ceeef8d981c8956a6865260209260058452828720338852845260ff838820541615610b20576001600160a01b0316948515610add5750907f7560fc1997a16eb75c0b354ad93cc65f1ee3c171053da4528cf4410b0a22a44c9291610a798560025461115c565b60025585875286835281872085815401905585877fddf252ad1be2c89b69c2b068fc378daa952ba7f163c4a11628f55a4df523b3ef858551898152a38652600682528086203387528252808620610ad185825461115c565b9055519283523392a380f35b825162461bcd60e51b8152908101849052601f60248201527f45524332303a206d696e7420746f20746865207a65726f2061646472657373006044820152606490fd5b825162461bcd60e51b8152808701859052601d60248201527f57555344433a2043616c6c6572206973206e6f742061206d696e7465720000006044820152606490fd5b8284346102e757806003193601126102e7576020906103db610b83610d24565b602435903361117f565b508234610372578260031936011261037257805191836003549060019082821c928281168015610c77575b6020958686108214610c645750848852908115610c425750600114610be9575b61050a8686610500828b03836110ae565b929550600383527fc2575a0e9e593c00f959f8c92f12db2869c3395a3b0502d05e2516446f71f85b5b828410610c2f575050508261050a94610500928201019486610bd8565b8054868501880152928601928101610c12565b60ff191687860152505050151560051b83010192506105008261050a86610bd8565b634e487b7160e01b845260229052602483fd5b93607f1693610bb8565b91905034610372576020366003190112610372573563ffffffff60e01b81168091036103725760209250637965db0b60e01b8114908115610cc4575b5015158152f35b6301ffc9a760e01b14905083610cbd565b60005b838110610ce85750506000910152565b8181015183820152602001610cd8565b60409160208252610d188151809281602086015260208686019101610cd5565b601f01601f1916010190565b600435906001600160a01b0382168203610d3a57565b600080fd5b602435906001600160a01b0382168203610d3a57565b6060906003190112610d3a576004356001600160a01b0381168103610d3a57906024359060443590565b600081815260209060058252604092838220338352835260ff848320541615610da85750505050565b835167ffffffffffffffff919033606082018481118382101761109a578752602a825285820192873685378251156110865760308453825191600192831015611072576078602185015360295b8381116110085750610fc65790875194608086019086821090821117610fb257885260428552868501956060368837855115610f9e57603087538551821015610f9e5790607860218701536041915b818311610f3057505050610eee57938593610ed493610ec5604894610e9c7f416363657373436f6e74726f6c3a206163636f756e742000000000000000000099610eea9b519a8b978801525180926037880190610cd5565b8401917001034b99036b4b9b9b4b733903937b6329607d1b603784015251809386840190610cd5565b010360288101855201836110ae565b5162461bcd60e51b815291829160048301610cf8565b0390fd5b60648587519062461bcd60e51b825280600483015260248201527f537472696e67733a20686578206c656e67746820696e73756666696369656e746044820152fd5b909192600f81166010811015610f8a576f181899199a1a9b1b9c1cb0b131b232b360811b901a610f608589611281565b5360041c928015610f7657600019019190610e44565b634e487b7160e01b82526011600452602482fd5b634e487b7160e01b83526032600452602483fd5b634e487b7160e01b81526032600452602490fd5b634e487b7160e01b87526041600452602487fd5b60648789519062461bcd60e51b825280600483015260248201527f537472696e67733a20686578206c656e67746820696e73756666696369656e746044820152fd5b90600f8116601081101561105e576f181899199a1a9b1b9c1cb0b131b232b360811b901a6110368387611281565b5360041c90801561104a5760001901610df5565b634e487b7160e01b88526011600452602488fd5b634e487b7160e01b89526032600452602489fd5b634e487b7160e01b87526032600452602487fd5b634e487b7160e01b86526032600452602486fd5b634e487b7160e01b86526041600452602486fd5b90601f8019910116810190811067ffffffffffffffff8211176110d057604052565b634e487b7160e01b600052604160045260246000fd5b906000918083526005602052604083209160018060a01b03169182845260205260ff60408420541661111757505050565b8083526005602052604083208284526020526040832060ff1981541690557ff6391f5c32d9c69d2a47ea670b442974b53935d1edc7fd64eb21e047a839171b339380a4565b9190820180921161116957565b634e487b7160e01b600052601160045260246000fd5b6001600160a01b0390811691821561123057169182156111e05760207f8c5be1e5ebec7d5bd14f71427d1e84f3dd0314c0f7b2291e5b200ac8c7c3b925918360005260018252604060002085600052825280604060002055604051908152a3565b60405162461bcd60e51b815260206004820152602260248201527f45524332303a20617070726f766520746f20746865207a65726f206164647265604482015261737360f01b6064820152608490fd5b60405162461bcd60e51b8152602060048201526024808201527f45524332303a20617070726f76652066726f6d20746865207a65726f206164646044820152637265737360e01b6064820152608490fd5b908151811015611292570160200190565b634e487b7160e01b600052603260045260246000fd5b6001600160a01b039081169182156113c357169182156113725760008281528060205260408120549180831061131e57604082827fddf252ad1be2c89b69c2b068fc378daa952ba7f163c4a11628f55a4df523b3ef958760209652828652038282205586815220818154019055604051908152a3565b60405162461bcd60e51b815260206004820152602660248201527f45524332303a207472616e7366657220616d6f756e7420657863656564732062604482015265616c616e636560d01b6064820152608490fd5b60405162461bcd60e51b815260206004820152602360248201527f45524332303a207472616e7366657220746f20746865207a65726f206164647260448201526265737360e81b6064820152608490fd5b60405162461bcd60e51b815260206004820152602560248201527f45524332303a207472616e736665722066726f6d20746865207a65726f206164604482015264647265737360d81b6064820152608490fdfea26469706673582212202934f576e66d5b8f4e43364830a57cde4975b05eb464d5d14311f5e08cfdc64a64736f6c634300081100332f8788117e7eff1d82e926ec794901d17c78024a50270940304540a733656f0d",
  "linkReferences": {},
  "deployedLinkReferences": {}
}