{
  "_format": "hh-sol-artifact-1",
  "contractName": "WUSDC",
  "sourceName": "contracts/underlying/WUSDC.sol",
  "abi": [
    {
      "inputs": [
        {
          "internalType": "address",
          "name": "usdcContract_",
          "type": "address"
        },
        {
          "internalType": "address",
          "name": "mktAdminAcct_",
          "type": "address"
        }
      ],
      "stateMutability": "nonpayable",
      "type": "constructor"
    },
    {
      "anonymous": false,
      "inputs": [
        {
          "indexed": true,
          "internalType": "address",
          "name": "owner",
          "type": "address"
        },
        {
          "indexed": true,
          "internalType": "address",
          "name": "spender",
          "type": "address"
        },
        {
          "indexed": false,
          "internalType": "uint256",
          "name": "value",
          "type": "uint256"
        }
      ],
      "name": "Approval",
      "type": "event"
    },
    {
      "anonymous": false,
      "inputs": [
        {
          "indexed": true,
          "internalType": "address",
          "name": "minter",
          "type": "address"
        },
        {
          "indexed": true,
          "internalType": "address",
          "name": "to",
          "type": "address"
        },
        {
          "indexed": false,
          "internalType": "uint256",
          "name": "amount",
          "type": "uint256"
        }
      ],
      "name": "MintWUSDC",
      "type": "event"
    },
    {
      "anonymous": false,
      "inputs": [
        {
          "indexed": true,
          "internalType": "address",
          "name": "redeemer",
          "type": "address"
        },
        {
          "indexed": false,
          "internalType": "uint256",
          "name": "amount",
          "type": "uint256"
        }
      ],
      "name": "Redeem",
      "type": "event"
    },
    {
      "anonymous": false,
      "inputs": [
        {
          "indexed": true,
          "internalType": "bytes32",
          "name": "role",
          "type": "bytes32"
        },
        {
          "indexed": true,
          "internalType": "bytes32",
          "name": "previousAdminRole",
          "type": "bytes32"
        },
        {
          "indexed": true,
          "internalType": "bytes32",
          "name": "newAdminRole",
          "type": "bytes32"
        }
      ],
      "name": "RoleAdminChanged",
      "type": "event"
    },
    {
      "anonymous": false,
      "inputs": [
        {
          "indexed": true,
          "internalType": "bytes32",
          "name": "role",
          "type": "bytes32"
        },
        {
          "indexed": true,
          "internalType": "address",
          "name": "account",
          "type": "address"
        },
        {
          "indexed": true,
          "internalType": "address",
          "name": "sender",
          "type": "address"
        }
      ],
      "name": "RoleGranted",
      "type": "event"
    },
    {
      "anonymous": false,
      "inputs": [
        {
          "indexed": true,
          "internalType": "bytes32",
          "name": "role",
          "type": "bytes32"
        },
        {
          "indexed": true,
          "internalType": "address",
          "name": "account",
          "type": "address"
        },
        {
          "indexed": true,
          "internalType": "address",
          "name": "sender",
          "type": "address"
        }
      ],
      "name": "RoleRevoked",
      "type": "event"
    },
    {
      "anonymous": false,
      "inputs": [
        {
          "indexed": true,
          "internalType": "address",
          "name": "from",
          "type": "address"
        },
        {
          "indexed": true,
          "internalType": "address",
          "name": "to",
          "type": "address"
        },
        {
          "indexed": false,
          "internalType": "uint256",
          "name": "value",
          "type": "uint256"
        }
      ],
      "name": "Transfer",
      "type": "event"
    },
    {
      "inputs": [],
      "name": "DEFAULT_ADMIN_ROLE",
      "outputs": [
        {
          "internalType": "bytes32",
          "name": "",
          "type": "bytes32"
        }
      ],
      "stateMutability": "view",
      "type": "function"
    },
    {
      "inputs": [],
      "name": "TRANSFER_ADMIN_ROLE",
      "outputs": [
        {
          "internalType": "bytes32",
          "name": "",
          "type": "bytes32"
        }
      ],
      "stateMutability": "view",
      "type": "function"
    },
    {
      "inputs": [
        {
          "internalType": "address",
          "name": "owner",
          "type": "address"
        },
        {
          "internalType": "address",
          "name": "spender",
          "type": "address"
        }
      ],
      "name": "allowance",
      "outputs": [
        {
          "internalType": "uint256",
          "name": "",
          "type": "uint256"
        }
      ],
      "stateMutability": "view",
      "type": "function"
    },
    {
      "inputs": [
        {
          "internalType": "address",
          "name": "spender",
          "type": "address"
        },
        {
          "internalType": "uint256",
          "name": "amount",
          "type": "uint256"
        }
      ],
      "name": "approve",
      "outputs": [
        {
          "internalType": "bool",
          "name": "",
          "type": "bool"
        }
      ],
      "stateMutability": "nonpayable",
      "type": "function"
    },
    {
      "inputs": [
        {
          "internalType": "address",
          "name": "account",
          "type": "address"
        }
      ],
      "name": "balanceOf",
      "outputs": [
        {
          "internalType": "uint256",
          "name": "",
          "type": "uint256"
        }
      ],
      "stateMutability": "view",
      "type": "function"
    },
    {
      "inputs": [],
      "name": "decimals",
      "outputs": [
        {
          "internalType": "uint8",
          "name": "",
          "type": "uint8"
        }
      ],
      "stateMutability": "view",
      "type": "function"
    },
    {
      "inputs": [
        {
          "internalType": "address",
          "name": "spender",
          "type": "address"
        },
        {
          "internalType": "uint256",
          "name": "subtractedValue",
          "type": "uint256"
        }
      ],
      "name": "decreaseAllowance",
      "outputs": [
        {
          "internalType": "bool",
          "name": "",
          "type": "bool"
        }
      ],
      "stateMutability": "nonpayable",
      "type": "function"
    },
    {
      "inputs": [
        {
          "internalType": "bytes32",
          "name": "role",
          "type": "bytes32"
        }
      ],
      "name": "getRoleAdmin",
      "outputs": [
        {
          "internalType": "bytes32",
          "name": "",
          "type": "bytes32"
        }
      ],
      "stateMutability": "view",
      "type": "function"
    },
    {
      "inputs": [
        {
          "internalType": "bytes32",
          "name": "role",
          "type": "bytes32"
        },
        {
          "internalType": "address",
          "name": "account",
          "type": "address"
        }
      ],
      "name": "grantRole",
      "outputs": [],
      "stateMutability": "nonpayable",
      "type": "function"
    },
    {
      "inputs": [
        {
          "internalType": "bytes32",
          "name": "role",
          "type": "bytes32"
        },
        {
          "internalType": "address",
          "name": "account",
          "type": "address"
        }
      ],
      "name": "hasRole",
      "outputs": [
        {
          "internalType": "bool",
          "name": "",
          "type": "bool"
        }
      ],
      "stateMutability": "view",
      "type": "function"
    },
    {
      "inputs": [
        {
          "internalType": "address",
          "name": "spender",
          "type": "address"
        },
        {
          "internalType": "uint256",
          "name": "addedValue",
          "type": "uint256"
        }
      ],
      "name": "increaseAllowance",
      "outputs": [
        {
          "internalType": "bool",
          "name": "",
          "type": "bool"
        }
      ],
      "stateMutability": "nonpayable",
      "type": "function"
    },
    {
      "inputs": [
        {
          "internalType": "address",
          "name": "to_",
          "type": "address"
        },
        {
          "internalType": "uint256",
          "name": "slotId_",
          "type": "uint256"
        },
        {
          "internalType": "uint256",
          "name": "amount_",
          "type": "uint256"
        }
      ],
      "name": "mint",
      "outputs": [],
      "stateMutability": "nonpayable",
      "type": "function"
    },
    {
      "inputs": [],
      "name": "name",
      "outputs": [
        {
          "internalType": "string",
          "name": "",
          "type": "string"
        }
      ],
      "stateMutability": "view",
      "type": "function"
    },
    {
      "inputs": [
        {
          "internalType": "address",
          "name": "to_",
          "type": "address"
        },
        {
          "internalType": "uint256",
          "name": "slotId_",
          "type": "uint256"
        },
        {
          "internalType": "uint256",
          "name": "amount_",
          "type": "uint256"
        }
      ],
      "name": "redeem",
      "outputs": [],
      "stateMutability": "nonpayable",
      "type": "function"
    },
    {
      "inputs": [
        {
          "internalType": "bytes32",
          "name": "role",
          "type": "bytes32"
        },
        {
          "internalType": "address",
          "name": "account",
          "type": "address"
        }
      ],
      "name": "renounceRole",
      "outputs": [],
      "stateMutability": "nonpayable",
      "type": "function"
    },
    {
      "inputs": [
        {
          "internalType": "bytes32",
          "name": "role",
          "type": "bytes32"
        },
        {
          "internalType": "address",
          "name": "account",
          "type": "address"
        }
      ],
      "name": "revokeRole",
      "outputs": [],
      "stateMutability": "nonpayable",
      "type": "function"
    },
    {
      "inputs": [
        {
          "internalType": "bytes4",
          "name": "interfaceId",
          "type": "bytes4"
        }
      ],
      "name": "supportsInterface",
      "outputs": [
        {
          "internalType": "bool",
          "name": "",
          "type": "bool"
        }
      ],
      "stateMutability": "view",
      "type": "function"
    },
    {
      "inputs": [],
      "name": "symbol",
      "outputs": [
        {
          "internalType": "string",
          "name": "",
          "type": "string"
        }
      ],
      "stateMutability": "view",
      "type": "function"
    },
    {
      "inputs": [],
      "name": "totalSupply",
      "outputs": [
        {
          "internalType": "uint256",
          "name": "",
          "type": "uint256"
        }
      ],
      "stateMutability": "view",
      "type": "function"
    },
    {
      "inputs": [
        {
          "internalType": "address",
          "name": "to",
          "type": "address"
        },
        {
          "internalType": "uint256",
          "name": "amount",
          "type": "uint256"
        }
      ],
      "name": "transfer",
      "outputs": [
        {
          "internalType": "bool",
          "name": "",
          "type": "bool"
        }
      ],
      "stateMutability": "nonpayable",
      "type": "function"
    },
    {
      "inputs": [
        {
          "internalType": "address",
          "name": "from",
          "type": "address"
        },
        {
          "internalType": "address",
          "name": "to",
          "type": "address"
        },
        {
          "internalType": "uint256",
          "name": "amount",
          "type": "uint256"
        }
      ],
      "name": "transferFrom",
      "outputs": [
        {
          "internalType": "bool",
          "name": "",
          "type": "bool"
        }
      ],
      "stateMutability": "nonpayable",
      "type": "function"
    }
  ],
  "bytecode": "0x608034620004095762001b7690601f90601f19906001600160401b0390388590038481018416820190838211838310176200030f5780839160409889948552833981010312620004095762000054816200042e565b936200006460208093016200042e565b936200006f6200040e565b93600c85526b57726170706564205553444360a01b84860152620000926200040e565b60059384825264575553444360d81b868301528651918383116200030f5760039283546001998a82811c92168015620003fe575b8a831014620003e857818584931162000394575b508990858311600114620003315760009262000325575b505060001982861b1c191690891b1783555b80519384116200030f5760049485548981811c9116801562000304575b89821014620002ef5790818487969594931162000295575b50889285116001146200022d575060009362000221575b505082871b92600019911b1c19161790555b600680546001600160a01b0319166001600160a01b039687161790557f915327d54f2c758ad33c35b031b5e89868657ea971cda2b8103c502dc672509c600081815282845287812095909616808752948352948690205460ff1615620001d1575b85516117329081620004448239f35b84600052815284600020908360005252836000209060ff1982541617905533917f2f8788117e7eff1d82e926ec794901d17c78024a50270940304540a733656f0d600080a43880808080620001c2565b0151915038806200014f565b899593929193169286600052886000209360005b8a8282106200027e575050851162000263575b50505050811b01905562000161565b01519060f884600019921b161c191690553880808062000254565b8385015187558c9890960195938401930162000241565b9091929394508660005288600020848088018a1c8201928b8910620002e5575b918c9189989796959493018b1c01915b828110620002d557505062000138565b600081558897508c9101620002c5565b92508192620002b5565b602287634e487b7160e01b6000525260246000fd5b90607f169062000120565b634e487b7160e01b600052604160045260246000fd5b015190503880620000f1565b90888c941691876000528b6000209260005b8d8282106200037d575050841162000364575b505050811b01835562000103565b015160001983881b60f8161c1916905538808062000356565b8385015186558f9790950194938401930162000343565b9091508560005289600020858085018b1c8201928c8610620003de575b918d9186959493018c1c01915b828110620003ce575050620000da565b600081558594508d9101620003be565b92508192620003b1565b634e487b7160e01b600052602260045260246000fd5b91607f1691620000c6565b600080fd5b60408051919082016001600160401b038111838210176200030f57604052565b51906001600160a01b0382168203620004095756fe608060408181526004918236101561001657600080fd5b600092833560e01c91826301ffc9a714610eee5750816306fdde0314610df9578163095ea7b314610dcf578163156e29f614610bfe57816318160ddd14610bdf57816323b872dd146109f7578163248a9ca3146109cc5781632b83cccd146107375781632f2ff15d1461068a578163313ce5671461066e57816336568abe146105dc578163395093511461058c57816368a37ae81461055157816370a082311461051a57816391d14854146104d357816395d89b41146103d0578163a217fddf146103b5578163a457c2d714610309578163a9059cbb1461019a578163d547741f14610157575063dd62ed3e1461010c57600080fd5b3461015357806003193601126101535780602092610128610f90565b610130610fab565b6001600160a01b0391821683526001865283832091168252845220549051908152f35b5080fd5b91905034610196578060031936011261019657610193913561018e600161017c610fab565b93838752600560205286200154610feb565b611352565b80f35b8280fd5b8284346103065781600319360112610306576101b4610f90565b92602435907f915327d54f2c758ad33c35b031b5e89868657ea971cda2b8103c502dc672509c83526020946005865284842033855286526101fa60ff868620541661152c565b61020583823361158e565b600654855163095ea7b360e01b81526001600160a01b038381168583019081526020810187905290928991839185169082908a90829060400103925af180156102fc57958894928196949261028e986102df575b50600654169288519788958694859363a9059cbb60e01b8552840160209093929193604081019460018060a01b031681520152565b03925af19081156102d457506102a7575b505160018152f35b6102c690833d85116102cd575b6102be818361131a565b810190611514565b508261029f565b503d6102b4565b8351903d90823e3d90fd5b6102f590873d89116102cd576102be818361131a565b508a610259565b87513d88823e3d90fd5b80fd5b90508234610306578260031936011261030657610324610f90565b918360243592338152600160205281812060018060a01b03861682526020522054908282106103645760208561035d85850387336113eb565b5160018152f35b608490602086519162461bcd60e51b8352820152602560248201527f45524332303a2064656372656173656420616c6c6f77616e63652062656c6f77604482015264207a65726f60d81b6064820152fd5b50503461015357816003193601126101535751908152602090f35b838334610153578160031936011261015357805191809380549160019083821c928285169485156104c9575b60209586861081146104b657858952908115610492575060011461043a575b610436878761042c828c038361131a565b5191829182610f64565b0390f35b81529295507f8a35acfbc15ff81a39ae7d344fd709f28e8600b4aa8c65c6b64bfe7fe36bd19b5b82841061047f57505050826104369461042c9282010194868061041b565b8054868501880152928601928101610461565b60ff19168887015250505050151560051b830101925061042c82610436868061041b565b634e487b7160e01b845260228352602484fd5b93607f16936103fc565b9050346101965781600319360112610196578160209360ff926104f4610fab565b90358252600586528282206001600160a01b039091168252855220549151911615158152f35b5050346101535760203660031901126101535760209181906001600160a01b03610542610f90565b16815280845220549051908152f35b505034610153578160031936011261015357602090517f915327d54f2c758ad33c35b031b5e89868657ea971cda2b8103c502dc672509c8152f35b50503461015357806003193601126101535761035d6020926105d56105af610f90565b338352600186528483206001600160a01b038216845286529184902054602435906113c8565b90336113eb565b839150346101535782600319360112610153576105f7610fab565b90336001600160a01b0383160361061357906101939135611352565b608490602085519162461bcd60e51b8352820152602f60248201527f416363657373436f6e74726f6c3a2063616e206f6e6c792072656e6f756e636560448201526e103937b632b9903337b91039b2b63360891b6064820152fd5b5050346101535781600319360112610153576020905160068152f35b90503461019657816003193601126101965735906106a6610fab565b9082845260056020526106be60018286200154610feb565b828452600560209081528185206001600160a01b039093168086529290528084205460ff16156106ec578380f35b82845260056020528084208285526020528320600160ff1982541617905533917f2f8788117e7eff1d82e926ec794901d17c78024a50270940304540a733656f0d8480a43880808380f35b8383346101535761074736610fc1565b929080855260209260078452828620338752845282862054851115610796575b5050907f222838db2794d11532d940e8dec38ae307ed0b63cd97c233322e221f998767a691519283523392a280f35b331561097f5733865285845282862054858110610931578590338852878652038387205584600254036002558583518681527fddf252ad1be2c89b69c2b068fc378daa952ba7f163c4a11628f55a4df523b3ef863392a3600654835163095ea7b360e01b81526001600160a01b03838116828b019081526020810189905290928791839185169082908c90829060400103925af180156109275792869288926108759561090a575b506006541690898b88519687958694859363a9059cbb60e01b8552840160209093929193604081019460018060a01b031681520152565b03925af18015610900576108e3575b5084526007825280842033855282528084208054908482039182116108d0575592935083927f222838db2794d11532d940e8dec38ae307ed0b63cd97c233322e221f998767a686610767565b634e487b7160e01b865260118752602486fd5b6108f990843d86116102cd576102be818361131a565b5086610884565b83513d88823e3d90fd5b61092090853d87116102cd576102be818361131a565b508b61083e565b85513d8a823e3d90fd5b835162461bcd60e51b8152808901869052602260248201527f45524332303a206275726e20616d6f756e7420657863656564732062616c616e604482015261636560f01b6064820152608490fd5b825162461bcd60e51b8152808801859052602160248201527f45524332303a206275726e2066726f6d20746865207a65726f206164647265736044820152607360f81b6064820152608490fd5b9050346101965760203660031901126101965781602093600192358152600585522001549051908152f35b83833461015357606036600319011261015357610a12610f90565b610a1a610fab565b604435917f915327d54f2c758ad33c35b031b5e89868657ea971cda2b8103c502dc672509c85526020946005865284812060018060a01b03808416918284528852610a6a60ff888520541661152c565b600654875163095ea7b360e01b81526001600160a01b038716818c019081526020810189905290918a91839185169082908890829060400103925af18015610bd557610af0928a928992610bb8575b506006541687868d8c519687958694859363a9059cbb60e01b8552840160209093929193604081019460018060a01b031681520152565b03925af18015610bae579087939291610b91575b5081526001875281812033825287522054956000198703610b2c575b509061035d929161158e565b838710610b4e5750610b468361035d9596970333836113eb565b859493610b20565b845162461bcd60e51b8152908101869052601d60248201527f45524332303a20696e73756666696369656e7420616c6c6f77616e63650000006044820152606490fd5b610ba790893d8b116102cd576102be818361131a565b5089610b04565b87513d85823e3d90fd5b610bce90843d86116102cd576102be818361131a565b508c610ab9565b88513d86823e3d90fd5b5050346101535781600319360112610153576020906002549051908152f35b9190503461019657610c0f36610fc1565b600654845163095ea7b360e01b81526001600160a01b0385811682890190815260208181018690529497949694959491939192918791839186169082908d90829060400103925af18015610da857610db2575b50600654845163a9059cbb60e01b81526001600160a01b038316818a019081526020810189905290918791839186169082908d90829060400103925af18015610da857610d8b575b5016948515610d485750907f7560fc1997a16eb75c0b354ad93cc65f1ee3c171053da4528cf4410b0a22a44c9291610ce4856002546113c8565b60025585875286835281872085815401905585877fddf252ad1be2c89b69c2b068fc378daa952ba7f163c4a11628f55a4df523b3ef858551898152a38652600782528086203387528252808620610d3c8582546113c8565b9055519283523392a380f35b825162461bcd60e51b8152908101849052601f60248201527f45524332303a206d696e7420746f20746865207a65726f2061646472657373006044820152606490fd5b610da190863d88116102cd576102be818361131a565b5038610caa565b85513d8b823e3d90fd5b610dc890863d88116102cd576102be818361131a565b5038610c62565b50503461015357806003193601126101535760209061035d610def610f90565b60243590336113eb565b91905034610196578260031936011261019657805191836003549060019082821c928281168015610ee4575b6020958686108214610ed15750848852908115610eaf5750600114610e56575b610436868661042c828b038361131a565b929550600383527fc2575a0e9e593c00f959f8c92f12db2869c3395a3b0502d05e2516446f71f85b5b828410610e9c57505050826104369461042c928201019438610e45565b8054868501880152928601928101610e7f565b60ff191687860152505050151560051b830101925061042c8261043638610e45565b634e487b7160e01b845260229052602483fd5b93607f1693610e25565b849134610196576020366003190112610196573563ffffffff60e01b81168091036101965760209250637965db0b60e01b8114908115610f30575b5015158152f35b6301ffc9a760e01b14905083610f29565b60005b838110610f545750506000910152565b8181015183820152602001610f44565b60409160208252610f848151809281602086015260208686019101610f41565b601f01601f1916010190565b600435906001600160a01b0382168203610fa657565b600080fd5b602435906001600160a01b0382168203610fa657565b6060906003190112610fa6576004356001600160a01b0381168103610fa657906024359060443590565b600081815260209060058252604092838220338352835260ff8483205416156110145750505050565b835167ffffffffffffffff9190336060820184811183821017611306578752602a825285820192873685378251156112f257603084538251916001928310156112de576078602185015360295b8381116112745750611232579087519460808601908682109082111761121e5788526042855286850195606036883785511561120a5760308753855182101561120a5790607860218701536041915b81831161119c5750505061115a57938593611140936111316048946111087f416363657373436f6e74726f6c3a206163636f756e7420000000000000000000996111569b519a8b978801525180926037880190610f41565b8401917001034b99036b4b9b9b4b733903937b6329607d1b603784015251809386840190610f41565b0103602881018552018361131a565b5162461bcd60e51b815291829160048301610f64565b0390fd5b60648587519062461bcd60e51b825280600483015260248201527f537472696e67733a20686578206c656e67746820696e73756666696369656e746044820152fd5b909192600f811660108110156111f6576f181899199a1a9b1b9c1cb0b131b232b360811b901a6111cc85896114ed565b5360041c9280156111e2576000190191906110b0565b634e487b7160e01b82526011600452602482fd5b634e487b7160e01b83526032600452602483fd5b634e487b7160e01b81526032600452602490fd5b634e487b7160e01b87526041600452602487fd5b60648789519062461bcd60e51b825280600483015260248201527f537472696e67733a20686578206c656e67746820696e73756666696369656e746044820152fd5b90600f811660108110156112ca576f181899199a1a9b1b9c1cb0b131b232b360811b901a6112a283876114ed565b5360041c9080156112b65760001901611061565b634e487b7160e01b88526011600452602488fd5b634e487b7160e01b89526032600452602489fd5b634e487b7160e01b87526032600452602487fd5b634e487b7160e01b86526032600452602486fd5b634e487b7160e01b86526041600452602486fd5b90601f8019910116810190811067ffffffffffffffff82111761133c57604052565b634e487b7160e01b600052604160045260246000fd5b906000918083526005602052604083209160018060a01b03169182845260205260ff60408420541661138357505050565b8083526005602052604083208284526020526040832060ff1981541690557ff6391f5c32d9c69d2a47ea670b442974b53935d1edc7fd64eb21e047a839171b339380a4565b919082018092116113d557565b634e487b7160e01b600052601160045260246000fd5b6001600160a01b0390811691821561149c571691821561144c5760207f8c5be1e5ebec7d5bd14f71427d1e84f3dd0314c0f7b2291e5b200ac8c7c3b925918360005260018252604060002085600052825280604060002055604051908152a3565b60405162461bcd60e51b815260206004820152602260248201527f45524332303a20617070726f766520746f20746865207a65726f206164647265604482015261737360f01b6064820152608490fd5b60405162461bcd60e51b8152602060048201526024808201527f45524332303a20617070726f76652066726f6d20746865207a65726f206164646044820152637265737360e01b6064820152608490fd5b9081518110156114fe570160200190565b634e487b7160e01b600052603260045260246000fd5b90816020910312610fa657518015158103610fa65790565b1561153357565b60405162461bcd60e51b815260206004820152602d60248201527f57555344433a205472616e7366657220726566757365642e20556e617574686f60448201526c1c9a5e9959081858d8dbdd5b9d609a1b6064820152608490fd5b6001600160a01b039081169182156116a957169182156116585760008281528060205260408120549180831061160457604082827fddf252ad1be2c89b69c2b068fc378daa952ba7f163c4a11628f55a4df523b3ef958760209652828652038282205586815220818154019055604051908152a3565b60405162461bcd60e51b815260206004820152602660248201527f45524332303a207472616e7366657220616d6f756e7420657863656564732062604482015265616c616e636560d01b6064820152608490fd5b60405162461bcd60e51b815260206004820152602360248201527f45524332303a207472616e7366657220746f20746865207a65726f206164647260448201526265737360e81b6064820152608490fd5b60405162461bcd60e51b815260206004820152602560248201527f45524332303a207472616e736665722066726f6d20746865207a65726f206164604482015264647265737360d81b6064820152608490fdfea264697066735822122081d5fe109786592c6869a96381765058496d6681c8576f8cbc6b481ae13aa6c464736f6c63430008110033",
  "linkReferences": {},
  "deployedLinkReferences": {}
}